{
	"database/farmer/ListHarvester.sol": {
		"ListHarvester": {
			"abi": [
				{
					"inputs": [],
					"stateMutability": "nonpayable",
					"type": "constructor"
				},
				{
					"anonymous": false,
					"inputs": [
						{
							"components": [
								{
									"internalType": "uint256",
									"name": "harvesterId",
									"type": "uint256"
								},
								{
									"internalType": "address",
									"name": "harvesterAddress",
									"type": "address"
								},
								{
									"internalType": "uint256",
									"name": "category",
									"type": "uint256"
								}
							],
							"indexed": false,
							"internalType": "struct Harvester",
							"name": "item",
							"type": "tuple"
						}
					],
					"name": "Add",
					"type": "event"
				},
				{
					"anonymous": false,
					"inputs": [
						{
							"indexed": true,
							"internalType": "address",
							"name": "previousOwner",
							"type": "address"
						},
						{
							"indexed": true,
							"internalType": "address",
							"name": "newOwner",
							"type": "address"
						}
					],
					"name": "OwnershipTransferred",
					"type": "event"
				},
				{
					"anonymous": false,
					"inputs": [
						{
							"components": [
								{
									"internalType": "uint256",
									"name": "harvesterId",
									"type": "uint256"
								},
								{
									"internalType": "address",
									"name": "harvesterAddress",
									"type": "address"
								},
								{
									"internalType": "uint256",
									"name": "category",
									"type": "uint256"
								}
							],
							"indexed": false,
							"internalType": "struct Harvester",
							"name": "item",
							"type": "tuple"
						}
					],
					"name": "Remove",
					"type": "event"
				},
				{
					"inputs": [
						{
							"components": [
								{
									"internalType": "uint256",
									"name": "harvesterId",
									"type": "uint256"
								},
								{
									"internalType": "address",
									"name": "harvesterAddress",
									"type": "address"
								},
								{
									"internalType": "uint256",
									"name": "category",
									"type": "uint256"
								}
							],
							"internalType": "struct Harvester",
							"name": "item",
							"type": "tuple"
						},
						{
							"internalType": "bytes32",
							"name": "secret",
							"type": "bytes32"
						}
					],
					"name": "add",
					"outputs": [
						{
							"internalType": "bool",
							"name": "",
							"type": "bool"
						}
					],
					"stateMutability": "nonpayable",
					"type": "function"
				},
				{
					"inputs": [
						{
							"internalType": "uint256",
							"name": "index",
							"type": "uint256"
						},
						{
							"internalType": "bytes32",
							"name": "secret",
							"type": "bytes32"
						}
					],
					"name": "at",
					"outputs": [
						{
							"components": [
								{
									"internalType": "uint256",
									"name": "harvesterId",
									"type": "uint256"
								},
								{
									"internalType": "address",
									"name": "harvesterAddress",
									"type": "address"
								},
								{
									"internalType": "uint256",
									"name": "category",
									"type": "uint256"
								}
							],
							"internalType": "struct Harvester",
							"name": "",
							"type": "tuple"
						}
					],
					"stateMutability": "view",
					"type": "function"
				},
				{
					"inputs": [],
					"name": "destroy",
					"outputs": [],
					"stateMutability": "nonpayable",
					"type": "function"
				},
				{
					"inputs": [
						{
							"internalType": "address",
							"name": "value",
							"type": "address"
						},
						{
							"internalType": "bytes32",
							"name": "secret",
							"type": "bytes32"
						}
					],
					"name": "findHarvesterIdByAddress",
					"outputs": [
						{
							"internalType": "uint256",
							"name": "",
							"type": "uint256"
						}
					],
					"stateMutability": "view",
					"type": "function"
				},
				{
					"inputs": [
						{
							"internalType": "bytes32",
							"name": "secret",
							"type": "bytes32"
						}
					],
					"name": "getLength",
					"outputs": [
						{
							"internalType": "uint256",
							"name": "",
							"type": "uint256"
						}
					],
					"stateMutability": "view",
					"type": "function"
				},
				{
					"inputs": [
						{
							"internalType": "uint256",
							"name": "index",
							"type": "uint256"
						},
						{
							"internalType": "bytes32",
							"name": "secret",
							"type": "bytes32"
						}
					],
					"name": "hide",
					"outputs": [
						{
							"internalType": "bool",
							"name": "",
							"type": "bool"
						}
					],
					"stateMutability": "nonpayable",
					"type": "function"
				},
				{
					"inputs": [],
					"name": "owner",
					"outputs": [
						{
							"internalType": "address",
							"name": "",
							"type": "address"
						}
					],
					"stateMutability": "view",
					"type": "function"
				},
				{
					"inputs": [
						{
							"internalType": "uint256",
							"name": "index",
							"type": "uint256"
						},
						{
							"internalType": "bytes32",
							"name": "secret",
							"type": "bytes32"
						},
						{
							"internalType": "uint256",
							"name": "category",
							"type": "uint256"
						}
					],
					"name": "setHarvester",
					"outputs": [
						{
							"internalType": "bool",
							"name": "",
							"type": "bool"
						}
					],
					"stateMutability": "nonpayable",
					"type": "function"
				},
				{
					"inputs": [
						{
							"internalType": "address",
							"name": "newOwner",
							"type": "address"
						}
					],
					"name": "transferOwnership",
					"outputs": [],
					"stateMutability": "nonpayable",
					"type": "function"
				}
			],
			"devdoc": {
				"kind": "dev",
				"methods": {
					"owner()": {
						"details": "Returns the address of the current owner."
					},
					"transferOwnership(address)": {
						"details": "Transfers ownership of the contract to a new account (`newOwner`). Can only be called by the current owner."
					}
				},
				"version": 1
			},
			"evm": {
				"assembly": "    /* \"database/farmer/ListHarvester.sol\":241:2515  contract ListHarvester is Ownable {... */\n  mstore(0x40, 0x80)\n    /* \"database/farmer/ListHarvester.sol\":361:362  0 */\n  0x00\n    /* \"database/farmer/ListHarvester.sol\":329:362  uint256 private autoIncrement = 0 */\n  0x02\n  sstore\n    /* \"database/farmer/ListHarvester.sol\":369:395  constructor() Ownable() {} */\n  callvalue\n  dup1\n  iszero\n  tag_1\n  jumpi\n  0x00\n  dup1\n  revert\ntag_1:\n  pop\n    /* \"abstract/Ownable.sol\":932:942  msg.sender */\n  caller\n    /* \"abstract/Ownable.sol\":923:929  _owner */\n  0x00\n  dup1\n    /* \"abstract/Ownable.sol\":923:942  _owner = msg.sender */\n  0x0100\n  exp\n  dup2\n  sload\n  dup2\n  0xffffffffffffffffffffffffffffffffffffffff\n  mul\n  not\n  and\n  swap1\n  dup4\n  0xffffffffffffffffffffffffffffffffffffffff\n  and\n  mul\n  or\n  swap1\n  sstore\n  pop\n    /* \"database/farmer/ListHarvester.sol\":241:2515  contract ListHarvester is Ownable {... */\n  dataSize(sub_0)\n  dup1\n  dataOffset(sub_0)\n  0x00\n  codecopy\n  0x00\n  return\nstop\n\nsub_0: assembly {\n        /* \"database/farmer/ListHarvester.sol\":241:2515  contract ListHarvester is Ownable {... */\n      mstore(0x40, 0x80)\n      callvalue\n      dup1\n      iszero\n      tag_1\n      jumpi\n      0x00\n      dup1\n      revert\n    tag_1:\n      pop\n      jumpi(tag_2, lt(calldatasize, 0x04))\n      shr(0xe0, calldataload(0x00))\n      dup1\n      0x8da5cb5b\n      gt\n      tag_12\n      jumpi\n      dup1\n      0x8da5cb5b\n      eq\n      tag_7\n      jumpi\n      dup1\n      0xb615c00a\n      eq\n      tag_8\n      jumpi\n      dup1\n      0xc78a6741\n      eq\n      tag_9\n      jumpi\n      dup1\n      0xf2fde38b\n      eq\n      tag_10\n      jumpi\n      dup1\n      0xfd82e9dd\n      eq\n      tag_11\n      jumpi\n      jump(tag_2)\n    tag_12:\n      dup1\n      0x0461559a\n      eq\n      tag_3\n      jumpi\n      dup1\n      0x3ce17585\n      eq\n      tag_4\n      jumpi\n      dup1\n      0x56ee78b5\n      eq\n      tag_5\n      jumpi\n      dup1\n      0x83197ef0\n      eq\n      tag_6\n      jumpi\n    tag_2:\n      0x00\n      dup1\n      revert\n        /* \"database/farmer/ListHarvester.sol\":2278:2513  function setHarvester(... */\n    tag_3:\n      tag_13\n      0x04\n      dup1\n      calldatasize\n      sub\n      dup2\n      add\n      swap1\n      tag_14\n      swap2\n      swap1\n      tag_15\n      jump\t// in\n    tag_14:\n      tag_16\n      jump\t// in\n    tag_13:\n      mload(0x40)\n      tag_17\n      swap2\n      swap1\n      tag_18\n      jump\t// in\n    tag_17:\n      mload(0x40)\n      dup1\n      swap2\n      sub\n      swap1\n      return\n        /* \"database/farmer/ListHarvester.sol\":1013:1295  function add(Harvester memory item, bytes32 secret)... */\n    tag_4:\n      tag_19\n      0x04\n      dup1\n      calldatasize\n      sub\n      dup2\n      add\n      swap1\n      tag_20\n      swap2\n      swap1\n      tag_21\n      jump\t// in\n    tag_20:\n      tag_22\n      jump\t// in\n    tag_19:\n      mload(0x40)\n      tag_23\n      swap2\n      swap1\n      tag_18\n      jump\t// in\n    tag_23:\n      mload(0x40)\n      dup1\n      swap2\n      sub\n      swap1\n      return\n        /* \"database/farmer/ListHarvester.sol\":1591:1916  function findHarvesterIdByAddress(address value, bytes32 secret)... */\n    tag_5:\n      tag_24\n      0x04\n      dup1\n      calldatasize\n      sub\n      dup2\n      add\n      swap1\n      tag_25\n      swap2\n      swap1\n      tag_26\n      jump\t// in\n    tag_25:\n      tag_27\n      jump\t// in\n    tag_24:\n      mload(0x40)\n      tag_28\n      swap2\n      swap1\n      tag_29\n      jump\t// in\n    tag_28:\n      mload(0x40)\n      dup1\n      swap2\n      sub\n      swap1\n      return\n        /* \"abstract/Ownable.sol\":2642:2731  function destroy() public onlyOwner {... */\n    tag_6:\n      tag_30\n      tag_31\n      jump\t// in\n    tag_30:\n      stop\n        /* \"abstract/Ownable.sol\":1175:1260  function owner() public view virtual returns (address) {... */\n    tag_7:\n      tag_32\n      tag_33\n      jump\t// in\n    tag_32:\n      mload(0x40)\n      tag_34\n      swap2\n      swap1\n      tag_35\n      jump\t// in\n    tag_34:\n      mload(0x40)\n      dup1\n      swap2\n      sub\n      swap1\n      return\n        /* \"database/farmer/ListHarvester.sol\":1922:2183  function hide(uint256 index, bytes32 secret)... */\n    tag_8:\n      tag_36\n      0x04\n      dup1\n      calldatasize\n      sub\n      dup2\n      add\n      swap1\n      tag_37\n      swap2\n      swap1\n      tag_38\n      jump\t// in\n    tag_37:\n      tag_39\n      jump\t// in\n    tag_36:\n      mload(0x40)\n      tag_40\n      swap2\n      swap1\n      tag_18\n      jump\t// in\n    tag_40:\n      mload(0x40)\n      dup1\n      swap2\n      sub\n      swap1\n      return\n        /* \"database/farmer/ListHarvester.sol\":1301:1585  function at(uint256 index, bytes32 secret)... */\n    tag_9:\n      tag_41\n      0x04\n      dup1\n      calldatasize\n      sub\n      dup2\n      add\n      swap1\n      tag_42\n      swap2\n      swap1\n      tag_38\n      jump\t// in\n    tag_42:\n      tag_43\n      jump\t// in\n    tag_41:\n      mload(0x40)\n      tag_44\n      swap2\n      swap1\n      tag_45\n      jump\t// in\n    tag_44:\n      mload(0x40)\n      dup1\n      swap2\n      sub\n      swap1\n      return\n        /* \"abstract/Ownable.sol\":2063:2295  function transferOwnership(address newOwner) public virtual onlyOwner {... */\n    tag_10:\n      tag_46\n      0x04\n      dup1\n      calldatasize\n      sub\n      dup2\n      add\n      swap1\n      tag_47\n      swap2\n      swap1\n      tag_48\n      jump\t// in\n    tag_47:\n      tag_49\n      jump\t// in\n    tag_46:\n      stop\n        /* \"database/farmer/ListHarvester.sol\":844:1007  function getLength(bytes32 secret)... */\n    tag_11:\n      tag_50\n      0x04\n      dup1\n      calldatasize\n      sub\n      dup2\n      add\n      swap1\n      tag_51\n      swap2\n      swap1\n      tag_52\n      jump\t// in\n    tag_51:\n      tag_53\n      jump\t// in\n    tag_50:\n      mload(0x40)\n      tag_54\n      swap2\n      swap1\n      tag_29\n      jump\t// in\n    tag_54:\n      mload(0x40)\n      dup1\n      swap2\n      sub\n      swap1\n      return\n        /* \"database/farmer/ListHarvester.sol\":2278:2513  function setHarvester(... */\n    tag_16:\n        /* \"database/farmer/ListHarvester.sol\":2438:2442  bool */\n      0x00\n        /* \"database/farmer/ListHarvester.sol\":2403:2409  secret */\n      dup3\n        /* \"constant/SecretKey.sol\":232:298  0x8e1604a838d0f1a9b2cda14a099e4ceb08e966cc6e05e8296f67b02d61a79f09 */\n      0x8e1604a838d0f1a9b2cda14a099e4ceb08e966cc6e05e8296f67b02d61a79f09\n        /* \"database/farmer/ListHarvester.sol\":549:561  DATABASE_KEY */\n      0x00\n      shl\n        /* \"database/farmer/ListHarvester.sol\":540:545  value */\n      dup2\n        /* \"database/farmer/ListHarvester.sol\":540:561  value == DATABASE_KEY */\n      eq\n        /* \"database/farmer/ListHarvester.sol\":519:627  require(... */\n      tag_56\n      jumpi\n      mload(0x40)\n      0x08c379a000000000000000000000000000000000000000000000000000000000\n      dup2\n      mstore\n      0x04\n      add\n      tag_57\n      swap1\n      tag_58\n      jump\t// in\n    tag_57:\n      mload(0x40)\n      dup1\n      swap2\n      sub\n      swap1\n      revert\n    tag_56:\n        /* \"database/farmer/ListHarvester.sol\":2422:2427  index */\n      dup5\n        /* \"database/farmer/ListHarvester.sol\":723:728  index */\n      dup1\n        /* \"database/farmer/ListHarvester.sol\":718:719  1 */\n      0x01\n        /* \"database/farmer/ListHarvester.sol\":718:728  1 <= index */\n      gt\n      iszero\n        /* \"database/farmer/ListHarvester.sol\":717:757  (1 <= index) && (index <= autoIncrement) */\n      dup1\n      iszero\n      tag_60\n      jumpi\n      pop\n        /* \"database/farmer/ListHarvester.sol\":743:756  autoIncrement */\n      sload(0x02)\n        /* \"database/farmer/ListHarvester.sol\":734:739  index */\n      dup2\n        /* \"database/farmer/ListHarvester.sol\":734:756  index <= autoIncrement */\n      gt\n      iszero\n        /* \"database/farmer/ListHarvester.sol\":717:757  (1 <= index) && (index <= autoIncrement) */\n    tag_60:\n        /* \"database/farmer/ListHarvester.sol\":696:820  require(... */\n      tag_61\n      jumpi\n      mload(0x40)\n      0x08c379a000000000000000000000000000000000000000000000000000000000\n      dup2\n      mstore\n      0x04\n      add\n      tag_62\n      swap1\n      tag_63\n      jump\t// in\n    tag_62:\n      mload(0x40)\n      dup1\n      swap2\n      sub\n      swap1\n      revert\n    tag_61:\n        /* \"database/farmer/ListHarvester.sol\":2477:2485  category */\n      dup4\n        /* \"database/farmer/ListHarvester.sol\":2454:2458  list */\n      0x01\n        /* \"database/farmer/ListHarvester.sol\":2454:2465  list[index] */\n      0x00\n        /* \"database/farmer/ListHarvester.sol\":2459:2464  index */\n      dup9\n        /* \"database/farmer/ListHarvester.sol\":2454:2465  list[index] */\n      dup2\n      mstore\n      0x20\n      add\n      swap1\n      dup2\n      mstore\n      0x20\n      add\n      0x00\n      keccak256\n        /* \"database/farmer/ListHarvester.sol\":2454:2474  list[index].category */\n      0x02\n      add\n        /* \"database/farmer/ListHarvester.sol\":2454:2485  list[index].category = category */\n      dup2\n      swap1\n      sstore\n      pop\n        /* \"database/farmer/ListHarvester.sol\":2502:2506  true */\n      0x01\n        /* \"database/farmer/ListHarvester.sol\":2495:2506  return true */\n      swap3\n      pop\n        /* \"database/farmer/ListHarvester.sol\":637:638  _ */\n      pop\n        /* \"database/farmer/ListHarvester.sol\":2278:2513  function setHarvester(... */\n      pop\n      swap4\n      swap3\n      pop\n      pop\n      pop\n      jump\t// out\n        /* \"database/farmer/ListHarvester.sol\":1013:1295  function add(Harvester memory item, bytes32 secret)... */\n    tag_22:\n        /* \"database/farmer/ListHarvester.sol\":1130:1134  bool */\n      0x00\n        /* \"database/farmer/ListHarvester.sol\":1105:1111  secret */\n      dup2\n        /* \"constant/SecretKey.sol\":232:298  0x8e1604a838d0f1a9b2cda14a099e4ceb08e966cc6e05e8296f67b02d61a79f09 */\n      0x8e1604a838d0f1a9b2cda14a099e4ceb08e966cc6e05e8296f67b02d61a79f09\n        /* \"database/farmer/ListHarvester.sol\":549:561  DATABASE_KEY */\n      0x00\n      shl\n        /* \"database/farmer/ListHarvester.sol\":540:545  value */\n      dup2\n        /* \"database/farmer/ListHarvester.sol\":540:561  value == DATABASE_KEY */\n      eq\n        /* \"database/farmer/ListHarvester.sol\":519:627  require(... */\n      tag_66\n      jumpi\n      mload(0x40)\n      0x08c379a000000000000000000000000000000000000000000000000000000000\n      dup2\n      mstore\n      0x04\n      add\n      tag_67\n      swap1\n      tag_58\n      jump\t// in\n    tag_67:\n      mload(0x40)\n      dup1\n      swap2\n      sub\n      swap1\n      revert\n    tag_66:\n        /* \"database/farmer/ListHarvester.sol\":1150:1163  autoIncrement */\n      0x02\n      0x00\n        /* \"database/farmer/ListHarvester.sol\":1150:1165  autoIncrement++ */\n      dup2\n      sload\n      dup1\n      swap3\n      swap2\n      swap1\n      tag_69\n      swap1\n      tag_70\n      jump\t// in\n    tag_69:\n      swap2\n      swap1\n      pop\n      sstore\n      pop\n        /* \"database/farmer/ListHarvester.sol\":1194:1207  autoIncrement */\n      sload(0x02)\n        /* \"database/farmer/ListHarvester.sol\":1175:1179  item */\n      dup5\n        /* \"database/farmer/ListHarvester.sol\":1175:1191  item.harvesterId */\n      0x00\n      add\n        /* \"database/farmer/ListHarvester.sol\":1175:1207  item.harvesterId = autoIncrement */\n      dup2\n      dup2\n      mstore\n      pop\n      pop\n        /* \"database/farmer/ListHarvester.sol\":1239:1243  item */\n      dup4\n        /* \"database/farmer/ListHarvester.sol\":1217:1221  list */\n      0x01\n        /* \"database/farmer/ListHarvester.sol\":1217:1236  list[autoIncrement] */\n      0x00\n        /* \"database/farmer/ListHarvester.sol\":1222:1235  autoIncrement */\n      sload(0x02)\n        /* \"database/farmer/ListHarvester.sol\":1217:1236  list[autoIncrement] */\n      dup2\n      mstore\n      0x20\n      add\n      swap1\n      dup2\n      mstore\n      0x20\n      add\n      0x00\n      keccak256\n        /* \"database/farmer/ListHarvester.sol\":1217:1243  list[autoIncrement] = item */\n      0x00\n      dup3\n      add\n      mload\n      dup2\n      0x00\n      add\n      sstore\n      0x20\n      dup3\n      add\n      mload\n      dup2\n      0x01\n      add\n      exp(0x0100, 0x00)\n      dup2\n      sload\n      dup2\n      0xffffffffffffffffffffffffffffffffffffffff\n      mul\n      not\n      and\n      swap1\n      dup4\n      0xffffffffffffffffffffffffffffffffffffffff\n      and\n      mul\n      or\n      swap1\n      sstore\n      pop\n      0x40\n      dup3\n      add\n      mload\n      dup2\n      0x02\n      add\n      sstore\n      swap1\n      pop\n      pop\n        /* \"database/farmer/ListHarvester.sol\":1258:1267  Add(item) */\n      0xcd52d7a5ad1530fc4e2a7fc9b6b7cd488496952af7129189a1132017f883c8e3\n        /* \"database/farmer/ListHarvester.sol\":1262:1266  item */\n      dup5\n        /* \"database/farmer/ListHarvester.sol\":1258:1267  Add(item) */\n      mload(0x40)\n      tag_71\n      swap2\n      swap1\n      tag_45\n      jump\t// in\n    tag_71:\n      mload(0x40)\n      dup1\n      swap2\n      sub\n      swap1\n      log1\n        /* \"database/farmer/ListHarvester.sol\":1284:1288  true */\n      0x01\n        /* \"database/farmer/ListHarvester.sol\":1277:1288  return true */\n      swap2\n      pop\n        /* \"database/farmer/ListHarvester.sol\":1013:1295  function add(Harvester memory item, bytes32 secret)... */\n      pop\n      swap3\n      swap2\n      pop\n      pop\n      jump\t// out\n        /* \"database/farmer/ListHarvester.sol\":1591:1916  function findHarvesterIdByAddress(address value, bytes32 secret)... */\n    tag_27:\n        /* \"database/farmer/ListHarvester.sol\":1734:1741  uint256 */\n      0x00\n        /* \"database/farmer/ListHarvester.sol\":1709:1715  secret */\n      dup2\n        /* \"constant/SecretKey.sol\":232:298  0x8e1604a838d0f1a9b2cda14a099e4ceb08e966cc6e05e8296f67b02d61a79f09 */\n      0x8e1604a838d0f1a9b2cda14a099e4ceb08e966cc6e05e8296f67b02d61a79f09\n        /* \"database/farmer/ListHarvester.sol\":549:561  DATABASE_KEY */\n      0x00\n      shl\n        /* \"database/farmer/ListHarvester.sol\":540:545  value */\n      dup2\n        /* \"database/farmer/ListHarvester.sol\":540:561  value == DATABASE_KEY */\n      eq\n        /* \"database/farmer/ListHarvester.sol\":519:627  require(... */\n      tag_73\n      jumpi\n      mload(0x40)\n      0x08c379a000000000000000000000000000000000000000000000000000000000\n      dup2\n      mstore\n      0x04\n      add\n      tag_74\n      swap1\n      tag_58\n      jump\t// in\n    tag_74:\n      mload(0x40)\n      dup1\n      swap2\n      sub\n      swap1\n      revert\n    tag_73:\n        /* \"database/farmer/ListHarvester.sol\":1762:1771  uint256 i */\n      0x00\n        /* \"database/farmer/ListHarvester.sol\":1774:1775  1 */\n      0x01\n        /* \"database/farmer/ListHarvester.sol\":1762:1775  uint256 i = 1 */\n      swap1\n      pop\n        /* \"database/farmer/ListHarvester.sol\":1757:1892  for (uint256 i = 1; i <= autoIncrement; i++) {... */\n    tag_76:\n        /* \"database/farmer/ListHarvester.sol\":1782:1795  autoIncrement */\n      sload(0x02)\n        /* \"database/farmer/ListHarvester.sol\":1777:1778  i */\n      dup2\n        /* \"database/farmer/ListHarvester.sol\":1777:1795  i <= autoIncrement */\n      gt\n        /* \"database/farmer/ListHarvester.sol\":1757:1892  for (uint256 i = 1; i <= autoIncrement; i++) {... */\n      tag_77\n      jumpi\n        /* \"database/farmer/ListHarvester.sol\":1848:1853  value */\n      dup5\n        /* \"database/farmer/ListHarvester.sol\":1820:1853  list[i].harvesterAddress == value */\n      0xffffffffffffffffffffffffffffffffffffffff\n      and\n        /* \"database/farmer/ListHarvester.sol\":1820:1824  list */\n      0x01\n        /* \"database/farmer/ListHarvester.sol\":1820:1827  list[i] */\n      0x00\n        /* \"database/farmer/ListHarvester.sol\":1825:1826  i */\n      dup4\n        /* \"database/farmer/ListHarvester.sol\":1820:1827  list[i] */\n      dup2\n      mstore\n      0x20\n      add\n      swap1\n      dup2\n      mstore\n      0x20\n      add\n      0x00\n      keccak256\n        /* \"database/farmer/ListHarvester.sol\":1820:1844  list[i].harvesterAddress */\n      0x01\n      add\n      0x00\n      swap1\n      sload\n      swap1\n      0x0100\n      exp\n      swap1\n      div\n      0xffffffffffffffffffffffffffffffffffffffff\n      and\n        /* \"database/farmer/ListHarvester.sol\":1820:1853  list[i].harvesterAddress == value */\n      0xffffffffffffffffffffffffffffffffffffffff\n      and\n      sub\n        /* \"database/farmer/ListHarvester.sol\":1816:1881  if (list[i].harvesterAddress == value) return list[i].harvesterId */\n      tag_79\n      jumpi\n        /* \"database/farmer/ListHarvester.sol\":1862:1866  list */\n      0x01\n        /* \"database/farmer/ListHarvester.sol\":1862:1869  list[i] */\n      0x00\n        /* \"database/farmer/ListHarvester.sol\":1867:1868  i */\n      dup3\n        /* \"database/farmer/ListHarvester.sol\":1862:1869  list[i] */\n      dup2\n      mstore\n      0x20\n      add\n      swap1\n      dup2\n      mstore\n      0x20\n      add\n      0x00\n      keccak256\n        /* \"database/farmer/ListHarvester.sol\":1862:1881  list[i].harvesterId */\n      0x00\n      add\n      sload\n        /* \"database/farmer/ListHarvester.sol\":1855:1881  return list[i].harvesterId */\n      swap3\n      pop\n      pop\n      jump(tag_75)\n        /* \"database/farmer/ListHarvester.sol\":1816:1881  if (list[i].harvesterAddress == value) return list[i].harvesterId */\n    tag_79:\n        /* \"database/farmer/ListHarvester.sol\":1797:1800  i++ */\n      dup1\n      dup1\n      tag_80\n      swap1\n      tag_70\n      jump\t// in\n    tag_80:\n      swap2\n      pop\n      pop\n        /* \"database/farmer/ListHarvester.sol\":1757:1892  for (uint256 i = 1; i <= autoIncrement; i++) {... */\n      jump(tag_76)\n    tag_77:\n      pop\n        /* \"database/farmer/ListHarvester.sol\":1908:1909  0 */\n      0x00\n        /* \"database/farmer/ListHarvester.sol\":1901:1909  return 0 */\n      swap2\n      pop\n        /* \"database/farmer/ListHarvester.sol\":637:638  _ */\n    tag_75:\n        /* \"database/farmer/ListHarvester.sol\":1591:1916  function findHarvesterIdByAddress(address value, bytes32 secret)... */\n      pop\n      swap3\n      swap2\n      pop\n      pop\n      jump\t// out\n        /* \"abstract/Ownable.sol\":2642:2731  function destroy() public onlyOwner {... */\n    tag_31:\n        /* \"abstract/Ownable.sol\":1068:1081  _checkOwner() */\n      tag_82\n        /* \"abstract/Ownable.sol\":1068:1079  _checkOwner */\n      tag_83\n        /* \"abstract/Ownable.sol\":1068:1081  _checkOwner() */\n      jump\t// in\n    tag_82:\n        /* \"abstract/Ownable.sol\":2717:2721  this */\n      address\n        /* \"abstract/Ownable.sol\":2688:2724  selfdestruct(payable(address(this))) */\n      0xffffffffffffffffffffffffffffffffffffffff\n      and\n      selfdestruct\n        /* \"abstract/Ownable.sol\":1175:1260  function owner() public view virtual returns (address) {... */\n    tag_33:\n        /* \"abstract/Ownable.sol\":1221:1228  address */\n      0x00\n        /* \"abstract/Ownable.sol\":1247:1253  _owner */\n      dup1\n      0x00\n      swap1\n      sload\n      swap1\n      0x0100\n      exp\n      swap1\n      div\n      0xffffffffffffffffffffffffffffffffffffffff\n      and\n        /* \"abstract/Ownable.sol\":1240:1253  return _owner */\n      swap1\n      pop\n        /* \"abstract/Ownable.sol\":1175:1260  function owner() public view virtual returns (address) {... */\n      swap1\n      jump\t// out\n        /* \"database/farmer/ListHarvester.sol\":1922:2183  function hide(uint256 index, bytes32 secret)... */\n    tag_39:\n        /* \"database/farmer/ListHarvester.sol\":2058:2062  bool */\n      0x00\n        /* \"database/farmer/ListHarvester.sol\":2007:2013  secret */\n      dup2\n        /* \"constant/SecretKey.sol\":232:298  0x8e1604a838d0f1a9b2cda14a099e4ceb08e966cc6e05e8296f67b02d61a79f09 */\n      0x8e1604a838d0f1a9b2cda14a099e4ceb08e966cc6e05e8296f67b02d61a79f09\n        /* \"database/farmer/ListHarvester.sol\":549:561  DATABASE_KEY */\n      0x00\n      shl\n        /* \"database/farmer/ListHarvester.sol\":540:545  value */\n      dup2\n        /* \"database/farmer/ListHarvester.sol\":540:561  value == DATABASE_KEY */\n      eq\n        /* \"database/farmer/ListHarvester.sol\":519:627  require(... */\n      tag_87\n      jumpi\n      mload(0x40)\n      0x08c379a000000000000000000000000000000000000000000000000000000000\n      dup2\n      mstore\n      0x04\n      add\n      tag_88\n      swap1\n      tag_58\n      jump\t// in\n    tag_88:\n      mload(0x40)\n      dup1\n      swap2\n      sub\n      swap1\n      revert\n    tag_87:\n        /* \"database/farmer/ListHarvester.sol\":2034:2039  index */\n      dup4\n        /* \"database/farmer/ListHarvester.sol\":723:728  index */\n      dup1\n        /* \"database/farmer/ListHarvester.sol\":718:719  1 */\n      0x01\n        /* \"database/farmer/ListHarvester.sol\":718:728  1 <= index */\n      gt\n      iszero\n        /* \"database/farmer/ListHarvester.sol\":717:757  (1 <= index) && (index <= autoIncrement) */\n      dup1\n      iszero\n      tag_90\n      jumpi\n      pop\n        /* \"database/farmer/ListHarvester.sol\":743:756  autoIncrement */\n      sload(0x02)\n        /* \"database/farmer/ListHarvester.sol\":734:739  index */\n      dup2\n        /* \"database/farmer/ListHarvester.sol\":734:756  index <= autoIncrement */\n      gt\n      iszero\n        /* \"database/farmer/ListHarvester.sol\":717:757  (1 <= index) && (index <= autoIncrement) */\n    tag_90:\n        /* \"database/farmer/ListHarvester.sol\":696:820  require(... */\n      tag_91\n      jumpi\n      mload(0x40)\n      0x08c379a000000000000000000000000000000000000000000000000000000000\n      dup2\n      mstore\n      0x04\n      add\n      tag_92\n      swap1\n      tag_63\n      jump\t// in\n    tag_92:\n      mload(0x40)\n      dup1\n      swap2\n      sub\n      swap1\n      revert\n    tag_91:\n        /* \"database/farmer/ListHarvester.sol\":2078:2098  Harvester memory gap */\n      0x00\n        /* \"database/farmer/ListHarvester.sol\":2101:2128  Harvester(0, address(0), 0) */\n      mload(0x40)\n      dup1\n      0x60\n      add\n      0x40\n      mstore\n      dup1\n        /* \"database/farmer/ListHarvester.sol\":2111:2112  0 */\n      0x00\n        /* \"database/farmer/ListHarvester.sol\":2101:2128  Harvester(0, address(0), 0) */\n      dup2\n      mstore\n      0x20\n      add\n        /* \"database/farmer/ListHarvester.sol\":2122:2123  0 */\n      0x00\n        /* \"database/farmer/ListHarvester.sol\":2101:2128  Harvester(0, address(0), 0) */\n      0xffffffffffffffffffffffffffffffffffffffff\n      and\n      dup2\n      mstore\n      0x20\n      add\n        /* \"database/farmer/ListHarvester.sol\":2126:2127  0 */\n      0x00\n        /* \"database/farmer/ListHarvester.sol\":2101:2128  Harvester(0, address(0), 0) */\n      dup2\n      mstore\n      pop\n        /* \"database/farmer/ListHarvester.sol\":2078:2128  Harvester memory gap = Harvester(0, address(0), 0) */\n      swap1\n      pop\n        /* \"database/farmer/ListHarvester.sol\":2152:2155  gap */\n      dup1\n        /* \"database/farmer/ListHarvester.sol\":2138:2142  list */\n      0x01\n        /* \"database/farmer/ListHarvester.sol\":2138:2149  list[index] */\n      0x00\n        /* \"database/farmer/ListHarvester.sol\":2143:2148  index */\n      dup9\n        /* \"database/farmer/ListHarvester.sol\":2138:2149  list[index] */\n      dup2\n      mstore\n      0x20\n      add\n      swap1\n      dup2\n      mstore\n      0x20\n      add\n      0x00\n      keccak256\n        /* \"database/farmer/ListHarvester.sol\":2138:2155  list[index] = gap */\n      0x00\n      dup3\n      add\n      mload\n      dup2\n      0x00\n      add\n      sstore\n      0x20\n      dup3\n      add\n      mload\n      dup2\n      0x01\n      add\n      exp(0x0100, 0x00)\n      dup2\n      sload\n      dup2\n      0xffffffffffffffffffffffffffffffffffffffff\n      mul\n      not\n      and\n      swap1\n      dup4\n      0xffffffffffffffffffffffffffffffffffffffff\n      and\n      mul\n      or\n      swap1\n      sstore\n      pop\n      0x40\n      dup3\n      add\n      mload\n      dup2\n      0x02\n      add\n      sstore\n      swap1\n      pop\n      pop\n        /* \"database/farmer/ListHarvester.sol\":2172:2176  true */\n      0x01\n        /* \"database/farmer/ListHarvester.sol\":2165:2176  return true */\n      swap4\n      pop\n      pop\n        /* \"database/farmer/ListHarvester.sol\":637:638  _ */\n      pop\n        /* \"database/farmer/ListHarvester.sol\":1922:2183  function hide(uint256 index, bytes32 secret)... */\n      pop\n      swap3\n      swap2\n      pop\n      pop\n      jump\t// out\n        /* \"database/farmer/ListHarvester.sol\":1301:1585  function at(uint256 index, bytes32 secret)... */\n    tag_43:\n        /* \"database/farmer/ListHarvester.sol\":1448:1464  Harvester memory */\n      tag_94\n      tag_95\n      jump\t// in\n    tag_94:\n        /* \"database/farmer/ListHarvester.sol\":1397:1403  secret */\n      dup2\n        /* \"constant/SecretKey.sol\":232:298  0x8e1604a838d0f1a9b2cda14a099e4ceb08e966cc6e05e8296f67b02d61a79f09 */\n      0x8e1604a838d0f1a9b2cda14a099e4ceb08e966cc6e05e8296f67b02d61a79f09\n        /* \"database/farmer/ListHarvester.sol\":549:561  DATABASE_KEY */\n      0x00\n      shl\n        /* \"database/farmer/ListHarvester.sol\":540:545  value */\n      dup2\n        /* \"database/farmer/ListHarvester.sol\":540:561  value == DATABASE_KEY */\n      eq\n        /* \"database/farmer/ListHarvester.sol\":519:627  require(... */\n      tag_97\n      jumpi\n      mload(0x40)\n      0x08c379a000000000000000000000000000000000000000000000000000000000\n      dup2\n      mstore\n      0x04\n      add\n      tag_98\n      swap1\n      tag_58\n      jump\t// in\n    tag_98:\n      mload(0x40)\n      dup1\n      swap2\n      sub\n      swap1\n      revert\n    tag_97:\n        /* \"database/farmer/ListHarvester.sol\":1424:1429  index */\n      dup4\n        /* \"database/farmer/ListHarvester.sol\":723:728  index */\n      dup1\n        /* \"database/farmer/ListHarvester.sol\":718:719  1 */\n      0x01\n        /* \"database/farmer/ListHarvester.sol\":718:728  1 <= index */\n      gt\n      iszero\n        /* \"database/farmer/ListHarvester.sol\":717:757  (1 <= index) && (index <= autoIncrement) */\n      dup1\n      iszero\n      tag_100\n      jumpi\n      pop\n        /* \"database/farmer/ListHarvester.sol\":743:756  autoIncrement */\n      sload(0x02)\n        /* \"database/farmer/ListHarvester.sol\":734:739  index */\n      dup2\n        /* \"database/farmer/ListHarvester.sol\":734:756  index <= autoIncrement */\n      gt\n      iszero\n        /* \"database/farmer/ListHarvester.sol\":717:757  (1 <= index) && (index <= autoIncrement) */\n    tag_100:\n        /* \"database/farmer/ListHarvester.sol\":696:820  require(... */\n      tag_101\n      jumpi\n      mload(0x40)\n      0x08c379a000000000000000000000000000000000000000000000000000000000\n      dup2\n      mstore\n      0x04\n      add\n      tag_102\n      swap1\n      tag_63\n      jump\t// in\n    tag_102:\n      mload(0x40)\n      dup1\n      swap2\n      sub\n      swap1\n      revert\n    tag_101:\n        /* \"database/farmer/ListHarvester.sol\":1567:1571  list */\n      0x01\n        /* \"database/farmer/ListHarvester.sol\":1567:1578  list[index] */\n      0x00\n        /* \"database/farmer/ListHarvester.sol\":1572:1577  index */\n      dup7\n        /* \"database/farmer/ListHarvester.sol\":1567:1578  list[index] */\n      dup2\n      mstore\n      0x20\n      add\n      swap1\n      dup2\n      mstore\n      0x20\n      add\n      0x00\n      keccak256\n        /* \"database/farmer/ListHarvester.sol\":1560:1578  return list[index] */\n      mload(0x40)\n      dup1\n      0x60\n      add\n      0x40\n      mstore\n      swap1\n      dup2\n      0x00\n      dup3\n      add\n      sload\n      dup2\n      mstore\n      0x20\n      add\n      0x01\n      dup3\n      add\n      0x00\n      swap1\n      sload\n      swap1\n      0x0100\n      exp\n      swap1\n      div\n      0xffffffffffffffffffffffffffffffffffffffff\n      and\n      0xffffffffffffffffffffffffffffffffffffffff\n      and\n      0xffffffffffffffffffffffffffffffffffffffff\n      and\n      dup2\n      mstore\n      0x20\n      add\n      0x02\n      dup3\n      add\n      sload\n      dup2\n      mstore\n      pop\n      pop\n      swap3\n      pop\n        /* \"database/farmer/ListHarvester.sol\":637:638  _ */\n      pop\n        /* \"database/farmer/ListHarvester.sol\":1301:1585  function at(uint256 index, bytes32 secret)... */\n      pop\n      swap3\n      swap2\n      pop\n      pop\n      jump\t// out\n        /* \"abstract/Ownable.sol\":2063:2295  function transferOwnership(address newOwner) public virtual onlyOwner {... */\n    tag_49:\n        /* \"abstract/Ownable.sol\":1068:1081  _checkOwner() */\n      tag_105\n        /* \"abstract/Ownable.sol\":1068:1079  _checkOwner */\n      tag_83\n        /* \"abstract/Ownable.sol\":1068:1081  _checkOwner() */\n      jump\t// in\n    tag_105:\n        /* \"abstract/Ownable.sol\":2184:2185  0 */\n      0x00\n        /* \"abstract/Ownable.sol\":2164:2186  newOwner != address(0) */\n      0xffffffffffffffffffffffffffffffffffffffff\n      and\n        /* \"abstract/Ownable.sol\":2164:2172  newOwner */\n      dup2\n        /* \"abstract/Ownable.sol\":2164:2186  newOwner != address(0) */\n      0xffffffffffffffffffffffffffffffffffffffff\n      and\n      sub\n        /* \"abstract/Ownable.sol\":2143:2250  require(... */\n      tag_107\n      jumpi\n      mload(0x40)\n      0x08c379a000000000000000000000000000000000000000000000000000000000\n      dup2\n      mstore\n      0x04\n      add\n      tag_108\n      swap1\n      tag_109\n      jump\t// in\n    tag_108:\n      mload(0x40)\n      dup1\n      swap2\n      sub\n      swap1\n      revert\n    tag_107:\n        /* \"abstract/Ownable.sol\":2260:2288  _transferOwnership(newOwner) */\n      tag_110\n        /* \"abstract/Ownable.sol\":2279:2287  newOwner */\n      dup2\n        /* \"abstract/Ownable.sol\":2260:2278  _transferOwnership */\n      tag_111\n        /* \"abstract/Ownable.sol\":2260:2288  _transferOwnership(newOwner) */\n      jump\t// in\n    tag_110:\n        /* \"abstract/Ownable.sol\":2063:2295  function transferOwnership(address newOwner) public virtual onlyOwner {... */\n      pop\n      jump\t// out\n        /* \"database/farmer/ListHarvester.sol\":844:1007  function getLength(bytes32 secret)... */\n    tag_53:\n        /* \"database/farmer/ListHarvester.sol\":957:964  uint256 */\n      0x00\n        /* \"database/farmer/ListHarvester.sol\":932:938  secret */\n      dup2\n        /* \"constant/SecretKey.sol\":232:298  0x8e1604a838d0f1a9b2cda14a099e4ceb08e966cc6e05e8296f67b02d61a79f09 */\n      0x8e1604a838d0f1a9b2cda14a099e4ceb08e966cc6e05e8296f67b02d61a79f09\n        /* \"database/farmer/ListHarvester.sol\":549:561  DATABASE_KEY */\n      0x00\n      shl\n        /* \"database/farmer/ListHarvester.sol\":540:545  value */\n      dup2\n        /* \"database/farmer/ListHarvester.sol\":540:561  value == DATABASE_KEY */\n      eq\n        /* \"database/farmer/ListHarvester.sol\":519:627  require(... */\n      tag_113\n      jumpi\n      mload(0x40)\n      0x08c379a000000000000000000000000000000000000000000000000000000000\n      dup2\n      mstore\n      0x04\n      add\n      tag_114\n      swap1\n      tag_58\n      jump\t// in\n    tag_114:\n      mload(0x40)\n      dup1\n      swap2\n      sub\n      swap1\n      revert\n    tag_113:\n        /* \"database/farmer/ListHarvester.sol\":987:1000  autoIncrement */\n      sload(0x02)\n        /* \"database/farmer/ListHarvester.sol\":980:1000  return autoIncrement */\n      swap2\n      pop\n        /* \"database/farmer/ListHarvester.sol\":844:1007  function getLength(bytes32 secret)... */\n      pop\n      swap2\n      swap1\n      pop\n      jump\t// out\n        /* \"abstract/Ownable.sol\":1333:1461  function _checkOwner() internal view virtual {... */\n    tag_83:\n        /* \"abstract/Ownable.sol\":1407:1417  msg.sender */\n      caller\n        /* \"abstract/Ownable.sol\":1396:1417  owner() == msg.sender */\n      0xffffffffffffffffffffffffffffffffffffffff\n      and\n        /* \"abstract/Ownable.sol\":1396:1403  owner() */\n      tag_117\n        /* \"abstract/Ownable.sol\":1396:1401  owner */\n      tag_33\n        /* \"abstract/Ownable.sol\":1396:1403  owner() */\n      jump\t// in\n    tag_117:\n        /* \"abstract/Ownable.sol\":1396:1417  owner() == msg.sender */\n      0xffffffffffffffffffffffffffffffffffffffff\n      and\n      eq\n        /* \"abstract/Ownable.sol\":1388:1454  require(owner() == msg.sender, \"Ownable: caller is not the owner\") */\n      tag_118\n      jumpi\n      mload(0x40)\n      0x08c379a000000000000000000000000000000000000000000000000000000000\n      dup2\n      mstore\n      0x04\n      add\n      tag_119\n      swap1\n      tag_120\n      jump\t// in\n    tag_119:\n      mload(0x40)\n      dup1\n      swap2\n      sub\n      swap1\n      revert\n    tag_118:\n        /* \"abstract/Ownable.sol\":1333:1461  function _checkOwner() internal view virtual {... */\n      jump\t// out\n        /* \"abstract/Ownable.sol\":2449:2636  function _transferOwnership(address newOwner) internal virtual {... */\n    tag_111:\n        /* \"abstract/Ownable.sol\":2522:2538  address oldOwner */\n      0x00\n        /* \"abstract/Ownable.sol\":2541:2547  _owner */\n      dup1\n      0x00\n      swap1\n      sload\n      swap1\n      0x0100\n      exp\n      swap1\n      div\n      0xffffffffffffffffffffffffffffffffffffffff\n      and\n        /* \"abstract/Ownable.sol\":2522:2547  address oldOwner = _owner */\n      swap1\n      pop\n        /* \"abstract/Ownable.sol\":2566:2574  newOwner */\n      dup2\n        /* \"abstract/Ownable.sol\":2557:2563  _owner */\n      0x00\n      dup1\n        /* \"abstract/Ownable.sol\":2557:2574  _owner = newOwner */\n      0x0100\n      exp\n      dup2\n      sload\n      dup2\n      0xffffffffffffffffffffffffffffffffffffffff\n      mul\n      not\n      and\n      swap1\n      dup4\n      0xffffffffffffffffffffffffffffffffffffffff\n      and\n      mul\n      or\n      swap1\n      sstore\n      pop\n        /* \"abstract/Ownable.sol\":2620:2628  newOwner */\n      dup2\n        /* \"abstract/Ownable.sol\":2589:2629  OwnershipTransferred(oldOwner, newOwner) */\n      0xffffffffffffffffffffffffffffffffffffffff\n      and\n        /* \"abstract/Ownable.sol\":2610:2618  oldOwner */\n      dup2\n        /* \"abstract/Ownable.sol\":2589:2629  OwnershipTransferred(oldOwner, newOwner) */\n      0xffffffffffffffffffffffffffffffffffffffff\n      and\n      0x8be0079c531659141344cd1fd0a4f28419497f9722a3daafe3b4186f6b6457e0\n      mload(0x40)\n      mload(0x40)\n      dup1\n      swap2\n      sub\n      swap1\n      log3\n        /* \"abstract/Ownable.sol\":2512:2636  {... */\n      pop\n        /* \"abstract/Ownable.sol\":2449:2636  function _transferOwnership(address newOwner) internal virtual {... */\n      pop\n      jump\t// out\n    tag_95:\n      mload(0x40)\n      dup1\n      0x60\n      add\n      0x40\n      mstore\n      dup1\n      0x00\n      dup2\n      mstore\n      0x20\n      add\n      and(0xffffffffffffffffffffffffffffffffffffffff, 0x00)\n      dup2\n      mstore\n      0x20\n      add\n      0x00\n      dup2\n      mstore\n      pop\n      swap1\n      jump\t// out\n        /* \"#utility.yul\":7:82   */\n    tag_122:\n        /* \"#utility.yul\":40:46   */\n      0x00\n        /* \"#utility.yul\":73:75   */\n      0x40\n        /* \"#utility.yul\":67:76   */\n      mload\n        /* \"#utility.yul\":57:76   */\n      swap1\n      pop\n        /* \"#utility.yul\":7:82   */\n      swap1\n      jump\t// out\n        /* \"#utility.yul\":88:205   */\n    tag_123:\n        /* \"#utility.yul\":197:198   */\n      0x00\n        /* \"#utility.yul\":194:195   */\n      dup1\n        /* \"#utility.yul\":187:199   */\n      revert\n        /* \"#utility.yul\":334:411   */\n    tag_125:\n        /* \"#utility.yul\":371:378   */\n      0x00\n        /* \"#utility.yul\":400:405   */\n      dup2\n        /* \"#utility.yul\":389:405   */\n      swap1\n      pop\n        /* \"#utility.yul\":334:411   */\n      swap2\n      swap1\n      pop\n      jump\t// out\n        /* \"#utility.yul\":417:539   */\n    tag_126:\n        /* \"#utility.yul\":490:514   */\n      tag_165\n        /* \"#utility.yul\":508:513   */\n      dup2\n        /* \"#utility.yul\":490:514   */\n      tag_125\n      jump\t// in\n    tag_165:\n        /* \"#utility.yul\":483:488   */\n      dup2\n        /* \"#utility.yul\":480:515   */\n      eq\n        /* \"#utility.yul\":470:533   */\n      tag_166\n      jumpi\n        /* \"#utility.yul\":529:530   */\n      0x00\n        /* \"#utility.yul\":526:527   */\n      dup1\n        /* \"#utility.yul\":519:531   */\n      revert\n        /* \"#utility.yul\":470:533   */\n    tag_166:\n        /* \"#utility.yul\":417:539   */\n      pop\n      jump\t// out\n        /* \"#utility.yul\":545:684   */\n    tag_127:\n        /* \"#utility.yul\":591:596   */\n      0x00\n        /* \"#utility.yul\":629:635   */\n      dup2\n        /* \"#utility.yul\":616:636   */\n      calldataload\n        /* \"#utility.yul\":607:636   */\n      swap1\n      pop\n        /* \"#utility.yul\":645:678   */\n      tag_168\n        /* \"#utility.yul\":672:677   */\n      dup2\n        /* \"#utility.yul\":645:678   */\n      tag_126\n      jump\t// in\n    tag_168:\n        /* \"#utility.yul\":545:684   */\n      swap3\n      swap2\n      pop\n      pop\n      jump\t// out\n        /* \"#utility.yul\":690:767   */\n    tag_128:\n        /* \"#utility.yul\":727:734   */\n      0x00\n        /* \"#utility.yul\":756:761   */\n      dup2\n        /* \"#utility.yul\":745:761   */\n      swap1\n      pop\n        /* \"#utility.yul\":690:767   */\n      swap2\n      swap1\n      pop\n      jump\t// out\n        /* \"#utility.yul\":773:895   */\n    tag_129:\n        /* \"#utility.yul\":846:870   */\n      tag_171\n        /* \"#utility.yul\":864:869   */\n      dup2\n        /* \"#utility.yul\":846:870   */\n      tag_128\n      jump\t// in\n    tag_171:\n        /* \"#utility.yul\":839:844   */\n      dup2\n        /* \"#utility.yul\":836:871   */\n      eq\n        /* \"#utility.yul\":826:889   */\n      tag_172\n      jumpi\n        /* \"#utility.yul\":885:886   */\n      0x00\n        /* \"#utility.yul\":882:883   */\n      dup1\n        /* \"#utility.yul\":875:887   */\n      revert\n        /* \"#utility.yul\":826:889   */\n    tag_172:\n        /* \"#utility.yul\":773:895   */\n      pop\n      jump\t// out\n        /* \"#utility.yul\":901:1040   */\n    tag_130:\n        /* \"#utility.yul\":947:952   */\n      0x00\n        /* \"#utility.yul\":985:991   */\n      dup2\n        /* \"#utility.yul\":972:992   */\n      calldataload\n        /* \"#utility.yul\":963:992   */\n      swap1\n      pop\n        /* \"#utility.yul\":1001:1034   */\n      tag_174\n        /* \"#utility.yul\":1028:1033   */\n      dup2\n        /* \"#utility.yul\":1001:1034   */\n      tag_129\n      jump\t// in\n    tag_174:\n        /* \"#utility.yul\":901:1040   */\n      swap3\n      swap2\n      pop\n      pop\n      jump\t// out\n        /* \"#utility.yul\":1046:1665   */\n    tag_15:\n        /* \"#utility.yul\":1123:1129   */\n      0x00\n        /* \"#utility.yul\":1131:1137   */\n      dup1\n        /* \"#utility.yul\":1139:1145   */\n      0x00\n        /* \"#utility.yul\":1188:1190   */\n      0x60\n        /* \"#utility.yul\":1176:1185   */\n      dup5\n        /* \"#utility.yul\":1167:1174   */\n      dup7\n        /* \"#utility.yul\":1163:1186   */\n      sub\n        /* \"#utility.yul\":1159:1191   */\n      slt\n        /* \"#utility.yul\":1156:1275   */\n      iszero\n      tag_176\n      jumpi\n        /* \"#utility.yul\":1194:1273   */\n      tag_177\n      tag_123\n      jump\t// in\n    tag_177:\n        /* \"#utility.yul\":1156:1275   */\n    tag_176:\n        /* \"#utility.yul\":1314:1315   */\n      0x00\n        /* \"#utility.yul\":1339:1392   */\n      tag_178\n        /* \"#utility.yul\":1384:1391   */\n      dup7\n        /* \"#utility.yul\":1375:1381   */\n      dup3\n        /* \"#utility.yul\":1364:1373   */\n      dup8\n        /* \"#utility.yul\":1360:1382   */\n      add\n        /* \"#utility.yul\":1339:1392   */\n      tag_127\n      jump\t// in\n    tag_178:\n        /* \"#utility.yul\":1329:1392   */\n      swap4\n      pop\n        /* \"#utility.yul\":1285:1402   */\n      pop\n        /* \"#utility.yul\":1441:1443   */\n      0x20\n        /* \"#utility.yul\":1467:1520   */\n      tag_179\n        /* \"#utility.yul\":1512:1519   */\n      dup7\n        /* \"#utility.yul\":1503:1509   */\n      dup3\n        /* \"#utility.yul\":1492:1501   */\n      dup8\n        /* \"#utility.yul\":1488:1510   */\n      add\n        /* \"#utility.yul\":1467:1520   */\n      tag_130\n      jump\t// in\n    tag_179:\n        /* \"#utility.yul\":1457:1520   */\n      swap3\n      pop\n        /* \"#utility.yul\":1412:1530   */\n      pop\n        /* \"#utility.yul\":1569:1571   */\n      0x40\n        /* \"#utility.yul\":1595:1648   */\n      tag_180\n        /* \"#utility.yul\":1640:1647   */\n      dup7\n        /* \"#utility.yul\":1631:1637   */\n      dup3\n        /* \"#utility.yul\":1620:1629   */\n      dup8\n        /* \"#utility.yul\":1616:1638   */\n      add\n        /* \"#utility.yul\":1595:1648   */\n      tag_127\n      jump\t// in\n    tag_180:\n        /* \"#utility.yul\":1585:1648   */\n      swap2\n      pop\n        /* \"#utility.yul\":1540:1658   */\n      pop\n        /* \"#utility.yul\":1046:1665   */\n      swap3\n      pop\n      swap3\n      pop\n      swap3\n      jump\t// out\n        /* \"#utility.yul\":1671:1761   */\n    tag_131:\n        /* \"#utility.yul\":1705:1712   */\n      0x00\n        /* \"#utility.yul\":1748:1753   */\n      dup2\n        /* \"#utility.yul\":1741:1754   */\n      iszero\n        /* \"#utility.yul\":1734:1755   */\n      iszero\n        /* \"#utility.yul\":1723:1755   */\n      swap1\n      pop\n        /* \"#utility.yul\":1671:1761   */\n      swap2\n      swap1\n      pop\n      jump\t// out\n        /* \"#utility.yul\":1767:1876   */\n    tag_132:\n        /* \"#utility.yul\":1848:1869   */\n      tag_183\n        /* \"#utility.yul\":1863:1868   */\n      dup2\n        /* \"#utility.yul\":1848:1869   */\n      tag_131\n      jump\t// in\n    tag_183:\n        /* \"#utility.yul\":1843:1846   */\n      dup3\n        /* \"#utility.yul\":1836:1870   */\n      mstore\n        /* \"#utility.yul\":1767:1876   */\n      pop\n      pop\n      jump\t// out\n        /* \"#utility.yul\":1882:2092   */\n    tag_18:\n        /* \"#utility.yul\":1969:1973   */\n      0x00\n        /* \"#utility.yul\":2007:2009   */\n      0x20\n        /* \"#utility.yul\":1996:2005   */\n      dup3\n        /* \"#utility.yul\":1992:2010   */\n      add\n        /* \"#utility.yul\":1984:2010   */\n      swap1\n      pop\n        /* \"#utility.yul\":2020:2085   */\n      tag_185\n        /* \"#utility.yul\":2082:2083   */\n      0x00\n        /* \"#utility.yul\":2071:2080   */\n      dup4\n        /* \"#utility.yul\":2067:2084   */\n      add\n        /* \"#utility.yul\":2058:2064   */\n      dup5\n        /* \"#utility.yul\":2020:2085   */\n      tag_132\n      jump\t// in\n    tag_185:\n        /* \"#utility.yul\":1882:2092   */\n      swap3\n      swap2\n      pop\n      pop\n      jump\t// out\n        /* \"#utility.yul\":2098:2215   */\n    tag_133:\n        /* \"#utility.yul\":2207:2208   */\n      0x00\n        /* \"#utility.yul\":2204:2205   */\n      dup1\n        /* \"#utility.yul\":2197:2209   */\n      revert\n        /* \"#utility.yul\":2221:2323   */\n    tag_134:\n        /* \"#utility.yul\":2262:2268   */\n      0x00\n        /* \"#utility.yul\":2313:2315   */\n      0x1f\n        /* \"#utility.yul\":2309:2316   */\n      not\n        /* \"#utility.yul\":2304:2306   */\n      0x1f\n        /* \"#utility.yul\":2297:2302   */\n      dup4\n        /* \"#utility.yul\":2293:2307   */\n      add\n        /* \"#utility.yul\":2289:2317   */\n      and\n        /* \"#utility.yul\":2279:2317   */\n      swap1\n      pop\n        /* \"#utility.yul\":2221:2323   */\n      swap2\n      swap1\n      pop\n      jump\t// out\n        /* \"#utility.yul\":2329:2509   */\n    tag_135:\n        /* \"#utility.yul\":2377:2454   */\n      0x4e487b7100000000000000000000000000000000000000000000000000000000\n        /* \"#utility.yul\":2374:2375   */\n      0x00\n        /* \"#utility.yul\":2367:2455   */\n      mstore\n        /* \"#utility.yul\":2474:2478   */\n      0x41\n        /* \"#utility.yul\":2471:2472   */\n      0x04\n        /* \"#utility.yul\":2464:2479   */\n      mstore\n        /* \"#utility.yul\":2498:2502   */\n      0x24\n        /* \"#utility.yul\":2495:2496   */\n      0x00\n        /* \"#utility.yul\":2488:2503   */\n      revert\n        /* \"#utility.yul\":2515:2796   */\n    tag_136:\n        /* \"#utility.yul\":2598:2625   */\n      tag_190\n        /* \"#utility.yul\":2620:2624   */\n      dup3\n        /* \"#utility.yul\":2598:2625   */\n      tag_134\n      jump\t// in\n    tag_190:\n        /* \"#utility.yul\":2590:2596   */\n      dup2\n        /* \"#utility.yul\":2586:2626   */\n      add\n        /* \"#utility.yul\":2728:2734   */\n      dup2\n        /* \"#utility.yul\":2716:2726   */\n      dup2\n        /* \"#utility.yul\":2713:2735   */\n      lt\n        /* \"#utility.yul\":2692:2710   */\n      0xffffffffffffffff\n        /* \"#utility.yul\":2680:2690   */\n      dup3\n        /* \"#utility.yul\":2677:2711   */\n      gt\n        /* \"#utility.yul\":2674:2736   */\n      or\n        /* \"#utility.yul\":2671:2759   */\n      iszero\n      tag_191\n      jumpi\n        /* \"#utility.yul\":2739:2757   */\n      tag_192\n      tag_135\n      jump\t// in\n    tag_192:\n        /* \"#utility.yul\":2671:2759   */\n    tag_191:\n        /* \"#utility.yul\":2779:2789   */\n      dup1\n        /* \"#utility.yul\":2775:2777   */\n      0x40\n        /* \"#utility.yul\":2768:2790   */\n      mstore\n        /* \"#utility.yul\":2558:2796   */\n      pop\n        /* \"#utility.yul\":2515:2796   */\n      pop\n      pop\n      jump\t// out\n        /* \"#utility.yul\":2802:2931   */\n    tag_137:\n        /* \"#utility.yul\":2836:2842   */\n      0x00\n        /* \"#utility.yul\":2863:2883   */\n      tag_194\n      tag_122\n      jump\t// in\n    tag_194:\n        /* \"#utility.yul\":2853:2883   */\n      swap1\n      pop\n        /* \"#utility.yul\":2892:2925   */\n      tag_195\n        /* \"#utility.yul\":2920:2924   */\n      dup3\n        /* \"#utility.yul\":2912:2918   */\n      dup3\n        /* \"#utility.yul\":2892:2925   */\n      tag_136\n      jump\t// in\n    tag_195:\n        /* \"#utility.yul\":2802:2931   */\n      swap2\n      swap1\n      pop\n      jump\t// out\n        /* \"#utility.yul\":3060:3186   */\n    tag_139:\n        /* \"#utility.yul\":3097:3104   */\n      0x00\n        /* \"#utility.yul\":3137:3179   */\n      0xffffffffffffffffffffffffffffffffffffffff\n        /* \"#utility.yul\":3130:3135   */\n      dup3\n        /* \"#utility.yul\":3126:3180   */\n      and\n        /* \"#utility.yul\":3115:3180   */\n      swap1\n      pop\n        /* \"#utility.yul\":3060:3186   */\n      swap2\n      swap1\n      pop\n      jump\t// out\n        /* \"#utility.yul\":3192:3288   */\n    tag_140:\n        /* \"#utility.yul\":3229:3236   */\n      0x00\n        /* \"#utility.yul\":3258:3282   */\n      tag_199\n        /* \"#utility.yul\":3276:3281   */\n      dup3\n        /* \"#utility.yul\":3258:3282   */\n      tag_139\n      jump\t// in\n    tag_199:\n        /* \"#utility.yul\":3247:3282   */\n      swap1\n      pop\n        /* \"#utility.yul\":3192:3288   */\n      swap2\n      swap1\n      pop\n      jump\t// out\n        /* \"#utility.yul\":3294:3416   */\n    tag_141:\n        /* \"#utility.yul\":3367:3391   */\n      tag_201\n        /* \"#utility.yul\":3385:3390   */\n      dup2\n        /* \"#utility.yul\":3367:3391   */\n      tag_140\n      jump\t// in\n    tag_201:\n        /* \"#utility.yul\":3360:3365   */\n      dup2\n        /* \"#utility.yul\":3357:3392   */\n      eq\n        /* \"#utility.yul\":3347:3410   */\n      tag_202\n      jumpi\n        /* \"#utility.yul\":3406:3407   */\n      0x00\n        /* \"#utility.yul\":3403:3404   */\n      dup1\n        /* \"#utility.yul\":3396:3408   */\n      revert\n        /* \"#utility.yul\":3347:3410   */\n    tag_202:\n        /* \"#utility.yul\":3294:3416   */\n      pop\n      jump\t// out\n        /* \"#utility.yul\":3422:3561   */\n    tag_142:\n        /* \"#utility.yul\":3468:3473   */\n      0x00\n        /* \"#utility.yul\":3506:3512   */\n      dup2\n        /* \"#utility.yul\":3493:3513   */\n      calldataload\n        /* \"#utility.yul\":3484:3513   */\n      swap1\n      pop\n        /* \"#utility.yul\":3522:3555   */\n      tag_204\n        /* \"#utility.yul\":3549:3554   */\n      dup2\n        /* \"#utility.yul\":3522:3555   */\n      tag_141\n      jump\t// in\n    tag_204:\n        /* \"#utility.yul\":3422:3561   */\n      swap3\n      swap2\n      pop\n      pop\n      jump\t// out\n        /* \"#utility.yul\":3591:4350   */\n    tag_143:\n        /* \"#utility.yul\":3666:3671   */\n      0x00\n        /* \"#utility.yul\":3710:3714   */\n      0x60\n        /* \"#utility.yul\":3698:3707   */\n      dup3\n        /* \"#utility.yul\":3693:3696   */\n      dup5\n        /* \"#utility.yul\":3689:3708   */\n      sub\n        /* \"#utility.yul\":3685:3715   */\n      slt\n        /* \"#utility.yul\":3682:3799   */\n      iszero\n      tag_206\n      jumpi\n        /* \"#utility.yul\":3718:3797   */\n      tag_207\n      tag_133\n      jump\t// in\n    tag_207:\n        /* \"#utility.yul\":3682:3799   */\n    tag_206:\n        /* \"#utility.yul\":3817:3838   */\n      tag_208\n        /* \"#utility.yul\":3833:3837   */\n      0x60\n        /* \"#utility.yul\":3817:3838   */\n      tag_137\n      jump\t// in\n    tag_208:\n        /* \"#utility.yul\":3808:3838   */\n      swap1\n      pop\n        /* \"#utility.yul\":3904:3905   */\n      0x00\n        /* \"#utility.yul\":3944:3993   */\n      tag_209\n        /* \"#utility.yul\":3989:3992   */\n      dup5\n        /* \"#utility.yul\":3980:3986   */\n      dup3\n        /* \"#utility.yul\":3969:3978   */\n      dup6\n        /* \"#utility.yul\":3965:3987   */\n      add\n        /* \"#utility.yul\":3944:3993   */\n      tag_127\n      jump\t// in\n    tag_209:\n        /* \"#utility.yul\":3937:3941   */\n      0x00\n        /* \"#utility.yul\":3930:3935   */\n      dup4\n        /* \"#utility.yul\":3926:3942   */\n      add\n        /* \"#utility.yul\":3919:3994   */\n      mstore\n        /* \"#utility.yul\":3848:4005   */\n      pop\n        /* \"#utility.yul\":4076:4078   */\n      0x20\n        /* \"#utility.yul\":4117:4166   */\n      tag_210\n        /* \"#utility.yul\":4162:4165   */\n      dup5\n        /* \"#utility.yul\":4153:4159   */\n      dup3\n        /* \"#utility.yul\":4142:4151   */\n      dup6\n        /* \"#utility.yul\":4138:4160   */\n      add\n        /* \"#utility.yul\":4117:4166   */\n      tag_142\n      jump\t// in\n    tag_210:\n        /* \"#utility.yul\":4110:4114   */\n      0x20\n        /* \"#utility.yul\":4103:4108   */\n      dup4\n        /* \"#utility.yul\":4099:4115   */\n      add\n        /* \"#utility.yul\":4092:4167   */\n      mstore\n        /* \"#utility.yul\":4015:4178   */\n      pop\n        /* \"#utility.yul\":4241:4243   */\n      0x40\n        /* \"#utility.yul\":4282:4331   */\n      tag_211\n        /* \"#utility.yul\":4327:4330   */\n      dup5\n        /* \"#utility.yul\":4318:4324   */\n      dup3\n        /* \"#utility.yul\":4307:4316   */\n      dup6\n        /* \"#utility.yul\":4303:4325   */\n      add\n        /* \"#utility.yul\":4282:4331   */\n      tag_127\n      jump\t// in\n    tag_211:\n        /* \"#utility.yul\":4275:4279   */\n      0x40\n        /* \"#utility.yul\":4268:4273   */\n      dup4\n        /* \"#utility.yul\":4264:4280   */\n      add\n        /* \"#utility.yul\":4257:4332   */\n      mstore\n        /* \"#utility.yul\":4188:4343   */\n      pop\n        /* \"#utility.yul\":3591:4350   */\n      swap3\n      swap2\n      pop\n      pop\n      jump\t// out\n        /* \"#utility.yul\":4356:4883   */\n    tag_21:\n        /* \"#utility.yul\":4450:4456   */\n      0x00\n        /* \"#utility.yul\":4458:4464   */\n      dup1\n        /* \"#utility.yul\":4507:4510   */\n      0x80\n        /* \"#utility.yul\":4495:4504   */\n      dup4\n        /* \"#utility.yul\":4486:4493   */\n      dup6\n        /* \"#utility.yul\":4482:4505   */\n      sub\n        /* \"#utility.yul\":4478:4511   */\n      slt\n        /* \"#utility.yul\":4475:4595   */\n      iszero\n      tag_213\n      jumpi\n        /* \"#utility.yul\":4514:4593   */\n      tag_214\n      tag_123\n      jump\t// in\n    tag_214:\n        /* \"#utility.yul\":4475:4595   */\n    tag_213:\n        /* \"#utility.yul\":4634:4635   */\n      0x00\n        /* \"#utility.yul\":4659:4738   */\n      tag_215\n        /* \"#utility.yul\":4730:4737   */\n      dup6\n        /* \"#utility.yul\":4721:4727   */\n      dup3\n        /* \"#utility.yul\":4710:4719   */\n      dup7\n        /* \"#utility.yul\":4706:4728   */\n      add\n        /* \"#utility.yul\":4659:4738   */\n      tag_143\n      jump\t// in\n    tag_215:\n        /* \"#utility.yul\":4649:4738   */\n      swap3\n      pop\n        /* \"#utility.yul\":4605:4748   */\n      pop\n        /* \"#utility.yul\":4787:4789   */\n      0x60\n        /* \"#utility.yul\":4813:4866   */\n      tag_216\n        /* \"#utility.yul\":4858:4865   */\n      dup6\n        /* \"#utility.yul\":4849:4855   */\n      dup3\n        /* \"#utility.yul\":4838:4847   */\n      dup7\n        /* \"#utility.yul\":4834:4856   */\n      add\n        /* \"#utility.yul\":4813:4866   */\n      tag_130\n      jump\t// in\n    tag_216:\n        /* \"#utility.yul\":4803:4866   */\n      swap2\n      pop\n        /* \"#utility.yul\":4758:4876   */\n      pop\n        /* \"#utility.yul\":4356:4883   */\n      swap3\n      pop\n      swap3\n      swap1\n      pop\n      jump\t// out\n        /* \"#utility.yul\":4889:5363   */\n    tag_26:\n        /* \"#utility.yul\":4957:4963   */\n      0x00\n        /* \"#utility.yul\":4965:4971   */\n      dup1\n        /* \"#utility.yul\":5014:5016   */\n      0x40\n        /* \"#utility.yul\":5002:5011   */\n      dup4\n        /* \"#utility.yul\":4993:5000   */\n      dup6\n        /* \"#utility.yul\":4989:5012   */\n      sub\n        /* \"#utility.yul\":4985:5017   */\n      slt\n        /* \"#utility.yul\":4982:5101   */\n      iszero\n      tag_218\n      jumpi\n        /* \"#utility.yul\":5020:5099   */\n      tag_219\n      tag_123\n      jump\t// in\n    tag_219:\n        /* \"#utility.yul\":4982:5101   */\n    tag_218:\n        /* \"#utility.yul\":5140:5141   */\n      0x00\n        /* \"#utility.yul\":5165:5218   */\n      tag_220\n        /* \"#utility.yul\":5210:5217   */\n      dup6\n        /* \"#utility.yul\":5201:5207   */\n      dup3\n        /* \"#utility.yul\":5190:5199   */\n      dup7\n        /* \"#utility.yul\":5186:5208   */\n      add\n        /* \"#utility.yul\":5165:5218   */\n      tag_142\n      jump\t// in\n    tag_220:\n        /* \"#utility.yul\":5155:5218   */\n      swap3\n      pop\n        /* \"#utility.yul\":5111:5228   */\n      pop\n        /* \"#utility.yul\":5267:5269   */\n      0x20\n        /* \"#utility.yul\":5293:5346   */\n      tag_221\n        /* \"#utility.yul\":5338:5345   */\n      dup6\n        /* \"#utility.yul\":5329:5335   */\n      dup3\n        /* \"#utility.yul\":5318:5327   */\n      dup7\n        /* \"#utility.yul\":5314:5336   */\n      add\n        /* \"#utility.yul\":5293:5346   */\n      tag_130\n      jump\t// in\n    tag_221:\n        /* \"#utility.yul\":5283:5346   */\n      swap2\n      pop\n        /* \"#utility.yul\":5238:5356   */\n      pop\n        /* \"#utility.yul\":4889:5363   */\n      swap3\n      pop\n      swap3\n      swap1\n      pop\n      jump\t// out\n        /* \"#utility.yul\":5369:5487   */\n    tag_144:\n        /* \"#utility.yul\":5456:5480   */\n      tag_223\n        /* \"#utility.yul\":5474:5479   */\n      dup2\n        /* \"#utility.yul\":5456:5480   */\n      tag_125\n      jump\t// in\n    tag_223:\n        /* \"#utility.yul\":5451:5454   */\n      dup3\n        /* \"#utility.yul\":5444:5481   */\n      mstore\n        /* \"#utility.yul\":5369:5487   */\n      pop\n      pop\n      jump\t// out\n        /* \"#utility.yul\":5493:5715   */\n    tag_29:\n        /* \"#utility.yul\":5586:5590   */\n      0x00\n        /* \"#utility.yul\":5624:5626   */\n      0x20\n        /* \"#utility.yul\":5613:5622   */\n      dup3\n        /* \"#utility.yul\":5609:5627   */\n      add\n        /* \"#utility.yul\":5601:5627   */\n      swap1\n      pop\n        /* \"#utility.yul\":5637:5708   */\n      tag_225\n        /* \"#utility.yul\":5705:5706   */\n      0x00\n        /* \"#utility.yul\":5694:5703   */\n      dup4\n        /* \"#utility.yul\":5690:5707   */\n      add\n        /* \"#utility.yul\":5681:5687   */\n      dup5\n        /* \"#utility.yul\":5637:5708   */\n      tag_144\n      jump\t// in\n    tag_225:\n        /* \"#utility.yul\":5493:5715   */\n      swap3\n      swap2\n      pop\n      pop\n      jump\t// out\n        /* \"#utility.yul\":5721:5839   */\n    tag_145:\n        /* \"#utility.yul\":5808:5832   */\n      tag_227\n        /* \"#utility.yul\":5826:5831   */\n      dup2\n        /* \"#utility.yul\":5808:5832   */\n      tag_140\n      jump\t// in\n    tag_227:\n        /* \"#utility.yul\":5803:5806   */\n      dup3\n        /* \"#utility.yul\":5796:5833   */\n      mstore\n        /* \"#utility.yul\":5721:5839   */\n      pop\n      pop\n      jump\t// out\n        /* \"#utility.yul\":5845:6067   */\n    tag_35:\n        /* \"#utility.yul\":5938:5942   */\n      0x00\n        /* \"#utility.yul\":5976:5978   */\n      0x20\n        /* \"#utility.yul\":5965:5974   */\n      dup3\n        /* \"#utility.yul\":5961:5979   */\n      add\n        /* \"#utility.yul\":5953:5979   */\n      swap1\n      pop\n        /* \"#utility.yul\":5989:6060   */\n      tag_229\n        /* \"#utility.yul\":6057:6058   */\n      0x00\n        /* \"#utility.yul\":6046:6055   */\n      dup4\n        /* \"#utility.yul\":6042:6059   */\n      add\n        /* \"#utility.yul\":6033:6039   */\n      dup5\n        /* \"#utility.yul\":5989:6060   */\n      tag_145\n      jump\t// in\n    tag_229:\n        /* \"#utility.yul\":5845:6067   */\n      swap3\n      swap2\n      pop\n      pop\n      jump\t// out\n        /* \"#utility.yul\":6073:6547   */\n    tag_38:\n        /* \"#utility.yul\":6141:6147   */\n      0x00\n        /* \"#utility.yul\":6149:6155   */\n      dup1\n        /* \"#utility.yul\":6198:6200   */\n      0x40\n        /* \"#utility.yul\":6186:6195   */\n      dup4\n        /* \"#utility.yul\":6177:6184   */\n      dup6\n        /* \"#utility.yul\":6173:6196   */\n      sub\n        /* \"#utility.yul\":6169:6201   */\n      slt\n        /* \"#utility.yul\":6166:6285   */\n      iszero\n      tag_231\n      jumpi\n        /* \"#utility.yul\":6204:6283   */\n      tag_232\n      tag_123\n      jump\t// in\n    tag_232:\n        /* \"#utility.yul\":6166:6285   */\n    tag_231:\n        /* \"#utility.yul\":6324:6325   */\n      0x00\n        /* \"#utility.yul\":6349:6402   */\n      tag_233\n        /* \"#utility.yul\":6394:6401   */\n      dup6\n        /* \"#utility.yul\":6385:6391   */\n      dup3\n        /* \"#utility.yul\":6374:6383   */\n      dup7\n        /* \"#utility.yul\":6370:6392   */\n      add\n        /* \"#utility.yul\":6349:6402   */\n      tag_127\n      jump\t// in\n    tag_233:\n        /* \"#utility.yul\":6339:6402   */\n      swap3\n      pop\n        /* \"#utility.yul\":6295:6412   */\n      pop\n        /* \"#utility.yul\":6451:6453   */\n      0x20\n        /* \"#utility.yul\":6477:6530   */\n      tag_234\n        /* \"#utility.yul\":6522:6529   */\n      dup6\n        /* \"#utility.yul\":6513:6519   */\n      dup3\n        /* \"#utility.yul\":6502:6511   */\n      dup7\n        /* \"#utility.yul\":6498:6520   */\n      add\n        /* \"#utility.yul\":6477:6530   */\n      tag_130\n      jump\t// in\n    tag_234:\n        /* \"#utility.yul\":6467:6530   */\n      swap2\n      pop\n        /* \"#utility.yul\":6422:6540   */\n      pop\n        /* \"#utility.yul\":6073:6547   */\n      swap3\n      pop\n      swap3\n      swap1\n      pop\n      jump\t// out\n        /* \"#utility.yul\":6553:6661   */\n    tag_146:\n        /* \"#utility.yul\":6630:6654   */\n      tag_236\n        /* \"#utility.yul\":6648:6653   */\n      dup2\n        /* \"#utility.yul\":6630:6654   */\n      tag_125\n      jump\t// in\n    tag_236:\n        /* \"#utility.yul\":6625:6628   */\n      dup3\n        /* \"#utility.yul\":6618:6655   */\n      mstore\n        /* \"#utility.yul\":6553:6661   */\n      pop\n      pop\n      jump\t// out\n        /* \"#utility.yul\":6667:6775   */\n    tag_147:\n        /* \"#utility.yul\":6744:6768   */\n      tag_238\n        /* \"#utility.yul\":6762:6767   */\n      dup2\n        /* \"#utility.yul\":6744:6768   */\n      tag_140\n      jump\t// in\n    tag_238:\n        /* \"#utility.yul\":6739:6742   */\n      dup3\n        /* \"#utility.yul\":6732:6769   */\n      mstore\n        /* \"#utility.yul\":6667:6775   */\n      pop\n      pop\n      jump\t// out\n        /* \"#utility.yul\":6825:7531   */\n    tag_148:\n        /* \"#utility.yul\":6974:6978   */\n      0x60\n        /* \"#utility.yul\":6969:6972   */\n      dup3\n        /* \"#utility.yul\":6965:6979   */\n      add\n        /* \"#utility.yul\":7068:7072   */\n      0x00\n        /* \"#utility.yul\":7061:7066   */\n      dup3\n        /* \"#utility.yul\":7057:7073   */\n      add\n        /* \"#utility.yul\":7051:7074   */\n      mload\n        /* \"#utility.yul\":7087:7150   */\n      tag_240\n        /* \"#utility.yul\":7144:7148   */\n      0x00\n        /* \"#utility.yul\":7139:7142   */\n      dup6\n        /* \"#utility.yul\":7135:7149   */\n      add\n        /* \"#utility.yul\":7121:7133   */\n      dup3\n        /* \"#utility.yul\":7087:7150   */\n      tag_146\n      jump\t// in\n    tag_240:\n        /* \"#utility.yul\":6989:7160   */\n      pop\n        /* \"#utility.yul\":7254:7258   */\n      0x20\n        /* \"#utility.yul\":7247:7252   */\n      dup3\n        /* \"#utility.yul\":7243:7259   */\n      add\n        /* \"#utility.yul\":7237:7260   */\n      mload\n        /* \"#utility.yul\":7273:7336   */\n      tag_241\n        /* \"#utility.yul\":7330:7334   */\n      0x20\n        /* \"#utility.yul\":7325:7328   */\n      dup6\n        /* \"#utility.yul\":7321:7335   */\n      add\n        /* \"#utility.yul\":7307:7319   */\n      dup3\n        /* \"#utility.yul\":7273:7336   */\n      tag_147\n      jump\t// in\n    tag_241:\n        /* \"#utility.yul\":7170:7346   */\n      pop\n        /* \"#utility.yul\":7432:7436   */\n      0x40\n        /* \"#utility.yul\":7425:7430   */\n      dup3\n        /* \"#utility.yul\":7421:7437   */\n      add\n        /* \"#utility.yul\":7415:7438   */\n      mload\n        /* \"#utility.yul\":7451:7514   */\n      tag_242\n        /* \"#utility.yul\":7508:7512   */\n      0x40\n        /* \"#utility.yul\":7503:7506   */\n      dup6\n        /* \"#utility.yul\":7499:7513   */\n      add\n        /* \"#utility.yul\":7485:7497   */\n      dup3\n        /* \"#utility.yul\":7451:7514   */\n      tag_146\n      jump\t// in\n    tag_242:\n        /* \"#utility.yul\":7356:7524   */\n      pop\n        /* \"#utility.yul\":6943:7531   */\n      pop\n        /* \"#utility.yul\":6825:7531   */\n      pop\n      pop\n      jump\t// out\n        /* \"#utility.yul\":7537:7863   */\n    tag_45:\n        /* \"#utility.yul\":7682:7686   */\n      0x00\n        /* \"#utility.yul\":7720:7722   */\n      0x60\n        /* \"#utility.yul\":7709:7718   */\n      dup3\n        /* \"#utility.yul\":7705:7723   */\n      add\n        /* \"#utility.yul\":7697:7723   */\n      swap1\n      pop\n        /* \"#utility.yul\":7733:7856   */\n      tag_244\n        /* \"#utility.yul\":7853:7854   */\n      0x00\n        /* \"#utility.yul\":7842:7851   */\n      dup4\n        /* \"#utility.yul\":7838:7855   */\n      add\n        /* \"#utility.yul\":7829:7835   */\n      dup5\n        /* \"#utility.yul\":7733:7856   */\n      tag_148\n      jump\t// in\n    tag_244:\n        /* \"#utility.yul\":7537:7863   */\n      swap3\n      swap2\n      pop\n      pop\n      jump\t// out\n        /* \"#utility.yul\":7869:8198   */\n    tag_48:\n        /* \"#utility.yul\":7928:7934   */\n      0x00\n        /* \"#utility.yul\":7977:7979   */\n      0x20\n        /* \"#utility.yul\":7965:7974   */\n      dup3\n        /* \"#utility.yul\":7956:7963   */\n      dup5\n        /* \"#utility.yul\":7952:7975   */\n      sub\n        /* \"#utility.yul\":7948:7980   */\n      slt\n        /* \"#utility.yul\":7945:8064   */\n      iszero\n      tag_246\n      jumpi\n        /* \"#utility.yul\":7983:8062   */\n      tag_247\n      tag_123\n      jump\t// in\n    tag_247:\n        /* \"#utility.yul\":7945:8064   */\n    tag_246:\n        /* \"#utility.yul\":8103:8104   */\n      0x00\n        /* \"#utility.yul\":8128:8181   */\n      tag_248\n        /* \"#utility.yul\":8173:8180   */\n      dup5\n        /* \"#utility.yul\":8164:8170   */\n      dup3\n        /* \"#utility.yul\":8153:8162   */\n      dup6\n        /* \"#utility.yul\":8149:8171   */\n      add\n        /* \"#utility.yul\":8128:8181   */\n      tag_142\n      jump\t// in\n    tag_248:\n        /* \"#utility.yul\":8118:8181   */\n      swap2\n      pop\n        /* \"#utility.yul\":8074:8191   */\n      pop\n        /* \"#utility.yul\":7869:8198   */\n      swap3\n      swap2\n      pop\n      pop\n      jump\t// out\n        /* \"#utility.yul\":8204:8533   */\n    tag_52:\n        /* \"#utility.yul\":8263:8269   */\n      0x00\n        /* \"#utility.yul\":8312:8314   */\n      0x20\n        /* \"#utility.yul\":8300:8309   */\n      dup3\n        /* \"#utility.yul\":8291:8298   */\n      dup5\n        /* \"#utility.yul\":8287:8310   */\n      sub\n        /* \"#utility.yul\":8283:8315   */\n      slt\n        /* \"#utility.yul\":8280:8399   */\n      iszero\n      tag_250\n      jumpi\n        /* \"#utility.yul\":8318:8397   */\n      tag_251\n      tag_123\n      jump\t// in\n    tag_251:\n        /* \"#utility.yul\":8280:8399   */\n    tag_250:\n        /* \"#utility.yul\":8438:8439   */\n      0x00\n        /* \"#utility.yul\":8463:8516   */\n      tag_252\n        /* \"#utility.yul\":8508:8515   */\n      dup5\n        /* \"#utility.yul\":8499:8505   */\n      dup3\n        /* \"#utility.yul\":8488:8497   */\n      dup6\n        /* \"#utility.yul\":8484:8506   */\n      add\n        /* \"#utility.yul\":8463:8516   */\n      tag_130\n      jump\t// in\n    tag_252:\n        /* \"#utility.yul\":8453:8516   */\n      swap2\n      pop\n        /* \"#utility.yul\":8409:8526   */\n      pop\n        /* \"#utility.yul\":8204:8533   */\n      swap3\n      swap2\n      pop\n      pop\n      jump\t// out\n        /* \"#utility.yul\":8539:8708   */\n    tag_149:\n        /* \"#utility.yul\":8623:8634   */\n      0x00\n        /* \"#utility.yul\":8657:8663   */\n      dup3\n        /* \"#utility.yul\":8652:8655   */\n      dup3\n        /* \"#utility.yul\":8645:8664   */\n      mstore\n        /* \"#utility.yul\":8697:8701   */\n      0x20\n        /* \"#utility.yul\":8692:8695   */\n      dup3\n        /* \"#utility.yul\":8688:8702   */\n      add\n        /* \"#utility.yul\":8673:8702   */\n      swap1\n      pop\n        /* \"#utility.yul\":8539:8708   */\n      swap3\n      swap2\n      pop\n      pop\n      jump\t// out\n        /* \"#utility.yul\":8714:8941   */\n    tag_150:\n        /* \"#utility.yul\":8854:8888   */\n      0x4461746162617365204c6973744861727665737465723a20536563726574206b\n        /* \"#utility.yul\":8850:8851   */\n      0x00\n        /* \"#utility.yul\":8842:8848   */\n      dup3\n        /* \"#utility.yul\":8838:8852   */\n      add\n        /* \"#utility.yul\":8831:8889   */\n      mstore\n        /* \"#utility.yul\":8923:8933   */\n      0x6579206572726f72000000000000000000000000000000000000000000000000\n        /* \"#utility.yul\":8918:8920   */\n      0x20\n        /* \"#utility.yul\":8910:8916   */\n      dup3\n        /* \"#utility.yul\":8906:8921   */\n      add\n        /* \"#utility.yul\":8899:8934   */\n      mstore\n        /* \"#utility.yul\":8714:8941   */\n      pop\n      jump\t// out\n        /* \"#utility.yul\":8947:9313   */\n    tag_151:\n        /* \"#utility.yul\":9089:9092   */\n      0x00\n        /* \"#utility.yul\":9110:9177   */\n      tag_256\n        /* \"#utility.yul\":9174:9176   */\n      0x28\n        /* \"#utility.yul\":9169:9172   */\n      dup4\n        /* \"#utility.yul\":9110:9177   */\n      tag_149\n      jump\t// in\n    tag_256:\n        /* \"#utility.yul\":9103:9177   */\n      swap2\n      pop\n        /* \"#utility.yul\":9186:9279   */\n      tag_257\n        /* \"#utility.yul\":9275:9278   */\n      dup3\n        /* \"#utility.yul\":9186:9279   */\n      tag_150\n      jump\t// in\n    tag_257:\n        /* \"#utility.yul\":9304:9306   */\n      0x40\n        /* \"#utility.yul\":9299:9302   */\n      dup3\n        /* \"#utility.yul\":9295:9307   */\n      add\n        /* \"#utility.yul\":9288:9307   */\n      swap1\n      pop\n        /* \"#utility.yul\":8947:9313   */\n      swap2\n      swap1\n      pop\n      jump\t// out\n        /* \"#utility.yul\":9319:9738   */\n    tag_58:\n        /* \"#utility.yul\":9485:9489   */\n      0x00\n        /* \"#utility.yul\":9523:9525   */\n      0x20\n        /* \"#utility.yul\":9512:9521   */\n      dup3\n        /* \"#utility.yul\":9508:9526   */\n      add\n        /* \"#utility.yul\":9500:9526   */\n      swap1\n      pop\n        /* \"#utility.yul\":9572:9581   */\n      dup2\n        /* \"#utility.yul\":9566:9570   */\n      dup2\n        /* \"#utility.yul\":9562:9582   */\n      sub\n        /* \"#utility.yul\":9558:9559   */\n      0x00\n        /* \"#utility.yul\":9547:9556   */\n      dup4\n        /* \"#utility.yul\":9543:9560   */\n      add\n        /* \"#utility.yul\":9536:9583   */\n      mstore\n        /* \"#utility.yul\":9600:9731   */\n      tag_259\n        /* \"#utility.yul\":9726:9730   */\n      dup2\n        /* \"#utility.yul\":9600:9731   */\n      tag_151\n      jump\t// in\n    tag_259:\n        /* \"#utility.yul\":9592:9731   */\n      swap1\n      pop\n        /* \"#utility.yul\":9319:9738   */\n      swap2\n      swap1\n      pop\n      jump\t// out\n        /* \"#utility.yul\":9744:9968   */\n    tag_152:\n        /* \"#utility.yul\":9884:9918   */\n      0x4461746162617365204c6973744861727665737465723a20496e76616c696420\n        /* \"#utility.yul\":9880:9881   */\n      0x00\n        /* \"#utility.yul\":9872:9878   */\n      dup3\n        /* \"#utility.yul\":9868:9882   */\n      add\n        /* \"#utility.yul\":9861:9919   */\n      mstore\n        /* \"#utility.yul\":9953:9960   */\n      0x696e646578000000000000000000000000000000000000000000000000000000\n        /* \"#utility.yul\":9948:9950   */\n      0x20\n        /* \"#utility.yul\":9940:9946   */\n      dup3\n        /* \"#utility.yul\":9936:9951   */\n      add\n        /* \"#utility.yul\":9929:9961   */\n      mstore\n        /* \"#utility.yul\":9744:9968   */\n      pop\n      jump\t// out\n        /* \"#utility.yul\":9974:10340   */\n    tag_153:\n        /* \"#utility.yul\":10116:10119   */\n      0x00\n        /* \"#utility.yul\":10137:10204   */\n      tag_262\n        /* \"#utility.yul\":10201:10203   */\n      0x25\n        /* \"#utility.yul\":10196:10199   */\n      dup4\n        /* \"#utility.yul\":10137:10204   */\n      tag_149\n      jump\t// in\n    tag_262:\n        /* \"#utility.yul\":10130:10204   */\n      swap2\n      pop\n        /* \"#utility.yul\":10213:10306   */\n      tag_263\n        /* \"#utility.yul\":10302:10305   */\n      dup3\n        /* \"#utility.yul\":10213:10306   */\n      tag_152\n      jump\t// in\n    tag_263:\n        /* \"#utility.yul\":10331:10333   */\n      0x40\n        /* \"#utility.yul\":10326:10329   */\n      dup3\n        /* \"#utility.yul\":10322:10334   */\n      add\n        /* \"#utility.yul\":10315:10334   */\n      swap1\n      pop\n        /* \"#utility.yul\":9974:10340   */\n      swap2\n      swap1\n      pop\n      jump\t// out\n        /* \"#utility.yul\":10346:10765   */\n    tag_63:\n        /* \"#utility.yul\":10512:10516   */\n      0x00\n        /* \"#utility.yul\":10550:10552   */\n      0x20\n        /* \"#utility.yul\":10539:10548   */\n      dup3\n        /* \"#utility.yul\":10535:10553   */\n      add\n        /* \"#utility.yul\":10527:10553   */\n      swap1\n      pop\n        /* \"#utility.yul\":10599:10608   */\n      dup2\n        /* \"#utility.yul\":10593:10597   */\n      dup2\n        /* \"#utility.yul\":10589:10609   */\n      sub\n        /* \"#utility.yul\":10585:10586   */\n      0x00\n        /* \"#utility.yul\":10574:10583   */\n      dup4\n        /* \"#utility.yul\":10570:10587   */\n      add\n        /* \"#utility.yul\":10563:10610   */\n      mstore\n        /* \"#utility.yul\":10627:10758   */\n      tag_265\n        /* \"#utility.yul\":10753:10757   */\n      dup2\n        /* \"#utility.yul\":10627:10758   */\n      tag_153\n      jump\t// in\n    tag_265:\n        /* \"#utility.yul\":10619:10758   */\n      swap1\n      pop\n        /* \"#utility.yul\":10346:10765   */\n      swap2\n      swap1\n      pop\n      jump\t// out\n        /* \"#utility.yul\":10771:10951   */\n    tag_154:\n        /* \"#utility.yul\":10819:10896   */\n      0x4e487b7100000000000000000000000000000000000000000000000000000000\n        /* \"#utility.yul\":10816:10817   */\n      0x00\n        /* \"#utility.yul\":10809:10897   */\n      mstore\n        /* \"#utility.yul\":10916:10920   */\n      0x11\n        /* \"#utility.yul\":10913:10914   */\n      0x04\n        /* \"#utility.yul\":10906:10921   */\n      mstore\n        /* \"#utility.yul\":10940:10944   */\n      0x24\n        /* \"#utility.yul\":10937:10938   */\n      0x00\n        /* \"#utility.yul\":10930:10945   */\n      revert\n        /* \"#utility.yul\":10957:11190   */\n    tag_70:\n        /* \"#utility.yul\":10996:10999   */\n      0x00\n        /* \"#utility.yul\":11019:11043   */\n      tag_268\n        /* \"#utility.yul\":11037:11042   */\n      dup3\n        /* \"#utility.yul\":11019:11043   */\n      tag_125\n      jump\t// in\n    tag_268:\n        /* \"#utility.yul\":11010:11043   */\n      swap2\n      pop\n        /* \"#utility.yul\":11065:11131   */\n      0xffffffffffffffffffffffffffffffffffffffffffffffffffffffffffffffff\n        /* \"#utility.yul\":11058:11063   */\n      dup3\n        /* \"#utility.yul\":11055:11132   */\n      sub\n        /* \"#utility.yul\":11052:11155   */\n      tag_269\n      jumpi\n        /* \"#utility.yul\":11135:11153   */\n      tag_270\n      tag_154\n      jump\t// in\n    tag_270:\n        /* \"#utility.yul\":11052:11155   */\n    tag_269:\n        /* \"#utility.yul\":11182:11183   */\n      0x01\n        /* \"#utility.yul\":11175:11180   */\n      dup3\n        /* \"#utility.yul\":11171:11184   */\n      add\n        /* \"#utility.yul\":11164:11184   */\n      swap1\n      pop\n        /* \"#utility.yul\":10957:11190   */\n      swap2\n      swap1\n      pop\n      jump\t// out\n        /* \"#utility.yul\":11196:11421   */\n    tag_155:\n        /* \"#utility.yul\":11336:11370   */\n      0x4f776e61626c653a206e6577206f776e657220697320746865207a65726f2061\n        /* \"#utility.yul\":11332:11333   */\n      0x00\n        /* \"#utility.yul\":11324:11330   */\n      dup3\n        /* \"#utility.yul\":11320:11334   */\n      add\n        /* \"#utility.yul\":11313:11371   */\n      mstore\n        /* \"#utility.yul\":11405:11413   */\n      0x6464726573730000000000000000000000000000000000000000000000000000\n        /* \"#utility.yul\":11400:11402   */\n      0x20\n        /* \"#utility.yul\":11392:11398   */\n      dup3\n        /* \"#utility.yul\":11388:11403   */\n      add\n        /* \"#utility.yul\":11381:11414   */\n      mstore\n        /* \"#utility.yul\":11196:11421   */\n      pop\n      jump\t// out\n        /* \"#utility.yul\":11427:11793   */\n    tag_156:\n        /* \"#utility.yul\":11569:11572   */\n      0x00\n        /* \"#utility.yul\":11590:11657   */\n      tag_273\n        /* \"#utility.yul\":11654:11656   */\n      0x26\n        /* \"#utility.yul\":11649:11652   */\n      dup4\n        /* \"#utility.yul\":11590:11657   */\n      tag_149\n      jump\t// in\n    tag_273:\n        /* \"#utility.yul\":11583:11657   */\n      swap2\n      pop\n        /* \"#utility.yul\":11666:11759   */\n      tag_274\n        /* \"#utility.yul\":11755:11758   */\n      dup3\n        /* \"#utility.yul\":11666:11759   */\n      tag_155\n      jump\t// in\n    tag_274:\n        /* \"#utility.yul\":11784:11786   */\n      0x40\n        /* \"#utility.yul\":11779:11782   */\n      dup3\n        /* \"#utility.yul\":11775:11787   */\n      add\n        /* \"#utility.yul\":11768:11787   */\n      swap1\n      pop\n        /* \"#utility.yul\":11427:11793   */\n      swap2\n      swap1\n      pop\n      jump\t// out\n        /* \"#utility.yul\":11799:12218   */\n    tag_109:\n        /* \"#utility.yul\":11965:11969   */\n      0x00\n        /* \"#utility.yul\":12003:12005   */\n      0x20\n        /* \"#utility.yul\":11992:12001   */\n      dup3\n        /* \"#utility.yul\":11988:12006   */\n      add\n        /* \"#utility.yul\":11980:12006   */\n      swap1\n      pop\n        /* \"#utility.yul\":12052:12061   */\n      dup2\n        /* \"#utility.yul\":12046:12050   */\n      dup2\n        /* \"#utility.yul\":12042:12062   */\n      sub\n        /* \"#utility.yul\":12038:12039   */\n      0x00\n        /* \"#utility.yul\":12027:12036   */\n      dup4\n        /* \"#utility.yul\":12023:12040   */\n      add\n        /* \"#utility.yul\":12016:12063   */\n      mstore\n        /* \"#utility.yul\":12080:12211   */\n      tag_276\n        /* \"#utility.yul\":12206:12210   */\n      dup2\n        /* \"#utility.yul\":12080:12211   */\n      tag_156\n      jump\t// in\n    tag_276:\n        /* \"#utility.yul\":12072:12211   */\n      swap1\n      pop\n        /* \"#utility.yul\":11799:12218   */\n      swap2\n      swap1\n      pop\n      jump\t// out\n        /* \"#utility.yul\":12224:12406   */\n    tag_157:\n        /* \"#utility.yul\":12364:12398   */\n      0x4f776e61626c653a2063616c6c6572206973206e6f7420746865206f776e6572\n        /* \"#utility.yul\":12360:12361   */\n      0x00\n        /* \"#utility.yul\":12352:12358   */\n      dup3\n        /* \"#utility.yul\":12348:12362   */\n      add\n        /* \"#utility.yul\":12341:12399   */\n      mstore\n        /* \"#utility.yul\":12224:12406   */\n      pop\n      jump\t// out\n        /* \"#utility.yul\":12412:12778   */\n    tag_158:\n        /* \"#utility.yul\":12554:12557   */\n      0x00\n        /* \"#utility.yul\":12575:12642   */\n      tag_279\n        /* \"#utility.yul\":12639:12641   */\n      0x20\n        /* \"#utility.yul\":12634:12637   */\n      dup4\n        /* \"#utility.yul\":12575:12642   */\n      tag_149\n      jump\t// in\n    tag_279:\n        /* \"#utility.yul\":12568:12642   */\n      swap2\n      pop\n        /* \"#utility.yul\":12651:12744   */\n      tag_280\n        /* \"#utility.yul\":12740:12743   */\n      dup3\n        /* \"#utility.yul\":12651:12744   */\n      tag_157\n      jump\t// in\n    tag_280:\n        /* \"#utility.yul\":12769:12771   */\n      0x20\n        /* \"#utility.yul\":12764:12767   */\n      dup3\n        /* \"#utility.yul\":12760:12772   */\n      add\n        /* \"#utility.yul\":12753:12772   */\n      swap1\n      pop\n        /* \"#utility.yul\":12412:12778   */\n      swap2\n      swap1\n      pop\n      jump\t// out\n        /* \"#utility.yul\":12784:13203   */\n    tag_120:\n        /* \"#utility.yul\":12950:12954   */\n      0x00\n        /* \"#utility.yul\":12988:12990   */\n      0x20\n        /* \"#utility.yul\":12977:12986   */\n      dup3\n        /* \"#utility.yul\":12973:12991   */\n      add\n        /* \"#utility.yul\":12965:12991   */\n      swap1\n      pop\n        /* \"#utility.yul\":13037:13046   */\n      dup2\n        /* \"#utility.yul\":13031:13035   */\n      dup2\n        /* \"#utility.yul\":13027:13047   */\n      sub\n        /* \"#utility.yul\":13023:13024   */\n      0x00\n        /* \"#utility.yul\":13012:13021   */\n      dup4\n        /* \"#utility.yul\":13008:13025   */\n      add\n        /* \"#utility.yul\":13001:13048   */\n      mstore\n        /* \"#utility.yul\":13065:13196   */\n      tag_282\n        /* \"#utility.yul\":13191:13195   */\n      dup2\n        /* \"#utility.yul\":13065:13196   */\n      tag_158\n      jump\t// in\n    tag_282:\n        /* \"#utility.yul\":13057:13196   */\n      swap1\n      pop\n        /* \"#utility.yul\":12784:13203   */\n      swap2\n      swap1\n      pop\n      jump\t// out\n\n    auxdata: 0xa26469706673582212203e577a6eb451875efb157a65161f18b81fb16ea77bc5d03ba6f851362f91861e64736f6c63430008110033\n}\n",
				"bytecode": {
					"linkReferences": {},
					"object": "6080604052600060025534801561001557600080fd5b50336000806101000a81548173ffffffffffffffffffffffffffffffffffffffff021916908373ffffffffffffffffffffffffffffffffffffffff1602179055506111d8806100656000396000f3fe608060405234801561001057600080fd5b50600436106100935760003560e01c80638da5cb5b116100665780638da5cb5b14610132578063b615c00a14610150578063c78a674114610180578063f2fde38b146101b0578063fd82e9dd146101cc57610093565b80630461559a146100985780633ce17585146100c857806356ee78b5146100f857806383197ef014610128575b600080fd5b6100b260048036038101906100ad9190610b33565b6101fc565b6040516100bf9190610ba1565b60405180910390f35b6100e260048036038101906100dd9190610d0f565b6102df565b6040516100ef9190610ba1565b60405180910390f35b610112600480360381019061010d9190610d4f565b610421565b60405161011f9190610d9e565b60405180910390f35b610130610541565b005b61013a610562565b6040516101479190610dc8565b60405180910390f35b61016a60048036038101906101659190610de3565b61058b565b6040516101779190610ba1565b60405180910390f35b61019a60048036038101906101959190610de3565b6106fd565b6040516101a79190610e83565b60405180910390f35b6101ca60048036038101906101c59190610e9e565b610850565b005b6101e660048036038101906101e19190610ecb565b6108d3565b6040516101f39190610d9e565b60405180910390f35b6000827f8e1604a838d0f1a9b2cda14a099e4ceb08e966cc6e05e8296f67b02d61a79f0960001b8114610264576040517f08c379a000000000000000000000000000000000000000000000000000000000815260040161025b90610f7b565b60405180910390fd5b848060011115801561027857506002548111155b6102b7576040517f08c379a00000000000000000000000000000000000000000000000000000000081526004016102ae9061100d565b60405180910390fd5b8360016000888152602001908152602001600020600201819055506001925050509392505050565b6000817f8e1604a838d0f1a9b2cda14a099e4ceb08e966cc6e05e8296f67b02d61a79f0960001b8114610347576040517f08c379a000000000000000000000000000000000000000000000000000000000815260040161033e90610f7b565b60405180910390fd5b6002600081548092919061035a9061105c565b9190505550600254846000018181525050836001600060025481526020019081526020016000206000820151816000015560208201518160010160006101000a81548173ffffffffffffffffffffffffffffffffffffffff021916908373ffffffffffffffffffffffffffffffffffffffff160217905550604082015181600201559050507fcd52d7a5ad1530fc4e2a7fc9b6b7cd488496952af7129189a1132017f883c8e38460405161040e9190610e83565b60405180910390a1600191505092915050565b6000817f8e1604a838d0f1a9b2cda14a099e4ceb08e966cc6e05e8296f67b02d61a79f0960001b8114610489576040517f08c379a000000000000000000000000000000000000000000000000000000000815260040161048090610f7b565b60405180910390fd5b6000600190505b6002548111610534578473ffffffffffffffffffffffffffffffffffffffff166001600083815260200190815260200160002060010160009054906101000a900473ffffffffffffffffffffffffffffffffffffffff1673ffffffffffffffffffffffffffffffffffffffff160361052157600160008281526020019081526020016000206000015492505061053a565b808061052c9061105c565b915050610490565b50600091505b5092915050565b610549610946565b3073ffffffffffffffffffffffffffffffffffffffff16ff5b60008060009054906101000a900473ffffffffffffffffffffffffffffffffffffffff16905090565b6000817f8e1604a838d0f1a9b2cda14a099e4ceb08e966cc6e05e8296f67b02d61a79f0960001b81146105f3576040517f08c379a00000000000000000000000000000000000000000000000000000000081526004016105ea90610f7b565b60405180910390fd5b838060011115801561060757506002548111155b610646576040517f08c379a000000000000000000000000000000000000000000000000000000000815260040161063d9061100d565b60405180910390fd5b6000604051806060016040528060008152602001600073ffffffffffffffffffffffffffffffffffffffff1681526020016000815250905080600160008881526020019081526020016000206000820151816000015560208201518160010160006101000a81548173ffffffffffffffffffffffffffffffffffffffff021916908373ffffffffffffffffffffffffffffffffffffffff160217905550604082015181600201559050506001935050505092915050565b610705610a81565b817f8e1604a838d0f1a9b2cda14a099e4ceb08e966cc6e05e8296f67b02d61a79f0960001b811461076b576040517f08c379a000000000000000000000000000000000000000000000000000000000815260040161076290610f7b565b60405180910390fd5b838060011115801561077f57506002548111155b6107be576040517f08c379a00000000000000000000000000000000000000000000000000000000081526004016107b59061100d565b60405180910390fd5b60016000868152602001908152602001600020604051806060016040529081600082015481526020016001820160009054906101000a900473ffffffffffffffffffffffffffffffffffffffff1673ffffffffffffffffffffffffffffffffffffffff1673ffffffffffffffffffffffffffffffffffffffff1681526020016002820154815250509250505092915050565b610858610946565b600073ffffffffffffffffffffffffffffffffffffffff168173ffffffffffffffffffffffffffffffffffffffff16036108c7576040517f08c379a00000000000000000000000000000000000000000000000000000000081526004016108be90611116565b60405180910390fd5b6108d0816109bd565b50565b6000817f8e1604a838d0f1a9b2cda14a099e4ceb08e966cc6e05e8296f67b02d61a79f0960001b811461093b576040517f08c379a000000000000000000000000000000000000000000000000000000000815260040161093290610f7b565b60405180910390fd5b600254915050919050565b3373ffffffffffffffffffffffffffffffffffffffff16610965610562565b73ffffffffffffffffffffffffffffffffffffffff16146109bb576040517f08c379a00000000000000000000000000000000000000000000000000000000081526004016109b290611182565b60405180910390fd5b565b60008060009054906101000a900473ffffffffffffffffffffffffffffffffffffffff169050816000806101000a81548173ffffffffffffffffffffffffffffffffffffffff021916908373ffffffffffffffffffffffffffffffffffffffff1602179055508173ffffffffffffffffffffffffffffffffffffffff168173ffffffffffffffffffffffffffffffffffffffff167f8be0079c531659141344cd1fd0a4f28419497f9722a3daafe3b4186f6b6457e060405160405180910390a35050565b604051806060016040528060008152602001600073ffffffffffffffffffffffffffffffffffffffff168152602001600081525090565b6000604051905090565b600080fd5b6000819050919050565b610ada81610ac7565b8114610ae557600080fd5b50565b600081359050610af781610ad1565b92915050565b6000819050919050565b610b1081610afd565b8114610b1b57600080fd5b50565b600081359050610b2d81610b07565b92915050565b600080600060608486031215610b4c57610b4b610ac2565b5b6000610b5a86828701610ae8565b9350506020610b6b86828701610b1e565b9250506040610b7c86828701610ae8565b9150509250925092565b60008115159050919050565b610b9b81610b86565b82525050565b6000602082019050610bb66000830184610b92565b92915050565b600080fd5b6000601f19601f8301169050919050565b7f4e487b7100000000000000000000000000000000000000000000000000000000600052604160045260246000fd5b610c0a82610bc1565b810181811067ffffffffffffffff82111715610c2957610c28610bd2565b5b80604052505050565b6000610c3c610ab8565b9050610c488282610c01565b919050565b600073ffffffffffffffffffffffffffffffffffffffff82169050919050565b6000610c7882610c4d565b9050919050565b610c8881610c6d565b8114610c9357600080fd5b50565b600081359050610ca581610c7f565b92915050565b600060608284031215610cc157610cc0610bbc565b5b610ccb6060610c32565b90506000610cdb84828501610ae8565b6000830152506020610cef84828501610c96565b6020830152506040610d0384828501610ae8565b60408301525092915050565b60008060808385031215610d2657610d25610ac2565b5b6000610d3485828601610cab565b9250506060610d4585828601610b1e565b9150509250929050565b60008060408385031215610d6657610d65610ac2565b5b6000610d7485828601610c96565b9250506020610d8585828601610b1e565b9150509250929050565b610d9881610ac7565b82525050565b6000602082019050610db36000830184610d8f565b92915050565b610dc281610c6d565b82525050565b6000602082019050610ddd6000830184610db9565b92915050565b60008060408385031215610dfa57610df9610ac2565b5b6000610e0885828601610ae8565b9250506020610e1985828601610b1e565b9150509250929050565b610e2c81610ac7565b82525050565b610e3b81610c6d565b82525050565b606082016000820151610e576000850182610e23565b506020820151610e6a6020850182610e32565b506040820151610e7d6040850182610e23565b50505050565b6000606082019050610e986000830184610e41565b92915050565b600060208284031215610eb457610eb3610ac2565b5b6000610ec284828501610c96565b91505092915050565b600060208284031215610ee157610ee0610ac2565b5b6000610eef84828501610b1e565b91505092915050565b600082825260208201905092915050565b7f4461746162617365204c6973744861727665737465723a20536563726574206b60008201527f6579206572726f72000000000000000000000000000000000000000000000000602082015250565b6000610f65602883610ef8565b9150610f7082610f09565b604082019050919050565b60006020820190508181036000830152610f9481610f58565b9050919050565b7f4461746162617365204c6973744861727665737465723a20496e76616c69642060008201527f696e646578000000000000000000000000000000000000000000000000000000602082015250565b6000610ff7602583610ef8565b915061100282610f9b565b604082019050919050565b6000602082019050818103600083015261102681610fea565b9050919050565b7f4e487b7100000000000000000000000000000000000000000000000000000000600052601160045260246000fd5b600061106782610ac7565b91507fffffffffffffffffffffffffffffffffffffffffffffffffffffffffffffffff82036110995761109861102d565b5b600182019050919050565b7f4f776e61626c653a206e6577206f776e657220697320746865207a65726f206160008201527f6464726573730000000000000000000000000000000000000000000000000000602082015250565b6000611100602683610ef8565b915061110b826110a4565b604082019050919050565b6000602082019050818103600083015261112f816110f3565b9050919050565b7f4f776e61626c653a2063616c6c6572206973206e6f7420746865206f776e6572600082015250565b600061116c602083610ef8565b915061117782611136565b602082019050919050565b6000602082019050818103600083015261119b8161115f565b905091905056fea26469706673582212203e577a6eb451875efb157a65161f18b81fb16ea77bc5d03ba6f851362f91861e64736f6c63430008110033",
					"opcodes": "PUSH1 0x80 PUSH1 0x40 MSTORE PUSH1 0x0 PUSH1 0x2 SSTORE CALLVALUE DUP1 ISZERO PUSH2 0x15 JUMPI PUSH1 0x0 DUP1 REVERT JUMPDEST POP CALLER PUSH1 0x0 DUP1 PUSH2 0x100 EXP DUP2 SLOAD DUP2 PUSH20 0xFFFFFFFFFFFFFFFFFFFFFFFFFFFFFFFFFFFFFFFF MUL NOT AND SWAP1 DUP4 PUSH20 0xFFFFFFFFFFFFFFFFFFFFFFFFFFFFFFFFFFFFFFFF AND MUL OR SWAP1 SSTORE POP PUSH2 0x11D8 DUP1 PUSH2 0x65 PUSH1 0x0 CODECOPY PUSH1 0x0 RETURN INVALID PUSH1 0x80 PUSH1 0x40 MSTORE CALLVALUE DUP1 ISZERO PUSH2 0x10 JUMPI PUSH1 0x0 DUP1 REVERT JUMPDEST POP PUSH1 0x4 CALLDATASIZE LT PUSH2 0x93 JUMPI PUSH1 0x0 CALLDATALOAD PUSH1 0xE0 SHR DUP1 PUSH4 0x8DA5CB5B GT PUSH2 0x66 JUMPI DUP1 PUSH4 0x8DA5CB5B EQ PUSH2 0x132 JUMPI DUP1 PUSH4 0xB615C00A EQ PUSH2 0x150 JUMPI DUP1 PUSH4 0xC78A6741 EQ PUSH2 0x180 JUMPI DUP1 PUSH4 0xF2FDE38B EQ PUSH2 0x1B0 JUMPI DUP1 PUSH4 0xFD82E9DD EQ PUSH2 0x1CC JUMPI PUSH2 0x93 JUMP JUMPDEST DUP1 PUSH4 0x461559A EQ PUSH2 0x98 JUMPI DUP1 PUSH4 0x3CE17585 EQ PUSH2 0xC8 JUMPI DUP1 PUSH4 0x56EE78B5 EQ PUSH2 0xF8 JUMPI DUP1 PUSH4 0x83197EF0 EQ PUSH2 0x128 JUMPI JUMPDEST PUSH1 0x0 DUP1 REVERT JUMPDEST PUSH2 0xB2 PUSH1 0x4 DUP1 CALLDATASIZE SUB DUP2 ADD SWAP1 PUSH2 0xAD SWAP2 SWAP1 PUSH2 0xB33 JUMP JUMPDEST PUSH2 0x1FC JUMP JUMPDEST PUSH1 0x40 MLOAD PUSH2 0xBF SWAP2 SWAP1 PUSH2 0xBA1 JUMP JUMPDEST PUSH1 0x40 MLOAD DUP1 SWAP2 SUB SWAP1 RETURN JUMPDEST PUSH2 0xE2 PUSH1 0x4 DUP1 CALLDATASIZE SUB DUP2 ADD SWAP1 PUSH2 0xDD SWAP2 SWAP1 PUSH2 0xD0F JUMP JUMPDEST PUSH2 0x2DF JUMP JUMPDEST PUSH1 0x40 MLOAD PUSH2 0xEF SWAP2 SWAP1 PUSH2 0xBA1 JUMP JUMPDEST PUSH1 0x40 MLOAD DUP1 SWAP2 SUB SWAP1 RETURN JUMPDEST PUSH2 0x112 PUSH1 0x4 DUP1 CALLDATASIZE SUB DUP2 ADD SWAP1 PUSH2 0x10D SWAP2 SWAP1 PUSH2 0xD4F JUMP JUMPDEST PUSH2 0x421 JUMP JUMPDEST PUSH1 0x40 MLOAD PUSH2 0x11F SWAP2 SWAP1 PUSH2 0xD9E JUMP JUMPDEST PUSH1 0x40 MLOAD DUP1 SWAP2 SUB SWAP1 RETURN JUMPDEST PUSH2 0x130 PUSH2 0x541 JUMP JUMPDEST STOP JUMPDEST PUSH2 0x13A PUSH2 0x562 JUMP JUMPDEST PUSH1 0x40 MLOAD PUSH2 0x147 SWAP2 SWAP1 PUSH2 0xDC8 JUMP JUMPDEST PUSH1 0x40 MLOAD DUP1 SWAP2 SUB SWAP1 RETURN JUMPDEST PUSH2 0x16A PUSH1 0x4 DUP1 CALLDATASIZE SUB DUP2 ADD SWAP1 PUSH2 0x165 SWAP2 SWAP1 PUSH2 0xDE3 JUMP JUMPDEST PUSH2 0x58B JUMP JUMPDEST PUSH1 0x40 MLOAD PUSH2 0x177 SWAP2 SWAP1 PUSH2 0xBA1 JUMP JUMPDEST PUSH1 0x40 MLOAD DUP1 SWAP2 SUB SWAP1 RETURN JUMPDEST PUSH2 0x19A PUSH1 0x4 DUP1 CALLDATASIZE SUB DUP2 ADD SWAP1 PUSH2 0x195 SWAP2 SWAP1 PUSH2 0xDE3 JUMP JUMPDEST PUSH2 0x6FD JUMP JUMPDEST PUSH1 0x40 MLOAD PUSH2 0x1A7 SWAP2 SWAP1 PUSH2 0xE83 JUMP JUMPDEST PUSH1 0x40 MLOAD DUP1 SWAP2 SUB SWAP1 RETURN JUMPDEST PUSH2 0x1CA PUSH1 0x4 DUP1 CALLDATASIZE SUB DUP2 ADD SWAP1 PUSH2 0x1C5 SWAP2 SWAP1 PUSH2 0xE9E JUMP JUMPDEST PUSH2 0x850 JUMP JUMPDEST STOP JUMPDEST PUSH2 0x1E6 PUSH1 0x4 DUP1 CALLDATASIZE SUB DUP2 ADD SWAP1 PUSH2 0x1E1 SWAP2 SWAP1 PUSH2 0xECB JUMP JUMPDEST PUSH2 0x8D3 JUMP JUMPDEST PUSH1 0x40 MLOAD PUSH2 0x1F3 SWAP2 SWAP1 PUSH2 0xD9E JUMP JUMPDEST PUSH1 0x40 MLOAD DUP1 SWAP2 SUB SWAP1 RETURN JUMPDEST PUSH1 0x0 DUP3 PUSH32 0x8E1604A838D0F1A9B2CDA14A099E4CEB08E966CC6E05E8296F67B02D61A79F09 PUSH1 0x0 SHL DUP2 EQ PUSH2 0x264 JUMPI PUSH1 0x40 MLOAD PUSH32 0x8C379A000000000000000000000000000000000000000000000000000000000 DUP2 MSTORE PUSH1 0x4 ADD PUSH2 0x25B SWAP1 PUSH2 0xF7B JUMP JUMPDEST PUSH1 0x40 MLOAD DUP1 SWAP2 SUB SWAP1 REVERT JUMPDEST DUP5 DUP1 PUSH1 0x1 GT ISZERO DUP1 ISZERO PUSH2 0x278 JUMPI POP PUSH1 0x2 SLOAD DUP2 GT ISZERO JUMPDEST PUSH2 0x2B7 JUMPI PUSH1 0x40 MLOAD PUSH32 0x8C379A000000000000000000000000000000000000000000000000000000000 DUP2 MSTORE PUSH1 0x4 ADD PUSH2 0x2AE SWAP1 PUSH2 0x100D JUMP JUMPDEST PUSH1 0x40 MLOAD DUP1 SWAP2 SUB SWAP1 REVERT JUMPDEST DUP4 PUSH1 0x1 PUSH1 0x0 DUP9 DUP2 MSTORE PUSH1 0x20 ADD SWAP1 DUP2 MSTORE PUSH1 0x20 ADD PUSH1 0x0 KECCAK256 PUSH1 0x2 ADD DUP2 SWAP1 SSTORE POP PUSH1 0x1 SWAP3 POP POP POP SWAP4 SWAP3 POP POP POP JUMP JUMPDEST PUSH1 0x0 DUP2 PUSH32 0x8E1604A838D0F1A9B2CDA14A099E4CEB08E966CC6E05E8296F67B02D61A79F09 PUSH1 0x0 SHL DUP2 EQ PUSH2 0x347 JUMPI PUSH1 0x40 MLOAD PUSH32 0x8C379A000000000000000000000000000000000000000000000000000000000 DUP2 MSTORE PUSH1 0x4 ADD PUSH2 0x33E SWAP1 PUSH2 0xF7B JUMP JUMPDEST PUSH1 0x40 MLOAD DUP1 SWAP2 SUB SWAP1 REVERT JUMPDEST PUSH1 0x2 PUSH1 0x0 DUP2 SLOAD DUP1 SWAP3 SWAP2 SWAP1 PUSH2 0x35A SWAP1 PUSH2 0x105C JUMP JUMPDEST SWAP2 SWAP1 POP SSTORE POP PUSH1 0x2 SLOAD DUP5 PUSH1 0x0 ADD DUP2 DUP2 MSTORE POP POP DUP4 PUSH1 0x1 PUSH1 0x0 PUSH1 0x2 SLOAD DUP2 MSTORE PUSH1 0x20 ADD SWAP1 DUP2 MSTORE PUSH1 0x20 ADD PUSH1 0x0 KECCAK256 PUSH1 0x0 DUP3 ADD MLOAD DUP2 PUSH1 0x0 ADD SSTORE PUSH1 0x20 DUP3 ADD MLOAD DUP2 PUSH1 0x1 ADD PUSH1 0x0 PUSH2 0x100 EXP DUP2 SLOAD DUP2 PUSH20 0xFFFFFFFFFFFFFFFFFFFFFFFFFFFFFFFFFFFFFFFF MUL NOT AND SWAP1 DUP4 PUSH20 0xFFFFFFFFFFFFFFFFFFFFFFFFFFFFFFFFFFFFFFFF AND MUL OR SWAP1 SSTORE POP PUSH1 0x40 DUP3 ADD MLOAD DUP2 PUSH1 0x2 ADD SSTORE SWAP1 POP POP PUSH32 0xCD52D7A5AD1530FC4E2A7FC9B6B7CD488496952AF7129189A1132017F883C8E3 DUP5 PUSH1 0x40 MLOAD PUSH2 0x40E SWAP2 SWAP1 PUSH2 0xE83 JUMP JUMPDEST PUSH1 0x40 MLOAD DUP1 SWAP2 SUB SWAP1 LOG1 PUSH1 0x1 SWAP2 POP POP SWAP3 SWAP2 POP POP JUMP JUMPDEST PUSH1 0x0 DUP2 PUSH32 0x8E1604A838D0F1A9B2CDA14A099E4CEB08E966CC6E05E8296F67B02D61A79F09 PUSH1 0x0 SHL DUP2 EQ PUSH2 0x489 JUMPI PUSH1 0x40 MLOAD PUSH32 0x8C379A000000000000000000000000000000000000000000000000000000000 DUP2 MSTORE PUSH1 0x4 ADD PUSH2 0x480 SWAP1 PUSH2 0xF7B JUMP JUMPDEST PUSH1 0x40 MLOAD DUP1 SWAP2 SUB SWAP1 REVERT JUMPDEST PUSH1 0x0 PUSH1 0x1 SWAP1 POP JUMPDEST PUSH1 0x2 SLOAD DUP2 GT PUSH2 0x534 JUMPI DUP5 PUSH20 0xFFFFFFFFFFFFFFFFFFFFFFFFFFFFFFFFFFFFFFFF AND PUSH1 0x1 PUSH1 0x0 DUP4 DUP2 MSTORE PUSH1 0x20 ADD SWAP1 DUP2 MSTORE PUSH1 0x20 ADD PUSH1 0x0 KECCAK256 PUSH1 0x1 ADD PUSH1 0x0 SWAP1 SLOAD SWAP1 PUSH2 0x100 EXP SWAP1 DIV PUSH20 0xFFFFFFFFFFFFFFFFFFFFFFFFFFFFFFFFFFFFFFFF AND PUSH20 0xFFFFFFFFFFFFFFFFFFFFFFFFFFFFFFFFFFFFFFFF AND SUB PUSH2 0x521 JUMPI PUSH1 0x1 PUSH1 0x0 DUP3 DUP2 MSTORE PUSH1 0x20 ADD SWAP1 DUP2 MSTORE PUSH1 0x20 ADD PUSH1 0x0 KECCAK256 PUSH1 0x0 ADD SLOAD SWAP3 POP POP PUSH2 0x53A JUMP JUMPDEST DUP1 DUP1 PUSH2 0x52C SWAP1 PUSH2 0x105C JUMP JUMPDEST SWAP2 POP POP PUSH2 0x490 JUMP JUMPDEST POP PUSH1 0x0 SWAP2 POP JUMPDEST POP SWAP3 SWAP2 POP POP JUMP JUMPDEST PUSH2 0x549 PUSH2 0x946 JUMP JUMPDEST ADDRESS PUSH20 0xFFFFFFFFFFFFFFFFFFFFFFFFFFFFFFFFFFFFFFFF AND SELFDESTRUCT JUMPDEST PUSH1 0x0 DUP1 PUSH1 0x0 SWAP1 SLOAD SWAP1 PUSH2 0x100 EXP SWAP1 DIV PUSH20 0xFFFFFFFFFFFFFFFFFFFFFFFFFFFFFFFFFFFFFFFF AND SWAP1 POP SWAP1 JUMP JUMPDEST PUSH1 0x0 DUP2 PUSH32 0x8E1604A838D0F1A9B2CDA14A099E4CEB08E966CC6E05E8296F67B02D61A79F09 PUSH1 0x0 SHL DUP2 EQ PUSH2 0x5F3 JUMPI PUSH1 0x40 MLOAD PUSH32 0x8C379A000000000000000000000000000000000000000000000000000000000 DUP2 MSTORE PUSH1 0x4 ADD PUSH2 0x5EA SWAP1 PUSH2 0xF7B JUMP JUMPDEST PUSH1 0x40 MLOAD DUP1 SWAP2 SUB SWAP1 REVERT JUMPDEST DUP4 DUP1 PUSH1 0x1 GT ISZERO DUP1 ISZERO PUSH2 0x607 JUMPI POP PUSH1 0x2 SLOAD DUP2 GT ISZERO JUMPDEST PUSH2 0x646 JUMPI PUSH1 0x40 MLOAD PUSH32 0x8C379A000000000000000000000000000000000000000000000000000000000 DUP2 MSTORE PUSH1 0x4 ADD PUSH2 0x63D SWAP1 PUSH2 0x100D JUMP JUMPDEST PUSH1 0x40 MLOAD DUP1 SWAP2 SUB SWAP1 REVERT JUMPDEST PUSH1 0x0 PUSH1 0x40 MLOAD DUP1 PUSH1 0x60 ADD PUSH1 0x40 MSTORE DUP1 PUSH1 0x0 DUP2 MSTORE PUSH1 0x20 ADD PUSH1 0x0 PUSH20 0xFFFFFFFFFFFFFFFFFFFFFFFFFFFFFFFFFFFFFFFF AND DUP2 MSTORE PUSH1 0x20 ADD PUSH1 0x0 DUP2 MSTORE POP SWAP1 POP DUP1 PUSH1 0x1 PUSH1 0x0 DUP9 DUP2 MSTORE PUSH1 0x20 ADD SWAP1 DUP2 MSTORE PUSH1 0x20 ADD PUSH1 0x0 KECCAK256 PUSH1 0x0 DUP3 ADD MLOAD DUP2 PUSH1 0x0 ADD SSTORE PUSH1 0x20 DUP3 ADD MLOAD DUP2 PUSH1 0x1 ADD PUSH1 0x0 PUSH2 0x100 EXP DUP2 SLOAD DUP2 PUSH20 0xFFFFFFFFFFFFFFFFFFFFFFFFFFFFFFFFFFFFFFFF MUL NOT AND SWAP1 DUP4 PUSH20 0xFFFFFFFFFFFFFFFFFFFFFFFFFFFFFFFFFFFFFFFF AND MUL OR SWAP1 SSTORE POP PUSH1 0x40 DUP3 ADD MLOAD DUP2 PUSH1 0x2 ADD SSTORE SWAP1 POP POP PUSH1 0x1 SWAP4 POP POP POP POP SWAP3 SWAP2 POP POP JUMP JUMPDEST PUSH2 0x705 PUSH2 0xA81 JUMP JUMPDEST DUP2 PUSH32 0x8E1604A838D0F1A9B2CDA14A099E4CEB08E966CC6E05E8296F67B02D61A79F09 PUSH1 0x0 SHL DUP2 EQ PUSH2 0x76B JUMPI PUSH1 0x40 MLOAD PUSH32 0x8C379A000000000000000000000000000000000000000000000000000000000 DUP2 MSTORE PUSH1 0x4 ADD PUSH2 0x762 SWAP1 PUSH2 0xF7B JUMP JUMPDEST PUSH1 0x40 MLOAD DUP1 SWAP2 SUB SWAP1 REVERT JUMPDEST DUP4 DUP1 PUSH1 0x1 GT ISZERO DUP1 ISZERO PUSH2 0x77F JUMPI POP PUSH1 0x2 SLOAD DUP2 GT ISZERO JUMPDEST PUSH2 0x7BE JUMPI PUSH1 0x40 MLOAD PUSH32 0x8C379A000000000000000000000000000000000000000000000000000000000 DUP2 MSTORE PUSH1 0x4 ADD PUSH2 0x7B5 SWAP1 PUSH2 0x100D JUMP JUMPDEST PUSH1 0x40 MLOAD DUP1 SWAP2 SUB SWAP1 REVERT JUMPDEST PUSH1 0x1 PUSH1 0x0 DUP7 DUP2 MSTORE PUSH1 0x20 ADD SWAP1 DUP2 MSTORE PUSH1 0x20 ADD PUSH1 0x0 KECCAK256 PUSH1 0x40 MLOAD DUP1 PUSH1 0x60 ADD PUSH1 0x40 MSTORE SWAP1 DUP2 PUSH1 0x0 DUP3 ADD SLOAD DUP2 MSTORE PUSH1 0x20 ADD PUSH1 0x1 DUP3 ADD PUSH1 0x0 SWAP1 SLOAD SWAP1 PUSH2 0x100 EXP SWAP1 DIV PUSH20 0xFFFFFFFFFFFFFFFFFFFFFFFFFFFFFFFFFFFFFFFF AND PUSH20 0xFFFFFFFFFFFFFFFFFFFFFFFFFFFFFFFFFFFFFFFF AND PUSH20 0xFFFFFFFFFFFFFFFFFFFFFFFFFFFFFFFFFFFFFFFF AND DUP2 MSTORE PUSH1 0x20 ADD PUSH1 0x2 DUP3 ADD SLOAD DUP2 MSTORE POP POP SWAP3 POP POP POP SWAP3 SWAP2 POP POP JUMP JUMPDEST PUSH2 0x858 PUSH2 0x946 JUMP JUMPDEST PUSH1 0x0 PUSH20 0xFFFFFFFFFFFFFFFFFFFFFFFFFFFFFFFFFFFFFFFF AND DUP2 PUSH20 0xFFFFFFFFFFFFFFFFFFFFFFFFFFFFFFFFFFFFFFFF AND SUB PUSH2 0x8C7 JUMPI PUSH1 0x40 MLOAD PUSH32 0x8C379A000000000000000000000000000000000000000000000000000000000 DUP2 MSTORE PUSH1 0x4 ADD PUSH2 0x8BE SWAP1 PUSH2 0x1116 JUMP JUMPDEST PUSH1 0x40 MLOAD DUP1 SWAP2 SUB SWAP1 REVERT JUMPDEST PUSH2 0x8D0 DUP2 PUSH2 0x9BD JUMP JUMPDEST POP JUMP JUMPDEST PUSH1 0x0 DUP2 PUSH32 0x8E1604A838D0F1A9B2CDA14A099E4CEB08E966CC6E05E8296F67B02D61A79F09 PUSH1 0x0 SHL DUP2 EQ PUSH2 0x93B JUMPI PUSH1 0x40 MLOAD PUSH32 0x8C379A000000000000000000000000000000000000000000000000000000000 DUP2 MSTORE PUSH1 0x4 ADD PUSH2 0x932 SWAP1 PUSH2 0xF7B JUMP JUMPDEST PUSH1 0x40 MLOAD DUP1 SWAP2 SUB SWAP1 REVERT JUMPDEST PUSH1 0x2 SLOAD SWAP2 POP POP SWAP2 SWAP1 POP JUMP JUMPDEST CALLER PUSH20 0xFFFFFFFFFFFFFFFFFFFFFFFFFFFFFFFFFFFFFFFF AND PUSH2 0x965 PUSH2 0x562 JUMP JUMPDEST PUSH20 0xFFFFFFFFFFFFFFFFFFFFFFFFFFFFFFFFFFFFFFFF AND EQ PUSH2 0x9BB JUMPI PUSH1 0x40 MLOAD PUSH32 0x8C379A000000000000000000000000000000000000000000000000000000000 DUP2 MSTORE PUSH1 0x4 ADD PUSH2 0x9B2 SWAP1 PUSH2 0x1182 JUMP JUMPDEST PUSH1 0x40 MLOAD DUP1 SWAP2 SUB SWAP1 REVERT JUMPDEST JUMP JUMPDEST PUSH1 0x0 DUP1 PUSH1 0x0 SWAP1 SLOAD SWAP1 PUSH2 0x100 EXP SWAP1 DIV PUSH20 0xFFFFFFFFFFFFFFFFFFFFFFFFFFFFFFFFFFFFFFFF AND SWAP1 POP DUP2 PUSH1 0x0 DUP1 PUSH2 0x100 EXP DUP2 SLOAD DUP2 PUSH20 0xFFFFFFFFFFFFFFFFFFFFFFFFFFFFFFFFFFFFFFFF MUL NOT AND SWAP1 DUP4 PUSH20 0xFFFFFFFFFFFFFFFFFFFFFFFFFFFFFFFFFFFFFFFF AND MUL OR SWAP1 SSTORE POP DUP2 PUSH20 0xFFFFFFFFFFFFFFFFFFFFFFFFFFFFFFFFFFFFFFFF AND DUP2 PUSH20 0xFFFFFFFFFFFFFFFFFFFFFFFFFFFFFFFFFFFFFFFF AND PUSH32 0x8BE0079C531659141344CD1FD0A4F28419497F9722A3DAAFE3B4186F6B6457E0 PUSH1 0x40 MLOAD PUSH1 0x40 MLOAD DUP1 SWAP2 SUB SWAP1 LOG3 POP POP JUMP JUMPDEST PUSH1 0x40 MLOAD DUP1 PUSH1 0x60 ADD PUSH1 0x40 MSTORE DUP1 PUSH1 0x0 DUP2 MSTORE PUSH1 0x20 ADD PUSH1 0x0 PUSH20 0xFFFFFFFFFFFFFFFFFFFFFFFFFFFFFFFFFFFFFFFF AND DUP2 MSTORE PUSH1 0x20 ADD PUSH1 0x0 DUP2 MSTORE POP SWAP1 JUMP JUMPDEST PUSH1 0x0 PUSH1 0x40 MLOAD SWAP1 POP SWAP1 JUMP JUMPDEST PUSH1 0x0 DUP1 REVERT JUMPDEST PUSH1 0x0 DUP2 SWAP1 POP SWAP2 SWAP1 POP JUMP JUMPDEST PUSH2 0xADA DUP2 PUSH2 0xAC7 JUMP JUMPDEST DUP2 EQ PUSH2 0xAE5 JUMPI PUSH1 0x0 DUP1 REVERT JUMPDEST POP JUMP JUMPDEST PUSH1 0x0 DUP2 CALLDATALOAD SWAP1 POP PUSH2 0xAF7 DUP2 PUSH2 0xAD1 JUMP JUMPDEST SWAP3 SWAP2 POP POP JUMP JUMPDEST PUSH1 0x0 DUP2 SWAP1 POP SWAP2 SWAP1 POP JUMP JUMPDEST PUSH2 0xB10 DUP2 PUSH2 0xAFD JUMP JUMPDEST DUP2 EQ PUSH2 0xB1B JUMPI PUSH1 0x0 DUP1 REVERT JUMPDEST POP JUMP JUMPDEST PUSH1 0x0 DUP2 CALLDATALOAD SWAP1 POP PUSH2 0xB2D DUP2 PUSH2 0xB07 JUMP JUMPDEST SWAP3 SWAP2 POP POP JUMP JUMPDEST PUSH1 0x0 DUP1 PUSH1 0x0 PUSH1 0x60 DUP5 DUP7 SUB SLT ISZERO PUSH2 0xB4C JUMPI PUSH2 0xB4B PUSH2 0xAC2 JUMP JUMPDEST JUMPDEST PUSH1 0x0 PUSH2 0xB5A DUP7 DUP3 DUP8 ADD PUSH2 0xAE8 JUMP JUMPDEST SWAP4 POP POP PUSH1 0x20 PUSH2 0xB6B DUP7 DUP3 DUP8 ADD PUSH2 0xB1E JUMP JUMPDEST SWAP3 POP POP PUSH1 0x40 PUSH2 0xB7C DUP7 DUP3 DUP8 ADD PUSH2 0xAE8 JUMP JUMPDEST SWAP2 POP POP SWAP3 POP SWAP3 POP SWAP3 JUMP JUMPDEST PUSH1 0x0 DUP2 ISZERO ISZERO SWAP1 POP SWAP2 SWAP1 POP JUMP JUMPDEST PUSH2 0xB9B DUP2 PUSH2 0xB86 JUMP JUMPDEST DUP3 MSTORE POP POP JUMP JUMPDEST PUSH1 0x0 PUSH1 0x20 DUP3 ADD SWAP1 POP PUSH2 0xBB6 PUSH1 0x0 DUP4 ADD DUP5 PUSH2 0xB92 JUMP JUMPDEST SWAP3 SWAP2 POP POP JUMP JUMPDEST PUSH1 0x0 DUP1 REVERT JUMPDEST PUSH1 0x0 PUSH1 0x1F NOT PUSH1 0x1F DUP4 ADD AND SWAP1 POP SWAP2 SWAP1 POP JUMP JUMPDEST PUSH32 0x4E487B7100000000000000000000000000000000000000000000000000000000 PUSH1 0x0 MSTORE PUSH1 0x41 PUSH1 0x4 MSTORE PUSH1 0x24 PUSH1 0x0 REVERT JUMPDEST PUSH2 0xC0A DUP3 PUSH2 0xBC1 JUMP JUMPDEST DUP2 ADD DUP2 DUP2 LT PUSH8 0xFFFFFFFFFFFFFFFF DUP3 GT OR ISZERO PUSH2 0xC29 JUMPI PUSH2 0xC28 PUSH2 0xBD2 JUMP JUMPDEST JUMPDEST DUP1 PUSH1 0x40 MSTORE POP POP POP JUMP JUMPDEST PUSH1 0x0 PUSH2 0xC3C PUSH2 0xAB8 JUMP JUMPDEST SWAP1 POP PUSH2 0xC48 DUP3 DUP3 PUSH2 0xC01 JUMP JUMPDEST SWAP2 SWAP1 POP JUMP JUMPDEST PUSH1 0x0 PUSH20 0xFFFFFFFFFFFFFFFFFFFFFFFFFFFFFFFFFFFFFFFF DUP3 AND SWAP1 POP SWAP2 SWAP1 POP JUMP JUMPDEST PUSH1 0x0 PUSH2 0xC78 DUP3 PUSH2 0xC4D JUMP JUMPDEST SWAP1 POP SWAP2 SWAP1 POP JUMP JUMPDEST PUSH2 0xC88 DUP2 PUSH2 0xC6D JUMP JUMPDEST DUP2 EQ PUSH2 0xC93 JUMPI PUSH1 0x0 DUP1 REVERT JUMPDEST POP JUMP JUMPDEST PUSH1 0x0 DUP2 CALLDATALOAD SWAP1 POP PUSH2 0xCA5 DUP2 PUSH2 0xC7F JUMP JUMPDEST SWAP3 SWAP2 POP POP JUMP JUMPDEST PUSH1 0x0 PUSH1 0x60 DUP3 DUP5 SUB SLT ISZERO PUSH2 0xCC1 JUMPI PUSH2 0xCC0 PUSH2 0xBBC JUMP JUMPDEST JUMPDEST PUSH2 0xCCB PUSH1 0x60 PUSH2 0xC32 JUMP JUMPDEST SWAP1 POP PUSH1 0x0 PUSH2 0xCDB DUP5 DUP3 DUP6 ADD PUSH2 0xAE8 JUMP JUMPDEST PUSH1 0x0 DUP4 ADD MSTORE POP PUSH1 0x20 PUSH2 0xCEF DUP5 DUP3 DUP6 ADD PUSH2 0xC96 JUMP JUMPDEST PUSH1 0x20 DUP4 ADD MSTORE POP PUSH1 0x40 PUSH2 0xD03 DUP5 DUP3 DUP6 ADD PUSH2 0xAE8 JUMP JUMPDEST PUSH1 0x40 DUP4 ADD MSTORE POP SWAP3 SWAP2 POP POP JUMP JUMPDEST PUSH1 0x0 DUP1 PUSH1 0x80 DUP4 DUP6 SUB SLT ISZERO PUSH2 0xD26 JUMPI PUSH2 0xD25 PUSH2 0xAC2 JUMP JUMPDEST JUMPDEST PUSH1 0x0 PUSH2 0xD34 DUP6 DUP3 DUP7 ADD PUSH2 0xCAB JUMP JUMPDEST SWAP3 POP POP PUSH1 0x60 PUSH2 0xD45 DUP6 DUP3 DUP7 ADD PUSH2 0xB1E JUMP JUMPDEST SWAP2 POP POP SWAP3 POP SWAP3 SWAP1 POP JUMP JUMPDEST PUSH1 0x0 DUP1 PUSH1 0x40 DUP4 DUP6 SUB SLT ISZERO PUSH2 0xD66 JUMPI PUSH2 0xD65 PUSH2 0xAC2 JUMP JUMPDEST JUMPDEST PUSH1 0x0 PUSH2 0xD74 DUP6 DUP3 DUP7 ADD PUSH2 0xC96 JUMP JUMPDEST SWAP3 POP POP PUSH1 0x20 PUSH2 0xD85 DUP6 DUP3 DUP7 ADD PUSH2 0xB1E JUMP JUMPDEST SWAP2 POP POP SWAP3 POP SWAP3 SWAP1 POP JUMP JUMPDEST PUSH2 0xD98 DUP2 PUSH2 0xAC7 JUMP JUMPDEST DUP3 MSTORE POP POP JUMP JUMPDEST PUSH1 0x0 PUSH1 0x20 DUP3 ADD SWAP1 POP PUSH2 0xDB3 PUSH1 0x0 DUP4 ADD DUP5 PUSH2 0xD8F JUMP JUMPDEST SWAP3 SWAP2 POP POP JUMP JUMPDEST PUSH2 0xDC2 DUP2 PUSH2 0xC6D JUMP JUMPDEST DUP3 MSTORE POP POP JUMP JUMPDEST PUSH1 0x0 PUSH1 0x20 DUP3 ADD SWAP1 POP PUSH2 0xDDD PUSH1 0x0 DUP4 ADD DUP5 PUSH2 0xDB9 JUMP JUMPDEST SWAP3 SWAP2 POP POP JUMP JUMPDEST PUSH1 0x0 DUP1 PUSH1 0x40 DUP4 DUP6 SUB SLT ISZERO PUSH2 0xDFA JUMPI PUSH2 0xDF9 PUSH2 0xAC2 JUMP JUMPDEST JUMPDEST PUSH1 0x0 PUSH2 0xE08 DUP6 DUP3 DUP7 ADD PUSH2 0xAE8 JUMP JUMPDEST SWAP3 POP POP PUSH1 0x20 PUSH2 0xE19 DUP6 DUP3 DUP7 ADD PUSH2 0xB1E JUMP JUMPDEST SWAP2 POP POP SWAP3 POP SWAP3 SWAP1 POP JUMP JUMPDEST PUSH2 0xE2C DUP2 PUSH2 0xAC7 JUMP JUMPDEST DUP3 MSTORE POP POP JUMP JUMPDEST PUSH2 0xE3B DUP2 PUSH2 0xC6D JUMP JUMPDEST DUP3 MSTORE POP POP JUMP JUMPDEST PUSH1 0x60 DUP3 ADD PUSH1 0x0 DUP3 ADD MLOAD PUSH2 0xE57 PUSH1 0x0 DUP6 ADD DUP3 PUSH2 0xE23 JUMP JUMPDEST POP PUSH1 0x20 DUP3 ADD MLOAD PUSH2 0xE6A PUSH1 0x20 DUP6 ADD DUP3 PUSH2 0xE32 JUMP JUMPDEST POP PUSH1 0x40 DUP3 ADD MLOAD PUSH2 0xE7D PUSH1 0x40 DUP6 ADD DUP3 PUSH2 0xE23 JUMP JUMPDEST POP POP POP POP JUMP JUMPDEST PUSH1 0x0 PUSH1 0x60 DUP3 ADD SWAP1 POP PUSH2 0xE98 PUSH1 0x0 DUP4 ADD DUP5 PUSH2 0xE41 JUMP JUMPDEST SWAP3 SWAP2 POP POP JUMP JUMPDEST PUSH1 0x0 PUSH1 0x20 DUP3 DUP5 SUB SLT ISZERO PUSH2 0xEB4 JUMPI PUSH2 0xEB3 PUSH2 0xAC2 JUMP JUMPDEST JUMPDEST PUSH1 0x0 PUSH2 0xEC2 DUP5 DUP3 DUP6 ADD PUSH2 0xC96 JUMP JUMPDEST SWAP2 POP POP SWAP3 SWAP2 POP POP JUMP JUMPDEST PUSH1 0x0 PUSH1 0x20 DUP3 DUP5 SUB SLT ISZERO PUSH2 0xEE1 JUMPI PUSH2 0xEE0 PUSH2 0xAC2 JUMP JUMPDEST JUMPDEST PUSH1 0x0 PUSH2 0xEEF DUP5 DUP3 DUP6 ADD PUSH2 0xB1E JUMP JUMPDEST SWAP2 POP POP SWAP3 SWAP2 POP POP JUMP JUMPDEST PUSH1 0x0 DUP3 DUP3 MSTORE PUSH1 0x20 DUP3 ADD SWAP1 POP SWAP3 SWAP2 POP POP JUMP JUMPDEST PUSH32 0x4461746162617365204C6973744861727665737465723A20536563726574206B PUSH1 0x0 DUP3 ADD MSTORE PUSH32 0x6579206572726F72000000000000000000000000000000000000000000000000 PUSH1 0x20 DUP3 ADD MSTORE POP JUMP JUMPDEST PUSH1 0x0 PUSH2 0xF65 PUSH1 0x28 DUP4 PUSH2 0xEF8 JUMP JUMPDEST SWAP2 POP PUSH2 0xF70 DUP3 PUSH2 0xF09 JUMP JUMPDEST PUSH1 0x40 DUP3 ADD SWAP1 POP SWAP2 SWAP1 POP JUMP JUMPDEST PUSH1 0x0 PUSH1 0x20 DUP3 ADD SWAP1 POP DUP2 DUP2 SUB PUSH1 0x0 DUP4 ADD MSTORE PUSH2 0xF94 DUP2 PUSH2 0xF58 JUMP JUMPDEST SWAP1 POP SWAP2 SWAP1 POP JUMP JUMPDEST PUSH32 0x4461746162617365204C6973744861727665737465723A20496E76616C696420 PUSH1 0x0 DUP3 ADD MSTORE PUSH32 0x696E646578000000000000000000000000000000000000000000000000000000 PUSH1 0x20 DUP3 ADD MSTORE POP JUMP JUMPDEST PUSH1 0x0 PUSH2 0xFF7 PUSH1 0x25 DUP4 PUSH2 0xEF8 JUMP JUMPDEST SWAP2 POP PUSH2 0x1002 DUP3 PUSH2 0xF9B JUMP JUMPDEST PUSH1 0x40 DUP3 ADD SWAP1 POP SWAP2 SWAP1 POP JUMP JUMPDEST PUSH1 0x0 PUSH1 0x20 DUP3 ADD SWAP1 POP DUP2 DUP2 SUB PUSH1 0x0 DUP4 ADD MSTORE PUSH2 0x1026 DUP2 PUSH2 0xFEA JUMP JUMPDEST SWAP1 POP SWAP2 SWAP1 POP JUMP JUMPDEST PUSH32 0x4E487B7100000000000000000000000000000000000000000000000000000000 PUSH1 0x0 MSTORE PUSH1 0x11 PUSH1 0x4 MSTORE PUSH1 0x24 PUSH1 0x0 REVERT JUMPDEST PUSH1 0x0 PUSH2 0x1067 DUP3 PUSH2 0xAC7 JUMP JUMPDEST SWAP2 POP PUSH32 0xFFFFFFFFFFFFFFFFFFFFFFFFFFFFFFFFFFFFFFFFFFFFFFFFFFFFFFFFFFFFFFFF DUP3 SUB PUSH2 0x1099 JUMPI PUSH2 0x1098 PUSH2 0x102D JUMP JUMPDEST JUMPDEST PUSH1 0x1 DUP3 ADD SWAP1 POP SWAP2 SWAP1 POP JUMP JUMPDEST PUSH32 0x4F776E61626C653A206E6577206F776E657220697320746865207A65726F2061 PUSH1 0x0 DUP3 ADD MSTORE PUSH32 0x6464726573730000000000000000000000000000000000000000000000000000 PUSH1 0x20 DUP3 ADD MSTORE POP JUMP JUMPDEST PUSH1 0x0 PUSH2 0x1100 PUSH1 0x26 DUP4 PUSH2 0xEF8 JUMP JUMPDEST SWAP2 POP PUSH2 0x110B DUP3 PUSH2 0x10A4 JUMP JUMPDEST PUSH1 0x40 DUP3 ADD SWAP1 POP SWAP2 SWAP1 POP JUMP JUMPDEST PUSH1 0x0 PUSH1 0x20 DUP3 ADD SWAP1 POP DUP2 DUP2 SUB PUSH1 0x0 DUP4 ADD MSTORE PUSH2 0x112F DUP2 PUSH2 0x10F3 JUMP JUMPDEST SWAP1 POP SWAP2 SWAP1 POP JUMP JUMPDEST PUSH32 0x4F776E61626C653A2063616C6C6572206973206E6F7420746865206F776E6572 PUSH1 0x0 DUP3 ADD MSTORE POP JUMP JUMPDEST PUSH1 0x0 PUSH2 0x116C PUSH1 0x20 DUP4 PUSH2 0xEF8 JUMP JUMPDEST SWAP2 POP PUSH2 0x1177 DUP3 PUSH2 0x1136 JUMP JUMPDEST PUSH1 0x20 DUP3 ADD SWAP1 POP SWAP2 SWAP1 POP JUMP JUMPDEST PUSH1 0x0 PUSH1 0x20 DUP3 ADD SWAP1 POP DUP2 DUP2 SUB PUSH1 0x0 DUP4 ADD MSTORE PUSH2 0x119B DUP2 PUSH2 0x115F JUMP JUMPDEST SWAP1 POP SWAP2 SWAP1 POP JUMP INVALID LOG2 PUSH5 0x6970667358 0x22 SLT KECCAK256 RETURNDATACOPY JUMPI PUSH27 0x6EB451875EFB157A65161F18B81FB16EA77BC5D03BA6F851362F91 DUP7 0x1E PUSH5 0x736F6C6343 STOP ADDMOD GT STOP CALLER "
				},
				"gasEstimates": {
					"creation": {
						"codeDepositCost": "913600",
						"executionCost": "30220",
						"totalCost": "943820"
					},
					"external": {
						"add((uint256,address,uint256),bytes32)": "infinite",
						"at(uint256,bytes32)": "infinite",
						"destroy()": "30039",
						"findHarvesterIdByAddress(address,bytes32)": "infinite",
						"getLength(bytes32)": "2824",
						"hide(uint256,bytes32)": "37507",
						"owner()": "2522",
						"setHarvester(uint256,bytes32,uint256)": "infinite",
						"transferOwnership(address)": "30775"
					}
				},
				"methodIdentifiers": {
					"add((uint256,address,uint256),bytes32)": "3ce17585",
					"at(uint256,bytes32)": "c78a6741",
					"destroy()": "83197ef0",
					"findHarvesterIdByAddress(address,bytes32)": "56ee78b5",
					"getLength(bytes32)": "fd82e9dd",
					"hide(uint256,bytes32)": "b615c00a",
					"owner()": "8da5cb5b",
					"setHarvester(uint256,bytes32,uint256)": "0461559a",
					"transferOwnership(address)": "f2fde38b"
				}
			},
			"storageLayout": {
				"storage": [
					{
						"astId": 4,
						"contract": "database/farmer/ListHarvester.sol:ListHarvester",
						"label": "_owner",
						"offset": 0,
						"slot": "0",
						"type": "t_address"
					},
					{
						"astId": 400,
						"contract": "database/farmer/ListHarvester.sol:ListHarvester",
						"label": "list",
						"offset": 0,
						"slot": "1",
						"type": "t_mapping(t_uint256,t_struct(Harvester)632_storage)"
					},
					{
						"astId": 403,
						"contract": "database/farmer/ListHarvester.sol:ListHarvester",
						"label": "autoIncrement",
						"offset": 0,
						"slot": "2",
						"type": "t_uint256"
					}
				],
				"types": {
					"t_address": {
						"encoding": "inplace",
						"label": "address",
						"numberOfBytes": "20"
					},
					"t_mapping(t_uint256,t_struct(Harvester)632_storage)": {
						"encoding": "mapping",
						"key": "t_uint256",
						"label": "mapping(uint256 => struct Harvester)",
						"numberOfBytes": "32",
						"value": "t_struct(Harvester)632_storage"
					},
					"t_struct(Harvester)632_storage": {
						"encoding": "inplace",
						"label": "struct Harvester",
						"members": [
							{
								"astId": 627,
								"contract": "database/farmer/ListHarvester.sol:ListHarvester",
								"label": "harvesterId",
								"offset": 0,
								"slot": "0",
								"type": "t_uint256"
							},
							{
								"astId": 629,
								"contract": "database/farmer/ListHarvester.sol:ListHarvester",
								"label": "harvesterAddress",
								"offset": 0,
								"slot": "1",
								"type": "t_address"
							},
							{
								"astId": 631,
								"contract": "database/farmer/ListHarvester.sol:ListHarvester",
								"label": "category",
								"offset": 0,
								"slot": "2",
								"type": "t_uint256"
							}
						],
						"numberOfBytes": "96"
					},
					"t_uint256": {
						"encoding": "inplace",
						"label": "uint256",
						"numberOfBytes": "32"
					}
				}
			},
			"userdoc": {
				"kind": "user",
				"methods": {},
				"version": 1
			}
		}
	}
}