{
	"controller/farmer/HarvesterController.sol": {
		"HarvesterController": {
			"abi": [
				{
					"inputs": [
						{
							"internalType": "address",
							"name": "listHarvesterAddress",
							"type": "address"
						}
					],
					"stateMutability": "nonpayable",
					"type": "constructor"
				},
				{
					"anonymous": false,
					"inputs": [
						{
							"indexed": true,
							"internalType": "address",
							"name": "previousOwner",
							"type": "address"
						},
						{
							"indexed": true,
							"internalType": "address",
							"name": "newOwner",
							"type": "address"
						}
					],
					"name": "OwnershipTransferred",
					"type": "event"
				},
				{
					"inputs": [],
					"name": "_checkExistHarvesterAccount",
					"outputs": [
						{
							"internalType": "bool",
							"name": "",
							"type": "bool"
						}
					],
					"stateMutability": "view",
					"type": "function"
				},
				{
					"inputs": [
						{
							"internalType": "uint256",
							"name": "category",
							"type": "uint256"
						}
					],
					"name": "addHarvester",
					"outputs": [
						{
							"internalType": "bool",
							"name": "",
							"type": "bool"
						}
					],
					"stateMutability": "nonpayable",
					"type": "function"
				},
				{
					"inputs": [],
					"name": "destroy",
					"outputs": [],
					"stateMutability": "nonpayable",
					"type": "function"
				},
				{
					"inputs": [],
					"name": "getAllHarvester",
					"outputs": [
						{
							"components": [
								{
									"internalType": "uint256",
									"name": "harvesterId",
									"type": "uint256"
								},
								{
									"internalType": "address",
									"name": "harvesterAddress",
									"type": "address"
								},
								{
									"internalType": "uint256",
									"name": "category",
									"type": "uint256"
								}
							],
							"internalType": "struct Harvester[]",
							"name": "",
							"type": "tuple[]"
						}
					],
					"stateMutability": "view",
					"type": "function"
				},
				{
					"inputs": [],
					"name": "owner",
					"outputs": [
						{
							"internalType": "address",
							"name": "",
							"type": "address"
						}
					],
					"stateMutability": "view",
					"type": "function"
				},
				{
					"inputs": [
						{
							"internalType": "address",
							"name": "newOwner",
							"type": "address"
						}
					],
					"name": "transferOwnership",
					"outputs": [],
					"stateMutability": "nonpayable",
					"type": "function"
				}
			],
			"devdoc": {
				"kind": "dev",
				"methods": {
					"owner()": {
						"details": "Returns the address of the current owner."
					},
					"transferOwnership(address)": {
						"details": "Transfers ownership of the contract to a new account (`newOwner`). Can only be called by the current owner."
					}
				},
				"version": 1
			},
			"evm": {
				"assembly": "    /* \"controller/farmer/HarvesterController.sol\":320:1209  contract HarvesterController is Ownable, ListHarvesterCursor {... */\n  mstore(0x40, 0x80)\n    /* \"controller/farmer/HarvesterController.sol\":387:503  constructor(address listHarvesterAddress)... */\n  callvalue\n  dup1\n  iszero\n  tag_1\n  jumpi\n  0x00\n  dup1\n  revert\ntag_1:\n  pop\n  mload(0x40)\n  sub(codesize, bytecodeSize)\n  dup1\n  bytecodeSize\n  dup4\n  codecopy\n  dup2\n  dup2\n  add\n  0x40\n  mstore\n  dup2\n  add\n  swap1\n  tag_2\n  swap2\n  swap1\n  tag_3\n  jump\t// in\ntag_2:\n    /* \"controller/farmer/HarvesterController.sol\":475:495  listHarvesterAddress */\n  dup1\n    /* \"abstract/Ownable.sol\":932:942  msg.sender */\n  caller\n    /* \"abstract/Ownable.sol\":923:929  _owner */\n  0x00\n  dup1\n    /* \"abstract/Ownable.sol\":923:942  _owner = msg.sender */\n  0x0100\n  exp\n  dup2\n  sload\n  dup2\n  0xffffffffffffffffffffffffffffffffffffffff\n  mul\n  not\n  and\n  swap1\n  dup4\n  0xffffffffffffffffffffffffffffffffffffffff\n  and\n  mul\n  or\n  swap1\n  sstore\n  pop\n    /* \"cursor/farmer/ListHarvesterCursor.sol\":452:457  value */\n  dup1\n    /* \"cursor/farmer/ListHarvesterCursor.sol\":429:449  listHarvesterAddress */\n  0x02\n  0x00\n    /* \"cursor/farmer/ListHarvesterCursor.sol\":429:457  listHarvesterAddress = value */\n  0x0100\n  exp\n  dup2\n  sload\n  dup2\n  0xffffffffffffffffffffffffffffffffffffffff\n  mul\n  not\n  and\n  swap1\n  dup4\n  0xffffffffffffffffffffffffffffffffffffffff\n  and\n  mul\n  or\n  swap1\n  sstore\n  pop\n    /* \"cursor/farmer/ListHarvesterCursor.sol\":503:508  value */\n  dup1\n    /* \"cursor/farmer/ListHarvesterCursor.sol\":467:486  listHarvesterCursor */\n  0x01\n  0x00\n    /* \"cursor/farmer/ListHarvesterCursor.sol\":467:509  listHarvesterCursor = ListHarvester(value) */\n  0x0100\n  exp\n  dup2\n  sload\n  dup2\n  0xffffffffffffffffffffffffffffffffffffffff\n  mul\n  not\n  and\n  swap1\n  dup4\n  0xffffffffffffffffffffffffffffffffffffffff\n  and\n  mul\n  or\n  swap1\n  sstore\n  pop\n    /* \"cursor/farmer/ListHarvesterCursor.sol\":392:516  constructor(address value) {... */\n  pop\n    /* \"controller/farmer/HarvesterController.sol\":387:503  constructor(address listHarvesterAddress)... */\n  pop\n    /* \"controller/farmer/HarvesterController.sol\":320:1209  contract HarvesterController is Ownable, ListHarvesterCursor {... */\n  jump(tag_10)\n    /* \"#utility.yul\":88:205   */\ntag_12:\n    /* \"#utility.yul\":197:198   */\n  0x00\n    /* \"#utility.yul\":194:195   */\n  dup1\n    /* \"#utility.yul\":187:199   */\n  revert\n    /* \"#utility.yul\":334:460   */\ntag_14:\n    /* \"#utility.yul\":371:378   */\n  0x00\n    /* \"#utility.yul\":411:453   */\n  0xffffffffffffffffffffffffffffffffffffffff\n    /* \"#utility.yul\":404:409   */\n  dup3\n    /* \"#utility.yul\":400:454   */\n  and\n    /* \"#utility.yul\":389:454   */\n  swap1\n  pop\n    /* \"#utility.yul\":334:460   */\n  swap2\n  swap1\n  pop\n  jump\t// out\n    /* \"#utility.yul\":466:562   */\ntag_15:\n    /* \"#utility.yul\":503:510   */\n  0x00\n    /* \"#utility.yul\":532:556   */\n  tag_24\n    /* \"#utility.yul\":550:555   */\n  dup3\n    /* \"#utility.yul\":532:556   */\n  tag_14\n  jump\t// in\ntag_24:\n    /* \"#utility.yul\":521:556   */\n  swap1\n  pop\n    /* \"#utility.yul\":466:562   */\n  swap2\n  swap1\n  pop\n  jump\t// out\n    /* \"#utility.yul\":568:690   */\ntag_16:\n    /* \"#utility.yul\":641:665   */\n  tag_26\n    /* \"#utility.yul\":659:664   */\n  dup2\n    /* \"#utility.yul\":641:665   */\n  tag_15\n  jump\t// in\ntag_26:\n    /* \"#utility.yul\":634:639   */\n  dup2\n    /* \"#utility.yul\":631:666   */\n  eq\n    /* \"#utility.yul\":621:684   */\n  tag_27\n  jumpi\n    /* \"#utility.yul\":680:681   */\n  0x00\n    /* \"#utility.yul\":677:678   */\n  dup1\n    /* \"#utility.yul\":670:682   */\n  revert\n    /* \"#utility.yul\":621:684   */\ntag_27:\n    /* \"#utility.yul\":568:690   */\n  pop\n  jump\t// out\n    /* \"#utility.yul\":696:839   */\ntag_17:\n    /* \"#utility.yul\":753:758   */\n  0x00\n    /* \"#utility.yul\":784:790   */\n  dup2\n    /* \"#utility.yul\":778:791   */\n  mload\n    /* \"#utility.yul\":769:791   */\n  swap1\n  pop\n    /* \"#utility.yul\":800:833   */\n  tag_29\n    /* \"#utility.yul\":827:832   */\n  dup2\n    /* \"#utility.yul\":800:833   */\n  tag_16\n  jump\t// in\ntag_29:\n    /* \"#utility.yul\":696:839   */\n  swap3\n  swap2\n  pop\n  pop\n  jump\t// out\n    /* \"#utility.yul\":845:1196   */\ntag_3:\n    /* \"#utility.yul\":915:921   */\n  0x00\n    /* \"#utility.yul\":964:966   */\n  0x20\n    /* \"#utility.yul\":952:961   */\n  dup3\n    /* \"#utility.yul\":943:950   */\n  dup5\n    /* \"#utility.yul\":939:962   */\n  sub\n    /* \"#utility.yul\":935:967   */\n  slt\n    /* \"#utility.yul\":932:1051   */\n  iszero\n  tag_31\n  jumpi\n    /* \"#utility.yul\":970:1049   */\n  tag_32\n  tag_12\n  jump\t// in\ntag_32:\n    /* \"#utility.yul\":932:1051   */\ntag_31:\n    /* \"#utility.yul\":1090:1091   */\n  0x00\n    /* \"#utility.yul\":1115:1179   */\n  tag_33\n    /* \"#utility.yul\":1171:1178   */\n  dup5\n    /* \"#utility.yul\":1162:1168   */\n  dup3\n    /* \"#utility.yul\":1151:1160   */\n  dup6\n    /* \"#utility.yul\":1147:1169   */\n  add\n    /* \"#utility.yul\":1115:1179   */\n  tag_17\n  jump\t// in\ntag_33:\n    /* \"#utility.yul\":1105:1179   */\n  swap2\n  pop\n    /* \"#utility.yul\":1061:1189   */\n  pop\n    /* \"#utility.yul\":845:1196   */\n  swap3\n  swap2\n  pop\n  pop\n  jump\t// out\n    /* \"controller/farmer/HarvesterController.sol\":320:1209  contract HarvesterController is Ownable, ListHarvesterCursor {... */\ntag_10:\n  dataSize(sub_0)\n  dup1\n  dataOffset(sub_0)\n  0x00\n  codecopy\n  0x00\n  return\nstop\n\nsub_0: assembly {\n        /* \"controller/farmer/HarvesterController.sol\":320:1209  contract HarvesterController is Ownable, ListHarvesterCursor {... */\n      mstore(0x40, 0x80)\n      callvalue\n      dup1\n      iszero\n      tag_1\n      jumpi\n      0x00\n      dup1\n      revert\n    tag_1:\n      pop\n      jumpi(tag_2, lt(calldatasize, 0x04))\n      shr(0xe0, calldataload(0x00))\n      dup1\n      0x21eb539e\n      eq\n      tag_3\n      jumpi\n      dup1\n      0x7faaf3c1\n      eq\n      tag_4\n      jumpi\n      dup1\n      0x83197ef0\n      eq\n      tag_5\n      jumpi\n      dup1\n      0x8da5cb5b\n      eq\n      tag_6\n      jumpi\n      dup1\n      0x9338cc13\n      eq\n      tag_7\n      jumpi\n      dup1\n      0xf2fde38b\n      eq\n      tag_8\n      jumpi\n    tag_2:\n      0x00\n      dup1\n      revert\n        /* \"controller/farmer/HarvesterController.sol\":771:1207  function getAllHarvester() public view returns (Harvester[] memory) {... */\n    tag_3:\n      tag_9\n      tag_10\n      jump\t// in\n    tag_9:\n      mload(0x40)\n      tag_11\n      swap2\n      swap1\n      tag_12\n      jump\t// in\n    tag_11:\n      mload(0x40)\n      dup1\n      swap2\n      sub\n      swap1\n      return\n        /* \"cursor/farmer/ListHarvesterCursor.sol\":1462:1717  function _checkExistHarvesterAccount() public view returns (bool) {... */\n    tag_4:\n      tag_13\n      tag_14\n      jump\t// in\n    tag_13:\n      mload(0x40)\n      tag_15\n      swap2\n      swap1\n      tag_16\n      jump\t// in\n    tag_15:\n      mload(0x40)\n      dup1\n      swap2\n      sub\n      swap1\n      return\n        /* \"abstract/Ownable.sol\":2642:2731  function destroy() public onlyOwner {... */\n    tag_5:\n      tag_17\n      tag_18\n      jump\t// in\n    tag_17:\n      stop\n        /* \"abstract/Ownable.sol\":1175:1260  function owner() public view virtual returns (address) {... */\n    tag_6:\n      tag_19\n      tag_20\n      jump\t// in\n    tag_19:\n      mload(0x40)\n      tag_21\n      swap2\n      swap1\n      tag_22\n      jump\t// in\n    tag_21:\n      mload(0x40)\n      dup1\n      swap2\n      sub\n      swap1\n      return\n        /* \"controller/farmer/HarvesterController.sol\":509:765  function addHarvester(uint256 category)... */\n    tag_7:\n      tag_23\n      0x04\n      dup1\n      calldatasize\n      sub\n      dup2\n      add\n      swap1\n      tag_24\n      swap2\n      swap1\n      tag_25\n      jump\t// in\n    tag_24:\n      tag_26\n      jump\t// in\n    tag_23:\n      mload(0x40)\n      tag_27\n      swap2\n      swap1\n      tag_16\n      jump\t// in\n    tag_27:\n      mload(0x40)\n      dup1\n      swap2\n      sub\n      swap1\n      return\n        /* \"abstract/Ownable.sol\":2063:2295  function transferOwnership(address newOwner) public virtual onlyOwner {... */\n    tag_8:\n      tag_28\n      0x04\n      dup1\n      calldatasize\n      sub\n      dup2\n      add\n      swap1\n      tag_29\n      swap2\n      swap1\n      tag_30\n      jump\t// in\n    tag_29:\n      tag_31\n      jump\t// in\n    tag_28:\n      stop\n        /* \"controller/farmer/HarvesterController.sol\":771:1207  function getAllHarvester() public view returns (Harvester[] memory) {... */\n    tag_10:\n        /* \"controller/farmer/HarvesterController.sol\":819:837  Harvester[] memory */\n      0x60\n        /* \"controller/farmer/HarvesterController.sol\":849:872  Harvester[] memory list */\n      0x00\n        /* \"controller/farmer/HarvesterController.sol\":904:929  _getListHarvesterCursor() */\n      tag_33\n        /* \"controller/farmer/HarvesterController.sol\":904:927  _getListHarvesterCursor */\n      tag_34\n        /* \"controller/farmer/HarvesterController.sol\":904:929  _getListHarvesterCursor() */\n      jump\t// in\n    tag_33:\n        /* \"controller/farmer/HarvesterController.sol\":904:939  _getListHarvesterCursor().getLength */\n      0xffffffffffffffffffffffffffffffffffffffff\n      and\n      0xfd82e9dd\n        /* \"constant/SecretKey.sol\":232:298  0x8e1604a838d0f1a9b2cda14a099e4ceb08e966cc6e05e8296f67b02d61a79f09 */\n      0x8e1604a838d0f1a9b2cda14a099e4ceb08e966cc6e05e8296f67b02d61a79f09\n        /* \"controller/farmer/HarvesterController.sol\":940:952  DATABASE_KEY */\n      0x00\n      shl\n        /* \"controller/farmer/HarvesterController.sol\":904:953  _getListHarvesterCursor().getLength(DATABASE_KEY) */\n      mload(0x40)\n      dup3\n      0xffffffff\n      and\n      0xe0\n      shl\n      dup2\n      mstore\n      0x04\n      add\n      tag_35\n      swap2\n      swap1\n      tag_36\n      jump\t// in\n    tag_35:\n      0x20\n      mload(0x40)\n      dup1\n      dup4\n      sub\n      dup2\n      dup7\n      gas\n      staticcall\n      iszero\n      dup1\n      iszero\n      tag_38\n      jumpi\n      returndatasize\n      0x00\n      dup1\n      returndatacopy\n      revert(0x00, returndatasize)\n    tag_38:\n      pop\n      pop\n      pop\n      pop\n      mload(0x40)\n      returndatasize\n      not(0x1f)\n      0x1f\n      dup3\n      add\n      and\n      dup3\n      add\n      dup1\n      0x40\n      mstore\n      pop\n      dup2\n      add\n      swap1\n      tag_39\n      swap2\n      swap1\n      tag_40\n      jump\t// in\n    tag_39:\n        /* \"controller/farmer/HarvesterController.sol\":875:963  new Harvester[](... */\n      0xffffffffffffffff\n      dup2\n      gt\n      iszero\n      tag_41\n      jumpi\n      tag_42\n      tag_43\n      jump\t// in\n    tag_42:\n    tag_41:\n      mload(0x40)\n      swap1\n      dup1\n      dup3\n      mstore\n      dup1\n      0x20\n      mul\n      0x20\n      add\n      dup3\n      add\n      0x40\n      mstore\n      dup1\n      iszero\n      tag_44\n      jumpi\n      dup2\n      0x20\n      add\n    tag_45:\n      tag_46\n      tag_47\n      jump\t// in\n    tag_46:\n      dup2\n      mstore\n      0x20\n      add\n      swap1\n      0x01\n      swap1\n      sub\n      swap1\n      dup2\n      tag_45\n      jumpi\n      swap1\n      pop\n    tag_44:\n      pop\n        /* \"controller/farmer/HarvesterController.sol\":849:963  Harvester[] memory list = new Harvester[](... */\n      swap1\n      pop\n        /* \"controller/farmer/HarvesterController.sol\":991:1000  uint256 i */\n      0x00\n        /* \"controller/farmer/HarvesterController.sol\":1003:1004  1 */\n      0x01\n        /* \"controller/farmer/HarvesterController.sol\":991:1004  uint256 i = 1 */\n      swap1\n      pop\n        /* \"controller/farmer/HarvesterController.sol\":973:1180  for (... */\n    tag_48:\n        /* \"controller/farmer/HarvesterController.sol\":1023:1048  _getListHarvesterCursor() */\n      tag_51\n        /* \"controller/farmer/HarvesterController.sol\":1023:1046  _getListHarvesterCursor */\n      tag_34\n        /* \"controller/farmer/HarvesterController.sol\":1023:1048  _getListHarvesterCursor() */\n      jump\t// in\n    tag_51:\n        /* \"controller/farmer/HarvesterController.sol\":1023:1058  _getListHarvesterCursor().getLength */\n      0xffffffffffffffffffffffffffffffffffffffff\n      and\n      0xfd82e9dd\n        /* \"constant/SecretKey.sol\":232:298  0x8e1604a838d0f1a9b2cda14a099e4ceb08e966cc6e05e8296f67b02d61a79f09 */\n      0x8e1604a838d0f1a9b2cda14a099e4ceb08e966cc6e05e8296f67b02d61a79f09\n        /* \"controller/farmer/HarvesterController.sol\":1059:1071  DATABASE_KEY */\n      0x00\n      shl\n        /* \"controller/farmer/HarvesterController.sol\":1023:1072  _getListHarvesterCursor().getLength(DATABASE_KEY) */\n      mload(0x40)\n      dup3\n      0xffffffff\n      and\n      0xe0\n      shl\n      dup2\n      mstore\n      0x04\n      add\n      tag_52\n      swap2\n      swap1\n      tag_36\n      jump\t// in\n    tag_52:\n      0x20\n      mload(0x40)\n      dup1\n      dup4\n      sub\n      dup2\n      dup7\n      gas\n      staticcall\n      iszero\n      dup1\n      iszero\n      tag_54\n      jumpi\n      returndatasize\n      0x00\n      dup1\n      returndatacopy\n      revert(0x00, returndatasize)\n    tag_54:\n      pop\n      pop\n      pop\n      pop\n      mload(0x40)\n      returndatasize\n      not(0x1f)\n      0x1f\n      dup3\n      add\n      and\n      dup3\n      add\n      dup1\n      0x40\n      mstore\n      pop\n      dup2\n      add\n      swap1\n      tag_55\n      swap2\n      swap1\n      tag_40\n      jump\t// in\n    tag_55:\n        /* \"controller/farmer/HarvesterController.sol\":1018:1019  i */\n      dup2\n        /* \"controller/farmer/HarvesterController.sol\":1018:1072  i <= _getListHarvesterCursor().getLength(DATABASE_KEY) */\n      gt\n        /* \"controller/farmer/HarvesterController.sol\":973:1180  for (... */\n      tag_49\n      jumpi\n        /* \"controller/farmer/HarvesterController.sol\":1124:1149  _getListHarvesterCursor() */\n      tag_56\n        /* \"controller/farmer/HarvesterController.sol\":1124:1147  _getListHarvesterCursor */\n      tag_34\n        /* \"controller/farmer/HarvesterController.sol\":1124:1149  _getListHarvesterCursor() */\n      jump\t// in\n    tag_56:\n        /* \"controller/farmer/HarvesterController.sol\":1124:1152  _getListHarvesterCursor().at */\n      0xffffffffffffffffffffffffffffffffffffffff\n      and\n      0xc78a6741\n        /* \"controller/farmer/HarvesterController.sol\":1153:1154  i */\n      dup3\n        /* \"constant/SecretKey.sol\":232:298  0x8e1604a838d0f1a9b2cda14a099e4ceb08e966cc6e05e8296f67b02d61a79f09 */\n      0x8e1604a838d0f1a9b2cda14a099e4ceb08e966cc6e05e8296f67b02d61a79f09\n        /* \"controller/farmer/HarvesterController.sol\":1156:1168  DATABASE_KEY */\n      0x00\n      shl\n        /* \"controller/farmer/HarvesterController.sol\":1124:1169  _getListHarvesterCursor().at(i, DATABASE_KEY) */\n      mload(0x40)\n      dup4\n      0xffffffff\n      and\n      0xe0\n      shl\n      dup2\n      mstore\n      0x04\n      add\n      tag_57\n      swap3\n      swap2\n      swap1\n      tag_58\n      jump\t// in\n    tag_57:\n      0x60\n      mload(0x40)\n      dup1\n      dup4\n      sub\n      dup2\n      dup7\n      gas\n      staticcall\n      iszero\n      dup1\n      iszero\n      tag_60\n      jumpi\n      returndatasize\n      0x00\n      dup1\n      returndatacopy\n      revert(0x00, returndatasize)\n    tag_60:\n      pop\n      pop\n      pop\n      pop\n      mload(0x40)\n      returndatasize\n      not(0x1f)\n      0x1f\n      dup3\n      add\n      and\n      dup3\n      add\n      dup1\n      0x40\n      mstore\n      pop\n      dup2\n      add\n      swap1\n      tag_61\n      swap2\n      swap1\n      tag_62\n      jump\t// in\n    tag_61:\n        /* \"controller/farmer/HarvesterController.sol\":1114:1118  list */\n      dup3\n        /* \"controller/farmer/HarvesterController.sol\":1119:1120  i */\n      dup3\n        /* \"controller/farmer/HarvesterController.sol\":1114:1121  list[i] */\n      dup2\n      mload\n      dup2\n      lt\n      tag_63\n      jumpi\n      tag_64\n      tag_65\n      jump\t// in\n    tag_64:\n    tag_63:\n      0x20\n      mul\n      0x20\n      add\n      add\n        /* \"controller/farmer/HarvesterController.sol\":1114:1169  list[i] = _getListHarvesterCursor().at(i, DATABASE_KEY) */\n      dup2\n      swap1\n      mstore\n      pop\n        /* \"controller/farmer/HarvesterController.sol\":1086:1089  i++ */\n      dup1\n      dup1\n      tag_66\n      swap1\n      tag_67\n      jump\t// in\n    tag_66:\n      swap2\n      pop\n      pop\n        /* \"controller/farmer/HarvesterController.sol\":973:1180  for (... */\n      jump(tag_48)\n    tag_49:\n      pop\n        /* \"controller/farmer/HarvesterController.sol\":1196:1200  list */\n      dup1\n        /* \"controller/farmer/HarvesterController.sol\":1189:1200  return list */\n      swap2\n      pop\n      pop\n        /* \"controller/farmer/HarvesterController.sol\":771:1207  function getAllHarvester() public view returns (Harvester[] memory) {... */\n      swap1\n      jump\t// out\n        /* \"cursor/farmer/ListHarvesterCursor.sol\":1462:1717  function _checkExistHarvesterAccount() public view returns (bool) {... */\n    tag_14:\n        /* \"cursor/farmer/ListHarvesterCursor.sol\":1522:1526  bool */\n      0x00\n        /* \"cursor/farmer/ListHarvesterCursor.sol\":1538:1548  uint256 id */\n      dup1\n        /* \"cursor/farmer/ListHarvesterCursor.sol\":1551:1570  listHarvesterCursor */\n      0x01\n      0x00\n      swap1\n      sload\n      swap1\n      0x0100\n      exp\n      swap1\n      div\n      0xffffffffffffffffffffffffffffffffffffffff\n      and\n        /* \"cursor/farmer/ListHarvesterCursor.sol\":1551:1595  listHarvesterCursor.findHarvesterIdByAddress */\n      0xffffffffffffffffffffffffffffffffffffffff\n      and\n      0x56ee78b5\n        /* \"cursor/farmer/ListHarvesterCursor.sol\":1609:1619  msg.sender */\n      caller\n        /* \"constant/SecretKey.sol\":232:298  0x8e1604a838d0f1a9b2cda14a099e4ceb08e966cc6e05e8296f67b02d61a79f09 */\n      0x8e1604a838d0f1a9b2cda14a099e4ceb08e966cc6e05e8296f67b02d61a79f09\n        /* \"cursor/farmer/ListHarvesterCursor.sol\":1633:1645  DATABASE_KEY */\n      0x00\n      shl\n        /* \"cursor/farmer/ListHarvesterCursor.sol\":1551:1655  listHarvesterCursor.findHarvesterIdByAddress(... */\n      mload(0x40)\n      dup4\n      0xffffffff\n      and\n      0xe0\n      shl\n      dup2\n      mstore\n      0x04\n      add\n      tag_69\n      swap3\n      swap2\n      swap1\n      tag_70\n      jump\t// in\n    tag_69:\n      0x20\n      mload(0x40)\n      dup1\n      dup4\n      sub\n      dup2\n      dup7\n      gas\n      staticcall\n      iszero\n      dup1\n      iszero\n      tag_72\n      jumpi\n      returndatasize\n      0x00\n      dup1\n      returndatacopy\n      revert(0x00, returndatasize)\n    tag_72:\n      pop\n      pop\n      pop\n      pop\n      mload(0x40)\n      returndatasize\n      not(0x1f)\n      0x1f\n      dup3\n      add\n      and\n      dup3\n      add\n      dup1\n      0x40\n      mstore\n      pop\n      dup2\n      add\n      swap1\n      tag_73\n      swap2\n      swap1\n      tag_40\n      jump\t// in\n    tag_73:\n        /* \"cursor/farmer/ListHarvesterCursor.sol\":1538:1655  uint256 id = listHarvesterCursor.findHarvesterIdByAddress(... */\n      swap1\n      pop\n        /* \"cursor/farmer/ListHarvesterCursor.sol\":1674:1675  0 */\n      0x00\n        /* \"cursor/farmer/ListHarvesterCursor.sol\":1669:1671  id */\n      dup2\n        /* \"cursor/farmer/ListHarvesterCursor.sol\":1669:1675  id > 0 */\n      gt\n        /* \"cursor/farmer/ListHarvesterCursor.sol\":1665:1688  if (id > 0) return true */\n      iszero\n      tag_74\n      jumpi\n        /* \"cursor/farmer/ListHarvesterCursor.sol\":1684:1688  true */\n      0x01\n        /* \"cursor/farmer/ListHarvesterCursor.sol\":1677:1688  return true */\n      swap2\n      pop\n      pop\n      jump(tag_68)\n        /* \"cursor/farmer/ListHarvesterCursor.sol\":1665:1688  if (id > 0) return true */\n    tag_74:\n        /* \"cursor/farmer/ListHarvesterCursor.sol\":1705:1710  false */\n      0x00\n        /* \"cursor/farmer/ListHarvesterCursor.sol\":1698:1710  return false */\n      swap2\n      pop\n      pop\n        /* \"cursor/farmer/ListHarvesterCursor.sol\":1462:1717  function _checkExistHarvesterAccount() public view returns (bool) {... */\n    tag_68:\n      swap1\n      jump\t// out\n        /* \"abstract/Ownable.sol\":2642:2731  function destroy() public onlyOwner {... */\n    tag_18:\n        /* \"abstract/Ownable.sol\":1068:1081  _checkOwner() */\n      tag_76\n        /* \"abstract/Ownable.sol\":1068:1079  _checkOwner */\n      tag_77\n        /* \"abstract/Ownable.sol\":1068:1081  _checkOwner() */\n      jump\t// in\n    tag_76:\n        /* \"abstract/Ownable.sol\":2717:2721  this */\n      address\n        /* \"abstract/Ownable.sol\":2688:2724  selfdestruct(payable(address(this))) */\n      0xffffffffffffffffffffffffffffffffffffffff\n      and\n      selfdestruct\n        /* \"abstract/Ownable.sol\":1175:1260  function owner() public view virtual returns (address) {... */\n    tag_20:\n        /* \"abstract/Ownable.sol\":1221:1228  address */\n      0x00\n        /* \"abstract/Ownable.sol\":1247:1253  _owner */\n      dup1\n      0x00\n      swap1\n      sload\n      swap1\n      0x0100\n      exp\n      swap1\n      div\n      0xffffffffffffffffffffffffffffffffffffffff\n      and\n        /* \"abstract/Ownable.sol\":1240:1253  return _owner */\n      swap1\n      pop\n        /* \"abstract/Ownable.sol\":1175:1260  function owner() public view virtual returns (address) {... */\n      swap1\n      jump\t// out\n        /* \"controller/farmer/HarvesterController.sol\":509:765  function addHarvester(uint256 category)... */\n    tag_26:\n        /* \"controller/farmer/HarvesterController.sol\":614:618  bool */\n      0x00\n        /* \"cursor/farmer/ListHarvesterCursor.sol\":1339:1368  _checkExistHarvesterAccount() */\n      tag_81\n        /* \"cursor/farmer/ListHarvesterCursor.sol\":1339:1366  _checkExistHarvesterAccount */\n      tag_14\n        /* \"cursor/farmer/ListHarvesterCursor.sol\":1339:1368  _checkExistHarvesterAccount() */\n      jump\t// in\n    tag_81:\n        /* \"cursor/farmer/ListHarvesterCursor.sol\":1338:1368  !_checkExistHarvesterAccount() */\n      iszero\n        /* \"cursor/farmer/ListHarvesterCursor.sol\":1317:1438  require(... */\n      tag_82\n      jumpi\n      mload(0x40)\n      0x08c379a000000000000000000000000000000000000000000000000000000000\n      dup2\n      mstore\n      0x04\n      add\n      tag_83\n      swap1\n      tag_84\n      jump\t// in\n    tag_83:\n      mload(0x40)\n      dup1\n      swap2\n      sub\n      swap1\n      revert\n    tag_82:\n        /* \"controller/farmer/HarvesterController.sol\":634:655  Harvester memory item */\n      0x00\n        /* \"controller/farmer/HarvesterController.sol\":658:692  Harvester(0, msg.sender, category) */\n      mload(0x40)\n      dup1\n      0x60\n      add\n      0x40\n      mstore\n      dup1\n        /* \"controller/farmer/HarvesterController.sol\":668:669  0 */\n      0x00\n        /* \"controller/farmer/HarvesterController.sol\":658:692  Harvester(0, msg.sender, category) */\n      dup2\n      mstore\n      0x20\n      add\n        /* \"controller/farmer/HarvesterController.sol\":671:681  msg.sender */\n      caller\n        /* \"controller/farmer/HarvesterController.sol\":658:692  Harvester(0, msg.sender, category) */\n      0xffffffffffffffffffffffffffffffffffffffff\n      and\n      dup2\n      mstore\n      0x20\n      add\n        /* \"controller/farmer/HarvesterController.sol\":683:691  category */\n      dup5\n        /* \"controller/farmer/HarvesterController.sol\":658:692  Harvester(0, msg.sender, category) */\n      dup2\n      mstore\n      pop\n        /* \"controller/farmer/HarvesterController.sol\":634:692  Harvester memory item = Harvester(0, msg.sender, category) */\n      swap1\n      pop\n        /* \"controller/farmer/HarvesterController.sol\":709:734  _getListHarvesterCursor() */\n      tag_86\n        /* \"controller/farmer/HarvesterController.sol\":709:732  _getListHarvesterCursor */\n      tag_34\n        /* \"controller/farmer/HarvesterController.sol\":709:734  _getListHarvesterCursor() */\n      jump\t// in\n    tag_86:\n        /* \"controller/farmer/HarvesterController.sol\":709:738  _getListHarvesterCursor().add */\n      0xffffffffffffffffffffffffffffffffffffffff\n      and\n      0x3ce17585\n        /* \"controller/farmer/HarvesterController.sol\":739:743  item */\n      dup3\n        /* \"constant/SecretKey.sol\":232:298  0x8e1604a838d0f1a9b2cda14a099e4ceb08e966cc6e05e8296f67b02d61a79f09 */\n      0x8e1604a838d0f1a9b2cda14a099e4ceb08e966cc6e05e8296f67b02d61a79f09\n        /* \"controller/farmer/HarvesterController.sol\":745:757  DATABASE_KEY */\n      0x00\n      shl\n        /* \"controller/farmer/HarvesterController.sol\":709:758  _getListHarvesterCursor().add(item, DATABASE_KEY) */\n      mload(0x40)\n      dup4\n      0xffffffff\n      and\n      0xe0\n      shl\n      dup2\n      mstore\n      0x04\n      add\n      tag_87\n      swap3\n      swap2\n      swap1\n      tag_88\n      jump\t// in\n    tag_87:\n      0x20\n      mload(0x40)\n      dup1\n      dup4\n      sub\n      dup2\n      0x00\n      dup8\n      gas\n      call\n      iszero\n      dup1\n      iszero\n      tag_90\n      jumpi\n      returndatasize\n      0x00\n      dup1\n      returndatacopy\n      revert(0x00, returndatasize)\n    tag_90:\n      pop\n      pop\n      pop\n      pop\n      mload(0x40)\n      returndatasize\n      not(0x1f)\n      0x1f\n      dup3\n      add\n      and\n      dup3\n      add\n      dup1\n      0x40\n      mstore\n      pop\n      dup2\n      add\n      swap1\n      tag_91\n      swap2\n      swap1\n      tag_92\n      jump\t// in\n    tag_91:\n        /* \"controller/farmer/HarvesterController.sol\":702:758  return _getListHarvesterCursor().add(item, DATABASE_KEY) */\n      swap2\n      pop\n      pop\n        /* \"controller/farmer/HarvesterController.sol\":509:765  function addHarvester(uint256 category)... */\n      swap2\n      swap1\n      pop\n      jump\t// out\n        /* \"abstract/Ownable.sol\":2063:2295  function transferOwnership(address newOwner) public virtual onlyOwner {... */\n    tag_31:\n        /* \"abstract/Ownable.sol\":1068:1081  _checkOwner() */\n      tag_94\n        /* \"abstract/Ownable.sol\":1068:1079  _checkOwner */\n      tag_77\n        /* \"abstract/Ownable.sol\":1068:1081  _checkOwner() */\n      jump\t// in\n    tag_94:\n        /* \"abstract/Ownable.sol\":2184:2185  0 */\n      0x00\n        /* \"abstract/Ownable.sol\":2164:2186  newOwner != address(0) */\n      0xffffffffffffffffffffffffffffffffffffffff\n      and\n        /* \"abstract/Ownable.sol\":2164:2172  newOwner */\n      dup2\n        /* \"abstract/Ownable.sol\":2164:2186  newOwner != address(0) */\n      0xffffffffffffffffffffffffffffffffffffffff\n      and\n      sub\n        /* \"abstract/Ownable.sol\":2143:2250  require(... */\n      tag_96\n      jumpi\n      mload(0x40)\n      0x08c379a000000000000000000000000000000000000000000000000000000000\n      dup2\n      mstore\n      0x04\n      add\n      tag_97\n      swap1\n      tag_98\n      jump\t// in\n    tag_97:\n      mload(0x40)\n      dup1\n      swap2\n      sub\n      swap1\n      revert\n    tag_96:\n        /* \"abstract/Ownable.sol\":2260:2288  _transferOwnership(newOwner) */\n      tag_99\n        /* \"abstract/Ownable.sol\":2279:2287  newOwner */\n      dup2\n        /* \"abstract/Ownable.sol\":2260:2278  _transferOwnership */\n      tag_100\n        /* \"abstract/Ownable.sol\":2260:2288  _transferOwnership(newOwner) */\n      jump\t// in\n    tag_99:\n        /* \"abstract/Ownable.sol\":2063:2295  function transferOwnership(address newOwner) public virtual onlyOwner {... */\n      pop\n      jump\t// out\n        /* \"cursor/farmer/ListHarvesterCursor.sol\":2183:2299  function _getListHarvesterCursor() internal view returns (ListHarvester) {... */\n    tag_34:\n        /* \"cursor/farmer/ListHarvesterCursor.sol\":2241:2254  ListHarvester */\n      0x00\n        /* \"cursor/farmer/ListHarvesterCursor.sol\":2273:2292  listHarvesterCursor */\n      0x01\n      0x00\n      swap1\n      sload\n      swap1\n      0x0100\n      exp\n      swap1\n      div\n      0xffffffffffffffffffffffffffffffffffffffff\n      and\n        /* \"cursor/farmer/ListHarvesterCursor.sol\":2266:2292  return listHarvesterCursor */\n      swap1\n      pop\n        /* \"cursor/farmer/ListHarvesterCursor.sol\":2183:2299  function _getListHarvesterCursor() internal view returns (ListHarvester) {... */\n      swap1\n      jump\t// out\n        /* \"abstract/Ownable.sol\":1333:1461  function _checkOwner() internal view virtual {... */\n    tag_77:\n        /* \"abstract/Ownable.sol\":1407:1417  msg.sender */\n      caller\n        /* \"abstract/Ownable.sol\":1396:1417  owner() == msg.sender */\n      0xffffffffffffffffffffffffffffffffffffffff\n      and\n        /* \"abstract/Ownable.sol\":1396:1403  owner() */\n      tag_103\n        /* \"abstract/Ownable.sol\":1396:1401  owner */\n      tag_20\n        /* \"abstract/Ownable.sol\":1396:1403  owner() */\n      jump\t// in\n    tag_103:\n        /* \"abstract/Ownable.sol\":1396:1417  owner() == msg.sender */\n      0xffffffffffffffffffffffffffffffffffffffff\n      and\n      eq\n        /* \"abstract/Ownable.sol\":1388:1454  require(owner() == msg.sender, \"Ownable: caller is not the owner\") */\n      tag_104\n      jumpi\n      mload(0x40)\n      0x08c379a000000000000000000000000000000000000000000000000000000000\n      dup2\n      mstore\n      0x04\n      add\n      tag_105\n      swap1\n      tag_106\n      jump\t// in\n    tag_105:\n      mload(0x40)\n      dup1\n      swap2\n      sub\n      swap1\n      revert\n    tag_104:\n        /* \"abstract/Ownable.sol\":1333:1461  function _checkOwner() internal view virtual {... */\n      jump\t// out\n        /* \"abstract/Ownable.sol\":2449:2636  function _transferOwnership(address newOwner) internal virtual {... */\n    tag_100:\n        /* \"abstract/Ownable.sol\":2522:2538  address oldOwner */\n      0x00\n        /* \"abstract/Ownable.sol\":2541:2547  _owner */\n      dup1\n      0x00\n      swap1\n      sload\n      swap1\n      0x0100\n      exp\n      swap1\n      div\n      0xffffffffffffffffffffffffffffffffffffffff\n      and\n        /* \"abstract/Ownable.sol\":2522:2547  address oldOwner = _owner */\n      swap1\n      pop\n        /* \"abstract/Ownable.sol\":2566:2574  newOwner */\n      dup2\n        /* \"abstract/Ownable.sol\":2557:2563  _owner */\n      0x00\n      dup1\n        /* \"abstract/Ownable.sol\":2557:2574  _owner = newOwner */\n      0x0100\n      exp\n      dup2\n      sload\n      dup2\n      0xffffffffffffffffffffffffffffffffffffffff\n      mul\n      not\n      and\n      swap1\n      dup4\n      0xffffffffffffffffffffffffffffffffffffffff\n      and\n      mul\n      or\n      swap1\n      sstore\n      pop\n        /* \"abstract/Ownable.sol\":2620:2628  newOwner */\n      dup2\n        /* \"abstract/Ownable.sol\":2589:2629  OwnershipTransferred(oldOwner, newOwner) */\n      0xffffffffffffffffffffffffffffffffffffffff\n      and\n        /* \"abstract/Ownable.sol\":2610:2618  oldOwner */\n      dup2\n        /* \"abstract/Ownable.sol\":2589:2629  OwnershipTransferred(oldOwner, newOwner) */\n      0xffffffffffffffffffffffffffffffffffffffff\n      and\n      0x8be0079c531659141344cd1fd0a4f28419497f9722a3daafe3b4186f6b6457e0\n      mload(0x40)\n      mload(0x40)\n      dup1\n      swap2\n      sub\n      swap1\n      log3\n        /* \"abstract/Ownable.sol\":2512:2636  {... */\n      pop\n        /* \"abstract/Ownable.sol\":2449:2636  function _transferOwnership(address newOwner) internal virtual {... */\n      pop\n      jump\t// out\n    tag_47:\n      mload(0x40)\n      dup1\n      0x60\n      add\n      0x40\n      mstore\n      dup1\n      0x00\n      dup2\n      mstore\n      0x20\n      add\n      and(0xffffffffffffffffffffffffffffffffffffffff, 0x00)\n      dup2\n      mstore\n      0x20\n      add\n      0x00\n      dup2\n      mstore\n      pop\n      swap1\n      jump\t// out\n        /* \"#utility.yul\":7:147   */\n    tag_108:\n        /* \"#utility.yul\":100:106   */\n      0x00\n        /* \"#utility.yul\":134:139   */\n      dup2\n        /* \"#utility.yul\":128:140   */\n      mload\n        /* \"#utility.yul\":118:140   */\n      swap1\n      pop\n        /* \"#utility.yul\":7:147   */\n      swap2\n      swap1\n      pop\n      jump\t// out\n        /* \"#utility.yul\":153:363   */\n    tag_109:\n        /* \"#utility.yul\":278:289   */\n      0x00\n        /* \"#utility.yul\":312:318   */\n      dup3\n        /* \"#utility.yul\":307:310   */\n      dup3\n        /* \"#utility.yul\":300:319   */\n      mstore\n        /* \"#utility.yul\":352:356   */\n      0x20\n        /* \"#utility.yul\":347:350   */\n      dup3\n        /* \"#utility.yul\":343:357   */\n      add\n        /* \"#utility.yul\":328:357   */\n      swap1\n      pop\n        /* \"#utility.yul\":153:363   */\n      swap3\n      swap2\n      pop\n      pop\n      jump\t// out\n        /* \"#utility.yul\":369:527   */\n    tag_110:\n        /* \"#utility.yul\":462:466   */\n      0x00\n        /* \"#utility.yul\":485:488   */\n      dup2\n        /* \"#utility.yul\":477:488   */\n      swap1\n      pop\n        /* \"#utility.yul\":515:519   */\n      0x20\n        /* \"#utility.yul\":510:513   */\n      dup3\n        /* \"#utility.yul\":506:520   */\n      add\n        /* \"#utility.yul\":498:520   */\n      swap1\n      pop\n        /* \"#utility.yul\":369:527   */\n      swap2\n      swap1\n      pop\n      jump\t// out\n        /* \"#utility.yul\":533:610   */\n    tag_111:\n        /* \"#utility.yul\":570:577   */\n      0x00\n        /* \"#utility.yul\":599:604   */\n      dup2\n        /* \"#utility.yul\":588:604   */\n      swap1\n      pop\n        /* \"#utility.yul\":533:610   */\n      swap2\n      swap1\n      pop\n      jump\t// out\n        /* \"#utility.yul\":616:724   */\n    tag_112:\n        /* \"#utility.yul\":693:717   */\n      tag_158\n        /* \"#utility.yul\":711:716   */\n      dup2\n        /* \"#utility.yul\":693:717   */\n      tag_111\n      jump\t// in\n    tag_158:\n        /* \"#utility.yul\":688:691   */\n      dup3\n        /* \"#utility.yul\":681:718   */\n      mstore\n        /* \"#utility.yul\":616:724   */\n      pop\n      pop\n      jump\t// out\n        /* \"#utility.yul\":730:856   */\n    tag_113:\n        /* \"#utility.yul\":767:774   */\n      0x00\n        /* \"#utility.yul\":807:849   */\n      0xffffffffffffffffffffffffffffffffffffffff\n        /* \"#utility.yul\":800:805   */\n      dup3\n        /* \"#utility.yul\":796:850   */\n      and\n        /* \"#utility.yul\":785:850   */\n      swap1\n      pop\n        /* \"#utility.yul\":730:856   */\n      swap2\n      swap1\n      pop\n      jump\t// out\n        /* \"#utility.yul\":862:958   */\n    tag_114:\n        /* \"#utility.yul\":899:906   */\n      0x00\n        /* \"#utility.yul\":928:952   */\n      tag_161\n        /* \"#utility.yul\":946:951   */\n      dup3\n        /* \"#utility.yul\":928:952   */\n      tag_113\n      jump\t// in\n    tag_161:\n        /* \"#utility.yul\":917:952   */\n      swap1\n      pop\n        /* \"#utility.yul\":862:958   */\n      swap2\n      swap1\n      pop\n      jump\t// out\n        /* \"#utility.yul\":964:1072   */\n    tag_115:\n        /* \"#utility.yul\":1041:1065   */\n      tag_163\n        /* \"#utility.yul\":1059:1064   */\n      dup2\n        /* \"#utility.yul\":1041:1065   */\n      tag_114\n      jump\t// in\n    tag_163:\n        /* \"#utility.yul\":1036:1039   */\n      dup3\n        /* \"#utility.yul\":1029:1066   */\n      mstore\n        /* \"#utility.yul\":964:1072   */\n      pop\n      pop\n      jump\t// out\n        /* \"#utility.yul\":1122:1818   */\n    tag_116:\n        /* \"#utility.yul\":1261:1265   */\n      0x60\n        /* \"#utility.yul\":1256:1259   */\n      dup3\n        /* \"#utility.yul\":1252:1266   */\n      add\n        /* \"#utility.yul\":1355:1359   */\n      0x00\n        /* \"#utility.yul\":1348:1353   */\n      dup3\n        /* \"#utility.yul\":1344:1360   */\n      add\n        /* \"#utility.yul\":1338:1361   */\n      mload\n        /* \"#utility.yul\":1374:1437   */\n      tag_165\n        /* \"#utility.yul\":1431:1435   */\n      0x00\n        /* \"#utility.yul\":1426:1429   */\n      dup6\n        /* \"#utility.yul\":1422:1436   */\n      add\n        /* \"#utility.yul\":1408:1420   */\n      dup3\n        /* \"#utility.yul\":1374:1437   */\n      tag_112\n      jump\t// in\n    tag_165:\n        /* \"#utility.yul\":1276:1447   */\n      pop\n        /* \"#utility.yul\":1541:1545   */\n      0x20\n        /* \"#utility.yul\":1534:1539   */\n      dup3\n        /* \"#utility.yul\":1530:1546   */\n      add\n        /* \"#utility.yul\":1524:1547   */\n      mload\n        /* \"#utility.yul\":1560:1623   */\n      tag_166\n        /* \"#utility.yul\":1617:1621   */\n      0x20\n        /* \"#utility.yul\":1612:1615   */\n      dup6\n        /* \"#utility.yul\":1608:1622   */\n      add\n        /* \"#utility.yul\":1594:1606   */\n      dup3\n        /* \"#utility.yul\":1560:1623   */\n      tag_115\n      jump\t// in\n    tag_166:\n        /* \"#utility.yul\":1457:1633   */\n      pop\n        /* \"#utility.yul\":1719:1723   */\n      0x40\n        /* \"#utility.yul\":1712:1717   */\n      dup3\n        /* \"#utility.yul\":1708:1724   */\n      add\n        /* \"#utility.yul\":1702:1725   */\n      mload\n        /* \"#utility.yul\":1738:1801   */\n      tag_167\n        /* \"#utility.yul\":1795:1799   */\n      0x40\n        /* \"#utility.yul\":1790:1793   */\n      dup6\n        /* \"#utility.yul\":1786:1800   */\n      add\n        /* \"#utility.yul\":1772:1784   */\n      dup3\n        /* \"#utility.yul\":1738:1801   */\n      tag_112\n      jump\t// in\n    tag_167:\n        /* \"#utility.yul\":1643:1811   */\n      pop\n        /* \"#utility.yul\":1230:1818   */\n      pop\n        /* \"#utility.yul\":1122:1818   */\n      pop\n      pop\n      jump\t// out\n        /* \"#utility.yul\":1824:2107   */\n    tag_117:\n        /* \"#utility.yul\":1945:1955   */\n      0x00\n        /* \"#utility.yul\":1966:2064   */\n      tag_169\n        /* \"#utility.yul\":2060:2063   */\n      dup4\n        /* \"#utility.yul\":2052:2058   */\n      dup4\n        /* \"#utility.yul\":1966:2064   */\n      tag_116\n      jump\t// in\n    tag_169:\n        /* \"#utility.yul\":2096:2100   */\n      0x60\n        /* \"#utility.yul\":2091:2094   */\n      dup4\n        /* \"#utility.yul\":2087:2101   */\n      add\n        /* \"#utility.yul\":2073:2101   */\n      swap1\n      pop\n        /* \"#utility.yul\":1824:2107   */\n      swap3\n      swap2\n      pop\n      pop\n      jump\t// out\n        /* \"#utility.yul\":2113:2252   */\n    tag_118:\n        /* \"#utility.yul\":2209:2213   */\n      0x00\n        /* \"#utility.yul\":2241:2245   */\n      0x20\n        /* \"#utility.yul\":2236:2239   */\n      dup3\n        /* \"#utility.yul\":2232:2246   */\n      add\n        /* \"#utility.yul\":2224:2246   */\n      swap1\n      pop\n        /* \"#utility.yul\":2113:2252   */\n      swap2\n      swap1\n      pop\n      jump\t// out\n        /* \"#utility.yul\":2306:3246   */\n    tag_119:\n        /* \"#utility.yul\":2477:2480   */\n      0x00\n        /* \"#utility.yul\":2506:2586   */\n      tag_172\n        /* \"#utility.yul\":2580:2585   */\n      dup3\n        /* \"#utility.yul\":2506:2586   */\n      tag_108\n      jump\t// in\n    tag_172:\n        /* \"#utility.yul\":2602:2714   */\n      tag_173\n        /* \"#utility.yul\":2707:2713   */\n      dup2\n        /* \"#utility.yul\":2702:2705   */\n      dup6\n        /* \"#utility.yul\":2602:2714   */\n      tag_109\n      jump\t// in\n    tag_173:\n        /* \"#utility.yul\":2595:2714   */\n      swap4\n      pop\n        /* \"#utility.yul\":2738:2820   */\n      tag_174\n        /* \"#utility.yul\":2814:2819   */\n      dup4\n        /* \"#utility.yul\":2738:2820   */\n      tag_110\n      jump\t// in\n    tag_174:\n        /* \"#utility.yul\":2843:2850   */\n      dup1\n        /* \"#utility.yul\":2874:2875   */\n      0x00\n        /* \"#utility.yul\":2859:3221   */\n    tag_175:\n        /* \"#utility.yul\":2884:2890   */\n      dup4\n        /* \"#utility.yul\":2881:2882   */\n      dup2\n        /* \"#utility.yul\":2878:2891   */\n      lt\n        /* \"#utility.yul\":2859:3221   */\n      iszero\n      tag_177\n      jumpi\n        /* \"#utility.yul\":2960:2966   */\n      dup2\n        /* \"#utility.yul\":2954:2967   */\n      mload\n        /* \"#utility.yul\":2987:3102   */\n      tag_178\n        /* \"#utility.yul\":3098:3101   */\n      dup9\n        /* \"#utility.yul\":3083:3096   */\n      dup3\n        /* \"#utility.yul\":2987:3102   */\n      tag_117\n      jump\t// in\n    tag_178:\n        /* \"#utility.yul\":2980:3102   */\n      swap8\n      pop\n        /* \"#utility.yul\":3125:3211   */\n      tag_179\n        /* \"#utility.yul\":3204:3210   */\n      dup4\n        /* \"#utility.yul\":3125:3211   */\n      tag_118\n      jump\t// in\n    tag_179:\n        /* \"#utility.yul\":3115:3211   */\n      swap3\n      pop\n        /* \"#utility.yul\":2919:3221   */\n      pop\n        /* \"#utility.yul\":2906:2907   */\n      0x01\n        /* \"#utility.yul\":2903:2904   */\n      dup2\n        /* \"#utility.yul\":2899:2908   */\n      add\n        /* \"#utility.yul\":2894:2908   */\n      swap1\n      pop\n        /* \"#utility.yul\":2859:3221   */\n      jump(tag_175)\n    tag_177:\n        /* \"#utility.yul\":2863:2877   */\n      pop\n        /* \"#utility.yul\":3237:3240   */\n      dup6\n        /* \"#utility.yul\":3230:3240   */\n      swap4\n      pop\n        /* \"#utility.yul\":2482:3246   */\n      pop\n      pop\n      pop\n        /* \"#utility.yul\":2306:3246   */\n      swap3\n      swap2\n      pop\n      pop\n      jump\t// out\n        /* \"#utility.yul\":3252:3729   */\n    tag_12:\n        /* \"#utility.yul\":3447:3451   */\n      0x00\n        /* \"#utility.yul\":3485:3487   */\n      0x20\n        /* \"#utility.yul\":3474:3483   */\n      dup3\n        /* \"#utility.yul\":3470:3488   */\n      add\n        /* \"#utility.yul\":3462:3488   */\n      swap1\n      pop\n        /* \"#utility.yul\":3534:3543   */\n      dup2\n        /* \"#utility.yul\":3528:3532   */\n      dup2\n        /* \"#utility.yul\":3524:3544   */\n      sub\n        /* \"#utility.yul\":3520:3521   */\n      0x00\n        /* \"#utility.yul\":3509:3518   */\n      dup4\n        /* \"#utility.yul\":3505:3522   */\n      add\n        /* \"#utility.yul\":3498:3545   */\n      mstore\n        /* \"#utility.yul\":3562:3722   */\n      tag_181\n        /* \"#utility.yul\":3717:3721   */\n      dup2\n        /* \"#utility.yul\":3708:3714   */\n      dup5\n        /* \"#utility.yul\":3562:3722   */\n      tag_119\n      jump\t// in\n    tag_181:\n        /* \"#utility.yul\":3554:3722   */\n      swap1\n      pop\n        /* \"#utility.yul\":3252:3729   */\n      swap3\n      swap2\n      pop\n      pop\n      jump\t// out\n        /* \"#utility.yul\":3735:3825   */\n    tag_120:\n        /* \"#utility.yul\":3769:3776   */\n      0x00\n        /* \"#utility.yul\":3812:3817   */\n      dup2\n        /* \"#utility.yul\":3805:3818   */\n      iszero\n        /* \"#utility.yul\":3798:3819   */\n      iszero\n        /* \"#utility.yul\":3787:3819   */\n      swap1\n      pop\n        /* \"#utility.yul\":3735:3825   */\n      swap2\n      swap1\n      pop\n      jump\t// out\n        /* \"#utility.yul\":3831:3940   */\n    tag_121:\n        /* \"#utility.yul\":3912:3933   */\n      tag_184\n        /* \"#utility.yul\":3927:3932   */\n      dup2\n        /* \"#utility.yul\":3912:3933   */\n      tag_120\n      jump\t// in\n    tag_184:\n        /* \"#utility.yul\":3907:3910   */\n      dup3\n        /* \"#utility.yul\":3900:3934   */\n      mstore\n        /* \"#utility.yul\":3831:3940   */\n      pop\n      pop\n      jump\t// out\n        /* \"#utility.yul\":3946:4156   */\n    tag_16:\n        /* \"#utility.yul\":4033:4037   */\n      0x00\n        /* \"#utility.yul\":4071:4073   */\n      0x20\n        /* \"#utility.yul\":4060:4069   */\n      dup3\n        /* \"#utility.yul\":4056:4074   */\n      add\n        /* \"#utility.yul\":4048:4074   */\n      swap1\n      pop\n        /* \"#utility.yul\":4084:4149   */\n      tag_186\n        /* \"#utility.yul\":4146:4147   */\n      0x00\n        /* \"#utility.yul\":4135:4144   */\n      dup4\n        /* \"#utility.yul\":4131:4148   */\n      add\n        /* \"#utility.yul\":4122:4128   */\n      dup5\n        /* \"#utility.yul\":4084:4149   */\n      tag_121\n      jump\t// in\n    tag_186:\n        /* \"#utility.yul\":3946:4156   */\n      swap3\n      swap2\n      pop\n      pop\n      jump\t// out\n        /* \"#utility.yul\":4162:4280   */\n    tag_122:\n        /* \"#utility.yul\":4249:4273   */\n      tag_188\n        /* \"#utility.yul\":4267:4272   */\n      dup2\n        /* \"#utility.yul\":4249:4273   */\n      tag_114\n      jump\t// in\n    tag_188:\n        /* \"#utility.yul\":4244:4247   */\n      dup3\n        /* \"#utility.yul\":4237:4274   */\n      mstore\n        /* \"#utility.yul\":4162:4280   */\n      pop\n      pop\n      jump\t// out\n        /* \"#utility.yul\":4286:4508   */\n    tag_22:\n        /* \"#utility.yul\":4379:4383   */\n      0x00\n        /* \"#utility.yul\":4417:4419   */\n      0x20\n        /* \"#utility.yul\":4406:4415   */\n      dup3\n        /* \"#utility.yul\":4402:4420   */\n      add\n        /* \"#utility.yul\":4394:4420   */\n      swap1\n      pop\n        /* \"#utility.yul\":4430:4501   */\n      tag_190\n        /* \"#utility.yul\":4498:4499   */\n      0x00\n        /* \"#utility.yul\":4487:4496   */\n      dup4\n        /* \"#utility.yul\":4483:4500   */\n      add\n        /* \"#utility.yul\":4474:4480   */\n      dup5\n        /* \"#utility.yul\":4430:4501   */\n      tag_122\n      jump\t// in\n    tag_190:\n        /* \"#utility.yul\":4286:4508   */\n      swap3\n      swap2\n      pop\n      pop\n      jump\t// out\n        /* \"#utility.yul\":4514:4589   */\n    tag_123:\n        /* \"#utility.yul\":4547:4553   */\n      0x00\n        /* \"#utility.yul\":4580:4582   */\n      0x40\n        /* \"#utility.yul\":4574:4583   */\n      mload\n        /* \"#utility.yul\":4564:4583   */\n      swap1\n      pop\n        /* \"#utility.yul\":4514:4589   */\n      swap1\n      jump\t// out\n        /* \"#utility.yul\":4595:4712   */\n    tag_124:\n        /* \"#utility.yul\":4704:4705   */\n      0x00\n        /* \"#utility.yul\":4701:4702   */\n      dup1\n        /* \"#utility.yul\":4694:4706   */\n      revert\n        /* \"#utility.yul\":4841:4963   */\n    tag_126:\n        /* \"#utility.yul\":4914:4938   */\n      tag_195\n        /* \"#utility.yul\":4932:4937   */\n      dup2\n        /* \"#utility.yul\":4914:4938   */\n      tag_111\n      jump\t// in\n    tag_195:\n        /* \"#utility.yul\":4907:4912   */\n      dup2\n        /* \"#utility.yul\":4904:4939   */\n      eq\n        /* \"#utility.yul\":4894:4957   */\n      tag_196\n      jumpi\n        /* \"#utility.yul\":4953:4954   */\n      0x00\n        /* \"#utility.yul\":4950:4951   */\n      dup1\n        /* \"#utility.yul\":4943:4955   */\n      revert\n        /* \"#utility.yul\":4894:4957   */\n    tag_196:\n        /* \"#utility.yul\":4841:4963   */\n      pop\n      jump\t// out\n        /* \"#utility.yul\":4969:5108   */\n    tag_127:\n        /* \"#utility.yul\":5015:5020   */\n      0x00\n        /* \"#utility.yul\":5053:5059   */\n      dup2\n        /* \"#utility.yul\":5040:5060   */\n      calldataload\n        /* \"#utility.yul\":5031:5060   */\n      swap1\n      pop\n        /* \"#utility.yul\":5069:5102   */\n      tag_198\n        /* \"#utility.yul\":5096:5101   */\n      dup2\n        /* \"#utility.yul\":5069:5102   */\n      tag_126\n      jump\t// in\n    tag_198:\n        /* \"#utility.yul\":4969:5108   */\n      swap3\n      swap2\n      pop\n      pop\n      jump\t// out\n        /* \"#utility.yul\":5114:5443   */\n    tag_25:\n        /* \"#utility.yul\":5173:5179   */\n      0x00\n        /* \"#utility.yul\":5222:5224   */\n      0x20\n        /* \"#utility.yul\":5210:5219   */\n      dup3\n        /* \"#utility.yul\":5201:5208   */\n      dup5\n        /* \"#utility.yul\":5197:5220   */\n      sub\n        /* \"#utility.yul\":5193:5225   */\n      slt\n        /* \"#utility.yul\":5190:5309   */\n      iszero\n      tag_200\n      jumpi\n        /* \"#utility.yul\":5228:5307   */\n      tag_201\n      tag_124\n      jump\t// in\n    tag_201:\n        /* \"#utility.yul\":5190:5309   */\n    tag_200:\n        /* \"#utility.yul\":5348:5349   */\n      0x00\n        /* \"#utility.yul\":5373:5426   */\n      tag_202\n        /* \"#utility.yul\":5418:5425   */\n      dup5\n        /* \"#utility.yul\":5409:5415   */\n      dup3\n        /* \"#utility.yul\":5398:5407   */\n      dup6\n        /* \"#utility.yul\":5394:5416   */\n      add\n        /* \"#utility.yul\":5373:5426   */\n      tag_127\n      jump\t// in\n    tag_202:\n        /* \"#utility.yul\":5363:5426   */\n      swap2\n      pop\n        /* \"#utility.yul\":5319:5436   */\n      pop\n        /* \"#utility.yul\":5114:5443   */\n      swap3\n      swap2\n      pop\n      pop\n      jump\t// out\n        /* \"#utility.yul\":5449:5571   */\n    tag_128:\n        /* \"#utility.yul\":5522:5546   */\n      tag_204\n        /* \"#utility.yul\":5540:5545   */\n      dup2\n        /* \"#utility.yul\":5522:5546   */\n      tag_114\n      jump\t// in\n    tag_204:\n        /* \"#utility.yul\":5515:5520   */\n      dup2\n        /* \"#utility.yul\":5512:5547   */\n      eq\n        /* \"#utility.yul\":5502:5565   */\n      tag_205\n      jumpi\n        /* \"#utility.yul\":5561:5562   */\n      0x00\n        /* \"#utility.yul\":5558:5559   */\n      dup1\n        /* \"#utility.yul\":5551:5563   */\n      revert\n        /* \"#utility.yul\":5502:5565   */\n    tag_205:\n        /* \"#utility.yul\":5449:5571   */\n      pop\n      jump\t// out\n        /* \"#utility.yul\":5577:5716   */\n    tag_129:\n        /* \"#utility.yul\":5623:5628   */\n      0x00\n        /* \"#utility.yul\":5661:5667   */\n      dup2\n        /* \"#utility.yul\":5648:5668   */\n      calldataload\n        /* \"#utility.yul\":5639:5668   */\n      swap1\n      pop\n        /* \"#utility.yul\":5677:5710   */\n      tag_207\n        /* \"#utility.yul\":5704:5709   */\n      dup2\n        /* \"#utility.yul\":5677:5710   */\n      tag_128\n      jump\t// in\n    tag_207:\n        /* \"#utility.yul\":5577:5716   */\n      swap3\n      swap2\n      pop\n      pop\n      jump\t// out\n        /* \"#utility.yul\":5722:6051   */\n    tag_30:\n        /* \"#utility.yul\":5781:5787   */\n      0x00\n        /* \"#utility.yul\":5830:5832   */\n      0x20\n        /* \"#utility.yul\":5818:5827   */\n      dup3\n        /* \"#utility.yul\":5809:5816   */\n      dup5\n        /* \"#utility.yul\":5805:5828   */\n      sub\n        /* \"#utility.yul\":5801:5833   */\n      slt\n        /* \"#utility.yul\":5798:5917   */\n      iszero\n      tag_209\n      jumpi\n        /* \"#utility.yul\":5836:5915   */\n      tag_210\n      tag_124\n      jump\t// in\n    tag_210:\n        /* \"#utility.yul\":5798:5917   */\n    tag_209:\n        /* \"#utility.yul\":5956:5957   */\n      0x00\n        /* \"#utility.yul\":5981:6034   */\n      tag_211\n        /* \"#utility.yul\":6026:6033   */\n      dup5\n        /* \"#utility.yul\":6017:6023   */\n      dup3\n        /* \"#utility.yul\":6006:6015   */\n      dup6\n        /* \"#utility.yul\":6002:6024   */\n      add\n        /* \"#utility.yul\":5981:6034   */\n      tag_129\n      jump\t// in\n    tag_211:\n        /* \"#utility.yul\":5971:6034   */\n      swap2\n      pop\n        /* \"#utility.yul\":5927:6044   */\n      pop\n        /* \"#utility.yul\":5722:6051   */\n      swap3\n      swap2\n      pop\n      pop\n      jump\t// out\n        /* \"#utility.yul\":6057:6134   */\n    tag_130:\n        /* \"#utility.yul\":6094:6101   */\n      0x00\n        /* \"#utility.yul\":6123:6128   */\n      dup2\n        /* \"#utility.yul\":6112:6128   */\n      swap1\n      pop\n        /* \"#utility.yul\":6057:6134   */\n      swap2\n      swap1\n      pop\n      jump\t// out\n        /* \"#utility.yul\":6140:6258   */\n    tag_131:\n        /* \"#utility.yul\":6227:6251   */\n      tag_214\n        /* \"#utility.yul\":6245:6250   */\n      dup2\n        /* \"#utility.yul\":6227:6251   */\n      tag_130\n      jump\t// in\n    tag_214:\n        /* \"#utility.yul\":6222:6225   */\n      dup3\n        /* \"#utility.yul\":6215:6252   */\n      mstore\n        /* \"#utility.yul\":6140:6258   */\n      pop\n      pop\n      jump\t// out\n        /* \"#utility.yul\":6264:6486   */\n    tag_36:\n        /* \"#utility.yul\":6357:6361   */\n      0x00\n        /* \"#utility.yul\":6395:6397   */\n      0x20\n        /* \"#utility.yul\":6384:6393   */\n      dup3\n        /* \"#utility.yul\":6380:6398   */\n      add\n        /* \"#utility.yul\":6372:6398   */\n      swap1\n      pop\n        /* \"#utility.yul\":6408:6479   */\n      tag_216\n        /* \"#utility.yul\":6476:6477   */\n      0x00\n        /* \"#utility.yul\":6465:6474   */\n      dup4\n        /* \"#utility.yul\":6461:6478   */\n      add\n        /* \"#utility.yul\":6452:6458   */\n      dup5\n        /* \"#utility.yul\":6408:6479   */\n      tag_131\n      jump\t// in\n    tag_216:\n        /* \"#utility.yul\":6264:6486   */\n      swap3\n      swap2\n      pop\n      pop\n      jump\t// out\n        /* \"#utility.yul\":6492:6635   */\n    tag_132:\n        /* \"#utility.yul\":6549:6554   */\n      0x00\n        /* \"#utility.yul\":6580:6586   */\n      dup2\n        /* \"#utility.yul\":6574:6587   */\n      mload\n        /* \"#utility.yul\":6565:6587   */\n      swap1\n      pop\n        /* \"#utility.yul\":6596:6629   */\n      tag_218\n        /* \"#utility.yul\":6623:6628   */\n      dup2\n        /* \"#utility.yul\":6596:6629   */\n      tag_126\n      jump\t// in\n    tag_218:\n        /* \"#utility.yul\":6492:6635   */\n      swap3\n      swap2\n      pop\n      pop\n      jump\t// out\n        /* \"#utility.yul\":6641:6992   */\n    tag_40:\n        /* \"#utility.yul\":6711:6717   */\n      0x00\n        /* \"#utility.yul\":6760:6762   */\n      0x20\n        /* \"#utility.yul\":6748:6757   */\n      dup3\n        /* \"#utility.yul\":6739:6746   */\n      dup5\n        /* \"#utility.yul\":6735:6758   */\n      sub\n        /* \"#utility.yul\":6731:6763   */\n      slt\n        /* \"#utility.yul\":6728:6847   */\n      iszero\n      tag_220\n      jumpi\n        /* \"#utility.yul\":6766:6845   */\n      tag_221\n      tag_124\n      jump\t// in\n    tag_221:\n        /* \"#utility.yul\":6728:6847   */\n    tag_220:\n        /* \"#utility.yul\":6886:6887   */\n      0x00\n        /* \"#utility.yul\":6911:6975   */\n      tag_222\n        /* \"#utility.yul\":6967:6974   */\n      dup5\n        /* \"#utility.yul\":6958:6964   */\n      dup3\n        /* \"#utility.yul\":6947:6956   */\n      dup6\n        /* \"#utility.yul\":6943:6965   */\n      add\n        /* \"#utility.yul\":6911:6975   */\n      tag_132\n      jump\t// in\n    tag_222:\n        /* \"#utility.yul\":6901:6975   */\n      swap2\n      pop\n        /* \"#utility.yul\":6857:6985   */\n      pop\n        /* \"#utility.yul\":6641:6992   */\n      swap3\n      swap2\n      pop\n      pop\n      jump\t// out\n        /* \"#utility.yul\":6998:7178   */\n    tag_43:\n        /* \"#utility.yul\":7046:7123   */\n      0x4e487b7100000000000000000000000000000000000000000000000000000000\n        /* \"#utility.yul\":7043:7044   */\n      0x00\n        /* \"#utility.yul\":7036:7124   */\n      mstore\n        /* \"#utility.yul\":7143:7147   */\n      0x41\n        /* \"#utility.yul\":7140:7141   */\n      0x04\n        /* \"#utility.yul\":7133:7148   */\n      mstore\n        /* \"#utility.yul\":7167:7171   */\n      0x24\n        /* \"#utility.yul\":7164:7165   */\n      0x00\n        /* \"#utility.yul\":7157:7172   */\n      revert\n        /* \"#utility.yul\":7184:7302   */\n    tag_133:\n        /* \"#utility.yul\":7271:7295   */\n      tag_225\n        /* \"#utility.yul\":7289:7294   */\n      dup2\n        /* \"#utility.yul\":7271:7295   */\n      tag_111\n      jump\t// in\n    tag_225:\n        /* \"#utility.yul\":7266:7269   */\n      dup3\n        /* \"#utility.yul\":7259:7296   */\n      mstore\n        /* \"#utility.yul\":7184:7302   */\n      pop\n      pop\n      jump\t// out\n        /* \"#utility.yul\":7308:7640   */\n    tag_58:\n        /* \"#utility.yul\":7429:7433   */\n      0x00\n        /* \"#utility.yul\":7467:7469   */\n      0x40\n        /* \"#utility.yul\":7456:7465   */\n      dup3\n        /* \"#utility.yul\":7452:7470   */\n      add\n        /* \"#utility.yul\":7444:7470   */\n      swap1\n      pop\n        /* \"#utility.yul\":7480:7551   */\n      tag_227\n        /* \"#utility.yul\":7548:7549   */\n      0x00\n        /* \"#utility.yul\":7537:7546   */\n      dup4\n        /* \"#utility.yul\":7533:7550   */\n      add\n        /* \"#utility.yul\":7524:7530   */\n      dup6\n        /* \"#utility.yul\":7480:7551   */\n      tag_133\n      jump\t// in\n    tag_227:\n        /* \"#utility.yul\":7561:7633   */\n      tag_228\n        /* \"#utility.yul\":7629:7631   */\n      0x20\n        /* \"#utility.yul\":7618:7627   */\n      dup4\n        /* \"#utility.yul\":7614:7632   */\n      add\n        /* \"#utility.yul\":7605:7611   */\n      dup5\n        /* \"#utility.yul\":7561:7633   */\n      tag_131\n      jump\t// in\n    tag_228:\n        /* \"#utility.yul\":7308:7640   */\n      swap4\n      swap3\n      pop\n      pop\n      pop\n      jump\t// out\n        /* \"#utility.yul\":7646:7763   */\n    tag_134:\n        /* \"#utility.yul\":7755:7756   */\n      0x00\n        /* \"#utility.yul\":7752:7753   */\n      dup1\n        /* \"#utility.yul\":7745:7757   */\n      revert\n        /* \"#utility.yul\":7769:7871   */\n    tag_135:\n        /* \"#utility.yul\":7810:7816   */\n      0x00\n        /* \"#utility.yul\":7861:7863   */\n      0x1f\n        /* \"#utility.yul\":7857:7864   */\n      not\n        /* \"#utility.yul\":7852:7854   */\n      0x1f\n        /* \"#utility.yul\":7845:7850   */\n      dup4\n        /* \"#utility.yul\":7841:7855   */\n      add\n        /* \"#utility.yul\":7837:7865   */\n      and\n        /* \"#utility.yul\":7827:7865   */\n      swap1\n      pop\n        /* \"#utility.yul\":7769:7871   */\n      swap2\n      swap1\n      pop\n      jump\t// out\n        /* \"#utility.yul\":7877:8158   */\n    tag_136:\n        /* \"#utility.yul\":7960:7987   */\n      tag_232\n        /* \"#utility.yul\":7982:7986   */\n      dup3\n        /* \"#utility.yul\":7960:7987   */\n      tag_135\n      jump\t// in\n    tag_232:\n        /* \"#utility.yul\":7952:7958   */\n      dup2\n        /* \"#utility.yul\":7948:7988   */\n      add\n        /* \"#utility.yul\":8090:8096   */\n      dup2\n        /* \"#utility.yul\":8078:8088   */\n      dup2\n        /* \"#utility.yul\":8075:8097   */\n      lt\n        /* \"#utility.yul\":8054:8072   */\n      0xffffffffffffffff\n        /* \"#utility.yul\":8042:8052   */\n      dup3\n        /* \"#utility.yul\":8039:8073   */\n      gt\n        /* \"#utility.yul\":8036:8098   */\n      or\n        /* \"#utility.yul\":8033:8121   */\n      iszero\n      tag_233\n      jumpi\n        /* \"#utility.yul\":8101:8119   */\n      tag_234\n      tag_43\n      jump\t// in\n    tag_234:\n        /* \"#utility.yul\":8033:8121   */\n    tag_233:\n        /* \"#utility.yul\":8141:8151   */\n      dup1\n        /* \"#utility.yul\":8137:8139   */\n      0x40\n        /* \"#utility.yul\":8130:8152   */\n      mstore\n        /* \"#utility.yul\":7920:8158   */\n      pop\n        /* \"#utility.yul\":7877:8158   */\n      pop\n      pop\n      jump\t// out\n        /* \"#utility.yul\":8164:8293   */\n    tag_137:\n        /* \"#utility.yul\":8198:8204   */\n      0x00\n        /* \"#utility.yul\":8225:8245   */\n      tag_236\n      tag_123\n      jump\t// in\n    tag_236:\n        /* \"#utility.yul\":8215:8245   */\n      swap1\n      pop\n        /* \"#utility.yul\":8254:8287   */\n      tag_237\n        /* \"#utility.yul\":8282:8286   */\n      dup3\n        /* \"#utility.yul\":8274:8280   */\n      dup3\n        /* \"#utility.yul\":8254:8287   */\n      tag_136\n      jump\t// in\n    tag_237:\n        /* \"#utility.yul\":8164:8293   */\n      swap2\n      swap1\n      pop\n      jump\t// out\n        /* \"#utility.yul\":8422:8565   */\n    tag_139:\n        /* \"#utility.yul\":8479:8484   */\n      0x00\n        /* \"#utility.yul\":8510:8516   */\n      dup2\n        /* \"#utility.yul\":8504:8517   */\n      mload\n        /* \"#utility.yul\":8495:8517   */\n      swap1\n      pop\n        /* \"#utility.yul\":8526:8559   */\n      tag_240\n        /* \"#utility.yul\":8553:8558   */\n      dup2\n        /* \"#utility.yul\":8526:8559   */\n      tag_128\n      jump\t// in\n    tag_240:\n        /* \"#utility.yul\":8422:8565   */\n      swap3\n      swap2\n      pop\n      pop\n      jump\t// out\n        /* \"#utility.yul\":8595:9398   */\n    tag_140:\n        /* \"#utility.yul\":8681:8686   */\n      0x00\n        /* \"#utility.yul\":8725:8729   */\n      0x60\n        /* \"#utility.yul\":8713:8722   */\n      dup3\n        /* \"#utility.yul\":8708:8711   */\n      dup5\n        /* \"#utility.yul\":8704:8723   */\n      sub\n        /* \"#utility.yul\":8700:8730   */\n      slt\n        /* \"#utility.yul\":8697:8814   */\n      iszero\n      tag_242\n      jumpi\n        /* \"#utility.yul\":8733:8812   */\n      tag_243\n      tag_134\n      jump\t// in\n    tag_243:\n        /* \"#utility.yul\":8697:8814   */\n    tag_242:\n        /* \"#utility.yul\":8832:8853   */\n      tag_244\n        /* \"#utility.yul\":8848:8852   */\n      0x60\n        /* \"#utility.yul\":8832:8853   */\n      tag_137\n      jump\t// in\n    tag_244:\n        /* \"#utility.yul\":8823:8853   */\n      swap1\n      pop\n        /* \"#utility.yul\":8919:8920   */\n      0x00\n        /* \"#utility.yul\":8959:9019   */\n      tag_245\n        /* \"#utility.yul\":9015:9018   */\n      dup5\n        /* \"#utility.yul\":9006:9012   */\n      dup3\n        /* \"#utility.yul\":8995:9004   */\n      dup6\n        /* \"#utility.yul\":8991:9013   */\n      add\n        /* \"#utility.yul\":8959:9019   */\n      tag_132\n      jump\t// in\n    tag_245:\n        /* \"#utility.yul\":8952:8956   */\n      0x00\n        /* \"#utility.yul\":8945:8950   */\n      dup4\n        /* \"#utility.yul\":8941:8957   */\n      add\n        /* \"#utility.yul\":8934:9020   */\n      mstore\n        /* \"#utility.yul\":8863:9031   */\n      pop\n        /* \"#utility.yul\":9102:9104   */\n      0x20\n        /* \"#utility.yul\":9143:9203   */\n      tag_246\n        /* \"#utility.yul\":9199:9202   */\n      dup5\n        /* \"#utility.yul\":9190:9196   */\n      dup3\n        /* \"#utility.yul\":9179:9188   */\n      dup6\n        /* \"#utility.yul\":9175:9197   */\n      add\n        /* \"#utility.yul\":9143:9203   */\n      tag_139\n      jump\t// in\n    tag_246:\n        /* \"#utility.yul\":9136:9140   */\n      0x20\n        /* \"#utility.yul\":9129:9134   */\n      dup4\n        /* \"#utility.yul\":9125:9141   */\n      add\n        /* \"#utility.yul\":9118:9204   */\n      mstore\n        /* \"#utility.yul\":9041:9215   */\n      pop\n        /* \"#utility.yul\":9278:9280   */\n      0x40\n        /* \"#utility.yul\":9319:9379   */\n      tag_247\n        /* \"#utility.yul\":9375:9378   */\n      dup5\n        /* \"#utility.yul\":9366:9372   */\n      dup3\n        /* \"#utility.yul\":9355:9364   */\n      dup6\n        /* \"#utility.yul\":9351:9373   */\n      add\n        /* \"#utility.yul\":9319:9379   */\n      tag_132\n      jump\t// in\n    tag_247:\n        /* \"#utility.yul\":9312:9316   */\n      0x40\n        /* \"#utility.yul\":9305:9310   */\n      dup4\n        /* \"#utility.yul\":9301:9317   */\n      add\n        /* \"#utility.yul\":9294:9380   */\n      mstore\n        /* \"#utility.yul\":9225:9391   */\n      pop\n        /* \"#utility.yul\":8595:9398   */\n      swap3\n      swap2\n      pop\n      pop\n      jump\t// out\n        /* \"#utility.yul\":9404:9807   */\n    tag_62:\n        /* \"#utility.yul\":9500:9506   */\n      0x00\n        /* \"#utility.yul\":9549:9551   */\n      0x60\n        /* \"#utility.yul\":9537:9546   */\n      dup3\n        /* \"#utility.yul\":9528:9535   */\n      dup5\n        /* \"#utility.yul\":9524:9547   */\n      sub\n        /* \"#utility.yul\":9520:9552   */\n      slt\n        /* \"#utility.yul\":9517:9636   */\n      iszero\n      tag_249\n      jumpi\n        /* \"#utility.yul\":9555:9634   */\n      tag_250\n      tag_124\n      jump\t// in\n    tag_250:\n        /* \"#utility.yul\":9517:9636   */\n    tag_249:\n        /* \"#utility.yul\":9675:9676   */\n      0x00\n        /* \"#utility.yul\":9700:9790   */\n      tag_251\n        /* \"#utility.yul\":9782:9789   */\n      dup5\n        /* \"#utility.yul\":9773:9779   */\n      dup3\n        /* \"#utility.yul\":9762:9771   */\n      dup6\n        /* \"#utility.yul\":9758:9780   */\n      add\n        /* \"#utility.yul\":9700:9790   */\n      tag_140\n      jump\t// in\n    tag_251:\n        /* \"#utility.yul\":9690:9790   */\n      swap2\n      pop\n        /* \"#utility.yul\":9646:9800   */\n      pop\n        /* \"#utility.yul\":9404:9807   */\n      swap3\n      swap2\n      pop\n      pop\n      jump\t// out\n        /* \"#utility.yul\":9813:9993   */\n    tag_65:\n        /* \"#utility.yul\":9861:9938   */\n      0x4e487b7100000000000000000000000000000000000000000000000000000000\n        /* \"#utility.yul\":9858:9859   */\n      0x00\n        /* \"#utility.yul\":9851:9939   */\n      mstore\n        /* \"#utility.yul\":9958:9962   */\n      0x32\n        /* \"#utility.yul\":9955:9956   */\n      0x04\n        /* \"#utility.yul\":9948:9963   */\n      mstore\n        /* \"#utility.yul\":9982:9986   */\n      0x24\n        /* \"#utility.yul\":9979:9980   */\n      0x00\n        /* \"#utility.yul\":9972:9987   */\n      revert\n        /* \"#utility.yul\":9999:10179   */\n    tag_141:\n        /* \"#utility.yul\":10047:10124   */\n      0x4e487b7100000000000000000000000000000000000000000000000000000000\n        /* \"#utility.yul\":10044:10045   */\n      0x00\n        /* \"#utility.yul\":10037:10125   */\n      mstore\n        /* \"#utility.yul\":10144:10148   */\n      0x11\n        /* \"#utility.yul\":10141:10142   */\n      0x04\n        /* \"#utility.yul\":10134:10149   */\n      mstore\n        /* \"#utility.yul\":10168:10172   */\n      0x24\n        /* \"#utility.yul\":10165:10166   */\n      0x00\n        /* \"#utility.yul\":10158:10173   */\n      revert\n        /* \"#utility.yul\":10185:10418   */\n    tag_67:\n        /* \"#utility.yul\":10224:10227   */\n      0x00\n        /* \"#utility.yul\":10247:10271   */\n      tag_255\n        /* \"#utility.yul\":10265:10270   */\n      dup3\n        /* \"#utility.yul\":10247:10271   */\n      tag_111\n      jump\t// in\n    tag_255:\n        /* \"#utility.yul\":10238:10271   */\n      swap2\n      pop\n        /* \"#utility.yul\":10293:10359   */\n      0xffffffffffffffffffffffffffffffffffffffffffffffffffffffffffffffff\n        /* \"#utility.yul\":10286:10291   */\n      dup3\n        /* \"#utility.yul\":10283:10360   */\n      sub\n        /* \"#utility.yul\":10280:10383   */\n      tag_256\n      jumpi\n        /* \"#utility.yul\":10363:10381   */\n      tag_257\n      tag_141\n      jump\t// in\n    tag_257:\n        /* \"#utility.yul\":10280:10383   */\n    tag_256:\n        /* \"#utility.yul\":10410:10411   */\n      0x01\n        /* \"#utility.yul\":10403:10408   */\n      dup3\n        /* \"#utility.yul\":10399:10412   */\n      add\n        /* \"#utility.yul\":10392:10412   */\n      swap1\n      pop\n        /* \"#utility.yul\":10185:10418   */\n      swap2\n      swap1\n      pop\n      jump\t// out\n        /* \"#utility.yul\":10424:10756   */\n    tag_70:\n        /* \"#utility.yul\":10545:10549   */\n      0x00\n        /* \"#utility.yul\":10583:10585   */\n      0x40\n        /* \"#utility.yul\":10572:10581   */\n      dup3\n        /* \"#utility.yul\":10568:10586   */\n      add\n        /* \"#utility.yul\":10560:10586   */\n      swap1\n      pop\n        /* \"#utility.yul\":10596:10667   */\n      tag_259\n        /* \"#utility.yul\":10664:10665   */\n      0x00\n        /* \"#utility.yul\":10653:10662   */\n      dup4\n        /* \"#utility.yul\":10649:10666   */\n      add\n        /* \"#utility.yul\":10640:10646   */\n      dup6\n        /* \"#utility.yul\":10596:10667   */\n      tag_122\n      jump\t// in\n    tag_259:\n        /* \"#utility.yul\":10677:10749   */\n      tag_260\n        /* \"#utility.yul\":10745:10747   */\n      0x20\n        /* \"#utility.yul\":10734:10743   */\n      dup4\n        /* \"#utility.yul\":10730:10748   */\n      add\n        /* \"#utility.yul\":10721:10727   */\n      dup5\n        /* \"#utility.yul\":10677:10749   */\n      tag_131\n      jump\t// in\n    tag_260:\n        /* \"#utility.yul\":10424:10756   */\n      swap4\n      swap3\n      pop\n      pop\n      pop\n      jump\t// out\n        /* \"#utility.yul\":10762:10931   */\n    tag_142:\n        /* \"#utility.yul\":10846:10857   */\n      0x00\n        /* \"#utility.yul\":10880:10886   */\n      dup3\n        /* \"#utility.yul\":10875:10878   */\n      dup3\n        /* \"#utility.yul\":10868:10887   */\n      mstore\n        /* \"#utility.yul\":10920:10924   */\n      0x20\n        /* \"#utility.yul\":10915:10918   */\n      dup3\n        /* \"#utility.yul\":10911:10925   */\n      add\n        /* \"#utility.yul\":10896:10925   */\n      swap1\n      pop\n        /* \"#utility.yul\":10762:10931   */\n      swap3\n      swap2\n      pop\n      pop\n      jump\t// out\n        /* \"#utility.yul\":10937:11168   */\n    tag_143:\n        /* \"#utility.yul\":11077:11111   */\n      0x4c697374486172766573746572437572736f723a20416c726561647920657869\n        /* \"#utility.yul\":11073:11074   */\n      0x00\n        /* \"#utility.yul\":11065:11071   */\n      dup3\n        /* \"#utility.yul\":11061:11075   */\n      add\n        /* \"#utility.yul\":11054:11112   */\n      mstore\n        /* \"#utility.yul\":11146:11160   */\n      0x73746564206163636f756e740000000000000000000000000000000000000000\n        /* \"#utility.yul\":11141:11143   */\n      0x20\n        /* \"#utility.yul\":11133:11139   */\n      dup3\n        /* \"#utility.yul\":11129:11144   */\n      add\n        /* \"#utility.yul\":11122:11161   */\n      mstore\n        /* \"#utility.yul\":10937:11168   */\n      pop\n      jump\t// out\n        /* \"#utility.yul\":11174:11540   */\n    tag_144:\n        /* \"#utility.yul\":11316:11319   */\n      0x00\n        /* \"#utility.yul\":11337:11404   */\n      tag_264\n        /* \"#utility.yul\":11401:11403   */\n      0x2c\n        /* \"#utility.yul\":11396:11399   */\n      dup4\n        /* \"#utility.yul\":11337:11404   */\n      tag_142\n      jump\t// in\n    tag_264:\n        /* \"#utility.yul\":11330:11404   */\n      swap2\n      pop\n        /* \"#utility.yul\":11413:11506   */\n      tag_265\n        /* \"#utility.yul\":11502:11505   */\n      dup3\n        /* \"#utility.yul\":11413:11506   */\n      tag_143\n      jump\t// in\n    tag_265:\n        /* \"#utility.yul\":11531:11533   */\n      0x40\n        /* \"#utility.yul\":11526:11529   */\n      dup3\n        /* \"#utility.yul\":11522:11534   */\n      add\n        /* \"#utility.yul\":11515:11534   */\n      swap1\n      pop\n        /* \"#utility.yul\":11174:11540   */\n      swap2\n      swap1\n      pop\n      jump\t// out\n        /* \"#utility.yul\":11546:11965   */\n    tag_84:\n        /* \"#utility.yul\":11712:11716   */\n      0x00\n        /* \"#utility.yul\":11750:11752   */\n      0x20\n        /* \"#utility.yul\":11739:11748   */\n      dup3\n        /* \"#utility.yul\":11735:11753   */\n      add\n        /* \"#utility.yul\":11727:11753   */\n      swap1\n      pop\n        /* \"#utility.yul\":11799:11808   */\n      dup2\n        /* \"#utility.yul\":11793:11797   */\n      dup2\n        /* \"#utility.yul\":11789:11809   */\n      sub\n        /* \"#utility.yul\":11785:11786   */\n      0x00\n        /* \"#utility.yul\":11774:11783   */\n      dup4\n        /* \"#utility.yul\":11770:11787   */\n      add\n        /* \"#utility.yul\":11763:11810   */\n      mstore\n        /* \"#utility.yul\":11827:11958   */\n      tag_267\n        /* \"#utility.yul\":11953:11957   */\n      dup2\n        /* \"#utility.yul\":11827:11958   */\n      tag_144\n      jump\t// in\n    tag_267:\n        /* \"#utility.yul\":11819:11958   */\n      swap1\n      pop\n        /* \"#utility.yul\":11546:11965   */\n      swap2\n      swap1\n      pop\n      jump\t// out\n        /* \"#utility.yul\":12015:12721   */\n    tag_145:\n        /* \"#utility.yul\":12164:12168   */\n      0x60\n        /* \"#utility.yul\":12159:12162   */\n      dup3\n        /* \"#utility.yul\":12155:12169   */\n      add\n        /* \"#utility.yul\":12258:12262   */\n      0x00\n        /* \"#utility.yul\":12251:12256   */\n      dup3\n        /* \"#utility.yul\":12247:12263   */\n      add\n        /* \"#utility.yul\":12241:12264   */\n      mload\n        /* \"#utility.yul\":12277:12340   */\n      tag_269\n        /* \"#utility.yul\":12334:12338   */\n      0x00\n        /* \"#utility.yul\":12329:12332   */\n      dup6\n        /* \"#utility.yul\":12325:12339   */\n      add\n        /* \"#utility.yul\":12311:12323   */\n      dup3\n        /* \"#utility.yul\":12277:12340   */\n      tag_112\n      jump\t// in\n    tag_269:\n        /* \"#utility.yul\":12179:12350   */\n      pop\n        /* \"#utility.yul\":12444:12448   */\n      0x20\n        /* \"#utility.yul\":12437:12442   */\n      dup3\n        /* \"#utility.yul\":12433:12449   */\n      add\n        /* \"#utility.yul\":12427:12450   */\n      mload\n        /* \"#utility.yul\":12463:12526   */\n      tag_270\n        /* \"#utility.yul\":12520:12524   */\n      0x20\n        /* \"#utility.yul\":12515:12518   */\n      dup6\n        /* \"#utility.yul\":12511:12525   */\n      add\n        /* \"#utility.yul\":12497:12509   */\n      dup3\n        /* \"#utility.yul\":12463:12526   */\n      tag_115\n      jump\t// in\n    tag_270:\n        /* \"#utility.yul\":12360:12536   */\n      pop\n        /* \"#utility.yul\":12622:12626   */\n      0x40\n        /* \"#utility.yul\":12615:12620   */\n      dup3\n        /* \"#utility.yul\":12611:12627   */\n      add\n        /* \"#utility.yul\":12605:12628   */\n      mload\n        /* \"#utility.yul\":12641:12704   */\n      tag_271\n        /* \"#utility.yul\":12698:12702   */\n      0x40\n        /* \"#utility.yul\":12693:12696   */\n      dup6\n        /* \"#utility.yul\":12689:12703   */\n      add\n        /* \"#utility.yul\":12675:12687   */\n      dup3\n        /* \"#utility.yul\":12641:12704   */\n      tag_112\n      jump\t// in\n    tag_271:\n        /* \"#utility.yul\":12546:12714   */\n      pop\n        /* \"#utility.yul\":12133:12721   */\n      pop\n        /* \"#utility.yul\":12015:12721   */\n      pop\n      pop\n      jump\t// out\n        /* \"#utility.yul\":12727:13164   */\n    tag_88:\n        /* \"#utility.yul\":12900:12904   */\n      0x00\n        /* \"#utility.yul\":12938:12941   */\n      0x80\n        /* \"#utility.yul\":12927:12936   */\n      dup3\n        /* \"#utility.yul\":12923:12942   */\n      add\n        /* \"#utility.yul\":12915:12942   */\n      swap1\n      pop\n        /* \"#utility.yul\":12952:13075   */\n      tag_273\n        /* \"#utility.yul\":13072:13073   */\n      0x00\n        /* \"#utility.yul\":13061:13070   */\n      dup4\n        /* \"#utility.yul\":13057:13074   */\n      add\n        /* \"#utility.yul\":13048:13054   */\n      dup6\n        /* \"#utility.yul\":12952:13075   */\n      tag_145\n      jump\t// in\n    tag_273:\n        /* \"#utility.yul\":13085:13157   */\n      tag_274\n        /* \"#utility.yul\":13153:13155   */\n      0x60\n        /* \"#utility.yul\":13142:13151   */\n      dup4\n        /* \"#utility.yul\":13138:13156   */\n      add\n        /* \"#utility.yul\":13129:13135   */\n      dup5\n        /* \"#utility.yul\":13085:13157   */\n      tag_131\n      jump\t// in\n    tag_274:\n        /* \"#utility.yul\":12727:13164   */\n      swap4\n      swap3\n      pop\n      pop\n      pop\n      jump\t// out\n        /* \"#utility.yul\":13170:13286   */\n    tag_146:\n        /* \"#utility.yul\":13240:13261   */\n      tag_276\n        /* \"#utility.yul\":13255:13260   */\n      dup2\n        /* \"#utility.yul\":13240:13261   */\n      tag_120\n      jump\t// in\n    tag_276:\n        /* \"#utility.yul\":13233:13238   */\n      dup2\n        /* \"#utility.yul\":13230:13262   */\n      eq\n        /* \"#utility.yul\":13220:13280   */\n      tag_277\n      jumpi\n        /* \"#utility.yul\":13276:13277   */\n      0x00\n        /* \"#utility.yul\":13273:13274   */\n      dup1\n        /* \"#utility.yul\":13266:13278   */\n      revert\n        /* \"#utility.yul\":13220:13280   */\n    tag_277:\n        /* \"#utility.yul\":13170:13286   */\n      pop\n      jump\t// out\n        /* \"#utility.yul\":13292:13429   */\n    tag_147:\n        /* \"#utility.yul\":13346:13351   */\n      0x00\n        /* \"#utility.yul\":13377:13383   */\n      dup2\n        /* \"#utility.yul\":13371:13384   */\n      mload\n        /* \"#utility.yul\":13362:13384   */\n      swap1\n      pop\n        /* \"#utility.yul\":13393:13423   */\n      tag_279\n        /* \"#utility.yul\":13417:13422   */\n      dup2\n        /* \"#utility.yul\":13393:13423   */\n      tag_146\n      jump\t// in\n    tag_279:\n        /* \"#utility.yul\":13292:13429   */\n      swap3\n      swap2\n      pop\n      pop\n      jump\t// out\n        /* \"#utility.yul\":13435:13780   */\n    tag_92:\n        /* \"#utility.yul\":13502:13508   */\n      0x00\n        /* \"#utility.yul\":13551:13553   */\n      0x20\n        /* \"#utility.yul\":13539:13548   */\n      dup3\n        /* \"#utility.yul\":13530:13537   */\n      dup5\n        /* \"#utility.yul\":13526:13549   */\n      sub\n        /* \"#utility.yul\":13522:13554   */\n      slt\n        /* \"#utility.yul\":13519:13638   */\n      iszero\n      tag_281\n      jumpi\n        /* \"#utility.yul\":13557:13636   */\n      tag_282\n      tag_124\n      jump\t// in\n    tag_282:\n        /* \"#utility.yul\":13519:13638   */\n    tag_281:\n        /* \"#utility.yul\":13677:13678   */\n      0x00\n        /* \"#utility.yul\":13702:13763   */\n      tag_283\n        /* \"#utility.yul\":13755:13762   */\n      dup5\n        /* \"#utility.yul\":13746:13752   */\n      dup3\n        /* \"#utility.yul\":13735:13744   */\n      dup6\n        /* \"#utility.yul\":13731:13753   */\n      add\n        /* \"#utility.yul\":13702:13763   */\n      tag_147\n      jump\t// in\n    tag_283:\n        /* \"#utility.yul\":13692:13763   */\n      swap2\n      pop\n        /* \"#utility.yul\":13648:13773   */\n      pop\n        /* \"#utility.yul\":13435:13780   */\n      swap3\n      swap2\n      pop\n      pop\n      jump\t// out\n        /* \"#utility.yul\":13786:14011   */\n    tag_148:\n        /* \"#utility.yul\":13926:13960   */\n      0x4f776e61626c653a206e6577206f776e657220697320746865207a65726f2061\n        /* \"#utility.yul\":13922:13923   */\n      0x00\n        /* \"#utility.yul\":13914:13920   */\n      dup3\n        /* \"#utility.yul\":13910:13924   */\n      add\n        /* \"#utility.yul\":13903:13961   */\n      mstore\n        /* \"#utility.yul\":13995:14003   */\n      0x6464726573730000000000000000000000000000000000000000000000000000\n        /* \"#utility.yul\":13990:13992   */\n      0x20\n        /* \"#utility.yul\":13982:13988   */\n      dup3\n        /* \"#utility.yul\":13978:13993   */\n      add\n        /* \"#utility.yul\":13971:14004   */\n      mstore\n        /* \"#utility.yul\":13786:14011   */\n      pop\n      jump\t// out\n        /* \"#utility.yul\":14017:14383   */\n    tag_149:\n        /* \"#utility.yul\":14159:14162   */\n      0x00\n        /* \"#utility.yul\":14180:14247   */\n      tag_286\n        /* \"#utility.yul\":14244:14246   */\n      0x26\n        /* \"#utility.yul\":14239:14242   */\n      dup4\n        /* \"#utility.yul\":14180:14247   */\n      tag_142\n      jump\t// in\n    tag_286:\n        /* \"#utility.yul\":14173:14247   */\n      swap2\n      pop\n        /* \"#utility.yul\":14256:14349   */\n      tag_287\n        /* \"#utility.yul\":14345:14348   */\n      dup3\n        /* \"#utility.yul\":14256:14349   */\n      tag_148\n      jump\t// in\n    tag_287:\n        /* \"#utility.yul\":14374:14376   */\n      0x40\n        /* \"#utility.yul\":14369:14372   */\n      dup3\n        /* \"#utility.yul\":14365:14377   */\n      add\n        /* \"#utility.yul\":14358:14377   */\n      swap1\n      pop\n        /* \"#utility.yul\":14017:14383   */\n      swap2\n      swap1\n      pop\n      jump\t// out\n        /* \"#utility.yul\":14389:14808   */\n    tag_98:\n        /* \"#utility.yul\":14555:14559   */\n      0x00\n        /* \"#utility.yul\":14593:14595   */\n      0x20\n        /* \"#utility.yul\":14582:14591   */\n      dup3\n        /* \"#utility.yul\":14578:14596   */\n      add\n        /* \"#utility.yul\":14570:14596   */\n      swap1\n      pop\n        /* \"#utility.yul\":14642:14651   */\n      dup2\n        /* \"#utility.yul\":14636:14640   */\n      dup2\n        /* \"#utility.yul\":14632:14652   */\n      sub\n        /* \"#utility.yul\":14628:14629   */\n      0x00\n        /* \"#utility.yul\":14617:14626   */\n      dup4\n        /* \"#utility.yul\":14613:14630   */\n      add\n        /* \"#utility.yul\":14606:14653   */\n      mstore\n        /* \"#utility.yul\":14670:14801   */\n      tag_289\n        /* \"#utility.yul\":14796:14800   */\n      dup2\n        /* \"#utility.yul\":14670:14801   */\n      tag_149\n      jump\t// in\n    tag_289:\n        /* \"#utility.yul\":14662:14801   */\n      swap1\n      pop\n        /* \"#utility.yul\":14389:14808   */\n      swap2\n      swap1\n      pop\n      jump\t// out\n        /* \"#utility.yul\":14814:14996   */\n    tag_150:\n        /* \"#utility.yul\":14954:14988   */\n      0x4f776e61626c653a2063616c6c6572206973206e6f7420746865206f776e6572\n        /* \"#utility.yul\":14950:14951   */\n      0x00\n        /* \"#utility.yul\":14942:14948   */\n      dup3\n        /* \"#utility.yul\":14938:14952   */\n      add\n        /* \"#utility.yul\":14931:14989   */\n      mstore\n        /* \"#utility.yul\":14814:14996   */\n      pop\n      jump\t// out\n        /* \"#utility.yul\":15002:15368   */\n    tag_151:\n        /* \"#utility.yul\":15144:15147   */\n      0x00\n        /* \"#utility.yul\":15165:15232   */\n      tag_292\n        /* \"#utility.yul\":15229:15231   */\n      0x20\n        /* \"#utility.yul\":15224:15227   */\n      dup4\n        /* \"#utility.yul\":15165:15232   */\n      tag_142\n      jump\t// in\n    tag_292:\n        /* \"#utility.yul\":15158:15232   */\n      swap2\n      pop\n        /* \"#utility.yul\":15241:15334   */\n      tag_293\n        /* \"#utility.yul\":15330:15333   */\n      dup3\n        /* \"#utility.yul\":15241:15334   */\n      tag_150\n      jump\t// in\n    tag_293:\n        /* \"#utility.yul\":15359:15361   */\n      0x20\n        /* \"#utility.yul\":15354:15357   */\n      dup3\n        /* \"#utility.yul\":15350:15362   */\n      add\n        /* \"#utility.yul\":15343:15362   */\n      swap1\n      pop\n        /* \"#utility.yul\":15002:15368   */\n      swap2\n      swap1\n      pop\n      jump\t// out\n        /* \"#utility.yul\":15374:15793   */\n    tag_106:\n        /* \"#utility.yul\":15540:15544   */\n      0x00\n        /* \"#utility.yul\":15578:15580   */\n      0x20\n        /* \"#utility.yul\":15567:15576   */\n      dup3\n        /* \"#utility.yul\":15563:15581   */\n      add\n        /* \"#utility.yul\":15555:15581   */\n      swap1\n      pop\n        /* \"#utility.yul\":15627:15636   */\n      dup2\n        /* \"#utility.yul\":15621:15625   */\n      dup2\n        /* \"#utility.yul\":15617:15637   */\n      sub\n        /* \"#utility.yul\":15613:15614   */\n      0x00\n        /* \"#utility.yul\":15602:15611   */\n      dup4\n        /* \"#utility.yul\":15598:15615   */\n      add\n        /* \"#utility.yul\":15591:15638   */\n      mstore\n        /* \"#utility.yul\":15655:15786   */\n      tag_295\n        /* \"#utility.yul\":15781:15785   */\n      dup2\n        /* \"#utility.yul\":15655:15786   */\n      tag_151\n      jump\t// in\n    tag_295:\n        /* \"#utility.yul\":15647:15786   */\n      swap1\n      pop\n        /* \"#utility.yul\":15374:15793   */\n      swap2\n      swap1\n      pop\n      jump\t// out\n\n    auxdata: 0xa2646970667358221220beaf7dd141b98d4c8262c64d33a617c2fb78145baec35931bfc5512b1a0e86f064736f6c63430008110033\n}\n",
				"bytecode": {
					"linkReferences": {},
					"object": "60806040523480156200001157600080fd5b50604051620011aa380380620011aa83398181016040528101906200003791906200016c565b80336000806101000a81548173ffffffffffffffffffffffffffffffffffffffff021916908373ffffffffffffffffffffffffffffffffffffffff16021790555080600260006101000a81548173ffffffffffffffffffffffffffffffffffffffff021916908373ffffffffffffffffffffffffffffffffffffffff16021790555080600160006101000a81548173ffffffffffffffffffffffffffffffffffffffff021916908373ffffffffffffffffffffffffffffffffffffffff16021790555050506200019e565b600080fd5b600073ffffffffffffffffffffffffffffffffffffffff82169050919050565b6000620001348262000107565b9050919050565b620001468162000127565b81146200015257600080fd5b50565b60008151905062000166816200013b565b92915050565b60006020828403121562000185576200018462000102565b5b6000620001958482850162000155565b91505092915050565b610ffc80620001ae6000396000f3fe608060405234801561001057600080fd5b50600436106100625760003560e01c806321eb539e146100675780637faaf3c11461008557806383197ef0146100a35780638da5cb5b146100ad5780639338cc13146100cb578063f2fde38b146100fb575b600080fd5b61006f610117565b60405161007c919061096a565b60405180910390f35b61008d6103a4565b60405161009a91906109a7565b60405180910390f35b6100ab610486565b005b6100b56104a7565b6040516100c291906109d1565b60405180910390f35b6100e560048036038101906100e09190610a27565b6104d0565b6040516100f291906109a7565b60405180910390f35b61011560048036038101906101109190610a80565b610600565b005b60606000610123610683565b73ffffffffffffffffffffffffffffffffffffffff1663fd82e9dd7f8e1604a838d0f1a9b2cda14a099e4ceb08e966cc6e05e8296f67b02d61a79f0960001b6040518263ffffffff1660e01b815260040161017e9190610ac6565b602060405180830381865afa15801561019b573d6000803e3d6000fd5b505050506040513d601f19601f820116820180604052508101906101bf9190610af6565b67ffffffffffffffff8111156101d8576101d7610b23565b5b60405190808252806020026020018201604052801561021157816020015b6101fe6107e8565b8152602001906001900390816101f65790505b5090506000600190505b610223610683565b73ffffffffffffffffffffffffffffffffffffffff1663fd82e9dd7f8e1604a838d0f1a9b2cda14a099e4ceb08e966cc6e05e8296f67b02d61a79f0960001b6040518263ffffffff1660e01b815260040161027e9190610ac6565b602060405180830381865afa15801561029b573d6000803e3d6000fd5b505050506040513d601f19601f820116820180604052508101906102bf9190610af6565b811161039c576102cd610683565b73ffffffffffffffffffffffffffffffffffffffff1663c78a6741827f8e1604a838d0f1a9b2cda14a099e4ceb08e966cc6e05e8296f67b02d61a79f0960001b6040518363ffffffff1660e01b815260040161032a929190610b61565b606060405180830381865afa158015610347573d6000803e3d6000fd5b505050506040513d601f19601f8201168201806040525081019061036b9190610c65565b82828151811061037e5761037d610c92565b5b6020026020010181905250808061039490610cf0565b91505061021b565b508091505090565b600080600160009054906101000a900473ffffffffffffffffffffffffffffffffffffffff1673ffffffffffffffffffffffffffffffffffffffff166356ee78b5337f8e1604a838d0f1a9b2cda14a099e4ceb08e966cc6e05e8296f67b02d61a79f0960001b6040518363ffffffff1660e01b8152600401610427929190610d38565b602060405180830381865afa158015610444573d6000803e3d6000fd5b505050506040513d601f19601f820116820180604052508101906104689190610af6565b9050600081111561047d576001915050610483565b60009150505b90565b61048e6106ad565b3073ffffffffffffffffffffffffffffffffffffffff16ff5b60008060009054906101000a900473ffffffffffffffffffffffffffffffffffffffff16905090565b60006104da6103a4565b1561051a576040517f08c379a000000000000000000000000000000000000000000000000000000000815260040161051190610de4565b60405180910390fd5b60006040518060600160405280600081526020013373ffffffffffffffffffffffffffffffffffffffff168152602001848152509050610558610683565b73ffffffffffffffffffffffffffffffffffffffff16633ce17585827f8e1604a838d0f1a9b2cda14a099e4ceb08e966cc6e05e8296f67b02d61a79f0960001b6040518363ffffffff1660e01b81526004016105b5929190610e46565b6020604051808303816000875af11580156105d4573d6000803e3d6000fd5b505050506040513d601f19601f820116820180604052508101906105f89190610e9b565b915050919050565b6106086106ad565b600073ffffffffffffffffffffffffffffffffffffffff168173ffffffffffffffffffffffffffffffffffffffff1603610677576040517f08c379a000000000000000000000000000000000000000000000000000000000815260040161066e90610f3a565b60405180910390fd5b61068081610724565b50565b6000600160009054906101000a900473ffffffffffffffffffffffffffffffffffffffff16905090565b3373ffffffffffffffffffffffffffffffffffffffff166106cc6104a7565b73ffffffffffffffffffffffffffffffffffffffff1614610722576040517f08c379a000000000000000000000000000000000000000000000000000000000815260040161071990610fa6565b60405180910390fd5b565b60008060009054906101000a900473ffffffffffffffffffffffffffffffffffffffff169050816000806101000a81548173ffffffffffffffffffffffffffffffffffffffff021916908373ffffffffffffffffffffffffffffffffffffffff1602179055508173ffffffffffffffffffffffffffffffffffffffff168173ffffffffffffffffffffffffffffffffffffffff167f8be0079c531659141344cd1fd0a4f28419497f9722a3daafe3b4186f6b6457e060405160405180910390a35050565b604051806060016040528060008152602001600073ffffffffffffffffffffffffffffffffffffffff168152602001600081525090565b600081519050919050565b600082825260208201905092915050565b6000819050602082019050919050565b6000819050919050565b61085e8161084b565b82525050565b600073ffffffffffffffffffffffffffffffffffffffff82169050919050565b600061088f82610864565b9050919050565b61089f81610884565b82525050565b6060820160008201516108bb6000850182610855565b5060208201516108ce6020850182610896565b5060408201516108e16040850182610855565b50505050565b60006108f383836108a5565b60608301905092915050565b6000602082019050919050565b60006109178261081f565b610921818561082a565b935061092c8361083b565b8060005b8381101561095d57815161094488826108e7565b975061094f836108ff565b925050600181019050610930565b5085935050505092915050565b60006020820190508181036000830152610984818461090c565b905092915050565b60008115159050919050565b6109a18161098c565b82525050565b60006020820190506109bc6000830184610998565b92915050565b6109cb81610884565b82525050565b60006020820190506109e660008301846109c2565b92915050565b6000604051905090565b600080fd5b610a048161084b565b8114610a0f57600080fd5b50565b600081359050610a21816109fb565b92915050565b600060208284031215610a3d57610a3c6109f6565b5b6000610a4b84828501610a12565b91505092915050565b610a5d81610884565b8114610a6857600080fd5b50565b600081359050610a7a81610a54565b92915050565b600060208284031215610a9657610a956109f6565b5b6000610aa484828501610a6b565b91505092915050565b6000819050919050565b610ac081610aad565b82525050565b6000602082019050610adb6000830184610ab7565b92915050565b600081519050610af0816109fb565b92915050565b600060208284031215610b0c57610b0b6109f6565b5b6000610b1a84828501610ae1565b91505092915050565b7f4e487b7100000000000000000000000000000000000000000000000000000000600052604160045260246000fd5b610b5b8161084b565b82525050565b6000604082019050610b766000830185610b52565b610b836020830184610ab7565b9392505050565b600080fd5b6000601f19601f8301169050919050565b610ba982610b8f565b810181811067ffffffffffffffff82111715610bc857610bc7610b23565b5b80604052505050565b6000610bdb6109ec565b9050610be78282610ba0565b919050565b600081519050610bfb81610a54565b92915050565b600060608284031215610c1757610c16610b8a565b5b610c216060610bd1565b90506000610c3184828501610ae1565b6000830152506020610c4584828501610bec565b6020830152506040610c5984828501610ae1565b60408301525092915050565b600060608284031215610c7b57610c7a6109f6565b5b6000610c8984828501610c01565b91505092915050565b7f4e487b7100000000000000000000000000000000000000000000000000000000600052603260045260246000fd5b7f4e487b7100000000000000000000000000000000000000000000000000000000600052601160045260246000fd5b6000610cfb8261084b565b91507fffffffffffffffffffffffffffffffffffffffffffffffffffffffffffffffff8203610d2d57610d2c610cc1565b5b600182019050919050565b6000604082019050610d4d60008301856109c2565b610d5a6020830184610ab7565b9392505050565b600082825260208201905092915050565b7f4c697374486172766573746572437572736f723a20416c72656164792065786960008201527f73746564206163636f756e740000000000000000000000000000000000000000602082015250565b6000610dce602c83610d61565b9150610dd982610d72565b604082019050919050565b60006020820190508181036000830152610dfd81610dc1565b9050919050565b606082016000820151610e1a6000850182610855565b506020820151610e2d6020850182610896565b506040820151610e406040850182610855565b50505050565b6000608082019050610e5b6000830185610e04565b610e686060830184610ab7565b9392505050565b610e788161098c565b8114610e8357600080fd5b50565b600081519050610e9581610e6f565b92915050565b600060208284031215610eb157610eb06109f6565b5b6000610ebf84828501610e86565b91505092915050565b7f4f776e61626c653a206e6577206f776e657220697320746865207a65726f206160008201527f6464726573730000000000000000000000000000000000000000000000000000602082015250565b6000610f24602683610d61565b9150610f2f82610ec8565b604082019050919050565b60006020820190508181036000830152610f5381610f17565b9050919050565b7f4f776e61626c653a2063616c6c6572206973206e6f7420746865206f776e6572600082015250565b6000610f90602083610d61565b9150610f9b82610f5a565b602082019050919050565b60006020820190508181036000830152610fbf81610f83565b905091905056fea2646970667358221220beaf7dd141b98d4c8262c64d33a617c2fb78145baec35931bfc5512b1a0e86f064736f6c63430008110033",
					"opcodes": "PUSH1 0x80 PUSH1 0x40 MSTORE CALLVALUE DUP1 ISZERO PUSH3 0x11 JUMPI PUSH1 0x0 DUP1 REVERT JUMPDEST POP PUSH1 0x40 MLOAD PUSH3 0x11AA CODESIZE SUB DUP1 PUSH3 0x11AA DUP4 CODECOPY DUP2 DUP2 ADD PUSH1 0x40 MSTORE DUP2 ADD SWAP1 PUSH3 0x37 SWAP2 SWAP1 PUSH3 0x16C JUMP JUMPDEST DUP1 CALLER PUSH1 0x0 DUP1 PUSH2 0x100 EXP DUP2 SLOAD DUP2 PUSH20 0xFFFFFFFFFFFFFFFFFFFFFFFFFFFFFFFFFFFFFFFF MUL NOT AND SWAP1 DUP4 PUSH20 0xFFFFFFFFFFFFFFFFFFFFFFFFFFFFFFFFFFFFFFFF AND MUL OR SWAP1 SSTORE POP DUP1 PUSH1 0x2 PUSH1 0x0 PUSH2 0x100 EXP DUP2 SLOAD DUP2 PUSH20 0xFFFFFFFFFFFFFFFFFFFFFFFFFFFFFFFFFFFFFFFF MUL NOT AND SWAP1 DUP4 PUSH20 0xFFFFFFFFFFFFFFFFFFFFFFFFFFFFFFFFFFFFFFFF AND MUL OR SWAP1 SSTORE POP DUP1 PUSH1 0x1 PUSH1 0x0 PUSH2 0x100 EXP DUP2 SLOAD DUP2 PUSH20 0xFFFFFFFFFFFFFFFFFFFFFFFFFFFFFFFFFFFFFFFF MUL NOT AND SWAP1 DUP4 PUSH20 0xFFFFFFFFFFFFFFFFFFFFFFFFFFFFFFFFFFFFFFFF AND MUL OR SWAP1 SSTORE POP POP POP PUSH3 0x19E JUMP JUMPDEST PUSH1 0x0 DUP1 REVERT JUMPDEST PUSH1 0x0 PUSH20 0xFFFFFFFFFFFFFFFFFFFFFFFFFFFFFFFFFFFFFFFF DUP3 AND SWAP1 POP SWAP2 SWAP1 POP JUMP JUMPDEST PUSH1 0x0 PUSH3 0x134 DUP3 PUSH3 0x107 JUMP JUMPDEST SWAP1 POP SWAP2 SWAP1 POP JUMP JUMPDEST PUSH3 0x146 DUP2 PUSH3 0x127 JUMP JUMPDEST DUP2 EQ PUSH3 0x152 JUMPI PUSH1 0x0 DUP1 REVERT JUMPDEST POP JUMP JUMPDEST PUSH1 0x0 DUP2 MLOAD SWAP1 POP PUSH3 0x166 DUP2 PUSH3 0x13B JUMP JUMPDEST SWAP3 SWAP2 POP POP JUMP JUMPDEST PUSH1 0x0 PUSH1 0x20 DUP3 DUP5 SUB SLT ISZERO PUSH3 0x185 JUMPI PUSH3 0x184 PUSH3 0x102 JUMP JUMPDEST JUMPDEST PUSH1 0x0 PUSH3 0x195 DUP5 DUP3 DUP6 ADD PUSH3 0x155 JUMP JUMPDEST SWAP2 POP POP SWAP3 SWAP2 POP POP JUMP JUMPDEST PUSH2 0xFFC DUP1 PUSH3 0x1AE PUSH1 0x0 CODECOPY PUSH1 0x0 RETURN INVALID PUSH1 0x80 PUSH1 0x40 MSTORE CALLVALUE DUP1 ISZERO PUSH2 0x10 JUMPI PUSH1 0x0 DUP1 REVERT JUMPDEST POP PUSH1 0x4 CALLDATASIZE LT PUSH2 0x62 JUMPI PUSH1 0x0 CALLDATALOAD PUSH1 0xE0 SHR DUP1 PUSH4 0x21EB539E EQ PUSH2 0x67 JUMPI DUP1 PUSH4 0x7FAAF3C1 EQ PUSH2 0x85 JUMPI DUP1 PUSH4 0x83197EF0 EQ PUSH2 0xA3 JUMPI DUP1 PUSH4 0x8DA5CB5B EQ PUSH2 0xAD JUMPI DUP1 PUSH4 0x9338CC13 EQ PUSH2 0xCB JUMPI DUP1 PUSH4 0xF2FDE38B EQ PUSH2 0xFB JUMPI JUMPDEST PUSH1 0x0 DUP1 REVERT JUMPDEST PUSH2 0x6F PUSH2 0x117 JUMP JUMPDEST PUSH1 0x40 MLOAD PUSH2 0x7C SWAP2 SWAP1 PUSH2 0x96A JUMP JUMPDEST PUSH1 0x40 MLOAD DUP1 SWAP2 SUB SWAP1 RETURN JUMPDEST PUSH2 0x8D PUSH2 0x3A4 JUMP JUMPDEST PUSH1 0x40 MLOAD PUSH2 0x9A SWAP2 SWAP1 PUSH2 0x9A7 JUMP JUMPDEST PUSH1 0x40 MLOAD DUP1 SWAP2 SUB SWAP1 RETURN JUMPDEST PUSH2 0xAB PUSH2 0x486 JUMP JUMPDEST STOP JUMPDEST PUSH2 0xB5 PUSH2 0x4A7 JUMP JUMPDEST PUSH1 0x40 MLOAD PUSH2 0xC2 SWAP2 SWAP1 PUSH2 0x9D1 JUMP JUMPDEST PUSH1 0x40 MLOAD DUP1 SWAP2 SUB SWAP1 RETURN JUMPDEST PUSH2 0xE5 PUSH1 0x4 DUP1 CALLDATASIZE SUB DUP2 ADD SWAP1 PUSH2 0xE0 SWAP2 SWAP1 PUSH2 0xA27 JUMP JUMPDEST PUSH2 0x4D0 JUMP JUMPDEST PUSH1 0x40 MLOAD PUSH2 0xF2 SWAP2 SWAP1 PUSH2 0x9A7 JUMP JUMPDEST PUSH1 0x40 MLOAD DUP1 SWAP2 SUB SWAP1 RETURN JUMPDEST PUSH2 0x115 PUSH1 0x4 DUP1 CALLDATASIZE SUB DUP2 ADD SWAP1 PUSH2 0x110 SWAP2 SWAP1 PUSH2 0xA80 JUMP JUMPDEST PUSH2 0x600 JUMP JUMPDEST STOP JUMPDEST PUSH1 0x60 PUSH1 0x0 PUSH2 0x123 PUSH2 0x683 JUMP JUMPDEST PUSH20 0xFFFFFFFFFFFFFFFFFFFFFFFFFFFFFFFFFFFFFFFF AND PUSH4 0xFD82E9DD PUSH32 0x8E1604A838D0F1A9B2CDA14A099E4CEB08E966CC6E05E8296F67B02D61A79F09 PUSH1 0x0 SHL PUSH1 0x40 MLOAD DUP3 PUSH4 0xFFFFFFFF AND PUSH1 0xE0 SHL DUP2 MSTORE PUSH1 0x4 ADD PUSH2 0x17E SWAP2 SWAP1 PUSH2 0xAC6 JUMP JUMPDEST PUSH1 0x20 PUSH1 0x40 MLOAD DUP1 DUP4 SUB DUP2 DUP7 GAS STATICCALL ISZERO DUP1 ISZERO PUSH2 0x19B JUMPI RETURNDATASIZE PUSH1 0x0 DUP1 RETURNDATACOPY RETURNDATASIZE PUSH1 0x0 REVERT JUMPDEST POP POP POP POP PUSH1 0x40 MLOAD RETURNDATASIZE PUSH1 0x1F NOT PUSH1 0x1F DUP3 ADD AND DUP3 ADD DUP1 PUSH1 0x40 MSTORE POP DUP2 ADD SWAP1 PUSH2 0x1BF SWAP2 SWAP1 PUSH2 0xAF6 JUMP JUMPDEST PUSH8 0xFFFFFFFFFFFFFFFF DUP2 GT ISZERO PUSH2 0x1D8 JUMPI PUSH2 0x1D7 PUSH2 0xB23 JUMP JUMPDEST JUMPDEST PUSH1 0x40 MLOAD SWAP1 DUP1 DUP3 MSTORE DUP1 PUSH1 0x20 MUL PUSH1 0x20 ADD DUP3 ADD PUSH1 0x40 MSTORE DUP1 ISZERO PUSH2 0x211 JUMPI DUP2 PUSH1 0x20 ADD JUMPDEST PUSH2 0x1FE PUSH2 0x7E8 JUMP JUMPDEST DUP2 MSTORE PUSH1 0x20 ADD SWAP1 PUSH1 0x1 SWAP1 SUB SWAP1 DUP2 PUSH2 0x1F6 JUMPI SWAP1 POP JUMPDEST POP SWAP1 POP PUSH1 0x0 PUSH1 0x1 SWAP1 POP JUMPDEST PUSH2 0x223 PUSH2 0x683 JUMP JUMPDEST PUSH20 0xFFFFFFFFFFFFFFFFFFFFFFFFFFFFFFFFFFFFFFFF AND PUSH4 0xFD82E9DD PUSH32 0x8E1604A838D0F1A9B2CDA14A099E4CEB08E966CC6E05E8296F67B02D61A79F09 PUSH1 0x0 SHL PUSH1 0x40 MLOAD DUP3 PUSH4 0xFFFFFFFF AND PUSH1 0xE0 SHL DUP2 MSTORE PUSH1 0x4 ADD PUSH2 0x27E SWAP2 SWAP1 PUSH2 0xAC6 JUMP JUMPDEST PUSH1 0x20 PUSH1 0x40 MLOAD DUP1 DUP4 SUB DUP2 DUP7 GAS STATICCALL ISZERO DUP1 ISZERO PUSH2 0x29B JUMPI RETURNDATASIZE PUSH1 0x0 DUP1 RETURNDATACOPY RETURNDATASIZE PUSH1 0x0 REVERT JUMPDEST POP POP POP POP PUSH1 0x40 MLOAD RETURNDATASIZE PUSH1 0x1F NOT PUSH1 0x1F DUP3 ADD AND DUP3 ADD DUP1 PUSH1 0x40 MSTORE POP DUP2 ADD SWAP1 PUSH2 0x2BF SWAP2 SWAP1 PUSH2 0xAF6 JUMP JUMPDEST DUP2 GT PUSH2 0x39C JUMPI PUSH2 0x2CD PUSH2 0x683 JUMP JUMPDEST PUSH20 0xFFFFFFFFFFFFFFFFFFFFFFFFFFFFFFFFFFFFFFFF AND PUSH4 0xC78A6741 DUP3 PUSH32 0x8E1604A838D0F1A9B2CDA14A099E4CEB08E966CC6E05E8296F67B02D61A79F09 PUSH1 0x0 SHL PUSH1 0x40 MLOAD DUP4 PUSH4 0xFFFFFFFF AND PUSH1 0xE0 SHL DUP2 MSTORE PUSH1 0x4 ADD PUSH2 0x32A SWAP3 SWAP2 SWAP1 PUSH2 0xB61 JUMP JUMPDEST PUSH1 0x60 PUSH1 0x40 MLOAD DUP1 DUP4 SUB DUP2 DUP7 GAS STATICCALL ISZERO DUP1 ISZERO PUSH2 0x347 JUMPI RETURNDATASIZE PUSH1 0x0 DUP1 RETURNDATACOPY RETURNDATASIZE PUSH1 0x0 REVERT JUMPDEST POP POP POP POP PUSH1 0x40 MLOAD RETURNDATASIZE PUSH1 0x1F NOT PUSH1 0x1F DUP3 ADD AND DUP3 ADD DUP1 PUSH1 0x40 MSTORE POP DUP2 ADD SWAP1 PUSH2 0x36B SWAP2 SWAP1 PUSH2 0xC65 JUMP JUMPDEST DUP3 DUP3 DUP2 MLOAD DUP2 LT PUSH2 0x37E JUMPI PUSH2 0x37D PUSH2 0xC92 JUMP JUMPDEST JUMPDEST PUSH1 0x20 MUL PUSH1 0x20 ADD ADD DUP2 SWAP1 MSTORE POP DUP1 DUP1 PUSH2 0x394 SWAP1 PUSH2 0xCF0 JUMP JUMPDEST SWAP2 POP POP PUSH2 0x21B JUMP JUMPDEST POP DUP1 SWAP2 POP POP SWAP1 JUMP JUMPDEST PUSH1 0x0 DUP1 PUSH1 0x1 PUSH1 0x0 SWAP1 SLOAD SWAP1 PUSH2 0x100 EXP SWAP1 DIV PUSH20 0xFFFFFFFFFFFFFFFFFFFFFFFFFFFFFFFFFFFFFFFF AND PUSH20 0xFFFFFFFFFFFFFFFFFFFFFFFFFFFFFFFFFFFFFFFF AND PUSH4 0x56EE78B5 CALLER PUSH32 0x8E1604A838D0F1A9B2CDA14A099E4CEB08E966CC6E05E8296F67B02D61A79F09 PUSH1 0x0 SHL PUSH1 0x40 MLOAD DUP4 PUSH4 0xFFFFFFFF AND PUSH1 0xE0 SHL DUP2 MSTORE PUSH1 0x4 ADD PUSH2 0x427 SWAP3 SWAP2 SWAP1 PUSH2 0xD38 JUMP JUMPDEST PUSH1 0x20 PUSH1 0x40 MLOAD DUP1 DUP4 SUB DUP2 DUP7 GAS STATICCALL ISZERO DUP1 ISZERO PUSH2 0x444 JUMPI RETURNDATASIZE PUSH1 0x0 DUP1 RETURNDATACOPY RETURNDATASIZE PUSH1 0x0 REVERT JUMPDEST POP POP POP POP PUSH1 0x40 MLOAD RETURNDATASIZE PUSH1 0x1F NOT PUSH1 0x1F DUP3 ADD AND DUP3 ADD DUP1 PUSH1 0x40 MSTORE POP DUP2 ADD SWAP1 PUSH2 0x468 SWAP2 SWAP1 PUSH2 0xAF6 JUMP JUMPDEST SWAP1 POP PUSH1 0x0 DUP2 GT ISZERO PUSH2 0x47D JUMPI PUSH1 0x1 SWAP2 POP POP PUSH2 0x483 JUMP JUMPDEST PUSH1 0x0 SWAP2 POP POP JUMPDEST SWAP1 JUMP JUMPDEST PUSH2 0x48E PUSH2 0x6AD JUMP JUMPDEST ADDRESS PUSH20 0xFFFFFFFFFFFFFFFFFFFFFFFFFFFFFFFFFFFFFFFF AND SELFDESTRUCT JUMPDEST PUSH1 0x0 DUP1 PUSH1 0x0 SWAP1 SLOAD SWAP1 PUSH2 0x100 EXP SWAP1 DIV PUSH20 0xFFFFFFFFFFFFFFFFFFFFFFFFFFFFFFFFFFFFFFFF AND SWAP1 POP SWAP1 JUMP JUMPDEST PUSH1 0x0 PUSH2 0x4DA PUSH2 0x3A4 JUMP JUMPDEST ISZERO PUSH2 0x51A JUMPI PUSH1 0x40 MLOAD PUSH32 0x8C379A000000000000000000000000000000000000000000000000000000000 DUP2 MSTORE PUSH1 0x4 ADD PUSH2 0x511 SWAP1 PUSH2 0xDE4 JUMP JUMPDEST PUSH1 0x40 MLOAD DUP1 SWAP2 SUB SWAP1 REVERT JUMPDEST PUSH1 0x0 PUSH1 0x40 MLOAD DUP1 PUSH1 0x60 ADD PUSH1 0x40 MSTORE DUP1 PUSH1 0x0 DUP2 MSTORE PUSH1 0x20 ADD CALLER PUSH20 0xFFFFFFFFFFFFFFFFFFFFFFFFFFFFFFFFFFFFFFFF AND DUP2 MSTORE PUSH1 0x20 ADD DUP5 DUP2 MSTORE POP SWAP1 POP PUSH2 0x558 PUSH2 0x683 JUMP JUMPDEST PUSH20 0xFFFFFFFFFFFFFFFFFFFFFFFFFFFFFFFFFFFFFFFF AND PUSH4 0x3CE17585 DUP3 PUSH32 0x8E1604A838D0F1A9B2CDA14A099E4CEB08E966CC6E05E8296F67B02D61A79F09 PUSH1 0x0 SHL PUSH1 0x40 MLOAD DUP4 PUSH4 0xFFFFFFFF AND PUSH1 0xE0 SHL DUP2 MSTORE PUSH1 0x4 ADD PUSH2 0x5B5 SWAP3 SWAP2 SWAP1 PUSH2 0xE46 JUMP JUMPDEST PUSH1 0x20 PUSH1 0x40 MLOAD DUP1 DUP4 SUB DUP2 PUSH1 0x0 DUP8 GAS CALL ISZERO DUP1 ISZERO PUSH2 0x5D4 JUMPI RETURNDATASIZE PUSH1 0x0 DUP1 RETURNDATACOPY RETURNDATASIZE PUSH1 0x0 REVERT JUMPDEST POP POP POP POP PUSH1 0x40 MLOAD RETURNDATASIZE PUSH1 0x1F NOT PUSH1 0x1F DUP3 ADD AND DUP3 ADD DUP1 PUSH1 0x40 MSTORE POP DUP2 ADD SWAP1 PUSH2 0x5F8 SWAP2 SWAP1 PUSH2 0xE9B JUMP JUMPDEST SWAP2 POP POP SWAP2 SWAP1 POP JUMP JUMPDEST PUSH2 0x608 PUSH2 0x6AD JUMP JUMPDEST PUSH1 0x0 PUSH20 0xFFFFFFFFFFFFFFFFFFFFFFFFFFFFFFFFFFFFFFFF AND DUP2 PUSH20 0xFFFFFFFFFFFFFFFFFFFFFFFFFFFFFFFFFFFFFFFF AND SUB PUSH2 0x677 JUMPI PUSH1 0x40 MLOAD PUSH32 0x8C379A000000000000000000000000000000000000000000000000000000000 DUP2 MSTORE PUSH1 0x4 ADD PUSH2 0x66E SWAP1 PUSH2 0xF3A JUMP JUMPDEST PUSH1 0x40 MLOAD DUP1 SWAP2 SUB SWAP1 REVERT JUMPDEST PUSH2 0x680 DUP2 PUSH2 0x724 JUMP JUMPDEST POP JUMP JUMPDEST PUSH1 0x0 PUSH1 0x1 PUSH1 0x0 SWAP1 SLOAD SWAP1 PUSH2 0x100 EXP SWAP1 DIV PUSH20 0xFFFFFFFFFFFFFFFFFFFFFFFFFFFFFFFFFFFFFFFF AND SWAP1 POP SWAP1 JUMP JUMPDEST CALLER PUSH20 0xFFFFFFFFFFFFFFFFFFFFFFFFFFFFFFFFFFFFFFFF AND PUSH2 0x6CC PUSH2 0x4A7 JUMP JUMPDEST PUSH20 0xFFFFFFFFFFFFFFFFFFFFFFFFFFFFFFFFFFFFFFFF AND EQ PUSH2 0x722 JUMPI PUSH1 0x40 MLOAD PUSH32 0x8C379A000000000000000000000000000000000000000000000000000000000 DUP2 MSTORE PUSH1 0x4 ADD PUSH2 0x719 SWAP1 PUSH2 0xFA6 JUMP JUMPDEST PUSH1 0x40 MLOAD DUP1 SWAP2 SUB SWAP1 REVERT JUMPDEST JUMP JUMPDEST PUSH1 0x0 DUP1 PUSH1 0x0 SWAP1 SLOAD SWAP1 PUSH2 0x100 EXP SWAP1 DIV PUSH20 0xFFFFFFFFFFFFFFFFFFFFFFFFFFFFFFFFFFFFFFFF AND SWAP1 POP DUP2 PUSH1 0x0 DUP1 PUSH2 0x100 EXP DUP2 SLOAD DUP2 PUSH20 0xFFFFFFFFFFFFFFFFFFFFFFFFFFFFFFFFFFFFFFFF MUL NOT AND SWAP1 DUP4 PUSH20 0xFFFFFFFFFFFFFFFFFFFFFFFFFFFFFFFFFFFFFFFF AND MUL OR SWAP1 SSTORE POP DUP2 PUSH20 0xFFFFFFFFFFFFFFFFFFFFFFFFFFFFFFFFFFFFFFFF AND DUP2 PUSH20 0xFFFFFFFFFFFFFFFFFFFFFFFFFFFFFFFFFFFFFFFF AND PUSH32 0x8BE0079C531659141344CD1FD0A4F28419497F9722A3DAAFE3B4186F6B6457E0 PUSH1 0x40 MLOAD PUSH1 0x40 MLOAD DUP1 SWAP2 SUB SWAP1 LOG3 POP POP JUMP JUMPDEST PUSH1 0x40 MLOAD DUP1 PUSH1 0x60 ADD PUSH1 0x40 MSTORE DUP1 PUSH1 0x0 DUP2 MSTORE PUSH1 0x20 ADD PUSH1 0x0 PUSH20 0xFFFFFFFFFFFFFFFFFFFFFFFFFFFFFFFFFFFFFFFF AND DUP2 MSTORE PUSH1 0x20 ADD PUSH1 0x0 DUP2 MSTORE POP SWAP1 JUMP JUMPDEST PUSH1 0x0 DUP2 MLOAD SWAP1 POP SWAP2 SWAP1 POP JUMP JUMPDEST PUSH1 0x0 DUP3 DUP3 MSTORE PUSH1 0x20 DUP3 ADD SWAP1 POP SWAP3 SWAP2 POP POP JUMP JUMPDEST PUSH1 0x0 DUP2 SWAP1 POP PUSH1 0x20 DUP3 ADD SWAP1 POP SWAP2 SWAP1 POP JUMP JUMPDEST PUSH1 0x0 DUP2 SWAP1 POP SWAP2 SWAP1 POP JUMP JUMPDEST PUSH2 0x85E DUP2 PUSH2 0x84B JUMP JUMPDEST DUP3 MSTORE POP POP JUMP JUMPDEST PUSH1 0x0 PUSH20 0xFFFFFFFFFFFFFFFFFFFFFFFFFFFFFFFFFFFFFFFF DUP3 AND SWAP1 POP SWAP2 SWAP1 POP JUMP JUMPDEST PUSH1 0x0 PUSH2 0x88F DUP3 PUSH2 0x864 JUMP JUMPDEST SWAP1 POP SWAP2 SWAP1 POP JUMP JUMPDEST PUSH2 0x89F DUP2 PUSH2 0x884 JUMP JUMPDEST DUP3 MSTORE POP POP JUMP JUMPDEST PUSH1 0x60 DUP3 ADD PUSH1 0x0 DUP3 ADD MLOAD PUSH2 0x8BB PUSH1 0x0 DUP6 ADD DUP3 PUSH2 0x855 JUMP JUMPDEST POP PUSH1 0x20 DUP3 ADD MLOAD PUSH2 0x8CE PUSH1 0x20 DUP6 ADD DUP3 PUSH2 0x896 JUMP JUMPDEST POP PUSH1 0x40 DUP3 ADD MLOAD PUSH2 0x8E1 PUSH1 0x40 DUP6 ADD DUP3 PUSH2 0x855 JUMP JUMPDEST POP POP POP POP JUMP JUMPDEST PUSH1 0x0 PUSH2 0x8F3 DUP4 DUP4 PUSH2 0x8A5 JUMP JUMPDEST PUSH1 0x60 DUP4 ADD SWAP1 POP SWAP3 SWAP2 POP POP JUMP JUMPDEST PUSH1 0x0 PUSH1 0x20 DUP3 ADD SWAP1 POP SWAP2 SWAP1 POP JUMP JUMPDEST PUSH1 0x0 PUSH2 0x917 DUP3 PUSH2 0x81F JUMP JUMPDEST PUSH2 0x921 DUP2 DUP6 PUSH2 0x82A JUMP JUMPDEST SWAP4 POP PUSH2 0x92C DUP4 PUSH2 0x83B JUMP JUMPDEST DUP1 PUSH1 0x0 JUMPDEST DUP4 DUP2 LT ISZERO PUSH2 0x95D JUMPI DUP2 MLOAD PUSH2 0x944 DUP9 DUP3 PUSH2 0x8E7 JUMP JUMPDEST SWAP8 POP PUSH2 0x94F DUP4 PUSH2 0x8FF JUMP JUMPDEST SWAP3 POP POP PUSH1 0x1 DUP2 ADD SWAP1 POP PUSH2 0x930 JUMP JUMPDEST POP DUP6 SWAP4 POP POP POP POP SWAP3 SWAP2 POP POP JUMP JUMPDEST PUSH1 0x0 PUSH1 0x20 DUP3 ADD SWAP1 POP DUP2 DUP2 SUB PUSH1 0x0 DUP4 ADD MSTORE PUSH2 0x984 DUP2 DUP5 PUSH2 0x90C JUMP JUMPDEST SWAP1 POP SWAP3 SWAP2 POP POP JUMP JUMPDEST PUSH1 0x0 DUP2 ISZERO ISZERO SWAP1 POP SWAP2 SWAP1 POP JUMP JUMPDEST PUSH2 0x9A1 DUP2 PUSH2 0x98C JUMP JUMPDEST DUP3 MSTORE POP POP JUMP JUMPDEST PUSH1 0x0 PUSH1 0x20 DUP3 ADD SWAP1 POP PUSH2 0x9BC PUSH1 0x0 DUP4 ADD DUP5 PUSH2 0x998 JUMP JUMPDEST SWAP3 SWAP2 POP POP JUMP JUMPDEST PUSH2 0x9CB DUP2 PUSH2 0x884 JUMP JUMPDEST DUP3 MSTORE POP POP JUMP JUMPDEST PUSH1 0x0 PUSH1 0x20 DUP3 ADD SWAP1 POP PUSH2 0x9E6 PUSH1 0x0 DUP4 ADD DUP5 PUSH2 0x9C2 JUMP JUMPDEST SWAP3 SWAP2 POP POP JUMP JUMPDEST PUSH1 0x0 PUSH1 0x40 MLOAD SWAP1 POP SWAP1 JUMP JUMPDEST PUSH1 0x0 DUP1 REVERT JUMPDEST PUSH2 0xA04 DUP2 PUSH2 0x84B JUMP JUMPDEST DUP2 EQ PUSH2 0xA0F JUMPI PUSH1 0x0 DUP1 REVERT JUMPDEST POP JUMP JUMPDEST PUSH1 0x0 DUP2 CALLDATALOAD SWAP1 POP PUSH2 0xA21 DUP2 PUSH2 0x9FB JUMP JUMPDEST SWAP3 SWAP2 POP POP JUMP JUMPDEST PUSH1 0x0 PUSH1 0x20 DUP3 DUP5 SUB SLT ISZERO PUSH2 0xA3D JUMPI PUSH2 0xA3C PUSH2 0x9F6 JUMP JUMPDEST JUMPDEST PUSH1 0x0 PUSH2 0xA4B DUP5 DUP3 DUP6 ADD PUSH2 0xA12 JUMP JUMPDEST SWAP2 POP POP SWAP3 SWAP2 POP POP JUMP JUMPDEST PUSH2 0xA5D DUP2 PUSH2 0x884 JUMP JUMPDEST DUP2 EQ PUSH2 0xA68 JUMPI PUSH1 0x0 DUP1 REVERT JUMPDEST POP JUMP JUMPDEST PUSH1 0x0 DUP2 CALLDATALOAD SWAP1 POP PUSH2 0xA7A DUP2 PUSH2 0xA54 JUMP JUMPDEST SWAP3 SWAP2 POP POP JUMP JUMPDEST PUSH1 0x0 PUSH1 0x20 DUP3 DUP5 SUB SLT ISZERO PUSH2 0xA96 JUMPI PUSH2 0xA95 PUSH2 0x9F6 JUMP JUMPDEST JUMPDEST PUSH1 0x0 PUSH2 0xAA4 DUP5 DUP3 DUP6 ADD PUSH2 0xA6B JUMP JUMPDEST SWAP2 POP POP SWAP3 SWAP2 POP POP JUMP JUMPDEST PUSH1 0x0 DUP2 SWAP1 POP SWAP2 SWAP1 POP JUMP JUMPDEST PUSH2 0xAC0 DUP2 PUSH2 0xAAD JUMP JUMPDEST DUP3 MSTORE POP POP JUMP JUMPDEST PUSH1 0x0 PUSH1 0x20 DUP3 ADD SWAP1 POP PUSH2 0xADB PUSH1 0x0 DUP4 ADD DUP5 PUSH2 0xAB7 JUMP JUMPDEST SWAP3 SWAP2 POP POP JUMP JUMPDEST PUSH1 0x0 DUP2 MLOAD SWAP1 POP PUSH2 0xAF0 DUP2 PUSH2 0x9FB JUMP JUMPDEST SWAP3 SWAP2 POP POP JUMP JUMPDEST PUSH1 0x0 PUSH1 0x20 DUP3 DUP5 SUB SLT ISZERO PUSH2 0xB0C JUMPI PUSH2 0xB0B PUSH2 0x9F6 JUMP JUMPDEST JUMPDEST PUSH1 0x0 PUSH2 0xB1A DUP5 DUP3 DUP6 ADD PUSH2 0xAE1 JUMP JUMPDEST SWAP2 POP POP SWAP3 SWAP2 POP POP JUMP JUMPDEST PUSH32 0x4E487B7100000000000000000000000000000000000000000000000000000000 PUSH1 0x0 MSTORE PUSH1 0x41 PUSH1 0x4 MSTORE PUSH1 0x24 PUSH1 0x0 REVERT JUMPDEST PUSH2 0xB5B DUP2 PUSH2 0x84B JUMP JUMPDEST DUP3 MSTORE POP POP JUMP JUMPDEST PUSH1 0x0 PUSH1 0x40 DUP3 ADD SWAP1 POP PUSH2 0xB76 PUSH1 0x0 DUP4 ADD DUP6 PUSH2 0xB52 JUMP JUMPDEST PUSH2 0xB83 PUSH1 0x20 DUP4 ADD DUP5 PUSH2 0xAB7 JUMP JUMPDEST SWAP4 SWAP3 POP POP POP JUMP JUMPDEST PUSH1 0x0 DUP1 REVERT JUMPDEST PUSH1 0x0 PUSH1 0x1F NOT PUSH1 0x1F DUP4 ADD AND SWAP1 POP SWAP2 SWAP1 POP JUMP JUMPDEST PUSH2 0xBA9 DUP3 PUSH2 0xB8F JUMP JUMPDEST DUP2 ADD DUP2 DUP2 LT PUSH8 0xFFFFFFFFFFFFFFFF DUP3 GT OR ISZERO PUSH2 0xBC8 JUMPI PUSH2 0xBC7 PUSH2 0xB23 JUMP JUMPDEST JUMPDEST DUP1 PUSH1 0x40 MSTORE POP POP POP JUMP JUMPDEST PUSH1 0x0 PUSH2 0xBDB PUSH2 0x9EC JUMP JUMPDEST SWAP1 POP PUSH2 0xBE7 DUP3 DUP3 PUSH2 0xBA0 JUMP JUMPDEST SWAP2 SWAP1 POP JUMP JUMPDEST PUSH1 0x0 DUP2 MLOAD SWAP1 POP PUSH2 0xBFB DUP2 PUSH2 0xA54 JUMP JUMPDEST SWAP3 SWAP2 POP POP JUMP JUMPDEST PUSH1 0x0 PUSH1 0x60 DUP3 DUP5 SUB SLT ISZERO PUSH2 0xC17 JUMPI PUSH2 0xC16 PUSH2 0xB8A JUMP JUMPDEST JUMPDEST PUSH2 0xC21 PUSH1 0x60 PUSH2 0xBD1 JUMP JUMPDEST SWAP1 POP PUSH1 0x0 PUSH2 0xC31 DUP5 DUP3 DUP6 ADD PUSH2 0xAE1 JUMP JUMPDEST PUSH1 0x0 DUP4 ADD MSTORE POP PUSH1 0x20 PUSH2 0xC45 DUP5 DUP3 DUP6 ADD PUSH2 0xBEC JUMP JUMPDEST PUSH1 0x20 DUP4 ADD MSTORE POP PUSH1 0x40 PUSH2 0xC59 DUP5 DUP3 DUP6 ADD PUSH2 0xAE1 JUMP JUMPDEST PUSH1 0x40 DUP4 ADD MSTORE POP SWAP3 SWAP2 POP POP JUMP JUMPDEST PUSH1 0x0 PUSH1 0x60 DUP3 DUP5 SUB SLT ISZERO PUSH2 0xC7B JUMPI PUSH2 0xC7A PUSH2 0x9F6 JUMP JUMPDEST JUMPDEST PUSH1 0x0 PUSH2 0xC89 DUP5 DUP3 DUP6 ADD PUSH2 0xC01 JUMP JUMPDEST SWAP2 POP POP SWAP3 SWAP2 POP POP JUMP JUMPDEST PUSH32 0x4E487B7100000000000000000000000000000000000000000000000000000000 PUSH1 0x0 MSTORE PUSH1 0x32 PUSH1 0x4 MSTORE PUSH1 0x24 PUSH1 0x0 REVERT JUMPDEST PUSH32 0x4E487B7100000000000000000000000000000000000000000000000000000000 PUSH1 0x0 MSTORE PUSH1 0x11 PUSH1 0x4 MSTORE PUSH1 0x24 PUSH1 0x0 REVERT JUMPDEST PUSH1 0x0 PUSH2 0xCFB DUP3 PUSH2 0x84B JUMP JUMPDEST SWAP2 POP PUSH32 0xFFFFFFFFFFFFFFFFFFFFFFFFFFFFFFFFFFFFFFFFFFFFFFFFFFFFFFFFFFFFFFFF DUP3 SUB PUSH2 0xD2D JUMPI PUSH2 0xD2C PUSH2 0xCC1 JUMP JUMPDEST JUMPDEST PUSH1 0x1 DUP3 ADD SWAP1 POP SWAP2 SWAP1 POP JUMP JUMPDEST PUSH1 0x0 PUSH1 0x40 DUP3 ADD SWAP1 POP PUSH2 0xD4D PUSH1 0x0 DUP4 ADD DUP6 PUSH2 0x9C2 JUMP JUMPDEST PUSH2 0xD5A PUSH1 0x20 DUP4 ADD DUP5 PUSH2 0xAB7 JUMP JUMPDEST SWAP4 SWAP3 POP POP POP JUMP JUMPDEST PUSH1 0x0 DUP3 DUP3 MSTORE PUSH1 0x20 DUP3 ADD SWAP1 POP SWAP3 SWAP2 POP POP JUMP JUMPDEST PUSH32 0x4C697374486172766573746572437572736F723A20416C726561647920657869 PUSH1 0x0 DUP3 ADD MSTORE PUSH32 0x73746564206163636F756E740000000000000000000000000000000000000000 PUSH1 0x20 DUP3 ADD MSTORE POP JUMP JUMPDEST PUSH1 0x0 PUSH2 0xDCE PUSH1 0x2C DUP4 PUSH2 0xD61 JUMP JUMPDEST SWAP2 POP PUSH2 0xDD9 DUP3 PUSH2 0xD72 JUMP JUMPDEST PUSH1 0x40 DUP3 ADD SWAP1 POP SWAP2 SWAP1 POP JUMP JUMPDEST PUSH1 0x0 PUSH1 0x20 DUP3 ADD SWAP1 POP DUP2 DUP2 SUB PUSH1 0x0 DUP4 ADD MSTORE PUSH2 0xDFD DUP2 PUSH2 0xDC1 JUMP JUMPDEST SWAP1 POP SWAP2 SWAP1 POP JUMP JUMPDEST PUSH1 0x60 DUP3 ADD PUSH1 0x0 DUP3 ADD MLOAD PUSH2 0xE1A PUSH1 0x0 DUP6 ADD DUP3 PUSH2 0x855 JUMP JUMPDEST POP PUSH1 0x20 DUP3 ADD MLOAD PUSH2 0xE2D PUSH1 0x20 DUP6 ADD DUP3 PUSH2 0x896 JUMP JUMPDEST POP PUSH1 0x40 DUP3 ADD MLOAD PUSH2 0xE40 PUSH1 0x40 DUP6 ADD DUP3 PUSH2 0x855 JUMP JUMPDEST POP POP POP POP JUMP JUMPDEST PUSH1 0x0 PUSH1 0x80 DUP3 ADD SWAP1 POP PUSH2 0xE5B PUSH1 0x0 DUP4 ADD DUP6 PUSH2 0xE04 JUMP JUMPDEST PUSH2 0xE68 PUSH1 0x60 DUP4 ADD DUP5 PUSH2 0xAB7 JUMP JUMPDEST SWAP4 SWAP3 POP POP POP JUMP JUMPDEST PUSH2 0xE78 DUP2 PUSH2 0x98C JUMP JUMPDEST DUP2 EQ PUSH2 0xE83 JUMPI PUSH1 0x0 DUP1 REVERT JUMPDEST POP JUMP JUMPDEST PUSH1 0x0 DUP2 MLOAD SWAP1 POP PUSH2 0xE95 DUP2 PUSH2 0xE6F JUMP JUMPDEST SWAP3 SWAP2 POP POP JUMP JUMPDEST PUSH1 0x0 PUSH1 0x20 DUP3 DUP5 SUB SLT ISZERO PUSH2 0xEB1 JUMPI PUSH2 0xEB0 PUSH2 0x9F6 JUMP JUMPDEST JUMPDEST PUSH1 0x0 PUSH2 0xEBF DUP5 DUP3 DUP6 ADD PUSH2 0xE86 JUMP JUMPDEST SWAP2 POP POP SWAP3 SWAP2 POP POP JUMP JUMPDEST PUSH32 0x4F776E61626C653A206E6577206F776E657220697320746865207A65726F2061 PUSH1 0x0 DUP3 ADD MSTORE PUSH32 0x6464726573730000000000000000000000000000000000000000000000000000 PUSH1 0x20 DUP3 ADD MSTORE POP JUMP JUMPDEST PUSH1 0x0 PUSH2 0xF24 PUSH1 0x26 DUP4 PUSH2 0xD61 JUMP JUMPDEST SWAP2 POP PUSH2 0xF2F DUP3 PUSH2 0xEC8 JUMP JUMPDEST PUSH1 0x40 DUP3 ADD SWAP1 POP SWAP2 SWAP1 POP JUMP JUMPDEST PUSH1 0x0 PUSH1 0x20 DUP3 ADD SWAP1 POP DUP2 DUP2 SUB PUSH1 0x0 DUP4 ADD MSTORE PUSH2 0xF53 DUP2 PUSH2 0xF17 JUMP JUMPDEST SWAP1 POP SWAP2 SWAP1 POP JUMP JUMPDEST PUSH32 0x4F776E61626C653A2063616C6C6572206973206E6F7420746865206F776E6572 PUSH1 0x0 DUP3 ADD MSTORE POP JUMP JUMPDEST PUSH1 0x0 PUSH2 0xF90 PUSH1 0x20 DUP4 PUSH2 0xD61 JUMP JUMPDEST SWAP2 POP PUSH2 0xF9B DUP3 PUSH2 0xF5A JUMP JUMPDEST PUSH1 0x20 DUP3 ADD SWAP1 POP SWAP2 SWAP1 POP JUMP JUMPDEST PUSH1 0x0 PUSH1 0x20 DUP3 ADD SWAP1 POP DUP2 DUP2 SUB PUSH1 0x0 DUP4 ADD MSTORE PUSH2 0xFBF DUP2 PUSH2 0xF83 JUMP JUMPDEST SWAP1 POP SWAP2 SWAP1 POP JUMP INVALID LOG2 PUSH5 0x6970667358 0x22 SLT KECCAK256 0xBE 0xAF PUSH30 0xD141B98D4C8262C64D33A617C2FB78145BAEC35931BFC5512B1A0E86F064 PUSH20 0x6F6C634300081100330000000000000000000000 "
				},
				"gasEstimates": {
					"creation": {
						"codeDepositCost": "818400",
						"executionCost": "infinite",
						"totalCost": "infinite"
					},
					"external": {
						"_checkExistHarvesterAccount()": "infinite",
						"addHarvester(uint256)": "infinite",
						"destroy()": "29994",
						"getAllHarvester()": "infinite",
						"owner()": "2566",
						"transferOwnership(address)": "30797"
					}
				},
				"methodIdentifiers": {
					"_checkExistHarvesterAccount()": "7faaf3c1",
					"addHarvester(uint256)": "9338cc13",
					"destroy()": "83197ef0",
					"getAllHarvester()": "21eb539e",
					"owner()": "8da5cb5b",
					"transferOwnership(address)": "f2fde38b"
				}
			},
			"storageLayout": {
				"storage": [
					{
						"astId": 4,
						"contract": "controller/farmer/HarvesterController.sol:HarvesterController",
						"label": "_owner",
						"offset": 0,
						"slot": "0",
						"type": "t_address"
					},
					{
						"astId": 236,
						"contract": "controller/farmer/HarvesterController.sol:HarvesterController",
						"label": "listHarvesterCursor",
						"offset": 0,
						"slot": "1",
						"type": "t_contract(ListHarvester)623"
					},
					{
						"astId": 238,
						"contract": "controller/farmer/HarvesterController.sol:HarvesterController",
						"label": "listHarvesterAddress",
						"offset": 0,
						"slot": "2",
						"type": "t_address"
					}
				],
				"types": {
					"t_address": {
						"encoding": "inplace",
						"label": "address",
						"numberOfBytes": "20"
					},
					"t_contract(ListHarvester)623": {
						"encoding": "inplace",
						"label": "contract ListHarvester",
						"numberOfBytes": "20"
					}
				}
			},
			"userdoc": {
				"kind": "user",
				"methods": {},
				"version": 1
			}
		}
	}
}