{
	"database/farmer/ListFarmer.sol": {
		"ListFarmer": {
			"abi": [
				{
					"inputs": [],
					"stateMutability": "nonpayable",
					"type": "constructor"
				},
				{
					"anonymous": false,
					"inputs": [
						{
							"components": [
								{
									"internalType": "uint256",
									"name": "farmerId",
									"type": "uint256"
								},
								{
									"internalType": "address",
									"name": "farmerAddress",
									"type": "address"
								},
								{
									"internalType": "uint256",
									"name": "category",
									"type": "uint256"
								}
							],
							"indexed": false,
							"internalType": "struct Farmer",
							"name": "item",
							"type": "tuple"
						}
					],
					"name": "Add",
					"type": "event"
				},
				{
					"anonymous": false,
					"inputs": [
						{
							"indexed": true,
							"internalType": "address",
							"name": "previousOwner",
							"type": "address"
						},
						{
							"indexed": true,
							"internalType": "address",
							"name": "newOwner",
							"type": "address"
						}
					],
					"name": "OwnershipTransferred",
					"type": "event"
				},
				{
					"anonymous": false,
					"inputs": [
						{
							"components": [
								{
									"internalType": "uint256",
									"name": "farmerId",
									"type": "uint256"
								},
								{
									"internalType": "address",
									"name": "farmerAddress",
									"type": "address"
								},
								{
									"internalType": "uint256",
									"name": "category",
									"type": "uint256"
								}
							],
							"indexed": false,
							"internalType": "struct Farmer",
							"name": "item",
							"type": "tuple"
						}
					],
					"name": "Remove",
					"type": "event"
				},
				{
					"inputs": [
						{
							"components": [
								{
									"internalType": "uint256",
									"name": "farmerId",
									"type": "uint256"
								},
								{
									"internalType": "address",
									"name": "farmerAddress",
									"type": "address"
								},
								{
									"internalType": "uint256",
									"name": "category",
									"type": "uint256"
								}
							],
							"internalType": "struct Farmer",
							"name": "item",
							"type": "tuple"
						},
						{
							"internalType": "bytes32",
							"name": "secret",
							"type": "bytes32"
						}
					],
					"name": "add",
					"outputs": [
						{
							"internalType": "bool",
							"name": "",
							"type": "bool"
						}
					],
					"stateMutability": "nonpayable",
					"type": "function"
				},
				{
					"inputs": [
						{
							"internalType": "uint256",
							"name": "index",
							"type": "uint256"
						},
						{
							"internalType": "bytes32",
							"name": "secret",
							"type": "bytes32"
						}
					],
					"name": "at",
					"outputs": [
						{
							"components": [
								{
									"internalType": "uint256",
									"name": "farmerId",
									"type": "uint256"
								},
								{
									"internalType": "address",
									"name": "farmerAddress",
									"type": "address"
								},
								{
									"internalType": "uint256",
									"name": "category",
									"type": "uint256"
								}
							],
							"internalType": "struct Farmer",
							"name": "",
							"type": "tuple"
						}
					],
					"stateMutability": "view",
					"type": "function"
				},
				{
					"inputs": [],
					"name": "destroy",
					"outputs": [],
					"stateMutability": "nonpayable",
					"type": "function"
				},
				{
					"inputs": [
						{
							"internalType": "address",
							"name": "value",
							"type": "address"
						},
						{
							"internalType": "bytes32",
							"name": "secret",
							"type": "bytes32"
						}
					],
					"name": "findFarmerIdByAddress",
					"outputs": [
						{
							"internalType": "uint256",
							"name": "",
							"type": "uint256"
						}
					],
					"stateMutability": "view",
					"type": "function"
				},
				{
					"inputs": [
						{
							"internalType": "bytes32",
							"name": "secret",
							"type": "bytes32"
						}
					],
					"name": "getLength",
					"outputs": [
						{
							"internalType": "uint256",
							"name": "",
							"type": "uint256"
						}
					],
					"stateMutability": "view",
					"type": "function"
				},
				{
					"inputs": [
						{
							"internalType": "uint256",
							"name": "index",
							"type": "uint256"
						},
						{
							"internalType": "bytes32",
							"name": "secret",
							"type": "bytes32"
						}
					],
					"name": "hide",
					"outputs": [
						{
							"internalType": "bool",
							"name": "",
							"type": "bool"
						}
					],
					"stateMutability": "nonpayable",
					"type": "function"
				},
				{
					"inputs": [],
					"name": "owner",
					"outputs": [
						{
							"internalType": "address",
							"name": "",
							"type": "address"
						}
					],
					"stateMutability": "view",
					"type": "function"
				},
				{
					"inputs": [
						{
							"internalType": "uint256",
							"name": "index",
							"type": "uint256"
						},
						{
							"internalType": "bytes32",
							"name": "secret",
							"type": "bytes32"
						},
						{
							"internalType": "uint256",
							"name": "value",
							"type": "uint256"
						}
					],
					"name": "setCategory",
					"outputs": [
						{
							"internalType": "bool",
							"name": "",
							"type": "bool"
						}
					],
					"stateMutability": "nonpayable",
					"type": "function"
				},
				{
					"inputs": [
						{
							"internalType": "address",
							"name": "newOwner",
							"type": "address"
						}
					],
					"name": "transferOwnership",
					"outputs": [],
					"stateMutability": "nonpayable",
					"type": "function"
				}
			],
			"devdoc": {
				"kind": "dev",
				"methods": {
					"owner()": {
						"details": "Returns the address of the current owner."
					},
					"transferOwnership(address)": {
						"details": "Transfers ownership of the contract to a new account (`newOwner`). Can only be called by the current owner."
					}
				},
				"version": 1
			},
			"evm": {
				"assembly": "    /* \"database/farmer/ListFarmer.sol\":235:2426  contract ListFarmer is Ownable {... */\n  mstore(0x40, 0x80)\n    /* \"database/farmer/ListFarmer.sol\":349:350  0 */\n  0x00\n    /* \"database/farmer/ListFarmer.sol\":317:350  uint256 private autoIncrement = 0 */\n  0x02\n  sstore\n    /* \"database/farmer/ListFarmer.sol\":357:383  constructor() Ownable() {} */\n  callvalue\n  dup1\n  iszero\n  tag_1\n  jumpi\n  0x00\n  dup1\n  revert\ntag_1:\n  pop\n    /* \"abstract/Ownable.sol\":932:942  msg.sender */\n  caller\n    /* \"abstract/Ownable.sol\":923:929  _owner */\n  0x00\n  dup1\n    /* \"abstract/Ownable.sol\":923:942  _owner = msg.sender */\n  0x0100\n  exp\n  dup2\n  sload\n  dup2\n  0xffffffffffffffffffffffffffffffffffffffff\n  mul\n  not\n  and\n  swap1\n  dup4\n  0xffffffffffffffffffffffffffffffffffffffff\n  and\n  mul\n  or\n  swap1\n  sstore\n  pop\n    /* \"database/farmer/ListFarmer.sol\":235:2426  contract ListFarmer is Ownable {... */\n  dataSize(sub_0)\n  dup1\n  dataOffset(sub_0)\n  0x00\n  codecopy\n  0x00\n  return\nstop\n\nsub_0: assembly {\n        /* \"database/farmer/ListFarmer.sol\":235:2426  contract ListFarmer is Ownable {... */\n      mstore(0x40, 0x80)\n      callvalue\n      dup1\n      iszero\n      tag_1\n      jumpi\n      0x00\n      dup1\n      revert\n    tag_1:\n      pop\n      jumpi(tag_2, lt(calldatasize, 0x04))\n      shr(0xe0, calldataload(0x00))\n      dup1\n      0x8da5cb5b\n      gt\n      tag_12\n      jumpi\n      dup1\n      0x8da5cb5b\n      eq\n      tag_7\n      jumpi\n      dup1\n      0xb615c00a\n      eq\n      tag_8\n      jumpi\n      dup1\n      0xc78a6741\n      eq\n      tag_9\n      jumpi\n      dup1\n      0xf2fde38b\n      eq\n      tag_10\n      jumpi\n      dup1\n      0xfd82e9dd\n      eq\n      tag_11\n      jumpi\n      jump(tag_2)\n    tag_12:\n      dup1\n      0x294b4b6b\n      eq\n      tag_3\n      jumpi\n      dup1\n      0x3ce17585\n      eq\n      tag_4\n      jumpi\n      dup1\n      0x64fb3c8e\n      eq\n      tag_5\n      jumpi\n      dup1\n      0x83197ef0\n      eq\n      tag_6\n      jumpi\n    tag_2:\n      0x00\n      dup1\n      revert\n        /* \"database/farmer/ListFarmer.sol\":2196:2424  function setCategory(... */\n    tag_3:\n      tag_13\n      0x04\n      dup1\n      calldatasize\n      sub\n      dup2\n      add\n      swap1\n      tag_14\n      swap2\n      swap1\n      tag_15\n      jump\t// in\n    tag_14:\n      tag_16\n      jump\t// in\n    tag_13:\n      mload(0x40)\n      tag_17\n      swap2\n      swap1\n      tag_18\n      jump\t// in\n    tag_17:\n      mload(0x40)\n      dup1\n      swap2\n      sub\n      swap1\n      return\n        /* \"database/farmer/ListFarmer.sol\":955:1231  function add(Farmer memory item, bytes32 secret)... */\n    tag_4:\n      tag_19\n      0x04\n      dup1\n      calldatasize\n      sub\n      dup2\n      add\n      swap1\n      tag_20\n      swap2\n      swap1\n      tag_21\n      jump\t// in\n    tag_20:\n      tag_22\n      jump\t// in\n    tag_19:\n      mload(0x40)\n      tag_23\n      swap2\n      swap1\n      tag_18\n      jump\t// in\n    tag_23:\n      mload(0x40)\n      dup1\n      swap2\n      sub\n      swap1\n      return\n        /* \"database/farmer/ListFarmer.sol\":1785:2101  function findFarmerIdByAddress(address value, bytes32 secret)... */\n    tag_5:\n      tag_24\n      0x04\n      dup1\n      calldatasize\n      sub\n      dup2\n      add\n      swap1\n      tag_25\n      swap2\n      swap1\n      tag_26\n      jump\t// in\n    tag_25:\n      tag_27\n      jump\t// in\n    tag_24:\n      mload(0x40)\n      tag_28\n      swap2\n      swap1\n      tag_29\n      jump\t// in\n    tag_28:\n      mload(0x40)\n      dup1\n      swap2\n      sub\n      swap1\n      return\n        /* \"abstract/Ownable.sol\":2642:2731  function destroy() public onlyOwner {... */\n    tag_6:\n      tag_30\n      tag_31\n      jump\t// in\n    tag_30:\n      stop\n        /* \"abstract/Ownable.sol\":1175:1260  function owner() public view virtual returns (address) {... */\n    tag_7:\n      tag_32\n      tag_33\n      jump\t// in\n    tag_32:\n      mload(0x40)\n      tag_34\n      swap2\n      swap1\n      tag_35\n      jump\t// in\n    tag_34:\n      mload(0x40)\n      dup1\n      swap2\n      sub\n      swap1\n      return\n        /* \"database/farmer/ListFarmer.sol\":1524:1779  function hide(uint256 index, bytes32 secret)... */\n    tag_8:\n      tag_36\n      0x04\n      dup1\n      calldatasize\n      sub\n      dup2\n      add\n      swap1\n      tag_37\n      swap2\n      swap1\n      tag_38\n      jump\t// in\n    tag_37:\n      tag_39\n      jump\t// in\n    tag_36:\n      mload(0x40)\n      tag_40\n      swap2\n      swap1\n      tag_18\n      jump\t// in\n    tag_40:\n      mload(0x40)\n      dup1\n      swap2\n      sub\n      swap1\n      return\n        /* \"database/farmer/ListFarmer.sol\":1237:1518  function at(uint256 index, bytes32 secret)... */\n    tag_9:\n      tag_41\n      0x04\n      dup1\n      calldatasize\n      sub\n      dup2\n      add\n      swap1\n      tag_42\n      swap2\n      swap1\n      tag_38\n      jump\t// in\n    tag_42:\n      tag_43\n      jump\t// in\n    tag_41:\n      mload(0x40)\n      tag_44\n      swap2\n      swap1\n      tag_45\n      jump\t// in\n    tag_44:\n      mload(0x40)\n      dup1\n      swap2\n      sub\n      swap1\n      return\n        /* \"abstract/Ownable.sol\":2063:2295  function transferOwnership(address newOwner) public virtual onlyOwner {... */\n    tag_10:\n      tag_46\n      0x04\n      dup1\n      calldatasize\n      sub\n      dup2\n      add\n      swap1\n      tag_47\n      swap2\n      swap1\n      tag_48\n      jump\t// in\n    tag_47:\n      tag_49\n      jump\t// in\n    tag_46:\n      stop\n        /* \"database/farmer/ListFarmer.sol\":786:949  function getLength(bytes32 secret)... */\n    tag_11:\n      tag_50\n      0x04\n      dup1\n      calldatasize\n      sub\n      dup2\n      add\n      swap1\n      tag_51\n      swap2\n      swap1\n      tag_52\n      jump\t// in\n    tag_51:\n      tag_53\n      jump\t// in\n    tag_50:\n      mload(0x40)\n      tag_54\n      swap2\n      swap1\n      tag_29\n      jump\t// in\n    tag_54:\n      mload(0x40)\n      dup1\n      swap2\n      sub\n      swap1\n      return\n        /* \"database/farmer/ListFarmer.sol\":2196:2424  function setCategory(... */\n    tag_16:\n        /* \"database/farmer/ListFarmer.sol\":2352:2356  bool */\n      0x00\n        /* \"database/farmer/ListFarmer.sol\":2317:2323  secret */\n      dup3\n        /* \"constant/SecretKey.sol\":232:298  0x8e1604a838d0f1a9b2cda14a099e4ceb08e966cc6e05e8296f67b02d61a79f09 */\n      0x8e1604a838d0f1a9b2cda14a099e4ceb08e966cc6e05e8296f67b02d61a79f09\n        /* \"database/farmer/ListFarmer.sol\":518:530  DATABASE_KEY */\n      0x00\n      shl\n        /* \"database/farmer/ListFarmer.sol\":509:514  value */\n      dup2\n        /* \"database/farmer/ListFarmer.sol\":509:530  value == DATABASE_KEY */\n      eq\n        /* \"database/farmer/ListFarmer.sol\":501:572  require(value == DATABASE_KEY, \"Database ListFarmer: Secret key error\") */\n      tag_56\n      jumpi\n      mload(0x40)\n      0x08c379a000000000000000000000000000000000000000000000000000000000\n      dup2\n      mstore\n      0x04\n      add\n      tag_57\n      swap1\n      tag_58\n      jump\t// in\n    tag_57:\n      mload(0x40)\n      dup1\n      swap2\n      sub\n      swap1\n      revert\n    tag_56:\n        /* \"database/farmer/ListFarmer.sol\":2336:2341  index */\n      dup5\n        /* \"database/farmer/ListFarmer.sol\":668:673  index */\n      dup1\n        /* \"database/farmer/ListFarmer.sol\":663:664  1 */\n      0x01\n        /* \"database/farmer/ListFarmer.sol\":663:673  1 <= index */\n      gt\n      iszero\n        /* \"database/farmer/ListFarmer.sol\":662:702  (1 <= index) && (index <= autoIncrement) */\n      dup1\n      iszero\n      tag_60\n      jumpi\n      pop\n        /* \"database/farmer/ListFarmer.sol\":688:701  autoIncrement */\n      sload(0x02)\n        /* \"database/farmer/ListFarmer.sol\":679:684  index */\n      dup2\n        /* \"database/farmer/ListFarmer.sol\":679:701  index <= autoIncrement */\n      gt\n      iszero\n        /* \"database/farmer/ListFarmer.sol\":662:702  (1 <= index) && (index <= autoIncrement) */\n    tag_60:\n        /* \"database/farmer/ListFarmer.sol\":641:762  require(... */\n      tag_61\n      jumpi\n      mload(0x40)\n      0x08c379a000000000000000000000000000000000000000000000000000000000\n      dup2\n      mstore\n      0x04\n      add\n      tag_62\n      swap1\n      tag_63\n      jump\t// in\n    tag_62:\n      mload(0x40)\n      dup1\n      swap2\n      sub\n      swap1\n      revert\n    tag_61:\n        /* \"database/farmer/ListFarmer.sol\":2391:2396  value */\n      dup4\n        /* \"database/farmer/ListFarmer.sol\":2368:2372  list */\n      0x01\n        /* \"database/farmer/ListFarmer.sol\":2368:2379  list[index] */\n      0x00\n        /* \"database/farmer/ListFarmer.sol\":2373:2378  index */\n      dup9\n        /* \"database/farmer/ListFarmer.sol\":2368:2379  list[index] */\n      dup2\n      mstore\n      0x20\n      add\n      swap1\n      dup2\n      mstore\n      0x20\n      add\n      0x00\n      keccak256\n        /* \"database/farmer/ListFarmer.sol\":2368:2388  list[index].category */\n      0x02\n      add\n        /* \"database/farmer/ListFarmer.sol\":2368:2396  list[index].category = value */\n      dup2\n      swap1\n      sstore\n      pop\n        /* \"database/farmer/ListFarmer.sol\":2413:2417  true */\n      0x01\n        /* \"database/farmer/ListFarmer.sol\":2406:2417  return true */\n      swap3\n      pop\n        /* \"database/farmer/ListFarmer.sol\":582:583  _ */\n      pop\n        /* \"database/farmer/ListFarmer.sol\":2196:2424  function setCategory(... */\n      pop\n      swap4\n      swap3\n      pop\n      pop\n      pop\n      jump\t// out\n        /* \"database/farmer/ListFarmer.sol\":955:1231  function add(Farmer memory item, bytes32 secret)... */\n    tag_22:\n        /* \"database/farmer/ListFarmer.sol\":1069:1073  bool */\n      0x00\n        /* \"database/farmer/ListFarmer.sol\":1044:1050  secret */\n      dup2\n        /* \"constant/SecretKey.sol\":232:298  0x8e1604a838d0f1a9b2cda14a099e4ceb08e966cc6e05e8296f67b02d61a79f09 */\n      0x8e1604a838d0f1a9b2cda14a099e4ceb08e966cc6e05e8296f67b02d61a79f09\n        /* \"database/farmer/ListFarmer.sol\":518:530  DATABASE_KEY */\n      0x00\n      shl\n        /* \"database/farmer/ListFarmer.sol\":509:514  value */\n      dup2\n        /* \"database/farmer/ListFarmer.sol\":509:530  value == DATABASE_KEY */\n      eq\n        /* \"database/farmer/ListFarmer.sol\":501:572  require(value == DATABASE_KEY, \"Database ListFarmer: Secret key error\") */\n      tag_66\n      jumpi\n      mload(0x40)\n      0x08c379a000000000000000000000000000000000000000000000000000000000\n      dup2\n      mstore\n      0x04\n      add\n      tag_67\n      swap1\n      tag_58\n      jump\t// in\n    tag_67:\n      mload(0x40)\n      dup1\n      swap2\n      sub\n      swap1\n      revert\n    tag_66:\n        /* \"database/farmer/ListFarmer.sol\":1089:1102  autoIncrement */\n      0x02\n      0x00\n        /* \"database/farmer/ListFarmer.sol\":1089:1104  autoIncrement++ */\n      dup2\n      sload\n      dup1\n      swap3\n      swap2\n      swap1\n      tag_69\n      swap1\n      tag_70\n      jump\t// in\n    tag_69:\n      swap2\n      swap1\n      pop\n      sstore\n      pop\n        /* \"database/farmer/ListFarmer.sol\":1130:1143  autoIncrement */\n      sload(0x02)\n        /* \"database/farmer/ListFarmer.sol\":1114:1118  item */\n      dup5\n        /* \"database/farmer/ListFarmer.sol\":1114:1127  item.farmerId */\n      0x00\n      add\n        /* \"database/farmer/ListFarmer.sol\":1114:1143  item.farmerId = autoIncrement */\n      dup2\n      dup2\n      mstore\n      pop\n      pop\n        /* \"database/farmer/ListFarmer.sol\":1175:1179  item */\n      dup4\n        /* \"database/farmer/ListFarmer.sol\":1153:1157  list */\n      0x01\n        /* \"database/farmer/ListFarmer.sol\":1153:1172  list[autoIncrement] */\n      0x00\n        /* \"database/farmer/ListFarmer.sol\":1158:1171  autoIncrement */\n      sload(0x02)\n        /* \"database/farmer/ListFarmer.sol\":1153:1172  list[autoIncrement] */\n      dup2\n      mstore\n      0x20\n      add\n      swap1\n      dup2\n      mstore\n      0x20\n      add\n      0x00\n      keccak256\n        /* \"database/farmer/ListFarmer.sol\":1153:1179  list[autoIncrement] = item */\n      0x00\n      dup3\n      add\n      mload\n      dup2\n      0x00\n      add\n      sstore\n      0x20\n      dup3\n      add\n      mload\n      dup2\n      0x01\n      add\n      exp(0x0100, 0x00)\n      dup2\n      sload\n      dup2\n      0xffffffffffffffffffffffffffffffffffffffff\n      mul\n      not\n      and\n      swap1\n      dup4\n      0xffffffffffffffffffffffffffffffffffffffff\n      and\n      mul\n      or\n      swap1\n      sstore\n      pop\n      0x40\n      dup3\n      add\n      mload\n      dup2\n      0x02\n      add\n      sstore\n      swap1\n      pop\n      pop\n        /* \"database/farmer/ListFarmer.sol\":1194:1203  Add(item) */\n      0xcd52d7a5ad1530fc4e2a7fc9b6b7cd488496952af7129189a1132017f883c8e3\n        /* \"database/farmer/ListFarmer.sol\":1198:1202  item */\n      dup5\n        /* \"database/farmer/ListFarmer.sol\":1194:1203  Add(item) */\n      mload(0x40)\n      tag_71\n      swap2\n      swap1\n      tag_45\n      jump\t// in\n    tag_71:\n      mload(0x40)\n      dup1\n      swap2\n      sub\n      swap1\n      log1\n        /* \"database/farmer/ListFarmer.sol\":1220:1224  true */\n      0x01\n        /* \"database/farmer/ListFarmer.sol\":1213:1224  return true */\n      swap2\n      pop\n        /* \"database/farmer/ListFarmer.sol\":955:1231  function add(Farmer memory item, bytes32 secret)... */\n      pop\n      swap3\n      swap2\n      pop\n      pop\n      jump\t// out\n        /* \"database/farmer/ListFarmer.sol\":1785:2101  function findFarmerIdByAddress(address value, bytes32 secret)... */\n    tag_27:\n        /* \"database/farmer/ListFarmer.sol\":1925:1932  uint256 */\n      0x00\n        /* \"database/farmer/ListFarmer.sol\":1900:1906  secret */\n      dup2\n        /* \"constant/SecretKey.sol\":232:298  0x8e1604a838d0f1a9b2cda14a099e4ceb08e966cc6e05e8296f67b02d61a79f09 */\n      0x8e1604a838d0f1a9b2cda14a099e4ceb08e966cc6e05e8296f67b02d61a79f09\n        /* \"database/farmer/ListFarmer.sol\":518:530  DATABASE_KEY */\n      0x00\n      shl\n        /* \"database/farmer/ListFarmer.sol\":509:514  value */\n      dup2\n        /* \"database/farmer/ListFarmer.sol\":509:530  value == DATABASE_KEY */\n      eq\n        /* \"database/farmer/ListFarmer.sol\":501:572  require(value == DATABASE_KEY, \"Database ListFarmer: Secret key error\") */\n      tag_73\n      jumpi\n      mload(0x40)\n      0x08c379a000000000000000000000000000000000000000000000000000000000\n      dup2\n      mstore\n      0x04\n      add\n      tag_74\n      swap1\n      tag_58\n      jump\t// in\n    tag_74:\n      mload(0x40)\n      dup1\n      swap2\n      sub\n      swap1\n      revert\n    tag_73:\n        /* \"database/farmer/ListFarmer.sol\":1953:1962  uint256 i */\n      0x00\n        /* \"database/farmer/ListFarmer.sol\":1965:1966  1 */\n      0x01\n        /* \"database/farmer/ListFarmer.sol\":1953:1966  uint256 i = 1 */\n      swap1\n      pop\n        /* \"database/farmer/ListFarmer.sol\":1948:2077  for (uint256 i = 1; i <= autoIncrement; i++) {... */\n    tag_76:\n        /* \"database/farmer/ListFarmer.sol\":1973:1986  autoIncrement */\n      sload(0x02)\n        /* \"database/farmer/ListFarmer.sol\":1968:1969  i */\n      dup2\n        /* \"database/farmer/ListFarmer.sol\":1968:1986  i <= autoIncrement */\n      gt\n        /* \"database/farmer/ListFarmer.sol\":1948:2077  for (uint256 i = 1; i <= autoIncrement; i++) {... */\n      tag_77\n      jumpi\n        /* \"database/farmer/ListFarmer.sol\":2036:2041  value */\n      dup5\n        /* \"database/farmer/ListFarmer.sol\":2011:2041  list[i].farmerAddress == value */\n      0xffffffffffffffffffffffffffffffffffffffff\n      and\n        /* \"database/farmer/ListFarmer.sol\":2011:2015  list */\n      0x01\n        /* \"database/farmer/ListFarmer.sol\":2011:2018  list[i] */\n      0x00\n        /* \"database/farmer/ListFarmer.sol\":2016:2017  i */\n      dup4\n        /* \"database/farmer/ListFarmer.sol\":2011:2018  list[i] */\n      dup2\n      mstore\n      0x20\n      add\n      swap1\n      dup2\n      mstore\n      0x20\n      add\n      0x00\n      keccak256\n        /* \"database/farmer/ListFarmer.sol\":2011:2032  list[i].farmerAddress */\n      0x01\n      add\n      0x00\n      swap1\n      sload\n      swap1\n      0x0100\n      exp\n      swap1\n      div\n      0xffffffffffffffffffffffffffffffffffffffff\n      and\n        /* \"database/farmer/ListFarmer.sol\":2011:2041  list[i].farmerAddress == value */\n      0xffffffffffffffffffffffffffffffffffffffff\n      and\n      sub\n        /* \"database/farmer/ListFarmer.sol\":2007:2066  if (list[i].farmerAddress == value) return list[i].farmerId */\n      tag_79\n      jumpi\n        /* \"database/farmer/ListFarmer.sol\":2050:2054  list */\n      0x01\n        /* \"database/farmer/ListFarmer.sol\":2050:2057  list[i] */\n      0x00\n        /* \"database/farmer/ListFarmer.sol\":2055:2056  i */\n      dup3\n        /* \"database/farmer/ListFarmer.sol\":2050:2057  list[i] */\n      dup2\n      mstore\n      0x20\n      add\n      swap1\n      dup2\n      mstore\n      0x20\n      add\n      0x00\n      keccak256\n        /* \"database/farmer/ListFarmer.sol\":2050:2066  list[i].farmerId */\n      0x00\n      add\n      sload\n        /* \"database/farmer/ListFarmer.sol\":2043:2066  return list[i].farmerId */\n      swap3\n      pop\n      pop\n      jump(tag_75)\n        /* \"database/farmer/ListFarmer.sol\":2007:2066  if (list[i].farmerAddress == value) return list[i].farmerId */\n    tag_79:\n        /* \"database/farmer/ListFarmer.sol\":1988:1991  i++ */\n      dup1\n      dup1\n      tag_80\n      swap1\n      tag_70\n      jump\t// in\n    tag_80:\n      swap2\n      pop\n      pop\n        /* \"database/farmer/ListFarmer.sol\":1948:2077  for (uint256 i = 1; i <= autoIncrement; i++) {... */\n      jump(tag_76)\n    tag_77:\n      pop\n        /* \"database/farmer/ListFarmer.sol\":2093:2094  0 */\n      0x00\n        /* \"database/farmer/ListFarmer.sol\":2086:2094  return 0 */\n      swap2\n      pop\n        /* \"database/farmer/ListFarmer.sol\":582:583  _ */\n    tag_75:\n        /* \"database/farmer/ListFarmer.sol\":1785:2101  function findFarmerIdByAddress(address value, bytes32 secret)... */\n      pop\n      swap3\n      swap2\n      pop\n      pop\n      jump\t// out\n        /* \"abstract/Ownable.sol\":2642:2731  function destroy() public onlyOwner {... */\n    tag_31:\n        /* \"abstract/Ownable.sol\":1068:1081  _checkOwner() */\n      tag_82\n        /* \"abstract/Ownable.sol\":1068:1079  _checkOwner */\n      tag_83\n        /* \"abstract/Ownable.sol\":1068:1081  _checkOwner() */\n      jump\t// in\n    tag_82:\n        /* \"abstract/Ownable.sol\":2717:2721  this */\n      address\n        /* \"abstract/Ownable.sol\":2688:2724  selfdestruct(payable(address(this))) */\n      0xffffffffffffffffffffffffffffffffffffffff\n      and\n      selfdestruct\n        /* \"abstract/Ownable.sol\":1175:1260  function owner() public view virtual returns (address) {... */\n    tag_33:\n        /* \"abstract/Ownable.sol\":1221:1228  address */\n      0x00\n        /* \"abstract/Ownable.sol\":1247:1253  _owner */\n      dup1\n      0x00\n      swap1\n      sload\n      swap1\n      0x0100\n      exp\n      swap1\n      div\n      0xffffffffffffffffffffffffffffffffffffffff\n      and\n        /* \"abstract/Ownable.sol\":1240:1253  return _owner */\n      swap1\n      pop\n        /* \"abstract/Ownable.sol\":1175:1260  function owner() public view virtual returns (address) {... */\n      swap1\n      jump\t// out\n        /* \"database/farmer/ListFarmer.sol\":1524:1779  function hide(uint256 index, bytes32 secret)... */\n    tag_39:\n        /* \"database/farmer/ListFarmer.sol\":1660:1664  bool */\n      0x00\n        /* \"database/farmer/ListFarmer.sol\":1609:1615  secret */\n      dup2\n        /* \"constant/SecretKey.sol\":232:298  0x8e1604a838d0f1a9b2cda14a099e4ceb08e966cc6e05e8296f67b02d61a79f09 */\n      0x8e1604a838d0f1a9b2cda14a099e4ceb08e966cc6e05e8296f67b02d61a79f09\n        /* \"database/farmer/ListFarmer.sol\":518:530  DATABASE_KEY */\n      0x00\n      shl\n        /* \"database/farmer/ListFarmer.sol\":509:514  value */\n      dup2\n        /* \"database/farmer/ListFarmer.sol\":509:530  value == DATABASE_KEY */\n      eq\n        /* \"database/farmer/ListFarmer.sol\":501:572  require(value == DATABASE_KEY, \"Database ListFarmer: Secret key error\") */\n      tag_87\n      jumpi\n      mload(0x40)\n      0x08c379a000000000000000000000000000000000000000000000000000000000\n      dup2\n      mstore\n      0x04\n      add\n      tag_88\n      swap1\n      tag_58\n      jump\t// in\n    tag_88:\n      mload(0x40)\n      dup1\n      swap2\n      sub\n      swap1\n      revert\n    tag_87:\n        /* \"database/farmer/ListFarmer.sol\":1636:1641  index */\n      dup4\n        /* \"database/farmer/ListFarmer.sol\":668:673  index */\n      dup1\n        /* \"database/farmer/ListFarmer.sol\":663:664  1 */\n      0x01\n        /* \"database/farmer/ListFarmer.sol\":663:673  1 <= index */\n      gt\n      iszero\n        /* \"database/farmer/ListFarmer.sol\":662:702  (1 <= index) && (index <= autoIncrement) */\n      dup1\n      iszero\n      tag_90\n      jumpi\n      pop\n        /* \"database/farmer/ListFarmer.sol\":688:701  autoIncrement */\n      sload(0x02)\n        /* \"database/farmer/ListFarmer.sol\":679:684  index */\n      dup2\n        /* \"database/farmer/ListFarmer.sol\":679:701  index <= autoIncrement */\n      gt\n      iszero\n        /* \"database/farmer/ListFarmer.sol\":662:702  (1 <= index) && (index <= autoIncrement) */\n    tag_90:\n        /* \"database/farmer/ListFarmer.sol\":641:762  require(... */\n      tag_91\n      jumpi\n      mload(0x40)\n      0x08c379a000000000000000000000000000000000000000000000000000000000\n      dup2\n      mstore\n      0x04\n      add\n      tag_92\n      swap1\n      tag_63\n      jump\t// in\n    tag_92:\n      mload(0x40)\n      dup1\n      swap2\n      sub\n      swap1\n      revert\n    tag_91:\n        /* \"database/farmer/ListFarmer.sol\":1680:1697  Farmer memory gap */\n      0x00\n        /* \"database/farmer/ListFarmer.sol\":1700:1724  Farmer(0, address(0), 0) */\n      mload(0x40)\n      dup1\n      0x60\n      add\n      0x40\n      mstore\n      dup1\n        /* \"database/farmer/ListFarmer.sol\":1707:1708  0 */\n      0x00\n        /* \"database/farmer/ListFarmer.sol\":1700:1724  Farmer(0, address(0), 0) */\n      dup2\n      mstore\n      0x20\n      add\n        /* \"database/farmer/ListFarmer.sol\":1718:1719  0 */\n      0x00\n        /* \"database/farmer/ListFarmer.sol\":1700:1724  Farmer(0, address(0), 0) */\n      0xffffffffffffffffffffffffffffffffffffffff\n      and\n      dup2\n      mstore\n      0x20\n      add\n        /* \"database/farmer/ListFarmer.sol\":1722:1723  0 */\n      0x00\n        /* \"database/farmer/ListFarmer.sol\":1700:1724  Farmer(0, address(0), 0) */\n      dup2\n      mstore\n      pop\n        /* \"database/farmer/ListFarmer.sol\":1680:1724  Farmer memory gap = Farmer(0, address(0), 0) */\n      swap1\n      pop\n        /* \"database/farmer/ListFarmer.sol\":1748:1751  gap */\n      dup1\n        /* \"database/farmer/ListFarmer.sol\":1734:1738  list */\n      0x01\n        /* \"database/farmer/ListFarmer.sol\":1734:1745  list[index] */\n      0x00\n        /* \"database/farmer/ListFarmer.sol\":1739:1744  index */\n      dup9\n        /* \"database/farmer/ListFarmer.sol\":1734:1745  list[index] */\n      dup2\n      mstore\n      0x20\n      add\n      swap1\n      dup2\n      mstore\n      0x20\n      add\n      0x00\n      keccak256\n        /* \"database/farmer/ListFarmer.sol\":1734:1751  list[index] = gap */\n      0x00\n      dup3\n      add\n      mload\n      dup2\n      0x00\n      add\n      sstore\n      0x20\n      dup3\n      add\n      mload\n      dup2\n      0x01\n      add\n      exp(0x0100, 0x00)\n      dup2\n      sload\n      dup2\n      0xffffffffffffffffffffffffffffffffffffffff\n      mul\n      not\n      and\n      swap1\n      dup4\n      0xffffffffffffffffffffffffffffffffffffffff\n      and\n      mul\n      or\n      swap1\n      sstore\n      pop\n      0x40\n      dup3\n      add\n      mload\n      dup2\n      0x02\n      add\n      sstore\n      swap1\n      pop\n      pop\n        /* \"database/farmer/ListFarmer.sol\":1768:1772  true */\n      0x01\n        /* \"database/farmer/ListFarmer.sol\":1761:1772  return true */\n      swap4\n      pop\n      pop\n        /* \"database/farmer/ListFarmer.sol\":582:583  _ */\n      pop\n        /* \"database/farmer/ListFarmer.sol\":1524:1779  function hide(uint256 index, bytes32 secret)... */\n      pop\n      swap3\n      swap2\n      pop\n      pop\n      jump\t// out\n        /* \"database/farmer/ListFarmer.sol\":1237:1518  function at(uint256 index, bytes32 secret)... */\n    tag_43:\n        /* \"database/farmer/ListFarmer.sol\":1384:1397  Farmer memory */\n      tag_94\n      tag_95\n      jump\t// in\n    tag_94:\n        /* \"database/farmer/ListFarmer.sol\":1333:1339  secret */\n      dup2\n        /* \"constant/SecretKey.sol\":232:298  0x8e1604a838d0f1a9b2cda14a099e4ceb08e966cc6e05e8296f67b02d61a79f09 */\n      0x8e1604a838d0f1a9b2cda14a099e4ceb08e966cc6e05e8296f67b02d61a79f09\n        /* \"database/farmer/ListFarmer.sol\":518:530  DATABASE_KEY */\n      0x00\n      shl\n        /* \"database/farmer/ListFarmer.sol\":509:514  value */\n      dup2\n        /* \"database/farmer/ListFarmer.sol\":509:530  value == DATABASE_KEY */\n      eq\n        /* \"database/farmer/ListFarmer.sol\":501:572  require(value == DATABASE_KEY, \"Database ListFarmer: Secret key error\") */\n      tag_97\n      jumpi\n      mload(0x40)\n      0x08c379a000000000000000000000000000000000000000000000000000000000\n      dup2\n      mstore\n      0x04\n      add\n      tag_98\n      swap1\n      tag_58\n      jump\t// in\n    tag_98:\n      mload(0x40)\n      dup1\n      swap2\n      sub\n      swap1\n      revert\n    tag_97:\n        /* \"database/farmer/ListFarmer.sol\":1360:1365  index */\n      dup4\n        /* \"database/farmer/ListFarmer.sol\":668:673  index */\n      dup1\n        /* \"database/farmer/ListFarmer.sol\":663:664  1 */\n      0x01\n        /* \"database/farmer/ListFarmer.sol\":663:673  1 <= index */\n      gt\n      iszero\n        /* \"database/farmer/ListFarmer.sol\":662:702  (1 <= index) && (index <= autoIncrement) */\n      dup1\n      iszero\n      tag_100\n      jumpi\n      pop\n        /* \"database/farmer/ListFarmer.sol\":688:701  autoIncrement */\n      sload(0x02)\n        /* \"database/farmer/ListFarmer.sol\":679:684  index */\n      dup2\n        /* \"database/farmer/ListFarmer.sol\":679:701  index <= autoIncrement */\n      gt\n      iszero\n        /* \"database/farmer/ListFarmer.sol\":662:702  (1 <= index) && (index <= autoIncrement) */\n    tag_100:\n        /* \"database/farmer/ListFarmer.sol\":641:762  require(... */\n      tag_101\n      jumpi\n      mload(0x40)\n      0x08c379a000000000000000000000000000000000000000000000000000000000\n      dup2\n      mstore\n      0x04\n      add\n      tag_102\n      swap1\n      tag_63\n      jump\t// in\n    tag_102:\n      mload(0x40)\n      dup1\n      swap2\n      sub\n      swap1\n      revert\n    tag_101:\n        /* \"database/farmer/ListFarmer.sol\":1500:1504  list */\n      0x01\n        /* \"database/farmer/ListFarmer.sol\":1500:1511  list[index] */\n      0x00\n        /* \"database/farmer/ListFarmer.sol\":1505:1510  index */\n      dup7\n        /* \"database/farmer/ListFarmer.sol\":1500:1511  list[index] */\n      dup2\n      mstore\n      0x20\n      add\n      swap1\n      dup2\n      mstore\n      0x20\n      add\n      0x00\n      keccak256\n        /* \"database/farmer/ListFarmer.sol\":1493:1511  return list[index] */\n      mload(0x40)\n      dup1\n      0x60\n      add\n      0x40\n      mstore\n      swap1\n      dup2\n      0x00\n      dup3\n      add\n      sload\n      dup2\n      mstore\n      0x20\n      add\n      0x01\n      dup3\n      add\n      0x00\n      swap1\n      sload\n      swap1\n      0x0100\n      exp\n      swap1\n      div\n      0xffffffffffffffffffffffffffffffffffffffff\n      and\n      0xffffffffffffffffffffffffffffffffffffffff\n      and\n      0xffffffffffffffffffffffffffffffffffffffff\n      and\n      dup2\n      mstore\n      0x20\n      add\n      0x02\n      dup3\n      add\n      sload\n      dup2\n      mstore\n      pop\n      pop\n      swap3\n      pop\n        /* \"database/farmer/ListFarmer.sol\":582:583  _ */\n      pop\n        /* \"database/farmer/ListFarmer.sol\":1237:1518  function at(uint256 index, bytes32 secret)... */\n      pop\n      swap3\n      swap2\n      pop\n      pop\n      jump\t// out\n        /* \"abstract/Ownable.sol\":2063:2295  function transferOwnership(address newOwner) public virtual onlyOwner {... */\n    tag_49:\n        /* \"abstract/Ownable.sol\":1068:1081  _checkOwner() */\n      tag_105\n        /* \"abstract/Ownable.sol\":1068:1079  _checkOwner */\n      tag_83\n        /* \"abstract/Ownable.sol\":1068:1081  _checkOwner() */\n      jump\t// in\n    tag_105:\n        /* \"abstract/Ownable.sol\":2184:2185  0 */\n      0x00\n        /* \"abstract/Ownable.sol\":2164:2186  newOwner != address(0) */\n      0xffffffffffffffffffffffffffffffffffffffff\n      and\n        /* \"abstract/Ownable.sol\":2164:2172  newOwner */\n      dup2\n        /* \"abstract/Ownable.sol\":2164:2186  newOwner != address(0) */\n      0xffffffffffffffffffffffffffffffffffffffff\n      and\n      sub\n        /* \"abstract/Ownable.sol\":2143:2250  require(... */\n      tag_107\n      jumpi\n      mload(0x40)\n      0x08c379a000000000000000000000000000000000000000000000000000000000\n      dup2\n      mstore\n      0x04\n      add\n      tag_108\n      swap1\n      tag_109\n      jump\t// in\n    tag_108:\n      mload(0x40)\n      dup1\n      swap2\n      sub\n      swap1\n      revert\n    tag_107:\n        /* \"abstract/Ownable.sol\":2260:2288  _transferOwnership(newOwner) */\n      tag_110\n        /* \"abstract/Ownable.sol\":2279:2287  newOwner */\n      dup2\n        /* \"abstract/Ownable.sol\":2260:2278  _transferOwnership */\n      tag_111\n        /* \"abstract/Ownable.sol\":2260:2288  _transferOwnership(newOwner) */\n      jump\t// in\n    tag_110:\n        /* \"abstract/Ownable.sol\":2063:2295  function transferOwnership(address newOwner) public virtual onlyOwner {... */\n      pop\n      jump\t// out\n        /* \"database/farmer/ListFarmer.sol\":786:949  function getLength(bytes32 secret)... */\n    tag_53:\n        /* \"database/farmer/ListFarmer.sol\":899:906  uint256 */\n      0x00\n        /* \"database/farmer/ListFarmer.sol\":874:880  secret */\n      dup2\n        /* \"constant/SecretKey.sol\":232:298  0x8e1604a838d0f1a9b2cda14a099e4ceb08e966cc6e05e8296f67b02d61a79f09 */\n      0x8e1604a838d0f1a9b2cda14a099e4ceb08e966cc6e05e8296f67b02d61a79f09\n        /* \"database/farmer/ListFarmer.sol\":518:530  DATABASE_KEY */\n      0x00\n      shl\n        /* \"database/farmer/ListFarmer.sol\":509:514  value */\n      dup2\n        /* \"database/farmer/ListFarmer.sol\":509:530  value == DATABASE_KEY */\n      eq\n        /* \"database/farmer/ListFarmer.sol\":501:572  require(value == DATABASE_KEY, \"Database ListFarmer: Secret key error\") */\n      tag_113\n      jumpi\n      mload(0x40)\n      0x08c379a000000000000000000000000000000000000000000000000000000000\n      dup2\n      mstore\n      0x04\n      add\n      tag_114\n      swap1\n      tag_58\n      jump\t// in\n    tag_114:\n      mload(0x40)\n      dup1\n      swap2\n      sub\n      swap1\n      revert\n    tag_113:\n        /* \"database/farmer/ListFarmer.sol\":929:942  autoIncrement */\n      sload(0x02)\n        /* \"database/farmer/ListFarmer.sol\":922:942  return autoIncrement */\n      swap2\n      pop\n        /* \"database/farmer/ListFarmer.sol\":786:949  function getLength(bytes32 secret)... */\n      pop\n      swap2\n      swap1\n      pop\n      jump\t// out\n        /* \"abstract/Ownable.sol\":1333:1461  function _checkOwner() internal view virtual {... */\n    tag_83:\n        /* \"abstract/Ownable.sol\":1407:1417  msg.sender */\n      caller\n        /* \"abstract/Ownable.sol\":1396:1417  owner() == msg.sender */\n      0xffffffffffffffffffffffffffffffffffffffff\n      and\n        /* \"abstract/Ownable.sol\":1396:1403  owner() */\n      tag_117\n        /* \"abstract/Ownable.sol\":1396:1401  owner */\n      tag_33\n        /* \"abstract/Ownable.sol\":1396:1403  owner() */\n      jump\t// in\n    tag_117:\n        /* \"abstract/Ownable.sol\":1396:1417  owner() == msg.sender */\n      0xffffffffffffffffffffffffffffffffffffffff\n      and\n      eq\n        /* \"abstract/Ownable.sol\":1388:1454  require(owner() == msg.sender, \"Ownable: caller is not the owner\") */\n      tag_118\n      jumpi\n      mload(0x40)\n      0x08c379a000000000000000000000000000000000000000000000000000000000\n      dup2\n      mstore\n      0x04\n      add\n      tag_119\n      swap1\n      tag_120\n      jump\t// in\n    tag_119:\n      mload(0x40)\n      dup1\n      swap2\n      sub\n      swap1\n      revert\n    tag_118:\n        /* \"abstract/Ownable.sol\":1333:1461  function _checkOwner() internal view virtual {... */\n      jump\t// out\n        /* \"abstract/Ownable.sol\":2449:2636  function _transferOwnership(address newOwner) internal virtual {... */\n    tag_111:\n        /* \"abstract/Ownable.sol\":2522:2538  address oldOwner */\n      0x00\n        /* \"abstract/Ownable.sol\":2541:2547  _owner */\n      dup1\n      0x00\n      swap1\n      sload\n      swap1\n      0x0100\n      exp\n      swap1\n      div\n      0xffffffffffffffffffffffffffffffffffffffff\n      and\n        /* \"abstract/Ownable.sol\":2522:2547  address oldOwner = _owner */\n      swap1\n      pop\n        /* \"abstract/Ownable.sol\":2566:2574  newOwner */\n      dup2\n        /* \"abstract/Ownable.sol\":2557:2563  _owner */\n      0x00\n      dup1\n        /* \"abstract/Ownable.sol\":2557:2574  _owner = newOwner */\n      0x0100\n      exp\n      dup2\n      sload\n      dup2\n      0xffffffffffffffffffffffffffffffffffffffff\n      mul\n      not\n      and\n      swap1\n      dup4\n      0xffffffffffffffffffffffffffffffffffffffff\n      and\n      mul\n      or\n      swap1\n      sstore\n      pop\n        /* \"abstract/Ownable.sol\":2620:2628  newOwner */\n      dup2\n        /* \"abstract/Ownable.sol\":2589:2629  OwnershipTransferred(oldOwner, newOwner) */\n      0xffffffffffffffffffffffffffffffffffffffff\n      and\n        /* \"abstract/Ownable.sol\":2610:2618  oldOwner */\n      dup2\n        /* \"abstract/Ownable.sol\":2589:2629  OwnershipTransferred(oldOwner, newOwner) */\n      0xffffffffffffffffffffffffffffffffffffffff\n      and\n      0x8be0079c531659141344cd1fd0a4f28419497f9722a3daafe3b4186f6b6457e0\n      mload(0x40)\n      mload(0x40)\n      dup1\n      swap2\n      sub\n      swap1\n      log3\n        /* \"abstract/Ownable.sol\":2512:2636  {... */\n      pop\n        /* \"abstract/Ownable.sol\":2449:2636  function _transferOwnership(address newOwner) internal virtual {... */\n      pop\n      jump\t// out\n    tag_95:\n      mload(0x40)\n      dup1\n      0x60\n      add\n      0x40\n      mstore\n      dup1\n      0x00\n      dup2\n      mstore\n      0x20\n      add\n      and(0xffffffffffffffffffffffffffffffffffffffff, 0x00)\n      dup2\n      mstore\n      0x20\n      add\n      0x00\n      dup2\n      mstore\n      pop\n      swap1\n      jump\t// out\n        /* \"#utility.yul\":7:82   */\n    tag_122:\n        /* \"#utility.yul\":40:46   */\n      0x00\n        /* \"#utility.yul\":73:75   */\n      0x40\n        /* \"#utility.yul\":67:76   */\n      mload\n        /* \"#utility.yul\":57:76   */\n      swap1\n      pop\n        /* \"#utility.yul\":7:82   */\n      swap1\n      jump\t// out\n        /* \"#utility.yul\":88:205   */\n    tag_123:\n        /* \"#utility.yul\":197:198   */\n      0x00\n        /* \"#utility.yul\":194:195   */\n      dup1\n        /* \"#utility.yul\":187:199   */\n      revert\n        /* \"#utility.yul\":334:411   */\n    tag_125:\n        /* \"#utility.yul\":371:378   */\n      0x00\n        /* \"#utility.yul\":400:405   */\n      dup2\n        /* \"#utility.yul\":389:405   */\n      swap1\n      pop\n        /* \"#utility.yul\":334:411   */\n      swap2\n      swap1\n      pop\n      jump\t// out\n        /* \"#utility.yul\":417:539   */\n    tag_126:\n        /* \"#utility.yul\":490:514   */\n      tag_165\n        /* \"#utility.yul\":508:513   */\n      dup2\n        /* \"#utility.yul\":490:514   */\n      tag_125\n      jump\t// in\n    tag_165:\n        /* \"#utility.yul\":483:488   */\n      dup2\n        /* \"#utility.yul\":480:515   */\n      eq\n        /* \"#utility.yul\":470:533   */\n      tag_166\n      jumpi\n        /* \"#utility.yul\":529:530   */\n      0x00\n        /* \"#utility.yul\":526:527   */\n      dup1\n        /* \"#utility.yul\":519:531   */\n      revert\n        /* \"#utility.yul\":470:533   */\n    tag_166:\n        /* \"#utility.yul\":417:539   */\n      pop\n      jump\t// out\n        /* \"#utility.yul\":545:684   */\n    tag_127:\n        /* \"#utility.yul\":591:596   */\n      0x00\n        /* \"#utility.yul\":629:635   */\n      dup2\n        /* \"#utility.yul\":616:636   */\n      calldataload\n        /* \"#utility.yul\":607:636   */\n      swap1\n      pop\n        /* \"#utility.yul\":645:678   */\n      tag_168\n        /* \"#utility.yul\":672:677   */\n      dup2\n        /* \"#utility.yul\":645:678   */\n      tag_126\n      jump\t// in\n    tag_168:\n        /* \"#utility.yul\":545:684   */\n      swap3\n      swap2\n      pop\n      pop\n      jump\t// out\n        /* \"#utility.yul\":690:767   */\n    tag_128:\n        /* \"#utility.yul\":727:734   */\n      0x00\n        /* \"#utility.yul\":756:761   */\n      dup2\n        /* \"#utility.yul\":745:761   */\n      swap1\n      pop\n        /* \"#utility.yul\":690:767   */\n      swap2\n      swap1\n      pop\n      jump\t// out\n        /* \"#utility.yul\":773:895   */\n    tag_129:\n        /* \"#utility.yul\":846:870   */\n      tag_171\n        /* \"#utility.yul\":864:869   */\n      dup2\n        /* \"#utility.yul\":846:870   */\n      tag_128\n      jump\t// in\n    tag_171:\n        /* \"#utility.yul\":839:844   */\n      dup2\n        /* \"#utility.yul\":836:871   */\n      eq\n        /* \"#utility.yul\":826:889   */\n      tag_172\n      jumpi\n        /* \"#utility.yul\":885:886   */\n      0x00\n        /* \"#utility.yul\":882:883   */\n      dup1\n        /* \"#utility.yul\":875:887   */\n      revert\n        /* \"#utility.yul\":826:889   */\n    tag_172:\n        /* \"#utility.yul\":773:895   */\n      pop\n      jump\t// out\n        /* \"#utility.yul\":901:1040   */\n    tag_130:\n        /* \"#utility.yul\":947:952   */\n      0x00\n        /* \"#utility.yul\":985:991   */\n      dup2\n        /* \"#utility.yul\":972:992   */\n      calldataload\n        /* \"#utility.yul\":963:992   */\n      swap1\n      pop\n        /* \"#utility.yul\":1001:1034   */\n      tag_174\n        /* \"#utility.yul\":1028:1033   */\n      dup2\n        /* \"#utility.yul\":1001:1034   */\n      tag_129\n      jump\t// in\n    tag_174:\n        /* \"#utility.yul\":901:1040   */\n      swap3\n      swap2\n      pop\n      pop\n      jump\t// out\n        /* \"#utility.yul\":1046:1665   */\n    tag_15:\n        /* \"#utility.yul\":1123:1129   */\n      0x00\n        /* \"#utility.yul\":1131:1137   */\n      dup1\n        /* \"#utility.yul\":1139:1145   */\n      0x00\n        /* \"#utility.yul\":1188:1190   */\n      0x60\n        /* \"#utility.yul\":1176:1185   */\n      dup5\n        /* \"#utility.yul\":1167:1174   */\n      dup7\n        /* \"#utility.yul\":1163:1186   */\n      sub\n        /* \"#utility.yul\":1159:1191   */\n      slt\n        /* \"#utility.yul\":1156:1275   */\n      iszero\n      tag_176\n      jumpi\n        /* \"#utility.yul\":1194:1273   */\n      tag_177\n      tag_123\n      jump\t// in\n    tag_177:\n        /* \"#utility.yul\":1156:1275   */\n    tag_176:\n        /* \"#utility.yul\":1314:1315   */\n      0x00\n        /* \"#utility.yul\":1339:1392   */\n      tag_178\n        /* \"#utility.yul\":1384:1391   */\n      dup7\n        /* \"#utility.yul\":1375:1381   */\n      dup3\n        /* \"#utility.yul\":1364:1373   */\n      dup8\n        /* \"#utility.yul\":1360:1382   */\n      add\n        /* \"#utility.yul\":1339:1392   */\n      tag_127\n      jump\t// in\n    tag_178:\n        /* \"#utility.yul\":1329:1392   */\n      swap4\n      pop\n        /* \"#utility.yul\":1285:1402   */\n      pop\n        /* \"#utility.yul\":1441:1443   */\n      0x20\n        /* \"#utility.yul\":1467:1520   */\n      tag_179\n        /* \"#utility.yul\":1512:1519   */\n      dup7\n        /* \"#utility.yul\":1503:1509   */\n      dup3\n        /* \"#utility.yul\":1492:1501   */\n      dup8\n        /* \"#utility.yul\":1488:1510   */\n      add\n        /* \"#utility.yul\":1467:1520   */\n      tag_130\n      jump\t// in\n    tag_179:\n        /* \"#utility.yul\":1457:1520   */\n      swap3\n      pop\n        /* \"#utility.yul\":1412:1530   */\n      pop\n        /* \"#utility.yul\":1569:1571   */\n      0x40\n        /* \"#utility.yul\":1595:1648   */\n      tag_180\n        /* \"#utility.yul\":1640:1647   */\n      dup7\n        /* \"#utility.yul\":1631:1637   */\n      dup3\n        /* \"#utility.yul\":1620:1629   */\n      dup8\n        /* \"#utility.yul\":1616:1638   */\n      add\n        /* \"#utility.yul\":1595:1648   */\n      tag_127\n      jump\t// in\n    tag_180:\n        /* \"#utility.yul\":1585:1648   */\n      swap2\n      pop\n        /* \"#utility.yul\":1540:1658   */\n      pop\n        /* \"#utility.yul\":1046:1665   */\n      swap3\n      pop\n      swap3\n      pop\n      swap3\n      jump\t// out\n        /* \"#utility.yul\":1671:1761   */\n    tag_131:\n        /* \"#utility.yul\":1705:1712   */\n      0x00\n        /* \"#utility.yul\":1748:1753   */\n      dup2\n        /* \"#utility.yul\":1741:1754   */\n      iszero\n        /* \"#utility.yul\":1734:1755   */\n      iszero\n        /* \"#utility.yul\":1723:1755   */\n      swap1\n      pop\n        /* \"#utility.yul\":1671:1761   */\n      swap2\n      swap1\n      pop\n      jump\t// out\n        /* \"#utility.yul\":1767:1876   */\n    tag_132:\n        /* \"#utility.yul\":1848:1869   */\n      tag_183\n        /* \"#utility.yul\":1863:1868   */\n      dup2\n        /* \"#utility.yul\":1848:1869   */\n      tag_131\n      jump\t// in\n    tag_183:\n        /* \"#utility.yul\":1843:1846   */\n      dup3\n        /* \"#utility.yul\":1836:1870   */\n      mstore\n        /* \"#utility.yul\":1767:1876   */\n      pop\n      pop\n      jump\t// out\n        /* \"#utility.yul\":1882:2092   */\n    tag_18:\n        /* \"#utility.yul\":1969:1973   */\n      0x00\n        /* \"#utility.yul\":2007:2009   */\n      0x20\n        /* \"#utility.yul\":1996:2005   */\n      dup3\n        /* \"#utility.yul\":1992:2010   */\n      add\n        /* \"#utility.yul\":1984:2010   */\n      swap1\n      pop\n        /* \"#utility.yul\":2020:2085   */\n      tag_185\n        /* \"#utility.yul\":2082:2083   */\n      0x00\n        /* \"#utility.yul\":2071:2080   */\n      dup4\n        /* \"#utility.yul\":2067:2084   */\n      add\n        /* \"#utility.yul\":2058:2064   */\n      dup5\n        /* \"#utility.yul\":2020:2085   */\n      tag_132\n      jump\t// in\n    tag_185:\n        /* \"#utility.yul\":1882:2092   */\n      swap3\n      swap2\n      pop\n      pop\n      jump\t// out\n        /* \"#utility.yul\":2098:2215   */\n    tag_133:\n        /* \"#utility.yul\":2207:2208   */\n      0x00\n        /* \"#utility.yul\":2204:2205   */\n      dup1\n        /* \"#utility.yul\":2197:2209   */\n      revert\n        /* \"#utility.yul\":2221:2323   */\n    tag_134:\n        /* \"#utility.yul\":2262:2268   */\n      0x00\n        /* \"#utility.yul\":2313:2315   */\n      0x1f\n        /* \"#utility.yul\":2309:2316   */\n      not\n        /* \"#utility.yul\":2304:2306   */\n      0x1f\n        /* \"#utility.yul\":2297:2302   */\n      dup4\n        /* \"#utility.yul\":2293:2307   */\n      add\n        /* \"#utility.yul\":2289:2317   */\n      and\n        /* \"#utility.yul\":2279:2317   */\n      swap1\n      pop\n        /* \"#utility.yul\":2221:2323   */\n      swap2\n      swap1\n      pop\n      jump\t// out\n        /* \"#utility.yul\":2329:2509   */\n    tag_135:\n        /* \"#utility.yul\":2377:2454   */\n      0x4e487b7100000000000000000000000000000000000000000000000000000000\n        /* \"#utility.yul\":2374:2375   */\n      0x00\n        /* \"#utility.yul\":2367:2455   */\n      mstore\n        /* \"#utility.yul\":2474:2478   */\n      0x41\n        /* \"#utility.yul\":2471:2472   */\n      0x04\n        /* \"#utility.yul\":2464:2479   */\n      mstore\n        /* \"#utility.yul\":2498:2502   */\n      0x24\n        /* \"#utility.yul\":2495:2496   */\n      0x00\n        /* \"#utility.yul\":2488:2503   */\n      revert\n        /* \"#utility.yul\":2515:2796   */\n    tag_136:\n        /* \"#utility.yul\":2598:2625   */\n      tag_190\n        /* \"#utility.yul\":2620:2624   */\n      dup3\n        /* \"#utility.yul\":2598:2625   */\n      tag_134\n      jump\t// in\n    tag_190:\n        /* \"#utility.yul\":2590:2596   */\n      dup2\n        /* \"#utility.yul\":2586:2626   */\n      add\n        /* \"#utility.yul\":2728:2734   */\n      dup2\n        /* \"#utility.yul\":2716:2726   */\n      dup2\n        /* \"#utility.yul\":2713:2735   */\n      lt\n        /* \"#utility.yul\":2692:2710   */\n      0xffffffffffffffff\n        /* \"#utility.yul\":2680:2690   */\n      dup3\n        /* \"#utility.yul\":2677:2711   */\n      gt\n        /* \"#utility.yul\":2674:2736   */\n      or\n        /* \"#utility.yul\":2671:2759   */\n      iszero\n      tag_191\n      jumpi\n        /* \"#utility.yul\":2739:2757   */\n      tag_192\n      tag_135\n      jump\t// in\n    tag_192:\n        /* \"#utility.yul\":2671:2759   */\n    tag_191:\n        /* \"#utility.yul\":2779:2789   */\n      dup1\n        /* \"#utility.yul\":2775:2777   */\n      0x40\n        /* \"#utility.yul\":2768:2790   */\n      mstore\n        /* \"#utility.yul\":2558:2796   */\n      pop\n        /* \"#utility.yul\":2515:2796   */\n      pop\n      pop\n      jump\t// out\n        /* \"#utility.yul\":2802:2931   */\n    tag_137:\n        /* \"#utility.yul\":2836:2842   */\n      0x00\n        /* \"#utility.yul\":2863:2883   */\n      tag_194\n      tag_122\n      jump\t// in\n    tag_194:\n        /* \"#utility.yul\":2853:2883   */\n      swap1\n      pop\n        /* \"#utility.yul\":2892:2925   */\n      tag_195\n        /* \"#utility.yul\":2920:2924   */\n      dup3\n        /* \"#utility.yul\":2912:2918   */\n      dup3\n        /* \"#utility.yul\":2892:2925   */\n      tag_136\n      jump\t// in\n    tag_195:\n        /* \"#utility.yul\":2802:2931   */\n      swap2\n      swap1\n      pop\n      jump\t// out\n        /* \"#utility.yul\":3060:3186   */\n    tag_139:\n        /* \"#utility.yul\":3097:3104   */\n      0x00\n        /* \"#utility.yul\":3137:3179   */\n      0xffffffffffffffffffffffffffffffffffffffff\n        /* \"#utility.yul\":3130:3135   */\n      dup3\n        /* \"#utility.yul\":3126:3180   */\n      and\n        /* \"#utility.yul\":3115:3180   */\n      swap1\n      pop\n        /* \"#utility.yul\":3060:3186   */\n      swap2\n      swap1\n      pop\n      jump\t// out\n        /* \"#utility.yul\":3192:3288   */\n    tag_140:\n        /* \"#utility.yul\":3229:3236   */\n      0x00\n        /* \"#utility.yul\":3258:3282   */\n      tag_199\n        /* \"#utility.yul\":3276:3281   */\n      dup3\n        /* \"#utility.yul\":3258:3282   */\n      tag_139\n      jump\t// in\n    tag_199:\n        /* \"#utility.yul\":3247:3282   */\n      swap1\n      pop\n        /* \"#utility.yul\":3192:3288   */\n      swap2\n      swap1\n      pop\n      jump\t// out\n        /* \"#utility.yul\":3294:3416   */\n    tag_141:\n        /* \"#utility.yul\":3367:3391   */\n      tag_201\n        /* \"#utility.yul\":3385:3390   */\n      dup2\n        /* \"#utility.yul\":3367:3391   */\n      tag_140\n      jump\t// in\n    tag_201:\n        /* \"#utility.yul\":3360:3365   */\n      dup2\n        /* \"#utility.yul\":3357:3392   */\n      eq\n        /* \"#utility.yul\":3347:3410   */\n      tag_202\n      jumpi\n        /* \"#utility.yul\":3406:3407   */\n      0x00\n        /* \"#utility.yul\":3403:3404   */\n      dup1\n        /* \"#utility.yul\":3396:3408   */\n      revert\n        /* \"#utility.yul\":3347:3410   */\n    tag_202:\n        /* \"#utility.yul\":3294:3416   */\n      pop\n      jump\t// out\n        /* \"#utility.yul\":3422:3561   */\n    tag_142:\n        /* \"#utility.yul\":3468:3473   */\n      0x00\n        /* \"#utility.yul\":3506:3512   */\n      dup2\n        /* \"#utility.yul\":3493:3513   */\n      calldataload\n        /* \"#utility.yul\":3484:3513   */\n      swap1\n      pop\n        /* \"#utility.yul\":3522:3555   */\n      tag_204\n        /* \"#utility.yul\":3549:3554   */\n      dup2\n        /* \"#utility.yul\":3522:3555   */\n      tag_141\n      jump\t// in\n    tag_204:\n        /* \"#utility.yul\":3422:3561   */\n      swap3\n      swap2\n      pop\n      pop\n      jump\t// out\n        /* \"#utility.yul\":3588:4339   */\n    tag_143:\n        /* \"#utility.yul\":3661:3666   */\n      0x00\n        /* \"#utility.yul\":3705:3709   */\n      0x60\n        /* \"#utility.yul\":3693:3702   */\n      dup3\n        /* \"#utility.yul\":3688:3691   */\n      dup5\n        /* \"#utility.yul\":3684:3703   */\n      sub\n        /* \"#utility.yul\":3680:3710   */\n      slt\n        /* \"#utility.yul\":3677:3794   */\n      iszero\n      tag_206\n      jumpi\n        /* \"#utility.yul\":3713:3792   */\n      tag_207\n      tag_133\n      jump\t// in\n    tag_207:\n        /* \"#utility.yul\":3677:3794   */\n    tag_206:\n        /* \"#utility.yul\":3812:3833   */\n      tag_208\n        /* \"#utility.yul\":3828:3832   */\n      0x60\n        /* \"#utility.yul\":3812:3833   */\n      tag_137\n      jump\t// in\n    tag_208:\n        /* \"#utility.yul\":3803:3833   */\n      swap1\n      pop\n        /* \"#utility.yul\":3896:3897   */\n      0x00\n        /* \"#utility.yul\":3936:3985   */\n      tag_209\n        /* \"#utility.yul\":3981:3984   */\n      dup5\n        /* \"#utility.yul\":3972:3978   */\n      dup3\n        /* \"#utility.yul\":3961:3970   */\n      dup6\n        /* \"#utility.yul\":3957:3979   */\n      add\n        /* \"#utility.yul\":3936:3985   */\n      tag_127\n      jump\t// in\n    tag_209:\n        /* \"#utility.yul\":3929:3933   */\n      0x00\n        /* \"#utility.yul\":3922:3927   */\n      dup4\n        /* \"#utility.yul\":3918:3934   */\n      add\n        /* \"#utility.yul\":3911:3986   */\n      mstore\n        /* \"#utility.yul\":3843:3997   */\n      pop\n        /* \"#utility.yul\":4065:4067   */\n      0x20\n        /* \"#utility.yul\":4106:4155   */\n      tag_210\n        /* \"#utility.yul\":4151:4154   */\n      dup5\n        /* \"#utility.yul\":4142:4148   */\n      dup3\n        /* \"#utility.yul\":4131:4140   */\n      dup6\n        /* \"#utility.yul\":4127:4149   */\n      add\n        /* \"#utility.yul\":4106:4155   */\n      tag_142\n      jump\t// in\n    tag_210:\n        /* \"#utility.yul\":4099:4103   */\n      0x20\n        /* \"#utility.yul\":4092:4097   */\n      dup4\n        /* \"#utility.yul\":4088:4104   */\n      add\n        /* \"#utility.yul\":4081:4156   */\n      mstore\n        /* \"#utility.yul\":4007:4167   */\n      pop\n        /* \"#utility.yul\":4230:4232   */\n      0x40\n        /* \"#utility.yul\":4271:4320   */\n      tag_211\n        /* \"#utility.yul\":4316:4319   */\n      dup5\n        /* \"#utility.yul\":4307:4313   */\n      dup3\n        /* \"#utility.yul\":4296:4305   */\n      dup6\n        /* \"#utility.yul\":4292:4314   */\n      add\n        /* \"#utility.yul\":4271:4320   */\n      tag_127\n      jump\t// in\n    tag_211:\n        /* \"#utility.yul\":4264:4268   */\n      0x40\n        /* \"#utility.yul\":4257:4262   */\n      dup4\n        /* \"#utility.yul\":4253:4269   */\n      add\n        /* \"#utility.yul\":4246:4321   */\n      mstore\n        /* \"#utility.yul\":4177:4332   */\n      pop\n        /* \"#utility.yul\":3588:4339   */\n      swap3\n      swap2\n      pop\n      pop\n      jump\t// out\n        /* \"#utility.yul\":4345:4868   */\n    tag_21:\n        /* \"#utility.yul\":4437:4443   */\n      0x00\n        /* \"#utility.yul\":4445:4451   */\n      dup1\n        /* \"#utility.yul\":4494:4497   */\n      0x80\n        /* \"#utility.yul\":4482:4491   */\n      dup4\n        /* \"#utility.yul\":4473:4480   */\n      dup6\n        /* \"#utility.yul\":4469:4492   */\n      sub\n        /* \"#utility.yul\":4465:4498   */\n      slt\n        /* \"#utility.yul\":4462:4582   */\n      iszero\n      tag_213\n      jumpi\n        /* \"#utility.yul\":4501:4580   */\n      tag_214\n      tag_123\n      jump\t// in\n    tag_214:\n        /* \"#utility.yul\":4462:4582   */\n    tag_213:\n        /* \"#utility.yul\":4621:4622   */\n      0x00\n        /* \"#utility.yul\":4646:4723   */\n      tag_215\n        /* \"#utility.yul\":4715:4722   */\n      dup6\n        /* \"#utility.yul\":4706:4712   */\n      dup3\n        /* \"#utility.yul\":4695:4704   */\n      dup7\n        /* \"#utility.yul\":4691:4713   */\n      add\n        /* \"#utility.yul\":4646:4723   */\n      tag_143\n      jump\t// in\n    tag_215:\n        /* \"#utility.yul\":4636:4723   */\n      swap3\n      pop\n        /* \"#utility.yul\":4592:4733   */\n      pop\n        /* \"#utility.yul\":4772:4774   */\n      0x60\n        /* \"#utility.yul\":4798:4851   */\n      tag_216\n        /* \"#utility.yul\":4843:4850   */\n      dup6\n        /* \"#utility.yul\":4834:4840   */\n      dup3\n        /* \"#utility.yul\":4823:4832   */\n      dup7\n        /* \"#utility.yul\":4819:4841   */\n      add\n        /* \"#utility.yul\":4798:4851   */\n      tag_130\n      jump\t// in\n    tag_216:\n        /* \"#utility.yul\":4788:4851   */\n      swap2\n      pop\n        /* \"#utility.yul\":4743:4861   */\n      pop\n        /* \"#utility.yul\":4345:4868   */\n      swap3\n      pop\n      swap3\n      swap1\n      pop\n      jump\t// out\n        /* \"#utility.yul\":4874:5348   */\n    tag_26:\n        /* \"#utility.yul\":4942:4948   */\n      0x00\n        /* \"#utility.yul\":4950:4956   */\n      dup1\n        /* \"#utility.yul\":4999:5001   */\n      0x40\n        /* \"#utility.yul\":4987:4996   */\n      dup4\n        /* \"#utility.yul\":4978:4985   */\n      dup6\n        /* \"#utility.yul\":4974:4997   */\n      sub\n        /* \"#utility.yul\":4970:5002   */\n      slt\n        /* \"#utility.yul\":4967:5086   */\n      iszero\n      tag_218\n      jumpi\n        /* \"#utility.yul\":5005:5084   */\n      tag_219\n      tag_123\n      jump\t// in\n    tag_219:\n        /* \"#utility.yul\":4967:5086   */\n    tag_218:\n        /* \"#utility.yul\":5125:5126   */\n      0x00\n        /* \"#utility.yul\":5150:5203   */\n      tag_220\n        /* \"#utility.yul\":5195:5202   */\n      dup6\n        /* \"#utility.yul\":5186:5192   */\n      dup3\n        /* \"#utility.yul\":5175:5184   */\n      dup7\n        /* \"#utility.yul\":5171:5193   */\n      add\n        /* \"#utility.yul\":5150:5203   */\n      tag_142\n      jump\t// in\n    tag_220:\n        /* \"#utility.yul\":5140:5203   */\n      swap3\n      pop\n        /* \"#utility.yul\":5096:5213   */\n      pop\n        /* \"#utility.yul\":5252:5254   */\n      0x20\n        /* \"#utility.yul\":5278:5331   */\n      tag_221\n        /* \"#utility.yul\":5323:5330   */\n      dup6\n        /* \"#utility.yul\":5314:5320   */\n      dup3\n        /* \"#utility.yul\":5303:5312   */\n      dup7\n        /* \"#utility.yul\":5299:5321   */\n      add\n        /* \"#utility.yul\":5278:5331   */\n      tag_130\n      jump\t// in\n    tag_221:\n        /* \"#utility.yul\":5268:5331   */\n      swap2\n      pop\n        /* \"#utility.yul\":5223:5341   */\n      pop\n        /* \"#utility.yul\":4874:5348   */\n      swap3\n      pop\n      swap3\n      swap1\n      pop\n      jump\t// out\n        /* \"#utility.yul\":5354:5472   */\n    tag_144:\n        /* \"#utility.yul\":5441:5465   */\n      tag_223\n        /* \"#utility.yul\":5459:5464   */\n      dup2\n        /* \"#utility.yul\":5441:5465   */\n      tag_125\n      jump\t// in\n    tag_223:\n        /* \"#utility.yul\":5436:5439   */\n      dup3\n        /* \"#utility.yul\":5429:5466   */\n      mstore\n        /* \"#utility.yul\":5354:5472   */\n      pop\n      pop\n      jump\t// out\n        /* \"#utility.yul\":5478:5700   */\n    tag_29:\n        /* \"#utility.yul\":5571:5575   */\n      0x00\n        /* \"#utility.yul\":5609:5611   */\n      0x20\n        /* \"#utility.yul\":5598:5607   */\n      dup3\n        /* \"#utility.yul\":5594:5612   */\n      add\n        /* \"#utility.yul\":5586:5612   */\n      swap1\n      pop\n        /* \"#utility.yul\":5622:5693   */\n      tag_225\n        /* \"#utility.yul\":5690:5691   */\n      0x00\n        /* \"#utility.yul\":5679:5688   */\n      dup4\n        /* \"#utility.yul\":5675:5692   */\n      add\n        /* \"#utility.yul\":5666:5672   */\n      dup5\n        /* \"#utility.yul\":5622:5693   */\n      tag_144\n      jump\t// in\n    tag_225:\n        /* \"#utility.yul\":5478:5700   */\n      swap3\n      swap2\n      pop\n      pop\n      jump\t// out\n        /* \"#utility.yul\":5706:5824   */\n    tag_145:\n        /* \"#utility.yul\":5793:5817   */\n      tag_227\n        /* \"#utility.yul\":5811:5816   */\n      dup2\n        /* \"#utility.yul\":5793:5817   */\n      tag_140\n      jump\t// in\n    tag_227:\n        /* \"#utility.yul\":5788:5791   */\n      dup3\n        /* \"#utility.yul\":5781:5818   */\n      mstore\n        /* \"#utility.yul\":5706:5824   */\n      pop\n      pop\n      jump\t// out\n        /* \"#utility.yul\":5830:6052   */\n    tag_35:\n        /* \"#utility.yul\":5923:5927   */\n      0x00\n        /* \"#utility.yul\":5961:5963   */\n      0x20\n        /* \"#utility.yul\":5950:5959   */\n      dup3\n        /* \"#utility.yul\":5946:5964   */\n      add\n        /* \"#utility.yul\":5938:5964   */\n      swap1\n      pop\n        /* \"#utility.yul\":5974:6045   */\n      tag_229\n        /* \"#utility.yul\":6042:6043   */\n      0x00\n        /* \"#utility.yul\":6031:6040   */\n      dup4\n        /* \"#utility.yul\":6027:6044   */\n      add\n        /* \"#utility.yul\":6018:6024   */\n      dup5\n        /* \"#utility.yul\":5974:6045   */\n      tag_145\n      jump\t// in\n    tag_229:\n        /* \"#utility.yul\":5830:6052   */\n      swap3\n      swap2\n      pop\n      pop\n      jump\t// out\n        /* \"#utility.yul\":6058:6532   */\n    tag_38:\n        /* \"#utility.yul\":6126:6132   */\n      0x00\n        /* \"#utility.yul\":6134:6140   */\n      dup1\n        /* \"#utility.yul\":6183:6185   */\n      0x40\n        /* \"#utility.yul\":6171:6180   */\n      dup4\n        /* \"#utility.yul\":6162:6169   */\n      dup6\n        /* \"#utility.yul\":6158:6181   */\n      sub\n        /* \"#utility.yul\":6154:6186   */\n      slt\n        /* \"#utility.yul\":6151:6270   */\n      iszero\n      tag_231\n      jumpi\n        /* \"#utility.yul\":6189:6268   */\n      tag_232\n      tag_123\n      jump\t// in\n    tag_232:\n        /* \"#utility.yul\":6151:6270   */\n    tag_231:\n        /* \"#utility.yul\":6309:6310   */\n      0x00\n        /* \"#utility.yul\":6334:6387   */\n      tag_233\n        /* \"#utility.yul\":6379:6386   */\n      dup6\n        /* \"#utility.yul\":6370:6376   */\n      dup3\n        /* \"#utility.yul\":6359:6368   */\n      dup7\n        /* \"#utility.yul\":6355:6377   */\n      add\n        /* \"#utility.yul\":6334:6387   */\n      tag_127\n      jump\t// in\n    tag_233:\n        /* \"#utility.yul\":6324:6387   */\n      swap3\n      pop\n        /* \"#utility.yul\":6280:6397   */\n      pop\n        /* \"#utility.yul\":6436:6438   */\n      0x20\n        /* \"#utility.yul\":6462:6515   */\n      tag_234\n        /* \"#utility.yul\":6507:6514   */\n      dup6\n        /* \"#utility.yul\":6498:6504   */\n      dup3\n        /* \"#utility.yul\":6487:6496   */\n      dup7\n        /* \"#utility.yul\":6483:6505   */\n      add\n        /* \"#utility.yul\":6462:6515   */\n      tag_130\n      jump\t// in\n    tag_234:\n        /* \"#utility.yul\":6452:6515   */\n      swap2\n      pop\n        /* \"#utility.yul\":6407:6525   */\n      pop\n        /* \"#utility.yul\":6058:6532   */\n      swap3\n      pop\n      swap3\n      swap1\n      pop\n      jump\t// out\n        /* \"#utility.yul\":6538:6646   */\n    tag_146:\n        /* \"#utility.yul\":6615:6639   */\n      tag_236\n        /* \"#utility.yul\":6633:6638   */\n      dup2\n        /* \"#utility.yul\":6615:6639   */\n      tag_125\n      jump\t// in\n    tag_236:\n        /* \"#utility.yul\":6610:6613   */\n      dup3\n        /* \"#utility.yul\":6603:6640   */\n      mstore\n        /* \"#utility.yul\":6538:6646   */\n      pop\n      pop\n      jump\t// out\n        /* \"#utility.yul\":6652:6760   */\n    tag_147:\n        /* \"#utility.yul\":6729:6753   */\n      tag_238\n        /* \"#utility.yul\":6747:6752   */\n      dup2\n        /* \"#utility.yul\":6729:6753   */\n      tag_140\n      jump\t// in\n    tag_238:\n        /* \"#utility.yul\":6724:6727   */\n      dup3\n        /* \"#utility.yul\":6717:6754   */\n      mstore\n        /* \"#utility.yul\":6652:6760   */\n      pop\n      pop\n      jump\t// out\n        /* \"#utility.yul\":6804:7500   */\n    tag_148:\n        /* \"#utility.yul\":6949:6953   */\n      0x60\n        /* \"#utility.yul\":6944:6947   */\n      dup3\n        /* \"#utility.yul\":6940:6954   */\n      add\n        /* \"#utility.yul\":7040:7044   */\n      0x00\n        /* \"#utility.yul\":7033:7038   */\n      dup3\n        /* \"#utility.yul\":7029:7045   */\n      add\n        /* \"#utility.yul\":7023:7046   */\n      mload\n        /* \"#utility.yul\":7059:7122   */\n      tag_240\n        /* \"#utility.yul\":7116:7120   */\n      0x00\n        /* \"#utility.yul\":7111:7114   */\n      dup6\n        /* \"#utility.yul\":7107:7121   */\n      add\n        /* \"#utility.yul\":7093:7105   */\n      dup3\n        /* \"#utility.yul\":7059:7122   */\n      tag_146\n      jump\t// in\n    tag_240:\n        /* \"#utility.yul\":6964:7132   */\n      pop\n        /* \"#utility.yul\":7223:7227   */\n      0x20\n        /* \"#utility.yul\":7216:7221   */\n      dup3\n        /* \"#utility.yul\":7212:7228   */\n      add\n        /* \"#utility.yul\":7206:7229   */\n      mload\n        /* \"#utility.yul\":7242:7305   */\n      tag_241\n        /* \"#utility.yul\":7299:7303   */\n      0x20\n        /* \"#utility.yul\":7294:7297   */\n      dup6\n        /* \"#utility.yul\":7290:7304   */\n      add\n        /* \"#utility.yul\":7276:7288   */\n      dup3\n        /* \"#utility.yul\":7242:7305   */\n      tag_147\n      jump\t// in\n    tag_241:\n        /* \"#utility.yul\":7142:7315   */\n      pop\n        /* \"#utility.yul\":7401:7405   */\n      0x40\n        /* \"#utility.yul\":7394:7399   */\n      dup3\n        /* \"#utility.yul\":7390:7406   */\n      add\n        /* \"#utility.yul\":7384:7407   */\n      mload\n        /* \"#utility.yul\":7420:7483   */\n      tag_242\n        /* \"#utility.yul\":7477:7481   */\n      0x40\n        /* \"#utility.yul\":7472:7475   */\n      dup6\n        /* \"#utility.yul\":7468:7482   */\n      add\n        /* \"#utility.yul\":7454:7466   */\n      dup3\n        /* \"#utility.yul\":7420:7483   */\n      tag_146\n      jump\t// in\n    tag_242:\n        /* \"#utility.yul\":7325:7493   */\n      pop\n        /* \"#utility.yul\":6918:7500   */\n      pop\n        /* \"#utility.yul\":6804:7500   */\n      pop\n      pop\n      jump\t// out\n        /* \"#utility.yul\":7506:7824   */\n    tag_45:\n        /* \"#utility.yul\":7647:7651   */\n      0x00\n        /* \"#utility.yul\":7685:7687   */\n      0x60\n        /* \"#utility.yul\":7674:7683   */\n      dup3\n        /* \"#utility.yul\":7670:7688   */\n      add\n        /* \"#utility.yul\":7662:7688   */\n      swap1\n      pop\n        /* \"#utility.yul\":7698:7817   */\n      tag_244\n        /* \"#utility.yul\":7814:7815   */\n      0x00\n        /* \"#utility.yul\":7803:7812   */\n      dup4\n        /* \"#utility.yul\":7799:7816   */\n      add\n        /* \"#utility.yul\":7790:7796   */\n      dup5\n        /* \"#utility.yul\":7698:7817   */\n      tag_148\n      jump\t// in\n    tag_244:\n        /* \"#utility.yul\":7506:7824   */\n      swap3\n      swap2\n      pop\n      pop\n      jump\t// out\n        /* \"#utility.yul\":7830:8159   */\n    tag_48:\n        /* \"#utility.yul\":7889:7895   */\n      0x00\n        /* \"#utility.yul\":7938:7940   */\n      0x20\n        /* \"#utility.yul\":7926:7935   */\n      dup3\n        /* \"#utility.yul\":7917:7924   */\n      dup5\n        /* \"#utility.yul\":7913:7936   */\n      sub\n        /* \"#utility.yul\":7909:7941   */\n      slt\n        /* \"#utility.yul\":7906:8025   */\n      iszero\n      tag_246\n      jumpi\n        /* \"#utility.yul\":7944:8023   */\n      tag_247\n      tag_123\n      jump\t// in\n    tag_247:\n        /* \"#utility.yul\":7906:8025   */\n    tag_246:\n        /* \"#utility.yul\":8064:8065   */\n      0x00\n        /* \"#utility.yul\":8089:8142   */\n      tag_248\n        /* \"#utility.yul\":8134:8141   */\n      dup5\n        /* \"#utility.yul\":8125:8131   */\n      dup3\n        /* \"#utility.yul\":8114:8123   */\n      dup6\n        /* \"#utility.yul\":8110:8132   */\n      add\n        /* \"#utility.yul\":8089:8142   */\n      tag_142\n      jump\t// in\n    tag_248:\n        /* \"#utility.yul\":8079:8142   */\n      swap2\n      pop\n        /* \"#utility.yul\":8035:8152   */\n      pop\n        /* \"#utility.yul\":7830:8159   */\n      swap3\n      swap2\n      pop\n      pop\n      jump\t// out\n        /* \"#utility.yul\":8165:8494   */\n    tag_52:\n        /* \"#utility.yul\":8224:8230   */\n      0x00\n        /* \"#utility.yul\":8273:8275   */\n      0x20\n        /* \"#utility.yul\":8261:8270   */\n      dup3\n        /* \"#utility.yul\":8252:8259   */\n      dup5\n        /* \"#utility.yul\":8248:8271   */\n      sub\n        /* \"#utility.yul\":8244:8276   */\n      slt\n        /* \"#utility.yul\":8241:8360   */\n      iszero\n      tag_250\n      jumpi\n        /* \"#utility.yul\":8279:8358   */\n      tag_251\n      tag_123\n      jump\t// in\n    tag_251:\n        /* \"#utility.yul\":8241:8360   */\n    tag_250:\n        /* \"#utility.yul\":8399:8400   */\n      0x00\n        /* \"#utility.yul\":8424:8477   */\n      tag_252\n        /* \"#utility.yul\":8469:8476   */\n      dup5\n        /* \"#utility.yul\":8460:8466   */\n      dup3\n        /* \"#utility.yul\":8449:8458   */\n      dup6\n        /* \"#utility.yul\":8445:8467   */\n      add\n        /* \"#utility.yul\":8424:8477   */\n      tag_130\n      jump\t// in\n    tag_252:\n        /* \"#utility.yul\":8414:8477   */\n      swap2\n      pop\n        /* \"#utility.yul\":8370:8487   */\n      pop\n        /* \"#utility.yul\":8165:8494   */\n      swap3\n      swap2\n      pop\n      pop\n      jump\t// out\n        /* \"#utility.yul\":8500:8669   */\n    tag_149:\n        /* \"#utility.yul\":8584:8595   */\n      0x00\n        /* \"#utility.yul\":8618:8624   */\n      dup3\n        /* \"#utility.yul\":8613:8616   */\n      dup3\n        /* \"#utility.yul\":8606:8625   */\n      mstore\n        /* \"#utility.yul\":8658:8662   */\n      0x20\n        /* \"#utility.yul\":8653:8656   */\n      dup3\n        /* \"#utility.yul\":8649:8663   */\n      add\n        /* \"#utility.yul\":8634:8663   */\n      swap1\n      pop\n        /* \"#utility.yul\":8500:8669   */\n      swap3\n      swap2\n      pop\n      pop\n      jump\t// out\n        /* \"#utility.yul\":8675:8899   */\n    tag_150:\n        /* \"#utility.yul\":8815:8849   */\n      0x4461746162617365204c6973744661726d65723a20536563726574206b657920\n        /* \"#utility.yul\":8811:8812   */\n      0x00\n        /* \"#utility.yul\":8803:8809   */\n      dup3\n        /* \"#utility.yul\":8799:8813   */\n      add\n        /* \"#utility.yul\":8792:8850   */\n      mstore\n        /* \"#utility.yul\":8884:8891   */\n      0x6572726f72000000000000000000000000000000000000000000000000000000\n        /* \"#utility.yul\":8879:8881   */\n      0x20\n        /* \"#utility.yul\":8871:8877   */\n      dup3\n        /* \"#utility.yul\":8867:8882   */\n      add\n        /* \"#utility.yul\":8860:8892   */\n      mstore\n        /* \"#utility.yul\":8675:8899   */\n      pop\n      jump\t// out\n        /* \"#utility.yul\":8905:9271   */\n    tag_151:\n        /* \"#utility.yul\":9047:9050   */\n      0x00\n        /* \"#utility.yul\":9068:9135   */\n      tag_256\n        /* \"#utility.yul\":9132:9134   */\n      0x25\n        /* \"#utility.yul\":9127:9130   */\n      dup4\n        /* \"#utility.yul\":9068:9135   */\n      tag_149\n      jump\t// in\n    tag_256:\n        /* \"#utility.yul\":9061:9135   */\n      swap2\n      pop\n        /* \"#utility.yul\":9144:9237   */\n      tag_257\n        /* \"#utility.yul\":9233:9236   */\n      dup3\n        /* \"#utility.yul\":9144:9237   */\n      tag_150\n      jump\t// in\n    tag_257:\n        /* \"#utility.yul\":9262:9264   */\n      0x40\n        /* \"#utility.yul\":9257:9260   */\n      dup3\n        /* \"#utility.yul\":9253:9265   */\n      add\n        /* \"#utility.yul\":9246:9265   */\n      swap1\n      pop\n        /* \"#utility.yul\":8905:9271   */\n      swap2\n      swap1\n      pop\n      jump\t// out\n        /* \"#utility.yul\":9277:9696   */\n    tag_58:\n        /* \"#utility.yul\":9443:9447   */\n      0x00\n        /* \"#utility.yul\":9481:9483   */\n      0x20\n        /* \"#utility.yul\":9470:9479   */\n      dup3\n        /* \"#utility.yul\":9466:9484   */\n      add\n        /* \"#utility.yul\":9458:9484   */\n      swap1\n      pop\n        /* \"#utility.yul\":9530:9539   */\n      dup2\n        /* \"#utility.yul\":9524:9528   */\n      dup2\n        /* \"#utility.yul\":9520:9540   */\n      sub\n        /* \"#utility.yul\":9516:9517   */\n      0x00\n        /* \"#utility.yul\":9505:9514   */\n      dup4\n        /* \"#utility.yul\":9501:9518   */\n      add\n        /* \"#utility.yul\":9494:9541   */\n      mstore\n        /* \"#utility.yul\":9558:9689   */\n      tag_259\n        /* \"#utility.yul\":9684:9688   */\n      dup2\n        /* \"#utility.yul\":9558:9689   */\n      tag_151\n      jump\t// in\n    tag_259:\n        /* \"#utility.yul\":9550:9689   */\n      swap1\n      pop\n        /* \"#utility.yul\":9277:9696   */\n      swap2\n      swap1\n      pop\n      jump\t// out\n        /* \"#utility.yul\":9702:9923   */\n    tag_152:\n        /* \"#utility.yul\":9842:9876   */\n      0x4461746162617365204c6973744661726d65723a20496e76616c696420696e64\n        /* \"#utility.yul\":9838:9839   */\n      0x00\n        /* \"#utility.yul\":9830:9836   */\n      dup3\n        /* \"#utility.yul\":9826:9840   */\n      add\n        /* \"#utility.yul\":9819:9877   */\n      mstore\n        /* \"#utility.yul\":9911:9915   */\n      0x6578000000000000000000000000000000000000000000000000000000000000\n        /* \"#utility.yul\":9906:9908   */\n      0x20\n        /* \"#utility.yul\":9898:9904   */\n      dup3\n        /* \"#utility.yul\":9894:9909   */\n      add\n        /* \"#utility.yul\":9887:9916   */\n      mstore\n        /* \"#utility.yul\":9702:9923   */\n      pop\n      jump\t// out\n        /* \"#utility.yul\":9929:10295   */\n    tag_153:\n        /* \"#utility.yul\":10071:10074   */\n      0x00\n        /* \"#utility.yul\":10092:10159   */\n      tag_262\n        /* \"#utility.yul\":10156:10158   */\n      0x22\n        /* \"#utility.yul\":10151:10154   */\n      dup4\n        /* \"#utility.yul\":10092:10159   */\n      tag_149\n      jump\t// in\n    tag_262:\n        /* \"#utility.yul\":10085:10159   */\n      swap2\n      pop\n        /* \"#utility.yul\":10168:10261   */\n      tag_263\n        /* \"#utility.yul\":10257:10260   */\n      dup3\n        /* \"#utility.yul\":10168:10261   */\n      tag_152\n      jump\t// in\n    tag_263:\n        /* \"#utility.yul\":10286:10288   */\n      0x40\n        /* \"#utility.yul\":10281:10284   */\n      dup3\n        /* \"#utility.yul\":10277:10289   */\n      add\n        /* \"#utility.yul\":10270:10289   */\n      swap1\n      pop\n        /* \"#utility.yul\":9929:10295   */\n      swap2\n      swap1\n      pop\n      jump\t// out\n        /* \"#utility.yul\":10301:10720   */\n    tag_63:\n        /* \"#utility.yul\":10467:10471   */\n      0x00\n        /* \"#utility.yul\":10505:10507   */\n      0x20\n        /* \"#utility.yul\":10494:10503   */\n      dup3\n        /* \"#utility.yul\":10490:10508   */\n      add\n        /* \"#utility.yul\":10482:10508   */\n      swap1\n      pop\n        /* \"#utility.yul\":10554:10563   */\n      dup2\n        /* \"#utility.yul\":10548:10552   */\n      dup2\n        /* \"#utility.yul\":10544:10564   */\n      sub\n        /* \"#utility.yul\":10540:10541   */\n      0x00\n        /* \"#utility.yul\":10529:10538   */\n      dup4\n        /* \"#utility.yul\":10525:10542   */\n      add\n        /* \"#utility.yul\":10518:10565   */\n      mstore\n        /* \"#utility.yul\":10582:10713   */\n      tag_265\n        /* \"#utility.yul\":10708:10712   */\n      dup2\n        /* \"#utility.yul\":10582:10713   */\n      tag_153\n      jump\t// in\n    tag_265:\n        /* \"#utility.yul\":10574:10713   */\n      swap1\n      pop\n        /* \"#utility.yul\":10301:10720   */\n      swap2\n      swap1\n      pop\n      jump\t// out\n        /* \"#utility.yul\":10726:10906   */\n    tag_154:\n        /* \"#utility.yul\":10774:10851   */\n      0x4e487b7100000000000000000000000000000000000000000000000000000000\n        /* \"#utility.yul\":10771:10772   */\n      0x00\n        /* \"#utility.yul\":10764:10852   */\n      mstore\n        /* \"#utility.yul\":10871:10875   */\n      0x11\n        /* \"#utility.yul\":10868:10869   */\n      0x04\n        /* \"#utility.yul\":10861:10876   */\n      mstore\n        /* \"#utility.yul\":10895:10899   */\n      0x24\n        /* \"#utility.yul\":10892:10893   */\n      0x00\n        /* \"#utility.yul\":10885:10900   */\n      revert\n        /* \"#utility.yul\":10912:11145   */\n    tag_70:\n        /* \"#utility.yul\":10951:10954   */\n      0x00\n        /* \"#utility.yul\":10974:10998   */\n      tag_268\n        /* \"#utility.yul\":10992:10997   */\n      dup3\n        /* \"#utility.yul\":10974:10998   */\n      tag_125\n      jump\t// in\n    tag_268:\n        /* \"#utility.yul\":10965:10998   */\n      swap2\n      pop\n        /* \"#utility.yul\":11020:11086   */\n      0xffffffffffffffffffffffffffffffffffffffffffffffffffffffffffffffff\n        /* \"#utility.yul\":11013:11018   */\n      dup3\n        /* \"#utility.yul\":11010:11087   */\n      sub\n        /* \"#utility.yul\":11007:11110   */\n      tag_269\n      jumpi\n        /* \"#utility.yul\":11090:11108   */\n      tag_270\n      tag_154\n      jump\t// in\n    tag_270:\n        /* \"#utility.yul\":11007:11110   */\n    tag_269:\n        /* \"#utility.yul\":11137:11138   */\n      0x01\n        /* \"#utility.yul\":11130:11135   */\n      dup3\n        /* \"#utility.yul\":11126:11139   */\n      add\n        /* \"#utility.yul\":11119:11139   */\n      swap1\n      pop\n        /* \"#utility.yul\":10912:11145   */\n      swap2\n      swap1\n      pop\n      jump\t// out\n        /* \"#utility.yul\":11151:11376   */\n    tag_155:\n        /* \"#utility.yul\":11291:11325   */\n      0x4f776e61626c653a206e6577206f776e657220697320746865207a65726f2061\n        /* \"#utility.yul\":11287:11288   */\n      0x00\n        /* \"#utility.yul\":11279:11285   */\n      dup3\n        /* \"#utility.yul\":11275:11289   */\n      add\n        /* \"#utility.yul\":11268:11326   */\n      mstore\n        /* \"#utility.yul\":11360:11368   */\n      0x6464726573730000000000000000000000000000000000000000000000000000\n        /* \"#utility.yul\":11355:11357   */\n      0x20\n        /* \"#utility.yul\":11347:11353   */\n      dup3\n        /* \"#utility.yul\":11343:11358   */\n      add\n        /* \"#utility.yul\":11336:11369   */\n      mstore\n        /* \"#utility.yul\":11151:11376   */\n      pop\n      jump\t// out\n        /* \"#utility.yul\":11382:11748   */\n    tag_156:\n        /* \"#utility.yul\":11524:11527   */\n      0x00\n        /* \"#utility.yul\":11545:11612   */\n      tag_273\n        /* \"#utility.yul\":11609:11611   */\n      0x26\n        /* \"#utility.yul\":11604:11607   */\n      dup4\n        /* \"#utility.yul\":11545:11612   */\n      tag_149\n      jump\t// in\n    tag_273:\n        /* \"#utility.yul\":11538:11612   */\n      swap2\n      pop\n        /* \"#utility.yul\":11621:11714   */\n      tag_274\n        /* \"#utility.yul\":11710:11713   */\n      dup3\n        /* \"#utility.yul\":11621:11714   */\n      tag_155\n      jump\t// in\n    tag_274:\n        /* \"#utility.yul\":11739:11741   */\n      0x40\n        /* \"#utility.yul\":11734:11737   */\n      dup3\n        /* \"#utility.yul\":11730:11742   */\n      add\n        /* \"#utility.yul\":11723:11742   */\n      swap1\n      pop\n        /* \"#utility.yul\":11382:11748   */\n      swap2\n      swap1\n      pop\n      jump\t// out\n        /* \"#utility.yul\":11754:12173   */\n    tag_109:\n        /* \"#utility.yul\":11920:11924   */\n      0x00\n        /* \"#utility.yul\":11958:11960   */\n      0x20\n        /* \"#utility.yul\":11947:11956   */\n      dup3\n        /* \"#utility.yul\":11943:11961   */\n      add\n        /* \"#utility.yul\":11935:11961   */\n      swap1\n      pop\n        /* \"#utility.yul\":12007:12016   */\n      dup2\n        /* \"#utility.yul\":12001:12005   */\n      dup2\n        /* \"#utility.yul\":11997:12017   */\n      sub\n        /* \"#utility.yul\":11993:11994   */\n      0x00\n        /* \"#utility.yul\":11982:11991   */\n      dup4\n        /* \"#utility.yul\":11978:11995   */\n      add\n        /* \"#utility.yul\":11971:12018   */\n      mstore\n        /* \"#utility.yul\":12035:12166   */\n      tag_276\n        /* \"#utility.yul\":12161:12165   */\n      dup2\n        /* \"#utility.yul\":12035:12166   */\n      tag_156\n      jump\t// in\n    tag_276:\n        /* \"#utility.yul\":12027:12166   */\n      swap1\n      pop\n        /* \"#utility.yul\":11754:12173   */\n      swap2\n      swap1\n      pop\n      jump\t// out\n        /* \"#utility.yul\":12179:12361   */\n    tag_157:\n        /* \"#utility.yul\":12319:12353   */\n      0x4f776e61626c653a2063616c6c6572206973206e6f7420746865206f776e6572\n        /* \"#utility.yul\":12315:12316   */\n      0x00\n        /* \"#utility.yul\":12307:12313   */\n      dup3\n        /* \"#utility.yul\":12303:12317   */\n      add\n        /* \"#utility.yul\":12296:12354   */\n      mstore\n        /* \"#utility.yul\":12179:12361   */\n      pop\n      jump\t// out\n        /* \"#utility.yul\":12367:12733   */\n    tag_158:\n        /* \"#utility.yul\":12509:12512   */\n      0x00\n        /* \"#utility.yul\":12530:12597   */\n      tag_279\n        /* \"#utility.yul\":12594:12596   */\n      0x20\n        /* \"#utility.yul\":12589:12592   */\n      dup4\n        /* \"#utility.yul\":12530:12597   */\n      tag_149\n      jump\t// in\n    tag_279:\n        /* \"#utility.yul\":12523:12597   */\n      swap2\n      pop\n        /* \"#utility.yul\":12606:12699   */\n      tag_280\n        /* \"#utility.yul\":12695:12698   */\n      dup3\n        /* \"#utility.yul\":12606:12699   */\n      tag_157\n      jump\t// in\n    tag_280:\n        /* \"#utility.yul\":12724:12726   */\n      0x20\n        /* \"#utility.yul\":12719:12722   */\n      dup3\n        /* \"#utility.yul\":12715:12727   */\n      add\n        /* \"#utility.yul\":12708:12727   */\n      swap1\n      pop\n        /* \"#utility.yul\":12367:12733   */\n      swap2\n      swap1\n      pop\n      jump\t// out\n        /* \"#utility.yul\":12739:13158   */\n    tag_120:\n        /* \"#utility.yul\":12905:12909   */\n      0x00\n        /* \"#utility.yul\":12943:12945   */\n      0x20\n        /* \"#utility.yul\":12932:12941   */\n      dup3\n        /* \"#utility.yul\":12928:12946   */\n      add\n        /* \"#utility.yul\":12920:12946   */\n      swap1\n      pop\n        /* \"#utility.yul\":12992:13001   */\n      dup2\n        /* \"#utility.yul\":12986:12990   */\n      dup2\n        /* \"#utility.yul\":12982:13002   */\n      sub\n        /* \"#utility.yul\":12978:12979   */\n      0x00\n        /* \"#utility.yul\":12967:12976   */\n      dup4\n        /* \"#utility.yul\":12963:12980   */\n      add\n        /* \"#utility.yul\":12956:13003   */\n      mstore\n        /* \"#utility.yul\":13020:13151   */\n      tag_282\n        /* \"#utility.yul\":13146:13150   */\n      dup2\n        /* \"#utility.yul\":13020:13151   */\n      tag_158\n      jump\t// in\n    tag_282:\n        /* \"#utility.yul\":13012:13151   */\n      swap1\n      pop\n        /* \"#utility.yul\":12739:13158   */\n      swap2\n      swap1\n      pop\n      jump\t// out\n\n    auxdata: 0xa26469706673582212209363d2885ccf31756431c3981a159b5dc445516487c6bdef9bc5fe82ae6c36fb64736f6c63430008110033\n}\n",
				"bytecode": {
					"linkReferences": {},
					"object": "6080604052600060025534801561001557600080fd5b50336000806101000a81548173ffffffffffffffffffffffffffffffffffffffff021916908373ffffffffffffffffffffffffffffffffffffffff1602179055506111d8806100656000396000f3fe608060405234801561001057600080fd5b50600436106100935760003560e01c80638da5cb5b116100665780638da5cb5b14610132578063b615c00a14610150578063c78a674114610180578063f2fde38b146101b0578063fd82e9dd146101cc57610093565b8063294b4b6b146100985780633ce17585146100c857806364fb3c8e146100f857806383197ef014610128575b600080fd5b6100b260048036038101906100ad9190610b33565b6101fc565b6040516100bf9190610ba1565b60405180910390f35b6100e260048036038101906100dd9190610d0f565b6102df565b6040516100ef9190610ba1565b60405180910390f35b610112600480360381019061010d9190610d4f565b610421565b60405161011f9190610d9e565b60405180910390f35b610130610541565b005b61013a610562565b6040516101479190610dc8565b60405180910390f35b61016a60048036038101906101659190610de3565b61058b565b6040516101779190610ba1565b60405180910390f35b61019a60048036038101906101959190610de3565b6106fd565b6040516101a79190610e83565b60405180910390f35b6101ca60048036038101906101c59190610e9e565b610850565b005b6101e660048036038101906101e19190610ecb565b6108d3565b6040516101f39190610d9e565b60405180910390f35b6000827f8e1604a838d0f1a9b2cda14a099e4ceb08e966cc6e05e8296f67b02d61a79f0960001b8114610264576040517f08c379a000000000000000000000000000000000000000000000000000000000815260040161025b90610f7b565b60405180910390fd5b848060011115801561027857506002548111155b6102b7576040517f08c379a00000000000000000000000000000000000000000000000000000000081526004016102ae9061100d565b60405180910390fd5b8360016000888152602001908152602001600020600201819055506001925050509392505050565b6000817f8e1604a838d0f1a9b2cda14a099e4ceb08e966cc6e05e8296f67b02d61a79f0960001b8114610347576040517f08c379a000000000000000000000000000000000000000000000000000000000815260040161033e90610f7b565b60405180910390fd5b6002600081548092919061035a9061105c565b9190505550600254846000018181525050836001600060025481526020019081526020016000206000820151816000015560208201518160010160006101000a81548173ffffffffffffffffffffffffffffffffffffffff021916908373ffffffffffffffffffffffffffffffffffffffff160217905550604082015181600201559050507fcd52d7a5ad1530fc4e2a7fc9b6b7cd488496952af7129189a1132017f883c8e38460405161040e9190610e83565b60405180910390a1600191505092915050565b6000817f8e1604a838d0f1a9b2cda14a099e4ceb08e966cc6e05e8296f67b02d61a79f0960001b8114610489576040517f08c379a000000000000000000000000000000000000000000000000000000000815260040161048090610f7b565b60405180910390fd5b6000600190505b6002548111610534578473ffffffffffffffffffffffffffffffffffffffff166001600083815260200190815260200160002060010160009054906101000a900473ffffffffffffffffffffffffffffffffffffffff1673ffffffffffffffffffffffffffffffffffffffff160361052157600160008281526020019081526020016000206000015492505061053a565b808061052c9061105c565b915050610490565b50600091505b5092915050565b610549610946565b3073ffffffffffffffffffffffffffffffffffffffff16ff5b60008060009054906101000a900473ffffffffffffffffffffffffffffffffffffffff16905090565b6000817f8e1604a838d0f1a9b2cda14a099e4ceb08e966cc6e05e8296f67b02d61a79f0960001b81146105f3576040517f08c379a00000000000000000000000000000000000000000000000000000000081526004016105ea90610f7b565b60405180910390fd5b838060011115801561060757506002548111155b610646576040517f08c379a000000000000000000000000000000000000000000000000000000000815260040161063d9061100d565b60405180910390fd5b6000604051806060016040528060008152602001600073ffffffffffffffffffffffffffffffffffffffff1681526020016000815250905080600160008881526020019081526020016000206000820151816000015560208201518160010160006101000a81548173ffffffffffffffffffffffffffffffffffffffff021916908373ffffffffffffffffffffffffffffffffffffffff160217905550604082015181600201559050506001935050505092915050565b610705610a81565b817f8e1604a838d0f1a9b2cda14a099e4ceb08e966cc6e05e8296f67b02d61a79f0960001b811461076b576040517f08c379a000000000000000000000000000000000000000000000000000000000815260040161076290610f7b565b60405180910390fd5b838060011115801561077f57506002548111155b6107be576040517f08c379a00000000000000000000000000000000000000000000000000000000081526004016107b59061100d565b60405180910390fd5b60016000868152602001908152602001600020604051806060016040529081600082015481526020016001820160009054906101000a900473ffffffffffffffffffffffffffffffffffffffff1673ffffffffffffffffffffffffffffffffffffffff1673ffffffffffffffffffffffffffffffffffffffff1681526020016002820154815250509250505092915050565b610858610946565b600073ffffffffffffffffffffffffffffffffffffffff168173ffffffffffffffffffffffffffffffffffffffff16036108c7576040517f08c379a00000000000000000000000000000000000000000000000000000000081526004016108be90611116565b60405180910390fd5b6108d0816109bd565b50565b6000817f8e1604a838d0f1a9b2cda14a099e4ceb08e966cc6e05e8296f67b02d61a79f0960001b811461093b576040517f08c379a000000000000000000000000000000000000000000000000000000000815260040161093290610f7b565b60405180910390fd5b600254915050919050565b3373ffffffffffffffffffffffffffffffffffffffff16610965610562565b73ffffffffffffffffffffffffffffffffffffffff16146109bb576040517f08c379a00000000000000000000000000000000000000000000000000000000081526004016109b290611182565b60405180910390fd5b565b60008060009054906101000a900473ffffffffffffffffffffffffffffffffffffffff169050816000806101000a81548173ffffffffffffffffffffffffffffffffffffffff021916908373ffffffffffffffffffffffffffffffffffffffff1602179055508173ffffffffffffffffffffffffffffffffffffffff168173ffffffffffffffffffffffffffffffffffffffff167f8be0079c531659141344cd1fd0a4f28419497f9722a3daafe3b4186f6b6457e060405160405180910390a35050565b604051806060016040528060008152602001600073ffffffffffffffffffffffffffffffffffffffff168152602001600081525090565b6000604051905090565b600080fd5b6000819050919050565b610ada81610ac7565b8114610ae557600080fd5b50565b600081359050610af781610ad1565b92915050565b6000819050919050565b610b1081610afd565b8114610b1b57600080fd5b50565b600081359050610b2d81610b07565b92915050565b600080600060608486031215610b4c57610b4b610ac2565b5b6000610b5a86828701610ae8565b9350506020610b6b86828701610b1e565b9250506040610b7c86828701610ae8565b9150509250925092565b60008115159050919050565b610b9b81610b86565b82525050565b6000602082019050610bb66000830184610b92565b92915050565b600080fd5b6000601f19601f8301169050919050565b7f4e487b7100000000000000000000000000000000000000000000000000000000600052604160045260246000fd5b610c0a82610bc1565b810181811067ffffffffffffffff82111715610c2957610c28610bd2565b5b80604052505050565b6000610c3c610ab8565b9050610c488282610c01565b919050565b600073ffffffffffffffffffffffffffffffffffffffff82169050919050565b6000610c7882610c4d565b9050919050565b610c8881610c6d565b8114610c9357600080fd5b50565b600081359050610ca581610c7f565b92915050565b600060608284031215610cc157610cc0610bbc565b5b610ccb6060610c32565b90506000610cdb84828501610ae8565b6000830152506020610cef84828501610c96565b6020830152506040610d0384828501610ae8565b60408301525092915050565b60008060808385031215610d2657610d25610ac2565b5b6000610d3485828601610cab565b9250506060610d4585828601610b1e565b9150509250929050565b60008060408385031215610d6657610d65610ac2565b5b6000610d7485828601610c96565b9250506020610d8585828601610b1e565b9150509250929050565b610d9881610ac7565b82525050565b6000602082019050610db36000830184610d8f565b92915050565b610dc281610c6d565b82525050565b6000602082019050610ddd6000830184610db9565b92915050565b60008060408385031215610dfa57610df9610ac2565b5b6000610e0885828601610ae8565b9250506020610e1985828601610b1e565b9150509250929050565b610e2c81610ac7565b82525050565b610e3b81610c6d565b82525050565b606082016000820151610e576000850182610e23565b506020820151610e6a6020850182610e32565b506040820151610e7d6040850182610e23565b50505050565b6000606082019050610e986000830184610e41565b92915050565b600060208284031215610eb457610eb3610ac2565b5b6000610ec284828501610c96565b91505092915050565b600060208284031215610ee157610ee0610ac2565b5b6000610eef84828501610b1e565b91505092915050565b600082825260208201905092915050565b7f4461746162617365204c6973744661726d65723a20536563726574206b65792060008201527f6572726f72000000000000000000000000000000000000000000000000000000602082015250565b6000610f65602583610ef8565b9150610f7082610f09565b604082019050919050565b60006020820190508181036000830152610f9481610f58565b9050919050565b7f4461746162617365204c6973744661726d65723a20496e76616c696420696e6460008201527f6578000000000000000000000000000000000000000000000000000000000000602082015250565b6000610ff7602283610ef8565b915061100282610f9b565b604082019050919050565b6000602082019050818103600083015261102681610fea565b9050919050565b7f4e487b7100000000000000000000000000000000000000000000000000000000600052601160045260246000fd5b600061106782610ac7565b91507fffffffffffffffffffffffffffffffffffffffffffffffffffffffffffffffff82036110995761109861102d565b5b600182019050919050565b7f4f776e61626c653a206e6577206f776e657220697320746865207a65726f206160008201527f6464726573730000000000000000000000000000000000000000000000000000602082015250565b6000611100602683610ef8565b915061110b826110a4565b604082019050919050565b6000602082019050818103600083015261112f816110f3565b9050919050565b7f4f776e61626c653a2063616c6c6572206973206e6f7420746865206f776e6572600082015250565b600061116c602083610ef8565b915061117782611136565b602082019050919050565b6000602082019050818103600083015261119b8161115f565b905091905056fea26469706673582212209363d2885ccf31756431c3981a159b5dc445516487c6bdef9bc5fe82ae6c36fb64736f6c63430008110033",
					"opcodes": "PUSH1 0x80 PUSH1 0x40 MSTORE PUSH1 0x0 PUSH1 0x2 SSTORE CALLVALUE DUP1 ISZERO PUSH2 0x15 JUMPI PUSH1 0x0 DUP1 REVERT JUMPDEST POP CALLER PUSH1 0x0 DUP1 PUSH2 0x100 EXP DUP2 SLOAD DUP2 PUSH20 0xFFFFFFFFFFFFFFFFFFFFFFFFFFFFFFFFFFFFFFFF MUL NOT AND SWAP1 DUP4 PUSH20 0xFFFFFFFFFFFFFFFFFFFFFFFFFFFFFFFFFFFFFFFF AND MUL OR SWAP1 SSTORE POP PUSH2 0x11D8 DUP1 PUSH2 0x65 PUSH1 0x0 CODECOPY PUSH1 0x0 RETURN INVALID PUSH1 0x80 PUSH1 0x40 MSTORE CALLVALUE DUP1 ISZERO PUSH2 0x10 JUMPI PUSH1 0x0 DUP1 REVERT JUMPDEST POP PUSH1 0x4 CALLDATASIZE LT PUSH2 0x93 JUMPI PUSH1 0x0 CALLDATALOAD PUSH1 0xE0 SHR DUP1 PUSH4 0x8DA5CB5B GT PUSH2 0x66 JUMPI DUP1 PUSH4 0x8DA5CB5B EQ PUSH2 0x132 JUMPI DUP1 PUSH4 0xB615C00A EQ PUSH2 0x150 JUMPI DUP1 PUSH4 0xC78A6741 EQ PUSH2 0x180 JUMPI DUP1 PUSH4 0xF2FDE38B EQ PUSH2 0x1B0 JUMPI DUP1 PUSH4 0xFD82E9DD EQ PUSH2 0x1CC JUMPI PUSH2 0x93 JUMP JUMPDEST DUP1 PUSH4 0x294B4B6B EQ PUSH2 0x98 JUMPI DUP1 PUSH4 0x3CE17585 EQ PUSH2 0xC8 JUMPI DUP1 PUSH4 0x64FB3C8E EQ PUSH2 0xF8 JUMPI DUP1 PUSH4 0x83197EF0 EQ PUSH2 0x128 JUMPI JUMPDEST PUSH1 0x0 DUP1 REVERT JUMPDEST PUSH2 0xB2 PUSH1 0x4 DUP1 CALLDATASIZE SUB DUP2 ADD SWAP1 PUSH2 0xAD SWAP2 SWAP1 PUSH2 0xB33 JUMP JUMPDEST PUSH2 0x1FC JUMP JUMPDEST PUSH1 0x40 MLOAD PUSH2 0xBF SWAP2 SWAP1 PUSH2 0xBA1 JUMP JUMPDEST PUSH1 0x40 MLOAD DUP1 SWAP2 SUB SWAP1 RETURN JUMPDEST PUSH2 0xE2 PUSH1 0x4 DUP1 CALLDATASIZE SUB DUP2 ADD SWAP1 PUSH2 0xDD SWAP2 SWAP1 PUSH2 0xD0F JUMP JUMPDEST PUSH2 0x2DF JUMP JUMPDEST PUSH1 0x40 MLOAD PUSH2 0xEF SWAP2 SWAP1 PUSH2 0xBA1 JUMP JUMPDEST PUSH1 0x40 MLOAD DUP1 SWAP2 SUB SWAP1 RETURN JUMPDEST PUSH2 0x112 PUSH1 0x4 DUP1 CALLDATASIZE SUB DUP2 ADD SWAP1 PUSH2 0x10D SWAP2 SWAP1 PUSH2 0xD4F JUMP JUMPDEST PUSH2 0x421 JUMP JUMPDEST PUSH1 0x40 MLOAD PUSH2 0x11F SWAP2 SWAP1 PUSH2 0xD9E JUMP JUMPDEST PUSH1 0x40 MLOAD DUP1 SWAP2 SUB SWAP1 RETURN JUMPDEST PUSH2 0x130 PUSH2 0x541 JUMP JUMPDEST STOP JUMPDEST PUSH2 0x13A PUSH2 0x562 JUMP JUMPDEST PUSH1 0x40 MLOAD PUSH2 0x147 SWAP2 SWAP1 PUSH2 0xDC8 JUMP JUMPDEST PUSH1 0x40 MLOAD DUP1 SWAP2 SUB SWAP1 RETURN JUMPDEST PUSH2 0x16A PUSH1 0x4 DUP1 CALLDATASIZE SUB DUP2 ADD SWAP1 PUSH2 0x165 SWAP2 SWAP1 PUSH2 0xDE3 JUMP JUMPDEST PUSH2 0x58B JUMP JUMPDEST PUSH1 0x40 MLOAD PUSH2 0x177 SWAP2 SWAP1 PUSH2 0xBA1 JUMP JUMPDEST PUSH1 0x40 MLOAD DUP1 SWAP2 SUB SWAP1 RETURN JUMPDEST PUSH2 0x19A PUSH1 0x4 DUP1 CALLDATASIZE SUB DUP2 ADD SWAP1 PUSH2 0x195 SWAP2 SWAP1 PUSH2 0xDE3 JUMP JUMPDEST PUSH2 0x6FD JUMP JUMPDEST PUSH1 0x40 MLOAD PUSH2 0x1A7 SWAP2 SWAP1 PUSH2 0xE83 JUMP JUMPDEST PUSH1 0x40 MLOAD DUP1 SWAP2 SUB SWAP1 RETURN JUMPDEST PUSH2 0x1CA PUSH1 0x4 DUP1 CALLDATASIZE SUB DUP2 ADD SWAP1 PUSH2 0x1C5 SWAP2 SWAP1 PUSH2 0xE9E JUMP JUMPDEST PUSH2 0x850 JUMP JUMPDEST STOP JUMPDEST PUSH2 0x1E6 PUSH1 0x4 DUP1 CALLDATASIZE SUB DUP2 ADD SWAP1 PUSH2 0x1E1 SWAP2 SWAP1 PUSH2 0xECB JUMP JUMPDEST PUSH2 0x8D3 JUMP JUMPDEST PUSH1 0x40 MLOAD PUSH2 0x1F3 SWAP2 SWAP1 PUSH2 0xD9E JUMP JUMPDEST PUSH1 0x40 MLOAD DUP1 SWAP2 SUB SWAP1 RETURN JUMPDEST PUSH1 0x0 DUP3 PUSH32 0x8E1604A838D0F1A9B2CDA14A099E4CEB08E966CC6E05E8296F67B02D61A79F09 PUSH1 0x0 SHL DUP2 EQ PUSH2 0x264 JUMPI PUSH1 0x40 MLOAD PUSH32 0x8C379A000000000000000000000000000000000000000000000000000000000 DUP2 MSTORE PUSH1 0x4 ADD PUSH2 0x25B SWAP1 PUSH2 0xF7B JUMP JUMPDEST PUSH1 0x40 MLOAD DUP1 SWAP2 SUB SWAP1 REVERT JUMPDEST DUP5 DUP1 PUSH1 0x1 GT ISZERO DUP1 ISZERO PUSH2 0x278 JUMPI POP PUSH1 0x2 SLOAD DUP2 GT ISZERO JUMPDEST PUSH2 0x2B7 JUMPI PUSH1 0x40 MLOAD PUSH32 0x8C379A000000000000000000000000000000000000000000000000000000000 DUP2 MSTORE PUSH1 0x4 ADD PUSH2 0x2AE SWAP1 PUSH2 0x100D JUMP JUMPDEST PUSH1 0x40 MLOAD DUP1 SWAP2 SUB SWAP1 REVERT JUMPDEST DUP4 PUSH1 0x1 PUSH1 0x0 DUP9 DUP2 MSTORE PUSH1 0x20 ADD SWAP1 DUP2 MSTORE PUSH1 0x20 ADD PUSH1 0x0 KECCAK256 PUSH1 0x2 ADD DUP2 SWAP1 SSTORE POP PUSH1 0x1 SWAP3 POP POP POP SWAP4 SWAP3 POP POP POP JUMP JUMPDEST PUSH1 0x0 DUP2 PUSH32 0x8E1604A838D0F1A9B2CDA14A099E4CEB08E966CC6E05E8296F67B02D61A79F09 PUSH1 0x0 SHL DUP2 EQ PUSH2 0x347 JUMPI PUSH1 0x40 MLOAD PUSH32 0x8C379A000000000000000000000000000000000000000000000000000000000 DUP2 MSTORE PUSH1 0x4 ADD PUSH2 0x33E SWAP1 PUSH2 0xF7B JUMP JUMPDEST PUSH1 0x40 MLOAD DUP1 SWAP2 SUB SWAP1 REVERT JUMPDEST PUSH1 0x2 PUSH1 0x0 DUP2 SLOAD DUP1 SWAP3 SWAP2 SWAP1 PUSH2 0x35A SWAP1 PUSH2 0x105C JUMP JUMPDEST SWAP2 SWAP1 POP SSTORE POP PUSH1 0x2 SLOAD DUP5 PUSH1 0x0 ADD DUP2 DUP2 MSTORE POP POP DUP4 PUSH1 0x1 PUSH1 0x0 PUSH1 0x2 SLOAD DUP2 MSTORE PUSH1 0x20 ADD SWAP1 DUP2 MSTORE PUSH1 0x20 ADD PUSH1 0x0 KECCAK256 PUSH1 0x0 DUP3 ADD MLOAD DUP2 PUSH1 0x0 ADD SSTORE PUSH1 0x20 DUP3 ADD MLOAD DUP2 PUSH1 0x1 ADD PUSH1 0x0 PUSH2 0x100 EXP DUP2 SLOAD DUP2 PUSH20 0xFFFFFFFFFFFFFFFFFFFFFFFFFFFFFFFFFFFFFFFF MUL NOT AND SWAP1 DUP4 PUSH20 0xFFFFFFFFFFFFFFFFFFFFFFFFFFFFFFFFFFFFFFFF AND MUL OR SWAP1 SSTORE POP PUSH1 0x40 DUP3 ADD MLOAD DUP2 PUSH1 0x2 ADD SSTORE SWAP1 POP POP PUSH32 0xCD52D7A5AD1530FC4E2A7FC9B6B7CD488496952AF7129189A1132017F883C8E3 DUP5 PUSH1 0x40 MLOAD PUSH2 0x40E SWAP2 SWAP1 PUSH2 0xE83 JUMP JUMPDEST PUSH1 0x40 MLOAD DUP1 SWAP2 SUB SWAP1 LOG1 PUSH1 0x1 SWAP2 POP POP SWAP3 SWAP2 POP POP JUMP JUMPDEST PUSH1 0x0 DUP2 PUSH32 0x8E1604A838D0F1A9B2CDA14A099E4CEB08E966CC6E05E8296F67B02D61A79F09 PUSH1 0x0 SHL DUP2 EQ PUSH2 0x489 JUMPI PUSH1 0x40 MLOAD PUSH32 0x8C379A000000000000000000000000000000000000000000000000000000000 DUP2 MSTORE PUSH1 0x4 ADD PUSH2 0x480 SWAP1 PUSH2 0xF7B JUMP JUMPDEST PUSH1 0x40 MLOAD DUP1 SWAP2 SUB SWAP1 REVERT JUMPDEST PUSH1 0x0 PUSH1 0x1 SWAP1 POP JUMPDEST PUSH1 0x2 SLOAD DUP2 GT PUSH2 0x534 JUMPI DUP5 PUSH20 0xFFFFFFFFFFFFFFFFFFFFFFFFFFFFFFFFFFFFFFFF AND PUSH1 0x1 PUSH1 0x0 DUP4 DUP2 MSTORE PUSH1 0x20 ADD SWAP1 DUP2 MSTORE PUSH1 0x20 ADD PUSH1 0x0 KECCAK256 PUSH1 0x1 ADD PUSH1 0x0 SWAP1 SLOAD SWAP1 PUSH2 0x100 EXP SWAP1 DIV PUSH20 0xFFFFFFFFFFFFFFFFFFFFFFFFFFFFFFFFFFFFFFFF AND PUSH20 0xFFFFFFFFFFFFFFFFFFFFFFFFFFFFFFFFFFFFFFFF AND SUB PUSH2 0x521 JUMPI PUSH1 0x1 PUSH1 0x0 DUP3 DUP2 MSTORE PUSH1 0x20 ADD SWAP1 DUP2 MSTORE PUSH1 0x20 ADD PUSH1 0x0 KECCAK256 PUSH1 0x0 ADD SLOAD SWAP3 POP POP PUSH2 0x53A JUMP JUMPDEST DUP1 DUP1 PUSH2 0x52C SWAP1 PUSH2 0x105C JUMP JUMPDEST SWAP2 POP POP PUSH2 0x490 JUMP JUMPDEST POP PUSH1 0x0 SWAP2 POP JUMPDEST POP SWAP3 SWAP2 POP POP JUMP JUMPDEST PUSH2 0x549 PUSH2 0x946 JUMP JUMPDEST ADDRESS PUSH20 0xFFFFFFFFFFFFFFFFFFFFFFFFFFFFFFFFFFFFFFFF AND SELFDESTRUCT JUMPDEST PUSH1 0x0 DUP1 PUSH1 0x0 SWAP1 SLOAD SWAP1 PUSH2 0x100 EXP SWAP1 DIV PUSH20 0xFFFFFFFFFFFFFFFFFFFFFFFFFFFFFFFFFFFFFFFF AND SWAP1 POP SWAP1 JUMP JUMPDEST PUSH1 0x0 DUP2 PUSH32 0x8E1604A838D0F1A9B2CDA14A099E4CEB08E966CC6E05E8296F67B02D61A79F09 PUSH1 0x0 SHL DUP2 EQ PUSH2 0x5F3 JUMPI PUSH1 0x40 MLOAD PUSH32 0x8C379A000000000000000000000000000000000000000000000000000000000 DUP2 MSTORE PUSH1 0x4 ADD PUSH2 0x5EA SWAP1 PUSH2 0xF7B JUMP JUMPDEST PUSH1 0x40 MLOAD DUP1 SWAP2 SUB SWAP1 REVERT JUMPDEST DUP4 DUP1 PUSH1 0x1 GT ISZERO DUP1 ISZERO PUSH2 0x607 JUMPI POP PUSH1 0x2 SLOAD DUP2 GT ISZERO JUMPDEST PUSH2 0x646 JUMPI PUSH1 0x40 MLOAD PUSH32 0x8C379A000000000000000000000000000000000000000000000000000000000 DUP2 MSTORE PUSH1 0x4 ADD PUSH2 0x63D SWAP1 PUSH2 0x100D JUMP JUMPDEST PUSH1 0x40 MLOAD DUP1 SWAP2 SUB SWAP1 REVERT JUMPDEST PUSH1 0x0 PUSH1 0x40 MLOAD DUP1 PUSH1 0x60 ADD PUSH1 0x40 MSTORE DUP1 PUSH1 0x0 DUP2 MSTORE PUSH1 0x20 ADD PUSH1 0x0 PUSH20 0xFFFFFFFFFFFFFFFFFFFFFFFFFFFFFFFFFFFFFFFF AND DUP2 MSTORE PUSH1 0x20 ADD PUSH1 0x0 DUP2 MSTORE POP SWAP1 POP DUP1 PUSH1 0x1 PUSH1 0x0 DUP9 DUP2 MSTORE PUSH1 0x20 ADD SWAP1 DUP2 MSTORE PUSH1 0x20 ADD PUSH1 0x0 KECCAK256 PUSH1 0x0 DUP3 ADD MLOAD DUP2 PUSH1 0x0 ADD SSTORE PUSH1 0x20 DUP3 ADD MLOAD DUP2 PUSH1 0x1 ADD PUSH1 0x0 PUSH2 0x100 EXP DUP2 SLOAD DUP2 PUSH20 0xFFFFFFFFFFFFFFFFFFFFFFFFFFFFFFFFFFFFFFFF MUL NOT AND SWAP1 DUP4 PUSH20 0xFFFFFFFFFFFFFFFFFFFFFFFFFFFFFFFFFFFFFFFF AND MUL OR SWAP1 SSTORE POP PUSH1 0x40 DUP3 ADD MLOAD DUP2 PUSH1 0x2 ADD SSTORE SWAP1 POP POP PUSH1 0x1 SWAP4 POP POP POP POP SWAP3 SWAP2 POP POP JUMP JUMPDEST PUSH2 0x705 PUSH2 0xA81 JUMP JUMPDEST DUP2 PUSH32 0x8E1604A838D0F1A9B2CDA14A099E4CEB08E966CC6E05E8296F67B02D61A79F09 PUSH1 0x0 SHL DUP2 EQ PUSH2 0x76B JUMPI PUSH1 0x40 MLOAD PUSH32 0x8C379A000000000000000000000000000000000000000000000000000000000 DUP2 MSTORE PUSH1 0x4 ADD PUSH2 0x762 SWAP1 PUSH2 0xF7B JUMP JUMPDEST PUSH1 0x40 MLOAD DUP1 SWAP2 SUB SWAP1 REVERT JUMPDEST DUP4 DUP1 PUSH1 0x1 GT ISZERO DUP1 ISZERO PUSH2 0x77F JUMPI POP PUSH1 0x2 SLOAD DUP2 GT ISZERO JUMPDEST PUSH2 0x7BE JUMPI PUSH1 0x40 MLOAD PUSH32 0x8C379A000000000000000000000000000000000000000000000000000000000 DUP2 MSTORE PUSH1 0x4 ADD PUSH2 0x7B5 SWAP1 PUSH2 0x100D JUMP JUMPDEST PUSH1 0x40 MLOAD DUP1 SWAP2 SUB SWAP1 REVERT JUMPDEST PUSH1 0x1 PUSH1 0x0 DUP7 DUP2 MSTORE PUSH1 0x20 ADD SWAP1 DUP2 MSTORE PUSH1 0x20 ADD PUSH1 0x0 KECCAK256 PUSH1 0x40 MLOAD DUP1 PUSH1 0x60 ADD PUSH1 0x40 MSTORE SWAP1 DUP2 PUSH1 0x0 DUP3 ADD SLOAD DUP2 MSTORE PUSH1 0x20 ADD PUSH1 0x1 DUP3 ADD PUSH1 0x0 SWAP1 SLOAD SWAP1 PUSH2 0x100 EXP SWAP1 DIV PUSH20 0xFFFFFFFFFFFFFFFFFFFFFFFFFFFFFFFFFFFFFFFF AND PUSH20 0xFFFFFFFFFFFFFFFFFFFFFFFFFFFFFFFFFFFFFFFF AND PUSH20 0xFFFFFFFFFFFFFFFFFFFFFFFFFFFFFFFFFFFFFFFF AND DUP2 MSTORE PUSH1 0x20 ADD PUSH1 0x2 DUP3 ADD SLOAD DUP2 MSTORE POP POP SWAP3 POP POP POP SWAP3 SWAP2 POP POP JUMP JUMPDEST PUSH2 0x858 PUSH2 0x946 JUMP JUMPDEST PUSH1 0x0 PUSH20 0xFFFFFFFFFFFFFFFFFFFFFFFFFFFFFFFFFFFFFFFF AND DUP2 PUSH20 0xFFFFFFFFFFFFFFFFFFFFFFFFFFFFFFFFFFFFFFFF AND SUB PUSH2 0x8C7 JUMPI PUSH1 0x40 MLOAD PUSH32 0x8C379A000000000000000000000000000000000000000000000000000000000 DUP2 MSTORE PUSH1 0x4 ADD PUSH2 0x8BE SWAP1 PUSH2 0x1116 JUMP JUMPDEST PUSH1 0x40 MLOAD DUP1 SWAP2 SUB SWAP1 REVERT JUMPDEST PUSH2 0x8D0 DUP2 PUSH2 0x9BD JUMP JUMPDEST POP JUMP JUMPDEST PUSH1 0x0 DUP2 PUSH32 0x8E1604A838D0F1A9B2CDA14A099E4CEB08E966CC6E05E8296F67B02D61A79F09 PUSH1 0x0 SHL DUP2 EQ PUSH2 0x93B JUMPI PUSH1 0x40 MLOAD PUSH32 0x8C379A000000000000000000000000000000000000000000000000000000000 DUP2 MSTORE PUSH1 0x4 ADD PUSH2 0x932 SWAP1 PUSH2 0xF7B JUMP JUMPDEST PUSH1 0x40 MLOAD DUP1 SWAP2 SUB SWAP1 REVERT JUMPDEST PUSH1 0x2 SLOAD SWAP2 POP POP SWAP2 SWAP1 POP JUMP JUMPDEST CALLER PUSH20 0xFFFFFFFFFFFFFFFFFFFFFFFFFFFFFFFFFFFFFFFF AND PUSH2 0x965 PUSH2 0x562 JUMP JUMPDEST PUSH20 0xFFFFFFFFFFFFFFFFFFFFFFFFFFFFFFFFFFFFFFFF AND EQ PUSH2 0x9BB JUMPI PUSH1 0x40 MLOAD PUSH32 0x8C379A000000000000000000000000000000000000000000000000000000000 DUP2 MSTORE PUSH1 0x4 ADD PUSH2 0x9B2 SWAP1 PUSH2 0x1182 JUMP JUMPDEST PUSH1 0x40 MLOAD DUP1 SWAP2 SUB SWAP1 REVERT JUMPDEST JUMP JUMPDEST PUSH1 0x0 DUP1 PUSH1 0x0 SWAP1 SLOAD SWAP1 PUSH2 0x100 EXP SWAP1 DIV PUSH20 0xFFFFFFFFFFFFFFFFFFFFFFFFFFFFFFFFFFFFFFFF AND SWAP1 POP DUP2 PUSH1 0x0 DUP1 PUSH2 0x100 EXP DUP2 SLOAD DUP2 PUSH20 0xFFFFFFFFFFFFFFFFFFFFFFFFFFFFFFFFFFFFFFFF MUL NOT AND SWAP1 DUP4 PUSH20 0xFFFFFFFFFFFFFFFFFFFFFFFFFFFFFFFFFFFFFFFF AND MUL OR SWAP1 SSTORE POP DUP2 PUSH20 0xFFFFFFFFFFFFFFFFFFFFFFFFFFFFFFFFFFFFFFFF AND DUP2 PUSH20 0xFFFFFFFFFFFFFFFFFFFFFFFFFFFFFFFFFFFFFFFF AND PUSH32 0x8BE0079C531659141344CD1FD0A4F28419497F9722A3DAAFE3B4186F6B6457E0 PUSH1 0x40 MLOAD PUSH1 0x40 MLOAD DUP1 SWAP2 SUB SWAP1 LOG3 POP POP JUMP JUMPDEST PUSH1 0x40 MLOAD DUP1 PUSH1 0x60 ADD PUSH1 0x40 MSTORE DUP1 PUSH1 0x0 DUP2 MSTORE PUSH1 0x20 ADD PUSH1 0x0 PUSH20 0xFFFFFFFFFFFFFFFFFFFFFFFFFFFFFFFFFFFFFFFF AND DUP2 MSTORE PUSH1 0x20 ADD PUSH1 0x0 DUP2 MSTORE POP SWAP1 JUMP JUMPDEST PUSH1 0x0 PUSH1 0x40 MLOAD SWAP1 POP SWAP1 JUMP JUMPDEST PUSH1 0x0 DUP1 REVERT JUMPDEST PUSH1 0x0 DUP2 SWAP1 POP SWAP2 SWAP1 POP JUMP JUMPDEST PUSH2 0xADA DUP2 PUSH2 0xAC7 JUMP JUMPDEST DUP2 EQ PUSH2 0xAE5 JUMPI PUSH1 0x0 DUP1 REVERT JUMPDEST POP JUMP JUMPDEST PUSH1 0x0 DUP2 CALLDATALOAD SWAP1 POP PUSH2 0xAF7 DUP2 PUSH2 0xAD1 JUMP JUMPDEST SWAP3 SWAP2 POP POP JUMP JUMPDEST PUSH1 0x0 DUP2 SWAP1 POP SWAP2 SWAP1 POP JUMP JUMPDEST PUSH2 0xB10 DUP2 PUSH2 0xAFD JUMP JUMPDEST DUP2 EQ PUSH2 0xB1B JUMPI PUSH1 0x0 DUP1 REVERT JUMPDEST POP JUMP JUMPDEST PUSH1 0x0 DUP2 CALLDATALOAD SWAP1 POP PUSH2 0xB2D DUP2 PUSH2 0xB07 JUMP JUMPDEST SWAP3 SWAP2 POP POP JUMP JUMPDEST PUSH1 0x0 DUP1 PUSH1 0x0 PUSH1 0x60 DUP5 DUP7 SUB SLT ISZERO PUSH2 0xB4C JUMPI PUSH2 0xB4B PUSH2 0xAC2 JUMP JUMPDEST JUMPDEST PUSH1 0x0 PUSH2 0xB5A DUP7 DUP3 DUP8 ADD PUSH2 0xAE8 JUMP JUMPDEST SWAP4 POP POP PUSH1 0x20 PUSH2 0xB6B DUP7 DUP3 DUP8 ADD PUSH2 0xB1E JUMP JUMPDEST SWAP3 POP POP PUSH1 0x40 PUSH2 0xB7C DUP7 DUP3 DUP8 ADD PUSH2 0xAE8 JUMP JUMPDEST SWAP2 POP POP SWAP3 POP SWAP3 POP SWAP3 JUMP JUMPDEST PUSH1 0x0 DUP2 ISZERO ISZERO SWAP1 POP SWAP2 SWAP1 POP JUMP JUMPDEST PUSH2 0xB9B DUP2 PUSH2 0xB86 JUMP JUMPDEST DUP3 MSTORE POP POP JUMP JUMPDEST PUSH1 0x0 PUSH1 0x20 DUP3 ADD SWAP1 POP PUSH2 0xBB6 PUSH1 0x0 DUP4 ADD DUP5 PUSH2 0xB92 JUMP JUMPDEST SWAP3 SWAP2 POP POP JUMP JUMPDEST PUSH1 0x0 DUP1 REVERT JUMPDEST PUSH1 0x0 PUSH1 0x1F NOT PUSH1 0x1F DUP4 ADD AND SWAP1 POP SWAP2 SWAP1 POP JUMP JUMPDEST PUSH32 0x4E487B7100000000000000000000000000000000000000000000000000000000 PUSH1 0x0 MSTORE PUSH1 0x41 PUSH1 0x4 MSTORE PUSH1 0x24 PUSH1 0x0 REVERT JUMPDEST PUSH2 0xC0A DUP3 PUSH2 0xBC1 JUMP JUMPDEST DUP2 ADD DUP2 DUP2 LT PUSH8 0xFFFFFFFFFFFFFFFF DUP3 GT OR ISZERO PUSH2 0xC29 JUMPI PUSH2 0xC28 PUSH2 0xBD2 JUMP JUMPDEST JUMPDEST DUP1 PUSH1 0x40 MSTORE POP POP POP JUMP JUMPDEST PUSH1 0x0 PUSH2 0xC3C PUSH2 0xAB8 JUMP JUMPDEST SWAP1 POP PUSH2 0xC48 DUP3 DUP3 PUSH2 0xC01 JUMP JUMPDEST SWAP2 SWAP1 POP JUMP JUMPDEST PUSH1 0x0 PUSH20 0xFFFFFFFFFFFFFFFFFFFFFFFFFFFFFFFFFFFFFFFF DUP3 AND SWAP1 POP SWAP2 SWAP1 POP JUMP JUMPDEST PUSH1 0x0 PUSH2 0xC78 DUP3 PUSH2 0xC4D JUMP JUMPDEST SWAP1 POP SWAP2 SWAP1 POP JUMP JUMPDEST PUSH2 0xC88 DUP2 PUSH2 0xC6D JUMP JUMPDEST DUP2 EQ PUSH2 0xC93 JUMPI PUSH1 0x0 DUP1 REVERT JUMPDEST POP JUMP JUMPDEST PUSH1 0x0 DUP2 CALLDATALOAD SWAP1 POP PUSH2 0xCA5 DUP2 PUSH2 0xC7F JUMP JUMPDEST SWAP3 SWAP2 POP POP JUMP JUMPDEST PUSH1 0x0 PUSH1 0x60 DUP3 DUP5 SUB SLT ISZERO PUSH2 0xCC1 JUMPI PUSH2 0xCC0 PUSH2 0xBBC JUMP JUMPDEST JUMPDEST PUSH2 0xCCB PUSH1 0x60 PUSH2 0xC32 JUMP JUMPDEST SWAP1 POP PUSH1 0x0 PUSH2 0xCDB DUP5 DUP3 DUP6 ADD PUSH2 0xAE8 JUMP JUMPDEST PUSH1 0x0 DUP4 ADD MSTORE POP PUSH1 0x20 PUSH2 0xCEF DUP5 DUP3 DUP6 ADD PUSH2 0xC96 JUMP JUMPDEST PUSH1 0x20 DUP4 ADD MSTORE POP PUSH1 0x40 PUSH2 0xD03 DUP5 DUP3 DUP6 ADD PUSH2 0xAE8 JUMP JUMPDEST PUSH1 0x40 DUP4 ADD MSTORE POP SWAP3 SWAP2 POP POP JUMP JUMPDEST PUSH1 0x0 DUP1 PUSH1 0x80 DUP4 DUP6 SUB SLT ISZERO PUSH2 0xD26 JUMPI PUSH2 0xD25 PUSH2 0xAC2 JUMP JUMPDEST JUMPDEST PUSH1 0x0 PUSH2 0xD34 DUP6 DUP3 DUP7 ADD PUSH2 0xCAB JUMP JUMPDEST SWAP3 POP POP PUSH1 0x60 PUSH2 0xD45 DUP6 DUP3 DUP7 ADD PUSH2 0xB1E JUMP JUMPDEST SWAP2 POP POP SWAP3 POP SWAP3 SWAP1 POP JUMP JUMPDEST PUSH1 0x0 DUP1 PUSH1 0x40 DUP4 DUP6 SUB SLT ISZERO PUSH2 0xD66 JUMPI PUSH2 0xD65 PUSH2 0xAC2 JUMP JUMPDEST JUMPDEST PUSH1 0x0 PUSH2 0xD74 DUP6 DUP3 DUP7 ADD PUSH2 0xC96 JUMP JUMPDEST SWAP3 POP POP PUSH1 0x20 PUSH2 0xD85 DUP6 DUP3 DUP7 ADD PUSH2 0xB1E JUMP JUMPDEST SWAP2 POP POP SWAP3 POP SWAP3 SWAP1 POP JUMP JUMPDEST PUSH2 0xD98 DUP2 PUSH2 0xAC7 JUMP JUMPDEST DUP3 MSTORE POP POP JUMP JUMPDEST PUSH1 0x0 PUSH1 0x20 DUP3 ADD SWAP1 POP PUSH2 0xDB3 PUSH1 0x0 DUP4 ADD DUP5 PUSH2 0xD8F JUMP JUMPDEST SWAP3 SWAP2 POP POP JUMP JUMPDEST PUSH2 0xDC2 DUP2 PUSH2 0xC6D JUMP JUMPDEST DUP3 MSTORE POP POP JUMP JUMPDEST PUSH1 0x0 PUSH1 0x20 DUP3 ADD SWAP1 POP PUSH2 0xDDD PUSH1 0x0 DUP4 ADD DUP5 PUSH2 0xDB9 JUMP JUMPDEST SWAP3 SWAP2 POP POP JUMP JUMPDEST PUSH1 0x0 DUP1 PUSH1 0x40 DUP4 DUP6 SUB SLT ISZERO PUSH2 0xDFA JUMPI PUSH2 0xDF9 PUSH2 0xAC2 JUMP JUMPDEST JUMPDEST PUSH1 0x0 PUSH2 0xE08 DUP6 DUP3 DUP7 ADD PUSH2 0xAE8 JUMP JUMPDEST SWAP3 POP POP PUSH1 0x20 PUSH2 0xE19 DUP6 DUP3 DUP7 ADD PUSH2 0xB1E JUMP JUMPDEST SWAP2 POP POP SWAP3 POP SWAP3 SWAP1 POP JUMP JUMPDEST PUSH2 0xE2C DUP2 PUSH2 0xAC7 JUMP JUMPDEST DUP3 MSTORE POP POP JUMP JUMPDEST PUSH2 0xE3B DUP2 PUSH2 0xC6D JUMP JUMPDEST DUP3 MSTORE POP POP JUMP JUMPDEST PUSH1 0x60 DUP3 ADD PUSH1 0x0 DUP3 ADD MLOAD PUSH2 0xE57 PUSH1 0x0 DUP6 ADD DUP3 PUSH2 0xE23 JUMP JUMPDEST POP PUSH1 0x20 DUP3 ADD MLOAD PUSH2 0xE6A PUSH1 0x20 DUP6 ADD DUP3 PUSH2 0xE32 JUMP JUMPDEST POP PUSH1 0x40 DUP3 ADD MLOAD PUSH2 0xE7D PUSH1 0x40 DUP6 ADD DUP3 PUSH2 0xE23 JUMP JUMPDEST POP POP POP POP JUMP JUMPDEST PUSH1 0x0 PUSH1 0x60 DUP3 ADD SWAP1 POP PUSH2 0xE98 PUSH1 0x0 DUP4 ADD DUP5 PUSH2 0xE41 JUMP JUMPDEST SWAP3 SWAP2 POP POP JUMP JUMPDEST PUSH1 0x0 PUSH1 0x20 DUP3 DUP5 SUB SLT ISZERO PUSH2 0xEB4 JUMPI PUSH2 0xEB3 PUSH2 0xAC2 JUMP JUMPDEST JUMPDEST PUSH1 0x0 PUSH2 0xEC2 DUP5 DUP3 DUP6 ADD PUSH2 0xC96 JUMP JUMPDEST SWAP2 POP POP SWAP3 SWAP2 POP POP JUMP JUMPDEST PUSH1 0x0 PUSH1 0x20 DUP3 DUP5 SUB SLT ISZERO PUSH2 0xEE1 JUMPI PUSH2 0xEE0 PUSH2 0xAC2 JUMP JUMPDEST JUMPDEST PUSH1 0x0 PUSH2 0xEEF DUP5 DUP3 DUP6 ADD PUSH2 0xB1E JUMP JUMPDEST SWAP2 POP POP SWAP3 SWAP2 POP POP JUMP JUMPDEST PUSH1 0x0 DUP3 DUP3 MSTORE PUSH1 0x20 DUP3 ADD SWAP1 POP SWAP3 SWAP2 POP POP JUMP JUMPDEST PUSH32 0x4461746162617365204C6973744661726D65723A20536563726574206B657920 PUSH1 0x0 DUP3 ADD MSTORE PUSH32 0x6572726F72000000000000000000000000000000000000000000000000000000 PUSH1 0x20 DUP3 ADD MSTORE POP JUMP JUMPDEST PUSH1 0x0 PUSH2 0xF65 PUSH1 0x25 DUP4 PUSH2 0xEF8 JUMP JUMPDEST SWAP2 POP PUSH2 0xF70 DUP3 PUSH2 0xF09 JUMP JUMPDEST PUSH1 0x40 DUP3 ADD SWAP1 POP SWAP2 SWAP1 POP JUMP JUMPDEST PUSH1 0x0 PUSH1 0x20 DUP3 ADD SWAP1 POP DUP2 DUP2 SUB PUSH1 0x0 DUP4 ADD MSTORE PUSH2 0xF94 DUP2 PUSH2 0xF58 JUMP JUMPDEST SWAP1 POP SWAP2 SWAP1 POP JUMP JUMPDEST PUSH32 0x4461746162617365204C6973744661726D65723A20496E76616C696420696E64 PUSH1 0x0 DUP3 ADD MSTORE PUSH32 0x6578000000000000000000000000000000000000000000000000000000000000 PUSH1 0x20 DUP3 ADD MSTORE POP JUMP JUMPDEST PUSH1 0x0 PUSH2 0xFF7 PUSH1 0x22 DUP4 PUSH2 0xEF8 JUMP JUMPDEST SWAP2 POP PUSH2 0x1002 DUP3 PUSH2 0xF9B JUMP JUMPDEST PUSH1 0x40 DUP3 ADD SWAP1 POP SWAP2 SWAP1 POP JUMP JUMPDEST PUSH1 0x0 PUSH1 0x20 DUP3 ADD SWAP1 POP DUP2 DUP2 SUB PUSH1 0x0 DUP4 ADD MSTORE PUSH2 0x1026 DUP2 PUSH2 0xFEA JUMP JUMPDEST SWAP1 POP SWAP2 SWAP1 POP JUMP JUMPDEST PUSH32 0x4E487B7100000000000000000000000000000000000000000000000000000000 PUSH1 0x0 MSTORE PUSH1 0x11 PUSH1 0x4 MSTORE PUSH1 0x24 PUSH1 0x0 REVERT JUMPDEST PUSH1 0x0 PUSH2 0x1067 DUP3 PUSH2 0xAC7 JUMP JUMPDEST SWAP2 POP PUSH32 0xFFFFFFFFFFFFFFFFFFFFFFFFFFFFFFFFFFFFFFFFFFFFFFFFFFFFFFFFFFFFFFFF DUP3 SUB PUSH2 0x1099 JUMPI PUSH2 0x1098 PUSH2 0x102D JUMP JUMPDEST JUMPDEST PUSH1 0x1 DUP3 ADD SWAP1 POP SWAP2 SWAP1 POP JUMP JUMPDEST PUSH32 0x4F776E61626C653A206E6577206F776E657220697320746865207A65726F2061 PUSH1 0x0 DUP3 ADD MSTORE PUSH32 0x6464726573730000000000000000000000000000000000000000000000000000 PUSH1 0x20 DUP3 ADD MSTORE POP JUMP JUMPDEST PUSH1 0x0 PUSH2 0x1100 PUSH1 0x26 DUP4 PUSH2 0xEF8 JUMP JUMPDEST SWAP2 POP PUSH2 0x110B DUP3 PUSH2 0x10A4 JUMP JUMPDEST PUSH1 0x40 DUP3 ADD SWAP1 POP SWAP2 SWAP1 POP JUMP JUMPDEST PUSH1 0x0 PUSH1 0x20 DUP3 ADD SWAP1 POP DUP2 DUP2 SUB PUSH1 0x0 DUP4 ADD MSTORE PUSH2 0x112F DUP2 PUSH2 0x10F3 JUMP JUMPDEST SWAP1 POP SWAP2 SWAP1 POP JUMP JUMPDEST PUSH32 0x4F776E61626C653A2063616C6C6572206973206E6F7420746865206F776E6572 PUSH1 0x0 DUP3 ADD MSTORE POP JUMP JUMPDEST PUSH1 0x0 PUSH2 0x116C PUSH1 0x20 DUP4 PUSH2 0xEF8 JUMP JUMPDEST SWAP2 POP PUSH2 0x1177 DUP3 PUSH2 0x1136 JUMP JUMPDEST PUSH1 0x20 DUP3 ADD SWAP1 POP SWAP2 SWAP1 POP JUMP JUMPDEST PUSH1 0x0 PUSH1 0x20 DUP3 ADD SWAP1 POP DUP2 DUP2 SUB PUSH1 0x0 DUP4 ADD MSTORE PUSH2 0x119B DUP2 PUSH2 0x115F JUMP JUMPDEST SWAP1 POP SWAP2 SWAP1 POP JUMP INVALID LOG2 PUSH5 0x6970667358 0x22 SLT KECCAK256 SWAP4 PUSH4 0xD2885CCF BALANCE PUSH22 0x6431C3981A159B5DC445516487C6BDEF9BC5FE82AE6C CALLDATASIZE 0xFB PUSH5 0x736F6C6343 STOP ADDMOD GT STOP CALLER "
				},
				"gasEstimates": {
					"creation": {
						"codeDepositCost": "913600",
						"executionCost": "30220",
						"totalCost": "943820"
					},
					"external": {
						"add((uint256,address,uint256),bytes32)": "infinite",
						"at(uint256,bytes32)": "infinite",
						"destroy()": "30039",
						"findFarmerIdByAddress(address,bytes32)": "infinite",
						"getLength(bytes32)": "2824",
						"hide(uint256,bytes32)": "37507",
						"owner()": "2522",
						"setCategory(uint256,bytes32,uint256)": "infinite",
						"transferOwnership(address)": "30775"
					}
				},
				"methodIdentifiers": {
					"add((uint256,address,uint256),bytes32)": "3ce17585",
					"at(uint256,bytes32)": "c78a6741",
					"destroy()": "83197ef0",
					"findFarmerIdByAddress(address,bytes32)": "64fb3c8e",
					"getLength(bytes32)": "fd82e9dd",
					"hide(uint256,bytes32)": "b615c00a",
					"owner()": "8da5cb5b",
					"setCategory(uint256,bytes32,uint256)": "294b4b6b",
					"transferOwnership(address)": "f2fde38b"
				}
			},
			"storageLayout": {
				"storage": [
					{
						"astId": 4,
						"contract": "database/farmer/ListFarmer.sol:ListFarmer",
						"label": "_owner",
						"offset": 0,
						"slot": "0",
						"type": "t_address"
					},
					{
						"astId": 562,
						"contract": "database/farmer/ListFarmer.sol:ListFarmer",
						"label": "list",
						"offset": 0,
						"slot": "1",
						"type": "t_mapping(t_uint256,t_struct(Farmer)1032_storage)"
					},
					{
						"astId": 565,
						"contract": "database/farmer/ListFarmer.sol:ListFarmer",
						"label": "autoIncrement",
						"offset": 0,
						"slot": "2",
						"type": "t_uint256"
					}
				],
				"types": {
					"t_address": {
						"encoding": "inplace",
						"label": "address",
						"numberOfBytes": "20"
					},
					"t_mapping(t_uint256,t_struct(Farmer)1032_storage)": {
						"encoding": "mapping",
						"key": "t_uint256",
						"label": "mapping(uint256 => struct Farmer)",
						"numberOfBytes": "32",
						"value": "t_struct(Farmer)1032_storage"
					},
					"t_struct(Farmer)1032_storage": {
						"encoding": "inplace",
						"label": "struct Farmer",
						"members": [
							{
								"astId": 1027,
								"contract": "database/farmer/ListFarmer.sol:ListFarmer",
								"label": "farmerId",
								"offset": 0,
								"slot": "0",
								"type": "t_uint256"
							},
							{
								"astId": 1029,
								"contract": "database/farmer/ListFarmer.sol:ListFarmer",
								"label": "farmerAddress",
								"offset": 0,
								"slot": "1",
								"type": "t_address"
							},
							{
								"astId": 1031,
								"contract": "database/farmer/ListFarmer.sol:ListFarmer",
								"label": "category",
								"offset": 0,
								"slot": "2",
								"type": "t_uint256"
							}
						],
						"numberOfBytes": "96"
					},
					"t_uint256": {
						"encoding": "inplace",
						"label": "uint256",
						"numberOfBytes": "32"
					}
				}
			},
			"userdoc": {
				"kind": "user",
				"methods": {},
				"version": 1
			}
		}
	}
}