{
	"database/processing/ProcessingDatabase.sol": {
		"ProcessingDatabase": {
			"abi": [
				{
					"inputs": [],
					"stateMutability": "nonpayable",
					"type": "constructor"
				},
				{
					"anonymous": false,
					"inputs": [
						{
							"indexed": true,
							"internalType": "address",
							"name": "previousOwner",
							"type": "address"
						},
						{
							"indexed": true,
							"internalType": "address",
							"name": "newOwner",
							"type": "address"
						}
					],
					"name": "OwnershipTransferred",
					"type": "event"
				},
				{
					"inputs": [
						{
							"components": [
								{
									"internalType": "uint256",
									"name": "batchId",
									"type": "uint256"
								},
								{
									"internalType": "uint256",
									"name": "processingId",
									"type": "uint256"
								},
								{
									"internalType": "uint256",
									"name": "category",
									"type": "uint256"
								},
								{
									"internalType": "uint256",
									"name": "time",
									"type": "uint256"
								},
								{
									"internalType": "uint256",
									"name": "quantity",
									"type": "uint256"
								}
							],
							"internalType": "struct FolWarehouse",
							"name": "item",
							"type": "tuple"
						},
						{
							"internalType": "bytes32",
							"name": "secret",
							"type": "bytes32"
						}
					],
					"name": "addFolWarehouse",
					"outputs": [
						{
							"internalType": "bool",
							"name": "",
							"type": "bool"
						}
					],
					"stateMutability": "nonpayable",
					"type": "function"
				},
				{
					"inputs": [
						{
							"components": [
								{
									"internalType": "uint256",
									"name": "batchId",
									"type": "uint256"
								},
								{
									"internalType": "uint256",
									"name": "processorId",
									"type": "uint256"
								},
								{
									"internalType": "uint256[]",
									"name": "listbatchId",
									"type": "uint256[]"
								},
								{
									"internalType": "uint256",
									"name": "category",
									"type": "uint256"
								},
								{
									"internalType": "uint256",
									"name": "time",
									"type": "uint256"
								},
								{
									"internalType": "uint256",
									"name": "quantity",
									"type": "uint256"
								}
							],
							"internalType": "struct PreWarehouse",
							"name": "item",
							"type": "tuple"
						},
						{
							"internalType": "bytes32",
							"name": "secret",
							"type": "bytes32"
						}
					],
					"name": "addPreWarehouse",
					"outputs": [
						{
							"internalType": "bool",
							"name": "",
							"type": "bool"
						}
					],
					"stateMutability": "nonpayable",
					"type": "function"
				},
				{
					"inputs": [
						{
							"components": [
								{
									"internalType": "uint256",
									"name": "processingId",
									"type": "uint256"
								},
								{
									"internalType": "uint256",
									"name": "processorId",
									"type": "uint256"
								},
								{
									"internalType": "uint256",
									"name": "category",
									"type": "uint256"
								},
								{
									"internalType": "uint256[]",
									"name": "listBatchId",
									"type": "uint256[]"
								}
							],
							"internalType": "struct Processing",
							"name": "item",
							"type": "tuple"
						},
						{
							"internalType": "bytes32",
							"name": "secret",
							"type": "bytes32"
						}
					],
					"name": "addProcessing",
					"outputs": [
						{
							"internalType": "bool",
							"name": "",
							"type": "bool"
						}
					],
					"stateMutability": "nonpayable",
					"type": "function"
				},
				{
					"inputs": [
						{
							"components": [
								{
									"internalType": "uint256",
									"name": "processorId",
									"type": "uint256"
								},
								{
									"internalType": "address",
									"name": "processorAddress",
									"type": "address"
								},
								{
									"internalType": "uint256",
									"name": "category",
									"type": "uint256"
								}
							],
							"internalType": "struct Processor",
							"name": "item",
							"type": "tuple"
						},
						{
							"internalType": "bytes32",
							"name": "secret",
							"type": "bytes32"
						}
					],
					"name": "addProcessor",
					"outputs": [
						{
							"internalType": "bool",
							"name": "",
							"type": "bool"
						}
					],
					"stateMutability": "nonpayable",
					"type": "function"
				},
				{
					"inputs": [],
					"name": "destroy",
					"outputs": [],
					"stateMutability": "nonpayable",
					"type": "function"
				},
				{
					"inputs": [
						{
							"internalType": "bytes32",
							"name": "secret",
							"type": "bytes32"
						}
					],
					"name": "getListFolWarehouse",
					"outputs": [
						{
							"components": [
								{
									"internalType": "uint256",
									"name": "batchId",
									"type": "uint256"
								},
								{
									"internalType": "uint256",
									"name": "processingId",
									"type": "uint256"
								},
								{
									"internalType": "uint256",
									"name": "category",
									"type": "uint256"
								},
								{
									"internalType": "uint256",
									"name": "time",
									"type": "uint256"
								},
								{
									"internalType": "uint256",
									"name": "quantity",
									"type": "uint256"
								}
							],
							"internalType": "struct FolWarehouse[]",
							"name": "",
							"type": "tuple[]"
						}
					],
					"stateMutability": "view",
					"type": "function"
				},
				{
					"inputs": [
						{
							"internalType": "bytes32",
							"name": "secret",
							"type": "bytes32"
						}
					],
					"name": "getListPreWarehouse",
					"outputs": [
						{
							"components": [
								{
									"internalType": "uint256",
									"name": "batchId",
									"type": "uint256"
								},
								{
									"internalType": "uint256",
									"name": "processorId",
									"type": "uint256"
								},
								{
									"internalType": "uint256[]",
									"name": "listbatchId",
									"type": "uint256[]"
								},
								{
									"internalType": "uint256",
									"name": "category",
									"type": "uint256"
								},
								{
									"internalType": "uint256",
									"name": "time",
									"type": "uint256"
								},
								{
									"internalType": "uint256",
									"name": "quantity",
									"type": "uint256"
								}
							],
							"internalType": "struct PreWarehouse[]",
							"name": "",
							"type": "tuple[]"
						}
					],
					"stateMutability": "view",
					"type": "function"
				},
				{
					"inputs": [
						{
							"internalType": "bytes32",
							"name": "secret",
							"type": "bytes32"
						}
					],
					"name": "getListProcessing",
					"outputs": [
						{
							"components": [
								{
									"internalType": "uint256",
									"name": "processingId",
									"type": "uint256"
								},
								{
									"internalType": "uint256",
									"name": "processorId",
									"type": "uint256"
								},
								{
									"internalType": "uint256",
									"name": "category",
									"type": "uint256"
								},
								{
									"internalType": "uint256[]",
									"name": "listBatchId",
									"type": "uint256[]"
								}
							],
							"internalType": "struct Processing[]",
							"name": "",
							"type": "tuple[]"
						}
					],
					"stateMutability": "view",
					"type": "function"
				},
				{
					"inputs": [
						{
							"internalType": "bytes32",
							"name": "secret",
							"type": "bytes32"
						}
					],
					"name": "getListProcessor",
					"outputs": [
						{
							"components": [
								{
									"internalType": "uint256",
									"name": "processorId",
									"type": "uint256"
								},
								{
									"internalType": "address",
									"name": "processorAddress",
									"type": "address"
								},
								{
									"internalType": "uint256",
									"name": "category",
									"type": "uint256"
								}
							],
							"internalType": "struct Processor[]",
							"name": "",
							"type": "tuple[]"
						}
					],
					"stateMutability": "view",
					"type": "function"
				},
				{
					"inputs": [],
					"name": "owner",
					"outputs": [
						{
							"internalType": "address",
							"name": "",
							"type": "address"
						}
					],
					"stateMutability": "view",
					"type": "function"
				},
				{
					"inputs": [
						{
							"internalType": "address",
							"name": "newOwner",
							"type": "address"
						}
					],
					"name": "transferOwnership",
					"outputs": [],
					"stateMutability": "nonpayable",
					"type": "function"
				}
			],
			"devdoc": {
				"kind": "dev",
				"methods": {
					"owner()": {
						"details": "Returns the address of the current owner."
					},
					"transferOwnership(address)": {
						"details": "Transfers ownership of the contract to a new account (`newOwner`). Can only be called by the current owner."
					}
				},
				"version": 1
			},
			"evm": {
				"assembly": "    /* \"database/processing/ProcessingDatabase.sol\":594:2828  contract ProcessingDatabase is Ownable {... */\n  mstore(0x40, 0x80)\n    /* \"database/processing/ProcessingDatabase.sol\":810:836  constructor() Ownable() {} */\n  callvalue\n  dup1\n  iszero\n  tag_1\n  jumpi\n  0x00\n  dup1\n  revert\ntag_1:\n  pop\n    /* \"abstract/Ownable.sol\":932:942  msg.sender */\n  caller\n    /* \"abstract/Ownable.sol\":923:929  _owner */\n  0x00\n  dup1\n    /* \"abstract/Ownable.sol\":923:942  _owner = msg.sender */\n  0x0100\n  exp\n  dup2\n  sload\n  dup2\n  0xffffffffffffffffffffffffffffffffffffffff\n  mul\n  not\n  and\n  swap1\n  dup4\n  0xffffffffffffffffffffffffffffffffffffffff\n  and\n  mul\n  or\n  swap1\n  sstore\n  pop\n    /* \"database/processing/ProcessingDatabase.sol\":594:2828  contract ProcessingDatabase is Ownable {... */\n  dataSize(sub_0)\n  dup1\n  dataOffset(sub_0)\n  0x00\n  codecopy\n  0x00\n  return\nstop\n\nsub_0: assembly {\n        /* \"database/processing/ProcessingDatabase.sol\":594:2828  contract ProcessingDatabase is Ownable {... */\n      mstore(0x40, 0x80)\n      callvalue\n      dup1\n      iszero\n      tag_1\n      jumpi\n      0x00\n      dup1\n      revert\n    tag_1:\n      pop\n      jumpi(tag_2, lt(calldatasize, 0x04))\n      shr(0xe0, calldataload(0x00))\n      dup1\n      0x318ee31a\n      gt\n      tag_14\n      jumpi\n      dup1\n      0x318ee31a\n      eq\n      tag_8\n      jumpi\n      dup1\n      0x4269e28b\n      eq\n      tag_9\n      jumpi\n      dup1\n      0x83197ef0\n      eq\n      tag_10\n      jumpi\n      dup1\n      0x8da5cb5b\n      eq\n      tag_11\n      jumpi\n      dup1\n      0xcb7c5c50\n      eq\n      tag_12\n      jumpi\n      dup1\n      0xf2fde38b\n      eq\n      tag_13\n      jumpi\n      jump(tag_2)\n    tag_14:\n      dup1\n      0x021ca464\n      eq\n      tag_3\n      jumpi\n      dup1\n      0x03970403\n      eq\n      tag_4\n      jumpi\n      dup1\n      0x1d769a9e\n      eq\n      tag_5\n      jumpi\n      dup1\n      0x270b3869\n      eq\n      tag_6\n      jumpi\n      dup1\n      0x2ae72d06\n      eq\n      tag_7\n      jumpi\n    tag_2:\n      0x00\n      dup1\n      revert\n        /* \"database/processing/ProcessingDatabase.sol\":1805:2057  function addProcessing(Processing memory item, bytes32 secret)... */\n    tag_3:\n      tag_15\n      0x04\n      dup1\n      calldatasize\n      sub\n      dup2\n      add\n      swap1\n      tag_16\n      swap2\n      swap1\n      tag_17\n      jump\t// in\n    tag_16:\n      tag_18\n      jump\t// in\n    tag_15:\n      mload(0x40)\n      tag_19\n      swap2\n      swap1\n      tag_20\n      jump\t// in\n    tag_19:\n      mload(0x40)\n      dup1\n      swap2\n      sub\n      swap1\n      return\n        /* \"database/processing/ProcessingDatabase.sol\":2642:2826  function getListProcessing(bytes32 secret)... */\n    tag_4:\n      tag_21\n      0x04\n      dup1\n      calldatasize\n      sub\n      dup2\n      add\n      swap1\n      tag_22\n      swap2\n      swap1\n      tag_23\n      jump\t// in\n    tag_22:\n      tag_24\n      jump\t// in\n    tag_21:\n      mload(0x40)\n      tag_25\n      swap2\n      swap1\n      tag_26\n      jump\t// in\n    tag_25:\n      mload(0x40)\n      dup1\n      swap2\n      sub\n      swap1\n      return\n        /* \"database/processing/ProcessingDatabase.sol\":2446:2636  function getListFolWarehouse(bytes32 secret)... */\n    tag_5:\n      tag_27\n      0x04\n      dup1\n      calldatasize\n      sub\n      dup2\n      add\n      swap1\n      tag_28\n      swap2\n      swap1\n      tag_23\n      jump\t// in\n    tag_28:\n      tag_29\n      jump\t// in\n    tag_27:\n      mload(0x40)\n      tag_30\n      swap2\n      swap1\n      tag_31\n      jump\t// in\n    tag_30:\n      mload(0x40)\n      dup1\n      swap2\n      sub\n      swap1\n      return\n        /* \"database/processing/ProcessingDatabase.sol\":2250:2440  function getListPreWarehouse(bytes32 secret)... */\n    tag_6:\n      tag_32\n      0x04\n      dup1\n      calldatasize\n      sub\n      dup2\n      add\n      swap1\n      tag_33\n      swap2\n      swap1\n      tag_23\n      jump\t// in\n    tag_33:\n      tag_34\n      jump\t// in\n    tag_32:\n      mload(0x40)\n      tag_35\n      swap2\n      swap1\n      tag_36\n      jump\t// in\n    tag_35:\n      mload(0x40)\n      dup1\n      swap2\n      sub\n      swap1\n      return\n        /* \"database/processing/ProcessingDatabase.sol\":2063:2244  function getListProcessor(bytes32 secret)... */\n    tag_7:\n      tag_37\n      0x04\n      dup1\n      calldatasize\n      sub\n      dup2\n      add\n      swap1\n      tag_38\n      swap2\n      swap1\n      tag_23\n      jump\t// in\n    tag_38:\n      tag_39\n      jump\t// in\n    tag_37:\n      mload(0x40)\n      tag_40\n      swap2\n      swap1\n      tag_41\n      jump\t// in\n    tag_40:\n      mload(0x40)\n      dup1\n      swap2\n      sub\n      swap1\n      return\n        /* \"database/processing/ProcessingDatabase.sol\":1030:1277  function addProcessor(Processor memory item, bytes32 secret)... */\n    tag_8:\n      tag_42\n      0x04\n      dup1\n      calldatasize\n      sub\n      dup2\n      add\n      swap1\n      tag_43\n      swap2\n      swap1\n      tag_44\n      jump\t// in\n    tag_43:\n      tag_45\n      jump\t// in\n    tag_42:\n      mload(0x40)\n      tag_46\n      swap2\n      swap1\n      tag_20\n      jump\t// in\n    tag_46:\n      mload(0x40)\n      dup1\n      swap2\n      sub\n      swap1\n      return\n        /* \"database/processing/ProcessingDatabase.sol\":1544:1799  function addFolWarehouse(FolWarehouse memory item, bytes32 secret)... */\n    tag_9:\n      tag_47\n      0x04\n      dup1\n      calldatasize\n      sub\n      dup2\n      add\n      swap1\n      tag_48\n      swap2\n      swap1\n      tag_49\n      jump\t// in\n    tag_48:\n      tag_50\n      jump\t// in\n    tag_47:\n      mload(0x40)\n      tag_51\n      swap2\n      swap1\n      tag_20\n      jump\t// in\n    tag_51:\n      mload(0x40)\n      dup1\n      swap2\n      sub\n      swap1\n      return\n        /* \"abstract/Ownable.sol\":2642:2731  function destroy() public onlyOwner {... */\n    tag_10:\n      tag_52\n      tag_53\n      jump\t// in\n    tag_52:\n      stop\n        /* \"abstract/Ownable.sol\":1175:1260  function owner() public view virtual returns (address) {... */\n    tag_11:\n      tag_54\n      tag_55\n      jump\t// in\n    tag_54:\n      mload(0x40)\n      tag_56\n      swap2\n      swap1\n      tag_57\n      jump\t// in\n    tag_56:\n      mload(0x40)\n      dup1\n      swap2\n      sub\n      swap1\n      return\n        /* \"database/processing/ProcessingDatabase.sol\":1283:1538  function addPreWarehouse(PreWarehouse memory item, bytes32 secret)... */\n    tag_12:\n      tag_58\n      0x04\n      dup1\n      calldatasize\n      sub\n      dup2\n      add\n      swap1\n      tag_59\n      swap2\n      swap1\n      tag_60\n      jump\t// in\n    tag_59:\n      tag_61\n      jump\t// in\n    tag_58:\n      mload(0x40)\n      tag_62\n      swap2\n      swap1\n      tag_20\n      jump\t// in\n    tag_62:\n      mload(0x40)\n      dup1\n      swap2\n      sub\n      swap1\n      return\n        /* \"abstract/Ownable.sol\":2063:2295  function transferOwnership(address newOwner) public virtual onlyOwner {... */\n    tag_13:\n      tag_63\n      0x04\n      dup1\n      calldatasize\n      sub\n      dup2\n      add\n      swap1\n      tag_64\n      swap2\n      swap1\n      tag_65\n      jump\t// in\n    tag_64:\n      tag_66\n      jump\t// in\n    tag_63:\n      stop\n        /* \"database/processing/ProcessingDatabase.sol\":1805:2057  function addProcessing(Processing memory item, bytes32 secret)... */\n    tag_18:\n        /* \"database/processing/ProcessingDatabase.sol\":1933:1937  bool */\n      0x00\n        /* \"database/processing/ProcessingDatabase.sol\":1908:1914  secret */\n      dup2\n        /* \"constant/SecretKey.sol\":232:298  0x8e1604a838d0f1a9b2cda14a099e4ceb08e966cc6e05e8296f67b02d61a79f09 */\n      0x8e1604a838d0f1a9b2cda14a099e4ceb08e966cc6e05e8296f67b02d61a79f09\n        /* \"database/processing/ProcessingDatabase.sol\":923:935  DATABASE_KEY */\n      0x00\n      shl\n        /* \"database/processing/ProcessingDatabase.sol\":914:919  value */\n      dup2\n        /* \"database/processing/ProcessingDatabase.sol\":914:935  value == DATABASE_KEY */\n      eq\n        /* \"database/processing/ProcessingDatabase.sol\":893:1006  require(... */\n      tag_68\n      jumpi\n      mload(0x40)\n      0x08c379a000000000000000000000000000000000000000000000000000000000\n      dup2\n      mstore\n      0x04\n      add\n      tag_69\n      swap1\n      tag_70\n      jump\t// in\n    tag_69:\n      mload(0x40)\n      dup1\n      swap2\n      sub\n      swap1\n      revert\n    tag_68:\n        /* \"database/processing/ProcessingDatabase.sol\":1973:1987  listProcessing */\n      0x02\n        /* \"database/processing/ProcessingDatabase.sol\":1973:1994  listProcessing.length */\n      dup1\n      sload\n      swap1\n      pop\n        /* \"database/processing/ProcessingDatabase.sol\":1953:1957  item */\n      dup5\n        /* \"database/processing/ProcessingDatabase.sol\":1953:1970  item.processingId */\n      0x00\n      add\n        /* \"database/processing/ProcessingDatabase.sol\":1953:1994  item.processingId = listProcessing.length */\n      dup2\n      dup2\n      mstore\n      pop\n      pop\n        /* \"database/processing/ProcessingDatabase.sol\":2004:2018  listProcessing */\n      0x02\n        /* \"database/processing/ProcessingDatabase.sol\":2024:2028  item */\n      dup5\n        /* \"database/processing/ProcessingDatabase.sol\":2004:2029  listProcessing.push(item) */\n      swap1\n      dup1\n      0x01\n      dup2\n      sload\n      add\n      dup1\n      dup3\n      sstore\n      dup1\n      swap2\n      pop\n      pop\n      0x01\n      swap1\n      sub\n      swap1\n      0x00\n      mstore\n      keccak256(0x00, 0x20)\n      swap1\n      0x04\n      mul\n      add\n      0x00\n      swap1\n      swap2\n      swap1\n      swap2\n      swap1\n      swap2\n      pop\n      0x00\n      dup3\n      add\n      mload\n      dup2\n      0x00\n      add\n      sstore\n      0x20\n      dup3\n      add\n      mload\n      dup2\n      0x01\n      add\n      sstore\n      0x40\n      dup3\n      add\n      mload\n      dup2\n      0x02\n      add\n      sstore\n      0x60\n      dup3\n      add\n      mload\n      dup2\n      0x03\n      add\n      swap1\n      dup1\n      mload\n      swap1\n      0x20\n      add\n      swap1\n      tag_73\n      swap3\n      swap2\n      swap1\n      tag_74\n      jump\t// in\n    tag_73:\n      pop\n      pop\n      pop\n        /* \"database/processing/ProcessingDatabase.sol\":2046:2050  true */\n      0x01\n        /* \"database/processing/ProcessingDatabase.sol\":2039:2050  return true */\n      swap2\n      pop\n        /* \"database/processing/ProcessingDatabase.sol\":1805:2057  function addProcessing(Processing memory item, bytes32 secret)... */\n      pop\n      swap3\n      swap2\n      pop\n      pop\n      jump\t// out\n        /* \"database/processing/ProcessingDatabase.sol\":2642:2826  function getListProcessing(bytes32 secret)... */\n    tag_24:\n        /* \"database/processing/ProcessingDatabase.sol\":2763:2782  Processing[] memory */\n      0x60\n        /* \"database/processing/ProcessingDatabase.sol\":2738:2744  secret */\n      dup2\n        /* \"constant/SecretKey.sol\":232:298  0x8e1604a838d0f1a9b2cda14a099e4ceb08e966cc6e05e8296f67b02d61a79f09 */\n      0x8e1604a838d0f1a9b2cda14a099e4ceb08e966cc6e05e8296f67b02d61a79f09\n        /* \"database/processing/ProcessingDatabase.sol\":923:935  DATABASE_KEY */\n      0x00\n      shl\n        /* \"database/processing/ProcessingDatabase.sol\":914:919  value */\n      dup2\n        /* \"database/processing/ProcessingDatabase.sol\":914:935  value == DATABASE_KEY */\n      eq\n        /* \"database/processing/ProcessingDatabase.sol\":893:1006  require(... */\n      tag_76\n      jumpi\n      mload(0x40)\n      0x08c379a000000000000000000000000000000000000000000000000000000000\n      dup2\n      mstore\n      0x04\n      add\n      tag_77\n      swap1\n      tag_70\n      jump\t// in\n    tag_77:\n      mload(0x40)\n      dup1\n      swap2\n      sub\n      swap1\n      revert\n    tag_76:\n        /* \"database/processing/ProcessingDatabase.sol\":2805:2819  listProcessing */\n      0x02\n        /* \"database/processing/ProcessingDatabase.sol\":2798:2819  return listProcessing */\n      dup1\n      sload\n      dup1\n      0x20\n      mul\n      0x20\n      add\n      mload(0x40)\n      swap1\n      dup2\n      add\n      0x40\n      mstore\n      dup1\n      swap3\n      swap2\n      swap1\n      dup2\n      dup2\n      mstore\n      0x20\n      add\n      0x00\n      swap1\n    tag_79:\n      dup3\n      dup3\n      lt\n      iszero\n      tag_80\n      jumpi\n      dup4\n      dup3\n      swap1\n      0x00\n      mstore\n      keccak256(0x00, 0x20)\n      swap1\n      0x04\n      mul\n      add\n      mload(0x40)\n      dup1\n      0x80\n      add\n      0x40\n      mstore\n      swap1\n      dup2\n      0x00\n      dup3\n      add\n      sload\n      dup2\n      mstore\n      0x20\n      add\n      0x01\n      dup3\n      add\n      sload\n      dup2\n      mstore\n      0x20\n      add\n      0x02\n      dup3\n      add\n      sload\n      dup2\n      mstore\n      0x20\n      add\n      0x03\n      dup3\n      add\n      dup1\n      sload\n      dup1\n      0x20\n      mul\n      0x20\n      add\n      mload(0x40)\n      swap1\n      dup2\n      add\n      0x40\n      mstore\n      dup1\n      swap3\n      swap2\n      swap1\n      dup2\n      dup2\n      mstore\n      0x20\n      add\n      dup3\n      dup1\n      sload\n      dup1\n      iszero\n      tag_82\n      jumpi\n      0x20\n      mul\n      dup3\n      add\n      swap2\n      swap1\n      0x00\n      mstore\n      keccak256(0x00, 0x20)\n      swap1\n    tag_83:\n      dup2\n      sload\n      dup2\n      mstore\n      0x20\n      add\n      swap1\n      0x01\n      add\n      swap1\n      dup1\n      dup4\n      gt\n      tag_83\n      jumpi\n    tag_82:\n      pop\n      pop\n      pop\n      pop\n      pop\n      dup2\n      mstore\n      pop\n      pop\n      dup2\n      mstore\n      0x20\n      add\n      swap1\n      0x01\n      add\n      swap1\n      jump(tag_79)\n    tag_80:\n      pop\n      pop\n      pop\n      pop\n      swap2\n      pop\n        /* \"database/processing/ProcessingDatabase.sol\":2642:2826  function getListProcessing(bytes32 secret)... */\n      pop\n      swap2\n      swap1\n      pop\n      jump\t// out\n        /* \"database/processing/ProcessingDatabase.sol\":2446:2636  function getListFolWarehouse(bytes32 secret)... */\n    tag_29:\n        /* \"database/processing/ProcessingDatabase.sol\":2569:2590  FolWarehouse[] memory */\n      0x60\n        /* \"database/processing/ProcessingDatabase.sol\":2544:2550  secret */\n      dup2\n        /* \"constant/SecretKey.sol\":232:298  0x8e1604a838d0f1a9b2cda14a099e4ceb08e966cc6e05e8296f67b02d61a79f09 */\n      0x8e1604a838d0f1a9b2cda14a099e4ceb08e966cc6e05e8296f67b02d61a79f09\n        /* \"database/processing/ProcessingDatabase.sol\":923:935  DATABASE_KEY */\n      0x00\n      shl\n        /* \"database/processing/ProcessingDatabase.sol\":914:919  value */\n      dup2\n        /* \"database/processing/ProcessingDatabase.sol\":914:935  value == DATABASE_KEY */\n      eq\n        /* \"database/processing/ProcessingDatabase.sol\":893:1006  require(... */\n      tag_85\n      jumpi\n      mload(0x40)\n      0x08c379a000000000000000000000000000000000000000000000000000000000\n      dup2\n      mstore\n      0x04\n      add\n      tag_86\n      swap1\n      tag_70\n      jump\t// in\n    tag_86:\n      mload(0x40)\n      dup1\n      swap2\n      sub\n      swap1\n      revert\n    tag_85:\n        /* \"database/processing/ProcessingDatabase.sol\":2613:2629  listFolWarehouse */\n      0x03\n        /* \"database/processing/ProcessingDatabase.sol\":2606:2629  return listFolWarehouse */\n      dup1\n      sload\n      dup1\n      0x20\n      mul\n      0x20\n      add\n      mload(0x40)\n      swap1\n      dup2\n      add\n      0x40\n      mstore\n      dup1\n      swap3\n      swap2\n      swap1\n      dup2\n      dup2\n      mstore\n      0x20\n      add\n      0x00\n      swap1\n    tag_88:\n      dup3\n      dup3\n      lt\n      iszero\n      tag_89\n      jumpi\n      dup4\n      dup3\n      swap1\n      0x00\n      mstore\n      keccak256(0x00, 0x20)\n      swap1\n      0x05\n      mul\n      add\n      mload(0x40)\n      dup1\n      0xa0\n      add\n      0x40\n      mstore\n      swap1\n      dup2\n      0x00\n      dup3\n      add\n      sload\n      dup2\n      mstore\n      0x20\n      add\n      0x01\n      dup3\n      add\n      sload\n      dup2\n      mstore\n      0x20\n      add\n      0x02\n      dup3\n      add\n      sload\n      dup2\n      mstore\n      0x20\n      add\n      0x03\n      dup3\n      add\n      sload\n      dup2\n      mstore\n      0x20\n      add\n      0x04\n      dup3\n      add\n      sload\n      dup2\n      mstore\n      pop\n      pop\n      dup2\n      mstore\n      0x20\n      add\n      swap1\n      0x01\n      add\n      swap1\n      jump(tag_88)\n    tag_89:\n      pop\n      pop\n      pop\n      pop\n      swap2\n      pop\n        /* \"database/processing/ProcessingDatabase.sol\":2446:2636  function getListFolWarehouse(bytes32 secret)... */\n      pop\n      swap2\n      swap1\n      pop\n      jump\t// out\n        /* \"database/processing/ProcessingDatabase.sol\":2250:2440  function getListPreWarehouse(bytes32 secret)... */\n    tag_34:\n        /* \"database/processing/ProcessingDatabase.sol\":2373:2394  PreWarehouse[] memory */\n      0x60\n        /* \"database/processing/ProcessingDatabase.sol\":2348:2354  secret */\n      dup2\n        /* \"constant/SecretKey.sol\":232:298  0x8e1604a838d0f1a9b2cda14a099e4ceb08e966cc6e05e8296f67b02d61a79f09 */\n      0x8e1604a838d0f1a9b2cda14a099e4ceb08e966cc6e05e8296f67b02d61a79f09\n        /* \"database/processing/ProcessingDatabase.sol\":923:935  DATABASE_KEY */\n      0x00\n      shl\n        /* \"database/processing/ProcessingDatabase.sol\":914:919  value */\n      dup2\n        /* \"database/processing/ProcessingDatabase.sol\":914:935  value == DATABASE_KEY */\n      eq\n        /* \"database/processing/ProcessingDatabase.sol\":893:1006  require(... */\n      tag_92\n      jumpi\n      mload(0x40)\n      0x08c379a000000000000000000000000000000000000000000000000000000000\n      dup2\n      mstore\n      0x04\n      add\n      tag_93\n      swap1\n      tag_70\n      jump\t// in\n    tag_93:\n      mload(0x40)\n      dup1\n      swap2\n      sub\n      swap1\n      revert\n    tag_92:\n        /* \"database/processing/ProcessingDatabase.sol\":2417:2433  listPreWarehouse */\n      0x04\n        /* \"database/processing/ProcessingDatabase.sol\":2410:2433  return listPreWarehouse */\n      dup1\n      sload\n      dup1\n      0x20\n      mul\n      0x20\n      add\n      mload(0x40)\n      swap1\n      dup2\n      add\n      0x40\n      mstore\n      dup1\n      swap3\n      swap2\n      swap1\n      dup2\n      dup2\n      mstore\n      0x20\n      add\n      0x00\n      swap1\n    tag_95:\n      dup3\n      dup3\n      lt\n      iszero\n      tag_96\n      jumpi\n      dup4\n      dup3\n      swap1\n      0x00\n      mstore\n      keccak256(0x00, 0x20)\n      swap1\n      0x06\n      mul\n      add\n      mload(0x40)\n      dup1\n      0xc0\n      add\n      0x40\n      mstore\n      swap1\n      dup2\n      0x00\n      dup3\n      add\n      sload\n      dup2\n      mstore\n      0x20\n      add\n      0x01\n      dup3\n      add\n      sload\n      dup2\n      mstore\n      0x20\n      add\n      0x02\n      dup3\n      add\n      dup1\n      sload\n      dup1\n      0x20\n      mul\n      0x20\n      add\n      mload(0x40)\n      swap1\n      dup2\n      add\n      0x40\n      mstore\n      dup1\n      swap3\n      swap2\n      swap1\n      dup2\n      dup2\n      mstore\n      0x20\n      add\n      dup3\n      dup1\n      sload\n      dup1\n      iszero\n      tag_98\n      jumpi\n      0x20\n      mul\n      dup3\n      add\n      swap2\n      swap1\n      0x00\n      mstore\n      keccak256(0x00, 0x20)\n      swap1\n    tag_99:\n      dup2\n      sload\n      dup2\n      mstore\n      0x20\n      add\n      swap1\n      0x01\n      add\n      swap1\n      dup1\n      dup4\n      gt\n      tag_99\n      jumpi\n    tag_98:\n      pop\n      pop\n      pop\n      pop\n      pop\n      dup2\n      mstore\n      0x20\n      add\n      0x03\n      dup3\n      add\n      sload\n      dup2\n      mstore\n      0x20\n      add\n      0x04\n      dup3\n      add\n      sload\n      dup2\n      mstore\n      0x20\n      add\n      0x05\n      dup3\n      add\n      sload\n      dup2\n      mstore\n      pop\n      pop\n      dup2\n      mstore\n      0x20\n      add\n      swap1\n      0x01\n      add\n      swap1\n      jump(tag_95)\n    tag_96:\n      pop\n      pop\n      pop\n      pop\n      swap2\n      pop\n        /* \"database/processing/ProcessingDatabase.sol\":2250:2440  function getListPreWarehouse(bytes32 secret)... */\n      pop\n      swap2\n      swap1\n      pop\n      jump\t// out\n        /* \"database/processing/ProcessingDatabase.sol\":2063:2244  function getListProcessor(bytes32 secret)... */\n    tag_39:\n        /* \"database/processing/ProcessingDatabase.sol\":2183:2201  Processor[] memory */\n      0x60\n        /* \"database/processing/ProcessingDatabase.sol\":2158:2164  secret */\n      dup2\n        /* \"constant/SecretKey.sol\":232:298  0x8e1604a838d0f1a9b2cda14a099e4ceb08e966cc6e05e8296f67b02d61a79f09 */\n      0x8e1604a838d0f1a9b2cda14a099e4ceb08e966cc6e05e8296f67b02d61a79f09\n        /* \"database/processing/ProcessingDatabase.sol\":923:935  DATABASE_KEY */\n      0x00\n      shl\n        /* \"database/processing/ProcessingDatabase.sol\":914:919  value */\n      dup2\n        /* \"database/processing/ProcessingDatabase.sol\":914:935  value == DATABASE_KEY */\n      eq\n        /* \"database/processing/ProcessingDatabase.sol\":893:1006  require(... */\n      tag_101\n      jumpi\n      mload(0x40)\n      0x08c379a000000000000000000000000000000000000000000000000000000000\n      dup2\n      mstore\n      0x04\n      add\n      tag_102\n      swap1\n      tag_70\n      jump\t// in\n    tag_102:\n      mload(0x40)\n      dup1\n      swap2\n      sub\n      swap1\n      revert\n    tag_101:\n        /* \"database/processing/ProcessingDatabase.sol\":2224:2237  listProcessor */\n      0x01\n        /* \"database/processing/ProcessingDatabase.sol\":2217:2237  return listProcessor */\n      dup1\n      sload\n      dup1\n      0x20\n      mul\n      0x20\n      add\n      mload(0x40)\n      swap1\n      dup2\n      add\n      0x40\n      mstore\n      dup1\n      swap3\n      swap2\n      swap1\n      dup2\n      dup2\n      mstore\n      0x20\n      add\n      0x00\n      swap1\n    tag_104:\n      dup3\n      dup3\n      lt\n      iszero\n      tag_105\n      jumpi\n      dup4\n      dup3\n      swap1\n      0x00\n      mstore\n      keccak256(0x00, 0x20)\n      swap1\n      0x03\n      mul\n      add\n      mload(0x40)\n      dup1\n      0x60\n      add\n      0x40\n      mstore\n      swap1\n      dup2\n      0x00\n      dup3\n      add\n      sload\n      dup2\n      mstore\n      0x20\n      add\n      0x01\n      dup3\n      add\n      0x00\n      swap1\n      sload\n      swap1\n      0x0100\n      exp\n      swap1\n      div\n      0xffffffffffffffffffffffffffffffffffffffff\n      and\n      0xffffffffffffffffffffffffffffffffffffffff\n      and\n      0xffffffffffffffffffffffffffffffffffffffff\n      and\n      dup2\n      mstore\n      0x20\n      add\n      0x02\n      dup3\n      add\n      sload\n      dup2\n      mstore\n      pop\n      pop\n      dup2\n      mstore\n      0x20\n      add\n      swap1\n      0x01\n      add\n      swap1\n      jump(tag_104)\n    tag_105:\n      pop\n      pop\n      pop\n      pop\n      swap2\n      pop\n        /* \"database/processing/ProcessingDatabase.sol\":2063:2244  function getListProcessor(bytes32 secret)... */\n      pop\n      swap2\n      swap1\n      pop\n      jump\t// out\n        /* \"database/processing/ProcessingDatabase.sol\":1030:1277  function addProcessor(Processor memory item, bytes32 secret)... */\n    tag_45:\n        /* \"database/processing/ProcessingDatabase.sol\":1156:1160  bool */\n      0x00\n        /* \"database/processing/ProcessingDatabase.sol\":1131:1137  secret */\n      dup2\n        /* \"constant/SecretKey.sol\":232:298  0x8e1604a838d0f1a9b2cda14a099e4ceb08e966cc6e05e8296f67b02d61a79f09 */\n      0x8e1604a838d0f1a9b2cda14a099e4ceb08e966cc6e05e8296f67b02d61a79f09\n        /* \"database/processing/ProcessingDatabase.sol\":923:935  DATABASE_KEY */\n      0x00\n      shl\n        /* \"database/processing/ProcessingDatabase.sol\":914:919  value */\n      dup2\n        /* \"database/processing/ProcessingDatabase.sol\":914:935  value == DATABASE_KEY */\n      eq\n        /* \"database/processing/ProcessingDatabase.sol\":893:1006  require(... */\n      tag_108\n      jumpi\n      mload(0x40)\n      0x08c379a000000000000000000000000000000000000000000000000000000000\n      dup2\n      mstore\n      0x04\n      add\n      tag_109\n      swap1\n      tag_70\n      jump\t// in\n    tag_109:\n      mload(0x40)\n      dup1\n      swap2\n      sub\n      swap1\n      revert\n    tag_108:\n        /* \"database/processing/ProcessingDatabase.sol\":1195:1208  listProcessor */\n      0x01\n        /* \"database/processing/ProcessingDatabase.sol\":1195:1215  listProcessor.length */\n      dup1\n      sload\n      swap1\n      pop\n        /* \"database/processing/ProcessingDatabase.sol\":1176:1180  item */\n      dup5\n        /* \"database/processing/ProcessingDatabase.sol\":1176:1192  item.processorId */\n      0x00\n      add\n        /* \"database/processing/ProcessingDatabase.sol\":1176:1215  item.processorId = listProcessor.length */\n      dup2\n      dup2\n      mstore\n      pop\n      pop\n        /* \"database/processing/ProcessingDatabase.sol\":1225:1238  listProcessor */\n      0x01\n        /* \"database/processing/ProcessingDatabase.sol\":1244:1248  item */\n      dup5\n        /* \"database/processing/ProcessingDatabase.sol\":1225:1249  listProcessor.push(item) */\n      swap1\n      dup1\n      0x01\n      dup2\n      sload\n      add\n      dup1\n      dup3\n      sstore\n      dup1\n      swap2\n      pop\n      pop\n      0x01\n      swap1\n      sub\n      swap1\n      0x00\n      mstore\n      keccak256(0x00, 0x20)\n      swap1\n      0x03\n      mul\n      add\n      0x00\n      swap1\n      swap2\n      swap1\n      swap2\n      swap1\n      swap2\n      pop\n      0x00\n      dup3\n      add\n      mload\n      dup2\n      0x00\n      add\n      sstore\n      0x20\n      dup3\n      add\n      mload\n      dup2\n      0x01\n      add\n      exp(0x0100, 0x00)\n      dup2\n      sload\n      dup2\n      0xffffffffffffffffffffffffffffffffffffffff\n      mul\n      not\n      and\n      swap1\n      dup4\n      0xffffffffffffffffffffffffffffffffffffffff\n      and\n      mul\n      or\n      swap1\n      sstore\n      pop\n      0x40\n      dup3\n      add\n      mload\n      dup2\n      0x02\n      add\n      sstore\n      pop\n      pop\n        /* \"database/processing/ProcessingDatabase.sol\":1266:1270  true */\n      0x01\n        /* \"database/processing/ProcessingDatabase.sol\":1259:1270  return true */\n      swap2\n      pop\n        /* \"database/processing/ProcessingDatabase.sol\":1030:1277  function addProcessor(Processor memory item, bytes32 secret)... */\n      pop\n      swap3\n      swap2\n      pop\n      pop\n      jump\t// out\n        /* \"database/processing/ProcessingDatabase.sol\":1544:1799  function addFolWarehouse(FolWarehouse memory item, bytes32 secret)... */\n    tag_50:\n        /* \"database/processing/ProcessingDatabase.sol\":1676:1680  bool */\n      0x00\n        /* \"database/processing/ProcessingDatabase.sol\":1651:1657  secret */\n      dup2\n        /* \"constant/SecretKey.sol\":232:298  0x8e1604a838d0f1a9b2cda14a099e4ceb08e966cc6e05e8296f67b02d61a79f09 */\n      0x8e1604a838d0f1a9b2cda14a099e4ceb08e966cc6e05e8296f67b02d61a79f09\n        /* \"database/processing/ProcessingDatabase.sol\":923:935  DATABASE_KEY */\n      0x00\n      shl\n        /* \"database/processing/ProcessingDatabase.sol\":914:919  value */\n      dup2\n        /* \"database/processing/ProcessingDatabase.sol\":914:935  value == DATABASE_KEY */\n      eq\n        /* \"database/processing/ProcessingDatabase.sol\":893:1006  require(... */\n      tag_113\n      jumpi\n      mload(0x40)\n      0x08c379a000000000000000000000000000000000000000000000000000000000\n      dup2\n      mstore\n      0x04\n      add\n      tag_114\n      swap1\n      tag_70\n      jump\t// in\n    tag_114:\n      mload(0x40)\n      dup1\n      swap2\n      sub\n      swap1\n      revert\n    tag_113:\n        /* \"database/processing/ProcessingDatabase.sol\":1711:1727  listFolWarehouse */\n      0x03\n        /* \"database/processing/ProcessingDatabase.sol\":1711:1734  listFolWarehouse.length */\n      dup1\n      sload\n      swap1\n      pop\n        /* \"database/processing/ProcessingDatabase.sol\":1696:1700  item */\n      dup5\n        /* \"database/processing/ProcessingDatabase.sol\":1696:1708  item.batchId */\n      0x00\n      add\n        /* \"database/processing/ProcessingDatabase.sol\":1696:1734  item.batchId = listFolWarehouse.length */\n      dup2\n      dup2\n      mstore\n      pop\n      pop\n        /* \"database/processing/ProcessingDatabase.sol\":1744:1760  listFolWarehouse */\n      0x03\n        /* \"database/processing/ProcessingDatabase.sol\":1766:1770  item */\n      dup5\n        /* \"database/processing/ProcessingDatabase.sol\":1744:1771  listFolWarehouse.push(item) */\n      swap1\n      dup1\n      0x01\n      dup2\n      sload\n      add\n      dup1\n      dup3\n      sstore\n      dup1\n      swap2\n      pop\n      pop\n      0x01\n      swap1\n      sub\n      swap1\n      0x00\n      mstore\n      keccak256(0x00, 0x20)\n      swap1\n      0x05\n      mul\n      add\n      0x00\n      swap1\n      swap2\n      swap1\n      swap2\n      swap1\n      swap2\n      pop\n      0x00\n      dup3\n      add\n      mload\n      dup2\n      0x00\n      add\n      sstore\n      0x20\n      dup3\n      add\n      mload\n      dup2\n      0x01\n      add\n      sstore\n      0x40\n      dup3\n      add\n      mload\n      dup2\n      0x02\n      add\n      sstore\n      0x60\n      dup3\n      add\n      mload\n      dup2\n      0x03\n      add\n      sstore\n      0x80\n      dup3\n      add\n      mload\n      dup2\n      0x04\n      add\n      sstore\n      pop\n      pop\n        /* \"database/processing/ProcessingDatabase.sol\":1788:1792  true */\n      0x01\n        /* \"database/processing/ProcessingDatabase.sol\":1781:1792  return true */\n      swap2\n      pop\n        /* \"database/processing/ProcessingDatabase.sol\":1544:1799  function addFolWarehouse(FolWarehouse memory item, bytes32 secret)... */\n      pop\n      swap3\n      swap2\n      pop\n      pop\n      jump\t// out\n        /* \"abstract/Ownable.sol\":2642:2731  function destroy() public onlyOwner {... */\n    tag_53:\n        /* \"abstract/Ownable.sol\":1068:1081  _checkOwner() */\n      tag_118\n        /* \"abstract/Ownable.sol\":1068:1079  _checkOwner */\n      tag_119\n        /* \"abstract/Ownable.sol\":1068:1081  _checkOwner() */\n      jump\t// in\n    tag_118:\n        /* \"abstract/Ownable.sol\":2717:2721  this */\n      address\n        /* \"abstract/Ownable.sol\":2688:2724  selfdestruct(payable(address(this))) */\n      0xffffffffffffffffffffffffffffffffffffffff\n      and\n      selfdestruct\n        /* \"abstract/Ownable.sol\":1175:1260  function owner() public view virtual returns (address) {... */\n    tag_55:\n        /* \"abstract/Ownable.sol\":1221:1228  address */\n      0x00\n        /* \"abstract/Ownable.sol\":1247:1253  _owner */\n      dup1\n      0x00\n      swap1\n      sload\n      swap1\n      0x0100\n      exp\n      swap1\n      div\n      0xffffffffffffffffffffffffffffffffffffffff\n      and\n        /* \"abstract/Ownable.sol\":1240:1253  return _owner */\n      swap1\n      pop\n        /* \"abstract/Ownable.sol\":1175:1260  function owner() public view virtual returns (address) {... */\n      swap1\n      jump\t// out\n        /* \"database/processing/ProcessingDatabase.sol\":1283:1538  function addPreWarehouse(PreWarehouse memory item, bytes32 secret)... */\n    tag_61:\n        /* \"database/processing/ProcessingDatabase.sol\":1415:1419  bool */\n      0x00\n        /* \"database/processing/ProcessingDatabase.sol\":1390:1396  secret */\n      dup2\n        /* \"constant/SecretKey.sol\":232:298  0x8e1604a838d0f1a9b2cda14a099e4ceb08e966cc6e05e8296f67b02d61a79f09 */\n      0x8e1604a838d0f1a9b2cda14a099e4ceb08e966cc6e05e8296f67b02d61a79f09\n        /* \"database/processing/ProcessingDatabase.sol\":923:935  DATABASE_KEY */\n      0x00\n      shl\n        /* \"database/processing/ProcessingDatabase.sol\":914:919  value */\n      dup2\n        /* \"database/processing/ProcessingDatabase.sol\":914:935  value == DATABASE_KEY */\n      eq\n        /* \"database/processing/ProcessingDatabase.sol\":893:1006  require(... */\n      tag_123\n      jumpi\n      mload(0x40)\n      0x08c379a000000000000000000000000000000000000000000000000000000000\n      dup2\n      mstore\n      0x04\n      add\n      tag_124\n      swap1\n      tag_70\n      jump\t// in\n    tag_124:\n      mload(0x40)\n      dup1\n      swap2\n      sub\n      swap1\n      revert\n    tag_123:\n        /* \"database/processing/ProcessingDatabase.sol\":1450:1466  listPreWarehouse */\n      0x04\n        /* \"database/processing/ProcessingDatabase.sol\":1450:1473  listPreWarehouse.length */\n      dup1\n      sload\n      swap1\n      pop\n        /* \"database/processing/ProcessingDatabase.sol\":1435:1439  item */\n      dup5\n        /* \"database/processing/ProcessingDatabase.sol\":1435:1447  item.batchId */\n      0x00\n      add\n        /* \"database/processing/ProcessingDatabase.sol\":1435:1473  item.batchId = listPreWarehouse.length */\n      dup2\n      dup2\n      mstore\n      pop\n      pop\n        /* \"database/processing/ProcessingDatabase.sol\":1483:1499  listPreWarehouse */\n      0x04\n        /* \"database/processing/ProcessingDatabase.sol\":1505:1509  item */\n      dup5\n        /* \"database/processing/ProcessingDatabase.sol\":1483:1510  listPreWarehouse.push(item) */\n      swap1\n      dup1\n      0x01\n      dup2\n      sload\n      add\n      dup1\n      dup3\n      sstore\n      dup1\n      swap2\n      pop\n      pop\n      0x01\n      swap1\n      sub\n      swap1\n      0x00\n      mstore\n      keccak256(0x00, 0x20)\n      swap1\n      0x06\n      mul\n      add\n      0x00\n      swap1\n      swap2\n      swap1\n      swap2\n      swap1\n      swap2\n      pop\n      0x00\n      dup3\n      add\n      mload\n      dup2\n      0x00\n      add\n      sstore\n      0x20\n      dup3\n      add\n      mload\n      dup2\n      0x01\n      add\n      sstore\n      0x40\n      dup3\n      add\n      mload\n      dup2\n      0x02\n      add\n      swap1\n      dup1\n      mload\n      swap1\n      0x20\n      add\n      swap1\n      tag_127\n      swap3\n      swap2\n      swap1\n      tag_74\n      jump\t// in\n    tag_127:\n      pop\n      0x60\n      dup3\n      add\n      mload\n      dup2\n      0x03\n      add\n      sstore\n      0x80\n      dup3\n      add\n      mload\n      dup2\n      0x04\n      add\n      sstore\n      0xa0\n      dup3\n      add\n      mload\n      dup2\n      0x05\n      add\n      sstore\n      pop\n      pop\n        /* \"database/processing/ProcessingDatabase.sol\":1527:1531  true */\n      0x01\n        /* \"database/processing/ProcessingDatabase.sol\":1520:1531  return true */\n      swap2\n      pop\n        /* \"database/processing/ProcessingDatabase.sol\":1283:1538  function addPreWarehouse(PreWarehouse memory item, bytes32 secret)... */\n      pop\n      swap3\n      swap2\n      pop\n      pop\n      jump\t// out\n        /* \"abstract/Ownable.sol\":2063:2295  function transferOwnership(address newOwner) public virtual onlyOwner {... */\n    tag_66:\n        /* \"abstract/Ownable.sol\":1068:1081  _checkOwner() */\n      tag_129\n        /* \"abstract/Ownable.sol\":1068:1079  _checkOwner */\n      tag_119\n        /* \"abstract/Ownable.sol\":1068:1081  _checkOwner() */\n      jump\t// in\n    tag_129:\n        /* \"abstract/Ownable.sol\":2184:2185  0 */\n      0x00\n        /* \"abstract/Ownable.sol\":2164:2186  newOwner != address(0) */\n      0xffffffffffffffffffffffffffffffffffffffff\n      and\n        /* \"abstract/Ownable.sol\":2164:2172  newOwner */\n      dup2\n        /* \"abstract/Ownable.sol\":2164:2186  newOwner != address(0) */\n      0xffffffffffffffffffffffffffffffffffffffff\n      and\n      sub\n        /* \"abstract/Ownable.sol\":2143:2250  require(... */\n      tag_131\n      jumpi\n      mload(0x40)\n      0x08c379a000000000000000000000000000000000000000000000000000000000\n      dup2\n      mstore\n      0x04\n      add\n      tag_132\n      swap1\n      tag_133\n      jump\t// in\n    tag_132:\n      mload(0x40)\n      dup1\n      swap2\n      sub\n      swap1\n      revert\n    tag_131:\n        /* \"abstract/Ownable.sol\":2260:2288  _transferOwnership(newOwner) */\n      tag_134\n        /* \"abstract/Ownable.sol\":2279:2287  newOwner */\n      dup2\n        /* \"abstract/Ownable.sol\":2260:2278  _transferOwnership */\n      tag_135\n        /* \"abstract/Ownable.sol\":2260:2288  _transferOwnership(newOwner) */\n      jump\t// in\n    tag_134:\n        /* \"abstract/Ownable.sol\":2063:2295  function transferOwnership(address newOwner) public virtual onlyOwner {... */\n      pop\n      jump\t// out\n        /* \"abstract/Ownable.sol\":1333:1461  function _checkOwner() internal view virtual {... */\n    tag_119:\n        /* \"abstract/Ownable.sol\":1407:1417  msg.sender */\n      caller\n        /* \"abstract/Ownable.sol\":1396:1417  owner() == msg.sender */\n      0xffffffffffffffffffffffffffffffffffffffff\n      and\n        /* \"abstract/Ownable.sol\":1396:1403  owner() */\n      tag_137\n        /* \"abstract/Ownable.sol\":1396:1401  owner */\n      tag_55\n        /* \"abstract/Ownable.sol\":1396:1403  owner() */\n      jump\t// in\n    tag_137:\n        /* \"abstract/Ownable.sol\":1396:1417  owner() == msg.sender */\n      0xffffffffffffffffffffffffffffffffffffffff\n      and\n      eq\n        /* \"abstract/Ownable.sol\":1388:1454  require(owner() == msg.sender, \"Ownable: caller is not the owner\") */\n      tag_138\n      jumpi\n      mload(0x40)\n      0x08c379a000000000000000000000000000000000000000000000000000000000\n      dup2\n      mstore\n      0x04\n      add\n      tag_139\n      swap1\n      tag_140\n      jump\t// in\n    tag_139:\n      mload(0x40)\n      dup1\n      swap2\n      sub\n      swap1\n      revert\n    tag_138:\n        /* \"abstract/Ownable.sol\":1333:1461  function _checkOwner() internal view virtual {... */\n      jump\t// out\n        /* \"abstract/Ownable.sol\":2449:2636  function _transferOwnership(address newOwner) internal virtual {... */\n    tag_135:\n        /* \"abstract/Ownable.sol\":2522:2538  address oldOwner */\n      0x00\n        /* \"abstract/Ownable.sol\":2541:2547  _owner */\n      dup1\n      0x00\n      swap1\n      sload\n      swap1\n      0x0100\n      exp\n      swap1\n      div\n      0xffffffffffffffffffffffffffffffffffffffff\n      and\n        /* \"abstract/Ownable.sol\":2522:2547  address oldOwner = _owner */\n      swap1\n      pop\n        /* \"abstract/Ownable.sol\":2566:2574  newOwner */\n      dup2\n        /* \"abstract/Ownable.sol\":2557:2563  _owner */\n      0x00\n      dup1\n        /* \"abstract/Ownable.sol\":2557:2574  _owner = newOwner */\n      0x0100\n      exp\n      dup2\n      sload\n      dup2\n      0xffffffffffffffffffffffffffffffffffffffff\n      mul\n      not\n      and\n      swap1\n      dup4\n      0xffffffffffffffffffffffffffffffffffffffff\n      and\n      mul\n      or\n      swap1\n      sstore\n      pop\n        /* \"abstract/Ownable.sol\":2620:2628  newOwner */\n      dup2\n        /* \"abstract/Ownable.sol\":2589:2629  OwnershipTransferred(oldOwner, newOwner) */\n      0xffffffffffffffffffffffffffffffffffffffff\n      and\n        /* \"abstract/Ownable.sol\":2610:2618  oldOwner */\n      dup2\n        /* \"abstract/Ownable.sol\":2589:2629  OwnershipTransferred(oldOwner, newOwner) */\n      0xffffffffffffffffffffffffffffffffffffffff\n      and\n      0x8be0079c531659141344cd1fd0a4f28419497f9722a3daafe3b4186f6b6457e0\n      mload(0x40)\n      mload(0x40)\n      dup1\n      swap2\n      sub\n      swap1\n      log3\n        /* \"abstract/Ownable.sol\":2512:2636  {... */\n      pop\n        /* \"abstract/Ownable.sol\":2449:2636  function _transferOwnership(address newOwner) internal virtual {... */\n      pop\n      jump\t// out\n    tag_74:\n      dup3\n      dup1\n      sload\n      dup3\n      dup3\n      sstore\n      swap1\n      0x00\n      mstore\n      keccak256(0x00, 0x20)\n      swap1\n      dup2\n      add\n      swap3\n      dup3\n      iszero\n      tag_142\n      jumpi\n      swap2\n      0x20\n      mul\n      dup3\n      add\n    tag_143:\n      dup3\n      dup2\n      gt\n      iszero\n      tag_144\n      jumpi\n      dup3\n      mload\n      dup3\n      sstore\n      swap2\n      0x20\n      add\n      swap2\n      swap1\n      0x01\n      add\n      swap1\n      jump(tag_143)\n    tag_144:\n    tag_142:\n      pop\n      swap1\n      pop\n      tag_145\n      swap2\n      swap1\n      tag_146\n      jump\t// in\n    tag_145:\n      pop\n      swap1\n      jump\t// out\n    tag_146:\n    tag_147:\n      dup1\n      dup3\n      gt\n      iszero\n      tag_148\n      jumpi\n      0x00\n      dup2\n      0x00\n      swap1\n      sstore\n      pop\n      0x01\n      add\n      jump(tag_147)\n    tag_148:\n      pop\n      swap1\n      jump\t// out\n        /* \"#utility.yul\":7:82   */\n    tag_149:\n        /* \"#utility.yul\":40:46   */\n      0x00\n        /* \"#utility.yul\":73:75   */\n      0x40\n        /* \"#utility.yul\":67:76   */\n      mload\n        /* \"#utility.yul\":57:76   */\n      swap1\n      pop\n        /* \"#utility.yul\":7:82   */\n      swap1\n      jump\t// out\n        /* \"#utility.yul\":88:205   */\n    tag_150:\n        /* \"#utility.yul\":197:198   */\n      0x00\n        /* \"#utility.yul\":194:195   */\n      dup1\n        /* \"#utility.yul\":187:199   */\n      revert\n        /* \"#utility.yul\":211:328   */\n    tag_151:\n        /* \"#utility.yul\":320:321   */\n      0x00\n        /* \"#utility.yul\":317:318   */\n      dup1\n        /* \"#utility.yul\":310:322   */\n      revert\n        /* \"#utility.yul\":334:451   */\n    tag_152:\n        /* \"#utility.yul\":443:444   */\n      0x00\n        /* \"#utility.yul\":440:441   */\n      dup1\n        /* \"#utility.yul\":433:445   */\n      revert\n        /* \"#utility.yul\":457:559   */\n    tag_153:\n        /* \"#utility.yul\":498:504   */\n      0x00\n        /* \"#utility.yul\":549:551   */\n      0x1f\n        /* \"#utility.yul\":545:552   */\n      not\n        /* \"#utility.yul\":540:542   */\n      0x1f\n        /* \"#utility.yul\":533:538   */\n      dup4\n        /* \"#utility.yul\":529:543   */\n      add\n        /* \"#utility.yul\":525:553   */\n      and\n        /* \"#utility.yul\":515:553   */\n      swap1\n      pop\n        /* \"#utility.yul\":457:559   */\n      swap2\n      swap1\n      pop\n      jump\t// out\n        /* \"#utility.yul\":565:745   */\n    tag_154:\n        /* \"#utility.yul\":613:690   */\n      0x4e487b7100000000000000000000000000000000000000000000000000000000\n        /* \"#utility.yul\":610:611   */\n      0x00\n        /* \"#utility.yul\":603:691   */\n      mstore\n        /* \"#utility.yul\":710:714   */\n      0x41\n        /* \"#utility.yul\":707:708   */\n      0x04\n        /* \"#utility.yul\":700:715   */\n      mstore\n        /* \"#utility.yul\":734:738   */\n      0x24\n        /* \"#utility.yul\":731:732   */\n      0x00\n        /* \"#utility.yul\":724:739   */\n      revert\n        /* \"#utility.yul\":751:1032   */\n    tag_155:\n        /* \"#utility.yul\":834:861   */\n      tag_231\n        /* \"#utility.yul\":856:860   */\n      dup3\n        /* \"#utility.yul\":834:861   */\n      tag_153\n      jump\t// in\n    tag_231:\n        /* \"#utility.yul\":826:832   */\n      dup2\n        /* \"#utility.yul\":822:862   */\n      add\n        /* \"#utility.yul\":964:970   */\n      dup2\n        /* \"#utility.yul\":952:962   */\n      dup2\n        /* \"#utility.yul\":949:971   */\n      lt\n        /* \"#utility.yul\":928:946   */\n      0xffffffffffffffff\n        /* \"#utility.yul\":916:926   */\n      dup3\n        /* \"#utility.yul\":913:947   */\n      gt\n        /* \"#utility.yul\":910:972   */\n      or\n        /* \"#utility.yul\":907:995   */\n      iszero\n      tag_232\n      jumpi\n        /* \"#utility.yul\":975:993   */\n      tag_233\n      tag_154\n      jump\t// in\n    tag_233:\n        /* \"#utility.yul\":907:995   */\n    tag_232:\n        /* \"#utility.yul\":1015:1025   */\n      dup1\n        /* \"#utility.yul\":1011:1013   */\n      0x40\n        /* \"#utility.yul\":1004:1026   */\n      mstore\n        /* \"#utility.yul\":794:1032   */\n      pop\n        /* \"#utility.yul\":751:1032   */\n      pop\n      pop\n      jump\t// out\n        /* \"#utility.yul\":1038:1167   */\n    tag_156:\n        /* \"#utility.yul\":1072:1078   */\n      0x00\n        /* \"#utility.yul\":1099:1119   */\n      tag_235\n      tag_149\n      jump\t// in\n    tag_235:\n        /* \"#utility.yul\":1089:1119   */\n      swap1\n      pop\n        /* \"#utility.yul\":1128:1161   */\n      tag_236\n        /* \"#utility.yul\":1156:1160   */\n      dup3\n        /* \"#utility.yul\":1148:1154   */\n      dup3\n        /* \"#utility.yul\":1128:1161   */\n      tag_155\n      jump\t// in\n    tag_236:\n        /* \"#utility.yul\":1038:1167   */\n      swap2\n      swap1\n      pop\n      jump\t// out\n        /* \"#utility.yul\":1173:1290   */\n    tag_157:\n        /* \"#utility.yul\":1282:1283   */\n      0x00\n        /* \"#utility.yul\":1279:1280   */\n      dup1\n        /* \"#utility.yul\":1272:1284   */\n      revert\n        /* \"#utility.yul\":1296:1373   */\n    tag_158:\n        /* \"#utility.yul\":1333:1340   */\n      0x00\n        /* \"#utility.yul\":1362:1367   */\n      dup2\n        /* \"#utility.yul\":1351:1367   */\n      swap1\n      pop\n        /* \"#utility.yul\":1296:1373   */\n      swap2\n      swap1\n      pop\n      jump\t// out\n        /* \"#utility.yul\":1379:1501   */\n    tag_159:\n        /* \"#utility.yul\":1452:1476   */\n      tag_240\n        /* \"#utility.yul\":1470:1475   */\n      dup2\n        /* \"#utility.yul\":1452:1476   */\n      tag_158\n      jump\t// in\n    tag_240:\n        /* \"#utility.yul\":1445:1450   */\n      dup2\n        /* \"#utility.yul\":1442:1477   */\n      eq\n        /* \"#utility.yul\":1432:1495   */\n      tag_241\n      jumpi\n        /* \"#utility.yul\":1491:1492   */\n      0x00\n        /* \"#utility.yul\":1488:1489   */\n      dup1\n        /* \"#utility.yul\":1481:1493   */\n      revert\n        /* \"#utility.yul\":1432:1495   */\n    tag_241:\n        /* \"#utility.yul\":1379:1501   */\n      pop\n      jump\t// out\n        /* \"#utility.yul\":1507:1646   */\n    tag_160:\n        /* \"#utility.yul\":1553:1558   */\n      0x00\n        /* \"#utility.yul\":1591:1597   */\n      dup2\n        /* \"#utility.yul\":1578:1598   */\n      calldataload\n        /* \"#utility.yul\":1569:1598   */\n      swap1\n      pop\n        /* \"#utility.yul\":1607:1640   */\n      tag_243\n        /* \"#utility.yul\":1634:1639   */\n      dup2\n        /* \"#utility.yul\":1607:1640   */\n      tag_159\n      jump\t// in\n    tag_243:\n        /* \"#utility.yul\":1507:1646   */\n      swap3\n      swap2\n      pop\n      pop\n      jump\t// out\n        /* \"#utility.yul\":1652:1769   */\n    tag_161:\n        /* \"#utility.yul\":1761:1762   */\n      0x00\n        /* \"#utility.yul\":1758:1759   */\n      dup1\n        /* \"#utility.yul\":1751:1763   */\n      revert\n        /* \"#utility.yul\":1775:2086   */\n    tag_162:\n        /* \"#utility.yul\":1852:1856   */\n      0x00\n        /* \"#utility.yul\":1942:1960   */\n      0xffffffffffffffff\n        /* \"#utility.yul\":1934:1940   */\n      dup3\n        /* \"#utility.yul\":1931:1961   */\n      gt\n        /* \"#utility.yul\":1928:1984   */\n      iszero\n      tag_246\n      jumpi\n        /* \"#utility.yul\":1964:1982   */\n      tag_247\n      tag_154\n      jump\t// in\n    tag_247:\n        /* \"#utility.yul\":1928:1984   */\n    tag_246:\n        /* \"#utility.yul\":2014:2018   */\n      0x20\n        /* \"#utility.yul\":2006:2012   */\n      dup3\n        /* \"#utility.yul\":2002:2019   */\n      mul\n        /* \"#utility.yul\":1994:2019   */\n      swap1\n      pop\n        /* \"#utility.yul\":2074:2078   */\n      0x20\n        /* \"#utility.yul\":2068:2072   */\n      dup2\n        /* \"#utility.yul\":2064:2079   */\n      add\n        /* \"#utility.yul\":2056:2079   */\n      swap1\n      pop\n        /* \"#utility.yul\":1775:2086   */\n      swap2\n      swap1\n      pop\n      jump\t// out\n        /* \"#utility.yul\":2092:2209   */\n    tag_163:\n        /* \"#utility.yul\":2201:2202   */\n      0x00\n        /* \"#utility.yul\":2198:2199   */\n      dup1\n        /* \"#utility.yul\":2191:2203   */\n      revert\n        /* \"#utility.yul\":2232:2942   */\n    tag_164:\n        /* \"#utility.yul\":2328:2333   */\n      0x00\n        /* \"#utility.yul\":2353:2434   */\n      tag_250\n        /* \"#utility.yul\":2369:2433   */\n      tag_251\n        /* \"#utility.yul\":2426:2432   */\n      dup5\n        /* \"#utility.yul\":2369:2433   */\n      tag_162\n      jump\t// in\n    tag_251:\n        /* \"#utility.yul\":2353:2434   */\n      tag_156\n      jump\t// in\n    tag_250:\n        /* \"#utility.yul\":2344:2434   */\n      swap1\n      pop\n        /* \"#utility.yul\":2454:2459   */\n      dup1\n        /* \"#utility.yul\":2483:2489   */\n      dup4\n        /* \"#utility.yul\":2476:2481   */\n      dup3\n        /* \"#utility.yul\":2469:2490   */\n      mstore\n        /* \"#utility.yul\":2517:2521   */\n      0x20\n        /* \"#utility.yul\":2510:2515   */\n      dup3\n        /* \"#utility.yul\":2506:2522   */\n      add\n        /* \"#utility.yul\":2499:2522   */\n      swap1\n      pop\n        /* \"#utility.yul\":2570:2574   */\n      0x20\n        /* \"#utility.yul\":2562:2568   */\n      dup5\n        /* \"#utility.yul\":2558:2575   */\n      mul\n        /* \"#utility.yul\":2550:2556   */\n      dup4\n        /* \"#utility.yul\":2546:2576   */\n      add\n        /* \"#utility.yul\":2599:2602   */\n      dup6\n        /* \"#utility.yul\":2591:2597   */\n      dup2\n        /* \"#utility.yul\":2588:2603   */\n      gt\n        /* \"#utility.yul\":2585:2707   */\n      iszero\n      tag_252\n      jumpi\n        /* \"#utility.yul\":2618:2697   */\n      tag_253\n      tag_163\n      jump\t// in\n    tag_253:\n        /* \"#utility.yul\":2585:2707   */\n    tag_252:\n        /* \"#utility.yul\":2733:2739   */\n      dup4\n        /* \"#utility.yul\":2716:2936   */\n    tag_254:\n        /* \"#utility.yul\":2750:2756   */\n      dup2\n        /* \"#utility.yul\":2745:2748   */\n      dup2\n        /* \"#utility.yul\":2742:2757   */\n      lt\n        /* \"#utility.yul\":2716:2936   */\n      iszero\n      tag_256\n      jumpi\n        /* \"#utility.yul\":2825:2828   */\n      dup1\n        /* \"#utility.yul\":2854:2891   */\n      tag_257\n        /* \"#utility.yul\":2887:2890   */\n      dup9\n        /* \"#utility.yul\":2875:2885   */\n      dup3\n        /* \"#utility.yul\":2854:2891   */\n      tag_160\n      jump\t// in\n    tag_257:\n        /* \"#utility.yul\":2849:2852   */\n      dup5\n        /* \"#utility.yul\":2842:2892   */\n      mstore\n        /* \"#utility.yul\":2921:2925   */\n      0x20\n        /* \"#utility.yul\":2916:2919   */\n      dup5\n        /* \"#utility.yul\":2912:2926   */\n      add\n        /* \"#utility.yul\":2905:2926   */\n      swap4\n      pop\n        /* \"#utility.yul\":2792:2936   */\n      pop\n        /* \"#utility.yul\":2776:2780   */\n      0x20\n        /* \"#utility.yul\":2771:2774   */\n      dup2\n        /* \"#utility.yul\":2767:2781   */\n      add\n        /* \"#utility.yul\":2760:2781   */\n      swap1\n      pop\n        /* \"#utility.yul\":2716:2936   */\n      jump(tag_254)\n    tag_256:\n        /* \"#utility.yul\":2720:2741   */\n      pop\n        /* \"#utility.yul\":2334:2942   */\n      pop\n      pop\n        /* \"#utility.yul\":2232:2942   */\n      swap4\n      swap3\n      pop\n      pop\n      pop\n      jump\t// out\n        /* \"#utility.yul\":2965:3335   */\n    tag_165:\n        /* \"#utility.yul\":3036:3041   */\n      0x00\n        /* \"#utility.yul\":3085:3088   */\n      dup3\n        /* \"#utility.yul\":3078:3082   */\n      0x1f\n        /* \"#utility.yul\":3070:3076   */\n      dup4\n        /* \"#utility.yul\":3066:3083   */\n      add\n        /* \"#utility.yul\":3062:3089   */\n      slt\n        /* \"#utility.yul\":3052:3174   */\n      tag_259\n      jumpi\n        /* \"#utility.yul\":3093:3172   */\n      tag_260\n      tag_161\n      jump\t// in\n    tag_260:\n        /* \"#utility.yul\":3052:3174   */\n    tag_259:\n        /* \"#utility.yul\":3210:3216   */\n      dup2\n        /* \"#utility.yul\":3197:3217   */\n      calldataload\n        /* \"#utility.yul\":3235:3329   */\n      tag_261\n        /* \"#utility.yul\":3325:3328   */\n      dup5\n        /* \"#utility.yul\":3317:3323   */\n      dup3\n        /* \"#utility.yul\":3310:3314   */\n      0x20\n        /* \"#utility.yul\":3302:3308   */\n      dup7\n        /* \"#utility.yul\":3298:3315   */\n      add\n        /* \"#utility.yul\":3235:3329   */\n      tag_164\n      jump\t// in\n    tag_261:\n        /* \"#utility.yul\":3226:3329   */\n      swap2\n      pop\n        /* \"#utility.yul\":3042:3335   */\n      pop\n        /* \"#utility.yul\":2965:3335   */\n      swap3\n      swap2\n      pop\n      pop\n      jump\t// out\n        /* \"#utility.yul\":3366:4475   */\n    tag_166:\n        /* \"#utility.yul\":3442:3447   */\n      0x00\n        /* \"#utility.yul\":3486:3490   */\n      0x80\n        /* \"#utility.yul\":3474:3483   */\n      dup3\n        /* \"#utility.yul\":3469:3472   */\n      dup5\n        /* \"#utility.yul\":3465:3484   */\n      sub\n        /* \"#utility.yul\":3461:3491   */\n      slt\n        /* \"#utility.yul\":3458:3575   */\n      iszero\n      tag_263\n      jumpi\n        /* \"#utility.yul\":3494:3573   */\n      tag_264\n      tag_152\n      jump\t// in\n    tag_264:\n        /* \"#utility.yul\":3458:3575   */\n    tag_263:\n        /* \"#utility.yul\":3593:3614   */\n      tag_265\n        /* \"#utility.yul\":3609:3613   */\n      0x80\n        /* \"#utility.yul\":3593:3614   */\n      tag_156\n      jump\t// in\n    tag_265:\n        /* \"#utility.yul\":3584:3614   */\n      swap1\n      pop\n        /* \"#utility.yul\":3681:3682   */\n      0x00\n        /* \"#utility.yul\":3721:3770   */\n      tag_266\n        /* \"#utility.yul\":3766:3769   */\n      dup5\n        /* \"#utility.yul\":3757:3763   */\n      dup3\n        /* \"#utility.yul\":3746:3755   */\n      dup6\n        /* \"#utility.yul\":3742:3764   */\n      add\n        /* \"#utility.yul\":3721:3770   */\n      tag_160\n      jump\t// in\n    tag_266:\n        /* \"#utility.yul\":3714:3718   */\n      0x00\n        /* \"#utility.yul\":3707:3712   */\n      dup4\n        /* \"#utility.yul\":3703:3719   */\n      add\n        /* \"#utility.yul\":3696:3771   */\n      mstore\n        /* \"#utility.yul\":3624:3782   */\n      pop\n        /* \"#utility.yul\":3848:3850   */\n      0x20\n        /* \"#utility.yul\":3889:3938   */\n      tag_267\n        /* \"#utility.yul\":3934:3937   */\n      dup5\n        /* \"#utility.yul\":3925:3931   */\n      dup3\n        /* \"#utility.yul\":3914:3923   */\n      dup6\n        /* \"#utility.yul\":3910:3932   */\n      add\n        /* \"#utility.yul\":3889:3938   */\n      tag_160\n      jump\t// in\n    tag_267:\n        /* \"#utility.yul\":3882:3886   */\n      0x20\n        /* \"#utility.yul\":3875:3880   */\n      dup4\n        /* \"#utility.yul\":3871:3887   */\n      add\n        /* \"#utility.yul\":3864:3939   */\n      mstore\n        /* \"#utility.yul\":3792:3950   */\n      pop\n        /* \"#utility.yul\":4013:4015   */\n      0x40\n        /* \"#utility.yul\":4054:4103   */\n      tag_268\n        /* \"#utility.yul\":4099:4102   */\n      dup5\n        /* \"#utility.yul\":4090:4096   */\n      dup3\n        /* \"#utility.yul\":4079:4088   */\n      dup6\n        /* \"#utility.yul\":4075:4097   */\n      add\n        /* \"#utility.yul\":4054:4103   */\n      tag_160\n      jump\t// in\n    tag_268:\n        /* \"#utility.yul\":4047:4051   */\n      0x40\n        /* \"#utility.yul\":4040:4045   */\n      dup4\n        /* \"#utility.yul\":4036:4052   */\n      add\n        /* \"#utility.yul\":4029:4104   */\n      mstore\n        /* \"#utility.yul\":3960:4115   */\n      pop\n        /* \"#utility.yul\":4209:4211   */\n      0x60\n        /* \"#utility.yul\":4198:4207   */\n      dup3\n        /* \"#utility.yul\":4194:4212   */\n      add\n        /* \"#utility.yul\":4181:4213   */\n      calldataload\n        /* \"#utility.yul\":4240:4258   */\n      0xffffffffffffffff\n        /* \"#utility.yul\":4232:4238   */\n      dup2\n        /* \"#utility.yul\":4229:4259   */\n      gt\n        /* \"#utility.yul\":4226:4343   */\n      iszero\n      tag_269\n      jumpi\n        /* \"#utility.yul\":4262:4341   */\n      tag_270\n      tag_157\n      jump\t// in\n    tag_270:\n        /* \"#utility.yul\":4226:4343   */\n    tag_269:\n        /* \"#utility.yul\":4382:4456   */\n      tag_271\n        /* \"#utility.yul\":4452:4455   */\n      dup5\n        /* \"#utility.yul\":4443:4449   */\n      dup3\n        /* \"#utility.yul\":4432:4441   */\n      dup6\n        /* \"#utility.yul\":4428:4450   */\n      add\n        /* \"#utility.yul\":4382:4456   */\n      tag_165\n      jump\t// in\n    tag_271:\n        /* \"#utility.yul\":4375:4379   */\n      0x60\n        /* \"#utility.yul\":4368:4373   */\n      dup4\n        /* \"#utility.yul\":4364:4380   */\n      add\n        /* \"#utility.yul\":4357:4457   */\n      mstore\n        /* \"#utility.yul\":4125:4468   */\n      pop\n        /* \"#utility.yul\":3366:4475   */\n      swap3\n      swap2\n      pop\n      pop\n      jump\t// out\n        /* \"#utility.yul\":4481:4558   */\n    tag_167:\n        /* \"#utility.yul\":4518:4525   */\n      0x00\n        /* \"#utility.yul\":4547:4552   */\n      dup2\n        /* \"#utility.yul\":4536:4552   */\n      swap1\n      pop\n        /* \"#utility.yul\":4481:4558   */\n      swap2\n      swap1\n      pop\n      jump\t// out\n        /* \"#utility.yul\":4564:4686   */\n    tag_168:\n        /* \"#utility.yul\":4637:4661   */\n      tag_274\n        /* \"#utility.yul\":4655:4660   */\n      dup2\n        /* \"#utility.yul\":4637:4661   */\n      tag_167\n      jump\t// in\n    tag_274:\n        /* \"#utility.yul\":4630:4635   */\n      dup2\n        /* \"#utility.yul\":4627:4662   */\n      eq\n        /* \"#utility.yul\":4617:4680   */\n      tag_275\n      jumpi\n        /* \"#utility.yul\":4676:4677   */\n      0x00\n        /* \"#utility.yul\":4673:4674   */\n      dup1\n        /* \"#utility.yul\":4666:4678   */\n      revert\n        /* \"#utility.yul\":4617:4680   */\n    tag_275:\n        /* \"#utility.yul\":4564:4686   */\n      pop\n      jump\t// out\n        /* \"#utility.yul\":4692:4831   */\n    tag_169:\n        /* \"#utility.yul\":4738:4743   */\n      0x00\n        /* \"#utility.yul\":4776:4782   */\n      dup2\n        /* \"#utility.yul\":4763:4783   */\n      calldataload\n        /* \"#utility.yul\":4754:4783   */\n      swap1\n      pop\n        /* \"#utility.yul\":4792:4825   */\n      tag_277\n        /* \"#utility.yul\":4819:4824   */\n      dup2\n        /* \"#utility.yul\":4792:4825   */\n      tag_168\n      jump\t// in\n    tag_277:\n        /* \"#utility.yul\":4692:4831   */\n      swap3\n      swap2\n      pop\n      pop\n      jump\t// out\n        /* \"#utility.yul\":4837:5525   */\n    tag_17:\n        /* \"#utility.yul\":4932:4938   */\n      0x00\n        /* \"#utility.yul\":4940:4946   */\n      dup1\n        /* \"#utility.yul\":4989:4991   */\n      0x40\n        /* \"#utility.yul\":4977:4986   */\n      dup4\n        /* \"#utility.yul\":4968:4975   */\n      dup6\n        /* \"#utility.yul\":4964:4987   */\n      sub\n        /* \"#utility.yul\":4960:4992   */\n      slt\n        /* \"#utility.yul\":4957:5076   */\n      iszero\n      tag_279\n      jumpi\n        /* \"#utility.yul\":4995:5074   */\n      tag_280\n      tag_150\n      jump\t// in\n    tag_280:\n        /* \"#utility.yul\":4957:5076   */\n    tag_279:\n        /* \"#utility.yul\":5143:5144   */\n      0x00\n        /* \"#utility.yul\":5132:5141   */\n      dup4\n        /* \"#utility.yul\":5128:5145   */\n      add\n        /* \"#utility.yul\":5115:5146   */\n      calldataload\n        /* \"#utility.yul\":5173:5191   */\n      0xffffffffffffffff\n        /* \"#utility.yul\":5165:5171   */\n      dup2\n        /* \"#utility.yul\":5162:5192   */\n      gt\n        /* \"#utility.yul\":5159:5276   */\n      iszero\n      tag_281\n      jumpi\n        /* \"#utility.yul\":5195:5274   */\n      tag_282\n      tag_151\n      jump\t// in\n    tag_282:\n        /* \"#utility.yul\":5159:5276   */\n    tag_281:\n        /* \"#utility.yul\":5300:5380   */\n      tag_283\n        /* \"#utility.yul\":5372:5379   */\n      dup6\n        /* \"#utility.yul\":5363:5369   */\n      dup3\n        /* \"#utility.yul\":5352:5361   */\n      dup7\n        /* \"#utility.yul\":5348:5370   */\n      add\n        /* \"#utility.yul\":5300:5380   */\n      tag_166\n      jump\t// in\n    tag_283:\n        /* \"#utility.yul\":5290:5380   */\n      swap3\n      pop\n        /* \"#utility.yul\":5086:5390   */\n      pop\n        /* \"#utility.yul\":5429:5431   */\n      0x20\n        /* \"#utility.yul\":5455:5508   */\n      tag_284\n        /* \"#utility.yul\":5500:5507   */\n      dup6\n        /* \"#utility.yul\":5491:5497   */\n      dup3\n        /* \"#utility.yul\":5480:5489   */\n      dup7\n        /* \"#utility.yul\":5476:5498   */\n      add\n        /* \"#utility.yul\":5455:5508   */\n      tag_169\n      jump\t// in\n    tag_284:\n        /* \"#utility.yul\":5445:5508   */\n      swap2\n      pop\n        /* \"#utility.yul\":5400:5518   */\n      pop\n        /* \"#utility.yul\":4837:5525   */\n      swap3\n      pop\n      swap3\n      swap1\n      pop\n      jump\t// out\n        /* \"#utility.yul\":5531:5621   */\n    tag_170:\n        /* \"#utility.yul\":5565:5572   */\n      0x00\n        /* \"#utility.yul\":5608:5613   */\n      dup2\n        /* \"#utility.yul\":5601:5614   */\n      iszero\n        /* \"#utility.yul\":5594:5615   */\n      iszero\n        /* \"#utility.yul\":5583:5615   */\n      swap1\n      pop\n        /* \"#utility.yul\":5531:5621   */\n      swap2\n      swap1\n      pop\n      jump\t// out\n        /* \"#utility.yul\":5627:5736   */\n    tag_171:\n        /* \"#utility.yul\":5708:5729   */\n      tag_287\n        /* \"#utility.yul\":5723:5728   */\n      dup2\n        /* \"#utility.yul\":5708:5729   */\n      tag_170\n      jump\t// in\n    tag_287:\n        /* \"#utility.yul\":5703:5706   */\n      dup3\n        /* \"#utility.yul\":5696:5730   */\n      mstore\n        /* \"#utility.yul\":5627:5736   */\n      pop\n      pop\n      jump\t// out\n        /* \"#utility.yul\":5742:5952   */\n    tag_20:\n        /* \"#utility.yul\":5829:5833   */\n      0x00\n        /* \"#utility.yul\":5867:5869   */\n      0x20\n        /* \"#utility.yul\":5856:5865   */\n      dup3\n        /* \"#utility.yul\":5852:5870   */\n      add\n        /* \"#utility.yul\":5844:5870   */\n      swap1\n      pop\n        /* \"#utility.yul\":5880:5945   */\n      tag_289\n        /* \"#utility.yul\":5942:5943   */\n      0x00\n        /* \"#utility.yul\":5931:5940   */\n      dup4\n        /* \"#utility.yul\":5927:5944   */\n      add\n        /* \"#utility.yul\":5918:5924   */\n      dup5\n        /* \"#utility.yul\":5880:5945   */\n      tag_171\n      jump\t// in\n    tag_289:\n        /* \"#utility.yul\":5742:5952   */\n      swap3\n      swap2\n      pop\n      pop\n      jump\t// out\n        /* \"#utility.yul\":5958:6287   */\n    tag_23:\n        /* \"#utility.yul\":6017:6023   */\n      0x00\n        /* \"#utility.yul\":6066:6068   */\n      0x20\n        /* \"#utility.yul\":6054:6063   */\n      dup3\n        /* \"#utility.yul\":6045:6052   */\n      dup5\n        /* \"#utility.yul\":6041:6064   */\n      sub\n        /* \"#utility.yul\":6037:6069   */\n      slt\n        /* \"#utility.yul\":6034:6153   */\n      iszero\n      tag_291\n      jumpi\n        /* \"#utility.yul\":6072:6151   */\n      tag_292\n      tag_150\n      jump\t// in\n    tag_292:\n        /* \"#utility.yul\":6034:6153   */\n    tag_291:\n        /* \"#utility.yul\":6192:6193   */\n      0x00\n        /* \"#utility.yul\":6217:6270   */\n      tag_293\n        /* \"#utility.yul\":6262:6269   */\n      dup5\n        /* \"#utility.yul\":6253:6259   */\n      dup3\n        /* \"#utility.yul\":6242:6251   */\n      dup6\n        /* \"#utility.yul\":6238:6260   */\n      add\n        /* \"#utility.yul\":6217:6270   */\n      tag_169\n      jump\t// in\n    tag_293:\n        /* \"#utility.yul\":6207:6270   */\n      swap2\n      pop\n        /* \"#utility.yul\":6163:6280   */\n      pop\n        /* \"#utility.yul\":5958:6287   */\n      swap3\n      swap2\n      pop\n      pop\n      jump\t// out\n        /* \"#utility.yul\":6293:6434   */\n    tag_172:\n        /* \"#utility.yul\":6387:6393   */\n      0x00\n        /* \"#utility.yul\":6421:6426   */\n      dup2\n        /* \"#utility.yul\":6415:6427   */\n      mload\n        /* \"#utility.yul\":6405:6427   */\n      swap1\n      pop\n        /* \"#utility.yul\":6293:6434   */\n      swap2\n      swap1\n      pop\n      jump\t// out\n        /* \"#utility.yul\":6440:6651   */\n    tag_173:\n        /* \"#utility.yul\":6566:6577   */\n      0x00\n        /* \"#utility.yul\":6600:6606   */\n      dup3\n        /* \"#utility.yul\":6595:6598   */\n      dup3\n        /* \"#utility.yul\":6588:6607   */\n      mstore\n        /* \"#utility.yul\":6640:6644   */\n      0x20\n        /* \"#utility.yul\":6635:6638   */\n      dup3\n        /* \"#utility.yul\":6631:6645   */\n      add\n        /* \"#utility.yul\":6616:6645   */\n      swap1\n      pop\n        /* \"#utility.yul\":6440:6651   */\n      swap3\n      swap2\n      pop\n      pop\n      jump\t// out\n        /* \"#utility.yul\":6657:6816   */\n    tag_174:\n        /* \"#utility.yul\":6751:6755   */\n      0x00\n        /* \"#utility.yul\":6774:6777   */\n      dup2\n        /* \"#utility.yul\":6766:6777   */\n      swap1\n      pop\n        /* \"#utility.yul\":6804:6808   */\n      0x20\n        /* \"#utility.yul\":6799:6802   */\n      dup3\n        /* \"#utility.yul\":6795:6809   */\n      add\n        /* \"#utility.yul\":6787:6809   */\n      swap1\n      pop\n        /* \"#utility.yul\":6657:6816   */\n      swap2\n      swap1\n      pop\n      jump\t// out\n        /* \"#utility.yul\":6822:6930   */\n    tag_175:\n        /* \"#utility.yul\":6899:6923   */\n      tag_298\n        /* \"#utility.yul\":6917:6922   */\n      dup2\n        /* \"#utility.yul\":6899:6923   */\n      tag_158\n      jump\t// in\n    tag_298:\n        /* \"#utility.yul\":6894:6897   */\n      dup3\n        /* \"#utility.yul\":6887:6924   */\n      mstore\n        /* \"#utility.yul\":6822:6930   */\n      pop\n      pop\n      jump\t// out\n        /* \"#utility.yul\":6936:7050   */\n    tag_176:\n        /* \"#utility.yul\":7003:7009   */\n      0x00\n        /* \"#utility.yul\":7037:7042   */\n      dup2\n        /* \"#utility.yul\":7031:7043   */\n      mload\n        /* \"#utility.yul\":7021:7043   */\n      swap1\n      pop\n        /* \"#utility.yul\":6936:7050   */\n      swap2\n      swap1\n      pop\n      jump\t// out\n        /* \"#utility.yul\":7056:7230   */\n    tag_177:\n        /* \"#utility.yul\":7145:7156   */\n      0x00\n        /* \"#utility.yul\":7179:7185   */\n      dup3\n        /* \"#utility.yul\":7174:7177   */\n      dup3\n        /* \"#utility.yul\":7167:7186   */\n      mstore\n        /* \"#utility.yul\":7219:7223   */\n      0x20\n        /* \"#utility.yul\":7214:7217   */\n      dup3\n        /* \"#utility.yul\":7210:7224   */\n      add\n        /* \"#utility.yul\":7195:7224   */\n      swap1\n      pop\n        /* \"#utility.yul\":7056:7230   */\n      swap3\n      swap2\n      pop\n      pop\n      jump\t// out\n        /* \"#utility.yul\":7236:7368   */\n    tag_178:\n        /* \"#utility.yul\":7303:7307   */\n      0x00\n        /* \"#utility.yul\":7326:7329   */\n      dup2\n        /* \"#utility.yul\":7318:7329   */\n      swap1\n      pop\n        /* \"#utility.yul\":7356:7360   */\n      0x20\n        /* \"#utility.yul\":7351:7354   */\n      dup3\n        /* \"#utility.yul\":7347:7361   */\n      add\n        /* \"#utility.yul\":7339:7361   */\n      swap1\n      pop\n        /* \"#utility.yul\":7236:7368   */\n      swap2\n      swap1\n      pop\n      jump\t// out\n        /* \"#utility.yul\":7374:7553   */\n    tag_179:\n        /* \"#utility.yul\":7443:7453   */\n      0x00\n        /* \"#utility.yul\":7464:7510   */\n      tag_303\n        /* \"#utility.yul\":7506:7509   */\n      dup4\n        /* \"#utility.yul\":7498:7504   */\n      dup4\n        /* \"#utility.yul\":7464:7510   */\n      tag_175\n      jump\t// in\n    tag_303:\n        /* \"#utility.yul\":7542:7546   */\n      0x20\n        /* \"#utility.yul\":7537:7540   */\n      dup4\n        /* \"#utility.yul\":7533:7547   */\n      add\n        /* \"#utility.yul\":7519:7547   */\n      swap1\n      pop\n        /* \"#utility.yul\":7374:7553   */\n      swap3\n      swap2\n      pop\n      pop\n      jump\t// out\n        /* \"#utility.yul\":7559:7672   */\n    tag_180:\n        /* \"#utility.yul\":7629:7633   */\n      0x00\n        /* \"#utility.yul\":7661:7665   */\n      0x20\n        /* \"#utility.yul\":7656:7659   */\n      dup3\n        /* \"#utility.yul\":7652:7666   */\n      add\n        /* \"#utility.yul\":7644:7666   */\n      swap1\n      pop\n        /* \"#utility.yul\":7559:7672   */\n      swap2\n      swap1\n      pop\n      jump\t// out\n        /* \"#utility.yul\":7708:8420   */\n    tag_181:\n        /* \"#utility.yul\":7817:7820   */\n      0x00\n        /* \"#utility.yul\":7846:7900   */\n      tag_306\n        /* \"#utility.yul\":7894:7899   */\n      dup3\n        /* \"#utility.yul\":7846:7900   */\n      tag_176\n      jump\t// in\n    tag_306:\n        /* \"#utility.yul\":7916:7992   */\n      tag_307\n        /* \"#utility.yul\":7985:7991   */\n      dup2\n        /* \"#utility.yul\":7980:7983   */\n      dup6\n        /* \"#utility.yul\":7916:7992   */\n      tag_177\n      jump\t// in\n    tag_307:\n        /* \"#utility.yul\":7909:7992   */\n      swap4\n      pop\n        /* \"#utility.yul\":8016:8072   */\n      tag_308\n        /* \"#utility.yul\":8066:8071   */\n      dup4\n        /* \"#utility.yul\":8016:8072   */\n      tag_178\n      jump\t// in\n    tag_308:\n        /* \"#utility.yul\":8095:8102   */\n      dup1\n        /* \"#utility.yul\":8126:8127   */\n      0x00\n        /* \"#utility.yul\":8111:8395   */\n    tag_309:\n        /* \"#utility.yul\":8136:8142   */\n      dup4\n        /* \"#utility.yul\":8133:8134   */\n      dup2\n        /* \"#utility.yul\":8130:8143   */\n      lt\n        /* \"#utility.yul\":8111:8395   */\n      iszero\n      tag_311\n      jumpi\n        /* \"#utility.yul\":8212:8218   */\n      dup2\n        /* \"#utility.yul\":8206:8219   */\n      mload\n        /* \"#utility.yul\":8239:8302   */\n      tag_312\n        /* \"#utility.yul\":8298:8301   */\n      dup9\n        /* \"#utility.yul\":8283:8296   */\n      dup3\n        /* \"#utility.yul\":8239:8302   */\n      tag_179\n      jump\t// in\n    tag_312:\n        /* \"#utility.yul\":8232:8302   */\n      swap8\n      pop\n        /* \"#utility.yul\":8325:8385   */\n      tag_313\n        /* \"#utility.yul\":8378:8384   */\n      dup4\n        /* \"#utility.yul\":8325:8385   */\n      tag_180\n      jump\t// in\n    tag_313:\n        /* \"#utility.yul\":8315:8385   */\n      swap3\n      pop\n        /* \"#utility.yul\":8171:8395   */\n      pop\n        /* \"#utility.yul\":8158:8159   */\n      0x01\n        /* \"#utility.yul\":8155:8156   */\n      dup2\n        /* \"#utility.yul\":8151:8160   */\n      add\n        /* \"#utility.yul\":8146:8160   */\n      swap1\n      pop\n        /* \"#utility.yul\":8111:8395   */\n      jump(tag_309)\n    tag_311:\n        /* \"#utility.yul\":8115:8129   */\n      pop\n        /* \"#utility.yul\":8411:8414   */\n      dup6\n        /* \"#utility.yul\":8404:8414   */\n      swap4\n      pop\n        /* \"#utility.yul\":7822:8420   */\n      pop\n      pop\n      pop\n        /* \"#utility.yul\":7708:8420   */\n      swap3\n      swap2\n      pop\n      pop\n      jump\t// out\n        /* \"#utility.yul\":8472:9476   */\n    tag_182:\n        /* \"#utility.yul\":8585:8588   */\n      0x00\n        /* \"#utility.yul\":8621:8625   */\n      0x80\n        /* \"#utility.yul\":8616:8619   */\n      dup4\n        /* \"#utility.yul\":8612:8626   */\n      add\n        /* \"#utility.yul\":8716:8720   */\n      0x00\n        /* \"#utility.yul\":8709:8714   */\n      dup4\n        /* \"#utility.yul\":8705:8721   */\n      add\n        /* \"#utility.yul\":8699:8722   */\n      mload\n        /* \"#utility.yul\":8735:8798   */\n      tag_315\n        /* \"#utility.yul\":8792:8796   */\n      0x00\n        /* \"#utility.yul\":8787:8790   */\n      dup7\n        /* \"#utility.yul\":8783:8797   */\n      add\n        /* \"#utility.yul\":8769:8781   */\n      dup3\n        /* \"#utility.yul\":8735:8798   */\n      tag_175\n      jump\t// in\n    tag_315:\n        /* \"#utility.yul\":8636:8808   */\n      pop\n        /* \"#utility.yul\":8897:8901   */\n      0x20\n        /* \"#utility.yul\":8890:8895   */\n      dup4\n        /* \"#utility.yul\":8886:8902   */\n      add\n        /* \"#utility.yul\":8880:8903   */\n      mload\n        /* \"#utility.yul\":8916:8979   */\n      tag_316\n        /* \"#utility.yul\":8973:8977   */\n      0x20\n        /* \"#utility.yul\":8968:8971   */\n      dup7\n        /* \"#utility.yul\":8964:8978   */\n      add\n        /* \"#utility.yul\":8950:8962   */\n      dup3\n        /* \"#utility.yul\":8916:8979   */\n      tag_175\n      jump\t// in\n    tag_316:\n        /* \"#utility.yul\":8818:8989   */\n      pop\n        /* \"#utility.yul\":9075:9079   */\n      0x40\n        /* \"#utility.yul\":9068:9073   */\n      dup4\n        /* \"#utility.yul\":9064:9080   */\n      add\n        /* \"#utility.yul\":9058:9081   */\n      mload\n        /* \"#utility.yul\":9094:9157   */\n      tag_317\n        /* \"#utility.yul\":9151:9155   */\n      0x40\n        /* \"#utility.yul\":9146:9149   */\n      dup7\n        /* \"#utility.yul\":9142:9156   */\n      add\n        /* \"#utility.yul\":9128:9140   */\n      dup3\n        /* \"#utility.yul\":9094:9157   */\n      tag_175\n      jump\t// in\n    tag_317:\n        /* \"#utility.yul\":8999:9167   */\n      pop\n        /* \"#utility.yul\":9256:9260   */\n      0x60\n        /* \"#utility.yul\":9249:9254   */\n      dup4\n        /* \"#utility.yul\":9245:9261   */\n      add\n        /* \"#utility.yul\":9239:9262   */\n      mload\n        /* \"#utility.yul\":9309:9312   */\n      dup5\n        /* \"#utility.yul\":9303:9307   */\n      dup3\n        /* \"#utility.yul\":9299:9313   */\n      sub\n        /* \"#utility.yul\":9292:9296   */\n      0x60\n        /* \"#utility.yul\":9287:9290   */\n      dup7\n        /* \"#utility.yul\":9283:9297   */\n      add\n        /* \"#utility.yul\":9276:9314   */\n      mstore\n        /* \"#utility.yul\":9335:9438   */\n      tag_318\n        /* \"#utility.yul\":9433:9437   */\n      dup3\n        /* \"#utility.yul\":9419:9431   */\n      dup3\n        /* \"#utility.yul\":9335:9438   */\n      tag_181\n      jump\t// in\n    tag_318:\n        /* \"#utility.yul\":9327:9438   */\n      swap2\n      pop\n        /* \"#utility.yul\":9177:9449   */\n      pop\n        /* \"#utility.yul\":9466:9470   */\n      dup1\n        /* \"#utility.yul\":9459:9470   */\n      swap2\n      pop\n        /* \"#utility.yul\":8590:9476   */\n      pop\n        /* \"#utility.yul\":8472:9476   */\n      swap3\n      swap2\n      pop\n      pop\n      jump\t// out\n        /* \"#utility.yul\":9482:9746   */\n    tag_183:\n        /* \"#utility.yul\":9605:9615   */\n      0x00\n        /* \"#utility.yul\":9640:9740   */\n      tag_320\n        /* \"#utility.yul\":9736:9739   */\n      dup4\n        /* \"#utility.yul\":9728:9734   */\n      dup4\n        /* \"#utility.yul\":9640:9740   */\n      tag_182\n      jump\t// in\n    tag_320:\n        /* \"#utility.yul\":9626:9740   */\n      swap1\n      pop\n        /* \"#utility.yul\":9482:9746   */\n      swap3\n      swap2\n      pop\n      pop\n      jump\t// out\n        /* \"#utility.yul\":9752:9892   */\n    tag_184:\n        /* \"#utility.yul\":9849:9853   */\n      0x00\n        /* \"#utility.yul\":9881:9885   */\n      0x20\n        /* \"#utility.yul\":9876:9879   */\n      dup3\n        /* \"#utility.yul\":9872:9886   */\n      add\n        /* \"#utility.yul\":9864:9886   */\n      swap1\n      pop\n        /* \"#utility.yul\":9752:9892   */\n      swap2\n      swap1\n      pop\n      jump\t// out\n        /* \"#utility.yul\":9948:11075   */\n    tag_185:\n        /* \"#utility.yul\":10121:10124   */\n      0x00\n        /* \"#utility.yul\":10150:10231   */\n      tag_323\n        /* \"#utility.yul\":10225:10230   */\n      dup3\n        /* \"#utility.yul\":10150:10231   */\n      tag_172\n      jump\t// in\n    tag_323:\n        /* \"#utility.yul\":10247:10360   */\n      tag_324\n        /* \"#utility.yul\":10353:10359   */\n      dup2\n        /* \"#utility.yul\":10348:10351   */\n      dup6\n        /* \"#utility.yul\":10247:10360   */\n      tag_173\n      jump\t// in\n    tag_324:\n        /* \"#utility.yul\":10240:10360   */\n      swap4\n      pop\n        /* \"#utility.yul\":10386:10389   */\n      dup4\n        /* \"#utility.yul\":10431:10435   */\n      0x20\n        /* \"#utility.yul\":10423:10429   */\n      dup3\n        /* \"#utility.yul\":10419:10436   */\n      mul\n        /* \"#utility.yul\":10414:10417   */\n      dup6\n        /* \"#utility.yul\":10410:10437   */\n      add\n        /* \"#utility.yul\":10461:10544   */\n      tag_325\n        /* \"#utility.yul\":10538:10543   */\n      dup6\n        /* \"#utility.yul\":10461:10544   */\n      tag_174\n      jump\t// in\n    tag_325:\n        /* \"#utility.yul\":10567:10574   */\n      dup1\n        /* \"#utility.yul\":10598:10599   */\n      0x00\n        /* \"#utility.yul\":10583:11030   */\n    tag_326:\n        /* \"#utility.yul\":10608:10614   */\n      dup6\n        /* \"#utility.yul\":10605:10606   */\n      dup2\n        /* \"#utility.yul\":10602:10615   */\n      lt\n        /* \"#utility.yul\":10583:11030   */\n      iszero\n      tag_328\n      jumpi\n        /* \"#utility.yul\":10679:10688   */\n      dup5\n        /* \"#utility.yul\":10673:10677   */\n      dup5\n        /* \"#utility.yul\":10669:10689   */\n      sub\n        /* \"#utility.yul\":10664:10667   */\n      dup10\n        /* \"#utility.yul\":10657:10690   */\n      mstore\n        /* \"#utility.yul\":10730:10736   */\n      dup2\n        /* \"#utility.yul\":10724:10737   */\n      mload\n        /* \"#utility.yul\":10758:10876   */\n      tag_329\n        /* \"#utility.yul\":10871:10875   */\n      dup6\n        /* \"#utility.yul\":10856:10869   */\n      dup3\n        /* \"#utility.yul\":10758:10876   */\n      tag_183\n      jump\t// in\n    tag_329:\n        /* \"#utility.yul\":10750:10876   */\n      swap5\n      pop\n        /* \"#utility.yul\":10899:10986   */\n      tag_330\n        /* \"#utility.yul\":10979:10985   */\n      dup4\n        /* \"#utility.yul\":10899:10986   */\n      tag_184\n      jump\t// in\n    tag_330:\n        /* \"#utility.yul\":10889:10986   */\n      swap3\n      pop\n        /* \"#utility.yul\":11015:11019   */\n      0x20\n        /* \"#utility.yul\":11010:11013   */\n      dup11\n        /* \"#utility.yul\":11006:11020   */\n      add\n        /* \"#utility.yul\":10999:11020   */\n      swap10\n      pop\n        /* \"#utility.yul\":10643:11030   */\n      pop\n        /* \"#utility.yul\":10630:10631   */\n      0x01\n        /* \"#utility.yul\":10627:10628   */\n      dup2\n        /* \"#utility.yul\":10623:10632   */\n      add\n        /* \"#utility.yul\":10618:10632   */\n      swap1\n      pop\n        /* \"#utility.yul\":10583:11030   */\n      jump(tag_326)\n    tag_328:\n        /* \"#utility.yul\":10587:10601   */\n      pop\n        /* \"#utility.yul\":11046:11050   */\n      dup3\n        /* \"#utility.yul\":11039:11050   */\n      swap8\n      pop\n        /* \"#utility.yul\":11066:11069   */\n      dup8\n        /* \"#utility.yul\":11059:11069   */\n      swap6\n      pop\n        /* \"#utility.yul\":10126:11075   */\n      pop\n      pop\n      pop\n      pop\n      pop\n        /* \"#utility.yul\":9948:11075   */\n      swap3\n      swap2\n      pop\n      pop\n      jump\t// out\n        /* \"#utility.yul\":11081:11562   */\n    tag_26:\n        /* \"#utility.yul\":11278:11282   */\n      0x00\n        /* \"#utility.yul\":11316:11318   */\n      0x20\n        /* \"#utility.yul\":11305:11314   */\n      dup3\n        /* \"#utility.yul\":11301:11319   */\n      add\n        /* \"#utility.yul\":11293:11319   */\n      swap1\n      pop\n        /* \"#utility.yul\":11365:11374   */\n      dup2\n        /* \"#utility.yul\":11359:11363   */\n      dup2\n        /* \"#utility.yul\":11355:11375   */\n      sub\n        /* \"#utility.yul\":11351:11352   */\n      0x00\n        /* \"#utility.yul\":11340:11349   */\n      dup4\n        /* \"#utility.yul\":11336:11353   */\n      add\n        /* \"#utility.yul\":11329:11376   */\n      mstore\n        /* \"#utility.yul\":11393:11555   */\n      tag_332\n        /* \"#utility.yul\":11550:11554   */\n      dup2\n        /* \"#utility.yul\":11541:11547   */\n      dup5\n        /* \"#utility.yul\":11393:11555   */\n      tag_185\n      jump\t// in\n    tag_332:\n        /* \"#utility.yul\":11385:11555   */\n      swap1\n      pop\n        /* \"#utility.yul\":11081:11562   */\n      swap3\n      swap2\n      pop\n      pop\n      jump\t// out\n        /* \"#utility.yul\":11568:11711   */\n    tag_186:\n        /* \"#utility.yul\":11664:11670   */\n      0x00\n        /* \"#utility.yul\":11698:11703   */\n      dup2\n        /* \"#utility.yul\":11692:11704   */\n      mload\n        /* \"#utility.yul\":11682:11704   */\n      swap1\n      pop\n        /* \"#utility.yul\":11568:11711   */\n      swap2\n      swap1\n      pop\n      jump\t// out\n        /* \"#utility.yul\":11717:11930   */\n    tag_187:\n        /* \"#utility.yul\":11845:11856   */\n      0x00\n        /* \"#utility.yul\":11879:11885   */\n      dup3\n        /* \"#utility.yul\":11874:11877   */\n      dup3\n        /* \"#utility.yul\":11867:11886   */\n      mstore\n        /* \"#utility.yul\":11919:11923   */\n      0x20\n        /* \"#utility.yul\":11914:11917   */\n      dup3\n        /* \"#utility.yul\":11910:11924   */\n      add\n        /* \"#utility.yul\":11895:11924   */\n      swap1\n      pop\n        /* \"#utility.yul\":11717:11930   */\n      swap3\n      swap2\n      pop\n      pop\n      jump\t// out\n        /* \"#utility.yul\":11936:12097   */\n    tag_188:\n        /* \"#utility.yul\":12032:12036   */\n      0x00\n        /* \"#utility.yul\":12055:12058   */\n      dup2\n        /* \"#utility.yul\":12047:12058   */\n      swap1\n      pop\n        /* \"#utility.yul\":12085:12089   */\n      0x20\n        /* \"#utility.yul\":12080:12083   */\n      dup3\n        /* \"#utility.yul\":12076:12090   */\n      add\n        /* \"#utility.yul\":12068:12090   */\n      swap1\n      pop\n        /* \"#utility.yul\":11936:12097   */\n      swap2\n      swap1\n      pop\n      jump\t// out\n        /* \"#utility.yul\":12153:13199   */\n    tag_189:\n        /* \"#utility.yul\":12298:12302   */\n      0xa0\n        /* \"#utility.yul\":12293:12296   */\n      dup3\n        /* \"#utility.yul\":12289:12303   */\n      add\n        /* \"#utility.yul\":12388:12392   */\n      0x00\n        /* \"#utility.yul\":12381:12386   */\n      dup3\n        /* \"#utility.yul\":12377:12393   */\n      add\n        /* \"#utility.yul\":12371:12394   */\n      mload\n        /* \"#utility.yul\":12407:12470   */\n      tag_337\n        /* \"#utility.yul\":12464:12468   */\n      0x00\n        /* \"#utility.yul\":12459:12462   */\n      dup6\n        /* \"#utility.yul\":12455:12469   */\n      add\n        /* \"#utility.yul\":12441:12453   */\n      dup3\n        /* \"#utility.yul\":12407:12470   */\n      tag_175\n      jump\t// in\n    tag_337:\n        /* \"#utility.yul\":12313:12480   */\n      pop\n        /* \"#utility.yul\":12570:12574   */\n      0x20\n        /* \"#utility.yul\":12563:12568   */\n      dup3\n        /* \"#utility.yul\":12559:12575   */\n      add\n        /* \"#utility.yul\":12553:12576   */\n      mload\n        /* \"#utility.yul\":12589:12652   */\n      tag_338\n        /* \"#utility.yul\":12646:12650   */\n      0x20\n        /* \"#utility.yul\":12641:12644   */\n      dup6\n        /* \"#utility.yul\":12637:12651   */\n      add\n        /* \"#utility.yul\":12623:12635   */\n      dup3\n        /* \"#utility.yul\":12589:12652   */\n      tag_175\n      jump\t// in\n    tag_338:\n        /* \"#utility.yul\":12490:12662   */\n      pop\n        /* \"#utility.yul\":12748:12752   */\n      0x40\n        /* \"#utility.yul\":12741:12746   */\n      dup3\n        /* \"#utility.yul\":12737:12753   */\n      add\n        /* \"#utility.yul\":12731:12754   */\n      mload\n        /* \"#utility.yul\":12767:12830   */\n      tag_339\n        /* \"#utility.yul\":12824:12828   */\n      0x40\n        /* \"#utility.yul\":12819:12822   */\n      dup6\n        /* \"#utility.yul\":12815:12829   */\n      add\n        /* \"#utility.yul\":12801:12813   */\n      dup3\n        /* \"#utility.yul\":12767:12830   */\n      tag_175\n      jump\t// in\n    tag_339:\n        /* \"#utility.yul\":12672:12840   */\n      pop\n        /* \"#utility.yul\":12922:12926   */\n      0x60\n        /* \"#utility.yul\":12915:12920   */\n      dup3\n        /* \"#utility.yul\":12911:12927   */\n      add\n        /* \"#utility.yul\":12905:12928   */\n      mload\n        /* \"#utility.yul\":12941:13004   */\n      tag_340\n        /* \"#utility.yul\":12998:13002   */\n      0x60\n        /* \"#utility.yul\":12993:12996   */\n      dup6\n        /* \"#utility.yul\":12989:13003   */\n      add\n        /* \"#utility.yul\":12975:12987   */\n      dup3\n        /* \"#utility.yul\":12941:13004   */\n      tag_175\n      jump\t// in\n    tag_340:\n        /* \"#utility.yul\":12850:13014   */\n      pop\n        /* \"#utility.yul\":13100:13104   */\n      0x80\n        /* \"#utility.yul\":13093:13098   */\n      dup3\n        /* \"#utility.yul\":13089:13105   */\n      add\n        /* \"#utility.yul\":13083:13106   */\n      mload\n        /* \"#utility.yul\":13119:13182   */\n      tag_341\n        /* \"#utility.yul\":13176:13180   */\n      0x80\n        /* \"#utility.yul\":13171:13174   */\n      dup6\n        /* \"#utility.yul\":13167:13181   */\n      add\n        /* \"#utility.yul\":13153:13165   */\n      dup3\n        /* \"#utility.yul\":13119:13182   */\n      tag_175\n      jump\t// in\n    tag_341:\n        /* \"#utility.yul\":13024:13192   */\n      pop\n        /* \"#utility.yul\":12267:13199   */\n      pop\n        /* \"#utility.yul\":12153:13199   */\n      pop\n      pop\n      jump\t// out\n        /* \"#utility.yul\":13205:13500   */\n    tag_190:\n        /* \"#utility.yul\":13332:13342   */\n      0x00\n        /* \"#utility.yul\":13353:13457   */\n      tag_343\n        /* \"#utility.yul\":13453:13456   */\n      dup4\n        /* \"#utility.yul\":13445:13451   */\n      dup4\n        /* \"#utility.yul\":13353:13457   */\n      tag_189\n      jump\t// in\n    tag_343:\n        /* \"#utility.yul\":13489:13493   */\n      0xa0\n        /* \"#utility.yul\":13484:13487   */\n      dup4\n        /* \"#utility.yul\":13480:13494   */\n      add\n        /* \"#utility.yul\":13466:13494   */\n      swap1\n      pop\n        /* \"#utility.yul\":13205:13500   */\n      swap3\n      swap2\n      pop\n      pop\n      jump\t// out\n        /* \"#utility.yul\":13506:13648   */\n    tag_191:\n        /* \"#utility.yul\":13605:13609   */\n      0x00\n        /* \"#utility.yul\":13637:13641   */\n      0x20\n        /* \"#utility.yul\":13632:13635   */\n      dup3\n        /* \"#utility.yul\":13628:13642   */\n      add\n        /* \"#utility.yul\":13620:13642   */\n      swap1\n      pop\n        /* \"#utility.yul\":13506:13648   */\n      swap2\n      swap1\n      pop\n      jump\t// out\n        /* \"#utility.yul\":13708:14672   */\n    tag_192:\n        /* \"#utility.yul\":13885:13888   */\n      0x00\n        /* \"#utility.yul\":13914:13997   */\n      tag_346\n        /* \"#utility.yul\":13991:13996   */\n      dup3\n        /* \"#utility.yul\":13914:13997   */\n      tag_186\n      jump\t// in\n    tag_346:\n        /* \"#utility.yul\":14013:14128   */\n      tag_347\n        /* \"#utility.yul\":14121:14127   */\n      dup2\n        /* \"#utility.yul\":14116:14119   */\n      dup6\n        /* \"#utility.yul\":14013:14128   */\n      tag_187\n      jump\t// in\n    tag_347:\n        /* \"#utility.yul\":14006:14128   */\n      swap4\n      pop\n        /* \"#utility.yul\":14152:14237   */\n      tag_348\n        /* \"#utility.yul\":14231:14236   */\n      dup4\n        /* \"#utility.yul\":14152:14237   */\n      tag_188\n      jump\t// in\n    tag_348:\n        /* \"#utility.yul\":14260:14267   */\n      dup1\n        /* \"#utility.yul\":14291:14292   */\n      0x00\n        /* \"#utility.yul\":14276:14647   */\n    tag_349:\n        /* \"#utility.yul\":14301:14307   */\n      dup4\n        /* \"#utility.yul\":14298:14299   */\n      dup2\n        /* \"#utility.yul\":14295:14308   */\n      lt\n        /* \"#utility.yul\":14276:14647   */\n      iszero\n      tag_351\n      jumpi\n        /* \"#utility.yul\":14377:14383   */\n      dup2\n        /* \"#utility.yul\":14371:14384   */\n      mload\n        /* \"#utility.yul\":14404:14525   */\n      tag_352\n        /* \"#utility.yul\":14521:14524   */\n      dup9\n        /* \"#utility.yul\":14506:14519   */\n      dup3\n        /* \"#utility.yul\":14404:14525   */\n      tag_190\n      jump\t// in\n    tag_352:\n        /* \"#utility.yul\":14397:14525   */\n      swap8\n      pop\n        /* \"#utility.yul\":14548:14637   */\n      tag_353\n        /* \"#utility.yul\":14630:14636   */\n      dup4\n        /* \"#utility.yul\":14548:14637   */\n      tag_191\n      jump\t// in\n    tag_353:\n        /* \"#utility.yul\":14538:14637   */\n      swap3\n      pop\n        /* \"#utility.yul\":14336:14647   */\n      pop\n        /* \"#utility.yul\":14323:14324   */\n      0x01\n        /* \"#utility.yul\":14320:14321   */\n      dup2\n        /* \"#utility.yul\":14316:14325   */\n      add\n        /* \"#utility.yul\":14311:14325   */\n      swap1\n      pop\n        /* \"#utility.yul\":14276:14647   */\n      jump(tag_349)\n    tag_351:\n        /* \"#utility.yul\":14280:14294   */\n      pop\n        /* \"#utility.yul\":14663:14666   */\n      dup6\n        /* \"#utility.yul\":14656:14666   */\n      swap4\n      pop\n        /* \"#utility.yul\":13890:14672   */\n      pop\n      pop\n      pop\n        /* \"#utility.yul\":13708:14672   */\n      swap3\n      swap2\n      pop\n      pop\n      jump\t// out\n        /* \"#utility.yul\":14678:15167   */\n    tag_31:\n        /* \"#utility.yul\":14879:14883   */\n      0x00\n        /* \"#utility.yul\":14917:14919   */\n      0x20\n        /* \"#utility.yul\":14906:14915   */\n      dup3\n        /* \"#utility.yul\":14902:14920   */\n      add\n        /* \"#utility.yul\":14894:14920   */\n      swap1\n      pop\n        /* \"#utility.yul\":14966:14975   */\n      dup2\n        /* \"#utility.yul\":14960:14964   */\n      dup2\n        /* \"#utility.yul\":14956:14976   */\n      sub\n        /* \"#utility.yul\":14952:14953   */\n      0x00\n        /* \"#utility.yul\":14941:14950   */\n      dup4\n        /* \"#utility.yul\":14937:14954   */\n      add\n        /* \"#utility.yul\":14930:14977   */\n      mstore\n        /* \"#utility.yul\":14994:15160   */\n      tag_355\n        /* \"#utility.yul\":15155:15159   */\n      dup2\n        /* \"#utility.yul\":15146:15152   */\n      dup5\n        /* \"#utility.yul\":14994:15160   */\n      tag_192\n      jump\t// in\n    tag_355:\n        /* \"#utility.yul\":14986:15160   */\n      swap1\n      pop\n        /* \"#utility.yul\":14678:15167   */\n      swap3\n      swap2\n      pop\n      pop\n      jump\t// out\n        /* \"#utility.yul\":15173:15316   */\n    tag_193:\n        /* \"#utility.yul\":15269:15275   */\n      0x00\n        /* \"#utility.yul\":15303:15308   */\n      dup2\n        /* \"#utility.yul\":15297:15309   */\n      mload\n        /* \"#utility.yul\":15287:15309   */\n      swap1\n      pop\n        /* \"#utility.yul\":15173:15316   */\n      swap2\n      swap1\n      pop\n      jump\t// out\n        /* \"#utility.yul\":15322:15535   */\n    tag_194:\n        /* \"#utility.yul\":15450:15461   */\n      0x00\n        /* \"#utility.yul\":15484:15490   */\n      dup3\n        /* \"#utility.yul\":15479:15482   */\n      dup3\n        /* \"#utility.yul\":15472:15491   */\n      mstore\n        /* \"#utility.yul\":15524:15528   */\n      0x20\n        /* \"#utility.yul\":15519:15522   */\n      dup3\n        /* \"#utility.yul\":15515:15529   */\n      add\n        /* \"#utility.yul\":15500:15529   */\n      swap1\n      pop\n        /* \"#utility.yul\":15322:15535   */\n      swap3\n      swap2\n      pop\n      pop\n      jump\t// out\n        /* \"#utility.yul\":15541:15702   */\n    tag_195:\n        /* \"#utility.yul\":15637:15641   */\n      0x00\n        /* \"#utility.yul\":15660:15663   */\n      dup2\n        /* \"#utility.yul\":15652:15663   */\n      swap1\n      pop\n        /* \"#utility.yul\":15690:15694   */\n      0x20\n        /* \"#utility.yul\":15685:15688   */\n      dup3\n        /* \"#utility.yul\":15681:15695   */\n      add\n        /* \"#utility.yul\":15673:15695   */\n      swap1\n      pop\n        /* \"#utility.yul\":15541:15702   */\n      swap2\n      swap1\n      pop\n      jump\t// out\n        /* \"#utility.yul\":15758:17113   */\n    tag_196:\n        /* \"#utility.yul\":15875:15878   */\n      0x00\n        /* \"#utility.yul\":15911:15915   */\n      0xc0\n        /* \"#utility.yul\":15906:15909   */\n      dup4\n        /* \"#utility.yul\":15902:15916   */\n      add\n        /* \"#utility.yul\":16001:16005   */\n      0x00\n        /* \"#utility.yul\":15994:15999   */\n      dup4\n        /* \"#utility.yul\":15990:16006   */\n      add\n        /* \"#utility.yul\":15984:16007   */\n      mload\n        /* \"#utility.yul\":16020:16083   */\n      tag_360\n        /* \"#utility.yul\":16077:16081   */\n      0x00\n        /* \"#utility.yul\":16072:16075   */\n      dup7\n        /* \"#utility.yul\":16068:16082   */\n      add\n        /* \"#utility.yul\":16054:16066   */\n      dup3\n        /* \"#utility.yul\":16020:16083   */\n      tag_175\n      jump\t// in\n    tag_360:\n        /* \"#utility.yul\":15926:16093   */\n      pop\n        /* \"#utility.yul\":16182:16186   */\n      0x20\n        /* \"#utility.yul\":16175:16180   */\n      dup4\n        /* \"#utility.yul\":16171:16187   */\n      add\n        /* \"#utility.yul\":16165:16188   */\n      mload\n        /* \"#utility.yul\":16201:16264   */\n      tag_361\n        /* \"#utility.yul\":16258:16262   */\n      0x20\n        /* \"#utility.yul\":16253:16256   */\n      dup7\n        /* \"#utility.yul\":16249:16263   */\n      add\n        /* \"#utility.yul\":16235:16247   */\n      dup3\n        /* \"#utility.yul\":16201:16264   */\n      tag_175\n      jump\t// in\n    tag_361:\n        /* \"#utility.yul\":16103:16274   */\n      pop\n        /* \"#utility.yul\":16363:16367   */\n      0x40\n        /* \"#utility.yul\":16356:16361   */\n      dup4\n        /* \"#utility.yul\":16352:16368   */\n      add\n        /* \"#utility.yul\":16346:16369   */\n      mload\n        /* \"#utility.yul\":16416:16419   */\n      dup5\n        /* \"#utility.yul\":16410:16414   */\n      dup3\n        /* \"#utility.yul\":16406:16420   */\n      sub\n        /* \"#utility.yul\":16399:16403   */\n      0x40\n        /* \"#utility.yul\":16394:16397   */\n      dup7\n        /* \"#utility.yul\":16390:16404   */\n      add\n        /* \"#utility.yul\":16383:16421   */\n      mstore\n        /* \"#utility.yul\":16442:16545   */\n      tag_362\n        /* \"#utility.yul\":16540:16544   */\n      dup3\n        /* \"#utility.yul\":16526:16538   */\n      dup3\n        /* \"#utility.yul\":16442:16545   */\n      tag_181\n      jump\t// in\n    tag_362:\n        /* \"#utility.yul\":16434:16545   */\n      swap2\n      pop\n        /* \"#utility.yul\":16284:16556   */\n      pop\n        /* \"#utility.yul\":16642:16646   */\n      0x60\n        /* \"#utility.yul\":16635:16640   */\n      dup4\n        /* \"#utility.yul\":16631:16647   */\n      add\n        /* \"#utility.yul\":16625:16648   */\n      mload\n        /* \"#utility.yul\":16661:16724   */\n      tag_363\n        /* \"#utility.yul\":16718:16722   */\n      0x60\n        /* \"#utility.yul\":16713:16716   */\n      dup7\n        /* \"#utility.yul\":16709:16723   */\n      add\n        /* \"#utility.yul\":16695:16707   */\n      dup3\n        /* \"#utility.yul\":16661:16724   */\n      tag_175\n      jump\t// in\n    tag_363:\n        /* \"#utility.yul\":16566:16734   */\n      pop\n        /* \"#utility.yul\":16816:16820   */\n      0x80\n        /* \"#utility.yul\":16809:16814   */\n      dup4\n        /* \"#utility.yul\":16805:16821   */\n      add\n        /* \"#utility.yul\":16799:16822   */\n      mload\n        /* \"#utility.yul\":16835:16898   */\n      tag_364\n        /* \"#utility.yul\":16892:16896   */\n      0x80\n        /* \"#utility.yul\":16887:16890   */\n      dup7\n        /* \"#utility.yul\":16883:16897   */\n      add\n        /* \"#utility.yul\":16869:16881   */\n      dup3\n        /* \"#utility.yul\":16835:16898   */\n      tag_175\n      jump\t// in\n    tag_364:\n        /* \"#utility.yul\":16744:16908   */\n      pop\n        /* \"#utility.yul\":16994:16998   */\n      0xa0\n        /* \"#utility.yul\":16987:16992   */\n      dup4\n        /* \"#utility.yul\":16983:16999   */\n      add\n        /* \"#utility.yul\":16977:17000   */\n      mload\n        /* \"#utility.yul\":17013:17076   */\n      tag_365\n        /* \"#utility.yul\":17070:17074   */\n      0xa0\n        /* \"#utility.yul\":17065:17068   */\n      dup7\n        /* \"#utility.yul\":17061:17075   */\n      add\n        /* \"#utility.yul\":17047:17059   */\n      dup3\n        /* \"#utility.yul\":17013:17076   */\n      tag_175\n      jump\t// in\n    tag_365:\n        /* \"#utility.yul\":16918:17086   */\n      pop\n        /* \"#utility.yul\":17103:17107   */\n      dup1\n        /* \"#utility.yul\":17096:17107   */\n      swap2\n      pop\n        /* \"#utility.yul\":15880:17113   */\n      pop\n        /* \"#utility.yul\":15758:17113   */\n      swap3\n      swap2\n      pop\n      pop\n      jump\t// out\n        /* \"#utility.yul\":17119:17391   */\n    tag_197:\n        /* \"#utility.yul\":17246:17256   */\n      0x00\n        /* \"#utility.yul\":17281:17385   */\n      tag_367\n        /* \"#utility.yul\":17381:17384   */\n      dup4\n        /* \"#utility.yul\":17373:17379   */\n      dup4\n        /* \"#utility.yul\":17281:17385   */\n      tag_196\n      jump\t// in\n    tag_367:\n        /* \"#utility.yul\":17267:17385   */\n      swap1\n      pop\n        /* \"#utility.yul\":17119:17391   */\n      swap3\n      swap2\n      pop\n      pop\n      jump\t// out\n        /* \"#utility.yul\":17397:17539   */\n    tag_198:\n        /* \"#utility.yul\":17496:17500   */\n      0x00\n        /* \"#utility.yul\":17528:17532   */\n      0x20\n        /* \"#utility.yul\":17523:17526   */\n      dup3\n        /* \"#utility.yul\":17519:17533   */\n      add\n        /* \"#utility.yul\":17511:17533   */\n      swap1\n      pop\n        /* \"#utility.yul\":17397:17539   */\n      swap2\n      swap1\n      pop\n      jump\t// out\n        /* \"#utility.yul\":17599:18742   */\n    tag_199:\n        /* \"#utility.yul\":17776:17779   */\n      0x00\n        /* \"#utility.yul\":17805:17888   */\n      tag_370\n        /* \"#utility.yul\":17882:17887   */\n      dup3\n        /* \"#utility.yul\":17805:17888   */\n      tag_193\n      jump\t// in\n    tag_370:\n        /* \"#utility.yul\":17904:18019   */\n      tag_371\n        /* \"#utility.yul\":18012:18018   */\n      dup2\n        /* \"#utility.yul\":18007:18010   */\n      dup6\n        /* \"#utility.yul\":17904:18019   */\n      tag_194\n      jump\t// in\n    tag_371:\n        /* \"#utility.yul\":17897:18019   */\n      swap4\n      pop\n        /* \"#utility.yul\":18045:18048   */\n      dup4\n        /* \"#utility.yul\":18090:18094   */\n      0x20\n        /* \"#utility.yul\":18082:18088   */\n      dup3\n        /* \"#utility.yul\":18078:18095   */\n      mul\n        /* \"#utility.yul\":18073:18076   */\n      dup6\n        /* \"#utility.yul\":18069:18096   */\n      add\n        /* \"#utility.yul\":18120:18205   */\n      tag_372\n        /* \"#utility.yul\":18199:18204   */\n      dup6\n        /* \"#utility.yul\":18120:18205   */\n      tag_195\n      jump\t// in\n    tag_372:\n        /* \"#utility.yul\":18228:18235   */\n      dup1\n        /* \"#utility.yul\":18259:18260   */\n      0x00\n        /* \"#utility.yul\":18244:18697   */\n    tag_373:\n        /* \"#utility.yul\":18269:18275   */\n      dup6\n        /* \"#utility.yul\":18266:18267   */\n      dup2\n        /* \"#utility.yul\":18263:18276   */\n      lt\n        /* \"#utility.yul\":18244:18697   */\n      iszero\n      tag_375\n      jumpi\n        /* \"#utility.yul\":18340:18349   */\n      dup5\n        /* \"#utility.yul\":18334:18338   */\n      dup5\n        /* \"#utility.yul\":18330:18350   */\n      sub\n        /* \"#utility.yul\":18325:18328   */\n      dup10\n        /* \"#utility.yul\":18318:18351   */\n      mstore\n        /* \"#utility.yul\":18391:18397   */\n      dup2\n        /* \"#utility.yul\":18385:18398   */\n      mload\n        /* \"#utility.yul\":18419:18541   */\n      tag_376\n        /* \"#utility.yul\":18536:18540   */\n      dup6\n        /* \"#utility.yul\":18521:18534   */\n      dup3\n        /* \"#utility.yul\":18419:18541   */\n      tag_197\n      jump\t// in\n    tag_376:\n        /* \"#utility.yul\":18411:18541   */\n      swap5\n      pop\n        /* \"#utility.yul\":18564:18653   */\n      tag_377\n        /* \"#utility.yul\":18646:18652   */\n      dup4\n        /* \"#utility.yul\":18564:18653   */\n      tag_198\n      jump\t// in\n    tag_377:\n        /* \"#utility.yul\":18554:18653   */\n      swap3\n      pop\n        /* \"#utility.yul\":18682:18686   */\n      0x20\n        /* \"#utility.yul\":18677:18680   */\n      dup11\n        /* \"#utility.yul\":18673:18687   */\n      add\n        /* \"#utility.yul\":18666:18687   */\n      swap10\n      pop\n        /* \"#utility.yul\":18304:18697   */\n      pop\n        /* \"#utility.yul\":18291:18292   */\n      0x01\n        /* \"#utility.yul\":18288:18289   */\n      dup2\n        /* \"#utility.yul\":18284:18293   */\n      add\n        /* \"#utility.yul\":18279:18293   */\n      swap1\n      pop\n        /* \"#utility.yul\":18244:18697   */\n      jump(tag_373)\n    tag_375:\n        /* \"#utility.yul\":18248:18262   */\n      pop\n        /* \"#utility.yul\":18713:18717   */\n      dup3\n        /* \"#utility.yul\":18706:18717   */\n      swap8\n      pop\n        /* \"#utility.yul\":18733:18736   */\n      dup8\n        /* \"#utility.yul\":18726:18736   */\n      swap6\n      pop\n        /* \"#utility.yul\":17781:18742   */\n      pop\n      pop\n      pop\n      pop\n      pop\n        /* \"#utility.yul\":17599:18742   */\n      swap3\n      swap2\n      pop\n      pop\n      jump\t// out\n        /* \"#utility.yul\":18748:19237   */\n    tag_36:\n        /* \"#utility.yul\":18949:18953   */\n      0x00\n        /* \"#utility.yul\":18987:18989   */\n      0x20\n        /* \"#utility.yul\":18976:18985   */\n      dup3\n        /* \"#utility.yul\":18972:18990   */\n      add\n        /* \"#utility.yul\":18964:18990   */\n      swap1\n      pop\n        /* \"#utility.yul\":19036:19045   */\n      dup2\n        /* \"#utility.yul\":19030:19034   */\n      dup2\n        /* \"#utility.yul\":19026:19046   */\n      sub\n        /* \"#utility.yul\":19022:19023   */\n      0x00\n        /* \"#utility.yul\":19011:19020   */\n      dup4\n        /* \"#utility.yul\":19007:19024   */\n      add\n        /* \"#utility.yul\":19000:19047   */\n      mstore\n        /* \"#utility.yul\":19064:19230   */\n      tag_379\n        /* \"#utility.yul\":19225:19229   */\n      dup2\n        /* \"#utility.yul\":19216:19222   */\n      dup5\n        /* \"#utility.yul\":19064:19230   */\n      tag_199\n      jump\t// in\n    tag_379:\n        /* \"#utility.yul\":19056:19230   */\n      swap1\n      pop\n        /* \"#utility.yul\":18748:19237   */\n      swap3\n      swap2\n      pop\n      pop\n      jump\t// out\n        /* \"#utility.yul\":19243:19383   */\n    tag_200:\n        /* \"#utility.yul\":19336:19342   */\n      0x00\n        /* \"#utility.yul\":19370:19375   */\n      dup2\n        /* \"#utility.yul\":19364:19376   */\n      mload\n        /* \"#utility.yul\":19354:19376   */\n      swap1\n      pop\n        /* \"#utility.yul\":19243:19383   */\n      swap2\n      swap1\n      pop\n      jump\t// out\n        /* \"#utility.yul\":19389:19599   */\n    tag_201:\n        /* \"#utility.yul\":19514:19525   */\n      0x00\n        /* \"#utility.yul\":19548:19554   */\n      dup3\n        /* \"#utility.yul\":19543:19546   */\n      dup3\n        /* \"#utility.yul\":19536:19555   */\n      mstore\n        /* \"#utility.yul\":19588:19592   */\n      0x20\n        /* \"#utility.yul\":19583:19586   */\n      dup3\n        /* \"#utility.yul\":19579:19593   */\n      add\n        /* \"#utility.yul\":19564:19593   */\n      swap1\n      pop\n        /* \"#utility.yul\":19389:19599   */\n      swap3\n      swap2\n      pop\n      pop\n      jump\t// out\n        /* \"#utility.yul\":19605:19763   */\n    tag_202:\n        /* \"#utility.yul\":19698:19702   */\n      0x00\n        /* \"#utility.yul\":19721:19724   */\n      dup2\n        /* \"#utility.yul\":19713:19724   */\n      swap1\n      pop\n        /* \"#utility.yul\":19751:19755   */\n      0x20\n        /* \"#utility.yul\":19746:19749   */\n      dup3\n        /* \"#utility.yul\":19742:19756   */\n      add\n        /* \"#utility.yul\":19734:19756   */\n      swap1\n      pop\n        /* \"#utility.yul\":19605:19763   */\n      swap2\n      swap1\n      pop\n      jump\t// out\n        /* \"#utility.yul\":19769:19895   */\n    tag_203:\n        /* \"#utility.yul\":19806:19813   */\n      0x00\n        /* \"#utility.yul\":19846:19888   */\n      0xffffffffffffffffffffffffffffffffffffffff\n        /* \"#utility.yul\":19839:19844   */\n      dup3\n        /* \"#utility.yul\":19835:19889   */\n      and\n        /* \"#utility.yul\":19824:19889   */\n      swap1\n      pop\n        /* \"#utility.yul\":19769:19895   */\n      swap2\n      swap1\n      pop\n      jump\t// out\n        /* \"#utility.yul\":19901:19997   */\n    tag_204:\n        /* \"#utility.yul\":19938:19945   */\n      0x00\n        /* \"#utility.yul\":19967:19991   */\n      tag_385\n        /* \"#utility.yul\":19985:19990   */\n      dup3\n        /* \"#utility.yul\":19967:19991   */\n      tag_203\n      jump\t// in\n    tag_385:\n        /* \"#utility.yul\":19956:19991   */\n      swap1\n      pop\n        /* \"#utility.yul\":19901:19997   */\n      swap2\n      swap1\n      pop\n      jump\t// out\n        /* \"#utility.yul\":20003:20111   */\n    tag_205:\n        /* \"#utility.yul\":20080:20104   */\n      tag_387\n        /* \"#utility.yul\":20098:20103   */\n      dup2\n        /* \"#utility.yul\":20080:20104   */\n      tag_204\n      jump\t// in\n    tag_387:\n        /* \"#utility.yul\":20075:20078   */\n      dup3\n        /* \"#utility.yul\":20068:20105   */\n      mstore\n        /* \"#utility.yul\":20003:20111   */\n      pop\n      pop\n      jump\t// out\n        /* \"#utility.yul\":20161:20857   */\n    tag_206:\n        /* \"#utility.yul\":20300:20304   */\n      0x60\n        /* \"#utility.yul\":20295:20298   */\n      dup3\n        /* \"#utility.yul\":20291:20305   */\n      add\n        /* \"#utility.yul\":20394:20398   */\n      0x00\n        /* \"#utility.yul\":20387:20392   */\n      dup3\n        /* \"#utility.yul\":20383:20399   */\n      add\n        /* \"#utility.yul\":20377:20400   */\n      mload\n        /* \"#utility.yul\":20413:20476   */\n      tag_389\n        /* \"#utility.yul\":20470:20474   */\n      0x00\n        /* \"#utility.yul\":20465:20468   */\n      dup6\n        /* \"#utility.yul\":20461:20475   */\n      add\n        /* \"#utility.yul\":20447:20459   */\n      dup3\n        /* \"#utility.yul\":20413:20476   */\n      tag_175\n      jump\t// in\n    tag_389:\n        /* \"#utility.yul\":20315:20486   */\n      pop\n        /* \"#utility.yul\":20580:20584   */\n      0x20\n        /* \"#utility.yul\":20573:20578   */\n      dup3\n        /* \"#utility.yul\":20569:20585   */\n      add\n        /* \"#utility.yul\":20563:20586   */\n      mload\n        /* \"#utility.yul\":20599:20662   */\n      tag_390\n        /* \"#utility.yul\":20656:20660   */\n      0x20\n        /* \"#utility.yul\":20651:20654   */\n      dup6\n        /* \"#utility.yul\":20647:20661   */\n      add\n        /* \"#utility.yul\":20633:20645   */\n      dup3\n        /* \"#utility.yul\":20599:20662   */\n      tag_205\n      jump\t// in\n    tag_390:\n        /* \"#utility.yul\":20496:20672   */\n      pop\n        /* \"#utility.yul\":20758:20762   */\n      0x40\n        /* \"#utility.yul\":20751:20756   */\n      dup3\n        /* \"#utility.yul\":20747:20763   */\n      add\n        /* \"#utility.yul\":20741:20764   */\n      mload\n        /* \"#utility.yul\":20777:20840   */\n      tag_391\n        /* \"#utility.yul\":20834:20838   */\n      0x40\n        /* \"#utility.yul\":20829:20832   */\n      dup6\n        /* \"#utility.yul\":20825:20839   */\n      add\n        /* \"#utility.yul\":20811:20823   */\n      dup3\n        /* \"#utility.yul\":20777:20840   */\n      tag_175\n      jump\t// in\n    tag_391:\n        /* \"#utility.yul\":20682:20850   */\n      pop\n        /* \"#utility.yul\":20269:20857   */\n      pop\n        /* \"#utility.yul\":20161:20857   */\n      pop\n      pop\n      jump\t// out\n        /* \"#utility.yul\":20863:21146   */\n    tag_207:\n        /* \"#utility.yul\":20984:20994   */\n      0x00\n        /* \"#utility.yul\":21005:21103   */\n      tag_393\n        /* \"#utility.yul\":21099:21102   */\n      dup4\n        /* \"#utility.yul\":21091:21097   */\n      dup4\n        /* \"#utility.yul\":21005:21103   */\n      tag_206\n      jump\t// in\n    tag_393:\n        /* \"#utility.yul\":21135:21139   */\n      0x60\n        /* \"#utility.yul\":21130:21133   */\n      dup4\n        /* \"#utility.yul\":21126:21140   */\n      add\n        /* \"#utility.yul\":21112:21140   */\n      swap1\n      pop\n        /* \"#utility.yul\":20863:21146   */\n      swap3\n      swap2\n      pop\n      pop\n      jump\t// out\n        /* \"#utility.yul\":21152:21291   */\n    tag_208:\n        /* \"#utility.yul\":21248:21252   */\n      0x00\n        /* \"#utility.yul\":21280:21284   */\n      0x20\n        /* \"#utility.yul\":21275:21278   */\n      dup3\n        /* \"#utility.yul\":21271:21285   */\n      add\n        /* \"#utility.yul\":21263:21285   */\n      swap1\n      pop\n        /* \"#utility.yul\":21152:21291   */\n      swap2\n      swap1\n      pop\n      jump\t// out\n        /* \"#utility.yul\":21345:22285   */\n    tag_209:\n        /* \"#utility.yul\":21516:21519   */\n      0x00\n        /* \"#utility.yul\":21545:21625   */\n      tag_396\n        /* \"#utility.yul\":21619:21624   */\n      dup3\n        /* \"#utility.yul\":21545:21625   */\n      tag_200\n      jump\t// in\n    tag_396:\n        /* \"#utility.yul\":21641:21753   */\n      tag_397\n        /* \"#utility.yul\":21746:21752   */\n      dup2\n        /* \"#utility.yul\":21741:21744   */\n      dup6\n        /* \"#utility.yul\":21641:21753   */\n      tag_201\n      jump\t// in\n    tag_397:\n        /* \"#utility.yul\":21634:21753   */\n      swap4\n      pop\n        /* \"#utility.yul\":21777:21859   */\n      tag_398\n        /* \"#utility.yul\":21853:21858   */\n      dup4\n        /* \"#utility.yul\":21777:21859   */\n      tag_202\n      jump\t// in\n    tag_398:\n        /* \"#utility.yul\":21882:21889   */\n      dup1\n        /* \"#utility.yul\":21913:21914   */\n      0x00\n        /* \"#utility.yul\":21898:22260   */\n    tag_399:\n        /* \"#utility.yul\":21923:21929   */\n      dup4\n        /* \"#utility.yul\":21920:21921   */\n      dup2\n        /* \"#utility.yul\":21917:21930   */\n      lt\n        /* \"#utility.yul\":21898:22260   */\n      iszero\n      tag_401\n      jumpi\n        /* \"#utility.yul\":21999:22005   */\n      dup2\n        /* \"#utility.yul\":21993:22006   */\n      mload\n        /* \"#utility.yul\":22026:22141   */\n      tag_402\n        /* \"#utility.yul\":22137:22140   */\n      dup9\n        /* \"#utility.yul\":22122:22135   */\n      dup3\n        /* \"#utility.yul\":22026:22141   */\n      tag_207\n      jump\t// in\n    tag_402:\n        /* \"#utility.yul\":22019:22141   */\n      swap8\n      pop\n        /* \"#utility.yul\":22164:22250   */\n      tag_403\n        /* \"#utility.yul\":22243:22249   */\n      dup4\n        /* \"#utility.yul\":22164:22250   */\n      tag_208\n      jump\t// in\n    tag_403:\n        /* \"#utility.yul\":22154:22250   */\n      swap3\n      pop\n        /* \"#utility.yul\":21958:22260   */\n      pop\n        /* \"#utility.yul\":21945:21946   */\n      0x01\n        /* \"#utility.yul\":21942:21943   */\n      dup2\n        /* \"#utility.yul\":21938:21947   */\n      add\n        /* \"#utility.yul\":21933:21947   */\n      swap1\n      pop\n        /* \"#utility.yul\":21898:22260   */\n      jump(tag_399)\n    tag_401:\n        /* \"#utility.yul\":21902:21916   */\n      pop\n        /* \"#utility.yul\":22276:22279   */\n      dup6\n        /* \"#utility.yul\":22269:22279   */\n      swap4\n      pop\n        /* \"#utility.yul\":21521:22285   */\n      pop\n      pop\n      pop\n        /* \"#utility.yul\":21345:22285   */\n      swap3\n      swap2\n      pop\n      pop\n      jump\t// out\n        /* \"#utility.yul\":22291:22768   */\n    tag_41:\n        /* \"#utility.yul\":22486:22490   */\n      0x00\n        /* \"#utility.yul\":22524:22526   */\n      0x20\n        /* \"#utility.yul\":22513:22522   */\n      dup3\n        /* \"#utility.yul\":22509:22527   */\n      add\n        /* \"#utility.yul\":22501:22527   */\n      swap1\n      pop\n        /* \"#utility.yul\":22573:22582   */\n      dup2\n        /* \"#utility.yul\":22567:22571   */\n      dup2\n        /* \"#utility.yul\":22563:22583   */\n      sub\n        /* \"#utility.yul\":22559:22560   */\n      0x00\n        /* \"#utility.yul\":22548:22557   */\n      dup4\n        /* \"#utility.yul\":22544:22561   */\n      add\n        /* \"#utility.yul\":22537:22584   */\n      mstore\n        /* \"#utility.yul\":22601:22761   */\n      tag_405\n        /* \"#utility.yul\":22756:22760   */\n      dup2\n        /* \"#utility.yul\":22747:22753   */\n      dup5\n        /* \"#utility.yul\":22601:22761   */\n      tag_209\n      jump\t// in\n    tag_405:\n        /* \"#utility.yul\":22593:22761   */\n      swap1\n      pop\n        /* \"#utility.yul\":22291:22768   */\n      swap3\n      swap2\n      pop\n      pop\n      jump\t// out\n        /* \"#utility.yul\":22774:22896   */\n    tag_210:\n        /* \"#utility.yul\":22847:22871   */\n      tag_407\n        /* \"#utility.yul\":22865:22870   */\n      dup2\n        /* \"#utility.yul\":22847:22871   */\n      tag_204\n      jump\t// in\n    tag_407:\n        /* \"#utility.yul\":22840:22845   */\n      dup2\n        /* \"#utility.yul\":22837:22872   */\n      eq\n        /* \"#utility.yul\":22827:22890   */\n      tag_408\n      jumpi\n        /* \"#utility.yul\":22886:22887   */\n      0x00\n        /* \"#utility.yul\":22883:22884   */\n      dup1\n        /* \"#utility.yul\":22876:22888   */\n      revert\n        /* \"#utility.yul\":22827:22890   */\n    tag_408:\n        /* \"#utility.yul\":22774:22896   */\n      pop\n      jump\t// out\n        /* \"#utility.yul\":22902:23041   */\n    tag_211:\n        /* \"#utility.yul\":22948:22953   */\n      0x00\n        /* \"#utility.yul\":22986:22992   */\n      dup2\n        /* \"#utility.yul\":22973:22993   */\n      calldataload\n        /* \"#utility.yul\":22964:22993   */\n      swap1\n      pop\n        /* \"#utility.yul\":23002:23035   */\n      tag_410\n        /* \"#utility.yul\":23029:23034   */\n      dup2\n        /* \"#utility.yul\":23002:23035   */\n      tag_210\n      jump\t// in\n    tag_410:\n        /* \"#utility.yul\":22902:23041   */\n      swap3\n      swap2\n      pop\n      pop\n      jump\t// out\n        /* \"#utility.yul\":23071:23830   */\n    tag_212:\n        /* \"#utility.yul\":23146:23151   */\n      0x00\n        /* \"#utility.yul\":23190:23194   */\n      0x60\n        /* \"#utility.yul\":23178:23187   */\n      dup3\n        /* \"#utility.yul\":23173:23176   */\n      dup5\n        /* \"#utility.yul\":23169:23188   */\n      sub\n        /* \"#utility.yul\":23165:23195   */\n      slt\n        /* \"#utility.yul\":23162:23279   */\n      iszero\n      tag_412\n      jumpi\n        /* \"#utility.yul\":23198:23277   */\n      tag_413\n      tag_152\n      jump\t// in\n    tag_413:\n        /* \"#utility.yul\":23162:23279   */\n    tag_412:\n        /* \"#utility.yul\":23297:23318   */\n      tag_414\n        /* \"#utility.yul\":23313:23317   */\n      0x60\n        /* \"#utility.yul\":23297:23318   */\n      tag_156\n      jump\t// in\n    tag_414:\n        /* \"#utility.yul\":23288:23318   */\n      swap1\n      pop\n        /* \"#utility.yul\":23384:23385   */\n      0x00\n        /* \"#utility.yul\":23424:23473   */\n      tag_415\n        /* \"#utility.yul\":23469:23472   */\n      dup5\n        /* \"#utility.yul\":23460:23466   */\n      dup3\n        /* \"#utility.yul\":23449:23458   */\n      dup6\n        /* \"#utility.yul\":23445:23467   */\n      add\n        /* \"#utility.yul\":23424:23473   */\n      tag_160\n      jump\t// in\n    tag_415:\n        /* \"#utility.yul\":23417:23421   */\n      0x00\n        /* \"#utility.yul\":23410:23415   */\n      dup4\n        /* \"#utility.yul\":23406:23422   */\n      add\n        /* \"#utility.yul\":23399:23474   */\n      mstore\n        /* \"#utility.yul\":23328:23485   */\n      pop\n        /* \"#utility.yul\":23556:23558   */\n      0x20\n        /* \"#utility.yul\":23597:23646   */\n      tag_416\n        /* \"#utility.yul\":23642:23645   */\n      dup5\n        /* \"#utility.yul\":23633:23639   */\n      dup3\n        /* \"#utility.yul\":23622:23631   */\n      dup6\n        /* \"#utility.yul\":23618:23640   */\n      add\n        /* \"#utility.yul\":23597:23646   */\n      tag_211\n      jump\t// in\n    tag_416:\n        /* \"#utility.yul\":23590:23594   */\n      0x20\n        /* \"#utility.yul\":23583:23588   */\n      dup4\n        /* \"#utility.yul\":23579:23595   */\n      add\n        /* \"#utility.yul\":23572:23647   */\n      mstore\n        /* \"#utility.yul\":23495:23658   */\n      pop\n        /* \"#utility.yul\":23721:23723   */\n      0x40\n        /* \"#utility.yul\":23762:23811   */\n      tag_417\n        /* \"#utility.yul\":23807:23810   */\n      dup5\n        /* \"#utility.yul\":23798:23804   */\n      dup3\n        /* \"#utility.yul\":23787:23796   */\n      dup6\n        /* \"#utility.yul\":23783:23805   */\n      add\n        /* \"#utility.yul\":23762:23811   */\n      tag_160\n      jump\t// in\n    tag_417:\n        /* \"#utility.yul\":23755:23759   */\n      0x40\n        /* \"#utility.yul\":23748:23753   */\n      dup4\n        /* \"#utility.yul\":23744:23760   */\n      add\n        /* \"#utility.yul\":23737:23812   */\n      mstore\n        /* \"#utility.yul\":23668:23823   */\n      pop\n        /* \"#utility.yul\":23071:23830   */\n      swap3\n      swap2\n      pop\n      pop\n      jump\t// out\n        /* \"#utility.yul\":23836:24363   */\n    tag_44:\n        /* \"#utility.yul\":23930:23936   */\n      0x00\n        /* \"#utility.yul\":23938:23944   */\n      dup1\n        /* \"#utility.yul\":23987:23990   */\n      0x80\n        /* \"#utility.yul\":23975:23984   */\n      dup4\n        /* \"#utility.yul\":23966:23973   */\n      dup6\n        /* \"#utility.yul\":23962:23985   */\n      sub\n        /* \"#utility.yul\":23958:23991   */\n      slt\n        /* \"#utility.yul\":23955:24075   */\n      iszero\n      tag_419\n      jumpi\n        /* \"#utility.yul\":23994:24073   */\n      tag_420\n      tag_150\n      jump\t// in\n    tag_420:\n        /* \"#utility.yul\":23955:24075   */\n    tag_419:\n        /* \"#utility.yul\":24114:24115   */\n      0x00\n        /* \"#utility.yul\":24139:24218   */\n      tag_421\n        /* \"#utility.yul\":24210:24217   */\n      dup6\n        /* \"#utility.yul\":24201:24207   */\n      dup3\n        /* \"#utility.yul\":24190:24199   */\n      dup7\n        /* \"#utility.yul\":24186:24208   */\n      add\n        /* \"#utility.yul\":24139:24218   */\n      tag_212\n      jump\t// in\n    tag_421:\n        /* \"#utility.yul\":24129:24218   */\n      swap3\n      pop\n        /* \"#utility.yul\":24085:24228   */\n      pop\n        /* \"#utility.yul\":24267:24269   */\n      0x60\n        /* \"#utility.yul\":24293:24346   */\n      tag_422\n        /* \"#utility.yul\":24338:24345   */\n      dup6\n        /* \"#utility.yul\":24329:24335   */\n      dup3\n        /* \"#utility.yul\":24318:24327   */\n      dup7\n        /* \"#utility.yul\":24314:24336   */\n      add\n        /* \"#utility.yul\":24293:24346   */\n      tag_169\n      jump\t// in\n    tag_422:\n        /* \"#utility.yul\":24283:24346   */\n      swap2\n      pop\n        /* \"#utility.yul\":24238:24356   */\n      pop\n        /* \"#utility.yul\":23836:24363   */\n      swap3\n      pop\n      swap3\n      swap1\n      pop\n      jump\t// out\n        /* \"#utility.yul\":24396:25477   */\n    tag_213:\n        /* \"#utility.yul\":24474:24479   */\n      0x00\n        /* \"#utility.yul\":24518:24522   */\n      0xa0\n        /* \"#utility.yul\":24506:24515   */\n      dup3\n        /* \"#utility.yul\":24501:24504   */\n      dup5\n        /* \"#utility.yul\":24497:24516   */\n      sub\n        /* \"#utility.yul\":24493:24523   */\n      slt\n        /* \"#utility.yul\":24490:24607   */\n      iszero\n      tag_424\n      jumpi\n        /* \"#utility.yul\":24526:24605   */\n      tag_425\n      tag_152\n      jump\t// in\n    tag_425:\n        /* \"#utility.yul\":24490:24607   */\n    tag_424:\n        /* \"#utility.yul\":24625:24646   */\n      tag_426\n        /* \"#utility.yul\":24641:24645   */\n      0xa0\n        /* \"#utility.yul\":24625:24646   */\n      tag_156\n      jump\t// in\n    tag_426:\n        /* \"#utility.yul\":24616:24646   */\n      swap1\n      pop\n        /* \"#utility.yul\":24708:24709   */\n      0x00\n        /* \"#utility.yul\":24748:24797   */\n      tag_427\n        /* \"#utility.yul\":24793:24796   */\n      dup5\n        /* \"#utility.yul\":24784:24790   */\n      dup3\n        /* \"#utility.yul\":24773:24782   */\n      dup6\n        /* \"#utility.yul\":24769:24791   */\n      add\n        /* \"#utility.yul\":24748:24797   */\n      tag_160\n      jump\t// in\n    tag_427:\n        /* \"#utility.yul\":24741:24745   */\n      0x00\n        /* \"#utility.yul\":24734:24739   */\n      dup4\n        /* \"#utility.yul\":24730:24746   */\n      add\n        /* \"#utility.yul\":24723:24798   */\n      mstore\n        /* \"#utility.yul\":24656:24809   */\n      pop\n        /* \"#utility.yul\":24876:24878   */\n      0x20\n        /* \"#utility.yul\":24917:24966   */\n      tag_428\n        /* \"#utility.yul\":24962:24965   */\n      dup5\n        /* \"#utility.yul\":24953:24959   */\n      dup3\n        /* \"#utility.yul\":24942:24951   */\n      dup6\n        /* \"#utility.yul\":24938:24960   */\n      add\n        /* \"#utility.yul\":24917:24966   */\n      tag_160\n      jump\t// in\n    tag_428:\n        /* \"#utility.yul\":24910:24914   */\n      0x20\n        /* \"#utility.yul\":24903:24908   */\n      dup4\n        /* \"#utility.yul\":24899:24915   */\n      add\n        /* \"#utility.yul\":24892:24967   */\n      mstore\n        /* \"#utility.yul\":24819:24978   */\n      pop\n        /* \"#utility.yul\":25041:25043   */\n      0x40\n        /* \"#utility.yul\":25082:25131   */\n      tag_429\n        /* \"#utility.yul\":25127:25130   */\n      dup5\n        /* \"#utility.yul\":25118:25124   */\n      dup3\n        /* \"#utility.yul\":25107:25116   */\n      dup6\n        /* \"#utility.yul\":25103:25125   */\n      add\n        /* \"#utility.yul\":25082:25131   */\n      tag_160\n      jump\t// in\n    tag_429:\n        /* \"#utility.yul\":25075:25079   */\n      0x40\n        /* \"#utility.yul\":25068:25073   */\n      dup4\n        /* \"#utility.yul\":25064:25080   */\n      add\n        /* \"#utility.yul\":25057:25132   */\n      mstore\n        /* \"#utility.yul\":24988:25143   */\n      pop\n        /* \"#utility.yul\":25202:25204   */\n      0x60\n        /* \"#utility.yul\":25243:25292   */\n      tag_430\n        /* \"#utility.yul\":25288:25291   */\n      dup5\n        /* \"#utility.yul\":25279:25285   */\n      dup3\n        /* \"#utility.yul\":25268:25277   */\n      dup6\n        /* \"#utility.yul\":25264:25286   */\n      add\n        /* \"#utility.yul\":25243:25292   */\n      tag_160\n      jump\t// in\n    tag_430:\n        /* \"#utility.yul\":25236:25240   */\n      0x60\n        /* \"#utility.yul\":25229:25234   */\n      dup4\n        /* \"#utility.yul\":25225:25241   */\n      add\n        /* \"#utility.yul\":25218:25293   */\n      mstore\n        /* \"#utility.yul\":25153:25304   */\n      pop\n        /* \"#utility.yul\":25367:25370   */\n      0x80\n        /* \"#utility.yul\":25409:25458   */\n      tag_431\n        /* \"#utility.yul\":25454:25457   */\n      dup5\n        /* \"#utility.yul\":25445:25451   */\n      dup3\n        /* \"#utility.yul\":25434:25443   */\n      dup6\n        /* \"#utility.yul\":25430:25452   */\n      add\n        /* \"#utility.yul\":25409:25458   */\n      tag_160\n      jump\t// in\n    tag_431:\n        /* \"#utility.yul\":25402:25406   */\n      0x80\n        /* \"#utility.yul\":25395:25400   */\n      dup4\n        /* \"#utility.yul\":25391:25407   */\n      add\n        /* \"#utility.yul\":25384:25459   */\n      mstore\n        /* \"#utility.yul\":25314:25470   */\n      pop\n        /* \"#utility.yul\":24396:25477   */\n      swap3\n      swap2\n      pop\n      pop\n      jump\t// out\n        /* \"#utility.yul\":25483:26017   */\n    tag_49:\n        /* \"#utility.yul\":25580:25586   */\n      0x00\n        /* \"#utility.yul\":25588:25594   */\n      dup1\n        /* \"#utility.yul\":25637:25640   */\n      0xc0\n        /* \"#utility.yul\":25625:25634   */\n      dup4\n        /* \"#utility.yul\":25616:25623   */\n      dup6\n        /* \"#utility.yul\":25612:25635   */\n      sub\n        /* \"#utility.yul\":25608:25641   */\n      slt\n        /* \"#utility.yul\":25605:25725   */\n      iszero\n      tag_433\n      jumpi\n        /* \"#utility.yul\":25644:25723   */\n      tag_434\n      tag_150\n      jump\t// in\n    tag_434:\n        /* \"#utility.yul\":25605:25725   */\n    tag_433:\n        /* \"#utility.yul\":25764:25765   */\n      0x00\n        /* \"#utility.yul\":25789:25871   */\n      tag_435\n        /* \"#utility.yul\":25863:25870   */\n      dup6\n        /* \"#utility.yul\":25854:25860   */\n      dup3\n        /* \"#utility.yul\":25843:25852   */\n      dup7\n        /* \"#utility.yul\":25839:25861   */\n      add\n        /* \"#utility.yul\":25789:25871   */\n      tag_213\n      jump\t// in\n    tag_435:\n        /* \"#utility.yul\":25779:25871   */\n      swap3\n      pop\n        /* \"#utility.yul\":25735:25881   */\n      pop\n        /* \"#utility.yul\":25920:25923   */\n      0xa0\n        /* \"#utility.yul\":25947:26000   */\n      tag_436\n        /* \"#utility.yul\":25992:25999   */\n      dup6\n        /* \"#utility.yul\":25983:25989   */\n      dup3\n        /* \"#utility.yul\":25972:25981   */\n      dup7\n        /* \"#utility.yul\":25968:25990   */\n      add\n        /* \"#utility.yul\":25947:26000   */\n      tag_169\n      jump\t// in\n    tag_436:\n        /* \"#utility.yul\":25937:26000   */\n      swap2\n      pop\n        /* \"#utility.yul\":25891:26010   */\n      pop\n        /* \"#utility.yul\":25483:26017   */\n      swap3\n      pop\n      swap3\n      swap1\n      pop\n      jump\t// out\n        /* \"#utility.yul\":26023:26141   */\n    tag_214:\n        /* \"#utility.yul\":26110:26134   */\n      tag_438\n        /* \"#utility.yul\":26128:26133   */\n      dup2\n        /* \"#utility.yul\":26110:26134   */\n      tag_204\n      jump\t// in\n    tag_438:\n        /* \"#utility.yul\":26105:26108   */\n      dup3\n        /* \"#utility.yul\":26098:26135   */\n      mstore\n        /* \"#utility.yul\":26023:26141   */\n      pop\n      pop\n      jump\t// out\n        /* \"#utility.yul\":26147:26369   */\n    tag_57:\n        /* \"#utility.yul\":26240:26244   */\n      0x00\n        /* \"#utility.yul\":26278:26280   */\n      0x20\n        /* \"#utility.yul\":26267:26276   */\n      dup3\n        /* \"#utility.yul\":26263:26281   */\n      add\n        /* \"#utility.yul\":26255:26281   */\n      swap1\n      pop\n        /* \"#utility.yul\":26291:26362   */\n      tag_440\n        /* \"#utility.yul\":26359:26360   */\n      0x00\n        /* \"#utility.yul\":26348:26357   */\n      dup4\n        /* \"#utility.yul\":26344:26361   */\n      add\n        /* \"#utility.yul\":26335:26341   */\n      dup5\n        /* \"#utility.yul\":26291:26362   */\n      tag_214\n      jump\t// in\n    tag_440:\n        /* \"#utility.yul\":26147:26369   */\n      swap3\n      swap2\n      pop\n      pop\n      jump\t// out\n        /* \"#utility.yul\":26402:27836   */\n    tag_215:\n        /* \"#utility.yul\":26480:26485   */\n      0x00\n        /* \"#utility.yul\":26524:26528   */\n      0xc0\n        /* \"#utility.yul\":26512:26521   */\n      dup3\n        /* \"#utility.yul\":26507:26510   */\n      dup5\n        /* \"#utility.yul\":26503:26522   */\n      sub\n        /* \"#utility.yul\":26499:26529   */\n      slt\n        /* \"#utility.yul\":26496:26613   */\n      iszero\n      tag_442\n      jumpi\n        /* \"#utility.yul\":26532:26611   */\n      tag_443\n      tag_152\n      jump\t// in\n    tag_443:\n        /* \"#utility.yul\":26496:26613   */\n    tag_442:\n        /* \"#utility.yul\":26631:26652   */\n      tag_444\n        /* \"#utility.yul\":26647:26651   */\n      0xc0\n        /* \"#utility.yul\":26631:26652   */\n      tag_156\n      jump\t// in\n    tag_444:\n        /* \"#utility.yul\":26622:26652   */\n      swap1\n      pop\n        /* \"#utility.yul\":26714:26715   */\n      0x00\n        /* \"#utility.yul\":26754:26803   */\n      tag_445\n        /* \"#utility.yul\":26799:26802   */\n      dup5\n        /* \"#utility.yul\":26790:26796   */\n      dup3\n        /* \"#utility.yul\":26779:26788   */\n      dup6\n        /* \"#utility.yul\":26775:26797   */\n      add\n        /* \"#utility.yul\":26754:26803   */\n      tag_160\n      jump\t// in\n    tag_445:\n        /* \"#utility.yul\":26747:26751   */\n      0x00\n        /* \"#utility.yul\":26740:26745   */\n      dup4\n        /* \"#utility.yul\":26736:26752   */\n      add\n        /* \"#utility.yul\":26729:26804   */\n      mstore\n        /* \"#utility.yul\":26662:26815   */\n      pop\n        /* \"#utility.yul\":26881:26883   */\n      0x20\n        /* \"#utility.yul\":26922:26971   */\n      tag_446\n        /* \"#utility.yul\":26967:26970   */\n      dup5\n        /* \"#utility.yul\":26958:26964   */\n      dup3\n        /* \"#utility.yul\":26947:26956   */\n      dup6\n        /* \"#utility.yul\":26943:26965   */\n      add\n        /* \"#utility.yul\":26922:26971   */\n      tag_160\n      jump\t// in\n    tag_446:\n        /* \"#utility.yul\":26915:26919   */\n      0x20\n        /* \"#utility.yul\":26908:26913   */\n      dup4\n        /* \"#utility.yul\":26904:26920   */\n      add\n        /* \"#utility.yul\":26897:26972   */\n      mstore\n        /* \"#utility.yul\":26825:26983   */\n      pop\n        /* \"#utility.yul\":27077:27079   */\n      0x40\n        /* \"#utility.yul\":27066:27075   */\n      dup3\n        /* \"#utility.yul\":27062:27080   */\n      add\n        /* \"#utility.yul\":27049:27081   */\n      calldataload\n        /* \"#utility.yul\":27108:27126   */\n      0xffffffffffffffff\n        /* \"#utility.yul\":27100:27106   */\n      dup2\n        /* \"#utility.yul\":27097:27127   */\n      gt\n        /* \"#utility.yul\":27094:27211   */\n      iszero\n      tag_447\n      jumpi\n        /* \"#utility.yul\":27130:27209   */\n      tag_448\n      tag_157\n      jump\t// in\n    tag_448:\n        /* \"#utility.yul\":27094:27211   */\n    tag_447:\n        /* \"#utility.yul\":27250:27324   */\n      tag_449\n        /* \"#utility.yul\":27320:27323   */\n      dup5\n        /* \"#utility.yul\":27311:27317   */\n      dup3\n        /* \"#utility.yul\":27300:27309   */\n      dup6\n        /* \"#utility.yul\":27296:27318   */\n      add\n        /* \"#utility.yul\":27250:27324   */\n      tag_165\n      jump\t// in\n    tag_449:\n        /* \"#utility.yul\":27243:27247   */\n      0x40\n        /* \"#utility.yul\":27236:27241   */\n      dup4\n        /* \"#utility.yul\":27232:27248   */\n      add\n        /* \"#utility.yul\":27225:27325   */\n      mstore\n        /* \"#utility.yul\":26993:27336   */\n      pop\n        /* \"#utility.yul\":27399:27401   */\n      0x60\n        /* \"#utility.yul\":27440:27489   */\n      tag_450\n        /* \"#utility.yul\":27485:27488   */\n      dup5\n        /* \"#utility.yul\":27476:27482   */\n      dup3\n        /* \"#utility.yul\":27465:27474   */\n      dup6\n        /* \"#utility.yul\":27461:27483   */\n      add\n        /* \"#utility.yul\":27440:27489   */\n      tag_160\n      jump\t// in\n    tag_450:\n        /* \"#utility.yul\":27433:27437   */\n      0x60\n        /* \"#utility.yul\":27426:27431   */\n      dup4\n        /* \"#utility.yul\":27422:27438   */\n      add\n        /* \"#utility.yul\":27415:27490   */\n      mstore\n        /* \"#utility.yul\":27346:27501   */\n      pop\n        /* \"#utility.yul\":27560:27563   */\n      0x80\n        /* \"#utility.yul\":27602:27651   */\n      tag_451\n        /* \"#utility.yul\":27647:27650   */\n      dup5\n        /* \"#utility.yul\":27638:27644   */\n      dup3\n        /* \"#utility.yul\":27627:27636   */\n      dup6\n        /* \"#utility.yul\":27623:27645   */\n      add\n        /* \"#utility.yul\":27602:27651   */\n      tag_160\n      jump\t// in\n    tag_451:\n        /* \"#utility.yul\":27595:27599   */\n      0x80\n        /* \"#utility.yul\":27588:27593   */\n      dup4\n        /* \"#utility.yul\":27584:27600   */\n      add\n        /* \"#utility.yul\":27577:27652   */\n      mstore\n        /* \"#utility.yul\":27511:27663   */\n      pop\n        /* \"#utility.yul\":27726:27729   */\n      0xa0\n        /* \"#utility.yul\":27768:27817   */\n      tag_452\n        /* \"#utility.yul\":27813:27816   */\n      dup5\n        /* \"#utility.yul\":27804:27810   */\n      dup3\n        /* \"#utility.yul\":27793:27802   */\n      dup6\n        /* \"#utility.yul\":27789:27811   */\n      add\n        /* \"#utility.yul\":27768:27817   */\n      tag_160\n      jump\t// in\n    tag_452:\n        /* \"#utility.yul\":27761:27765   */\n      0xa0\n        /* \"#utility.yul\":27754:27759   */\n      dup4\n        /* \"#utility.yul\":27750:27766   */\n      add\n        /* \"#utility.yul\":27743:27818   */\n      mstore\n        /* \"#utility.yul\":27673:27829   */\n      pop\n        /* \"#utility.yul\":26402:27836   */\n      swap3\n      swap2\n      pop\n      pop\n      jump\t// out\n        /* \"#utility.yul\":27842:28534   */\n    tag_60:\n        /* \"#utility.yul\":27939:27945   */\n      0x00\n        /* \"#utility.yul\":27947:27953   */\n      dup1\n        /* \"#utility.yul\":27996:27998   */\n      0x40\n        /* \"#utility.yul\":27984:27993   */\n      dup4\n        /* \"#utility.yul\":27975:27982   */\n      dup6\n        /* \"#utility.yul\":27971:27994   */\n      sub\n        /* \"#utility.yul\":27967:27999   */\n      slt\n        /* \"#utility.yul\":27964:28083   */\n      iszero\n      tag_454\n      jumpi\n        /* \"#utility.yul\":28002:28081   */\n      tag_455\n      tag_150\n      jump\t// in\n    tag_455:\n        /* \"#utility.yul\":27964:28083   */\n    tag_454:\n        /* \"#utility.yul\":28150:28151   */\n      0x00\n        /* \"#utility.yul\":28139:28148   */\n      dup4\n        /* \"#utility.yul\":28135:28152   */\n      add\n        /* \"#utility.yul\":28122:28153   */\n      calldataload\n        /* \"#utility.yul\":28180:28198   */\n      0xffffffffffffffff\n        /* \"#utility.yul\":28172:28178   */\n      dup2\n        /* \"#utility.yul\":28169:28199   */\n      gt\n        /* \"#utility.yul\":28166:28283   */\n      iszero\n      tag_456\n      jumpi\n        /* \"#utility.yul\":28202:28281   */\n      tag_457\n      tag_151\n      jump\t// in\n    tag_457:\n        /* \"#utility.yul\":28166:28283   */\n    tag_456:\n        /* \"#utility.yul\":28307:28389   */\n      tag_458\n        /* \"#utility.yul\":28381:28388   */\n      dup6\n        /* \"#utility.yul\":28372:28378   */\n      dup3\n        /* \"#utility.yul\":28361:28370   */\n      dup7\n        /* \"#utility.yul\":28357:28379   */\n      add\n        /* \"#utility.yul\":28307:28389   */\n      tag_215\n      jump\t// in\n    tag_458:\n        /* \"#utility.yul\":28297:28389   */\n      swap3\n      pop\n        /* \"#utility.yul\":28093:28399   */\n      pop\n        /* \"#utility.yul\":28438:28440   */\n      0x20\n        /* \"#utility.yul\":28464:28517   */\n      tag_459\n        /* \"#utility.yul\":28509:28516   */\n      dup6\n        /* \"#utility.yul\":28500:28506   */\n      dup3\n        /* \"#utility.yul\":28489:28498   */\n      dup7\n        /* \"#utility.yul\":28485:28507   */\n      add\n        /* \"#utility.yul\":28464:28517   */\n      tag_169\n      jump\t// in\n    tag_459:\n        /* \"#utility.yul\":28454:28517   */\n      swap2\n      pop\n        /* \"#utility.yul\":28409:28527   */\n      pop\n        /* \"#utility.yul\":27842:28534   */\n      swap3\n      pop\n      swap3\n      swap1\n      pop\n      jump\t// out\n        /* \"#utility.yul\":28540:28869   */\n    tag_65:\n        /* \"#utility.yul\":28599:28605   */\n      0x00\n        /* \"#utility.yul\":28648:28650   */\n      0x20\n        /* \"#utility.yul\":28636:28645   */\n      dup3\n        /* \"#utility.yul\":28627:28634   */\n      dup5\n        /* \"#utility.yul\":28623:28646   */\n      sub\n        /* \"#utility.yul\":28619:28651   */\n      slt\n        /* \"#utility.yul\":28616:28735   */\n      iszero\n      tag_461\n      jumpi\n        /* \"#utility.yul\":28654:28733   */\n      tag_462\n      tag_150\n      jump\t// in\n    tag_462:\n        /* \"#utility.yul\":28616:28735   */\n    tag_461:\n        /* \"#utility.yul\":28774:28775   */\n      0x00\n        /* \"#utility.yul\":28799:28852   */\n      tag_463\n        /* \"#utility.yul\":28844:28851   */\n      dup5\n        /* \"#utility.yul\":28835:28841   */\n      dup3\n        /* \"#utility.yul\":28824:28833   */\n      dup6\n        /* \"#utility.yul\":28820:28842   */\n      add\n        /* \"#utility.yul\":28799:28852   */\n      tag_211\n      jump\t// in\n    tag_463:\n        /* \"#utility.yul\":28789:28852   */\n      swap2\n      pop\n        /* \"#utility.yul\":28745:28862   */\n      pop\n        /* \"#utility.yul\":28540:28869   */\n      swap3\n      swap2\n      pop\n      pop\n      jump\t// out\n        /* \"#utility.yul\":28875:29044   */\n    tag_216:\n        /* \"#utility.yul\":28959:28970   */\n      0x00\n        /* \"#utility.yul\":28993:28999   */\n      dup3\n        /* \"#utility.yul\":28988:28991   */\n      dup3\n        /* \"#utility.yul\":28981:29000   */\n      mstore\n        /* \"#utility.yul\":29033:29037   */\n      0x20\n        /* \"#utility.yul\":29028:29031   */\n      dup3\n        /* \"#utility.yul\":29024:29038   */\n      add\n        /* \"#utility.yul\":29009:29038   */\n      swap1\n      pop\n        /* \"#utility.yul\":28875:29044   */\n      swap3\n      swap2\n      pop\n      pop\n      jump\t// out\n        /* \"#utility.yul\":29050:29282   */\n    tag_217:\n        /* \"#utility.yul\":29190:29224   */\n      0x44617461626173652050726f63657373696e6744617461626173653a20536563\n        /* \"#utility.yul\":29186:29187   */\n      0x00\n        /* \"#utility.yul\":29178:29184   */\n      dup3\n        /* \"#utility.yul\":29174:29188   */\n      add\n        /* \"#utility.yul\":29167:29225   */\n      mstore\n        /* \"#utility.yul\":29259:29274   */\n      0x726574206b6579206572726f7200000000000000000000000000000000000000\n        /* \"#utility.yul\":29254:29256   */\n      0x20\n        /* \"#utility.yul\":29246:29252   */\n      dup3\n        /* \"#utility.yul\":29242:29257   */\n      add\n        /* \"#utility.yul\":29235:29275   */\n      mstore\n        /* \"#utility.yul\":29050:29282   */\n      pop\n      jump\t// out\n        /* \"#utility.yul\":29288:29654   */\n    tag_218:\n        /* \"#utility.yul\":29430:29433   */\n      0x00\n        /* \"#utility.yul\":29451:29518   */\n      tag_467\n        /* \"#utility.yul\":29515:29517   */\n      0x2d\n        /* \"#utility.yul\":29510:29513   */\n      dup4\n        /* \"#utility.yul\":29451:29518   */\n      tag_216\n      jump\t// in\n    tag_467:\n        /* \"#utility.yul\":29444:29518   */\n      swap2\n      pop\n        /* \"#utility.yul\":29527:29620   */\n      tag_468\n        /* \"#utility.yul\":29616:29619   */\n      dup3\n        /* \"#utility.yul\":29527:29620   */\n      tag_217\n      jump\t// in\n    tag_468:\n        /* \"#utility.yul\":29645:29647   */\n      0x40\n        /* \"#utility.yul\":29640:29643   */\n      dup3\n        /* \"#utility.yul\":29636:29648   */\n      add\n        /* \"#utility.yul\":29629:29648   */\n      swap1\n      pop\n        /* \"#utility.yul\":29288:29654   */\n      swap2\n      swap1\n      pop\n      jump\t// out\n        /* \"#utility.yul\":29660:30079   */\n    tag_70:\n        /* \"#utility.yul\":29826:29830   */\n      0x00\n        /* \"#utility.yul\":29864:29866   */\n      0x20\n        /* \"#utility.yul\":29853:29862   */\n      dup3\n        /* \"#utility.yul\":29849:29867   */\n      add\n        /* \"#utility.yul\":29841:29867   */\n      swap1\n      pop\n        /* \"#utility.yul\":29913:29922   */\n      dup2\n        /* \"#utility.yul\":29907:29911   */\n      dup2\n        /* \"#utility.yul\":29903:29923   */\n      sub\n        /* \"#utility.yul\":29899:29900   */\n      0x00\n        /* \"#utility.yul\":29888:29897   */\n      dup4\n        /* \"#utility.yul\":29884:29901   */\n      add\n        /* \"#utility.yul\":29877:29924   */\n      mstore\n        /* \"#utility.yul\":29941:30072   */\n      tag_470\n        /* \"#utility.yul\":30067:30071   */\n      dup2\n        /* \"#utility.yul\":29941:30072   */\n      tag_218\n      jump\t// in\n    tag_470:\n        /* \"#utility.yul\":29933:30072   */\n      swap1\n      pop\n        /* \"#utility.yul\":29660:30079   */\n      swap2\n      swap1\n      pop\n      jump\t// out\n        /* \"#utility.yul\":30085:30310   */\n    tag_219:\n        /* \"#utility.yul\":30225:30259   */\n      0x4f776e61626c653a206e6577206f776e657220697320746865207a65726f2061\n        /* \"#utility.yul\":30221:30222   */\n      0x00\n        /* \"#utility.yul\":30213:30219   */\n      dup3\n        /* \"#utility.yul\":30209:30223   */\n      add\n        /* \"#utility.yul\":30202:30260   */\n      mstore\n        /* \"#utility.yul\":30294:30302   */\n      0x6464726573730000000000000000000000000000000000000000000000000000\n        /* \"#utility.yul\":30289:30291   */\n      0x20\n        /* \"#utility.yul\":30281:30287   */\n      dup3\n        /* \"#utility.yul\":30277:30292   */\n      add\n        /* \"#utility.yul\":30270:30303   */\n      mstore\n        /* \"#utility.yul\":30085:30310   */\n      pop\n      jump\t// out\n        /* \"#utility.yul\":30316:30682   */\n    tag_220:\n        /* \"#utility.yul\":30458:30461   */\n      0x00\n        /* \"#utility.yul\":30479:30546   */\n      tag_473\n        /* \"#utility.yul\":30543:30545   */\n      0x26\n        /* \"#utility.yul\":30538:30541   */\n      dup4\n        /* \"#utility.yul\":30479:30546   */\n      tag_216\n      jump\t// in\n    tag_473:\n        /* \"#utility.yul\":30472:30546   */\n      swap2\n      pop\n        /* \"#utility.yul\":30555:30648   */\n      tag_474\n        /* \"#utility.yul\":30644:30647   */\n      dup3\n        /* \"#utility.yul\":30555:30648   */\n      tag_219\n      jump\t// in\n    tag_474:\n        /* \"#utility.yul\":30673:30675   */\n      0x40\n        /* \"#utility.yul\":30668:30671   */\n      dup3\n        /* \"#utility.yul\":30664:30676   */\n      add\n        /* \"#utility.yul\":30657:30676   */\n      swap1\n      pop\n        /* \"#utility.yul\":30316:30682   */\n      swap2\n      swap1\n      pop\n      jump\t// out\n        /* \"#utility.yul\":30688:31107   */\n    tag_133:\n        /* \"#utility.yul\":30854:30858   */\n      0x00\n        /* \"#utility.yul\":30892:30894   */\n      0x20\n        /* \"#utility.yul\":30881:30890   */\n      dup3\n        /* \"#utility.yul\":30877:30895   */\n      add\n        /* \"#utility.yul\":30869:30895   */\n      swap1\n      pop\n        /* \"#utility.yul\":30941:30950   */\n      dup2\n        /* \"#utility.yul\":30935:30939   */\n      dup2\n        /* \"#utility.yul\":30931:30951   */\n      sub\n        /* \"#utility.yul\":30927:30928   */\n      0x00\n        /* \"#utility.yul\":30916:30925   */\n      dup4\n        /* \"#utility.yul\":30912:30929   */\n      add\n        /* \"#utility.yul\":30905:30952   */\n      mstore\n        /* \"#utility.yul\":30969:31100   */\n      tag_476\n        /* \"#utility.yul\":31095:31099   */\n      dup2\n        /* \"#utility.yul\":30969:31100   */\n      tag_220\n      jump\t// in\n    tag_476:\n        /* \"#utility.yul\":30961:31100   */\n      swap1\n      pop\n        /* \"#utility.yul\":30688:31107   */\n      swap2\n      swap1\n      pop\n      jump\t// out\n        /* \"#utility.yul\":31113:31295   */\n    tag_221:\n        /* \"#utility.yul\":31253:31287   */\n      0x4f776e61626c653a2063616c6c6572206973206e6f7420746865206f776e6572\n        /* \"#utility.yul\":31249:31250   */\n      0x00\n        /* \"#utility.yul\":31241:31247   */\n      dup3\n        /* \"#utility.yul\":31237:31251   */\n      add\n        /* \"#utility.yul\":31230:31288   */\n      mstore\n        /* \"#utility.yul\":31113:31295   */\n      pop\n      jump\t// out\n        /* \"#utility.yul\":31301:31667   */\n    tag_222:\n        /* \"#utility.yul\":31443:31446   */\n      0x00\n        /* \"#utility.yul\":31464:31531   */\n      tag_479\n        /* \"#utility.yul\":31528:31530   */\n      0x20\n        /* \"#utility.yul\":31523:31526   */\n      dup4\n        /* \"#utility.yul\":31464:31531   */\n      tag_216\n      jump\t// in\n    tag_479:\n        /* \"#utility.yul\":31457:31531   */\n      swap2\n      pop\n        /* \"#utility.yul\":31540:31633   */\n      tag_480\n        /* \"#utility.yul\":31629:31632   */\n      dup3\n        /* \"#utility.yul\":31540:31633   */\n      tag_221\n      jump\t// in\n    tag_480:\n        /* \"#utility.yul\":31658:31660   */\n      0x20\n        /* \"#utility.yul\":31653:31656   */\n      dup3\n        /* \"#utility.yul\":31649:31661   */\n      add\n        /* \"#utility.yul\":31642:31661   */\n      swap1\n      pop\n        /* \"#utility.yul\":31301:31667   */\n      swap2\n      swap1\n      pop\n      jump\t// out\n        /* \"#utility.yul\":31673:32092   */\n    tag_140:\n        /* \"#utility.yul\":31839:31843   */\n      0x00\n        /* \"#utility.yul\":31877:31879   */\n      0x20\n        /* \"#utility.yul\":31866:31875   */\n      dup3\n        /* \"#utility.yul\":31862:31880   */\n      add\n        /* \"#utility.yul\":31854:31880   */\n      swap1\n      pop\n        /* \"#utility.yul\":31926:31935   */\n      dup2\n        /* \"#utility.yul\":31920:31924   */\n      dup2\n        /* \"#utility.yul\":31916:31936   */\n      sub\n        /* \"#utility.yul\":31912:31913   */\n      0x00\n        /* \"#utility.yul\":31901:31910   */\n      dup4\n        /* \"#utility.yul\":31897:31914   */\n      add\n        /* \"#utility.yul\":31890:31937   */\n      mstore\n        /* \"#utility.yul\":31954:32085   */\n      tag_482\n        /* \"#utility.yul\":32080:32084   */\n      dup2\n        /* \"#utility.yul\":31954:32085   */\n      tag_222\n      jump\t// in\n    tag_482:\n        /* \"#utility.yul\":31946:32085   */\n      swap1\n      pop\n        /* \"#utility.yul\":31673:32092   */\n      swap2\n      swap1\n      pop\n      jump\t// out\n\n    auxdata: 0xa26469706673582212206cc35c79d6631bb946eda967d25ccc1e0cc977a3093673e6003e616da207942064736f6c63430008110033\n}\n",
				"bytecode": {
					"linkReferences": {},
					"object": "608060405234801561001057600080fd5b50336000806101000a81548173ffffffffffffffffffffffffffffffffffffffff021916908373ffffffffffffffffffffffffffffffffffffffff160217905550611b8e806100606000396000f3fe608060405234801561001057600080fd5b50600436106100a95760003560e01c8063318ee31a11610071578063318ee31a1461019e5780634269e28b146101ce57806383197ef0146101fe5780638da5cb5b14610208578063cb7c5c5014610226578063f2fde38b14610256576100a9565b8063021ca464146100ae57806303970403146100de5780631d769a9e1461010e578063270b38691461013e5780632ae72d061461016e575b600080fd5b6100c860048036038101906100c39190610fee565b610272565b6040516100d59190611065565b60405180910390f35b6100f860048036038101906100f39190611080565b61035d565b6040516101059190611290565b60405180910390f35b61012860048036038101906101239190611080565b61049b565b60405161013591906113c9565b60405180910390f35b61015860048036038101906101539190611080565b610595565b6040516101659190611536565b60405180910390f35b61018860048036038101906101839190611080565b6106e7565b604051610195919061168a565b60405180910390f35b6101b860048036038101906101b3919061173c565b610819565b6040516101c59190611065565b60405180910390f35b6101e860048036038101906101e39190611808565b610924565b6040516101f59190611065565b60405180910390f35b610206610a06565b005b610210610a27565b60405161021d9190611857565b60405180910390f35b610240600480360381019061023b919061192e565b610a50565b60405161024d9190611065565b60405180910390f35b610270600480360381019061026b919061198a565b610b4f565b005b6000817f8e1604a838d0f1a9b2cda14a099e4ceb08e966cc6e05e8296f67b02d61a79f0960001b81146102da576040517f08c379a00000000000000000000000000000000000000000000000000000000081526004016102d190611a3a565b60405180910390fd5b6002805490508460000181815250506002849080600181540180825580915050600190039060005260206000209060040201600090919091909150600082015181600001556020820151816001015560408201518160020155606082015181600301908051906020019061034f929190610d0d565b505050600191505092915050565b6060817f8e1604a838d0f1a9b2cda14a099e4ceb08e966cc6e05e8296f67b02d61a79f0960001b81146103c5576040517f08c379a00000000000000000000000000000000000000000000000000000000081526004016103bc90611a3a565b60405180910390fd5b6002805480602002602001604051908101604052809291908181526020016000905b8282101561048f57838290600052602060002090600402016040518060800160405290816000820154815260200160018201548152602001600282015481526020016003820180548060200260200160405190810160405280929190818152602001828054801561047757602002820191906000526020600020905b815481526020019060010190808311610463575b505050505081525050815260200190600101906103e7565b50505050915050919050565b6060817f8e1604a838d0f1a9b2cda14a099e4ceb08e966cc6e05e8296f67b02d61a79f0960001b8114610503576040517f08c379a00000000000000000000000000000000000000000000000000000000081526004016104fa90611a3a565b60405180910390fd5b6003805480602002602001604051908101604052809291908181526020016000905b8282101561058957838290600052602060002090600502016040518060a00160405290816000820154815260200160018201548152602001600282015481526020016003820154815260200160048201548152505081526020019060010190610525565b50505050915050919050565b6060817f8e1604a838d0f1a9b2cda14a099e4ceb08e966cc6e05e8296f67b02d61a79f0960001b81146105fd576040517f08c379a00000000000000000000000000000000000000000000000000000000081526004016105f490611a3a565b60405180910390fd5b6004805480602002602001604051908101604052809291908181526020016000905b828210156106db57838290600052602060002090600602016040518060c00160405290816000820154815260200160018201548152602001600282018054806020026020016040519081016040528092919081815260200182805480156106a557602002820191906000526020600020905b815481526020019060010190808311610691575b5050505050815260200160038201548152602001600482015481526020016005820154815250508152602001906001019061061f565b50505050915050919050565b6060817f8e1604a838d0f1a9b2cda14a099e4ceb08e966cc6e05e8296f67b02d61a79f0960001b811461074f576040517f08c379a000000000000000000000000000000000000000000000000000000000815260040161074690611a3a565b60405180910390fd5b6001805480602002602001604051908101604052809291908181526020016000905b8282101561080d5783829060005260206000209060030201604051806060016040529081600082015481526020016001820160009054906101000a900473ffffffffffffffffffffffffffffffffffffffff1673ffffffffffffffffffffffffffffffffffffffff1673ffffffffffffffffffffffffffffffffffffffff16815260200160028201548152505081526020019060010190610771565b50505050915050919050565b6000817f8e1604a838d0f1a9b2cda14a099e4ceb08e966cc6e05e8296f67b02d61a79f0960001b8114610881576040517f08c379a000000000000000000000000000000000000000000000000000000000815260040161087890611a3a565b60405180910390fd5b60018054905084600001818152505060018490806001815401808255809150506001900390600052602060002090600302016000909190919091506000820151816000015560208201518160010160006101000a81548173ffffffffffffffffffffffffffffffffffffffff021916908373ffffffffffffffffffffffffffffffffffffffff160217905550604082015181600201555050600191505092915050565b6000817f8e1604a838d0f1a9b2cda14a099e4ceb08e966cc6e05e8296f67b02d61a79f0960001b811461098c576040517f08c379a000000000000000000000000000000000000000000000000000000000815260040161098390611a3a565b60405180910390fd5b600380549050846000018181525050600384908060018154018082558091505060019003906000526020600020906005020160009091909190915060008201518160000155602082015181600101556040820151816002015560608201518160030155608082015181600401555050600191505092915050565b610a0e610bd2565b3073ffffffffffffffffffffffffffffffffffffffff16ff5b60008060009054906101000a900473ffffffffffffffffffffffffffffffffffffffff16905090565b6000817f8e1604a838d0f1a9b2cda14a099e4ceb08e966cc6e05e8296f67b02d61a79f0960001b8114610ab8576040517f08c379a0000000000000000000000000000000000000000000000000000000008152600401610aaf90611a3a565b60405180910390fd5b600480549050846000018181525050600484908060018154018082558091505060019003906000526020600020906006020160009091909190915060008201518160000155602082015181600101556040820151816002019080519060200190610b23929190610d0d565b50606082015181600301556080820151816004015560a082015181600501555050600191505092915050565b610b57610bd2565b600073ffffffffffffffffffffffffffffffffffffffff168173ffffffffffffffffffffffffffffffffffffffff1603610bc6576040517f08c379a0000000000000000000000000000000000000000000000000000000008152600401610bbd90611acc565b60405180910390fd5b610bcf81610c49565b50565b3373ffffffffffffffffffffffffffffffffffffffff16610bf1610a27565b73ffffffffffffffffffffffffffffffffffffffff1614610c47576040517f08c379a0000000000000000000000000000000000000000000000000000000008152600401610c3e90611b38565b60405180910390fd5b565b60008060009054906101000a900473ffffffffffffffffffffffffffffffffffffffff169050816000806101000a81548173ffffffffffffffffffffffffffffffffffffffff021916908373ffffffffffffffffffffffffffffffffffffffff1602179055508173ffffffffffffffffffffffffffffffffffffffff168173ffffffffffffffffffffffffffffffffffffffff167f8be0079c531659141344cd1fd0a4f28419497f9722a3daafe3b4186f6b6457e060405160405180910390a35050565b828054828255906000526020600020908101928215610d49579160200282015b82811115610d48578251825591602001919060010190610d2d565b5b509050610d569190610d5a565b5090565b5b80821115610d73576000816000905550600101610d5b565b5090565b6000604051905090565b600080fd5b600080fd5b600080fd5b6000601f19601f8301169050919050565b7f4e487b7100000000000000000000000000000000000000000000000000000000600052604160045260246000fd5b610dd982610d90565b810181811067ffffffffffffffff82111715610df857610df7610da1565b5b80604052505050565b6000610e0b610d77565b9050610e178282610dd0565b919050565b600080fd5b6000819050919050565b610e3481610e21565b8114610e3f57600080fd5b50565b600081359050610e5181610e2b565b92915050565b600080fd5b600067ffffffffffffffff821115610e7757610e76610da1565b5b602082029050602081019050919050565b600080fd5b6000610ea0610e9b84610e5c565b610e01565b90508083825260208201905060208402830185811115610ec357610ec2610e88565b5b835b81811015610eec5780610ed88882610e42565b845260208401935050602081019050610ec5565b5050509392505050565b600082601f830112610f0b57610f0a610e57565b5b8135610f1b848260208601610e8d565b91505092915050565b600060808284031215610f3a57610f39610d8b565b5b610f446080610e01565b90506000610f5484828501610e42565b6000830152506020610f6884828501610e42565b6020830152506040610f7c84828501610e42565b604083015250606082013567ffffffffffffffff811115610fa057610f9f610e1c565b5b610fac84828501610ef6565b60608301525092915050565b6000819050919050565b610fcb81610fb8565b8114610fd657600080fd5b50565b600081359050610fe881610fc2565b92915050565b6000806040838503121561100557611004610d81565b5b600083013567ffffffffffffffff81111561102357611022610d86565b5b61102f85828601610f24565b925050602061104085828601610fd9565b9150509250929050565b60008115159050919050565b61105f8161104a565b82525050565b600060208201905061107a6000830184611056565b92915050565b60006020828403121561109657611095610d81565b5b60006110a484828501610fd9565b91505092915050565b600081519050919050565b600082825260208201905092915050565b6000819050602082019050919050565b6110e281610e21565b82525050565b600081519050919050565b600082825260208201905092915050565b6000819050602082019050919050565b600061112083836110d9565b60208301905092915050565b6000602082019050919050565b6000611144826110e8565b61114e81856110f3565b935061115983611104565b8060005b8381101561118a5781516111718882611114565b975061117c8361112c565b92505060018101905061115d565b5085935050505092915050565b60006080830160008301516111af60008601826110d9565b5060208301516111c260208601826110d9565b5060408301516111d560408601826110d9565b50606083015184820360608601526111ed8282611139565b9150508091505092915050565b60006112068383611197565b905092915050565b6000602082019050919050565b6000611226826110ad565b61123081856110b8565b935083602082028501611242856110c9565b8060005b8581101561127e578484038952815161125f85826111fa565b945061126a8361120e565b925060208a01995050600181019050611246565b50829750879550505050505092915050565b600060208201905081810360008301526112aa818461121b565b905092915050565b600081519050919050565b600082825260208201905092915050565b6000819050602082019050919050565b60a0820160008201516112f460008501826110d9565b50602082015161130760208501826110d9565b50604082015161131a60408501826110d9565b50606082015161132d60608501826110d9565b50608082015161134060808501826110d9565b50505050565b600061135283836112de565b60a08301905092915050565b6000602082019050919050565b6000611376826112b2565b61138081856112bd565b935061138b836112ce565b8060005b838110156113bc5781516113a38882611346565b97506113ae8361135e565b92505060018101905061138f565b5085935050505092915050565b600060208201905081810360008301526113e3818461136b565b905092915050565b600081519050919050565b600082825260208201905092915050565b6000819050602082019050919050565b600060c08301600083015161142f60008601826110d9565b50602083015161144260208601826110d9565b506040830151848203604086015261145a8282611139565b915050606083015161146f60608601826110d9565b50608083015161148260808601826110d9565b5060a083015161149560a08601826110d9565b508091505092915050565b60006114ac8383611417565b905092915050565b6000602082019050919050565b60006114cc826113eb565b6114d681856113f6565b9350836020820285016114e885611407565b8060005b85811015611524578484038952815161150585826114a0565b9450611510836114b4565b925060208a019950506001810190506114ec565b50829750879550505050505092915050565b6000602082019050818103600083015261155081846114c1565b905092915050565b600081519050919050565b600082825260208201905092915050565b6000819050602082019050919050565b600073ffffffffffffffffffffffffffffffffffffffff82169050919050565b60006115af82611584565b9050919050565b6115bf816115a4565b82525050565b6060820160008201516115db60008501826110d9565b5060208201516115ee60208501826115b6565b50604082015161160160408501826110d9565b50505050565b600061161383836115c5565b60608301905092915050565b6000602082019050919050565b600061163782611558565b6116418185611563565b935061164c83611574565b8060005b8381101561167d5781516116648882611607565b975061166f8361161f565b925050600181019050611650565b5085935050505092915050565b600060208201905081810360008301526116a4818461162c565b905092915050565b6116b5816115a4565b81146116c057600080fd5b50565b6000813590506116d2816116ac565b92915050565b6000606082840312156116ee576116ed610d8b565b5b6116f86060610e01565b9050600061170884828501610e42565b600083015250602061171c848285016116c3565b602083015250604061173084828501610e42565b60408301525092915050565b6000806080838503121561175357611752610d81565b5b6000611761858286016116d8565b925050606061177285828601610fd9565b9150509250929050565b600060a0828403121561179257611791610d8b565b5b61179c60a0610e01565b905060006117ac84828501610e42565b60008301525060206117c084828501610e42565b60208301525060406117d484828501610e42565b60408301525060606117e884828501610e42565b60608301525060806117fc84828501610e42565b60808301525092915050565b60008060c0838503121561181f5761181e610d81565b5b600061182d8582860161177c565b92505060a061183e85828601610fd9565b9150509250929050565b611851816115a4565b82525050565b600060208201905061186c6000830184611848565b92915050565b600060c0828403121561188857611887610d8b565b5b61189260c0610e01565b905060006118a284828501610e42565b60008301525060206118b684828501610e42565b602083015250604082013567ffffffffffffffff8111156118da576118d9610e1c565b5b6118e684828501610ef6565b60408301525060606118fa84828501610e42565b606083015250608061190e84828501610e42565b60808301525060a061192284828501610e42565b60a08301525092915050565b6000806040838503121561194557611944610d81565b5b600083013567ffffffffffffffff81111561196357611962610d86565b5b61196f85828601611872565b925050602061198085828601610fd9565b9150509250929050565b6000602082840312156119a05761199f610d81565b5b60006119ae848285016116c3565b91505092915050565b600082825260208201905092915050565b7f44617461626173652050726f63657373696e6744617461626173653a2053656360008201527f726574206b6579206572726f7200000000000000000000000000000000000000602082015250565b6000611a24602d836119b7565b9150611a2f826119c8565b604082019050919050565b60006020820190508181036000830152611a5381611a17565b9050919050565b7f4f776e61626c653a206e6577206f776e657220697320746865207a65726f206160008201527f6464726573730000000000000000000000000000000000000000000000000000602082015250565b6000611ab66026836119b7565b9150611ac182611a5a565b604082019050919050565b60006020820190508181036000830152611ae581611aa9565b9050919050565b7f4f776e61626c653a2063616c6c6572206973206e6f7420746865206f776e6572600082015250565b6000611b226020836119b7565b9150611b2d82611aec565b602082019050919050565b60006020820190508181036000830152611b5181611b15565b905091905056fea26469706673582212206cc35c79d6631bb946eda967d25ccc1e0cc977a3093673e6003e616da207942064736f6c63430008110033",
					"opcodes": "PUSH1 0x80 PUSH1 0x40 MSTORE CALLVALUE DUP1 ISZERO PUSH2 0x10 JUMPI PUSH1 0x0 DUP1 REVERT JUMPDEST POP CALLER PUSH1 0x0 DUP1 PUSH2 0x100 EXP DUP2 SLOAD DUP2 PUSH20 0xFFFFFFFFFFFFFFFFFFFFFFFFFFFFFFFFFFFFFFFF MUL NOT AND SWAP1 DUP4 PUSH20 0xFFFFFFFFFFFFFFFFFFFFFFFFFFFFFFFFFFFFFFFF AND MUL OR SWAP1 SSTORE POP PUSH2 0x1B8E DUP1 PUSH2 0x60 PUSH1 0x0 CODECOPY PUSH1 0x0 RETURN INVALID PUSH1 0x80 PUSH1 0x40 MSTORE CALLVALUE DUP1 ISZERO PUSH2 0x10 JUMPI PUSH1 0x0 DUP1 REVERT JUMPDEST POP PUSH1 0x4 CALLDATASIZE LT PUSH2 0xA9 JUMPI PUSH1 0x0 CALLDATALOAD PUSH1 0xE0 SHR DUP1 PUSH4 0x318EE31A GT PUSH2 0x71 JUMPI DUP1 PUSH4 0x318EE31A EQ PUSH2 0x19E JUMPI DUP1 PUSH4 0x4269E28B EQ PUSH2 0x1CE JUMPI DUP1 PUSH4 0x83197EF0 EQ PUSH2 0x1FE JUMPI DUP1 PUSH4 0x8DA5CB5B EQ PUSH2 0x208 JUMPI DUP1 PUSH4 0xCB7C5C50 EQ PUSH2 0x226 JUMPI DUP1 PUSH4 0xF2FDE38B EQ PUSH2 0x256 JUMPI PUSH2 0xA9 JUMP JUMPDEST DUP1 PUSH4 0x21CA464 EQ PUSH2 0xAE JUMPI DUP1 PUSH4 0x3970403 EQ PUSH2 0xDE JUMPI DUP1 PUSH4 0x1D769A9E EQ PUSH2 0x10E JUMPI DUP1 PUSH4 0x270B3869 EQ PUSH2 0x13E JUMPI DUP1 PUSH4 0x2AE72D06 EQ PUSH2 0x16E JUMPI JUMPDEST PUSH1 0x0 DUP1 REVERT JUMPDEST PUSH2 0xC8 PUSH1 0x4 DUP1 CALLDATASIZE SUB DUP2 ADD SWAP1 PUSH2 0xC3 SWAP2 SWAP1 PUSH2 0xFEE JUMP JUMPDEST PUSH2 0x272 JUMP JUMPDEST PUSH1 0x40 MLOAD PUSH2 0xD5 SWAP2 SWAP1 PUSH2 0x1065 JUMP JUMPDEST PUSH1 0x40 MLOAD DUP1 SWAP2 SUB SWAP1 RETURN JUMPDEST PUSH2 0xF8 PUSH1 0x4 DUP1 CALLDATASIZE SUB DUP2 ADD SWAP1 PUSH2 0xF3 SWAP2 SWAP1 PUSH2 0x1080 JUMP JUMPDEST PUSH2 0x35D JUMP JUMPDEST PUSH1 0x40 MLOAD PUSH2 0x105 SWAP2 SWAP1 PUSH2 0x1290 JUMP JUMPDEST PUSH1 0x40 MLOAD DUP1 SWAP2 SUB SWAP1 RETURN JUMPDEST PUSH2 0x128 PUSH1 0x4 DUP1 CALLDATASIZE SUB DUP2 ADD SWAP1 PUSH2 0x123 SWAP2 SWAP1 PUSH2 0x1080 JUMP JUMPDEST PUSH2 0x49B JUMP JUMPDEST PUSH1 0x40 MLOAD PUSH2 0x135 SWAP2 SWAP1 PUSH2 0x13C9 JUMP JUMPDEST PUSH1 0x40 MLOAD DUP1 SWAP2 SUB SWAP1 RETURN JUMPDEST PUSH2 0x158 PUSH1 0x4 DUP1 CALLDATASIZE SUB DUP2 ADD SWAP1 PUSH2 0x153 SWAP2 SWAP1 PUSH2 0x1080 JUMP JUMPDEST PUSH2 0x595 JUMP JUMPDEST PUSH1 0x40 MLOAD PUSH2 0x165 SWAP2 SWAP1 PUSH2 0x1536 JUMP JUMPDEST PUSH1 0x40 MLOAD DUP1 SWAP2 SUB SWAP1 RETURN JUMPDEST PUSH2 0x188 PUSH1 0x4 DUP1 CALLDATASIZE SUB DUP2 ADD SWAP1 PUSH2 0x183 SWAP2 SWAP1 PUSH2 0x1080 JUMP JUMPDEST PUSH2 0x6E7 JUMP JUMPDEST PUSH1 0x40 MLOAD PUSH2 0x195 SWAP2 SWAP1 PUSH2 0x168A JUMP JUMPDEST PUSH1 0x40 MLOAD DUP1 SWAP2 SUB SWAP1 RETURN JUMPDEST PUSH2 0x1B8 PUSH1 0x4 DUP1 CALLDATASIZE SUB DUP2 ADD SWAP1 PUSH2 0x1B3 SWAP2 SWAP1 PUSH2 0x173C JUMP JUMPDEST PUSH2 0x819 JUMP JUMPDEST PUSH1 0x40 MLOAD PUSH2 0x1C5 SWAP2 SWAP1 PUSH2 0x1065 JUMP JUMPDEST PUSH1 0x40 MLOAD DUP1 SWAP2 SUB SWAP1 RETURN JUMPDEST PUSH2 0x1E8 PUSH1 0x4 DUP1 CALLDATASIZE SUB DUP2 ADD SWAP1 PUSH2 0x1E3 SWAP2 SWAP1 PUSH2 0x1808 JUMP JUMPDEST PUSH2 0x924 JUMP JUMPDEST PUSH1 0x40 MLOAD PUSH2 0x1F5 SWAP2 SWAP1 PUSH2 0x1065 JUMP JUMPDEST PUSH1 0x40 MLOAD DUP1 SWAP2 SUB SWAP1 RETURN JUMPDEST PUSH2 0x206 PUSH2 0xA06 JUMP JUMPDEST STOP JUMPDEST PUSH2 0x210 PUSH2 0xA27 JUMP JUMPDEST PUSH1 0x40 MLOAD PUSH2 0x21D SWAP2 SWAP1 PUSH2 0x1857 JUMP JUMPDEST PUSH1 0x40 MLOAD DUP1 SWAP2 SUB SWAP1 RETURN JUMPDEST PUSH2 0x240 PUSH1 0x4 DUP1 CALLDATASIZE SUB DUP2 ADD SWAP1 PUSH2 0x23B SWAP2 SWAP1 PUSH2 0x192E JUMP JUMPDEST PUSH2 0xA50 JUMP JUMPDEST PUSH1 0x40 MLOAD PUSH2 0x24D SWAP2 SWAP1 PUSH2 0x1065 JUMP JUMPDEST PUSH1 0x40 MLOAD DUP1 SWAP2 SUB SWAP1 RETURN JUMPDEST PUSH2 0x270 PUSH1 0x4 DUP1 CALLDATASIZE SUB DUP2 ADD SWAP1 PUSH2 0x26B SWAP2 SWAP1 PUSH2 0x198A JUMP JUMPDEST PUSH2 0xB4F JUMP JUMPDEST STOP JUMPDEST PUSH1 0x0 DUP2 PUSH32 0x8E1604A838D0F1A9B2CDA14A099E4CEB08E966CC6E05E8296F67B02D61A79F09 PUSH1 0x0 SHL DUP2 EQ PUSH2 0x2DA JUMPI PUSH1 0x40 MLOAD PUSH32 0x8C379A000000000000000000000000000000000000000000000000000000000 DUP2 MSTORE PUSH1 0x4 ADD PUSH2 0x2D1 SWAP1 PUSH2 0x1A3A JUMP JUMPDEST PUSH1 0x40 MLOAD DUP1 SWAP2 SUB SWAP1 REVERT JUMPDEST PUSH1 0x2 DUP1 SLOAD SWAP1 POP DUP5 PUSH1 0x0 ADD DUP2 DUP2 MSTORE POP POP PUSH1 0x2 DUP5 SWAP1 DUP1 PUSH1 0x1 DUP2 SLOAD ADD DUP1 DUP3 SSTORE DUP1 SWAP2 POP POP PUSH1 0x1 SWAP1 SUB SWAP1 PUSH1 0x0 MSTORE PUSH1 0x20 PUSH1 0x0 KECCAK256 SWAP1 PUSH1 0x4 MUL ADD PUSH1 0x0 SWAP1 SWAP2 SWAP1 SWAP2 SWAP1 SWAP2 POP PUSH1 0x0 DUP3 ADD MLOAD DUP2 PUSH1 0x0 ADD SSTORE PUSH1 0x20 DUP3 ADD MLOAD DUP2 PUSH1 0x1 ADD SSTORE PUSH1 0x40 DUP3 ADD MLOAD DUP2 PUSH1 0x2 ADD SSTORE PUSH1 0x60 DUP3 ADD MLOAD DUP2 PUSH1 0x3 ADD SWAP1 DUP1 MLOAD SWAP1 PUSH1 0x20 ADD SWAP1 PUSH2 0x34F SWAP3 SWAP2 SWAP1 PUSH2 0xD0D JUMP JUMPDEST POP POP POP PUSH1 0x1 SWAP2 POP POP SWAP3 SWAP2 POP POP JUMP JUMPDEST PUSH1 0x60 DUP2 PUSH32 0x8E1604A838D0F1A9B2CDA14A099E4CEB08E966CC6E05E8296F67B02D61A79F09 PUSH1 0x0 SHL DUP2 EQ PUSH2 0x3C5 JUMPI PUSH1 0x40 MLOAD PUSH32 0x8C379A000000000000000000000000000000000000000000000000000000000 DUP2 MSTORE PUSH1 0x4 ADD PUSH2 0x3BC SWAP1 PUSH2 0x1A3A JUMP JUMPDEST PUSH1 0x40 MLOAD DUP1 SWAP2 SUB SWAP1 REVERT JUMPDEST PUSH1 0x2 DUP1 SLOAD DUP1 PUSH1 0x20 MUL PUSH1 0x20 ADD PUSH1 0x40 MLOAD SWAP1 DUP2 ADD PUSH1 0x40 MSTORE DUP1 SWAP3 SWAP2 SWAP1 DUP2 DUP2 MSTORE PUSH1 0x20 ADD PUSH1 0x0 SWAP1 JUMPDEST DUP3 DUP3 LT ISZERO PUSH2 0x48F JUMPI DUP4 DUP3 SWAP1 PUSH1 0x0 MSTORE PUSH1 0x20 PUSH1 0x0 KECCAK256 SWAP1 PUSH1 0x4 MUL ADD PUSH1 0x40 MLOAD DUP1 PUSH1 0x80 ADD PUSH1 0x40 MSTORE SWAP1 DUP2 PUSH1 0x0 DUP3 ADD SLOAD DUP2 MSTORE PUSH1 0x20 ADD PUSH1 0x1 DUP3 ADD SLOAD DUP2 MSTORE PUSH1 0x20 ADD PUSH1 0x2 DUP3 ADD SLOAD DUP2 MSTORE PUSH1 0x20 ADD PUSH1 0x3 DUP3 ADD DUP1 SLOAD DUP1 PUSH1 0x20 MUL PUSH1 0x20 ADD PUSH1 0x40 MLOAD SWAP1 DUP2 ADD PUSH1 0x40 MSTORE DUP1 SWAP3 SWAP2 SWAP1 DUP2 DUP2 MSTORE PUSH1 0x20 ADD DUP3 DUP1 SLOAD DUP1 ISZERO PUSH2 0x477 JUMPI PUSH1 0x20 MUL DUP3 ADD SWAP2 SWAP1 PUSH1 0x0 MSTORE PUSH1 0x20 PUSH1 0x0 KECCAK256 SWAP1 JUMPDEST DUP2 SLOAD DUP2 MSTORE PUSH1 0x20 ADD SWAP1 PUSH1 0x1 ADD SWAP1 DUP1 DUP4 GT PUSH2 0x463 JUMPI JUMPDEST POP POP POP POP POP DUP2 MSTORE POP POP DUP2 MSTORE PUSH1 0x20 ADD SWAP1 PUSH1 0x1 ADD SWAP1 PUSH2 0x3E7 JUMP JUMPDEST POP POP POP POP SWAP2 POP POP SWAP2 SWAP1 POP JUMP JUMPDEST PUSH1 0x60 DUP2 PUSH32 0x8E1604A838D0F1A9B2CDA14A099E4CEB08E966CC6E05E8296F67B02D61A79F09 PUSH1 0x0 SHL DUP2 EQ PUSH2 0x503 JUMPI PUSH1 0x40 MLOAD PUSH32 0x8C379A000000000000000000000000000000000000000000000000000000000 DUP2 MSTORE PUSH1 0x4 ADD PUSH2 0x4FA SWAP1 PUSH2 0x1A3A JUMP JUMPDEST PUSH1 0x40 MLOAD DUP1 SWAP2 SUB SWAP1 REVERT JUMPDEST PUSH1 0x3 DUP1 SLOAD DUP1 PUSH1 0x20 MUL PUSH1 0x20 ADD PUSH1 0x40 MLOAD SWAP1 DUP2 ADD PUSH1 0x40 MSTORE DUP1 SWAP3 SWAP2 SWAP1 DUP2 DUP2 MSTORE PUSH1 0x20 ADD PUSH1 0x0 SWAP1 JUMPDEST DUP3 DUP3 LT ISZERO PUSH2 0x589 JUMPI DUP4 DUP3 SWAP1 PUSH1 0x0 MSTORE PUSH1 0x20 PUSH1 0x0 KECCAK256 SWAP1 PUSH1 0x5 MUL ADD PUSH1 0x40 MLOAD DUP1 PUSH1 0xA0 ADD PUSH1 0x40 MSTORE SWAP1 DUP2 PUSH1 0x0 DUP3 ADD SLOAD DUP2 MSTORE PUSH1 0x20 ADD PUSH1 0x1 DUP3 ADD SLOAD DUP2 MSTORE PUSH1 0x20 ADD PUSH1 0x2 DUP3 ADD SLOAD DUP2 MSTORE PUSH1 0x20 ADD PUSH1 0x3 DUP3 ADD SLOAD DUP2 MSTORE PUSH1 0x20 ADD PUSH1 0x4 DUP3 ADD SLOAD DUP2 MSTORE POP POP DUP2 MSTORE PUSH1 0x20 ADD SWAP1 PUSH1 0x1 ADD SWAP1 PUSH2 0x525 JUMP JUMPDEST POP POP POP POP SWAP2 POP POP SWAP2 SWAP1 POP JUMP JUMPDEST PUSH1 0x60 DUP2 PUSH32 0x8E1604A838D0F1A9B2CDA14A099E4CEB08E966CC6E05E8296F67B02D61A79F09 PUSH1 0x0 SHL DUP2 EQ PUSH2 0x5FD JUMPI PUSH1 0x40 MLOAD PUSH32 0x8C379A000000000000000000000000000000000000000000000000000000000 DUP2 MSTORE PUSH1 0x4 ADD PUSH2 0x5F4 SWAP1 PUSH2 0x1A3A JUMP JUMPDEST PUSH1 0x40 MLOAD DUP1 SWAP2 SUB SWAP1 REVERT JUMPDEST PUSH1 0x4 DUP1 SLOAD DUP1 PUSH1 0x20 MUL PUSH1 0x20 ADD PUSH1 0x40 MLOAD SWAP1 DUP2 ADD PUSH1 0x40 MSTORE DUP1 SWAP3 SWAP2 SWAP1 DUP2 DUP2 MSTORE PUSH1 0x20 ADD PUSH1 0x0 SWAP1 JUMPDEST DUP3 DUP3 LT ISZERO PUSH2 0x6DB JUMPI DUP4 DUP3 SWAP1 PUSH1 0x0 MSTORE PUSH1 0x20 PUSH1 0x0 KECCAK256 SWAP1 PUSH1 0x6 MUL ADD PUSH1 0x40 MLOAD DUP1 PUSH1 0xC0 ADD PUSH1 0x40 MSTORE SWAP1 DUP2 PUSH1 0x0 DUP3 ADD SLOAD DUP2 MSTORE PUSH1 0x20 ADD PUSH1 0x1 DUP3 ADD SLOAD DUP2 MSTORE PUSH1 0x20 ADD PUSH1 0x2 DUP3 ADD DUP1 SLOAD DUP1 PUSH1 0x20 MUL PUSH1 0x20 ADD PUSH1 0x40 MLOAD SWAP1 DUP2 ADD PUSH1 0x40 MSTORE DUP1 SWAP3 SWAP2 SWAP1 DUP2 DUP2 MSTORE PUSH1 0x20 ADD DUP3 DUP1 SLOAD DUP1 ISZERO PUSH2 0x6A5 JUMPI PUSH1 0x20 MUL DUP3 ADD SWAP2 SWAP1 PUSH1 0x0 MSTORE PUSH1 0x20 PUSH1 0x0 KECCAK256 SWAP1 JUMPDEST DUP2 SLOAD DUP2 MSTORE PUSH1 0x20 ADD SWAP1 PUSH1 0x1 ADD SWAP1 DUP1 DUP4 GT PUSH2 0x691 JUMPI JUMPDEST POP POP POP POP POP DUP2 MSTORE PUSH1 0x20 ADD PUSH1 0x3 DUP3 ADD SLOAD DUP2 MSTORE PUSH1 0x20 ADD PUSH1 0x4 DUP3 ADD SLOAD DUP2 MSTORE PUSH1 0x20 ADD PUSH1 0x5 DUP3 ADD SLOAD DUP2 MSTORE POP POP DUP2 MSTORE PUSH1 0x20 ADD SWAP1 PUSH1 0x1 ADD SWAP1 PUSH2 0x61F JUMP JUMPDEST POP POP POP POP SWAP2 POP POP SWAP2 SWAP1 POP JUMP JUMPDEST PUSH1 0x60 DUP2 PUSH32 0x8E1604A838D0F1A9B2CDA14A099E4CEB08E966CC6E05E8296F67B02D61A79F09 PUSH1 0x0 SHL DUP2 EQ PUSH2 0x74F JUMPI PUSH1 0x40 MLOAD PUSH32 0x8C379A000000000000000000000000000000000000000000000000000000000 DUP2 MSTORE PUSH1 0x4 ADD PUSH2 0x746 SWAP1 PUSH2 0x1A3A JUMP JUMPDEST PUSH1 0x40 MLOAD DUP1 SWAP2 SUB SWAP1 REVERT JUMPDEST PUSH1 0x1 DUP1 SLOAD DUP1 PUSH1 0x20 MUL PUSH1 0x20 ADD PUSH1 0x40 MLOAD SWAP1 DUP2 ADD PUSH1 0x40 MSTORE DUP1 SWAP3 SWAP2 SWAP1 DUP2 DUP2 MSTORE PUSH1 0x20 ADD PUSH1 0x0 SWAP1 JUMPDEST DUP3 DUP3 LT ISZERO PUSH2 0x80D JUMPI DUP4 DUP3 SWAP1 PUSH1 0x0 MSTORE PUSH1 0x20 PUSH1 0x0 KECCAK256 SWAP1 PUSH1 0x3 MUL ADD PUSH1 0x40 MLOAD DUP1 PUSH1 0x60 ADD PUSH1 0x40 MSTORE SWAP1 DUP2 PUSH1 0x0 DUP3 ADD SLOAD DUP2 MSTORE PUSH1 0x20 ADD PUSH1 0x1 DUP3 ADD PUSH1 0x0 SWAP1 SLOAD SWAP1 PUSH2 0x100 EXP SWAP1 DIV PUSH20 0xFFFFFFFFFFFFFFFFFFFFFFFFFFFFFFFFFFFFFFFF AND PUSH20 0xFFFFFFFFFFFFFFFFFFFFFFFFFFFFFFFFFFFFFFFF AND PUSH20 0xFFFFFFFFFFFFFFFFFFFFFFFFFFFFFFFFFFFFFFFF AND DUP2 MSTORE PUSH1 0x20 ADD PUSH1 0x2 DUP3 ADD SLOAD DUP2 MSTORE POP POP DUP2 MSTORE PUSH1 0x20 ADD SWAP1 PUSH1 0x1 ADD SWAP1 PUSH2 0x771 JUMP JUMPDEST POP POP POP POP SWAP2 POP POP SWAP2 SWAP1 POP JUMP JUMPDEST PUSH1 0x0 DUP2 PUSH32 0x8E1604A838D0F1A9B2CDA14A099E4CEB08E966CC6E05E8296F67B02D61A79F09 PUSH1 0x0 SHL DUP2 EQ PUSH2 0x881 JUMPI PUSH1 0x40 MLOAD PUSH32 0x8C379A000000000000000000000000000000000000000000000000000000000 DUP2 MSTORE PUSH1 0x4 ADD PUSH2 0x878 SWAP1 PUSH2 0x1A3A JUMP JUMPDEST PUSH1 0x40 MLOAD DUP1 SWAP2 SUB SWAP1 REVERT JUMPDEST PUSH1 0x1 DUP1 SLOAD SWAP1 POP DUP5 PUSH1 0x0 ADD DUP2 DUP2 MSTORE POP POP PUSH1 0x1 DUP5 SWAP1 DUP1 PUSH1 0x1 DUP2 SLOAD ADD DUP1 DUP3 SSTORE DUP1 SWAP2 POP POP PUSH1 0x1 SWAP1 SUB SWAP1 PUSH1 0x0 MSTORE PUSH1 0x20 PUSH1 0x0 KECCAK256 SWAP1 PUSH1 0x3 MUL ADD PUSH1 0x0 SWAP1 SWAP2 SWAP1 SWAP2 SWAP1 SWAP2 POP PUSH1 0x0 DUP3 ADD MLOAD DUP2 PUSH1 0x0 ADD SSTORE PUSH1 0x20 DUP3 ADD MLOAD DUP2 PUSH1 0x1 ADD PUSH1 0x0 PUSH2 0x100 EXP DUP2 SLOAD DUP2 PUSH20 0xFFFFFFFFFFFFFFFFFFFFFFFFFFFFFFFFFFFFFFFF MUL NOT AND SWAP1 DUP4 PUSH20 0xFFFFFFFFFFFFFFFFFFFFFFFFFFFFFFFFFFFFFFFF AND MUL OR SWAP1 SSTORE POP PUSH1 0x40 DUP3 ADD MLOAD DUP2 PUSH1 0x2 ADD SSTORE POP POP PUSH1 0x1 SWAP2 POP POP SWAP3 SWAP2 POP POP JUMP JUMPDEST PUSH1 0x0 DUP2 PUSH32 0x8E1604A838D0F1A9B2CDA14A099E4CEB08E966CC6E05E8296F67B02D61A79F09 PUSH1 0x0 SHL DUP2 EQ PUSH2 0x98C JUMPI PUSH1 0x40 MLOAD PUSH32 0x8C379A000000000000000000000000000000000000000000000000000000000 DUP2 MSTORE PUSH1 0x4 ADD PUSH2 0x983 SWAP1 PUSH2 0x1A3A JUMP JUMPDEST PUSH1 0x40 MLOAD DUP1 SWAP2 SUB SWAP1 REVERT JUMPDEST PUSH1 0x3 DUP1 SLOAD SWAP1 POP DUP5 PUSH1 0x0 ADD DUP2 DUP2 MSTORE POP POP PUSH1 0x3 DUP5 SWAP1 DUP1 PUSH1 0x1 DUP2 SLOAD ADD DUP1 DUP3 SSTORE DUP1 SWAP2 POP POP PUSH1 0x1 SWAP1 SUB SWAP1 PUSH1 0x0 MSTORE PUSH1 0x20 PUSH1 0x0 KECCAK256 SWAP1 PUSH1 0x5 MUL ADD PUSH1 0x0 SWAP1 SWAP2 SWAP1 SWAP2 SWAP1 SWAP2 POP PUSH1 0x0 DUP3 ADD MLOAD DUP2 PUSH1 0x0 ADD SSTORE PUSH1 0x20 DUP3 ADD MLOAD DUP2 PUSH1 0x1 ADD SSTORE PUSH1 0x40 DUP3 ADD MLOAD DUP2 PUSH1 0x2 ADD SSTORE PUSH1 0x60 DUP3 ADD MLOAD DUP2 PUSH1 0x3 ADD SSTORE PUSH1 0x80 DUP3 ADD MLOAD DUP2 PUSH1 0x4 ADD SSTORE POP POP PUSH1 0x1 SWAP2 POP POP SWAP3 SWAP2 POP POP JUMP JUMPDEST PUSH2 0xA0E PUSH2 0xBD2 JUMP JUMPDEST ADDRESS PUSH20 0xFFFFFFFFFFFFFFFFFFFFFFFFFFFFFFFFFFFFFFFF AND SELFDESTRUCT JUMPDEST PUSH1 0x0 DUP1 PUSH1 0x0 SWAP1 SLOAD SWAP1 PUSH2 0x100 EXP SWAP1 DIV PUSH20 0xFFFFFFFFFFFFFFFFFFFFFFFFFFFFFFFFFFFFFFFF AND SWAP1 POP SWAP1 JUMP JUMPDEST PUSH1 0x0 DUP2 PUSH32 0x8E1604A838D0F1A9B2CDA14A099E4CEB08E966CC6E05E8296F67B02D61A79F09 PUSH1 0x0 SHL DUP2 EQ PUSH2 0xAB8 JUMPI PUSH1 0x40 MLOAD PUSH32 0x8C379A000000000000000000000000000000000000000000000000000000000 DUP2 MSTORE PUSH1 0x4 ADD PUSH2 0xAAF SWAP1 PUSH2 0x1A3A JUMP JUMPDEST PUSH1 0x40 MLOAD DUP1 SWAP2 SUB SWAP1 REVERT JUMPDEST PUSH1 0x4 DUP1 SLOAD SWAP1 POP DUP5 PUSH1 0x0 ADD DUP2 DUP2 MSTORE POP POP PUSH1 0x4 DUP5 SWAP1 DUP1 PUSH1 0x1 DUP2 SLOAD ADD DUP1 DUP3 SSTORE DUP1 SWAP2 POP POP PUSH1 0x1 SWAP1 SUB SWAP1 PUSH1 0x0 MSTORE PUSH1 0x20 PUSH1 0x0 KECCAK256 SWAP1 PUSH1 0x6 MUL ADD PUSH1 0x0 SWAP1 SWAP2 SWAP1 SWAP2 SWAP1 SWAP2 POP PUSH1 0x0 DUP3 ADD MLOAD DUP2 PUSH1 0x0 ADD SSTORE PUSH1 0x20 DUP3 ADD MLOAD DUP2 PUSH1 0x1 ADD SSTORE PUSH1 0x40 DUP3 ADD MLOAD DUP2 PUSH1 0x2 ADD SWAP1 DUP1 MLOAD SWAP1 PUSH1 0x20 ADD SWAP1 PUSH2 0xB23 SWAP3 SWAP2 SWAP1 PUSH2 0xD0D JUMP JUMPDEST POP PUSH1 0x60 DUP3 ADD MLOAD DUP2 PUSH1 0x3 ADD SSTORE PUSH1 0x80 DUP3 ADD MLOAD DUP2 PUSH1 0x4 ADD SSTORE PUSH1 0xA0 DUP3 ADD MLOAD DUP2 PUSH1 0x5 ADD SSTORE POP POP PUSH1 0x1 SWAP2 POP POP SWAP3 SWAP2 POP POP JUMP JUMPDEST PUSH2 0xB57 PUSH2 0xBD2 JUMP JUMPDEST PUSH1 0x0 PUSH20 0xFFFFFFFFFFFFFFFFFFFFFFFFFFFFFFFFFFFFFFFF AND DUP2 PUSH20 0xFFFFFFFFFFFFFFFFFFFFFFFFFFFFFFFFFFFFFFFF AND SUB PUSH2 0xBC6 JUMPI PUSH1 0x40 MLOAD PUSH32 0x8C379A000000000000000000000000000000000000000000000000000000000 DUP2 MSTORE PUSH1 0x4 ADD PUSH2 0xBBD SWAP1 PUSH2 0x1ACC JUMP JUMPDEST PUSH1 0x40 MLOAD DUP1 SWAP2 SUB SWAP1 REVERT JUMPDEST PUSH2 0xBCF DUP2 PUSH2 0xC49 JUMP JUMPDEST POP JUMP JUMPDEST CALLER PUSH20 0xFFFFFFFFFFFFFFFFFFFFFFFFFFFFFFFFFFFFFFFF AND PUSH2 0xBF1 PUSH2 0xA27 JUMP JUMPDEST PUSH20 0xFFFFFFFFFFFFFFFFFFFFFFFFFFFFFFFFFFFFFFFF AND EQ PUSH2 0xC47 JUMPI PUSH1 0x40 MLOAD PUSH32 0x8C379A000000000000000000000000000000000000000000000000000000000 DUP2 MSTORE PUSH1 0x4 ADD PUSH2 0xC3E SWAP1 PUSH2 0x1B38 JUMP JUMPDEST PUSH1 0x40 MLOAD DUP1 SWAP2 SUB SWAP1 REVERT JUMPDEST JUMP JUMPDEST PUSH1 0x0 DUP1 PUSH1 0x0 SWAP1 SLOAD SWAP1 PUSH2 0x100 EXP SWAP1 DIV PUSH20 0xFFFFFFFFFFFFFFFFFFFFFFFFFFFFFFFFFFFFFFFF AND SWAP1 POP DUP2 PUSH1 0x0 DUP1 PUSH2 0x100 EXP DUP2 SLOAD DUP2 PUSH20 0xFFFFFFFFFFFFFFFFFFFFFFFFFFFFFFFFFFFFFFFF MUL NOT AND SWAP1 DUP4 PUSH20 0xFFFFFFFFFFFFFFFFFFFFFFFFFFFFFFFFFFFFFFFF AND MUL OR SWAP1 SSTORE POP DUP2 PUSH20 0xFFFFFFFFFFFFFFFFFFFFFFFFFFFFFFFFFFFFFFFF AND DUP2 PUSH20 0xFFFFFFFFFFFFFFFFFFFFFFFFFFFFFFFFFFFFFFFF AND PUSH32 0x8BE0079C531659141344CD1FD0A4F28419497F9722A3DAAFE3B4186F6B6457E0 PUSH1 0x40 MLOAD PUSH1 0x40 MLOAD DUP1 SWAP2 SUB SWAP1 LOG3 POP POP JUMP JUMPDEST DUP3 DUP1 SLOAD DUP3 DUP3 SSTORE SWAP1 PUSH1 0x0 MSTORE PUSH1 0x20 PUSH1 0x0 KECCAK256 SWAP1 DUP2 ADD SWAP3 DUP3 ISZERO PUSH2 0xD49 JUMPI SWAP2 PUSH1 0x20 MUL DUP3 ADD JUMPDEST DUP3 DUP2 GT ISZERO PUSH2 0xD48 JUMPI DUP3 MLOAD DUP3 SSTORE SWAP2 PUSH1 0x20 ADD SWAP2 SWAP1 PUSH1 0x1 ADD SWAP1 PUSH2 0xD2D JUMP JUMPDEST JUMPDEST POP SWAP1 POP PUSH2 0xD56 SWAP2 SWAP1 PUSH2 0xD5A JUMP JUMPDEST POP SWAP1 JUMP JUMPDEST JUMPDEST DUP1 DUP3 GT ISZERO PUSH2 0xD73 JUMPI PUSH1 0x0 DUP2 PUSH1 0x0 SWAP1 SSTORE POP PUSH1 0x1 ADD PUSH2 0xD5B JUMP JUMPDEST POP SWAP1 JUMP JUMPDEST PUSH1 0x0 PUSH1 0x40 MLOAD SWAP1 POP SWAP1 JUMP JUMPDEST PUSH1 0x0 DUP1 REVERT JUMPDEST PUSH1 0x0 DUP1 REVERT JUMPDEST PUSH1 0x0 DUP1 REVERT JUMPDEST PUSH1 0x0 PUSH1 0x1F NOT PUSH1 0x1F DUP4 ADD AND SWAP1 POP SWAP2 SWAP1 POP JUMP JUMPDEST PUSH32 0x4E487B7100000000000000000000000000000000000000000000000000000000 PUSH1 0x0 MSTORE PUSH1 0x41 PUSH1 0x4 MSTORE PUSH1 0x24 PUSH1 0x0 REVERT JUMPDEST PUSH2 0xDD9 DUP3 PUSH2 0xD90 JUMP JUMPDEST DUP2 ADD DUP2 DUP2 LT PUSH8 0xFFFFFFFFFFFFFFFF DUP3 GT OR ISZERO PUSH2 0xDF8 JUMPI PUSH2 0xDF7 PUSH2 0xDA1 JUMP JUMPDEST JUMPDEST DUP1 PUSH1 0x40 MSTORE POP POP POP JUMP JUMPDEST PUSH1 0x0 PUSH2 0xE0B PUSH2 0xD77 JUMP JUMPDEST SWAP1 POP PUSH2 0xE17 DUP3 DUP3 PUSH2 0xDD0 JUMP JUMPDEST SWAP2 SWAP1 POP JUMP JUMPDEST PUSH1 0x0 DUP1 REVERT JUMPDEST PUSH1 0x0 DUP2 SWAP1 POP SWAP2 SWAP1 POP JUMP JUMPDEST PUSH2 0xE34 DUP2 PUSH2 0xE21 JUMP JUMPDEST DUP2 EQ PUSH2 0xE3F JUMPI PUSH1 0x0 DUP1 REVERT JUMPDEST POP JUMP JUMPDEST PUSH1 0x0 DUP2 CALLDATALOAD SWAP1 POP PUSH2 0xE51 DUP2 PUSH2 0xE2B JUMP JUMPDEST SWAP3 SWAP2 POP POP JUMP JUMPDEST PUSH1 0x0 DUP1 REVERT JUMPDEST PUSH1 0x0 PUSH8 0xFFFFFFFFFFFFFFFF DUP3 GT ISZERO PUSH2 0xE77 JUMPI PUSH2 0xE76 PUSH2 0xDA1 JUMP JUMPDEST JUMPDEST PUSH1 0x20 DUP3 MUL SWAP1 POP PUSH1 0x20 DUP2 ADD SWAP1 POP SWAP2 SWAP1 POP JUMP JUMPDEST PUSH1 0x0 DUP1 REVERT JUMPDEST PUSH1 0x0 PUSH2 0xEA0 PUSH2 0xE9B DUP5 PUSH2 0xE5C JUMP JUMPDEST PUSH2 0xE01 JUMP JUMPDEST SWAP1 POP DUP1 DUP4 DUP3 MSTORE PUSH1 0x20 DUP3 ADD SWAP1 POP PUSH1 0x20 DUP5 MUL DUP4 ADD DUP6 DUP2 GT ISZERO PUSH2 0xEC3 JUMPI PUSH2 0xEC2 PUSH2 0xE88 JUMP JUMPDEST JUMPDEST DUP4 JUMPDEST DUP2 DUP2 LT ISZERO PUSH2 0xEEC JUMPI DUP1 PUSH2 0xED8 DUP9 DUP3 PUSH2 0xE42 JUMP JUMPDEST DUP5 MSTORE PUSH1 0x20 DUP5 ADD SWAP4 POP POP PUSH1 0x20 DUP2 ADD SWAP1 POP PUSH2 0xEC5 JUMP JUMPDEST POP POP POP SWAP4 SWAP3 POP POP POP JUMP JUMPDEST PUSH1 0x0 DUP3 PUSH1 0x1F DUP4 ADD SLT PUSH2 0xF0B JUMPI PUSH2 0xF0A PUSH2 0xE57 JUMP JUMPDEST JUMPDEST DUP2 CALLDATALOAD PUSH2 0xF1B DUP5 DUP3 PUSH1 0x20 DUP7 ADD PUSH2 0xE8D JUMP JUMPDEST SWAP2 POP POP SWAP3 SWAP2 POP POP JUMP JUMPDEST PUSH1 0x0 PUSH1 0x80 DUP3 DUP5 SUB SLT ISZERO PUSH2 0xF3A JUMPI PUSH2 0xF39 PUSH2 0xD8B JUMP JUMPDEST JUMPDEST PUSH2 0xF44 PUSH1 0x80 PUSH2 0xE01 JUMP JUMPDEST SWAP1 POP PUSH1 0x0 PUSH2 0xF54 DUP5 DUP3 DUP6 ADD PUSH2 0xE42 JUMP JUMPDEST PUSH1 0x0 DUP4 ADD MSTORE POP PUSH1 0x20 PUSH2 0xF68 DUP5 DUP3 DUP6 ADD PUSH2 0xE42 JUMP JUMPDEST PUSH1 0x20 DUP4 ADD MSTORE POP PUSH1 0x40 PUSH2 0xF7C DUP5 DUP3 DUP6 ADD PUSH2 0xE42 JUMP JUMPDEST PUSH1 0x40 DUP4 ADD MSTORE POP PUSH1 0x60 DUP3 ADD CALLDATALOAD PUSH8 0xFFFFFFFFFFFFFFFF DUP2 GT ISZERO PUSH2 0xFA0 JUMPI PUSH2 0xF9F PUSH2 0xE1C JUMP JUMPDEST JUMPDEST PUSH2 0xFAC DUP5 DUP3 DUP6 ADD PUSH2 0xEF6 JUMP JUMPDEST PUSH1 0x60 DUP4 ADD MSTORE POP SWAP3 SWAP2 POP POP JUMP JUMPDEST PUSH1 0x0 DUP2 SWAP1 POP SWAP2 SWAP1 POP JUMP JUMPDEST PUSH2 0xFCB DUP2 PUSH2 0xFB8 JUMP JUMPDEST DUP2 EQ PUSH2 0xFD6 JUMPI PUSH1 0x0 DUP1 REVERT JUMPDEST POP JUMP JUMPDEST PUSH1 0x0 DUP2 CALLDATALOAD SWAP1 POP PUSH2 0xFE8 DUP2 PUSH2 0xFC2 JUMP JUMPDEST SWAP3 SWAP2 POP POP JUMP JUMPDEST PUSH1 0x0 DUP1 PUSH1 0x40 DUP4 DUP6 SUB SLT ISZERO PUSH2 0x1005 JUMPI PUSH2 0x1004 PUSH2 0xD81 JUMP JUMPDEST JUMPDEST PUSH1 0x0 DUP4 ADD CALLDATALOAD PUSH8 0xFFFFFFFFFFFFFFFF DUP2 GT ISZERO PUSH2 0x1023 JUMPI PUSH2 0x1022 PUSH2 0xD86 JUMP JUMPDEST JUMPDEST PUSH2 0x102F DUP6 DUP3 DUP7 ADD PUSH2 0xF24 JUMP JUMPDEST SWAP3 POP POP PUSH1 0x20 PUSH2 0x1040 DUP6 DUP3 DUP7 ADD PUSH2 0xFD9 JUMP JUMPDEST SWAP2 POP POP SWAP3 POP SWAP3 SWAP1 POP JUMP JUMPDEST PUSH1 0x0 DUP2 ISZERO ISZERO SWAP1 POP SWAP2 SWAP1 POP JUMP JUMPDEST PUSH2 0x105F DUP2 PUSH2 0x104A JUMP JUMPDEST DUP3 MSTORE POP POP JUMP JUMPDEST PUSH1 0x0 PUSH1 0x20 DUP3 ADD SWAP1 POP PUSH2 0x107A PUSH1 0x0 DUP4 ADD DUP5 PUSH2 0x1056 JUMP JUMPDEST SWAP3 SWAP2 POP POP JUMP JUMPDEST PUSH1 0x0 PUSH1 0x20 DUP3 DUP5 SUB SLT ISZERO PUSH2 0x1096 JUMPI PUSH2 0x1095 PUSH2 0xD81 JUMP JUMPDEST JUMPDEST PUSH1 0x0 PUSH2 0x10A4 DUP5 DUP3 DUP6 ADD PUSH2 0xFD9 JUMP JUMPDEST SWAP2 POP POP SWAP3 SWAP2 POP POP JUMP JUMPDEST PUSH1 0x0 DUP2 MLOAD SWAP1 POP SWAP2 SWAP1 POP JUMP JUMPDEST PUSH1 0x0 DUP3 DUP3 MSTORE PUSH1 0x20 DUP3 ADD SWAP1 POP SWAP3 SWAP2 POP POP JUMP JUMPDEST PUSH1 0x0 DUP2 SWAP1 POP PUSH1 0x20 DUP3 ADD SWAP1 POP SWAP2 SWAP1 POP JUMP JUMPDEST PUSH2 0x10E2 DUP2 PUSH2 0xE21 JUMP JUMPDEST DUP3 MSTORE POP POP JUMP JUMPDEST PUSH1 0x0 DUP2 MLOAD SWAP1 POP SWAP2 SWAP1 POP JUMP JUMPDEST PUSH1 0x0 DUP3 DUP3 MSTORE PUSH1 0x20 DUP3 ADD SWAP1 POP SWAP3 SWAP2 POP POP JUMP JUMPDEST PUSH1 0x0 DUP2 SWAP1 POP PUSH1 0x20 DUP3 ADD SWAP1 POP SWAP2 SWAP1 POP JUMP JUMPDEST PUSH1 0x0 PUSH2 0x1120 DUP4 DUP4 PUSH2 0x10D9 JUMP JUMPDEST PUSH1 0x20 DUP4 ADD SWAP1 POP SWAP3 SWAP2 POP POP JUMP JUMPDEST PUSH1 0x0 PUSH1 0x20 DUP3 ADD SWAP1 POP SWAP2 SWAP1 POP JUMP JUMPDEST PUSH1 0x0 PUSH2 0x1144 DUP3 PUSH2 0x10E8 JUMP JUMPDEST PUSH2 0x114E DUP2 DUP6 PUSH2 0x10F3 JUMP JUMPDEST SWAP4 POP PUSH2 0x1159 DUP4 PUSH2 0x1104 JUMP JUMPDEST DUP1 PUSH1 0x0 JUMPDEST DUP4 DUP2 LT ISZERO PUSH2 0x118A JUMPI DUP2 MLOAD PUSH2 0x1171 DUP9 DUP3 PUSH2 0x1114 JUMP JUMPDEST SWAP8 POP PUSH2 0x117C DUP4 PUSH2 0x112C JUMP JUMPDEST SWAP3 POP POP PUSH1 0x1 DUP2 ADD SWAP1 POP PUSH2 0x115D JUMP JUMPDEST POP DUP6 SWAP4 POP POP POP POP SWAP3 SWAP2 POP POP JUMP JUMPDEST PUSH1 0x0 PUSH1 0x80 DUP4 ADD PUSH1 0x0 DUP4 ADD MLOAD PUSH2 0x11AF PUSH1 0x0 DUP7 ADD DUP3 PUSH2 0x10D9 JUMP JUMPDEST POP PUSH1 0x20 DUP4 ADD MLOAD PUSH2 0x11C2 PUSH1 0x20 DUP7 ADD DUP3 PUSH2 0x10D9 JUMP JUMPDEST POP PUSH1 0x40 DUP4 ADD MLOAD PUSH2 0x11D5 PUSH1 0x40 DUP7 ADD DUP3 PUSH2 0x10D9 JUMP JUMPDEST POP PUSH1 0x60 DUP4 ADD MLOAD DUP5 DUP3 SUB PUSH1 0x60 DUP7 ADD MSTORE PUSH2 0x11ED DUP3 DUP3 PUSH2 0x1139 JUMP JUMPDEST SWAP2 POP POP DUP1 SWAP2 POP POP SWAP3 SWAP2 POP POP JUMP JUMPDEST PUSH1 0x0 PUSH2 0x1206 DUP4 DUP4 PUSH2 0x1197 JUMP JUMPDEST SWAP1 POP SWAP3 SWAP2 POP POP JUMP JUMPDEST PUSH1 0x0 PUSH1 0x20 DUP3 ADD SWAP1 POP SWAP2 SWAP1 POP JUMP JUMPDEST PUSH1 0x0 PUSH2 0x1226 DUP3 PUSH2 0x10AD JUMP JUMPDEST PUSH2 0x1230 DUP2 DUP6 PUSH2 0x10B8 JUMP JUMPDEST SWAP4 POP DUP4 PUSH1 0x20 DUP3 MUL DUP6 ADD PUSH2 0x1242 DUP6 PUSH2 0x10C9 JUMP JUMPDEST DUP1 PUSH1 0x0 JUMPDEST DUP6 DUP2 LT ISZERO PUSH2 0x127E JUMPI DUP5 DUP5 SUB DUP10 MSTORE DUP2 MLOAD PUSH2 0x125F DUP6 DUP3 PUSH2 0x11FA JUMP JUMPDEST SWAP5 POP PUSH2 0x126A DUP4 PUSH2 0x120E JUMP JUMPDEST SWAP3 POP PUSH1 0x20 DUP11 ADD SWAP10 POP POP PUSH1 0x1 DUP2 ADD SWAP1 POP PUSH2 0x1246 JUMP JUMPDEST POP DUP3 SWAP8 POP DUP8 SWAP6 POP POP POP POP POP POP SWAP3 SWAP2 POP POP JUMP JUMPDEST PUSH1 0x0 PUSH1 0x20 DUP3 ADD SWAP1 POP DUP2 DUP2 SUB PUSH1 0x0 DUP4 ADD MSTORE PUSH2 0x12AA DUP2 DUP5 PUSH2 0x121B JUMP JUMPDEST SWAP1 POP SWAP3 SWAP2 POP POP JUMP JUMPDEST PUSH1 0x0 DUP2 MLOAD SWAP1 POP SWAP2 SWAP1 POP JUMP JUMPDEST PUSH1 0x0 DUP3 DUP3 MSTORE PUSH1 0x20 DUP3 ADD SWAP1 POP SWAP3 SWAP2 POP POP JUMP JUMPDEST PUSH1 0x0 DUP2 SWAP1 POP PUSH1 0x20 DUP3 ADD SWAP1 POP SWAP2 SWAP1 POP JUMP JUMPDEST PUSH1 0xA0 DUP3 ADD PUSH1 0x0 DUP3 ADD MLOAD PUSH2 0x12F4 PUSH1 0x0 DUP6 ADD DUP3 PUSH2 0x10D9 JUMP JUMPDEST POP PUSH1 0x20 DUP3 ADD MLOAD PUSH2 0x1307 PUSH1 0x20 DUP6 ADD DUP3 PUSH2 0x10D9 JUMP JUMPDEST POP PUSH1 0x40 DUP3 ADD MLOAD PUSH2 0x131A PUSH1 0x40 DUP6 ADD DUP3 PUSH2 0x10D9 JUMP JUMPDEST POP PUSH1 0x60 DUP3 ADD MLOAD PUSH2 0x132D PUSH1 0x60 DUP6 ADD DUP3 PUSH2 0x10D9 JUMP JUMPDEST POP PUSH1 0x80 DUP3 ADD MLOAD PUSH2 0x1340 PUSH1 0x80 DUP6 ADD DUP3 PUSH2 0x10D9 JUMP JUMPDEST POP POP POP POP JUMP JUMPDEST PUSH1 0x0 PUSH2 0x1352 DUP4 DUP4 PUSH2 0x12DE JUMP JUMPDEST PUSH1 0xA0 DUP4 ADD SWAP1 POP SWAP3 SWAP2 POP POP JUMP JUMPDEST PUSH1 0x0 PUSH1 0x20 DUP3 ADD SWAP1 POP SWAP2 SWAP1 POP JUMP JUMPDEST PUSH1 0x0 PUSH2 0x1376 DUP3 PUSH2 0x12B2 JUMP JUMPDEST PUSH2 0x1380 DUP2 DUP6 PUSH2 0x12BD JUMP JUMPDEST SWAP4 POP PUSH2 0x138B DUP4 PUSH2 0x12CE JUMP JUMPDEST DUP1 PUSH1 0x0 JUMPDEST DUP4 DUP2 LT ISZERO PUSH2 0x13BC JUMPI DUP2 MLOAD PUSH2 0x13A3 DUP9 DUP3 PUSH2 0x1346 JUMP JUMPDEST SWAP8 POP PUSH2 0x13AE DUP4 PUSH2 0x135E JUMP JUMPDEST SWAP3 POP POP PUSH1 0x1 DUP2 ADD SWAP1 POP PUSH2 0x138F JUMP JUMPDEST POP DUP6 SWAP4 POP POP POP POP SWAP3 SWAP2 POP POP JUMP JUMPDEST PUSH1 0x0 PUSH1 0x20 DUP3 ADD SWAP1 POP DUP2 DUP2 SUB PUSH1 0x0 DUP4 ADD MSTORE PUSH2 0x13E3 DUP2 DUP5 PUSH2 0x136B JUMP JUMPDEST SWAP1 POP SWAP3 SWAP2 POP POP JUMP JUMPDEST PUSH1 0x0 DUP2 MLOAD SWAP1 POP SWAP2 SWAP1 POP JUMP JUMPDEST PUSH1 0x0 DUP3 DUP3 MSTORE PUSH1 0x20 DUP3 ADD SWAP1 POP SWAP3 SWAP2 POP POP JUMP JUMPDEST PUSH1 0x0 DUP2 SWAP1 POP PUSH1 0x20 DUP3 ADD SWAP1 POP SWAP2 SWAP1 POP JUMP JUMPDEST PUSH1 0x0 PUSH1 0xC0 DUP4 ADD PUSH1 0x0 DUP4 ADD MLOAD PUSH2 0x142F PUSH1 0x0 DUP7 ADD DUP3 PUSH2 0x10D9 JUMP JUMPDEST POP PUSH1 0x20 DUP4 ADD MLOAD PUSH2 0x1442 PUSH1 0x20 DUP7 ADD DUP3 PUSH2 0x10D9 JUMP JUMPDEST POP PUSH1 0x40 DUP4 ADD MLOAD DUP5 DUP3 SUB PUSH1 0x40 DUP7 ADD MSTORE PUSH2 0x145A DUP3 DUP3 PUSH2 0x1139 JUMP JUMPDEST SWAP2 POP POP PUSH1 0x60 DUP4 ADD MLOAD PUSH2 0x146F PUSH1 0x60 DUP7 ADD DUP3 PUSH2 0x10D9 JUMP JUMPDEST POP PUSH1 0x80 DUP4 ADD MLOAD PUSH2 0x1482 PUSH1 0x80 DUP7 ADD DUP3 PUSH2 0x10D9 JUMP JUMPDEST POP PUSH1 0xA0 DUP4 ADD MLOAD PUSH2 0x1495 PUSH1 0xA0 DUP7 ADD DUP3 PUSH2 0x10D9 JUMP JUMPDEST POP DUP1 SWAP2 POP POP SWAP3 SWAP2 POP POP JUMP JUMPDEST PUSH1 0x0 PUSH2 0x14AC DUP4 DUP4 PUSH2 0x1417 JUMP JUMPDEST SWAP1 POP SWAP3 SWAP2 POP POP JUMP JUMPDEST PUSH1 0x0 PUSH1 0x20 DUP3 ADD SWAP1 POP SWAP2 SWAP1 POP JUMP JUMPDEST PUSH1 0x0 PUSH2 0x14CC DUP3 PUSH2 0x13EB JUMP JUMPDEST PUSH2 0x14D6 DUP2 DUP6 PUSH2 0x13F6 JUMP JUMPDEST SWAP4 POP DUP4 PUSH1 0x20 DUP3 MUL DUP6 ADD PUSH2 0x14E8 DUP6 PUSH2 0x1407 JUMP JUMPDEST DUP1 PUSH1 0x0 JUMPDEST DUP6 DUP2 LT ISZERO PUSH2 0x1524 JUMPI DUP5 DUP5 SUB DUP10 MSTORE DUP2 MLOAD PUSH2 0x1505 DUP6 DUP3 PUSH2 0x14A0 JUMP JUMPDEST SWAP5 POP PUSH2 0x1510 DUP4 PUSH2 0x14B4 JUMP JUMPDEST SWAP3 POP PUSH1 0x20 DUP11 ADD SWAP10 POP POP PUSH1 0x1 DUP2 ADD SWAP1 POP PUSH2 0x14EC JUMP JUMPDEST POP DUP3 SWAP8 POP DUP8 SWAP6 POP POP POP POP POP POP SWAP3 SWAP2 POP POP JUMP JUMPDEST PUSH1 0x0 PUSH1 0x20 DUP3 ADD SWAP1 POP DUP2 DUP2 SUB PUSH1 0x0 DUP4 ADD MSTORE PUSH2 0x1550 DUP2 DUP5 PUSH2 0x14C1 JUMP JUMPDEST SWAP1 POP SWAP3 SWAP2 POP POP JUMP JUMPDEST PUSH1 0x0 DUP2 MLOAD SWAP1 POP SWAP2 SWAP1 POP JUMP JUMPDEST PUSH1 0x0 DUP3 DUP3 MSTORE PUSH1 0x20 DUP3 ADD SWAP1 POP SWAP3 SWAP2 POP POP JUMP JUMPDEST PUSH1 0x0 DUP2 SWAP1 POP PUSH1 0x20 DUP3 ADD SWAP1 POP SWAP2 SWAP1 POP JUMP JUMPDEST PUSH1 0x0 PUSH20 0xFFFFFFFFFFFFFFFFFFFFFFFFFFFFFFFFFFFFFFFF DUP3 AND SWAP1 POP SWAP2 SWAP1 POP JUMP JUMPDEST PUSH1 0x0 PUSH2 0x15AF DUP3 PUSH2 0x1584 JUMP JUMPDEST SWAP1 POP SWAP2 SWAP1 POP JUMP JUMPDEST PUSH2 0x15BF DUP2 PUSH2 0x15A4 JUMP JUMPDEST DUP3 MSTORE POP POP JUMP JUMPDEST PUSH1 0x60 DUP3 ADD PUSH1 0x0 DUP3 ADD MLOAD PUSH2 0x15DB PUSH1 0x0 DUP6 ADD DUP3 PUSH2 0x10D9 JUMP JUMPDEST POP PUSH1 0x20 DUP3 ADD MLOAD PUSH2 0x15EE PUSH1 0x20 DUP6 ADD DUP3 PUSH2 0x15B6 JUMP JUMPDEST POP PUSH1 0x40 DUP3 ADD MLOAD PUSH2 0x1601 PUSH1 0x40 DUP6 ADD DUP3 PUSH2 0x10D9 JUMP JUMPDEST POP POP POP POP JUMP JUMPDEST PUSH1 0x0 PUSH2 0x1613 DUP4 DUP4 PUSH2 0x15C5 JUMP JUMPDEST PUSH1 0x60 DUP4 ADD SWAP1 POP SWAP3 SWAP2 POP POP JUMP JUMPDEST PUSH1 0x0 PUSH1 0x20 DUP3 ADD SWAP1 POP SWAP2 SWAP1 POP JUMP JUMPDEST PUSH1 0x0 PUSH2 0x1637 DUP3 PUSH2 0x1558 JUMP JUMPDEST PUSH2 0x1641 DUP2 DUP6 PUSH2 0x1563 JUMP JUMPDEST SWAP4 POP PUSH2 0x164C DUP4 PUSH2 0x1574 JUMP JUMPDEST DUP1 PUSH1 0x0 JUMPDEST DUP4 DUP2 LT ISZERO PUSH2 0x167D JUMPI DUP2 MLOAD PUSH2 0x1664 DUP9 DUP3 PUSH2 0x1607 JUMP JUMPDEST SWAP8 POP PUSH2 0x166F DUP4 PUSH2 0x161F JUMP JUMPDEST SWAP3 POP POP PUSH1 0x1 DUP2 ADD SWAP1 POP PUSH2 0x1650 JUMP JUMPDEST POP DUP6 SWAP4 POP POP POP POP SWAP3 SWAP2 POP POP JUMP JUMPDEST PUSH1 0x0 PUSH1 0x20 DUP3 ADD SWAP1 POP DUP2 DUP2 SUB PUSH1 0x0 DUP4 ADD MSTORE PUSH2 0x16A4 DUP2 DUP5 PUSH2 0x162C JUMP JUMPDEST SWAP1 POP SWAP3 SWAP2 POP POP JUMP JUMPDEST PUSH2 0x16B5 DUP2 PUSH2 0x15A4 JUMP JUMPDEST DUP2 EQ PUSH2 0x16C0 JUMPI PUSH1 0x0 DUP1 REVERT JUMPDEST POP JUMP JUMPDEST PUSH1 0x0 DUP2 CALLDATALOAD SWAP1 POP PUSH2 0x16D2 DUP2 PUSH2 0x16AC JUMP JUMPDEST SWAP3 SWAP2 POP POP JUMP JUMPDEST PUSH1 0x0 PUSH1 0x60 DUP3 DUP5 SUB SLT ISZERO PUSH2 0x16EE JUMPI PUSH2 0x16ED PUSH2 0xD8B JUMP JUMPDEST JUMPDEST PUSH2 0x16F8 PUSH1 0x60 PUSH2 0xE01 JUMP JUMPDEST SWAP1 POP PUSH1 0x0 PUSH2 0x1708 DUP5 DUP3 DUP6 ADD PUSH2 0xE42 JUMP JUMPDEST PUSH1 0x0 DUP4 ADD MSTORE POP PUSH1 0x20 PUSH2 0x171C DUP5 DUP3 DUP6 ADD PUSH2 0x16C3 JUMP JUMPDEST PUSH1 0x20 DUP4 ADD MSTORE POP PUSH1 0x40 PUSH2 0x1730 DUP5 DUP3 DUP6 ADD PUSH2 0xE42 JUMP JUMPDEST PUSH1 0x40 DUP4 ADD MSTORE POP SWAP3 SWAP2 POP POP JUMP JUMPDEST PUSH1 0x0 DUP1 PUSH1 0x80 DUP4 DUP6 SUB SLT ISZERO PUSH2 0x1753 JUMPI PUSH2 0x1752 PUSH2 0xD81 JUMP JUMPDEST JUMPDEST PUSH1 0x0 PUSH2 0x1761 DUP6 DUP3 DUP7 ADD PUSH2 0x16D8 JUMP JUMPDEST SWAP3 POP POP PUSH1 0x60 PUSH2 0x1772 DUP6 DUP3 DUP7 ADD PUSH2 0xFD9 JUMP JUMPDEST SWAP2 POP POP SWAP3 POP SWAP3 SWAP1 POP JUMP JUMPDEST PUSH1 0x0 PUSH1 0xA0 DUP3 DUP5 SUB SLT ISZERO PUSH2 0x1792 JUMPI PUSH2 0x1791 PUSH2 0xD8B JUMP JUMPDEST JUMPDEST PUSH2 0x179C PUSH1 0xA0 PUSH2 0xE01 JUMP JUMPDEST SWAP1 POP PUSH1 0x0 PUSH2 0x17AC DUP5 DUP3 DUP6 ADD PUSH2 0xE42 JUMP JUMPDEST PUSH1 0x0 DUP4 ADD MSTORE POP PUSH1 0x20 PUSH2 0x17C0 DUP5 DUP3 DUP6 ADD PUSH2 0xE42 JUMP JUMPDEST PUSH1 0x20 DUP4 ADD MSTORE POP PUSH1 0x40 PUSH2 0x17D4 DUP5 DUP3 DUP6 ADD PUSH2 0xE42 JUMP JUMPDEST PUSH1 0x40 DUP4 ADD MSTORE POP PUSH1 0x60 PUSH2 0x17E8 DUP5 DUP3 DUP6 ADD PUSH2 0xE42 JUMP JUMPDEST PUSH1 0x60 DUP4 ADD MSTORE POP PUSH1 0x80 PUSH2 0x17FC DUP5 DUP3 DUP6 ADD PUSH2 0xE42 JUMP JUMPDEST PUSH1 0x80 DUP4 ADD MSTORE POP SWAP3 SWAP2 POP POP JUMP JUMPDEST PUSH1 0x0 DUP1 PUSH1 0xC0 DUP4 DUP6 SUB SLT ISZERO PUSH2 0x181F JUMPI PUSH2 0x181E PUSH2 0xD81 JUMP JUMPDEST JUMPDEST PUSH1 0x0 PUSH2 0x182D DUP6 DUP3 DUP7 ADD PUSH2 0x177C JUMP JUMPDEST SWAP3 POP POP PUSH1 0xA0 PUSH2 0x183E DUP6 DUP3 DUP7 ADD PUSH2 0xFD9 JUMP JUMPDEST SWAP2 POP POP SWAP3 POP SWAP3 SWAP1 POP JUMP JUMPDEST PUSH2 0x1851 DUP2 PUSH2 0x15A4 JUMP JUMPDEST DUP3 MSTORE POP POP JUMP JUMPDEST PUSH1 0x0 PUSH1 0x20 DUP3 ADD SWAP1 POP PUSH2 0x186C PUSH1 0x0 DUP4 ADD DUP5 PUSH2 0x1848 JUMP JUMPDEST SWAP3 SWAP2 POP POP JUMP JUMPDEST PUSH1 0x0 PUSH1 0xC0 DUP3 DUP5 SUB SLT ISZERO PUSH2 0x1888 JUMPI PUSH2 0x1887 PUSH2 0xD8B JUMP JUMPDEST JUMPDEST PUSH2 0x1892 PUSH1 0xC0 PUSH2 0xE01 JUMP JUMPDEST SWAP1 POP PUSH1 0x0 PUSH2 0x18A2 DUP5 DUP3 DUP6 ADD PUSH2 0xE42 JUMP JUMPDEST PUSH1 0x0 DUP4 ADD MSTORE POP PUSH1 0x20 PUSH2 0x18B6 DUP5 DUP3 DUP6 ADD PUSH2 0xE42 JUMP JUMPDEST PUSH1 0x20 DUP4 ADD MSTORE POP PUSH1 0x40 DUP3 ADD CALLDATALOAD PUSH8 0xFFFFFFFFFFFFFFFF DUP2 GT ISZERO PUSH2 0x18DA JUMPI PUSH2 0x18D9 PUSH2 0xE1C JUMP JUMPDEST JUMPDEST PUSH2 0x18E6 DUP5 DUP3 DUP6 ADD PUSH2 0xEF6 JUMP JUMPDEST PUSH1 0x40 DUP4 ADD MSTORE POP PUSH1 0x60 PUSH2 0x18FA DUP5 DUP3 DUP6 ADD PUSH2 0xE42 JUMP JUMPDEST PUSH1 0x60 DUP4 ADD MSTORE POP PUSH1 0x80 PUSH2 0x190E DUP5 DUP3 DUP6 ADD PUSH2 0xE42 JUMP JUMPDEST PUSH1 0x80 DUP4 ADD MSTORE POP PUSH1 0xA0 PUSH2 0x1922 DUP5 DUP3 DUP6 ADD PUSH2 0xE42 JUMP JUMPDEST PUSH1 0xA0 DUP4 ADD MSTORE POP SWAP3 SWAP2 POP POP JUMP JUMPDEST PUSH1 0x0 DUP1 PUSH1 0x40 DUP4 DUP6 SUB SLT ISZERO PUSH2 0x1945 JUMPI PUSH2 0x1944 PUSH2 0xD81 JUMP JUMPDEST JUMPDEST PUSH1 0x0 DUP4 ADD CALLDATALOAD PUSH8 0xFFFFFFFFFFFFFFFF DUP2 GT ISZERO PUSH2 0x1963 JUMPI PUSH2 0x1962 PUSH2 0xD86 JUMP JUMPDEST JUMPDEST PUSH2 0x196F DUP6 DUP3 DUP7 ADD PUSH2 0x1872 JUMP JUMPDEST SWAP3 POP POP PUSH1 0x20 PUSH2 0x1980 DUP6 DUP3 DUP7 ADD PUSH2 0xFD9 JUMP JUMPDEST SWAP2 POP POP SWAP3 POP SWAP3 SWAP1 POP JUMP JUMPDEST PUSH1 0x0 PUSH1 0x20 DUP3 DUP5 SUB SLT ISZERO PUSH2 0x19A0 JUMPI PUSH2 0x199F PUSH2 0xD81 JUMP JUMPDEST JUMPDEST PUSH1 0x0 PUSH2 0x19AE DUP5 DUP3 DUP6 ADD PUSH2 0x16C3 JUMP JUMPDEST SWAP2 POP POP SWAP3 SWAP2 POP POP JUMP JUMPDEST PUSH1 0x0 DUP3 DUP3 MSTORE PUSH1 0x20 DUP3 ADD SWAP1 POP SWAP3 SWAP2 POP POP JUMP JUMPDEST PUSH32 0x44617461626173652050726F63657373696E6744617461626173653A20536563 PUSH1 0x0 DUP3 ADD MSTORE PUSH32 0x726574206B6579206572726F7200000000000000000000000000000000000000 PUSH1 0x20 DUP3 ADD MSTORE POP JUMP JUMPDEST PUSH1 0x0 PUSH2 0x1A24 PUSH1 0x2D DUP4 PUSH2 0x19B7 JUMP JUMPDEST SWAP2 POP PUSH2 0x1A2F DUP3 PUSH2 0x19C8 JUMP JUMPDEST PUSH1 0x40 DUP3 ADD SWAP1 POP SWAP2 SWAP1 POP JUMP JUMPDEST PUSH1 0x0 PUSH1 0x20 DUP3 ADD SWAP1 POP DUP2 DUP2 SUB PUSH1 0x0 DUP4 ADD MSTORE PUSH2 0x1A53 DUP2 PUSH2 0x1A17 JUMP JUMPDEST SWAP1 POP SWAP2 SWAP1 POP JUMP JUMPDEST PUSH32 0x4F776E61626C653A206E6577206F776E657220697320746865207A65726F2061 PUSH1 0x0 DUP3 ADD MSTORE PUSH32 0x6464726573730000000000000000000000000000000000000000000000000000 PUSH1 0x20 DUP3 ADD MSTORE POP JUMP JUMPDEST PUSH1 0x0 PUSH2 0x1AB6 PUSH1 0x26 DUP4 PUSH2 0x19B7 JUMP JUMPDEST SWAP2 POP PUSH2 0x1AC1 DUP3 PUSH2 0x1A5A JUMP JUMPDEST PUSH1 0x40 DUP3 ADD SWAP1 POP SWAP2 SWAP1 POP JUMP JUMPDEST PUSH1 0x0 PUSH1 0x20 DUP3 ADD SWAP1 POP DUP2 DUP2 SUB PUSH1 0x0 DUP4 ADD MSTORE PUSH2 0x1AE5 DUP2 PUSH2 0x1AA9 JUMP JUMPDEST SWAP1 POP SWAP2 SWAP1 POP JUMP JUMPDEST PUSH32 0x4F776E61626C653A2063616C6C6572206973206E6F7420746865206F776E6572 PUSH1 0x0 DUP3 ADD MSTORE POP JUMP JUMPDEST PUSH1 0x0 PUSH2 0x1B22 PUSH1 0x20 DUP4 PUSH2 0x19B7 JUMP JUMPDEST SWAP2 POP PUSH2 0x1B2D DUP3 PUSH2 0x1AEC JUMP JUMPDEST PUSH1 0x20 DUP3 ADD SWAP1 POP SWAP2 SWAP1 POP JUMP JUMPDEST PUSH1 0x0 PUSH1 0x20 DUP3 ADD SWAP1 POP DUP2 DUP2 SUB PUSH1 0x0 DUP4 ADD MSTORE PUSH2 0x1B51 DUP2 PUSH2 0x1B15 JUMP JUMPDEST SWAP1 POP SWAP2 SWAP1 POP JUMP INVALID LOG2 PUSH5 0x6970667358 0x22 SLT KECCAK256 PUSH13 0xC35C79D6631BB946EDA967D25C 0xCC 0x1E 0xC 0xC9 PUSH24 0xA3093673E6003E616DA207942064736F6C63430008110033 "
				},
				"gasEstimates": {
					"creation": {
						"codeDepositCost": "1410800",
						"executionCost": "25738",
						"totalCost": "1436538"
					},
					"external": {
						"addFolWarehouse((uint256,uint256,uint256,uint256,uint256),bytes32)": "infinite",
						"addPreWarehouse((uint256,uint256,uint256[],uint256,uint256,uint256),bytes32)": "infinite",
						"addProcessing((uint256,uint256,uint256,uint256[]),bytes32)": "infinite",
						"addProcessor((uint256,address,uint256),bytes32)": "infinite",
						"destroy()": "30016",
						"getListFolWarehouse(bytes32)": "infinite",
						"getListPreWarehouse(bytes32)": "infinite",
						"getListProcessing(bytes32)": "infinite",
						"getListProcessor(bytes32)": "infinite",
						"owner()": "2588",
						"transferOwnership(address)": "30819"
					}
				},
				"methodIdentifiers": {
					"addFolWarehouse((uint256,uint256,uint256,uint256,uint256),bytes32)": "4269e28b",
					"addPreWarehouse((uint256,uint256,uint256[],uint256,uint256,uint256),bytes32)": "cb7c5c50",
					"addProcessing((uint256,uint256,uint256,uint256[]),bytes32)": "021ca464",
					"addProcessor((uint256,address,uint256),bytes32)": "318ee31a",
					"destroy()": "83197ef0",
					"getListFolWarehouse(bytes32)": "1d769a9e",
					"getListPreWarehouse(bytes32)": "270b3869",
					"getListProcessing(bytes32)": "03970403",
					"getListProcessor(bytes32)": "2ae72d06",
					"owner()": "8da5cb5b",
					"transferOwnership(address)": "f2fde38b"
				}
			},
			"storageLayout": {
				"storage": [
					{
						"astId": 4,
						"contract": "database/processing/ProcessingDatabase.sol:ProcessingDatabase",
						"label": "_owner",
						"offset": 0,
						"slot": "0",
						"type": "t_address"
					},
					{
						"astId": 370,
						"contract": "database/processing/ProcessingDatabase.sol:ProcessingDatabase",
						"label": "listProcessor",
						"offset": 0,
						"slot": "1",
						"type": "t_array(t_struct(Processor)628_storage)dyn_storage"
					},
					{
						"astId": 374,
						"contract": "database/processing/ProcessingDatabase.sol:ProcessingDatabase",
						"label": "listProcessing",
						"offset": 0,
						"slot": "2",
						"type": "t_array(t_struct(Processing)619_storage)dyn_storage"
					},
					{
						"astId": 378,
						"contract": "database/processing/ProcessingDatabase.sol:ProcessingDatabase",
						"label": "listFolWarehouse",
						"offset": 0,
						"slot": "3",
						"type": "t_array(t_struct(FolWarehouse)591_storage)dyn_storage"
					},
					{
						"astId": 382,
						"contract": "database/processing/ProcessingDatabase.sol:ProcessingDatabase",
						"label": "listPreWarehouse",
						"offset": 0,
						"slot": "4",
						"type": "t_array(t_struct(PreWarehouse)607_storage)dyn_storage"
					}
				],
				"types": {
					"t_address": {
						"encoding": "inplace",
						"label": "address",
						"numberOfBytes": "20"
					},
					"t_array(t_struct(FolWarehouse)591_storage)dyn_storage": {
						"base": "t_struct(FolWarehouse)591_storage",
						"encoding": "dynamic_array",
						"label": "struct FolWarehouse[]",
						"numberOfBytes": "32"
					},
					"t_array(t_struct(PreWarehouse)607_storage)dyn_storage": {
						"base": "t_struct(PreWarehouse)607_storage",
						"encoding": "dynamic_array",
						"label": "struct PreWarehouse[]",
						"numberOfBytes": "32"
					},
					"t_array(t_struct(Processing)619_storage)dyn_storage": {
						"base": "t_struct(Processing)619_storage",
						"encoding": "dynamic_array",
						"label": "struct Processing[]",
						"numberOfBytes": "32"
					},
					"t_array(t_struct(Processor)628_storage)dyn_storage": {
						"base": "t_struct(Processor)628_storage",
						"encoding": "dynamic_array",
						"label": "struct Processor[]",
						"numberOfBytes": "32"
					},
					"t_array(t_uint256)dyn_storage": {
						"base": "t_uint256",
						"encoding": "dynamic_array",
						"label": "uint256[]",
						"numberOfBytes": "32"
					},
					"t_struct(FolWarehouse)591_storage": {
						"encoding": "inplace",
						"label": "struct FolWarehouse",
						"members": [
							{
								"astId": 582,
								"contract": "database/processing/ProcessingDatabase.sol:ProcessingDatabase",
								"label": "batchId",
								"offset": 0,
								"slot": "0",
								"type": "t_uint256"
							},
							{
								"astId": 584,
								"contract": "database/processing/ProcessingDatabase.sol:ProcessingDatabase",
								"label": "processingId",
								"offset": 0,
								"slot": "1",
								"type": "t_uint256"
							},
							{
								"astId": 586,
								"contract": "database/processing/ProcessingDatabase.sol:ProcessingDatabase",
								"label": "category",
								"offset": 0,
								"slot": "2",
								"type": "t_uint256"
							},
							{
								"astId": 588,
								"contract": "database/processing/ProcessingDatabase.sol:ProcessingDatabase",
								"label": "time",
								"offset": 0,
								"slot": "3",
								"type": "t_uint256"
							},
							{
								"astId": 590,
								"contract": "database/processing/ProcessingDatabase.sol:ProcessingDatabase",
								"label": "quantity",
								"offset": 0,
								"slot": "4",
								"type": "t_uint256"
							}
						],
						"numberOfBytes": "160"
					},
					"t_struct(PreWarehouse)607_storage": {
						"encoding": "inplace",
						"label": "struct PreWarehouse",
						"members": [
							{
								"astId": 595,
								"contract": "database/processing/ProcessingDatabase.sol:ProcessingDatabase",
								"label": "batchId",
								"offset": 0,
								"slot": "0",
								"type": "t_uint256"
							},
							{
								"astId": 597,
								"contract": "database/processing/ProcessingDatabase.sol:ProcessingDatabase",
								"label": "processorId",
								"offset": 0,
								"slot": "1",
								"type": "t_uint256"
							},
							{
								"astId": 600,
								"contract": "database/processing/ProcessingDatabase.sol:ProcessingDatabase",
								"label": "listbatchId",
								"offset": 0,
								"slot": "2",
								"type": "t_array(t_uint256)dyn_storage"
							},
							{
								"astId": 602,
								"contract": "database/processing/ProcessingDatabase.sol:ProcessingDatabase",
								"label": "category",
								"offset": 0,
								"slot": "3",
								"type": "t_uint256"
							},
							{
								"astId": 604,
								"contract": "database/processing/ProcessingDatabase.sol:ProcessingDatabase",
								"label": "time",
								"offset": 0,
								"slot": "4",
								"type": "t_uint256"
							},
							{
								"astId": 606,
								"contract": "database/processing/ProcessingDatabase.sol:ProcessingDatabase",
								"label": "quantity",
								"offset": 0,
								"slot": "5",
								"type": "t_uint256"
							}
						],
						"numberOfBytes": "192"
					},
					"t_struct(Processing)619_storage": {
						"encoding": "inplace",
						"label": "struct Processing",
						"members": [
							{
								"astId": 611,
								"contract": "database/processing/ProcessingDatabase.sol:ProcessingDatabase",
								"label": "processingId",
								"offset": 0,
								"slot": "0",
								"type": "t_uint256"
							},
							{
								"astId": 613,
								"contract": "database/processing/ProcessingDatabase.sol:ProcessingDatabase",
								"label": "processorId",
								"offset": 0,
								"slot": "1",
								"type": "t_uint256"
							},
							{
								"astId": 615,
								"contract": "database/processing/ProcessingDatabase.sol:ProcessingDatabase",
								"label": "category",
								"offset": 0,
								"slot": "2",
								"type": "t_uint256"
							},
							{
								"astId": 618,
								"contract": "database/processing/ProcessingDatabase.sol:ProcessingDatabase",
								"label": "listBatchId",
								"offset": 0,
								"slot": "3",
								"type": "t_array(t_uint256)dyn_storage"
							}
						],
						"numberOfBytes": "128"
					},
					"t_struct(Processor)628_storage": {
						"encoding": "inplace",
						"label": "struct Processor",
						"members": [
							{
								"astId": 623,
								"contract": "database/processing/ProcessingDatabase.sol:ProcessingDatabase",
								"label": "processorId",
								"offset": 0,
								"slot": "0",
								"type": "t_uint256"
							},
							{
								"astId": 625,
								"contract": "database/processing/ProcessingDatabase.sol:ProcessingDatabase",
								"label": "processorAddress",
								"offset": 0,
								"slot": "1",
								"type": "t_address"
							},
							{
								"astId": 627,
								"contract": "database/processing/ProcessingDatabase.sol:ProcessingDatabase",
								"label": "category",
								"offset": 0,
								"slot": "2",
								"type": "t_uint256"
							}
						],
						"numberOfBytes": "96"
					},
					"t_uint256": {
						"encoding": "inplace",
						"label": "uint256",
						"numberOfBytes": "32"
					}
				}
			},
			"userdoc": {
				"kind": "user",
				"methods": {},
				"version": 1
			}
		}
	}
}