{
	"database/batch/BatchDatabase.sol": {
		"BatchDatabase": {
			"abi": [
				{
					"inputs": [],
					"stateMutability": "nonpayable",
					"type": "constructor"
				},
				{
					"anonymous": false,
					"inputs": [
						{
							"indexed": true,
							"internalType": "address",
							"name": "previousOwner",
							"type": "address"
						},
						{
							"indexed": true,
							"internalType": "address",
							"name": "newOwner",
							"type": "address"
						}
					],
					"name": "OwnershipTransferred",
					"type": "event"
				},
				{
					"inputs": [
						{
							"components": [
								{
									"internalType": "uint256",
									"name": "batchId",
									"type": "uint256"
								},
								{
									"internalType": "uint256",
									"name": "userId",
									"type": "uint256"
								},
								{
									"internalType": "uint256",
									"name": "teamId",
									"type": "uint256"
								},
								{
									"internalType": "string",
									"name": "batchName",
									"type": "string"
								},
								{
									"internalType": "uint256",
									"name": "numOfProcess",
									"type": "uint256"
								},
								{
									"internalType": "string",
									"name": "categories",
									"type": "string"
								},
								{
									"internalType": "string",
									"name": "verifyCode",
									"type": "string"
								},
								{
									"internalType": "bool",
									"name": "batchIsChecked",
									"type": "bool"
								}
							],
							"internalType": "struct Batch",
							"name": "batch",
							"type": "tuple"
						}
					],
					"name": "addBatch",
					"outputs": [],
					"stateMutability": "nonpayable",
					"type": "function"
				},
				{
					"inputs": [
						{
							"internalType": "uint256",
							"name": "batchId",
							"type": "uint256"
						}
					],
					"name": "addChecked",
					"outputs": [],
					"stateMutability": "nonpayable",
					"type": "function"
				},
				{
					"inputs": [
						{
							"internalType": "address",
							"name": "contractPermission",
							"type": "address"
						}
					],
					"name": "addPermission",
					"outputs": [],
					"stateMutability": "nonpayable",
					"type": "function"
				},
				{
					"inputs": [],
					"name": "destroy",
					"outputs": [],
					"stateMutability": "nonpayable",
					"type": "function"
				},
				{
					"inputs": [],
					"name": "getAllBatch",
					"outputs": [
						{
							"components": [
								{
									"internalType": "uint256",
									"name": "batchId",
									"type": "uint256"
								},
								{
									"internalType": "uint256",
									"name": "userId",
									"type": "uint256"
								},
								{
									"internalType": "uint256",
									"name": "teamId",
									"type": "uint256"
								},
								{
									"internalType": "string",
									"name": "batchName",
									"type": "string"
								},
								{
									"internalType": "uint256",
									"name": "numOfProcess",
									"type": "uint256"
								},
								{
									"internalType": "string",
									"name": "categories",
									"type": "string"
								},
								{
									"internalType": "string",
									"name": "verifyCode",
									"type": "string"
								},
								{
									"internalType": "bool",
									"name": "batchIsChecked",
									"type": "bool"
								}
							],
							"internalType": "struct Batch[]",
							"name": "",
							"type": "tuple[]"
						}
					],
					"stateMutability": "view",
					"type": "function"
				},
				{
					"inputs": [],
					"name": "owner",
					"outputs": [
						{
							"internalType": "address",
							"name": "",
							"type": "address"
						}
					],
					"stateMutability": "view",
					"type": "function"
				},
				{
					"inputs": [
						{
							"internalType": "address",
							"name": "newOwner",
							"type": "address"
						}
					],
					"name": "transferOwnership",
					"outputs": [],
					"stateMutability": "nonpayable",
					"type": "function"
				}
			],
			"devdoc": {
				"kind": "dev",
				"methods": {
					"owner()": {
						"details": "Returns the address of the current owner."
					},
					"transferOwnership(address)": {
						"details": "Transfers ownership of the contract to a new account (`newOwner`). Can only be called by the current owner."
					}
				},
				"version": 1
			},
			"evm": {
				"assembly": "    /* \"database/batch/BatchDatabase.sol\":177:1232  contract BatchDatabase is Ownable {... */\n  mstore(0x40, 0x80)\n    /* \"database/batch/BatchDatabase.sol\":277:278  0 */\n  0x00\n    /* \"database/batch/BatchDatabase.sol\":245:278  uint256 private autoIncrement = 0 */\n  0x02\n  sstore\n    /* \"database/batch/BatchDatabase.sol\":527:553  constructor() Ownable() {} */\n  callvalue\n  dup1\n  iszero\n  tag_1\n  jumpi\n  0x00\n  dup1\n  revert\ntag_1:\n  pop\n    /* \"abstract/Ownable.sol\":1032:1042  msg.sender */\n  caller\n    /* \"abstract/Ownable.sol\":1023:1029  _owner */\n  0x00\n  dup1\n    /* \"abstract/Ownable.sol\":1023:1042  _owner = msg.sender */\n  0x0100\n  exp\n  dup2\n  sload\n  dup2\n  0xffffffffffffffffffffffffffffffffffffffff\n  mul\n  not\n  and\n  swap1\n  dup4\n  0xffffffffffffffffffffffffffffffffffffffff\n  and\n  mul\n  or\n  swap1\n  sstore\n  pop\n    /* \"database/batch/BatchDatabase.sol\":177:1232  contract BatchDatabase is Ownable {... */\n  dataSize(sub_0)\n  dup1\n  dataOffset(sub_0)\n  0x00\n  codecopy\n  0x00\n  return\nstop\n\nsub_0: assembly {\n        /* \"database/batch/BatchDatabase.sol\":177:1232  contract BatchDatabase is Ownable {... */\n      mstore(0x40, 0x80)\n      callvalue\n      dup1\n      iszero\n      tag_1\n      jumpi\n      0x00\n      dup1\n      revert\n    tag_1:\n      pop\n      jumpi(tag_2, lt(calldatasize, 0x04))\n      shr(0xe0, calldataload(0x00))\n      dup1\n      0x8da5cb5b\n      gt\n      tag_10\n      jumpi\n      dup1\n      0x8da5cb5b\n      eq\n      tag_6\n      jumpi\n      dup1\n      0xcad09ad6\n      eq\n      tag_7\n      jumpi\n      dup1\n      0xee416d5b\n      eq\n      tag_8\n      jumpi\n      dup1\n      0xf2fde38b\n      eq\n      tag_9\n      jumpi\n      jump(tag_2)\n    tag_10:\n      dup1\n      0x4d0a5dbd\n      eq\n      tag_3\n      jumpi\n      dup1\n      0x81e468b4\n      eq\n      tag_4\n      jumpi\n      dup1\n      0x83197ef0\n      eq\n      tag_5\n      jumpi\n    tag_2:\n      0x00\n      dup1\n      revert\n        /* \"database/batch/BatchDatabase.sol\":561:821  function addPermission(address contractPermission) public onlyOwner {... */\n    tag_3:\n      tag_11\n      0x04\n      dup1\n      calldatasize\n      sub\n      dup2\n      add\n      swap1\n      tag_12\n      swap2\n      swap1\n      tag_13\n      jump\t// in\n    tag_12:\n      tag_14\n      jump\t// in\n    tag_11:\n      stop\n        /* \"database/batch/BatchDatabase.sol\":829:993  function addBatch(Batch memory batch) public onlyPermissions {... */\n    tag_4:\n      tag_15\n      0x04\n      dup1\n      calldatasize\n      sub\n      dup2\n      add\n      swap1\n      tag_16\n      swap2\n      swap1\n      tag_17\n      jump\t// in\n    tag_16:\n      tag_18\n      jump\t// in\n    tag_15:\n      stop\n        /* \"abstract/Ownable.sol\":2801:2892  function destroy() public onlyOwner {... */\n    tag_5:\n      tag_19\n      tag_20\n      jump\t// in\n    tag_19:\n      stop\n        /* \"abstract/Ownable.sol\":1289:1376  function owner() public view virtual returns (address) {... */\n    tag_6:\n      tag_21\n      tag_22\n      jump\t// in\n    tag_21:\n      mload(0x40)\n      tag_23\n      swap2\n      swap1\n      tag_24\n      jump\t// in\n    tag_23:\n      mload(0x40)\n      dup1\n      swap2\n      sub\n      swap1\n      return\n        /* \"database/batch/BatchDatabase.sol\":1123:1229  function getAllBatch() public view onlyPermissions returns (Batch[] memory) {... */\n    tag_7:\n      tag_25\n      tag_26\n      jump\t// in\n    tag_25:\n      mload(0x40)\n      tag_27\n      swap2\n      swap1\n      tag_28\n      jump\t// in\n    tag_27:\n      mload(0x40)\n      dup1\n      swap2\n      sub\n      swap1\n      return\n        /* \"database/batch/BatchDatabase.sol\":1001:1115  function addChecked(uint256 batchId) public onlyPermissions {... */\n    tag_8:\n      tag_29\n      0x04\n      dup1\n      calldatasize\n      sub\n      dup2\n      add\n      swap1\n      tag_30\n      swap2\n      swap1\n      tag_31\n      jump\t// in\n    tag_30:\n      tag_32\n      jump\t// in\n    tag_29:\n      stop\n        /* \"abstract/Ownable.sol\":2204:2442  function transferOwnership(address newOwner) public virtual onlyOwner {... */\n    tag_9:\n      tag_33\n      0x04\n      dup1\n      calldatasize\n      sub\n      dup2\n      add\n      swap1\n      tag_34\n      swap2\n      swap1\n      tag_13\n      jump\t// in\n    tag_34:\n      tag_35\n      jump\t// in\n    tag_33:\n      stop\n        /* \"database/batch/BatchDatabase.sol\":561:821  function addPermission(address contractPermission) public onlyOwner {... */\n    tag_14:\n        /* \"abstract/Ownable.sol\":1175:1188  _checkOwner() */\n      tag_37\n        /* \"abstract/Ownable.sol\":1175:1186  _checkOwner */\n      tag_38\n        /* \"abstract/Ownable.sol\":1175:1188  _checkOwner() */\n      jump\t// in\n    tag_37:\n        /* \"database/batch/BatchDatabase.sol\":663:674  permissions */\n      0x03\n        /* \"database/batch/BatchDatabase.sol\":663:694  permissions[contractPermission] */\n      0x00\n        /* \"database/batch/BatchDatabase.sol\":675:693  contractPermission */\n      dup3\n        /* \"database/batch/BatchDatabase.sol\":663:694  permissions[contractPermission] */\n      0xffffffffffffffffffffffffffffffffffffffff\n      and\n      0xffffffffffffffffffffffffffffffffffffffff\n      and\n      dup2\n      mstore\n      0x20\n      add\n      swap1\n      dup2\n      mstore\n      0x20\n      add\n      0x00\n      keccak256\n      0x00\n      swap1\n      sload\n      swap1\n      0x0100\n      exp\n      swap1\n      div\n      0xff\n      and\n        /* \"database/batch/BatchDatabase.sol\":662:694  !permissions[contractPermission] */\n      iszero\n        /* \"database/batch/BatchDatabase.sol\":640:764  require(... */\n      tag_40\n      jumpi\n      mload(0x40)\n      0x08c379a000000000000000000000000000000000000000000000000000000000\n      dup2\n      mstore\n      0x04\n      add\n      tag_41\n      swap1\n      tag_42\n      jump\t// in\n    tag_41:\n      mload(0x40)\n      dup1\n      swap2\n      sub\n      swap1\n      revert\n    tag_40:\n        /* \"database/batch/BatchDatabase.sol\":809:813  true */\n      0x01\n        /* \"database/batch/BatchDatabase.sol\":775:786  permissions */\n      0x03\n        /* \"database/batch/BatchDatabase.sol\":775:806  permissions[contractPermission] */\n      0x00\n        /* \"database/batch/BatchDatabase.sol\":787:805  contractPermission */\n      dup4\n        /* \"database/batch/BatchDatabase.sol\":775:806  permissions[contractPermission] */\n      0xffffffffffffffffffffffffffffffffffffffff\n      and\n      0xffffffffffffffffffffffffffffffffffffffff\n      and\n      dup2\n      mstore\n      0x20\n      add\n      swap1\n      dup2\n      mstore\n      0x20\n      add\n      0x00\n      keccak256\n      0x00\n        /* \"database/batch/BatchDatabase.sol\":775:813  permissions[contractPermission] = true */\n      0x0100\n      exp\n      dup2\n      sload\n      dup2\n      0xff\n      mul\n      not\n      and\n      swap1\n      dup4\n      iszero\n      iszero\n      mul\n      or\n      swap1\n      sstore\n      pop\n        /* \"database/batch/BatchDatabase.sol\":561:821  function addPermission(address contractPermission) public onlyOwner {... */\n      pop\n      jump\t// out\n        /* \"database/batch/BatchDatabase.sol\":829:993  function addBatch(Batch memory batch) public onlyPermissions {... */\n    tag_18:\n        /* \"database/batch/BatchDatabase.sol\":400:411  permissions */\n      0x03\n        /* \"database/batch/BatchDatabase.sol\":400:425  permissions[_msgSender()] */\n      0x00\n        /* \"database/batch/BatchDatabase.sol\":412:424  _msgSender() */\n      tag_44\n        /* \"database/batch/BatchDatabase.sol\":412:422  _msgSender */\n      tag_45\n        /* \"database/batch/BatchDatabase.sol\":412:424  _msgSender() */\n      jump\t// in\n    tag_44:\n        /* \"database/batch/BatchDatabase.sol\":400:425  permissions[_msgSender()] */\n      0xffffffffffffffffffffffffffffffffffffffff\n      and\n      0xffffffffffffffffffffffffffffffffffffffff\n      and\n      dup2\n      mstore\n      0x20\n      add\n      swap1\n      dup2\n      mstore\n      0x20\n      add\n      0x00\n      keccak256\n      0x00\n      swap1\n      sload\n      swap1\n      0x0100\n      exp\n      swap1\n      div\n      0xff\n      and\n        /* \"database/batch/BatchDatabase.sol\":378:499  require(... */\n      tag_46\n      jumpi\n      mload(0x40)\n      0x08c379a000000000000000000000000000000000000000000000000000000000\n      dup2\n      mstore\n      0x04\n      add\n      tag_47\n      swap1\n      tag_48\n      jump\t// in\n    tag_47:\n      mload(0x40)\n      dup1\n      swap2\n      sub\n      swap1\n      revert\n    tag_46:\n        /* \"database/batch/BatchDatabase.sol\":901:911  uint256 id */\n      0x00\n        /* \"database/batch/BatchDatabase.sol\":914:927  autoIncrement */\n      0x02\n      0x00\n        /* \"database/batch/BatchDatabase.sol\":914:929  autoIncrement++ */\n      dup2\n      sload\n      dup1\n      swap3\n      swap2\n      swap1\n      tag_50\n      swap1\n      tag_51\n      jump\t// in\n    tag_50:\n      swap2\n      swap1\n      pop\n      sstore\n        /* \"database/batch/BatchDatabase.sol\":901:929  uint256 id = autoIncrement++ */\n      swap1\n      pop\n        /* \"database/batch/BatchDatabase.sol\":956:958  id */\n      dup1\n        /* \"database/batch/BatchDatabase.sol\":940:945  batch */\n      dup3\n        /* \"database/batch/BatchDatabase.sol\":940:953  batch.batchId */\n      0x00\n      add\n        /* \"database/batch/BatchDatabase.sol\":940:958  batch.batchId = id */\n      dup2\n      dup2\n      mstore\n      pop\n      pop\n        /* \"database/batch/BatchDatabase.sol\":969:973  list */\n      0x01\n        /* \"database/batch/BatchDatabase.sol\":979:984  batch */\n      dup3\n        /* \"database/batch/BatchDatabase.sol\":969:985  list.push(batch) */\n      swap1\n      dup1\n      0x01\n      dup2\n      sload\n      add\n      dup1\n      dup3\n      sstore\n      dup1\n      swap2\n      pop\n      pop\n      0x01\n      swap1\n      sub\n      swap1\n      0x00\n      mstore\n      keccak256(0x00, 0x20)\n      swap1\n      0x08\n      mul\n      add\n      0x00\n      swap1\n      swap2\n      swap1\n      swap2\n      swap1\n      swap2\n      pop\n      0x00\n      dup3\n      add\n      mload\n      dup2\n      0x00\n      add\n      sstore\n      0x20\n      dup3\n      add\n      mload\n      dup2\n      0x01\n      add\n      sstore\n      0x40\n      dup3\n      add\n      mload\n      dup2\n      0x02\n      add\n      sstore\n      0x60\n      dup3\n      add\n      mload\n      dup2\n      0x03\n      add\n      swap1\n      dup2\n      tag_53\n      swap2\n      swap1\n      tag_54\n      jump\t// in\n    tag_53:\n      pop\n      0x80\n      dup3\n      add\n      mload\n      dup2\n      0x04\n      add\n      sstore\n      0xa0\n      dup3\n      add\n      mload\n      dup2\n      0x05\n      add\n      swap1\n      dup2\n      tag_55\n      swap2\n      swap1\n      tag_54\n      jump\t// in\n    tag_55:\n      pop\n      0xc0\n      dup3\n      add\n      mload\n      dup2\n      0x06\n      add\n      swap1\n      dup2\n      tag_56\n      swap2\n      swap1\n      tag_54\n      jump\t// in\n    tag_56:\n      pop\n      0xe0\n      dup3\n      add\n      mload\n      dup2\n      0x07\n      add\n      exp(0x0100, 0x00)\n      dup2\n      sload\n      dup2\n      0xff\n      mul\n      not\n      and\n      swap1\n      dup4\n      iszero\n      iszero\n      mul\n      or\n      swap1\n      sstore\n      pop\n      pop\n      pop\n        /* \"database/batch/BatchDatabase.sol\":890:993  {... */\n      pop\n        /* \"database/batch/BatchDatabase.sol\":829:993  function addBatch(Batch memory batch) public onlyPermissions {... */\n      pop\n      jump\t// out\n        /* \"abstract/Ownable.sol\":2801:2892  function destroy() public onlyOwner {... */\n    tag_20:\n        /* \"abstract/Ownable.sol\":1175:1188  _checkOwner() */\n      tag_58\n        /* \"abstract/Ownable.sol\":1175:1186  _checkOwner */\n      tag_38\n        /* \"abstract/Ownable.sol\":1175:1188  _checkOwner() */\n      jump\t// in\n    tag_58:\n        /* \"abstract/Ownable.sol\":2877:2881  this */\n      address\n        /* \"abstract/Ownable.sol\":2848:2884  selfdestruct(payable(address(this))) */\n      0xffffffffffffffffffffffffffffffffffffffff\n      and\n      selfdestruct\n        /* \"abstract/Ownable.sol\":1289:1376  function owner() public view virtual returns (address) {... */\n    tag_22:\n        /* \"abstract/Ownable.sol\":1335:1342  address */\n      0x00\n        /* \"abstract/Ownable.sol\":1362:1368  _owner */\n      dup1\n      0x00\n      swap1\n      sload\n      swap1\n      0x0100\n      exp\n      swap1\n      div\n      0xffffffffffffffffffffffffffffffffffffffff\n      and\n        /* \"abstract/Ownable.sol\":1355:1368  return _owner */\n      swap1\n      pop\n        /* \"abstract/Ownable.sol\":1289:1376  function owner() public view virtual returns (address) {... */\n      swap1\n      jump\t// out\n        /* \"database/batch/BatchDatabase.sol\":1123:1229  function getAllBatch() public view onlyPermissions returns (Batch[] memory) {... */\n    tag_26:\n        /* \"database/batch/BatchDatabase.sol\":1183:1197  Batch[] memory */\n      0x60\n        /* \"database/batch/BatchDatabase.sol\":400:411  permissions */\n      0x03\n        /* \"database/batch/BatchDatabase.sol\":400:425  permissions[_msgSender()] */\n      0x00\n        /* \"database/batch/BatchDatabase.sol\":412:424  _msgSender() */\n      tag_62\n        /* \"database/batch/BatchDatabase.sol\":412:422  _msgSender */\n      tag_45\n        /* \"database/batch/BatchDatabase.sol\":412:424  _msgSender() */\n      jump\t// in\n    tag_62:\n        /* \"database/batch/BatchDatabase.sol\":400:425  permissions[_msgSender()] */\n      0xffffffffffffffffffffffffffffffffffffffff\n      and\n      0xffffffffffffffffffffffffffffffffffffffff\n      and\n      dup2\n      mstore\n      0x20\n      add\n      swap1\n      dup2\n      mstore\n      0x20\n      add\n      0x00\n      keccak256\n      0x00\n      swap1\n      sload\n      swap1\n      0x0100\n      exp\n      swap1\n      div\n      0xff\n      and\n        /* \"database/batch/BatchDatabase.sol\":378:499  require(... */\n      tag_63\n      jumpi\n      mload(0x40)\n      0x08c379a000000000000000000000000000000000000000000000000000000000\n      dup2\n      mstore\n      0x04\n      add\n      tag_64\n      swap1\n      tag_48\n      jump\t// in\n    tag_64:\n      mload(0x40)\n      dup1\n      swap2\n      sub\n      swap1\n      revert\n    tag_63:\n        /* \"database/batch/BatchDatabase.sol\":1217:1221  list */\n      0x01\n        /* \"database/batch/BatchDatabase.sol\":1210:1221  return list */\n      dup1\n      sload\n      dup1\n      0x20\n      mul\n      0x20\n      add\n      mload(0x40)\n      swap1\n      dup2\n      add\n      0x40\n      mstore\n      dup1\n      swap3\n      swap2\n      swap1\n      dup2\n      dup2\n      mstore\n      0x20\n      add\n      0x00\n      swap1\n    tag_66:\n      dup3\n      dup3\n      lt\n      iszero\n      tag_67\n      jumpi\n      dup4\n      dup3\n      swap1\n      0x00\n      mstore\n      keccak256(0x00, 0x20)\n      swap1\n      0x08\n      mul\n      add\n      mload(0x40)\n      dup1\n      0x0100\n      add\n      0x40\n      mstore\n      swap1\n      dup2\n      0x00\n      dup3\n      add\n      sload\n      dup2\n      mstore\n      0x20\n      add\n      0x01\n      dup3\n      add\n      sload\n      dup2\n      mstore\n      0x20\n      add\n      0x02\n      dup3\n      add\n      sload\n      dup2\n      mstore\n      0x20\n      add\n      0x03\n      dup3\n      add\n      dup1\n      sload\n      tag_69\n      swap1\n      tag_70\n      jump\t// in\n    tag_69:\n      dup1\n      0x1f\n      add\n      0x20\n      dup1\n      swap2\n      div\n      mul\n      0x20\n      add\n      mload(0x40)\n      swap1\n      dup2\n      add\n      0x40\n      mstore\n      dup1\n      swap3\n      swap2\n      swap1\n      dup2\n      dup2\n      mstore\n      0x20\n      add\n      dup3\n      dup1\n      sload\n      tag_71\n      swap1\n      tag_70\n      jump\t// in\n    tag_71:\n      dup1\n      iszero\n      tag_72\n      jumpi\n      dup1\n      0x1f\n      lt\n      tag_73\n      jumpi\n      0x0100\n      dup1\n      dup4\n      sload\n      div\n      mul\n      dup4\n      mstore\n      swap2\n      0x20\n      add\n      swap2\n      jump(tag_72)\n    tag_73:\n      dup3\n      add\n      swap2\n      swap1\n      0x00\n      mstore\n      keccak256(0x00, 0x20)\n      swap1\n    tag_74:\n      dup2\n      sload\n      dup2\n      mstore\n      swap1\n      0x01\n      add\n      swap1\n      0x20\n      add\n      dup1\n      dup4\n      gt\n      tag_74\n      jumpi\n      dup3\n      swap1\n      sub\n      0x1f\n      and\n      dup3\n      add\n      swap2\n    tag_72:\n      pop\n      pop\n      pop\n      pop\n      pop\n      dup2\n      mstore\n      0x20\n      add\n      0x04\n      dup3\n      add\n      sload\n      dup2\n      mstore\n      0x20\n      add\n      0x05\n      dup3\n      add\n      dup1\n      sload\n      tag_75\n      swap1\n      tag_70\n      jump\t// in\n    tag_75:\n      dup1\n      0x1f\n      add\n      0x20\n      dup1\n      swap2\n      div\n      mul\n      0x20\n      add\n      mload(0x40)\n      swap1\n      dup2\n      add\n      0x40\n      mstore\n      dup1\n      swap3\n      swap2\n      swap1\n      dup2\n      dup2\n      mstore\n      0x20\n      add\n      dup3\n      dup1\n      sload\n      tag_76\n      swap1\n      tag_70\n      jump\t// in\n    tag_76:\n      dup1\n      iszero\n      tag_77\n      jumpi\n      dup1\n      0x1f\n      lt\n      tag_78\n      jumpi\n      0x0100\n      dup1\n      dup4\n      sload\n      div\n      mul\n      dup4\n      mstore\n      swap2\n      0x20\n      add\n      swap2\n      jump(tag_77)\n    tag_78:\n      dup3\n      add\n      swap2\n      swap1\n      0x00\n      mstore\n      keccak256(0x00, 0x20)\n      swap1\n    tag_79:\n      dup2\n      sload\n      dup2\n      mstore\n      swap1\n      0x01\n      add\n      swap1\n      0x20\n      add\n      dup1\n      dup4\n      gt\n      tag_79\n      jumpi\n      dup3\n      swap1\n      sub\n      0x1f\n      and\n      dup3\n      add\n      swap2\n    tag_77:\n      pop\n      pop\n      pop\n      pop\n      pop\n      dup2\n      mstore\n      0x20\n      add\n      0x06\n      dup3\n      add\n      dup1\n      sload\n      tag_80\n      swap1\n      tag_70\n      jump\t// in\n    tag_80:\n      dup1\n      0x1f\n      add\n      0x20\n      dup1\n      swap2\n      div\n      mul\n      0x20\n      add\n      mload(0x40)\n      swap1\n      dup2\n      add\n      0x40\n      mstore\n      dup1\n      swap3\n      swap2\n      swap1\n      dup2\n      dup2\n      mstore\n      0x20\n      add\n      dup3\n      dup1\n      sload\n      tag_81\n      swap1\n      tag_70\n      jump\t// in\n    tag_81:\n      dup1\n      iszero\n      tag_82\n      jumpi\n      dup1\n      0x1f\n      lt\n      tag_83\n      jumpi\n      0x0100\n      dup1\n      dup4\n      sload\n      div\n      mul\n      dup4\n      mstore\n      swap2\n      0x20\n      add\n      swap2\n      jump(tag_82)\n    tag_83:\n      dup3\n      add\n      swap2\n      swap1\n      0x00\n      mstore\n      keccak256(0x00, 0x20)\n      swap1\n    tag_84:\n      dup2\n      sload\n      dup2\n      mstore\n      swap1\n      0x01\n      add\n      swap1\n      0x20\n      add\n      dup1\n      dup4\n      gt\n      tag_84\n      jumpi\n      dup3\n      swap1\n      sub\n      0x1f\n      and\n      dup3\n      add\n      swap2\n    tag_82:\n      pop\n      pop\n      pop\n      pop\n      pop\n      dup2\n      mstore\n      0x20\n      add\n      0x07\n      dup3\n      add\n      0x00\n      swap1\n      sload\n      swap1\n      0x0100\n      exp\n      swap1\n      div\n      0xff\n      and\n      iszero\n      iszero\n      iszero\n      iszero\n      dup2\n      mstore\n      pop\n      pop\n      dup2\n      mstore\n      0x20\n      add\n      swap1\n      0x01\n      add\n      swap1\n      jump(tag_66)\n    tag_67:\n      pop\n      pop\n      pop\n      pop\n      swap1\n      pop\n        /* \"database/batch/BatchDatabase.sol\":1123:1229  function getAllBatch() public view onlyPermissions returns (Batch[] memory) {... */\n      swap1\n      jump\t// out\n        /* \"database/batch/BatchDatabase.sol\":1001:1115  function addChecked(uint256 batchId) public onlyPermissions {... */\n    tag_32:\n        /* \"database/batch/BatchDatabase.sol\":400:411  permissions */\n      0x03\n        /* \"database/batch/BatchDatabase.sol\":400:425  permissions[_msgSender()] */\n      0x00\n        /* \"database/batch/BatchDatabase.sol\":412:424  _msgSender() */\n      tag_86\n        /* \"database/batch/BatchDatabase.sol\":412:422  _msgSender */\n      tag_45\n        /* \"database/batch/BatchDatabase.sol\":412:424  _msgSender() */\n      jump\t// in\n    tag_86:\n        /* \"database/batch/BatchDatabase.sol\":400:425  permissions[_msgSender()] */\n      0xffffffffffffffffffffffffffffffffffffffff\n      and\n      0xffffffffffffffffffffffffffffffffffffffff\n      and\n      dup2\n      mstore\n      0x20\n      add\n      swap1\n      dup2\n      mstore\n      0x20\n      add\n      0x00\n      keccak256\n      0x00\n      swap1\n      sload\n      swap1\n      0x0100\n      exp\n      swap1\n      div\n      0xff\n      and\n        /* \"database/batch/BatchDatabase.sol\":378:499  require(... */\n      tag_87\n      jumpi\n      mload(0x40)\n      0x08c379a000000000000000000000000000000000000000000000000000000000\n      dup2\n      mstore\n      0x04\n      add\n      tag_88\n      swap1\n      tag_48\n      jump\t// in\n    tag_88:\n      mload(0x40)\n      dup1\n      swap2\n      sub\n      swap1\n      revert\n    tag_87:\n        /* \"database/batch/BatchDatabase.sol\":1103:1107  true */\n      0x01\n        /* \"database/batch/BatchDatabase.sol\":1072:1076  list */\n      dup1\n        /* \"database/batch/BatchDatabase.sol\":1077:1084  batchId */\n      dup3\n        /* \"database/batch/BatchDatabase.sol\":1072:1085  list[batchId] */\n      dup2\n      sload\n      dup2\n      lt\n      tag_90\n      jumpi\n      tag_91\n      tag_92\n      jump\t// in\n    tag_91:\n    tag_90:\n      swap1\n      0x00\n      mstore\n      keccak256(0x00, 0x20)\n      swap1\n      0x08\n      mul\n      add\n        /* \"database/batch/BatchDatabase.sol\":1072:1100  list[batchId].batchIsChecked */\n      0x07\n      add\n      0x00\n        /* \"database/batch/BatchDatabase.sol\":1072:1107  list[batchId].batchIsChecked = true */\n      0x0100\n      exp\n      dup2\n      sload\n      dup2\n      0xff\n      mul\n      not\n      and\n      swap1\n      dup4\n      iszero\n      iszero\n      mul\n      or\n      swap1\n      sstore\n      pop\n        /* \"database/batch/BatchDatabase.sol\":1001:1115  function addChecked(uint256 batchId) public onlyPermissions {... */\n      pop\n      jump\t// out\n        /* \"abstract/Ownable.sol\":2204:2442  function transferOwnership(address newOwner) public virtual onlyOwner {... */\n    tag_35:\n        /* \"abstract/Ownable.sol\":1175:1188  _checkOwner() */\n      tag_95\n        /* \"abstract/Ownable.sol\":1175:1186  _checkOwner */\n      tag_38\n        /* \"abstract/Ownable.sol\":1175:1188  _checkOwner() */\n      jump\t// in\n    tag_95:\n        /* \"abstract/Ownable.sol\":2327:2328  0 */\n      0x00\n        /* \"abstract/Ownable.sol\":2307:2329  newOwner != address(0) */\n      0xffffffffffffffffffffffffffffffffffffffff\n      and\n        /* \"abstract/Ownable.sol\":2307:2315  newOwner */\n      dup2\n        /* \"abstract/Ownable.sol\":2307:2329  newOwner != address(0) */\n      0xffffffffffffffffffffffffffffffffffffffff\n      and\n      sub\n        /* \"abstract/Ownable.sol\":2285:2395  require(... */\n      tag_97\n      jumpi\n      mload(0x40)\n      0x08c379a000000000000000000000000000000000000000000000000000000000\n      dup2\n      mstore\n      0x04\n      add\n      tag_98\n      swap1\n      tag_99\n      jump\t// in\n    tag_98:\n      mload(0x40)\n      dup1\n      swap2\n      sub\n      swap1\n      revert\n    tag_97:\n        /* \"abstract/Ownable.sol\":2406:2434  _transferOwnership(newOwner) */\n      tag_100\n        /* \"abstract/Ownable.sol\":2425:2433  newOwner */\n      dup2\n        /* \"abstract/Ownable.sol\":2406:2424  _transferOwnership */\n      tag_101\n        /* \"abstract/Ownable.sol\":2406:2434  _transferOwnership(newOwner) */\n      jump\t// in\n    tag_100:\n        /* \"abstract/Ownable.sol\":2204:2442  function transferOwnership(address newOwner) public virtual onlyOwner {... */\n      pop\n      jump\t// out\n        /* \"abstract/Ownable.sol\":1454:1584  function _checkOwner() internal view virtual {... */\n    tag_38:\n        /* \"abstract/Ownable.sol\":1529:1539  msg.sender */\n      caller\n        /* \"abstract/Ownable.sol\":1518:1539  owner() == msg.sender */\n      0xffffffffffffffffffffffffffffffffffffffff\n      and\n        /* \"abstract/Ownable.sol\":1518:1525  owner() */\n      tag_103\n        /* \"abstract/Ownable.sol\":1518:1523  owner */\n      tag_22\n        /* \"abstract/Ownable.sol\":1518:1525  owner() */\n      jump\t// in\n    tag_103:\n        /* \"abstract/Ownable.sol\":1518:1539  owner() == msg.sender */\n      0xffffffffffffffffffffffffffffffffffffffff\n      and\n      eq\n        /* \"abstract/Ownable.sol\":1510:1576  require(owner() == msg.sender, \"Ownable: caller is not the owner\") */\n      tag_104\n      jumpi\n      mload(0x40)\n      0x08c379a000000000000000000000000000000000000000000000000000000000\n      dup2\n      mstore\n      0x04\n      add\n      tag_105\n      swap1\n      tag_106\n      jump\t// in\n    tag_105:\n      mload(0x40)\n      dup1\n      swap2\n      sub\n      swap1\n      revert\n    tag_104:\n        /* \"abstract/Ownable.sol\":1454:1584  function _checkOwner() internal view virtual {... */\n      jump\t// out\n        /* \"@openzeppelin/contracts/utils/Context.sol\":640:736  function _msgSender() internal view virtual returns (address) {... */\n    tag_45:\n        /* \"@openzeppelin/contracts/utils/Context.sol\":693:700  address */\n      0x00\n        /* \"@openzeppelin/contracts/utils/Context.sol\":719:729  msg.sender */\n      caller\n        /* \"@openzeppelin/contracts/utils/Context.sol\":712:729  return msg.sender */\n      swap1\n      pop\n        /* \"@openzeppelin/contracts/utils/Context.sol\":640:736  function _msgSender() internal view virtual returns (address) {... */\n      swap1\n      jump\t// out\n        /* \"abstract/Ownable.sol\":2602:2793  function _transferOwnership(address newOwner) internal virtual {... */\n    tag_101:\n        /* \"abstract/Ownable.sol\":2676:2692  address oldOwner */\n      0x00\n        /* \"abstract/Ownable.sol\":2695:2701  _owner */\n      dup1\n      0x00\n      swap1\n      sload\n      swap1\n      0x0100\n      exp\n      swap1\n      div\n      0xffffffffffffffffffffffffffffffffffffffff\n      and\n        /* \"abstract/Ownable.sol\":2676:2701  address oldOwner = _owner */\n      swap1\n      pop\n        /* \"abstract/Ownable.sol\":2721:2729  newOwner */\n      dup2\n        /* \"abstract/Ownable.sol\":2712:2718  _owner */\n      0x00\n      dup1\n        /* \"abstract/Ownable.sol\":2712:2729  _owner = newOwner */\n      0x0100\n      exp\n      dup2\n      sload\n      dup2\n      0xffffffffffffffffffffffffffffffffffffffff\n      mul\n      not\n      and\n      swap1\n      dup4\n      0xffffffffffffffffffffffffffffffffffffffff\n      and\n      mul\n      or\n      swap1\n      sstore\n      pop\n        /* \"abstract/Ownable.sol\":2776:2784  newOwner */\n      dup2\n        /* \"abstract/Ownable.sol\":2745:2785  OwnershipTransferred(oldOwner, newOwner) */\n      0xffffffffffffffffffffffffffffffffffffffff\n      and\n        /* \"abstract/Ownable.sol\":2766:2774  oldOwner */\n      dup2\n        /* \"abstract/Ownable.sol\":2745:2785  OwnershipTransferred(oldOwner, newOwner) */\n      0xffffffffffffffffffffffffffffffffffffffff\n      and\n      0x8be0079c531659141344cd1fd0a4f28419497f9722a3daafe3b4186f6b6457e0\n      mload(0x40)\n      mload(0x40)\n      dup1\n      swap2\n      sub\n      swap1\n      log3\n        /* \"abstract/Ownable.sol\":2665:2793  {... */\n      pop\n        /* \"abstract/Ownable.sol\":2602:2793  function _transferOwnership(address newOwner) internal virtual {... */\n      pop\n      jump\t// out\n        /* \"#utility.yul\":7:82   */\n    tag_109:\n        /* \"#utility.yul\":40:46   */\n      0x00\n        /* \"#utility.yul\":73:75   */\n      0x40\n        /* \"#utility.yul\":67:76   */\n      mload\n        /* \"#utility.yul\":57:76   */\n      swap1\n      pop\n        /* \"#utility.yul\":7:82   */\n      swap1\n      jump\t// out\n        /* \"#utility.yul\":88:205   */\n    tag_110:\n        /* \"#utility.yul\":197:198   */\n      0x00\n        /* \"#utility.yul\":194:195   */\n      dup1\n        /* \"#utility.yul\":187:199   */\n      revert\n        /* \"#utility.yul\":211:328   */\n    tag_111:\n        /* \"#utility.yul\":320:321   */\n      0x00\n        /* \"#utility.yul\":317:318   */\n      dup1\n        /* \"#utility.yul\":310:322   */\n      revert\n        /* \"#utility.yul\":334:460   */\n    tag_112:\n        /* \"#utility.yul\":371:378   */\n      0x00\n        /* \"#utility.yul\":411:453   */\n      0xffffffffffffffffffffffffffffffffffffffff\n        /* \"#utility.yul\":404:409   */\n      dup3\n        /* \"#utility.yul\":400:454   */\n      and\n        /* \"#utility.yul\":389:454   */\n      swap1\n      pop\n        /* \"#utility.yul\":334:460   */\n      swap2\n      swap1\n      pop\n      jump\t// out\n        /* \"#utility.yul\":466:562   */\n    tag_113:\n        /* \"#utility.yul\":503:510   */\n      0x00\n        /* \"#utility.yul\":532:556   */\n      tag_181\n        /* \"#utility.yul\":550:555   */\n      dup3\n        /* \"#utility.yul\":532:556   */\n      tag_112\n      jump\t// in\n    tag_181:\n        /* \"#utility.yul\":521:556   */\n      swap1\n      pop\n        /* \"#utility.yul\":466:562   */\n      swap2\n      swap1\n      pop\n      jump\t// out\n        /* \"#utility.yul\":568:690   */\n    tag_114:\n        /* \"#utility.yul\":641:665   */\n      tag_183\n        /* \"#utility.yul\":659:664   */\n      dup2\n        /* \"#utility.yul\":641:665   */\n      tag_113\n      jump\t// in\n    tag_183:\n        /* \"#utility.yul\":634:639   */\n      dup2\n        /* \"#utility.yul\":631:666   */\n      eq\n        /* \"#utility.yul\":621:684   */\n      tag_184\n      jumpi\n        /* \"#utility.yul\":680:681   */\n      0x00\n        /* \"#utility.yul\":677:678   */\n      dup1\n        /* \"#utility.yul\":670:682   */\n      revert\n        /* \"#utility.yul\":621:684   */\n    tag_184:\n        /* \"#utility.yul\":568:690   */\n      pop\n      jump\t// out\n        /* \"#utility.yul\":696:835   */\n    tag_115:\n        /* \"#utility.yul\":742:747   */\n      0x00\n        /* \"#utility.yul\":780:786   */\n      dup2\n        /* \"#utility.yul\":767:787   */\n      calldataload\n        /* \"#utility.yul\":758:787   */\n      swap1\n      pop\n        /* \"#utility.yul\":796:829   */\n      tag_186\n        /* \"#utility.yul\":823:828   */\n      dup2\n        /* \"#utility.yul\":796:829   */\n      tag_114\n      jump\t// in\n    tag_186:\n        /* \"#utility.yul\":696:835   */\n      swap3\n      swap2\n      pop\n      pop\n      jump\t// out\n        /* \"#utility.yul\":841:1170   */\n    tag_13:\n        /* \"#utility.yul\":900:906   */\n      0x00\n        /* \"#utility.yul\":949:951   */\n      0x20\n        /* \"#utility.yul\":937:946   */\n      dup3\n        /* \"#utility.yul\":928:935   */\n      dup5\n        /* \"#utility.yul\":924:947   */\n      sub\n        /* \"#utility.yul\":920:952   */\n      slt\n        /* \"#utility.yul\":917:1036   */\n      iszero\n      tag_188\n      jumpi\n        /* \"#utility.yul\":955:1034   */\n      tag_189\n      tag_110\n      jump\t// in\n    tag_189:\n        /* \"#utility.yul\":917:1036   */\n    tag_188:\n        /* \"#utility.yul\":1075:1076   */\n      0x00\n        /* \"#utility.yul\":1100:1153   */\n      tag_190\n        /* \"#utility.yul\":1145:1152   */\n      dup5\n        /* \"#utility.yul\":1136:1142   */\n      dup3\n        /* \"#utility.yul\":1125:1134   */\n      dup6\n        /* \"#utility.yul\":1121:1143   */\n      add\n        /* \"#utility.yul\":1100:1153   */\n      tag_115\n      jump\t// in\n    tag_190:\n        /* \"#utility.yul\":1090:1153   */\n      swap2\n      pop\n        /* \"#utility.yul\":1046:1163   */\n      pop\n        /* \"#utility.yul\":841:1170   */\n      swap3\n      swap2\n      pop\n      pop\n      jump\t// out\n        /* \"#utility.yul\":1176:1293   */\n    tag_116:\n        /* \"#utility.yul\":1285:1286   */\n      0x00\n        /* \"#utility.yul\":1282:1283   */\n      dup1\n        /* \"#utility.yul\":1275:1287   */\n      revert\n        /* \"#utility.yul\":1299:1401   */\n    tag_117:\n        /* \"#utility.yul\":1340:1346   */\n      0x00\n        /* \"#utility.yul\":1391:1393   */\n      0x1f\n        /* \"#utility.yul\":1387:1394   */\n      not\n        /* \"#utility.yul\":1382:1384   */\n      0x1f\n        /* \"#utility.yul\":1375:1380   */\n      dup4\n        /* \"#utility.yul\":1371:1385   */\n      add\n        /* \"#utility.yul\":1367:1395   */\n      and\n        /* \"#utility.yul\":1357:1395   */\n      swap1\n      pop\n        /* \"#utility.yul\":1299:1401   */\n      swap2\n      swap1\n      pop\n      jump\t// out\n        /* \"#utility.yul\":1407:1587   */\n    tag_118:\n        /* \"#utility.yul\":1455:1532   */\n      0x4e487b7100000000000000000000000000000000000000000000000000000000\n        /* \"#utility.yul\":1452:1453   */\n      0x00\n        /* \"#utility.yul\":1445:1533   */\n      mstore\n        /* \"#utility.yul\":1552:1556   */\n      0x41\n        /* \"#utility.yul\":1549:1550   */\n      0x04\n        /* \"#utility.yul\":1542:1557   */\n      mstore\n        /* \"#utility.yul\":1576:1580   */\n      0x24\n        /* \"#utility.yul\":1573:1574   */\n      0x00\n        /* \"#utility.yul\":1566:1581   */\n      revert\n        /* \"#utility.yul\":1593:1874   */\n    tag_119:\n        /* \"#utility.yul\":1676:1703   */\n      tag_195\n        /* \"#utility.yul\":1698:1702   */\n      dup3\n        /* \"#utility.yul\":1676:1703   */\n      tag_117\n      jump\t// in\n    tag_195:\n        /* \"#utility.yul\":1668:1674   */\n      dup2\n        /* \"#utility.yul\":1664:1704   */\n      add\n        /* \"#utility.yul\":1806:1812   */\n      dup2\n        /* \"#utility.yul\":1794:1804   */\n      dup2\n        /* \"#utility.yul\":1791:1813   */\n      lt\n        /* \"#utility.yul\":1770:1788   */\n      0xffffffffffffffff\n        /* \"#utility.yul\":1758:1768   */\n      dup3\n        /* \"#utility.yul\":1755:1789   */\n      gt\n        /* \"#utility.yul\":1752:1814   */\n      or\n        /* \"#utility.yul\":1749:1837   */\n      iszero\n      tag_196\n      jumpi\n        /* \"#utility.yul\":1817:1835   */\n      tag_197\n      tag_118\n      jump\t// in\n    tag_197:\n        /* \"#utility.yul\":1749:1837   */\n    tag_196:\n        /* \"#utility.yul\":1857:1867   */\n      dup1\n        /* \"#utility.yul\":1853:1855   */\n      0x40\n        /* \"#utility.yul\":1846:1868   */\n      mstore\n        /* \"#utility.yul\":1636:1874   */\n      pop\n        /* \"#utility.yul\":1593:1874   */\n      pop\n      pop\n      jump\t// out\n        /* \"#utility.yul\":1880:2009   */\n    tag_120:\n        /* \"#utility.yul\":1914:1920   */\n      0x00\n        /* \"#utility.yul\":1941:1961   */\n      tag_199\n      tag_109\n      jump\t// in\n    tag_199:\n        /* \"#utility.yul\":1931:1961   */\n      swap1\n      pop\n        /* \"#utility.yul\":1970:2003   */\n      tag_200\n        /* \"#utility.yul\":1998:2002   */\n      dup3\n        /* \"#utility.yul\":1990:1996   */\n      dup3\n        /* \"#utility.yul\":1970:2003   */\n      tag_119\n      jump\t// in\n    tag_200:\n        /* \"#utility.yul\":1880:2009   */\n      swap2\n      swap1\n      pop\n      jump\t// out\n        /* \"#utility.yul\":2015:2132   */\n    tag_121:\n        /* \"#utility.yul\":2124:2125   */\n      0x00\n        /* \"#utility.yul\":2121:2122   */\n      dup1\n        /* \"#utility.yul\":2114:2126   */\n      revert\n        /* \"#utility.yul\":2138:2215   */\n    tag_122:\n        /* \"#utility.yul\":2175:2182   */\n      0x00\n        /* \"#utility.yul\":2204:2209   */\n      dup2\n        /* \"#utility.yul\":2193:2209   */\n      swap1\n      pop\n        /* \"#utility.yul\":2138:2215   */\n      swap2\n      swap1\n      pop\n      jump\t// out\n        /* \"#utility.yul\":2221:2343   */\n    tag_123:\n        /* \"#utility.yul\":2294:2318   */\n      tag_204\n        /* \"#utility.yul\":2312:2317   */\n      dup2\n        /* \"#utility.yul\":2294:2318   */\n      tag_122\n      jump\t// in\n    tag_204:\n        /* \"#utility.yul\":2287:2292   */\n      dup2\n        /* \"#utility.yul\":2284:2319   */\n      eq\n        /* \"#utility.yul\":2274:2337   */\n      tag_205\n      jumpi\n        /* \"#utility.yul\":2333:2334   */\n      0x00\n        /* \"#utility.yul\":2330:2331   */\n      dup1\n        /* \"#utility.yul\":2323:2335   */\n      revert\n        /* \"#utility.yul\":2274:2337   */\n    tag_205:\n        /* \"#utility.yul\":2221:2343   */\n      pop\n      jump\t// out\n        /* \"#utility.yul\":2349:2488   */\n    tag_124:\n        /* \"#utility.yul\":2395:2400   */\n      0x00\n        /* \"#utility.yul\":2433:2439   */\n      dup2\n        /* \"#utility.yul\":2420:2440   */\n      calldataload\n        /* \"#utility.yul\":2411:2440   */\n      swap1\n      pop\n        /* \"#utility.yul\":2449:2482   */\n      tag_207\n        /* \"#utility.yul\":2476:2481   */\n      dup2\n        /* \"#utility.yul\":2449:2482   */\n      tag_123\n      jump\t// in\n    tag_207:\n        /* \"#utility.yul\":2349:2488   */\n      swap3\n      swap2\n      pop\n      pop\n      jump\t// out\n        /* \"#utility.yul\":2494:2611   */\n    tag_125:\n        /* \"#utility.yul\":2603:2604   */\n      0x00\n        /* \"#utility.yul\":2600:2601   */\n      dup1\n        /* \"#utility.yul\":2593:2605   */\n      revert\n        /* \"#utility.yul\":2617:2734   */\n    tag_126:\n        /* \"#utility.yul\":2726:2727   */\n      0x00\n        /* \"#utility.yul\":2723:2724   */\n      dup1\n        /* \"#utility.yul\":2716:2728   */\n      revert\n        /* \"#utility.yul\":2740:3048   */\n    tag_127:\n        /* \"#utility.yul\":2802:2806   */\n      0x00\n        /* \"#utility.yul\":2892:2910   */\n      0xffffffffffffffff\n        /* \"#utility.yul\":2884:2890   */\n      dup3\n        /* \"#utility.yul\":2881:2911   */\n      gt\n        /* \"#utility.yul\":2878:2934   */\n      iszero\n      tag_211\n      jumpi\n        /* \"#utility.yul\":2914:2932   */\n      tag_212\n      tag_118\n      jump\t// in\n    tag_212:\n        /* \"#utility.yul\":2878:2934   */\n    tag_211:\n        /* \"#utility.yul\":2952:2981   */\n      tag_213\n        /* \"#utility.yul\":2974:2980   */\n      dup3\n        /* \"#utility.yul\":2952:2981   */\n      tag_117\n      jump\t// in\n    tag_213:\n        /* \"#utility.yul\":2944:2981   */\n      swap1\n      pop\n        /* \"#utility.yul\":3036:3040   */\n      0x20\n        /* \"#utility.yul\":3030:3034   */\n      dup2\n        /* \"#utility.yul\":3026:3041   */\n      add\n        /* \"#utility.yul\":3018:3041   */\n      swap1\n      pop\n        /* \"#utility.yul\":2740:3048   */\n      swap2\n      swap1\n      pop\n      jump\t// out\n        /* \"#utility.yul\":3054:3200   */\n    tag_128:\n        /* \"#utility.yul\":3151:3157   */\n      dup3\n        /* \"#utility.yul\":3146:3149   */\n      dup2\n        /* \"#utility.yul\":3141:3144   */\n      dup4\n        /* \"#utility.yul\":3128:3158   */\n      calldatacopy\n        /* \"#utility.yul\":3192:3193   */\n      0x00\n        /* \"#utility.yul\":3183:3189   */\n      dup4\n        /* \"#utility.yul\":3178:3181   */\n      dup4\n        /* \"#utility.yul\":3174:3190   */\n      add\n        /* \"#utility.yul\":3167:3194   */\n      mstore\n        /* \"#utility.yul\":3054:3200   */\n      pop\n      pop\n      pop\n      jump\t// out\n        /* \"#utility.yul\":3206:3631   */\n    tag_129:\n        /* \"#utility.yul\":3284:3289   */\n      0x00\n        /* \"#utility.yul\":3309:3375   */\n      tag_216\n        /* \"#utility.yul\":3325:3374   */\n      tag_217\n        /* \"#utility.yul\":3367:3373   */\n      dup5\n        /* \"#utility.yul\":3325:3374   */\n      tag_127\n      jump\t// in\n    tag_217:\n        /* \"#utility.yul\":3309:3375   */\n      tag_120\n      jump\t// in\n    tag_216:\n        /* \"#utility.yul\":3300:3375   */\n      swap1\n      pop\n        /* \"#utility.yul\":3398:3404   */\n      dup3\n        /* \"#utility.yul\":3391:3396   */\n      dup2\n        /* \"#utility.yul\":3384:3405   */\n      mstore\n        /* \"#utility.yul\":3436:3440   */\n      0x20\n        /* \"#utility.yul\":3429:3434   */\n      dup2\n        /* \"#utility.yul\":3425:3441   */\n      add\n        /* \"#utility.yul\":3474:3477   */\n      dup5\n        /* \"#utility.yul\":3465:3471   */\n      dup5\n        /* \"#utility.yul\":3460:3463   */\n      dup5\n        /* \"#utility.yul\":3456:3472   */\n      add\n        /* \"#utility.yul\":3453:3478   */\n      gt\n        /* \"#utility.yul\":3450:3562   */\n      iszero\n      tag_218\n      jumpi\n        /* \"#utility.yul\":3481:3560   */\n      tag_219\n      tag_126\n      jump\t// in\n    tag_219:\n        /* \"#utility.yul\":3450:3562   */\n    tag_218:\n        /* \"#utility.yul\":3571:3625   */\n      tag_220\n        /* \"#utility.yul\":3618:3624   */\n      dup5\n        /* \"#utility.yul\":3613:3616   */\n      dup3\n        /* \"#utility.yul\":3608:3611   */\n      dup6\n        /* \"#utility.yul\":3571:3625   */\n      tag_128\n      jump\t// in\n    tag_220:\n        /* \"#utility.yul\":3290:3631   */\n      pop\n        /* \"#utility.yul\":3206:3631   */\n      swap4\n      swap3\n      pop\n      pop\n      pop\n      jump\t// out\n        /* \"#utility.yul\":3651:3991   */\n    tag_130:\n        /* \"#utility.yul\":3707:3712   */\n      0x00\n        /* \"#utility.yul\":3756:3759   */\n      dup3\n        /* \"#utility.yul\":3749:3753   */\n      0x1f\n        /* \"#utility.yul\":3741:3747   */\n      dup4\n        /* \"#utility.yul\":3737:3754   */\n      add\n        /* \"#utility.yul\":3733:3760   */\n      slt\n        /* \"#utility.yul\":3723:3845   */\n      tag_222\n      jumpi\n        /* \"#utility.yul\":3764:3843   */\n      tag_223\n      tag_125\n      jump\t// in\n    tag_223:\n        /* \"#utility.yul\":3723:3845   */\n    tag_222:\n        /* \"#utility.yul\":3881:3887   */\n      dup2\n        /* \"#utility.yul\":3868:3888   */\n      calldataload\n        /* \"#utility.yul\":3906:3985   */\n      tag_224\n        /* \"#utility.yul\":3981:3984   */\n      dup5\n        /* \"#utility.yul\":3973:3979   */\n      dup3\n        /* \"#utility.yul\":3966:3970   */\n      0x20\n        /* \"#utility.yul\":3958:3964   */\n      dup7\n        /* \"#utility.yul\":3954:3971   */\n      add\n        /* \"#utility.yul\":3906:3985   */\n      tag_129\n      jump\t// in\n    tag_224:\n        /* \"#utility.yul\":3897:3985   */\n      swap2\n      pop\n        /* \"#utility.yul\":3713:3991   */\n      pop\n        /* \"#utility.yul\":3651:3991   */\n      swap3\n      swap2\n      pop\n      pop\n      jump\t// out\n        /* \"#utility.yul\":3997:4087   */\n    tag_131:\n        /* \"#utility.yul\":4031:4038   */\n      0x00\n        /* \"#utility.yul\":4074:4079   */\n      dup2\n        /* \"#utility.yul\":4067:4080   */\n      iszero\n        /* \"#utility.yul\":4060:4081   */\n      iszero\n        /* \"#utility.yul\":4049:4081   */\n      swap1\n      pop\n        /* \"#utility.yul\":3997:4087   */\n      swap2\n      swap1\n      pop\n      jump\t// out\n        /* \"#utility.yul\":4093:4209   */\n    tag_132:\n        /* \"#utility.yul\":4163:4184   */\n      tag_227\n        /* \"#utility.yul\":4178:4183   */\n      dup2\n        /* \"#utility.yul\":4163:4184   */\n      tag_131\n      jump\t// in\n    tag_227:\n        /* \"#utility.yul\":4156:4161   */\n      dup2\n        /* \"#utility.yul\":4153:4185   */\n      eq\n        /* \"#utility.yul\":4143:4203   */\n      tag_228\n      jumpi\n        /* \"#utility.yul\":4199:4200   */\n      0x00\n        /* \"#utility.yul\":4196:4197   */\n      dup1\n        /* \"#utility.yul\":4189:4201   */\n      revert\n        /* \"#utility.yul\":4143:4203   */\n    tag_228:\n        /* \"#utility.yul\":4093:4209   */\n      pop\n      jump\t// out\n        /* \"#utility.yul\":4215:4348   */\n    tag_133:\n        /* \"#utility.yul\":4258:4263   */\n      0x00\n        /* \"#utility.yul\":4296:4302   */\n      dup2\n        /* \"#utility.yul\":4283:4303   */\n      calldataload\n        /* \"#utility.yul\":4274:4303   */\n      swap1\n      pop\n        /* \"#utility.yul\":4312:4342   */\n      tag_230\n        /* \"#utility.yul\":4336:4341   */\n      dup2\n        /* \"#utility.yul\":4312:4342   */\n      tag_132\n      jump\t// in\n    tag_230:\n        /* \"#utility.yul\":4215:4348   */\n      swap3\n      swap2\n      pop\n      pop\n      jump\t// out\n        /* \"#utility.yul\":4374:6468   */\n    tag_134:\n        /* \"#utility.yul\":4445:4450   */\n      0x00\n        /* \"#utility.yul\":4489:4495   */\n      0x0100\n        /* \"#utility.yul\":4477:4486   */\n      dup3\n        /* \"#utility.yul\":4472:4475   */\n      dup5\n        /* \"#utility.yul\":4468:4487   */\n      sub\n        /* \"#utility.yul\":4464:4496   */\n      slt\n        /* \"#utility.yul\":4461:4580   */\n      iszero\n      tag_232\n      jumpi\n        /* \"#utility.yul\":4499:4578   */\n      tag_233\n      tag_116\n      jump\t// in\n    tag_233:\n        /* \"#utility.yul\":4461:4580   */\n    tag_232:\n        /* \"#utility.yul\":4598:4621   */\n      tag_234\n        /* \"#utility.yul\":4614:4620   */\n      0x0100\n        /* \"#utility.yul\":4598:4621   */\n      tag_120\n      jump\t// in\n    tag_234:\n        /* \"#utility.yul\":4589:4621   */\n      swap1\n      pop\n        /* \"#utility.yul\":4683:4684   */\n      0x00\n        /* \"#utility.yul\":4723:4772   */\n      tag_235\n        /* \"#utility.yul\":4768:4771   */\n      dup5\n        /* \"#utility.yul\":4759:4765   */\n      dup3\n        /* \"#utility.yul\":4748:4757   */\n      dup6\n        /* \"#utility.yul\":4744:4766   */\n      add\n        /* \"#utility.yul\":4723:4772   */\n      tag_124\n      jump\t// in\n    tag_235:\n        /* \"#utility.yul\":4716:4720   */\n      0x00\n        /* \"#utility.yul\":4709:4714   */\n      dup4\n        /* \"#utility.yul\":4705:4721   */\n      add\n        /* \"#utility.yul\":4698:4773   */\n      mstore\n        /* \"#utility.yul\":4631:4784   */\n      pop\n        /* \"#utility.yul\":4845:4847   */\n      0x20\n        /* \"#utility.yul\":4886:4935   */\n      tag_236\n        /* \"#utility.yul\":4931:4934   */\n      dup5\n        /* \"#utility.yul\":4922:4928   */\n      dup3\n        /* \"#utility.yul\":4911:4920   */\n      dup6\n        /* \"#utility.yul\":4907:4929   */\n      add\n        /* \"#utility.yul\":4886:4935   */\n      tag_124\n      jump\t// in\n    tag_236:\n        /* \"#utility.yul\":4879:4883   */\n      0x20\n        /* \"#utility.yul\":4872:4877   */\n      dup4\n        /* \"#utility.yul\":4868:4884   */\n      add\n        /* \"#utility.yul\":4861:4936   */\n      mstore\n        /* \"#utility.yul\":4794:4947   */\n      pop\n        /* \"#utility.yul\":5008:5010   */\n      0x40\n        /* \"#utility.yul\":5049:5098   */\n      tag_237\n        /* \"#utility.yul\":5094:5097   */\n      dup5\n        /* \"#utility.yul\":5085:5091   */\n      dup3\n        /* \"#utility.yul\":5074:5083   */\n      dup6\n        /* \"#utility.yul\":5070:5092   */\n      add\n        /* \"#utility.yul\":5049:5098   */\n      tag_124\n      jump\t// in\n    tag_237:\n        /* \"#utility.yul\":5042:5046   */\n      0x40\n        /* \"#utility.yul\":5035:5040   */\n      dup4\n        /* \"#utility.yul\":5031:5047   */\n      add\n        /* \"#utility.yul\":5024:5099   */\n      mstore\n        /* \"#utility.yul\":4957:5110   */\n      pop\n        /* \"#utility.yul\":5202:5204   */\n      0x60\n        /* \"#utility.yul\":5191:5200   */\n      dup3\n        /* \"#utility.yul\":5187:5205   */\n      add\n        /* \"#utility.yul\":5174:5206   */\n      calldataload\n        /* \"#utility.yul\":5233:5251   */\n      0xffffffffffffffff\n        /* \"#utility.yul\":5225:5231   */\n      dup2\n        /* \"#utility.yul\":5222:5252   */\n      gt\n        /* \"#utility.yul\":5219:5336   */\n      iszero\n      tag_238\n      jumpi\n        /* \"#utility.yul\":5255:5334   */\n      tag_239\n      tag_121\n      jump\t// in\n    tag_239:\n        /* \"#utility.yul\":5219:5336   */\n    tag_238:\n        /* \"#utility.yul\":5375:5434   */\n      tag_240\n        /* \"#utility.yul\":5430:5433   */\n      dup5\n        /* \"#utility.yul\":5421:5427   */\n      dup3\n        /* \"#utility.yul\":5410:5419   */\n      dup6\n        /* \"#utility.yul\":5406:5428   */\n      add\n        /* \"#utility.yul\":5375:5434   */\n      tag_130\n      jump\t// in\n    tag_240:\n        /* \"#utility.yul\":5368:5372   */\n      0x60\n        /* \"#utility.yul\":5361:5366   */\n      dup4\n        /* \"#utility.yul\":5357:5373   */\n      add\n        /* \"#utility.yul\":5350:5435   */\n      mstore\n        /* \"#utility.yul\":5120:5446   */\n      pop\n        /* \"#utility.yul\":5513:5516   */\n      0x80\n        /* \"#utility.yul\":5555:5604   */\n      tag_241\n        /* \"#utility.yul\":5600:5603   */\n      dup5\n        /* \"#utility.yul\":5591:5597   */\n      dup3\n        /* \"#utility.yul\":5580:5589   */\n      dup6\n        /* \"#utility.yul\":5576:5598   */\n      add\n        /* \"#utility.yul\":5555:5604   */\n      tag_124\n      jump\t// in\n    tag_241:\n        /* \"#utility.yul\":5548:5552   */\n      0x80\n        /* \"#utility.yul\":5541:5546   */\n      dup4\n        /* \"#utility.yul\":5537:5553   */\n      add\n        /* \"#utility.yul\":5530:5605   */\n      mstore\n        /* \"#utility.yul\":5456:5616   */\n      pop\n        /* \"#utility.yul\":5709:5712   */\n      0xa0\n        /* \"#utility.yul\":5698:5707   */\n      dup3\n        /* \"#utility.yul\":5694:5713   */\n      add\n        /* \"#utility.yul\":5681:5714   */\n      calldataload\n        /* \"#utility.yul\":5741:5759   */\n      0xffffffffffffffff\n        /* \"#utility.yul\":5733:5739   */\n      dup2\n        /* \"#utility.yul\":5730:5760   */\n      gt\n        /* \"#utility.yul\":5727:5844   */\n      iszero\n      tag_242\n      jumpi\n        /* \"#utility.yul\":5763:5842   */\n      tag_243\n      tag_121\n      jump\t// in\n    tag_243:\n        /* \"#utility.yul\":5727:5844   */\n    tag_242:\n        /* \"#utility.yul\":5883:5942   */\n      tag_244\n        /* \"#utility.yul\":5938:5941   */\n      dup5\n        /* \"#utility.yul\":5929:5935   */\n      dup3\n        /* \"#utility.yul\":5918:5927   */\n      dup6\n        /* \"#utility.yul\":5914:5936   */\n      add\n        /* \"#utility.yul\":5883:5942   */\n      tag_130\n      jump\t// in\n    tag_244:\n        /* \"#utility.yul\":5876:5880   */\n      0xa0\n        /* \"#utility.yul\":5869:5874   */\n      dup4\n        /* \"#utility.yul\":5865:5881   */\n      add\n        /* \"#utility.yul\":5858:5943   */\n      mstore\n        /* \"#utility.yul\":5626:5954   */\n      pop\n        /* \"#utility.yul\":6047:6050   */\n      0xc0\n        /* \"#utility.yul\":6036:6045   */\n      dup3\n        /* \"#utility.yul\":6032:6051   */\n      add\n        /* \"#utility.yul\":6019:6052   */\n      calldataload\n        /* \"#utility.yul\":6079:6097   */\n      0xffffffffffffffff\n        /* \"#utility.yul\":6071:6077   */\n      dup2\n        /* \"#utility.yul\":6068:6098   */\n      gt\n        /* \"#utility.yul\":6065:6182   */\n      iszero\n      tag_245\n      jumpi\n        /* \"#utility.yul\":6101:6180   */\n      tag_246\n      tag_121\n      jump\t// in\n    tag_246:\n        /* \"#utility.yul\":6065:6182   */\n    tag_245:\n        /* \"#utility.yul\":6221:6280   */\n      tag_247\n        /* \"#utility.yul\":6276:6279   */\n      dup5\n        /* \"#utility.yul\":6267:6273   */\n      dup3\n        /* \"#utility.yul\":6256:6265   */\n      dup6\n        /* \"#utility.yul\":6252:6274   */\n      add\n        /* \"#utility.yul\":6221:6280   */\n      tag_130\n      jump\t// in\n    tag_247:\n        /* \"#utility.yul\":6214:6218   */\n      0xc0\n        /* \"#utility.yul\":6207:6212   */\n      dup4\n        /* \"#utility.yul\":6203:6219   */\n      add\n        /* \"#utility.yul\":6196:6281   */\n      mstore\n        /* \"#utility.yul\":5964:6292   */\n      pop\n        /* \"#utility.yul\":6361:6364   */\n      0xe0\n        /* \"#utility.yul\":6403:6449   */\n      tag_248\n        /* \"#utility.yul\":6445:6448   */\n      dup5\n        /* \"#utility.yul\":6436:6442   */\n      dup3\n        /* \"#utility.yul\":6425:6434   */\n      dup6\n        /* \"#utility.yul\":6421:6443   */\n      add\n        /* \"#utility.yul\":6403:6449   */\n      tag_133\n      jump\t// in\n    tag_248:\n        /* \"#utility.yul\":6396:6400   */\n      0xe0\n        /* \"#utility.yul\":6389:6394   */\n      dup4\n        /* \"#utility.yul\":6385:6401   */\n      add\n        /* \"#utility.yul\":6378:6450   */\n      mstore\n        /* \"#utility.yul\":6302:6461   */\n      pop\n        /* \"#utility.yul\":4374:6468   */\n      swap3\n      swap2\n      pop\n      pop\n      jump\t// out\n        /* \"#utility.yul\":6474:7007   */\n    tag_17:\n        /* \"#utility.yul\":6555:6561   */\n      0x00\n        /* \"#utility.yul\":6604:6606   */\n      0x20\n        /* \"#utility.yul\":6592:6601   */\n      dup3\n        /* \"#utility.yul\":6583:6590   */\n      dup5\n        /* \"#utility.yul\":6579:6602   */\n      sub\n        /* \"#utility.yul\":6575:6607   */\n      slt\n        /* \"#utility.yul\":6572:6691   */\n      iszero\n      tag_250\n      jumpi\n        /* \"#utility.yul\":6610:6689   */\n      tag_251\n      tag_110\n      jump\t// in\n    tag_251:\n        /* \"#utility.yul\":6572:6691   */\n    tag_250:\n        /* \"#utility.yul\":6758:6759   */\n      0x00\n        /* \"#utility.yul\":6747:6756   */\n      dup3\n        /* \"#utility.yul\":6743:6760   */\n      add\n        /* \"#utility.yul\":6730:6761   */\n      calldataload\n        /* \"#utility.yul\":6788:6806   */\n      0xffffffffffffffff\n        /* \"#utility.yul\":6780:6786   */\n      dup2\n        /* \"#utility.yul\":6777:6807   */\n      gt\n        /* \"#utility.yul\":6774:6891   */\n      iszero\n      tag_252\n      jumpi\n        /* \"#utility.yul\":6810:6889   */\n      tag_253\n      tag_111\n      jump\t// in\n    tag_253:\n        /* \"#utility.yul\":6774:6891   */\n    tag_252:\n        /* \"#utility.yul\":6915:6990   */\n      tag_254\n        /* \"#utility.yul\":6982:6989   */\n      dup5\n        /* \"#utility.yul\":6973:6979   */\n      dup3\n        /* \"#utility.yul\":6962:6971   */\n      dup6\n        /* \"#utility.yul\":6958:6980   */\n      add\n        /* \"#utility.yul\":6915:6990   */\n      tag_134\n      jump\t// in\n    tag_254:\n        /* \"#utility.yul\":6905:6990   */\n      swap2\n      pop\n        /* \"#utility.yul\":6701:7000   */\n      pop\n        /* \"#utility.yul\":6474:7007   */\n      swap3\n      swap2\n      pop\n      pop\n      jump\t// out\n        /* \"#utility.yul\":7013:7131   */\n    tag_135:\n        /* \"#utility.yul\":7100:7124   */\n      tag_256\n        /* \"#utility.yul\":7118:7123   */\n      dup2\n        /* \"#utility.yul\":7100:7124   */\n      tag_113\n      jump\t// in\n    tag_256:\n        /* \"#utility.yul\":7095:7098   */\n      dup3\n        /* \"#utility.yul\":7088:7125   */\n      mstore\n        /* \"#utility.yul\":7013:7131   */\n      pop\n      pop\n      jump\t// out\n        /* \"#utility.yul\":7137:7359   */\n    tag_24:\n        /* \"#utility.yul\":7230:7234   */\n      0x00\n        /* \"#utility.yul\":7268:7270   */\n      0x20\n        /* \"#utility.yul\":7257:7266   */\n      dup3\n        /* \"#utility.yul\":7253:7271   */\n      add\n        /* \"#utility.yul\":7245:7271   */\n      swap1\n      pop\n        /* \"#utility.yul\":7281:7352   */\n      tag_258\n        /* \"#utility.yul\":7349:7350   */\n      0x00\n        /* \"#utility.yul\":7338:7347   */\n      dup4\n        /* \"#utility.yul\":7334:7351   */\n      add\n        /* \"#utility.yul\":7325:7331   */\n      dup5\n        /* \"#utility.yul\":7281:7352   */\n      tag_135\n      jump\t// in\n    tag_258:\n        /* \"#utility.yul\":7137:7359   */\n      swap3\n      swap2\n      pop\n      pop\n      jump\t// out\n        /* \"#utility.yul\":7365:7501   */\n    tag_136:\n        /* \"#utility.yul\":7454:7460   */\n      0x00\n        /* \"#utility.yul\":7488:7493   */\n      dup2\n        /* \"#utility.yul\":7482:7494   */\n      mload\n        /* \"#utility.yul\":7472:7494   */\n      swap1\n      pop\n        /* \"#utility.yul\":7365:7501   */\n      swap2\n      swap1\n      pop\n      jump\t// out\n        /* \"#utility.yul\":7507:7713   */\n    tag_137:\n        /* \"#utility.yul\":7628:7639   */\n      0x00\n        /* \"#utility.yul\":7662:7668   */\n      dup3\n        /* \"#utility.yul\":7657:7660   */\n      dup3\n        /* \"#utility.yul\":7650:7669   */\n      mstore\n        /* \"#utility.yul\":7702:7706   */\n      0x20\n        /* \"#utility.yul\":7697:7700   */\n      dup3\n        /* \"#utility.yul\":7693:7707   */\n      add\n        /* \"#utility.yul\":7678:7707   */\n      swap1\n      pop\n        /* \"#utility.yul\":7507:7713   */\n      swap3\n      swap2\n      pop\n      pop\n      jump\t// out\n        /* \"#utility.yul\":7719:7873   */\n    tag_138:\n        /* \"#utility.yul\":7808:7812   */\n      0x00\n        /* \"#utility.yul\":7831:7834   */\n      dup2\n        /* \"#utility.yul\":7823:7834   */\n      swap1\n      pop\n        /* \"#utility.yul\":7861:7865   */\n      0x20\n        /* \"#utility.yul\":7856:7859   */\n      dup3\n        /* \"#utility.yul\":7852:7866   */\n      add\n        /* \"#utility.yul\":7844:7866   */\n      swap1\n      pop\n        /* \"#utility.yul\":7719:7873   */\n      swap2\n      swap1\n      pop\n      jump\t// out\n        /* \"#utility.yul\":7879:7987   */\n    tag_139:\n        /* \"#utility.yul\":7956:7980   */\n      tag_263\n        /* \"#utility.yul\":7974:7979   */\n      dup2\n        /* \"#utility.yul\":7956:7980   */\n      tag_122\n      jump\t// in\n    tag_263:\n        /* \"#utility.yul\":7951:7954   */\n      dup3\n        /* \"#utility.yul\":7944:7981   */\n      mstore\n        /* \"#utility.yul\":7879:7987   */\n      pop\n      pop\n      jump\t// out\n        /* \"#utility.yul\":7993:8092   */\n    tag_140:\n        /* \"#utility.yul\":8045:8051   */\n      0x00\n        /* \"#utility.yul\":8079:8084   */\n      dup2\n        /* \"#utility.yul\":8073:8085   */\n      mload\n        /* \"#utility.yul\":8063:8085   */\n      swap1\n      pop\n        /* \"#utility.yul\":7993:8092   */\n      swap2\n      swap1\n      pop\n      jump\t// out\n        /* \"#utility.yul\":8098:8257   */\n    tag_141:\n        /* \"#utility.yul\":8172:8183   */\n      0x00\n        /* \"#utility.yul\":8206:8212   */\n      dup3\n        /* \"#utility.yul\":8201:8204   */\n      dup3\n        /* \"#utility.yul\":8194:8213   */\n      mstore\n        /* \"#utility.yul\":8246:8250   */\n      0x20\n        /* \"#utility.yul\":8241:8244   */\n      dup3\n        /* \"#utility.yul\":8237:8251   */\n      add\n        /* \"#utility.yul\":8222:8251   */\n      swap1\n      pop\n        /* \"#utility.yul\":8098:8257   */\n      swap3\n      swap2\n      pop\n      pop\n      jump\t// out\n        /* \"#utility.yul\":8263:8509   */\n    tag_142:\n        /* \"#utility.yul\":8344:8345   */\n      0x00\n        /* \"#utility.yul\":8354:8467   */\n    tag_267:\n        /* \"#utility.yul\":8368:8374   */\n      dup4\n        /* \"#utility.yul\":8365:8366   */\n      dup2\n        /* \"#utility.yul\":8362:8375   */\n      lt\n        /* \"#utility.yul\":8354:8467   */\n      iszero\n      tag_269\n      jumpi\n        /* \"#utility.yul\":8453:8454   */\n      dup1\n        /* \"#utility.yul\":8448:8451   */\n      dup3\n        /* \"#utility.yul\":8444:8455   */\n      add\n        /* \"#utility.yul\":8438:8456   */\n      mload\n        /* \"#utility.yul\":8434:8435   */\n      dup2\n        /* \"#utility.yul\":8429:8432   */\n      dup5\n        /* \"#utility.yul\":8425:8436   */\n      add\n        /* \"#utility.yul\":8418:8457   */\n      mstore\n        /* \"#utility.yul\":8390:8392   */\n      0x20\n        /* \"#utility.yul\":8387:8388   */\n      dup2\n        /* \"#utility.yul\":8383:8393   */\n      add\n        /* \"#utility.yul\":8378:8393   */\n      swap1\n      pop\n        /* \"#utility.yul\":8354:8467   */\n      jump(tag_267)\n    tag_269:\n        /* \"#utility.yul\":8501:8502   */\n      0x00\n        /* \"#utility.yul\":8492:8498   */\n      dup5\n        /* \"#utility.yul\":8487:8490   */\n      dup5\n        /* \"#utility.yul\":8483:8499   */\n      add\n        /* \"#utility.yul\":8476:8503   */\n      mstore\n        /* \"#utility.yul\":8325:8509   */\n      pop\n        /* \"#utility.yul\":8263:8509   */\n      pop\n      pop\n      pop\n      jump\t// out\n        /* \"#utility.yul\":8515:8872   */\n    tag_143:\n        /* \"#utility.yul\":8593:8596   */\n      0x00\n        /* \"#utility.yul\":8621:8660   */\n      tag_271\n        /* \"#utility.yul\":8654:8659   */\n      dup3\n        /* \"#utility.yul\":8621:8660   */\n      tag_140\n      jump\t// in\n    tag_271:\n        /* \"#utility.yul\":8676:8737   */\n      tag_272\n        /* \"#utility.yul\":8730:8736   */\n      dup2\n        /* \"#utility.yul\":8725:8728   */\n      dup6\n        /* \"#utility.yul\":8676:8737   */\n      tag_141\n      jump\t// in\n    tag_272:\n        /* \"#utility.yul\":8669:8737   */\n      swap4\n      pop\n        /* \"#utility.yul\":8746:8811   */\n      tag_273\n        /* \"#utility.yul\":8804:8810   */\n      dup2\n        /* \"#utility.yul\":8799:8802   */\n      dup6\n        /* \"#utility.yul\":8792:8796   */\n      0x20\n        /* \"#utility.yul\":8785:8790   */\n      dup7\n        /* \"#utility.yul\":8781:8797   */\n      add\n        /* \"#utility.yul\":8746:8811   */\n      tag_142\n      jump\t// in\n    tag_273:\n        /* \"#utility.yul\":8836:8865   */\n      tag_274\n        /* \"#utility.yul\":8858:8864   */\n      dup2\n        /* \"#utility.yul\":8836:8865   */\n      tag_117\n      jump\t// in\n    tag_274:\n        /* \"#utility.yul\":8831:8834   */\n      dup5\n        /* \"#utility.yul\":8827:8866   */\n      add\n        /* \"#utility.yul\":8820:8866   */\n      swap2\n      pop\n        /* \"#utility.yul\":8597:8872   */\n      pop\n        /* \"#utility.yul\":8515:8872   */\n      swap3\n      swap2\n      pop\n      pop\n      jump\t// out\n        /* \"#utility.yul\":8878:8977   */\n    tag_144:\n        /* \"#utility.yul\":8949:8970   */\n      tag_276\n        /* \"#utility.yul\":8964:8969   */\n      dup2\n        /* \"#utility.yul\":8949:8970   */\n      tag_131\n      jump\t// in\n    tag_276:\n        /* \"#utility.yul\":8944:8947   */\n      dup3\n        /* \"#utility.yul\":8937:8971   */\n      mstore\n        /* \"#utility.yul\":8878:8977   */\n      pop\n      pop\n      jump\t// out\n        /* \"#utility.yul\":9019:10833   */\n    tag_145:\n        /* \"#utility.yul\":9122:9125   */\n      0x00\n        /* \"#utility.yul\":9158:9164   */\n      0x0100\n        /* \"#utility.yul\":9153:9156   */\n      dup4\n        /* \"#utility.yul\":9149:9165   */\n      add\n        /* \"#utility.yul\":9250:9254   */\n      0x00\n        /* \"#utility.yul\":9243:9248   */\n      dup4\n        /* \"#utility.yul\":9239:9255   */\n      add\n        /* \"#utility.yul\":9233:9256   */\n      mload\n        /* \"#utility.yul\":9269:9332   */\n      tag_278\n        /* \"#utility.yul\":9326:9330   */\n      0x00\n        /* \"#utility.yul\":9321:9324   */\n      dup7\n        /* \"#utility.yul\":9317:9331   */\n      add\n        /* \"#utility.yul\":9303:9315   */\n      dup3\n        /* \"#utility.yul\":9269:9332   */\n      tag_139\n      jump\t// in\n    tag_278:\n        /* \"#utility.yul\":9175:9342   */\n      pop\n        /* \"#utility.yul\":9426:9430   */\n      0x20\n        /* \"#utility.yul\":9419:9424   */\n      dup4\n        /* \"#utility.yul\":9415:9431   */\n      add\n        /* \"#utility.yul\":9409:9432   */\n      mload\n        /* \"#utility.yul\":9445:9508   */\n      tag_279\n        /* \"#utility.yul\":9502:9506   */\n      0x20\n        /* \"#utility.yul\":9497:9500   */\n      dup7\n        /* \"#utility.yul\":9493:9507   */\n      add\n        /* \"#utility.yul\":9479:9491   */\n      dup3\n        /* \"#utility.yul\":9445:9508   */\n      tag_139\n      jump\t// in\n    tag_279:\n        /* \"#utility.yul\":9352:9518   */\n      pop\n        /* \"#utility.yul\":9602:9606   */\n      0x40\n        /* \"#utility.yul\":9595:9600   */\n      dup4\n        /* \"#utility.yul\":9591:9607   */\n      add\n        /* \"#utility.yul\":9585:9608   */\n      mload\n        /* \"#utility.yul\":9621:9684   */\n      tag_280\n        /* \"#utility.yul\":9678:9682   */\n      0x40\n        /* \"#utility.yul\":9673:9676   */\n      dup7\n        /* \"#utility.yul\":9669:9683   */\n      add\n        /* \"#utility.yul\":9655:9667   */\n      dup3\n        /* \"#utility.yul\":9621:9684   */\n      tag_139\n      jump\t// in\n    tag_280:\n        /* \"#utility.yul\":9528:9694   */\n      pop\n        /* \"#utility.yul\":9781:9785   */\n      0x60\n        /* \"#utility.yul\":9774:9779   */\n      dup4\n        /* \"#utility.yul\":9770:9786   */\n      add\n        /* \"#utility.yul\":9764:9787   */\n      mload\n        /* \"#utility.yul\":9834:9837   */\n      dup5\n        /* \"#utility.yul\":9828:9832   */\n      dup3\n        /* \"#utility.yul\":9824:9838   */\n      sub\n        /* \"#utility.yul\":9817:9821   */\n      0x60\n        /* \"#utility.yul\":9812:9815   */\n      dup7\n        /* \"#utility.yul\":9808:9822   */\n      add\n        /* \"#utility.yul\":9801:9839   */\n      mstore\n        /* \"#utility.yul\":9860:9933   */\n      tag_281\n        /* \"#utility.yul\":9928:9932   */\n      dup3\n        /* \"#utility.yul\":9914:9926   */\n      dup3\n        /* \"#utility.yul\":9860:9933   */\n      tag_143\n      jump\t// in\n    tag_281:\n        /* \"#utility.yul\":9852:9933   */\n      swap2\n      pop\n        /* \"#utility.yul\":9704:9944   */\n      pop\n        /* \"#utility.yul\":10034:10038   */\n      0x80\n        /* \"#utility.yul\":10027:10032   */\n      dup4\n        /* \"#utility.yul\":10023:10039   */\n      add\n        /* \"#utility.yul\":10017:10040   */\n      mload\n        /* \"#utility.yul\":10053:10116   */\n      tag_282\n        /* \"#utility.yul\":10110:10114   */\n      0x80\n        /* \"#utility.yul\":10105:10108   */\n      dup7\n        /* \"#utility.yul\":10101:10115   */\n      add\n        /* \"#utility.yul\":10087:10099   */\n      dup3\n        /* \"#utility.yul\":10053:10116   */\n      tag_139\n      jump\t// in\n    tag_282:\n        /* \"#utility.yul\":9954:10126   */\n      pop\n        /* \"#utility.yul\":10214:10218   */\n      0xa0\n        /* \"#utility.yul\":10207:10212   */\n      dup4\n        /* \"#utility.yul\":10203:10219   */\n      add\n        /* \"#utility.yul\":10197:10220   */\n      mload\n        /* \"#utility.yul\":10267:10270   */\n      dup5\n        /* \"#utility.yul\":10261:10265   */\n      dup3\n        /* \"#utility.yul\":10257:10271   */\n      sub\n        /* \"#utility.yul\":10250:10254   */\n      0xa0\n        /* \"#utility.yul\":10245:10248   */\n      dup7\n        /* \"#utility.yul\":10241:10255   */\n      add\n        /* \"#utility.yul\":10234:10272   */\n      mstore\n        /* \"#utility.yul\":10293:10366   */\n      tag_283\n        /* \"#utility.yul\":10361:10365   */\n      dup3\n        /* \"#utility.yul\":10347:10359   */\n      dup3\n        /* \"#utility.yul\":10293:10366   */\n      tag_143\n      jump\t// in\n    tag_283:\n        /* \"#utility.yul\":10285:10366   */\n      swap2\n      pop\n        /* \"#utility.yul\":10136:10377   */\n      pop\n        /* \"#utility.yul\":10465:10469   */\n      0xc0\n        /* \"#utility.yul\":10458:10463   */\n      dup4\n        /* \"#utility.yul\":10454:10470   */\n      add\n        /* \"#utility.yul\":10448:10471   */\n      mload\n        /* \"#utility.yul\":10518:10521   */\n      dup5\n        /* \"#utility.yul\":10512:10516   */\n      dup3\n        /* \"#utility.yul\":10508:10522   */\n      sub\n        /* \"#utility.yul\":10501:10505   */\n      0xc0\n        /* \"#utility.yul\":10496:10499   */\n      dup7\n        /* \"#utility.yul\":10492:10506   */\n      add\n        /* \"#utility.yul\":10485:10523   */\n      mstore\n        /* \"#utility.yul\":10544:10617   */\n      tag_284\n        /* \"#utility.yul\":10612:10616   */\n      dup3\n        /* \"#utility.yul\":10598:10610   */\n      dup3\n        /* \"#utility.yul\":10544:10617   */\n      tag_143\n      jump\t// in\n    tag_284:\n        /* \"#utility.yul\":10536:10617   */\n      swap2\n      pop\n        /* \"#utility.yul\":10387:10628   */\n      pop\n        /* \"#utility.yul\":10720:10724   */\n      0xe0\n        /* \"#utility.yul\":10713:10718   */\n      dup4\n        /* \"#utility.yul\":10709:10725   */\n      add\n        /* \"#utility.yul\":10703:10726   */\n      mload\n        /* \"#utility.yul\":10739:10796   */\n      tag_285\n        /* \"#utility.yul\":10790:10794   */\n      0xe0\n        /* \"#utility.yul\":10785:10788   */\n      dup7\n        /* \"#utility.yul\":10781:10795   */\n      add\n        /* \"#utility.yul\":10767:10779   */\n      dup3\n        /* \"#utility.yul\":10739:10796   */\n      tag_144\n      jump\t// in\n    tag_285:\n        /* \"#utility.yul\":10638:10806   */\n      pop\n        /* \"#utility.yul\":10823:10827   */\n      dup1\n        /* \"#utility.yul\":10816:10827   */\n      swap2\n      pop\n        /* \"#utility.yul\":9127:10833   */\n      pop\n        /* \"#utility.yul\":9019:10833   */\n      swap3\n      swap2\n      pop\n      pop\n      jump\t// out\n        /* \"#utility.yul\":10839:11083   */\n    tag_146:\n        /* \"#utility.yul\":10952:10962   */\n      0x00\n        /* \"#utility.yul\":10987:11077   */\n      tag_287\n        /* \"#utility.yul\":11073:11076   */\n      dup4\n        /* \"#utility.yul\":11065:11071   */\n      dup4\n        /* \"#utility.yul\":10987:11077   */\n      tag_145\n      jump\t// in\n    tag_287:\n        /* \"#utility.yul\":10973:11077   */\n      swap1\n      pop\n        /* \"#utility.yul\":10839:11083   */\n      swap3\n      swap2\n      pop\n      pop\n      jump\t// out\n        /* \"#utility.yul\":11089:11224   */\n    tag_147:\n        /* \"#utility.yul\":11181:11185   */\n      0x00\n        /* \"#utility.yul\":11213:11217   */\n      0x20\n        /* \"#utility.yul\":11208:11211   */\n      dup3\n        /* \"#utility.yul\":11204:11218   */\n      add\n        /* \"#utility.yul\":11196:11218   */\n      swap1\n      pop\n        /* \"#utility.yul\":11089:11224   */\n      swap2\n      swap1\n      pop\n      jump\t// out\n        /* \"#utility.yul\":11270:12357   */\n    tag_148:\n        /* \"#utility.yul\":11433:11436   */\n      0x00\n        /* \"#utility.yul\":11462:11538   */\n      tag_290\n        /* \"#utility.yul\":11532:11537   */\n      dup3\n        /* \"#utility.yul\":11462:11538   */\n      tag_136\n      jump\t// in\n    tag_290:\n        /* \"#utility.yul\":11554:11662   */\n      tag_291\n        /* \"#utility.yul\":11655:11661   */\n      dup2\n        /* \"#utility.yul\":11650:11653   */\n      dup6\n        /* \"#utility.yul\":11554:11662   */\n      tag_137\n      jump\t// in\n    tag_291:\n        /* \"#utility.yul\":11547:11662   */\n      swap4\n      pop\n        /* \"#utility.yul\":11688:11691   */\n      dup4\n        /* \"#utility.yul\":11733:11737   */\n      0x20\n        /* \"#utility.yul\":11725:11731   */\n      dup3\n        /* \"#utility.yul\":11721:11738   */\n      mul\n        /* \"#utility.yul\":11716:11719   */\n      dup6\n        /* \"#utility.yul\":11712:11739   */\n      add\n        /* \"#utility.yul\":11763:11841   */\n      tag_292\n        /* \"#utility.yul\":11835:11840   */\n      dup6\n        /* \"#utility.yul\":11763:11841   */\n      tag_138\n      jump\t// in\n    tag_292:\n        /* \"#utility.yul\":11864:11871   */\n      dup1\n        /* \"#utility.yul\":11895:11896   */\n      0x00\n        /* \"#utility.yul\":11880:12312   */\n    tag_293:\n        /* \"#utility.yul\":11905:11911   */\n      dup6\n        /* \"#utility.yul\":11902:11903   */\n      dup2\n        /* \"#utility.yul\":11899:11912   */\n      lt\n        /* \"#utility.yul\":11880:12312   */\n      iszero\n      tag_295\n      jumpi\n        /* \"#utility.yul\":11976:11985   */\n      dup5\n        /* \"#utility.yul\":11970:11974   */\n      dup5\n        /* \"#utility.yul\":11966:11986   */\n      sub\n        /* \"#utility.yul\":11961:11964   */\n      dup10\n        /* \"#utility.yul\":11954:11987   */\n      mstore\n        /* \"#utility.yul\":12027:12033   */\n      dup2\n        /* \"#utility.yul\":12021:12034   */\n      mload\n        /* \"#utility.yul\":12055:12163   */\n      tag_296\n        /* \"#utility.yul\":12158:12162   */\n      dup6\n        /* \"#utility.yul\":12143:12156   */\n      dup3\n        /* \"#utility.yul\":12055:12163   */\n      tag_146\n      jump\t// in\n    tag_296:\n        /* \"#utility.yul\":12047:12163   */\n      swap5\n      pop\n        /* \"#utility.yul\":12186:12268   */\n      tag_297\n        /* \"#utility.yul\":12261:12267   */\n      dup4\n        /* \"#utility.yul\":12186:12268   */\n      tag_147\n      jump\t// in\n    tag_297:\n        /* \"#utility.yul\":12176:12268   */\n      swap3\n      pop\n        /* \"#utility.yul\":12297:12301   */\n      0x20\n        /* \"#utility.yul\":12292:12295   */\n      dup11\n        /* \"#utility.yul\":12288:12302   */\n      add\n        /* \"#utility.yul\":12281:12302   */\n      swap10\n      pop\n        /* \"#utility.yul\":11940:12312   */\n      pop\n        /* \"#utility.yul\":11927:11928   */\n      0x01\n        /* \"#utility.yul\":11924:11925   */\n      dup2\n        /* \"#utility.yul\":11920:11929   */\n      add\n        /* \"#utility.yul\":11915:11929   */\n      swap1\n      pop\n        /* \"#utility.yul\":11880:12312   */\n      jump(tag_293)\n    tag_295:\n        /* \"#utility.yul\":11884:11898   */\n      pop\n        /* \"#utility.yul\":12328:12332   */\n      dup3\n        /* \"#utility.yul\":12321:12332   */\n      swap8\n      pop\n        /* \"#utility.yul\":12348:12351   */\n      dup8\n        /* \"#utility.yul\":12341:12351   */\n      swap6\n      pop\n        /* \"#utility.yul\":11438:12357   */\n      pop\n      pop\n      pop\n      pop\n      pop\n        /* \"#utility.yul\":11270:12357   */\n      swap3\n      swap2\n      pop\n      pop\n      jump\t// out\n        /* \"#utility.yul\":12363:12824   */\n    tag_28:\n        /* \"#utility.yul\":12550:12554   */\n      0x00\n        /* \"#utility.yul\":12588:12590   */\n      0x20\n        /* \"#utility.yul\":12577:12586   */\n      dup3\n        /* \"#utility.yul\":12573:12591   */\n      add\n        /* \"#utility.yul\":12565:12591   */\n      swap1\n      pop\n        /* \"#utility.yul\":12637:12646   */\n      dup2\n        /* \"#utility.yul\":12631:12635   */\n      dup2\n        /* \"#utility.yul\":12627:12647   */\n      sub\n        /* \"#utility.yul\":12623:12624   */\n      0x00\n        /* \"#utility.yul\":12612:12621   */\n      dup4\n        /* \"#utility.yul\":12608:12625   */\n      add\n        /* \"#utility.yul\":12601:12648   */\n      mstore\n        /* \"#utility.yul\":12665:12817   */\n      tag_299\n        /* \"#utility.yul\":12812:12816   */\n      dup2\n        /* \"#utility.yul\":12803:12809   */\n      dup5\n        /* \"#utility.yul\":12665:12817   */\n      tag_148\n      jump\t// in\n    tag_299:\n        /* \"#utility.yul\":12657:12817   */\n      swap1\n      pop\n        /* \"#utility.yul\":12363:12824   */\n      swap3\n      swap2\n      pop\n      pop\n      jump\t// out\n        /* \"#utility.yul\":12830:13159   */\n    tag_31:\n        /* \"#utility.yul\":12889:12895   */\n      0x00\n        /* \"#utility.yul\":12938:12940   */\n      0x20\n        /* \"#utility.yul\":12926:12935   */\n      dup3\n        /* \"#utility.yul\":12917:12924   */\n      dup5\n        /* \"#utility.yul\":12913:12936   */\n      sub\n        /* \"#utility.yul\":12909:12941   */\n      slt\n        /* \"#utility.yul\":12906:13025   */\n      iszero\n      tag_301\n      jumpi\n        /* \"#utility.yul\":12944:13023   */\n      tag_302\n      tag_110\n      jump\t// in\n    tag_302:\n        /* \"#utility.yul\":12906:13025   */\n    tag_301:\n        /* \"#utility.yul\":13064:13065   */\n      0x00\n        /* \"#utility.yul\":13089:13142   */\n      tag_303\n        /* \"#utility.yul\":13134:13141   */\n      dup5\n        /* \"#utility.yul\":13125:13131   */\n      dup3\n        /* \"#utility.yul\":13114:13123   */\n      dup6\n        /* \"#utility.yul\":13110:13132   */\n      add\n        /* \"#utility.yul\":13089:13142   */\n      tag_124\n      jump\t// in\n    tag_303:\n        /* \"#utility.yul\":13079:13142   */\n      swap2\n      pop\n        /* \"#utility.yul\":13035:13152   */\n      pop\n        /* \"#utility.yul\":12830:13159   */\n      swap3\n      swap2\n      pop\n      pop\n      jump\t// out\n        /* \"#utility.yul\":13165:13334   */\n    tag_149:\n        /* \"#utility.yul\":13249:13260   */\n      0x00\n        /* \"#utility.yul\":13283:13289   */\n      dup3\n        /* \"#utility.yul\":13278:13281   */\n      dup3\n        /* \"#utility.yul\":13271:13290   */\n      mstore\n        /* \"#utility.yul\":13323:13327   */\n      0x20\n        /* \"#utility.yul\":13318:13321   */\n      dup3\n        /* \"#utility.yul\":13314:13328   */\n      add\n        /* \"#utility.yul\":13299:13328   */\n      swap1\n      pop\n        /* \"#utility.yul\":13165:13334   */\n      swap3\n      swap2\n      pop\n      pop\n      jump\t// out\n        /* \"#utility.yul\":13340:13569   */\n    tag_150:\n        /* \"#utility.yul\":13480:13514   */\n      0x426174636844617461626173653a207065726d697373696f6e20686173206265\n        /* \"#utility.yul\":13476:13477   */\n      0x00\n        /* \"#utility.yul\":13468:13474   */\n      dup3\n        /* \"#utility.yul\":13464:13478   */\n      add\n        /* \"#utility.yul\":13457:13515   */\n      mstore\n        /* \"#utility.yul\":13549:13561   */\n      0x656e206772616e74656400000000000000000000000000000000000000000000\n        /* \"#utility.yul\":13544:13546   */\n      0x20\n        /* \"#utility.yul\":13536:13542   */\n      dup3\n        /* \"#utility.yul\":13532:13547   */\n      add\n        /* \"#utility.yul\":13525:13562   */\n      mstore\n        /* \"#utility.yul\":13340:13569   */\n      pop\n      jump\t// out\n        /* \"#utility.yul\":13575:13941   */\n    tag_151:\n        /* \"#utility.yul\":13717:13720   */\n      0x00\n        /* \"#utility.yul\":13738:13805   */\n      tag_307\n        /* \"#utility.yul\":13802:13804   */\n      0x2a\n        /* \"#utility.yul\":13797:13800   */\n      dup4\n        /* \"#utility.yul\":13738:13805   */\n      tag_149\n      jump\t// in\n    tag_307:\n        /* \"#utility.yul\":13731:13805   */\n      swap2\n      pop\n        /* \"#utility.yul\":13814:13907   */\n      tag_308\n        /* \"#utility.yul\":13903:13906   */\n      dup3\n        /* \"#utility.yul\":13814:13907   */\n      tag_150\n      jump\t// in\n    tag_308:\n        /* \"#utility.yul\":13932:13934   */\n      0x40\n        /* \"#utility.yul\":13927:13930   */\n      dup3\n        /* \"#utility.yul\":13923:13935   */\n      add\n        /* \"#utility.yul\":13916:13935   */\n      swap1\n      pop\n        /* \"#utility.yul\":13575:13941   */\n      swap2\n      swap1\n      pop\n      jump\t// out\n        /* \"#utility.yul\":13947:14366   */\n    tag_42:\n        /* \"#utility.yul\":14113:14117   */\n      0x00\n        /* \"#utility.yul\":14151:14153   */\n      0x20\n        /* \"#utility.yul\":14140:14149   */\n      dup3\n        /* \"#utility.yul\":14136:14154   */\n      add\n        /* \"#utility.yul\":14128:14154   */\n      swap1\n      pop\n        /* \"#utility.yul\":14200:14209   */\n      dup2\n        /* \"#utility.yul\":14194:14198   */\n      dup2\n        /* \"#utility.yul\":14190:14210   */\n      sub\n        /* \"#utility.yul\":14186:14187   */\n      0x00\n        /* \"#utility.yul\":14175:14184   */\n      dup4\n        /* \"#utility.yul\":14171:14188   */\n      add\n        /* \"#utility.yul\":14164:14211   */\n      mstore\n        /* \"#utility.yul\":14228:14359   */\n      tag_310\n        /* \"#utility.yul\":14354:14358   */\n      dup2\n        /* \"#utility.yul\":14228:14359   */\n      tag_151\n      jump\t// in\n    tag_310:\n        /* \"#utility.yul\":14220:14359   */\n      swap1\n      pop\n        /* \"#utility.yul\":13947:14366   */\n      swap2\n      swap1\n      pop\n      jump\t// out\n        /* \"#utility.yul\":14372:14605   */\n    tag_152:\n        /* \"#utility.yul\":14512:14546   */\n      0x426174636844617461626173653a206f6e6c7920636f6e747261637420776869\n        /* \"#utility.yul\":14508:14509   */\n      0x00\n        /* \"#utility.yul\":14500:14506   */\n      dup3\n        /* \"#utility.yul\":14496:14510   */\n      add\n        /* \"#utility.yul\":14489:14547   */\n      mstore\n        /* \"#utility.yul\":14581:14597   */\n      0x63682061726520616c6c6f776564000000000000000000000000000000000000\n        /* \"#utility.yul\":14576:14578   */\n      0x20\n        /* \"#utility.yul\":14568:14574   */\n      dup3\n        /* \"#utility.yul\":14564:14579   */\n      add\n        /* \"#utility.yul\":14557:14598   */\n      mstore\n        /* \"#utility.yul\":14372:14605   */\n      pop\n      jump\t// out\n        /* \"#utility.yul\":14611:14977   */\n    tag_153:\n        /* \"#utility.yul\":14753:14756   */\n      0x00\n        /* \"#utility.yul\":14774:14841   */\n      tag_313\n        /* \"#utility.yul\":14838:14840   */\n      0x2e\n        /* \"#utility.yul\":14833:14836   */\n      dup4\n        /* \"#utility.yul\":14774:14841   */\n      tag_149\n      jump\t// in\n    tag_313:\n        /* \"#utility.yul\":14767:14841   */\n      swap2\n      pop\n        /* \"#utility.yul\":14850:14943   */\n      tag_314\n        /* \"#utility.yul\":14939:14942   */\n      dup3\n        /* \"#utility.yul\":14850:14943   */\n      tag_152\n      jump\t// in\n    tag_314:\n        /* \"#utility.yul\":14968:14970   */\n      0x40\n        /* \"#utility.yul\":14963:14966   */\n      dup3\n        /* \"#utility.yul\":14959:14971   */\n      add\n        /* \"#utility.yul\":14952:14971   */\n      swap1\n      pop\n        /* \"#utility.yul\":14611:14977   */\n      swap2\n      swap1\n      pop\n      jump\t// out\n        /* \"#utility.yul\":14983:15402   */\n    tag_48:\n        /* \"#utility.yul\":15149:15153   */\n      0x00\n        /* \"#utility.yul\":15187:15189   */\n      0x20\n        /* \"#utility.yul\":15176:15185   */\n      dup3\n        /* \"#utility.yul\":15172:15190   */\n      add\n        /* \"#utility.yul\":15164:15190   */\n      swap1\n      pop\n        /* \"#utility.yul\":15236:15245   */\n      dup2\n        /* \"#utility.yul\":15230:15234   */\n      dup2\n        /* \"#utility.yul\":15226:15246   */\n      sub\n        /* \"#utility.yul\":15222:15223   */\n      0x00\n        /* \"#utility.yul\":15211:15220   */\n      dup4\n        /* \"#utility.yul\":15207:15224   */\n      add\n        /* \"#utility.yul\":15200:15247   */\n      mstore\n        /* \"#utility.yul\":15264:15395   */\n      tag_316\n        /* \"#utility.yul\":15390:15394   */\n      dup2\n        /* \"#utility.yul\":15264:15395   */\n      tag_153\n      jump\t// in\n    tag_316:\n        /* \"#utility.yul\":15256:15395   */\n      swap1\n      pop\n        /* \"#utility.yul\":14983:15402   */\n      swap2\n      swap1\n      pop\n      jump\t// out\n        /* \"#utility.yul\":15408:15588   */\n    tag_154:\n        /* \"#utility.yul\":15456:15533   */\n      0x4e487b7100000000000000000000000000000000000000000000000000000000\n        /* \"#utility.yul\":15453:15454   */\n      0x00\n        /* \"#utility.yul\":15446:15534   */\n      mstore\n        /* \"#utility.yul\":15553:15557   */\n      0x11\n        /* \"#utility.yul\":15550:15551   */\n      0x04\n        /* \"#utility.yul\":15543:15558   */\n      mstore\n        /* \"#utility.yul\":15577:15581   */\n      0x24\n        /* \"#utility.yul\":15574:15575   */\n      0x00\n        /* \"#utility.yul\":15567:15582   */\n      revert\n        /* \"#utility.yul\":15594:15827   */\n    tag_51:\n        /* \"#utility.yul\":15633:15636   */\n      0x00\n        /* \"#utility.yul\":15656:15680   */\n      tag_319\n        /* \"#utility.yul\":15674:15679   */\n      dup3\n        /* \"#utility.yul\":15656:15680   */\n      tag_122\n      jump\t// in\n    tag_319:\n        /* \"#utility.yul\":15647:15680   */\n      swap2\n      pop\n        /* \"#utility.yul\":15702:15768   */\n      0xffffffffffffffffffffffffffffffffffffffffffffffffffffffffffffffff\n        /* \"#utility.yul\":15695:15700   */\n      dup3\n        /* \"#utility.yul\":15692:15769   */\n      sub\n        /* \"#utility.yul\":15689:15792   */\n      tag_320\n      jumpi\n        /* \"#utility.yul\":15772:15790   */\n      tag_321\n      tag_154\n      jump\t// in\n    tag_321:\n        /* \"#utility.yul\":15689:15792   */\n    tag_320:\n        /* \"#utility.yul\":15819:15820   */\n      0x01\n        /* \"#utility.yul\":15812:15817   */\n      dup3\n        /* \"#utility.yul\":15808:15821   */\n      add\n        /* \"#utility.yul\":15801:15821   */\n      swap1\n      pop\n        /* \"#utility.yul\":15594:15827   */\n      swap2\n      swap1\n      pop\n      jump\t// out\n        /* \"#utility.yul\":15833:16013   */\n    tag_155:\n        /* \"#utility.yul\":15881:15958   */\n      0x4e487b7100000000000000000000000000000000000000000000000000000000\n        /* \"#utility.yul\":15878:15879   */\n      0x00\n        /* \"#utility.yul\":15871:15959   */\n      mstore\n        /* \"#utility.yul\":15978:15982   */\n      0x22\n        /* \"#utility.yul\":15975:15976   */\n      0x04\n        /* \"#utility.yul\":15968:15983   */\n      mstore\n        /* \"#utility.yul\":16002:16006   */\n      0x24\n        /* \"#utility.yul\":15999:16000   */\n      0x00\n        /* \"#utility.yul\":15992:16007   */\n      revert\n        /* \"#utility.yul\":16019:16339   */\n    tag_70:\n        /* \"#utility.yul\":16063:16069   */\n      0x00\n        /* \"#utility.yul\":16100:16101   */\n      0x02\n        /* \"#utility.yul\":16094:16098   */\n      dup3\n        /* \"#utility.yul\":16090:16102   */\n      div\n        /* \"#utility.yul\":16080:16102   */\n      swap1\n      pop\n        /* \"#utility.yul\":16147:16148   */\n      0x01\n        /* \"#utility.yul\":16141:16145   */\n      dup3\n        /* \"#utility.yul\":16137:16149   */\n      and\n        /* \"#utility.yul\":16168:16186   */\n      dup1\n        /* \"#utility.yul\":16158:16239   */\n      tag_324\n      jumpi\n        /* \"#utility.yul\":16224:16228   */\n      0x7f\n        /* \"#utility.yul\":16216:16222   */\n      dup3\n        /* \"#utility.yul\":16212:16229   */\n      and\n        /* \"#utility.yul\":16202:16229   */\n      swap2\n      pop\n        /* \"#utility.yul\":16158:16239   */\n    tag_324:\n        /* \"#utility.yul\":16286:16288   */\n      0x20\n        /* \"#utility.yul\":16278:16284   */\n      dup3\n        /* \"#utility.yul\":16275:16289   */\n      lt\n        /* \"#utility.yul\":16255:16273   */\n      dup2\n        /* \"#utility.yul\":16252:16290   */\n      sub\n        /* \"#utility.yul\":16249:16333   */\n      tag_325\n      jumpi\n        /* \"#utility.yul\":16305:16323   */\n      tag_326\n      tag_155\n      jump\t// in\n    tag_326:\n        /* \"#utility.yul\":16249:16333   */\n    tag_325:\n        /* \"#utility.yul\":16070:16339   */\n      pop\n        /* \"#utility.yul\":16019:16339   */\n      swap2\n      swap1\n      pop\n      jump\t// out\n        /* \"#utility.yul\":16345:16486   */\n    tag_156:\n        /* \"#utility.yul\":16394:16398   */\n      0x00\n        /* \"#utility.yul\":16417:16420   */\n      dup2\n        /* \"#utility.yul\":16409:16420   */\n      swap1\n      pop\n        /* \"#utility.yul\":16440:16443   */\n      dup2\n        /* \"#utility.yul\":16437:16438   */\n      0x00\n        /* \"#utility.yul\":16430:16444   */\n      mstore\n        /* \"#utility.yul\":16474:16478   */\n      0x20\n        /* \"#utility.yul\":16471:16472   */\n      0x00\n        /* \"#utility.yul\":16461:16479   */\n      keccak256\n        /* \"#utility.yul\":16453:16479   */\n      swap1\n      pop\n        /* \"#utility.yul\":16345:16486   */\n      swap2\n      swap1\n      pop\n      jump\t// out\n        /* \"#utility.yul\":16492:16585   */\n    tag_157:\n        /* \"#utility.yul\":16529:16535   */\n      0x00\n        /* \"#utility.yul\":16576:16578   */\n      0x20\n        /* \"#utility.yul\":16571:16573   */\n      0x1f\n        /* \"#utility.yul\":16564:16569   */\n      dup4\n        /* \"#utility.yul\":16560:16574   */\n      add\n        /* \"#utility.yul\":16556:16579   */\n      div\n        /* \"#utility.yul\":16546:16579   */\n      swap1\n      pop\n        /* \"#utility.yul\":16492:16585   */\n      swap2\n      swap1\n      pop\n      jump\t// out\n        /* \"#utility.yul\":16591:16698   */\n    tag_158:\n        /* \"#utility.yul\":16635:16643   */\n      0x00\n        /* \"#utility.yul\":16685:16690   */\n      dup3\n        /* \"#utility.yul\":16679:16683   */\n      dup3\n        /* \"#utility.yul\":16675:16691   */\n      shl\n        /* \"#utility.yul\":16654:16691   */\n      swap1\n      pop\n        /* \"#utility.yul\":16591:16698   */\n      swap3\n      swap2\n      pop\n      pop\n      jump\t// out\n        /* \"#utility.yul\":16704:17097   */\n    tag_159:\n        /* \"#utility.yul\":16773:16779   */\n      0x00\n        /* \"#utility.yul\":16823:16824   */\n      0x08\n        /* \"#utility.yul\":16811:16821   */\n      dup4\n        /* \"#utility.yul\":16807:16825   */\n      mul\n        /* \"#utility.yul\":16846:16943   */\n      tag_331\n        /* \"#utility.yul\":16876:16942   */\n      0xffffffffffffffffffffffffffffffffffffffffffffffffffffffffffffffff\n        /* \"#utility.yul\":16865:16874   */\n      dup3\n        /* \"#utility.yul\":16846:16943   */\n      tag_158\n      jump\t// in\n    tag_331:\n        /* \"#utility.yul\":16964:17003   */\n      tag_332\n        /* \"#utility.yul\":16994:17002   */\n      dup7\n        /* \"#utility.yul\":16983:16992   */\n      dup4\n        /* \"#utility.yul\":16964:17003   */\n      tag_158\n      jump\t// in\n    tag_332:\n        /* \"#utility.yul\":16952:17003   */\n      swap6\n      pop\n        /* \"#utility.yul\":17036:17040   */\n      dup1\n        /* \"#utility.yul\":17032:17041   */\n      not\n        /* \"#utility.yul\":17025:17030   */\n      dup5\n        /* \"#utility.yul\":17021:17042   */\n      and\n        /* \"#utility.yul\":17012:17042   */\n      swap4\n      pop\n        /* \"#utility.yul\":17085:17089   */\n      dup1\n        /* \"#utility.yul\":17075:17083   */\n      dup7\n        /* \"#utility.yul\":17071:17090   */\n      and\n        /* \"#utility.yul\":17064:17069   */\n      dup5\n        /* \"#utility.yul\":17061:17091   */\n      or\n        /* \"#utility.yul\":17051:17091   */\n      swap3\n      pop\n        /* \"#utility.yul\":16780:17097   */\n      pop\n      pop\n        /* \"#utility.yul\":16704:17097   */\n      swap4\n      swap3\n      pop\n      pop\n      pop\n      jump\t// out\n        /* \"#utility.yul\":17103:17163   */\n    tag_160:\n        /* \"#utility.yul\":17131:17134   */\n      0x00\n        /* \"#utility.yul\":17152:17157   */\n      dup2\n        /* \"#utility.yul\":17145:17157   */\n      swap1\n      pop\n        /* \"#utility.yul\":17103:17163   */\n      swap2\n      swap1\n      pop\n      jump\t// out\n        /* \"#utility.yul\":17169:17311   */\n    tag_161:\n        /* \"#utility.yul\":17219:17228   */\n      0x00\n        /* \"#utility.yul\":17252:17305   */\n      tag_335\n        /* \"#utility.yul\":17270:17304   */\n      tag_336\n        /* \"#utility.yul\":17279:17303   */\n      tag_337\n        /* \"#utility.yul\":17297:17302   */\n      dup5\n        /* \"#utility.yul\":17279:17303   */\n      tag_122\n      jump\t// in\n    tag_337:\n        /* \"#utility.yul\":17270:17304   */\n      tag_160\n      jump\t// in\n    tag_336:\n        /* \"#utility.yul\":17252:17305   */\n      tag_122\n      jump\t// in\n    tag_335:\n        /* \"#utility.yul\":17239:17305   */\n      swap1\n      pop\n        /* \"#utility.yul\":17169:17311   */\n      swap2\n      swap1\n      pop\n      jump\t// out\n        /* \"#utility.yul\":17317:17392   */\n    tag_162:\n        /* \"#utility.yul\":17360:17363   */\n      0x00\n        /* \"#utility.yul\":17381:17386   */\n      dup2\n        /* \"#utility.yul\":17374:17386   */\n      swap1\n      pop\n        /* \"#utility.yul\":17317:17392   */\n      swap2\n      swap1\n      pop\n      jump\t// out\n        /* \"#utility.yul\":17398:17667   */\n    tag_163:\n        /* \"#utility.yul\":17508:17547   */\n      tag_340\n        /* \"#utility.yul\":17539:17546   */\n      dup4\n        /* \"#utility.yul\":17508:17547   */\n      tag_161\n      jump\t// in\n    tag_340:\n        /* \"#utility.yul\":17569:17660   */\n      tag_341\n        /* \"#utility.yul\":17618:17659   */\n      tag_342\n        /* \"#utility.yul\":17642:17658   */\n      dup3\n        /* \"#utility.yul\":17618:17659   */\n      tag_162\n      jump\t// in\n    tag_342:\n        /* \"#utility.yul\":17610:17616   */\n      dup5\n        /* \"#utility.yul\":17603:17607   */\n      dup5\n        /* \"#utility.yul\":17597:17608   */\n      sload\n        /* \"#utility.yul\":17569:17660   */\n      tag_159\n      jump\t// in\n    tag_341:\n        /* \"#utility.yul\":17563:17567   */\n      dup3\n        /* \"#utility.yul\":17556:17661   */\n      sstore\n        /* \"#utility.yul\":17474:17667   */\n      pop\n        /* \"#utility.yul\":17398:17667   */\n      pop\n      pop\n      pop\n      jump\t// out\n        /* \"#utility.yul\":17673:17746   */\n    tag_164:\n        /* \"#utility.yul\":17718:17721   */\n      0x00\n        /* \"#utility.yul\":17673:17746   */\n      swap1\n      jump\t// out\n        /* \"#utility.yul\":17752:17941   */\n    tag_165:\n        /* \"#utility.yul\":17829:17861   */\n      tag_345\n      tag_164\n      jump\t// in\n    tag_345:\n        /* \"#utility.yul\":17870:17935   */\n      tag_346\n        /* \"#utility.yul\":17928:17934   */\n      dup2\n        /* \"#utility.yul\":17920:17926   */\n      dup5\n        /* \"#utility.yul\":17914:17918   */\n      dup5\n        /* \"#utility.yul\":17870:17935   */\n      tag_163\n      jump\t// in\n    tag_346:\n        /* \"#utility.yul\":17805:17941   */\n      pop\n        /* \"#utility.yul\":17752:17941   */\n      pop\n      pop\n      jump\t// out\n        /* \"#utility.yul\":17947:18133   */\n    tag_166:\n        /* \"#utility.yul\":18007:18127   */\n    tag_348:\n        /* \"#utility.yul\":18024:18027   */\n      dup2\n        /* \"#utility.yul\":18017:18022   */\n      dup2\n        /* \"#utility.yul\":18014:18028   */\n      lt\n        /* \"#utility.yul\":18007:18127   */\n      iszero\n      tag_350\n      jumpi\n        /* \"#utility.yul\":18078:18117   */\n      tag_351\n        /* \"#utility.yul\":18115:18116   */\n      0x00\n        /* \"#utility.yul\":18108:18113   */\n      dup3\n        /* \"#utility.yul\":18078:18117   */\n      tag_165\n      jump\t// in\n    tag_351:\n        /* \"#utility.yul\":18051:18052   */\n      0x01\n        /* \"#utility.yul\":18044:18049   */\n      dup2\n        /* \"#utility.yul\":18040:18053   */\n      add\n        /* \"#utility.yul\":18031:18053   */\n      swap1\n      pop\n        /* \"#utility.yul\":18007:18127   */\n      jump(tag_348)\n    tag_350:\n        /* \"#utility.yul\":17947:18133   */\n      pop\n      pop\n      jump\t// out\n        /* \"#utility.yul\":18139:18682   */\n    tag_167:\n        /* \"#utility.yul\":18240:18242   */\n      0x1f\n        /* \"#utility.yul\":18235:18238   */\n      dup3\n        /* \"#utility.yul\":18232:18243   */\n      gt\n        /* \"#utility.yul\":18229:18675   */\n      iszero\n      tag_353\n      jumpi\n        /* \"#utility.yul\":18274:18312   */\n      tag_354\n        /* \"#utility.yul\":18306:18311   */\n      dup2\n        /* \"#utility.yul\":18274:18312   */\n      tag_156\n      jump\t// in\n    tag_354:\n        /* \"#utility.yul\":18358:18387   */\n      tag_355\n        /* \"#utility.yul\":18376:18386   */\n      dup5\n        /* \"#utility.yul\":18358:18387   */\n      tag_157\n      jump\t// in\n    tag_355:\n        /* \"#utility.yul\":18348:18356   */\n      dup2\n        /* \"#utility.yul\":18344:18388   */\n      add\n        /* \"#utility.yul\":18541:18543   */\n      0x20\n        /* \"#utility.yul\":18529:18539   */\n      dup6\n        /* \"#utility.yul\":18526:18544   */\n      lt\n        /* \"#utility.yul\":18523:18572   */\n      iszero\n      tag_356\n      jumpi\n        /* \"#utility.yul\":18562:18570   */\n      dup2\n        /* \"#utility.yul\":18547:18570   */\n      swap1\n      pop\n        /* \"#utility.yul\":18523:18572   */\n    tag_356:\n        /* \"#utility.yul\":18585:18665   */\n      tag_357\n        /* \"#utility.yul\":18641:18663   */\n      tag_358\n        /* \"#utility.yul\":18659:18662   */\n      dup6\n        /* \"#utility.yul\":18641:18663   */\n      tag_157\n      jump\t// in\n    tag_358:\n        /* \"#utility.yul\":18631:18639   */\n      dup4\n        /* \"#utility.yul\":18627:18664   */\n      add\n        /* \"#utility.yul\":18614:18625   */\n      dup3\n        /* \"#utility.yul\":18585:18665   */\n      tag_166\n      jump\t// in\n    tag_357:\n        /* \"#utility.yul\":18244:18675   */\n      pop\n      pop\n        /* \"#utility.yul\":18229:18675   */\n    tag_353:\n        /* \"#utility.yul\":18139:18682   */\n      pop\n      pop\n      pop\n      jump\t// out\n        /* \"#utility.yul\":18688:18805   */\n    tag_168:\n        /* \"#utility.yul\":18742:18750   */\n      0x00\n        /* \"#utility.yul\":18792:18797   */\n      dup3\n        /* \"#utility.yul\":18786:18790   */\n      dup3\n        /* \"#utility.yul\":18782:18798   */\n      shr\n        /* \"#utility.yul\":18761:18798   */\n      swap1\n      pop\n        /* \"#utility.yul\":18688:18805   */\n      swap3\n      swap2\n      pop\n      pop\n      jump\t// out\n        /* \"#utility.yul\":18811:18980   */\n    tag_169:\n        /* \"#utility.yul\":18855:18861   */\n      0x00\n        /* \"#utility.yul\":18888:18939   */\n      tag_361\n        /* \"#utility.yul\":18936:18937   */\n      0x00\n        /* \"#utility.yul\":18932:18938   */\n      not\n        /* \"#utility.yul\":18924:18929   */\n      dup5\n        /* \"#utility.yul\":18921:18922   */\n      0x08\n        /* \"#utility.yul\":18917:18930   */\n      mul\n        /* \"#utility.yul\":18888:18939   */\n      tag_168\n      jump\t// in\n    tag_361:\n        /* \"#utility.yul\":18884:18940   */\n      not\n        /* \"#utility.yul\":18969:18973   */\n      dup1\n        /* \"#utility.yul\":18963:18967   */\n      dup4\n        /* \"#utility.yul\":18959:18974   */\n      and\n        /* \"#utility.yul\":18949:18974   */\n      swap2\n      pop\n        /* \"#utility.yul\":18862:18980   */\n      pop\n        /* \"#utility.yul\":18811:18980   */\n      swap3\n      swap2\n      pop\n      pop\n      jump\t// out\n        /* \"#utility.yul\":18985:19280   */\n    tag_170:\n        /* \"#utility.yul\":19061:19065   */\n      0x00\n        /* \"#utility.yul\":19207:19236   */\n      tag_363\n        /* \"#utility.yul\":19232:19235   */\n      dup4\n        /* \"#utility.yul\":19226:19230   */\n      dup4\n        /* \"#utility.yul\":19207:19236   */\n      tag_169\n      jump\t// in\n    tag_363:\n        /* \"#utility.yul\":19199:19236   */\n      swap2\n      pop\n        /* \"#utility.yul\":19269:19272   */\n      dup3\n        /* \"#utility.yul\":19266:19267   */\n      0x02\n        /* \"#utility.yul\":19262:19273   */\n      mul\n        /* \"#utility.yul\":19256:19260   */\n      dup3\n        /* \"#utility.yul\":19253:19274   */\n      or\n        /* \"#utility.yul\":19245:19274   */\n      swap1\n      pop\n        /* \"#utility.yul\":18985:19280   */\n      swap3\n      swap2\n      pop\n      pop\n      jump\t// out\n        /* \"#utility.yul\":19285:20680   */\n    tag_54:\n        /* \"#utility.yul\":19402:19439   */\n      tag_365\n        /* \"#utility.yul\":19435:19438   */\n      dup3\n        /* \"#utility.yul\":19402:19439   */\n      tag_140\n      jump\t// in\n    tag_365:\n        /* \"#utility.yul\":19504:19522   */\n      0xffffffffffffffff\n        /* \"#utility.yul\":19496:19502   */\n      dup2\n        /* \"#utility.yul\":19493:19523   */\n      gt\n        /* \"#utility.yul\":19490:19546   */\n      iszero\n      tag_366\n      jumpi\n        /* \"#utility.yul\":19526:19544   */\n      tag_367\n      tag_118\n      jump\t// in\n    tag_367:\n        /* \"#utility.yul\":19490:19546   */\n    tag_366:\n        /* \"#utility.yul\":19570:19608   */\n      tag_368\n        /* \"#utility.yul\":19602:19606   */\n      dup3\n        /* \"#utility.yul\":19596:19607   */\n      sload\n        /* \"#utility.yul\":19570:19608   */\n      tag_70\n      jump\t// in\n    tag_368:\n        /* \"#utility.yul\":19655:19722   */\n      tag_369\n        /* \"#utility.yul\":19715:19721   */\n      dup3\n        /* \"#utility.yul\":19707:19713   */\n      dup3\n        /* \"#utility.yul\":19701:19705   */\n      dup6\n        /* \"#utility.yul\":19655:19722   */\n      tag_167\n      jump\t// in\n    tag_369:\n        /* \"#utility.yul\":19749:19750   */\n      0x00\n        /* \"#utility.yul\":19773:19777   */\n      0x20\n        /* \"#utility.yul\":19760:19777   */\n      swap1\n      pop\n        /* \"#utility.yul\":19805:19807   */\n      0x1f\n        /* \"#utility.yul\":19797:19803   */\n      dup4\n        /* \"#utility.yul\":19794:19808   */\n      gt\n        /* \"#utility.yul\":19822:19823   */\n      0x01\n        /* \"#utility.yul\":19817:20435   */\n      dup2\n      eq\n      tag_371\n      jumpi\n        /* \"#utility.yul\":20479:20480   */\n      0x00\n        /* \"#utility.yul\":20496:20502   */\n      dup5\n        /* \"#utility.yul\":20493:20570   */\n      iszero\n      tag_372\n      jumpi\n        /* \"#utility.yul\":20545:20554   */\n      dup3\n        /* \"#utility.yul\":20540:20543   */\n      dup8\n        /* \"#utility.yul\":20536:20555   */\n      add\n        /* \"#utility.yul\":20530:20556   */\n      mload\n        /* \"#utility.yul\":20521:20556   */\n      swap1\n      pop\n        /* \"#utility.yul\":20493:20570   */\n    tag_372:\n        /* \"#utility.yul\":20596:20663   */\n      tag_373\n        /* \"#utility.yul\":20656:20662   */\n      dup6\n        /* \"#utility.yul\":20649:20654   */\n      dup3\n        /* \"#utility.yul\":20596:20663   */\n      tag_170\n      jump\t// in\n    tag_373:\n        /* \"#utility.yul\":20590:20594   */\n      dup7\n        /* \"#utility.yul\":20583:20664   */\n      sstore\n        /* \"#utility.yul\":20452:20674   */\n      pop\n        /* \"#utility.yul\":19787:20674   */\n      jump(tag_370)\n        /* \"#utility.yul\":19817:20435   */\n    tag_371:\n        /* \"#utility.yul\":19869:19873   */\n      0x1f\n        /* \"#utility.yul\":19865:19874   */\n      not\n        /* \"#utility.yul\":19857:19863   */\n      dup5\n        /* \"#utility.yul\":19853:19875   */\n      and\n        /* \"#utility.yul\":19903:19940   */\n      tag_374\n        /* \"#utility.yul\":19935:19939   */\n      dup7\n        /* \"#utility.yul\":19903:19940   */\n      tag_156\n      jump\t// in\n    tag_374:\n        /* \"#utility.yul\":19962:19963   */\n      0x00\n        /* \"#utility.yul\":19976:20184   */\n    tag_375:\n        /* \"#utility.yul\":19990:19997   */\n      dup3\n        /* \"#utility.yul\":19987:19988   */\n      dup2\n        /* \"#utility.yul\":19984:19998   */\n      lt\n        /* \"#utility.yul\":19976:20184   */\n      iszero\n      tag_377\n      jumpi\n        /* \"#utility.yul\":20069:20078   */\n      dup5\n        /* \"#utility.yul\":20064:20067   */\n      dup10\n        /* \"#utility.yul\":20060:20079   */\n      add\n        /* \"#utility.yul\":20054:20080   */\n      mload\n        /* \"#utility.yul\":20046:20052   */\n      dup3\n        /* \"#utility.yul\":20039:20081   */\n      sstore\n        /* \"#utility.yul\":20120:20121   */\n      0x01\n        /* \"#utility.yul\":20112:20118   */\n      dup3\n        /* \"#utility.yul\":20108:20122   */\n      add\n        /* \"#utility.yul\":20098:20122   */\n      swap2\n      pop\n        /* \"#utility.yul\":20167:20169   */\n      0x20\n        /* \"#utility.yul\":20156:20165   */\n      dup6\n        /* \"#utility.yul\":20152:20170   */\n      add\n        /* \"#utility.yul\":20139:20170   */\n      swap5\n      pop\n        /* \"#utility.yul\":20013:20017   */\n      0x20\n        /* \"#utility.yul\":20010:20011   */\n      dup2\n        /* \"#utility.yul\":20006:20018   */\n      add\n        /* \"#utility.yul\":20001:20018   */\n      swap1\n      pop\n        /* \"#utility.yul\":19976:20184   */\n      jump(tag_375)\n    tag_377:\n        /* \"#utility.yul\":20212:20218   */\n      dup7\n        /* \"#utility.yul\":20203:20210   */\n      dup4\n        /* \"#utility.yul\":20200:20219   */\n      lt\n        /* \"#utility.yul\":20197:20376   */\n      iszero\n      tag_378\n      jumpi\n        /* \"#utility.yul\":20270:20279   */\n      dup5\n        /* \"#utility.yul\":20265:20268   */\n      dup10\n        /* \"#utility.yul\":20261:20280   */\n      add\n        /* \"#utility.yul\":20255:20281   */\n      mload\n        /* \"#utility.yul\":20313:20361   */\n      tag_379\n        /* \"#utility.yul\":20355:20359   */\n      0x1f\n        /* \"#utility.yul\":20347:20353   */\n      dup10\n        /* \"#utility.yul\":20343:20360   */\n      and\n        /* \"#utility.yul\":20332:20341   */\n      dup3\n        /* \"#utility.yul\":20313:20361   */\n      tag_169\n      jump\t// in\n    tag_379:\n        /* \"#utility.yul\":20305:20311   */\n      dup4\n        /* \"#utility.yul\":20298:20362   */\n      sstore\n        /* \"#utility.yul\":20220:20376   */\n      pop\n        /* \"#utility.yul\":20197:20376   */\n    tag_378:\n        /* \"#utility.yul\":20422:20423   */\n      0x01\n        /* \"#utility.yul\":20418:20419   */\n      0x02\n        /* \"#utility.yul\":20410:20416   */\n      dup9\n        /* \"#utility.yul\":20406:20420   */\n      mul\n        /* \"#utility.yul\":20402:20424   */\n      add\n        /* \"#utility.yul\":20396:20400   */\n      dup9\n        /* \"#utility.yul\":20389:20425   */\n      sstore\n        /* \"#utility.yul\":19824:20435   */\n      pop\n      pop\n      pop\n        /* \"#utility.yul\":19787:20674   */\n    tag_370:\n      pop\n        /* \"#utility.yul\":19377:20680   */\n      pop\n      pop\n      pop\n        /* \"#utility.yul\":19285:20680   */\n      pop\n      pop\n      jump\t// out\n        /* \"#utility.yul\":20686:20866   */\n    tag_92:\n        /* \"#utility.yul\":20734:20811   */\n      0x4e487b7100000000000000000000000000000000000000000000000000000000\n        /* \"#utility.yul\":20731:20732   */\n      0x00\n        /* \"#utility.yul\":20724:20812   */\n      mstore\n        /* \"#utility.yul\":20831:20835   */\n      0x32\n        /* \"#utility.yul\":20828:20829   */\n      0x04\n        /* \"#utility.yul\":20821:20836   */\n      mstore\n        /* \"#utility.yul\":20855:20859   */\n      0x24\n        /* \"#utility.yul\":20852:20853   */\n      0x00\n        /* \"#utility.yul\":20845:20860   */\n      revert\n        /* \"#utility.yul\":20872:21097   */\n    tag_171:\n        /* \"#utility.yul\":21012:21046   */\n      0x4f776e61626c653a206e6577206f776e657220697320746865207a65726f2061\n        /* \"#utility.yul\":21008:21009   */\n      0x00\n        /* \"#utility.yul\":21000:21006   */\n      dup3\n        /* \"#utility.yul\":20996:21010   */\n      add\n        /* \"#utility.yul\":20989:21047   */\n      mstore\n        /* \"#utility.yul\":21081:21089   */\n      0x6464726573730000000000000000000000000000000000000000000000000000\n        /* \"#utility.yul\":21076:21078   */\n      0x20\n        /* \"#utility.yul\":21068:21074   */\n      dup3\n        /* \"#utility.yul\":21064:21079   */\n      add\n        /* \"#utility.yul\":21057:21090   */\n      mstore\n        /* \"#utility.yul\":20872:21097   */\n      pop\n      jump\t// out\n        /* \"#utility.yul\":21103:21469   */\n    tag_172:\n        /* \"#utility.yul\":21245:21248   */\n      0x00\n        /* \"#utility.yul\":21266:21333   */\n      tag_383\n        /* \"#utility.yul\":21330:21332   */\n      0x26\n        /* \"#utility.yul\":21325:21328   */\n      dup4\n        /* \"#utility.yul\":21266:21333   */\n      tag_149\n      jump\t// in\n    tag_383:\n        /* \"#utility.yul\":21259:21333   */\n      swap2\n      pop\n        /* \"#utility.yul\":21342:21435   */\n      tag_384\n        /* \"#utility.yul\":21431:21434   */\n      dup3\n        /* \"#utility.yul\":21342:21435   */\n      tag_171\n      jump\t// in\n    tag_384:\n        /* \"#utility.yul\":21460:21462   */\n      0x40\n        /* \"#utility.yul\":21455:21458   */\n      dup3\n        /* \"#utility.yul\":21451:21463   */\n      add\n        /* \"#utility.yul\":21444:21463   */\n      swap1\n      pop\n        /* \"#utility.yul\":21103:21469   */\n      swap2\n      swap1\n      pop\n      jump\t// out\n        /* \"#utility.yul\":21475:21894   */\n    tag_99:\n        /* \"#utility.yul\":21641:21645   */\n      0x00\n        /* \"#utility.yul\":21679:21681   */\n      0x20\n        /* \"#utility.yul\":21668:21677   */\n      dup3\n        /* \"#utility.yul\":21664:21682   */\n      add\n        /* \"#utility.yul\":21656:21682   */\n      swap1\n      pop\n        /* \"#utility.yul\":21728:21737   */\n      dup2\n        /* \"#utility.yul\":21722:21726   */\n      dup2\n        /* \"#utility.yul\":21718:21738   */\n      sub\n        /* \"#utility.yul\":21714:21715   */\n      0x00\n        /* \"#utility.yul\":21703:21712   */\n      dup4\n        /* \"#utility.yul\":21699:21716   */\n      add\n        /* \"#utility.yul\":21692:21739   */\n      mstore\n        /* \"#utility.yul\":21756:21887   */\n      tag_386\n        /* \"#utility.yul\":21882:21886   */\n      dup2\n        /* \"#utility.yul\":21756:21887   */\n      tag_172\n      jump\t// in\n    tag_386:\n        /* \"#utility.yul\":21748:21887   */\n      swap1\n      pop\n        /* \"#utility.yul\":21475:21894   */\n      swap2\n      swap1\n      pop\n      jump\t// out\n        /* \"#utility.yul\":21900:22082   */\n    tag_173:\n        /* \"#utility.yul\":22040:22074   */\n      0x4f776e61626c653a2063616c6c6572206973206e6f7420746865206f776e6572\n        /* \"#utility.yul\":22036:22037   */\n      0x00\n        /* \"#utility.yul\":22028:22034   */\n      dup3\n        /* \"#utility.yul\":22024:22038   */\n      add\n        /* \"#utility.yul\":22017:22075   */\n      mstore\n        /* \"#utility.yul\":21900:22082   */\n      pop\n      jump\t// out\n        /* \"#utility.yul\":22088:22454   */\n    tag_174:\n        /* \"#utility.yul\":22230:22233   */\n      0x00\n        /* \"#utility.yul\":22251:22318   */\n      tag_389\n        /* \"#utility.yul\":22315:22317   */\n      0x20\n        /* \"#utility.yul\":22310:22313   */\n      dup4\n        /* \"#utility.yul\":22251:22318   */\n      tag_149\n      jump\t// in\n    tag_389:\n        /* \"#utility.yul\":22244:22318   */\n      swap2\n      pop\n        /* \"#utility.yul\":22327:22420   */\n      tag_390\n        /* \"#utility.yul\":22416:22419   */\n      dup3\n        /* \"#utility.yul\":22327:22420   */\n      tag_173\n      jump\t// in\n    tag_390:\n        /* \"#utility.yul\":22445:22447   */\n      0x20\n        /* \"#utility.yul\":22440:22443   */\n      dup3\n        /* \"#utility.yul\":22436:22448   */\n      add\n        /* \"#utility.yul\":22429:22448   */\n      swap1\n      pop\n        /* \"#utility.yul\":22088:22454   */\n      swap2\n      swap1\n      pop\n      jump\t// out\n        /* \"#utility.yul\":22460:22879   */\n    tag_106:\n        /* \"#utility.yul\":22626:22630   */\n      0x00\n        /* \"#utility.yul\":22664:22666   */\n      0x20\n        /* \"#utility.yul\":22653:22662   */\n      dup3\n        /* \"#utility.yul\":22649:22667   */\n      add\n        /* \"#utility.yul\":22641:22667   */\n      swap1\n      pop\n        /* \"#utility.yul\":22713:22722   */\n      dup2\n        /* \"#utility.yul\":22707:22711   */\n      dup2\n        /* \"#utility.yul\":22703:22723   */\n      sub\n        /* \"#utility.yul\":22699:22700   */\n      0x00\n        /* \"#utility.yul\":22688:22697   */\n      dup4\n        /* \"#utility.yul\":22684:22701   */\n      add\n        /* \"#utility.yul\":22677:22724   */\n      mstore\n        /* \"#utility.yul\":22741:22872   */\n      tag_392\n        /* \"#utility.yul\":22867:22871   */\n      dup2\n        /* \"#utility.yul\":22741:22872   */\n      tag_174\n      jump\t// in\n    tag_392:\n        /* \"#utility.yul\":22733:22872   */\n      swap1\n      pop\n        /* \"#utility.yul\":22460:22879   */\n      swap2\n      swap1\n      pop\n      jump\t// out\n\n    auxdata: 0xa2646970667358221220547b69380c278eb3c7ecda0cacc0bc6e39f36f9ae1c458a742e3bf63de00a3bc64736f6c63430008120033\n}\n",
				"bytecode": {
					"linkReferences": {},
					"object": "6080604052600060025534801561001557600080fd5b50336000806101000a81548173ffffffffffffffffffffffffffffffffffffffff021916908373ffffffffffffffffffffffffffffffffffffffff1602179055506115b2806100656000396000f3fe608060405234801561001057600080fd5b506004361061007d5760003560e01c80638da5cb5b1161005b5780638da5cb5b146100c4578063cad09ad6146100e2578063ee416d5b14610100578063f2fde38b1461011c5761007d565b80634d0a5dbd1461008257806381e468b41461009e57806383197ef0146100ba575b600080fd5b61009c600480360381019061009791906109dd565b610138565b005b6100b860048036038101906100b39190610ce6565b610228565b005b6100c261039c565b005b6100cc6103bd565b6040516100d99190610d3e565b60405180910390f35b6100ea6103e6565b6040516100f79190610f76565b60405180910390f35b61011a60048036038101906101159190610f98565b6106d2565b005b610136600480360381019061013191906109dd565b6107a5565b005b610140610828565b600360008273ffffffffffffffffffffffffffffffffffffffff1673ffffffffffffffffffffffffffffffffffffffff16815260200190815260200160002060009054906101000a900460ff16156101cd576040517f08c379a00000000000000000000000000000000000000000000000000000000081526004016101c490611048565b60405180910390fd5b6001600360008373ffffffffffffffffffffffffffffffffffffffff1673ffffffffffffffffffffffffffffffffffffffff16815260200190815260200160002060006101000a81548160ff02191690831515021790555050565b6003600061023461089f565b73ffffffffffffffffffffffffffffffffffffffff1673ffffffffffffffffffffffffffffffffffffffff16815260200190815260200160002060009054906101000a900460ff166102bb576040517f08c379a00000000000000000000000000000000000000000000000000000000081526004016102b2906110da565b60405180910390fd5b6000600260008154809291906102d090611129565b919050559050808260000181815250506001829080600181540180825580915050600190039060005260206000209060080201600090919091909150600082015181600001556020820151816001015560408201518160020155606082015181600301908161033f919061137d565b506080820151816004015560a082015181600501908161035f919061137d565b5060c0820151816006019081610375919061137d565b5060e08201518160070160006101000a81548160ff02191690831515021790555050505050565b6103a4610828565b3073ffffffffffffffffffffffffffffffffffffffff16ff5b60008060009054906101000a900473ffffffffffffffffffffffffffffffffffffffff16905090565b6060600360006103f461089f565b73ffffffffffffffffffffffffffffffffffffffff1673ffffffffffffffffffffffffffffffffffffffff16815260200190815260200160002060009054906101000a900460ff1661047b576040517f08c379a0000000000000000000000000000000000000000000000000000000008152600401610472906110da565b60405180910390fd5b6001805480602002602001604051908101604052809291908181526020016000905b828210156106c95783829060005260206000209060080201604051806101000160405290816000820154815260200160018201548152602001600282015481526020016003820180546104ef906111a0565b80601f016020809104026020016040519081016040528092919081815260200182805461051b906111a0565b80156105685780601f1061053d57610100808354040283529160200191610568565b820191906000526020600020905b81548152906001019060200180831161054b57829003601f168201915b505050505081526020016004820154815260200160058201805461058b906111a0565b80601f01602080910402602001604051908101604052809291908181526020018280546105b7906111a0565b80156106045780601f106105d957610100808354040283529160200191610604565b820191906000526020600020905b8154815290600101906020018083116105e757829003601f168201915b5050505050815260200160068201805461061d906111a0565b80601f0160208091040260200160405190810160405280929190818152602001828054610649906111a0565b80156106965780601f1061066b57610100808354040283529160200191610696565b820191906000526020600020905b81548152906001019060200180831161067957829003601f168201915b505050505081526020016007820160009054906101000a900460ff1615151515815250508152602001906001019061049d565b50505050905090565b600360006106de61089f565b73ffffffffffffffffffffffffffffffffffffffff1673ffffffffffffffffffffffffffffffffffffffff16815260200190815260200160002060009054906101000a900460ff16610765576040517f08c379a000000000000000000000000000000000000000000000000000000000815260040161075c906110da565b60405180910390fd5b600180828154811061077a5761077961144f565b5b906000526020600020906008020160070160006101000a81548160ff02191690831515021790555050565b6107ad610828565b600073ffffffffffffffffffffffffffffffffffffffff168173ffffffffffffffffffffffffffffffffffffffff160361081c576040517f08c379a0000000000000000000000000000000000000000000000000000000008152600401610813906114f0565b60405180910390fd5b610825816108a7565b50565b3373ffffffffffffffffffffffffffffffffffffffff166108476103bd565b73ffffffffffffffffffffffffffffffffffffffff161461089d576040517f08c379a00000000000000000000000000000000000000000000000000000000081526004016108949061155c565b60405180910390fd5b565b600033905090565b60008060009054906101000a900473ffffffffffffffffffffffffffffffffffffffff169050816000806101000a81548173ffffffffffffffffffffffffffffffffffffffff021916908373ffffffffffffffffffffffffffffffffffffffff1602179055508173ffffffffffffffffffffffffffffffffffffffff168173ffffffffffffffffffffffffffffffffffffffff167f8be0079c531659141344cd1fd0a4f28419497f9722a3daafe3b4186f6b6457e060405160405180910390a35050565b6000604051905090565b600080fd5b600080fd5b600073ffffffffffffffffffffffffffffffffffffffff82169050919050565b60006109aa8261097f565b9050919050565b6109ba8161099f565b81146109c557600080fd5b50565b6000813590506109d7816109b1565b92915050565b6000602082840312156109f3576109f2610975565b5b6000610a01848285016109c8565b91505092915050565b600080fd5b6000601f19601f8301169050919050565b7f4e487b7100000000000000000000000000000000000000000000000000000000600052604160045260246000fd5b610a5882610a0f565b810181811067ffffffffffffffff82111715610a7757610a76610a20565b5b80604052505050565b6000610a8a61096b565b9050610a968282610a4f565b919050565b600080fd5b6000819050919050565b610ab381610aa0565b8114610abe57600080fd5b50565b600081359050610ad081610aaa565b92915050565b600080fd5b600080fd5b600067ffffffffffffffff821115610afb57610afa610a20565b5b610b0482610a0f565b9050602081019050919050565b82818337600083830152505050565b6000610b33610b2e84610ae0565b610a80565b905082815260208101848484011115610b4f57610b4e610adb565b5b610b5a848285610b11565b509392505050565b600082601f830112610b7757610b76610ad6565b5b8135610b87848260208601610b20565b91505092915050565b60008115159050919050565b610ba581610b90565b8114610bb057600080fd5b50565b600081359050610bc281610b9c565b92915050565b60006101008284031215610bdf57610bde610a0a565b5b610bea610100610a80565b90506000610bfa84828501610ac1565b6000830152506020610c0e84828501610ac1565b6020830152506040610c2284828501610ac1565b604083015250606082013567ffffffffffffffff811115610c4657610c45610a9b565b5b610c5284828501610b62565b6060830152506080610c6684828501610ac1565b60808301525060a082013567ffffffffffffffff811115610c8a57610c89610a9b565b5b610c9684828501610b62565b60a08301525060c082013567ffffffffffffffff811115610cba57610cb9610a9b565b5b610cc684828501610b62565b60c08301525060e0610cda84828501610bb3565b60e08301525092915050565b600060208284031215610cfc57610cfb610975565b5b600082013567ffffffffffffffff811115610d1a57610d1961097a565b5b610d2684828501610bc8565b91505092915050565b610d388161099f565b82525050565b6000602082019050610d536000830184610d2f565b92915050565b600081519050919050565b600082825260208201905092915050565b6000819050602082019050919050565b610d8e81610aa0565b82525050565b600081519050919050565b600082825260208201905092915050565b60005b83811015610dce578082015181840152602081019050610db3565b60008484015250505050565b6000610de582610d94565b610def8185610d9f565b9350610dff818560208601610db0565b610e0881610a0f565b840191505092915050565b610e1c81610b90565b82525050565b600061010083016000830151610e3b6000860182610d85565b506020830151610e4e6020860182610d85565b506040830151610e616040860182610d85565b5060608301518482036060860152610e798282610dda565b9150506080830151610e8e6080860182610d85565b5060a083015184820360a0860152610ea68282610dda565b91505060c083015184820360c0860152610ec08282610dda565b91505060e0830151610ed560e0860182610e13565b508091505092915050565b6000610eec8383610e22565b905092915050565b6000602082019050919050565b6000610f0c82610d59565b610f168185610d64565b935083602082028501610f2885610d75565b8060005b85811015610f645784840389528151610f458582610ee0565b9450610f5083610ef4565b925060208a01995050600181019050610f2c565b50829750879550505050505092915050565b60006020820190508181036000830152610f908184610f01565b905092915050565b600060208284031215610fae57610fad610975565b5b6000610fbc84828501610ac1565b91505092915050565b600082825260208201905092915050565b7f426174636844617461626173653a207065726d697373696f6e2068617320626560008201527f656e206772616e74656400000000000000000000000000000000000000000000602082015250565b6000611032602a83610fc5565b915061103d82610fd6565b604082019050919050565b6000602082019050818103600083015261106181611025565b9050919050565b7f426174636844617461626173653a206f6e6c7920636f6e74726163742077686960008201527f63682061726520616c6c6f776564000000000000000000000000000000000000602082015250565b60006110c4602e83610fc5565b91506110cf82611068565b604082019050919050565b600060208201905081810360008301526110f3816110b7565b9050919050565b7f4e487b7100000000000000000000000000000000000000000000000000000000600052601160045260246000fd5b600061113482610aa0565b91507fffffffffffffffffffffffffffffffffffffffffffffffffffffffffffffffff8203611166576111656110fa565b5b600182019050919050565b7f4e487b7100000000000000000000000000000000000000000000000000000000600052602260045260246000fd5b600060028204905060018216806111b857607f821691505b6020821081036111cb576111ca611171565b5b50919050565b60008190508160005260206000209050919050565b60006020601f8301049050919050565b600082821b905092915050565b6000600883026112337fffffffffffffffffffffffffffffffffffffffffffffffffffffffffffffffff826111f6565b61123d86836111f6565b95508019841693508086168417925050509392505050565b6000819050919050565b600061127a61127561127084610aa0565b611255565b610aa0565b9050919050565b6000819050919050565b6112948361125f565b6112a86112a082611281565b848454611203565b825550505050565b600090565b6112bd6112b0565b6112c881848461128b565b505050565b5b818110156112ec576112e16000826112b5565b6001810190506112ce565b5050565b601f82111561133157611302816111d1565b61130b846111e6565b8101602085101561131a578190505b61132e611326856111e6565b8301826112cd565b50505b505050565b600082821c905092915050565b600061135460001984600802611336565b1980831691505092915050565b600061136d8383611343565b9150826002028217905092915050565b61138682610d94565b67ffffffffffffffff81111561139f5761139e610a20565b5b6113a982546111a0565b6113b48282856112f0565b600060209050601f8311600181146113e757600084156113d5578287015190505b6113df8582611361565b865550611447565b601f1984166113f5866111d1565b60005b8281101561141d578489015182556001820191506020850194506020810190506113f8565b8683101561143a5784890151611436601f891682611343565b8355505b6001600288020188555050505b505050505050565b7f4e487b7100000000000000000000000000000000000000000000000000000000600052603260045260246000fd5b7f4f776e61626c653a206e6577206f776e657220697320746865207a65726f206160008201527f6464726573730000000000000000000000000000000000000000000000000000602082015250565b60006114da602683610fc5565b91506114e58261147e565b604082019050919050565b60006020820190508181036000830152611509816114cd565b9050919050565b7f4f776e61626c653a2063616c6c6572206973206e6f7420746865206f776e6572600082015250565b6000611546602083610fc5565b915061155182611510565b602082019050919050565b6000602082019050818103600083015261157581611539565b905091905056fea2646970667358221220547b69380c278eb3c7ecda0cacc0bc6e39f36f9ae1c458a742e3bf63de00a3bc64736f6c63430008120033",
					"opcodes": "PUSH1 0x80 PUSH1 0x40 MSTORE PUSH1 0x0 PUSH1 0x2 SSTORE CALLVALUE DUP1 ISZERO PUSH2 0x15 JUMPI PUSH1 0x0 DUP1 REVERT JUMPDEST POP CALLER PUSH1 0x0 DUP1 PUSH2 0x100 EXP DUP2 SLOAD DUP2 PUSH20 0xFFFFFFFFFFFFFFFFFFFFFFFFFFFFFFFFFFFFFFFF MUL NOT AND SWAP1 DUP4 PUSH20 0xFFFFFFFFFFFFFFFFFFFFFFFFFFFFFFFFFFFFFFFF AND MUL OR SWAP1 SSTORE POP PUSH2 0x15B2 DUP1 PUSH2 0x65 PUSH1 0x0 CODECOPY PUSH1 0x0 RETURN INVALID PUSH1 0x80 PUSH1 0x40 MSTORE CALLVALUE DUP1 ISZERO PUSH2 0x10 JUMPI PUSH1 0x0 DUP1 REVERT JUMPDEST POP PUSH1 0x4 CALLDATASIZE LT PUSH2 0x7D JUMPI PUSH1 0x0 CALLDATALOAD PUSH1 0xE0 SHR DUP1 PUSH4 0x8DA5CB5B GT PUSH2 0x5B JUMPI DUP1 PUSH4 0x8DA5CB5B EQ PUSH2 0xC4 JUMPI DUP1 PUSH4 0xCAD09AD6 EQ PUSH2 0xE2 JUMPI DUP1 PUSH4 0xEE416D5B EQ PUSH2 0x100 JUMPI DUP1 PUSH4 0xF2FDE38B EQ PUSH2 0x11C JUMPI PUSH2 0x7D JUMP JUMPDEST DUP1 PUSH4 0x4D0A5DBD EQ PUSH2 0x82 JUMPI DUP1 PUSH4 0x81E468B4 EQ PUSH2 0x9E JUMPI DUP1 PUSH4 0x83197EF0 EQ PUSH2 0xBA JUMPI JUMPDEST PUSH1 0x0 DUP1 REVERT JUMPDEST PUSH2 0x9C PUSH1 0x4 DUP1 CALLDATASIZE SUB DUP2 ADD SWAP1 PUSH2 0x97 SWAP2 SWAP1 PUSH2 0x9DD JUMP JUMPDEST PUSH2 0x138 JUMP JUMPDEST STOP JUMPDEST PUSH2 0xB8 PUSH1 0x4 DUP1 CALLDATASIZE SUB DUP2 ADD SWAP1 PUSH2 0xB3 SWAP2 SWAP1 PUSH2 0xCE6 JUMP JUMPDEST PUSH2 0x228 JUMP JUMPDEST STOP JUMPDEST PUSH2 0xC2 PUSH2 0x39C JUMP JUMPDEST STOP JUMPDEST PUSH2 0xCC PUSH2 0x3BD JUMP JUMPDEST PUSH1 0x40 MLOAD PUSH2 0xD9 SWAP2 SWAP1 PUSH2 0xD3E JUMP JUMPDEST PUSH1 0x40 MLOAD DUP1 SWAP2 SUB SWAP1 RETURN JUMPDEST PUSH2 0xEA PUSH2 0x3E6 JUMP JUMPDEST PUSH1 0x40 MLOAD PUSH2 0xF7 SWAP2 SWAP1 PUSH2 0xF76 JUMP JUMPDEST PUSH1 0x40 MLOAD DUP1 SWAP2 SUB SWAP1 RETURN JUMPDEST PUSH2 0x11A PUSH1 0x4 DUP1 CALLDATASIZE SUB DUP2 ADD SWAP1 PUSH2 0x115 SWAP2 SWAP1 PUSH2 0xF98 JUMP JUMPDEST PUSH2 0x6D2 JUMP JUMPDEST STOP JUMPDEST PUSH2 0x136 PUSH1 0x4 DUP1 CALLDATASIZE SUB DUP2 ADD SWAP1 PUSH2 0x131 SWAP2 SWAP1 PUSH2 0x9DD JUMP JUMPDEST PUSH2 0x7A5 JUMP JUMPDEST STOP JUMPDEST PUSH2 0x140 PUSH2 0x828 JUMP JUMPDEST PUSH1 0x3 PUSH1 0x0 DUP3 PUSH20 0xFFFFFFFFFFFFFFFFFFFFFFFFFFFFFFFFFFFFFFFF AND PUSH20 0xFFFFFFFFFFFFFFFFFFFFFFFFFFFFFFFFFFFFFFFF AND DUP2 MSTORE PUSH1 0x20 ADD SWAP1 DUP2 MSTORE PUSH1 0x20 ADD PUSH1 0x0 KECCAK256 PUSH1 0x0 SWAP1 SLOAD SWAP1 PUSH2 0x100 EXP SWAP1 DIV PUSH1 0xFF AND ISZERO PUSH2 0x1CD JUMPI PUSH1 0x40 MLOAD PUSH32 0x8C379A000000000000000000000000000000000000000000000000000000000 DUP2 MSTORE PUSH1 0x4 ADD PUSH2 0x1C4 SWAP1 PUSH2 0x1048 JUMP JUMPDEST PUSH1 0x40 MLOAD DUP1 SWAP2 SUB SWAP1 REVERT JUMPDEST PUSH1 0x1 PUSH1 0x3 PUSH1 0x0 DUP4 PUSH20 0xFFFFFFFFFFFFFFFFFFFFFFFFFFFFFFFFFFFFFFFF AND PUSH20 0xFFFFFFFFFFFFFFFFFFFFFFFFFFFFFFFFFFFFFFFF AND DUP2 MSTORE PUSH1 0x20 ADD SWAP1 DUP2 MSTORE PUSH1 0x20 ADD PUSH1 0x0 KECCAK256 PUSH1 0x0 PUSH2 0x100 EXP DUP2 SLOAD DUP2 PUSH1 0xFF MUL NOT AND SWAP1 DUP4 ISZERO ISZERO MUL OR SWAP1 SSTORE POP POP JUMP JUMPDEST PUSH1 0x3 PUSH1 0x0 PUSH2 0x234 PUSH2 0x89F JUMP JUMPDEST PUSH20 0xFFFFFFFFFFFFFFFFFFFFFFFFFFFFFFFFFFFFFFFF AND PUSH20 0xFFFFFFFFFFFFFFFFFFFFFFFFFFFFFFFFFFFFFFFF AND DUP2 MSTORE PUSH1 0x20 ADD SWAP1 DUP2 MSTORE PUSH1 0x20 ADD PUSH1 0x0 KECCAK256 PUSH1 0x0 SWAP1 SLOAD SWAP1 PUSH2 0x100 EXP SWAP1 DIV PUSH1 0xFF AND PUSH2 0x2BB JUMPI PUSH1 0x40 MLOAD PUSH32 0x8C379A000000000000000000000000000000000000000000000000000000000 DUP2 MSTORE PUSH1 0x4 ADD PUSH2 0x2B2 SWAP1 PUSH2 0x10DA JUMP JUMPDEST PUSH1 0x40 MLOAD DUP1 SWAP2 SUB SWAP1 REVERT JUMPDEST PUSH1 0x0 PUSH1 0x2 PUSH1 0x0 DUP2 SLOAD DUP1 SWAP3 SWAP2 SWAP1 PUSH2 0x2D0 SWAP1 PUSH2 0x1129 JUMP JUMPDEST SWAP2 SWAP1 POP SSTORE SWAP1 POP DUP1 DUP3 PUSH1 0x0 ADD DUP2 DUP2 MSTORE POP POP PUSH1 0x1 DUP3 SWAP1 DUP1 PUSH1 0x1 DUP2 SLOAD ADD DUP1 DUP3 SSTORE DUP1 SWAP2 POP POP PUSH1 0x1 SWAP1 SUB SWAP1 PUSH1 0x0 MSTORE PUSH1 0x20 PUSH1 0x0 KECCAK256 SWAP1 PUSH1 0x8 MUL ADD PUSH1 0x0 SWAP1 SWAP2 SWAP1 SWAP2 SWAP1 SWAP2 POP PUSH1 0x0 DUP3 ADD MLOAD DUP2 PUSH1 0x0 ADD SSTORE PUSH1 0x20 DUP3 ADD MLOAD DUP2 PUSH1 0x1 ADD SSTORE PUSH1 0x40 DUP3 ADD MLOAD DUP2 PUSH1 0x2 ADD SSTORE PUSH1 0x60 DUP3 ADD MLOAD DUP2 PUSH1 0x3 ADD SWAP1 DUP2 PUSH2 0x33F SWAP2 SWAP1 PUSH2 0x137D JUMP JUMPDEST POP PUSH1 0x80 DUP3 ADD MLOAD DUP2 PUSH1 0x4 ADD SSTORE PUSH1 0xA0 DUP3 ADD MLOAD DUP2 PUSH1 0x5 ADD SWAP1 DUP2 PUSH2 0x35F SWAP2 SWAP1 PUSH2 0x137D JUMP JUMPDEST POP PUSH1 0xC0 DUP3 ADD MLOAD DUP2 PUSH1 0x6 ADD SWAP1 DUP2 PUSH2 0x375 SWAP2 SWAP1 PUSH2 0x137D JUMP JUMPDEST POP PUSH1 0xE0 DUP3 ADD MLOAD DUP2 PUSH1 0x7 ADD PUSH1 0x0 PUSH2 0x100 EXP DUP2 SLOAD DUP2 PUSH1 0xFF MUL NOT AND SWAP1 DUP4 ISZERO ISZERO MUL OR SWAP1 SSTORE POP POP POP POP POP JUMP JUMPDEST PUSH2 0x3A4 PUSH2 0x828 JUMP JUMPDEST ADDRESS PUSH20 0xFFFFFFFFFFFFFFFFFFFFFFFFFFFFFFFFFFFFFFFF AND SELFDESTRUCT JUMPDEST PUSH1 0x0 DUP1 PUSH1 0x0 SWAP1 SLOAD SWAP1 PUSH2 0x100 EXP SWAP1 DIV PUSH20 0xFFFFFFFFFFFFFFFFFFFFFFFFFFFFFFFFFFFFFFFF AND SWAP1 POP SWAP1 JUMP JUMPDEST PUSH1 0x60 PUSH1 0x3 PUSH1 0x0 PUSH2 0x3F4 PUSH2 0x89F JUMP JUMPDEST PUSH20 0xFFFFFFFFFFFFFFFFFFFFFFFFFFFFFFFFFFFFFFFF AND PUSH20 0xFFFFFFFFFFFFFFFFFFFFFFFFFFFFFFFFFFFFFFFF AND DUP2 MSTORE PUSH1 0x20 ADD SWAP1 DUP2 MSTORE PUSH1 0x20 ADD PUSH1 0x0 KECCAK256 PUSH1 0x0 SWAP1 SLOAD SWAP1 PUSH2 0x100 EXP SWAP1 DIV PUSH1 0xFF AND PUSH2 0x47B JUMPI PUSH1 0x40 MLOAD PUSH32 0x8C379A000000000000000000000000000000000000000000000000000000000 DUP2 MSTORE PUSH1 0x4 ADD PUSH2 0x472 SWAP1 PUSH2 0x10DA JUMP JUMPDEST PUSH1 0x40 MLOAD DUP1 SWAP2 SUB SWAP1 REVERT JUMPDEST PUSH1 0x1 DUP1 SLOAD DUP1 PUSH1 0x20 MUL PUSH1 0x20 ADD PUSH1 0x40 MLOAD SWAP1 DUP2 ADD PUSH1 0x40 MSTORE DUP1 SWAP3 SWAP2 SWAP1 DUP2 DUP2 MSTORE PUSH1 0x20 ADD PUSH1 0x0 SWAP1 JUMPDEST DUP3 DUP3 LT ISZERO PUSH2 0x6C9 JUMPI DUP4 DUP3 SWAP1 PUSH1 0x0 MSTORE PUSH1 0x20 PUSH1 0x0 KECCAK256 SWAP1 PUSH1 0x8 MUL ADD PUSH1 0x40 MLOAD DUP1 PUSH2 0x100 ADD PUSH1 0x40 MSTORE SWAP1 DUP2 PUSH1 0x0 DUP3 ADD SLOAD DUP2 MSTORE PUSH1 0x20 ADD PUSH1 0x1 DUP3 ADD SLOAD DUP2 MSTORE PUSH1 0x20 ADD PUSH1 0x2 DUP3 ADD SLOAD DUP2 MSTORE PUSH1 0x20 ADD PUSH1 0x3 DUP3 ADD DUP1 SLOAD PUSH2 0x4EF SWAP1 PUSH2 0x11A0 JUMP JUMPDEST DUP1 PUSH1 0x1F ADD PUSH1 0x20 DUP1 SWAP2 DIV MUL PUSH1 0x20 ADD PUSH1 0x40 MLOAD SWAP1 DUP2 ADD PUSH1 0x40 MSTORE DUP1 SWAP3 SWAP2 SWAP1 DUP2 DUP2 MSTORE PUSH1 0x20 ADD DUP3 DUP1 SLOAD PUSH2 0x51B SWAP1 PUSH2 0x11A0 JUMP JUMPDEST DUP1 ISZERO PUSH2 0x568 JUMPI DUP1 PUSH1 0x1F LT PUSH2 0x53D JUMPI PUSH2 0x100 DUP1 DUP4 SLOAD DIV MUL DUP4 MSTORE SWAP2 PUSH1 0x20 ADD SWAP2 PUSH2 0x568 JUMP JUMPDEST DUP3 ADD SWAP2 SWAP1 PUSH1 0x0 MSTORE PUSH1 0x20 PUSH1 0x0 KECCAK256 SWAP1 JUMPDEST DUP2 SLOAD DUP2 MSTORE SWAP1 PUSH1 0x1 ADD SWAP1 PUSH1 0x20 ADD DUP1 DUP4 GT PUSH2 0x54B JUMPI DUP3 SWAP1 SUB PUSH1 0x1F AND DUP3 ADD SWAP2 JUMPDEST POP POP POP POP POP DUP2 MSTORE PUSH1 0x20 ADD PUSH1 0x4 DUP3 ADD SLOAD DUP2 MSTORE PUSH1 0x20 ADD PUSH1 0x5 DUP3 ADD DUP1 SLOAD PUSH2 0x58B SWAP1 PUSH2 0x11A0 JUMP JUMPDEST DUP1 PUSH1 0x1F ADD PUSH1 0x20 DUP1 SWAP2 DIV MUL PUSH1 0x20 ADD PUSH1 0x40 MLOAD SWAP1 DUP2 ADD PUSH1 0x40 MSTORE DUP1 SWAP3 SWAP2 SWAP1 DUP2 DUP2 MSTORE PUSH1 0x20 ADD DUP3 DUP1 SLOAD PUSH2 0x5B7 SWAP1 PUSH2 0x11A0 JUMP JUMPDEST DUP1 ISZERO PUSH2 0x604 JUMPI DUP1 PUSH1 0x1F LT PUSH2 0x5D9 JUMPI PUSH2 0x100 DUP1 DUP4 SLOAD DIV MUL DUP4 MSTORE SWAP2 PUSH1 0x20 ADD SWAP2 PUSH2 0x604 JUMP JUMPDEST DUP3 ADD SWAP2 SWAP1 PUSH1 0x0 MSTORE PUSH1 0x20 PUSH1 0x0 KECCAK256 SWAP1 JUMPDEST DUP2 SLOAD DUP2 MSTORE SWAP1 PUSH1 0x1 ADD SWAP1 PUSH1 0x20 ADD DUP1 DUP4 GT PUSH2 0x5E7 JUMPI DUP3 SWAP1 SUB PUSH1 0x1F AND DUP3 ADD SWAP2 JUMPDEST POP POP POP POP POP DUP2 MSTORE PUSH1 0x20 ADD PUSH1 0x6 DUP3 ADD DUP1 SLOAD PUSH2 0x61D SWAP1 PUSH2 0x11A0 JUMP JUMPDEST DUP1 PUSH1 0x1F ADD PUSH1 0x20 DUP1 SWAP2 DIV MUL PUSH1 0x20 ADD PUSH1 0x40 MLOAD SWAP1 DUP2 ADD PUSH1 0x40 MSTORE DUP1 SWAP3 SWAP2 SWAP1 DUP2 DUP2 MSTORE PUSH1 0x20 ADD DUP3 DUP1 SLOAD PUSH2 0x649 SWAP1 PUSH2 0x11A0 JUMP JUMPDEST DUP1 ISZERO PUSH2 0x696 JUMPI DUP1 PUSH1 0x1F LT PUSH2 0x66B JUMPI PUSH2 0x100 DUP1 DUP4 SLOAD DIV MUL DUP4 MSTORE SWAP2 PUSH1 0x20 ADD SWAP2 PUSH2 0x696 JUMP JUMPDEST DUP3 ADD SWAP2 SWAP1 PUSH1 0x0 MSTORE PUSH1 0x20 PUSH1 0x0 KECCAK256 SWAP1 JUMPDEST DUP2 SLOAD DUP2 MSTORE SWAP1 PUSH1 0x1 ADD SWAP1 PUSH1 0x20 ADD DUP1 DUP4 GT PUSH2 0x679 JUMPI DUP3 SWAP1 SUB PUSH1 0x1F AND DUP3 ADD SWAP2 JUMPDEST POP POP POP POP POP DUP2 MSTORE PUSH1 0x20 ADD PUSH1 0x7 DUP3 ADD PUSH1 0x0 SWAP1 SLOAD SWAP1 PUSH2 0x100 EXP SWAP1 DIV PUSH1 0xFF AND ISZERO ISZERO ISZERO ISZERO DUP2 MSTORE POP POP DUP2 MSTORE PUSH1 0x20 ADD SWAP1 PUSH1 0x1 ADD SWAP1 PUSH2 0x49D JUMP JUMPDEST POP POP POP POP SWAP1 POP SWAP1 JUMP JUMPDEST PUSH1 0x3 PUSH1 0x0 PUSH2 0x6DE PUSH2 0x89F JUMP JUMPDEST PUSH20 0xFFFFFFFFFFFFFFFFFFFFFFFFFFFFFFFFFFFFFFFF AND PUSH20 0xFFFFFFFFFFFFFFFFFFFFFFFFFFFFFFFFFFFFFFFF AND DUP2 MSTORE PUSH1 0x20 ADD SWAP1 DUP2 MSTORE PUSH1 0x20 ADD PUSH1 0x0 KECCAK256 PUSH1 0x0 SWAP1 SLOAD SWAP1 PUSH2 0x100 EXP SWAP1 DIV PUSH1 0xFF AND PUSH2 0x765 JUMPI PUSH1 0x40 MLOAD PUSH32 0x8C379A000000000000000000000000000000000000000000000000000000000 DUP2 MSTORE PUSH1 0x4 ADD PUSH2 0x75C SWAP1 PUSH2 0x10DA JUMP JUMPDEST PUSH1 0x40 MLOAD DUP1 SWAP2 SUB SWAP1 REVERT JUMPDEST PUSH1 0x1 DUP1 DUP3 DUP2 SLOAD DUP2 LT PUSH2 0x77A JUMPI PUSH2 0x779 PUSH2 0x144F JUMP JUMPDEST JUMPDEST SWAP1 PUSH1 0x0 MSTORE PUSH1 0x20 PUSH1 0x0 KECCAK256 SWAP1 PUSH1 0x8 MUL ADD PUSH1 0x7 ADD PUSH1 0x0 PUSH2 0x100 EXP DUP2 SLOAD DUP2 PUSH1 0xFF MUL NOT AND SWAP1 DUP4 ISZERO ISZERO MUL OR SWAP1 SSTORE POP POP JUMP JUMPDEST PUSH2 0x7AD PUSH2 0x828 JUMP JUMPDEST PUSH1 0x0 PUSH20 0xFFFFFFFFFFFFFFFFFFFFFFFFFFFFFFFFFFFFFFFF AND DUP2 PUSH20 0xFFFFFFFFFFFFFFFFFFFFFFFFFFFFFFFFFFFFFFFF AND SUB PUSH2 0x81C JUMPI PUSH1 0x40 MLOAD PUSH32 0x8C379A000000000000000000000000000000000000000000000000000000000 DUP2 MSTORE PUSH1 0x4 ADD PUSH2 0x813 SWAP1 PUSH2 0x14F0 JUMP JUMPDEST PUSH1 0x40 MLOAD DUP1 SWAP2 SUB SWAP1 REVERT JUMPDEST PUSH2 0x825 DUP2 PUSH2 0x8A7 JUMP JUMPDEST POP JUMP JUMPDEST CALLER PUSH20 0xFFFFFFFFFFFFFFFFFFFFFFFFFFFFFFFFFFFFFFFF AND PUSH2 0x847 PUSH2 0x3BD JUMP JUMPDEST PUSH20 0xFFFFFFFFFFFFFFFFFFFFFFFFFFFFFFFFFFFFFFFF AND EQ PUSH2 0x89D JUMPI PUSH1 0x40 MLOAD PUSH32 0x8C379A000000000000000000000000000000000000000000000000000000000 DUP2 MSTORE PUSH1 0x4 ADD PUSH2 0x894 SWAP1 PUSH2 0x155C JUMP JUMPDEST PUSH1 0x40 MLOAD DUP1 SWAP2 SUB SWAP1 REVERT JUMPDEST JUMP JUMPDEST PUSH1 0x0 CALLER SWAP1 POP SWAP1 JUMP JUMPDEST PUSH1 0x0 DUP1 PUSH1 0x0 SWAP1 SLOAD SWAP1 PUSH2 0x100 EXP SWAP1 DIV PUSH20 0xFFFFFFFFFFFFFFFFFFFFFFFFFFFFFFFFFFFFFFFF AND SWAP1 POP DUP2 PUSH1 0x0 DUP1 PUSH2 0x100 EXP DUP2 SLOAD DUP2 PUSH20 0xFFFFFFFFFFFFFFFFFFFFFFFFFFFFFFFFFFFFFFFF MUL NOT AND SWAP1 DUP4 PUSH20 0xFFFFFFFFFFFFFFFFFFFFFFFFFFFFFFFFFFFFFFFF AND MUL OR SWAP1 SSTORE POP DUP2 PUSH20 0xFFFFFFFFFFFFFFFFFFFFFFFFFFFFFFFFFFFFFFFF AND DUP2 PUSH20 0xFFFFFFFFFFFFFFFFFFFFFFFFFFFFFFFFFFFFFFFF AND PUSH32 0x8BE0079C531659141344CD1FD0A4F28419497F9722A3DAAFE3B4186F6B6457E0 PUSH1 0x40 MLOAD PUSH1 0x40 MLOAD DUP1 SWAP2 SUB SWAP1 LOG3 POP POP JUMP JUMPDEST PUSH1 0x0 PUSH1 0x40 MLOAD SWAP1 POP SWAP1 JUMP JUMPDEST PUSH1 0x0 DUP1 REVERT JUMPDEST PUSH1 0x0 DUP1 REVERT JUMPDEST PUSH1 0x0 PUSH20 0xFFFFFFFFFFFFFFFFFFFFFFFFFFFFFFFFFFFFFFFF DUP3 AND SWAP1 POP SWAP2 SWAP1 POP JUMP JUMPDEST PUSH1 0x0 PUSH2 0x9AA DUP3 PUSH2 0x97F JUMP JUMPDEST SWAP1 POP SWAP2 SWAP1 POP JUMP JUMPDEST PUSH2 0x9BA DUP2 PUSH2 0x99F JUMP JUMPDEST DUP2 EQ PUSH2 0x9C5 JUMPI PUSH1 0x0 DUP1 REVERT JUMPDEST POP JUMP JUMPDEST PUSH1 0x0 DUP2 CALLDATALOAD SWAP1 POP PUSH2 0x9D7 DUP2 PUSH2 0x9B1 JUMP JUMPDEST SWAP3 SWAP2 POP POP JUMP JUMPDEST PUSH1 0x0 PUSH1 0x20 DUP3 DUP5 SUB SLT ISZERO PUSH2 0x9F3 JUMPI PUSH2 0x9F2 PUSH2 0x975 JUMP JUMPDEST JUMPDEST PUSH1 0x0 PUSH2 0xA01 DUP5 DUP3 DUP6 ADD PUSH2 0x9C8 JUMP JUMPDEST SWAP2 POP POP SWAP3 SWAP2 POP POP JUMP JUMPDEST PUSH1 0x0 DUP1 REVERT JUMPDEST PUSH1 0x0 PUSH1 0x1F NOT PUSH1 0x1F DUP4 ADD AND SWAP1 POP SWAP2 SWAP1 POP JUMP JUMPDEST PUSH32 0x4E487B7100000000000000000000000000000000000000000000000000000000 PUSH1 0x0 MSTORE PUSH1 0x41 PUSH1 0x4 MSTORE PUSH1 0x24 PUSH1 0x0 REVERT JUMPDEST PUSH2 0xA58 DUP3 PUSH2 0xA0F JUMP JUMPDEST DUP2 ADD DUP2 DUP2 LT PUSH8 0xFFFFFFFFFFFFFFFF DUP3 GT OR ISZERO PUSH2 0xA77 JUMPI PUSH2 0xA76 PUSH2 0xA20 JUMP JUMPDEST JUMPDEST DUP1 PUSH1 0x40 MSTORE POP POP POP JUMP JUMPDEST PUSH1 0x0 PUSH2 0xA8A PUSH2 0x96B JUMP JUMPDEST SWAP1 POP PUSH2 0xA96 DUP3 DUP3 PUSH2 0xA4F JUMP JUMPDEST SWAP2 SWAP1 POP JUMP JUMPDEST PUSH1 0x0 DUP1 REVERT JUMPDEST PUSH1 0x0 DUP2 SWAP1 POP SWAP2 SWAP1 POP JUMP JUMPDEST PUSH2 0xAB3 DUP2 PUSH2 0xAA0 JUMP JUMPDEST DUP2 EQ PUSH2 0xABE JUMPI PUSH1 0x0 DUP1 REVERT JUMPDEST POP JUMP JUMPDEST PUSH1 0x0 DUP2 CALLDATALOAD SWAP1 POP PUSH2 0xAD0 DUP2 PUSH2 0xAAA JUMP JUMPDEST SWAP3 SWAP2 POP POP JUMP JUMPDEST PUSH1 0x0 DUP1 REVERT JUMPDEST PUSH1 0x0 DUP1 REVERT JUMPDEST PUSH1 0x0 PUSH8 0xFFFFFFFFFFFFFFFF DUP3 GT ISZERO PUSH2 0xAFB JUMPI PUSH2 0xAFA PUSH2 0xA20 JUMP JUMPDEST JUMPDEST PUSH2 0xB04 DUP3 PUSH2 0xA0F JUMP JUMPDEST SWAP1 POP PUSH1 0x20 DUP2 ADD SWAP1 POP SWAP2 SWAP1 POP JUMP JUMPDEST DUP3 DUP2 DUP4 CALLDATACOPY PUSH1 0x0 DUP4 DUP4 ADD MSTORE POP POP POP JUMP JUMPDEST PUSH1 0x0 PUSH2 0xB33 PUSH2 0xB2E DUP5 PUSH2 0xAE0 JUMP JUMPDEST PUSH2 0xA80 JUMP JUMPDEST SWAP1 POP DUP3 DUP2 MSTORE PUSH1 0x20 DUP2 ADD DUP5 DUP5 DUP5 ADD GT ISZERO PUSH2 0xB4F JUMPI PUSH2 0xB4E PUSH2 0xADB JUMP JUMPDEST JUMPDEST PUSH2 0xB5A DUP5 DUP3 DUP6 PUSH2 0xB11 JUMP JUMPDEST POP SWAP4 SWAP3 POP POP POP JUMP JUMPDEST PUSH1 0x0 DUP3 PUSH1 0x1F DUP4 ADD SLT PUSH2 0xB77 JUMPI PUSH2 0xB76 PUSH2 0xAD6 JUMP JUMPDEST JUMPDEST DUP2 CALLDATALOAD PUSH2 0xB87 DUP5 DUP3 PUSH1 0x20 DUP7 ADD PUSH2 0xB20 JUMP JUMPDEST SWAP2 POP POP SWAP3 SWAP2 POP POP JUMP JUMPDEST PUSH1 0x0 DUP2 ISZERO ISZERO SWAP1 POP SWAP2 SWAP1 POP JUMP JUMPDEST PUSH2 0xBA5 DUP2 PUSH2 0xB90 JUMP JUMPDEST DUP2 EQ PUSH2 0xBB0 JUMPI PUSH1 0x0 DUP1 REVERT JUMPDEST POP JUMP JUMPDEST PUSH1 0x0 DUP2 CALLDATALOAD SWAP1 POP PUSH2 0xBC2 DUP2 PUSH2 0xB9C JUMP JUMPDEST SWAP3 SWAP2 POP POP JUMP JUMPDEST PUSH1 0x0 PUSH2 0x100 DUP3 DUP5 SUB SLT ISZERO PUSH2 0xBDF JUMPI PUSH2 0xBDE PUSH2 0xA0A JUMP JUMPDEST JUMPDEST PUSH2 0xBEA PUSH2 0x100 PUSH2 0xA80 JUMP JUMPDEST SWAP1 POP PUSH1 0x0 PUSH2 0xBFA DUP5 DUP3 DUP6 ADD PUSH2 0xAC1 JUMP JUMPDEST PUSH1 0x0 DUP4 ADD MSTORE POP PUSH1 0x20 PUSH2 0xC0E DUP5 DUP3 DUP6 ADD PUSH2 0xAC1 JUMP JUMPDEST PUSH1 0x20 DUP4 ADD MSTORE POP PUSH1 0x40 PUSH2 0xC22 DUP5 DUP3 DUP6 ADD PUSH2 0xAC1 JUMP JUMPDEST PUSH1 0x40 DUP4 ADD MSTORE POP PUSH1 0x60 DUP3 ADD CALLDATALOAD PUSH8 0xFFFFFFFFFFFFFFFF DUP2 GT ISZERO PUSH2 0xC46 JUMPI PUSH2 0xC45 PUSH2 0xA9B JUMP JUMPDEST JUMPDEST PUSH2 0xC52 DUP5 DUP3 DUP6 ADD PUSH2 0xB62 JUMP JUMPDEST PUSH1 0x60 DUP4 ADD MSTORE POP PUSH1 0x80 PUSH2 0xC66 DUP5 DUP3 DUP6 ADD PUSH2 0xAC1 JUMP JUMPDEST PUSH1 0x80 DUP4 ADD MSTORE POP PUSH1 0xA0 DUP3 ADD CALLDATALOAD PUSH8 0xFFFFFFFFFFFFFFFF DUP2 GT ISZERO PUSH2 0xC8A JUMPI PUSH2 0xC89 PUSH2 0xA9B JUMP JUMPDEST JUMPDEST PUSH2 0xC96 DUP5 DUP3 DUP6 ADD PUSH2 0xB62 JUMP JUMPDEST PUSH1 0xA0 DUP4 ADD MSTORE POP PUSH1 0xC0 DUP3 ADD CALLDATALOAD PUSH8 0xFFFFFFFFFFFFFFFF DUP2 GT ISZERO PUSH2 0xCBA JUMPI PUSH2 0xCB9 PUSH2 0xA9B JUMP JUMPDEST JUMPDEST PUSH2 0xCC6 DUP5 DUP3 DUP6 ADD PUSH2 0xB62 JUMP JUMPDEST PUSH1 0xC0 DUP4 ADD MSTORE POP PUSH1 0xE0 PUSH2 0xCDA DUP5 DUP3 DUP6 ADD PUSH2 0xBB3 JUMP JUMPDEST PUSH1 0xE0 DUP4 ADD MSTORE POP SWAP3 SWAP2 POP POP JUMP JUMPDEST PUSH1 0x0 PUSH1 0x20 DUP3 DUP5 SUB SLT ISZERO PUSH2 0xCFC JUMPI PUSH2 0xCFB PUSH2 0x975 JUMP JUMPDEST JUMPDEST PUSH1 0x0 DUP3 ADD CALLDATALOAD PUSH8 0xFFFFFFFFFFFFFFFF DUP2 GT ISZERO PUSH2 0xD1A JUMPI PUSH2 0xD19 PUSH2 0x97A JUMP JUMPDEST JUMPDEST PUSH2 0xD26 DUP5 DUP3 DUP6 ADD PUSH2 0xBC8 JUMP JUMPDEST SWAP2 POP POP SWAP3 SWAP2 POP POP JUMP JUMPDEST PUSH2 0xD38 DUP2 PUSH2 0x99F JUMP JUMPDEST DUP3 MSTORE POP POP JUMP JUMPDEST PUSH1 0x0 PUSH1 0x20 DUP3 ADD SWAP1 POP PUSH2 0xD53 PUSH1 0x0 DUP4 ADD DUP5 PUSH2 0xD2F JUMP JUMPDEST SWAP3 SWAP2 POP POP JUMP JUMPDEST PUSH1 0x0 DUP2 MLOAD SWAP1 POP SWAP2 SWAP1 POP JUMP JUMPDEST PUSH1 0x0 DUP3 DUP3 MSTORE PUSH1 0x20 DUP3 ADD SWAP1 POP SWAP3 SWAP2 POP POP JUMP JUMPDEST PUSH1 0x0 DUP2 SWAP1 POP PUSH1 0x20 DUP3 ADD SWAP1 POP SWAP2 SWAP1 POP JUMP JUMPDEST PUSH2 0xD8E DUP2 PUSH2 0xAA0 JUMP JUMPDEST DUP3 MSTORE POP POP JUMP JUMPDEST PUSH1 0x0 DUP2 MLOAD SWAP1 POP SWAP2 SWAP1 POP JUMP JUMPDEST PUSH1 0x0 DUP3 DUP3 MSTORE PUSH1 0x20 DUP3 ADD SWAP1 POP SWAP3 SWAP2 POP POP JUMP JUMPDEST PUSH1 0x0 JUMPDEST DUP4 DUP2 LT ISZERO PUSH2 0xDCE JUMPI DUP1 DUP3 ADD MLOAD DUP2 DUP5 ADD MSTORE PUSH1 0x20 DUP2 ADD SWAP1 POP PUSH2 0xDB3 JUMP JUMPDEST PUSH1 0x0 DUP5 DUP5 ADD MSTORE POP POP POP POP JUMP JUMPDEST PUSH1 0x0 PUSH2 0xDE5 DUP3 PUSH2 0xD94 JUMP JUMPDEST PUSH2 0xDEF DUP2 DUP6 PUSH2 0xD9F JUMP JUMPDEST SWAP4 POP PUSH2 0xDFF DUP2 DUP6 PUSH1 0x20 DUP7 ADD PUSH2 0xDB0 JUMP JUMPDEST PUSH2 0xE08 DUP2 PUSH2 0xA0F JUMP JUMPDEST DUP5 ADD SWAP2 POP POP SWAP3 SWAP2 POP POP JUMP JUMPDEST PUSH2 0xE1C DUP2 PUSH2 0xB90 JUMP JUMPDEST DUP3 MSTORE POP POP JUMP JUMPDEST PUSH1 0x0 PUSH2 0x100 DUP4 ADD PUSH1 0x0 DUP4 ADD MLOAD PUSH2 0xE3B PUSH1 0x0 DUP7 ADD DUP3 PUSH2 0xD85 JUMP JUMPDEST POP PUSH1 0x20 DUP4 ADD MLOAD PUSH2 0xE4E PUSH1 0x20 DUP7 ADD DUP3 PUSH2 0xD85 JUMP JUMPDEST POP PUSH1 0x40 DUP4 ADD MLOAD PUSH2 0xE61 PUSH1 0x40 DUP7 ADD DUP3 PUSH2 0xD85 JUMP JUMPDEST POP PUSH1 0x60 DUP4 ADD MLOAD DUP5 DUP3 SUB PUSH1 0x60 DUP7 ADD MSTORE PUSH2 0xE79 DUP3 DUP3 PUSH2 0xDDA JUMP JUMPDEST SWAP2 POP POP PUSH1 0x80 DUP4 ADD MLOAD PUSH2 0xE8E PUSH1 0x80 DUP7 ADD DUP3 PUSH2 0xD85 JUMP JUMPDEST POP PUSH1 0xA0 DUP4 ADD MLOAD DUP5 DUP3 SUB PUSH1 0xA0 DUP7 ADD MSTORE PUSH2 0xEA6 DUP3 DUP3 PUSH2 0xDDA JUMP JUMPDEST SWAP2 POP POP PUSH1 0xC0 DUP4 ADD MLOAD DUP5 DUP3 SUB PUSH1 0xC0 DUP7 ADD MSTORE PUSH2 0xEC0 DUP3 DUP3 PUSH2 0xDDA JUMP JUMPDEST SWAP2 POP POP PUSH1 0xE0 DUP4 ADD MLOAD PUSH2 0xED5 PUSH1 0xE0 DUP7 ADD DUP3 PUSH2 0xE13 JUMP JUMPDEST POP DUP1 SWAP2 POP POP SWAP3 SWAP2 POP POP JUMP JUMPDEST PUSH1 0x0 PUSH2 0xEEC DUP4 DUP4 PUSH2 0xE22 JUMP JUMPDEST SWAP1 POP SWAP3 SWAP2 POP POP JUMP JUMPDEST PUSH1 0x0 PUSH1 0x20 DUP3 ADD SWAP1 POP SWAP2 SWAP1 POP JUMP JUMPDEST PUSH1 0x0 PUSH2 0xF0C DUP3 PUSH2 0xD59 JUMP JUMPDEST PUSH2 0xF16 DUP2 DUP6 PUSH2 0xD64 JUMP JUMPDEST SWAP4 POP DUP4 PUSH1 0x20 DUP3 MUL DUP6 ADD PUSH2 0xF28 DUP6 PUSH2 0xD75 JUMP JUMPDEST DUP1 PUSH1 0x0 JUMPDEST DUP6 DUP2 LT ISZERO PUSH2 0xF64 JUMPI DUP5 DUP5 SUB DUP10 MSTORE DUP2 MLOAD PUSH2 0xF45 DUP6 DUP3 PUSH2 0xEE0 JUMP JUMPDEST SWAP5 POP PUSH2 0xF50 DUP4 PUSH2 0xEF4 JUMP JUMPDEST SWAP3 POP PUSH1 0x20 DUP11 ADD SWAP10 POP POP PUSH1 0x1 DUP2 ADD SWAP1 POP PUSH2 0xF2C JUMP JUMPDEST POP DUP3 SWAP8 POP DUP8 SWAP6 POP POP POP POP POP POP SWAP3 SWAP2 POP POP JUMP JUMPDEST PUSH1 0x0 PUSH1 0x20 DUP3 ADD SWAP1 POP DUP2 DUP2 SUB PUSH1 0x0 DUP4 ADD MSTORE PUSH2 0xF90 DUP2 DUP5 PUSH2 0xF01 JUMP JUMPDEST SWAP1 POP SWAP3 SWAP2 POP POP JUMP JUMPDEST PUSH1 0x0 PUSH1 0x20 DUP3 DUP5 SUB SLT ISZERO PUSH2 0xFAE JUMPI PUSH2 0xFAD PUSH2 0x975 JUMP JUMPDEST JUMPDEST PUSH1 0x0 PUSH2 0xFBC DUP5 DUP3 DUP6 ADD PUSH2 0xAC1 JUMP JUMPDEST SWAP2 POP POP SWAP3 SWAP2 POP POP JUMP JUMPDEST PUSH1 0x0 DUP3 DUP3 MSTORE PUSH1 0x20 DUP3 ADD SWAP1 POP SWAP3 SWAP2 POP POP JUMP JUMPDEST PUSH32 0x426174636844617461626173653A207065726D697373696F6E20686173206265 PUSH1 0x0 DUP3 ADD MSTORE PUSH32 0x656E206772616E74656400000000000000000000000000000000000000000000 PUSH1 0x20 DUP3 ADD MSTORE POP JUMP JUMPDEST PUSH1 0x0 PUSH2 0x1032 PUSH1 0x2A DUP4 PUSH2 0xFC5 JUMP JUMPDEST SWAP2 POP PUSH2 0x103D DUP3 PUSH2 0xFD6 JUMP JUMPDEST PUSH1 0x40 DUP3 ADD SWAP1 POP SWAP2 SWAP1 POP JUMP JUMPDEST PUSH1 0x0 PUSH1 0x20 DUP3 ADD SWAP1 POP DUP2 DUP2 SUB PUSH1 0x0 DUP4 ADD MSTORE PUSH2 0x1061 DUP2 PUSH2 0x1025 JUMP JUMPDEST SWAP1 POP SWAP2 SWAP1 POP JUMP JUMPDEST PUSH32 0x426174636844617461626173653A206F6E6C7920636F6E747261637420776869 PUSH1 0x0 DUP3 ADD MSTORE PUSH32 0x63682061726520616C6C6F776564000000000000000000000000000000000000 PUSH1 0x20 DUP3 ADD MSTORE POP JUMP JUMPDEST PUSH1 0x0 PUSH2 0x10C4 PUSH1 0x2E DUP4 PUSH2 0xFC5 JUMP JUMPDEST SWAP2 POP PUSH2 0x10CF DUP3 PUSH2 0x1068 JUMP JUMPDEST PUSH1 0x40 DUP3 ADD SWAP1 POP SWAP2 SWAP1 POP JUMP JUMPDEST PUSH1 0x0 PUSH1 0x20 DUP3 ADD SWAP1 POP DUP2 DUP2 SUB PUSH1 0x0 DUP4 ADD MSTORE PUSH2 0x10F3 DUP2 PUSH2 0x10B7 JUMP JUMPDEST SWAP1 POP SWAP2 SWAP1 POP JUMP JUMPDEST PUSH32 0x4E487B7100000000000000000000000000000000000000000000000000000000 PUSH1 0x0 MSTORE PUSH1 0x11 PUSH1 0x4 MSTORE PUSH1 0x24 PUSH1 0x0 REVERT JUMPDEST PUSH1 0x0 PUSH2 0x1134 DUP3 PUSH2 0xAA0 JUMP JUMPDEST SWAP2 POP PUSH32 0xFFFFFFFFFFFFFFFFFFFFFFFFFFFFFFFFFFFFFFFFFFFFFFFFFFFFFFFFFFFFFFFF DUP3 SUB PUSH2 0x1166 JUMPI PUSH2 0x1165 PUSH2 0x10FA JUMP JUMPDEST JUMPDEST PUSH1 0x1 DUP3 ADD SWAP1 POP SWAP2 SWAP1 POP JUMP JUMPDEST PUSH32 0x4E487B7100000000000000000000000000000000000000000000000000000000 PUSH1 0x0 MSTORE PUSH1 0x22 PUSH1 0x4 MSTORE PUSH1 0x24 PUSH1 0x0 REVERT JUMPDEST PUSH1 0x0 PUSH1 0x2 DUP3 DIV SWAP1 POP PUSH1 0x1 DUP3 AND DUP1 PUSH2 0x11B8 JUMPI PUSH1 0x7F DUP3 AND SWAP2 POP JUMPDEST PUSH1 0x20 DUP3 LT DUP2 SUB PUSH2 0x11CB JUMPI PUSH2 0x11CA PUSH2 0x1171 JUMP JUMPDEST JUMPDEST POP SWAP2 SWAP1 POP JUMP JUMPDEST PUSH1 0x0 DUP2 SWAP1 POP DUP2 PUSH1 0x0 MSTORE PUSH1 0x20 PUSH1 0x0 KECCAK256 SWAP1 POP SWAP2 SWAP1 POP JUMP JUMPDEST PUSH1 0x0 PUSH1 0x20 PUSH1 0x1F DUP4 ADD DIV SWAP1 POP SWAP2 SWAP1 POP JUMP JUMPDEST PUSH1 0x0 DUP3 DUP3 SHL SWAP1 POP SWAP3 SWAP2 POP POP JUMP JUMPDEST PUSH1 0x0 PUSH1 0x8 DUP4 MUL PUSH2 0x1233 PUSH32 0xFFFFFFFFFFFFFFFFFFFFFFFFFFFFFFFFFFFFFFFFFFFFFFFFFFFFFFFFFFFFFFFF DUP3 PUSH2 0x11F6 JUMP JUMPDEST PUSH2 0x123D DUP7 DUP4 PUSH2 0x11F6 JUMP JUMPDEST SWAP6 POP DUP1 NOT DUP5 AND SWAP4 POP DUP1 DUP7 AND DUP5 OR SWAP3 POP POP POP SWAP4 SWAP3 POP POP POP JUMP JUMPDEST PUSH1 0x0 DUP2 SWAP1 POP SWAP2 SWAP1 POP JUMP JUMPDEST PUSH1 0x0 PUSH2 0x127A PUSH2 0x1275 PUSH2 0x1270 DUP5 PUSH2 0xAA0 JUMP JUMPDEST PUSH2 0x1255 JUMP JUMPDEST PUSH2 0xAA0 JUMP JUMPDEST SWAP1 POP SWAP2 SWAP1 POP JUMP JUMPDEST PUSH1 0x0 DUP2 SWAP1 POP SWAP2 SWAP1 POP JUMP JUMPDEST PUSH2 0x1294 DUP4 PUSH2 0x125F JUMP JUMPDEST PUSH2 0x12A8 PUSH2 0x12A0 DUP3 PUSH2 0x1281 JUMP JUMPDEST DUP5 DUP5 SLOAD PUSH2 0x1203 JUMP JUMPDEST DUP3 SSTORE POP POP POP POP JUMP JUMPDEST PUSH1 0x0 SWAP1 JUMP JUMPDEST PUSH2 0x12BD PUSH2 0x12B0 JUMP JUMPDEST PUSH2 0x12C8 DUP2 DUP5 DUP5 PUSH2 0x128B JUMP JUMPDEST POP POP POP JUMP JUMPDEST JUMPDEST DUP2 DUP2 LT ISZERO PUSH2 0x12EC JUMPI PUSH2 0x12E1 PUSH1 0x0 DUP3 PUSH2 0x12B5 JUMP JUMPDEST PUSH1 0x1 DUP2 ADD SWAP1 POP PUSH2 0x12CE JUMP JUMPDEST POP POP JUMP JUMPDEST PUSH1 0x1F DUP3 GT ISZERO PUSH2 0x1331 JUMPI PUSH2 0x1302 DUP2 PUSH2 0x11D1 JUMP JUMPDEST PUSH2 0x130B DUP5 PUSH2 0x11E6 JUMP JUMPDEST DUP2 ADD PUSH1 0x20 DUP6 LT ISZERO PUSH2 0x131A JUMPI DUP2 SWAP1 POP JUMPDEST PUSH2 0x132E PUSH2 0x1326 DUP6 PUSH2 0x11E6 JUMP JUMPDEST DUP4 ADD DUP3 PUSH2 0x12CD JUMP JUMPDEST POP POP JUMPDEST POP POP POP JUMP JUMPDEST PUSH1 0x0 DUP3 DUP3 SHR SWAP1 POP SWAP3 SWAP2 POP POP JUMP JUMPDEST PUSH1 0x0 PUSH2 0x1354 PUSH1 0x0 NOT DUP5 PUSH1 0x8 MUL PUSH2 0x1336 JUMP JUMPDEST NOT DUP1 DUP4 AND SWAP2 POP POP SWAP3 SWAP2 POP POP JUMP JUMPDEST PUSH1 0x0 PUSH2 0x136D DUP4 DUP4 PUSH2 0x1343 JUMP JUMPDEST SWAP2 POP DUP3 PUSH1 0x2 MUL DUP3 OR SWAP1 POP SWAP3 SWAP2 POP POP JUMP JUMPDEST PUSH2 0x1386 DUP3 PUSH2 0xD94 JUMP JUMPDEST PUSH8 0xFFFFFFFFFFFFFFFF DUP2 GT ISZERO PUSH2 0x139F JUMPI PUSH2 0x139E PUSH2 0xA20 JUMP JUMPDEST JUMPDEST PUSH2 0x13A9 DUP3 SLOAD PUSH2 0x11A0 JUMP JUMPDEST PUSH2 0x13B4 DUP3 DUP3 DUP6 PUSH2 0x12F0 JUMP JUMPDEST PUSH1 0x0 PUSH1 0x20 SWAP1 POP PUSH1 0x1F DUP4 GT PUSH1 0x1 DUP2 EQ PUSH2 0x13E7 JUMPI PUSH1 0x0 DUP5 ISZERO PUSH2 0x13D5 JUMPI DUP3 DUP8 ADD MLOAD SWAP1 POP JUMPDEST PUSH2 0x13DF DUP6 DUP3 PUSH2 0x1361 JUMP JUMPDEST DUP7 SSTORE POP PUSH2 0x1447 JUMP JUMPDEST PUSH1 0x1F NOT DUP5 AND PUSH2 0x13F5 DUP7 PUSH2 0x11D1 JUMP JUMPDEST PUSH1 0x0 JUMPDEST DUP3 DUP2 LT ISZERO PUSH2 0x141D JUMPI DUP5 DUP10 ADD MLOAD DUP3 SSTORE PUSH1 0x1 DUP3 ADD SWAP2 POP PUSH1 0x20 DUP6 ADD SWAP5 POP PUSH1 0x20 DUP2 ADD SWAP1 POP PUSH2 0x13F8 JUMP JUMPDEST DUP7 DUP4 LT ISZERO PUSH2 0x143A JUMPI DUP5 DUP10 ADD MLOAD PUSH2 0x1436 PUSH1 0x1F DUP10 AND DUP3 PUSH2 0x1343 JUMP JUMPDEST DUP4 SSTORE POP JUMPDEST PUSH1 0x1 PUSH1 0x2 DUP9 MUL ADD DUP9 SSTORE POP POP POP JUMPDEST POP POP POP POP POP POP JUMP JUMPDEST PUSH32 0x4E487B7100000000000000000000000000000000000000000000000000000000 PUSH1 0x0 MSTORE PUSH1 0x32 PUSH1 0x4 MSTORE PUSH1 0x24 PUSH1 0x0 REVERT JUMPDEST PUSH32 0x4F776E61626C653A206E6577206F776E657220697320746865207A65726F2061 PUSH1 0x0 DUP3 ADD MSTORE PUSH32 0x6464726573730000000000000000000000000000000000000000000000000000 PUSH1 0x20 DUP3 ADD MSTORE POP JUMP JUMPDEST PUSH1 0x0 PUSH2 0x14DA PUSH1 0x26 DUP4 PUSH2 0xFC5 JUMP JUMPDEST SWAP2 POP PUSH2 0x14E5 DUP3 PUSH2 0x147E JUMP JUMPDEST PUSH1 0x40 DUP3 ADD SWAP1 POP SWAP2 SWAP1 POP JUMP JUMPDEST PUSH1 0x0 PUSH1 0x20 DUP3 ADD SWAP1 POP DUP2 DUP2 SUB PUSH1 0x0 DUP4 ADD MSTORE PUSH2 0x1509 DUP2 PUSH2 0x14CD JUMP JUMPDEST SWAP1 POP SWAP2 SWAP1 POP JUMP JUMPDEST PUSH32 0x4F776E61626C653A2063616C6C6572206973206E6F7420746865206F776E6572 PUSH1 0x0 DUP3 ADD MSTORE POP JUMP JUMPDEST PUSH1 0x0 PUSH2 0x1546 PUSH1 0x20 DUP4 PUSH2 0xFC5 JUMP JUMPDEST SWAP2 POP PUSH2 0x1551 DUP3 PUSH2 0x1510 JUMP JUMPDEST PUSH1 0x20 DUP3 ADD SWAP1 POP SWAP2 SWAP1 POP JUMP JUMPDEST PUSH1 0x0 PUSH1 0x20 DUP3 ADD SWAP1 POP DUP2 DUP2 SUB PUSH1 0x0 DUP4 ADD MSTORE PUSH2 0x1575 DUP2 PUSH2 0x1539 JUMP JUMPDEST SWAP1 POP SWAP2 SWAP1 POP JUMP INVALID LOG2 PUSH5 0x6970667358 0x22 SLT KECCAK256 SLOAD PUSH28 0x69380C278EB3C7ECDA0CACC0BC6E39F36F9AE1C458A742E3BF63DE00 LOG3 0xBC PUSH5 0x736F6C6343 STOP ADDMOD SLT STOP CALLER "
				},
				"gasEstimates": {
					"creation": {
						"codeDepositCost": "1110800",
						"executionCost": "30426",
						"totalCost": "1141226"
					},
					"external": {
						"addBatch((uint256,uint256,uint256,string,uint256,string,string,bool))": "infinite",
						"addChecked(uint256)": "29191",
						"addPermission(address)": "29288",
						"destroy()": "30017",
						"getAllBatch()": "infinite",
						"owner()": "2522",
						"transferOwnership(address)": "30775"
					}
				},
				"methodIdentifiers": {
					"addBatch((uint256,uint256,uint256,string,uint256,string,string,bool))": "81e468b4",
					"addChecked(uint256)": "ee416d5b",
					"addPermission(address)": "4d0a5dbd",
					"destroy()": "83197ef0",
					"getAllBatch()": "cad09ad6",
					"owner()": "8da5cb5b",
					"transferOwnership(address)": "f2fde38b"
				}
			},
			"storageLayout": {
				"storage": [
					{
						"astId": 30,
						"contract": "database/batch/BatchDatabase.sol:BatchDatabase",
						"label": "_owner",
						"offset": 0,
						"slot": "0",
						"type": "t_address"
					},
					{
						"astId": 243,
						"contract": "database/batch/BatchDatabase.sol:BatchDatabase",
						"label": "list",
						"offset": 0,
						"slot": "1",
						"type": "t_array(t_struct(Batch)363_storage)dyn_storage"
					},
					{
						"astId": 246,
						"contract": "database/batch/BatchDatabase.sol:BatchDatabase",
						"label": "autoIncrement",
						"offset": 0,
						"slot": "2",
						"type": "t_uint256"
					},
					{
						"astId": 250,
						"contract": "database/batch/BatchDatabase.sol:BatchDatabase",
						"label": "permissions",
						"offset": 0,
						"slot": "3",
						"type": "t_mapping(t_address,t_bool)"
					}
				],
				"types": {
					"t_address": {
						"encoding": "inplace",
						"label": "address",
						"numberOfBytes": "20"
					},
					"t_array(t_struct(Batch)363_storage)dyn_storage": {
						"base": "t_struct(Batch)363_storage",
						"encoding": "dynamic_array",
						"label": "struct Batch[]",
						"numberOfBytes": "32"
					},
					"t_bool": {
						"encoding": "inplace",
						"label": "bool",
						"numberOfBytes": "1"
					},
					"t_mapping(t_address,t_bool)": {
						"encoding": "mapping",
						"key": "t_address",
						"label": "mapping(address => bool)",
						"numberOfBytes": "32",
						"value": "t_bool"
					},
					"t_string_storage": {
						"encoding": "bytes",
						"label": "string",
						"numberOfBytes": "32"
					},
					"t_struct(Batch)363_storage": {
						"encoding": "inplace",
						"label": "struct Batch",
						"members": [
							{
								"astId": 348,
								"contract": "database/batch/BatchDatabase.sol:BatchDatabase",
								"label": "batchId",
								"offset": 0,
								"slot": "0",
								"type": "t_uint256"
							},
							{
								"astId": 350,
								"contract": "database/batch/BatchDatabase.sol:BatchDatabase",
								"label": "userId",
								"offset": 0,
								"slot": "1",
								"type": "t_uint256"
							},
							{
								"astId": 352,
								"contract": "database/batch/BatchDatabase.sol:BatchDatabase",
								"label": "teamId",
								"offset": 0,
								"slot": "2",
								"type": "t_uint256"
							},
							{
								"astId": 354,
								"contract": "database/batch/BatchDatabase.sol:BatchDatabase",
								"label": "batchName",
								"offset": 0,
								"slot": "3",
								"type": "t_string_storage"
							},
							{
								"astId": 356,
								"contract": "database/batch/BatchDatabase.sol:BatchDatabase",
								"label": "numOfProcess",
								"offset": 0,
								"slot": "4",
								"type": "t_uint256"
							},
							{
								"astId": 358,
								"contract": "database/batch/BatchDatabase.sol:BatchDatabase",
								"label": "categories",
								"offset": 0,
								"slot": "5",
								"type": "t_string_storage"
							},
							{
								"astId": 360,
								"contract": "database/batch/BatchDatabase.sol:BatchDatabase",
								"label": "verifyCode",
								"offset": 0,
								"slot": "6",
								"type": "t_string_storage"
							},
							{
								"astId": 362,
								"contract": "database/batch/BatchDatabase.sol:BatchDatabase",
								"label": "batchIsChecked",
								"offset": 0,
								"slot": "7",
								"type": "t_bool"
							}
						],
						"numberOfBytes": "256"
					},
					"t_uint256": {
						"encoding": "inplace",
						"label": "uint256",
						"numberOfBytes": "32"
					}
				}
			},
			"userdoc": {
				"kind": "user",
				"methods": {},
				"version": 1
			}
		}
	}
}