{
	"controller/batch/BatchController.sol": {
		"BatchController": {
			"abi": [
				{
					"inputs": [
						{
							"internalType": "address",
							"name": "batchDatabaseContractAddress",
							"type": "address"
						}
					],
					"stateMutability": "nonpayable",
					"type": "constructor"
				},
				{
					"anonymous": false,
					"inputs": [
						{
							"indexed": true,
							"internalType": "address",
							"name": "previousOwner",
							"type": "address"
						},
						{
							"indexed": true,
							"internalType": "address",
							"name": "newOwner",
							"type": "address"
						}
					],
					"name": "OwnershipTransferred",
					"type": "event"
				},
				{
					"inputs": [
						{
							"internalType": "uint256",
							"name": "userId",
							"type": "uint256"
						},
						{
							"internalType": "uint256",
							"name": "teamId",
							"type": "uint256"
						},
						{
							"internalType": "string",
							"name": "batchName",
							"type": "string"
						},
						{
							"internalType": "uint256",
							"name": "numOfProcess",
							"type": "uint256"
						},
						{
							"internalType": "string",
							"name": "categories",
							"type": "string"
						}
					],
					"name": "addBatch",
					"outputs": [],
					"stateMutability": "nonpayable",
					"type": "function"
				},
				{
					"inputs": [],
					"name": "batchDatabase",
					"outputs": [
						{
							"internalType": "contract BatchDatabase",
							"name": "",
							"type": "address"
						}
					],
					"stateMutability": "view",
					"type": "function"
				},
				{
					"inputs": [],
					"name": "destroy",
					"outputs": [],
					"stateMutability": "nonpayable",
					"type": "function"
				},
				{
					"inputs": [],
					"name": "getAllBatch",
					"outputs": [
						{
							"components": [
								{
									"internalType": "uint256",
									"name": "batchId",
									"type": "uint256"
								},
								{
									"internalType": "uint256",
									"name": "userId",
									"type": "uint256"
								},
								{
									"internalType": "uint256",
									"name": "teamId",
									"type": "uint256"
								},
								{
									"internalType": "string",
									"name": "batchName",
									"type": "string"
								},
								{
									"internalType": "uint256",
									"name": "numOfProcess",
									"type": "uint256"
								},
								{
									"internalType": "string",
									"name": "categories",
									"type": "string"
								},
								{
									"internalType": "bool",
									"name": "batchIsChecked",
									"type": "bool"
								}
							],
							"internalType": "struct Batch[]",
							"name": "",
							"type": "tuple[]"
						}
					],
					"stateMutability": "view",
					"type": "function"
				},
				{
					"inputs": [],
					"name": "owner",
					"outputs": [
						{
							"internalType": "address",
							"name": "",
							"type": "address"
						}
					],
					"stateMutability": "view",
					"type": "function"
				},
				{
					"inputs": [
						{
							"internalType": "address",
							"name": "newOwner",
							"type": "address"
						}
					],
					"name": "transferOwnership",
					"outputs": [],
					"stateMutability": "nonpayable",
					"type": "function"
				}
			],
			"devdoc": {
				"kind": "dev",
				"methods": {
					"owner()": {
						"details": "Returns the address of the current owner."
					},
					"transferOwnership(address)": {
						"details": "Transfers ownership of the contract to a new account (`newOwner`). Can only be called by the current owner."
					}
				},
				"version": 1
			},
			"evm": {
				"assembly": "    /* \"controller/batch/BatchController.sol\":258:882  contract BatchController is Ownable, BatchDatabaseCursor {... */\n  mstore(0x40, 0x80)\n    /* \"controller/batch/BatchController.sol\":322:457  constructor(address batchDatabaseContractAddress)... */\n  callvalue\n  dup1\n  iszero\n  tag_1\n  jumpi\n  0x00\n  dup1\n  revert\ntag_1:\n  pop\n  mload(0x40)\n  sub(codesize, bytecodeSize)\n  dup1\n  bytecodeSize\n  dup4\n  codecopy\n  dup2\n  dup2\n  add\n  0x40\n  mstore\n  dup2\n  add\n  swap1\n  tag_2\n  swap2\n  swap1\n  tag_3\n  jump\t// in\ntag_2:\n    /* \"controller/batch/BatchController.sol\":420:448  batchDatabaseContractAddress */\n  dup1\n    /* \"abstract/Ownable.sol\":1032:1042  msg.sender */\n  caller\n    /* \"abstract/Ownable.sol\":1023:1029  _owner */\n  0x00\n  dup1\n    /* \"abstract/Ownable.sol\":1023:1042  _owner = msg.sender */\n  0x0100\n  exp\n  dup2\n  sload\n  dup2\n  0xffffffffffffffffffffffffffffffffffffffff\n  mul\n  not\n  and\n  swap1\n  dup4\n  0xffffffffffffffffffffffffffffffffffffffff\n  and\n  mul\n  or\n  swap1\n  sstore\n  pop\n    /* \"cursor/batch/BatchDatabaseCursor.sol\":298:303  value */\n  dup1\n    /* \"cursor/batch/BatchDatabaseCursor.sol\":268:281  batchDatabase */\n  0x01\n  0x00\n    /* \"cursor/batch/BatchDatabaseCursor.sol\":268:304  batchDatabase = BatchDatabase(value) */\n  0x0100\n  exp\n  dup2\n  sload\n  dup2\n  0xffffffffffffffffffffffffffffffffffffffff\n  mul\n  not\n  and\n  swap1\n  dup4\n  0xffffffffffffffffffffffffffffffffffffffff\n  and\n  mul\n  or\n  swap1\n  sstore\n  pop\n    /* \"cursor/batch/BatchDatabaseCursor.sol\":230:312  constructor(address value) {... */\n  pop\n    /* \"controller/batch/BatchController.sol\":322:457  constructor(address batchDatabaseContractAddress)... */\n  pop\n    /* \"controller/batch/BatchController.sol\":258:882  contract BatchController is Ownable, BatchDatabaseCursor {... */\n  jump(tag_10)\n    /* \"#utility.yul\":88:205   */\ntag_12:\n    /* \"#utility.yul\":197:198   */\n  0x00\n    /* \"#utility.yul\":194:195   */\n  dup1\n    /* \"#utility.yul\":187:199   */\n  revert\n    /* \"#utility.yul\":334:460   */\ntag_14:\n    /* \"#utility.yul\":371:378   */\n  0x00\n    /* \"#utility.yul\":411:453   */\n  0xffffffffffffffffffffffffffffffffffffffff\n    /* \"#utility.yul\":404:409   */\n  dup3\n    /* \"#utility.yul\":400:454   */\n  and\n    /* \"#utility.yul\":389:454   */\n  swap1\n  pop\n    /* \"#utility.yul\":334:460   */\n  swap2\n  swap1\n  pop\n  jump\t// out\n    /* \"#utility.yul\":466:562   */\ntag_15:\n    /* \"#utility.yul\":503:510   */\n  0x00\n    /* \"#utility.yul\":532:556   */\n  tag_24\n    /* \"#utility.yul\":550:555   */\n  dup3\n    /* \"#utility.yul\":532:556   */\n  tag_14\n  jump\t// in\ntag_24:\n    /* \"#utility.yul\":521:556   */\n  swap1\n  pop\n    /* \"#utility.yul\":466:562   */\n  swap2\n  swap1\n  pop\n  jump\t// out\n    /* \"#utility.yul\":568:690   */\ntag_16:\n    /* \"#utility.yul\":641:665   */\n  tag_26\n    /* \"#utility.yul\":659:664   */\n  dup2\n    /* \"#utility.yul\":641:665   */\n  tag_15\n  jump\t// in\ntag_26:\n    /* \"#utility.yul\":634:639   */\n  dup2\n    /* \"#utility.yul\":631:666   */\n  eq\n    /* \"#utility.yul\":621:684   */\n  tag_27\n  jumpi\n    /* \"#utility.yul\":680:681   */\n  0x00\n    /* \"#utility.yul\":677:678   */\n  dup1\n    /* \"#utility.yul\":670:682   */\n  revert\n    /* \"#utility.yul\":621:684   */\ntag_27:\n    /* \"#utility.yul\":568:690   */\n  pop\n  jump\t// out\n    /* \"#utility.yul\":696:839   */\ntag_17:\n    /* \"#utility.yul\":753:758   */\n  0x00\n    /* \"#utility.yul\":784:790   */\n  dup2\n    /* \"#utility.yul\":778:791   */\n  mload\n    /* \"#utility.yul\":769:791   */\n  swap1\n  pop\n    /* \"#utility.yul\":800:833   */\n  tag_29\n    /* \"#utility.yul\":827:832   */\n  dup2\n    /* \"#utility.yul\":800:833   */\n  tag_16\n  jump\t// in\ntag_29:\n    /* \"#utility.yul\":696:839   */\n  swap3\n  swap2\n  pop\n  pop\n  jump\t// out\n    /* \"#utility.yul\":845:1196   */\ntag_3:\n    /* \"#utility.yul\":915:921   */\n  0x00\n    /* \"#utility.yul\":964:966   */\n  0x20\n    /* \"#utility.yul\":952:961   */\n  dup3\n    /* \"#utility.yul\":943:950   */\n  dup5\n    /* \"#utility.yul\":939:962   */\n  sub\n    /* \"#utility.yul\":935:967   */\n  slt\n    /* \"#utility.yul\":932:1051   */\n  iszero\n  tag_31\n  jumpi\n    /* \"#utility.yul\":970:1049   */\n  tag_32\n  tag_12\n  jump\t// in\ntag_32:\n    /* \"#utility.yul\":932:1051   */\ntag_31:\n    /* \"#utility.yul\":1090:1091   */\n  0x00\n    /* \"#utility.yul\":1115:1179   */\n  tag_33\n    /* \"#utility.yul\":1171:1178   */\n  dup5\n    /* \"#utility.yul\":1162:1168   */\n  dup3\n    /* \"#utility.yul\":1151:1160   */\n  dup6\n    /* \"#utility.yul\":1147:1169   */\n  add\n    /* \"#utility.yul\":1115:1179   */\n  tag_17\n  jump\t// in\ntag_33:\n    /* \"#utility.yul\":1105:1179   */\n  swap2\n  pop\n    /* \"#utility.yul\":1061:1189   */\n  pop\n    /* \"#utility.yul\":845:1196   */\n  swap3\n  swap2\n  pop\n  pop\n  jump\t// out\n    /* \"controller/batch/BatchController.sol\":258:882  contract BatchController is Ownable, BatchDatabaseCursor {... */\ntag_10:\n  dataSize(sub_0)\n  dup1\n  dataOffset(sub_0)\n  0x00\n  codecopy\n  0x00\n  return\nstop\n\nsub_0: assembly {\n        /* \"controller/batch/BatchController.sol\":258:882  contract BatchController is Ownable, BatchDatabaseCursor {... */\n      mstore(0x40, 0x80)\n      callvalue\n      dup1\n      iszero\n      tag_1\n      jumpi\n      0x00\n      dup1\n      revert\n    tag_1:\n      pop\n      jumpi(tag_2, lt(calldatasize, 0x04))\n      shr(0xe0, calldataload(0x00))\n      dup1\n      0x83197ef0\n      eq\n      tag_3\n      jumpi\n      dup1\n      0x8da5cb5b\n      eq\n      tag_4\n      jumpi\n      dup1\n      0x99f78308\n      eq\n      tag_5\n      jumpi\n      dup1\n      0xc6b2d8c7\n      eq\n      tag_6\n      jumpi\n      dup1\n      0xcad09ad6\n      eq\n      tag_7\n      jumpi\n      dup1\n      0xf2fde38b\n      eq\n      tag_8\n      jumpi\n    tag_2:\n      0x00\n      dup1\n      revert\n        /* \"abstract/Ownable.sol\":2801:2892  function destroy() public onlyOwner {... */\n    tag_3:\n      tag_9\n      tag_10\n      jump\t// in\n    tag_9:\n      stop\n        /* \"abstract/Ownable.sol\":1289:1376  function owner() public view virtual returns (address) {... */\n    tag_4:\n      tag_11\n      tag_12\n      jump\t// in\n    tag_11:\n      mload(0x40)\n      tag_13\n      swap2\n      swap1\n      tag_14\n      jump\t// in\n    tag_13:\n      mload(0x40)\n      dup1\n      swap2\n      sub\n      swap1\n      return\n        /* \"controller/batch/BatchController.sol\":465:748  function addBatch(uint256 userId, uint256 teamId, string memory batchName,uint256 numOfProcess, string memory categories)... */\n    tag_5:\n      tag_15\n      0x04\n      dup1\n      calldatasize\n      sub\n      dup2\n      add\n      swap1\n      tag_16\n      swap2\n      swap1\n      tag_17\n      jump\t// in\n    tag_16:\n      tag_18\n      jump\t// in\n    tag_15:\n      stop\n        /* \"cursor/batch/BatchDatabaseCursor.sol\":187:221  BatchDatabase public batchDatabase */\n    tag_6:\n      tag_19\n      tag_20\n      jump\t// in\n    tag_19:\n      mload(0x40)\n      tag_21\n      swap2\n      swap1\n      tag_22\n      jump\t// in\n    tag_21:\n      mload(0x40)\n      dup1\n      swap2\n      sub\n      swap1\n      return\n        /* \"controller/batch/BatchController.sol\":756:879  function getAllBatch() public view onlyOwner returns (Batch[] memory) {... */\n    tag_7:\n      tag_23\n      tag_24\n      jump\t// in\n    tag_23:\n      mload(0x40)\n      tag_25\n      swap2\n      swap1\n      tag_26\n      jump\t// in\n    tag_25:\n      mload(0x40)\n      dup1\n      swap2\n      sub\n      swap1\n      return\n        /* \"abstract/Ownable.sol\":2204:2442  function transferOwnership(address newOwner) public virtual onlyOwner {... */\n    tag_8:\n      tag_27\n      0x04\n      dup1\n      calldatasize\n      sub\n      dup2\n      add\n      swap1\n      tag_28\n      swap2\n      swap1\n      tag_29\n      jump\t// in\n    tag_28:\n      tag_30\n      jump\t// in\n    tag_27:\n      stop\n        /* \"abstract/Ownable.sol\":2801:2892  function destroy() public onlyOwner {... */\n    tag_10:\n        /* \"abstract/Ownable.sol\":1175:1188  _checkOwner() */\n      tag_32\n        /* \"abstract/Ownable.sol\":1175:1186  _checkOwner */\n      tag_33\n        /* \"abstract/Ownable.sol\":1175:1188  _checkOwner() */\n      jump\t// in\n    tag_32:\n        /* \"abstract/Ownable.sol\":2877:2881  this */\n      address\n        /* \"abstract/Ownable.sol\":2848:2884  selfdestruct(payable(address(this))) */\n      0xffffffffffffffffffffffffffffffffffffffff\n      and\n      selfdestruct\n        /* \"abstract/Ownable.sol\":1289:1376  function owner() public view virtual returns (address) {... */\n    tag_12:\n        /* \"abstract/Ownable.sol\":1335:1342  address */\n      0x00\n        /* \"abstract/Ownable.sol\":1362:1368  _owner */\n      dup1\n      0x00\n      swap1\n      sload\n      swap1\n      0x0100\n      exp\n      swap1\n      div\n      0xffffffffffffffffffffffffffffffffffffffff\n      and\n        /* \"abstract/Ownable.sol\":1355:1368  return _owner */\n      swap1\n      pop\n        /* \"abstract/Ownable.sol\":1289:1376  function owner() public view virtual returns (address) {... */\n      swap1\n      jump\t// out\n        /* \"controller/batch/BatchController.sol\":465:748  function addBatch(uint256 userId, uint256 teamId, string memory batchName,uint256 numOfProcess, string memory categories)... */\n    tag_18:\n        /* \"controller/batch/BatchController.sol\":619:636  Batch memory item */\n      0x00\n        /* \"controller/batch/BatchController.sol\":639:701  Batch(0,userId,teamId,batchName,numOfProcess,categories,false) */\n      mload(0x40)\n      dup1\n      0xe0\n      add\n      0x40\n      mstore\n      dup1\n        /* \"controller/batch/BatchController.sol\":645:646  0 */\n      0x00\n        /* \"controller/batch/BatchController.sol\":639:701  Batch(0,userId,teamId,batchName,numOfProcess,categories,false) */\n      dup2\n      mstore\n      0x20\n      add\n        /* \"controller/batch/BatchController.sol\":647:653  userId */\n      dup8\n        /* \"controller/batch/BatchController.sol\":639:701  Batch(0,userId,teamId,batchName,numOfProcess,categories,false) */\n      dup2\n      mstore\n      0x20\n      add\n        /* \"controller/batch/BatchController.sol\":654:660  teamId */\n      dup7\n        /* \"controller/batch/BatchController.sol\":639:701  Batch(0,userId,teamId,batchName,numOfProcess,categories,false) */\n      dup2\n      mstore\n      0x20\n      add\n        /* \"controller/batch/BatchController.sol\":661:670  batchName */\n      dup6\n        /* \"controller/batch/BatchController.sol\":639:701  Batch(0,userId,teamId,batchName,numOfProcess,categories,false) */\n      dup2\n      mstore\n      0x20\n      add\n        /* \"controller/batch/BatchController.sol\":671:683  numOfProcess */\n      dup5\n        /* \"controller/batch/BatchController.sol\":639:701  Batch(0,userId,teamId,batchName,numOfProcess,categories,false) */\n      dup2\n      mstore\n      0x20\n      add\n        /* \"controller/batch/BatchController.sol\":684:694  categories */\n      dup4\n        /* \"controller/batch/BatchController.sol\":639:701  Batch(0,userId,teamId,batchName,numOfProcess,categories,false) */\n      dup2\n      mstore\n      0x20\n      add\n        /* \"controller/batch/BatchController.sol\":695:700  false */\n      0x00\n        /* \"controller/batch/BatchController.sol\":639:701  Batch(0,userId,teamId,batchName,numOfProcess,categories,false) */\n      iszero\n      iszero\n      dup2\n      mstore\n      pop\n        /* \"controller/batch/BatchController.sol\":619:701  Batch memory item = Batch(0,userId,teamId,batchName,numOfProcess,categories,false) */\n      swap1\n      pop\n        /* \"controller/batch/BatchController.sol\":712:725  batchDatabase */\n      0x01\n      0x00\n      swap1\n      sload\n      swap1\n      0x0100\n      exp\n      swap1\n      div\n      0xffffffffffffffffffffffffffffffffffffffff\n      and\n        /* \"controller/batch/BatchController.sol\":712:734  batchDatabase.addBatch */\n      0xffffffffffffffffffffffffffffffffffffffff\n      and\n      0x3b61a11d\n        /* \"controller/batch/BatchController.sol\":735:739  item */\n      dup3\n        /* \"controller/batch/BatchController.sol\":712:740  batchDatabase.addBatch(item) */\n      mload(0x40)\n      dup3\n      0xffffffff\n      and\n      0xe0\n      shl\n      dup2\n      mstore\n      0x04\n      add\n      tag_37\n      swap2\n      swap1\n      tag_38\n      jump\t// in\n    tag_37:\n      0x00\n      mload(0x40)\n      dup1\n      dup4\n      sub\n      dup2\n      0x00\n      dup8\n      dup1\n      extcodesize\n      iszero\n      dup1\n      iszero\n      tag_39\n      jumpi\n      0x00\n      dup1\n      revert\n    tag_39:\n      pop\n      gas\n      call\n      iszero\n      dup1\n      iszero\n      tag_41\n      jumpi\n      returndatasize\n      0x00\n      dup1\n      returndatacopy\n      revert(0x00, returndatasize)\n    tag_41:\n      pop\n      pop\n      pop\n      pop\n        /* \"controller/batch/BatchController.sol\":608:748  {... */\n      pop\n        /* \"controller/batch/BatchController.sol\":465:748  function addBatch(uint256 userId, uint256 teamId, string memory batchName,uint256 numOfProcess, string memory categories)... */\n      pop\n      pop\n      pop\n      pop\n      pop\n      jump\t// out\n        /* \"cursor/batch/BatchDatabaseCursor.sol\":187:221  BatchDatabase public batchDatabase */\n    tag_20:\n      0x01\n      0x00\n      swap1\n      sload\n      swap1\n      0x0100\n      exp\n      swap1\n      div\n      0xffffffffffffffffffffffffffffffffffffffff\n      and\n      dup2\n      jump\t// out\n        /* \"controller/batch/BatchController.sol\":756:879  function getAllBatch() public view onlyOwner returns (Batch[] memory) {... */\n    tag_24:\n        /* \"controller/batch/BatchController.sol\":810:824  Batch[] memory */\n      0x60\n        /* \"abstract/Ownable.sol\":1175:1188  _checkOwner() */\n      tag_43\n        /* \"abstract/Ownable.sol\":1175:1186  _checkOwner */\n      tag_33\n        /* \"abstract/Ownable.sol\":1175:1188  _checkOwner() */\n      jump\t// in\n    tag_43:\n        /* \"controller/batch/BatchController.sol\":844:857  batchDatabase */\n      0x01\n      0x00\n      swap1\n      sload\n      swap1\n      0x0100\n      exp\n      swap1\n      div\n      0xffffffffffffffffffffffffffffffffffffffff\n      and\n        /* \"controller/batch/BatchController.sol\":844:869  batchDatabase.getAllBatch */\n      0xffffffffffffffffffffffffffffffffffffffff\n      and\n      0xcad09ad6\n        /* \"controller/batch/BatchController.sol\":844:871  batchDatabase.getAllBatch() */\n      mload(0x40)\n      dup2\n      0xffffffff\n      and\n      0xe0\n      shl\n      dup2\n      mstore\n      0x04\n      add\n      0x00\n      mload(0x40)\n      dup1\n      dup4\n      sub\n      dup2\n      dup7\n      gas\n      staticcall\n      iszero\n      dup1\n      iszero\n      tag_46\n      jumpi\n      returndatasize\n      0x00\n      dup1\n      returndatacopy\n      revert(0x00, returndatasize)\n    tag_46:\n      pop\n      pop\n      pop\n      pop\n      mload(0x40)\n      returndatasize\n      0x00\n      dup3\n      returndatacopy\n      returndatasize\n      not(0x1f)\n      0x1f\n      dup3\n      add\n      and\n      dup3\n      add\n      dup1\n      0x40\n      mstore\n      pop\n      dup2\n      add\n      swap1\n      tag_47\n      swap2\n      swap1\n      tag_48\n      jump\t// in\n    tag_47:\n        /* \"controller/batch/BatchController.sol\":837:871  return batchDatabase.getAllBatch() */\n      swap1\n      pop\n        /* \"controller/batch/BatchController.sol\":756:879  function getAllBatch() public view onlyOwner returns (Batch[] memory) {... */\n      swap1\n      jump\t// out\n        /* \"abstract/Ownable.sol\":2204:2442  function transferOwnership(address newOwner) public virtual onlyOwner {... */\n    tag_30:\n        /* \"abstract/Ownable.sol\":1175:1188  _checkOwner() */\n      tag_50\n        /* \"abstract/Ownable.sol\":1175:1186  _checkOwner */\n      tag_33\n        /* \"abstract/Ownable.sol\":1175:1188  _checkOwner() */\n      jump\t// in\n    tag_50:\n        /* \"abstract/Ownable.sol\":2327:2328  0 */\n      0x00\n        /* \"abstract/Ownable.sol\":2307:2329  newOwner != address(0) */\n      0xffffffffffffffffffffffffffffffffffffffff\n      and\n        /* \"abstract/Ownable.sol\":2307:2315  newOwner */\n      dup2\n        /* \"abstract/Ownable.sol\":2307:2329  newOwner != address(0) */\n      0xffffffffffffffffffffffffffffffffffffffff\n      and\n      sub\n        /* \"abstract/Ownable.sol\":2285:2395  require(... */\n      tag_52\n      jumpi\n      mload(0x40)\n      0x08c379a000000000000000000000000000000000000000000000000000000000\n      dup2\n      mstore\n      0x04\n      add\n      tag_53\n      swap1\n      tag_54\n      jump\t// in\n    tag_53:\n      mload(0x40)\n      dup1\n      swap2\n      sub\n      swap1\n      revert\n    tag_52:\n        /* \"abstract/Ownable.sol\":2406:2434  _transferOwnership(newOwner) */\n      tag_55\n        /* \"abstract/Ownable.sol\":2425:2433  newOwner */\n      dup2\n        /* \"abstract/Ownable.sol\":2406:2424  _transferOwnership */\n      tag_56\n        /* \"abstract/Ownable.sol\":2406:2434  _transferOwnership(newOwner) */\n      jump\t// in\n    tag_55:\n        /* \"abstract/Ownable.sol\":2204:2442  function transferOwnership(address newOwner) public virtual onlyOwner {... */\n      pop\n      jump\t// out\n        /* \"abstract/Ownable.sol\":1454:1584  function _checkOwner() internal view virtual {... */\n    tag_33:\n        /* \"abstract/Ownable.sol\":1529:1539  msg.sender */\n      caller\n        /* \"abstract/Ownable.sol\":1518:1539  owner() == msg.sender */\n      0xffffffffffffffffffffffffffffffffffffffff\n      and\n        /* \"abstract/Ownable.sol\":1518:1525  owner() */\n      tag_58\n        /* \"abstract/Ownable.sol\":1518:1523  owner */\n      tag_12\n        /* \"abstract/Ownable.sol\":1518:1525  owner() */\n      jump\t// in\n    tag_58:\n        /* \"abstract/Ownable.sol\":1518:1539  owner() == msg.sender */\n      0xffffffffffffffffffffffffffffffffffffffff\n      and\n      eq\n        /* \"abstract/Ownable.sol\":1510:1576  require(owner() == msg.sender, \"Ownable: caller is not the owner\") */\n      tag_59\n      jumpi\n      mload(0x40)\n      0x08c379a000000000000000000000000000000000000000000000000000000000\n      dup2\n      mstore\n      0x04\n      add\n      tag_60\n      swap1\n      tag_61\n      jump\t// in\n    tag_60:\n      mload(0x40)\n      dup1\n      swap2\n      sub\n      swap1\n      revert\n    tag_59:\n        /* \"abstract/Ownable.sol\":1454:1584  function _checkOwner() internal view virtual {... */\n      jump\t// out\n        /* \"abstract/Ownable.sol\":2602:2793  function _transferOwnership(address newOwner) internal virtual {... */\n    tag_56:\n        /* \"abstract/Ownable.sol\":2676:2692  address oldOwner */\n      0x00\n        /* \"abstract/Ownable.sol\":2695:2701  _owner */\n      dup1\n      0x00\n      swap1\n      sload\n      swap1\n      0x0100\n      exp\n      swap1\n      div\n      0xffffffffffffffffffffffffffffffffffffffff\n      and\n        /* \"abstract/Ownable.sol\":2676:2701  address oldOwner = _owner */\n      swap1\n      pop\n        /* \"abstract/Ownable.sol\":2721:2729  newOwner */\n      dup2\n        /* \"abstract/Ownable.sol\":2712:2718  _owner */\n      0x00\n      dup1\n        /* \"abstract/Ownable.sol\":2712:2729  _owner = newOwner */\n      0x0100\n      exp\n      dup2\n      sload\n      dup2\n      0xffffffffffffffffffffffffffffffffffffffff\n      mul\n      not\n      and\n      swap1\n      dup4\n      0xffffffffffffffffffffffffffffffffffffffff\n      and\n      mul\n      or\n      swap1\n      sstore\n      pop\n        /* \"abstract/Ownable.sol\":2776:2784  newOwner */\n      dup2\n        /* \"abstract/Ownable.sol\":2745:2785  OwnershipTransferred(oldOwner, newOwner) */\n      0xffffffffffffffffffffffffffffffffffffffff\n      and\n        /* \"abstract/Ownable.sol\":2766:2774  oldOwner */\n      dup2\n        /* \"abstract/Ownable.sol\":2745:2785  OwnershipTransferred(oldOwner, newOwner) */\n      0xffffffffffffffffffffffffffffffffffffffff\n      and\n      0x8be0079c531659141344cd1fd0a4f28419497f9722a3daafe3b4186f6b6457e0\n      mload(0x40)\n      mload(0x40)\n      dup1\n      swap2\n      sub\n      swap1\n      log3\n        /* \"abstract/Ownable.sol\":2665:2793  {... */\n      pop\n        /* \"abstract/Ownable.sol\":2602:2793  function _transferOwnership(address newOwner) internal virtual {... */\n      pop\n      jump\t// out\n        /* \"#utility.yul\":7:133   */\n    tag_63:\n        /* \"#utility.yul\":44:51   */\n      0x00\n        /* \"#utility.yul\":84:126   */\n      0xffffffffffffffffffffffffffffffffffffffff\n        /* \"#utility.yul\":77:82   */\n      dup3\n        /* \"#utility.yul\":73:127   */\n      and\n        /* \"#utility.yul\":62:127   */\n      swap1\n      pop\n        /* \"#utility.yul\":7:133   */\n      swap2\n      swap1\n      pop\n      jump\t// out\n        /* \"#utility.yul\":139:235   */\n    tag_64:\n        /* \"#utility.yul\":176:183   */\n      0x00\n        /* \"#utility.yul\":205:229   */\n      tag_124\n        /* \"#utility.yul\":223:228   */\n      dup3\n        /* \"#utility.yul\":205:229   */\n      tag_63\n      jump\t// in\n    tag_124:\n        /* \"#utility.yul\":194:229   */\n      swap1\n      pop\n        /* \"#utility.yul\":139:235   */\n      swap2\n      swap1\n      pop\n      jump\t// out\n        /* \"#utility.yul\":241:359   */\n    tag_65:\n        /* \"#utility.yul\":328:352   */\n      tag_126\n        /* \"#utility.yul\":346:351   */\n      dup2\n        /* \"#utility.yul\":328:352   */\n      tag_64\n      jump\t// in\n    tag_126:\n        /* \"#utility.yul\":323:326   */\n      dup3\n        /* \"#utility.yul\":316:353   */\n      mstore\n        /* \"#utility.yul\":241:359   */\n      pop\n      pop\n      jump\t// out\n        /* \"#utility.yul\":365:587   */\n    tag_14:\n        /* \"#utility.yul\":458:462   */\n      0x00\n        /* \"#utility.yul\":496:498   */\n      0x20\n        /* \"#utility.yul\":485:494   */\n      dup3\n        /* \"#utility.yul\":481:499   */\n      add\n        /* \"#utility.yul\":473:499   */\n      swap1\n      pop\n        /* \"#utility.yul\":509:580   */\n      tag_128\n        /* \"#utility.yul\":577:578   */\n      0x00\n        /* \"#utility.yul\":566:575   */\n      dup4\n        /* \"#utility.yul\":562:579   */\n      add\n        /* \"#utility.yul\":553:559   */\n      dup5\n        /* \"#utility.yul\":509:580   */\n      tag_65\n      jump\t// in\n    tag_128:\n        /* \"#utility.yul\":365:587   */\n      swap3\n      swap2\n      pop\n      pop\n      jump\t// out\n        /* \"#utility.yul\":593:668   */\n    tag_66:\n        /* \"#utility.yul\":626:632   */\n      0x00\n        /* \"#utility.yul\":659:661   */\n      0x40\n        /* \"#utility.yul\":653:662   */\n      mload\n        /* \"#utility.yul\":643:662   */\n      swap1\n      pop\n        /* \"#utility.yul\":593:668   */\n      swap1\n      jump\t// out\n        /* \"#utility.yul\":674:791   */\n    tag_67:\n        /* \"#utility.yul\":783:784   */\n      0x00\n        /* \"#utility.yul\":780:781   */\n      dup1\n        /* \"#utility.yul\":773:785   */\n      revert\n        /* \"#utility.yul\":797:914   */\n    tag_68:\n        /* \"#utility.yul\":906:907   */\n      0x00\n        /* \"#utility.yul\":903:904   */\n      dup1\n        /* \"#utility.yul\":896:908   */\n      revert\n        /* \"#utility.yul\":920:997   */\n    tag_69:\n        /* \"#utility.yul\":957:964   */\n      0x00\n        /* \"#utility.yul\":986:991   */\n      dup2\n        /* \"#utility.yul\":975:991   */\n      swap1\n      pop\n        /* \"#utility.yul\":920:997   */\n      swap2\n      swap1\n      pop\n      jump\t// out\n        /* \"#utility.yul\":1003:1125   */\n    tag_70:\n        /* \"#utility.yul\":1076:1100   */\n      tag_134\n        /* \"#utility.yul\":1094:1099   */\n      dup2\n        /* \"#utility.yul\":1076:1100   */\n      tag_69\n      jump\t// in\n    tag_134:\n        /* \"#utility.yul\":1069:1074   */\n      dup2\n        /* \"#utility.yul\":1066:1101   */\n      eq\n        /* \"#utility.yul\":1056:1119   */\n      tag_135\n      jumpi\n        /* \"#utility.yul\":1115:1116   */\n      0x00\n        /* \"#utility.yul\":1112:1113   */\n      dup1\n        /* \"#utility.yul\":1105:1117   */\n      revert\n        /* \"#utility.yul\":1056:1119   */\n    tag_135:\n        /* \"#utility.yul\":1003:1125   */\n      pop\n      jump\t// out\n        /* \"#utility.yul\":1131:1270   */\n    tag_71:\n        /* \"#utility.yul\":1177:1182   */\n      0x00\n        /* \"#utility.yul\":1215:1221   */\n      dup2\n        /* \"#utility.yul\":1202:1222   */\n      calldataload\n        /* \"#utility.yul\":1193:1222   */\n      swap1\n      pop\n        /* \"#utility.yul\":1231:1264   */\n      tag_137\n        /* \"#utility.yul\":1258:1263   */\n      dup2\n        /* \"#utility.yul\":1231:1264   */\n      tag_70\n      jump\t// in\n    tag_137:\n        /* \"#utility.yul\":1131:1270   */\n      swap3\n      swap2\n      pop\n      pop\n      jump\t// out\n        /* \"#utility.yul\":1276:1393   */\n    tag_72:\n        /* \"#utility.yul\":1385:1386   */\n      0x00\n        /* \"#utility.yul\":1382:1383   */\n      dup1\n        /* \"#utility.yul\":1375:1387   */\n      revert\n        /* \"#utility.yul\":1399:1516   */\n    tag_73:\n        /* \"#utility.yul\":1508:1509   */\n      0x00\n        /* \"#utility.yul\":1505:1506   */\n      dup1\n        /* \"#utility.yul\":1498:1510   */\n      revert\n        /* \"#utility.yul\":1522:1624   */\n    tag_74:\n        /* \"#utility.yul\":1563:1569   */\n      0x00\n        /* \"#utility.yul\":1614:1616   */\n      0x1f\n        /* \"#utility.yul\":1610:1617   */\n      not\n        /* \"#utility.yul\":1605:1607   */\n      0x1f\n        /* \"#utility.yul\":1598:1603   */\n      dup4\n        /* \"#utility.yul\":1594:1608   */\n      add\n        /* \"#utility.yul\":1590:1618   */\n      and\n        /* \"#utility.yul\":1580:1618   */\n      swap1\n      pop\n        /* \"#utility.yul\":1522:1624   */\n      swap2\n      swap1\n      pop\n      jump\t// out\n        /* \"#utility.yul\":1630:1810   */\n    tag_75:\n        /* \"#utility.yul\":1678:1755   */\n      0x4e487b7100000000000000000000000000000000000000000000000000000000\n        /* \"#utility.yul\":1675:1676   */\n      0x00\n        /* \"#utility.yul\":1668:1756   */\n      mstore\n        /* \"#utility.yul\":1775:1779   */\n      0x41\n        /* \"#utility.yul\":1772:1773   */\n      0x04\n        /* \"#utility.yul\":1765:1780   */\n      mstore\n        /* \"#utility.yul\":1799:1803   */\n      0x24\n        /* \"#utility.yul\":1796:1797   */\n      0x00\n        /* \"#utility.yul\":1789:1804   */\n      revert\n        /* \"#utility.yul\":1816:2097   */\n    tag_76:\n        /* \"#utility.yul\":1899:1926   */\n      tag_143\n        /* \"#utility.yul\":1921:1925   */\n      dup3\n        /* \"#utility.yul\":1899:1926   */\n      tag_74\n      jump\t// in\n    tag_143:\n        /* \"#utility.yul\":1891:1897   */\n      dup2\n        /* \"#utility.yul\":1887:1927   */\n      add\n        /* \"#utility.yul\":2029:2035   */\n      dup2\n        /* \"#utility.yul\":2017:2027   */\n      dup2\n        /* \"#utility.yul\":2014:2036   */\n      lt\n        /* \"#utility.yul\":1993:2011   */\n      0xffffffffffffffff\n        /* \"#utility.yul\":1981:1991   */\n      dup3\n        /* \"#utility.yul\":1978:2012   */\n      gt\n        /* \"#utility.yul\":1975:2037   */\n      or\n        /* \"#utility.yul\":1972:2060   */\n      iszero\n      tag_144\n      jumpi\n        /* \"#utility.yul\":2040:2058   */\n      tag_145\n      tag_75\n      jump\t// in\n    tag_145:\n        /* \"#utility.yul\":1972:2060   */\n    tag_144:\n        /* \"#utility.yul\":2080:2090   */\n      dup1\n        /* \"#utility.yul\":2076:2078   */\n      0x40\n        /* \"#utility.yul\":2069:2091   */\n      mstore\n        /* \"#utility.yul\":1859:2097   */\n      pop\n        /* \"#utility.yul\":1816:2097   */\n      pop\n      pop\n      jump\t// out\n        /* \"#utility.yul\":2103:2232   */\n    tag_77:\n        /* \"#utility.yul\":2137:2143   */\n      0x00\n        /* \"#utility.yul\":2164:2184   */\n      tag_147\n      tag_66\n      jump\t// in\n    tag_147:\n        /* \"#utility.yul\":2154:2184   */\n      swap1\n      pop\n        /* \"#utility.yul\":2193:2226   */\n      tag_148\n        /* \"#utility.yul\":2221:2225   */\n      dup3\n        /* \"#utility.yul\":2213:2219   */\n      dup3\n        /* \"#utility.yul\":2193:2226   */\n      tag_76\n      jump\t// in\n    tag_148:\n        /* \"#utility.yul\":2103:2232   */\n      swap2\n      swap1\n      pop\n      jump\t// out\n        /* \"#utility.yul\":2238:2546   */\n    tag_78:\n        /* \"#utility.yul\":2300:2304   */\n      0x00\n        /* \"#utility.yul\":2390:2408   */\n      0xffffffffffffffff\n        /* \"#utility.yul\":2382:2388   */\n      dup3\n        /* \"#utility.yul\":2379:2409   */\n      gt\n        /* \"#utility.yul\":2376:2432   */\n      iszero\n      tag_150\n      jumpi\n        /* \"#utility.yul\":2412:2430   */\n      tag_151\n      tag_75\n      jump\t// in\n    tag_151:\n        /* \"#utility.yul\":2376:2432   */\n    tag_150:\n        /* \"#utility.yul\":2450:2479   */\n      tag_152\n        /* \"#utility.yul\":2472:2478   */\n      dup3\n        /* \"#utility.yul\":2450:2479   */\n      tag_74\n      jump\t// in\n    tag_152:\n        /* \"#utility.yul\":2442:2479   */\n      swap1\n      pop\n        /* \"#utility.yul\":2534:2538   */\n      0x20\n        /* \"#utility.yul\":2528:2532   */\n      dup2\n        /* \"#utility.yul\":2524:2539   */\n      add\n        /* \"#utility.yul\":2516:2539   */\n      swap1\n      pop\n        /* \"#utility.yul\":2238:2546   */\n      swap2\n      swap1\n      pop\n      jump\t// out\n        /* \"#utility.yul\":2552:2698   */\n    tag_79:\n        /* \"#utility.yul\":2649:2655   */\n      dup3\n        /* \"#utility.yul\":2644:2647   */\n      dup2\n        /* \"#utility.yul\":2639:2642   */\n      dup4\n        /* \"#utility.yul\":2626:2656   */\n      calldatacopy\n        /* \"#utility.yul\":2690:2691   */\n      0x00\n        /* \"#utility.yul\":2681:2687   */\n      dup4\n        /* \"#utility.yul\":2676:2679   */\n      dup4\n        /* \"#utility.yul\":2672:2688   */\n      add\n        /* \"#utility.yul\":2665:2692   */\n      mstore\n        /* \"#utility.yul\":2552:2698   */\n      pop\n      pop\n      pop\n      jump\t// out\n        /* \"#utility.yul\":2704:3129   */\n    tag_80:\n        /* \"#utility.yul\":2782:2787   */\n      0x00\n        /* \"#utility.yul\":2807:2873   */\n      tag_155\n        /* \"#utility.yul\":2823:2872   */\n      tag_156\n        /* \"#utility.yul\":2865:2871   */\n      dup5\n        /* \"#utility.yul\":2823:2872   */\n      tag_78\n      jump\t// in\n    tag_156:\n        /* \"#utility.yul\":2807:2873   */\n      tag_77\n      jump\t// in\n    tag_155:\n        /* \"#utility.yul\":2798:2873   */\n      swap1\n      pop\n        /* \"#utility.yul\":2896:2902   */\n      dup3\n        /* \"#utility.yul\":2889:2894   */\n      dup2\n        /* \"#utility.yul\":2882:2903   */\n      mstore\n        /* \"#utility.yul\":2934:2938   */\n      0x20\n        /* \"#utility.yul\":2927:2932   */\n      dup2\n        /* \"#utility.yul\":2923:2939   */\n      add\n        /* \"#utility.yul\":2972:2975   */\n      dup5\n        /* \"#utility.yul\":2963:2969   */\n      dup5\n        /* \"#utility.yul\":2958:2961   */\n      dup5\n        /* \"#utility.yul\":2954:2970   */\n      add\n        /* \"#utility.yul\":2951:2976   */\n      gt\n        /* \"#utility.yul\":2948:3060   */\n      iszero\n      tag_157\n      jumpi\n        /* \"#utility.yul\":2979:3058   */\n      tag_158\n      tag_73\n      jump\t// in\n    tag_158:\n        /* \"#utility.yul\":2948:3060   */\n    tag_157:\n        /* \"#utility.yul\":3069:3123   */\n      tag_159\n        /* \"#utility.yul\":3116:3122   */\n      dup5\n        /* \"#utility.yul\":3111:3114   */\n      dup3\n        /* \"#utility.yul\":3106:3109   */\n      dup6\n        /* \"#utility.yul\":3069:3123   */\n      tag_79\n      jump\t// in\n    tag_159:\n        /* \"#utility.yul\":2788:3129   */\n      pop\n        /* \"#utility.yul\":2704:3129   */\n      swap4\n      swap3\n      pop\n      pop\n      pop\n      jump\t// out\n        /* \"#utility.yul\":3149:3489   */\n    tag_81:\n        /* \"#utility.yul\":3205:3210   */\n      0x00\n        /* \"#utility.yul\":3254:3257   */\n      dup3\n        /* \"#utility.yul\":3247:3251   */\n      0x1f\n        /* \"#utility.yul\":3239:3245   */\n      dup4\n        /* \"#utility.yul\":3235:3252   */\n      add\n        /* \"#utility.yul\":3231:3258   */\n      slt\n        /* \"#utility.yul\":3221:3343   */\n      tag_161\n      jumpi\n        /* \"#utility.yul\":3262:3341   */\n      tag_162\n      tag_72\n      jump\t// in\n    tag_162:\n        /* \"#utility.yul\":3221:3343   */\n    tag_161:\n        /* \"#utility.yul\":3379:3385   */\n      dup2\n        /* \"#utility.yul\":3366:3386   */\n      calldataload\n        /* \"#utility.yul\":3404:3483   */\n      tag_163\n        /* \"#utility.yul\":3479:3482   */\n      dup5\n        /* \"#utility.yul\":3471:3477   */\n      dup3\n        /* \"#utility.yul\":3464:3468   */\n      0x20\n        /* \"#utility.yul\":3456:3462   */\n      dup7\n        /* \"#utility.yul\":3452:3469   */\n      add\n        /* \"#utility.yul\":3404:3483   */\n      tag_80\n      jump\t// in\n    tag_163:\n        /* \"#utility.yul\":3395:3483   */\n      swap2\n      pop\n        /* \"#utility.yul\":3211:3489   */\n      pop\n        /* \"#utility.yul\":3149:3489   */\n      swap3\n      swap2\n      pop\n      pop\n      jump\t// out\n        /* \"#utility.yul\":3495:4766   */\n    tag_17:\n        /* \"#utility.yul\":3610:3616   */\n      0x00\n        /* \"#utility.yul\":3618:3624   */\n      dup1\n        /* \"#utility.yul\":3626:3632   */\n      0x00\n        /* \"#utility.yul\":3634:3640   */\n      dup1\n        /* \"#utility.yul\":3642:3648   */\n      0x00\n        /* \"#utility.yul\":3691:3694   */\n      0xa0\n        /* \"#utility.yul\":3679:3688   */\n      dup7\n        /* \"#utility.yul\":3670:3677   */\n      dup9\n        /* \"#utility.yul\":3666:3689   */\n      sub\n        /* \"#utility.yul\":3662:3695   */\n      slt\n        /* \"#utility.yul\":3659:3779   */\n      iszero\n      tag_165\n      jumpi\n        /* \"#utility.yul\":3698:3777   */\n      tag_166\n      tag_67\n      jump\t// in\n    tag_166:\n        /* \"#utility.yul\":3659:3779   */\n    tag_165:\n        /* \"#utility.yul\":3818:3819   */\n      0x00\n        /* \"#utility.yul\":3843:3896   */\n      tag_167\n        /* \"#utility.yul\":3888:3895   */\n      dup9\n        /* \"#utility.yul\":3879:3885   */\n      dup3\n        /* \"#utility.yul\":3868:3877   */\n      dup10\n        /* \"#utility.yul\":3864:3886   */\n      add\n        /* \"#utility.yul\":3843:3896   */\n      tag_71\n      jump\t// in\n    tag_167:\n        /* \"#utility.yul\":3833:3896   */\n      swap6\n      pop\n        /* \"#utility.yul\":3789:3906   */\n      pop\n        /* \"#utility.yul\":3945:3947   */\n      0x20\n        /* \"#utility.yul\":3971:4024   */\n      tag_168\n        /* \"#utility.yul\":4016:4023   */\n      dup9\n        /* \"#utility.yul\":4007:4013   */\n      dup3\n        /* \"#utility.yul\":3996:4005   */\n      dup10\n        /* \"#utility.yul\":3992:4014   */\n      add\n        /* \"#utility.yul\":3971:4024   */\n      tag_71\n      jump\t// in\n    tag_168:\n        /* \"#utility.yul\":3961:4024   */\n      swap5\n      pop\n        /* \"#utility.yul\":3916:4034   */\n      pop\n        /* \"#utility.yul\":4101:4103   */\n      0x40\n        /* \"#utility.yul\":4090:4099   */\n      dup7\n        /* \"#utility.yul\":4086:4104   */\n      add\n        /* \"#utility.yul\":4073:4105   */\n      calldataload\n        /* \"#utility.yul\":4132:4150   */\n      0xffffffffffffffff\n        /* \"#utility.yul\":4124:4130   */\n      dup2\n        /* \"#utility.yul\":4121:4151   */\n      gt\n        /* \"#utility.yul\":4118:4235   */\n      iszero\n      tag_169\n      jumpi\n        /* \"#utility.yul\":4154:4233   */\n      tag_170\n      tag_68\n      jump\t// in\n    tag_170:\n        /* \"#utility.yul\":4118:4235   */\n    tag_169:\n        /* \"#utility.yul\":4259:4322   */\n      tag_171\n        /* \"#utility.yul\":4314:4321   */\n      dup9\n        /* \"#utility.yul\":4305:4311   */\n      dup3\n        /* \"#utility.yul\":4294:4303   */\n      dup10\n        /* \"#utility.yul\":4290:4312   */\n      add\n        /* \"#utility.yul\":4259:4322   */\n      tag_81\n      jump\t// in\n    tag_171:\n        /* \"#utility.yul\":4249:4322   */\n      swap4\n      pop\n        /* \"#utility.yul\":4044:4332   */\n      pop\n        /* \"#utility.yul\":4371:4373   */\n      0x60\n        /* \"#utility.yul\":4397:4450   */\n      tag_172\n        /* \"#utility.yul\":4442:4449   */\n      dup9\n        /* \"#utility.yul\":4433:4439   */\n      dup3\n        /* \"#utility.yul\":4422:4431   */\n      dup10\n        /* \"#utility.yul\":4418:4440   */\n      add\n        /* \"#utility.yul\":4397:4450   */\n      tag_71\n      jump\t// in\n    tag_172:\n        /* \"#utility.yul\":4387:4450   */\n      swap3\n      pop\n        /* \"#utility.yul\":4342:4460   */\n      pop\n        /* \"#utility.yul\":4527:4530   */\n      0x80\n        /* \"#utility.yul\":4516:4525   */\n      dup7\n        /* \"#utility.yul\":4512:4531   */\n      add\n        /* \"#utility.yul\":4499:4532   */\n      calldataload\n        /* \"#utility.yul\":4559:4577   */\n      0xffffffffffffffff\n        /* \"#utility.yul\":4551:4557   */\n      dup2\n        /* \"#utility.yul\":4548:4578   */\n      gt\n        /* \"#utility.yul\":4545:4662   */\n      iszero\n      tag_173\n      jumpi\n        /* \"#utility.yul\":4581:4660   */\n      tag_174\n      tag_68\n      jump\t// in\n    tag_174:\n        /* \"#utility.yul\":4545:4662   */\n    tag_173:\n        /* \"#utility.yul\":4686:4749   */\n      tag_175\n        /* \"#utility.yul\":4741:4748   */\n      dup9\n        /* \"#utility.yul\":4732:4738   */\n      dup3\n        /* \"#utility.yul\":4721:4730   */\n      dup10\n        /* \"#utility.yul\":4717:4739   */\n      add\n        /* \"#utility.yul\":4686:4749   */\n      tag_81\n      jump\t// in\n    tag_175:\n        /* \"#utility.yul\":4676:4749   */\n      swap2\n      pop\n        /* \"#utility.yul\":4470:4759   */\n      pop\n        /* \"#utility.yul\":3495:4766   */\n      swap3\n      swap6\n      pop\n      swap3\n      swap6\n      swap1\n      swap4\n      pop\n      jump\t// out\n        /* \"#utility.yul\":4772:4832   */\n    tag_82:\n        /* \"#utility.yul\":4800:4803   */\n      0x00\n        /* \"#utility.yul\":4821:4826   */\n      dup2\n        /* \"#utility.yul\":4814:4826   */\n      swap1\n      pop\n        /* \"#utility.yul\":4772:4832   */\n      swap2\n      swap1\n      pop\n      jump\t// out\n        /* \"#utility.yul\":4838:4980   */\n    tag_83:\n        /* \"#utility.yul\":4888:4897   */\n      0x00\n        /* \"#utility.yul\":4921:4974   */\n      tag_178\n        /* \"#utility.yul\":4939:4973   */\n      tag_179\n        /* \"#utility.yul\":4948:4972   */\n      tag_180\n        /* \"#utility.yul\":4966:4971   */\n      dup5\n        /* \"#utility.yul\":4948:4972   */\n      tag_63\n      jump\t// in\n    tag_180:\n        /* \"#utility.yul\":4939:4973   */\n      tag_82\n      jump\t// in\n    tag_179:\n        /* \"#utility.yul\":4921:4974   */\n      tag_63\n      jump\t// in\n    tag_178:\n        /* \"#utility.yul\":4908:4974   */\n      swap1\n      pop\n        /* \"#utility.yul\":4838:4980   */\n      swap2\n      swap1\n      pop\n      jump\t// out\n        /* \"#utility.yul\":4986:5112   */\n    tag_84:\n        /* \"#utility.yul\":5036:5045   */\n      0x00\n        /* \"#utility.yul\":5069:5106   */\n      tag_182\n        /* \"#utility.yul\":5100:5105   */\n      dup3\n        /* \"#utility.yul\":5069:5106   */\n      tag_83\n      jump\t// in\n    tag_182:\n        /* \"#utility.yul\":5056:5106   */\n      swap1\n      pop\n        /* \"#utility.yul\":4986:5112   */\n      swap2\n      swap1\n      pop\n      jump\t// out\n        /* \"#utility.yul\":5118:5265   */\n    tag_85:\n        /* \"#utility.yul\":5189:5198   */\n      0x00\n        /* \"#utility.yul\":5222:5259   */\n      tag_184\n        /* \"#utility.yul\":5253:5258   */\n      dup3\n        /* \"#utility.yul\":5222:5259   */\n      tag_84\n      jump\t// in\n    tag_184:\n        /* \"#utility.yul\":5209:5259   */\n      swap1\n      pop\n        /* \"#utility.yul\":5118:5265   */\n      swap2\n      swap1\n      pop\n      jump\t// out\n        /* \"#utility.yul\":5271:5444   */\n    tag_86:\n        /* \"#utility.yul\":5379:5437   */\n      tag_186\n        /* \"#utility.yul\":5431:5436   */\n      dup2\n        /* \"#utility.yul\":5379:5437   */\n      tag_85\n      jump\t// in\n    tag_186:\n        /* \"#utility.yul\":5374:5377   */\n      dup3\n        /* \"#utility.yul\":5367:5438   */\n      mstore\n        /* \"#utility.yul\":5271:5444   */\n      pop\n      pop\n      jump\t// out\n        /* \"#utility.yul\":5450:5714   */\n    tag_22:\n        /* \"#utility.yul\":5564:5568   */\n      0x00\n        /* \"#utility.yul\":5602:5604   */\n      0x20\n        /* \"#utility.yul\":5591:5600   */\n      dup3\n        /* \"#utility.yul\":5587:5605   */\n      add\n        /* \"#utility.yul\":5579:5605   */\n      swap1\n      pop\n        /* \"#utility.yul\":5615:5707   */\n      tag_188\n        /* \"#utility.yul\":5704:5705   */\n      0x00\n        /* \"#utility.yul\":5693:5702   */\n      dup4\n        /* \"#utility.yul\":5689:5706   */\n      add\n        /* \"#utility.yul\":5680:5686   */\n      dup5\n        /* \"#utility.yul\":5615:5707   */\n      tag_86\n      jump\t// in\n    tag_188:\n        /* \"#utility.yul\":5450:5714   */\n      swap3\n      swap2\n      pop\n      pop\n      jump\t// out\n        /* \"#utility.yul\":5720:5856   */\n    tag_87:\n        /* \"#utility.yul\":5809:5815   */\n      0x00\n        /* \"#utility.yul\":5843:5848   */\n      dup2\n        /* \"#utility.yul\":5837:5849   */\n      mload\n        /* \"#utility.yul\":5827:5849   */\n      swap1\n      pop\n        /* \"#utility.yul\":5720:5856   */\n      swap2\n      swap1\n      pop\n      jump\t// out\n        /* \"#utility.yul\":5862:6068   */\n    tag_88:\n        /* \"#utility.yul\":5983:5994   */\n      0x00\n        /* \"#utility.yul\":6017:6023   */\n      dup3\n        /* \"#utility.yul\":6012:6015   */\n      dup3\n        /* \"#utility.yul\":6005:6024   */\n      mstore\n        /* \"#utility.yul\":6057:6061   */\n      0x20\n        /* \"#utility.yul\":6052:6055   */\n      dup3\n        /* \"#utility.yul\":6048:6062   */\n      add\n        /* \"#utility.yul\":6033:6062   */\n      swap1\n      pop\n        /* \"#utility.yul\":5862:6068   */\n      swap3\n      swap2\n      pop\n      pop\n      jump\t// out\n        /* \"#utility.yul\":6074:6228   */\n    tag_89:\n        /* \"#utility.yul\":6163:6167   */\n      0x00\n        /* \"#utility.yul\":6186:6189   */\n      dup2\n        /* \"#utility.yul\":6178:6189   */\n      swap1\n      pop\n        /* \"#utility.yul\":6216:6220   */\n      0x20\n        /* \"#utility.yul\":6211:6214   */\n      dup3\n        /* \"#utility.yul\":6207:6221   */\n      add\n        /* \"#utility.yul\":6199:6221   */\n      swap1\n      pop\n        /* \"#utility.yul\":6074:6228   */\n      swap2\n      swap1\n      pop\n      jump\t// out\n        /* \"#utility.yul\":6234:6342   */\n    tag_90:\n        /* \"#utility.yul\":6311:6335   */\n      tag_193\n        /* \"#utility.yul\":6329:6334   */\n      dup2\n        /* \"#utility.yul\":6311:6335   */\n      tag_69\n      jump\t// in\n    tag_193:\n        /* \"#utility.yul\":6306:6309   */\n      dup3\n        /* \"#utility.yul\":6299:6336   */\n      mstore\n        /* \"#utility.yul\":6234:6342   */\n      pop\n      pop\n      jump\t// out\n        /* \"#utility.yul\":6348:6447   */\n    tag_91:\n        /* \"#utility.yul\":6400:6406   */\n      0x00\n        /* \"#utility.yul\":6434:6439   */\n      dup2\n        /* \"#utility.yul\":6428:6440   */\n      mload\n        /* \"#utility.yul\":6418:6440   */\n      swap1\n      pop\n        /* \"#utility.yul\":6348:6447   */\n      swap2\n      swap1\n      pop\n      jump\t// out\n        /* \"#utility.yul\":6453:6612   */\n    tag_92:\n        /* \"#utility.yul\":6527:6538   */\n      0x00\n        /* \"#utility.yul\":6561:6567   */\n      dup3\n        /* \"#utility.yul\":6556:6559   */\n      dup3\n        /* \"#utility.yul\":6549:6568   */\n      mstore\n        /* \"#utility.yul\":6601:6605   */\n      0x20\n        /* \"#utility.yul\":6596:6599   */\n      dup3\n        /* \"#utility.yul\":6592:6606   */\n      add\n        /* \"#utility.yul\":6577:6606   */\n      swap1\n      pop\n        /* \"#utility.yul\":6453:6612   */\n      swap3\n      swap2\n      pop\n      pop\n      jump\t// out\n        /* \"#utility.yul\":6618:6864   */\n    tag_93:\n        /* \"#utility.yul\":6699:6700   */\n      0x00\n        /* \"#utility.yul\":6709:6822   */\n    tag_197:\n        /* \"#utility.yul\":6723:6729   */\n      dup4\n        /* \"#utility.yul\":6720:6721   */\n      dup2\n        /* \"#utility.yul\":6717:6730   */\n      lt\n        /* \"#utility.yul\":6709:6822   */\n      iszero\n      tag_199\n      jumpi\n        /* \"#utility.yul\":6808:6809   */\n      dup1\n        /* \"#utility.yul\":6803:6806   */\n      dup3\n        /* \"#utility.yul\":6799:6810   */\n      add\n        /* \"#utility.yul\":6793:6811   */\n      mload\n        /* \"#utility.yul\":6789:6790   */\n      dup2\n        /* \"#utility.yul\":6784:6787   */\n      dup5\n        /* \"#utility.yul\":6780:6791   */\n      add\n        /* \"#utility.yul\":6773:6812   */\n      mstore\n        /* \"#utility.yul\":6745:6747   */\n      0x20\n        /* \"#utility.yul\":6742:6743   */\n      dup2\n        /* \"#utility.yul\":6738:6748   */\n      add\n        /* \"#utility.yul\":6733:6748   */\n      swap1\n      pop\n        /* \"#utility.yul\":6709:6822   */\n      jump(tag_197)\n    tag_199:\n        /* \"#utility.yul\":6856:6857   */\n      0x00\n        /* \"#utility.yul\":6847:6853   */\n      dup5\n        /* \"#utility.yul\":6842:6845   */\n      dup5\n        /* \"#utility.yul\":6838:6854   */\n      add\n        /* \"#utility.yul\":6831:6858   */\n      mstore\n        /* \"#utility.yul\":6680:6864   */\n      pop\n        /* \"#utility.yul\":6618:6864   */\n      pop\n      pop\n      pop\n      jump\t// out\n        /* \"#utility.yul\":6870:7227   */\n    tag_94:\n        /* \"#utility.yul\":6948:6951   */\n      0x00\n        /* \"#utility.yul\":6976:7015   */\n      tag_201\n        /* \"#utility.yul\":7009:7014   */\n      dup3\n        /* \"#utility.yul\":6976:7015   */\n      tag_91\n      jump\t// in\n    tag_201:\n        /* \"#utility.yul\":7031:7092   */\n      tag_202\n        /* \"#utility.yul\":7085:7091   */\n      dup2\n        /* \"#utility.yul\":7080:7083   */\n      dup6\n        /* \"#utility.yul\":7031:7092   */\n      tag_92\n      jump\t// in\n    tag_202:\n        /* \"#utility.yul\":7024:7092   */\n      swap4\n      pop\n        /* \"#utility.yul\":7101:7166   */\n      tag_203\n        /* \"#utility.yul\":7159:7165   */\n      dup2\n        /* \"#utility.yul\":7154:7157   */\n      dup6\n        /* \"#utility.yul\":7147:7151   */\n      0x20\n        /* \"#utility.yul\":7140:7145   */\n      dup7\n        /* \"#utility.yul\":7136:7152   */\n      add\n        /* \"#utility.yul\":7101:7166   */\n      tag_93\n      jump\t// in\n    tag_203:\n        /* \"#utility.yul\":7191:7220   */\n      tag_204\n        /* \"#utility.yul\":7213:7219   */\n      dup2\n        /* \"#utility.yul\":7191:7220   */\n      tag_74\n      jump\t// in\n    tag_204:\n        /* \"#utility.yul\":7186:7189   */\n      dup5\n        /* \"#utility.yul\":7182:7221   */\n      add\n        /* \"#utility.yul\":7175:7221   */\n      swap2\n      pop\n        /* \"#utility.yul\":6952:7227   */\n      pop\n        /* \"#utility.yul\":6870:7227   */\n      swap3\n      swap2\n      pop\n      pop\n      jump\t// out\n        /* \"#utility.yul\":7233:7323   */\n    tag_95:\n        /* \"#utility.yul\":7267:7274   */\n      0x00\n        /* \"#utility.yul\":7310:7315   */\n      dup2\n        /* \"#utility.yul\":7303:7316   */\n      iszero\n        /* \"#utility.yul\":7296:7317   */\n      iszero\n        /* \"#utility.yul\":7285:7317   */\n      swap1\n      pop\n        /* \"#utility.yul\":7233:7323   */\n      swap2\n      swap1\n      pop\n      jump\t// out\n        /* \"#utility.yul\":7329:7428   */\n    tag_96:\n        /* \"#utility.yul\":7400:7421   */\n      tag_207\n        /* \"#utility.yul\":7415:7420   */\n      dup2\n        /* \"#utility.yul\":7400:7421   */\n      tag_95\n      jump\t// in\n    tag_207:\n        /* \"#utility.yul\":7395:7398   */\n      dup3\n        /* \"#utility.yul\":7388:7422   */\n      mstore\n        /* \"#utility.yul\":7329:7428   */\n      pop\n      pop\n      jump\t// out\n        /* \"#utility.yul\":7470:9031   */\n    tag_97:\n        /* \"#utility.yul\":7573:7576   */\n      0x00\n        /* \"#utility.yul\":7609:7613   */\n      0xe0\n        /* \"#utility.yul\":7604:7607   */\n      dup4\n        /* \"#utility.yul\":7600:7614   */\n      add\n        /* \"#utility.yul\":7699:7703   */\n      0x00\n        /* \"#utility.yul\":7692:7697   */\n      dup4\n        /* \"#utility.yul\":7688:7704   */\n      add\n        /* \"#utility.yul\":7682:7705   */\n      mload\n        /* \"#utility.yul\":7718:7781   */\n      tag_209\n        /* \"#utility.yul\":7775:7779   */\n      0x00\n        /* \"#utility.yul\":7770:7773   */\n      dup7\n        /* \"#utility.yul\":7766:7780   */\n      add\n        /* \"#utility.yul\":7752:7764   */\n      dup3\n        /* \"#utility.yul\":7718:7781   */\n      tag_90\n      jump\t// in\n    tag_209:\n        /* \"#utility.yul\":7624:7791   */\n      pop\n        /* \"#utility.yul\":7875:7879   */\n      0x20\n        /* \"#utility.yul\":7868:7873   */\n      dup4\n        /* \"#utility.yul\":7864:7880   */\n      add\n        /* \"#utility.yul\":7858:7881   */\n      mload\n        /* \"#utility.yul\":7894:7957   */\n      tag_210\n        /* \"#utility.yul\":7951:7955   */\n      0x20\n        /* \"#utility.yul\":7946:7949   */\n      dup7\n        /* \"#utility.yul\":7942:7956   */\n      add\n        /* \"#utility.yul\":7928:7940   */\n      dup3\n        /* \"#utility.yul\":7894:7957   */\n      tag_90\n      jump\t// in\n    tag_210:\n        /* \"#utility.yul\":7801:7967   */\n      pop\n        /* \"#utility.yul\":8051:8055   */\n      0x40\n        /* \"#utility.yul\":8044:8049   */\n      dup4\n        /* \"#utility.yul\":8040:8056   */\n      add\n        /* \"#utility.yul\":8034:8057   */\n      mload\n        /* \"#utility.yul\":8070:8133   */\n      tag_211\n        /* \"#utility.yul\":8127:8131   */\n      0x40\n        /* \"#utility.yul\":8122:8125   */\n      dup7\n        /* \"#utility.yul\":8118:8132   */\n      add\n        /* \"#utility.yul\":8104:8116   */\n      dup3\n        /* \"#utility.yul\":8070:8133   */\n      tag_90\n      jump\t// in\n    tag_211:\n        /* \"#utility.yul\":7977:8143   */\n      pop\n        /* \"#utility.yul\":8230:8234   */\n      0x60\n        /* \"#utility.yul\":8223:8228   */\n      dup4\n        /* \"#utility.yul\":8219:8235   */\n      add\n        /* \"#utility.yul\":8213:8236   */\n      mload\n        /* \"#utility.yul\":8283:8286   */\n      dup5\n        /* \"#utility.yul\":8277:8281   */\n      dup3\n        /* \"#utility.yul\":8273:8287   */\n      sub\n        /* \"#utility.yul\":8266:8270   */\n      0x60\n        /* \"#utility.yul\":8261:8264   */\n      dup7\n        /* \"#utility.yul\":8257:8271   */\n      add\n        /* \"#utility.yul\":8250:8288   */\n      mstore\n        /* \"#utility.yul\":8309:8382   */\n      tag_212\n        /* \"#utility.yul\":8377:8381   */\n      dup3\n        /* \"#utility.yul\":8363:8375   */\n      dup3\n        /* \"#utility.yul\":8309:8382   */\n      tag_94\n      jump\t// in\n    tag_212:\n        /* \"#utility.yul\":8301:8382   */\n      swap2\n      pop\n        /* \"#utility.yul\":8153:8393   */\n      pop\n        /* \"#utility.yul\":8483:8487   */\n      0x80\n        /* \"#utility.yul\":8476:8481   */\n      dup4\n        /* \"#utility.yul\":8472:8488   */\n      add\n        /* \"#utility.yul\":8466:8489   */\n      mload\n        /* \"#utility.yul\":8502:8565   */\n      tag_213\n        /* \"#utility.yul\":8559:8563   */\n      0x80\n        /* \"#utility.yul\":8554:8557   */\n      dup7\n        /* \"#utility.yul\":8550:8564   */\n      add\n        /* \"#utility.yul\":8536:8548   */\n      dup3\n        /* \"#utility.yul\":8502:8565   */\n      tag_90\n      jump\t// in\n    tag_213:\n        /* \"#utility.yul\":8403:8575   */\n      pop\n        /* \"#utility.yul\":8663:8667   */\n      0xa0\n        /* \"#utility.yul\":8656:8661   */\n      dup4\n        /* \"#utility.yul\":8652:8668   */\n      add\n        /* \"#utility.yul\":8646:8669   */\n      mload\n        /* \"#utility.yul\":8716:8719   */\n      dup5\n        /* \"#utility.yul\":8710:8714   */\n      dup3\n        /* \"#utility.yul\":8706:8720   */\n      sub\n        /* \"#utility.yul\":8699:8703   */\n      0xa0\n        /* \"#utility.yul\":8694:8697   */\n      dup7\n        /* \"#utility.yul\":8690:8704   */\n      add\n        /* \"#utility.yul\":8683:8721   */\n      mstore\n        /* \"#utility.yul\":8742:8815   */\n      tag_214\n        /* \"#utility.yul\":8810:8814   */\n      dup3\n        /* \"#utility.yul\":8796:8808   */\n      dup3\n        /* \"#utility.yul\":8742:8815   */\n      tag_94\n      jump\t// in\n    tag_214:\n        /* \"#utility.yul\":8734:8815   */\n      swap2\n      pop\n        /* \"#utility.yul\":8585:8826   */\n      pop\n        /* \"#utility.yul\":8918:8922   */\n      0xc0\n        /* \"#utility.yul\":8911:8916   */\n      dup4\n        /* \"#utility.yul\":8907:8923   */\n      add\n        /* \"#utility.yul\":8901:8924   */\n      mload\n        /* \"#utility.yul\":8937:8994   */\n      tag_215\n        /* \"#utility.yul\":8988:8992   */\n      0xc0\n        /* \"#utility.yul\":8983:8986   */\n      dup7\n        /* \"#utility.yul\":8979:8993   */\n      add\n        /* \"#utility.yul\":8965:8977   */\n      dup3\n        /* \"#utility.yul\":8937:8994   */\n      tag_96\n      jump\t// in\n    tag_215:\n        /* \"#utility.yul\":8836:9004   */\n      pop\n        /* \"#utility.yul\":9021:9025   */\n      dup1\n        /* \"#utility.yul\":9014:9025   */\n      swap2\n      pop\n        /* \"#utility.yul\":7578:9031   */\n      pop\n        /* \"#utility.yul\":7470:9031   */\n      swap3\n      swap2\n      pop\n      pop\n      jump\t// out\n        /* \"#utility.yul\":9037:9281   */\n    tag_98:\n        /* \"#utility.yul\":9150:9160   */\n      0x00\n        /* \"#utility.yul\":9185:9275   */\n      tag_217\n        /* \"#utility.yul\":9271:9274   */\n      dup4\n        /* \"#utility.yul\":9263:9269   */\n      dup4\n        /* \"#utility.yul\":9185:9275   */\n      tag_97\n      jump\t// in\n    tag_217:\n        /* \"#utility.yul\":9171:9275   */\n      swap1\n      pop\n        /* \"#utility.yul\":9037:9281   */\n      swap3\n      swap2\n      pop\n      pop\n      jump\t// out\n        /* \"#utility.yul\":9287:9422   */\n    tag_99:\n        /* \"#utility.yul\":9379:9383   */\n      0x00\n        /* \"#utility.yul\":9411:9415   */\n      0x20\n        /* \"#utility.yul\":9406:9409   */\n      dup3\n        /* \"#utility.yul\":9402:9416   */\n      add\n        /* \"#utility.yul\":9394:9416   */\n      swap1\n      pop\n        /* \"#utility.yul\":9287:9422   */\n      swap2\n      swap1\n      pop\n      jump\t// out\n        /* \"#utility.yul\":9468:10555   */\n    tag_100:\n        /* \"#utility.yul\":9631:9634   */\n      0x00\n        /* \"#utility.yul\":9660:9736   */\n      tag_220\n        /* \"#utility.yul\":9730:9735   */\n      dup3\n        /* \"#utility.yul\":9660:9736   */\n      tag_87\n      jump\t// in\n    tag_220:\n        /* \"#utility.yul\":9752:9860   */\n      tag_221\n        /* \"#utility.yul\":9853:9859   */\n      dup2\n        /* \"#utility.yul\":9848:9851   */\n      dup6\n        /* \"#utility.yul\":9752:9860   */\n      tag_88\n      jump\t// in\n    tag_221:\n        /* \"#utility.yul\":9745:9860   */\n      swap4\n      pop\n        /* \"#utility.yul\":9886:9889   */\n      dup4\n        /* \"#utility.yul\":9931:9935   */\n      0x20\n        /* \"#utility.yul\":9923:9929   */\n      dup3\n        /* \"#utility.yul\":9919:9936   */\n      mul\n        /* \"#utility.yul\":9914:9917   */\n      dup6\n        /* \"#utility.yul\":9910:9937   */\n      add\n        /* \"#utility.yul\":9961:10039   */\n      tag_222\n        /* \"#utility.yul\":10033:10038   */\n      dup6\n        /* \"#utility.yul\":9961:10039   */\n      tag_89\n      jump\t// in\n    tag_222:\n        /* \"#utility.yul\":10062:10069   */\n      dup1\n        /* \"#utility.yul\":10093:10094   */\n      0x00\n        /* \"#utility.yul\":10078:10510   */\n    tag_223:\n        /* \"#utility.yul\":10103:10109   */\n      dup6\n        /* \"#utility.yul\":10100:10101   */\n      dup2\n        /* \"#utility.yul\":10097:10110   */\n      lt\n        /* \"#utility.yul\":10078:10510   */\n      iszero\n      tag_225\n      jumpi\n        /* \"#utility.yul\":10174:10183   */\n      dup5\n        /* \"#utility.yul\":10168:10172   */\n      dup5\n        /* \"#utility.yul\":10164:10184   */\n      sub\n        /* \"#utility.yul\":10159:10162   */\n      dup10\n        /* \"#utility.yul\":10152:10185   */\n      mstore\n        /* \"#utility.yul\":10225:10231   */\n      dup2\n        /* \"#utility.yul\":10219:10232   */\n      mload\n        /* \"#utility.yul\":10253:10361   */\n      tag_226\n        /* \"#utility.yul\":10356:10360   */\n      dup6\n        /* \"#utility.yul\":10341:10354   */\n      dup3\n        /* \"#utility.yul\":10253:10361   */\n      tag_98\n      jump\t// in\n    tag_226:\n        /* \"#utility.yul\":10245:10361   */\n      swap5\n      pop\n        /* \"#utility.yul\":10384:10466   */\n      tag_227\n        /* \"#utility.yul\":10459:10465   */\n      dup4\n        /* \"#utility.yul\":10384:10466   */\n      tag_99\n      jump\t// in\n    tag_227:\n        /* \"#utility.yul\":10374:10466   */\n      swap3\n      pop\n        /* \"#utility.yul\":10495:10499   */\n      0x20\n        /* \"#utility.yul\":10490:10493   */\n      dup11\n        /* \"#utility.yul\":10486:10500   */\n      add\n        /* \"#utility.yul\":10479:10500   */\n      swap10\n      pop\n        /* \"#utility.yul\":10138:10510   */\n      pop\n        /* \"#utility.yul\":10125:10126   */\n      0x01\n        /* \"#utility.yul\":10122:10123   */\n      dup2\n        /* \"#utility.yul\":10118:10127   */\n      add\n        /* \"#utility.yul\":10113:10127   */\n      swap1\n      pop\n        /* \"#utility.yul\":10078:10510   */\n      jump(tag_223)\n    tag_225:\n        /* \"#utility.yul\":10082:10096   */\n      pop\n        /* \"#utility.yul\":10526:10530   */\n      dup3\n        /* \"#utility.yul\":10519:10530   */\n      swap8\n      pop\n        /* \"#utility.yul\":10546:10549   */\n      dup8\n        /* \"#utility.yul\":10539:10549   */\n      swap6\n      pop\n        /* \"#utility.yul\":9636:10555   */\n      pop\n      pop\n      pop\n      pop\n      pop\n        /* \"#utility.yul\":9468:10555   */\n      swap3\n      swap2\n      pop\n      pop\n      jump\t// out\n        /* \"#utility.yul\":10561:11022   */\n    tag_26:\n        /* \"#utility.yul\":10748:10752   */\n      0x00\n        /* \"#utility.yul\":10786:10788   */\n      0x20\n        /* \"#utility.yul\":10775:10784   */\n      dup3\n        /* \"#utility.yul\":10771:10789   */\n      add\n        /* \"#utility.yul\":10763:10789   */\n      swap1\n      pop\n        /* \"#utility.yul\":10835:10844   */\n      dup2\n        /* \"#utility.yul\":10829:10833   */\n      dup2\n        /* \"#utility.yul\":10825:10845   */\n      sub\n        /* \"#utility.yul\":10821:10822   */\n      0x00\n        /* \"#utility.yul\":10810:10819   */\n      dup4\n        /* \"#utility.yul\":10806:10823   */\n      add\n        /* \"#utility.yul\":10799:10846   */\n      mstore\n        /* \"#utility.yul\":10863:11015   */\n      tag_229\n        /* \"#utility.yul\":11010:11014   */\n      dup2\n        /* \"#utility.yul\":11001:11007   */\n      dup5\n        /* \"#utility.yul\":10863:11015   */\n      tag_100\n      jump\t// in\n    tag_229:\n        /* \"#utility.yul\":10855:11015   */\n      swap1\n      pop\n        /* \"#utility.yul\":10561:11022   */\n      swap3\n      swap2\n      pop\n      pop\n      jump\t// out\n        /* \"#utility.yul\":11028:11150   */\n    tag_101:\n        /* \"#utility.yul\":11101:11125   */\n      tag_231\n        /* \"#utility.yul\":11119:11124   */\n      dup2\n        /* \"#utility.yul\":11101:11125   */\n      tag_64\n      jump\t// in\n    tag_231:\n        /* \"#utility.yul\":11094:11099   */\n      dup2\n        /* \"#utility.yul\":11091:11126   */\n      eq\n        /* \"#utility.yul\":11081:11144   */\n      tag_232\n      jumpi\n        /* \"#utility.yul\":11140:11141   */\n      0x00\n        /* \"#utility.yul\":11137:11138   */\n      dup1\n        /* \"#utility.yul\":11130:11142   */\n      revert\n        /* \"#utility.yul\":11081:11144   */\n    tag_232:\n        /* \"#utility.yul\":11028:11150   */\n      pop\n      jump\t// out\n        /* \"#utility.yul\":11156:11295   */\n    tag_102:\n        /* \"#utility.yul\":11202:11207   */\n      0x00\n        /* \"#utility.yul\":11240:11246   */\n      dup2\n        /* \"#utility.yul\":11227:11247   */\n      calldataload\n        /* \"#utility.yul\":11218:11247   */\n      swap1\n      pop\n        /* \"#utility.yul\":11256:11289   */\n      tag_234\n        /* \"#utility.yul\":11283:11288   */\n      dup2\n        /* \"#utility.yul\":11256:11289   */\n      tag_101\n      jump\t// in\n    tag_234:\n        /* \"#utility.yul\":11156:11295   */\n      swap3\n      swap2\n      pop\n      pop\n      jump\t// out\n        /* \"#utility.yul\":11301:11630   */\n    tag_29:\n        /* \"#utility.yul\":11360:11366   */\n      0x00\n        /* \"#utility.yul\":11409:11411   */\n      0x20\n        /* \"#utility.yul\":11397:11406   */\n      dup3\n        /* \"#utility.yul\":11388:11395   */\n      dup5\n        /* \"#utility.yul\":11384:11407   */\n      sub\n        /* \"#utility.yul\":11380:11412   */\n      slt\n        /* \"#utility.yul\":11377:11496   */\n      iszero\n      tag_236\n      jumpi\n        /* \"#utility.yul\":11415:11494   */\n      tag_237\n      tag_67\n      jump\t// in\n    tag_237:\n        /* \"#utility.yul\":11377:11496   */\n    tag_236:\n        /* \"#utility.yul\":11535:11536   */\n      0x00\n        /* \"#utility.yul\":11560:11613   */\n      tag_238\n        /* \"#utility.yul\":11605:11612   */\n      dup5\n        /* \"#utility.yul\":11596:11602   */\n      dup3\n        /* \"#utility.yul\":11585:11594   */\n      dup6\n        /* \"#utility.yul\":11581:11603   */\n      add\n        /* \"#utility.yul\":11560:11613   */\n      tag_102\n      jump\t// in\n    tag_238:\n        /* \"#utility.yul\":11550:11613   */\n      swap2\n      pop\n        /* \"#utility.yul\":11506:11623   */\n      pop\n        /* \"#utility.yul\":11301:11630   */\n      swap3\n      swap2\n      pop\n      pop\n      jump\t// out\n        /* \"#utility.yul\":11672:13243   */\n    tag_103:\n        /* \"#utility.yul\":11785:11788   */\n      0x00\n        /* \"#utility.yul\":11821:11825   */\n      0xe0\n        /* \"#utility.yul\":11816:11819   */\n      dup4\n        /* \"#utility.yul\":11812:11826   */\n      add\n        /* \"#utility.yul\":11911:11915   */\n      0x00\n        /* \"#utility.yul\":11904:11909   */\n      dup4\n        /* \"#utility.yul\":11900:11916   */\n      add\n        /* \"#utility.yul\":11894:11917   */\n      mload\n        /* \"#utility.yul\":11930:11993   */\n      tag_240\n        /* \"#utility.yul\":11987:11991   */\n      0x00\n        /* \"#utility.yul\":11982:11985   */\n      dup7\n        /* \"#utility.yul\":11978:11992   */\n      add\n        /* \"#utility.yul\":11964:11976   */\n      dup3\n        /* \"#utility.yul\":11930:11993   */\n      tag_90\n      jump\t// in\n    tag_240:\n        /* \"#utility.yul\":11836:12003   */\n      pop\n        /* \"#utility.yul\":12087:12091   */\n      0x20\n        /* \"#utility.yul\":12080:12085   */\n      dup4\n        /* \"#utility.yul\":12076:12092   */\n      add\n        /* \"#utility.yul\":12070:12093   */\n      mload\n        /* \"#utility.yul\":12106:12169   */\n      tag_241\n        /* \"#utility.yul\":12163:12167   */\n      0x20\n        /* \"#utility.yul\":12158:12161   */\n      dup7\n        /* \"#utility.yul\":12154:12168   */\n      add\n        /* \"#utility.yul\":12140:12152   */\n      dup3\n        /* \"#utility.yul\":12106:12169   */\n      tag_90\n      jump\t// in\n    tag_241:\n        /* \"#utility.yul\":12013:12179   */\n      pop\n        /* \"#utility.yul\":12263:12267   */\n      0x40\n        /* \"#utility.yul\":12256:12261   */\n      dup4\n        /* \"#utility.yul\":12252:12268   */\n      add\n        /* \"#utility.yul\":12246:12269   */\n      mload\n        /* \"#utility.yul\":12282:12345   */\n      tag_242\n        /* \"#utility.yul\":12339:12343   */\n      0x40\n        /* \"#utility.yul\":12334:12337   */\n      dup7\n        /* \"#utility.yul\":12330:12344   */\n      add\n        /* \"#utility.yul\":12316:12328   */\n      dup3\n        /* \"#utility.yul\":12282:12345   */\n      tag_90\n      jump\t// in\n    tag_242:\n        /* \"#utility.yul\":12189:12355   */\n      pop\n        /* \"#utility.yul\":12442:12446   */\n      0x60\n        /* \"#utility.yul\":12435:12440   */\n      dup4\n        /* \"#utility.yul\":12431:12447   */\n      add\n        /* \"#utility.yul\":12425:12448   */\n      mload\n        /* \"#utility.yul\":12495:12498   */\n      dup5\n        /* \"#utility.yul\":12489:12493   */\n      dup3\n        /* \"#utility.yul\":12485:12499   */\n      sub\n        /* \"#utility.yul\":12478:12482   */\n      0x60\n        /* \"#utility.yul\":12473:12476   */\n      dup7\n        /* \"#utility.yul\":12469:12483   */\n      add\n        /* \"#utility.yul\":12462:12500   */\n      mstore\n        /* \"#utility.yul\":12521:12594   */\n      tag_243\n        /* \"#utility.yul\":12589:12593   */\n      dup3\n        /* \"#utility.yul\":12575:12587   */\n      dup3\n        /* \"#utility.yul\":12521:12594   */\n      tag_94\n      jump\t// in\n    tag_243:\n        /* \"#utility.yul\":12513:12594   */\n      swap2\n      pop\n        /* \"#utility.yul\":12365:12605   */\n      pop\n        /* \"#utility.yul\":12695:12699   */\n      0x80\n        /* \"#utility.yul\":12688:12693   */\n      dup4\n        /* \"#utility.yul\":12684:12700   */\n      add\n        /* \"#utility.yul\":12678:12701   */\n      mload\n        /* \"#utility.yul\":12714:12777   */\n      tag_244\n        /* \"#utility.yul\":12771:12775   */\n      0x80\n        /* \"#utility.yul\":12766:12769   */\n      dup7\n        /* \"#utility.yul\":12762:12776   */\n      add\n        /* \"#utility.yul\":12748:12760   */\n      dup3\n        /* \"#utility.yul\":12714:12777   */\n      tag_90\n      jump\t// in\n    tag_244:\n        /* \"#utility.yul\":12615:12787   */\n      pop\n        /* \"#utility.yul\":12875:12879   */\n      0xa0\n        /* \"#utility.yul\":12868:12873   */\n      dup4\n        /* \"#utility.yul\":12864:12880   */\n      add\n        /* \"#utility.yul\":12858:12881   */\n      mload\n        /* \"#utility.yul\":12928:12931   */\n      dup5\n        /* \"#utility.yul\":12922:12926   */\n      dup3\n        /* \"#utility.yul\":12918:12932   */\n      sub\n        /* \"#utility.yul\":12911:12915   */\n      0xa0\n        /* \"#utility.yul\":12906:12909   */\n      dup7\n        /* \"#utility.yul\":12902:12916   */\n      add\n        /* \"#utility.yul\":12895:12933   */\n      mstore\n        /* \"#utility.yul\":12954:13027   */\n      tag_245\n        /* \"#utility.yul\":13022:13026   */\n      dup3\n        /* \"#utility.yul\":13008:13020   */\n      dup3\n        /* \"#utility.yul\":12954:13027   */\n      tag_94\n      jump\t// in\n    tag_245:\n        /* \"#utility.yul\":12946:13027   */\n      swap2\n      pop\n        /* \"#utility.yul\":12797:13038   */\n      pop\n        /* \"#utility.yul\":13130:13134   */\n      0xc0\n        /* \"#utility.yul\":13123:13128   */\n      dup4\n        /* \"#utility.yul\":13119:13135   */\n      add\n        /* \"#utility.yul\":13113:13136   */\n      mload\n        /* \"#utility.yul\":13149:13206   */\n      tag_246\n        /* \"#utility.yul\":13200:13204   */\n      0xc0\n        /* \"#utility.yul\":13195:13198   */\n      dup7\n        /* \"#utility.yul\":13191:13205   */\n      add\n        /* \"#utility.yul\":13177:13189   */\n      dup3\n        /* \"#utility.yul\":13149:13206   */\n      tag_96\n      jump\t// in\n    tag_246:\n        /* \"#utility.yul\":13048:13216   */\n      pop\n        /* \"#utility.yul\":13233:13237   */\n      dup1\n        /* \"#utility.yul\":13226:13237   */\n      swap2\n      pop\n        /* \"#utility.yul\":11790:13243   */\n      pop\n        /* \"#utility.yul\":11672:13243   */\n      swap3\n      swap2\n      pop\n      pop\n      jump\t// out\n        /* \"#utility.yul\":13249:13610   */\n    tag_38:\n        /* \"#utility.yul\":13386:13390   */\n      0x00\n        /* \"#utility.yul\":13424:13426   */\n      0x20\n        /* \"#utility.yul\":13413:13422   */\n      dup3\n        /* \"#utility.yul\":13409:13427   */\n      add\n        /* \"#utility.yul\":13401:13427   */\n      swap1\n      pop\n        /* \"#utility.yul\":13473:13482   */\n      dup2\n        /* \"#utility.yul\":13467:13471   */\n      dup2\n        /* \"#utility.yul\":13463:13483   */\n      sub\n        /* \"#utility.yul\":13459:13460   */\n      0x00\n        /* \"#utility.yul\":13448:13457   */\n      dup4\n        /* \"#utility.yul\":13444:13461   */\n      add\n        /* \"#utility.yul\":13437:13484   */\n      mstore\n        /* \"#utility.yul\":13501:13603   */\n      tag_248\n        /* \"#utility.yul\":13598:13602   */\n      dup2\n        /* \"#utility.yul\":13589:13595   */\n      dup5\n        /* \"#utility.yul\":13501:13603   */\n      tag_103\n      jump\t// in\n    tag_248:\n        /* \"#utility.yul\":13493:13603   */\n      swap1\n      pop\n        /* \"#utility.yul\":13249:13610   */\n      swap3\n      swap2\n      pop\n      pop\n      jump\t// out\n        /* \"#utility.yul\":13616:13949   */\n    tag_104:\n        /* \"#utility.yul\":13715:13719   */\n      0x00\n        /* \"#utility.yul\":13805:13823   */\n      0xffffffffffffffff\n        /* \"#utility.yul\":13797:13803   */\n      dup3\n        /* \"#utility.yul\":13794:13824   */\n      gt\n        /* \"#utility.yul\":13791:13847   */\n      iszero\n      tag_250\n      jumpi\n        /* \"#utility.yul\":13827:13845   */\n      tag_251\n      tag_75\n      jump\t// in\n    tag_251:\n        /* \"#utility.yul\":13791:13847   */\n    tag_250:\n        /* \"#utility.yul\":13877:13881   */\n      0x20\n        /* \"#utility.yul\":13869:13875   */\n      dup3\n        /* \"#utility.yul\":13865:13882   */\n      mul\n        /* \"#utility.yul\":13857:13882   */\n      swap1\n      pop\n        /* \"#utility.yul\":13937:13941   */\n      0x20\n        /* \"#utility.yul\":13931:13935   */\n      dup2\n        /* \"#utility.yul\":13927:13942   */\n      add\n        /* \"#utility.yul\":13919:13942   */\n      swap1\n      pop\n        /* \"#utility.yul\":13616:13949   */\n      swap2\n      swap1\n      pop\n      jump\t// out\n        /* \"#utility.yul\":13955:14072   */\n    tag_105:\n        /* \"#utility.yul\":14064:14065   */\n      0x00\n        /* \"#utility.yul\":14061:14062   */\n      dup1\n        /* \"#utility.yul\":14054:14066   */\n      revert\n        /* \"#utility.yul\":14078:14195   */\n    tag_106:\n        /* \"#utility.yul\":14187:14188   */\n      0x00\n        /* \"#utility.yul\":14184:14185   */\n      dup1\n        /* \"#utility.yul\":14177:14189   */\n      revert\n        /* \"#utility.yul\":14201:14318   */\n    tag_107:\n        /* \"#utility.yul\":14310:14311   */\n      0x00\n        /* \"#utility.yul\":14307:14308   */\n      dup1\n        /* \"#utility.yul\":14300:14312   */\n      revert\n        /* \"#utility.yul\":14324:14467   */\n    tag_108:\n        /* \"#utility.yul\":14381:14386   */\n      0x00\n        /* \"#utility.yul\":14412:14418   */\n      dup2\n        /* \"#utility.yul\":14406:14419   */\n      mload\n        /* \"#utility.yul\":14397:14419   */\n      swap1\n      pop\n        /* \"#utility.yul\":14428:14461   */\n      tag_256\n        /* \"#utility.yul\":14455:14460   */\n      dup2\n        /* \"#utility.yul\":14428:14461   */\n      tag_70\n      jump\t// in\n    tag_256:\n        /* \"#utility.yul\":14324:14467   */\n      swap3\n      swap2\n      pop\n      pop\n      jump\t// out\n        /* \"#utility.yul\":14473:14907   */\n    tag_109:\n        /* \"#utility.yul\":14562:14567   */\n      0x00\n        /* \"#utility.yul\":14587:14653   */\n      tag_258\n        /* \"#utility.yul\":14603:14652   */\n      tag_259\n        /* \"#utility.yul\":14645:14651   */\n      dup5\n        /* \"#utility.yul\":14603:14652   */\n      tag_78\n      jump\t// in\n    tag_259:\n        /* \"#utility.yul\":14587:14653   */\n      tag_77\n      jump\t// in\n    tag_258:\n        /* \"#utility.yul\":14578:14653   */\n      swap1\n      pop\n        /* \"#utility.yul\":14676:14682   */\n      dup3\n        /* \"#utility.yul\":14669:14674   */\n      dup2\n        /* \"#utility.yul\":14662:14683   */\n      mstore\n        /* \"#utility.yul\":14714:14718   */\n      0x20\n        /* \"#utility.yul\":14707:14712   */\n      dup2\n        /* \"#utility.yul\":14703:14719   */\n      add\n        /* \"#utility.yul\":14752:14755   */\n      dup5\n        /* \"#utility.yul\":14743:14749   */\n      dup5\n        /* \"#utility.yul\":14738:14741   */\n      dup5\n        /* \"#utility.yul\":14734:14750   */\n      add\n        /* \"#utility.yul\":14731:14756   */\n      gt\n        /* \"#utility.yul\":14728:14840   */\n      iszero\n      tag_260\n      jumpi\n        /* \"#utility.yul\":14759:14838   */\n      tag_261\n      tag_73\n      jump\t// in\n    tag_261:\n        /* \"#utility.yul\":14728:14840   */\n    tag_260:\n        /* \"#utility.yul\":14849:14901   */\n      tag_262\n        /* \"#utility.yul\":14894:14900   */\n      dup5\n        /* \"#utility.yul\":14889:14892   */\n      dup3\n        /* \"#utility.yul\":14884:14887   */\n      dup6\n        /* \"#utility.yul\":14849:14901   */\n      tag_93\n      jump\t// in\n    tag_262:\n        /* \"#utility.yul\":14568:14907   */\n      pop\n        /* \"#utility.yul\":14473:14907   */\n      swap4\n      swap3\n      pop\n      pop\n      pop\n      jump\t// out\n        /* \"#utility.yul\":14927:15282   */\n    tag_110:\n        /* \"#utility.yul\":14994:14999   */\n      0x00\n        /* \"#utility.yul\":15043:15046   */\n      dup3\n        /* \"#utility.yul\":15036:15040   */\n      0x1f\n        /* \"#utility.yul\":15028:15034   */\n      dup4\n        /* \"#utility.yul\":15024:15041   */\n      add\n        /* \"#utility.yul\":15020:15047   */\n      slt\n        /* \"#utility.yul\":15010:15132   */\n      tag_264\n      jumpi\n        /* \"#utility.yul\":15051:15130   */\n      tag_265\n      tag_72\n      jump\t// in\n    tag_265:\n        /* \"#utility.yul\":15010:15132   */\n    tag_264:\n        /* \"#utility.yul\":15161:15167   */\n      dup2\n        /* \"#utility.yul\":15155:15168   */\n      mload\n        /* \"#utility.yul\":15186:15276   */\n      tag_266\n        /* \"#utility.yul\":15272:15275   */\n      dup5\n        /* \"#utility.yul\":15264:15270   */\n      dup3\n        /* \"#utility.yul\":15257:15261   */\n      0x20\n        /* \"#utility.yul\":15249:15255   */\n      dup7\n        /* \"#utility.yul\":15245:15262   */\n      add\n        /* \"#utility.yul\":15186:15276   */\n      tag_109\n      jump\t// in\n    tag_266:\n        /* \"#utility.yul\":15177:15276   */\n      swap2\n      pop\n        /* \"#utility.yul\":15000:15282   */\n      pop\n        /* \"#utility.yul\":14927:15282   */\n      swap3\n      swap2\n      pop\n      pop\n      jump\t// out\n        /* \"#utility.yul\":15288:15404   */\n    tag_111:\n        /* \"#utility.yul\":15358:15379   */\n      tag_268\n        /* \"#utility.yul\":15373:15378   */\n      dup2\n        /* \"#utility.yul\":15358:15379   */\n      tag_95\n      jump\t// in\n    tag_268:\n        /* \"#utility.yul\":15351:15356   */\n      dup2\n        /* \"#utility.yul\":15348:15380   */\n      eq\n        /* \"#utility.yul\":15338:15398   */\n      tag_269\n      jumpi\n        /* \"#utility.yul\":15394:15395   */\n      0x00\n        /* \"#utility.yul\":15391:15392   */\n      dup1\n        /* \"#utility.yul\":15384:15396   */\n      revert\n        /* \"#utility.yul\":15338:15398   */\n    tag_269:\n        /* \"#utility.yul\":15288:15404   */\n      pop\n      jump\t// out\n        /* \"#utility.yul\":15410:15547   */\n    tag_112:\n        /* \"#utility.yul\":15464:15469   */\n      0x00\n        /* \"#utility.yul\":15495:15501   */\n      dup2\n        /* \"#utility.yul\":15489:15502   */\n      mload\n        /* \"#utility.yul\":15480:15502   */\n      swap1\n      pop\n        /* \"#utility.yul\":15511:15541   */\n      tag_271\n        /* \"#utility.yul\":15535:15540   */\n      dup2\n        /* \"#utility.yul\":15511:15541   */\n      tag_111\n      jump\t// in\n    tag_271:\n        /* \"#utility.yul\":15410:15547   */\n      swap3\n      swap2\n      pop\n      pop\n      jump\t// out\n        /* \"#utility.yul\":15573:17399   */\n    tag_113:\n        /* \"#utility.yul\":15655:15660   */\n      0x00\n        /* \"#utility.yul\":15699:15703   */\n      0xe0\n        /* \"#utility.yul\":15687:15696   */\n      dup3\n        /* \"#utility.yul\":15682:15685   */\n      dup5\n        /* \"#utility.yul\":15678:15697   */\n      sub\n        /* \"#utility.yul\":15674:15704   */\n      slt\n        /* \"#utility.yul\":15671:15788   */\n      iszero\n      tag_273\n      jumpi\n        /* \"#utility.yul\":15707:15786   */\n      tag_274\n      tag_106\n      jump\t// in\n    tag_274:\n        /* \"#utility.yul\":15671:15788   */\n    tag_273:\n        /* \"#utility.yul\":15806:15827   */\n      tag_275\n        /* \"#utility.yul\":15822:15826   */\n      0xe0\n        /* \"#utility.yul\":15806:15827   */\n      tag_77\n      jump\t// in\n    tag_275:\n        /* \"#utility.yul\":15797:15827   */\n      swap1\n      pop\n        /* \"#utility.yul\":15889:15890   */\n      0x00\n        /* \"#utility.yul\":15929:15989   */\n      tag_276\n        /* \"#utility.yul\":15985:15988   */\n      dup5\n        /* \"#utility.yul\":15976:15982   */\n      dup3\n        /* \"#utility.yul\":15965:15974   */\n      dup6\n        /* \"#utility.yul\":15961:15983   */\n      add\n        /* \"#utility.yul\":15929:15989   */\n      tag_108\n      jump\t// in\n    tag_276:\n        /* \"#utility.yul\":15922:15926   */\n      0x00\n        /* \"#utility.yul\":15915:15920   */\n      dup4\n        /* \"#utility.yul\":15911:15927   */\n      add\n        /* \"#utility.yul\":15904:15990   */\n      mstore\n        /* \"#utility.yul\":15837:16001   */\n      pop\n        /* \"#utility.yul\":16062:16064   */\n      0x20\n        /* \"#utility.yul\":16103:16163   */\n      tag_277\n        /* \"#utility.yul\":16159:16162   */\n      dup5\n        /* \"#utility.yul\":16150:16156   */\n      dup3\n        /* \"#utility.yul\":16139:16148   */\n      dup6\n        /* \"#utility.yul\":16135:16157   */\n      add\n        /* \"#utility.yul\":16103:16163   */\n      tag_108\n      jump\t// in\n    tag_277:\n        /* \"#utility.yul\":16096:16100   */\n      0x20\n        /* \"#utility.yul\":16089:16094   */\n      dup4\n        /* \"#utility.yul\":16085:16101   */\n      add\n        /* \"#utility.yul\":16078:16164   */\n      mstore\n        /* \"#utility.yul\":16011:16175   */\n      pop\n        /* \"#utility.yul\":16236:16238   */\n      0x40\n        /* \"#utility.yul\":16277:16337   */\n      tag_278\n        /* \"#utility.yul\":16333:16336   */\n      dup5\n        /* \"#utility.yul\":16324:16330   */\n      dup3\n        /* \"#utility.yul\":16313:16322   */\n      dup6\n        /* \"#utility.yul\":16309:16331   */\n      add\n        /* \"#utility.yul\":16277:16337   */\n      tag_108\n      jump\t// in\n    tag_278:\n        /* \"#utility.yul\":16270:16274   */\n      0x40\n        /* \"#utility.yul\":16263:16268   */\n      dup4\n        /* \"#utility.yul\":16259:16275   */\n      add\n        /* \"#utility.yul\":16252:16338   */\n      mstore\n        /* \"#utility.yul\":16185:16349   */\n      pop\n        /* \"#utility.yul\":16434:16436   */\n      0x60\n        /* \"#utility.yul\":16423:16432   */\n      dup3\n        /* \"#utility.yul\":16419:16437   */\n      add\n        /* \"#utility.yul\":16413:16438   */\n      mload\n        /* \"#utility.yul\":16465:16483   */\n      0xffffffffffffffff\n        /* \"#utility.yul\":16457:16463   */\n      dup2\n        /* \"#utility.yul\":16454:16484   */\n      gt\n        /* \"#utility.yul\":16451:16568   */\n      iszero\n      tag_279\n      jumpi\n        /* \"#utility.yul\":16487:16566   */\n      tag_280\n      tag_107\n      jump\t// in\n    tag_280:\n        /* \"#utility.yul\":16451:16568   */\n    tag_279:\n        /* \"#utility.yul\":16607:16677   */\n      tag_281\n        /* \"#utility.yul\":16673:16676   */\n      dup5\n        /* \"#utility.yul\":16664:16670   */\n      dup3\n        /* \"#utility.yul\":16653:16662   */\n      dup6\n        /* \"#utility.yul\":16649:16671   */\n      add\n        /* \"#utility.yul\":16607:16677   */\n      tag_110\n      jump\t// in\n    tag_281:\n        /* \"#utility.yul\":16600:16604   */\n      0x60\n        /* \"#utility.yul\":16593:16598   */\n      dup4\n        /* \"#utility.yul\":16589:16605   */\n      add\n        /* \"#utility.yul\":16582:16678   */\n      mstore\n        /* \"#utility.yul\":16359:16689   */\n      pop\n        /* \"#utility.yul\":16756:16759   */\n      0x80\n        /* \"#utility.yul\":16798:16858   */\n      tag_282\n        /* \"#utility.yul\":16854:16857   */\n      dup5\n        /* \"#utility.yul\":16845:16851   */\n      dup3\n        /* \"#utility.yul\":16834:16843   */\n      dup6\n        /* \"#utility.yul\":16830:16852   */\n      add\n        /* \"#utility.yul\":16798:16858   */\n      tag_108\n      jump\t// in\n    tag_282:\n        /* \"#utility.yul\":16791:16795   */\n      0x80\n        /* \"#utility.yul\":16784:16789   */\n      dup4\n        /* \"#utility.yul\":16780:16796   */\n      add\n        /* \"#utility.yul\":16773:16859   */\n      mstore\n        /* \"#utility.yul\":16699:16870   */\n      pop\n        /* \"#utility.yul\":16956:16959   */\n      0xa0\n        /* \"#utility.yul\":16945:16954   */\n      dup3\n        /* \"#utility.yul\":16941:16960   */\n      add\n        /* \"#utility.yul\":16935:16961   */\n      mload\n        /* \"#utility.yul\":16988:17006   */\n      0xffffffffffffffff\n        /* \"#utility.yul\":16980:16986   */\n      dup2\n        /* \"#utility.yul\":16977:17007   */\n      gt\n        /* \"#utility.yul\":16974:17091   */\n      iszero\n      tag_283\n      jumpi\n        /* \"#utility.yul\":17010:17089   */\n      tag_284\n      tag_107\n      jump\t// in\n    tag_284:\n        /* \"#utility.yul\":16974:17091   */\n    tag_283:\n        /* \"#utility.yul\":17130:17200   */\n      tag_285\n        /* \"#utility.yul\":17196:17199   */\n      dup5\n        /* \"#utility.yul\":17187:17193   */\n      dup3\n        /* \"#utility.yul\":17176:17185   */\n      dup6\n        /* \"#utility.yul\":17172:17194   */\n      add\n        /* \"#utility.yul\":17130:17200   */\n      tag_110\n      jump\t// in\n    tag_285:\n        /* \"#utility.yul\":17123:17127   */\n      0xa0\n        /* \"#utility.yul\":17116:17121   */\n      dup4\n        /* \"#utility.yul\":17112:17128   */\n      add\n        /* \"#utility.yul\":17105:17201   */\n      mstore\n        /* \"#utility.yul\":16880:17212   */\n      pop\n        /* \"#utility.yul\":17281:17284   */\n      0xc0\n        /* \"#utility.yul\":17323:17380   */\n      tag_286\n        /* \"#utility.yul\":17376:17379   */\n      dup5\n        /* \"#utility.yul\":17367:17373   */\n      dup3\n        /* \"#utility.yul\":17356:17365   */\n      dup6\n        /* \"#utility.yul\":17352:17374   */\n      add\n        /* \"#utility.yul\":17323:17380   */\n      tag_112\n      jump\t// in\n    tag_286:\n        /* \"#utility.yul\":17316:17320   */\n      0xc0\n        /* \"#utility.yul\":17309:17314   */\n      dup4\n        /* \"#utility.yul\":17305:17321   */\n      add\n        /* \"#utility.yul\":17298:17381   */\n      mstore\n        /* \"#utility.yul\":17222:17392   */\n      pop\n        /* \"#utility.yul\":15573:17399   */\n      swap3\n      swap2\n      pop\n      pop\n      jump\t// out\n        /* \"#utility.yul\":17427:18423   */\n    tag_114:\n        /* \"#utility.yul\":17556:17561   */\n      0x00\n        /* \"#utility.yul\":17581:17684   */\n      tag_288\n        /* \"#utility.yul\":17597:17683   */\n      tag_289\n        /* \"#utility.yul\":17676:17682   */\n      dup5\n        /* \"#utility.yul\":17597:17683   */\n      tag_104\n      jump\t// in\n    tag_289:\n        /* \"#utility.yul\":17581:17684   */\n      tag_77\n      jump\t// in\n    tag_288:\n        /* \"#utility.yul\":17572:17684   */\n      swap1\n      pop\n        /* \"#utility.yul\":17704:17709   */\n      dup1\n        /* \"#utility.yul\":17733:17739   */\n      dup4\n        /* \"#utility.yul\":17726:17731   */\n      dup3\n        /* \"#utility.yul\":17719:17740   */\n      mstore\n        /* \"#utility.yul\":17767:17771   */\n      0x20\n        /* \"#utility.yul\":17760:17765   */\n      dup3\n        /* \"#utility.yul\":17756:17772   */\n      add\n        /* \"#utility.yul\":17749:17772   */\n      swap1\n      pop\n        /* \"#utility.yul\":17820:17824   */\n      0x20\n        /* \"#utility.yul\":17812:17818   */\n      dup5\n        /* \"#utility.yul\":17808:17825   */\n      mul\n        /* \"#utility.yul\":17800:17806   */\n      dup4\n        /* \"#utility.yul\":17796:17826   */\n      add\n        /* \"#utility.yul\":17849:17852   */\n      dup6\n        /* \"#utility.yul\":17841:17847   */\n      dup2\n        /* \"#utility.yul\":17838:17853   */\n      gt\n        /* \"#utility.yul\":17835:17957   */\n      iszero\n      tag_290\n      jumpi\n        /* \"#utility.yul\":17868:17947   */\n      tag_291\n      tag_105\n      jump\t// in\n    tag_291:\n        /* \"#utility.yul\":17835:17957   */\n    tag_290:\n        /* \"#utility.yul\":17983:17989   */\n      dup4\n        /* \"#utility.yul\":17966:18417   */\n    tag_292:\n        /* \"#utility.yul\":18000:18006   */\n      dup2\n        /* \"#utility.yul\":17995:17998   */\n      dup2\n        /* \"#utility.yul\":17992:18007   */\n      lt\n        /* \"#utility.yul\":17966:18417   */\n      iszero\n      tag_294\n      jumpi\n        /* \"#utility.yul\":18082:18085   */\n      dup1\n        /* \"#utility.yul\":18076:18086   */\n      mload\n        /* \"#utility.yul\":18118:18136   */\n      0xffffffffffffffff\n        /* \"#utility.yul\":18105:18116   */\n      dup2\n        /* \"#utility.yul\":18102:18137   */\n      gt\n        /* \"#utility.yul\":18099:18221   */\n      iszero\n      tag_295\n      jumpi\n        /* \"#utility.yul\":18140:18219   */\n      tag_296\n      tag_72\n      jump\t// in\n    tag_296:\n        /* \"#utility.yul\":18099:18221   */\n    tag_295:\n        /* \"#utility.yul\":18264:18275   */\n      dup1\n        /* \"#utility.yul\":18256:18262   */\n      dup7\n        /* \"#utility.yul\":18252:18276   */\n      add\n        /* \"#utility.yul\":18302:18372   */\n      tag_297\n        /* \"#utility.yul\":18368:18371   */\n      dup10\n        /* \"#utility.yul\":18356:18366   */\n      dup3\n        /* \"#utility.yul\":18302:18372   */\n      tag_113\n      jump\t// in\n    tag_297:\n        /* \"#utility.yul\":18297:18300   */\n      dup6\n        /* \"#utility.yul\":18290:18373   */\n      mstore\n        /* \"#utility.yul\":18402:18406   */\n      0x20\n        /* \"#utility.yul\":18397:18400   */\n      dup6\n        /* \"#utility.yul\":18393:18407   */\n      add\n        /* \"#utility.yul\":18386:18407   */\n      swap5\n      pop\n        /* \"#utility.yul\":18042:18417   */\n      pop\n      pop\n        /* \"#utility.yul\":18026:18030   */\n      0x20\n        /* \"#utility.yul\":18021:18024   */\n      dup2\n        /* \"#utility.yul\":18017:18031   */\n      add\n        /* \"#utility.yul\":18010:18031   */\n      swap1\n      pop\n        /* \"#utility.yul\":17966:18417   */\n      jump(tag_292)\n    tag_294:\n        /* \"#utility.yul\":17970:17991   */\n      pop\n        /* \"#utility.yul\":17562:18423   */\n      pop\n      pop\n        /* \"#utility.yul\":17427:18423   */\n      swap4\n      swap3\n      pop\n      pop\n      pop\n      jump\t// out\n        /* \"#utility.yul\":18451:18880   */\n    tag_115:\n        /* \"#utility.yul\":18555:18560   */\n      0x00\n        /* \"#utility.yul\":18604:18607   */\n      dup3\n        /* \"#utility.yul\":18597:18601   */\n      0x1f\n        /* \"#utility.yul\":18589:18595   */\n      dup4\n        /* \"#utility.yul\":18585:18602   */\n      add\n        /* \"#utility.yul\":18581:18608   */\n      slt\n        /* \"#utility.yul\":18571:18693   */\n      tag_299\n      jumpi\n        /* \"#utility.yul\":18612:18691   */\n      tag_300\n      tag_72\n      jump\t// in\n    tag_300:\n        /* \"#utility.yul\":18571:18693   */\n    tag_299:\n        /* \"#utility.yul\":18722:18728   */\n      dup2\n        /* \"#utility.yul\":18716:18729   */\n      mload\n        /* \"#utility.yul\":18747:18874   */\n      tag_301\n        /* \"#utility.yul\":18870:18873   */\n      dup5\n        /* \"#utility.yul\":18862:18868   */\n      dup3\n        /* \"#utility.yul\":18855:18859   */\n      0x20\n        /* \"#utility.yul\":18847:18853   */\n      dup7\n        /* \"#utility.yul\":18843:18860   */\n      add\n        /* \"#utility.yul\":18747:18874   */\n      tag_114\n      jump\t// in\n    tag_301:\n        /* \"#utility.yul\":18738:18874   */\n      swap2\n      pop\n        /* \"#utility.yul\":18561:18880   */\n      pop\n        /* \"#utility.yul\":18451:18880   */\n      swap3\n      swap2\n      pop\n      pop\n      jump\t// out\n        /* \"#utility.yul\":18886:19484   */\n    tag_48:\n        /* \"#utility.yul\":19003:19009   */\n      0x00\n        /* \"#utility.yul\":19052:19054   */\n      0x20\n        /* \"#utility.yul\":19040:19049   */\n      dup3\n        /* \"#utility.yul\":19031:19038   */\n      dup5\n        /* \"#utility.yul\":19027:19050   */\n      sub\n        /* \"#utility.yul\":19023:19055   */\n      slt\n        /* \"#utility.yul\":19020:19139   */\n      iszero\n      tag_303\n      jumpi\n        /* \"#utility.yul\":19058:19137   */\n      tag_304\n      tag_67\n      jump\t// in\n    tag_304:\n        /* \"#utility.yul\":19020:19139   */\n    tag_303:\n        /* \"#utility.yul\":19199:19200   */\n      0x00\n        /* \"#utility.yul\":19188:19197   */\n      dup3\n        /* \"#utility.yul\":19184:19201   */\n      add\n        /* \"#utility.yul\":19178:19202   */\n      mload\n        /* \"#utility.yul\":19229:19247   */\n      0xffffffffffffffff\n        /* \"#utility.yul\":19221:19227   */\n      dup2\n        /* \"#utility.yul\":19218:19248   */\n      gt\n        /* \"#utility.yul\":19215:19332   */\n      iszero\n      tag_305\n      jumpi\n        /* \"#utility.yul\":19251:19330   */\n      tag_306\n      tag_68\n      jump\t// in\n    tag_306:\n        /* \"#utility.yul\":19215:19332   */\n    tag_305:\n        /* \"#utility.yul\":19356:19467   */\n      tag_307\n        /* \"#utility.yul\":19459:19466   */\n      dup5\n        /* \"#utility.yul\":19450:19456   */\n      dup3\n        /* \"#utility.yul\":19439:19448   */\n      dup6\n        /* \"#utility.yul\":19435:19457   */\n      add\n        /* \"#utility.yul\":19356:19467   */\n      tag_115\n      jump\t// in\n    tag_307:\n        /* \"#utility.yul\":19346:19467   */\n      swap2\n      pop\n        /* \"#utility.yul\":19149:19477   */\n      pop\n        /* \"#utility.yul\":18886:19484   */\n      swap3\n      swap2\n      pop\n      pop\n      jump\t// out\n        /* \"#utility.yul\":19490:19659   */\n    tag_116:\n        /* \"#utility.yul\":19574:19585   */\n      0x00\n        /* \"#utility.yul\":19608:19614   */\n      dup3\n        /* \"#utility.yul\":19603:19606   */\n      dup3\n        /* \"#utility.yul\":19596:19615   */\n      mstore\n        /* \"#utility.yul\":19648:19652   */\n      0x20\n        /* \"#utility.yul\":19643:19646   */\n      dup3\n        /* \"#utility.yul\":19639:19653   */\n      add\n        /* \"#utility.yul\":19624:19653   */\n      swap1\n      pop\n        /* \"#utility.yul\":19490:19659   */\n      swap3\n      swap2\n      pop\n      pop\n      jump\t// out\n        /* \"#utility.yul\":19665:19890   */\n    tag_117:\n        /* \"#utility.yul\":19805:19839   */\n      0x4f776e61626c653a206e6577206f776e657220697320746865207a65726f2061\n        /* \"#utility.yul\":19801:19802   */\n      0x00\n        /* \"#utility.yul\":19793:19799   */\n      dup3\n        /* \"#utility.yul\":19789:19803   */\n      add\n        /* \"#utility.yul\":19782:19840   */\n      mstore\n        /* \"#utility.yul\":19874:19882   */\n      0x6464726573730000000000000000000000000000000000000000000000000000\n        /* \"#utility.yul\":19869:19871   */\n      0x20\n        /* \"#utility.yul\":19861:19867   */\n      dup3\n        /* \"#utility.yul\":19857:19872   */\n      add\n        /* \"#utility.yul\":19850:19883   */\n      mstore\n        /* \"#utility.yul\":19665:19890   */\n      pop\n      jump\t// out\n        /* \"#utility.yul\":19896:20262   */\n    tag_118:\n        /* \"#utility.yul\":20038:20041   */\n      0x00\n        /* \"#utility.yul\":20059:20126   */\n      tag_311\n        /* \"#utility.yul\":20123:20125   */\n      0x26\n        /* \"#utility.yul\":20118:20121   */\n      dup4\n        /* \"#utility.yul\":20059:20126   */\n      tag_116\n      jump\t// in\n    tag_311:\n        /* \"#utility.yul\":20052:20126   */\n      swap2\n      pop\n        /* \"#utility.yul\":20135:20228   */\n      tag_312\n        /* \"#utility.yul\":20224:20227   */\n      dup3\n        /* \"#utility.yul\":20135:20228   */\n      tag_117\n      jump\t// in\n    tag_312:\n        /* \"#utility.yul\":20253:20255   */\n      0x40\n        /* \"#utility.yul\":20248:20251   */\n      dup3\n        /* \"#utility.yul\":20244:20256   */\n      add\n        /* \"#utility.yul\":20237:20256   */\n      swap1\n      pop\n        /* \"#utility.yul\":19896:20262   */\n      swap2\n      swap1\n      pop\n      jump\t// out\n        /* \"#utility.yul\":20268:20687   */\n    tag_54:\n        /* \"#utility.yul\":20434:20438   */\n      0x00\n        /* \"#utility.yul\":20472:20474   */\n      0x20\n        /* \"#utility.yul\":20461:20470   */\n      dup3\n        /* \"#utility.yul\":20457:20475   */\n      add\n        /* \"#utility.yul\":20449:20475   */\n      swap1\n      pop\n        /* \"#utility.yul\":20521:20530   */\n      dup2\n        /* \"#utility.yul\":20515:20519   */\n      dup2\n        /* \"#utility.yul\":20511:20531   */\n      sub\n        /* \"#utility.yul\":20507:20508   */\n      0x00\n        /* \"#utility.yul\":20496:20505   */\n      dup4\n        /* \"#utility.yul\":20492:20509   */\n      add\n        /* \"#utility.yul\":20485:20532   */\n      mstore\n        /* \"#utility.yul\":20549:20680   */\n      tag_314\n        /* \"#utility.yul\":20675:20679   */\n      dup2\n        /* \"#utility.yul\":20549:20680   */\n      tag_118\n      jump\t// in\n    tag_314:\n        /* \"#utility.yul\":20541:20680   */\n      swap1\n      pop\n        /* \"#utility.yul\":20268:20687   */\n      swap2\n      swap1\n      pop\n      jump\t// out\n        /* \"#utility.yul\":20693:20875   */\n    tag_119:\n        /* \"#utility.yul\":20833:20867   */\n      0x4f776e61626c653a2063616c6c6572206973206e6f7420746865206f776e6572\n        /* \"#utility.yul\":20829:20830   */\n      0x00\n        /* \"#utility.yul\":20821:20827   */\n      dup3\n        /* \"#utility.yul\":20817:20831   */\n      add\n        /* \"#utility.yul\":20810:20868   */\n      mstore\n        /* \"#utility.yul\":20693:20875   */\n      pop\n      jump\t// out\n        /* \"#utility.yul\":20881:21247   */\n    tag_120:\n        /* \"#utility.yul\":21023:21026   */\n      0x00\n        /* \"#utility.yul\":21044:21111   */\n      tag_317\n        /* \"#utility.yul\":21108:21110   */\n      0x20\n        /* \"#utility.yul\":21103:21106   */\n      dup4\n        /* \"#utility.yul\":21044:21111   */\n      tag_116\n      jump\t// in\n    tag_317:\n        /* \"#utility.yul\":21037:21111   */\n      swap2\n      pop\n        /* \"#utility.yul\":21120:21213   */\n      tag_318\n        /* \"#utility.yul\":21209:21212   */\n      dup3\n        /* \"#utility.yul\":21120:21213   */\n      tag_119\n      jump\t// in\n    tag_318:\n        /* \"#utility.yul\":21238:21240   */\n      0x20\n        /* \"#utility.yul\":21233:21236   */\n      dup3\n        /* \"#utility.yul\":21229:21241   */\n      add\n        /* \"#utility.yul\":21222:21241   */\n      swap1\n      pop\n        /* \"#utility.yul\":20881:21247   */\n      swap2\n      swap1\n      pop\n      jump\t// out\n        /* \"#utility.yul\":21253:21672   */\n    tag_61:\n        /* \"#utility.yul\":21419:21423   */\n      0x00\n        /* \"#utility.yul\":21457:21459   */\n      0x20\n        /* \"#utility.yul\":21446:21455   */\n      dup3\n        /* \"#utility.yul\":21442:21460   */\n      add\n        /* \"#utility.yul\":21434:21460   */\n      swap1\n      pop\n        /* \"#utility.yul\":21506:21515   */\n      dup2\n        /* \"#utility.yul\":21500:21504   */\n      dup2\n        /* \"#utility.yul\":21496:21516   */\n      sub\n        /* \"#utility.yul\":21492:21493   */\n      0x00\n        /* \"#utility.yul\":21481:21490   */\n      dup4\n        /* \"#utility.yul\":21477:21494   */\n      add\n        /* \"#utility.yul\":21470:21517   */\n      mstore\n        /* \"#utility.yul\":21534:21665   */\n      tag_320\n        /* \"#utility.yul\":21660:21664   */\n      dup2\n        /* \"#utility.yul\":21534:21665   */\n      tag_120\n      jump\t// in\n    tag_320:\n        /* \"#utility.yul\":21526:21665   */\n      swap1\n      pop\n        /* \"#utility.yul\":21253:21672   */\n      swap2\n      swap1\n      pop\n      jump\t// out\n\n    auxdata: 0xa26469706673582212205dca795f7e39a36eee4fac834cf9af8b6520386fe5050c56feedefb2e5d7f82e64736f6c63430008120033\n}\n",
				"bytecode": {
					"linkReferences": {},
					"object": "608060405234801561001057600080fd5b50604051620010853803806200108583398181016040528101906100349190610120565b80336000806101000a81548173ffffffffffffffffffffffffffffffffffffffff021916908373ffffffffffffffffffffffffffffffffffffffff16021790555080600160006101000a81548173ffffffffffffffffffffffffffffffffffffffff021916908373ffffffffffffffffffffffffffffffffffffffff160217905550505061014d565b600080fd5b600073ffffffffffffffffffffffffffffffffffffffff82169050919050565b60006100ed826100c2565b9050919050565b6100fd816100e2565b811461010857600080fd5b50565b60008151905061011a816100f4565b92915050565b600060208284031215610136576101356100bd565b5b60006101448482850161010b565b91505092915050565b610f28806200015d6000396000f3fe608060405234801561001057600080fd5b50600436106100625760003560e01c806383197ef0146100675780638da5cb5b1461007157806399f783081461008f578063c6b2d8c7146100ab578063cad09ad6146100c9578063f2fde38b146100e7575b600080fd5b61006f610103565b005b610079610124565b60405161008691906104e7565b60405180910390f35b6100a960048036038101906100a49190610692565b61014d565b005b6100b361021d565b6040516100c091906107a4565b60405180910390f35b6100d1610243565b6040516100de91906109cd565b60405180910390f35b61010160048036038101906100fc9190610a1b565b6102e8565b005b61010b61036b565b3073ffffffffffffffffffffffffffffffffffffffff16ff5b60008060009054906101000a900473ffffffffffffffffffffffffffffffffffffffff16905090565b60006040518060e0016040528060008152602001878152602001868152602001858152602001848152602001838152602001600015158152509050600160009054906101000a900473ffffffffffffffffffffffffffffffffffffffff1673ffffffffffffffffffffffffffffffffffffffff16633b61a11d826040518263ffffffff1660e01b81526004016101e39190610aeb565b600060405180830381600087803b1580156101fd57600080fd5b505af1158015610211573d6000803e3d6000fd5b50505050505050505050565b600160009054906101000a900473ffffffffffffffffffffffffffffffffffffffff1681565b606061024d61036b565b600160009054906101000a900473ffffffffffffffffffffffffffffffffffffffff1673ffffffffffffffffffffffffffffffffffffffff1663cad09ad66040518163ffffffff1660e01b8152600401600060405180830381865afa1580156102ba573d6000803e3d6000fd5b505050506040513d6000823e3d601f19601f820116820180604052508101906102e39190610d9a565b905090565b6102f061036b565b600073ffffffffffffffffffffffffffffffffffffffff168173ffffffffffffffffffffffffffffffffffffffff160361035f576040517f08c379a000000000000000000000000000000000000000000000000000000000815260040161035690610e66565b60405180910390fd5b610368816103e2565b50565b3373ffffffffffffffffffffffffffffffffffffffff1661038a610124565b73ffffffffffffffffffffffffffffffffffffffff16146103e0576040517f08c379a00000000000000000000000000000000000000000000000000000000081526004016103d790610ed2565b60405180910390fd5b565b60008060009054906101000a900473ffffffffffffffffffffffffffffffffffffffff169050816000806101000a81548173ffffffffffffffffffffffffffffffffffffffff021916908373ffffffffffffffffffffffffffffffffffffffff1602179055508173ffffffffffffffffffffffffffffffffffffffff168173ffffffffffffffffffffffffffffffffffffffff167f8be0079c531659141344cd1fd0a4f28419497f9722a3daafe3b4186f6b6457e060405160405180910390a35050565b600073ffffffffffffffffffffffffffffffffffffffff82169050919050565b60006104d1826104a6565b9050919050565b6104e1816104c6565b82525050565b60006020820190506104fc60008301846104d8565b92915050565b6000604051905090565b600080fd5b600080fd5b6000819050919050565b61052981610516565b811461053457600080fd5b50565b60008135905061054681610520565b92915050565b600080fd5b600080fd5b6000601f19601f8301169050919050565b7f4e487b7100000000000000000000000000000000000000000000000000000000600052604160045260246000fd5b61059f82610556565b810181811067ffffffffffffffff821117156105be576105bd610567565b5b80604052505050565b60006105d1610502565b90506105dd8282610596565b919050565b600067ffffffffffffffff8211156105fd576105fc610567565b5b61060682610556565b9050602081019050919050565b82818337600083830152505050565b6000610635610630846105e2565b6105c7565b90508281526020810184848401111561065157610650610551565b5b61065c848285610613565b509392505050565b600082601f8301126106795761067861054c565b5b8135610689848260208601610622565b91505092915050565b600080600080600060a086880312156106ae576106ad61050c565b5b60006106bc88828901610537565b95505060206106cd88828901610537565b945050604086013567ffffffffffffffff8111156106ee576106ed610511565b5b6106fa88828901610664565b935050606061070b88828901610537565b925050608086013567ffffffffffffffff81111561072c5761072b610511565b5b61073888828901610664565b9150509295509295909350565b6000819050919050565b600061076a610765610760846104a6565b610745565b6104a6565b9050919050565b600061077c8261074f565b9050919050565b600061078e82610771565b9050919050565b61079e81610783565b82525050565b60006020820190506107b96000830184610795565b92915050565b600081519050919050565b600082825260208201905092915050565b6000819050602082019050919050565b6107f481610516565b82525050565b600081519050919050565b600082825260208201905092915050565b60005b83811015610834578082015181840152602081019050610819565b60008484015250505050565b600061084b826107fa565b6108558185610805565b9350610865818560208601610816565b61086e81610556565b840191505092915050565b60008115159050919050565b61088e81610879565b82525050565b600060e0830160008301516108ac60008601826107eb565b5060208301516108bf60208601826107eb565b5060408301516108d260408601826107eb565b50606083015184820360608601526108ea8282610840565b91505060808301516108ff60808601826107eb565b5060a083015184820360a08601526109178282610840565b91505060c083015161092c60c0860182610885565b508091505092915050565b60006109438383610894565b905092915050565b6000602082019050919050565b6000610963826107bf565b61096d81856107ca565b93508360208202850161097f856107db565b8060005b858110156109bb578484038952815161099c8582610937565b94506109a78361094b565b925060208a01995050600181019050610983565b50829750879550505050505092915050565b600060208201905081810360008301526109e78184610958565b905092915050565b6109f8816104c6565b8114610a0357600080fd5b50565b600081359050610a15816109ef565b92915050565b600060208284031215610a3157610a3061050c565b5b6000610a3f84828501610a06565b91505092915050565b600060e083016000830151610a6060008601826107eb565b506020830151610a7360208601826107eb565b506040830151610a8660408601826107eb565b5060608301518482036060860152610a9e8282610840565b9150506080830151610ab360808601826107eb565b5060a083015184820360a0860152610acb8282610840565b91505060c0830151610ae060c0860182610885565b508091505092915050565b60006020820190508181036000830152610b058184610a48565b905092915050565b600067ffffffffffffffff821115610b2857610b27610567565b5b602082029050602081019050919050565b600080fd5b600080fd5b600080fd5b600081519050610b5781610520565b92915050565b6000610b70610b6b846105e2565b6105c7565b905082815260208101848484011115610b8c57610b8b610551565b5b610b97848285610816565b509392505050565b600082601f830112610bb457610bb361054c565b5b8151610bc4848260208601610b5d565b91505092915050565b610bd681610879565b8114610be157600080fd5b50565b600081519050610bf381610bcd565b92915050565b600060e08284031215610c0f57610c0e610b3e565b5b610c1960e06105c7565b90506000610c2984828501610b48565b6000830152506020610c3d84828501610b48565b6020830152506040610c5184828501610b48565b604083015250606082015167ffffffffffffffff811115610c7557610c74610b43565b5b610c8184828501610b9f565b6060830152506080610c9584828501610b48565b60808301525060a082015167ffffffffffffffff811115610cb957610cb8610b43565b5b610cc584828501610b9f565b60a08301525060c0610cd984828501610be4565b60c08301525092915050565b6000610cf8610cf384610b0d565b6105c7565b90508083825260208201905060208402830185811115610d1b57610d1a610b39565b5b835b81811015610d6257805167ffffffffffffffff811115610d4057610d3f61054c565b5b808601610d4d8982610bf9565b85526020850194505050602081019050610d1d565b5050509392505050565b600082601f830112610d8157610d8061054c565b5b8151610d91848260208601610ce5565b91505092915050565b600060208284031215610db057610daf61050c565b5b600082015167ffffffffffffffff811115610dce57610dcd610511565b5b610dda84828501610d6c565b91505092915050565b600082825260208201905092915050565b7f4f776e61626c653a206e6577206f776e657220697320746865207a65726f206160008201527f6464726573730000000000000000000000000000000000000000000000000000602082015250565b6000610e50602683610de3565b9150610e5b82610df4565b604082019050919050565b60006020820190508181036000830152610e7f81610e43565b9050919050565b7f4f776e61626c653a2063616c6c6572206973206e6f7420746865206f776e6572600082015250565b6000610ebc602083610de3565b9150610ec782610e86565b602082019050919050565b60006020820190508181036000830152610eeb81610eaf565b905091905056fea26469706673582212205dca795f7e39a36eee4fac834cf9af8b6520386fe5050c56feedefb2e5d7f82e64736f6c63430008120033",
					"opcodes": "PUSH1 0x80 PUSH1 0x40 MSTORE CALLVALUE DUP1 ISZERO PUSH2 0x10 JUMPI PUSH1 0x0 DUP1 REVERT JUMPDEST POP PUSH1 0x40 MLOAD PUSH3 0x1085 CODESIZE SUB DUP1 PUSH3 0x1085 DUP4 CODECOPY DUP2 DUP2 ADD PUSH1 0x40 MSTORE DUP2 ADD SWAP1 PUSH2 0x34 SWAP2 SWAP1 PUSH2 0x120 JUMP JUMPDEST DUP1 CALLER PUSH1 0x0 DUP1 PUSH2 0x100 EXP DUP2 SLOAD DUP2 PUSH20 0xFFFFFFFFFFFFFFFFFFFFFFFFFFFFFFFFFFFFFFFF MUL NOT AND SWAP1 DUP4 PUSH20 0xFFFFFFFFFFFFFFFFFFFFFFFFFFFFFFFFFFFFFFFF AND MUL OR SWAP1 SSTORE POP DUP1 PUSH1 0x1 PUSH1 0x0 PUSH2 0x100 EXP DUP2 SLOAD DUP2 PUSH20 0xFFFFFFFFFFFFFFFFFFFFFFFFFFFFFFFFFFFFFFFF MUL NOT AND SWAP1 DUP4 PUSH20 0xFFFFFFFFFFFFFFFFFFFFFFFFFFFFFFFFFFFFFFFF AND MUL OR SWAP1 SSTORE POP POP POP PUSH2 0x14D JUMP JUMPDEST PUSH1 0x0 DUP1 REVERT JUMPDEST PUSH1 0x0 PUSH20 0xFFFFFFFFFFFFFFFFFFFFFFFFFFFFFFFFFFFFFFFF DUP3 AND SWAP1 POP SWAP2 SWAP1 POP JUMP JUMPDEST PUSH1 0x0 PUSH2 0xED DUP3 PUSH2 0xC2 JUMP JUMPDEST SWAP1 POP SWAP2 SWAP1 POP JUMP JUMPDEST PUSH2 0xFD DUP2 PUSH2 0xE2 JUMP JUMPDEST DUP2 EQ PUSH2 0x108 JUMPI PUSH1 0x0 DUP1 REVERT JUMPDEST POP JUMP JUMPDEST PUSH1 0x0 DUP2 MLOAD SWAP1 POP PUSH2 0x11A DUP2 PUSH2 0xF4 JUMP JUMPDEST SWAP3 SWAP2 POP POP JUMP JUMPDEST PUSH1 0x0 PUSH1 0x20 DUP3 DUP5 SUB SLT ISZERO PUSH2 0x136 JUMPI PUSH2 0x135 PUSH2 0xBD JUMP JUMPDEST JUMPDEST PUSH1 0x0 PUSH2 0x144 DUP5 DUP3 DUP6 ADD PUSH2 0x10B JUMP JUMPDEST SWAP2 POP POP SWAP3 SWAP2 POP POP JUMP JUMPDEST PUSH2 0xF28 DUP1 PUSH3 0x15D PUSH1 0x0 CODECOPY PUSH1 0x0 RETURN INVALID PUSH1 0x80 PUSH1 0x40 MSTORE CALLVALUE DUP1 ISZERO PUSH2 0x10 JUMPI PUSH1 0x0 DUP1 REVERT JUMPDEST POP PUSH1 0x4 CALLDATASIZE LT PUSH2 0x62 JUMPI PUSH1 0x0 CALLDATALOAD PUSH1 0xE0 SHR DUP1 PUSH4 0x83197EF0 EQ PUSH2 0x67 JUMPI DUP1 PUSH4 0x8DA5CB5B EQ PUSH2 0x71 JUMPI DUP1 PUSH4 0x99F78308 EQ PUSH2 0x8F JUMPI DUP1 PUSH4 0xC6B2D8C7 EQ PUSH2 0xAB JUMPI DUP1 PUSH4 0xCAD09AD6 EQ PUSH2 0xC9 JUMPI DUP1 PUSH4 0xF2FDE38B EQ PUSH2 0xE7 JUMPI JUMPDEST PUSH1 0x0 DUP1 REVERT JUMPDEST PUSH2 0x6F PUSH2 0x103 JUMP JUMPDEST STOP JUMPDEST PUSH2 0x79 PUSH2 0x124 JUMP JUMPDEST PUSH1 0x40 MLOAD PUSH2 0x86 SWAP2 SWAP1 PUSH2 0x4E7 JUMP JUMPDEST PUSH1 0x40 MLOAD DUP1 SWAP2 SUB SWAP1 RETURN JUMPDEST PUSH2 0xA9 PUSH1 0x4 DUP1 CALLDATASIZE SUB DUP2 ADD SWAP1 PUSH2 0xA4 SWAP2 SWAP1 PUSH2 0x692 JUMP JUMPDEST PUSH2 0x14D JUMP JUMPDEST STOP JUMPDEST PUSH2 0xB3 PUSH2 0x21D JUMP JUMPDEST PUSH1 0x40 MLOAD PUSH2 0xC0 SWAP2 SWAP1 PUSH2 0x7A4 JUMP JUMPDEST PUSH1 0x40 MLOAD DUP1 SWAP2 SUB SWAP1 RETURN JUMPDEST PUSH2 0xD1 PUSH2 0x243 JUMP JUMPDEST PUSH1 0x40 MLOAD PUSH2 0xDE SWAP2 SWAP1 PUSH2 0x9CD JUMP JUMPDEST PUSH1 0x40 MLOAD DUP1 SWAP2 SUB SWAP1 RETURN JUMPDEST PUSH2 0x101 PUSH1 0x4 DUP1 CALLDATASIZE SUB DUP2 ADD SWAP1 PUSH2 0xFC SWAP2 SWAP1 PUSH2 0xA1B JUMP JUMPDEST PUSH2 0x2E8 JUMP JUMPDEST STOP JUMPDEST PUSH2 0x10B PUSH2 0x36B JUMP JUMPDEST ADDRESS PUSH20 0xFFFFFFFFFFFFFFFFFFFFFFFFFFFFFFFFFFFFFFFF AND SELFDESTRUCT JUMPDEST PUSH1 0x0 DUP1 PUSH1 0x0 SWAP1 SLOAD SWAP1 PUSH2 0x100 EXP SWAP1 DIV PUSH20 0xFFFFFFFFFFFFFFFFFFFFFFFFFFFFFFFFFFFFFFFF AND SWAP1 POP SWAP1 JUMP JUMPDEST PUSH1 0x0 PUSH1 0x40 MLOAD DUP1 PUSH1 0xE0 ADD PUSH1 0x40 MSTORE DUP1 PUSH1 0x0 DUP2 MSTORE PUSH1 0x20 ADD DUP8 DUP2 MSTORE PUSH1 0x20 ADD DUP7 DUP2 MSTORE PUSH1 0x20 ADD DUP6 DUP2 MSTORE PUSH1 0x20 ADD DUP5 DUP2 MSTORE PUSH1 0x20 ADD DUP4 DUP2 MSTORE PUSH1 0x20 ADD PUSH1 0x0 ISZERO ISZERO DUP2 MSTORE POP SWAP1 POP PUSH1 0x1 PUSH1 0x0 SWAP1 SLOAD SWAP1 PUSH2 0x100 EXP SWAP1 DIV PUSH20 0xFFFFFFFFFFFFFFFFFFFFFFFFFFFFFFFFFFFFFFFF AND PUSH20 0xFFFFFFFFFFFFFFFFFFFFFFFFFFFFFFFFFFFFFFFF AND PUSH4 0x3B61A11D DUP3 PUSH1 0x40 MLOAD DUP3 PUSH4 0xFFFFFFFF AND PUSH1 0xE0 SHL DUP2 MSTORE PUSH1 0x4 ADD PUSH2 0x1E3 SWAP2 SWAP1 PUSH2 0xAEB JUMP JUMPDEST PUSH1 0x0 PUSH1 0x40 MLOAD DUP1 DUP4 SUB DUP2 PUSH1 0x0 DUP8 DUP1 EXTCODESIZE ISZERO DUP1 ISZERO PUSH2 0x1FD JUMPI PUSH1 0x0 DUP1 REVERT JUMPDEST POP GAS CALL ISZERO DUP1 ISZERO PUSH2 0x211 JUMPI RETURNDATASIZE PUSH1 0x0 DUP1 RETURNDATACOPY RETURNDATASIZE PUSH1 0x0 REVERT JUMPDEST POP POP POP POP POP POP POP POP POP POP JUMP JUMPDEST PUSH1 0x1 PUSH1 0x0 SWAP1 SLOAD SWAP1 PUSH2 0x100 EXP SWAP1 DIV PUSH20 0xFFFFFFFFFFFFFFFFFFFFFFFFFFFFFFFFFFFFFFFF AND DUP2 JUMP JUMPDEST PUSH1 0x60 PUSH2 0x24D PUSH2 0x36B JUMP JUMPDEST PUSH1 0x1 PUSH1 0x0 SWAP1 SLOAD SWAP1 PUSH2 0x100 EXP SWAP1 DIV PUSH20 0xFFFFFFFFFFFFFFFFFFFFFFFFFFFFFFFFFFFFFFFF AND PUSH20 0xFFFFFFFFFFFFFFFFFFFFFFFFFFFFFFFFFFFFFFFF AND PUSH4 0xCAD09AD6 PUSH1 0x40 MLOAD DUP2 PUSH4 0xFFFFFFFF AND PUSH1 0xE0 SHL DUP2 MSTORE PUSH1 0x4 ADD PUSH1 0x0 PUSH1 0x40 MLOAD DUP1 DUP4 SUB DUP2 DUP7 GAS STATICCALL ISZERO DUP1 ISZERO PUSH2 0x2BA JUMPI RETURNDATASIZE PUSH1 0x0 DUP1 RETURNDATACOPY RETURNDATASIZE PUSH1 0x0 REVERT JUMPDEST POP POP POP POP PUSH1 0x40 MLOAD RETURNDATASIZE PUSH1 0x0 DUP3 RETURNDATACOPY RETURNDATASIZE PUSH1 0x1F NOT PUSH1 0x1F DUP3 ADD AND DUP3 ADD DUP1 PUSH1 0x40 MSTORE POP DUP2 ADD SWAP1 PUSH2 0x2E3 SWAP2 SWAP1 PUSH2 0xD9A JUMP JUMPDEST SWAP1 POP SWAP1 JUMP JUMPDEST PUSH2 0x2F0 PUSH2 0x36B JUMP JUMPDEST PUSH1 0x0 PUSH20 0xFFFFFFFFFFFFFFFFFFFFFFFFFFFFFFFFFFFFFFFF AND DUP2 PUSH20 0xFFFFFFFFFFFFFFFFFFFFFFFFFFFFFFFFFFFFFFFF AND SUB PUSH2 0x35F JUMPI PUSH1 0x40 MLOAD PUSH32 0x8C379A000000000000000000000000000000000000000000000000000000000 DUP2 MSTORE PUSH1 0x4 ADD PUSH2 0x356 SWAP1 PUSH2 0xE66 JUMP JUMPDEST PUSH1 0x40 MLOAD DUP1 SWAP2 SUB SWAP1 REVERT JUMPDEST PUSH2 0x368 DUP2 PUSH2 0x3E2 JUMP JUMPDEST POP JUMP JUMPDEST CALLER PUSH20 0xFFFFFFFFFFFFFFFFFFFFFFFFFFFFFFFFFFFFFFFF AND PUSH2 0x38A PUSH2 0x124 JUMP JUMPDEST PUSH20 0xFFFFFFFFFFFFFFFFFFFFFFFFFFFFFFFFFFFFFFFF AND EQ PUSH2 0x3E0 JUMPI PUSH1 0x40 MLOAD PUSH32 0x8C379A000000000000000000000000000000000000000000000000000000000 DUP2 MSTORE PUSH1 0x4 ADD PUSH2 0x3D7 SWAP1 PUSH2 0xED2 JUMP JUMPDEST PUSH1 0x40 MLOAD DUP1 SWAP2 SUB SWAP1 REVERT JUMPDEST JUMP JUMPDEST PUSH1 0x0 DUP1 PUSH1 0x0 SWAP1 SLOAD SWAP1 PUSH2 0x100 EXP SWAP1 DIV PUSH20 0xFFFFFFFFFFFFFFFFFFFFFFFFFFFFFFFFFFFFFFFF AND SWAP1 POP DUP2 PUSH1 0x0 DUP1 PUSH2 0x100 EXP DUP2 SLOAD DUP2 PUSH20 0xFFFFFFFFFFFFFFFFFFFFFFFFFFFFFFFFFFFFFFFF MUL NOT AND SWAP1 DUP4 PUSH20 0xFFFFFFFFFFFFFFFFFFFFFFFFFFFFFFFFFFFFFFFF AND MUL OR SWAP1 SSTORE POP DUP2 PUSH20 0xFFFFFFFFFFFFFFFFFFFFFFFFFFFFFFFFFFFFFFFF AND DUP2 PUSH20 0xFFFFFFFFFFFFFFFFFFFFFFFFFFFFFFFFFFFFFFFF AND PUSH32 0x8BE0079C531659141344CD1FD0A4F28419497F9722A3DAAFE3B4186F6B6457E0 PUSH1 0x40 MLOAD PUSH1 0x40 MLOAD DUP1 SWAP2 SUB SWAP1 LOG3 POP POP JUMP JUMPDEST PUSH1 0x0 PUSH20 0xFFFFFFFFFFFFFFFFFFFFFFFFFFFFFFFFFFFFFFFF DUP3 AND SWAP1 POP SWAP2 SWAP1 POP JUMP JUMPDEST PUSH1 0x0 PUSH2 0x4D1 DUP3 PUSH2 0x4A6 JUMP JUMPDEST SWAP1 POP SWAP2 SWAP1 POP JUMP JUMPDEST PUSH2 0x4E1 DUP2 PUSH2 0x4C6 JUMP JUMPDEST DUP3 MSTORE POP POP JUMP JUMPDEST PUSH1 0x0 PUSH1 0x20 DUP3 ADD SWAP1 POP PUSH2 0x4FC PUSH1 0x0 DUP4 ADD DUP5 PUSH2 0x4D8 JUMP JUMPDEST SWAP3 SWAP2 POP POP JUMP JUMPDEST PUSH1 0x0 PUSH1 0x40 MLOAD SWAP1 POP SWAP1 JUMP JUMPDEST PUSH1 0x0 DUP1 REVERT JUMPDEST PUSH1 0x0 DUP1 REVERT JUMPDEST PUSH1 0x0 DUP2 SWAP1 POP SWAP2 SWAP1 POP JUMP JUMPDEST PUSH2 0x529 DUP2 PUSH2 0x516 JUMP JUMPDEST DUP2 EQ PUSH2 0x534 JUMPI PUSH1 0x0 DUP1 REVERT JUMPDEST POP JUMP JUMPDEST PUSH1 0x0 DUP2 CALLDATALOAD SWAP1 POP PUSH2 0x546 DUP2 PUSH2 0x520 JUMP JUMPDEST SWAP3 SWAP2 POP POP JUMP JUMPDEST PUSH1 0x0 DUP1 REVERT JUMPDEST PUSH1 0x0 DUP1 REVERT JUMPDEST PUSH1 0x0 PUSH1 0x1F NOT PUSH1 0x1F DUP4 ADD AND SWAP1 POP SWAP2 SWAP1 POP JUMP JUMPDEST PUSH32 0x4E487B7100000000000000000000000000000000000000000000000000000000 PUSH1 0x0 MSTORE PUSH1 0x41 PUSH1 0x4 MSTORE PUSH1 0x24 PUSH1 0x0 REVERT JUMPDEST PUSH2 0x59F DUP3 PUSH2 0x556 JUMP JUMPDEST DUP2 ADD DUP2 DUP2 LT PUSH8 0xFFFFFFFFFFFFFFFF DUP3 GT OR ISZERO PUSH2 0x5BE JUMPI PUSH2 0x5BD PUSH2 0x567 JUMP JUMPDEST JUMPDEST DUP1 PUSH1 0x40 MSTORE POP POP POP JUMP JUMPDEST PUSH1 0x0 PUSH2 0x5D1 PUSH2 0x502 JUMP JUMPDEST SWAP1 POP PUSH2 0x5DD DUP3 DUP3 PUSH2 0x596 JUMP JUMPDEST SWAP2 SWAP1 POP JUMP JUMPDEST PUSH1 0x0 PUSH8 0xFFFFFFFFFFFFFFFF DUP3 GT ISZERO PUSH2 0x5FD JUMPI PUSH2 0x5FC PUSH2 0x567 JUMP JUMPDEST JUMPDEST PUSH2 0x606 DUP3 PUSH2 0x556 JUMP JUMPDEST SWAP1 POP PUSH1 0x20 DUP2 ADD SWAP1 POP SWAP2 SWAP1 POP JUMP JUMPDEST DUP3 DUP2 DUP4 CALLDATACOPY PUSH1 0x0 DUP4 DUP4 ADD MSTORE POP POP POP JUMP JUMPDEST PUSH1 0x0 PUSH2 0x635 PUSH2 0x630 DUP5 PUSH2 0x5E2 JUMP JUMPDEST PUSH2 0x5C7 JUMP JUMPDEST SWAP1 POP DUP3 DUP2 MSTORE PUSH1 0x20 DUP2 ADD DUP5 DUP5 DUP5 ADD GT ISZERO PUSH2 0x651 JUMPI PUSH2 0x650 PUSH2 0x551 JUMP JUMPDEST JUMPDEST PUSH2 0x65C DUP5 DUP3 DUP6 PUSH2 0x613 JUMP JUMPDEST POP SWAP4 SWAP3 POP POP POP JUMP JUMPDEST PUSH1 0x0 DUP3 PUSH1 0x1F DUP4 ADD SLT PUSH2 0x679 JUMPI PUSH2 0x678 PUSH2 0x54C JUMP JUMPDEST JUMPDEST DUP2 CALLDATALOAD PUSH2 0x689 DUP5 DUP3 PUSH1 0x20 DUP7 ADD PUSH2 0x622 JUMP JUMPDEST SWAP2 POP POP SWAP3 SWAP2 POP POP JUMP JUMPDEST PUSH1 0x0 DUP1 PUSH1 0x0 DUP1 PUSH1 0x0 PUSH1 0xA0 DUP7 DUP9 SUB SLT ISZERO PUSH2 0x6AE JUMPI PUSH2 0x6AD PUSH2 0x50C JUMP JUMPDEST JUMPDEST PUSH1 0x0 PUSH2 0x6BC DUP9 DUP3 DUP10 ADD PUSH2 0x537 JUMP JUMPDEST SWAP6 POP POP PUSH1 0x20 PUSH2 0x6CD DUP9 DUP3 DUP10 ADD PUSH2 0x537 JUMP JUMPDEST SWAP5 POP POP PUSH1 0x40 DUP7 ADD CALLDATALOAD PUSH8 0xFFFFFFFFFFFFFFFF DUP2 GT ISZERO PUSH2 0x6EE JUMPI PUSH2 0x6ED PUSH2 0x511 JUMP JUMPDEST JUMPDEST PUSH2 0x6FA DUP9 DUP3 DUP10 ADD PUSH2 0x664 JUMP JUMPDEST SWAP4 POP POP PUSH1 0x60 PUSH2 0x70B DUP9 DUP3 DUP10 ADD PUSH2 0x537 JUMP JUMPDEST SWAP3 POP POP PUSH1 0x80 DUP7 ADD CALLDATALOAD PUSH8 0xFFFFFFFFFFFFFFFF DUP2 GT ISZERO PUSH2 0x72C JUMPI PUSH2 0x72B PUSH2 0x511 JUMP JUMPDEST JUMPDEST PUSH2 0x738 DUP9 DUP3 DUP10 ADD PUSH2 0x664 JUMP JUMPDEST SWAP2 POP POP SWAP3 SWAP6 POP SWAP3 SWAP6 SWAP1 SWAP4 POP JUMP JUMPDEST PUSH1 0x0 DUP2 SWAP1 POP SWAP2 SWAP1 POP JUMP JUMPDEST PUSH1 0x0 PUSH2 0x76A PUSH2 0x765 PUSH2 0x760 DUP5 PUSH2 0x4A6 JUMP JUMPDEST PUSH2 0x745 JUMP JUMPDEST PUSH2 0x4A6 JUMP JUMPDEST SWAP1 POP SWAP2 SWAP1 POP JUMP JUMPDEST PUSH1 0x0 PUSH2 0x77C DUP3 PUSH2 0x74F JUMP JUMPDEST SWAP1 POP SWAP2 SWAP1 POP JUMP JUMPDEST PUSH1 0x0 PUSH2 0x78E DUP3 PUSH2 0x771 JUMP JUMPDEST SWAP1 POP SWAP2 SWAP1 POP JUMP JUMPDEST PUSH2 0x79E DUP2 PUSH2 0x783 JUMP JUMPDEST DUP3 MSTORE POP POP JUMP JUMPDEST PUSH1 0x0 PUSH1 0x20 DUP3 ADD SWAP1 POP PUSH2 0x7B9 PUSH1 0x0 DUP4 ADD DUP5 PUSH2 0x795 JUMP JUMPDEST SWAP3 SWAP2 POP POP JUMP JUMPDEST PUSH1 0x0 DUP2 MLOAD SWAP1 POP SWAP2 SWAP1 POP JUMP JUMPDEST PUSH1 0x0 DUP3 DUP3 MSTORE PUSH1 0x20 DUP3 ADD SWAP1 POP SWAP3 SWAP2 POP POP JUMP JUMPDEST PUSH1 0x0 DUP2 SWAP1 POP PUSH1 0x20 DUP3 ADD SWAP1 POP SWAP2 SWAP1 POP JUMP JUMPDEST PUSH2 0x7F4 DUP2 PUSH2 0x516 JUMP JUMPDEST DUP3 MSTORE POP POP JUMP JUMPDEST PUSH1 0x0 DUP2 MLOAD SWAP1 POP SWAP2 SWAP1 POP JUMP JUMPDEST PUSH1 0x0 DUP3 DUP3 MSTORE PUSH1 0x20 DUP3 ADD SWAP1 POP SWAP3 SWAP2 POP POP JUMP JUMPDEST PUSH1 0x0 JUMPDEST DUP4 DUP2 LT ISZERO PUSH2 0x834 JUMPI DUP1 DUP3 ADD MLOAD DUP2 DUP5 ADD MSTORE PUSH1 0x20 DUP2 ADD SWAP1 POP PUSH2 0x819 JUMP JUMPDEST PUSH1 0x0 DUP5 DUP5 ADD MSTORE POP POP POP POP JUMP JUMPDEST PUSH1 0x0 PUSH2 0x84B DUP3 PUSH2 0x7FA JUMP JUMPDEST PUSH2 0x855 DUP2 DUP6 PUSH2 0x805 JUMP JUMPDEST SWAP4 POP PUSH2 0x865 DUP2 DUP6 PUSH1 0x20 DUP7 ADD PUSH2 0x816 JUMP JUMPDEST PUSH2 0x86E DUP2 PUSH2 0x556 JUMP JUMPDEST DUP5 ADD SWAP2 POP POP SWAP3 SWAP2 POP POP JUMP JUMPDEST PUSH1 0x0 DUP2 ISZERO ISZERO SWAP1 POP SWAP2 SWAP1 POP JUMP JUMPDEST PUSH2 0x88E DUP2 PUSH2 0x879 JUMP JUMPDEST DUP3 MSTORE POP POP JUMP JUMPDEST PUSH1 0x0 PUSH1 0xE0 DUP4 ADD PUSH1 0x0 DUP4 ADD MLOAD PUSH2 0x8AC PUSH1 0x0 DUP7 ADD DUP3 PUSH2 0x7EB JUMP JUMPDEST POP PUSH1 0x20 DUP4 ADD MLOAD PUSH2 0x8BF PUSH1 0x20 DUP7 ADD DUP3 PUSH2 0x7EB JUMP JUMPDEST POP PUSH1 0x40 DUP4 ADD MLOAD PUSH2 0x8D2 PUSH1 0x40 DUP7 ADD DUP3 PUSH2 0x7EB JUMP JUMPDEST POP PUSH1 0x60 DUP4 ADD MLOAD DUP5 DUP3 SUB PUSH1 0x60 DUP7 ADD MSTORE PUSH2 0x8EA DUP3 DUP3 PUSH2 0x840 JUMP JUMPDEST SWAP2 POP POP PUSH1 0x80 DUP4 ADD MLOAD PUSH2 0x8FF PUSH1 0x80 DUP7 ADD DUP3 PUSH2 0x7EB JUMP JUMPDEST POP PUSH1 0xA0 DUP4 ADD MLOAD DUP5 DUP3 SUB PUSH1 0xA0 DUP7 ADD MSTORE PUSH2 0x917 DUP3 DUP3 PUSH2 0x840 JUMP JUMPDEST SWAP2 POP POP PUSH1 0xC0 DUP4 ADD MLOAD PUSH2 0x92C PUSH1 0xC0 DUP7 ADD DUP3 PUSH2 0x885 JUMP JUMPDEST POP DUP1 SWAP2 POP POP SWAP3 SWAP2 POP POP JUMP JUMPDEST PUSH1 0x0 PUSH2 0x943 DUP4 DUP4 PUSH2 0x894 JUMP JUMPDEST SWAP1 POP SWAP3 SWAP2 POP POP JUMP JUMPDEST PUSH1 0x0 PUSH1 0x20 DUP3 ADD SWAP1 POP SWAP2 SWAP1 POP JUMP JUMPDEST PUSH1 0x0 PUSH2 0x963 DUP3 PUSH2 0x7BF JUMP JUMPDEST PUSH2 0x96D DUP2 DUP6 PUSH2 0x7CA JUMP JUMPDEST SWAP4 POP DUP4 PUSH1 0x20 DUP3 MUL DUP6 ADD PUSH2 0x97F DUP6 PUSH2 0x7DB JUMP JUMPDEST DUP1 PUSH1 0x0 JUMPDEST DUP6 DUP2 LT ISZERO PUSH2 0x9BB JUMPI DUP5 DUP5 SUB DUP10 MSTORE DUP2 MLOAD PUSH2 0x99C DUP6 DUP3 PUSH2 0x937 JUMP JUMPDEST SWAP5 POP PUSH2 0x9A7 DUP4 PUSH2 0x94B JUMP JUMPDEST SWAP3 POP PUSH1 0x20 DUP11 ADD SWAP10 POP POP PUSH1 0x1 DUP2 ADD SWAP1 POP PUSH2 0x983 JUMP JUMPDEST POP DUP3 SWAP8 POP DUP8 SWAP6 POP POP POP POP POP POP SWAP3 SWAP2 POP POP JUMP JUMPDEST PUSH1 0x0 PUSH1 0x20 DUP3 ADD SWAP1 POP DUP2 DUP2 SUB PUSH1 0x0 DUP4 ADD MSTORE PUSH2 0x9E7 DUP2 DUP5 PUSH2 0x958 JUMP JUMPDEST SWAP1 POP SWAP3 SWAP2 POP POP JUMP JUMPDEST PUSH2 0x9F8 DUP2 PUSH2 0x4C6 JUMP JUMPDEST DUP2 EQ PUSH2 0xA03 JUMPI PUSH1 0x0 DUP1 REVERT JUMPDEST POP JUMP JUMPDEST PUSH1 0x0 DUP2 CALLDATALOAD SWAP1 POP PUSH2 0xA15 DUP2 PUSH2 0x9EF JUMP JUMPDEST SWAP3 SWAP2 POP POP JUMP JUMPDEST PUSH1 0x0 PUSH1 0x20 DUP3 DUP5 SUB SLT ISZERO PUSH2 0xA31 JUMPI PUSH2 0xA30 PUSH2 0x50C JUMP JUMPDEST JUMPDEST PUSH1 0x0 PUSH2 0xA3F DUP5 DUP3 DUP6 ADD PUSH2 0xA06 JUMP JUMPDEST SWAP2 POP POP SWAP3 SWAP2 POP POP JUMP JUMPDEST PUSH1 0x0 PUSH1 0xE0 DUP4 ADD PUSH1 0x0 DUP4 ADD MLOAD PUSH2 0xA60 PUSH1 0x0 DUP7 ADD DUP3 PUSH2 0x7EB JUMP JUMPDEST POP PUSH1 0x20 DUP4 ADD MLOAD PUSH2 0xA73 PUSH1 0x20 DUP7 ADD DUP3 PUSH2 0x7EB JUMP JUMPDEST POP PUSH1 0x40 DUP4 ADD MLOAD PUSH2 0xA86 PUSH1 0x40 DUP7 ADD DUP3 PUSH2 0x7EB JUMP JUMPDEST POP PUSH1 0x60 DUP4 ADD MLOAD DUP5 DUP3 SUB PUSH1 0x60 DUP7 ADD MSTORE PUSH2 0xA9E DUP3 DUP3 PUSH2 0x840 JUMP JUMPDEST SWAP2 POP POP PUSH1 0x80 DUP4 ADD MLOAD PUSH2 0xAB3 PUSH1 0x80 DUP7 ADD DUP3 PUSH2 0x7EB JUMP JUMPDEST POP PUSH1 0xA0 DUP4 ADD MLOAD DUP5 DUP3 SUB PUSH1 0xA0 DUP7 ADD MSTORE PUSH2 0xACB DUP3 DUP3 PUSH2 0x840 JUMP JUMPDEST SWAP2 POP POP PUSH1 0xC0 DUP4 ADD MLOAD PUSH2 0xAE0 PUSH1 0xC0 DUP7 ADD DUP3 PUSH2 0x885 JUMP JUMPDEST POP DUP1 SWAP2 POP POP SWAP3 SWAP2 POP POP JUMP JUMPDEST PUSH1 0x0 PUSH1 0x20 DUP3 ADD SWAP1 POP DUP2 DUP2 SUB PUSH1 0x0 DUP4 ADD MSTORE PUSH2 0xB05 DUP2 DUP5 PUSH2 0xA48 JUMP JUMPDEST SWAP1 POP SWAP3 SWAP2 POP POP JUMP JUMPDEST PUSH1 0x0 PUSH8 0xFFFFFFFFFFFFFFFF DUP3 GT ISZERO PUSH2 0xB28 JUMPI PUSH2 0xB27 PUSH2 0x567 JUMP JUMPDEST JUMPDEST PUSH1 0x20 DUP3 MUL SWAP1 POP PUSH1 0x20 DUP2 ADD SWAP1 POP SWAP2 SWAP1 POP JUMP JUMPDEST PUSH1 0x0 DUP1 REVERT JUMPDEST PUSH1 0x0 DUP1 REVERT JUMPDEST PUSH1 0x0 DUP1 REVERT JUMPDEST PUSH1 0x0 DUP2 MLOAD SWAP1 POP PUSH2 0xB57 DUP2 PUSH2 0x520 JUMP JUMPDEST SWAP3 SWAP2 POP POP JUMP JUMPDEST PUSH1 0x0 PUSH2 0xB70 PUSH2 0xB6B DUP5 PUSH2 0x5E2 JUMP JUMPDEST PUSH2 0x5C7 JUMP JUMPDEST SWAP1 POP DUP3 DUP2 MSTORE PUSH1 0x20 DUP2 ADD DUP5 DUP5 DUP5 ADD GT ISZERO PUSH2 0xB8C JUMPI PUSH2 0xB8B PUSH2 0x551 JUMP JUMPDEST JUMPDEST PUSH2 0xB97 DUP5 DUP3 DUP6 PUSH2 0x816 JUMP JUMPDEST POP SWAP4 SWAP3 POP POP POP JUMP JUMPDEST PUSH1 0x0 DUP3 PUSH1 0x1F DUP4 ADD SLT PUSH2 0xBB4 JUMPI PUSH2 0xBB3 PUSH2 0x54C JUMP JUMPDEST JUMPDEST DUP2 MLOAD PUSH2 0xBC4 DUP5 DUP3 PUSH1 0x20 DUP7 ADD PUSH2 0xB5D JUMP JUMPDEST SWAP2 POP POP SWAP3 SWAP2 POP POP JUMP JUMPDEST PUSH2 0xBD6 DUP2 PUSH2 0x879 JUMP JUMPDEST DUP2 EQ PUSH2 0xBE1 JUMPI PUSH1 0x0 DUP1 REVERT JUMPDEST POP JUMP JUMPDEST PUSH1 0x0 DUP2 MLOAD SWAP1 POP PUSH2 0xBF3 DUP2 PUSH2 0xBCD JUMP JUMPDEST SWAP3 SWAP2 POP POP JUMP JUMPDEST PUSH1 0x0 PUSH1 0xE0 DUP3 DUP5 SUB SLT ISZERO PUSH2 0xC0F JUMPI PUSH2 0xC0E PUSH2 0xB3E JUMP JUMPDEST JUMPDEST PUSH2 0xC19 PUSH1 0xE0 PUSH2 0x5C7 JUMP JUMPDEST SWAP1 POP PUSH1 0x0 PUSH2 0xC29 DUP5 DUP3 DUP6 ADD PUSH2 0xB48 JUMP JUMPDEST PUSH1 0x0 DUP4 ADD MSTORE POP PUSH1 0x20 PUSH2 0xC3D DUP5 DUP3 DUP6 ADD PUSH2 0xB48 JUMP JUMPDEST PUSH1 0x20 DUP4 ADD MSTORE POP PUSH1 0x40 PUSH2 0xC51 DUP5 DUP3 DUP6 ADD PUSH2 0xB48 JUMP JUMPDEST PUSH1 0x40 DUP4 ADD MSTORE POP PUSH1 0x60 DUP3 ADD MLOAD PUSH8 0xFFFFFFFFFFFFFFFF DUP2 GT ISZERO PUSH2 0xC75 JUMPI PUSH2 0xC74 PUSH2 0xB43 JUMP JUMPDEST JUMPDEST PUSH2 0xC81 DUP5 DUP3 DUP6 ADD PUSH2 0xB9F JUMP JUMPDEST PUSH1 0x60 DUP4 ADD MSTORE POP PUSH1 0x80 PUSH2 0xC95 DUP5 DUP3 DUP6 ADD PUSH2 0xB48 JUMP JUMPDEST PUSH1 0x80 DUP4 ADD MSTORE POP PUSH1 0xA0 DUP3 ADD MLOAD PUSH8 0xFFFFFFFFFFFFFFFF DUP2 GT ISZERO PUSH2 0xCB9 JUMPI PUSH2 0xCB8 PUSH2 0xB43 JUMP JUMPDEST JUMPDEST PUSH2 0xCC5 DUP5 DUP3 DUP6 ADD PUSH2 0xB9F JUMP JUMPDEST PUSH1 0xA0 DUP4 ADD MSTORE POP PUSH1 0xC0 PUSH2 0xCD9 DUP5 DUP3 DUP6 ADD PUSH2 0xBE4 JUMP JUMPDEST PUSH1 0xC0 DUP4 ADD MSTORE POP SWAP3 SWAP2 POP POP JUMP JUMPDEST PUSH1 0x0 PUSH2 0xCF8 PUSH2 0xCF3 DUP5 PUSH2 0xB0D JUMP JUMPDEST PUSH2 0x5C7 JUMP JUMPDEST SWAP1 POP DUP1 DUP4 DUP3 MSTORE PUSH1 0x20 DUP3 ADD SWAP1 POP PUSH1 0x20 DUP5 MUL DUP4 ADD DUP6 DUP2 GT ISZERO PUSH2 0xD1B JUMPI PUSH2 0xD1A PUSH2 0xB39 JUMP JUMPDEST JUMPDEST DUP4 JUMPDEST DUP2 DUP2 LT ISZERO PUSH2 0xD62 JUMPI DUP1 MLOAD PUSH8 0xFFFFFFFFFFFFFFFF DUP2 GT ISZERO PUSH2 0xD40 JUMPI PUSH2 0xD3F PUSH2 0x54C JUMP JUMPDEST JUMPDEST DUP1 DUP7 ADD PUSH2 0xD4D DUP10 DUP3 PUSH2 0xBF9 JUMP JUMPDEST DUP6 MSTORE PUSH1 0x20 DUP6 ADD SWAP5 POP POP POP PUSH1 0x20 DUP2 ADD SWAP1 POP PUSH2 0xD1D JUMP JUMPDEST POP POP POP SWAP4 SWAP3 POP POP POP JUMP JUMPDEST PUSH1 0x0 DUP3 PUSH1 0x1F DUP4 ADD SLT PUSH2 0xD81 JUMPI PUSH2 0xD80 PUSH2 0x54C JUMP JUMPDEST JUMPDEST DUP2 MLOAD PUSH2 0xD91 DUP5 DUP3 PUSH1 0x20 DUP7 ADD PUSH2 0xCE5 JUMP JUMPDEST SWAP2 POP POP SWAP3 SWAP2 POP POP JUMP JUMPDEST PUSH1 0x0 PUSH1 0x20 DUP3 DUP5 SUB SLT ISZERO PUSH2 0xDB0 JUMPI PUSH2 0xDAF PUSH2 0x50C JUMP JUMPDEST JUMPDEST PUSH1 0x0 DUP3 ADD MLOAD PUSH8 0xFFFFFFFFFFFFFFFF DUP2 GT ISZERO PUSH2 0xDCE JUMPI PUSH2 0xDCD PUSH2 0x511 JUMP JUMPDEST JUMPDEST PUSH2 0xDDA DUP5 DUP3 DUP6 ADD PUSH2 0xD6C JUMP JUMPDEST SWAP2 POP POP SWAP3 SWAP2 POP POP JUMP JUMPDEST PUSH1 0x0 DUP3 DUP3 MSTORE PUSH1 0x20 DUP3 ADD SWAP1 POP SWAP3 SWAP2 POP POP JUMP JUMPDEST PUSH32 0x4F776E61626C653A206E6577206F776E657220697320746865207A65726F2061 PUSH1 0x0 DUP3 ADD MSTORE PUSH32 0x6464726573730000000000000000000000000000000000000000000000000000 PUSH1 0x20 DUP3 ADD MSTORE POP JUMP JUMPDEST PUSH1 0x0 PUSH2 0xE50 PUSH1 0x26 DUP4 PUSH2 0xDE3 JUMP JUMPDEST SWAP2 POP PUSH2 0xE5B DUP3 PUSH2 0xDF4 JUMP JUMPDEST PUSH1 0x40 DUP3 ADD SWAP1 POP SWAP2 SWAP1 POP JUMP JUMPDEST PUSH1 0x0 PUSH1 0x20 DUP3 ADD SWAP1 POP DUP2 DUP2 SUB PUSH1 0x0 DUP4 ADD MSTORE PUSH2 0xE7F DUP2 PUSH2 0xE43 JUMP JUMPDEST SWAP1 POP SWAP2 SWAP1 POP JUMP JUMPDEST PUSH32 0x4F776E61626C653A2063616C6C6572206973206E6F7420746865206F776E6572 PUSH1 0x0 DUP3 ADD MSTORE POP JUMP JUMPDEST PUSH1 0x0 PUSH2 0xEBC PUSH1 0x20 DUP4 PUSH2 0xDE3 JUMP JUMPDEST SWAP2 POP PUSH2 0xEC7 DUP3 PUSH2 0xE86 JUMP JUMPDEST PUSH1 0x20 DUP3 ADD SWAP1 POP SWAP2 SWAP1 POP JUMP JUMPDEST PUSH1 0x0 PUSH1 0x20 DUP3 ADD SWAP1 POP DUP2 DUP2 SUB PUSH1 0x0 DUP4 ADD MSTORE PUSH2 0xEEB DUP2 PUSH2 0xEAF JUMP JUMPDEST SWAP1 POP SWAP2 SWAP1 POP JUMP INVALID LOG2 PUSH5 0x6970667358 0x22 SLT KECCAK256 0x5D 0xCA PUSH26 0x5F7E39A36EEE4FAC834CF9AF8B6520386FE5050C56FEEDEFB2E5 0xD7 0xF8 0x2E PUSH5 0x736F6C6343 STOP ADDMOD SLT STOP CALLER "
				},
				"gasEstimates": {
					"creation": {
						"codeDepositCost": "776000",
						"executionCost": "infinite",
						"totalCost": "infinite"
					},
					"external": {
						"addBatch(uint256,uint256,string,uint256,string)": "infinite",
						"batchDatabase()": "infinite",
						"destroy()": "29950",
						"getAllBatch()": "infinite",
						"owner()": "2522",
						"transferOwnership(address)": "30797"
					}
				},
				"methodIdentifiers": {
					"addBatch(uint256,uint256,string,uint256,string)": "99f78308",
					"batchDatabase()": "c6b2d8c7",
					"destroy()": "83197ef0",
					"getAllBatch()": "cad09ad6",
					"owner()": "8da5cb5b",
					"transferOwnership(address)": "f2fde38b"
				}
			},
			"storageLayout": {
				"storage": [
					{
						"astId": 30,
						"contract": "controller/batch/BatchController.sol:BatchController",
						"label": "_owner",
						"offset": 0,
						"slot": "0",
						"type": "t_address"
					},
					{
						"astId": 215,
						"contract": "controller/batch/BatchController.sol:BatchController",
						"label": "batchDatabase",
						"offset": 0,
						"slot": "1",
						"type": "t_contract(BatchDatabase)341"
					}
				],
				"types": {
					"t_address": {
						"encoding": "inplace",
						"label": "address",
						"numberOfBytes": "20"
					},
					"t_contract(BatchDatabase)341": {
						"encoding": "inplace",
						"label": "contract BatchDatabase",
						"numberOfBytes": "20"
					}
				}
			},
			"userdoc": {
				"kind": "user",
				"methods": {},
				"version": 1
			}
		}
	}
}