{
	"database/processing/Step7Database.sol": {
		"Step7Database": {
			"abi": [
				{
					"inputs": [],
					"stateMutability": "nonpayable",
					"type": "constructor"
				},
				{
					"anonymous": false,
					"inputs": [
						{
							"indexed": true,
							"internalType": "address",
							"name": "previousOwner",
							"type": "address"
						},
						{
							"indexed": true,
							"internalType": "address",
							"name": "newOwner",
							"type": "address"
						}
					],
					"name": "OwnershipTransferred",
					"type": "event"
				},
				{
					"inputs": [
						{
							"internalType": "uint256",
							"name": "Step7Id",
							"type": "uint256"
						}
					],
					"name": "addChecked",
					"outputs": [],
					"stateMutability": "nonpayable",
					"type": "function"
				},
				{
					"inputs": [
						{
							"internalType": "address",
							"name": "contractPermission",
							"type": "address"
						}
					],
					"name": "addPermission",
					"outputs": [],
					"stateMutability": "nonpayable",
					"type": "function"
				},
				{
					"inputs": [
						{
							"components": [
								{
									"internalType": "uint256",
									"name": "productCode",
									"type": "uint256"
								},
								{
									"internalType": "string",
									"name": "productName",
									"type": "string"
								},
								{
									"internalType": "string",
									"name": "date",
									"type": "string"
								},
								{
									"internalType": "string",
									"name": "location",
									"type": "string"
								},
								{
									"internalType": "string",
									"name": "photo",
									"type": "string"
								},
								{
									"internalType": "string",
									"name": "userName",
									"type": "string"
								},
								{
									"internalType": "uint256",
									"name": "userCccd",
									"type": "uint256"
								},
								{
									"internalType": "string",
									"name": "categories",
									"type": "string"
								},
								{
									"internalType": "bool",
									"name": "step7IsChecked",
									"type": "bool"
								}
							],
							"internalType": "struct Step7",
							"name": "item",
							"type": "tuple"
						}
					],
					"name": "addStep7",
					"outputs": [],
					"stateMutability": "nonpayable",
					"type": "function"
				},
				{
					"inputs": [],
					"name": "destroy",
					"outputs": [],
					"stateMutability": "nonpayable",
					"type": "function"
				},
				{
					"inputs": [],
					"name": "getAllStep7",
					"outputs": [
						{
							"components": [
								{
									"internalType": "uint256",
									"name": "productCode",
									"type": "uint256"
								},
								{
									"internalType": "string",
									"name": "productName",
									"type": "string"
								},
								{
									"internalType": "string",
									"name": "date",
									"type": "string"
								},
								{
									"internalType": "string",
									"name": "location",
									"type": "string"
								},
								{
									"internalType": "string",
									"name": "photo",
									"type": "string"
								},
								{
									"internalType": "string",
									"name": "userName",
									"type": "string"
								},
								{
									"internalType": "uint256",
									"name": "userCccd",
									"type": "uint256"
								},
								{
									"internalType": "string",
									"name": "categories",
									"type": "string"
								},
								{
									"internalType": "bool",
									"name": "step7IsChecked",
									"type": "bool"
								}
							],
							"internalType": "struct Step7[]",
							"name": "",
							"type": "tuple[]"
						}
					],
					"stateMutability": "view",
					"type": "function"
				},
				{
					"inputs": [],
					"name": "owner",
					"outputs": [
						{
							"internalType": "address",
							"name": "",
							"type": "address"
						}
					],
					"stateMutability": "view",
					"type": "function"
				},
				{
					"inputs": [
						{
							"internalType": "address",
							"name": "newOwner",
							"type": "address"
						}
					],
					"name": "transferOwnership",
					"outputs": [],
					"stateMutability": "nonpayable",
					"type": "function"
				}
			],
			"devdoc": {
				"kind": "dev",
				"methods": {
					"owner()": {
						"details": "Returns the address of the current owner."
					},
					"transferOwnership(address)": {
						"details": "Transfers ownership of the contract to a new account (`newOwner`). Can only be called by the current owner."
					}
				},
				"version": 1
			},
			"evm": {
				"assembly": "    /* \"database/processing/Step7Database.sol\":182:1168  contract Step7Database is Ownable {... */\n  mstore(0x40, 0x80)\n    /* \"database/processing/Step7Database.sol\":492:518  constructor() Ownable() {} */\n  callvalue\n  dup1\n  iszero\n  tag_1\n  jumpi\n  0x00\n  dup1\n  revert\ntag_1:\n  pop\n    /* \"abstract/Ownable.sol\":1032:1042  msg.sender */\n  caller\n    /* \"abstract/Ownable.sol\":1023:1029  _owner */\n  0x00\n  dup1\n    /* \"abstract/Ownable.sol\":1023:1042  _owner = msg.sender */\n  0x0100\n  exp\n  dup2\n  sload\n  dup2\n  0xffffffffffffffffffffffffffffffffffffffff\n  mul\n  not\n  and\n  swap1\n  dup4\n  0xffffffffffffffffffffffffffffffffffffffff\n  and\n  mul\n  or\n  swap1\n  sstore\n  pop\n    /* \"database/processing/Step7Database.sol\":182:1168  contract Step7Database is Ownable {... */\n  dataSize(sub_0)\n  dup1\n  dataOffset(sub_0)\n  0x00\n  codecopy\n  0x00\n  return\nstop\n\nsub_0: assembly {\n        /* \"database/processing/Step7Database.sol\":182:1168  contract Step7Database is Ownable {... */\n      mstore(0x40, 0x80)\n      callvalue\n      dup1\n      iszero\n      tag_1\n      jumpi\n      0x00\n      dup1\n      revert\n    tag_1:\n      pop\n      jumpi(tag_2, lt(calldatasize, 0x04))\n      shr(0xe0, calldataload(0x00))\n      dup1\n      0x83197ef0\n      gt\n      tag_10\n      jumpi\n      dup1\n      0x83197ef0\n      eq\n      tag_6\n      jumpi\n      dup1\n      0x8da5cb5b\n      eq\n      tag_7\n      jumpi\n      dup1\n      0xee416d5b\n      eq\n      tag_8\n      jumpi\n      dup1\n      0xf2fde38b\n      eq\n      tag_9\n      jumpi\n      jump(tag_2)\n    tag_10:\n      dup1\n      0x4569bd4f\n      eq\n      tag_3\n      jumpi\n      dup1\n      0x4d0a5dbd\n      eq\n      tag_4\n      jumpi\n      dup1\n      0x695d98cf\n      eq\n      tag_5\n      jumpi\n    tag_2:\n      0x00\n      dup1\n      revert\n        /* \"database/processing/Step7Database.sol\":1018:1165  function getAllStep7()... */\n    tag_3:\n      tag_11\n      tag_12\n      jump\t// in\n    tag_11:\n      mload(0x40)\n      tag_13\n      swap2\n      swap1\n      tag_14\n      jump\t// in\n    tag_13:\n      mload(0x40)\n      dup1\n      swap2\n      sub\n      swap1\n      return\n        /* \"database/processing/Step7Database.sol\":526:786  function addPermission(address contractPermission) public onlyOwner {... */\n    tag_4:\n      tag_15\n      0x04\n      dup1\n      calldatasize\n      sub\n      dup2\n      add\n      swap1\n      tag_16\n      swap2\n      swap1\n      tag_17\n      jump\t// in\n    tag_16:\n      tag_18\n      jump\t// in\n    tag_15:\n      stop\n        /* \"database/processing/Step7Database.sol\":794:888  function addStep7(Step7 memory item) public onlyPermissions {... */\n    tag_5:\n      tag_19\n      0x04\n      dup1\n      calldatasize\n      sub\n      dup2\n      add\n      swap1\n      tag_20\n      swap2\n      swap1\n      tag_21\n      jump\t// in\n    tag_20:\n      tag_22\n      jump\t// in\n    tag_19:\n      stop\n        /* \"abstract/Ownable.sol\":2801:2892  function destroy() public onlyOwner {... */\n    tag_6:\n      tag_23\n      tag_24\n      jump\t// in\n    tag_23:\n      stop\n        /* \"abstract/Ownable.sol\":1289:1376  function owner() public view virtual returns (address) {... */\n    tag_7:\n      tag_25\n      tag_26\n      jump\t// in\n    tag_25:\n      mload(0x40)\n      tag_27\n      swap2\n      swap1\n      tag_28\n      jump\t// in\n    tag_27:\n      mload(0x40)\n      dup1\n      swap2\n      sub\n      swap1\n      return\n        /* \"database/processing/Step7Database.sol\":896:1010  function addChecked(uint256 Step7Id) public onlyPermissions {... */\n    tag_8:\n      tag_29\n      0x04\n      dup1\n      calldatasize\n      sub\n      dup2\n      add\n      swap1\n      tag_30\n      swap2\n      swap1\n      tag_31\n      jump\t// in\n    tag_30:\n      tag_32\n      jump\t// in\n    tag_29:\n      stop\n        /* \"abstract/Ownable.sol\":2204:2442  function transferOwnership(address newOwner) public virtual onlyOwner {... */\n    tag_9:\n      tag_33\n      0x04\n      dup1\n      calldatasize\n      sub\n      dup2\n      add\n      swap1\n      tag_34\n      swap2\n      swap1\n      tag_17\n      jump\t// in\n    tag_34:\n      tag_35\n      jump\t// in\n    tag_33:\n      stop\n        /* \"database/processing/Step7Database.sol\":1018:1165  function getAllStep7()... */\n    tag_12:\n        /* \"database/processing/Step7Database.sol\":1114:1128  Step7[] memory */\n      0x60\n        /* \"database/processing/Step7Database.sol\":365:376  permissions */\n      0x02\n        /* \"database/processing/Step7Database.sol\":365:390  permissions[_msgSender()] */\n      0x00\n        /* \"database/processing/Step7Database.sol\":377:389  _msgSender() */\n      tag_37\n        /* \"database/processing/Step7Database.sol\":377:387  _msgSender */\n      tag_38\n        /* \"database/processing/Step7Database.sol\":377:389  _msgSender() */\n      jump\t// in\n    tag_37:\n        /* \"database/processing/Step7Database.sol\":365:390  permissions[_msgSender()] */\n      0xffffffffffffffffffffffffffffffffffffffff\n      and\n      0xffffffffffffffffffffffffffffffffffffffff\n      and\n      dup2\n      mstore\n      0x20\n      add\n      swap1\n      dup2\n      mstore\n      0x20\n      add\n      0x00\n      keccak256\n      0x00\n      swap1\n      sload\n      swap1\n      0x0100\n      exp\n      swap1\n      div\n      0xff\n      and\n        /* \"database/processing/Step7Database.sol\":343:464  require(... */\n      tag_39\n      jumpi\n      mload(0x40)\n      0x08c379a000000000000000000000000000000000000000000000000000000000\n      dup2\n      mstore\n      0x04\n      add\n      tag_40\n      swap1\n      tag_41\n      jump\t// in\n    tag_40:\n      mload(0x40)\n      dup1\n      swap2\n      sub\n      swap1\n      revert\n    tag_39:\n        /* \"database/processing/Step7Database.sol\":1153:1157  list */\n      0x01\n        /* \"database/processing/Step7Database.sol\":1146:1157  return list */\n      dup1\n      sload\n      dup1\n      0x20\n      mul\n      0x20\n      add\n      mload(0x40)\n      swap1\n      dup2\n      add\n      0x40\n      mstore\n      dup1\n      swap3\n      swap2\n      swap1\n      dup2\n      dup2\n      mstore\n      0x20\n      add\n      0x00\n      swap1\n    tag_43:\n      dup3\n      dup3\n      lt\n      iszero\n      tag_44\n      jumpi\n      dup4\n      dup3\n      swap1\n      0x00\n      mstore\n      keccak256(0x00, 0x20)\n      swap1\n      0x09\n      mul\n      add\n      mload(0x40)\n      dup1\n      0x0120\n      add\n      0x40\n      mstore\n      swap1\n      dup2\n      0x00\n      dup3\n      add\n      sload\n      dup2\n      mstore\n      0x20\n      add\n      0x01\n      dup3\n      add\n      dup1\n      sload\n      tag_46\n      swap1\n      tag_47\n      jump\t// in\n    tag_46:\n      dup1\n      0x1f\n      add\n      0x20\n      dup1\n      swap2\n      div\n      mul\n      0x20\n      add\n      mload(0x40)\n      swap1\n      dup2\n      add\n      0x40\n      mstore\n      dup1\n      swap3\n      swap2\n      swap1\n      dup2\n      dup2\n      mstore\n      0x20\n      add\n      dup3\n      dup1\n      sload\n      tag_48\n      swap1\n      tag_47\n      jump\t// in\n    tag_48:\n      dup1\n      iszero\n      tag_49\n      jumpi\n      dup1\n      0x1f\n      lt\n      tag_50\n      jumpi\n      0x0100\n      dup1\n      dup4\n      sload\n      div\n      mul\n      dup4\n      mstore\n      swap2\n      0x20\n      add\n      swap2\n      jump(tag_49)\n    tag_50:\n      dup3\n      add\n      swap2\n      swap1\n      0x00\n      mstore\n      keccak256(0x00, 0x20)\n      swap1\n    tag_51:\n      dup2\n      sload\n      dup2\n      mstore\n      swap1\n      0x01\n      add\n      swap1\n      0x20\n      add\n      dup1\n      dup4\n      gt\n      tag_51\n      jumpi\n      dup3\n      swap1\n      sub\n      0x1f\n      and\n      dup3\n      add\n      swap2\n    tag_49:\n      pop\n      pop\n      pop\n      pop\n      pop\n      dup2\n      mstore\n      0x20\n      add\n      0x02\n      dup3\n      add\n      dup1\n      sload\n      tag_52\n      swap1\n      tag_47\n      jump\t// in\n    tag_52:\n      dup1\n      0x1f\n      add\n      0x20\n      dup1\n      swap2\n      div\n      mul\n      0x20\n      add\n      mload(0x40)\n      swap1\n      dup2\n      add\n      0x40\n      mstore\n      dup1\n      swap3\n      swap2\n      swap1\n      dup2\n      dup2\n      mstore\n      0x20\n      add\n      dup3\n      dup1\n      sload\n      tag_53\n      swap1\n      tag_47\n      jump\t// in\n    tag_53:\n      dup1\n      iszero\n      tag_54\n      jumpi\n      dup1\n      0x1f\n      lt\n      tag_55\n      jumpi\n      0x0100\n      dup1\n      dup4\n      sload\n      div\n      mul\n      dup4\n      mstore\n      swap2\n      0x20\n      add\n      swap2\n      jump(tag_54)\n    tag_55:\n      dup3\n      add\n      swap2\n      swap1\n      0x00\n      mstore\n      keccak256(0x00, 0x20)\n      swap1\n    tag_56:\n      dup2\n      sload\n      dup2\n      mstore\n      swap1\n      0x01\n      add\n      swap1\n      0x20\n      add\n      dup1\n      dup4\n      gt\n      tag_56\n      jumpi\n      dup3\n      swap1\n      sub\n      0x1f\n      and\n      dup3\n      add\n      swap2\n    tag_54:\n      pop\n      pop\n      pop\n      pop\n      pop\n      dup2\n      mstore\n      0x20\n      add\n      0x03\n      dup3\n      add\n      dup1\n      sload\n      tag_57\n      swap1\n      tag_47\n      jump\t// in\n    tag_57:\n      dup1\n      0x1f\n      add\n      0x20\n      dup1\n      swap2\n      div\n      mul\n      0x20\n      add\n      mload(0x40)\n      swap1\n      dup2\n      add\n      0x40\n      mstore\n      dup1\n      swap3\n      swap2\n      swap1\n      dup2\n      dup2\n      mstore\n      0x20\n      add\n      dup3\n      dup1\n      sload\n      tag_58\n      swap1\n      tag_47\n      jump\t// in\n    tag_58:\n      dup1\n      iszero\n      tag_59\n      jumpi\n      dup1\n      0x1f\n      lt\n      tag_60\n      jumpi\n      0x0100\n      dup1\n      dup4\n      sload\n      div\n      mul\n      dup4\n      mstore\n      swap2\n      0x20\n      add\n      swap2\n      jump(tag_59)\n    tag_60:\n      dup3\n      add\n      swap2\n      swap1\n      0x00\n      mstore\n      keccak256(0x00, 0x20)\n      swap1\n    tag_61:\n      dup2\n      sload\n      dup2\n      mstore\n      swap1\n      0x01\n      add\n      swap1\n      0x20\n      add\n      dup1\n      dup4\n      gt\n      tag_61\n      jumpi\n      dup3\n      swap1\n      sub\n      0x1f\n      and\n      dup3\n      add\n      swap2\n    tag_59:\n      pop\n      pop\n      pop\n      pop\n      pop\n      dup2\n      mstore\n      0x20\n      add\n      0x04\n      dup3\n      add\n      dup1\n      sload\n      tag_62\n      swap1\n      tag_47\n      jump\t// in\n    tag_62:\n      dup1\n      0x1f\n      add\n      0x20\n      dup1\n      swap2\n      div\n      mul\n      0x20\n      add\n      mload(0x40)\n      swap1\n      dup2\n      add\n      0x40\n      mstore\n      dup1\n      swap3\n      swap2\n      swap1\n      dup2\n      dup2\n      mstore\n      0x20\n      add\n      dup3\n      dup1\n      sload\n      tag_63\n      swap1\n      tag_47\n      jump\t// in\n    tag_63:\n      dup1\n      iszero\n      tag_64\n      jumpi\n      dup1\n      0x1f\n      lt\n      tag_65\n      jumpi\n      0x0100\n      dup1\n      dup4\n      sload\n      div\n      mul\n      dup4\n      mstore\n      swap2\n      0x20\n      add\n      swap2\n      jump(tag_64)\n    tag_65:\n      dup3\n      add\n      swap2\n      swap1\n      0x00\n      mstore\n      keccak256(0x00, 0x20)\n      swap1\n    tag_66:\n      dup2\n      sload\n      dup2\n      mstore\n      swap1\n      0x01\n      add\n      swap1\n      0x20\n      add\n      dup1\n      dup4\n      gt\n      tag_66\n      jumpi\n      dup3\n      swap1\n      sub\n      0x1f\n      and\n      dup3\n      add\n      swap2\n    tag_64:\n      pop\n      pop\n      pop\n      pop\n      pop\n      dup2\n      mstore\n      0x20\n      add\n      0x05\n      dup3\n      add\n      dup1\n      sload\n      tag_67\n      swap1\n      tag_47\n      jump\t// in\n    tag_67:\n      dup1\n      0x1f\n      add\n      0x20\n      dup1\n      swap2\n      div\n      mul\n      0x20\n      add\n      mload(0x40)\n      swap1\n      dup2\n      add\n      0x40\n      mstore\n      dup1\n      swap3\n      swap2\n      swap1\n      dup2\n      dup2\n      mstore\n      0x20\n      add\n      dup3\n      dup1\n      sload\n      tag_68\n      swap1\n      tag_47\n      jump\t// in\n    tag_68:\n      dup1\n      iszero\n      tag_69\n      jumpi\n      dup1\n      0x1f\n      lt\n      tag_70\n      jumpi\n      0x0100\n      dup1\n      dup4\n      sload\n      div\n      mul\n      dup4\n      mstore\n      swap2\n      0x20\n      add\n      swap2\n      jump(tag_69)\n    tag_70:\n      dup3\n      add\n      swap2\n      swap1\n      0x00\n      mstore\n      keccak256(0x00, 0x20)\n      swap1\n    tag_71:\n      dup2\n      sload\n      dup2\n      mstore\n      swap1\n      0x01\n      add\n      swap1\n      0x20\n      add\n      dup1\n      dup4\n      gt\n      tag_71\n      jumpi\n      dup3\n      swap1\n      sub\n      0x1f\n      and\n      dup3\n      add\n      swap2\n    tag_69:\n      pop\n      pop\n      pop\n      pop\n      pop\n      dup2\n      mstore\n      0x20\n      add\n      0x06\n      dup3\n      add\n      sload\n      dup2\n      mstore\n      0x20\n      add\n      0x07\n      dup3\n      add\n      dup1\n      sload\n      tag_72\n      swap1\n      tag_47\n      jump\t// in\n    tag_72:\n      dup1\n      0x1f\n      add\n      0x20\n      dup1\n      swap2\n      div\n      mul\n      0x20\n      add\n      mload(0x40)\n      swap1\n      dup2\n      add\n      0x40\n      mstore\n      dup1\n      swap3\n      swap2\n      swap1\n      dup2\n      dup2\n      mstore\n      0x20\n      add\n      dup3\n      dup1\n      sload\n      tag_73\n      swap1\n      tag_47\n      jump\t// in\n    tag_73:\n      dup1\n      iszero\n      tag_74\n      jumpi\n      dup1\n      0x1f\n      lt\n      tag_75\n      jumpi\n      0x0100\n      dup1\n      dup4\n      sload\n      div\n      mul\n      dup4\n      mstore\n      swap2\n      0x20\n      add\n      swap2\n      jump(tag_74)\n    tag_75:\n      dup3\n      add\n      swap2\n      swap1\n      0x00\n      mstore\n      keccak256(0x00, 0x20)\n      swap1\n    tag_76:\n      dup2\n      sload\n      dup2\n      mstore\n      swap1\n      0x01\n      add\n      swap1\n      0x20\n      add\n      dup1\n      dup4\n      gt\n      tag_76\n      jumpi\n      dup3\n      swap1\n      sub\n      0x1f\n      and\n      dup3\n      add\n      swap2\n    tag_74:\n      pop\n      pop\n      pop\n      pop\n      pop\n      dup2\n      mstore\n      0x20\n      add\n      0x08\n      dup3\n      add\n      0x00\n      swap1\n      sload\n      swap1\n      0x0100\n      exp\n      swap1\n      div\n      0xff\n      and\n      iszero\n      iszero\n      iszero\n      iszero\n      dup2\n      mstore\n      pop\n      pop\n      dup2\n      mstore\n      0x20\n      add\n      swap1\n      0x01\n      add\n      swap1\n      jump(tag_43)\n    tag_44:\n      pop\n      pop\n      pop\n      pop\n      swap1\n      pop\n        /* \"database/processing/Step7Database.sol\":1018:1165  function getAllStep7()... */\n      swap1\n      jump\t// out\n        /* \"database/processing/Step7Database.sol\":526:786  function addPermission(address contractPermission) public onlyOwner {... */\n    tag_18:\n        /* \"abstract/Ownable.sol\":1175:1188  _checkOwner() */\n      tag_78\n        /* \"abstract/Ownable.sol\":1175:1186  _checkOwner */\n      tag_79\n        /* \"abstract/Ownable.sol\":1175:1188  _checkOwner() */\n      jump\t// in\n    tag_78:\n        /* \"database/processing/Step7Database.sol\":628:639  permissions */\n      0x02\n        /* \"database/processing/Step7Database.sol\":628:659  permissions[contractPermission] */\n      0x00\n        /* \"database/processing/Step7Database.sol\":640:658  contractPermission */\n      dup3\n        /* \"database/processing/Step7Database.sol\":628:659  permissions[contractPermission] */\n      0xffffffffffffffffffffffffffffffffffffffff\n      and\n      0xffffffffffffffffffffffffffffffffffffffff\n      and\n      dup2\n      mstore\n      0x20\n      add\n      swap1\n      dup2\n      mstore\n      0x20\n      add\n      0x00\n      keccak256\n      0x00\n      swap1\n      sload\n      swap1\n      0x0100\n      exp\n      swap1\n      div\n      0xff\n      and\n        /* \"database/processing/Step7Database.sol\":627:659  !permissions[contractPermission] */\n      iszero\n        /* \"database/processing/Step7Database.sol\":605:729  require(... */\n      tag_81\n      jumpi\n      mload(0x40)\n      0x08c379a000000000000000000000000000000000000000000000000000000000\n      dup2\n      mstore\n      0x04\n      add\n      tag_82\n      swap1\n      tag_83\n      jump\t// in\n    tag_82:\n      mload(0x40)\n      dup1\n      swap2\n      sub\n      swap1\n      revert\n    tag_81:\n        /* \"database/processing/Step7Database.sol\":774:778  true */\n      0x01\n        /* \"database/processing/Step7Database.sol\":740:751  permissions */\n      0x02\n        /* \"database/processing/Step7Database.sol\":740:771  permissions[contractPermission] */\n      0x00\n        /* \"database/processing/Step7Database.sol\":752:770  contractPermission */\n      dup4\n        /* \"database/processing/Step7Database.sol\":740:771  permissions[contractPermission] */\n      0xffffffffffffffffffffffffffffffffffffffff\n      and\n      0xffffffffffffffffffffffffffffffffffffffff\n      and\n      dup2\n      mstore\n      0x20\n      add\n      swap1\n      dup2\n      mstore\n      0x20\n      add\n      0x00\n      keccak256\n      0x00\n        /* \"database/processing/Step7Database.sol\":740:778  permissions[contractPermission] = true */\n      0x0100\n      exp\n      dup2\n      sload\n      dup2\n      0xff\n      mul\n      not\n      and\n      swap1\n      dup4\n      iszero\n      iszero\n      mul\n      or\n      swap1\n      sstore\n      pop\n        /* \"database/processing/Step7Database.sol\":526:786  function addPermission(address contractPermission) public onlyOwner {... */\n      pop\n      jump\t// out\n        /* \"database/processing/Step7Database.sol\":794:888  function addStep7(Step7 memory item) public onlyPermissions {... */\n    tag_22:\n        /* \"database/processing/Step7Database.sol\":365:376  permissions */\n      0x02\n        /* \"database/processing/Step7Database.sol\":365:390  permissions[_msgSender()] */\n      0x00\n        /* \"database/processing/Step7Database.sol\":377:389  _msgSender() */\n      tag_85\n        /* \"database/processing/Step7Database.sol\":377:387  _msgSender */\n      tag_38\n        /* \"database/processing/Step7Database.sol\":377:389  _msgSender() */\n      jump\t// in\n    tag_85:\n        /* \"database/processing/Step7Database.sol\":365:390  permissions[_msgSender()] */\n      0xffffffffffffffffffffffffffffffffffffffff\n      and\n      0xffffffffffffffffffffffffffffffffffffffff\n      and\n      dup2\n      mstore\n      0x20\n      add\n      swap1\n      dup2\n      mstore\n      0x20\n      add\n      0x00\n      keccak256\n      0x00\n      swap1\n      sload\n      swap1\n      0x0100\n      exp\n      swap1\n      div\n      0xff\n      and\n        /* \"database/processing/Step7Database.sol\":343:464  require(... */\n      tag_86\n      jumpi\n      mload(0x40)\n      0x08c379a000000000000000000000000000000000000000000000000000000000\n      dup2\n      mstore\n      0x04\n      add\n      tag_87\n      swap1\n      tag_41\n      jump\t// in\n    tag_87:\n      mload(0x40)\n      dup1\n      swap2\n      sub\n      swap1\n      revert\n    tag_86:\n        /* \"database/processing/Step7Database.sol\":865:869  list */\n      0x01\n        /* \"database/processing/Step7Database.sol\":875:879  item */\n      dup2\n        /* \"database/processing/Step7Database.sol\":865:880  list.push(item) */\n      swap1\n      dup1\n      0x01\n      dup2\n      sload\n      add\n      dup1\n      dup3\n      sstore\n      dup1\n      swap2\n      pop\n      pop\n      0x01\n      swap1\n      sub\n      swap1\n      0x00\n      mstore\n      keccak256(0x00, 0x20)\n      swap1\n      0x09\n      mul\n      add\n      0x00\n      swap1\n      swap2\n      swap1\n      swap2\n      swap1\n      swap2\n      pop\n      0x00\n      dup3\n      add\n      mload\n      dup2\n      0x00\n      add\n      sstore\n      0x20\n      dup3\n      add\n      mload\n      dup2\n      0x01\n      add\n      swap1\n      dup2\n      tag_90\n      swap2\n      swap1\n      tag_91\n      jump\t// in\n    tag_90:\n      pop\n      0x40\n      dup3\n      add\n      mload\n      dup2\n      0x02\n      add\n      swap1\n      dup2\n      tag_92\n      swap2\n      swap1\n      tag_91\n      jump\t// in\n    tag_92:\n      pop\n      0x60\n      dup3\n      add\n      mload\n      dup2\n      0x03\n      add\n      swap1\n      dup2\n      tag_93\n      swap2\n      swap1\n      tag_91\n      jump\t// in\n    tag_93:\n      pop\n      0x80\n      dup3\n      add\n      mload\n      dup2\n      0x04\n      add\n      swap1\n      dup2\n      tag_94\n      swap2\n      swap1\n      tag_91\n      jump\t// in\n    tag_94:\n      pop\n      0xa0\n      dup3\n      add\n      mload\n      dup2\n      0x05\n      add\n      swap1\n      dup2\n      tag_95\n      swap2\n      swap1\n      tag_91\n      jump\t// in\n    tag_95:\n      pop\n      0xc0\n      dup3\n      add\n      mload\n      dup2\n      0x06\n      add\n      sstore\n      0xe0\n      dup3\n      add\n      mload\n      dup2\n      0x07\n      add\n      swap1\n      dup2\n      tag_96\n      swap2\n      swap1\n      tag_91\n      jump\t// in\n    tag_96:\n      pop\n      0x0100\n      dup3\n      add\n      mload\n      dup2\n      0x08\n      add\n      exp(0x0100, 0x00)\n      dup2\n      sload\n      dup2\n      0xff\n      mul\n      not\n      and\n      swap1\n      dup4\n      iszero\n      iszero\n      mul\n      or\n      swap1\n      sstore\n      pop\n      pop\n      pop\n        /* \"database/processing/Step7Database.sol\":794:888  function addStep7(Step7 memory item) public onlyPermissions {... */\n      pop\n      jump\t// out\n        /* \"abstract/Ownable.sol\":2801:2892  function destroy() public onlyOwner {... */\n    tag_24:\n        /* \"abstract/Ownable.sol\":1175:1188  _checkOwner() */\n      tag_98\n        /* \"abstract/Ownable.sol\":1175:1186  _checkOwner */\n      tag_79\n        /* \"abstract/Ownable.sol\":1175:1188  _checkOwner() */\n      jump\t// in\n    tag_98:\n        /* \"abstract/Ownable.sol\":2877:2881  this */\n      address\n        /* \"abstract/Ownable.sol\":2848:2884  selfdestruct(payable(address(this))) */\n      0xffffffffffffffffffffffffffffffffffffffff\n      and\n      selfdestruct\n        /* \"abstract/Ownable.sol\":1289:1376  function owner() public view virtual returns (address) {... */\n    tag_26:\n        /* \"abstract/Ownable.sol\":1335:1342  address */\n      0x00\n        /* \"abstract/Ownable.sol\":1362:1368  _owner */\n      dup1\n      0x00\n      swap1\n      sload\n      swap1\n      0x0100\n      exp\n      swap1\n      div\n      0xffffffffffffffffffffffffffffffffffffffff\n      and\n        /* \"abstract/Ownable.sol\":1355:1368  return _owner */\n      swap1\n      pop\n        /* \"abstract/Ownable.sol\":1289:1376  function owner() public view virtual returns (address) {... */\n      swap1\n      jump\t// out\n        /* \"database/processing/Step7Database.sol\":896:1010  function addChecked(uint256 Step7Id) public onlyPermissions {... */\n    tag_32:\n        /* \"database/processing/Step7Database.sol\":365:376  permissions */\n      0x02\n        /* \"database/processing/Step7Database.sol\":365:390  permissions[_msgSender()] */\n      0x00\n        /* \"database/processing/Step7Database.sol\":377:389  _msgSender() */\n      tag_102\n        /* \"database/processing/Step7Database.sol\":377:387  _msgSender */\n      tag_38\n        /* \"database/processing/Step7Database.sol\":377:389  _msgSender() */\n      jump\t// in\n    tag_102:\n        /* \"database/processing/Step7Database.sol\":365:390  permissions[_msgSender()] */\n      0xffffffffffffffffffffffffffffffffffffffff\n      and\n      0xffffffffffffffffffffffffffffffffffffffff\n      and\n      dup2\n      mstore\n      0x20\n      add\n      swap1\n      dup2\n      mstore\n      0x20\n      add\n      0x00\n      keccak256\n      0x00\n      swap1\n      sload\n      swap1\n      0x0100\n      exp\n      swap1\n      div\n      0xff\n      and\n        /* \"database/processing/Step7Database.sol\":343:464  require(... */\n      tag_103\n      jumpi\n      mload(0x40)\n      0x08c379a000000000000000000000000000000000000000000000000000000000\n      dup2\n      mstore\n      0x04\n      add\n      tag_104\n      swap1\n      tag_41\n      jump\t// in\n    tag_104:\n      mload(0x40)\n      dup1\n      swap2\n      sub\n      swap1\n      revert\n    tag_103:\n        /* \"database/processing/Step7Database.sol\":998:1002  true */\n      0x01\n        /* \"database/processing/Step7Database.sol\":967:971  list */\n      dup1\n        /* \"database/processing/Step7Database.sol\":972:979  Step7Id */\n      dup3\n        /* \"database/processing/Step7Database.sol\":967:980  list[Step7Id] */\n      dup2\n      sload\n      dup2\n      lt\n      tag_106\n      jumpi\n      tag_107\n      tag_108\n      jump\t// in\n    tag_107:\n    tag_106:\n      swap1\n      0x00\n      mstore\n      keccak256(0x00, 0x20)\n      swap1\n      0x09\n      mul\n      add\n        /* \"database/processing/Step7Database.sol\":967:995  list[Step7Id].step7IsChecked */\n      0x08\n      add\n      0x00\n        /* \"database/processing/Step7Database.sol\":967:1002  list[Step7Id].step7IsChecked = true */\n      0x0100\n      exp\n      dup2\n      sload\n      dup2\n      0xff\n      mul\n      not\n      and\n      swap1\n      dup4\n      iszero\n      iszero\n      mul\n      or\n      swap1\n      sstore\n      pop\n        /* \"database/processing/Step7Database.sol\":896:1010  function addChecked(uint256 Step7Id) public onlyPermissions {... */\n      pop\n      jump\t// out\n        /* \"abstract/Ownable.sol\":2204:2442  function transferOwnership(address newOwner) public virtual onlyOwner {... */\n    tag_35:\n        /* \"abstract/Ownable.sol\":1175:1188  _checkOwner() */\n      tag_111\n        /* \"abstract/Ownable.sol\":1175:1186  _checkOwner */\n      tag_79\n        /* \"abstract/Ownable.sol\":1175:1188  _checkOwner() */\n      jump\t// in\n    tag_111:\n        /* \"abstract/Ownable.sol\":2327:2328  0 */\n      0x00\n        /* \"abstract/Ownable.sol\":2307:2329  newOwner != address(0) */\n      0xffffffffffffffffffffffffffffffffffffffff\n      and\n        /* \"abstract/Ownable.sol\":2307:2315  newOwner */\n      dup2\n        /* \"abstract/Ownable.sol\":2307:2329  newOwner != address(0) */\n      0xffffffffffffffffffffffffffffffffffffffff\n      and\n      sub\n        /* \"abstract/Ownable.sol\":2285:2395  require(... */\n      tag_113\n      jumpi\n      mload(0x40)\n      0x08c379a000000000000000000000000000000000000000000000000000000000\n      dup2\n      mstore\n      0x04\n      add\n      tag_114\n      swap1\n      tag_115\n      jump\t// in\n    tag_114:\n      mload(0x40)\n      dup1\n      swap2\n      sub\n      swap1\n      revert\n    tag_113:\n        /* \"abstract/Ownable.sol\":2406:2434  _transferOwnership(newOwner) */\n      tag_116\n        /* \"abstract/Ownable.sol\":2425:2433  newOwner */\n      dup2\n        /* \"abstract/Ownable.sol\":2406:2424  _transferOwnership */\n      tag_117\n        /* \"abstract/Ownable.sol\":2406:2434  _transferOwnership(newOwner) */\n      jump\t// in\n    tag_116:\n        /* \"abstract/Ownable.sol\":2204:2442  function transferOwnership(address newOwner) public virtual onlyOwner {... */\n      pop\n      jump\t// out\n        /* \"@openzeppelin/contracts/utils/Context.sol\":640:736  function _msgSender() internal view virtual returns (address) {... */\n    tag_38:\n        /* \"@openzeppelin/contracts/utils/Context.sol\":693:700  address */\n      0x00\n        /* \"@openzeppelin/contracts/utils/Context.sol\":719:729  msg.sender */\n      caller\n        /* \"@openzeppelin/contracts/utils/Context.sol\":712:729  return msg.sender */\n      swap1\n      pop\n        /* \"@openzeppelin/contracts/utils/Context.sol\":640:736  function _msgSender() internal view virtual returns (address) {... */\n      swap1\n      jump\t// out\n        /* \"abstract/Ownable.sol\":1454:1584  function _checkOwner() internal view virtual {... */\n    tag_79:\n        /* \"abstract/Ownable.sol\":1529:1539  msg.sender */\n      caller\n        /* \"abstract/Ownable.sol\":1518:1539  owner() == msg.sender */\n      0xffffffffffffffffffffffffffffffffffffffff\n      and\n        /* \"abstract/Ownable.sol\":1518:1525  owner() */\n      tag_120\n        /* \"abstract/Ownable.sol\":1518:1523  owner */\n      tag_26\n        /* \"abstract/Ownable.sol\":1518:1525  owner() */\n      jump\t// in\n    tag_120:\n        /* \"abstract/Ownable.sol\":1518:1539  owner() == msg.sender */\n      0xffffffffffffffffffffffffffffffffffffffff\n      and\n      eq\n        /* \"abstract/Ownable.sol\":1510:1576  require(owner() == msg.sender, \"Ownable: caller is not the owner\") */\n      tag_121\n      jumpi\n      mload(0x40)\n      0x08c379a000000000000000000000000000000000000000000000000000000000\n      dup2\n      mstore\n      0x04\n      add\n      tag_122\n      swap1\n      tag_123\n      jump\t// in\n    tag_122:\n      mload(0x40)\n      dup1\n      swap2\n      sub\n      swap1\n      revert\n    tag_121:\n        /* \"abstract/Ownable.sol\":1454:1584  function _checkOwner() internal view virtual {... */\n      jump\t// out\n        /* \"abstract/Ownable.sol\":2602:2793  function _transferOwnership(address newOwner) internal virtual {... */\n    tag_117:\n        /* \"abstract/Ownable.sol\":2676:2692  address oldOwner */\n      0x00\n        /* \"abstract/Ownable.sol\":2695:2701  _owner */\n      dup1\n      0x00\n      swap1\n      sload\n      swap1\n      0x0100\n      exp\n      swap1\n      div\n      0xffffffffffffffffffffffffffffffffffffffff\n      and\n        /* \"abstract/Ownable.sol\":2676:2701  address oldOwner = _owner */\n      swap1\n      pop\n        /* \"abstract/Ownable.sol\":2721:2729  newOwner */\n      dup2\n        /* \"abstract/Ownable.sol\":2712:2718  _owner */\n      0x00\n      dup1\n        /* \"abstract/Ownable.sol\":2712:2729  _owner = newOwner */\n      0x0100\n      exp\n      dup2\n      sload\n      dup2\n      0xffffffffffffffffffffffffffffffffffffffff\n      mul\n      not\n      and\n      swap1\n      dup4\n      0xffffffffffffffffffffffffffffffffffffffff\n      and\n      mul\n      or\n      swap1\n      sstore\n      pop\n        /* \"abstract/Ownable.sol\":2776:2784  newOwner */\n      dup2\n        /* \"abstract/Ownable.sol\":2745:2785  OwnershipTransferred(oldOwner, newOwner) */\n      0xffffffffffffffffffffffffffffffffffffffff\n      and\n        /* \"abstract/Ownable.sol\":2766:2774  oldOwner */\n      dup2\n        /* \"abstract/Ownable.sol\":2745:2785  OwnershipTransferred(oldOwner, newOwner) */\n      0xffffffffffffffffffffffffffffffffffffffff\n      and\n      0x8be0079c531659141344cd1fd0a4f28419497f9722a3daafe3b4186f6b6457e0\n      mload(0x40)\n      mload(0x40)\n      dup1\n      swap2\n      sub\n      swap1\n      log3\n        /* \"abstract/Ownable.sol\":2665:2793  {... */\n      pop\n        /* \"abstract/Ownable.sol\":2602:2793  function _transferOwnership(address newOwner) internal virtual {... */\n      pop\n      jump\t// out\n        /* \"#utility.yul\":7:143   */\n    tag_125:\n        /* \"#utility.yul\":96:102   */\n      0x00\n        /* \"#utility.yul\":130:135   */\n      dup2\n        /* \"#utility.yul\":124:136   */\n      mload\n        /* \"#utility.yul\":114:136   */\n      swap1\n      pop\n        /* \"#utility.yul\":7:143   */\n      swap2\n      swap1\n      pop\n      jump\t// out\n        /* \"#utility.yul\":149:355   */\n    tag_126:\n        /* \"#utility.yul\":270:281   */\n      0x00\n        /* \"#utility.yul\":304:310   */\n      dup3\n        /* \"#utility.yul\":299:302   */\n      dup3\n        /* \"#utility.yul\":292:311   */\n      mstore\n        /* \"#utility.yul\":344:348   */\n      0x20\n        /* \"#utility.yul\":339:342   */\n      dup3\n        /* \"#utility.yul\":335:349   */\n      add\n        /* \"#utility.yul\":320:349   */\n      swap1\n      pop\n        /* \"#utility.yul\":149:355   */\n      swap3\n      swap2\n      pop\n      pop\n      jump\t// out\n        /* \"#utility.yul\":361:515   */\n    tag_127:\n        /* \"#utility.yul\":450:454   */\n      0x00\n        /* \"#utility.yul\":473:476   */\n      dup2\n        /* \"#utility.yul\":465:476   */\n      swap1\n      pop\n        /* \"#utility.yul\":503:507   */\n      0x20\n        /* \"#utility.yul\":498:501   */\n      dup3\n        /* \"#utility.yul\":494:508   */\n      add\n        /* \"#utility.yul\":486:508   */\n      swap1\n      pop\n        /* \"#utility.yul\":361:515   */\n      swap2\n      swap1\n      pop\n      jump\t// out\n        /* \"#utility.yul\":521:598   */\n    tag_128:\n        /* \"#utility.yul\":558:565   */\n      0x00\n        /* \"#utility.yul\":587:592   */\n      dup2\n        /* \"#utility.yul\":576:592   */\n      swap1\n      pop\n        /* \"#utility.yul\":521:598   */\n      swap2\n      swap1\n      pop\n      jump\t// out\n        /* \"#utility.yul\":604:712   */\n    tag_129:\n        /* \"#utility.yul\":681:705   */\n      tag_196\n        /* \"#utility.yul\":699:704   */\n      dup2\n        /* \"#utility.yul\":681:705   */\n      tag_128\n      jump\t// in\n    tag_196:\n        /* \"#utility.yul\":676:679   */\n      dup3\n        /* \"#utility.yul\":669:706   */\n      mstore\n        /* \"#utility.yul\":604:712   */\n      pop\n      pop\n      jump\t// out\n        /* \"#utility.yul\":718:817   */\n    tag_130:\n        /* \"#utility.yul\":770:776   */\n      0x00\n        /* \"#utility.yul\":804:809   */\n      dup2\n        /* \"#utility.yul\":798:810   */\n      mload\n        /* \"#utility.yul\":788:810   */\n      swap1\n      pop\n        /* \"#utility.yul\":718:817   */\n      swap2\n      swap1\n      pop\n      jump\t// out\n        /* \"#utility.yul\":823:982   */\n    tag_131:\n        /* \"#utility.yul\":897:908   */\n      0x00\n        /* \"#utility.yul\":931:937   */\n      dup3\n        /* \"#utility.yul\":926:929   */\n      dup3\n        /* \"#utility.yul\":919:938   */\n      mstore\n        /* \"#utility.yul\":971:975   */\n      0x20\n        /* \"#utility.yul\":966:969   */\n      dup3\n        /* \"#utility.yul\":962:976   */\n      add\n        /* \"#utility.yul\":947:976   */\n      swap1\n      pop\n        /* \"#utility.yul\":823:982   */\n      swap3\n      swap2\n      pop\n      pop\n      jump\t// out\n        /* \"#utility.yul\":988:1234   */\n    tag_132:\n        /* \"#utility.yul\":1069:1070   */\n      0x00\n        /* \"#utility.yul\":1079:1192   */\n    tag_200:\n        /* \"#utility.yul\":1093:1099   */\n      dup4\n        /* \"#utility.yul\":1090:1091   */\n      dup2\n        /* \"#utility.yul\":1087:1100   */\n      lt\n        /* \"#utility.yul\":1079:1192   */\n      iszero\n      tag_202\n      jumpi\n        /* \"#utility.yul\":1178:1179   */\n      dup1\n        /* \"#utility.yul\":1173:1176   */\n      dup3\n        /* \"#utility.yul\":1169:1180   */\n      add\n        /* \"#utility.yul\":1163:1181   */\n      mload\n        /* \"#utility.yul\":1159:1160   */\n      dup2\n        /* \"#utility.yul\":1154:1157   */\n      dup5\n        /* \"#utility.yul\":1150:1161   */\n      add\n        /* \"#utility.yul\":1143:1182   */\n      mstore\n        /* \"#utility.yul\":1115:1117   */\n      0x20\n        /* \"#utility.yul\":1112:1113   */\n      dup2\n        /* \"#utility.yul\":1108:1118   */\n      add\n        /* \"#utility.yul\":1103:1118   */\n      swap1\n      pop\n        /* \"#utility.yul\":1079:1192   */\n      jump(tag_200)\n    tag_202:\n        /* \"#utility.yul\":1226:1227   */\n      0x00\n        /* \"#utility.yul\":1217:1223   */\n      dup5\n        /* \"#utility.yul\":1212:1215   */\n      dup5\n        /* \"#utility.yul\":1208:1224   */\n      add\n        /* \"#utility.yul\":1201:1228   */\n      mstore\n        /* \"#utility.yul\":1050:1234   */\n      pop\n        /* \"#utility.yul\":988:1234   */\n      pop\n      pop\n      pop\n      jump\t// out\n        /* \"#utility.yul\":1240:1342   */\n    tag_133:\n        /* \"#utility.yul\":1281:1287   */\n      0x00\n        /* \"#utility.yul\":1332:1334   */\n      0x1f\n        /* \"#utility.yul\":1328:1335   */\n      not\n        /* \"#utility.yul\":1323:1325   */\n      0x1f\n        /* \"#utility.yul\":1316:1321   */\n      dup4\n        /* \"#utility.yul\":1312:1326   */\n      add\n        /* \"#utility.yul\":1308:1336   */\n      and\n        /* \"#utility.yul\":1298:1336   */\n      swap1\n      pop\n        /* \"#utility.yul\":1240:1342   */\n      swap2\n      swap1\n      pop\n      jump\t// out\n        /* \"#utility.yul\":1348:1705   */\n    tag_134:\n        /* \"#utility.yul\":1426:1429   */\n      0x00\n        /* \"#utility.yul\":1454:1493   */\n      tag_205\n        /* \"#utility.yul\":1487:1492   */\n      dup3\n        /* \"#utility.yul\":1454:1493   */\n      tag_130\n      jump\t// in\n    tag_205:\n        /* \"#utility.yul\":1509:1570   */\n      tag_206\n        /* \"#utility.yul\":1563:1569   */\n      dup2\n        /* \"#utility.yul\":1558:1561   */\n      dup6\n        /* \"#utility.yul\":1509:1570   */\n      tag_131\n      jump\t// in\n    tag_206:\n        /* \"#utility.yul\":1502:1570   */\n      swap4\n      pop\n        /* \"#utility.yul\":1579:1644   */\n      tag_207\n        /* \"#utility.yul\":1637:1643   */\n      dup2\n        /* \"#utility.yul\":1632:1635   */\n      dup6\n        /* \"#utility.yul\":1625:1629   */\n      0x20\n        /* \"#utility.yul\":1618:1623   */\n      dup7\n        /* \"#utility.yul\":1614:1630   */\n      add\n        /* \"#utility.yul\":1579:1644   */\n      tag_132\n      jump\t// in\n    tag_207:\n        /* \"#utility.yul\":1669:1698   */\n      tag_208\n        /* \"#utility.yul\":1691:1697   */\n      dup2\n        /* \"#utility.yul\":1669:1698   */\n      tag_133\n      jump\t// in\n    tag_208:\n        /* \"#utility.yul\":1664:1667   */\n      dup5\n        /* \"#utility.yul\":1660:1699   */\n      add\n        /* \"#utility.yul\":1653:1699   */\n      swap2\n      pop\n        /* \"#utility.yul\":1430:1705   */\n      pop\n        /* \"#utility.yul\":1348:1705   */\n      swap3\n      swap2\n      pop\n      pop\n      jump\t// out\n        /* \"#utility.yul\":1711:1801   */\n    tag_135:\n        /* \"#utility.yul\":1745:1752   */\n      0x00\n        /* \"#utility.yul\":1788:1793   */\n      dup2\n        /* \"#utility.yul\":1781:1794   */\n      iszero\n        /* \"#utility.yul\":1774:1795   */\n      iszero\n        /* \"#utility.yul\":1763:1795   */\n      swap1\n      pop\n        /* \"#utility.yul\":1711:1801   */\n      swap2\n      swap1\n      pop\n      jump\t// out\n        /* \"#utility.yul\":1807:1906   */\n    tag_136:\n        /* \"#utility.yul\":1878:1899   */\n      tag_211\n        /* \"#utility.yul\":1893:1898   */\n      dup2\n        /* \"#utility.yul\":1878:1899   */\n      tag_135\n      jump\t// in\n    tag_211:\n        /* \"#utility.yul\":1873:1876   */\n      dup3\n        /* \"#utility.yul\":1866:1900   */\n      mstore\n        /* \"#utility.yul\":1807:1906   */\n      pop\n      pop\n      jump\t// out\n        /* \"#utility.yul\":1948:4154   */\n    tag_137:\n        /* \"#utility.yul\":2051:2054   */\n      0x00\n        /* \"#utility.yul\":2087:2093   */\n      0x0120\n        /* \"#utility.yul\":2082:2085   */\n      dup4\n        /* \"#utility.yul\":2078:2094   */\n      add\n        /* \"#utility.yul\":2183:2187   */\n      0x00\n        /* \"#utility.yul\":2176:2181   */\n      dup4\n        /* \"#utility.yul\":2172:2188   */\n      add\n        /* \"#utility.yul\":2166:2189   */\n      mload\n        /* \"#utility.yul\":2202:2265   */\n      tag_213\n        /* \"#utility.yul\":2259:2263   */\n      0x00\n        /* \"#utility.yul\":2254:2257   */\n      dup7\n        /* \"#utility.yul\":2250:2264   */\n      add\n        /* \"#utility.yul\":2236:2248   */\n      dup3\n        /* \"#utility.yul\":2202:2265   */\n      tag_129\n      jump\t// in\n    tag_213:\n        /* \"#utility.yul\":2104:2275   */\n      pop\n        /* \"#utility.yul\":2364:2368   */\n      0x20\n        /* \"#utility.yul\":2357:2362   */\n      dup4\n        /* \"#utility.yul\":2353:2369   */\n      add\n        /* \"#utility.yul\":2347:2370   */\n      mload\n        /* \"#utility.yul\":2417:2420   */\n      dup5\n        /* \"#utility.yul\":2411:2415   */\n      dup3\n        /* \"#utility.yul\":2407:2421   */\n      sub\n        /* \"#utility.yul\":2400:2404   */\n      0x20\n        /* \"#utility.yul\":2395:2398   */\n      dup7\n        /* \"#utility.yul\":2391:2405   */\n      add\n        /* \"#utility.yul\":2384:2422   */\n      mstore\n        /* \"#utility.yul\":2443:2516   */\n      tag_214\n        /* \"#utility.yul\":2511:2515   */\n      dup3\n        /* \"#utility.yul\":2497:2509   */\n      dup3\n        /* \"#utility.yul\":2443:2516   */\n      tag_134\n      jump\t// in\n    tag_214:\n        /* \"#utility.yul\":2435:2516   */\n      swap2\n      pop\n        /* \"#utility.yul\":2285:2527   */\n      pop\n        /* \"#utility.yul\":2609:2613   */\n      0x40\n        /* \"#utility.yul\":2602:2607   */\n      dup4\n        /* \"#utility.yul\":2598:2614   */\n      add\n        /* \"#utility.yul\":2592:2615   */\n      mload\n        /* \"#utility.yul\":2662:2665   */\n      dup5\n        /* \"#utility.yul\":2656:2660   */\n      dup3\n        /* \"#utility.yul\":2652:2666   */\n      sub\n        /* \"#utility.yul\":2645:2649   */\n      0x40\n        /* \"#utility.yul\":2640:2643   */\n      dup7\n        /* \"#utility.yul\":2636:2650   */\n      add\n        /* \"#utility.yul\":2629:2667   */\n      mstore\n        /* \"#utility.yul\":2688:2761   */\n      tag_215\n        /* \"#utility.yul\":2756:2760   */\n      dup3\n        /* \"#utility.yul\":2742:2754   */\n      dup3\n        /* \"#utility.yul\":2688:2761   */\n      tag_134\n      jump\t// in\n    tag_215:\n        /* \"#utility.yul\":2680:2761   */\n      swap2\n      pop\n        /* \"#utility.yul\":2537:2772   */\n      pop\n        /* \"#utility.yul\":2858:2862   */\n      0x60\n        /* \"#utility.yul\":2851:2856   */\n      dup4\n        /* \"#utility.yul\":2847:2863   */\n      add\n        /* \"#utility.yul\":2841:2864   */\n      mload\n        /* \"#utility.yul\":2911:2914   */\n      dup5\n        /* \"#utility.yul\":2905:2909   */\n      dup3\n        /* \"#utility.yul\":2901:2915   */\n      sub\n        /* \"#utility.yul\":2894:2898   */\n      0x60\n        /* \"#utility.yul\":2889:2892   */\n      dup7\n        /* \"#utility.yul\":2885:2899   */\n      add\n        /* \"#utility.yul\":2878:2916   */\n      mstore\n        /* \"#utility.yul\":2937:3010   */\n      tag_216\n        /* \"#utility.yul\":3005:3009   */\n      dup3\n        /* \"#utility.yul\":2991:3003   */\n      dup3\n        /* \"#utility.yul\":2937:3010   */\n      tag_134\n      jump\t// in\n    tag_216:\n        /* \"#utility.yul\":2929:3010   */\n      swap2\n      pop\n        /* \"#utility.yul\":2782:3021   */\n      pop\n        /* \"#utility.yul\":3104:3108   */\n      0x80\n        /* \"#utility.yul\":3097:3102   */\n      dup4\n        /* \"#utility.yul\":3093:3109   */\n      add\n        /* \"#utility.yul\":3087:3110   */\n      mload\n        /* \"#utility.yul\":3157:3160   */\n      dup5\n        /* \"#utility.yul\":3151:3155   */\n      dup3\n        /* \"#utility.yul\":3147:3161   */\n      sub\n        /* \"#utility.yul\":3140:3144   */\n      0x80\n        /* \"#utility.yul\":3135:3138   */\n      dup7\n        /* \"#utility.yul\":3131:3145   */\n      add\n        /* \"#utility.yul\":3124:3162   */\n      mstore\n        /* \"#utility.yul\":3183:3256   */\n      tag_217\n        /* \"#utility.yul\":3251:3255   */\n      dup3\n        /* \"#utility.yul\":3237:3249   */\n      dup3\n        /* \"#utility.yul\":3183:3256   */\n      tag_134\n      jump\t// in\n    tag_217:\n        /* \"#utility.yul\":3175:3256   */\n      swap2\n      pop\n        /* \"#utility.yul\":3031:3267   */\n      pop\n        /* \"#utility.yul\":3353:3357   */\n      0xa0\n        /* \"#utility.yul\":3346:3351   */\n      dup4\n        /* \"#utility.yul\":3342:3358   */\n      add\n        /* \"#utility.yul\":3336:3359   */\n      mload\n        /* \"#utility.yul\":3406:3409   */\n      dup5\n        /* \"#utility.yul\":3400:3404   */\n      dup3\n        /* \"#utility.yul\":3396:3410   */\n      sub\n        /* \"#utility.yul\":3389:3393   */\n      0xa0\n        /* \"#utility.yul\":3384:3387   */\n      dup7\n        /* \"#utility.yul\":3380:3394   */\n      add\n        /* \"#utility.yul\":3373:3411   */\n      mstore\n        /* \"#utility.yul\":3432:3505   */\n      tag_218\n        /* \"#utility.yul\":3500:3504   */\n      dup3\n        /* \"#utility.yul\":3486:3498   */\n      dup3\n        /* \"#utility.yul\":3432:3505   */\n      tag_134\n      jump\t// in\n    tag_218:\n        /* \"#utility.yul\":3424:3505   */\n      swap2\n      pop\n        /* \"#utility.yul\":3277:3516   */\n      pop\n        /* \"#utility.yul\":3602:3606   */\n      0xc0\n        /* \"#utility.yul\":3595:3600   */\n      dup4\n        /* \"#utility.yul\":3591:3607   */\n      add\n        /* \"#utility.yul\":3585:3608   */\n      mload\n        /* \"#utility.yul\":3621:3684   */\n      tag_219\n        /* \"#utility.yul\":3678:3682   */\n      0xc0\n        /* \"#utility.yul\":3673:3676   */\n      dup7\n        /* \"#utility.yul\":3669:3683   */\n      add\n        /* \"#utility.yul\":3655:3667   */\n      dup3\n        /* \"#utility.yul\":3621:3684   */\n      tag_129\n      jump\t// in\n    tag_219:\n        /* \"#utility.yul\":3526:3694   */\n      pop\n        /* \"#utility.yul\":3782:3786   */\n      0xe0\n        /* \"#utility.yul\":3775:3780   */\n      dup4\n        /* \"#utility.yul\":3771:3787   */\n      add\n        /* \"#utility.yul\":3765:3788   */\n      mload\n        /* \"#utility.yul\":3835:3838   */\n      dup5\n        /* \"#utility.yul\":3829:3833   */\n      dup3\n        /* \"#utility.yul\":3825:3839   */\n      sub\n        /* \"#utility.yul\":3818:3822   */\n      0xe0\n        /* \"#utility.yul\":3813:3816   */\n      dup7\n        /* \"#utility.yul\":3809:3823   */\n      add\n        /* \"#utility.yul\":3802:3840   */\n      mstore\n        /* \"#utility.yul\":3861:3934   */\n      tag_220\n        /* \"#utility.yul\":3929:3933   */\n      dup3\n        /* \"#utility.yul\":3915:3927   */\n      dup3\n        /* \"#utility.yul\":3861:3934   */\n      tag_134\n      jump\t// in\n    tag_220:\n        /* \"#utility.yul\":3853:3934   */\n      swap2\n      pop\n        /* \"#utility.yul\":3704:3945   */\n      pop\n        /* \"#utility.yul\":4037:4043   */\n      0x0100\n        /* \"#utility.yul\":4030:4035   */\n      dup4\n        /* \"#utility.yul\":4026:4044   */\n      add\n        /* \"#utility.yul\":4020:4045   */\n      mload\n        /* \"#utility.yul\":4058:4117   */\n      tag_221\n        /* \"#utility.yul\":4109:4115   */\n      0x0100\n        /* \"#utility.yul\":4104:4107   */\n      dup7\n        /* \"#utility.yul\":4100:4116   */\n      add\n        /* \"#utility.yul\":4086:4098   */\n      dup3\n        /* \"#utility.yul\":4058:4117   */\n      tag_136\n      jump\t// in\n    tag_221:\n        /* \"#utility.yul\":3955:4127   */\n      pop\n        /* \"#utility.yul\":4144:4148   */\n      dup1\n        /* \"#utility.yul\":4137:4148   */\n      swap2\n      pop\n        /* \"#utility.yul\":2056:4154   */\n      pop\n        /* \"#utility.yul\":1948:4154   */\n      swap3\n      swap2\n      pop\n      pop\n      jump\t// out\n        /* \"#utility.yul\":4160:4404   */\n    tag_138:\n        /* \"#utility.yul\":4273:4283   */\n      0x00\n        /* \"#utility.yul\":4308:4398   */\n      tag_223\n        /* \"#utility.yul\":4394:4397   */\n      dup4\n        /* \"#utility.yul\":4386:4392   */\n      dup4\n        /* \"#utility.yul\":4308:4398   */\n      tag_137\n      jump\t// in\n    tag_223:\n        /* \"#utility.yul\":4294:4398   */\n      swap1\n      pop\n        /* \"#utility.yul\":4160:4404   */\n      swap3\n      swap2\n      pop\n      pop\n      jump\t// out\n        /* \"#utility.yul\":4410:4545   */\n    tag_139:\n        /* \"#utility.yul\":4502:4506   */\n      0x00\n        /* \"#utility.yul\":4534:4538   */\n      0x20\n        /* \"#utility.yul\":4529:4532   */\n      dup3\n        /* \"#utility.yul\":4525:4539   */\n      add\n        /* \"#utility.yul\":4517:4539   */\n      swap1\n      pop\n        /* \"#utility.yul\":4410:4545   */\n      swap2\n      swap1\n      pop\n      jump\t// out\n        /* \"#utility.yul\":4591:5678   */\n    tag_140:\n        /* \"#utility.yul\":4754:4757   */\n      0x00\n        /* \"#utility.yul\":4783:4859   */\n      tag_226\n        /* \"#utility.yul\":4853:4858   */\n      dup3\n        /* \"#utility.yul\":4783:4859   */\n      tag_125\n      jump\t// in\n    tag_226:\n        /* \"#utility.yul\":4875:4983   */\n      tag_227\n        /* \"#utility.yul\":4976:4982   */\n      dup2\n        /* \"#utility.yul\":4971:4974   */\n      dup6\n        /* \"#utility.yul\":4875:4983   */\n      tag_126\n      jump\t// in\n    tag_227:\n        /* \"#utility.yul\":4868:4983   */\n      swap4\n      pop\n        /* \"#utility.yul\":5009:5012   */\n      dup4\n        /* \"#utility.yul\":5054:5058   */\n      0x20\n        /* \"#utility.yul\":5046:5052   */\n      dup3\n        /* \"#utility.yul\":5042:5059   */\n      mul\n        /* \"#utility.yul\":5037:5040   */\n      dup6\n        /* \"#utility.yul\":5033:5060   */\n      add\n        /* \"#utility.yul\":5084:5162   */\n      tag_228\n        /* \"#utility.yul\":5156:5161   */\n      dup6\n        /* \"#utility.yul\":5084:5162   */\n      tag_127\n      jump\t// in\n    tag_228:\n        /* \"#utility.yul\":5185:5192   */\n      dup1\n        /* \"#utility.yul\":5216:5217   */\n      0x00\n        /* \"#utility.yul\":5201:5633   */\n    tag_229:\n        /* \"#utility.yul\":5226:5232   */\n      dup6\n        /* \"#utility.yul\":5223:5224   */\n      dup2\n        /* \"#utility.yul\":5220:5233   */\n      lt\n        /* \"#utility.yul\":5201:5633   */\n      iszero\n      tag_231\n      jumpi\n        /* \"#utility.yul\":5297:5306   */\n      dup5\n        /* \"#utility.yul\":5291:5295   */\n      dup5\n        /* \"#utility.yul\":5287:5307   */\n      sub\n        /* \"#utility.yul\":5282:5285   */\n      dup10\n        /* \"#utility.yul\":5275:5308   */\n      mstore\n        /* \"#utility.yul\":5348:5354   */\n      dup2\n        /* \"#utility.yul\":5342:5355   */\n      mload\n        /* \"#utility.yul\":5376:5484   */\n      tag_232\n        /* \"#utility.yul\":5479:5483   */\n      dup6\n        /* \"#utility.yul\":5464:5477   */\n      dup3\n        /* \"#utility.yul\":5376:5484   */\n      tag_138\n      jump\t// in\n    tag_232:\n        /* \"#utility.yul\":5368:5484   */\n      swap5\n      pop\n        /* \"#utility.yul\":5507:5589   */\n      tag_233\n        /* \"#utility.yul\":5582:5588   */\n      dup4\n        /* \"#utility.yul\":5507:5589   */\n      tag_139\n      jump\t// in\n    tag_233:\n        /* \"#utility.yul\":5497:5589   */\n      swap3\n      pop\n        /* \"#utility.yul\":5618:5622   */\n      0x20\n        /* \"#utility.yul\":5613:5616   */\n      dup11\n        /* \"#utility.yul\":5609:5623   */\n      add\n        /* \"#utility.yul\":5602:5623   */\n      swap10\n      pop\n        /* \"#utility.yul\":5261:5633   */\n      pop\n        /* \"#utility.yul\":5248:5249   */\n      0x01\n        /* \"#utility.yul\":5245:5246   */\n      dup2\n        /* \"#utility.yul\":5241:5250   */\n      add\n        /* \"#utility.yul\":5236:5250   */\n      swap1\n      pop\n        /* \"#utility.yul\":5201:5633   */\n      jump(tag_229)\n    tag_231:\n        /* \"#utility.yul\":5205:5219   */\n      pop\n        /* \"#utility.yul\":5649:5653   */\n      dup3\n        /* \"#utility.yul\":5642:5653   */\n      swap8\n      pop\n        /* \"#utility.yul\":5669:5672   */\n      dup8\n        /* \"#utility.yul\":5662:5672   */\n      swap6\n      pop\n        /* \"#utility.yul\":4759:5678   */\n      pop\n      pop\n      pop\n      pop\n      pop\n        /* \"#utility.yul\":4591:5678   */\n      swap3\n      swap2\n      pop\n      pop\n      jump\t// out\n        /* \"#utility.yul\":5684:6145   */\n    tag_14:\n        /* \"#utility.yul\":5871:5875   */\n      0x00\n        /* \"#utility.yul\":5909:5911   */\n      0x20\n        /* \"#utility.yul\":5898:5907   */\n      dup3\n        /* \"#utility.yul\":5894:5912   */\n      add\n        /* \"#utility.yul\":5886:5912   */\n      swap1\n      pop\n        /* \"#utility.yul\":5958:5967   */\n      dup2\n        /* \"#utility.yul\":5952:5956   */\n      dup2\n        /* \"#utility.yul\":5948:5968   */\n      sub\n        /* \"#utility.yul\":5944:5945   */\n      0x00\n        /* \"#utility.yul\":5933:5942   */\n      dup4\n        /* \"#utility.yul\":5929:5946   */\n      add\n        /* \"#utility.yul\":5922:5969   */\n      mstore\n        /* \"#utility.yul\":5986:6138   */\n      tag_235\n        /* \"#utility.yul\":6133:6137   */\n      dup2\n        /* \"#utility.yul\":6124:6130   */\n      dup5\n        /* \"#utility.yul\":5986:6138   */\n      tag_140\n      jump\t// in\n    tag_235:\n        /* \"#utility.yul\":5978:6138   */\n      swap1\n      pop\n        /* \"#utility.yul\":5684:6145   */\n      swap3\n      swap2\n      pop\n      pop\n      jump\t// out\n        /* \"#utility.yul\":6151:6226   */\n    tag_141:\n        /* \"#utility.yul\":6184:6190   */\n      0x00\n        /* \"#utility.yul\":6217:6219   */\n      0x40\n        /* \"#utility.yul\":6211:6220   */\n      mload\n        /* \"#utility.yul\":6201:6220   */\n      swap1\n      pop\n        /* \"#utility.yul\":6151:6226   */\n      swap1\n      jump\t// out\n        /* \"#utility.yul\":6232:6349   */\n    tag_142:\n        /* \"#utility.yul\":6341:6342   */\n      0x00\n        /* \"#utility.yul\":6338:6339   */\n      dup1\n        /* \"#utility.yul\":6331:6343   */\n      revert\n        /* \"#utility.yul\":6355:6472   */\n    tag_143:\n        /* \"#utility.yul\":6464:6465   */\n      0x00\n        /* \"#utility.yul\":6461:6462   */\n      dup1\n        /* \"#utility.yul\":6454:6466   */\n      revert\n        /* \"#utility.yul\":6478:6604   */\n    tag_144:\n        /* \"#utility.yul\":6515:6522   */\n      0x00\n        /* \"#utility.yul\":6555:6597   */\n      0xffffffffffffffffffffffffffffffffffffffff\n        /* \"#utility.yul\":6548:6553   */\n      dup3\n        /* \"#utility.yul\":6544:6598   */\n      and\n        /* \"#utility.yul\":6533:6598   */\n      swap1\n      pop\n        /* \"#utility.yul\":6478:6604   */\n      swap2\n      swap1\n      pop\n      jump\t// out\n        /* \"#utility.yul\":6610:6706   */\n    tag_145:\n        /* \"#utility.yul\":6647:6654   */\n      0x00\n        /* \"#utility.yul\":6676:6700   */\n      tag_241\n        /* \"#utility.yul\":6694:6699   */\n      dup3\n        /* \"#utility.yul\":6676:6700   */\n      tag_144\n      jump\t// in\n    tag_241:\n        /* \"#utility.yul\":6665:6700   */\n      swap1\n      pop\n        /* \"#utility.yul\":6610:6706   */\n      swap2\n      swap1\n      pop\n      jump\t// out\n        /* \"#utility.yul\":6712:6834   */\n    tag_146:\n        /* \"#utility.yul\":6785:6809   */\n      tag_243\n        /* \"#utility.yul\":6803:6808   */\n      dup2\n        /* \"#utility.yul\":6785:6809   */\n      tag_145\n      jump\t// in\n    tag_243:\n        /* \"#utility.yul\":6778:6783   */\n      dup2\n        /* \"#utility.yul\":6775:6810   */\n      eq\n        /* \"#utility.yul\":6765:6828   */\n      tag_244\n      jumpi\n        /* \"#utility.yul\":6824:6825   */\n      0x00\n        /* \"#utility.yul\":6821:6822   */\n      dup1\n        /* \"#utility.yul\":6814:6826   */\n      revert\n        /* \"#utility.yul\":6765:6828   */\n    tag_244:\n        /* \"#utility.yul\":6712:6834   */\n      pop\n      jump\t// out\n        /* \"#utility.yul\":6840:6979   */\n    tag_147:\n        /* \"#utility.yul\":6886:6891   */\n      0x00\n        /* \"#utility.yul\":6924:6930   */\n      dup2\n        /* \"#utility.yul\":6911:6931   */\n      calldataload\n        /* \"#utility.yul\":6902:6931   */\n      swap1\n      pop\n        /* \"#utility.yul\":6940:6973   */\n      tag_246\n        /* \"#utility.yul\":6967:6972   */\n      dup2\n        /* \"#utility.yul\":6940:6973   */\n      tag_146\n      jump\t// in\n    tag_246:\n        /* \"#utility.yul\":6840:6979   */\n      swap3\n      swap2\n      pop\n      pop\n      jump\t// out\n        /* \"#utility.yul\":6985:7314   */\n    tag_17:\n        /* \"#utility.yul\":7044:7050   */\n      0x00\n        /* \"#utility.yul\":7093:7095   */\n      0x20\n        /* \"#utility.yul\":7081:7090   */\n      dup3\n        /* \"#utility.yul\":7072:7079   */\n      dup5\n        /* \"#utility.yul\":7068:7091   */\n      sub\n        /* \"#utility.yul\":7064:7096   */\n      slt\n        /* \"#utility.yul\":7061:7180   */\n      iszero\n      tag_248\n      jumpi\n        /* \"#utility.yul\":7099:7178   */\n      tag_249\n      tag_142\n      jump\t// in\n    tag_249:\n        /* \"#utility.yul\":7061:7180   */\n    tag_248:\n        /* \"#utility.yul\":7219:7220   */\n      0x00\n        /* \"#utility.yul\":7244:7297   */\n      tag_250\n        /* \"#utility.yul\":7289:7296   */\n      dup5\n        /* \"#utility.yul\":7280:7286   */\n      dup3\n        /* \"#utility.yul\":7269:7278   */\n      dup6\n        /* \"#utility.yul\":7265:7287   */\n      add\n        /* \"#utility.yul\":7244:7297   */\n      tag_147\n      jump\t// in\n    tag_250:\n        /* \"#utility.yul\":7234:7297   */\n      swap2\n      pop\n        /* \"#utility.yul\":7190:7307   */\n      pop\n        /* \"#utility.yul\":6985:7314   */\n      swap3\n      swap2\n      pop\n      pop\n      jump\t// out\n        /* \"#utility.yul\":7320:7437   */\n    tag_148:\n        /* \"#utility.yul\":7429:7430   */\n      0x00\n        /* \"#utility.yul\":7426:7427   */\n      dup1\n        /* \"#utility.yul\":7419:7431   */\n      revert\n        /* \"#utility.yul\":7443:7623   */\n    tag_149:\n        /* \"#utility.yul\":7491:7568   */\n      0x4e487b7100000000000000000000000000000000000000000000000000000000\n        /* \"#utility.yul\":7488:7489   */\n      0x00\n        /* \"#utility.yul\":7481:7569   */\n      mstore\n        /* \"#utility.yul\":7588:7592   */\n      0x41\n        /* \"#utility.yul\":7585:7586   */\n      0x04\n        /* \"#utility.yul\":7578:7593   */\n      mstore\n        /* \"#utility.yul\":7612:7616   */\n      0x24\n        /* \"#utility.yul\":7609:7610   */\n      0x00\n        /* \"#utility.yul\":7602:7617   */\n      revert\n        /* \"#utility.yul\":7629:7910   */\n    tag_150:\n        /* \"#utility.yul\":7712:7739   */\n      tag_254\n        /* \"#utility.yul\":7734:7738   */\n      dup3\n        /* \"#utility.yul\":7712:7739   */\n      tag_133\n      jump\t// in\n    tag_254:\n        /* \"#utility.yul\":7704:7710   */\n      dup2\n        /* \"#utility.yul\":7700:7740   */\n      add\n        /* \"#utility.yul\":7842:7848   */\n      dup2\n        /* \"#utility.yul\":7830:7840   */\n      dup2\n        /* \"#utility.yul\":7827:7849   */\n      lt\n        /* \"#utility.yul\":7806:7824   */\n      0xffffffffffffffff\n        /* \"#utility.yul\":7794:7804   */\n      dup3\n        /* \"#utility.yul\":7791:7825   */\n      gt\n        /* \"#utility.yul\":7788:7850   */\n      or\n        /* \"#utility.yul\":7785:7873   */\n      iszero\n      tag_255\n      jumpi\n        /* \"#utility.yul\":7853:7871   */\n      tag_256\n      tag_149\n      jump\t// in\n    tag_256:\n        /* \"#utility.yul\":7785:7873   */\n    tag_255:\n        /* \"#utility.yul\":7893:7903   */\n      dup1\n        /* \"#utility.yul\":7889:7891   */\n      0x40\n        /* \"#utility.yul\":7882:7904   */\n      mstore\n        /* \"#utility.yul\":7672:7910   */\n      pop\n        /* \"#utility.yul\":7629:7910   */\n      pop\n      pop\n      jump\t// out\n        /* \"#utility.yul\":7916:8045   */\n    tag_151:\n        /* \"#utility.yul\":7950:7956   */\n      0x00\n        /* \"#utility.yul\":7977:7997   */\n      tag_258\n      tag_141\n      jump\t// in\n    tag_258:\n        /* \"#utility.yul\":7967:7997   */\n      swap1\n      pop\n        /* \"#utility.yul\":8006:8039   */\n      tag_259\n        /* \"#utility.yul\":8034:8038   */\n      dup3\n        /* \"#utility.yul\":8026:8032   */\n      dup3\n        /* \"#utility.yul\":8006:8039   */\n      tag_150\n      jump\t// in\n    tag_259:\n        /* \"#utility.yul\":7916:8045   */\n      swap2\n      swap1\n      pop\n      jump\t// out\n        /* \"#utility.yul\":8051:8168   */\n    tag_152:\n        /* \"#utility.yul\":8160:8161   */\n      0x00\n        /* \"#utility.yul\":8157:8158   */\n      dup1\n        /* \"#utility.yul\":8150:8162   */\n      revert\n        /* \"#utility.yul\":8174:8296   */\n    tag_153:\n        /* \"#utility.yul\":8247:8271   */\n      tag_262\n        /* \"#utility.yul\":8265:8270   */\n      dup2\n        /* \"#utility.yul\":8247:8271   */\n      tag_128\n      jump\t// in\n    tag_262:\n        /* \"#utility.yul\":8240:8245   */\n      dup2\n        /* \"#utility.yul\":8237:8272   */\n      eq\n        /* \"#utility.yul\":8227:8290   */\n      tag_263\n      jumpi\n        /* \"#utility.yul\":8286:8287   */\n      0x00\n        /* \"#utility.yul\":8283:8284   */\n      dup1\n        /* \"#utility.yul\":8276:8288   */\n      revert\n        /* \"#utility.yul\":8227:8290   */\n    tag_263:\n        /* \"#utility.yul\":8174:8296   */\n      pop\n      jump\t// out\n        /* \"#utility.yul\":8302:8441   */\n    tag_154:\n        /* \"#utility.yul\":8348:8353   */\n      0x00\n        /* \"#utility.yul\":8386:8392   */\n      dup2\n        /* \"#utility.yul\":8373:8393   */\n      calldataload\n        /* \"#utility.yul\":8364:8393   */\n      swap1\n      pop\n        /* \"#utility.yul\":8402:8435   */\n      tag_265\n        /* \"#utility.yul\":8429:8434   */\n      dup2\n        /* \"#utility.yul\":8402:8435   */\n      tag_153\n      jump\t// in\n    tag_265:\n        /* \"#utility.yul\":8302:8441   */\n      swap3\n      swap2\n      pop\n      pop\n      jump\t// out\n        /* \"#utility.yul\":8447:8564   */\n    tag_155:\n        /* \"#utility.yul\":8556:8557   */\n      0x00\n        /* \"#utility.yul\":8553:8554   */\n      dup1\n        /* \"#utility.yul\":8546:8558   */\n      revert\n        /* \"#utility.yul\":8570:8687   */\n    tag_156:\n        /* \"#utility.yul\":8679:8680   */\n      0x00\n        /* \"#utility.yul\":8676:8677   */\n      dup1\n        /* \"#utility.yul\":8669:8681   */\n      revert\n        /* \"#utility.yul\":8693:9001   */\n    tag_157:\n        /* \"#utility.yul\":8755:8759   */\n      0x00\n        /* \"#utility.yul\":8845:8863   */\n      0xffffffffffffffff\n        /* \"#utility.yul\":8837:8843   */\n      dup3\n        /* \"#utility.yul\":8834:8864   */\n      gt\n        /* \"#utility.yul\":8831:8887   */\n      iszero\n      tag_269\n      jumpi\n        /* \"#utility.yul\":8867:8885   */\n      tag_270\n      tag_149\n      jump\t// in\n    tag_270:\n        /* \"#utility.yul\":8831:8887   */\n    tag_269:\n        /* \"#utility.yul\":8905:8934   */\n      tag_271\n        /* \"#utility.yul\":8927:8933   */\n      dup3\n        /* \"#utility.yul\":8905:8934   */\n      tag_133\n      jump\t// in\n    tag_271:\n        /* \"#utility.yul\":8897:8934   */\n      swap1\n      pop\n        /* \"#utility.yul\":8989:8993   */\n      0x20\n        /* \"#utility.yul\":8983:8987   */\n      dup2\n        /* \"#utility.yul\":8979:8994   */\n      add\n        /* \"#utility.yul\":8971:8994   */\n      swap1\n      pop\n        /* \"#utility.yul\":8693:9001   */\n      swap2\n      swap1\n      pop\n      jump\t// out\n        /* \"#utility.yul\":9007:9153   */\n    tag_158:\n        /* \"#utility.yul\":9104:9110   */\n      dup3\n        /* \"#utility.yul\":9099:9102   */\n      dup2\n        /* \"#utility.yul\":9094:9097   */\n      dup4\n        /* \"#utility.yul\":9081:9111   */\n      calldatacopy\n        /* \"#utility.yul\":9145:9146   */\n      0x00\n        /* \"#utility.yul\":9136:9142   */\n      dup4\n        /* \"#utility.yul\":9131:9134   */\n      dup4\n        /* \"#utility.yul\":9127:9143   */\n      add\n        /* \"#utility.yul\":9120:9147   */\n      mstore\n        /* \"#utility.yul\":9007:9153   */\n      pop\n      pop\n      pop\n      jump\t// out\n        /* \"#utility.yul\":9159:9584   */\n    tag_159:\n        /* \"#utility.yul\":9237:9242   */\n      0x00\n        /* \"#utility.yul\":9262:9328   */\n      tag_274\n        /* \"#utility.yul\":9278:9327   */\n      tag_275\n        /* \"#utility.yul\":9320:9326   */\n      dup5\n        /* \"#utility.yul\":9278:9327   */\n      tag_157\n      jump\t// in\n    tag_275:\n        /* \"#utility.yul\":9262:9328   */\n      tag_151\n      jump\t// in\n    tag_274:\n        /* \"#utility.yul\":9253:9328   */\n      swap1\n      pop\n        /* \"#utility.yul\":9351:9357   */\n      dup3\n        /* \"#utility.yul\":9344:9349   */\n      dup2\n        /* \"#utility.yul\":9337:9358   */\n      mstore\n        /* \"#utility.yul\":9389:9393   */\n      0x20\n        /* \"#utility.yul\":9382:9387   */\n      dup2\n        /* \"#utility.yul\":9378:9394   */\n      add\n        /* \"#utility.yul\":9427:9430   */\n      dup5\n        /* \"#utility.yul\":9418:9424   */\n      dup5\n        /* \"#utility.yul\":9413:9416   */\n      dup5\n        /* \"#utility.yul\":9409:9425   */\n      add\n        /* \"#utility.yul\":9406:9431   */\n      gt\n        /* \"#utility.yul\":9403:9515   */\n      iszero\n      tag_276\n      jumpi\n        /* \"#utility.yul\":9434:9513   */\n      tag_277\n      tag_156\n      jump\t// in\n    tag_277:\n        /* \"#utility.yul\":9403:9515   */\n    tag_276:\n        /* \"#utility.yul\":9524:9578   */\n      tag_278\n        /* \"#utility.yul\":9571:9577   */\n      dup5\n        /* \"#utility.yul\":9566:9569   */\n      dup3\n        /* \"#utility.yul\":9561:9564   */\n      dup6\n        /* \"#utility.yul\":9524:9578   */\n      tag_158\n      jump\t// in\n    tag_278:\n        /* \"#utility.yul\":9243:9584   */\n      pop\n        /* \"#utility.yul\":9159:9584   */\n      swap4\n      swap3\n      pop\n      pop\n      pop\n      jump\t// out\n        /* \"#utility.yul\":9604:9944   */\n    tag_160:\n        /* \"#utility.yul\":9660:9665   */\n      0x00\n        /* \"#utility.yul\":9709:9712   */\n      dup3\n        /* \"#utility.yul\":9702:9706   */\n      0x1f\n        /* \"#utility.yul\":9694:9700   */\n      dup4\n        /* \"#utility.yul\":9690:9707   */\n      add\n        /* \"#utility.yul\":9686:9713   */\n      slt\n        /* \"#utility.yul\":9676:9798   */\n      tag_280\n      jumpi\n        /* \"#utility.yul\":9717:9796   */\n      tag_281\n      tag_155\n      jump\t// in\n    tag_281:\n        /* \"#utility.yul\":9676:9798   */\n    tag_280:\n        /* \"#utility.yul\":9834:9840   */\n      dup2\n        /* \"#utility.yul\":9821:9841   */\n      calldataload\n        /* \"#utility.yul\":9859:9938   */\n      tag_282\n        /* \"#utility.yul\":9934:9937   */\n      dup5\n        /* \"#utility.yul\":9926:9932   */\n      dup3\n        /* \"#utility.yul\":9919:9923   */\n      0x20\n        /* \"#utility.yul\":9911:9917   */\n      dup7\n        /* \"#utility.yul\":9907:9924   */\n      add\n        /* \"#utility.yul\":9859:9938   */\n      tag_159\n      jump\t// in\n    tag_282:\n        /* \"#utility.yul\":9850:9938   */\n      swap2\n      pop\n        /* \"#utility.yul\":9666:9944   */\n      pop\n        /* \"#utility.yul\":9604:9944   */\n      swap3\n      swap2\n      pop\n      pop\n      jump\t// out\n        /* \"#utility.yul\":9950:10066   */\n    tag_161:\n        /* \"#utility.yul\":10020:10041   */\n      tag_284\n        /* \"#utility.yul\":10035:10040   */\n      dup2\n        /* \"#utility.yul\":10020:10041   */\n      tag_135\n      jump\t// in\n    tag_284:\n        /* \"#utility.yul\":10013:10018   */\n      dup2\n        /* \"#utility.yul\":10010:10042   */\n      eq\n        /* \"#utility.yul\":10000:10060   */\n      tag_285\n      jumpi\n        /* \"#utility.yul\":10056:10057   */\n      0x00\n        /* \"#utility.yul\":10053:10054   */\n      dup1\n        /* \"#utility.yul\":10046:10058   */\n      revert\n        /* \"#utility.yul\":10000:10060   */\n    tag_285:\n        /* \"#utility.yul\":9950:10066   */\n      pop\n      jump\t// out\n        /* \"#utility.yul\":10072:10205   */\n    tag_162:\n        /* \"#utility.yul\":10115:10120   */\n      0x00\n        /* \"#utility.yul\":10153:10159   */\n      dup2\n        /* \"#utility.yul\":10140:10160   */\n      calldataload\n        /* \"#utility.yul\":10131:10160   */\n      swap1\n      pop\n        /* \"#utility.yul\":10169:10199   */\n      tag_287\n        /* \"#utility.yul\":10193:10198   */\n      dup2\n        /* \"#utility.yul\":10169:10199   */\n      tag_161\n      jump\t// in\n    tag_287:\n        /* \"#utility.yul\":10072:10205   */\n      swap3\n      swap2\n      pop\n      pop\n      jump\t// out\n        /* \"#utility.yul\":10231:13000   */\n    tag_163:\n        /* \"#utility.yul\":10302:10307   */\n      0x00\n        /* \"#utility.yul\":10346:10352   */\n      0x0120\n        /* \"#utility.yul\":10334:10343   */\n      dup3\n        /* \"#utility.yul\":10329:10332   */\n      dup5\n        /* \"#utility.yul\":10325:10344   */\n      sub\n        /* \"#utility.yul\":10321:10353   */\n      slt\n        /* \"#utility.yul\":10318:10437   */\n      iszero\n      tag_289\n      jumpi\n        /* \"#utility.yul\":10356:10435   */\n      tag_290\n      tag_148\n      jump\t// in\n    tag_290:\n        /* \"#utility.yul\":10318:10437   */\n    tag_289:\n        /* \"#utility.yul\":10455:10478   */\n      tag_291\n        /* \"#utility.yul\":10471:10477   */\n      0x0120\n        /* \"#utility.yul\":10455:10478   */\n      tag_151\n      jump\t// in\n    tag_291:\n        /* \"#utility.yul\":10446:10478   */\n      swap1\n      pop\n        /* \"#utility.yul\":10544:10545   */\n      0x00\n        /* \"#utility.yul\":10584:10633   */\n      tag_292\n        /* \"#utility.yul\":10629:10632   */\n      dup5\n        /* \"#utility.yul\":10620:10626   */\n      dup3\n        /* \"#utility.yul\":10609:10618   */\n      dup6\n        /* \"#utility.yul\":10605:10627   */\n      add\n        /* \"#utility.yul\":10584:10633   */\n      tag_154\n      jump\t// in\n    tag_292:\n        /* \"#utility.yul\":10577:10581   */\n      0x00\n        /* \"#utility.yul\":10570:10575   */\n      dup4\n        /* \"#utility.yul\":10566:10582   */\n      add\n        /* \"#utility.yul\":10559:10634   */\n      mstore\n        /* \"#utility.yul\":10488:10645   */\n      pop\n        /* \"#utility.yul\":10739:10741   */\n      0x20\n        /* \"#utility.yul\":10728:10737   */\n      dup3\n        /* \"#utility.yul\":10724:10742   */\n      add\n        /* \"#utility.yul\":10711:10743   */\n      calldataload\n        /* \"#utility.yul\":10770:10788   */\n      0xffffffffffffffff\n        /* \"#utility.yul\":10762:10768   */\n      dup2\n        /* \"#utility.yul\":10759:10789   */\n      gt\n        /* \"#utility.yul\":10756:10873   */\n      iszero\n      tag_293\n      jumpi\n        /* \"#utility.yul\":10792:10871   */\n      tag_294\n      tag_152\n      jump\t// in\n    tag_294:\n        /* \"#utility.yul\":10756:10873   */\n    tag_293:\n        /* \"#utility.yul\":10912:10971   */\n      tag_295\n        /* \"#utility.yul\":10967:10970   */\n      dup5\n        /* \"#utility.yul\":10958:10964   */\n      dup3\n        /* \"#utility.yul\":10947:10956   */\n      dup6\n        /* \"#utility.yul\":10943:10965   */\n      add\n        /* \"#utility.yul\":10912:10971   */\n      tag_160\n      jump\t// in\n    tag_295:\n        /* \"#utility.yul\":10905:10909   */\n      0x20\n        /* \"#utility.yul\":10898:10903   */\n      dup4\n        /* \"#utility.yul\":10894:10910   */\n      add\n        /* \"#utility.yul\":10887:10972   */\n      mstore\n        /* \"#utility.yul\":10655:10983   */\n      pop\n        /* \"#utility.yul\":11070:11072   */\n      0x40\n        /* \"#utility.yul\":11059:11068   */\n      dup3\n        /* \"#utility.yul\":11055:11073   */\n      add\n        /* \"#utility.yul\":11042:11074   */\n      calldataload\n        /* \"#utility.yul\":11101:11119   */\n      0xffffffffffffffff\n        /* \"#utility.yul\":11093:11099   */\n      dup2\n        /* \"#utility.yul\":11090:11120   */\n      gt\n        /* \"#utility.yul\":11087:11204   */\n      iszero\n      tag_296\n      jumpi\n        /* \"#utility.yul\":11123:11202   */\n      tag_297\n      tag_152\n      jump\t// in\n    tag_297:\n        /* \"#utility.yul\":11087:11204   */\n    tag_296:\n        /* \"#utility.yul\":11243:11302   */\n      tag_298\n        /* \"#utility.yul\":11298:11301   */\n      dup5\n        /* \"#utility.yul\":11289:11295   */\n      dup3\n        /* \"#utility.yul\":11278:11287   */\n      dup6\n        /* \"#utility.yul\":11274:11296   */\n      add\n        /* \"#utility.yul\":11243:11302   */\n      tag_160\n      jump\t// in\n    tag_298:\n        /* \"#utility.yul\":11236:11240   */\n      0x40\n        /* \"#utility.yul\":11229:11234   */\n      dup4\n        /* \"#utility.yul\":11225:11241   */\n      add\n        /* \"#utility.yul\":11218:11303   */\n      mstore\n        /* \"#utility.yul\":10993:11314   */\n      pop\n        /* \"#utility.yul\":11405:11407   */\n      0x60\n        /* \"#utility.yul\":11394:11403   */\n      dup3\n        /* \"#utility.yul\":11390:11408   */\n      add\n        /* \"#utility.yul\":11377:11409   */\n      calldataload\n        /* \"#utility.yul\":11436:11454   */\n      0xffffffffffffffff\n        /* \"#utility.yul\":11428:11434   */\n      dup2\n        /* \"#utility.yul\":11425:11455   */\n      gt\n        /* \"#utility.yul\":11422:11539   */\n      iszero\n      tag_299\n      jumpi\n        /* \"#utility.yul\":11458:11537   */\n      tag_300\n      tag_152\n      jump\t// in\n    tag_300:\n        /* \"#utility.yul\":11422:11539   */\n    tag_299:\n        /* \"#utility.yul\":11578:11637   */\n      tag_301\n        /* \"#utility.yul\":11633:11636   */\n      dup5\n        /* \"#utility.yul\":11624:11630   */\n      dup3\n        /* \"#utility.yul\":11613:11622   */\n      dup6\n        /* \"#utility.yul\":11609:11631   */\n      add\n        /* \"#utility.yul\":11578:11637   */\n      tag_160\n      jump\t// in\n    tag_301:\n        /* \"#utility.yul\":11571:11575   */\n      0x60\n        /* \"#utility.yul\":11564:11569   */\n      dup4\n        /* \"#utility.yul\":11560:11576   */\n      add\n        /* \"#utility.yul\":11553:11638   */\n      mstore\n        /* \"#utility.yul\":11324:11649   */\n      pop\n        /* \"#utility.yul\":11737:11740   */\n      0x80\n        /* \"#utility.yul\":11726:11735   */\n      dup3\n        /* \"#utility.yul\":11722:11741   */\n      add\n        /* \"#utility.yul\":11709:11742   */\n      calldataload\n        /* \"#utility.yul\":11769:11787   */\n      0xffffffffffffffff\n        /* \"#utility.yul\":11761:11767   */\n      dup2\n        /* \"#utility.yul\":11758:11788   */\n      gt\n        /* \"#utility.yul\":11755:11872   */\n      iszero\n      tag_302\n      jumpi\n        /* \"#utility.yul\":11791:11870   */\n      tag_303\n      tag_152\n      jump\t// in\n    tag_303:\n        /* \"#utility.yul\":11755:11872   */\n    tag_302:\n        /* \"#utility.yul\":11911:11970   */\n      tag_304\n        /* \"#utility.yul\":11966:11969   */\n      dup5\n        /* \"#utility.yul\":11957:11963   */\n      dup3\n        /* \"#utility.yul\":11946:11955   */\n      dup6\n        /* \"#utility.yul\":11942:11964   */\n      add\n        /* \"#utility.yul\":11911:11970   */\n      tag_160\n      jump\t// in\n    tag_304:\n        /* \"#utility.yul\":11904:11908   */\n      0x80\n        /* \"#utility.yul\":11897:11902   */\n      dup4\n        /* \"#utility.yul\":11893:11909   */\n      add\n        /* \"#utility.yul\":11886:11971   */\n      mstore\n        /* \"#utility.yul\":11659:11982   */\n      pop\n        /* \"#utility.yul\":12073:12076   */\n      0xa0\n        /* \"#utility.yul\":12062:12071   */\n      dup3\n        /* \"#utility.yul\":12058:12077   */\n      add\n        /* \"#utility.yul\":12045:12078   */\n      calldataload\n        /* \"#utility.yul\":12105:12123   */\n      0xffffffffffffffff\n        /* \"#utility.yul\":12097:12103   */\n      dup2\n        /* \"#utility.yul\":12094:12124   */\n      gt\n        /* \"#utility.yul\":12091:12208   */\n      iszero\n      tag_305\n      jumpi\n        /* \"#utility.yul\":12127:12206   */\n      tag_306\n      tag_152\n      jump\t// in\n    tag_306:\n        /* \"#utility.yul\":12091:12208   */\n    tag_305:\n        /* \"#utility.yul\":12247:12306   */\n      tag_307\n        /* \"#utility.yul\":12302:12305   */\n      dup5\n        /* \"#utility.yul\":12293:12299   */\n      dup3\n        /* \"#utility.yul\":12282:12291   */\n      dup6\n        /* \"#utility.yul\":12278:12300   */\n      add\n        /* \"#utility.yul\":12247:12306   */\n      tag_160\n      jump\t// in\n    tag_307:\n        /* \"#utility.yul\":12240:12244   */\n      0xa0\n        /* \"#utility.yul\":12233:12238   */\n      dup4\n        /* \"#utility.yul\":12229:12245   */\n      add\n        /* \"#utility.yul\":12222:12307   */\n      mstore\n        /* \"#utility.yul\":11992:12318   */\n      pop\n        /* \"#utility.yul\":12381:12384   */\n      0xc0\n        /* \"#utility.yul\":12423:12472   */\n      tag_308\n        /* \"#utility.yul\":12468:12471   */\n      dup5\n        /* \"#utility.yul\":12459:12465   */\n      dup3\n        /* \"#utility.yul\":12448:12457   */\n      dup6\n        /* \"#utility.yul\":12444:12466   */\n      add\n        /* \"#utility.yul\":12423:12472   */\n      tag_154\n      jump\t// in\n    tag_308:\n        /* \"#utility.yul\":12416:12420   */\n      0xc0\n        /* \"#utility.yul\":12409:12414   */\n      dup4\n        /* \"#utility.yul\":12405:12421   */\n      add\n        /* \"#utility.yul\":12398:12473   */\n      mstore\n        /* \"#utility.yul\":12328:12484   */\n      pop\n        /* \"#utility.yul\":12577:12580   */\n      0xe0\n        /* \"#utility.yul\":12566:12575   */\n      dup3\n        /* \"#utility.yul\":12562:12581   */\n      add\n        /* \"#utility.yul\":12549:12582   */\n      calldataload\n        /* \"#utility.yul\":12609:12627   */\n      0xffffffffffffffff\n        /* \"#utility.yul\":12601:12607   */\n      dup2\n        /* \"#utility.yul\":12598:12628   */\n      gt\n        /* \"#utility.yul\":12595:12712   */\n      iszero\n      tag_309\n      jumpi\n        /* \"#utility.yul\":12631:12710   */\n      tag_310\n      tag_152\n      jump\t// in\n    tag_310:\n        /* \"#utility.yul\":12595:12712   */\n    tag_309:\n        /* \"#utility.yul\":12751:12810   */\n      tag_311\n        /* \"#utility.yul\":12806:12809   */\n      dup5\n        /* \"#utility.yul\":12797:12803   */\n      dup3\n        /* \"#utility.yul\":12786:12795   */\n      dup6\n        /* \"#utility.yul\":12782:12804   */\n      add\n        /* \"#utility.yul\":12751:12810   */\n      tag_160\n      jump\t// in\n    tag_311:\n        /* \"#utility.yul\":12744:12748   */\n      0xe0\n        /* \"#utility.yul\":12737:12742   */\n      dup4\n        /* \"#utility.yul\":12733:12749   */\n      add\n        /* \"#utility.yul\":12726:12811   */\n      mstore\n        /* \"#utility.yul\":12494:12822   */\n      pop\n        /* \"#utility.yul\":12891:12894   */\n      0x0100\n        /* \"#utility.yul\":12935:12981   */\n      tag_312\n        /* \"#utility.yul\":12977:12980   */\n      dup5\n        /* \"#utility.yul\":12968:12974   */\n      dup3\n        /* \"#utility.yul\":12957:12966   */\n      dup6\n        /* \"#utility.yul\":12953:12975   */\n      add\n        /* \"#utility.yul\":12935:12981   */\n      tag_162\n      jump\t// in\n    tag_312:\n        /* \"#utility.yul\":12926:12932   */\n      0x0100\n        /* \"#utility.yul\":12919:12924   */\n      dup4\n        /* \"#utility.yul\":12915:12933   */\n      add\n        /* \"#utility.yul\":12908:12982   */\n      mstore\n        /* \"#utility.yul\":12832:12993   */\n      pop\n        /* \"#utility.yul\":10231:13000   */\n      swap3\n      swap2\n      pop\n      pop\n      jump\t// out\n        /* \"#utility.yul\":13006:13539   */\n    tag_21:\n        /* \"#utility.yul\":13087:13093   */\n      0x00\n        /* \"#utility.yul\":13136:13138   */\n      0x20\n        /* \"#utility.yul\":13124:13133   */\n      dup3\n        /* \"#utility.yul\":13115:13122   */\n      dup5\n        /* \"#utility.yul\":13111:13134   */\n      sub\n        /* \"#utility.yul\":13107:13139   */\n      slt\n        /* \"#utility.yul\":13104:13223   */\n      iszero\n      tag_314\n      jumpi\n        /* \"#utility.yul\":13142:13221   */\n      tag_315\n      tag_142\n      jump\t// in\n    tag_315:\n        /* \"#utility.yul\":13104:13223   */\n    tag_314:\n        /* \"#utility.yul\":13290:13291   */\n      0x00\n        /* \"#utility.yul\":13279:13288   */\n      dup3\n        /* \"#utility.yul\":13275:13292   */\n      add\n        /* \"#utility.yul\":13262:13293   */\n      calldataload\n        /* \"#utility.yul\":13320:13338   */\n      0xffffffffffffffff\n        /* \"#utility.yul\":13312:13318   */\n      dup2\n        /* \"#utility.yul\":13309:13339   */\n      gt\n        /* \"#utility.yul\":13306:13423   */\n      iszero\n      tag_316\n      jumpi\n        /* \"#utility.yul\":13342:13421   */\n      tag_317\n      tag_143\n      jump\t// in\n    tag_317:\n        /* \"#utility.yul\":13306:13423   */\n    tag_316:\n        /* \"#utility.yul\":13447:13522   */\n      tag_318\n        /* \"#utility.yul\":13514:13521   */\n      dup5\n        /* \"#utility.yul\":13505:13511   */\n      dup3\n        /* \"#utility.yul\":13494:13503   */\n      dup6\n        /* \"#utility.yul\":13490:13512   */\n      add\n        /* \"#utility.yul\":13447:13522   */\n      tag_163\n      jump\t// in\n    tag_318:\n        /* \"#utility.yul\":13437:13522   */\n      swap2\n      pop\n        /* \"#utility.yul\":13233:13532   */\n      pop\n        /* \"#utility.yul\":13006:13539   */\n      swap3\n      swap2\n      pop\n      pop\n      jump\t// out\n        /* \"#utility.yul\":13545:13663   */\n    tag_164:\n        /* \"#utility.yul\":13632:13656   */\n      tag_320\n        /* \"#utility.yul\":13650:13655   */\n      dup2\n        /* \"#utility.yul\":13632:13656   */\n      tag_145\n      jump\t// in\n    tag_320:\n        /* \"#utility.yul\":13627:13630   */\n      dup3\n        /* \"#utility.yul\":13620:13657   */\n      mstore\n        /* \"#utility.yul\":13545:13663   */\n      pop\n      pop\n      jump\t// out\n        /* \"#utility.yul\":13669:13891   */\n    tag_28:\n        /* \"#utility.yul\":13762:13766   */\n      0x00\n        /* \"#utility.yul\":13800:13802   */\n      0x20\n        /* \"#utility.yul\":13789:13798   */\n      dup3\n        /* \"#utility.yul\":13785:13803   */\n      add\n        /* \"#utility.yul\":13777:13803   */\n      swap1\n      pop\n        /* \"#utility.yul\":13813:13884   */\n      tag_322\n        /* \"#utility.yul\":13881:13882   */\n      0x00\n        /* \"#utility.yul\":13870:13879   */\n      dup4\n        /* \"#utility.yul\":13866:13883   */\n      add\n        /* \"#utility.yul\":13857:13863   */\n      dup5\n        /* \"#utility.yul\":13813:13884   */\n      tag_164\n      jump\t// in\n    tag_322:\n        /* \"#utility.yul\":13669:13891   */\n      swap3\n      swap2\n      pop\n      pop\n      jump\t// out\n        /* \"#utility.yul\":13897:14226   */\n    tag_31:\n        /* \"#utility.yul\":13956:13962   */\n      0x00\n        /* \"#utility.yul\":14005:14007   */\n      0x20\n        /* \"#utility.yul\":13993:14002   */\n      dup3\n        /* \"#utility.yul\":13984:13991   */\n      dup5\n        /* \"#utility.yul\":13980:14003   */\n      sub\n        /* \"#utility.yul\":13976:14008   */\n      slt\n        /* \"#utility.yul\":13973:14092   */\n      iszero\n      tag_324\n      jumpi\n        /* \"#utility.yul\":14011:14090   */\n      tag_325\n      tag_142\n      jump\t// in\n    tag_325:\n        /* \"#utility.yul\":13973:14092   */\n    tag_324:\n        /* \"#utility.yul\":14131:14132   */\n      0x00\n        /* \"#utility.yul\":14156:14209   */\n      tag_326\n        /* \"#utility.yul\":14201:14208   */\n      dup5\n        /* \"#utility.yul\":14192:14198   */\n      dup3\n        /* \"#utility.yul\":14181:14190   */\n      dup6\n        /* \"#utility.yul\":14177:14199   */\n      add\n        /* \"#utility.yul\":14156:14209   */\n      tag_154\n      jump\t// in\n    tag_326:\n        /* \"#utility.yul\":14146:14209   */\n      swap2\n      pop\n        /* \"#utility.yul\":14102:14219   */\n      pop\n        /* \"#utility.yul\":13897:14226   */\n      swap3\n      swap2\n      pop\n      pop\n      jump\t// out\n        /* \"#utility.yul\":14232:14401   */\n    tag_165:\n        /* \"#utility.yul\":14316:14327   */\n      0x00\n        /* \"#utility.yul\":14350:14356   */\n      dup3\n        /* \"#utility.yul\":14345:14348   */\n      dup3\n        /* \"#utility.yul\":14338:14357   */\n      mstore\n        /* \"#utility.yul\":14390:14394   */\n      0x20\n        /* \"#utility.yul\":14385:14388   */\n      dup3\n        /* \"#utility.yul\":14381:14395   */\n      add\n        /* \"#utility.yul\":14366:14395   */\n      swap1\n      pop\n        /* \"#utility.yul\":14232:14401   */\n      swap3\n      swap2\n      pop\n      pop\n      jump\t// out\n        /* \"#utility.yul\":14407:14640   */\n    tag_166:\n        /* \"#utility.yul\":14547:14581   */\n      0x537465703744617461626173653a206f6e6c7920636f6e747261637420776869\n        /* \"#utility.yul\":14543:14544   */\n      0x00\n        /* \"#utility.yul\":14535:14541   */\n      dup3\n        /* \"#utility.yul\":14531:14545   */\n      add\n        /* \"#utility.yul\":14524:14582   */\n      mstore\n        /* \"#utility.yul\":14616:14632   */\n      0x63682061726520616c6c6f776564000000000000000000000000000000000000\n        /* \"#utility.yul\":14611:14613   */\n      0x20\n        /* \"#utility.yul\":14603:14609   */\n      dup3\n        /* \"#utility.yul\":14599:14614   */\n      add\n        /* \"#utility.yul\":14592:14633   */\n      mstore\n        /* \"#utility.yul\":14407:14640   */\n      pop\n      jump\t// out\n        /* \"#utility.yul\":14646:15012   */\n    tag_167:\n        /* \"#utility.yul\":14788:14791   */\n      0x00\n        /* \"#utility.yul\":14809:14876   */\n      tag_330\n        /* \"#utility.yul\":14873:14875   */\n      0x2e\n        /* \"#utility.yul\":14868:14871   */\n      dup4\n        /* \"#utility.yul\":14809:14876   */\n      tag_165\n      jump\t// in\n    tag_330:\n        /* \"#utility.yul\":14802:14876   */\n      swap2\n      pop\n        /* \"#utility.yul\":14885:14978   */\n      tag_331\n        /* \"#utility.yul\":14974:14977   */\n      dup3\n        /* \"#utility.yul\":14885:14978   */\n      tag_166\n      jump\t// in\n    tag_331:\n        /* \"#utility.yul\":15003:15005   */\n      0x40\n        /* \"#utility.yul\":14998:15001   */\n      dup3\n        /* \"#utility.yul\":14994:15006   */\n      add\n        /* \"#utility.yul\":14987:15006   */\n      swap1\n      pop\n        /* \"#utility.yul\":14646:15012   */\n      swap2\n      swap1\n      pop\n      jump\t// out\n        /* \"#utility.yul\":15018:15437   */\n    tag_41:\n        /* \"#utility.yul\":15184:15188   */\n      0x00\n        /* \"#utility.yul\":15222:15224   */\n      0x20\n        /* \"#utility.yul\":15211:15220   */\n      dup3\n        /* \"#utility.yul\":15207:15225   */\n      add\n        /* \"#utility.yul\":15199:15225   */\n      swap1\n      pop\n        /* \"#utility.yul\":15271:15280   */\n      dup2\n        /* \"#utility.yul\":15265:15269   */\n      dup2\n        /* \"#utility.yul\":15261:15281   */\n      sub\n        /* \"#utility.yul\":15257:15258   */\n      0x00\n        /* \"#utility.yul\":15246:15255   */\n      dup4\n        /* \"#utility.yul\":15242:15259   */\n      add\n        /* \"#utility.yul\":15235:15282   */\n      mstore\n        /* \"#utility.yul\":15299:15430   */\n      tag_333\n        /* \"#utility.yul\":15425:15429   */\n      dup2\n        /* \"#utility.yul\":15299:15430   */\n      tag_167\n      jump\t// in\n    tag_333:\n        /* \"#utility.yul\":15291:15430   */\n      swap1\n      pop\n        /* \"#utility.yul\":15018:15437   */\n      swap2\n      swap1\n      pop\n      jump\t// out\n        /* \"#utility.yul\":15443:15623   */\n    tag_168:\n        /* \"#utility.yul\":15491:15568   */\n      0x4e487b7100000000000000000000000000000000000000000000000000000000\n        /* \"#utility.yul\":15488:15489   */\n      0x00\n        /* \"#utility.yul\":15481:15569   */\n      mstore\n        /* \"#utility.yul\":15588:15592   */\n      0x22\n        /* \"#utility.yul\":15585:15586   */\n      0x04\n        /* \"#utility.yul\":15578:15593   */\n      mstore\n        /* \"#utility.yul\":15612:15616   */\n      0x24\n        /* \"#utility.yul\":15609:15610   */\n      0x00\n        /* \"#utility.yul\":15602:15617   */\n      revert\n        /* \"#utility.yul\":15629:15949   */\n    tag_47:\n        /* \"#utility.yul\":15673:15679   */\n      0x00\n        /* \"#utility.yul\":15710:15711   */\n      0x02\n        /* \"#utility.yul\":15704:15708   */\n      dup3\n        /* \"#utility.yul\":15700:15712   */\n      div\n        /* \"#utility.yul\":15690:15712   */\n      swap1\n      pop\n        /* \"#utility.yul\":15757:15758   */\n      0x01\n        /* \"#utility.yul\":15751:15755   */\n      dup3\n        /* \"#utility.yul\":15747:15759   */\n      and\n        /* \"#utility.yul\":15778:15796   */\n      dup1\n        /* \"#utility.yul\":15768:15849   */\n      tag_336\n      jumpi\n        /* \"#utility.yul\":15834:15838   */\n      0x7f\n        /* \"#utility.yul\":15826:15832   */\n      dup3\n        /* \"#utility.yul\":15822:15839   */\n      and\n        /* \"#utility.yul\":15812:15839   */\n      swap2\n      pop\n        /* \"#utility.yul\":15768:15849   */\n    tag_336:\n        /* \"#utility.yul\":15896:15898   */\n      0x20\n        /* \"#utility.yul\":15888:15894   */\n      dup3\n        /* \"#utility.yul\":15885:15899   */\n      lt\n        /* \"#utility.yul\":15865:15883   */\n      dup2\n        /* \"#utility.yul\":15862:15900   */\n      sub\n        /* \"#utility.yul\":15859:15943   */\n      tag_337\n      jumpi\n        /* \"#utility.yul\":15915:15933   */\n      tag_338\n      tag_168\n      jump\t// in\n    tag_338:\n        /* \"#utility.yul\":15859:15943   */\n    tag_337:\n        /* \"#utility.yul\":15680:15949   */\n      pop\n        /* \"#utility.yul\":15629:15949   */\n      swap2\n      swap1\n      pop\n      jump\t// out\n        /* \"#utility.yul\":15955:16184   */\n    tag_169:\n        /* \"#utility.yul\":16095:16129   */\n      0x537465703744617461626173653a207065726d697373696f6e20686173206265\n        /* \"#utility.yul\":16091:16092   */\n      0x00\n        /* \"#utility.yul\":16083:16089   */\n      dup3\n        /* \"#utility.yul\":16079:16093   */\n      add\n        /* \"#utility.yul\":16072:16130   */\n      mstore\n        /* \"#utility.yul\":16164:16176   */\n      0x656e206772616e74656400000000000000000000000000000000000000000000\n        /* \"#utility.yul\":16159:16161   */\n      0x20\n        /* \"#utility.yul\":16151:16157   */\n      dup3\n        /* \"#utility.yul\":16147:16162   */\n      add\n        /* \"#utility.yul\":16140:16177   */\n      mstore\n        /* \"#utility.yul\":15955:16184   */\n      pop\n      jump\t// out\n        /* \"#utility.yul\":16190:16556   */\n    tag_170:\n        /* \"#utility.yul\":16332:16335   */\n      0x00\n        /* \"#utility.yul\":16353:16420   */\n      tag_341\n        /* \"#utility.yul\":16417:16419   */\n      0x2a\n        /* \"#utility.yul\":16412:16415   */\n      dup4\n        /* \"#utility.yul\":16353:16420   */\n      tag_165\n      jump\t// in\n    tag_341:\n        /* \"#utility.yul\":16346:16420   */\n      swap2\n      pop\n        /* \"#utility.yul\":16429:16522   */\n      tag_342\n        /* \"#utility.yul\":16518:16521   */\n      dup3\n        /* \"#utility.yul\":16429:16522   */\n      tag_169\n      jump\t// in\n    tag_342:\n        /* \"#utility.yul\":16547:16549   */\n      0x40\n        /* \"#utility.yul\":16542:16545   */\n      dup3\n        /* \"#utility.yul\":16538:16550   */\n      add\n        /* \"#utility.yul\":16531:16550   */\n      swap1\n      pop\n        /* \"#utility.yul\":16190:16556   */\n      swap2\n      swap1\n      pop\n      jump\t// out\n        /* \"#utility.yul\":16562:16981   */\n    tag_83:\n        /* \"#utility.yul\":16728:16732   */\n      0x00\n        /* \"#utility.yul\":16766:16768   */\n      0x20\n        /* \"#utility.yul\":16755:16764   */\n      dup3\n        /* \"#utility.yul\":16751:16769   */\n      add\n        /* \"#utility.yul\":16743:16769   */\n      swap1\n      pop\n        /* \"#utility.yul\":16815:16824   */\n      dup2\n        /* \"#utility.yul\":16809:16813   */\n      dup2\n        /* \"#utility.yul\":16805:16825   */\n      sub\n        /* \"#utility.yul\":16801:16802   */\n      0x00\n        /* \"#utility.yul\":16790:16799   */\n      dup4\n        /* \"#utility.yul\":16786:16803   */\n      add\n        /* \"#utility.yul\":16779:16826   */\n      mstore\n        /* \"#utility.yul\":16843:16974   */\n      tag_344\n        /* \"#utility.yul\":16969:16973   */\n      dup2\n        /* \"#utility.yul\":16843:16974   */\n      tag_170\n      jump\t// in\n    tag_344:\n        /* \"#utility.yul\":16835:16974   */\n      swap1\n      pop\n        /* \"#utility.yul\":16562:16981   */\n      swap2\n      swap1\n      pop\n      jump\t// out\n        /* \"#utility.yul\":16987:17128   */\n    tag_171:\n        /* \"#utility.yul\":17036:17040   */\n      0x00\n        /* \"#utility.yul\":17059:17062   */\n      dup2\n        /* \"#utility.yul\":17051:17062   */\n      swap1\n      pop\n        /* \"#utility.yul\":17082:17085   */\n      dup2\n        /* \"#utility.yul\":17079:17080   */\n      0x00\n        /* \"#utility.yul\":17072:17086   */\n      mstore\n        /* \"#utility.yul\":17116:17120   */\n      0x20\n        /* \"#utility.yul\":17113:17114   */\n      0x00\n        /* \"#utility.yul\":17103:17121   */\n      keccak256\n        /* \"#utility.yul\":17095:17121   */\n      swap1\n      pop\n        /* \"#utility.yul\":16987:17128   */\n      swap2\n      swap1\n      pop\n      jump\t// out\n        /* \"#utility.yul\":17134:17227   */\n    tag_172:\n        /* \"#utility.yul\":17171:17177   */\n      0x00\n        /* \"#utility.yul\":17218:17220   */\n      0x20\n        /* \"#utility.yul\":17213:17215   */\n      0x1f\n        /* \"#utility.yul\":17206:17211   */\n      dup4\n        /* \"#utility.yul\":17202:17216   */\n      add\n        /* \"#utility.yul\":17198:17221   */\n      div\n        /* \"#utility.yul\":17188:17221   */\n      swap1\n      pop\n        /* \"#utility.yul\":17134:17227   */\n      swap2\n      swap1\n      pop\n      jump\t// out\n        /* \"#utility.yul\":17233:17340   */\n    tag_173:\n        /* \"#utility.yul\":17277:17285   */\n      0x00\n        /* \"#utility.yul\":17327:17332   */\n      dup3\n        /* \"#utility.yul\":17321:17325   */\n      dup3\n        /* \"#utility.yul\":17317:17333   */\n      shl\n        /* \"#utility.yul\":17296:17333   */\n      swap1\n      pop\n        /* \"#utility.yul\":17233:17340   */\n      swap3\n      swap2\n      pop\n      pop\n      jump\t// out\n        /* \"#utility.yul\":17346:17739   */\n    tag_174:\n        /* \"#utility.yul\":17415:17421   */\n      0x00\n        /* \"#utility.yul\":17465:17466   */\n      0x08\n        /* \"#utility.yul\":17453:17463   */\n      dup4\n        /* \"#utility.yul\":17449:17467   */\n      mul\n        /* \"#utility.yul\":17488:17585   */\n      tag_349\n        /* \"#utility.yul\":17518:17584   */\n      0xffffffffffffffffffffffffffffffffffffffffffffffffffffffffffffffff\n        /* \"#utility.yul\":17507:17516   */\n      dup3\n        /* \"#utility.yul\":17488:17585   */\n      tag_173\n      jump\t// in\n    tag_349:\n        /* \"#utility.yul\":17606:17645   */\n      tag_350\n        /* \"#utility.yul\":17636:17644   */\n      dup7\n        /* \"#utility.yul\":17625:17634   */\n      dup4\n        /* \"#utility.yul\":17606:17645   */\n      tag_173\n      jump\t// in\n    tag_350:\n        /* \"#utility.yul\":17594:17645   */\n      swap6\n      pop\n        /* \"#utility.yul\":17678:17682   */\n      dup1\n        /* \"#utility.yul\":17674:17683   */\n      not\n        /* \"#utility.yul\":17667:17672   */\n      dup5\n        /* \"#utility.yul\":17663:17684   */\n      and\n        /* \"#utility.yul\":17654:17684   */\n      swap4\n      pop\n        /* \"#utility.yul\":17727:17731   */\n      dup1\n        /* \"#utility.yul\":17717:17725   */\n      dup7\n        /* \"#utility.yul\":17713:17732   */\n      and\n        /* \"#utility.yul\":17706:17711   */\n      dup5\n        /* \"#utility.yul\":17703:17733   */\n      or\n        /* \"#utility.yul\":17693:17733   */\n      swap3\n      pop\n        /* \"#utility.yul\":17422:17739   */\n      pop\n      pop\n        /* \"#utility.yul\":17346:17739   */\n      swap4\n      swap3\n      pop\n      pop\n      pop\n      jump\t// out\n        /* \"#utility.yul\":17745:17805   */\n    tag_175:\n        /* \"#utility.yul\":17773:17776   */\n      0x00\n        /* \"#utility.yul\":17794:17799   */\n      dup2\n        /* \"#utility.yul\":17787:17799   */\n      swap1\n      pop\n        /* \"#utility.yul\":17745:17805   */\n      swap2\n      swap1\n      pop\n      jump\t// out\n        /* \"#utility.yul\":17811:17953   */\n    tag_176:\n        /* \"#utility.yul\":17861:17870   */\n      0x00\n        /* \"#utility.yul\":17894:17947   */\n      tag_353\n        /* \"#utility.yul\":17912:17946   */\n      tag_354\n        /* \"#utility.yul\":17921:17945   */\n      tag_355\n        /* \"#utility.yul\":17939:17944   */\n      dup5\n        /* \"#utility.yul\":17921:17945   */\n      tag_128\n      jump\t// in\n    tag_355:\n        /* \"#utility.yul\":17912:17946   */\n      tag_175\n      jump\t// in\n    tag_354:\n        /* \"#utility.yul\":17894:17947   */\n      tag_128\n      jump\t// in\n    tag_353:\n        /* \"#utility.yul\":17881:17947   */\n      swap1\n      pop\n        /* \"#utility.yul\":17811:17953   */\n      swap2\n      swap1\n      pop\n      jump\t// out\n        /* \"#utility.yul\":17959:18034   */\n    tag_177:\n        /* \"#utility.yul\":18002:18005   */\n      0x00\n        /* \"#utility.yul\":18023:18028   */\n      dup2\n        /* \"#utility.yul\":18016:18028   */\n      swap1\n      pop\n        /* \"#utility.yul\":17959:18034   */\n      swap2\n      swap1\n      pop\n      jump\t// out\n        /* \"#utility.yul\":18040:18309   */\n    tag_178:\n        /* \"#utility.yul\":18150:18189   */\n      tag_358\n        /* \"#utility.yul\":18181:18188   */\n      dup4\n        /* \"#utility.yul\":18150:18189   */\n      tag_176\n      jump\t// in\n    tag_358:\n        /* \"#utility.yul\":18211:18302   */\n      tag_359\n        /* \"#utility.yul\":18260:18301   */\n      tag_360\n        /* \"#utility.yul\":18284:18300   */\n      dup3\n        /* \"#utility.yul\":18260:18301   */\n      tag_177\n      jump\t// in\n    tag_360:\n        /* \"#utility.yul\":18252:18258   */\n      dup5\n        /* \"#utility.yul\":18245:18249   */\n      dup5\n        /* \"#utility.yul\":18239:18250   */\n      sload\n        /* \"#utility.yul\":18211:18302   */\n      tag_174\n      jump\t// in\n    tag_359:\n        /* \"#utility.yul\":18205:18209   */\n      dup3\n        /* \"#utility.yul\":18198:18303   */\n      sstore\n        /* \"#utility.yul\":18116:18309   */\n      pop\n        /* \"#utility.yul\":18040:18309   */\n      pop\n      pop\n      pop\n      jump\t// out\n        /* \"#utility.yul\":18315:18388   */\n    tag_179:\n        /* \"#utility.yul\":18360:18363   */\n      0x00\n        /* \"#utility.yul\":18315:18388   */\n      swap1\n      jump\t// out\n        /* \"#utility.yul\":18394:18583   */\n    tag_180:\n        /* \"#utility.yul\":18471:18503   */\n      tag_363\n      tag_179\n      jump\t// in\n    tag_363:\n        /* \"#utility.yul\":18512:18577   */\n      tag_364\n        /* \"#utility.yul\":18570:18576   */\n      dup2\n        /* \"#utility.yul\":18562:18568   */\n      dup5\n        /* \"#utility.yul\":18556:18560   */\n      dup5\n        /* \"#utility.yul\":18512:18577   */\n      tag_178\n      jump\t// in\n    tag_364:\n        /* \"#utility.yul\":18447:18583   */\n      pop\n        /* \"#utility.yul\":18394:18583   */\n      pop\n      pop\n      jump\t// out\n        /* \"#utility.yul\":18589:18775   */\n    tag_181:\n        /* \"#utility.yul\":18649:18769   */\n    tag_366:\n        /* \"#utility.yul\":18666:18669   */\n      dup2\n        /* \"#utility.yul\":18659:18664   */\n      dup2\n        /* \"#utility.yul\":18656:18670   */\n      lt\n        /* \"#utility.yul\":18649:18769   */\n      iszero\n      tag_368\n      jumpi\n        /* \"#utility.yul\":18720:18759   */\n      tag_369\n        /* \"#utility.yul\":18757:18758   */\n      0x00\n        /* \"#utility.yul\":18750:18755   */\n      dup3\n        /* \"#utility.yul\":18720:18759   */\n      tag_180\n      jump\t// in\n    tag_369:\n        /* \"#utility.yul\":18693:18694   */\n      0x01\n        /* \"#utility.yul\":18686:18691   */\n      dup2\n        /* \"#utility.yul\":18682:18695   */\n      add\n        /* \"#utility.yul\":18673:18695   */\n      swap1\n      pop\n        /* \"#utility.yul\":18649:18769   */\n      jump(tag_366)\n    tag_368:\n        /* \"#utility.yul\":18589:18775   */\n      pop\n      pop\n      jump\t// out\n        /* \"#utility.yul\":18781:19324   */\n    tag_182:\n        /* \"#utility.yul\":18882:18884   */\n      0x1f\n        /* \"#utility.yul\":18877:18880   */\n      dup3\n        /* \"#utility.yul\":18874:18885   */\n      gt\n        /* \"#utility.yul\":18871:19317   */\n      iszero\n      tag_371\n      jumpi\n        /* \"#utility.yul\":18916:18954   */\n      tag_372\n        /* \"#utility.yul\":18948:18953   */\n      dup2\n        /* \"#utility.yul\":18916:18954   */\n      tag_171\n      jump\t// in\n    tag_372:\n        /* \"#utility.yul\":19000:19029   */\n      tag_373\n        /* \"#utility.yul\":19018:19028   */\n      dup5\n        /* \"#utility.yul\":19000:19029   */\n      tag_172\n      jump\t// in\n    tag_373:\n        /* \"#utility.yul\":18990:18998   */\n      dup2\n        /* \"#utility.yul\":18986:19030   */\n      add\n        /* \"#utility.yul\":19183:19185   */\n      0x20\n        /* \"#utility.yul\":19171:19181   */\n      dup6\n        /* \"#utility.yul\":19168:19186   */\n      lt\n        /* \"#utility.yul\":19165:19214   */\n      iszero\n      tag_374\n      jumpi\n        /* \"#utility.yul\":19204:19212   */\n      dup2\n        /* \"#utility.yul\":19189:19212   */\n      swap1\n      pop\n        /* \"#utility.yul\":19165:19214   */\n    tag_374:\n        /* \"#utility.yul\":19227:19307   */\n      tag_375\n        /* \"#utility.yul\":19283:19305   */\n      tag_376\n        /* \"#utility.yul\":19301:19304   */\n      dup6\n        /* \"#utility.yul\":19283:19305   */\n      tag_172\n      jump\t// in\n    tag_376:\n        /* \"#utility.yul\":19273:19281   */\n      dup4\n        /* \"#utility.yul\":19269:19306   */\n      add\n        /* \"#utility.yul\":19256:19267   */\n      dup3\n        /* \"#utility.yul\":19227:19307   */\n      tag_181\n      jump\t// in\n    tag_375:\n        /* \"#utility.yul\":18886:19317   */\n      pop\n      pop\n        /* \"#utility.yul\":18871:19317   */\n    tag_371:\n        /* \"#utility.yul\":18781:19324   */\n      pop\n      pop\n      pop\n      jump\t// out\n        /* \"#utility.yul\":19330:19447   */\n    tag_183:\n        /* \"#utility.yul\":19384:19392   */\n      0x00\n        /* \"#utility.yul\":19434:19439   */\n      dup3\n        /* \"#utility.yul\":19428:19432   */\n      dup3\n        /* \"#utility.yul\":19424:19440   */\n      shr\n        /* \"#utility.yul\":19403:19440   */\n      swap1\n      pop\n        /* \"#utility.yul\":19330:19447   */\n      swap3\n      swap2\n      pop\n      pop\n      jump\t// out\n        /* \"#utility.yul\":19453:19622   */\n    tag_184:\n        /* \"#utility.yul\":19497:19503   */\n      0x00\n        /* \"#utility.yul\":19530:19581   */\n      tag_379\n        /* \"#utility.yul\":19578:19579   */\n      0x00\n        /* \"#utility.yul\":19574:19580   */\n      not\n        /* \"#utility.yul\":19566:19571   */\n      dup5\n        /* \"#utility.yul\":19563:19564   */\n      0x08\n        /* \"#utility.yul\":19559:19572   */\n      mul\n        /* \"#utility.yul\":19530:19581   */\n      tag_183\n      jump\t// in\n    tag_379:\n        /* \"#utility.yul\":19526:19582   */\n      not\n        /* \"#utility.yul\":19611:19615   */\n      dup1\n        /* \"#utility.yul\":19605:19609   */\n      dup4\n        /* \"#utility.yul\":19601:19616   */\n      and\n        /* \"#utility.yul\":19591:19616   */\n      swap2\n      pop\n        /* \"#utility.yul\":19504:19622   */\n      pop\n        /* \"#utility.yul\":19453:19622   */\n      swap3\n      swap2\n      pop\n      pop\n      jump\t// out\n        /* \"#utility.yul\":19627:19922   */\n    tag_185:\n        /* \"#utility.yul\":19703:19707   */\n      0x00\n        /* \"#utility.yul\":19849:19878   */\n      tag_381\n        /* \"#utility.yul\":19874:19877   */\n      dup4\n        /* \"#utility.yul\":19868:19872   */\n      dup4\n        /* \"#utility.yul\":19849:19878   */\n      tag_184\n      jump\t// in\n    tag_381:\n        /* \"#utility.yul\":19841:19878   */\n      swap2\n      pop\n        /* \"#utility.yul\":19911:19914   */\n      dup3\n        /* \"#utility.yul\":19908:19909   */\n      0x02\n        /* \"#utility.yul\":19904:19915   */\n      mul\n        /* \"#utility.yul\":19898:19902   */\n      dup3\n        /* \"#utility.yul\":19895:19916   */\n      or\n        /* \"#utility.yul\":19887:19916   */\n      swap1\n      pop\n        /* \"#utility.yul\":19627:19922   */\n      swap3\n      swap2\n      pop\n      pop\n      jump\t// out\n        /* \"#utility.yul\":19927:21322   */\n    tag_91:\n        /* \"#utility.yul\":20044:20081   */\n      tag_383\n        /* \"#utility.yul\":20077:20080   */\n      dup3\n        /* \"#utility.yul\":20044:20081   */\n      tag_130\n      jump\t// in\n    tag_383:\n        /* \"#utility.yul\":20146:20164   */\n      0xffffffffffffffff\n        /* \"#utility.yul\":20138:20144   */\n      dup2\n        /* \"#utility.yul\":20135:20165   */\n      gt\n        /* \"#utility.yul\":20132:20188   */\n      iszero\n      tag_384\n      jumpi\n        /* \"#utility.yul\":20168:20186   */\n      tag_385\n      tag_149\n      jump\t// in\n    tag_385:\n        /* \"#utility.yul\":20132:20188   */\n    tag_384:\n        /* \"#utility.yul\":20212:20250   */\n      tag_386\n        /* \"#utility.yul\":20244:20248   */\n      dup3\n        /* \"#utility.yul\":20238:20249   */\n      sload\n        /* \"#utility.yul\":20212:20250   */\n      tag_47\n      jump\t// in\n    tag_386:\n        /* \"#utility.yul\":20297:20364   */\n      tag_387\n        /* \"#utility.yul\":20357:20363   */\n      dup3\n        /* \"#utility.yul\":20349:20355   */\n      dup3\n        /* \"#utility.yul\":20343:20347   */\n      dup6\n        /* \"#utility.yul\":20297:20364   */\n      tag_182\n      jump\t// in\n    tag_387:\n        /* \"#utility.yul\":20391:20392   */\n      0x00\n        /* \"#utility.yul\":20415:20419   */\n      0x20\n        /* \"#utility.yul\":20402:20419   */\n      swap1\n      pop\n        /* \"#utility.yul\":20447:20449   */\n      0x1f\n        /* \"#utility.yul\":20439:20445   */\n      dup4\n        /* \"#utility.yul\":20436:20450   */\n      gt\n        /* \"#utility.yul\":20464:20465   */\n      0x01\n        /* \"#utility.yul\":20459:21077   */\n      dup2\n      eq\n      tag_389\n      jumpi\n        /* \"#utility.yul\":21121:21122   */\n      0x00\n        /* \"#utility.yul\":21138:21144   */\n      dup5\n        /* \"#utility.yul\":21135:21212   */\n      iszero\n      tag_390\n      jumpi\n        /* \"#utility.yul\":21187:21196   */\n      dup3\n        /* \"#utility.yul\":21182:21185   */\n      dup8\n        /* \"#utility.yul\":21178:21197   */\n      add\n        /* \"#utility.yul\":21172:21198   */\n      mload\n        /* \"#utility.yul\":21163:21198   */\n      swap1\n      pop\n        /* \"#utility.yul\":21135:21212   */\n    tag_390:\n        /* \"#utility.yul\":21238:21305   */\n      tag_391\n        /* \"#utility.yul\":21298:21304   */\n      dup6\n        /* \"#utility.yul\":21291:21296   */\n      dup3\n        /* \"#utility.yul\":21238:21305   */\n      tag_185\n      jump\t// in\n    tag_391:\n        /* \"#utility.yul\":21232:21236   */\n      dup7\n        /* \"#utility.yul\":21225:21306   */\n      sstore\n        /* \"#utility.yul\":21094:21316   */\n      pop\n        /* \"#utility.yul\":20429:21316   */\n      jump(tag_388)\n        /* \"#utility.yul\":20459:21077   */\n    tag_389:\n        /* \"#utility.yul\":20511:20515   */\n      0x1f\n        /* \"#utility.yul\":20507:20516   */\n      not\n        /* \"#utility.yul\":20499:20505   */\n      dup5\n        /* \"#utility.yul\":20495:20517   */\n      and\n        /* \"#utility.yul\":20545:20582   */\n      tag_392\n        /* \"#utility.yul\":20577:20581   */\n      dup7\n        /* \"#utility.yul\":20545:20582   */\n      tag_171\n      jump\t// in\n    tag_392:\n        /* \"#utility.yul\":20604:20605   */\n      0x00\n        /* \"#utility.yul\":20618:20826   */\n    tag_393:\n        /* \"#utility.yul\":20632:20639   */\n      dup3\n        /* \"#utility.yul\":20629:20630   */\n      dup2\n        /* \"#utility.yul\":20626:20640   */\n      lt\n        /* \"#utility.yul\":20618:20826   */\n      iszero\n      tag_395\n      jumpi\n        /* \"#utility.yul\":20711:20720   */\n      dup5\n        /* \"#utility.yul\":20706:20709   */\n      dup10\n        /* \"#utility.yul\":20702:20721   */\n      add\n        /* \"#utility.yul\":20696:20722   */\n      mload\n        /* \"#utility.yul\":20688:20694   */\n      dup3\n        /* \"#utility.yul\":20681:20723   */\n      sstore\n        /* \"#utility.yul\":20762:20763   */\n      0x01\n        /* \"#utility.yul\":20754:20760   */\n      dup3\n        /* \"#utility.yul\":20750:20764   */\n      add\n        /* \"#utility.yul\":20740:20764   */\n      swap2\n      pop\n        /* \"#utility.yul\":20809:20811   */\n      0x20\n        /* \"#utility.yul\":20798:20807   */\n      dup6\n        /* \"#utility.yul\":20794:20812   */\n      add\n        /* \"#utility.yul\":20781:20812   */\n      swap5\n      pop\n        /* \"#utility.yul\":20655:20659   */\n      0x20\n        /* \"#utility.yul\":20652:20653   */\n      dup2\n        /* \"#utility.yul\":20648:20660   */\n      add\n        /* \"#utility.yul\":20643:20660   */\n      swap1\n      pop\n        /* \"#utility.yul\":20618:20826   */\n      jump(tag_393)\n    tag_395:\n        /* \"#utility.yul\":20854:20860   */\n      dup7\n        /* \"#utility.yul\":20845:20852   */\n      dup4\n        /* \"#utility.yul\":20842:20861   */\n      lt\n        /* \"#utility.yul\":20839:21018   */\n      iszero\n      tag_396\n      jumpi\n        /* \"#utility.yul\":20912:20921   */\n      dup5\n        /* \"#utility.yul\":20907:20910   */\n      dup10\n        /* \"#utility.yul\":20903:20922   */\n      add\n        /* \"#utility.yul\":20897:20923   */\n      mload\n        /* \"#utility.yul\":20955:21003   */\n      tag_397\n        /* \"#utility.yul\":20997:21001   */\n      0x1f\n        /* \"#utility.yul\":20989:20995   */\n      dup10\n        /* \"#utility.yul\":20985:21002   */\n      and\n        /* \"#utility.yul\":20974:20983   */\n      dup3\n        /* \"#utility.yul\":20955:21003   */\n      tag_184\n      jump\t// in\n    tag_397:\n        /* \"#utility.yul\":20947:20953   */\n      dup4\n        /* \"#utility.yul\":20940:21004   */\n      sstore\n        /* \"#utility.yul\":20862:21018   */\n      pop\n        /* \"#utility.yul\":20839:21018   */\n    tag_396:\n        /* \"#utility.yul\":21064:21065   */\n      0x01\n        /* \"#utility.yul\":21060:21061   */\n      0x02\n        /* \"#utility.yul\":21052:21058   */\n      dup9\n        /* \"#utility.yul\":21048:21062   */\n      mul\n        /* \"#utility.yul\":21044:21066   */\n      add\n        /* \"#utility.yul\":21038:21042   */\n      dup9\n        /* \"#utility.yul\":21031:21067   */\n      sstore\n        /* \"#utility.yul\":20466:21077   */\n      pop\n      pop\n      pop\n        /* \"#utility.yul\":20429:21316   */\n    tag_388:\n      pop\n        /* \"#utility.yul\":20019:21322   */\n      pop\n      pop\n      pop\n        /* \"#utility.yul\":19927:21322   */\n      pop\n      pop\n      jump\t// out\n        /* \"#utility.yul\":21328:21508   */\n    tag_108:\n        /* \"#utility.yul\":21376:21453   */\n      0x4e487b7100000000000000000000000000000000000000000000000000000000\n        /* \"#utility.yul\":21373:21374   */\n      0x00\n        /* \"#utility.yul\":21366:21454   */\n      mstore\n        /* \"#utility.yul\":21473:21477   */\n      0x32\n        /* \"#utility.yul\":21470:21471   */\n      0x04\n        /* \"#utility.yul\":21463:21478   */\n      mstore\n        /* \"#utility.yul\":21497:21501   */\n      0x24\n        /* \"#utility.yul\":21494:21495   */\n      0x00\n        /* \"#utility.yul\":21487:21502   */\n      revert\n        /* \"#utility.yul\":21514:21739   */\n    tag_186:\n        /* \"#utility.yul\":21654:21688   */\n      0x4f776e61626c653a206e6577206f776e657220697320746865207a65726f2061\n        /* \"#utility.yul\":21650:21651   */\n      0x00\n        /* \"#utility.yul\":21642:21648   */\n      dup3\n        /* \"#utility.yul\":21638:21652   */\n      add\n        /* \"#utility.yul\":21631:21689   */\n      mstore\n        /* \"#utility.yul\":21723:21731   */\n      0x6464726573730000000000000000000000000000000000000000000000000000\n        /* \"#utility.yul\":21718:21720   */\n      0x20\n        /* \"#utility.yul\":21710:21716   */\n      dup3\n        /* \"#utility.yul\":21706:21721   */\n      add\n        /* \"#utility.yul\":21699:21732   */\n      mstore\n        /* \"#utility.yul\":21514:21739   */\n      pop\n      jump\t// out\n        /* \"#utility.yul\":21745:22111   */\n    tag_187:\n        /* \"#utility.yul\":21887:21890   */\n      0x00\n        /* \"#utility.yul\":21908:21975   */\n      tag_401\n        /* \"#utility.yul\":21972:21974   */\n      0x26\n        /* \"#utility.yul\":21967:21970   */\n      dup4\n        /* \"#utility.yul\":21908:21975   */\n      tag_165\n      jump\t// in\n    tag_401:\n        /* \"#utility.yul\":21901:21975   */\n      swap2\n      pop\n        /* \"#utility.yul\":21984:22077   */\n      tag_402\n        /* \"#utility.yul\":22073:22076   */\n      dup3\n        /* \"#utility.yul\":21984:22077   */\n      tag_186\n      jump\t// in\n    tag_402:\n        /* \"#utility.yul\":22102:22104   */\n      0x40\n        /* \"#utility.yul\":22097:22100   */\n      dup3\n        /* \"#utility.yul\":22093:22105   */\n      add\n        /* \"#utility.yul\":22086:22105   */\n      swap1\n      pop\n        /* \"#utility.yul\":21745:22111   */\n      swap2\n      swap1\n      pop\n      jump\t// out\n        /* \"#utility.yul\":22117:22536   */\n    tag_115:\n        /* \"#utility.yul\":22283:22287   */\n      0x00\n        /* \"#utility.yul\":22321:22323   */\n      0x20\n        /* \"#utility.yul\":22310:22319   */\n      dup3\n        /* \"#utility.yul\":22306:22324   */\n      add\n        /* \"#utility.yul\":22298:22324   */\n      swap1\n      pop\n        /* \"#utility.yul\":22370:22379   */\n      dup2\n        /* \"#utility.yul\":22364:22368   */\n      dup2\n        /* \"#utility.yul\":22360:22380   */\n      sub\n        /* \"#utility.yul\":22356:22357   */\n      0x00\n        /* \"#utility.yul\":22345:22354   */\n      dup4\n        /* \"#utility.yul\":22341:22358   */\n      add\n        /* \"#utility.yul\":22334:22381   */\n      mstore\n        /* \"#utility.yul\":22398:22529   */\n      tag_404\n        /* \"#utility.yul\":22524:22528   */\n      dup2\n        /* \"#utility.yul\":22398:22529   */\n      tag_187\n      jump\t// in\n    tag_404:\n        /* \"#utility.yul\":22390:22529   */\n      swap1\n      pop\n        /* \"#utility.yul\":22117:22536   */\n      swap2\n      swap1\n      pop\n      jump\t// out\n        /* \"#utility.yul\":22542:22724   */\n    tag_188:\n        /* \"#utility.yul\":22682:22716   */\n      0x4f776e61626c653a2063616c6c6572206973206e6f7420746865206f776e6572\n        /* \"#utility.yul\":22678:22679   */\n      0x00\n        /* \"#utility.yul\":22670:22676   */\n      dup3\n        /* \"#utility.yul\":22666:22680   */\n      add\n        /* \"#utility.yul\":22659:22717   */\n      mstore\n        /* \"#utility.yul\":22542:22724   */\n      pop\n      jump\t// out\n        /* \"#utility.yul\":22730:23096   */\n    tag_189:\n        /* \"#utility.yul\":22872:22875   */\n      0x00\n        /* \"#utility.yul\":22893:22960   */\n      tag_407\n        /* \"#utility.yul\":22957:22959   */\n      0x20\n        /* \"#utility.yul\":22952:22955   */\n      dup4\n        /* \"#utility.yul\":22893:22960   */\n      tag_165\n      jump\t// in\n    tag_407:\n        /* \"#utility.yul\":22886:22960   */\n      swap2\n      pop\n        /* \"#utility.yul\":22969:23062   */\n      tag_408\n        /* \"#utility.yul\":23058:23061   */\n      dup3\n        /* \"#utility.yul\":22969:23062   */\n      tag_188\n      jump\t// in\n    tag_408:\n        /* \"#utility.yul\":23087:23089   */\n      0x20\n        /* \"#utility.yul\":23082:23085   */\n      dup3\n        /* \"#utility.yul\":23078:23090   */\n      add\n        /* \"#utility.yul\":23071:23090   */\n      swap1\n      pop\n        /* \"#utility.yul\":22730:23096   */\n      swap2\n      swap1\n      pop\n      jump\t// out\n        /* \"#utility.yul\":23102:23521   */\n    tag_123:\n        /* \"#utility.yul\":23268:23272   */\n      0x00\n        /* \"#utility.yul\":23306:23308   */\n      0x20\n        /* \"#utility.yul\":23295:23304   */\n      dup3\n        /* \"#utility.yul\":23291:23309   */\n      add\n        /* \"#utility.yul\":23283:23309   */\n      swap1\n      pop\n        /* \"#utility.yul\":23355:23364   */\n      dup2\n        /* \"#utility.yul\":23349:23353   */\n      dup2\n        /* \"#utility.yul\":23345:23365   */\n      sub\n        /* \"#utility.yul\":23341:23342   */\n      0x00\n        /* \"#utility.yul\":23330:23339   */\n      dup4\n        /* \"#utility.yul\":23326:23343   */\n      add\n        /* \"#utility.yul\":23319:23366   */\n      mstore\n        /* \"#utility.yul\":23383:23514   */\n      tag_410\n        /* \"#utility.yul\":23509:23513   */\n      dup2\n        /* \"#utility.yul\":23383:23514   */\n      tag_189\n      jump\t// in\n    tag_410:\n        /* \"#utility.yul\":23375:23514   */\n      swap1\n      pop\n        /* \"#utility.yul\":23102:23521   */\n      swap2\n      swap1\n      pop\n      jump\t// out\n\n    auxdata: 0xa2646970667358221220d5844415d7bc201ab44b9e9ca9f08b57890d236c206b20dc51047fd36298710864736f6c63430008120033\n}\n",
				"bytecode": {
					"linkReferences": {},
					"object": "608060405234801561001057600080fd5b50336000806101000a81548173ffffffffffffffffffffffffffffffffffffffff021916908373ffffffffffffffffffffffffffffffffffffffff16021790555061177a806100606000396000f3fe608060405234801561001057600080fd5b506004361061007d5760003560e01c806383197ef01161005b57806383197ef0146100d85780638da5cb5b146100e2578063ee416d5b14610100578063f2fde38b1461011c5761007d565b80634569bd4f146100825780634d0a5dbd146100a0578063695d98cf146100bc575b600080fd5b61008a610138565b6040516100979190610d84565b60405180910390f35b6100ba60048036038101906100b59190610e18565b6105c6565b005b6100d660048036038101906100d19190611164565b6106b6565b005b6100e0610833565b005b6100ea610854565b6040516100f791906111bc565b60405180910390f35b61011a600480360381019061011591906111d7565b61087d565b005b61013660048036038101906101319190610e18565b610950565b005b6060600260006101466109d3565b73ffffffffffffffffffffffffffffffffffffffff1673ffffffffffffffffffffffffffffffffffffffff16815260200190815260200160002060009054906101000a900460ff166101cd576040517f08c379a00000000000000000000000000000000000000000000000000000000081526004016101c490611287565b60405180910390fd5b6001805480602002602001604051908101604052809291908181526020016000905b828210156105bd5783829060005260206000209060090201604051806101200160405290816000820154815260200160018201805461022d906112d6565b80601f0160208091040260200160405190810160405280929190818152602001828054610259906112d6565b80156102a65780601f1061027b576101008083540402835291602001916102a6565b820191906000526020600020905b81548152906001019060200180831161028957829003601f168201915b505050505081526020016002820180546102bf906112d6565b80601f01602080910402602001604051908101604052809291908181526020018280546102eb906112d6565b80156103385780601f1061030d57610100808354040283529160200191610338565b820191906000526020600020905b81548152906001019060200180831161031b57829003601f168201915b50505050508152602001600382018054610351906112d6565b80601f016020809104026020016040519081016040528092919081815260200182805461037d906112d6565b80156103ca5780601f1061039f576101008083540402835291602001916103ca565b820191906000526020600020905b8154815290600101906020018083116103ad57829003601f168201915b505050505081526020016004820180546103e3906112d6565b80601f016020809104026020016040519081016040528092919081815260200182805461040f906112d6565b801561045c5780601f106104315761010080835404028352916020019161045c565b820191906000526020600020905b81548152906001019060200180831161043f57829003601f168201915b50505050508152602001600582018054610475906112d6565b80601f01602080910402602001604051908101604052809291908181526020018280546104a1906112d6565b80156104ee5780601f106104c3576101008083540402835291602001916104ee565b820191906000526020600020905b8154815290600101906020018083116104d157829003601f168201915b5050505050815260200160068201548152602001600782018054610511906112d6565b80601f016020809104026020016040519081016040528092919081815260200182805461053d906112d6565b801561058a5780601f1061055f5761010080835404028352916020019161058a565b820191906000526020600020905b81548152906001019060200180831161056d57829003601f168201915b505050505081526020016008820160009054906101000a900460ff161515151581525050815260200190600101906101ef565b50505050905090565b6105ce6109db565b600260008273ffffffffffffffffffffffffffffffffffffffff1673ffffffffffffffffffffffffffffffffffffffff16815260200190815260200160002060009054906101000a900460ff161561065b576040517f08c379a000000000000000000000000000000000000000000000000000000000815260040161065290611379565b60405180910390fd5b6001600260008373ffffffffffffffffffffffffffffffffffffffff1673ffffffffffffffffffffffffffffffffffffffff16815260200190815260200160002060006101000a81548160ff02191690831515021790555050565b600260006106c26109d3565b73ffffffffffffffffffffffffffffffffffffffff1673ffffffffffffffffffffffffffffffffffffffff16815260200190815260200160002060009054906101000a900460ff16610749576040517f08c379a000000000000000000000000000000000000000000000000000000000815260040161074090611287565b60405180910390fd5b60018190806001815401808255809150506001900390600052602060002090600902016000909190919091506000820151816000015560208201518160010190816107949190611545565b5060408201518160020190816107aa9190611545565b5060608201518160030190816107c09190611545565b5060808201518160040190816107d69190611545565b5060a08201518160050190816107ec9190611545565b5060c0820151816006015560e082015181600701908161080c9190611545565b506101008201518160080160006101000a81548160ff021916908315150217905550505050565b61083b6109db565b3073ffffffffffffffffffffffffffffffffffffffff16ff5b60008060009054906101000a900473ffffffffffffffffffffffffffffffffffffffff16905090565b600260006108896109d3565b73ffffffffffffffffffffffffffffffffffffffff1673ffffffffffffffffffffffffffffffffffffffff16815260200190815260200160002060009054906101000a900460ff16610910576040517f08c379a000000000000000000000000000000000000000000000000000000000815260040161090790611287565b60405180910390fd5b600180828154811061092557610924611617565b5b906000526020600020906009020160080160006101000a81548160ff02191690831515021790555050565b6109586109db565b600073ffffffffffffffffffffffffffffffffffffffff168173ffffffffffffffffffffffffffffffffffffffff16036109c7576040517f08c379a00000000000000000000000000000000000000000000000000000000081526004016109be906116b8565b60405180910390fd5b6109d081610a52565b50565b600033905090565b3373ffffffffffffffffffffffffffffffffffffffff166109fa610854565b73ffffffffffffffffffffffffffffffffffffffff1614610a50576040517f08c379a0000000000000000000000000000000000000000000000000000000008152600401610a4790611724565b60405180910390fd5b565b60008060009054906101000a900473ffffffffffffffffffffffffffffffffffffffff169050816000806101000a81548173ffffffffffffffffffffffffffffffffffffffff021916908373ffffffffffffffffffffffffffffffffffffffff1602179055508173ffffffffffffffffffffffffffffffffffffffff168173ffffffffffffffffffffffffffffffffffffffff167f8be0079c531659141344cd1fd0a4f28419497f9722a3daafe3b4186f6b6457e060405160405180910390a35050565b600081519050919050565b600082825260208201905092915050565b6000819050602082019050919050565b6000819050919050565b610b5581610b42565b82525050565b600081519050919050565b600082825260208201905092915050565b60005b83811015610b95578082015181840152602081019050610b7a565b60008484015250505050565b6000601f19601f8301169050919050565b6000610bbd82610b5b565b610bc78185610b66565b9350610bd7818560208601610b77565b610be081610ba1565b840191505092915050565b60008115159050919050565b610c0081610beb565b82525050565b600061012083016000830151610c1f6000860182610b4c565b5060208301518482036020860152610c378282610bb2565b91505060408301518482036040860152610c518282610bb2565b91505060608301518482036060860152610c6b8282610bb2565b91505060808301518482036080860152610c858282610bb2565b91505060a083015184820360a0860152610c9f8282610bb2565b91505060c0830151610cb460c0860182610b4c565b5060e083015184820360e0860152610ccc8282610bb2565b915050610100830151610ce3610100860182610bf7565b508091505092915050565b6000610cfa8383610c06565b905092915050565b6000602082019050919050565b6000610d1a82610b16565b610d248185610b21565b935083602082028501610d3685610b32565b8060005b85811015610d725784840389528151610d538582610cee565b9450610d5e83610d02565b925060208a01995050600181019050610d3a565b50829750879550505050505092915050565b60006020820190508181036000830152610d9e8184610d0f565b905092915050565b6000604051905090565b600080fd5b600080fd5b600073ffffffffffffffffffffffffffffffffffffffff82169050919050565b6000610de582610dba565b9050919050565b610df581610dda565b8114610e0057600080fd5b50565b600081359050610e1281610dec565b92915050565b600060208284031215610e2e57610e2d610db0565b5b6000610e3c84828501610e03565b91505092915050565b600080fd5b7f4e487b7100000000000000000000000000000000000000000000000000000000600052604160045260246000fd5b610e8282610ba1565b810181811067ffffffffffffffff82111715610ea157610ea0610e4a565b5b80604052505050565b6000610eb4610da6565b9050610ec08282610e79565b919050565b600080fd5b610ed381610b42565b8114610ede57600080fd5b50565b600081359050610ef081610eca565b92915050565b600080fd5b600080fd5b600067ffffffffffffffff821115610f1b57610f1a610e4a565b5b610f2482610ba1565b9050602081019050919050565b82818337600083830152505050565b6000610f53610f4e84610f00565b610eaa565b905082815260208101848484011115610f6f57610f6e610efb565b5b610f7a848285610f31565b509392505050565b600082601f830112610f9757610f96610ef6565b5b8135610fa7848260208601610f40565b91505092915050565b610fb981610beb565b8114610fc457600080fd5b50565b600081359050610fd681610fb0565b92915050565b60006101208284031215610ff357610ff2610e45565b5b610ffe610120610eaa565b9050600061100e84828501610ee1565b600083015250602082013567ffffffffffffffff81111561103257611031610ec5565b5b61103e84828501610f82565b602083015250604082013567ffffffffffffffff81111561106257611061610ec5565b5b61106e84828501610f82565b604083015250606082013567ffffffffffffffff81111561109257611091610ec5565b5b61109e84828501610f82565b606083015250608082013567ffffffffffffffff8111156110c2576110c1610ec5565b5b6110ce84828501610f82565b60808301525060a082013567ffffffffffffffff8111156110f2576110f1610ec5565b5b6110fe84828501610f82565b60a08301525060c061111284828501610ee1565b60c08301525060e082013567ffffffffffffffff81111561113657611135610ec5565b5b61114284828501610f82565b60e08301525061010061115784828501610fc7565b6101008301525092915050565b60006020828403121561117a57611179610db0565b5b600082013567ffffffffffffffff81111561119857611197610db5565b5b6111a484828501610fdc565b91505092915050565b6111b681610dda565b82525050565b60006020820190506111d160008301846111ad565b92915050565b6000602082840312156111ed576111ec610db0565b5b60006111fb84828501610ee1565b91505092915050565b600082825260208201905092915050565b7f537465703744617461626173653a206f6e6c7920636f6e74726163742077686960008201527f63682061726520616c6c6f776564000000000000000000000000000000000000602082015250565b6000611271602e83611204565b915061127c82611215565b604082019050919050565b600060208201905081810360008301526112a081611264565b9050919050565b7f4e487b7100000000000000000000000000000000000000000000000000000000600052602260045260246000fd5b600060028204905060018216806112ee57607f821691505b602082108103611301576113006112a7565b5b50919050565b7f537465703744617461626173653a207065726d697373696f6e2068617320626560008201527f656e206772616e74656400000000000000000000000000000000000000000000602082015250565b6000611363602a83611204565b915061136e82611307565b604082019050919050565b6000602082019050818103600083015261139281611356565b9050919050565b60008190508160005260206000209050919050565b60006020601f8301049050919050565b600082821b905092915050565b6000600883026113fb7fffffffffffffffffffffffffffffffffffffffffffffffffffffffffffffffff826113be565b61140586836113be565b95508019841693508086168417925050509392505050565b6000819050919050565b600061144261143d61143884610b42565b61141d565b610b42565b9050919050565b6000819050919050565b61145c83611427565b61147061146882611449565b8484546113cb565b825550505050565b600090565b611485611478565b611490818484611453565b505050565b5b818110156114b4576114a960008261147d565b600181019050611496565b5050565b601f8211156114f9576114ca81611399565b6114d3846113ae565b810160208510156114e2578190505b6114f66114ee856113ae565b830182611495565b50505b505050565b600082821c905092915050565b600061151c600019846008026114fe565b1980831691505092915050565b6000611535838361150b565b9150826002028217905092915050565b61154e82610b5b565b67ffffffffffffffff81111561156757611566610e4a565b5b61157182546112d6565b61157c8282856114b8565b600060209050601f8311600181146115af576000841561159d578287015190505b6115a78582611529565b86555061160f565b601f1984166115bd86611399565b60005b828110156115e5578489015182556001820191506020850194506020810190506115c0565b8683101561160257848901516115fe601f89168261150b565b8355505b6001600288020188555050505b505050505050565b7f4e487b7100000000000000000000000000000000000000000000000000000000600052603260045260246000fd5b7f4f776e61626c653a206e6577206f776e657220697320746865207a65726f206160008201527f6464726573730000000000000000000000000000000000000000000000000000602082015250565b60006116a2602683611204565b91506116ad82611646565b604082019050919050565b600060208201905081810360008301526116d181611695565b9050919050565b7f4f776e61626c653a2063616c6c6572206973206e6f7420746865206f776e6572600082015250565b600061170e602083611204565b9150611719826116d8565b602082019050919050565b6000602082019050818103600083015261173d81611701565b905091905056fea2646970667358221220d5844415d7bc201ab44b9e9ca9f08b57890d236c206b20dc51047fd36298710864736f6c63430008120033",
					"opcodes": "PUSH1 0x80 PUSH1 0x40 MSTORE CALLVALUE DUP1 ISZERO PUSH2 0x10 JUMPI PUSH1 0x0 DUP1 REVERT JUMPDEST POP CALLER PUSH1 0x0 DUP1 PUSH2 0x100 EXP DUP2 SLOAD DUP2 PUSH20 0xFFFFFFFFFFFFFFFFFFFFFFFFFFFFFFFFFFFFFFFF MUL NOT AND SWAP1 DUP4 PUSH20 0xFFFFFFFFFFFFFFFFFFFFFFFFFFFFFFFFFFFFFFFF AND MUL OR SWAP1 SSTORE POP PUSH2 0x177A DUP1 PUSH2 0x60 PUSH1 0x0 CODECOPY PUSH1 0x0 RETURN INVALID PUSH1 0x80 PUSH1 0x40 MSTORE CALLVALUE DUP1 ISZERO PUSH2 0x10 JUMPI PUSH1 0x0 DUP1 REVERT JUMPDEST POP PUSH1 0x4 CALLDATASIZE LT PUSH2 0x7D JUMPI PUSH1 0x0 CALLDATALOAD PUSH1 0xE0 SHR DUP1 PUSH4 0x83197EF0 GT PUSH2 0x5B JUMPI DUP1 PUSH4 0x83197EF0 EQ PUSH2 0xD8 JUMPI DUP1 PUSH4 0x8DA5CB5B EQ PUSH2 0xE2 JUMPI DUP1 PUSH4 0xEE416D5B EQ PUSH2 0x100 JUMPI DUP1 PUSH4 0xF2FDE38B EQ PUSH2 0x11C JUMPI PUSH2 0x7D JUMP JUMPDEST DUP1 PUSH4 0x4569BD4F EQ PUSH2 0x82 JUMPI DUP1 PUSH4 0x4D0A5DBD EQ PUSH2 0xA0 JUMPI DUP1 PUSH4 0x695D98CF EQ PUSH2 0xBC JUMPI JUMPDEST PUSH1 0x0 DUP1 REVERT JUMPDEST PUSH2 0x8A PUSH2 0x138 JUMP JUMPDEST PUSH1 0x40 MLOAD PUSH2 0x97 SWAP2 SWAP1 PUSH2 0xD84 JUMP JUMPDEST PUSH1 0x40 MLOAD DUP1 SWAP2 SUB SWAP1 RETURN JUMPDEST PUSH2 0xBA PUSH1 0x4 DUP1 CALLDATASIZE SUB DUP2 ADD SWAP1 PUSH2 0xB5 SWAP2 SWAP1 PUSH2 0xE18 JUMP JUMPDEST PUSH2 0x5C6 JUMP JUMPDEST STOP JUMPDEST PUSH2 0xD6 PUSH1 0x4 DUP1 CALLDATASIZE SUB DUP2 ADD SWAP1 PUSH2 0xD1 SWAP2 SWAP1 PUSH2 0x1164 JUMP JUMPDEST PUSH2 0x6B6 JUMP JUMPDEST STOP JUMPDEST PUSH2 0xE0 PUSH2 0x833 JUMP JUMPDEST STOP JUMPDEST PUSH2 0xEA PUSH2 0x854 JUMP JUMPDEST PUSH1 0x40 MLOAD PUSH2 0xF7 SWAP2 SWAP1 PUSH2 0x11BC JUMP JUMPDEST PUSH1 0x40 MLOAD DUP1 SWAP2 SUB SWAP1 RETURN JUMPDEST PUSH2 0x11A PUSH1 0x4 DUP1 CALLDATASIZE SUB DUP2 ADD SWAP1 PUSH2 0x115 SWAP2 SWAP1 PUSH2 0x11D7 JUMP JUMPDEST PUSH2 0x87D JUMP JUMPDEST STOP JUMPDEST PUSH2 0x136 PUSH1 0x4 DUP1 CALLDATASIZE SUB DUP2 ADD SWAP1 PUSH2 0x131 SWAP2 SWAP1 PUSH2 0xE18 JUMP JUMPDEST PUSH2 0x950 JUMP JUMPDEST STOP JUMPDEST PUSH1 0x60 PUSH1 0x2 PUSH1 0x0 PUSH2 0x146 PUSH2 0x9D3 JUMP JUMPDEST PUSH20 0xFFFFFFFFFFFFFFFFFFFFFFFFFFFFFFFFFFFFFFFF AND PUSH20 0xFFFFFFFFFFFFFFFFFFFFFFFFFFFFFFFFFFFFFFFF AND DUP2 MSTORE PUSH1 0x20 ADD SWAP1 DUP2 MSTORE PUSH1 0x20 ADD PUSH1 0x0 KECCAK256 PUSH1 0x0 SWAP1 SLOAD SWAP1 PUSH2 0x100 EXP SWAP1 DIV PUSH1 0xFF AND PUSH2 0x1CD JUMPI PUSH1 0x40 MLOAD PUSH32 0x8C379A000000000000000000000000000000000000000000000000000000000 DUP2 MSTORE PUSH1 0x4 ADD PUSH2 0x1C4 SWAP1 PUSH2 0x1287 JUMP JUMPDEST PUSH1 0x40 MLOAD DUP1 SWAP2 SUB SWAP1 REVERT JUMPDEST PUSH1 0x1 DUP1 SLOAD DUP1 PUSH1 0x20 MUL PUSH1 0x20 ADD PUSH1 0x40 MLOAD SWAP1 DUP2 ADD PUSH1 0x40 MSTORE DUP1 SWAP3 SWAP2 SWAP1 DUP2 DUP2 MSTORE PUSH1 0x20 ADD PUSH1 0x0 SWAP1 JUMPDEST DUP3 DUP3 LT ISZERO PUSH2 0x5BD JUMPI DUP4 DUP3 SWAP1 PUSH1 0x0 MSTORE PUSH1 0x20 PUSH1 0x0 KECCAK256 SWAP1 PUSH1 0x9 MUL ADD PUSH1 0x40 MLOAD DUP1 PUSH2 0x120 ADD PUSH1 0x40 MSTORE SWAP1 DUP2 PUSH1 0x0 DUP3 ADD SLOAD DUP2 MSTORE PUSH1 0x20 ADD PUSH1 0x1 DUP3 ADD DUP1 SLOAD PUSH2 0x22D SWAP1 PUSH2 0x12D6 JUMP JUMPDEST DUP1 PUSH1 0x1F ADD PUSH1 0x20 DUP1 SWAP2 DIV MUL PUSH1 0x20 ADD PUSH1 0x40 MLOAD SWAP1 DUP2 ADD PUSH1 0x40 MSTORE DUP1 SWAP3 SWAP2 SWAP1 DUP2 DUP2 MSTORE PUSH1 0x20 ADD DUP3 DUP1 SLOAD PUSH2 0x259 SWAP1 PUSH2 0x12D6 JUMP JUMPDEST DUP1 ISZERO PUSH2 0x2A6 JUMPI DUP1 PUSH1 0x1F LT PUSH2 0x27B JUMPI PUSH2 0x100 DUP1 DUP4 SLOAD DIV MUL DUP4 MSTORE SWAP2 PUSH1 0x20 ADD SWAP2 PUSH2 0x2A6 JUMP JUMPDEST DUP3 ADD SWAP2 SWAP1 PUSH1 0x0 MSTORE PUSH1 0x20 PUSH1 0x0 KECCAK256 SWAP1 JUMPDEST DUP2 SLOAD DUP2 MSTORE SWAP1 PUSH1 0x1 ADD SWAP1 PUSH1 0x20 ADD DUP1 DUP4 GT PUSH2 0x289 JUMPI DUP3 SWAP1 SUB PUSH1 0x1F AND DUP3 ADD SWAP2 JUMPDEST POP POP POP POP POP DUP2 MSTORE PUSH1 0x20 ADD PUSH1 0x2 DUP3 ADD DUP1 SLOAD PUSH2 0x2BF SWAP1 PUSH2 0x12D6 JUMP JUMPDEST DUP1 PUSH1 0x1F ADD PUSH1 0x20 DUP1 SWAP2 DIV MUL PUSH1 0x20 ADD PUSH1 0x40 MLOAD SWAP1 DUP2 ADD PUSH1 0x40 MSTORE DUP1 SWAP3 SWAP2 SWAP1 DUP2 DUP2 MSTORE PUSH1 0x20 ADD DUP3 DUP1 SLOAD PUSH2 0x2EB SWAP1 PUSH2 0x12D6 JUMP JUMPDEST DUP1 ISZERO PUSH2 0x338 JUMPI DUP1 PUSH1 0x1F LT PUSH2 0x30D JUMPI PUSH2 0x100 DUP1 DUP4 SLOAD DIV MUL DUP4 MSTORE SWAP2 PUSH1 0x20 ADD SWAP2 PUSH2 0x338 JUMP JUMPDEST DUP3 ADD SWAP2 SWAP1 PUSH1 0x0 MSTORE PUSH1 0x20 PUSH1 0x0 KECCAK256 SWAP1 JUMPDEST DUP2 SLOAD DUP2 MSTORE SWAP1 PUSH1 0x1 ADD SWAP1 PUSH1 0x20 ADD DUP1 DUP4 GT PUSH2 0x31B JUMPI DUP3 SWAP1 SUB PUSH1 0x1F AND DUP3 ADD SWAP2 JUMPDEST POP POP POP POP POP DUP2 MSTORE PUSH1 0x20 ADD PUSH1 0x3 DUP3 ADD DUP1 SLOAD PUSH2 0x351 SWAP1 PUSH2 0x12D6 JUMP JUMPDEST DUP1 PUSH1 0x1F ADD PUSH1 0x20 DUP1 SWAP2 DIV MUL PUSH1 0x20 ADD PUSH1 0x40 MLOAD SWAP1 DUP2 ADD PUSH1 0x40 MSTORE DUP1 SWAP3 SWAP2 SWAP1 DUP2 DUP2 MSTORE PUSH1 0x20 ADD DUP3 DUP1 SLOAD PUSH2 0x37D SWAP1 PUSH2 0x12D6 JUMP JUMPDEST DUP1 ISZERO PUSH2 0x3CA JUMPI DUP1 PUSH1 0x1F LT PUSH2 0x39F JUMPI PUSH2 0x100 DUP1 DUP4 SLOAD DIV MUL DUP4 MSTORE SWAP2 PUSH1 0x20 ADD SWAP2 PUSH2 0x3CA JUMP JUMPDEST DUP3 ADD SWAP2 SWAP1 PUSH1 0x0 MSTORE PUSH1 0x20 PUSH1 0x0 KECCAK256 SWAP1 JUMPDEST DUP2 SLOAD DUP2 MSTORE SWAP1 PUSH1 0x1 ADD SWAP1 PUSH1 0x20 ADD DUP1 DUP4 GT PUSH2 0x3AD JUMPI DUP3 SWAP1 SUB PUSH1 0x1F AND DUP3 ADD SWAP2 JUMPDEST POP POP POP POP POP DUP2 MSTORE PUSH1 0x20 ADD PUSH1 0x4 DUP3 ADD DUP1 SLOAD PUSH2 0x3E3 SWAP1 PUSH2 0x12D6 JUMP JUMPDEST DUP1 PUSH1 0x1F ADD PUSH1 0x20 DUP1 SWAP2 DIV MUL PUSH1 0x20 ADD PUSH1 0x40 MLOAD SWAP1 DUP2 ADD PUSH1 0x40 MSTORE DUP1 SWAP3 SWAP2 SWAP1 DUP2 DUP2 MSTORE PUSH1 0x20 ADD DUP3 DUP1 SLOAD PUSH2 0x40F SWAP1 PUSH2 0x12D6 JUMP JUMPDEST DUP1 ISZERO PUSH2 0x45C JUMPI DUP1 PUSH1 0x1F LT PUSH2 0x431 JUMPI PUSH2 0x100 DUP1 DUP4 SLOAD DIV MUL DUP4 MSTORE SWAP2 PUSH1 0x20 ADD SWAP2 PUSH2 0x45C JUMP JUMPDEST DUP3 ADD SWAP2 SWAP1 PUSH1 0x0 MSTORE PUSH1 0x20 PUSH1 0x0 KECCAK256 SWAP1 JUMPDEST DUP2 SLOAD DUP2 MSTORE SWAP1 PUSH1 0x1 ADD SWAP1 PUSH1 0x20 ADD DUP1 DUP4 GT PUSH2 0x43F JUMPI DUP3 SWAP1 SUB PUSH1 0x1F AND DUP3 ADD SWAP2 JUMPDEST POP POP POP POP POP DUP2 MSTORE PUSH1 0x20 ADD PUSH1 0x5 DUP3 ADD DUP1 SLOAD PUSH2 0x475 SWAP1 PUSH2 0x12D6 JUMP JUMPDEST DUP1 PUSH1 0x1F ADD PUSH1 0x20 DUP1 SWAP2 DIV MUL PUSH1 0x20 ADD PUSH1 0x40 MLOAD SWAP1 DUP2 ADD PUSH1 0x40 MSTORE DUP1 SWAP3 SWAP2 SWAP1 DUP2 DUP2 MSTORE PUSH1 0x20 ADD DUP3 DUP1 SLOAD PUSH2 0x4A1 SWAP1 PUSH2 0x12D6 JUMP JUMPDEST DUP1 ISZERO PUSH2 0x4EE JUMPI DUP1 PUSH1 0x1F LT PUSH2 0x4C3 JUMPI PUSH2 0x100 DUP1 DUP4 SLOAD DIV MUL DUP4 MSTORE SWAP2 PUSH1 0x20 ADD SWAP2 PUSH2 0x4EE JUMP JUMPDEST DUP3 ADD SWAP2 SWAP1 PUSH1 0x0 MSTORE PUSH1 0x20 PUSH1 0x0 KECCAK256 SWAP1 JUMPDEST DUP2 SLOAD DUP2 MSTORE SWAP1 PUSH1 0x1 ADD SWAP1 PUSH1 0x20 ADD DUP1 DUP4 GT PUSH2 0x4D1 JUMPI DUP3 SWAP1 SUB PUSH1 0x1F AND DUP3 ADD SWAP2 JUMPDEST POP POP POP POP POP DUP2 MSTORE PUSH1 0x20 ADD PUSH1 0x6 DUP3 ADD SLOAD DUP2 MSTORE PUSH1 0x20 ADD PUSH1 0x7 DUP3 ADD DUP1 SLOAD PUSH2 0x511 SWAP1 PUSH2 0x12D6 JUMP JUMPDEST DUP1 PUSH1 0x1F ADD PUSH1 0x20 DUP1 SWAP2 DIV MUL PUSH1 0x20 ADD PUSH1 0x40 MLOAD SWAP1 DUP2 ADD PUSH1 0x40 MSTORE DUP1 SWAP3 SWAP2 SWAP1 DUP2 DUP2 MSTORE PUSH1 0x20 ADD DUP3 DUP1 SLOAD PUSH2 0x53D SWAP1 PUSH2 0x12D6 JUMP JUMPDEST DUP1 ISZERO PUSH2 0x58A JUMPI DUP1 PUSH1 0x1F LT PUSH2 0x55F JUMPI PUSH2 0x100 DUP1 DUP4 SLOAD DIV MUL DUP4 MSTORE SWAP2 PUSH1 0x20 ADD SWAP2 PUSH2 0x58A JUMP JUMPDEST DUP3 ADD SWAP2 SWAP1 PUSH1 0x0 MSTORE PUSH1 0x20 PUSH1 0x0 KECCAK256 SWAP1 JUMPDEST DUP2 SLOAD DUP2 MSTORE SWAP1 PUSH1 0x1 ADD SWAP1 PUSH1 0x20 ADD DUP1 DUP4 GT PUSH2 0x56D JUMPI DUP3 SWAP1 SUB PUSH1 0x1F AND DUP3 ADD SWAP2 JUMPDEST POP POP POP POP POP DUP2 MSTORE PUSH1 0x20 ADD PUSH1 0x8 DUP3 ADD PUSH1 0x0 SWAP1 SLOAD SWAP1 PUSH2 0x100 EXP SWAP1 DIV PUSH1 0xFF AND ISZERO ISZERO ISZERO ISZERO DUP2 MSTORE POP POP DUP2 MSTORE PUSH1 0x20 ADD SWAP1 PUSH1 0x1 ADD SWAP1 PUSH2 0x1EF JUMP JUMPDEST POP POP POP POP SWAP1 POP SWAP1 JUMP JUMPDEST PUSH2 0x5CE PUSH2 0x9DB JUMP JUMPDEST PUSH1 0x2 PUSH1 0x0 DUP3 PUSH20 0xFFFFFFFFFFFFFFFFFFFFFFFFFFFFFFFFFFFFFFFF AND PUSH20 0xFFFFFFFFFFFFFFFFFFFFFFFFFFFFFFFFFFFFFFFF AND DUP2 MSTORE PUSH1 0x20 ADD SWAP1 DUP2 MSTORE PUSH1 0x20 ADD PUSH1 0x0 KECCAK256 PUSH1 0x0 SWAP1 SLOAD SWAP1 PUSH2 0x100 EXP SWAP1 DIV PUSH1 0xFF AND ISZERO PUSH2 0x65B JUMPI PUSH1 0x40 MLOAD PUSH32 0x8C379A000000000000000000000000000000000000000000000000000000000 DUP2 MSTORE PUSH1 0x4 ADD PUSH2 0x652 SWAP1 PUSH2 0x1379 JUMP JUMPDEST PUSH1 0x40 MLOAD DUP1 SWAP2 SUB SWAP1 REVERT JUMPDEST PUSH1 0x1 PUSH1 0x2 PUSH1 0x0 DUP4 PUSH20 0xFFFFFFFFFFFFFFFFFFFFFFFFFFFFFFFFFFFFFFFF AND PUSH20 0xFFFFFFFFFFFFFFFFFFFFFFFFFFFFFFFFFFFFFFFF AND DUP2 MSTORE PUSH1 0x20 ADD SWAP1 DUP2 MSTORE PUSH1 0x20 ADD PUSH1 0x0 KECCAK256 PUSH1 0x0 PUSH2 0x100 EXP DUP2 SLOAD DUP2 PUSH1 0xFF MUL NOT AND SWAP1 DUP4 ISZERO ISZERO MUL OR SWAP1 SSTORE POP POP JUMP JUMPDEST PUSH1 0x2 PUSH1 0x0 PUSH2 0x6C2 PUSH2 0x9D3 JUMP JUMPDEST PUSH20 0xFFFFFFFFFFFFFFFFFFFFFFFFFFFFFFFFFFFFFFFF AND PUSH20 0xFFFFFFFFFFFFFFFFFFFFFFFFFFFFFFFFFFFFFFFF AND DUP2 MSTORE PUSH1 0x20 ADD SWAP1 DUP2 MSTORE PUSH1 0x20 ADD PUSH1 0x0 KECCAK256 PUSH1 0x0 SWAP1 SLOAD SWAP1 PUSH2 0x100 EXP SWAP1 DIV PUSH1 0xFF AND PUSH2 0x749 JUMPI PUSH1 0x40 MLOAD PUSH32 0x8C379A000000000000000000000000000000000000000000000000000000000 DUP2 MSTORE PUSH1 0x4 ADD PUSH2 0x740 SWAP1 PUSH2 0x1287 JUMP JUMPDEST PUSH1 0x40 MLOAD DUP1 SWAP2 SUB SWAP1 REVERT JUMPDEST PUSH1 0x1 DUP2 SWAP1 DUP1 PUSH1 0x1 DUP2 SLOAD ADD DUP1 DUP3 SSTORE DUP1 SWAP2 POP POP PUSH1 0x1 SWAP1 SUB SWAP1 PUSH1 0x0 MSTORE PUSH1 0x20 PUSH1 0x0 KECCAK256 SWAP1 PUSH1 0x9 MUL ADD PUSH1 0x0 SWAP1 SWAP2 SWAP1 SWAP2 SWAP1 SWAP2 POP PUSH1 0x0 DUP3 ADD MLOAD DUP2 PUSH1 0x0 ADD SSTORE PUSH1 0x20 DUP3 ADD MLOAD DUP2 PUSH1 0x1 ADD SWAP1 DUP2 PUSH2 0x794 SWAP2 SWAP1 PUSH2 0x1545 JUMP JUMPDEST POP PUSH1 0x40 DUP3 ADD MLOAD DUP2 PUSH1 0x2 ADD SWAP1 DUP2 PUSH2 0x7AA SWAP2 SWAP1 PUSH2 0x1545 JUMP JUMPDEST POP PUSH1 0x60 DUP3 ADD MLOAD DUP2 PUSH1 0x3 ADD SWAP1 DUP2 PUSH2 0x7C0 SWAP2 SWAP1 PUSH2 0x1545 JUMP JUMPDEST POP PUSH1 0x80 DUP3 ADD MLOAD DUP2 PUSH1 0x4 ADD SWAP1 DUP2 PUSH2 0x7D6 SWAP2 SWAP1 PUSH2 0x1545 JUMP JUMPDEST POP PUSH1 0xA0 DUP3 ADD MLOAD DUP2 PUSH1 0x5 ADD SWAP1 DUP2 PUSH2 0x7EC SWAP2 SWAP1 PUSH2 0x1545 JUMP JUMPDEST POP PUSH1 0xC0 DUP3 ADD MLOAD DUP2 PUSH1 0x6 ADD SSTORE PUSH1 0xE0 DUP3 ADD MLOAD DUP2 PUSH1 0x7 ADD SWAP1 DUP2 PUSH2 0x80C SWAP2 SWAP1 PUSH2 0x1545 JUMP JUMPDEST POP PUSH2 0x100 DUP3 ADD MLOAD DUP2 PUSH1 0x8 ADD PUSH1 0x0 PUSH2 0x100 EXP DUP2 SLOAD DUP2 PUSH1 0xFF MUL NOT AND SWAP1 DUP4 ISZERO ISZERO MUL OR SWAP1 SSTORE POP POP POP POP JUMP JUMPDEST PUSH2 0x83B PUSH2 0x9DB JUMP JUMPDEST ADDRESS PUSH20 0xFFFFFFFFFFFFFFFFFFFFFFFFFFFFFFFFFFFFFFFF AND SELFDESTRUCT JUMPDEST PUSH1 0x0 DUP1 PUSH1 0x0 SWAP1 SLOAD SWAP1 PUSH2 0x100 EXP SWAP1 DIV PUSH20 0xFFFFFFFFFFFFFFFFFFFFFFFFFFFFFFFFFFFFFFFF AND SWAP1 POP SWAP1 JUMP JUMPDEST PUSH1 0x2 PUSH1 0x0 PUSH2 0x889 PUSH2 0x9D3 JUMP JUMPDEST PUSH20 0xFFFFFFFFFFFFFFFFFFFFFFFFFFFFFFFFFFFFFFFF AND PUSH20 0xFFFFFFFFFFFFFFFFFFFFFFFFFFFFFFFFFFFFFFFF AND DUP2 MSTORE PUSH1 0x20 ADD SWAP1 DUP2 MSTORE PUSH1 0x20 ADD PUSH1 0x0 KECCAK256 PUSH1 0x0 SWAP1 SLOAD SWAP1 PUSH2 0x100 EXP SWAP1 DIV PUSH1 0xFF AND PUSH2 0x910 JUMPI PUSH1 0x40 MLOAD PUSH32 0x8C379A000000000000000000000000000000000000000000000000000000000 DUP2 MSTORE PUSH1 0x4 ADD PUSH2 0x907 SWAP1 PUSH2 0x1287 JUMP JUMPDEST PUSH1 0x40 MLOAD DUP1 SWAP2 SUB SWAP1 REVERT JUMPDEST PUSH1 0x1 DUP1 DUP3 DUP2 SLOAD DUP2 LT PUSH2 0x925 JUMPI PUSH2 0x924 PUSH2 0x1617 JUMP JUMPDEST JUMPDEST SWAP1 PUSH1 0x0 MSTORE PUSH1 0x20 PUSH1 0x0 KECCAK256 SWAP1 PUSH1 0x9 MUL ADD PUSH1 0x8 ADD PUSH1 0x0 PUSH2 0x100 EXP DUP2 SLOAD DUP2 PUSH1 0xFF MUL NOT AND SWAP1 DUP4 ISZERO ISZERO MUL OR SWAP1 SSTORE POP POP JUMP JUMPDEST PUSH2 0x958 PUSH2 0x9DB JUMP JUMPDEST PUSH1 0x0 PUSH20 0xFFFFFFFFFFFFFFFFFFFFFFFFFFFFFFFFFFFFFFFF AND DUP2 PUSH20 0xFFFFFFFFFFFFFFFFFFFFFFFFFFFFFFFFFFFFFFFF AND SUB PUSH2 0x9C7 JUMPI PUSH1 0x40 MLOAD PUSH32 0x8C379A000000000000000000000000000000000000000000000000000000000 DUP2 MSTORE PUSH1 0x4 ADD PUSH2 0x9BE SWAP1 PUSH2 0x16B8 JUMP JUMPDEST PUSH1 0x40 MLOAD DUP1 SWAP2 SUB SWAP1 REVERT JUMPDEST PUSH2 0x9D0 DUP2 PUSH2 0xA52 JUMP JUMPDEST POP JUMP JUMPDEST PUSH1 0x0 CALLER SWAP1 POP SWAP1 JUMP JUMPDEST CALLER PUSH20 0xFFFFFFFFFFFFFFFFFFFFFFFFFFFFFFFFFFFFFFFF AND PUSH2 0x9FA PUSH2 0x854 JUMP JUMPDEST PUSH20 0xFFFFFFFFFFFFFFFFFFFFFFFFFFFFFFFFFFFFFFFF AND EQ PUSH2 0xA50 JUMPI PUSH1 0x40 MLOAD PUSH32 0x8C379A000000000000000000000000000000000000000000000000000000000 DUP2 MSTORE PUSH1 0x4 ADD PUSH2 0xA47 SWAP1 PUSH2 0x1724 JUMP JUMPDEST PUSH1 0x40 MLOAD DUP1 SWAP2 SUB SWAP1 REVERT JUMPDEST JUMP JUMPDEST PUSH1 0x0 DUP1 PUSH1 0x0 SWAP1 SLOAD SWAP1 PUSH2 0x100 EXP SWAP1 DIV PUSH20 0xFFFFFFFFFFFFFFFFFFFFFFFFFFFFFFFFFFFFFFFF AND SWAP1 POP DUP2 PUSH1 0x0 DUP1 PUSH2 0x100 EXP DUP2 SLOAD DUP2 PUSH20 0xFFFFFFFFFFFFFFFFFFFFFFFFFFFFFFFFFFFFFFFF MUL NOT AND SWAP1 DUP4 PUSH20 0xFFFFFFFFFFFFFFFFFFFFFFFFFFFFFFFFFFFFFFFF AND MUL OR SWAP1 SSTORE POP DUP2 PUSH20 0xFFFFFFFFFFFFFFFFFFFFFFFFFFFFFFFFFFFFFFFF AND DUP2 PUSH20 0xFFFFFFFFFFFFFFFFFFFFFFFFFFFFFFFFFFFFFFFF AND PUSH32 0x8BE0079C531659141344CD1FD0A4F28419497F9722A3DAAFE3B4186F6B6457E0 PUSH1 0x40 MLOAD PUSH1 0x40 MLOAD DUP1 SWAP2 SUB SWAP1 LOG3 POP POP JUMP JUMPDEST PUSH1 0x0 DUP2 MLOAD SWAP1 POP SWAP2 SWAP1 POP JUMP JUMPDEST PUSH1 0x0 DUP3 DUP3 MSTORE PUSH1 0x20 DUP3 ADD SWAP1 POP SWAP3 SWAP2 POP POP JUMP JUMPDEST PUSH1 0x0 DUP2 SWAP1 POP PUSH1 0x20 DUP3 ADD SWAP1 POP SWAP2 SWAP1 POP JUMP JUMPDEST PUSH1 0x0 DUP2 SWAP1 POP SWAP2 SWAP1 POP JUMP JUMPDEST PUSH2 0xB55 DUP2 PUSH2 0xB42 JUMP JUMPDEST DUP3 MSTORE POP POP JUMP JUMPDEST PUSH1 0x0 DUP2 MLOAD SWAP1 POP SWAP2 SWAP1 POP JUMP JUMPDEST PUSH1 0x0 DUP3 DUP3 MSTORE PUSH1 0x20 DUP3 ADD SWAP1 POP SWAP3 SWAP2 POP POP JUMP JUMPDEST PUSH1 0x0 JUMPDEST DUP4 DUP2 LT ISZERO PUSH2 0xB95 JUMPI DUP1 DUP3 ADD MLOAD DUP2 DUP5 ADD MSTORE PUSH1 0x20 DUP2 ADD SWAP1 POP PUSH2 0xB7A JUMP JUMPDEST PUSH1 0x0 DUP5 DUP5 ADD MSTORE POP POP POP POP JUMP JUMPDEST PUSH1 0x0 PUSH1 0x1F NOT PUSH1 0x1F DUP4 ADD AND SWAP1 POP SWAP2 SWAP1 POP JUMP JUMPDEST PUSH1 0x0 PUSH2 0xBBD DUP3 PUSH2 0xB5B JUMP JUMPDEST PUSH2 0xBC7 DUP2 DUP6 PUSH2 0xB66 JUMP JUMPDEST SWAP4 POP PUSH2 0xBD7 DUP2 DUP6 PUSH1 0x20 DUP7 ADD PUSH2 0xB77 JUMP JUMPDEST PUSH2 0xBE0 DUP2 PUSH2 0xBA1 JUMP JUMPDEST DUP5 ADD SWAP2 POP POP SWAP3 SWAP2 POP POP JUMP JUMPDEST PUSH1 0x0 DUP2 ISZERO ISZERO SWAP1 POP SWAP2 SWAP1 POP JUMP JUMPDEST PUSH2 0xC00 DUP2 PUSH2 0xBEB JUMP JUMPDEST DUP3 MSTORE POP POP JUMP JUMPDEST PUSH1 0x0 PUSH2 0x120 DUP4 ADD PUSH1 0x0 DUP4 ADD MLOAD PUSH2 0xC1F PUSH1 0x0 DUP7 ADD DUP3 PUSH2 0xB4C JUMP JUMPDEST POP PUSH1 0x20 DUP4 ADD MLOAD DUP5 DUP3 SUB PUSH1 0x20 DUP7 ADD MSTORE PUSH2 0xC37 DUP3 DUP3 PUSH2 0xBB2 JUMP JUMPDEST SWAP2 POP POP PUSH1 0x40 DUP4 ADD MLOAD DUP5 DUP3 SUB PUSH1 0x40 DUP7 ADD MSTORE PUSH2 0xC51 DUP3 DUP3 PUSH2 0xBB2 JUMP JUMPDEST SWAP2 POP POP PUSH1 0x60 DUP4 ADD MLOAD DUP5 DUP3 SUB PUSH1 0x60 DUP7 ADD MSTORE PUSH2 0xC6B DUP3 DUP3 PUSH2 0xBB2 JUMP JUMPDEST SWAP2 POP POP PUSH1 0x80 DUP4 ADD MLOAD DUP5 DUP3 SUB PUSH1 0x80 DUP7 ADD MSTORE PUSH2 0xC85 DUP3 DUP3 PUSH2 0xBB2 JUMP JUMPDEST SWAP2 POP POP PUSH1 0xA0 DUP4 ADD MLOAD DUP5 DUP3 SUB PUSH1 0xA0 DUP7 ADD MSTORE PUSH2 0xC9F DUP3 DUP3 PUSH2 0xBB2 JUMP JUMPDEST SWAP2 POP POP PUSH1 0xC0 DUP4 ADD MLOAD PUSH2 0xCB4 PUSH1 0xC0 DUP7 ADD DUP3 PUSH2 0xB4C JUMP JUMPDEST POP PUSH1 0xE0 DUP4 ADD MLOAD DUP5 DUP3 SUB PUSH1 0xE0 DUP7 ADD MSTORE PUSH2 0xCCC DUP3 DUP3 PUSH2 0xBB2 JUMP JUMPDEST SWAP2 POP POP PUSH2 0x100 DUP4 ADD MLOAD PUSH2 0xCE3 PUSH2 0x100 DUP7 ADD DUP3 PUSH2 0xBF7 JUMP JUMPDEST POP DUP1 SWAP2 POP POP SWAP3 SWAP2 POP POP JUMP JUMPDEST PUSH1 0x0 PUSH2 0xCFA DUP4 DUP4 PUSH2 0xC06 JUMP JUMPDEST SWAP1 POP SWAP3 SWAP2 POP POP JUMP JUMPDEST PUSH1 0x0 PUSH1 0x20 DUP3 ADD SWAP1 POP SWAP2 SWAP1 POP JUMP JUMPDEST PUSH1 0x0 PUSH2 0xD1A DUP3 PUSH2 0xB16 JUMP JUMPDEST PUSH2 0xD24 DUP2 DUP6 PUSH2 0xB21 JUMP JUMPDEST SWAP4 POP DUP4 PUSH1 0x20 DUP3 MUL DUP6 ADD PUSH2 0xD36 DUP6 PUSH2 0xB32 JUMP JUMPDEST DUP1 PUSH1 0x0 JUMPDEST DUP6 DUP2 LT ISZERO PUSH2 0xD72 JUMPI DUP5 DUP5 SUB DUP10 MSTORE DUP2 MLOAD PUSH2 0xD53 DUP6 DUP3 PUSH2 0xCEE JUMP JUMPDEST SWAP5 POP PUSH2 0xD5E DUP4 PUSH2 0xD02 JUMP JUMPDEST SWAP3 POP PUSH1 0x20 DUP11 ADD SWAP10 POP POP PUSH1 0x1 DUP2 ADD SWAP1 POP PUSH2 0xD3A JUMP JUMPDEST POP DUP3 SWAP8 POP DUP8 SWAP6 POP POP POP POP POP POP SWAP3 SWAP2 POP POP JUMP JUMPDEST PUSH1 0x0 PUSH1 0x20 DUP3 ADD SWAP1 POP DUP2 DUP2 SUB PUSH1 0x0 DUP4 ADD MSTORE PUSH2 0xD9E DUP2 DUP5 PUSH2 0xD0F JUMP JUMPDEST SWAP1 POP SWAP3 SWAP2 POP POP JUMP JUMPDEST PUSH1 0x0 PUSH1 0x40 MLOAD SWAP1 POP SWAP1 JUMP JUMPDEST PUSH1 0x0 DUP1 REVERT JUMPDEST PUSH1 0x0 DUP1 REVERT JUMPDEST PUSH1 0x0 PUSH20 0xFFFFFFFFFFFFFFFFFFFFFFFFFFFFFFFFFFFFFFFF DUP3 AND SWAP1 POP SWAP2 SWAP1 POP JUMP JUMPDEST PUSH1 0x0 PUSH2 0xDE5 DUP3 PUSH2 0xDBA JUMP JUMPDEST SWAP1 POP SWAP2 SWAP1 POP JUMP JUMPDEST PUSH2 0xDF5 DUP2 PUSH2 0xDDA JUMP JUMPDEST DUP2 EQ PUSH2 0xE00 JUMPI PUSH1 0x0 DUP1 REVERT JUMPDEST POP JUMP JUMPDEST PUSH1 0x0 DUP2 CALLDATALOAD SWAP1 POP PUSH2 0xE12 DUP2 PUSH2 0xDEC JUMP JUMPDEST SWAP3 SWAP2 POP POP JUMP JUMPDEST PUSH1 0x0 PUSH1 0x20 DUP3 DUP5 SUB SLT ISZERO PUSH2 0xE2E JUMPI PUSH2 0xE2D PUSH2 0xDB0 JUMP JUMPDEST JUMPDEST PUSH1 0x0 PUSH2 0xE3C DUP5 DUP3 DUP6 ADD PUSH2 0xE03 JUMP JUMPDEST SWAP2 POP POP SWAP3 SWAP2 POP POP JUMP JUMPDEST PUSH1 0x0 DUP1 REVERT JUMPDEST PUSH32 0x4E487B7100000000000000000000000000000000000000000000000000000000 PUSH1 0x0 MSTORE PUSH1 0x41 PUSH1 0x4 MSTORE PUSH1 0x24 PUSH1 0x0 REVERT JUMPDEST PUSH2 0xE82 DUP3 PUSH2 0xBA1 JUMP JUMPDEST DUP2 ADD DUP2 DUP2 LT PUSH8 0xFFFFFFFFFFFFFFFF DUP3 GT OR ISZERO PUSH2 0xEA1 JUMPI PUSH2 0xEA0 PUSH2 0xE4A JUMP JUMPDEST JUMPDEST DUP1 PUSH1 0x40 MSTORE POP POP POP JUMP JUMPDEST PUSH1 0x0 PUSH2 0xEB4 PUSH2 0xDA6 JUMP JUMPDEST SWAP1 POP PUSH2 0xEC0 DUP3 DUP3 PUSH2 0xE79 JUMP JUMPDEST SWAP2 SWAP1 POP JUMP JUMPDEST PUSH1 0x0 DUP1 REVERT JUMPDEST PUSH2 0xED3 DUP2 PUSH2 0xB42 JUMP JUMPDEST DUP2 EQ PUSH2 0xEDE JUMPI PUSH1 0x0 DUP1 REVERT JUMPDEST POP JUMP JUMPDEST PUSH1 0x0 DUP2 CALLDATALOAD SWAP1 POP PUSH2 0xEF0 DUP2 PUSH2 0xECA JUMP JUMPDEST SWAP3 SWAP2 POP POP JUMP JUMPDEST PUSH1 0x0 DUP1 REVERT JUMPDEST PUSH1 0x0 DUP1 REVERT JUMPDEST PUSH1 0x0 PUSH8 0xFFFFFFFFFFFFFFFF DUP3 GT ISZERO PUSH2 0xF1B JUMPI PUSH2 0xF1A PUSH2 0xE4A JUMP JUMPDEST JUMPDEST PUSH2 0xF24 DUP3 PUSH2 0xBA1 JUMP JUMPDEST SWAP1 POP PUSH1 0x20 DUP2 ADD SWAP1 POP SWAP2 SWAP1 POP JUMP JUMPDEST DUP3 DUP2 DUP4 CALLDATACOPY PUSH1 0x0 DUP4 DUP4 ADD MSTORE POP POP POP JUMP JUMPDEST PUSH1 0x0 PUSH2 0xF53 PUSH2 0xF4E DUP5 PUSH2 0xF00 JUMP JUMPDEST PUSH2 0xEAA JUMP JUMPDEST SWAP1 POP DUP3 DUP2 MSTORE PUSH1 0x20 DUP2 ADD DUP5 DUP5 DUP5 ADD GT ISZERO PUSH2 0xF6F JUMPI PUSH2 0xF6E PUSH2 0xEFB JUMP JUMPDEST JUMPDEST PUSH2 0xF7A DUP5 DUP3 DUP6 PUSH2 0xF31 JUMP JUMPDEST POP SWAP4 SWAP3 POP POP POP JUMP JUMPDEST PUSH1 0x0 DUP3 PUSH1 0x1F DUP4 ADD SLT PUSH2 0xF97 JUMPI PUSH2 0xF96 PUSH2 0xEF6 JUMP JUMPDEST JUMPDEST DUP2 CALLDATALOAD PUSH2 0xFA7 DUP5 DUP3 PUSH1 0x20 DUP7 ADD PUSH2 0xF40 JUMP JUMPDEST SWAP2 POP POP SWAP3 SWAP2 POP POP JUMP JUMPDEST PUSH2 0xFB9 DUP2 PUSH2 0xBEB JUMP JUMPDEST DUP2 EQ PUSH2 0xFC4 JUMPI PUSH1 0x0 DUP1 REVERT JUMPDEST POP JUMP JUMPDEST PUSH1 0x0 DUP2 CALLDATALOAD SWAP1 POP PUSH2 0xFD6 DUP2 PUSH2 0xFB0 JUMP JUMPDEST SWAP3 SWAP2 POP POP JUMP JUMPDEST PUSH1 0x0 PUSH2 0x120 DUP3 DUP5 SUB SLT ISZERO PUSH2 0xFF3 JUMPI PUSH2 0xFF2 PUSH2 0xE45 JUMP JUMPDEST JUMPDEST PUSH2 0xFFE PUSH2 0x120 PUSH2 0xEAA JUMP JUMPDEST SWAP1 POP PUSH1 0x0 PUSH2 0x100E DUP5 DUP3 DUP6 ADD PUSH2 0xEE1 JUMP JUMPDEST PUSH1 0x0 DUP4 ADD MSTORE POP PUSH1 0x20 DUP3 ADD CALLDATALOAD PUSH8 0xFFFFFFFFFFFFFFFF DUP2 GT ISZERO PUSH2 0x1032 JUMPI PUSH2 0x1031 PUSH2 0xEC5 JUMP JUMPDEST JUMPDEST PUSH2 0x103E DUP5 DUP3 DUP6 ADD PUSH2 0xF82 JUMP JUMPDEST PUSH1 0x20 DUP4 ADD MSTORE POP PUSH1 0x40 DUP3 ADD CALLDATALOAD PUSH8 0xFFFFFFFFFFFFFFFF DUP2 GT ISZERO PUSH2 0x1062 JUMPI PUSH2 0x1061 PUSH2 0xEC5 JUMP JUMPDEST JUMPDEST PUSH2 0x106E DUP5 DUP3 DUP6 ADD PUSH2 0xF82 JUMP JUMPDEST PUSH1 0x40 DUP4 ADD MSTORE POP PUSH1 0x60 DUP3 ADD CALLDATALOAD PUSH8 0xFFFFFFFFFFFFFFFF DUP2 GT ISZERO PUSH2 0x1092 JUMPI PUSH2 0x1091 PUSH2 0xEC5 JUMP JUMPDEST JUMPDEST PUSH2 0x109E DUP5 DUP3 DUP6 ADD PUSH2 0xF82 JUMP JUMPDEST PUSH1 0x60 DUP4 ADD MSTORE POP PUSH1 0x80 DUP3 ADD CALLDATALOAD PUSH8 0xFFFFFFFFFFFFFFFF DUP2 GT ISZERO PUSH2 0x10C2 JUMPI PUSH2 0x10C1 PUSH2 0xEC5 JUMP JUMPDEST JUMPDEST PUSH2 0x10CE DUP5 DUP3 DUP6 ADD PUSH2 0xF82 JUMP JUMPDEST PUSH1 0x80 DUP4 ADD MSTORE POP PUSH1 0xA0 DUP3 ADD CALLDATALOAD PUSH8 0xFFFFFFFFFFFFFFFF DUP2 GT ISZERO PUSH2 0x10F2 JUMPI PUSH2 0x10F1 PUSH2 0xEC5 JUMP JUMPDEST JUMPDEST PUSH2 0x10FE DUP5 DUP3 DUP6 ADD PUSH2 0xF82 JUMP JUMPDEST PUSH1 0xA0 DUP4 ADD MSTORE POP PUSH1 0xC0 PUSH2 0x1112 DUP5 DUP3 DUP6 ADD PUSH2 0xEE1 JUMP JUMPDEST PUSH1 0xC0 DUP4 ADD MSTORE POP PUSH1 0xE0 DUP3 ADD CALLDATALOAD PUSH8 0xFFFFFFFFFFFFFFFF DUP2 GT ISZERO PUSH2 0x1136 JUMPI PUSH2 0x1135 PUSH2 0xEC5 JUMP JUMPDEST JUMPDEST PUSH2 0x1142 DUP5 DUP3 DUP6 ADD PUSH2 0xF82 JUMP JUMPDEST PUSH1 0xE0 DUP4 ADD MSTORE POP PUSH2 0x100 PUSH2 0x1157 DUP5 DUP3 DUP6 ADD PUSH2 0xFC7 JUMP JUMPDEST PUSH2 0x100 DUP4 ADD MSTORE POP SWAP3 SWAP2 POP POP JUMP JUMPDEST PUSH1 0x0 PUSH1 0x20 DUP3 DUP5 SUB SLT ISZERO PUSH2 0x117A JUMPI PUSH2 0x1179 PUSH2 0xDB0 JUMP JUMPDEST JUMPDEST PUSH1 0x0 DUP3 ADD CALLDATALOAD PUSH8 0xFFFFFFFFFFFFFFFF DUP2 GT ISZERO PUSH2 0x1198 JUMPI PUSH2 0x1197 PUSH2 0xDB5 JUMP JUMPDEST JUMPDEST PUSH2 0x11A4 DUP5 DUP3 DUP6 ADD PUSH2 0xFDC JUMP JUMPDEST SWAP2 POP POP SWAP3 SWAP2 POP POP JUMP JUMPDEST PUSH2 0x11B6 DUP2 PUSH2 0xDDA JUMP JUMPDEST DUP3 MSTORE POP POP JUMP JUMPDEST PUSH1 0x0 PUSH1 0x20 DUP3 ADD SWAP1 POP PUSH2 0x11D1 PUSH1 0x0 DUP4 ADD DUP5 PUSH2 0x11AD JUMP JUMPDEST SWAP3 SWAP2 POP POP JUMP JUMPDEST PUSH1 0x0 PUSH1 0x20 DUP3 DUP5 SUB SLT ISZERO PUSH2 0x11ED JUMPI PUSH2 0x11EC PUSH2 0xDB0 JUMP JUMPDEST JUMPDEST PUSH1 0x0 PUSH2 0x11FB DUP5 DUP3 DUP6 ADD PUSH2 0xEE1 JUMP JUMPDEST SWAP2 POP POP SWAP3 SWAP2 POP POP JUMP JUMPDEST PUSH1 0x0 DUP3 DUP3 MSTORE PUSH1 0x20 DUP3 ADD SWAP1 POP SWAP3 SWAP2 POP POP JUMP JUMPDEST PUSH32 0x537465703744617461626173653A206F6E6C7920636F6E747261637420776869 PUSH1 0x0 DUP3 ADD MSTORE PUSH32 0x63682061726520616C6C6F776564000000000000000000000000000000000000 PUSH1 0x20 DUP3 ADD MSTORE POP JUMP JUMPDEST PUSH1 0x0 PUSH2 0x1271 PUSH1 0x2E DUP4 PUSH2 0x1204 JUMP JUMPDEST SWAP2 POP PUSH2 0x127C DUP3 PUSH2 0x1215 JUMP JUMPDEST PUSH1 0x40 DUP3 ADD SWAP1 POP SWAP2 SWAP1 POP JUMP JUMPDEST PUSH1 0x0 PUSH1 0x20 DUP3 ADD SWAP1 POP DUP2 DUP2 SUB PUSH1 0x0 DUP4 ADD MSTORE PUSH2 0x12A0 DUP2 PUSH2 0x1264 JUMP JUMPDEST SWAP1 POP SWAP2 SWAP1 POP JUMP JUMPDEST PUSH32 0x4E487B7100000000000000000000000000000000000000000000000000000000 PUSH1 0x0 MSTORE PUSH1 0x22 PUSH1 0x4 MSTORE PUSH1 0x24 PUSH1 0x0 REVERT JUMPDEST PUSH1 0x0 PUSH1 0x2 DUP3 DIV SWAP1 POP PUSH1 0x1 DUP3 AND DUP1 PUSH2 0x12EE JUMPI PUSH1 0x7F DUP3 AND SWAP2 POP JUMPDEST PUSH1 0x20 DUP3 LT DUP2 SUB PUSH2 0x1301 JUMPI PUSH2 0x1300 PUSH2 0x12A7 JUMP JUMPDEST JUMPDEST POP SWAP2 SWAP1 POP JUMP JUMPDEST PUSH32 0x537465703744617461626173653A207065726D697373696F6E20686173206265 PUSH1 0x0 DUP3 ADD MSTORE PUSH32 0x656E206772616E74656400000000000000000000000000000000000000000000 PUSH1 0x20 DUP3 ADD MSTORE POP JUMP JUMPDEST PUSH1 0x0 PUSH2 0x1363 PUSH1 0x2A DUP4 PUSH2 0x1204 JUMP JUMPDEST SWAP2 POP PUSH2 0x136E DUP3 PUSH2 0x1307 JUMP JUMPDEST PUSH1 0x40 DUP3 ADD SWAP1 POP SWAP2 SWAP1 POP JUMP JUMPDEST PUSH1 0x0 PUSH1 0x20 DUP3 ADD SWAP1 POP DUP2 DUP2 SUB PUSH1 0x0 DUP4 ADD MSTORE PUSH2 0x1392 DUP2 PUSH2 0x1356 JUMP JUMPDEST SWAP1 POP SWAP2 SWAP1 POP JUMP JUMPDEST PUSH1 0x0 DUP2 SWAP1 POP DUP2 PUSH1 0x0 MSTORE PUSH1 0x20 PUSH1 0x0 KECCAK256 SWAP1 POP SWAP2 SWAP1 POP JUMP JUMPDEST PUSH1 0x0 PUSH1 0x20 PUSH1 0x1F DUP4 ADD DIV SWAP1 POP SWAP2 SWAP1 POP JUMP JUMPDEST PUSH1 0x0 DUP3 DUP3 SHL SWAP1 POP SWAP3 SWAP2 POP POP JUMP JUMPDEST PUSH1 0x0 PUSH1 0x8 DUP4 MUL PUSH2 0x13FB PUSH32 0xFFFFFFFFFFFFFFFFFFFFFFFFFFFFFFFFFFFFFFFFFFFFFFFFFFFFFFFFFFFFFFFF DUP3 PUSH2 0x13BE JUMP JUMPDEST PUSH2 0x1405 DUP7 DUP4 PUSH2 0x13BE JUMP JUMPDEST SWAP6 POP DUP1 NOT DUP5 AND SWAP4 POP DUP1 DUP7 AND DUP5 OR SWAP3 POP POP POP SWAP4 SWAP3 POP POP POP JUMP JUMPDEST PUSH1 0x0 DUP2 SWAP1 POP SWAP2 SWAP1 POP JUMP JUMPDEST PUSH1 0x0 PUSH2 0x1442 PUSH2 0x143D PUSH2 0x1438 DUP5 PUSH2 0xB42 JUMP JUMPDEST PUSH2 0x141D JUMP JUMPDEST PUSH2 0xB42 JUMP JUMPDEST SWAP1 POP SWAP2 SWAP1 POP JUMP JUMPDEST PUSH1 0x0 DUP2 SWAP1 POP SWAP2 SWAP1 POP JUMP JUMPDEST PUSH2 0x145C DUP4 PUSH2 0x1427 JUMP JUMPDEST PUSH2 0x1470 PUSH2 0x1468 DUP3 PUSH2 0x1449 JUMP JUMPDEST DUP5 DUP5 SLOAD PUSH2 0x13CB JUMP JUMPDEST DUP3 SSTORE POP POP POP POP JUMP JUMPDEST PUSH1 0x0 SWAP1 JUMP JUMPDEST PUSH2 0x1485 PUSH2 0x1478 JUMP JUMPDEST PUSH2 0x1490 DUP2 DUP5 DUP5 PUSH2 0x1453 JUMP JUMPDEST POP POP POP JUMP JUMPDEST JUMPDEST DUP2 DUP2 LT ISZERO PUSH2 0x14B4 JUMPI PUSH2 0x14A9 PUSH1 0x0 DUP3 PUSH2 0x147D JUMP JUMPDEST PUSH1 0x1 DUP2 ADD SWAP1 POP PUSH2 0x1496 JUMP JUMPDEST POP POP JUMP JUMPDEST PUSH1 0x1F DUP3 GT ISZERO PUSH2 0x14F9 JUMPI PUSH2 0x14CA DUP2 PUSH2 0x1399 JUMP JUMPDEST PUSH2 0x14D3 DUP5 PUSH2 0x13AE JUMP JUMPDEST DUP2 ADD PUSH1 0x20 DUP6 LT ISZERO PUSH2 0x14E2 JUMPI DUP2 SWAP1 POP JUMPDEST PUSH2 0x14F6 PUSH2 0x14EE DUP6 PUSH2 0x13AE JUMP JUMPDEST DUP4 ADD DUP3 PUSH2 0x1495 JUMP JUMPDEST POP POP JUMPDEST POP POP POP JUMP JUMPDEST PUSH1 0x0 DUP3 DUP3 SHR SWAP1 POP SWAP3 SWAP2 POP POP JUMP JUMPDEST PUSH1 0x0 PUSH2 0x151C PUSH1 0x0 NOT DUP5 PUSH1 0x8 MUL PUSH2 0x14FE JUMP JUMPDEST NOT DUP1 DUP4 AND SWAP2 POP POP SWAP3 SWAP2 POP POP JUMP JUMPDEST PUSH1 0x0 PUSH2 0x1535 DUP4 DUP4 PUSH2 0x150B JUMP JUMPDEST SWAP2 POP DUP3 PUSH1 0x2 MUL DUP3 OR SWAP1 POP SWAP3 SWAP2 POP POP JUMP JUMPDEST PUSH2 0x154E DUP3 PUSH2 0xB5B JUMP JUMPDEST PUSH8 0xFFFFFFFFFFFFFFFF DUP2 GT ISZERO PUSH2 0x1567 JUMPI PUSH2 0x1566 PUSH2 0xE4A JUMP JUMPDEST JUMPDEST PUSH2 0x1571 DUP3 SLOAD PUSH2 0x12D6 JUMP JUMPDEST PUSH2 0x157C DUP3 DUP3 DUP6 PUSH2 0x14B8 JUMP JUMPDEST PUSH1 0x0 PUSH1 0x20 SWAP1 POP PUSH1 0x1F DUP4 GT PUSH1 0x1 DUP2 EQ PUSH2 0x15AF JUMPI PUSH1 0x0 DUP5 ISZERO PUSH2 0x159D JUMPI DUP3 DUP8 ADD MLOAD SWAP1 POP JUMPDEST PUSH2 0x15A7 DUP6 DUP3 PUSH2 0x1529 JUMP JUMPDEST DUP7 SSTORE POP PUSH2 0x160F JUMP JUMPDEST PUSH1 0x1F NOT DUP5 AND PUSH2 0x15BD DUP7 PUSH2 0x1399 JUMP JUMPDEST PUSH1 0x0 JUMPDEST DUP3 DUP2 LT ISZERO PUSH2 0x15E5 JUMPI DUP5 DUP10 ADD MLOAD DUP3 SSTORE PUSH1 0x1 DUP3 ADD SWAP2 POP PUSH1 0x20 DUP6 ADD SWAP5 POP PUSH1 0x20 DUP2 ADD SWAP1 POP PUSH2 0x15C0 JUMP JUMPDEST DUP7 DUP4 LT ISZERO PUSH2 0x1602 JUMPI DUP5 DUP10 ADD MLOAD PUSH2 0x15FE PUSH1 0x1F DUP10 AND DUP3 PUSH2 0x150B JUMP JUMPDEST DUP4 SSTORE POP JUMPDEST PUSH1 0x1 PUSH1 0x2 DUP9 MUL ADD DUP9 SSTORE POP POP POP JUMPDEST POP POP POP POP POP POP JUMP JUMPDEST PUSH32 0x4E487B7100000000000000000000000000000000000000000000000000000000 PUSH1 0x0 MSTORE PUSH1 0x32 PUSH1 0x4 MSTORE PUSH1 0x24 PUSH1 0x0 REVERT JUMPDEST PUSH32 0x4F776E61626C653A206E6577206F776E657220697320746865207A65726F2061 PUSH1 0x0 DUP3 ADD MSTORE PUSH32 0x6464726573730000000000000000000000000000000000000000000000000000 PUSH1 0x20 DUP3 ADD MSTORE POP JUMP JUMPDEST PUSH1 0x0 PUSH2 0x16A2 PUSH1 0x26 DUP4 PUSH2 0x1204 JUMP JUMPDEST SWAP2 POP PUSH2 0x16AD DUP3 PUSH2 0x1646 JUMP JUMPDEST PUSH1 0x40 DUP3 ADD SWAP1 POP SWAP2 SWAP1 POP JUMP JUMPDEST PUSH1 0x0 PUSH1 0x20 DUP3 ADD SWAP1 POP DUP2 DUP2 SUB PUSH1 0x0 DUP4 ADD MSTORE PUSH2 0x16D1 DUP2 PUSH2 0x1695 JUMP JUMPDEST SWAP1 POP SWAP2 SWAP1 POP JUMP JUMPDEST PUSH32 0x4F776E61626C653A2063616C6C6572206973206E6F7420746865206F776E6572 PUSH1 0x0 DUP3 ADD MSTORE POP JUMP JUMPDEST PUSH1 0x0 PUSH2 0x170E PUSH1 0x20 DUP4 PUSH2 0x1204 JUMP JUMPDEST SWAP2 POP PUSH2 0x1719 DUP3 PUSH2 0x16D8 JUMP JUMPDEST PUSH1 0x20 DUP3 ADD SWAP1 POP SWAP2 SWAP1 POP JUMP JUMPDEST PUSH1 0x0 PUSH1 0x20 DUP3 ADD SWAP1 POP DUP2 DUP2 SUB PUSH1 0x0 DUP4 ADD MSTORE PUSH2 0x173D DUP2 PUSH2 0x1701 JUMP JUMPDEST SWAP1 POP SWAP2 SWAP1 POP JUMP INVALID LOG2 PUSH5 0x6970667358 0x22 SLT KECCAK256 0xD5 DUP5 PREVRANDAO ISZERO 0xD7 0xBC KECCAK256 BYTE 0xB4 0x4B SWAP15 SWAP13 0xA9 CREATE DUP12 JUMPI DUP10 0xD 0x23 PUSH13 0x206B20DC51047FD36298710864 PUSH20 0x6F6C634300081200330000000000000000000000 "
				},
				"gasEstimates": {
					"creation": {
						"codeDepositCost": "1202000",
						"executionCost": "25514",
						"totalCost": "1227514"
					},
					"external": {
						"addChecked(uint256)": "29191",
						"addPermission(address)": "29310",
						"addStep7((uint256,string,string,string,string,string,uint256,string,bool))": "infinite",
						"destroy()": "29972",
						"getAllStep7()": "infinite",
						"owner()": "2544",
						"transferOwnership(address)": "30775"
					}
				},
				"methodIdentifiers": {
					"addChecked(uint256)": "ee416d5b",
					"addPermission(address)": "4d0a5dbd",
					"addStep7((uint256,string,string,string,string,string,uint256,string,bool))": "695d98cf",
					"destroy()": "83197ef0",
					"getAllStep7()": "4569bd4f",
					"owner()": "8da5cb5b",
					"transferOwnership(address)": "f2fde38b"
				}
			},
			"storageLayout": {
				"storage": [
					{
						"astId": 30,
						"contract": "database/processing/Step7Database.sol:Step7Database",
						"label": "_owner",
						"offset": 0,
						"slot": "0",
						"type": "t_address"
					},
					{
						"astId": 149,
						"contract": "database/processing/Step7Database.sol:Step7Database",
						"label": "list",
						"offset": 0,
						"slot": "1",
						"type": "t_array(t_struct(Step7)257_storage)dyn_storage"
					},
					{
						"astId": 153,
						"contract": "database/processing/Step7Database.sol:Step7Database",
						"label": "permissions",
						"offset": 0,
						"slot": "2",
						"type": "t_mapping(t_address,t_bool)"
					}
				],
				"types": {
					"t_address": {
						"encoding": "inplace",
						"label": "address",
						"numberOfBytes": "20"
					},
					"t_array(t_struct(Step7)257_storage)dyn_storage": {
						"base": "t_struct(Step7)257_storage",
						"encoding": "dynamic_array",
						"label": "struct Step7[]",
						"numberOfBytes": "32"
					},
					"t_bool": {
						"encoding": "inplace",
						"label": "bool",
						"numberOfBytes": "1"
					},
					"t_mapping(t_address,t_bool)": {
						"encoding": "mapping",
						"key": "t_address",
						"label": "mapping(address => bool)",
						"numberOfBytes": "32",
						"value": "t_bool"
					},
					"t_string_storage": {
						"encoding": "bytes",
						"label": "string",
						"numberOfBytes": "32"
					},
					"t_struct(Step7)257_storage": {
						"encoding": "inplace",
						"label": "struct Step7",
						"members": [
							{
								"astId": 240,
								"contract": "database/processing/Step7Database.sol:Step7Database",
								"label": "productCode",
								"offset": 0,
								"slot": "0",
								"type": "t_uint256"
							},
							{
								"astId": 242,
								"contract": "database/processing/Step7Database.sol:Step7Database",
								"label": "productName",
								"offset": 0,
								"slot": "1",
								"type": "t_string_storage"
							},
							{
								"astId": 244,
								"contract": "database/processing/Step7Database.sol:Step7Database",
								"label": "date",
								"offset": 0,
								"slot": "2",
								"type": "t_string_storage"
							},
							{
								"astId": 246,
								"contract": "database/processing/Step7Database.sol:Step7Database",
								"label": "location",
								"offset": 0,
								"slot": "3",
								"type": "t_string_storage"
							},
							{
								"astId": 248,
								"contract": "database/processing/Step7Database.sol:Step7Database",
								"label": "photo",
								"offset": 0,
								"slot": "4",
								"type": "t_string_storage"
							},
							{
								"astId": 250,
								"contract": "database/processing/Step7Database.sol:Step7Database",
								"label": "userName",
								"offset": 0,
								"slot": "5",
								"type": "t_string_storage"
							},
							{
								"astId": 252,
								"contract": "database/processing/Step7Database.sol:Step7Database",
								"label": "userCccd",
								"offset": 0,
								"slot": "6",
								"type": "t_uint256"
							},
							{
								"astId": 254,
								"contract": "database/processing/Step7Database.sol:Step7Database",
								"label": "categories",
								"offset": 0,
								"slot": "7",
								"type": "t_string_storage"
							},
							{
								"astId": 256,
								"contract": "database/processing/Step7Database.sol:Step7Database",
								"label": "step7IsChecked",
								"offset": 0,
								"slot": "8",
								"type": "t_bool"
							}
						],
						"numberOfBytes": "288"
					},
					"t_uint256": {
						"encoding": "inplace",
						"label": "uint256",
						"numberOfBytes": "32"
					}
				}
			},
			"userdoc": {
				"kind": "user",
				"methods": {},
				"version": 1
			}
		}
	}
}