{
	"database/processing/Step1Database.sol": {
		"Step1Database": {
			"abi": [
				{
					"inputs": [],
					"stateMutability": "nonpayable",
					"type": "constructor"
				},
				{
					"anonymous": false,
					"inputs": [
						{
							"indexed": true,
							"internalType": "address",
							"name": "previousOwner",
							"type": "address"
						},
						{
							"indexed": true,
							"internalType": "address",
							"name": "newOwner",
							"type": "address"
						}
					],
					"name": "OwnershipTransferred",
					"type": "event"
				},
				{
					"inputs": [
						{
							"internalType": "uint256",
							"name": "step1Id",
							"type": "uint256"
						}
					],
					"name": "addChecked",
					"outputs": [],
					"stateMutability": "nonpayable",
					"type": "function"
				},
				{
					"inputs": [
						{
							"internalType": "address",
							"name": "contractPermission",
							"type": "address"
						}
					],
					"name": "addPermission",
					"outputs": [],
					"stateMutability": "nonpayable",
					"type": "function"
				},
				{
					"inputs": [
						{
							"components": [
								{
									"internalType": "uint256",
									"name": "productCode",
									"type": "uint256"
								},
								{
									"internalType": "string",
									"name": "productName",
									"type": "string"
								},
								{
									"internalType": "string",
									"name": "date",
									"type": "string"
								},
								{
									"internalType": "string",
									"name": "location",
									"type": "string"
								},
								{
									"internalType": "string",
									"name": "photo",
									"type": "string"
								},
								{
									"internalType": "string",
									"name": "userName",
									"type": "string"
								},
								{
									"internalType": "uint256",
									"name": "userCccd",
									"type": "uint256"
								},
								{
									"internalType": "string",
									"name": "categories",
									"type": "string"
								},
								{
									"internalType": "bool",
									"name": "step1IsChecked",
									"type": "bool"
								}
							],
							"internalType": "struct Step1",
							"name": "step1",
							"type": "tuple"
						}
					],
					"name": "addStep1",
					"outputs": [],
					"stateMutability": "nonpayable",
					"type": "function"
				},
				{
					"inputs": [],
					"name": "destroy",
					"outputs": [],
					"stateMutability": "nonpayable",
					"type": "function"
				},
				{
					"inputs": [],
					"name": "getAllStep1",
					"outputs": [
						{
							"components": [
								{
									"internalType": "uint256",
									"name": "productCode",
									"type": "uint256"
								},
								{
									"internalType": "string",
									"name": "productName",
									"type": "string"
								},
								{
									"internalType": "string",
									"name": "date",
									"type": "string"
								},
								{
									"internalType": "string",
									"name": "location",
									"type": "string"
								},
								{
									"internalType": "string",
									"name": "photo",
									"type": "string"
								},
								{
									"internalType": "string",
									"name": "userName",
									"type": "string"
								},
								{
									"internalType": "uint256",
									"name": "userCccd",
									"type": "uint256"
								},
								{
									"internalType": "string",
									"name": "categories",
									"type": "string"
								},
								{
									"internalType": "bool",
									"name": "step1IsChecked",
									"type": "bool"
								}
							],
							"internalType": "struct Step1[]",
							"name": "",
							"type": "tuple[]"
						}
					],
					"stateMutability": "view",
					"type": "function"
				},
				{
					"inputs": [],
					"name": "owner",
					"outputs": [
						{
							"internalType": "address",
							"name": "",
							"type": "address"
						}
					],
					"stateMutability": "view",
					"type": "function"
				},
				{
					"inputs": [
						{
							"internalType": "address",
							"name": "newOwner",
							"type": "address"
						}
					],
					"name": "transferOwnership",
					"outputs": [],
					"stateMutability": "nonpayable",
					"type": "function"
				}
			],
			"devdoc": {
				"kind": "dev",
				"methods": {
					"owner()": {
						"details": "Returns the address of the current owner."
					},
					"transferOwnership(address)": {
						"details": "Transfers ownership of the contract to a new account (`newOwner`). Can only be called by the current owner."
					}
				},
				"version": 1
			},
			"evm": {
				"assembly": "    /* \"database/processing/Step1Database.sol\":182:1282  contract Step1Database is Ownable {... */\n  mstore(0x40, 0x80)\n    /* \"database/processing/Step1Database.sol\":282:283  0 */\n  0x00\n    /* \"database/processing/Step1Database.sol\":250:283  uint256 private autoIncrement = 0 */\n  0x02\n  sstore\n    /* \"database/processing/Step1Database.sol\":532:558  constructor() Ownable() {} */\n  callvalue\n  dup1\n  iszero\n  tag_1\n  jumpi\n  0x00\n  dup1\n  revert\ntag_1:\n  pop\n    /* \"abstract/Ownable.sol\":1032:1042  msg.sender */\n  caller\n    /* \"abstract/Ownable.sol\":1023:1029  _owner */\n  0x00\n  dup1\n    /* \"abstract/Ownable.sol\":1023:1042  _owner = msg.sender */\n  0x0100\n  exp\n  dup2\n  sload\n  dup2\n  0xffffffffffffffffffffffffffffffffffffffff\n  mul\n  not\n  and\n  swap1\n  dup4\n  0xffffffffffffffffffffffffffffffffffffffff\n  and\n  mul\n  or\n  swap1\n  sstore\n  pop\n    /* \"database/processing/Step1Database.sol\":182:1282  contract Step1Database is Ownable {... */\n  dataSize(sub_0)\n  dup1\n  dataOffset(sub_0)\n  0x00\n  codecopy\n  0x00\n  return\nstop\n\nsub_0: assembly {\n        /* \"database/processing/Step1Database.sol\":182:1282  contract Step1Database is Ownable {... */\n      mstore(0x40, 0x80)\n      callvalue\n      dup1\n      iszero\n      tag_1\n      jumpi\n      0x00\n      dup1\n      revert\n    tag_1:\n      pop\n      jumpi(tag_2, lt(calldatasize, 0x04))\n      shr(0xe0, calldataload(0x00))\n      dup1\n      0x8da5cb5b\n      gt\n      tag_10\n      jumpi\n      dup1\n      0x8da5cb5b\n      eq\n      tag_6\n      jumpi\n      dup1\n      0xda731ab3\n      eq\n      tag_7\n      jumpi\n      dup1\n      0xee416d5b\n      eq\n      tag_8\n      jumpi\n      dup1\n      0xf2fde38b\n      eq\n      tag_9\n      jumpi\n      jump(tag_2)\n    tag_10:\n      dup1\n      0x2c1a81bb\n      eq\n      tag_3\n      jumpi\n      dup1\n      0x4d0a5dbd\n      eq\n      tag_4\n      jumpi\n      dup1\n      0x83197ef0\n      eq\n      tag_5\n      jumpi\n    tag_2:\n      0x00\n      dup1\n      revert\n        /* \"database/processing/Step1Database.sol\":1132:1279  function getAllStep1()... */\n    tag_3:\n      tag_11\n      tag_12\n      jump\t// in\n    tag_11:\n      mload(0x40)\n      tag_13\n      swap2\n      swap1\n      tag_14\n      jump\t// in\n    tag_13:\n      mload(0x40)\n      dup1\n      swap2\n      sub\n      swap1\n      return\n        /* \"database/processing/Step1Database.sol\":566:826  function addPermission(address contractPermission) public onlyOwner {... */\n    tag_4:\n      tag_15\n      0x04\n      dup1\n      calldatasize\n      sub\n      dup2\n      add\n      swap1\n      tag_16\n      swap2\n      swap1\n      tag_17\n      jump\t// in\n    tag_16:\n      tag_18\n      jump\t// in\n    tag_15:\n      stop\n        /* \"abstract/Ownable.sol\":2801:2892  function destroy() public onlyOwner {... */\n    tag_5:\n      tag_19\n      tag_20\n      jump\t// in\n    tag_19:\n      stop\n        /* \"abstract/Ownable.sol\":1289:1376  function owner() public view virtual returns (address) {... */\n    tag_6:\n      tag_21\n      tag_22\n      jump\t// in\n    tag_21:\n      mload(0x40)\n      tag_23\n      swap2\n      swap1\n      tag_24\n      jump\t// in\n    tag_23:\n      mload(0x40)\n      dup1\n      swap2\n      sub\n      swap1\n      return\n        /* \"database/processing/Step1Database.sol\":834:1002  function addStep1(Step1 memory step1) public onlyPermissions {... */\n    tag_7:\n      tag_25\n      0x04\n      dup1\n      calldatasize\n      sub\n      dup2\n      add\n      swap1\n      tag_26\n      swap2\n      swap1\n      tag_27\n      jump\t// in\n    tag_26:\n      tag_28\n      jump\t// in\n    tag_25:\n      stop\n        /* \"database/processing/Step1Database.sol\":1010:1124  function addChecked(uint256 step1Id) public onlyPermissions {... */\n    tag_8:\n      tag_29\n      0x04\n      dup1\n      calldatasize\n      sub\n      dup2\n      add\n      swap1\n      tag_30\n      swap2\n      swap1\n      tag_31\n      jump\t// in\n    tag_30:\n      tag_32\n      jump\t// in\n    tag_29:\n      stop\n        /* \"abstract/Ownable.sol\":2204:2442  function transferOwnership(address newOwner) public virtual onlyOwner {... */\n    tag_9:\n      tag_33\n      0x04\n      dup1\n      calldatasize\n      sub\n      dup2\n      add\n      swap1\n      tag_34\n      swap2\n      swap1\n      tag_17\n      jump\t// in\n    tag_34:\n      tag_35\n      jump\t// in\n    tag_33:\n      stop\n        /* \"database/processing/Step1Database.sol\":1132:1279  function getAllStep1()... */\n    tag_12:\n        /* \"database/processing/Step1Database.sol\":1228:1242  Step1[] memory */\n      0x60\n        /* \"database/processing/Step1Database.sol\":405:416  permissions */\n      0x03\n        /* \"database/processing/Step1Database.sol\":405:430  permissions[_msgSender()] */\n      0x00\n        /* \"database/processing/Step1Database.sol\":417:429  _msgSender() */\n      tag_37\n        /* \"database/processing/Step1Database.sol\":417:427  _msgSender */\n      tag_38\n        /* \"database/processing/Step1Database.sol\":417:429  _msgSender() */\n      jump\t// in\n    tag_37:\n        /* \"database/processing/Step1Database.sol\":405:430  permissions[_msgSender()] */\n      0xffffffffffffffffffffffffffffffffffffffff\n      and\n      0xffffffffffffffffffffffffffffffffffffffff\n      and\n      dup2\n      mstore\n      0x20\n      add\n      swap1\n      dup2\n      mstore\n      0x20\n      add\n      0x00\n      keccak256\n      0x00\n      swap1\n      sload\n      swap1\n      0x0100\n      exp\n      swap1\n      div\n      0xff\n      and\n        /* \"database/processing/Step1Database.sol\":383:504  require(... */\n      tag_39\n      jumpi\n      mload(0x40)\n      0x08c379a000000000000000000000000000000000000000000000000000000000\n      dup2\n      mstore\n      0x04\n      add\n      tag_40\n      swap1\n      tag_41\n      jump\t// in\n    tag_40:\n      mload(0x40)\n      dup1\n      swap2\n      sub\n      swap1\n      revert\n    tag_39:\n        /* \"database/processing/Step1Database.sol\":1267:1271  list */\n      0x01\n        /* \"database/processing/Step1Database.sol\":1260:1271  return list */\n      dup1\n      sload\n      dup1\n      0x20\n      mul\n      0x20\n      add\n      mload(0x40)\n      swap1\n      dup2\n      add\n      0x40\n      mstore\n      dup1\n      swap3\n      swap2\n      swap1\n      dup2\n      dup2\n      mstore\n      0x20\n      add\n      0x00\n      swap1\n    tag_43:\n      dup3\n      dup3\n      lt\n      iszero\n      tag_44\n      jumpi\n      dup4\n      dup3\n      swap1\n      0x00\n      mstore\n      keccak256(0x00, 0x20)\n      swap1\n      0x09\n      mul\n      add\n      mload(0x40)\n      dup1\n      0x0120\n      add\n      0x40\n      mstore\n      swap1\n      dup2\n      0x00\n      dup3\n      add\n      sload\n      dup2\n      mstore\n      0x20\n      add\n      0x01\n      dup3\n      add\n      dup1\n      sload\n      tag_46\n      swap1\n      tag_47\n      jump\t// in\n    tag_46:\n      dup1\n      0x1f\n      add\n      0x20\n      dup1\n      swap2\n      div\n      mul\n      0x20\n      add\n      mload(0x40)\n      swap1\n      dup2\n      add\n      0x40\n      mstore\n      dup1\n      swap3\n      swap2\n      swap1\n      dup2\n      dup2\n      mstore\n      0x20\n      add\n      dup3\n      dup1\n      sload\n      tag_48\n      swap1\n      tag_47\n      jump\t// in\n    tag_48:\n      dup1\n      iszero\n      tag_49\n      jumpi\n      dup1\n      0x1f\n      lt\n      tag_50\n      jumpi\n      0x0100\n      dup1\n      dup4\n      sload\n      div\n      mul\n      dup4\n      mstore\n      swap2\n      0x20\n      add\n      swap2\n      jump(tag_49)\n    tag_50:\n      dup3\n      add\n      swap2\n      swap1\n      0x00\n      mstore\n      keccak256(0x00, 0x20)\n      swap1\n    tag_51:\n      dup2\n      sload\n      dup2\n      mstore\n      swap1\n      0x01\n      add\n      swap1\n      0x20\n      add\n      dup1\n      dup4\n      gt\n      tag_51\n      jumpi\n      dup3\n      swap1\n      sub\n      0x1f\n      and\n      dup3\n      add\n      swap2\n    tag_49:\n      pop\n      pop\n      pop\n      pop\n      pop\n      dup2\n      mstore\n      0x20\n      add\n      0x02\n      dup3\n      add\n      dup1\n      sload\n      tag_52\n      swap1\n      tag_47\n      jump\t// in\n    tag_52:\n      dup1\n      0x1f\n      add\n      0x20\n      dup1\n      swap2\n      div\n      mul\n      0x20\n      add\n      mload(0x40)\n      swap1\n      dup2\n      add\n      0x40\n      mstore\n      dup1\n      swap3\n      swap2\n      swap1\n      dup2\n      dup2\n      mstore\n      0x20\n      add\n      dup3\n      dup1\n      sload\n      tag_53\n      swap1\n      tag_47\n      jump\t// in\n    tag_53:\n      dup1\n      iszero\n      tag_54\n      jumpi\n      dup1\n      0x1f\n      lt\n      tag_55\n      jumpi\n      0x0100\n      dup1\n      dup4\n      sload\n      div\n      mul\n      dup4\n      mstore\n      swap2\n      0x20\n      add\n      swap2\n      jump(tag_54)\n    tag_55:\n      dup3\n      add\n      swap2\n      swap1\n      0x00\n      mstore\n      keccak256(0x00, 0x20)\n      swap1\n    tag_56:\n      dup2\n      sload\n      dup2\n      mstore\n      swap1\n      0x01\n      add\n      swap1\n      0x20\n      add\n      dup1\n      dup4\n      gt\n      tag_56\n      jumpi\n      dup3\n      swap1\n      sub\n      0x1f\n      and\n      dup3\n      add\n      swap2\n    tag_54:\n      pop\n      pop\n      pop\n      pop\n      pop\n      dup2\n      mstore\n      0x20\n      add\n      0x03\n      dup3\n      add\n      dup1\n      sload\n      tag_57\n      swap1\n      tag_47\n      jump\t// in\n    tag_57:\n      dup1\n      0x1f\n      add\n      0x20\n      dup1\n      swap2\n      div\n      mul\n      0x20\n      add\n      mload(0x40)\n      swap1\n      dup2\n      add\n      0x40\n      mstore\n      dup1\n      swap3\n      swap2\n      swap1\n      dup2\n      dup2\n      mstore\n      0x20\n      add\n      dup3\n      dup1\n      sload\n      tag_58\n      swap1\n      tag_47\n      jump\t// in\n    tag_58:\n      dup1\n      iszero\n      tag_59\n      jumpi\n      dup1\n      0x1f\n      lt\n      tag_60\n      jumpi\n      0x0100\n      dup1\n      dup4\n      sload\n      div\n      mul\n      dup4\n      mstore\n      swap2\n      0x20\n      add\n      swap2\n      jump(tag_59)\n    tag_60:\n      dup3\n      add\n      swap2\n      swap1\n      0x00\n      mstore\n      keccak256(0x00, 0x20)\n      swap1\n    tag_61:\n      dup2\n      sload\n      dup2\n      mstore\n      swap1\n      0x01\n      add\n      swap1\n      0x20\n      add\n      dup1\n      dup4\n      gt\n      tag_61\n      jumpi\n      dup3\n      swap1\n      sub\n      0x1f\n      and\n      dup3\n      add\n      swap2\n    tag_59:\n      pop\n      pop\n      pop\n      pop\n      pop\n      dup2\n      mstore\n      0x20\n      add\n      0x04\n      dup3\n      add\n      dup1\n      sload\n      tag_62\n      swap1\n      tag_47\n      jump\t// in\n    tag_62:\n      dup1\n      0x1f\n      add\n      0x20\n      dup1\n      swap2\n      div\n      mul\n      0x20\n      add\n      mload(0x40)\n      swap1\n      dup2\n      add\n      0x40\n      mstore\n      dup1\n      swap3\n      swap2\n      swap1\n      dup2\n      dup2\n      mstore\n      0x20\n      add\n      dup3\n      dup1\n      sload\n      tag_63\n      swap1\n      tag_47\n      jump\t// in\n    tag_63:\n      dup1\n      iszero\n      tag_64\n      jumpi\n      dup1\n      0x1f\n      lt\n      tag_65\n      jumpi\n      0x0100\n      dup1\n      dup4\n      sload\n      div\n      mul\n      dup4\n      mstore\n      swap2\n      0x20\n      add\n      swap2\n      jump(tag_64)\n    tag_65:\n      dup3\n      add\n      swap2\n      swap1\n      0x00\n      mstore\n      keccak256(0x00, 0x20)\n      swap1\n    tag_66:\n      dup2\n      sload\n      dup2\n      mstore\n      swap1\n      0x01\n      add\n      swap1\n      0x20\n      add\n      dup1\n      dup4\n      gt\n      tag_66\n      jumpi\n      dup3\n      swap1\n      sub\n      0x1f\n      and\n      dup3\n      add\n      swap2\n    tag_64:\n      pop\n      pop\n      pop\n      pop\n      pop\n      dup2\n      mstore\n      0x20\n      add\n      0x05\n      dup3\n      add\n      dup1\n      sload\n      tag_67\n      swap1\n      tag_47\n      jump\t// in\n    tag_67:\n      dup1\n      0x1f\n      add\n      0x20\n      dup1\n      swap2\n      div\n      mul\n      0x20\n      add\n      mload(0x40)\n      swap1\n      dup2\n      add\n      0x40\n      mstore\n      dup1\n      swap3\n      swap2\n      swap1\n      dup2\n      dup2\n      mstore\n      0x20\n      add\n      dup3\n      dup1\n      sload\n      tag_68\n      swap1\n      tag_47\n      jump\t// in\n    tag_68:\n      dup1\n      iszero\n      tag_69\n      jumpi\n      dup1\n      0x1f\n      lt\n      tag_70\n      jumpi\n      0x0100\n      dup1\n      dup4\n      sload\n      div\n      mul\n      dup4\n      mstore\n      swap2\n      0x20\n      add\n      swap2\n      jump(tag_69)\n    tag_70:\n      dup3\n      add\n      swap2\n      swap1\n      0x00\n      mstore\n      keccak256(0x00, 0x20)\n      swap1\n    tag_71:\n      dup2\n      sload\n      dup2\n      mstore\n      swap1\n      0x01\n      add\n      swap1\n      0x20\n      add\n      dup1\n      dup4\n      gt\n      tag_71\n      jumpi\n      dup3\n      swap1\n      sub\n      0x1f\n      and\n      dup3\n      add\n      swap2\n    tag_69:\n      pop\n      pop\n      pop\n      pop\n      pop\n      dup2\n      mstore\n      0x20\n      add\n      0x06\n      dup3\n      add\n      sload\n      dup2\n      mstore\n      0x20\n      add\n      0x07\n      dup3\n      add\n      dup1\n      sload\n      tag_72\n      swap1\n      tag_47\n      jump\t// in\n    tag_72:\n      dup1\n      0x1f\n      add\n      0x20\n      dup1\n      swap2\n      div\n      mul\n      0x20\n      add\n      mload(0x40)\n      swap1\n      dup2\n      add\n      0x40\n      mstore\n      dup1\n      swap3\n      swap2\n      swap1\n      dup2\n      dup2\n      mstore\n      0x20\n      add\n      dup3\n      dup1\n      sload\n      tag_73\n      swap1\n      tag_47\n      jump\t// in\n    tag_73:\n      dup1\n      iszero\n      tag_74\n      jumpi\n      dup1\n      0x1f\n      lt\n      tag_75\n      jumpi\n      0x0100\n      dup1\n      dup4\n      sload\n      div\n      mul\n      dup4\n      mstore\n      swap2\n      0x20\n      add\n      swap2\n      jump(tag_74)\n    tag_75:\n      dup3\n      add\n      swap2\n      swap1\n      0x00\n      mstore\n      keccak256(0x00, 0x20)\n      swap1\n    tag_76:\n      dup2\n      sload\n      dup2\n      mstore\n      swap1\n      0x01\n      add\n      swap1\n      0x20\n      add\n      dup1\n      dup4\n      gt\n      tag_76\n      jumpi\n      dup3\n      swap1\n      sub\n      0x1f\n      and\n      dup3\n      add\n      swap2\n    tag_74:\n      pop\n      pop\n      pop\n      pop\n      pop\n      dup2\n      mstore\n      0x20\n      add\n      0x08\n      dup3\n      add\n      0x00\n      swap1\n      sload\n      swap1\n      0x0100\n      exp\n      swap1\n      div\n      0xff\n      and\n      iszero\n      iszero\n      iszero\n      iszero\n      dup2\n      mstore\n      pop\n      pop\n      dup2\n      mstore\n      0x20\n      add\n      swap1\n      0x01\n      add\n      swap1\n      jump(tag_43)\n    tag_44:\n      pop\n      pop\n      pop\n      pop\n      swap1\n      pop\n        /* \"database/processing/Step1Database.sol\":1132:1279  function getAllStep1()... */\n      swap1\n      jump\t// out\n        /* \"database/processing/Step1Database.sol\":566:826  function addPermission(address contractPermission) public onlyOwner {... */\n    tag_18:\n        /* \"abstract/Ownable.sol\":1175:1188  _checkOwner() */\n      tag_78\n        /* \"abstract/Ownable.sol\":1175:1186  _checkOwner */\n      tag_79\n        /* \"abstract/Ownable.sol\":1175:1188  _checkOwner() */\n      jump\t// in\n    tag_78:\n        /* \"database/processing/Step1Database.sol\":668:679  permissions */\n      0x03\n        /* \"database/processing/Step1Database.sol\":668:699  permissions[contractPermission] */\n      0x00\n        /* \"database/processing/Step1Database.sol\":680:698  contractPermission */\n      dup3\n        /* \"database/processing/Step1Database.sol\":668:699  permissions[contractPermission] */\n      0xffffffffffffffffffffffffffffffffffffffff\n      and\n      0xffffffffffffffffffffffffffffffffffffffff\n      and\n      dup2\n      mstore\n      0x20\n      add\n      swap1\n      dup2\n      mstore\n      0x20\n      add\n      0x00\n      keccak256\n      0x00\n      swap1\n      sload\n      swap1\n      0x0100\n      exp\n      swap1\n      div\n      0xff\n      and\n        /* \"database/processing/Step1Database.sol\":667:699  !permissions[contractPermission] */\n      iszero\n        /* \"database/processing/Step1Database.sol\":645:769  require(... */\n      tag_81\n      jumpi\n      mload(0x40)\n      0x08c379a000000000000000000000000000000000000000000000000000000000\n      dup2\n      mstore\n      0x04\n      add\n      tag_82\n      swap1\n      tag_83\n      jump\t// in\n    tag_82:\n      mload(0x40)\n      dup1\n      swap2\n      sub\n      swap1\n      revert\n    tag_81:\n        /* \"database/processing/Step1Database.sol\":814:818  true */\n      0x01\n        /* \"database/processing/Step1Database.sol\":780:791  permissions */\n      0x03\n        /* \"database/processing/Step1Database.sol\":780:811  permissions[contractPermission] */\n      0x00\n        /* \"database/processing/Step1Database.sol\":792:810  contractPermission */\n      dup4\n        /* \"database/processing/Step1Database.sol\":780:811  permissions[contractPermission] */\n      0xffffffffffffffffffffffffffffffffffffffff\n      and\n      0xffffffffffffffffffffffffffffffffffffffff\n      and\n      dup2\n      mstore\n      0x20\n      add\n      swap1\n      dup2\n      mstore\n      0x20\n      add\n      0x00\n      keccak256\n      0x00\n        /* \"database/processing/Step1Database.sol\":780:818  permissions[contractPermission] = true */\n      0x0100\n      exp\n      dup2\n      sload\n      dup2\n      0xff\n      mul\n      not\n      and\n      swap1\n      dup4\n      iszero\n      iszero\n      mul\n      or\n      swap1\n      sstore\n      pop\n        /* \"database/processing/Step1Database.sol\":566:826  function addPermission(address contractPermission) public onlyOwner {... */\n      pop\n      jump\t// out\n        /* \"abstract/Ownable.sol\":2801:2892  function destroy() public onlyOwner {... */\n    tag_20:\n        /* \"abstract/Ownable.sol\":1175:1188  _checkOwner() */\n      tag_85\n        /* \"abstract/Ownable.sol\":1175:1186  _checkOwner */\n      tag_79\n        /* \"abstract/Ownable.sol\":1175:1188  _checkOwner() */\n      jump\t// in\n    tag_85:\n        /* \"abstract/Ownable.sol\":2877:2881  this */\n      address\n        /* \"abstract/Ownable.sol\":2848:2884  selfdestruct(payable(address(this))) */\n      0xffffffffffffffffffffffffffffffffffffffff\n      and\n      selfdestruct\n        /* \"abstract/Ownable.sol\":1289:1376  function owner() public view virtual returns (address) {... */\n    tag_22:\n        /* \"abstract/Ownable.sol\":1335:1342  address */\n      0x00\n        /* \"abstract/Ownable.sol\":1362:1368  _owner */\n      dup1\n      0x00\n      swap1\n      sload\n      swap1\n      0x0100\n      exp\n      swap1\n      div\n      0xffffffffffffffffffffffffffffffffffffffff\n      and\n        /* \"abstract/Ownable.sol\":1355:1368  return _owner */\n      swap1\n      pop\n        /* \"abstract/Ownable.sol\":1289:1376  function owner() public view virtual returns (address) {... */\n      swap1\n      jump\t// out\n        /* \"database/processing/Step1Database.sol\":834:1002  function addStep1(Step1 memory step1) public onlyPermissions {... */\n    tag_28:\n        /* \"database/processing/Step1Database.sol\":405:416  permissions */\n      0x03\n        /* \"database/processing/Step1Database.sol\":405:430  permissions[_msgSender()] */\n      0x00\n        /* \"database/processing/Step1Database.sol\":417:429  _msgSender() */\n      tag_89\n        /* \"database/processing/Step1Database.sol\":417:427  _msgSender */\n      tag_38\n        /* \"database/processing/Step1Database.sol\":417:429  _msgSender() */\n      jump\t// in\n    tag_89:\n        /* \"database/processing/Step1Database.sol\":405:430  permissions[_msgSender()] */\n      0xffffffffffffffffffffffffffffffffffffffff\n      and\n      0xffffffffffffffffffffffffffffffffffffffff\n      and\n      dup2\n      mstore\n      0x20\n      add\n      swap1\n      dup2\n      mstore\n      0x20\n      add\n      0x00\n      keccak256\n      0x00\n      swap1\n      sload\n      swap1\n      0x0100\n      exp\n      swap1\n      div\n      0xff\n      and\n        /* \"database/processing/Step1Database.sol\":383:504  require(... */\n      tag_90\n      jumpi\n      mload(0x40)\n      0x08c379a000000000000000000000000000000000000000000000000000000000\n      dup2\n      mstore\n      0x04\n      add\n      tag_91\n      swap1\n      tag_41\n      jump\t// in\n    tag_91:\n      mload(0x40)\n      dup1\n      swap2\n      sub\n      swap1\n      revert\n    tag_90:\n        /* \"database/processing/Step1Database.sol\":906:916  uint256 id */\n      0x00\n        /* \"database/processing/Step1Database.sol\":919:932  autoIncrement */\n      0x02\n      0x00\n        /* \"database/processing/Step1Database.sol\":919:934  autoIncrement++ */\n      dup2\n      sload\n      dup1\n      swap3\n      swap2\n      swap1\n      tag_93\n      swap1\n      tag_94\n      jump\t// in\n    tag_93:\n      swap2\n      swap1\n      pop\n      sstore\n        /* \"database/processing/Step1Database.sol\":906:934  uint256 id = autoIncrement++ */\n      swap1\n      pop\n        /* \"database/processing/Step1Database.sol\":965:967  id */\n      dup1\n        /* \"database/processing/Step1Database.sol\":945:950  step1 */\n      dup3\n        /* \"database/processing/Step1Database.sol\":945:962  step1.productCode */\n      0x00\n      add\n        /* \"database/processing/Step1Database.sol\":945:967  step1.productCode = id */\n      dup2\n      dup2\n      mstore\n      pop\n      pop\n        /* \"database/processing/Step1Database.sol\":978:982  list */\n      0x01\n        /* \"database/processing/Step1Database.sol\":988:993  step1 */\n      dup3\n        /* \"database/processing/Step1Database.sol\":978:994  list.push(step1) */\n      swap1\n      dup1\n      0x01\n      dup2\n      sload\n      add\n      dup1\n      dup3\n      sstore\n      dup1\n      swap2\n      pop\n      pop\n      0x01\n      swap1\n      sub\n      swap1\n      0x00\n      mstore\n      keccak256(0x00, 0x20)\n      swap1\n      0x09\n      mul\n      add\n      0x00\n      swap1\n      swap2\n      swap1\n      swap2\n      swap1\n      swap2\n      pop\n      0x00\n      dup3\n      add\n      mload\n      dup2\n      0x00\n      add\n      sstore\n      0x20\n      dup3\n      add\n      mload\n      dup2\n      0x01\n      add\n      swap1\n      dup2\n      tag_96\n      swap2\n      swap1\n      tag_97\n      jump\t// in\n    tag_96:\n      pop\n      0x40\n      dup3\n      add\n      mload\n      dup2\n      0x02\n      add\n      swap1\n      dup2\n      tag_98\n      swap2\n      swap1\n      tag_97\n      jump\t// in\n    tag_98:\n      pop\n      0x60\n      dup3\n      add\n      mload\n      dup2\n      0x03\n      add\n      swap1\n      dup2\n      tag_99\n      swap2\n      swap1\n      tag_97\n      jump\t// in\n    tag_99:\n      pop\n      0x80\n      dup3\n      add\n      mload\n      dup2\n      0x04\n      add\n      swap1\n      dup2\n      tag_100\n      swap2\n      swap1\n      tag_97\n      jump\t// in\n    tag_100:\n      pop\n      0xa0\n      dup3\n      add\n      mload\n      dup2\n      0x05\n      add\n      swap1\n      dup2\n      tag_101\n      swap2\n      swap1\n      tag_97\n      jump\t// in\n    tag_101:\n      pop\n      0xc0\n      dup3\n      add\n      mload\n      dup2\n      0x06\n      add\n      sstore\n      0xe0\n      dup3\n      add\n      mload\n      dup2\n      0x07\n      add\n      swap1\n      dup2\n      tag_102\n      swap2\n      swap1\n      tag_97\n      jump\t// in\n    tag_102:\n      pop\n      0x0100\n      dup3\n      add\n      mload\n      dup2\n      0x08\n      add\n      exp(0x0100, 0x00)\n      dup2\n      sload\n      dup2\n      0xff\n      mul\n      not\n      and\n      swap1\n      dup4\n      iszero\n      iszero\n      mul\n      or\n      swap1\n      sstore\n      pop\n      pop\n      pop\n        /* \"database/processing/Step1Database.sol\":895:1002  {... */\n      pop\n        /* \"database/processing/Step1Database.sol\":834:1002  function addStep1(Step1 memory step1) public onlyPermissions {... */\n      pop\n      jump\t// out\n        /* \"database/processing/Step1Database.sol\":1010:1124  function addChecked(uint256 step1Id) public onlyPermissions {... */\n    tag_32:\n        /* \"database/processing/Step1Database.sol\":405:416  permissions */\n      0x03\n        /* \"database/processing/Step1Database.sol\":405:430  permissions[_msgSender()] */\n      0x00\n        /* \"database/processing/Step1Database.sol\":417:429  _msgSender() */\n      tag_104\n        /* \"database/processing/Step1Database.sol\":417:427  _msgSender */\n      tag_38\n        /* \"database/processing/Step1Database.sol\":417:429  _msgSender() */\n      jump\t// in\n    tag_104:\n        /* \"database/processing/Step1Database.sol\":405:430  permissions[_msgSender()] */\n      0xffffffffffffffffffffffffffffffffffffffff\n      and\n      0xffffffffffffffffffffffffffffffffffffffff\n      and\n      dup2\n      mstore\n      0x20\n      add\n      swap1\n      dup2\n      mstore\n      0x20\n      add\n      0x00\n      keccak256\n      0x00\n      swap1\n      sload\n      swap1\n      0x0100\n      exp\n      swap1\n      div\n      0xff\n      and\n        /* \"database/processing/Step1Database.sol\":383:504  require(... */\n      tag_105\n      jumpi\n      mload(0x40)\n      0x08c379a000000000000000000000000000000000000000000000000000000000\n      dup2\n      mstore\n      0x04\n      add\n      tag_106\n      swap1\n      tag_41\n      jump\t// in\n    tag_106:\n      mload(0x40)\n      dup1\n      swap2\n      sub\n      swap1\n      revert\n    tag_105:\n        /* \"database/processing/Step1Database.sol\":1112:1116  true */\n      0x01\n        /* \"database/processing/Step1Database.sol\":1081:1085  list */\n      dup1\n        /* \"database/processing/Step1Database.sol\":1086:1093  step1Id */\n      dup3\n        /* \"database/processing/Step1Database.sol\":1081:1094  list[step1Id] */\n      dup2\n      sload\n      dup2\n      lt\n      tag_108\n      jumpi\n      tag_109\n      tag_110\n      jump\t// in\n    tag_109:\n    tag_108:\n      swap1\n      0x00\n      mstore\n      keccak256(0x00, 0x20)\n      swap1\n      0x09\n      mul\n      add\n        /* \"database/processing/Step1Database.sol\":1081:1109  list[step1Id].step1IsChecked */\n      0x08\n      add\n      0x00\n        /* \"database/processing/Step1Database.sol\":1081:1116  list[step1Id].step1IsChecked = true */\n      0x0100\n      exp\n      dup2\n      sload\n      dup2\n      0xff\n      mul\n      not\n      and\n      swap1\n      dup4\n      iszero\n      iszero\n      mul\n      or\n      swap1\n      sstore\n      pop\n        /* \"database/processing/Step1Database.sol\":1010:1124  function addChecked(uint256 step1Id) public onlyPermissions {... */\n      pop\n      jump\t// out\n        /* \"abstract/Ownable.sol\":2204:2442  function transferOwnership(address newOwner) public virtual onlyOwner {... */\n    tag_35:\n        /* \"abstract/Ownable.sol\":1175:1188  _checkOwner() */\n      tag_113\n        /* \"abstract/Ownable.sol\":1175:1186  _checkOwner */\n      tag_79\n        /* \"abstract/Ownable.sol\":1175:1188  _checkOwner() */\n      jump\t// in\n    tag_113:\n        /* \"abstract/Ownable.sol\":2327:2328  0 */\n      0x00\n        /* \"abstract/Ownable.sol\":2307:2329  newOwner != address(0) */\n      0xffffffffffffffffffffffffffffffffffffffff\n      and\n        /* \"abstract/Ownable.sol\":2307:2315  newOwner */\n      dup2\n        /* \"abstract/Ownable.sol\":2307:2329  newOwner != address(0) */\n      0xffffffffffffffffffffffffffffffffffffffff\n      and\n      sub\n        /* \"abstract/Ownable.sol\":2285:2395  require(... */\n      tag_115\n      jumpi\n      mload(0x40)\n      0x08c379a000000000000000000000000000000000000000000000000000000000\n      dup2\n      mstore\n      0x04\n      add\n      tag_116\n      swap1\n      tag_117\n      jump\t// in\n    tag_116:\n      mload(0x40)\n      dup1\n      swap2\n      sub\n      swap1\n      revert\n    tag_115:\n        /* \"abstract/Ownable.sol\":2406:2434  _transferOwnership(newOwner) */\n      tag_118\n        /* \"abstract/Ownable.sol\":2425:2433  newOwner */\n      dup2\n        /* \"abstract/Ownable.sol\":2406:2424  _transferOwnership */\n      tag_119\n        /* \"abstract/Ownable.sol\":2406:2434  _transferOwnership(newOwner) */\n      jump\t// in\n    tag_118:\n        /* \"abstract/Ownable.sol\":2204:2442  function transferOwnership(address newOwner) public virtual onlyOwner {... */\n      pop\n      jump\t// out\n        /* \"@openzeppelin/contracts/utils/Context.sol\":640:736  function _msgSender() internal view virtual returns (address) {... */\n    tag_38:\n        /* \"@openzeppelin/contracts/utils/Context.sol\":693:700  address */\n      0x00\n        /* \"@openzeppelin/contracts/utils/Context.sol\":719:729  msg.sender */\n      caller\n        /* \"@openzeppelin/contracts/utils/Context.sol\":712:729  return msg.sender */\n      swap1\n      pop\n        /* \"@openzeppelin/contracts/utils/Context.sol\":640:736  function _msgSender() internal view virtual returns (address) {... */\n      swap1\n      jump\t// out\n        /* \"abstract/Ownable.sol\":1454:1584  function _checkOwner() internal view virtual {... */\n    tag_79:\n        /* \"abstract/Ownable.sol\":1529:1539  msg.sender */\n      caller\n        /* \"abstract/Ownable.sol\":1518:1539  owner() == msg.sender */\n      0xffffffffffffffffffffffffffffffffffffffff\n      and\n        /* \"abstract/Ownable.sol\":1518:1525  owner() */\n      tag_122\n        /* \"abstract/Ownable.sol\":1518:1523  owner */\n      tag_22\n        /* \"abstract/Ownable.sol\":1518:1525  owner() */\n      jump\t// in\n    tag_122:\n        /* \"abstract/Ownable.sol\":1518:1539  owner() == msg.sender */\n      0xffffffffffffffffffffffffffffffffffffffff\n      and\n      eq\n        /* \"abstract/Ownable.sol\":1510:1576  require(owner() == msg.sender, \"Ownable: caller is not the owner\") */\n      tag_123\n      jumpi\n      mload(0x40)\n      0x08c379a000000000000000000000000000000000000000000000000000000000\n      dup2\n      mstore\n      0x04\n      add\n      tag_124\n      swap1\n      tag_125\n      jump\t// in\n    tag_124:\n      mload(0x40)\n      dup1\n      swap2\n      sub\n      swap1\n      revert\n    tag_123:\n        /* \"abstract/Ownable.sol\":1454:1584  function _checkOwner() internal view virtual {... */\n      jump\t// out\n        /* \"abstract/Ownable.sol\":2602:2793  function _transferOwnership(address newOwner) internal virtual {... */\n    tag_119:\n        /* \"abstract/Ownable.sol\":2676:2692  address oldOwner */\n      0x00\n        /* \"abstract/Ownable.sol\":2695:2701  _owner */\n      dup1\n      0x00\n      swap1\n      sload\n      swap1\n      0x0100\n      exp\n      swap1\n      div\n      0xffffffffffffffffffffffffffffffffffffffff\n      and\n        /* \"abstract/Ownable.sol\":2676:2701  address oldOwner = _owner */\n      swap1\n      pop\n        /* \"abstract/Ownable.sol\":2721:2729  newOwner */\n      dup2\n        /* \"abstract/Ownable.sol\":2712:2718  _owner */\n      0x00\n      dup1\n        /* \"abstract/Ownable.sol\":2712:2729  _owner = newOwner */\n      0x0100\n      exp\n      dup2\n      sload\n      dup2\n      0xffffffffffffffffffffffffffffffffffffffff\n      mul\n      not\n      and\n      swap1\n      dup4\n      0xffffffffffffffffffffffffffffffffffffffff\n      and\n      mul\n      or\n      swap1\n      sstore\n      pop\n        /* \"abstract/Ownable.sol\":2776:2784  newOwner */\n      dup2\n        /* \"abstract/Ownable.sol\":2745:2785  OwnershipTransferred(oldOwner, newOwner) */\n      0xffffffffffffffffffffffffffffffffffffffff\n      and\n        /* \"abstract/Ownable.sol\":2766:2774  oldOwner */\n      dup2\n        /* \"abstract/Ownable.sol\":2745:2785  OwnershipTransferred(oldOwner, newOwner) */\n      0xffffffffffffffffffffffffffffffffffffffff\n      and\n      0x8be0079c531659141344cd1fd0a4f28419497f9722a3daafe3b4186f6b6457e0\n      mload(0x40)\n      mload(0x40)\n      dup1\n      swap2\n      sub\n      swap1\n      log3\n        /* \"abstract/Ownable.sol\":2665:2793  {... */\n      pop\n        /* \"abstract/Ownable.sol\":2602:2793  function _transferOwnership(address newOwner) internal virtual {... */\n      pop\n      jump\t// out\n        /* \"#utility.yul\":7:143   */\n    tag_127:\n        /* \"#utility.yul\":96:102   */\n      0x00\n        /* \"#utility.yul\":130:135   */\n      dup2\n        /* \"#utility.yul\":124:136   */\n      mload\n        /* \"#utility.yul\":114:136   */\n      swap1\n      pop\n        /* \"#utility.yul\":7:143   */\n      swap2\n      swap1\n      pop\n      jump\t// out\n        /* \"#utility.yul\":149:355   */\n    tag_128:\n        /* \"#utility.yul\":270:281   */\n      0x00\n        /* \"#utility.yul\":304:310   */\n      dup3\n        /* \"#utility.yul\":299:302   */\n      dup3\n        /* \"#utility.yul\":292:311   */\n      mstore\n        /* \"#utility.yul\":344:348   */\n      0x20\n        /* \"#utility.yul\":339:342   */\n      dup3\n        /* \"#utility.yul\":335:349   */\n      add\n        /* \"#utility.yul\":320:349   */\n      swap1\n      pop\n        /* \"#utility.yul\":149:355   */\n      swap3\n      swap2\n      pop\n      pop\n      jump\t// out\n        /* \"#utility.yul\":361:515   */\n    tag_129:\n        /* \"#utility.yul\":450:454   */\n      0x00\n        /* \"#utility.yul\":473:476   */\n      dup2\n        /* \"#utility.yul\":465:476   */\n      swap1\n      pop\n        /* \"#utility.yul\":503:507   */\n      0x20\n        /* \"#utility.yul\":498:501   */\n      dup3\n        /* \"#utility.yul\":494:508   */\n      add\n        /* \"#utility.yul\":486:508   */\n      swap1\n      pop\n        /* \"#utility.yul\":361:515   */\n      swap2\n      swap1\n      pop\n      jump\t// out\n        /* \"#utility.yul\":521:598   */\n    tag_130:\n        /* \"#utility.yul\":558:565   */\n      0x00\n        /* \"#utility.yul\":587:592   */\n      dup2\n        /* \"#utility.yul\":576:592   */\n      swap1\n      pop\n        /* \"#utility.yul\":521:598   */\n      swap2\n      swap1\n      pop\n      jump\t// out\n        /* \"#utility.yul\":604:712   */\n    tag_131:\n        /* \"#utility.yul\":681:705   */\n      tag_199\n        /* \"#utility.yul\":699:704   */\n      dup2\n        /* \"#utility.yul\":681:705   */\n      tag_130\n      jump\t// in\n    tag_199:\n        /* \"#utility.yul\":676:679   */\n      dup3\n        /* \"#utility.yul\":669:706   */\n      mstore\n        /* \"#utility.yul\":604:712   */\n      pop\n      pop\n      jump\t// out\n        /* \"#utility.yul\":718:817   */\n    tag_132:\n        /* \"#utility.yul\":770:776   */\n      0x00\n        /* \"#utility.yul\":804:809   */\n      dup2\n        /* \"#utility.yul\":798:810   */\n      mload\n        /* \"#utility.yul\":788:810   */\n      swap1\n      pop\n        /* \"#utility.yul\":718:817   */\n      swap2\n      swap1\n      pop\n      jump\t// out\n        /* \"#utility.yul\":823:982   */\n    tag_133:\n        /* \"#utility.yul\":897:908   */\n      0x00\n        /* \"#utility.yul\":931:937   */\n      dup3\n        /* \"#utility.yul\":926:929   */\n      dup3\n        /* \"#utility.yul\":919:938   */\n      mstore\n        /* \"#utility.yul\":971:975   */\n      0x20\n        /* \"#utility.yul\":966:969   */\n      dup3\n        /* \"#utility.yul\":962:976   */\n      add\n        /* \"#utility.yul\":947:976   */\n      swap1\n      pop\n        /* \"#utility.yul\":823:982   */\n      swap3\n      swap2\n      pop\n      pop\n      jump\t// out\n        /* \"#utility.yul\":988:1234   */\n    tag_134:\n        /* \"#utility.yul\":1069:1070   */\n      0x00\n        /* \"#utility.yul\":1079:1192   */\n    tag_203:\n        /* \"#utility.yul\":1093:1099   */\n      dup4\n        /* \"#utility.yul\":1090:1091   */\n      dup2\n        /* \"#utility.yul\":1087:1100   */\n      lt\n        /* \"#utility.yul\":1079:1192   */\n      iszero\n      tag_205\n      jumpi\n        /* \"#utility.yul\":1178:1179   */\n      dup1\n        /* \"#utility.yul\":1173:1176   */\n      dup3\n        /* \"#utility.yul\":1169:1180   */\n      add\n        /* \"#utility.yul\":1163:1181   */\n      mload\n        /* \"#utility.yul\":1159:1160   */\n      dup2\n        /* \"#utility.yul\":1154:1157   */\n      dup5\n        /* \"#utility.yul\":1150:1161   */\n      add\n        /* \"#utility.yul\":1143:1182   */\n      mstore\n        /* \"#utility.yul\":1115:1117   */\n      0x20\n        /* \"#utility.yul\":1112:1113   */\n      dup2\n        /* \"#utility.yul\":1108:1118   */\n      add\n        /* \"#utility.yul\":1103:1118   */\n      swap1\n      pop\n        /* \"#utility.yul\":1079:1192   */\n      jump(tag_203)\n    tag_205:\n        /* \"#utility.yul\":1226:1227   */\n      0x00\n        /* \"#utility.yul\":1217:1223   */\n      dup5\n        /* \"#utility.yul\":1212:1215   */\n      dup5\n        /* \"#utility.yul\":1208:1224   */\n      add\n        /* \"#utility.yul\":1201:1228   */\n      mstore\n        /* \"#utility.yul\":1050:1234   */\n      pop\n        /* \"#utility.yul\":988:1234   */\n      pop\n      pop\n      pop\n      jump\t// out\n        /* \"#utility.yul\":1240:1342   */\n    tag_135:\n        /* \"#utility.yul\":1281:1287   */\n      0x00\n        /* \"#utility.yul\":1332:1334   */\n      0x1f\n        /* \"#utility.yul\":1328:1335   */\n      not\n        /* \"#utility.yul\":1323:1325   */\n      0x1f\n        /* \"#utility.yul\":1316:1321   */\n      dup4\n        /* \"#utility.yul\":1312:1326   */\n      add\n        /* \"#utility.yul\":1308:1336   */\n      and\n        /* \"#utility.yul\":1298:1336   */\n      swap1\n      pop\n        /* \"#utility.yul\":1240:1342   */\n      swap2\n      swap1\n      pop\n      jump\t// out\n        /* \"#utility.yul\":1348:1705   */\n    tag_136:\n        /* \"#utility.yul\":1426:1429   */\n      0x00\n        /* \"#utility.yul\":1454:1493   */\n      tag_208\n        /* \"#utility.yul\":1487:1492   */\n      dup3\n        /* \"#utility.yul\":1454:1493   */\n      tag_132\n      jump\t// in\n    tag_208:\n        /* \"#utility.yul\":1509:1570   */\n      tag_209\n        /* \"#utility.yul\":1563:1569   */\n      dup2\n        /* \"#utility.yul\":1558:1561   */\n      dup6\n        /* \"#utility.yul\":1509:1570   */\n      tag_133\n      jump\t// in\n    tag_209:\n        /* \"#utility.yul\":1502:1570   */\n      swap4\n      pop\n        /* \"#utility.yul\":1579:1644   */\n      tag_210\n        /* \"#utility.yul\":1637:1643   */\n      dup2\n        /* \"#utility.yul\":1632:1635   */\n      dup6\n        /* \"#utility.yul\":1625:1629   */\n      0x20\n        /* \"#utility.yul\":1618:1623   */\n      dup7\n        /* \"#utility.yul\":1614:1630   */\n      add\n        /* \"#utility.yul\":1579:1644   */\n      tag_134\n      jump\t// in\n    tag_210:\n        /* \"#utility.yul\":1669:1698   */\n      tag_211\n        /* \"#utility.yul\":1691:1697   */\n      dup2\n        /* \"#utility.yul\":1669:1698   */\n      tag_135\n      jump\t// in\n    tag_211:\n        /* \"#utility.yul\":1664:1667   */\n      dup5\n        /* \"#utility.yul\":1660:1699   */\n      add\n        /* \"#utility.yul\":1653:1699   */\n      swap2\n      pop\n        /* \"#utility.yul\":1430:1705   */\n      pop\n        /* \"#utility.yul\":1348:1705   */\n      swap3\n      swap2\n      pop\n      pop\n      jump\t// out\n        /* \"#utility.yul\":1711:1801   */\n    tag_137:\n        /* \"#utility.yul\":1745:1752   */\n      0x00\n        /* \"#utility.yul\":1788:1793   */\n      dup2\n        /* \"#utility.yul\":1781:1794   */\n      iszero\n        /* \"#utility.yul\":1774:1795   */\n      iszero\n        /* \"#utility.yul\":1763:1795   */\n      swap1\n      pop\n        /* \"#utility.yul\":1711:1801   */\n      swap2\n      swap1\n      pop\n      jump\t// out\n        /* \"#utility.yul\":1807:1906   */\n    tag_138:\n        /* \"#utility.yul\":1878:1899   */\n      tag_214\n        /* \"#utility.yul\":1893:1898   */\n      dup2\n        /* \"#utility.yul\":1878:1899   */\n      tag_137\n      jump\t// in\n    tag_214:\n        /* \"#utility.yul\":1873:1876   */\n      dup3\n        /* \"#utility.yul\":1866:1900   */\n      mstore\n        /* \"#utility.yul\":1807:1906   */\n      pop\n      pop\n      jump\t// out\n        /* \"#utility.yul\":1948:4154   */\n    tag_139:\n        /* \"#utility.yul\":2051:2054   */\n      0x00\n        /* \"#utility.yul\":2087:2093   */\n      0x0120\n        /* \"#utility.yul\":2082:2085   */\n      dup4\n        /* \"#utility.yul\":2078:2094   */\n      add\n        /* \"#utility.yul\":2183:2187   */\n      0x00\n        /* \"#utility.yul\":2176:2181   */\n      dup4\n        /* \"#utility.yul\":2172:2188   */\n      add\n        /* \"#utility.yul\":2166:2189   */\n      mload\n        /* \"#utility.yul\":2202:2265   */\n      tag_216\n        /* \"#utility.yul\":2259:2263   */\n      0x00\n        /* \"#utility.yul\":2254:2257   */\n      dup7\n        /* \"#utility.yul\":2250:2264   */\n      add\n        /* \"#utility.yul\":2236:2248   */\n      dup3\n        /* \"#utility.yul\":2202:2265   */\n      tag_131\n      jump\t// in\n    tag_216:\n        /* \"#utility.yul\":2104:2275   */\n      pop\n        /* \"#utility.yul\":2364:2368   */\n      0x20\n        /* \"#utility.yul\":2357:2362   */\n      dup4\n        /* \"#utility.yul\":2353:2369   */\n      add\n        /* \"#utility.yul\":2347:2370   */\n      mload\n        /* \"#utility.yul\":2417:2420   */\n      dup5\n        /* \"#utility.yul\":2411:2415   */\n      dup3\n        /* \"#utility.yul\":2407:2421   */\n      sub\n        /* \"#utility.yul\":2400:2404   */\n      0x20\n        /* \"#utility.yul\":2395:2398   */\n      dup7\n        /* \"#utility.yul\":2391:2405   */\n      add\n        /* \"#utility.yul\":2384:2422   */\n      mstore\n        /* \"#utility.yul\":2443:2516   */\n      tag_217\n        /* \"#utility.yul\":2511:2515   */\n      dup3\n        /* \"#utility.yul\":2497:2509   */\n      dup3\n        /* \"#utility.yul\":2443:2516   */\n      tag_136\n      jump\t// in\n    tag_217:\n        /* \"#utility.yul\":2435:2516   */\n      swap2\n      pop\n        /* \"#utility.yul\":2285:2527   */\n      pop\n        /* \"#utility.yul\":2609:2613   */\n      0x40\n        /* \"#utility.yul\":2602:2607   */\n      dup4\n        /* \"#utility.yul\":2598:2614   */\n      add\n        /* \"#utility.yul\":2592:2615   */\n      mload\n        /* \"#utility.yul\":2662:2665   */\n      dup5\n        /* \"#utility.yul\":2656:2660   */\n      dup3\n        /* \"#utility.yul\":2652:2666   */\n      sub\n        /* \"#utility.yul\":2645:2649   */\n      0x40\n        /* \"#utility.yul\":2640:2643   */\n      dup7\n        /* \"#utility.yul\":2636:2650   */\n      add\n        /* \"#utility.yul\":2629:2667   */\n      mstore\n        /* \"#utility.yul\":2688:2761   */\n      tag_218\n        /* \"#utility.yul\":2756:2760   */\n      dup3\n        /* \"#utility.yul\":2742:2754   */\n      dup3\n        /* \"#utility.yul\":2688:2761   */\n      tag_136\n      jump\t// in\n    tag_218:\n        /* \"#utility.yul\":2680:2761   */\n      swap2\n      pop\n        /* \"#utility.yul\":2537:2772   */\n      pop\n        /* \"#utility.yul\":2858:2862   */\n      0x60\n        /* \"#utility.yul\":2851:2856   */\n      dup4\n        /* \"#utility.yul\":2847:2863   */\n      add\n        /* \"#utility.yul\":2841:2864   */\n      mload\n        /* \"#utility.yul\":2911:2914   */\n      dup5\n        /* \"#utility.yul\":2905:2909   */\n      dup3\n        /* \"#utility.yul\":2901:2915   */\n      sub\n        /* \"#utility.yul\":2894:2898   */\n      0x60\n        /* \"#utility.yul\":2889:2892   */\n      dup7\n        /* \"#utility.yul\":2885:2899   */\n      add\n        /* \"#utility.yul\":2878:2916   */\n      mstore\n        /* \"#utility.yul\":2937:3010   */\n      tag_219\n        /* \"#utility.yul\":3005:3009   */\n      dup3\n        /* \"#utility.yul\":2991:3003   */\n      dup3\n        /* \"#utility.yul\":2937:3010   */\n      tag_136\n      jump\t// in\n    tag_219:\n        /* \"#utility.yul\":2929:3010   */\n      swap2\n      pop\n        /* \"#utility.yul\":2782:3021   */\n      pop\n        /* \"#utility.yul\":3104:3108   */\n      0x80\n        /* \"#utility.yul\":3097:3102   */\n      dup4\n        /* \"#utility.yul\":3093:3109   */\n      add\n        /* \"#utility.yul\":3087:3110   */\n      mload\n        /* \"#utility.yul\":3157:3160   */\n      dup5\n        /* \"#utility.yul\":3151:3155   */\n      dup3\n        /* \"#utility.yul\":3147:3161   */\n      sub\n        /* \"#utility.yul\":3140:3144   */\n      0x80\n        /* \"#utility.yul\":3135:3138   */\n      dup7\n        /* \"#utility.yul\":3131:3145   */\n      add\n        /* \"#utility.yul\":3124:3162   */\n      mstore\n        /* \"#utility.yul\":3183:3256   */\n      tag_220\n        /* \"#utility.yul\":3251:3255   */\n      dup3\n        /* \"#utility.yul\":3237:3249   */\n      dup3\n        /* \"#utility.yul\":3183:3256   */\n      tag_136\n      jump\t// in\n    tag_220:\n        /* \"#utility.yul\":3175:3256   */\n      swap2\n      pop\n        /* \"#utility.yul\":3031:3267   */\n      pop\n        /* \"#utility.yul\":3353:3357   */\n      0xa0\n        /* \"#utility.yul\":3346:3351   */\n      dup4\n        /* \"#utility.yul\":3342:3358   */\n      add\n        /* \"#utility.yul\":3336:3359   */\n      mload\n        /* \"#utility.yul\":3406:3409   */\n      dup5\n        /* \"#utility.yul\":3400:3404   */\n      dup3\n        /* \"#utility.yul\":3396:3410   */\n      sub\n        /* \"#utility.yul\":3389:3393   */\n      0xa0\n        /* \"#utility.yul\":3384:3387   */\n      dup7\n        /* \"#utility.yul\":3380:3394   */\n      add\n        /* \"#utility.yul\":3373:3411   */\n      mstore\n        /* \"#utility.yul\":3432:3505   */\n      tag_221\n        /* \"#utility.yul\":3500:3504   */\n      dup3\n        /* \"#utility.yul\":3486:3498   */\n      dup3\n        /* \"#utility.yul\":3432:3505   */\n      tag_136\n      jump\t// in\n    tag_221:\n        /* \"#utility.yul\":3424:3505   */\n      swap2\n      pop\n        /* \"#utility.yul\":3277:3516   */\n      pop\n        /* \"#utility.yul\":3602:3606   */\n      0xc0\n        /* \"#utility.yul\":3595:3600   */\n      dup4\n        /* \"#utility.yul\":3591:3607   */\n      add\n        /* \"#utility.yul\":3585:3608   */\n      mload\n        /* \"#utility.yul\":3621:3684   */\n      tag_222\n        /* \"#utility.yul\":3678:3682   */\n      0xc0\n        /* \"#utility.yul\":3673:3676   */\n      dup7\n        /* \"#utility.yul\":3669:3683   */\n      add\n        /* \"#utility.yul\":3655:3667   */\n      dup3\n        /* \"#utility.yul\":3621:3684   */\n      tag_131\n      jump\t// in\n    tag_222:\n        /* \"#utility.yul\":3526:3694   */\n      pop\n        /* \"#utility.yul\":3782:3786   */\n      0xe0\n        /* \"#utility.yul\":3775:3780   */\n      dup4\n        /* \"#utility.yul\":3771:3787   */\n      add\n        /* \"#utility.yul\":3765:3788   */\n      mload\n        /* \"#utility.yul\":3835:3838   */\n      dup5\n        /* \"#utility.yul\":3829:3833   */\n      dup3\n        /* \"#utility.yul\":3825:3839   */\n      sub\n        /* \"#utility.yul\":3818:3822   */\n      0xe0\n        /* \"#utility.yul\":3813:3816   */\n      dup7\n        /* \"#utility.yul\":3809:3823   */\n      add\n        /* \"#utility.yul\":3802:3840   */\n      mstore\n        /* \"#utility.yul\":3861:3934   */\n      tag_223\n        /* \"#utility.yul\":3929:3933   */\n      dup3\n        /* \"#utility.yul\":3915:3927   */\n      dup3\n        /* \"#utility.yul\":3861:3934   */\n      tag_136\n      jump\t// in\n    tag_223:\n        /* \"#utility.yul\":3853:3934   */\n      swap2\n      pop\n        /* \"#utility.yul\":3704:3945   */\n      pop\n        /* \"#utility.yul\":4037:4043   */\n      0x0100\n        /* \"#utility.yul\":4030:4035   */\n      dup4\n        /* \"#utility.yul\":4026:4044   */\n      add\n        /* \"#utility.yul\":4020:4045   */\n      mload\n        /* \"#utility.yul\":4058:4117   */\n      tag_224\n        /* \"#utility.yul\":4109:4115   */\n      0x0100\n        /* \"#utility.yul\":4104:4107   */\n      dup7\n        /* \"#utility.yul\":4100:4116   */\n      add\n        /* \"#utility.yul\":4086:4098   */\n      dup3\n        /* \"#utility.yul\":4058:4117   */\n      tag_138\n      jump\t// in\n    tag_224:\n        /* \"#utility.yul\":3955:4127   */\n      pop\n        /* \"#utility.yul\":4144:4148   */\n      dup1\n        /* \"#utility.yul\":4137:4148   */\n      swap2\n      pop\n        /* \"#utility.yul\":2056:4154   */\n      pop\n        /* \"#utility.yul\":1948:4154   */\n      swap3\n      swap2\n      pop\n      pop\n      jump\t// out\n        /* \"#utility.yul\":4160:4404   */\n    tag_140:\n        /* \"#utility.yul\":4273:4283   */\n      0x00\n        /* \"#utility.yul\":4308:4398   */\n      tag_226\n        /* \"#utility.yul\":4394:4397   */\n      dup4\n        /* \"#utility.yul\":4386:4392   */\n      dup4\n        /* \"#utility.yul\":4308:4398   */\n      tag_139\n      jump\t// in\n    tag_226:\n        /* \"#utility.yul\":4294:4398   */\n      swap1\n      pop\n        /* \"#utility.yul\":4160:4404   */\n      swap3\n      swap2\n      pop\n      pop\n      jump\t// out\n        /* \"#utility.yul\":4410:4545   */\n    tag_141:\n        /* \"#utility.yul\":4502:4506   */\n      0x00\n        /* \"#utility.yul\":4534:4538   */\n      0x20\n        /* \"#utility.yul\":4529:4532   */\n      dup3\n        /* \"#utility.yul\":4525:4539   */\n      add\n        /* \"#utility.yul\":4517:4539   */\n      swap1\n      pop\n        /* \"#utility.yul\":4410:4545   */\n      swap2\n      swap1\n      pop\n      jump\t// out\n        /* \"#utility.yul\":4591:5678   */\n    tag_142:\n        /* \"#utility.yul\":4754:4757   */\n      0x00\n        /* \"#utility.yul\":4783:4859   */\n      tag_229\n        /* \"#utility.yul\":4853:4858   */\n      dup3\n        /* \"#utility.yul\":4783:4859   */\n      tag_127\n      jump\t// in\n    tag_229:\n        /* \"#utility.yul\":4875:4983   */\n      tag_230\n        /* \"#utility.yul\":4976:4982   */\n      dup2\n        /* \"#utility.yul\":4971:4974   */\n      dup6\n        /* \"#utility.yul\":4875:4983   */\n      tag_128\n      jump\t// in\n    tag_230:\n        /* \"#utility.yul\":4868:4983   */\n      swap4\n      pop\n        /* \"#utility.yul\":5009:5012   */\n      dup4\n        /* \"#utility.yul\":5054:5058   */\n      0x20\n        /* \"#utility.yul\":5046:5052   */\n      dup3\n        /* \"#utility.yul\":5042:5059   */\n      mul\n        /* \"#utility.yul\":5037:5040   */\n      dup6\n        /* \"#utility.yul\":5033:5060   */\n      add\n        /* \"#utility.yul\":5084:5162   */\n      tag_231\n        /* \"#utility.yul\":5156:5161   */\n      dup6\n        /* \"#utility.yul\":5084:5162   */\n      tag_129\n      jump\t// in\n    tag_231:\n        /* \"#utility.yul\":5185:5192   */\n      dup1\n        /* \"#utility.yul\":5216:5217   */\n      0x00\n        /* \"#utility.yul\":5201:5633   */\n    tag_232:\n        /* \"#utility.yul\":5226:5232   */\n      dup6\n        /* \"#utility.yul\":5223:5224   */\n      dup2\n        /* \"#utility.yul\":5220:5233   */\n      lt\n        /* \"#utility.yul\":5201:5633   */\n      iszero\n      tag_234\n      jumpi\n        /* \"#utility.yul\":5297:5306   */\n      dup5\n        /* \"#utility.yul\":5291:5295   */\n      dup5\n        /* \"#utility.yul\":5287:5307   */\n      sub\n        /* \"#utility.yul\":5282:5285   */\n      dup10\n        /* \"#utility.yul\":5275:5308   */\n      mstore\n        /* \"#utility.yul\":5348:5354   */\n      dup2\n        /* \"#utility.yul\":5342:5355   */\n      mload\n        /* \"#utility.yul\":5376:5484   */\n      tag_235\n        /* \"#utility.yul\":5479:5483   */\n      dup6\n        /* \"#utility.yul\":5464:5477   */\n      dup3\n        /* \"#utility.yul\":5376:5484   */\n      tag_140\n      jump\t// in\n    tag_235:\n        /* \"#utility.yul\":5368:5484   */\n      swap5\n      pop\n        /* \"#utility.yul\":5507:5589   */\n      tag_236\n        /* \"#utility.yul\":5582:5588   */\n      dup4\n        /* \"#utility.yul\":5507:5589   */\n      tag_141\n      jump\t// in\n    tag_236:\n        /* \"#utility.yul\":5497:5589   */\n      swap3\n      pop\n        /* \"#utility.yul\":5618:5622   */\n      0x20\n        /* \"#utility.yul\":5613:5616   */\n      dup11\n        /* \"#utility.yul\":5609:5623   */\n      add\n        /* \"#utility.yul\":5602:5623   */\n      swap10\n      pop\n        /* \"#utility.yul\":5261:5633   */\n      pop\n        /* \"#utility.yul\":5248:5249   */\n      0x01\n        /* \"#utility.yul\":5245:5246   */\n      dup2\n        /* \"#utility.yul\":5241:5250   */\n      add\n        /* \"#utility.yul\":5236:5250   */\n      swap1\n      pop\n        /* \"#utility.yul\":5201:5633   */\n      jump(tag_232)\n    tag_234:\n        /* \"#utility.yul\":5205:5219   */\n      pop\n        /* \"#utility.yul\":5649:5653   */\n      dup3\n        /* \"#utility.yul\":5642:5653   */\n      swap8\n      pop\n        /* \"#utility.yul\":5669:5672   */\n      dup8\n        /* \"#utility.yul\":5662:5672   */\n      swap6\n      pop\n        /* \"#utility.yul\":4759:5678   */\n      pop\n      pop\n      pop\n      pop\n      pop\n        /* \"#utility.yul\":4591:5678   */\n      swap3\n      swap2\n      pop\n      pop\n      jump\t// out\n        /* \"#utility.yul\":5684:6145   */\n    tag_14:\n        /* \"#utility.yul\":5871:5875   */\n      0x00\n        /* \"#utility.yul\":5909:5911   */\n      0x20\n        /* \"#utility.yul\":5898:5907   */\n      dup3\n        /* \"#utility.yul\":5894:5912   */\n      add\n        /* \"#utility.yul\":5886:5912   */\n      swap1\n      pop\n        /* \"#utility.yul\":5958:5967   */\n      dup2\n        /* \"#utility.yul\":5952:5956   */\n      dup2\n        /* \"#utility.yul\":5948:5968   */\n      sub\n        /* \"#utility.yul\":5944:5945   */\n      0x00\n        /* \"#utility.yul\":5933:5942   */\n      dup4\n        /* \"#utility.yul\":5929:5946   */\n      add\n        /* \"#utility.yul\":5922:5969   */\n      mstore\n        /* \"#utility.yul\":5986:6138   */\n      tag_238\n        /* \"#utility.yul\":6133:6137   */\n      dup2\n        /* \"#utility.yul\":6124:6130   */\n      dup5\n        /* \"#utility.yul\":5986:6138   */\n      tag_142\n      jump\t// in\n    tag_238:\n        /* \"#utility.yul\":5978:6138   */\n      swap1\n      pop\n        /* \"#utility.yul\":5684:6145   */\n      swap3\n      swap2\n      pop\n      pop\n      jump\t// out\n        /* \"#utility.yul\":6151:6226   */\n    tag_143:\n        /* \"#utility.yul\":6184:6190   */\n      0x00\n        /* \"#utility.yul\":6217:6219   */\n      0x40\n        /* \"#utility.yul\":6211:6220   */\n      mload\n        /* \"#utility.yul\":6201:6220   */\n      swap1\n      pop\n        /* \"#utility.yul\":6151:6226   */\n      swap1\n      jump\t// out\n        /* \"#utility.yul\":6232:6349   */\n    tag_144:\n        /* \"#utility.yul\":6341:6342   */\n      0x00\n        /* \"#utility.yul\":6338:6339   */\n      dup1\n        /* \"#utility.yul\":6331:6343   */\n      revert\n        /* \"#utility.yul\":6355:6472   */\n    tag_145:\n        /* \"#utility.yul\":6464:6465   */\n      0x00\n        /* \"#utility.yul\":6461:6462   */\n      dup1\n        /* \"#utility.yul\":6454:6466   */\n      revert\n        /* \"#utility.yul\":6478:6604   */\n    tag_146:\n        /* \"#utility.yul\":6515:6522   */\n      0x00\n        /* \"#utility.yul\":6555:6597   */\n      0xffffffffffffffffffffffffffffffffffffffff\n        /* \"#utility.yul\":6548:6553   */\n      dup3\n        /* \"#utility.yul\":6544:6598   */\n      and\n        /* \"#utility.yul\":6533:6598   */\n      swap1\n      pop\n        /* \"#utility.yul\":6478:6604   */\n      swap2\n      swap1\n      pop\n      jump\t// out\n        /* \"#utility.yul\":6610:6706   */\n    tag_147:\n        /* \"#utility.yul\":6647:6654   */\n      0x00\n        /* \"#utility.yul\":6676:6700   */\n      tag_244\n        /* \"#utility.yul\":6694:6699   */\n      dup3\n        /* \"#utility.yul\":6676:6700   */\n      tag_146\n      jump\t// in\n    tag_244:\n        /* \"#utility.yul\":6665:6700   */\n      swap1\n      pop\n        /* \"#utility.yul\":6610:6706   */\n      swap2\n      swap1\n      pop\n      jump\t// out\n        /* \"#utility.yul\":6712:6834   */\n    tag_148:\n        /* \"#utility.yul\":6785:6809   */\n      tag_246\n        /* \"#utility.yul\":6803:6808   */\n      dup2\n        /* \"#utility.yul\":6785:6809   */\n      tag_147\n      jump\t// in\n    tag_246:\n        /* \"#utility.yul\":6778:6783   */\n      dup2\n        /* \"#utility.yul\":6775:6810   */\n      eq\n        /* \"#utility.yul\":6765:6828   */\n      tag_247\n      jumpi\n        /* \"#utility.yul\":6824:6825   */\n      0x00\n        /* \"#utility.yul\":6821:6822   */\n      dup1\n        /* \"#utility.yul\":6814:6826   */\n      revert\n        /* \"#utility.yul\":6765:6828   */\n    tag_247:\n        /* \"#utility.yul\":6712:6834   */\n      pop\n      jump\t// out\n        /* \"#utility.yul\":6840:6979   */\n    tag_149:\n        /* \"#utility.yul\":6886:6891   */\n      0x00\n        /* \"#utility.yul\":6924:6930   */\n      dup2\n        /* \"#utility.yul\":6911:6931   */\n      calldataload\n        /* \"#utility.yul\":6902:6931   */\n      swap1\n      pop\n        /* \"#utility.yul\":6940:6973   */\n      tag_249\n        /* \"#utility.yul\":6967:6972   */\n      dup2\n        /* \"#utility.yul\":6940:6973   */\n      tag_148\n      jump\t// in\n    tag_249:\n        /* \"#utility.yul\":6840:6979   */\n      swap3\n      swap2\n      pop\n      pop\n      jump\t// out\n        /* \"#utility.yul\":6985:7314   */\n    tag_17:\n        /* \"#utility.yul\":7044:7050   */\n      0x00\n        /* \"#utility.yul\":7093:7095   */\n      0x20\n        /* \"#utility.yul\":7081:7090   */\n      dup3\n        /* \"#utility.yul\":7072:7079   */\n      dup5\n        /* \"#utility.yul\":7068:7091   */\n      sub\n        /* \"#utility.yul\":7064:7096   */\n      slt\n        /* \"#utility.yul\":7061:7180   */\n      iszero\n      tag_251\n      jumpi\n        /* \"#utility.yul\":7099:7178   */\n      tag_252\n      tag_144\n      jump\t// in\n    tag_252:\n        /* \"#utility.yul\":7061:7180   */\n    tag_251:\n        /* \"#utility.yul\":7219:7220   */\n      0x00\n        /* \"#utility.yul\":7244:7297   */\n      tag_253\n        /* \"#utility.yul\":7289:7296   */\n      dup5\n        /* \"#utility.yul\":7280:7286   */\n      dup3\n        /* \"#utility.yul\":7269:7278   */\n      dup6\n        /* \"#utility.yul\":7265:7287   */\n      add\n        /* \"#utility.yul\":7244:7297   */\n      tag_149\n      jump\t// in\n    tag_253:\n        /* \"#utility.yul\":7234:7297   */\n      swap2\n      pop\n        /* \"#utility.yul\":7190:7307   */\n      pop\n        /* \"#utility.yul\":6985:7314   */\n      swap3\n      swap2\n      pop\n      pop\n      jump\t// out\n        /* \"#utility.yul\":7320:7438   */\n    tag_150:\n        /* \"#utility.yul\":7407:7431   */\n      tag_255\n        /* \"#utility.yul\":7425:7430   */\n      dup2\n        /* \"#utility.yul\":7407:7431   */\n      tag_147\n      jump\t// in\n    tag_255:\n        /* \"#utility.yul\":7402:7405   */\n      dup3\n        /* \"#utility.yul\":7395:7432   */\n      mstore\n        /* \"#utility.yul\":7320:7438   */\n      pop\n      pop\n      jump\t// out\n        /* \"#utility.yul\":7444:7666   */\n    tag_24:\n        /* \"#utility.yul\":7537:7541   */\n      0x00\n        /* \"#utility.yul\":7575:7577   */\n      0x20\n        /* \"#utility.yul\":7564:7573   */\n      dup3\n        /* \"#utility.yul\":7560:7578   */\n      add\n        /* \"#utility.yul\":7552:7578   */\n      swap1\n      pop\n        /* \"#utility.yul\":7588:7659   */\n      tag_257\n        /* \"#utility.yul\":7656:7657   */\n      0x00\n        /* \"#utility.yul\":7645:7654   */\n      dup4\n        /* \"#utility.yul\":7641:7658   */\n      add\n        /* \"#utility.yul\":7632:7638   */\n      dup5\n        /* \"#utility.yul\":7588:7659   */\n      tag_150\n      jump\t// in\n    tag_257:\n        /* \"#utility.yul\":7444:7666   */\n      swap3\n      swap2\n      pop\n      pop\n      jump\t// out\n        /* \"#utility.yul\":7672:7789   */\n    tag_151:\n        /* \"#utility.yul\":7781:7782   */\n      0x00\n        /* \"#utility.yul\":7778:7779   */\n      dup1\n        /* \"#utility.yul\":7771:7783   */\n      revert\n        /* \"#utility.yul\":7795:7975   */\n    tag_152:\n        /* \"#utility.yul\":7843:7920   */\n      0x4e487b7100000000000000000000000000000000000000000000000000000000\n        /* \"#utility.yul\":7840:7841   */\n      0x00\n        /* \"#utility.yul\":7833:7921   */\n      mstore\n        /* \"#utility.yul\":7940:7944   */\n      0x41\n        /* \"#utility.yul\":7937:7938   */\n      0x04\n        /* \"#utility.yul\":7930:7945   */\n      mstore\n        /* \"#utility.yul\":7964:7968   */\n      0x24\n        /* \"#utility.yul\":7961:7962   */\n      0x00\n        /* \"#utility.yul\":7954:7969   */\n      revert\n        /* \"#utility.yul\":7981:8262   */\n    tag_153:\n        /* \"#utility.yul\":8064:8091   */\n      tag_261\n        /* \"#utility.yul\":8086:8090   */\n      dup3\n        /* \"#utility.yul\":8064:8091   */\n      tag_135\n      jump\t// in\n    tag_261:\n        /* \"#utility.yul\":8056:8062   */\n      dup2\n        /* \"#utility.yul\":8052:8092   */\n      add\n        /* \"#utility.yul\":8194:8200   */\n      dup2\n        /* \"#utility.yul\":8182:8192   */\n      dup2\n        /* \"#utility.yul\":8179:8201   */\n      lt\n        /* \"#utility.yul\":8158:8176   */\n      0xffffffffffffffff\n        /* \"#utility.yul\":8146:8156   */\n      dup3\n        /* \"#utility.yul\":8143:8177   */\n      gt\n        /* \"#utility.yul\":8140:8202   */\n      or\n        /* \"#utility.yul\":8137:8225   */\n      iszero\n      tag_262\n      jumpi\n        /* \"#utility.yul\":8205:8223   */\n      tag_263\n      tag_152\n      jump\t// in\n    tag_263:\n        /* \"#utility.yul\":8137:8225   */\n    tag_262:\n        /* \"#utility.yul\":8245:8255   */\n      dup1\n        /* \"#utility.yul\":8241:8243   */\n      0x40\n        /* \"#utility.yul\":8234:8256   */\n      mstore\n        /* \"#utility.yul\":8024:8262   */\n      pop\n        /* \"#utility.yul\":7981:8262   */\n      pop\n      pop\n      jump\t// out\n        /* \"#utility.yul\":8268:8397   */\n    tag_154:\n        /* \"#utility.yul\":8302:8308   */\n      0x00\n        /* \"#utility.yul\":8329:8349   */\n      tag_265\n      tag_143\n      jump\t// in\n    tag_265:\n        /* \"#utility.yul\":8319:8349   */\n      swap1\n      pop\n        /* \"#utility.yul\":8358:8391   */\n      tag_266\n        /* \"#utility.yul\":8386:8390   */\n      dup3\n        /* \"#utility.yul\":8378:8384   */\n      dup3\n        /* \"#utility.yul\":8358:8391   */\n      tag_153\n      jump\t// in\n    tag_266:\n        /* \"#utility.yul\":8268:8397   */\n      swap2\n      swap1\n      pop\n      jump\t// out\n        /* \"#utility.yul\":8403:8520   */\n    tag_155:\n        /* \"#utility.yul\":8512:8513   */\n      0x00\n        /* \"#utility.yul\":8509:8510   */\n      dup1\n        /* \"#utility.yul\":8502:8514   */\n      revert\n        /* \"#utility.yul\":8526:8648   */\n    tag_156:\n        /* \"#utility.yul\":8599:8623   */\n      tag_269\n        /* \"#utility.yul\":8617:8622   */\n      dup2\n        /* \"#utility.yul\":8599:8623   */\n      tag_130\n      jump\t// in\n    tag_269:\n        /* \"#utility.yul\":8592:8597   */\n      dup2\n        /* \"#utility.yul\":8589:8624   */\n      eq\n        /* \"#utility.yul\":8579:8642   */\n      tag_270\n      jumpi\n        /* \"#utility.yul\":8638:8639   */\n      0x00\n        /* \"#utility.yul\":8635:8636   */\n      dup1\n        /* \"#utility.yul\":8628:8640   */\n      revert\n        /* \"#utility.yul\":8579:8642   */\n    tag_270:\n        /* \"#utility.yul\":8526:8648   */\n      pop\n      jump\t// out\n        /* \"#utility.yul\":8654:8793   */\n    tag_157:\n        /* \"#utility.yul\":8700:8705   */\n      0x00\n        /* \"#utility.yul\":8738:8744   */\n      dup2\n        /* \"#utility.yul\":8725:8745   */\n      calldataload\n        /* \"#utility.yul\":8716:8745   */\n      swap1\n      pop\n        /* \"#utility.yul\":8754:8787   */\n      tag_272\n        /* \"#utility.yul\":8781:8786   */\n      dup2\n        /* \"#utility.yul\":8754:8787   */\n      tag_156\n      jump\t// in\n    tag_272:\n        /* \"#utility.yul\":8654:8793   */\n      swap3\n      swap2\n      pop\n      pop\n      jump\t// out\n        /* \"#utility.yul\":8799:8916   */\n    tag_158:\n        /* \"#utility.yul\":8908:8909   */\n      0x00\n        /* \"#utility.yul\":8905:8906   */\n      dup1\n        /* \"#utility.yul\":8898:8910   */\n      revert\n        /* \"#utility.yul\":8922:9039   */\n    tag_159:\n        /* \"#utility.yul\":9031:9032   */\n      0x00\n        /* \"#utility.yul\":9028:9029   */\n      dup1\n        /* \"#utility.yul\":9021:9033   */\n      revert\n        /* \"#utility.yul\":9045:9353   */\n    tag_160:\n        /* \"#utility.yul\":9107:9111   */\n      0x00\n        /* \"#utility.yul\":9197:9215   */\n      0xffffffffffffffff\n        /* \"#utility.yul\":9189:9195   */\n      dup3\n        /* \"#utility.yul\":9186:9216   */\n      gt\n        /* \"#utility.yul\":9183:9239   */\n      iszero\n      tag_276\n      jumpi\n        /* \"#utility.yul\":9219:9237   */\n      tag_277\n      tag_152\n      jump\t// in\n    tag_277:\n        /* \"#utility.yul\":9183:9239   */\n    tag_276:\n        /* \"#utility.yul\":9257:9286   */\n      tag_278\n        /* \"#utility.yul\":9279:9285   */\n      dup3\n        /* \"#utility.yul\":9257:9286   */\n      tag_135\n      jump\t// in\n    tag_278:\n        /* \"#utility.yul\":9249:9286   */\n      swap1\n      pop\n        /* \"#utility.yul\":9341:9345   */\n      0x20\n        /* \"#utility.yul\":9335:9339   */\n      dup2\n        /* \"#utility.yul\":9331:9346   */\n      add\n        /* \"#utility.yul\":9323:9346   */\n      swap1\n      pop\n        /* \"#utility.yul\":9045:9353   */\n      swap2\n      swap1\n      pop\n      jump\t// out\n        /* \"#utility.yul\":9359:9505   */\n    tag_161:\n        /* \"#utility.yul\":9456:9462   */\n      dup3\n        /* \"#utility.yul\":9451:9454   */\n      dup2\n        /* \"#utility.yul\":9446:9449   */\n      dup4\n        /* \"#utility.yul\":9433:9463   */\n      calldatacopy\n        /* \"#utility.yul\":9497:9498   */\n      0x00\n        /* \"#utility.yul\":9488:9494   */\n      dup4\n        /* \"#utility.yul\":9483:9486   */\n      dup4\n        /* \"#utility.yul\":9479:9495   */\n      add\n        /* \"#utility.yul\":9472:9499   */\n      mstore\n        /* \"#utility.yul\":9359:9505   */\n      pop\n      pop\n      pop\n      jump\t// out\n        /* \"#utility.yul\":9511:9936   */\n    tag_162:\n        /* \"#utility.yul\":9589:9594   */\n      0x00\n        /* \"#utility.yul\":9614:9680   */\n      tag_281\n        /* \"#utility.yul\":9630:9679   */\n      tag_282\n        /* \"#utility.yul\":9672:9678   */\n      dup5\n        /* \"#utility.yul\":9630:9679   */\n      tag_160\n      jump\t// in\n    tag_282:\n        /* \"#utility.yul\":9614:9680   */\n      tag_154\n      jump\t// in\n    tag_281:\n        /* \"#utility.yul\":9605:9680   */\n      swap1\n      pop\n        /* \"#utility.yul\":9703:9709   */\n      dup3\n        /* \"#utility.yul\":9696:9701   */\n      dup2\n        /* \"#utility.yul\":9689:9710   */\n      mstore\n        /* \"#utility.yul\":9741:9745   */\n      0x20\n        /* \"#utility.yul\":9734:9739   */\n      dup2\n        /* \"#utility.yul\":9730:9746   */\n      add\n        /* \"#utility.yul\":9779:9782   */\n      dup5\n        /* \"#utility.yul\":9770:9776   */\n      dup5\n        /* \"#utility.yul\":9765:9768   */\n      dup5\n        /* \"#utility.yul\":9761:9777   */\n      add\n        /* \"#utility.yul\":9758:9783   */\n      gt\n        /* \"#utility.yul\":9755:9867   */\n      iszero\n      tag_283\n      jumpi\n        /* \"#utility.yul\":9786:9865   */\n      tag_284\n      tag_159\n      jump\t// in\n    tag_284:\n        /* \"#utility.yul\":9755:9867   */\n    tag_283:\n        /* \"#utility.yul\":9876:9930   */\n      tag_285\n        /* \"#utility.yul\":9923:9929   */\n      dup5\n        /* \"#utility.yul\":9918:9921   */\n      dup3\n        /* \"#utility.yul\":9913:9916   */\n      dup6\n        /* \"#utility.yul\":9876:9930   */\n      tag_161\n      jump\t// in\n    tag_285:\n        /* \"#utility.yul\":9595:9936   */\n      pop\n        /* \"#utility.yul\":9511:9936   */\n      swap4\n      swap3\n      pop\n      pop\n      pop\n      jump\t// out\n        /* \"#utility.yul\":9956:10296   */\n    tag_163:\n        /* \"#utility.yul\":10012:10017   */\n      0x00\n        /* \"#utility.yul\":10061:10064   */\n      dup3\n        /* \"#utility.yul\":10054:10058   */\n      0x1f\n        /* \"#utility.yul\":10046:10052   */\n      dup4\n        /* \"#utility.yul\":10042:10059   */\n      add\n        /* \"#utility.yul\":10038:10065   */\n      slt\n        /* \"#utility.yul\":10028:10150   */\n      tag_287\n      jumpi\n        /* \"#utility.yul\":10069:10148   */\n      tag_288\n      tag_158\n      jump\t// in\n    tag_288:\n        /* \"#utility.yul\":10028:10150   */\n    tag_287:\n        /* \"#utility.yul\":10186:10192   */\n      dup2\n        /* \"#utility.yul\":10173:10193   */\n      calldataload\n        /* \"#utility.yul\":10211:10290   */\n      tag_289\n        /* \"#utility.yul\":10286:10289   */\n      dup5\n        /* \"#utility.yul\":10278:10284   */\n      dup3\n        /* \"#utility.yul\":10271:10275   */\n      0x20\n        /* \"#utility.yul\":10263:10269   */\n      dup7\n        /* \"#utility.yul\":10259:10276   */\n      add\n        /* \"#utility.yul\":10211:10290   */\n      tag_162\n      jump\t// in\n    tag_289:\n        /* \"#utility.yul\":10202:10290   */\n      swap2\n      pop\n        /* \"#utility.yul\":10018:10296   */\n      pop\n        /* \"#utility.yul\":9956:10296   */\n      swap3\n      swap2\n      pop\n      pop\n      jump\t// out\n        /* \"#utility.yul\":10302:10418   */\n    tag_164:\n        /* \"#utility.yul\":10372:10393   */\n      tag_291\n        /* \"#utility.yul\":10387:10392   */\n      dup2\n        /* \"#utility.yul\":10372:10393   */\n      tag_137\n      jump\t// in\n    tag_291:\n        /* \"#utility.yul\":10365:10370   */\n      dup2\n        /* \"#utility.yul\":10362:10394   */\n      eq\n        /* \"#utility.yul\":10352:10412   */\n      tag_292\n      jumpi\n        /* \"#utility.yul\":10408:10409   */\n      0x00\n        /* \"#utility.yul\":10405:10406   */\n      dup1\n        /* \"#utility.yul\":10398:10410   */\n      revert\n        /* \"#utility.yul\":10352:10412   */\n    tag_292:\n        /* \"#utility.yul\":10302:10418   */\n      pop\n      jump\t// out\n        /* \"#utility.yul\":10424:10557   */\n    tag_165:\n        /* \"#utility.yul\":10467:10472   */\n      0x00\n        /* \"#utility.yul\":10505:10511   */\n      dup2\n        /* \"#utility.yul\":10492:10512   */\n      calldataload\n        /* \"#utility.yul\":10483:10512   */\n      swap1\n      pop\n        /* \"#utility.yul\":10521:10551   */\n      tag_294\n        /* \"#utility.yul\":10545:10550   */\n      dup2\n        /* \"#utility.yul\":10521:10551   */\n      tag_164\n      jump\t// in\n    tag_294:\n        /* \"#utility.yul\":10424:10557   */\n      swap3\n      swap2\n      pop\n      pop\n      jump\t// out\n        /* \"#utility.yul\":10583:13352   */\n    tag_166:\n        /* \"#utility.yul\":10654:10659   */\n      0x00\n        /* \"#utility.yul\":10698:10704   */\n      0x0120\n        /* \"#utility.yul\":10686:10695   */\n      dup3\n        /* \"#utility.yul\":10681:10684   */\n      dup5\n        /* \"#utility.yul\":10677:10696   */\n      sub\n        /* \"#utility.yul\":10673:10705   */\n      slt\n        /* \"#utility.yul\":10670:10789   */\n      iszero\n      tag_296\n      jumpi\n        /* \"#utility.yul\":10708:10787   */\n      tag_297\n      tag_151\n      jump\t// in\n    tag_297:\n        /* \"#utility.yul\":10670:10789   */\n    tag_296:\n        /* \"#utility.yul\":10807:10830   */\n      tag_298\n        /* \"#utility.yul\":10823:10829   */\n      0x0120\n        /* \"#utility.yul\":10807:10830   */\n      tag_154\n      jump\t// in\n    tag_298:\n        /* \"#utility.yul\":10798:10830   */\n      swap1\n      pop\n        /* \"#utility.yul\":10896:10897   */\n      0x00\n        /* \"#utility.yul\":10936:10985   */\n      tag_299\n        /* \"#utility.yul\":10981:10984   */\n      dup5\n        /* \"#utility.yul\":10972:10978   */\n      dup3\n        /* \"#utility.yul\":10961:10970   */\n      dup6\n        /* \"#utility.yul\":10957:10979   */\n      add\n        /* \"#utility.yul\":10936:10985   */\n      tag_157\n      jump\t// in\n    tag_299:\n        /* \"#utility.yul\":10929:10933   */\n      0x00\n        /* \"#utility.yul\":10922:10927   */\n      dup4\n        /* \"#utility.yul\":10918:10934   */\n      add\n        /* \"#utility.yul\":10911:10986   */\n      mstore\n        /* \"#utility.yul\":10840:10997   */\n      pop\n        /* \"#utility.yul\":11091:11093   */\n      0x20\n        /* \"#utility.yul\":11080:11089   */\n      dup3\n        /* \"#utility.yul\":11076:11094   */\n      add\n        /* \"#utility.yul\":11063:11095   */\n      calldataload\n        /* \"#utility.yul\":11122:11140   */\n      0xffffffffffffffff\n        /* \"#utility.yul\":11114:11120   */\n      dup2\n        /* \"#utility.yul\":11111:11141   */\n      gt\n        /* \"#utility.yul\":11108:11225   */\n      iszero\n      tag_300\n      jumpi\n        /* \"#utility.yul\":11144:11223   */\n      tag_301\n      tag_155\n      jump\t// in\n    tag_301:\n        /* \"#utility.yul\":11108:11225   */\n    tag_300:\n        /* \"#utility.yul\":11264:11323   */\n      tag_302\n        /* \"#utility.yul\":11319:11322   */\n      dup5\n        /* \"#utility.yul\":11310:11316   */\n      dup3\n        /* \"#utility.yul\":11299:11308   */\n      dup6\n        /* \"#utility.yul\":11295:11317   */\n      add\n        /* \"#utility.yul\":11264:11323   */\n      tag_163\n      jump\t// in\n    tag_302:\n        /* \"#utility.yul\":11257:11261   */\n      0x20\n        /* \"#utility.yul\":11250:11255   */\n      dup4\n        /* \"#utility.yul\":11246:11262   */\n      add\n        /* \"#utility.yul\":11239:11324   */\n      mstore\n        /* \"#utility.yul\":11007:11335   */\n      pop\n        /* \"#utility.yul\":11422:11424   */\n      0x40\n        /* \"#utility.yul\":11411:11420   */\n      dup3\n        /* \"#utility.yul\":11407:11425   */\n      add\n        /* \"#utility.yul\":11394:11426   */\n      calldataload\n        /* \"#utility.yul\":11453:11471   */\n      0xffffffffffffffff\n        /* \"#utility.yul\":11445:11451   */\n      dup2\n        /* \"#utility.yul\":11442:11472   */\n      gt\n        /* \"#utility.yul\":11439:11556   */\n      iszero\n      tag_303\n      jumpi\n        /* \"#utility.yul\":11475:11554   */\n      tag_304\n      tag_155\n      jump\t// in\n    tag_304:\n        /* \"#utility.yul\":11439:11556   */\n    tag_303:\n        /* \"#utility.yul\":11595:11654   */\n      tag_305\n        /* \"#utility.yul\":11650:11653   */\n      dup5\n        /* \"#utility.yul\":11641:11647   */\n      dup3\n        /* \"#utility.yul\":11630:11639   */\n      dup6\n        /* \"#utility.yul\":11626:11648   */\n      add\n        /* \"#utility.yul\":11595:11654   */\n      tag_163\n      jump\t// in\n    tag_305:\n        /* \"#utility.yul\":11588:11592   */\n      0x40\n        /* \"#utility.yul\":11581:11586   */\n      dup4\n        /* \"#utility.yul\":11577:11593   */\n      add\n        /* \"#utility.yul\":11570:11655   */\n      mstore\n        /* \"#utility.yul\":11345:11666   */\n      pop\n        /* \"#utility.yul\":11757:11759   */\n      0x60\n        /* \"#utility.yul\":11746:11755   */\n      dup3\n        /* \"#utility.yul\":11742:11760   */\n      add\n        /* \"#utility.yul\":11729:11761   */\n      calldataload\n        /* \"#utility.yul\":11788:11806   */\n      0xffffffffffffffff\n        /* \"#utility.yul\":11780:11786   */\n      dup2\n        /* \"#utility.yul\":11777:11807   */\n      gt\n        /* \"#utility.yul\":11774:11891   */\n      iszero\n      tag_306\n      jumpi\n        /* \"#utility.yul\":11810:11889   */\n      tag_307\n      tag_155\n      jump\t// in\n    tag_307:\n        /* \"#utility.yul\":11774:11891   */\n    tag_306:\n        /* \"#utility.yul\":11930:11989   */\n      tag_308\n        /* \"#utility.yul\":11985:11988   */\n      dup5\n        /* \"#utility.yul\":11976:11982   */\n      dup3\n        /* \"#utility.yul\":11965:11974   */\n      dup6\n        /* \"#utility.yul\":11961:11983   */\n      add\n        /* \"#utility.yul\":11930:11989   */\n      tag_163\n      jump\t// in\n    tag_308:\n        /* \"#utility.yul\":11923:11927   */\n      0x60\n        /* \"#utility.yul\":11916:11921   */\n      dup4\n        /* \"#utility.yul\":11912:11928   */\n      add\n        /* \"#utility.yul\":11905:11990   */\n      mstore\n        /* \"#utility.yul\":11676:12001   */\n      pop\n        /* \"#utility.yul\":12089:12092   */\n      0x80\n        /* \"#utility.yul\":12078:12087   */\n      dup3\n        /* \"#utility.yul\":12074:12093   */\n      add\n        /* \"#utility.yul\":12061:12094   */\n      calldataload\n        /* \"#utility.yul\":12121:12139   */\n      0xffffffffffffffff\n        /* \"#utility.yul\":12113:12119   */\n      dup2\n        /* \"#utility.yul\":12110:12140   */\n      gt\n        /* \"#utility.yul\":12107:12224   */\n      iszero\n      tag_309\n      jumpi\n        /* \"#utility.yul\":12143:12222   */\n      tag_310\n      tag_155\n      jump\t// in\n    tag_310:\n        /* \"#utility.yul\":12107:12224   */\n    tag_309:\n        /* \"#utility.yul\":12263:12322   */\n      tag_311\n        /* \"#utility.yul\":12318:12321   */\n      dup5\n        /* \"#utility.yul\":12309:12315   */\n      dup3\n        /* \"#utility.yul\":12298:12307   */\n      dup6\n        /* \"#utility.yul\":12294:12316   */\n      add\n        /* \"#utility.yul\":12263:12322   */\n      tag_163\n      jump\t// in\n    tag_311:\n        /* \"#utility.yul\":12256:12260   */\n      0x80\n        /* \"#utility.yul\":12249:12254   */\n      dup4\n        /* \"#utility.yul\":12245:12261   */\n      add\n        /* \"#utility.yul\":12238:12323   */\n      mstore\n        /* \"#utility.yul\":12011:12334   */\n      pop\n        /* \"#utility.yul\":12425:12428   */\n      0xa0\n        /* \"#utility.yul\":12414:12423   */\n      dup3\n        /* \"#utility.yul\":12410:12429   */\n      add\n        /* \"#utility.yul\":12397:12430   */\n      calldataload\n        /* \"#utility.yul\":12457:12475   */\n      0xffffffffffffffff\n        /* \"#utility.yul\":12449:12455   */\n      dup2\n        /* \"#utility.yul\":12446:12476   */\n      gt\n        /* \"#utility.yul\":12443:12560   */\n      iszero\n      tag_312\n      jumpi\n        /* \"#utility.yul\":12479:12558   */\n      tag_313\n      tag_155\n      jump\t// in\n    tag_313:\n        /* \"#utility.yul\":12443:12560   */\n    tag_312:\n        /* \"#utility.yul\":12599:12658   */\n      tag_314\n        /* \"#utility.yul\":12654:12657   */\n      dup5\n        /* \"#utility.yul\":12645:12651   */\n      dup3\n        /* \"#utility.yul\":12634:12643   */\n      dup6\n        /* \"#utility.yul\":12630:12652   */\n      add\n        /* \"#utility.yul\":12599:12658   */\n      tag_163\n      jump\t// in\n    tag_314:\n        /* \"#utility.yul\":12592:12596   */\n      0xa0\n        /* \"#utility.yul\":12585:12590   */\n      dup4\n        /* \"#utility.yul\":12581:12597   */\n      add\n        /* \"#utility.yul\":12574:12659   */\n      mstore\n        /* \"#utility.yul\":12344:12670   */\n      pop\n        /* \"#utility.yul\":12733:12736   */\n      0xc0\n        /* \"#utility.yul\":12775:12824   */\n      tag_315\n        /* \"#utility.yul\":12820:12823   */\n      dup5\n        /* \"#utility.yul\":12811:12817   */\n      dup3\n        /* \"#utility.yul\":12800:12809   */\n      dup6\n        /* \"#utility.yul\":12796:12818   */\n      add\n        /* \"#utility.yul\":12775:12824   */\n      tag_157\n      jump\t// in\n    tag_315:\n        /* \"#utility.yul\":12768:12772   */\n      0xc0\n        /* \"#utility.yul\":12761:12766   */\n      dup4\n        /* \"#utility.yul\":12757:12773   */\n      add\n        /* \"#utility.yul\":12750:12825   */\n      mstore\n        /* \"#utility.yul\":12680:12836   */\n      pop\n        /* \"#utility.yul\":12929:12932   */\n      0xe0\n        /* \"#utility.yul\":12918:12927   */\n      dup3\n        /* \"#utility.yul\":12914:12933   */\n      add\n        /* \"#utility.yul\":12901:12934   */\n      calldataload\n        /* \"#utility.yul\":12961:12979   */\n      0xffffffffffffffff\n        /* \"#utility.yul\":12953:12959   */\n      dup2\n        /* \"#utility.yul\":12950:12980   */\n      gt\n        /* \"#utility.yul\":12947:13064   */\n      iszero\n      tag_316\n      jumpi\n        /* \"#utility.yul\":12983:13062   */\n      tag_317\n      tag_155\n      jump\t// in\n    tag_317:\n        /* \"#utility.yul\":12947:13064   */\n    tag_316:\n        /* \"#utility.yul\":13103:13162   */\n      tag_318\n        /* \"#utility.yul\":13158:13161   */\n      dup5\n        /* \"#utility.yul\":13149:13155   */\n      dup3\n        /* \"#utility.yul\":13138:13147   */\n      dup6\n        /* \"#utility.yul\":13134:13156   */\n      add\n        /* \"#utility.yul\":13103:13162   */\n      tag_163\n      jump\t// in\n    tag_318:\n        /* \"#utility.yul\":13096:13100   */\n      0xe0\n        /* \"#utility.yul\":13089:13094   */\n      dup4\n        /* \"#utility.yul\":13085:13101   */\n      add\n        /* \"#utility.yul\":13078:13163   */\n      mstore\n        /* \"#utility.yul\":12846:13174   */\n      pop\n        /* \"#utility.yul\":13243:13246   */\n      0x0100\n        /* \"#utility.yul\":13287:13333   */\n      tag_319\n        /* \"#utility.yul\":13329:13332   */\n      dup5\n        /* \"#utility.yul\":13320:13326   */\n      dup3\n        /* \"#utility.yul\":13309:13318   */\n      dup6\n        /* \"#utility.yul\":13305:13327   */\n      add\n        /* \"#utility.yul\":13287:13333   */\n      tag_165\n      jump\t// in\n    tag_319:\n        /* \"#utility.yul\":13278:13284   */\n      0x0100\n        /* \"#utility.yul\":13271:13276   */\n      dup4\n        /* \"#utility.yul\":13267:13285   */\n      add\n        /* \"#utility.yul\":13260:13334   */\n      mstore\n        /* \"#utility.yul\":13184:13345   */\n      pop\n        /* \"#utility.yul\":10583:13352   */\n      swap3\n      swap2\n      pop\n      pop\n      jump\t// out\n        /* \"#utility.yul\":13358:13891   */\n    tag_27:\n        /* \"#utility.yul\":13439:13445   */\n      0x00\n        /* \"#utility.yul\":13488:13490   */\n      0x20\n        /* \"#utility.yul\":13476:13485   */\n      dup3\n        /* \"#utility.yul\":13467:13474   */\n      dup5\n        /* \"#utility.yul\":13463:13486   */\n      sub\n        /* \"#utility.yul\":13459:13491   */\n      slt\n        /* \"#utility.yul\":13456:13575   */\n      iszero\n      tag_321\n      jumpi\n        /* \"#utility.yul\":13494:13573   */\n      tag_322\n      tag_144\n      jump\t// in\n    tag_322:\n        /* \"#utility.yul\":13456:13575   */\n    tag_321:\n        /* \"#utility.yul\":13642:13643   */\n      0x00\n        /* \"#utility.yul\":13631:13640   */\n      dup3\n        /* \"#utility.yul\":13627:13644   */\n      add\n        /* \"#utility.yul\":13614:13645   */\n      calldataload\n        /* \"#utility.yul\":13672:13690   */\n      0xffffffffffffffff\n        /* \"#utility.yul\":13664:13670   */\n      dup2\n        /* \"#utility.yul\":13661:13691   */\n      gt\n        /* \"#utility.yul\":13658:13775   */\n      iszero\n      tag_323\n      jumpi\n        /* \"#utility.yul\":13694:13773   */\n      tag_324\n      tag_145\n      jump\t// in\n    tag_324:\n        /* \"#utility.yul\":13658:13775   */\n    tag_323:\n        /* \"#utility.yul\":13799:13874   */\n      tag_325\n        /* \"#utility.yul\":13866:13873   */\n      dup5\n        /* \"#utility.yul\":13857:13863   */\n      dup3\n        /* \"#utility.yul\":13846:13855   */\n      dup6\n        /* \"#utility.yul\":13842:13864   */\n      add\n        /* \"#utility.yul\":13799:13874   */\n      tag_166\n      jump\t// in\n    tag_325:\n        /* \"#utility.yul\":13789:13874   */\n      swap2\n      pop\n        /* \"#utility.yul\":13585:13884   */\n      pop\n        /* \"#utility.yul\":13358:13891   */\n      swap3\n      swap2\n      pop\n      pop\n      jump\t// out\n        /* \"#utility.yul\":13897:14226   */\n    tag_31:\n        /* \"#utility.yul\":13956:13962   */\n      0x00\n        /* \"#utility.yul\":14005:14007   */\n      0x20\n        /* \"#utility.yul\":13993:14002   */\n      dup3\n        /* \"#utility.yul\":13984:13991   */\n      dup5\n        /* \"#utility.yul\":13980:14003   */\n      sub\n        /* \"#utility.yul\":13976:14008   */\n      slt\n        /* \"#utility.yul\":13973:14092   */\n      iszero\n      tag_327\n      jumpi\n        /* \"#utility.yul\":14011:14090   */\n      tag_328\n      tag_144\n      jump\t// in\n    tag_328:\n        /* \"#utility.yul\":13973:14092   */\n    tag_327:\n        /* \"#utility.yul\":14131:14132   */\n      0x00\n        /* \"#utility.yul\":14156:14209   */\n      tag_329\n        /* \"#utility.yul\":14201:14208   */\n      dup5\n        /* \"#utility.yul\":14192:14198   */\n      dup3\n        /* \"#utility.yul\":14181:14190   */\n      dup6\n        /* \"#utility.yul\":14177:14199   */\n      add\n        /* \"#utility.yul\":14156:14209   */\n      tag_157\n      jump\t// in\n    tag_329:\n        /* \"#utility.yul\":14146:14209   */\n      swap2\n      pop\n        /* \"#utility.yul\":14102:14219   */\n      pop\n        /* \"#utility.yul\":13897:14226   */\n      swap3\n      swap2\n      pop\n      pop\n      jump\t// out\n        /* \"#utility.yul\":14232:14401   */\n    tag_167:\n        /* \"#utility.yul\":14316:14327   */\n      0x00\n        /* \"#utility.yul\":14350:14356   */\n      dup3\n        /* \"#utility.yul\":14345:14348   */\n      dup3\n        /* \"#utility.yul\":14338:14357   */\n      mstore\n        /* \"#utility.yul\":14390:14394   */\n      0x20\n        /* \"#utility.yul\":14385:14388   */\n      dup3\n        /* \"#utility.yul\":14381:14395   */\n      add\n        /* \"#utility.yul\":14366:14395   */\n      swap1\n      pop\n        /* \"#utility.yul\":14232:14401   */\n      swap3\n      swap2\n      pop\n      pop\n      jump\t// out\n        /* \"#utility.yul\":14407:14640   */\n    tag_168:\n        /* \"#utility.yul\":14547:14581   */\n      0x537465703144617461626173653a206f6e6c7920636f6e747261637420776869\n        /* \"#utility.yul\":14543:14544   */\n      0x00\n        /* \"#utility.yul\":14535:14541   */\n      dup3\n        /* \"#utility.yul\":14531:14545   */\n      add\n        /* \"#utility.yul\":14524:14582   */\n      mstore\n        /* \"#utility.yul\":14616:14632   */\n      0x63682061726520616c6c6f776564000000000000000000000000000000000000\n        /* \"#utility.yul\":14611:14613   */\n      0x20\n        /* \"#utility.yul\":14603:14609   */\n      dup3\n        /* \"#utility.yul\":14599:14614   */\n      add\n        /* \"#utility.yul\":14592:14633   */\n      mstore\n        /* \"#utility.yul\":14407:14640   */\n      pop\n      jump\t// out\n        /* \"#utility.yul\":14646:15012   */\n    tag_169:\n        /* \"#utility.yul\":14788:14791   */\n      0x00\n        /* \"#utility.yul\":14809:14876   */\n      tag_333\n        /* \"#utility.yul\":14873:14875   */\n      0x2e\n        /* \"#utility.yul\":14868:14871   */\n      dup4\n        /* \"#utility.yul\":14809:14876   */\n      tag_167\n      jump\t// in\n    tag_333:\n        /* \"#utility.yul\":14802:14876   */\n      swap2\n      pop\n        /* \"#utility.yul\":14885:14978   */\n      tag_334\n        /* \"#utility.yul\":14974:14977   */\n      dup3\n        /* \"#utility.yul\":14885:14978   */\n      tag_168\n      jump\t// in\n    tag_334:\n        /* \"#utility.yul\":15003:15005   */\n      0x40\n        /* \"#utility.yul\":14998:15001   */\n      dup3\n        /* \"#utility.yul\":14994:15006   */\n      add\n        /* \"#utility.yul\":14987:15006   */\n      swap1\n      pop\n        /* \"#utility.yul\":14646:15012   */\n      swap2\n      swap1\n      pop\n      jump\t// out\n        /* \"#utility.yul\":15018:15437   */\n    tag_41:\n        /* \"#utility.yul\":15184:15188   */\n      0x00\n        /* \"#utility.yul\":15222:15224   */\n      0x20\n        /* \"#utility.yul\":15211:15220   */\n      dup3\n        /* \"#utility.yul\":15207:15225   */\n      add\n        /* \"#utility.yul\":15199:15225   */\n      swap1\n      pop\n        /* \"#utility.yul\":15271:15280   */\n      dup2\n        /* \"#utility.yul\":15265:15269   */\n      dup2\n        /* \"#utility.yul\":15261:15281   */\n      sub\n        /* \"#utility.yul\":15257:15258   */\n      0x00\n        /* \"#utility.yul\":15246:15255   */\n      dup4\n        /* \"#utility.yul\":15242:15259   */\n      add\n        /* \"#utility.yul\":15235:15282   */\n      mstore\n        /* \"#utility.yul\":15299:15430   */\n      tag_336\n        /* \"#utility.yul\":15425:15429   */\n      dup2\n        /* \"#utility.yul\":15299:15430   */\n      tag_169\n      jump\t// in\n    tag_336:\n        /* \"#utility.yul\":15291:15430   */\n      swap1\n      pop\n        /* \"#utility.yul\":15018:15437   */\n      swap2\n      swap1\n      pop\n      jump\t// out\n        /* \"#utility.yul\":15443:15623   */\n    tag_170:\n        /* \"#utility.yul\":15491:15568   */\n      0x4e487b7100000000000000000000000000000000000000000000000000000000\n        /* \"#utility.yul\":15488:15489   */\n      0x00\n        /* \"#utility.yul\":15481:15569   */\n      mstore\n        /* \"#utility.yul\":15588:15592   */\n      0x22\n        /* \"#utility.yul\":15585:15586   */\n      0x04\n        /* \"#utility.yul\":15578:15593   */\n      mstore\n        /* \"#utility.yul\":15612:15616   */\n      0x24\n        /* \"#utility.yul\":15609:15610   */\n      0x00\n        /* \"#utility.yul\":15602:15617   */\n      revert\n        /* \"#utility.yul\":15629:15949   */\n    tag_47:\n        /* \"#utility.yul\":15673:15679   */\n      0x00\n        /* \"#utility.yul\":15710:15711   */\n      0x02\n        /* \"#utility.yul\":15704:15708   */\n      dup3\n        /* \"#utility.yul\":15700:15712   */\n      div\n        /* \"#utility.yul\":15690:15712   */\n      swap1\n      pop\n        /* \"#utility.yul\":15757:15758   */\n      0x01\n        /* \"#utility.yul\":15751:15755   */\n      dup3\n        /* \"#utility.yul\":15747:15759   */\n      and\n        /* \"#utility.yul\":15778:15796   */\n      dup1\n        /* \"#utility.yul\":15768:15849   */\n      tag_339\n      jumpi\n        /* \"#utility.yul\":15834:15838   */\n      0x7f\n        /* \"#utility.yul\":15826:15832   */\n      dup3\n        /* \"#utility.yul\":15822:15839   */\n      and\n        /* \"#utility.yul\":15812:15839   */\n      swap2\n      pop\n        /* \"#utility.yul\":15768:15849   */\n    tag_339:\n        /* \"#utility.yul\":15896:15898   */\n      0x20\n        /* \"#utility.yul\":15888:15894   */\n      dup3\n        /* \"#utility.yul\":15885:15899   */\n      lt\n        /* \"#utility.yul\":15865:15883   */\n      dup2\n        /* \"#utility.yul\":15862:15900   */\n      sub\n        /* \"#utility.yul\":15859:15943   */\n      tag_340\n      jumpi\n        /* \"#utility.yul\":15915:15933   */\n      tag_341\n      tag_170\n      jump\t// in\n    tag_341:\n        /* \"#utility.yul\":15859:15943   */\n    tag_340:\n        /* \"#utility.yul\":15680:15949   */\n      pop\n        /* \"#utility.yul\":15629:15949   */\n      swap2\n      swap1\n      pop\n      jump\t// out\n        /* \"#utility.yul\":15955:16184   */\n    tag_171:\n        /* \"#utility.yul\":16095:16129   */\n      0x537465703144617461626173653a207065726d697373696f6e20686173206265\n        /* \"#utility.yul\":16091:16092   */\n      0x00\n        /* \"#utility.yul\":16083:16089   */\n      dup3\n        /* \"#utility.yul\":16079:16093   */\n      add\n        /* \"#utility.yul\":16072:16130   */\n      mstore\n        /* \"#utility.yul\":16164:16176   */\n      0x656e206772616e74656400000000000000000000000000000000000000000000\n        /* \"#utility.yul\":16159:16161   */\n      0x20\n        /* \"#utility.yul\":16151:16157   */\n      dup3\n        /* \"#utility.yul\":16147:16162   */\n      add\n        /* \"#utility.yul\":16140:16177   */\n      mstore\n        /* \"#utility.yul\":15955:16184   */\n      pop\n      jump\t// out\n        /* \"#utility.yul\":16190:16556   */\n    tag_172:\n        /* \"#utility.yul\":16332:16335   */\n      0x00\n        /* \"#utility.yul\":16353:16420   */\n      tag_344\n        /* \"#utility.yul\":16417:16419   */\n      0x2a\n        /* \"#utility.yul\":16412:16415   */\n      dup4\n        /* \"#utility.yul\":16353:16420   */\n      tag_167\n      jump\t// in\n    tag_344:\n        /* \"#utility.yul\":16346:16420   */\n      swap2\n      pop\n        /* \"#utility.yul\":16429:16522   */\n      tag_345\n        /* \"#utility.yul\":16518:16521   */\n      dup3\n        /* \"#utility.yul\":16429:16522   */\n      tag_171\n      jump\t// in\n    tag_345:\n        /* \"#utility.yul\":16547:16549   */\n      0x40\n        /* \"#utility.yul\":16542:16545   */\n      dup3\n        /* \"#utility.yul\":16538:16550   */\n      add\n        /* \"#utility.yul\":16531:16550   */\n      swap1\n      pop\n        /* \"#utility.yul\":16190:16556   */\n      swap2\n      swap1\n      pop\n      jump\t// out\n        /* \"#utility.yul\":16562:16981   */\n    tag_83:\n        /* \"#utility.yul\":16728:16732   */\n      0x00\n        /* \"#utility.yul\":16766:16768   */\n      0x20\n        /* \"#utility.yul\":16755:16764   */\n      dup3\n        /* \"#utility.yul\":16751:16769   */\n      add\n        /* \"#utility.yul\":16743:16769   */\n      swap1\n      pop\n        /* \"#utility.yul\":16815:16824   */\n      dup2\n        /* \"#utility.yul\":16809:16813   */\n      dup2\n        /* \"#utility.yul\":16805:16825   */\n      sub\n        /* \"#utility.yul\":16801:16802   */\n      0x00\n        /* \"#utility.yul\":16790:16799   */\n      dup4\n        /* \"#utility.yul\":16786:16803   */\n      add\n        /* \"#utility.yul\":16779:16826   */\n      mstore\n        /* \"#utility.yul\":16843:16974   */\n      tag_347\n        /* \"#utility.yul\":16969:16973   */\n      dup2\n        /* \"#utility.yul\":16843:16974   */\n      tag_172\n      jump\t// in\n    tag_347:\n        /* \"#utility.yul\":16835:16974   */\n      swap1\n      pop\n        /* \"#utility.yul\":16562:16981   */\n      swap2\n      swap1\n      pop\n      jump\t// out\n        /* \"#utility.yul\":16987:17167   */\n    tag_173:\n        /* \"#utility.yul\":17035:17112   */\n      0x4e487b7100000000000000000000000000000000000000000000000000000000\n        /* \"#utility.yul\":17032:17033   */\n      0x00\n        /* \"#utility.yul\":17025:17113   */\n      mstore\n        /* \"#utility.yul\":17132:17136   */\n      0x11\n        /* \"#utility.yul\":17129:17130   */\n      0x04\n        /* \"#utility.yul\":17122:17137   */\n      mstore\n        /* \"#utility.yul\":17156:17160   */\n      0x24\n        /* \"#utility.yul\":17153:17154   */\n      0x00\n        /* \"#utility.yul\":17146:17161   */\n      revert\n        /* \"#utility.yul\":17173:17406   */\n    tag_94:\n        /* \"#utility.yul\":17212:17215   */\n      0x00\n        /* \"#utility.yul\":17235:17259   */\n      tag_350\n        /* \"#utility.yul\":17253:17258   */\n      dup3\n        /* \"#utility.yul\":17235:17259   */\n      tag_130\n      jump\t// in\n    tag_350:\n        /* \"#utility.yul\":17226:17259   */\n      swap2\n      pop\n        /* \"#utility.yul\":17281:17347   */\n      0xffffffffffffffffffffffffffffffffffffffffffffffffffffffffffffffff\n        /* \"#utility.yul\":17274:17279   */\n      dup3\n        /* \"#utility.yul\":17271:17348   */\n      sub\n        /* \"#utility.yul\":17268:17371   */\n      tag_351\n      jumpi\n        /* \"#utility.yul\":17351:17369   */\n      tag_352\n      tag_173\n      jump\t// in\n    tag_352:\n        /* \"#utility.yul\":17268:17371   */\n    tag_351:\n        /* \"#utility.yul\":17398:17399   */\n      0x01\n        /* \"#utility.yul\":17391:17396   */\n      dup3\n        /* \"#utility.yul\":17387:17400   */\n      add\n        /* \"#utility.yul\":17380:17400   */\n      swap1\n      pop\n        /* \"#utility.yul\":17173:17406   */\n      swap2\n      swap1\n      pop\n      jump\t// out\n        /* \"#utility.yul\":17412:17553   */\n    tag_174:\n        /* \"#utility.yul\":17461:17465   */\n      0x00\n        /* \"#utility.yul\":17484:17487   */\n      dup2\n        /* \"#utility.yul\":17476:17487   */\n      swap1\n      pop\n        /* \"#utility.yul\":17507:17510   */\n      dup2\n        /* \"#utility.yul\":17504:17505   */\n      0x00\n        /* \"#utility.yul\":17497:17511   */\n      mstore\n        /* \"#utility.yul\":17541:17545   */\n      0x20\n        /* \"#utility.yul\":17538:17539   */\n      0x00\n        /* \"#utility.yul\":17528:17546   */\n      keccak256\n        /* \"#utility.yul\":17520:17546   */\n      swap1\n      pop\n        /* \"#utility.yul\":17412:17553   */\n      swap2\n      swap1\n      pop\n      jump\t// out\n        /* \"#utility.yul\":17559:17652   */\n    tag_175:\n        /* \"#utility.yul\":17596:17602   */\n      0x00\n        /* \"#utility.yul\":17643:17645   */\n      0x20\n        /* \"#utility.yul\":17638:17640   */\n      0x1f\n        /* \"#utility.yul\":17631:17636   */\n      dup4\n        /* \"#utility.yul\":17627:17641   */\n      add\n        /* \"#utility.yul\":17623:17646   */\n      div\n        /* \"#utility.yul\":17613:17646   */\n      swap1\n      pop\n        /* \"#utility.yul\":17559:17652   */\n      swap2\n      swap1\n      pop\n      jump\t// out\n        /* \"#utility.yul\":17658:17765   */\n    tag_176:\n        /* \"#utility.yul\":17702:17710   */\n      0x00\n        /* \"#utility.yul\":17752:17757   */\n      dup3\n        /* \"#utility.yul\":17746:17750   */\n      dup3\n        /* \"#utility.yul\":17742:17758   */\n      shl\n        /* \"#utility.yul\":17721:17758   */\n      swap1\n      pop\n        /* \"#utility.yul\":17658:17765   */\n      swap3\n      swap2\n      pop\n      pop\n      jump\t// out\n        /* \"#utility.yul\":17771:18164   */\n    tag_177:\n        /* \"#utility.yul\":17840:17846   */\n      0x00\n        /* \"#utility.yul\":17890:17891   */\n      0x08\n        /* \"#utility.yul\":17878:17888   */\n      dup4\n        /* \"#utility.yul\":17874:17892   */\n      mul\n        /* \"#utility.yul\":17913:18010   */\n      tag_357\n        /* \"#utility.yul\":17943:18009   */\n      0xffffffffffffffffffffffffffffffffffffffffffffffffffffffffffffffff\n        /* \"#utility.yul\":17932:17941   */\n      dup3\n        /* \"#utility.yul\":17913:18010   */\n      tag_176\n      jump\t// in\n    tag_357:\n        /* \"#utility.yul\":18031:18070   */\n      tag_358\n        /* \"#utility.yul\":18061:18069   */\n      dup7\n        /* \"#utility.yul\":18050:18059   */\n      dup4\n        /* \"#utility.yul\":18031:18070   */\n      tag_176\n      jump\t// in\n    tag_358:\n        /* \"#utility.yul\":18019:18070   */\n      swap6\n      pop\n        /* \"#utility.yul\":18103:18107   */\n      dup1\n        /* \"#utility.yul\":18099:18108   */\n      not\n        /* \"#utility.yul\":18092:18097   */\n      dup5\n        /* \"#utility.yul\":18088:18109   */\n      and\n        /* \"#utility.yul\":18079:18109   */\n      swap4\n      pop\n        /* \"#utility.yul\":18152:18156   */\n      dup1\n        /* \"#utility.yul\":18142:18150   */\n      dup7\n        /* \"#utility.yul\":18138:18157   */\n      and\n        /* \"#utility.yul\":18131:18136   */\n      dup5\n        /* \"#utility.yul\":18128:18158   */\n      or\n        /* \"#utility.yul\":18118:18158   */\n      swap3\n      pop\n        /* \"#utility.yul\":17847:18164   */\n      pop\n      pop\n        /* \"#utility.yul\":17771:18164   */\n      swap4\n      swap3\n      pop\n      pop\n      pop\n      jump\t// out\n        /* \"#utility.yul\":18170:18230   */\n    tag_178:\n        /* \"#utility.yul\":18198:18201   */\n      0x00\n        /* \"#utility.yul\":18219:18224   */\n      dup2\n        /* \"#utility.yul\":18212:18224   */\n      swap1\n      pop\n        /* \"#utility.yul\":18170:18230   */\n      swap2\n      swap1\n      pop\n      jump\t// out\n        /* \"#utility.yul\":18236:18378   */\n    tag_179:\n        /* \"#utility.yul\":18286:18295   */\n      0x00\n        /* \"#utility.yul\":18319:18372   */\n      tag_361\n        /* \"#utility.yul\":18337:18371   */\n      tag_362\n        /* \"#utility.yul\":18346:18370   */\n      tag_363\n        /* \"#utility.yul\":18364:18369   */\n      dup5\n        /* \"#utility.yul\":18346:18370   */\n      tag_130\n      jump\t// in\n    tag_363:\n        /* \"#utility.yul\":18337:18371   */\n      tag_178\n      jump\t// in\n    tag_362:\n        /* \"#utility.yul\":18319:18372   */\n      tag_130\n      jump\t// in\n    tag_361:\n        /* \"#utility.yul\":18306:18372   */\n      swap1\n      pop\n        /* \"#utility.yul\":18236:18378   */\n      swap2\n      swap1\n      pop\n      jump\t// out\n        /* \"#utility.yul\":18384:18459   */\n    tag_180:\n        /* \"#utility.yul\":18427:18430   */\n      0x00\n        /* \"#utility.yul\":18448:18453   */\n      dup2\n        /* \"#utility.yul\":18441:18453   */\n      swap1\n      pop\n        /* \"#utility.yul\":18384:18459   */\n      swap2\n      swap1\n      pop\n      jump\t// out\n        /* \"#utility.yul\":18465:18734   */\n    tag_181:\n        /* \"#utility.yul\":18575:18614   */\n      tag_366\n        /* \"#utility.yul\":18606:18613   */\n      dup4\n        /* \"#utility.yul\":18575:18614   */\n      tag_179\n      jump\t// in\n    tag_366:\n        /* \"#utility.yul\":18636:18727   */\n      tag_367\n        /* \"#utility.yul\":18685:18726   */\n      tag_368\n        /* \"#utility.yul\":18709:18725   */\n      dup3\n        /* \"#utility.yul\":18685:18726   */\n      tag_180\n      jump\t// in\n    tag_368:\n        /* \"#utility.yul\":18677:18683   */\n      dup5\n        /* \"#utility.yul\":18670:18674   */\n      dup5\n        /* \"#utility.yul\":18664:18675   */\n      sload\n        /* \"#utility.yul\":18636:18727   */\n      tag_177\n      jump\t// in\n    tag_367:\n        /* \"#utility.yul\":18630:18634   */\n      dup3\n        /* \"#utility.yul\":18623:18728   */\n      sstore\n        /* \"#utility.yul\":18541:18734   */\n      pop\n        /* \"#utility.yul\":18465:18734   */\n      pop\n      pop\n      pop\n      jump\t// out\n        /* \"#utility.yul\":18740:18813   */\n    tag_182:\n        /* \"#utility.yul\":18785:18788   */\n      0x00\n        /* \"#utility.yul\":18740:18813   */\n      swap1\n      jump\t// out\n        /* \"#utility.yul\":18819:19008   */\n    tag_183:\n        /* \"#utility.yul\":18896:18928   */\n      tag_371\n      tag_182\n      jump\t// in\n    tag_371:\n        /* \"#utility.yul\":18937:19002   */\n      tag_372\n        /* \"#utility.yul\":18995:19001   */\n      dup2\n        /* \"#utility.yul\":18987:18993   */\n      dup5\n        /* \"#utility.yul\":18981:18985   */\n      dup5\n        /* \"#utility.yul\":18937:19002   */\n      tag_181\n      jump\t// in\n    tag_372:\n        /* \"#utility.yul\":18872:19008   */\n      pop\n        /* \"#utility.yul\":18819:19008   */\n      pop\n      pop\n      jump\t// out\n        /* \"#utility.yul\":19014:19200   */\n    tag_184:\n        /* \"#utility.yul\":19074:19194   */\n    tag_374:\n        /* \"#utility.yul\":19091:19094   */\n      dup2\n        /* \"#utility.yul\":19084:19089   */\n      dup2\n        /* \"#utility.yul\":19081:19095   */\n      lt\n        /* \"#utility.yul\":19074:19194   */\n      iszero\n      tag_376\n      jumpi\n        /* \"#utility.yul\":19145:19184   */\n      tag_377\n        /* \"#utility.yul\":19182:19183   */\n      0x00\n        /* \"#utility.yul\":19175:19180   */\n      dup3\n        /* \"#utility.yul\":19145:19184   */\n      tag_183\n      jump\t// in\n    tag_377:\n        /* \"#utility.yul\":19118:19119   */\n      0x01\n        /* \"#utility.yul\":19111:19116   */\n      dup2\n        /* \"#utility.yul\":19107:19120   */\n      add\n        /* \"#utility.yul\":19098:19120   */\n      swap1\n      pop\n        /* \"#utility.yul\":19074:19194   */\n      jump(tag_374)\n    tag_376:\n        /* \"#utility.yul\":19014:19200   */\n      pop\n      pop\n      jump\t// out\n        /* \"#utility.yul\":19206:19749   */\n    tag_185:\n        /* \"#utility.yul\":19307:19309   */\n      0x1f\n        /* \"#utility.yul\":19302:19305   */\n      dup3\n        /* \"#utility.yul\":19299:19310   */\n      gt\n        /* \"#utility.yul\":19296:19742   */\n      iszero\n      tag_379\n      jumpi\n        /* \"#utility.yul\":19341:19379   */\n      tag_380\n        /* \"#utility.yul\":19373:19378   */\n      dup2\n        /* \"#utility.yul\":19341:19379   */\n      tag_174\n      jump\t// in\n    tag_380:\n        /* \"#utility.yul\":19425:19454   */\n      tag_381\n        /* \"#utility.yul\":19443:19453   */\n      dup5\n        /* \"#utility.yul\":19425:19454   */\n      tag_175\n      jump\t// in\n    tag_381:\n        /* \"#utility.yul\":19415:19423   */\n      dup2\n        /* \"#utility.yul\":19411:19455   */\n      add\n        /* \"#utility.yul\":19608:19610   */\n      0x20\n        /* \"#utility.yul\":19596:19606   */\n      dup6\n        /* \"#utility.yul\":19593:19611   */\n      lt\n        /* \"#utility.yul\":19590:19639   */\n      iszero\n      tag_382\n      jumpi\n        /* \"#utility.yul\":19629:19637   */\n      dup2\n        /* \"#utility.yul\":19614:19637   */\n      swap1\n      pop\n        /* \"#utility.yul\":19590:19639   */\n    tag_382:\n        /* \"#utility.yul\":19652:19732   */\n      tag_383\n        /* \"#utility.yul\":19708:19730   */\n      tag_384\n        /* \"#utility.yul\":19726:19729   */\n      dup6\n        /* \"#utility.yul\":19708:19730   */\n      tag_175\n      jump\t// in\n    tag_384:\n        /* \"#utility.yul\":19698:19706   */\n      dup4\n        /* \"#utility.yul\":19694:19731   */\n      add\n        /* \"#utility.yul\":19681:19692   */\n      dup3\n        /* \"#utility.yul\":19652:19732   */\n      tag_184\n      jump\t// in\n    tag_383:\n        /* \"#utility.yul\":19311:19742   */\n      pop\n      pop\n        /* \"#utility.yul\":19296:19742   */\n    tag_379:\n        /* \"#utility.yul\":19206:19749   */\n      pop\n      pop\n      pop\n      jump\t// out\n        /* \"#utility.yul\":19755:19872   */\n    tag_186:\n        /* \"#utility.yul\":19809:19817   */\n      0x00\n        /* \"#utility.yul\":19859:19864   */\n      dup3\n        /* \"#utility.yul\":19853:19857   */\n      dup3\n        /* \"#utility.yul\":19849:19865   */\n      shr\n        /* \"#utility.yul\":19828:19865   */\n      swap1\n      pop\n        /* \"#utility.yul\":19755:19872   */\n      swap3\n      swap2\n      pop\n      pop\n      jump\t// out\n        /* \"#utility.yul\":19878:20047   */\n    tag_187:\n        /* \"#utility.yul\":19922:19928   */\n      0x00\n        /* \"#utility.yul\":19955:20006   */\n      tag_387\n        /* \"#utility.yul\":20003:20004   */\n      0x00\n        /* \"#utility.yul\":19999:20005   */\n      not\n        /* \"#utility.yul\":19991:19996   */\n      dup5\n        /* \"#utility.yul\":19988:19989   */\n      0x08\n        /* \"#utility.yul\":19984:19997   */\n      mul\n        /* \"#utility.yul\":19955:20006   */\n      tag_186\n      jump\t// in\n    tag_387:\n        /* \"#utility.yul\":19951:20007   */\n      not\n        /* \"#utility.yul\":20036:20040   */\n      dup1\n        /* \"#utility.yul\":20030:20034   */\n      dup4\n        /* \"#utility.yul\":20026:20041   */\n      and\n        /* \"#utility.yul\":20016:20041   */\n      swap2\n      pop\n        /* \"#utility.yul\":19929:20047   */\n      pop\n        /* \"#utility.yul\":19878:20047   */\n      swap3\n      swap2\n      pop\n      pop\n      jump\t// out\n        /* \"#utility.yul\":20052:20347   */\n    tag_188:\n        /* \"#utility.yul\":20128:20132   */\n      0x00\n        /* \"#utility.yul\":20274:20303   */\n      tag_389\n        /* \"#utility.yul\":20299:20302   */\n      dup4\n        /* \"#utility.yul\":20293:20297   */\n      dup4\n        /* \"#utility.yul\":20274:20303   */\n      tag_187\n      jump\t// in\n    tag_389:\n        /* \"#utility.yul\":20266:20303   */\n      swap2\n      pop\n        /* \"#utility.yul\":20336:20339   */\n      dup3\n        /* \"#utility.yul\":20333:20334   */\n      0x02\n        /* \"#utility.yul\":20329:20340   */\n      mul\n        /* \"#utility.yul\":20323:20327   */\n      dup3\n        /* \"#utility.yul\":20320:20341   */\n      or\n        /* \"#utility.yul\":20312:20341   */\n      swap1\n      pop\n        /* \"#utility.yul\":20052:20347   */\n      swap3\n      swap2\n      pop\n      pop\n      jump\t// out\n        /* \"#utility.yul\":20352:21747   */\n    tag_97:\n        /* \"#utility.yul\":20469:20506   */\n      tag_391\n        /* \"#utility.yul\":20502:20505   */\n      dup3\n        /* \"#utility.yul\":20469:20506   */\n      tag_132\n      jump\t// in\n    tag_391:\n        /* \"#utility.yul\":20571:20589   */\n      0xffffffffffffffff\n        /* \"#utility.yul\":20563:20569   */\n      dup2\n        /* \"#utility.yul\":20560:20590   */\n      gt\n        /* \"#utility.yul\":20557:20613   */\n      iszero\n      tag_392\n      jumpi\n        /* \"#utility.yul\":20593:20611   */\n      tag_393\n      tag_152\n      jump\t// in\n    tag_393:\n        /* \"#utility.yul\":20557:20613   */\n    tag_392:\n        /* \"#utility.yul\":20637:20675   */\n      tag_394\n        /* \"#utility.yul\":20669:20673   */\n      dup3\n        /* \"#utility.yul\":20663:20674   */\n      sload\n        /* \"#utility.yul\":20637:20675   */\n      tag_47\n      jump\t// in\n    tag_394:\n        /* \"#utility.yul\":20722:20789   */\n      tag_395\n        /* \"#utility.yul\":20782:20788   */\n      dup3\n        /* \"#utility.yul\":20774:20780   */\n      dup3\n        /* \"#utility.yul\":20768:20772   */\n      dup6\n        /* \"#utility.yul\":20722:20789   */\n      tag_185\n      jump\t// in\n    tag_395:\n        /* \"#utility.yul\":20816:20817   */\n      0x00\n        /* \"#utility.yul\":20840:20844   */\n      0x20\n        /* \"#utility.yul\":20827:20844   */\n      swap1\n      pop\n        /* \"#utility.yul\":20872:20874   */\n      0x1f\n        /* \"#utility.yul\":20864:20870   */\n      dup4\n        /* \"#utility.yul\":20861:20875   */\n      gt\n        /* \"#utility.yul\":20889:20890   */\n      0x01\n        /* \"#utility.yul\":20884:21502   */\n      dup2\n      eq\n      tag_397\n      jumpi\n        /* \"#utility.yul\":21546:21547   */\n      0x00\n        /* \"#utility.yul\":21563:21569   */\n      dup5\n        /* \"#utility.yul\":21560:21637   */\n      iszero\n      tag_398\n      jumpi\n        /* \"#utility.yul\":21612:21621   */\n      dup3\n        /* \"#utility.yul\":21607:21610   */\n      dup8\n        /* \"#utility.yul\":21603:21622   */\n      add\n        /* \"#utility.yul\":21597:21623   */\n      mload\n        /* \"#utility.yul\":21588:21623   */\n      swap1\n      pop\n        /* \"#utility.yul\":21560:21637   */\n    tag_398:\n        /* \"#utility.yul\":21663:21730   */\n      tag_399\n        /* \"#utility.yul\":21723:21729   */\n      dup6\n        /* \"#utility.yul\":21716:21721   */\n      dup3\n        /* \"#utility.yul\":21663:21730   */\n      tag_188\n      jump\t// in\n    tag_399:\n        /* \"#utility.yul\":21657:21661   */\n      dup7\n        /* \"#utility.yul\":21650:21731   */\n      sstore\n        /* \"#utility.yul\":21519:21741   */\n      pop\n        /* \"#utility.yul\":20854:21741   */\n      jump(tag_396)\n        /* \"#utility.yul\":20884:21502   */\n    tag_397:\n        /* \"#utility.yul\":20936:20940   */\n      0x1f\n        /* \"#utility.yul\":20932:20941   */\n      not\n        /* \"#utility.yul\":20924:20930   */\n      dup5\n        /* \"#utility.yul\":20920:20942   */\n      and\n        /* \"#utility.yul\":20970:21007   */\n      tag_400\n        /* \"#utility.yul\":21002:21006   */\n      dup7\n        /* \"#utility.yul\":20970:21007   */\n      tag_174\n      jump\t// in\n    tag_400:\n        /* \"#utility.yul\":21029:21030   */\n      0x00\n        /* \"#utility.yul\":21043:21251   */\n    tag_401:\n        /* \"#utility.yul\":21057:21064   */\n      dup3\n        /* \"#utility.yul\":21054:21055   */\n      dup2\n        /* \"#utility.yul\":21051:21065   */\n      lt\n        /* \"#utility.yul\":21043:21251   */\n      iszero\n      tag_403\n      jumpi\n        /* \"#utility.yul\":21136:21145   */\n      dup5\n        /* \"#utility.yul\":21131:21134   */\n      dup10\n        /* \"#utility.yul\":21127:21146   */\n      add\n        /* \"#utility.yul\":21121:21147   */\n      mload\n        /* \"#utility.yul\":21113:21119   */\n      dup3\n        /* \"#utility.yul\":21106:21148   */\n      sstore\n        /* \"#utility.yul\":21187:21188   */\n      0x01\n        /* \"#utility.yul\":21179:21185   */\n      dup3\n        /* \"#utility.yul\":21175:21189   */\n      add\n        /* \"#utility.yul\":21165:21189   */\n      swap2\n      pop\n        /* \"#utility.yul\":21234:21236   */\n      0x20\n        /* \"#utility.yul\":21223:21232   */\n      dup6\n        /* \"#utility.yul\":21219:21237   */\n      add\n        /* \"#utility.yul\":21206:21237   */\n      swap5\n      pop\n        /* \"#utility.yul\":21080:21084   */\n      0x20\n        /* \"#utility.yul\":21077:21078   */\n      dup2\n        /* \"#utility.yul\":21073:21085   */\n      add\n        /* \"#utility.yul\":21068:21085   */\n      swap1\n      pop\n        /* \"#utility.yul\":21043:21251   */\n      jump(tag_401)\n    tag_403:\n        /* \"#utility.yul\":21279:21285   */\n      dup7\n        /* \"#utility.yul\":21270:21277   */\n      dup4\n        /* \"#utility.yul\":21267:21286   */\n      lt\n        /* \"#utility.yul\":21264:21443   */\n      iszero\n      tag_404\n      jumpi\n        /* \"#utility.yul\":21337:21346   */\n      dup5\n        /* \"#utility.yul\":21332:21335   */\n      dup10\n        /* \"#utility.yul\":21328:21347   */\n      add\n        /* \"#utility.yul\":21322:21348   */\n      mload\n        /* \"#utility.yul\":21380:21428   */\n      tag_405\n        /* \"#utility.yul\":21422:21426   */\n      0x1f\n        /* \"#utility.yul\":21414:21420   */\n      dup10\n        /* \"#utility.yul\":21410:21427   */\n      and\n        /* \"#utility.yul\":21399:21408   */\n      dup3\n        /* \"#utility.yul\":21380:21428   */\n      tag_187\n      jump\t// in\n    tag_405:\n        /* \"#utility.yul\":21372:21378   */\n      dup4\n        /* \"#utility.yul\":21365:21429   */\n      sstore\n        /* \"#utility.yul\":21287:21443   */\n      pop\n        /* \"#utility.yul\":21264:21443   */\n    tag_404:\n        /* \"#utility.yul\":21489:21490   */\n      0x01\n        /* \"#utility.yul\":21485:21486   */\n      0x02\n        /* \"#utility.yul\":21477:21483   */\n      dup9\n        /* \"#utility.yul\":21473:21487   */\n      mul\n        /* \"#utility.yul\":21469:21491   */\n      add\n        /* \"#utility.yul\":21463:21467   */\n      dup9\n        /* \"#utility.yul\":21456:21492   */\n      sstore\n        /* \"#utility.yul\":20891:21502   */\n      pop\n      pop\n      pop\n        /* \"#utility.yul\":20854:21741   */\n    tag_396:\n      pop\n        /* \"#utility.yul\":20444:21747   */\n      pop\n      pop\n      pop\n        /* \"#utility.yul\":20352:21747   */\n      pop\n      pop\n      jump\t// out\n        /* \"#utility.yul\":21753:21933   */\n    tag_110:\n        /* \"#utility.yul\":21801:21878   */\n      0x4e487b7100000000000000000000000000000000000000000000000000000000\n        /* \"#utility.yul\":21798:21799   */\n      0x00\n        /* \"#utility.yul\":21791:21879   */\n      mstore\n        /* \"#utility.yul\":21898:21902   */\n      0x32\n        /* \"#utility.yul\":21895:21896   */\n      0x04\n        /* \"#utility.yul\":21888:21903   */\n      mstore\n        /* \"#utility.yul\":21922:21926   */\n      0x24\n        /* \"#utility.yul\":21919:21920   */\n      0x00\n        /* \"#utility.yul\":21912:21927   */\n      revert\n        /* \"#utility.yul\":21939:22164   */\n    tag_189:\n        /* \"#utility.yul\":22079:22113   */\n      0x4f776e61626c653a206e6577206f776e657220697320746865207a65726f2061\n        /* \"#utility.yul\":22075:22076   */\n      0x00\n        /* \"#utility.yul\":22067:22073   */\n      dup3\n        /* \"#utility.yul\":22063:22077   */\n      add\n        /* \"#utility.yul\":22056:22114   */\n      mstore\n        /* \"#utility.yul\":22148:22156   */\n      0x6464726573730000000000000000000000000000000000000000000000000000\n        /* \"#utility.yul\":22143:22145   */\n      0x20\n        /* \"#utility.yul\":22135:22141   */\n      dup3\n        /* \"#utility.yul\":22131:22146   */\n      add\n        /* \"#utility.yul\":22124:22157   */\n      mstore\n        /* \"#utility.yul\":21939:22164   */\n      pop\n      jump\t// out\n        /* \"#utility.yul\":22170:22536   */\n    tag_190:\n        /* \"#utility.yul\":22312:22315   */\n      0x00\n        /* \"#utility.yul\":22333:22400   */\n      tag_409\n        /* \"#utility.yul\":22397:22399   */\n      0x26\n        /* \"#utility.yul\":22392:22395   */\n      dup4\n        /* \"#utility.yul\":22333:22400   */\n      tag_167\n      jump\t// in\n    tag_409:\n        /* \"#utility.yul\":22326:22400   */\n      swap2\n      pop\n        /* \"#utility.yul\":22409:22502   */\n      tag_410\n        /* \"#utility.yul\":22498:22501   */\n      dup3\n        /* \"#utility.yul\":22409:22502   */\n      tag_189\n      jump\t// in\n    tag_410:\n        /* \"#utility.yul\":22527:22529   */\n      0x40\n        /* \"#utility.yul\":22522:22525   */\n      dup3\n        /* \"#utility.yul\":22518:22530   */\n      add\n        /* \"#utility.yul\":22511:22530   */\n      swap1\n      pop\n        /* \"#utility.yul\":22170:22536   */\n      swap2\n      swap1\n      pop\n      jump\t// out\n        /* \"#utility.yul\":22542:22961   */\n    tag_117:\n        /* \"#utility.yul\":22708:22712   */\n      0x00\n        /* \"#utility.yul\":22746:22748   */\n      0x20\n        /* \"#utility.yul\":22735:22744   */\n      dup3\n        /* \"#utility.yul\":22731:22749   */\n      add\n        /* \"#utility.yul\":22723:22749   */\n      swap1\n      pop\n        /* \"#utility.yul\":22795:22804   */\n      dup2\n        /* \"#utility.yul\":22789:22793   */\n      dup2\n        /* \"#utility.yul\":22785:22805   */\n      sub\n        /* \"#utility.yul\":22781:22782   */\n      0x00\n        /* \"#utility.yul\":22770:22779   */\n      dup4\n        /* \"#utility.yul\":22766:22783   */\n      add\n        /* \"#utility.yul\":22759:22806   */\n      mstore\n        /* \"#utility.yul\":22823:22954   */\n      tag_412\n        /* \"#utility.yul\":22949:22953   */\n      dup2\n        /* \"#utility.yul\":22823:22954   */\n      tag_190\n      jump\t// in\n    tag_412:\n        /* \"#utility.yul\":22815:22954   */\n      swap1\n      pop\n        /* \"#utility.yul\":22542:22961   */\n      swap2\n      swap1\n      pop\n      jump\t// out\n        /* \"#utility.yul\":22967:23149   */\n    tag_191:\n        /* \"#utility.yul\":23107:23141   */\n      0x4f776e61626c653a2063616c6c6572206973206e6f7420746865206f776e6572\n        /* \"#utility.yul\":23103:23104   */\n      0x00\n        /* \"#utility.yul\":23095:23101   */\n      dup3\n        /* \"#utility.yul\":23091:23105   */\n      add\n        /* \"#utility.yul\":23084:23142   */\n      mstore\n        /* \"#utility.yul\":22967:23149   */\n      pop\n      jump\t// out\n        /* \"#utility.yul\":23155:23521   */\n    tag_192:\n        /* \"#utility.yul\":23297:23300   */\n      0x00\n        /* \"#utility.yul\":23318:23385   */\n      tag_415\n        /* \"#utility.yul\":23382:23384   */\n      0x20\n        /* \"#utility.yul\":23377:23380   */\n      dup4\n        /* \"#utility.yul\":23318:23385   */\n      tag_167\n      jump\t// in\n    tag_415:\n        /* \"#utility.yul\":23311:23385   */\n      swap2\n      pop\n        /* \"#utility.yul\":23394:23487   */\n      tag_416\n        /* \"#utility.yul\":23483:23486   */\n      dup3\n        /* \"#utility.yul\":23394:23487   */\n      tag_191\n      jump\t// in\n    tag_416:\n        /* \"#utility.yul\":23512:23514   */\n      0x20\n        /* \"#utility.yul\":23507:23510   */\n      dup3\n        /* \"#utility.yul\":23503:23515   */\n      add\n        /* \"#utility.yul\":23496:23515   */\n      swap1\n      pop\n        /* \"#utility.yul\":23155:23521   */\n      swap2\n      swap1\n      pop\n      jump\t// out\n        /* \"#utility.yul\":23527:23946   */\n    tag_125:\n        /* \"#utility.yul\":23693:23697   */\n      0x00\n        /* \"#utility.yul\":23731:23733   */\n      0x20\n        /* \"#utility.yul\":23720:23729   */\n      dup3\n        /* \"#utility.yul\":23716:23734   */\n      add\n        /* \"#utility.yul\":23708:23734   */\n      swap1\n      pop\n        /* \"#utility.yul\":23780:23789   */\n      dup2\n        /* \"#utility.yul\":23774:23778   */\n      dup2\n        /* \"#utility.yul\":23770:23790   */\n      sub\n        /* \"#utility.yul\":23766:23767   */\n      0x00\n        /* \"#utility.yul\":23755:23764   */\n      dup4\n        /* \"#utility.yul\":23751:23768   */\n      add\n        /* \"#utility.yul\":23744:23791   */\n      mstore\n        /* \"#utility.yul\":23808:23939   */\n      tag_418\n        /* \"#utility.yul\":23934:23938   */\n      dup2\n        /* \"#utility.yul\":23808:23939   */\n      tag_192\n      jump\t// in\n    tag_418:\n        /* \"#utility.yul\":23800:23939   */\n      swap1\n      pop\n        /* \"#utility.yul\":23527:23946   */\n      swap2\n      swap1\n      pop\n      jump\t// out\n\n    auxdata: 0xa26469706673582212203ede6324e0b0c3a0105247c9b273083538376d0c4298e99d3643e45525d829e564736f6c63430008120033\n}\n",
				"bytecode": {
					"linkReferences": {},
					"object": "6080604052600060025534801561001557600080fd5b50336000806101000a81548173ffffffffffffffffffffffffffffffffffffffff021916908373ffffffffffffffffffffffffffffffffffffffff160217905550611817806100656000396000f3fe608060405234801561001057600080fd5b506004361061007d5760003560e01c80638da5cb5b1161005b5780638da5cb5b146100c6578063da731ab3146100e4578063ee416d5b14610100578063f2fde38b1461011c5761007d565b80632c1a81bb146100825780634d0a5dbd146100a057806383197ef0146100bc575b600080fd5b61008a610138565b6040516100979190610daa565b60405180910390f35b6100ba60048036038101906100b59190610e3e565b6105c6565b005b6100c46106b6565b005b6100ce6106d7565b6040516100db9190610e7a565b60405180910390f35b6100fe60048036038101906100f991906111b4565b610700565b005b61011a600480360381019061011591906111fd565b6108a3565b005b61013660048036038101906101319190610e3e565b610976565b005b6060600360006101466109f9565b73ffffffffffffffffffffffffffffffffffffffff1673ffffffffffffffffffffffffffffffffffffffff16815260200190815260200160002060009054906101000a900460ff166101cd576040517f08c379a00000000000000000000000000000000000000000000000000000000081526004016101c4906112ad565b60405180910390fd5b6001805480602002602001604051908101604052809291908181526020016000905b828210156105bd5783829060005260206000209060090201604051806101200160405290816000820154815260200160018201805461022d906112fc565b80601f0160208091040260200160405190810160405280929190818152602001828054610259906112fc565b80156102a65780601f1061027b576101008083540402835291602001916102a6565b820191906000526020600020905b81548152906001019060200180831161028957829003601f168201915b505050505081526020016002820180546102bf906112fc565b80601f01602080910402602001604051908101604052809291908181526020018280546102eb906112fc565b80156103385780601f1061030d57610100808354040283529160200191610338565b820191906000526020600020905b81548152906001019060200180831161031b57829003601f168201915b50505050508152602001600382018054610351906112fc565b80601f016020809104026020016040519081016040528092919081815260200182805461037d906112fc565b80156103ca5780601f1061039f576101008083540402835291602001916103ca565b820191906000526020600020905b8154815290600101906020018083116103ad57829003601f168201915b505050505081526020016004820180546103e3906112fc565b80601f016020809104026020016040519081016040528092919081815260200182805461040f906112fc565b801561045c5780601f106104315761010080835404028352916020019161045c565b820191906000526020600020905b81548152906001019060200180831161043f57829003601f168201915b50505050508152602001600582018054610475906112fc565b80601f01602080910402602001604051908101604052809291908181526020018280546104a1906112fc565b80156104ee5780601f106104c3576101008083540402835291602001916104ee565b820191906000526020600020905b8154815290600101906020018083116104d157829003601f168201915b5050505050815260200160068201548152602001600782018054610511906112fc565b80601f016020809104026020016040519081016040528092919081815260200182805461053d906112fc565b801561058a5780601f1061055f5761010080835404028352916020019161058a565b820191906000526020600020905b81548152906001019060200180831161056d57829003601f168201915b505050505081526020016008820160009054906101000a900460ff161515151581525050815260200190600101906101ef565b50505050905090565b6105ce610a01565b600360008273ffffffffffffffffffffffffffffffffffffffff1673ffffffffffffffffffffffffffffffffffffffff16815260200190815260200160002060009054906101000a900460ff161561065b576040517f08c379a00000000000000000000000000000000000000000000000000000000081526004016106529061139f565b60405180910390fd5b6001600360008373ffffffffffffffffffffffffffffffffffffffff1673ffffffffffffffffffffffffffffffffffffffff16815260200190815260200160002060006101000a81548160ff02191690831515021790555050565b6106be610a01565b3073ffffffffffffffffffffffffffffffffffffffff16ff5b60008060009054906101000a900473ffffffffffffffffffffffffffffffffffffffff16905090565b6003600061070c6109f9565b73ffffffffffffffffffffffffffffffffffffffff1673ffffffffffffffffffffffffffffffffffffffff16815260200190815260200160002060009054906101000a900460ff16610793576040517f08c379a000000000000000000000000000000000000000000000000000000000815260040161078a906112ad565b60405180910390fd5b6000600260008154809291906107a8906113ee565b91905055905080826000018181525050600182908060018154018082558091505060019003906000526020600020906009020160009091909190915060008201518160000155602082015181600101908161080391906115e2565b50604082015181600201908161081991906115e2565b50606082015181600301908161082f91906115e2565b50608082015181600401908161084591906115e2565b5060a082015181600501908161085b91906115e2565b5060c0820151816006015560e082015181600701908161087b91906115e2565b506101008201518160080160006101000a81548160ff02191690831515021790555050505050565b600360006108af6109f9565b73ffffffffffffffffffffffffffffffffffffffff1673ffffffffffffffffffffffffffffffffffffffff16815260200190815260200160002060009054906101000a900460ff16610936576040517f08c379a000000000000000000000000000000000000000000000000000000000815260040161092d906112ad565b60405180910390fd5b600180828154811061094b5761094a6116b4565b5b906000526020600020906009020160080160006101000a81548160ff02191690831515021790555050565b61097e610a01565b600073ffffffffffffffffffffffffffffffffffffffff168173ffffffffffffffffffffffffffffffffffffffff16036109ed576040517f08c379a00000000000000000000000000000000000000000000000000000000081526004016109e490611755565b60405180910390fd5b6109f681610a78565b50565b600033905090565b3373ffffffffffffffffffffffffffffffffffffffff16610a206106d7565b73ffffffffffffffffffffffffffffffffffffffff1614610a76576040517f08c379a0000000000000000000000000000000000000000000000000000000008152600401610a6d906117c1565b60405180910390fd5b565b60008060009054906101000a900473ffffffffffffffffffffffffffffffffffffffff169050816000806101000a81548173ffffffffffffffffffffffffffffffffffffffff021916908373ffffffffffffffffffffffffffffffffffffffff1602179055508173ffffffffffffffffffffffffffffffffffffffff168173ffffffffffffffffffffffffffffffffffffffff167f8be0079c531659141344cd1fd0a4f28419497f9722a3daafe3b4186f6b6457e060405160405180910390a35050565b600081519050919050565b600082825260208201905092915050565b6000819050602082019050919050565b6000819050919050565b610b7b81610b68565b82525050565b600081519050919050565b600082825260208201905092915050565b60005b83811015610bbb578082015181840152602081019050610ba0565b60008484015250505050565b6000601f19601f8301169050919050565b6000610be382610b81565b610bed8185610b8c565b9350610bfd818560208601610b9d565b610c0681610bc7565b840191505092915050565b60008115159050919050565b610c2681610c11565b82525050565b600061012083016000830151610c456000860182610b72565b5060208301518482036020860152610c5d8282610bd8565b91505060408301518482036040860152610c778282610bd8565b91505060608301518482036060860152610c918282610bd8565b91505060808301518482036080860152610cab8282610bd8565b91505060a083015184820360a0860152610cc58282610bd8565b91505060c0830151610cda60c0860182610b72565b5060e083015184820360e0860152610cf28282610bd8565b915050610100830151610d09610100860182610c1d565b508091505092915050565b6000610d208383610c2c565b905092915050565b6000602082019050919050565b6000610d4082610b3c565b610d4a8185610b47565b935083602082028501610d5c85610b58565b8060005b85811015610d985784840389528151610d798582610d14565b9450610d8483610d28565b925060208a01995050600181019050610d60565b50829750879550505050505092915050565b60006020820190508181036000830152610dc48184610d35565b905092915050565b6000604051905090565b600080fd5b600080fd5b600073ffffffffffffffffffffffffffffffffffffffff82169050919050565b6000610e0b82610de0565b9050919050565b610e1b81610e00565b8114610e2657600080fd5b50565b600081359050610e3881610e12565b92915050565b600060208284031215610e5457610e53610dd6565b5b6000610e6284828501610e29565b91505092915050565b610e7481610e00565b82525050565b6000602082019050610e8f6000830184610e6b565b92915050565b600080fd5b7f4e487b7100000000000000000000000000000000000000000000000000000000600052604160045260246000fd5b610ed282610bc7565b810181811067ffffffffffffffff82111715610ef157610ef0610e9a565b5b80604052505050565b6000610f04610dcc565b9050610f108282610ec9565b919050565b600080fd5b610f2381610b68565b8114610f2e57600080fd5b50565b600081359050610f4081610f1a565b92915050565b600080fd5b600080fd5b600067ffffffffffffffff821115610f6b57610f6a610e9a565b5b610f7482610bc7565b9050602081019050919050565b82818337600083830152505050565b6000610fa3610f9e84610f50565b610efa565b905082815260208101848484011115610fbf57610fbe610f4b565b5b610fca848285610f81565b509392505050565b600082601f830112610fe757610fe6610f46565b5b8135610ff7848260208601610f90565b91505092915050565b61100981610c11565b811461101457600080fd5b50565b60008135905061102681611000565b92915050565b6000610120828403121561104357611042610e95565b5b61104e610120610efa565b9050600061105e84828501610f31565b600083015250602082013567ffffffffffffffff81111561108257611081610f15565b5b61108e84828501610fd2565b602083015250604082013567ffffffffffffffff8111156110b2576110b1610f15565b5b6110be84828501610fd2565b604083015250606082013567ffffffffffffffff8111156110e2576110e1610f15565b5b6110ee84828501610fd2565b606083015250608082013567ffffffffffffffff81111561111257611111610f15565b5b61111e84828501610fd2565b60808301525060a082013567ffffffffffffffff81111561114257611141610f15565b5b61114e84828501610fd2565b60a08301525060c061116284828501610f31565b60c08301525060e082013567ffffffffffffffff81111561118657611185610f15565b5b61119284828501610fd2565b60e0830152506101006111a784828501611017565b6101008301525092915050565b6000602082840312156111ca576111c9610dd6565b5b600082013567ffffffffffffffff8111156111e8576111e7610ddb565b5b6111f48482850161102c565b91505092915050565b60006020828403121561121357611212610dd6565b5b600061122184828501610f31565b91505092915050565b600082825260208201905092915050565b7f537465703144617461626173653a206f6e6c7920636f6e74726163742077686960008201527f63682061726520616c6c6f776564000000000000000000000000000000000000602082015250565b6000611297602e8361122a565b91506112a28261123b565b604082019050919050565b600060208201905081810360008301526112c68161128a565b9050919050565b7f4e487b7100000000000000000000000000000000000000000000000000000000600052602260045260246000fd5b6000600282049050600182168061131457607f821691505b602082108103611327576113266112cd565b5b50919050565b7f537465703144617461626173653a207065726d697373696f6e2068617320626560008201527f656e206772616e74656400000000000000000000000000000000000000000000602082015250565b6000611389602a8361122a565b91506113948261132d565b604082019050919050565b600060208201905081810360008301526113b88161137c565b9050919050565b7f4e487b7100000000000000000000000000000000000000000000000000000000600052601160045260246000fd5b60006113f982610b68565b91507fffffffffffffffffffffffffffffffffffffffffffffffffffffffffffffffff820361142b5761142a6113bf565b5b600182019050919050565b60008190508160005260206000209050919050565b60006020601f8301049050919050565b600082821b905092915050565b6000600883026114987fffffffffffffffffffffffffffffffffffffffffffffffffffffffffffffffff8261145b565b6114a2868361145b565b95508019841693508086168417925050509392505050565b6000819050919050565b60006114df6114da6114d584610b68565b6114ba565b610b68565b9050919050565b6000819050919050565b6114f9836114c4565b61150d611505826114e6565b848454611468565b825550505050565b600090565b611522611515565b61152d8184846114f0565b505050565b5b818110156115515761154660008261151a565b600181019050611533565b5050565b601f8211156115965761156781611436565b6115708461144b565b8101602085101561157f578190505b61159361158b8561144b565b830182611532565b50505b505050565b600082821c905092915050565b60006115b96000198460080261159b565b1980831691505092915050565b60006115d283836115a8565b9150826002028217905092915050565b6115eb82610b81565b67ffffffffffffffff81111561160457611603610e9a565b5b61160e82546112fc565b611619828285611555565b600060209050601f83116001811461164c576000841561163a578287015190505b61164485826115c6565b8655506116ac565b601f19841661165a86611436565b60005b828110156116825784890151825560018201915060208501945060208101905061165d565b8683101561169f578489015161169b601f8916826115a8565b8355505b6001600288020188555050505b505050505050565b7f4e487b7100000000000000000000000000000000000000000000000000000000600052603260045260246000fd5b7f4f776e61626c653a206e6577206f776e657220697320746865207a65726f206160008201527f6464726573730000000000000000000000000000000000000000000000000000602082015250565b600061173f60268361122a565b915061174a826116e3565b604082019050919050565b6000602082019050818103600083015261176e81611732565b9050919050565b7f4f776e61626c653a2063616c6c6572206973206e6f7420746865206f776e6572600082015250565b60006117ab60208361122a565b91506117b682611775565b602082019050919050565b600060208201905081810360008301526117da8161179e565b905091905056fea26469706673582212203ede6324e0b0c3a0105247c9b273083538376d0c4298e99d3643e45525d829e564736f6c63430008120033",
					"opcodes": "PUSH1 0x80 PUSH1 0x40 MSTORE PUSH1 0x0 PUSH1 0x2 SSTORE CALLVALUE DUP1 ISZERO PUSH2 0x15 JUMPI PUSH1 0x0 DUP1 REVERT JUMPDEST POP CALLER PUSH1 0x0 DUP1 PUSH2 0x100 EXP DUP2 SLOAD DUP2 PUSH20 0xFFFFFFFFFFFFFFFFFFFFFFFFFFFFFFFFFFFFFFFF MUL NOT AND SWAP1 DUP4 PUSH20 0xFFFFFFFFFFFFFFFFFFFFFFFFFFFFFFFFFFFFFFFF AND MUL OR SWAP1 SSTORE POP PUSH2 0x1817 DUP1 PUSH2 0x65 PUSH1 0x0 CODECOPY PUSH1 0x0 RETURN INVALID PUSH1 0x80 PUSH1 0x40 MSTORE CALLVALUE DUP1 ISZERO PUSH2 0x10 JUMPI PUSH1 0x0 DUP1 REVERT JUMPDEST POP PUSH1 0x4 CALLDATASIZE LT PUSH2 0x7D JUMPI PUSH1 0x0 CALLDATALOAD PUSH1 0xE0 SHR DUP1 PUSH4 0x8DA5CB5B GT PUSH2 0x5B JUMPI DUP1 PUSH4 0x8DA5CB5B EQ PUSH2 0xC6 JUMPI DUP1 PUSH4 0xDA731AB3 EQ PUSH2 0xE4 JUMPI DUP1 PUSH4 0xEE416D5B EQ PUSH2 0x100 JUMPI DUP1 PUSH4 0xF2FDE38B EQ PUSH2 0x11C JUMPI PUSH2 0x7D JUMP JUMPDEST DUP1 PUSH4 0x2C1A81BB EQ PUSH2 0x82 JUMPI DUP1 PUSH4 0x4D0A5DBD EQ PUSH2 0xA0 JUMPI DUP1 PUSH4 0x83197EF0 EQ PUSH2 0xBC JUMPI JUMPDEST PUSH1 0x0 DUP1 REVERT JUMPDEST PUSH2 0x8A PUSH2 0x138 JUMP JUMPDEST PUSH1 0x40 MLOAD PUSH2 0x97 SWAP2 SWAP1 PUSH2 0xDAA JUMP JUMPDEST PUSH1 0x40 MLOAD DUP1 SWAP2 SUB SWAP1 RETURN JUMPDEST PUSH2 0xBA PUSH1 0x4 DUP1 CALLDATASIZE SUB DUP2 ADD SWAP1 PUSH2 0xB5 SWAP2 SWAP1 PUSH2 0xE3E JUMP JUMPDEST PUSH2 0x5C6 JUMP JUMPDEST STOP JUMPDEST PUSH2 0xC4 PUSH2 0x6B6 JUMP JUMPDEST STOP JUMPDEST PUSH2 0xCE PUSH2 0x6D7 JUMP JUMPDEST PUSH1 0x40 MLOAD PUSH2 0xDB SWAP2 SWAP1 PUSH2 0xE7A JUMP JUMPDEST PUSH1 0x40 MLOAD DUP1 SWAP2 SUB SWAP1 RETURN JUMPDEST PUSH2 0xFE PUSH1 0x4 DUP1 CALLDATASIZE SUB DUP2 ADD SWAP1 PUSH2 0xF9 SWAP2 SWAP1 PUSH2 0x11B4 JUMP JUMPDEST PUSH2 0x700 JUMP JUMPDEST STOP JUMPDEST PUSH2 0x11A PUSH1 0x4 DUP1 CALLDATASIZE SUB DUP2 ADD SWAP1 PUSH2 0x115 SWAP2 SWAP1 PUSH2 0x11FD JUMP JUMPDEST PUSH2 0x8A3 JUMP JUMPDEST STOP JUMPDEST PUSH2 0x136 PUSH1 0x4 DUP1 CALLDATASIZE SUB DUP2 ADD SWAP1 PUSH2 0x131 SWAP2 SWAP1 PUSH2 0xE3E JUMP JUMPDEST PUSH2 0x976 JUMP JUMPDEST STOP JUMPDEST PUSH1 0x60 PUSH1 0x3 PUSH1 0x0 PUSH2 0x146 PUSH2 0x9F9 JUMP JUMPDEST PUSH20 0xFFFFFFFFFFFFFFFFFFFFFFFFFFFFFFFFFFFFFFFF AND PUSH20 0xFFFFFFFFFFFFFFFFFFFFFFFFFFFFFFFFFFFFFFFF AND DUP2 MSTORE PUSH1 0x20 ADD SWAP1 DUP2 MSTORE PUSH1 0x20 ADD PUSH1 0x0 KECCAK256 PUSH1 0x0 SWAP1 SLOAD SWAP1 PUSH2 0x100 EXP SWAP1 DIV PUSH1 0xFF AND PUSH2 0x1CD JUMPI PUSH1 0x40 MLOAD PUSH32 0x8C379A000000000000000000000000000000000000000000000000000000000 DUP2 MSTORE PUSH1 0x4 ADD PUSH2 0x1C4 SWAP1 PUSH2 0x12AD JUMP JUMPDEST PUSH1 0x40 MLOAD DUP1 SWAP2 SUB SWAP1 REVERT JUMPDEST PUSH1 0x1 DUP1 SLOAD DUP1 PUSH1 0x20 MUL PUSH1 0x20 ADD PUSH1 0x40 MLOAD SWAP1 DUP2 ADD PUSH1 0x40 MSTORE DUP1 SWAP3 SWAP2 SWAP1 DUP2 DUP2 MSTORE PUSH1 0x20 ADD PUSH1 0x0 SWAP1 JUMPDEST DUP3 DUP3 LT ISZERO PUSH2 0x5BD JUMPI DUP4 DUP3 SWAP1 PUSH1 0x0 MSTORE PUSH1 0x20 PUSH1 0x0 KECCAK256 SWAP1 PUSH1 0x9 MUL ADD PUSH1 0x40 MLOAD DUP1 PUSH2 0x120 ADD PUSH1 0x40 MSTORE SWAP1 DUP2 PUSH1 0x0 DUP3 ADD SLOAD DUP2 MSTORE PUSH1 0x20 ADD PUSH1 0x1 DUP3 ADD DUP1 SLOAD PUSH2 0x22D SWAP1 PUSH2 0x12FC JUMP JUMPDEST DUP1 PUSH1 0x1F ADD PUSH1 0x20 DUP1 SWAP2 DIV MUL PUSH1 0x20 ADD PUSH1 0x40 MLOAD SWAP1 DUP2 ADD PUSH1 0x40 MSTORE DUP1 SWAP3 SWAP2 SWAP1 DUP2 DUP2 MSTORE PUSH1 0x20 ADD DUP3 DUP1 SLOAD PUSH2 0x259 SWAP1 PUSH2 0x12FC JUMP JUMPDEST DUP1 ISZERO PUSH2 0x2A6 JUMPI DUP1 PUSH1 0x1F LT PUSH2 0x27B JUMPI PUSH2 0x100 DUP1 DUP4 SLOAD DIV MUL DUP4 MSTORE SWAP2 PUSH1 0x20 ADD SWAP2 PUSH2 0x2A6 JUMP JUMPDEST DUP3 ADD SWAP2 SWAP1 PUSH1 0x0 MSTORE PUSH1 0x20 PUSH1 0x0 KECCAK256 SWAP1 JUMPDEST DUP2 SLOAD DUP2 MSTORE SWAP1 PUSH1 0x1 ADD SWAP1 PUSH1 0x20 ADD DUP1 DUP4 GT PUSH2 0x289 JUMPI DUP3 SWAP1 SUB PUSH1 0x1F AND DUP3 ADD SWAP2 JUMPDEST POP POP POP POP POP DUP2 MSTORE PUSH1 0x20 ADD PUSH1 0x2 DUP3 ADD DUP1 SLOAD PUSH2 0x2BF SWAP1 PUSH2 0x12FC JUMP JUMPDEST DUP1 PUSH1 0x1F ADD PUSH1 0x20 DUP1 SWAP2 DIV MUL PUSH1 0x20 ADD PUSH1 0x40 MLOAD SWAP1 DUP2 ADD PUSH1 0x40 MSTORE DUP1 SWAP3 SWAP2 SWAP1 DUP2 DUP2 MSTORE PUSH1 0x20 ADD DUP3 DUP1 SLOAD PUSH2 0x2EB SWAP1 PUSH2 0x12FC JUMP JUMPDEST DUP1 ISZERO PUSH2 0x338 JUMPI DUP1 PUSH1 0x1F LT PUSH2 0x30D JUMPI PUSH2 0x100 DUP1 DUP4 SLOAD DIV MUL DUP4 MSTORE SWAP2 PUSH1 0x20 ADD SWAP2 PUSH2 0x338 JUMP JUMPDEST DUP3 ADD SWAP2 SWAP1 PUSH1 0x0 MSTORE PUSH1 0x20 PUSH1 0x0 KECCAK256 SWAP1 JUMPDEST DUP2 SLOAD DUP2 MSTORE SWAP1 PUSH1 0x1 ADD SWAP1 PUSH1 0x20 ADD DUP1 DUP4 GT PUSH2 0x31B JUMPI DUP3 SWAP1 SUB PUSH1 0x1F AND DUP3 ADD SWAP2 JUMPDEST POP POP POP POP POP DUP2 MSTORE PUSH1 0x20 ADD PUSH1 0x3 DUP3 ADD DUP1 SLOAD PUSH2 0x351 SWAP1 PUSH2 0x12FC JUMP JUMPDEST DUP1 PUSH1 0x1F ADD PUSH1 0x20 DUP1 SWAP2 DIV MUL PUSH1 0x20 ADD PUSH1 0x40 MLOAD SWAP1 DUP2 ADD PUSH1 0x40 MSTORE DUP1 SWAP3 SWAP2 SWAP1 DUP2 DUP2 MSTORE PUSH1 0x20 ADD DUP3 DUP1 SLOAD PUSH2 0x37D SWAP1 PUSH2 0x12FC JUMP JUMPDEST DUP1 ISZERO PUSH2 0x3CA JUMPI DUP1 PUSH1 0x1F LT PUSH2 0x39F JUMPI PUSH2 0x100 DUP1 DUP4 SLOAD DIV MUL DUP4 MSTORE SWAP2 PUSH1 0x20 ADD SWAP2 PUSH2 0x3CA JUMP JUMPDEST DUP3 ADD SWAP2 SWAP1 PUSH1 0x0 MSTORE PUSH1 0x20 PUSH1 0x0 KECCAK256 SWAP1 JUMPDEST DUP2 SLOAD DUP2 MSTORE SWAP1 PUSH1 0x1 ADD SWAP1 PUSH1 0x20 ADD DUP1 DUP4 GT PUSH2 0x3AD JUMPI DUP3 SWAP1 SUB PUSH1 0x1F AND DUP3 ADD SWAP2 JUMPDEST POP POP POP POP POP DUP2 MSTORE PUSH1 0x20 ADD PUSH1 0x4 DUP3 ADD DUP1 SLOAD PUSH2 0x3E3 SWAP1 PUSH2 0x12FC JUMP JUMPDEST DUP1 PUSH1 0x1F ADD PUSH1 0x20 DUP1 SWAP2 DIV MUL PUSH1 0x20 ADD PUSH1 0x40 MLOAD SWAP1 DUP2 ADD PUSH1 0x40 MSTORE DUP1 SWAP3 SWAP2 SWAP1 DUP2 DUP2 MSTORE PUSH1 0x20 ADD DUP3 DUP1 SLOAD PUSH2 0x40F SWAP1 PUSH2 0x12FC JUMP JUMPDEST DUP1 ISZERO PUSH2 0x45C JUMPI DUP1 PUSH1 0x1F LT PUSH2 0x431 JUMPI PUSH2 0x100 DUP1 DUP4 SLOAD DIV MUL DUP4 MSTORE SWAP2 PUSH1 0x20 ADD SWAP2 PUSH2 0x45C JUMP JUMPDEST DUP3 ADD SWAP2 SWAP1 PUSH1 0x0 MSTORE PUSH1 0x20 PUSH1 0x0 KECCAK256 SWAP1 JUMPDEST DUP2 SLOAD DUP2 MSTORE SWAP1 PUSH1 0x1 ADD SWAP1 PUSH1 0x20 ADD DUP1 DUP4 GT PUSH2 0x43F JUMPI DUP3 SWAP1 SUB PUSH1 0x1F AND DUP3 ADD SWAP2 JUMPDEST POP POP POP POP POP DUP2 MSTORE PUSH1 0x20 ADD PUSH1 0x5 DUP3 ADD DUP1 SLOAD PUSH2 0x475 SWAP1 PUSH2 0x12FC JUMP JUMPDEST DUP1 PUSH1 0x1F ADD PUSH1 0x20 DUP1 SWAP2 DIV MUL PUSH1 0x20 ADD PUSH1 0x40 MLOAD SWAP1 DUP2 ADD PUSH1 0x40 MSTORE DUP1 SWAP3 SWAP2 SWAP1 DUP2 DUP2 MSTORE PUSH1 0x20 ADD DUP3 DUP1 SLOAD PUSH2 0x4A1 SWAP1 PUSH2 0x12FC JUMP JUMPDEST DUP1 ISZERO PUSH2 0x4EE JUMPI DUP1 PUSH1 0x1F LT PUSH2 0x4C3 JUMPI PUSH2 0x100 DUP1 DUP4 SLOAD DIV MUL DUP4 MSTORE SWAP2 PUSH1 0x20 ADD SWAP2 PUSH2 0x4EE JUMP JUMPDEST DUP3 ADD SWAP2 SWAP1 PUSH1 0x0 MSTORE PUSH1 0x20 PUSH1 0x0 KECCAK256 SWAP1 JUMPDEST DUP2 SLOAD DUP2 MSTORE SWAP1 PUSH1 0x1 ADD SWAP1 PUSH1 0x20 ADD DUP1 DUP4 GT PUSH2 0x4D1 JUMPI DUP3 SWAP1 SUB PUSH1 0x1F AND DUP3 ADD SWAP2 JUMPDEST POP POP POP POP POP DUP2 MSTORE PUSH1 0x20 ADD PUSH1 0x6 DUP3 ADD SLOAD DUP2 MSTORE PUSH1 0x20 ADD PUSH1 0x7 DUP3 ADD DUP1 SLOAD PUSH2 0x511 SWAP1 PUSH2 0x12FC JUMP JUMPDEST DUP1 PUSH1 0x1F ADD PUSH1 0x20 DUP1 SWAP2 DIV MUL PUSH1 0x20 ADD PUSH1 0x40 MLOAD SWAP1 DUP2 ADD PUSH1 0x40 MSTORE DUP1 SWAP3 SWAP2 SWAP1 DUP2 DUP2 MSTORE PUSH1 0x20 ADD DUP3 DUP1 SLOAD PUSH2 0x53D SWAP1 PUSH2 0x12FC JUMP JUMPDEST DUP1 ISZERO PUSH2 0x58A JUMPI DUP1 PUSH1 0x1F LT PUSH2 0x55F JUMPI PUSH2 0x100 DUP1 DUP4 SLOAD DIV MUL DUP4 MSTORE SWAP2 PUSH1 0x20 ADD SWAP2 PUSH2 0x58A JUMP JUMPDEST DUP3 ADD SWAP2 SWAP1 PUSH1 0x0 MSTORE PUSH1 0x20 PUSH1 0x0 KECCAK256 SWAP1 JUMPDEST DUP2 SLOAD DUP2 MSTORE SWAP1 PUSH1 0x1 ADD SWAP1 PUSH1 0x20 ADD DUP1 DUP4 GT PUSH2 0x56D JUMPI DUP3 SWAP1 SUB PUSH1 0x1F AND DUP3 ADD SWAP2 JUMPDEST POP POP POP POP POP DUP2 MSTORE PUSH1 0x20 ADD PUSH1 0x8 DUP3 ADD PUSH1 0x0 SWAP1 SLOAD SWAP1 PUSH2 0x100 EXP SWAP1 DIV PUSH1 0xFF AND ISZERO ISZERO ISZERO ISZERO DUP2 MSTORE POP POP DUP2 MSTORE PUSH1 0x20 ADD SWAP1 PUSH1 0x1 ADD SWAP1 PUSH2 0x1EF JUMP JUMPDEST POP POP POP POP SWAP1 POP SWAP1 JUMP JUMPDEST PUSH2 0x5CE PUSH2 0xA01 JUMP JUMPDEST PUSH1 0x3 PUSH1 0x0 DUP3 PUSH20 0xFFFFFFFFFFFFFFFFFFFFFFFFFFFFFFFFFFFFFFFF AND PUSH20 0xFFFFFFFFFFFFFFFFFFFFFFFFFFFFFFFFFFFFFFFF AND DUP2 MSTORE PUSH1 0x20 ADD SWAP1 DUP2 MSTORE PUSH1 0x20 ADD PUSH1 0x0 KECCAK256 PUSH1 0x0 SWAP1 SLOAD SWAP1 PUSH2 0x100 EXP SWAP1 DIV PUSH1 0xFF AND ISZERO PUSH2 0x65B JUMPI PUSH1 0x40 MLOAD PUSH32 0x8C379A000000000000000000000000000000000000000000000000000000000 DUP2 MSTORE PUSH1 0x4 ADD PUSH2 0x652 SWAP1 PUSH2 0x139F JUMP JUMPDEST PUSH1 0x40 MLOAD DUP1 SWAP2 SUB SWAP1 REVERT JUMPDEST PUSH1 0x1 PUSH1 0x3 PUSH1 0x0 DUP4 PUSH20 0xFFFFFFFFFFFFFFFFFFFFFFFFFFFFFFFFFFFFFFFF AND PUSH20 0xFFFFFFFFFFFFFFFFFFFFFFFFFFFFFFFFFFFFFFFF AND DUP2 MSTORE PUSH1 0x20 ADD SWAP1 DUP2 MSTORE PUSH1 0x20 ADD PUSH1 0x0 KECCAK256 PUSH1 0x0 PUSH2 0x100 EXP DUP2 SLOAD DUP2 PUSH1 0xFF MUL NOT AND SWAP1 DUP4 ISZERO ISZERO MUL OR SWAP1 SSTORE POP POP JUMP JUMPDEST PUSH2 0x6BE PUSH2 0xA01 JUMP JUMPDEST ADDRESS PUSH20 0xFFFFFFFFFFFFFFFFFFFFFFFFFFFFFFFFFFFFFFFF AND SELFDESTRUCT JUMPDEST PUSH1 0x0 DUP1 PUSH1 0x0 SWAP1 SLOAD SWAP1 PUSH2 0x100 EXP SWAP1 DIV PUSH20 0xFFFFFFFFFFFFFFFFFFFFFFFFFFFFFFFFFFFFFFFF AND SWAP1 POP SWAP1 JUMP JUMPDEST PUSH1 0x3 PUSH1 0x0 PUSH2 0x70C PUSH2 0x9F9 JUMP JUMPDEST PUSH20 0xFFFFFFFFFFFFFFFFFFFFFFFFFFFFFFFFFFFFFFFF AND PUSH20 0xFFFFFFFFFFFFFFFFFFFFFFFFFFFFFFFFFFFFFFFF AND DUP2 MSTORE PUSH1 0x20 ADD SWAP1 DUP2 MSTORE PUSH1 0x20 ADD PUSH1 0x0 KECCAK256 PUSH1 0x0 SWAP1 SLOAD SWAP1 PUSH2 0x100 EXP SWAP1 DIV PUSH1 0xFF AND PUSH2 0x793 JUMPI PUSH1 0x40 MLOAD PUSH32 0x8C379A000000000000000000000000000000000000000000000000000000000 DUP2 MSTORE PUSH1 0x4 ADD PUSH2 0x78A SWAP1 PUSH2 0x12AD JUMP JUMPDEST PUSH1 0x40 MLOAD DUP1 SWAP2 SUB SWAP1 REVERT JUMPDEST PUSH1 0x0 PUSH1 0x2 PUSH1 0x0 DUP2 SLOAD DUP1 SWAP3 SWAP2 SWAP1 PUSH2 0x7A8 SWAP1 PUSH2 0x13EE JUMP JUMPDEST SWAP2 SWAP1 POP SSTORE SWAP1 POP DUP1 DUP3 PUSH1 0x0 ADD DUP2 DUP2 MSTORE POP POP PUSH1 0x1 DUP3 SWAP1 DUP1 PUSH1 0x1 DUP2 SLOAD ADD DUP1 DUP3 SSTORE DUP1 SWAP2 POP POP PUSH1 0x1 SWAP1 SUB SWAP1 PUSH1 0x0 MSTORE PUSH1 0x20 PUSH1 0x0 KECCAK256 SWAP1 PUSH1 0x9 MUL ADD PUSH1 0x0 SWAP1 SWAP2 SWAP1 SWAP2 SWAP1 SWAP2 POP PUSH1 0x0 DUP3 ADD MLOAD DUP2 PUSH1 0x0 ADD SSTORE PUSH1 0x20 DUP3 ADD MLOAD DUP2 PUSH1 0x1 ADD SWAP1 DUP2 PUSH2 0x803 SWAP2 SWAP1 PUSH2 0x15E2 JUMP JUMPDEST POP PUSH1 0x40 DUP3 ADD MLOAD DUP2 PUSH1 0x2 ADD SWAP1 DUP2 PUSH2 0x819 SWAP2 SWAP1 PUSH2 0x15E2 JUMP JUMPDEST POP PUSH1 0x60 DUP3 ADD MLOAD DUP2 PUSH1 0x3 ADD SWAP1 DUP2 PUSH2 0x82F SWAP2 SWAP1 PUSH2 0x15E2 JUMP JUMPDEST POP PUSH1 0x80 DUP3 ADD MLOAD DUP2 PUSH1 0x4 ADD SWAP1 DUP2 PUSH2 0x845 SWAP2 SWAP1 PUSH2 0x15E2 JUMP JUMPDEST POP PUSH1 0xA0 DUP3 ADD MLOAD DUP2 PUSH1 0x5 ADD SWAP1 DUP2 PUSH2 0x85B SWAP2 SWAP1 PUSH2 0x15E2 JUMP JUMPDEST POP PUSH1 0xC0 DUP3 ADD MLOAD DUP2 PUSH1 0x6 ADD SSTORE PUSH1 0xE0 DUP3 ADD MLOAD DUP2 PUSH1 0x7 ADD SWAP1 DUP2 PUSH2 0x87B SWAP2 SWAP1 PUSH2 0x15E2 JUMP JUMPDEST POP PUSH2 0x100 DUP3 ADD MLOAD DUP2 PUSH1 0x8 ADD PUSH1 0x0 PUSH2 0x100 EXP DUP2 SLOAD DUP2 PUSH1 0xFF MUL NOT AND SWAP1 DUP4 ISZERO ISZERO MUL OR SWAP1 SSTORE POP POP POP POP POP JUMP JUMPDEST PUSH1 0x3 PUSH1 0x0 PUSH2 0x8AF PUSH2 0x9F9 JUMP JUMPDEST PUSH20 0xFFFFFFFFFFFFFFFFFFFFFFFFFFFFFFFFFFFFFFFF AND PUSH20 0xFFFFFFFFFFFFFFFFFFFFFFFFFFFFFFFFFFFFFFFF AND DUP2 MSTORE PUSH1 0x20 ADD SWAP1 DUP2 MSTORE PUSH1 0x20 ADD PUSH1 0x0 KECCAK256 PUSH1 0x0 SWAP1 SLOAD SWAP1 PUSH2 0x100 EXP SWAP1 DIV PUSH1 0xFF AND PUSH2 0x936 JUMPI PUSH1 0x40 MLOAD PUSH32 0x8C379A000000000000000000000000000000000000000000000000000000000 DUP2 MSTORE PUSH1 0x4 ADD PUSH2 0x92D SWAP1 PUSH2 0x12AD JUMP JUMPDEST PUSH1 0x40 MLOAD DUP1 SWAP2 SUB SWAP1 REVERT JUMPDEST PUSH1 0x1 DUP1 DUP3 DUP2 SLOAD DUP2 LT PUSH2 0x94B JUMPI PUSH2 0x94A PUSH2 0x16B4 JUMP JUMPDEST JUMPDEST SWAP1 PUSH1 0x0 MSTORE PUSH1 0x20 PUSH1 0x0 KECCAK256 SWAP1 PUSH1 0x9 MUL ADD PUSH1 0x8 ADD PUSH1 0x0 PUSH2 0x100 EXP DUP2 SLOAD DUP2 PUSH1 0xFF MUL NOT AND SWAP1 DUP4 ISZERO ISZERO MUL OR SWAP1 SSTORE POP POP JUMP JUMPDEST PUSH2 0x97E PUSH2 0xA01 JUMP JUMPDEST PUSH1 0x0 PUSH20 0xFFFFFFFFFFFFFFFFFFFFFFFFFFFFFFFFFFFFFFFF AND DUP2 PUSH20 0xFFFFFFFFFFFFFFFFFFFFFFFFFFFFFFFFFFFFFFFF AND SUB PUSH2 0x9ED JUMPI PUSH1 0x40 MLOAD PUSH32 0x8C379A000000000000000000000000000000000000000000000000000000000 DUP2 MSTORE PUSH1 0x4 ADD PUSH2 0x9E4 SWAP1 PUSH2 0x1755 JUMP JUMPDEST PUSH1 0x40 MLOAD DUP1 SWAP2 SUB SWAP1 REVERT JUMPDEST PUSH2 0x9F6 DUP2 PUSH2 0xA78 JUMP JUMPDEST POP JUMP JUMPDEST PUSH1 0x0 CALLER SWAP1 POP SWAP1 JUMP JUMPDEST CALLER PUSH20 0xFFFFFFFFFFFFFFFFFFFFFFFFFFFFFFFFFFFFFFFF AND PUSH2 0xA20 PUSH2 0x6D7 JUMP JUMPDEST PUSH20 0xFFFFFFFFFFFFFFFFFFFFFFFFFFFFFFFFFFFFFFFF AND EQ PUSH2 0xA76 JUMPI PUSH1 0x40 MLOAD PUSH32 0x8C379A000000000000000000000000000000000000000000000000000000000 DUP2 MSTORE PUSH1 0x4 ADD PUSH2 0xA6D SWAP1 PUSH2 0x17C1 JUMP JUMPDEST PUSH1 0x40 MLOAD DUP1 SWAP2 SUB SWAP1 REVERT JUMPDEST JUMP JUMPDEST PUSH1 0x0 DUP1 PUSH1 0x0 SWAP1 SLOAD SWAP1 PUSH2 0x100 EXP SWAP1 DIV PUSH20 0xFFFFFFFFFFFFFFFFFFFFFFFFFFFFFFFFFFFFFFFF AND SWAP1 POP DUP2 PUSH1 0x0 DUP1 PUSH2 0x100 EXP DUP2 SLOAD DUP2 PUSH20 0xFFFFFFFFFFFFFFFFFFFFFFFFFFFFFFFFFFFFFFFF MUL NOT AND SWAP1 DUP4 PUSH20 0xFFFFFFFFFFFFFFFFFFFFFFFFFFFFFFFFFFFFFFFF AND MUL OR SWAP1 SSTORE POP DUP2 PUSH20 0xFFFFFFFFFFFFFFFFFFFFFFFFFFFFFFFFFFFFFFFF AND DUP2 PUSH20 0xFFFFFFFFFFFFFFFFFFFFFFFFFFFFFFFFFFFFFFFF AND PUSH32 0x8BE0079C531659141344CD1FD0A4F28419497F9722A3DAAFE3B4186F6B6457E0 PUSH1 0x40 MLOAD PUSH1 0x40 MLOAD DUP1 SWAP2 SUB SWAP1 LOG3 POP POP JUMP JUMPDEST PUSH1 0x0 DUP2 MLOAD SWAP1 POP SWAP2 SWAP1 POP JUMP JUMPDEST PUSH1 0x0 DUP3 DUP3 MSTORE PUSH1 0x20 DUP3 ADD SWAP1 POP SWAP3 SWAP2 POP POP JUMP JUMPDEST PUSH1 0x0 DUP2 SWAP1 POP PUSH1 0x20 DUP3 ADD SWAP1 POP SWAP2 SWAP1 POP JUMP JUMPDEST PUSH1 0x0 DUP2 SWAP1 POP SWAP2 SWAP1 POP JUMP JUMPDEST PUSH2 0xB7B DUP2 PUSH2 0xB68 JUMP JUMPDEST DUP3 MSTORE POP POP JUMP JUMPDEST PUSH1 0x0 DUP2 MLOAD SWAP1 POP SWAP2 SWAP1 POP JUMP JUMPDEST PUSH1 0x0 DUP3 DUP3 MSTORE PUSH1 0x20 DUP3 ADD SWAP1 POP SWAP3 SWAP2 POP POP JUMP JUMPDEST PUSH1 0x0 JUMPDEST DUP4 DUP2 LT ISZERO PUSH2 0xBBB JUMPI DUP1 DUP3 ADD MLOAD DUP2 DUP5 ADD MSTORE PUSH1 0x20 DUP2 ADD SWAP1 POP PUSH2 0xBA0 JUMP JUMPDEST PUSH1 0x0 DUP5 DUP5 ADD MSTORE POP POP POP POP JUMP JUMPDEST PUSH1 0x0 PUSH1 0x1F NOT PUSH1 0x1F DUP4 ADD AND SWAP1 POP SWAP2 SWAP1 POP JUMP JUMPDEST PUSH1 0x0 PUSH2 0xBE3 DUP3 PUSH2 0xB81 JUMP JUMPDEST PUSH2 0xBED DUP2 DUP6 PUSH2 0xB8C JUMP JUMPDEST SWAP4 POP PUSH2 0xBFD DUP2 DUP6 PUSH1 0x20 DUP7 ADD PUSH2 0xB9D JUMP JUMPDEST PUSH2 0xC06 DUP2 PUSH2 0xBC7 JUMP JUMPDEST DUP5 ADD SWAP2 POP POP SWAP3 SWAP2 POP POP JUMP JUMPDEST PUSH1 0x0 DUP2 ISZERO ISZERO SWAP1 POP SWAP2 SWAP1 POP JUMP JUMPDEST PUSH2 0xC26 DUP2 PUSH2 0xC11 JUMP JUMPDEST DUP3 MSTORE POP POP JUMP JUMPDEST PUSH1 0x0 PUSH2 0x120 DUP4 ADD PUSH1 0x0 DUP4 ADD MLOAD PUSH2 0xC45 PUSH1 0x0 DUP7 ADD DUP3 PUSH2 0xB72 JUMP JUMPDEST POP PUSH1 0x20 DUP4 ADD MLOAD DUP5 DUP3 SUB PUSH1 0x20 DUP7 ADD MSTORE PUSH2 0xC5D DUP3 DUP3 PUSH2 0xBD8 JUMP JUMPDEST SWAP2 POP POP PUSH1 0x40 DUP4 ADD MLOAD DUP5 DUP3 SUB PUSH1 0x40 DUP7 ADD MSTORE PUSH2 0xC77 DUP3 DUP3 PUSH2 0xBD8 JUMP JUMPDEST SWAP2 POP POP PUSH1 0x60 DUP4 ADD MLOAD DUP5 DUP3 SUB PUSH1 0x60 DUP7 ADD MSTORE PUSH2 0xC91 DUP3 DUP3 PUSH2 0xBD8 JUMP JUMPDEST SWAP2 POP POP PUSH1 0x80 DUP4 ADD MLOAD DUP5 DUP3 SUB PUSH1 0x80 DUP7 ADD MSTORE PUSH2 0xCAB DUP3 DUP3 PUSH2 0xBD8 JUMP JUMPDEST SWAP2 POP POP PUSH1 0xA0 DUP4 ADD MLOAD DUP5 DUP3 SUB PUSH1 0xA0 DUP7 ADD MSTORE PUSH2 0xCC5 DUP3 DUP3 PUSH2 0xBD8 JUMP JUMPDEST SWAP2 POP POP PUSH1 0xC0 DUP4 ADD MLOAD PUSH2 0xCDA PUSH1 0xC0 DUP7 ADD DUP3 PUSH2 0xB72 JUMP JUMPDEST POP PUSH1 0xE0 DUP4 ADD MLOAD DUP5 DUP3 SUB PUSH1 0xE0 DUP7 ADD MSTORE PUSH2 0xCF2 DUP3 DUP3 PUSH2 0xBD8 JUMP JUMPDEST SWAP2 POP POP PUSH2 0x100 DUP4 ADD MLOAD PUSH2 0xD09 PUSH2 0x100 DUP7 ADD DUP3 PUSH2 0xC1D JUMP JUMPDEST POP DUP1 SWAP2 POP POP SWAP3 SWAP2 POP POP JUMP JUMPDEST PUSH1 0x0 PUSH2 0xD20 DUP4 DUP4 PUSH2 0xC2C JUMP JUMPDEST SWAP1 POP SWAP3 SWAP2 POP POP JUMP JUMPDEST PUSH1 0x0 PUSH1 0x20 DUP3 ADD SWAP1 POP SWAP2 SWAP1 POP JUMP JUMPDEST PUSH1 0x0 PUSH2 0xD40 DUP3 PUSH2 0xB3C JUMP JUMPDEST PUSH2 0xD4A DUP2 DUP6 PUSH2 0xB47 JUMP JUMPDEST SWAP4 POP DUP4 PUSH1 0x20 DUP3 MUL DUP6 ADD PUSH2 0xD5C DUP6 PUSH2 0xB58 JUMP JUMPDEST DUP1 PUSH1 0x0 JUMPDEST DUP6 DUP2 LT ISZERO PUSH2 0xD98 JUMPI DUP5 DUP5 SUB DUP10 MSTORE DUP2 MLOAD PUSH2 0xD79 DUP6 DUP3 PUSH2 0xD14 JUMP JUMPDEST SWAP5 POP PUSH2 0xD84 DUP4 PUSH2 0xD28 JUMP JUMPDEST SWAP3 POP PUSH1 0x20 DUP11 ADD SWAP10 POP POP PUSH1 0x1 DUP2 ADD SWAP1 POP PUSH2 0xD60 JUMP JUMPDEST POP DUP3 SWAP8 POP DUP8 SWAP6 POP POP POP POP POP POP SWAP3 SWAP2 POP POP JUMP JUMPDEST PUSH1 0x0 PUSH1 0x20 DUP3 ADD SWAP1 POP DUP2 DUP2 SUB PUSH1 0x0 DUP4 ADD MSTORE PUSH2 0xDC4 DUP2 DUP5 PUSH2 0xD35 JUMP JUMPDEST SWAP1 POP SWAP3 SWAP2 POP POP JUMP JUMPDEST PUSH1 0x0 PUSH1 0x40 MLOAD SWAP1 POP SWAP1 JUMP JUMPDEST PUSH1 0x0 DUP1 REVERT JUMPDEST PUSH1 0x0 DUP1 REVERT JUMPDEST PUSH1 0x0 PUSH20 0xFFFFFFFFFFFFFFFFFFFFFFFFFFFFFFFFFFFFFFFF DUP3 AND SWAP1 POP SWAP2 SWAP1 POP JUMP JUMPDEST PUSH1 0x0 PUSH2 0xE0B DUP3 PUSH2 0xDE0 JUMP JUMPDEST SWAP1 POP SWAP2 SWAP1 POP JUMP JUMPDEST PUSH2 0xE1B DUP2 PUSH2 0xE00 JUMP JUMPDEST DUP2 EQ PUSH2 0xE26 JUMPI PUSH1 0x0 DUP1 REVERT JUMPDEST POP JUMP JUMPDEST PUSH1 0x0 DUP2 CALLDATALOAD SWAP1 POP PUSH2 0xE38 DUP2 PUSH2 0xE12 JUMP JUMPDEST SWAP3 SWAP2 POP POP JUMP JUMPDEST PUSH1 0x0 PUSH1 0x20 DUP3 DUP5 SUB SLT ISZERO PUSH2 0xE54 JUMPI PUSH2 0xE53 PUSH2 0xDD6 JUMP JUMPDEST JUMPDEST PUSH1 0x0 PUSH2 0xE62 DUP5 DUP3 DUP6 ADD PUSH2 0xE29 JUMP JUMPDEST SWAP2 POP POP SWAP3 SWAP2 POP POP JUMP JUMPDEST PUSH2 0xE74 DUP2 PUSH2 0xE00 JUMP JUMPDEST DUP3 MSTORE POP POP JUMP JUMPDEST PUSH1 0x0 PUSH1 0x20 DUP3 ADD SWAP1 POP PUSH2 0xE8F PUSH1 0x0 DUP4 ADD DUP5 PUSH2 0xE6B JUMP JUMPDEST SWAP3 SWAP2 POP POP JUMP JUMPDEST PUSH1 0x0 DUP1 REVERT JUMPDEST PUSH32 0x4E487B7100000000000000000000000000000000000000000000000000000000 PUSH1 0x0 MSTORE PUSH1 0x41 PUSH1 0x4 MSTORE PUSH1 0x24 PUSH1 0x0 REVERT JUMPDEST PUSH2 0xED2 DUP3 PUSH2 0xBC7 JUMP JUMPDEST DUP2 ADD DUP2 DUP2 LT PUSH8 0xFFFFFFFFFFFFFFFF DUP3 GT OR ISZERO PUSH2 0xEF1 JUMPI PUSH2 0xEF0 PUSH2 0xE9A JUMP JUMPDEST JUMPDEST DUP1 PUSH1 0x40 MSTORE POP POP POP JUMP JUMPDEST PUSH1 0x0 PUSH2 0xF04 PUSH2 0xDCC JUMP JUMPDEST SWAP1 POP PUSH2 0xF10 DUP3 DUP3 PUSH2 0xEC9 JUMP JUMPDEST SWAP2 SWAP1 POP JUMP JUMPDEST PUSH1 0x0 DUP1 REVERT JUMPDEST PUSH2 0xF23 DUP2 PUSH2 0xB68 JUMP JUMPDEST DUP2 EQ PUSH2 0xF2E JUMPI PUSH1 0x0 DUP1 REVERT JUMPDEST POP JUMP JUMPDEST PUSH1 0x0 DUP2 CALLDATALOAD SWAP1 POP PUSH2 0xF40 DUP2 PUSH2 0xF1A JUMP JUMPDEST SWAP3 SWAP2 POP POP JUMP JUMPDEST PUSH1 0x0 DUP1 REVERT JUMPDEST PUSH1 0x0 DUP1 REVERT JUMPDEST PUSH1 0x0 PUSH8 0xFFFFFFFFFFFFFFFF DUP3 GT ISZERO PUSH2 0xF6B JUMPI PUSH2 0xF6A PUSH2 0xE9A JUMP JUMPDEST JUMPDEST PUSH2 0xF74 DUP3 PUSH2 0xBC7 JUMP JUMPDEST SWAP1 POP PUSH1 0x20 DUP2 ADD SWAP1 POP SWAP2 SWAP1 POP JUMP JUMPDEST DUP3 DUP2 DUP4 CALLDATACOPY PUSH1 0x0 DUP4 DUP4 ADD MSTORE POP POP POP JUMP JUMPDEST PUSH1 0x0 PUSH2 0xFA3 PUSH2 0xF9E DUP5 PUSH2 0xF50 JUMP JUMPDEST PUSH2 0xEFA JUMP JUMPDEST SWAP1 POP DUP3 DUP2 MSTORE PUSH1 0x20 DUP2 ADD DUP5 DUP5 DUP5 ADD GT ISZERO PUSH2 0xFBF JUMPI PUSH2 0xFBE PUSH2 0xF4B JUMP JUMPDEST JUMPDEST PUSH2 0xFCA DUP5 DUP3 DUP6 PUSH2 0xF81 JUMP JUMPDEST POP SWAP4 SWAP3 POP POP POP JUMP JUMPDEST PUSH1 0x0 DUP3 PUSH1 0x1F DUP4 ADD SLT PUSH2 0xFE7 JUMPI PUSH2 0xFE6 PUSH2 0xF46 JUMP JUMPDEST JUMPDEST DUP2 CALLDATALOAD PUSH2 0xFF7 DUP5 DUP3 PUSH1 0x20 DUP7 ADD PUSH2 0xF90 JUMP JUMPDEST SWAP2 POP POP SWAP3 SWAP2 POP POP JUMP JUMPDEST PUSH2 0x1009 DUP2 PUSH2 0xC11 JUMP JUMPDEST DUP2 EQ PUSH2 0x1014 JUMPI PUSH1 0x0 DUP1 REVERT JUMPDEST POP JUMP JUMPDEST PUSH1 0x0 DUP2 CALLDATALOAD SWAP1 POP PUSH2 0x1026 DUP2 PUSH2 0x1000 JUMP JUMPDEST SWAP3 SWAP2 POP POP JUMP JUMPDEST PUSH1 0x0 PUSH2 0x120 DUP3 DUP5 SUB SLT ISZERO PUSH2 0x1043 JUMPI PUSH2 0x1042 PUSH2 0xE95 JUMP JUMPDEST JUMPDEST PUSH2 0x104E PUSH2 0x120 PUSH2 0xEFA JUMP JUMPDEST SWAP1 POP PUSH1 0x0 PUSH2 0x105E DUP5 DUP3 DUP6 ADD PUSH2 0xF31 JUMP JUMPDEST PUSH1 0x0 DUP4 ADD MSTORE POP PUSH1 0x20 DUP3 ADD CALLDATALOAD PUSH8 0xFFFFFFFFFFFFFFFF DUP2 GT ISZERO PUSH2 0x1082 JUMPI PUSH2 0x1081 PUSH2 0xF15 JUMP JUMPDEST JUMPDEST PUSH2 0x108E DUP5 DUP3 DUP6 ADD PUSH2 0xFD2 JUMP JUMPDEST PUSH1 0x20 DUP4 ADD MSTORE POP PUSH1 0x40 DUP3 ADD CALLDATALOAD PUSH8 0xFFFFFFFFFFFFFFFF DUP2 GT ISZERO PUSH2 0x10B2 JUMPI PUSH2 0x10B1 PUSH2 0xF15 JUMP JUMPDEST JUMPDEST PUSH2 0x10BE DUP5 DUP3 DUP6 ADD PUSH2 0xFD2 JUMP JUMPDEST PUSH1 0x40 DUP4 ADD MSTORE POP PUSH1 0x60 DUP3 ADD CALLDATALOAD PUSH8 0xFFFFFFFFFFFFFFFF DUP2 GT ISZERO PUSH2 0x10E2 JUMPI PUSH2 0x10E1 PUSH2 0xF15 JUMP JUMPDEST JUMPDEST PUSH2 0x10EE DUP5 DUP3 DUP6 ADD PUSH2 0xFD2 JUMP JUMPDEST PUSH1 0x60 DUP4 ADD MSTORE POP PUSH1 0x80 DUP3 ADD CALLDATALOAD PUSH8 0xFFFFFFFFFFFFFFFF DUP2 GT ISZERO PUSH2 0x1112 JUMPI PUSH2 0x1111 PUSH2 0xF15 JUMP JUMPDEST JUMPDEST PUSH2 0x111E DUP5 DUP3 DUP6 ADD PUSH2 0xFD2 JUMP JUMPDEST PUSH1 0x80 DUP4 ADD MSTORE POP PUSH1 0xA0 DUP3 ADD CALLDATALOAD PUSH8 0xFFFFFFFFFFFFFFFF DUP2 GT ISZERO PUSH2 0x1142 JUMPI PUSH2 0x1141 PUSH2 0xF15 JUMP JUMPDEST JUMPDEST PUSH2 0x114E DUP5 DUP3 DUP6 ADD PUSH2 0xFD2 JUMP JUMPDEST PUSH1 0xA0 DUP4 ADD MSTORE POP PUSH1 0xC0 PUSH2 0x1162 DUP5 DUP3 DUP6 ADD PUSH2 0xF31 JUMP JUMPDEST PUSH1 0xC0 DUP4 ADD MSTORE POP PUSH1 0xE0 DUP3 ADD CALLDATALOAD PUSH8 0xFFFFFFFFFFFFFFFF DUP2 GT ISZERO PUSH2 0x1186 JUMPI PUSH2 0x1185 PUSH2 0xF15 JUMP JUMPDEST JUMPDEST PUSH2 0x1192 DUP5 DUP3 DUP6 ADD PUSH2 0xFD2 JUMP JUMPDEST PUSH1 0xE0 DUP4 ADD MSTORE POP PUSH2 0x100 PUSH2 0x11A7 DUP5 DUP3 DUP6 ADD PUSH2 0x1017 JUMP JUMPDEST PUSH2 0x100 DUP4 ADD MSTORE POP SWAP3 SWAP2 POP POP JUMP JUMPDEST PUSH1 0x0 PUSH1 0x20 DUP3 DUP5 SUB SLT ISZERO PUSH2 0x11CA JUMPI PUSH2 0x11C9 PUSH2 0xDD6 JUMP JUMPDEST JUMPDEST PUSH1 0x0 DUP3 ADD CALLDATALOAD PUSH8 0xFFFFFFFFFFFFFFFF DUP2 GT ISZERO PUSH2 0x11E8 JUMPI PUSH2 0x11E7 PUSH2 0xDDB JUMP JUMPDEST JUMPDEST PUSH2 0x11F4 DUP5 DUP3 DUP6 ADD PUSH2 0x102C JUMP JUMPDEST SWAP2 POP POP SWAP3 SWAP2 POP POP JUMP JUMPDEST PUSH1 0x0 PUSH1 0x20 DUP3 DUP5 SUB SLT ISZERO PUSH2 0x1213 JUMPI PUSH2 0x1212 PUSH2 0xDD6 JUMP JUMPDEST JUMPDEST PUSH1 0x0 PUSH2 0x1221 DUP5 DUP3 DUP6 ADD PUSH2 0xF31 JUMP JUMPDEST SWAP2 POP POP SWAP3 SWAP2 POP POP JUMP JUMPDEST PUSH1 0x0 DUP3 DUP3 MSTORE PUSH1 0x20 DUP3 ADD SWAP1 POP SWAP3 SWAP2 POP POP JUMP JUMPDEST PUSH32 0x537465703144617461626173653A206F6E6C7920636F6E747261637420776869 PUSH1 0x0 DUP3 ADD MSTORE PUSH32 0x63682061726520616C6C6F776564000000000000000000000000000000000000 PUSH1 0x20 DUP3 ADD MSTORE POP JUMP JUMPDEST PUSH1 0x0 PUSH2 0x1297 PUSH1 0x2E DUP4 PUSH2 0x122A JUMP JUMPDEST SWAP2 POP PUSH2 0x12A2 DUP3 PUSH2 0x123B JUMP JUMPDEST PUSH1 0x40 DUP3 ADD SWAP1 POP SWAP2 SWAP1 POP JUMP JUMPDEST PUSH1 0x0 PUSH1 0x20 DUP3 ADD SWAP1 POP DUP2 DUP2 SUB PUSH1 0x0 DUP4 ADD MSTORE PUSH2 0x12C6 DUP2 PUSH2 0x128A JUMP JUMPDEST SWAP1 POP SWAP2 SWAP1 POP JUMP JUMPDEST PUSH32 0x4E487B7100000000000000000000000000000000000000000000000000000000 PUSH1 0x0 MSTORE PUSH1 0x22 PUSH1 0x4 MSTORE PUSH1 0x24 PUSH1 0x0 REVERT JUMPDEST PUSH1 0x0 PUSH1 0x2 DUP3 DIV SWAP1 POP PUSH1 0x1 DUP3 AND DUP1 PUSH2 0x1314 JUMPI PUSH1 0x7F DUP3 AND SWAP2 POP JUMPDEST PUSH1 0x20 DUP3 LT DUP2 SUB PUSH2 0x1327 JUMPI PUSH2 0x1326 PUSH2 0x12CD JUMP JUMPDEST JUMPDEST POP SWAP2 SWAP1 POP JUMP JUMPDEST PUSH32 0x537465703144617461626173653A207065726D697373696F6E20686173206265 PUSH1 0x0 DUP3 ADD MSTORE PUSH32 0x656E206772616E74656400000000000000000000000000000000000000000000 PUSH1 0x20 DUP3 ADD MSTORE POP JUMP JUMPDEST PUSH1 0x0 PUSH2 0x1389 PUSH1 0x2A DUP4 PUSH2 0x122A JUMP JUMPDEST SWAP2 POP PUSH2 0x1394 DUP3 PUSH2 0x132D JUMP JUMPDEST PUSH1 0x40 DUP3 ADD SWAP1 POP SWAP2 SWAP1 POP JUMP JUMPDEST PUSH1 0x0 PUSH1 0x20 DUP3 ADD SWAP1 POP DUP2 DUP2 SUB PUSH1 0x0 DUP4 ADD MSTORE PUSH2 0x13B8 DUP2 PUSH2 0x137C JUMP JUMPDEST SWAP1 POP SWAP2 SWAP1 POP JUMP JUMPDEST PUSH32 0x4E487B7100000000000000000000000000000000000000000000000000000000 PUSH1 0x0 MSTORE PUSH1 0x11 PUSH1 0x4 MSTORE PUSH1 0x24 PUSH1 0x0 REVERT JUMPDEST PUSH1 0x0 PUSH2 0x13F9 DUP3 PUSH2 0xB68 JUMP JUMPDEST SWAP2 POP PUSH32 0xFFFFFFFFFFFFFFFFFFFFFFFFFFFFFFFFFFFFFFFFFFFFFFFFFFFFFFFFFFFFFFFF DUP3 SUB PUSH2 0x142B JUMPI PUSH2 0x142A PUSH2 0x13BF JUMP JUMPDEST JUMPDEST PUSH1 0x1 DUP3 ADD SWAP1 POP SWAP2 SWAP1 POP JUMP JUMPDEST PUSH1 0x0 DUP2 SWAP1 POP DUP2 PUSH1 0x0 MSTORE PUSH1 0x20 PUSH1 0x0 KECCAK256 SWAP1 POP SWAP2 SWAP1 POP JUMP JUMPDEST PUSH1 0x0 PUSH1 0x20 PUSH1 0x1F DUP4 ADD DIV SWAP1 POP SWAP2 SWAP1 POP JUMP JUMPDEST PUSH1 0x0 DUP3 DUP3 SHL SWAP1 POP SWAP3 SWAP2 POP POP JUMP JUMPDEST PUSH1 0x0 PUSH1 0x8 DUP4 MUL PUSH2 0x1498 PUSH32 0xFFFFFFFFFFFFFFFFFFFFFFFFFFFFFFFFFFFFFFFFFFFFFFFFFFFFFFFFFFFFFFFF DUP3 PUSH2 0x145B JUMP JUMPDEST PUSH2 0x14A2 DUP7 DUP4 PUSH2 0x145B JUMP JUMPDEST SWAP6 POP DUP1 NOT DUP5 AND SWAP4 POP DUP1 DUP7 AND DUP5 OR SWAP3 POP POP POP SWAP4 SWAP3 POP POP POP JUMP JUMPDEST PUSH1 0x0 DUP2 SWAP1 POP SWAP2 SWAP1 POP JUMP JUMPDEST PUSH1 0x0 PUSH2 0x14DF PUSH2 0x14DA PUSH2 0x14D5 DUP5 PUSH2 0xB68 JUMP JUMPDEST PUSH2 0x14BA JUMP JUMPDEST PUSH2 0xB68 JUMP JUMPDEST SWAP1 POP SWAP2 SWAP1 POP JUMP JUMPDEST PUSH1 0x0 DUP2 SWAP1 POP SWAP2 SWAP1 POP JUMP JUMPDEST PUSH2 0x14F9 DUP4 PUSH2 0x14C4 JUMP JUMPDEST PUSH2 0x150D PUSH2 0x1505 DUP3 PUSH2 0x14E6 JUMP JUMPDEST DUP5 DUP5 SLOAD PUSH2 0x1468 JUMP JUMPDEST DUP3 SSTORE POP POP POP POP JUMP JUMPDEST PUSH1 0x0 SWAP1 JUMP JUMPDEST PUSH2 0x1522 PUSH2 0x1515 JUMP JUMPDEST PUSH2 0x152D DUP2 DUP5 DUP5 PUSH2 0x14F0 JUMP JUMPDEST POP POP POP JUMP JUMPDEST JUMPDEST DUP2 DUP2 LT ISZERO PUSH2 0x1551 JUMPI PUSH2 0x1546 PUSH1 0x0 DUP3 PUSH2 0x151A JUMP JUMPDEST PUSH1 0x1 DUP2 ADD SWAP1 POP PUSH2 0x1533 JUMP JUMPDEST POP POP JUMP JUMPDEST PUSH1 0x1F DUP3 GT ISZERO PUSH2 0x1596 JUMPI PUSH2 0x1567 DUP2 PUSH2 0x1436 JUMP JUMPDEST PUSH2 0x1570 DUP5 PUSH2 0x144B JUMP JUMPDEST DUP2 ADD PUSH1 0x20 DUP6 LT ISZERO PUSH2 0x157F JUMPI DUP2 SWAP1 POP JUMPDEST PUSH2 0x1593 PUSH2 0x158B DUP6 PUSH2 0x144B JUMP JUMPDEST DUP4 ADD DUP3 PUSH2 0x1532 JUMP JUMPDEST POP POP JUMPDEST POP POP POP JUMP JUMPDEST PUSH1 0x0 DUP3 DUP3 SHR SWAP1 POP SWAP3 SWAP2 POP POP JUMP JUMPDEST PUSH1 0x0 PUSH2 0x15B9 PUSH1 0x0 NOT DUP5 PUSH1 0x8 MUL PUSH2 0x159B JUMP JUMPDEST NOT DUP1 DUP4 AND SWAP2 POP POP SWAP3 SWAP2 POP POP JUMP JUMPDEST PUSH1 0x0 PUSH2 0x15D2 DUP4 DUP4 PUSH2 0x15A8 JUMP JUMPDEST SWAP2 POP DUP3 PUSH1 0x2 MUL DUP3 OR SWAP1 POP SWAP3 SWAP2 POP POP JUMP JUMPDEST PUSH2 0x15EB DUP3 PUSH2 0xB81 JUMP JUMPDEST PUSH8 0xFFFFFFFFFFFFFFFF DUP2 GT ISZERO PUSH2 0x1604 JUMPI PUSH2 0x1603 PUSH2 0xE9A JUMP JUMPDEST JUMPDEST PUSH2 0x160E DUP3 SLOAD PUSH2 0x12FC JUMP JUMPDEST PUSH2 0x1619 DUP3 DUP3 DUP6 PUSH2 0x1555 JUMP JUMPDEST PUSH1 0x0 PUSH1 0x20 SWAP1 POP PUSH1 0x1F DUP4 GT PUSH1 0x1 DUP2 EQ PUSH2 0x164C JUMPI PUSH1 0x0 DUP5 ISZERO PUSH2 0x163A JUMPI DUP3 DUP8 ADD MLOAD SWAP1 POP JUMPDEST PUSH2 0x1644 DUP6 DUP3 PUSH2 0x15C6 JUMP JUMPDEST DUP7 SSTORE POP PUSH2 0x16AC JUMP JUMPDEST PUSH1 0x1F NOT DUP5 AND PUSH2 0x165A DUP7 PUSH2 0x1436 JUMP JUMPDEST PUSH1 0x0 JUMPDEST DUP3 DUP2 LT ISZERO PUSH2 0x1682 JUMPI DUP5 DUP10 ADD MLOAD DUP3 SSTORE PUSH1 0x1 DUP3 ADD SWAP2 POP PUSH1 0x20 DUP6 ADD SWAP5 POP PUSH1 0x20 DUP2 ADD SWAP1 POP PUSH2 0x165D JUMP JUMPDEST DUP7 DUP4 LT ISZERO PUSH2 0x169F JUMPI DUP5 DUP10 ADD MLOAD PUSH2 0x169B PUSH1 0x1F DUP10 AND DUP3 PUSH2 0x15A8 JUMP JUMPDEST DUP4 SSTORE POP JUMPDEST PUSH1 0x1 PUSH1 0x2 DUP9 MUL ADD DUP9 SSTORE POP POP POP JUMPDEST POP POP POP POP POP POP JUMP JUMPDEST PUSH32 0x4E487B7100000000000000000000000000000000000000000000000000000000 PUSH1 0x0 MSTORE PUSH1 0x32 PUSH1 0x4 MSTORE PUSH1 0x24 PUSH1 0x0 REVERT JUMPDEST PUSH32 0x4F776E61626C653A206E6577206F776E657220697320746865207A65726F2061 PUSH1 0x0 DUP3 ADD MSTORE PUSH32 0x6464726573730000000000000000000000000000000000000000000000000000 PUSH1 0x20 DUP3 ADD MSTORE POP JUMP JUMPDEST PUSH1 0x0 PUSH2 0x173F PUSH1 0x26 DUP4 PUSH2 0x122A JUMP JUMPDEST SWAP2 POP PUSH2 0x174A DUP3 PUSH2 0x16E3 JUMP JUMPDEST PUSH1 0x40 DUP3 ADD SWAP1 POP SWAP2 SWAP1 POP JUMP JUMPDEST PUSH1 0x0 PUSH1 0x20 DUP3 ADD SWAP1 POP DUP2 DUP2 SUB PUSH1 0x0 DUP4 ADD MSTORE PUSH2 0x176E DUP2 PUSH2 0x1732 JUMP JUMPDEST SWAP1 POP SWAP2 SWAP1 POP JUMP JUMPDEST PUSH32 0x4F776E61626C653A2063616C6C6572206973206E6F7420746865206F776E6572 PUSH1 0x0 DUP3 ADD MSTORE POP JUMP JUMPDEST PUSH1 0x0 PUSH2 0x17AB PUSH1 0x20 DUP4 PUSH2 0x122A JUMP JUMPDEST SWAP2 POP PUSH2 0x17B6 DUP3 PUSH2 0x1775 JUMP JUMPDEST PUSH1 0x20 DUP3 ADD SWAP1 POP SWAP2 SWAP1 POP JUMP JUMPDEST PUSH1 0x0 PUSH1 0x20 DUP3 ADD SWAP1 POP DUP2 DUP2 SUB PUSH1 0x0 DUP4 ADD MSTORE PUSH2 0x17DA DUP2 PUSH2 0x179E JUMP JUMPDEST SWAP1 POP SWAP2 SWAP1 POP JUMP INVALID LOG2 PUSH5 0x6970667358 0x22 SLT KECCAK256 RETURNDATACOPY 0xDE PUSH4 0x24E0B0C3 LOG0 LT MSTORE SELFBALANCE 0xC9 0xB2 PUSH20 0x83538376D0C4298E99D3643E45525D829E56473 PUSH16 0x6C634300081200330000000000000000 "
				},
				"gasEstimates": {
					"creation": {
						"codeDepositCost": "1233400",
						"executionCost": "30553",
						"totalCost": "1263953"
					},
					"external": {
						"addChecked(uint256)": "29191",
						"addPermission(address)": "29310",
						"addStep1((uint256,string,string,string,string,string,uint256,string,bool))": "infinite",
						"destroy()": "30017",
						"getAllStep1()": "infinite",
						"owner()": "2522",
						"transferOwnership(address)": "30775"
					}
				},
				"methodIdentifiers": {
					"addChecked(uint256)": "ee416d5b",
					"addPermission(address)": "4d0a5dbd",
					"addStep1((uint256,string,string,string,string,string,uint256,string,bool))": "da731ab3",
					"destroy()": "83197ef0",
					"getAllStep1()": "2c1a81bb",
					"owner()": "8da5cb5b",
					"transferOwnership(address)": "f2fde38b"
				}
			},
			"storageLayout": {
				"storage": [
					{
						"astId": 30,
						"contract": "database/processing/Step1Database.sol:Step1Database",
						"label": "_owner",
						"offset": 0,
						"slot": "0",
						"type": "t_address"
					},
					{
						"astId": 149,
						"contract": "database/processing/Step1Database.sol:Step1Database",
						"label": "list",
						"offset": 0,
						"slot": "1",
						"type": "t_array(t_struct(Step1)271_storage)dyn_storage"
					},
					{
						"astId": 152,
						"contract": "database/processing/Step1Database.sol:Step1Database",
						"label": "autoIncrement",
						"offset": 0,
						"slot": "2",
						"type": "t_uint256"
					},
					{
						"astId": 156,
						"contract": "database/processing/Step1Database.sol:Step1Database",
						"label": "permissions",
						"offset": 0,
						"slot": "3",
						"type": "t_mapping(t_address,t_bool)"
					}
				],
				"types": {
					"t_address": {
						"encoding": "inplace",
						"label": "address",
						"numberOfBytes": "20"
					},
					"t_array(t_struct(Step1)271_storage)dyn_storage": {
						"base": "t_struct(Step1)271_storage",
						"encoding": "dynamic_array",
						"label": "struct Step1[]",
						"numberOfBytes": "32"
					},
					"t_bool": {
						"encoding": "inplace",
						"label": "bool",
						"numberOfBytes": "1"
					},
					"t_mapping(t_address,t_bool)": {
						"encoding": "mapping",
						"key": "t_address",
						"label": "mapping(address => bool)",
						"numberOfBytes": "32",
						"value": "t_bool"
					},
					"t_string_storage": {
						"encoding": "bytes",
						"label": "string",
						"numberOfBytes": "32"
					},
					"t_struct(Step1)271_storage": {
						"encoding": "inplace",
						"label": "struct Step1",
						"members": [
							{
								"astId": 254,
								"contract": "database/processing/Step1Database.sol:Step1Database",
								"label": "productCode",
								"offset": 0,
								"slot": "0",
								"type": "t_uint256"
							},
							{
								"astId": 256,
								"contract": "database/processing/Step1Database.sol:Step1Database",
								"label": "productName",
								"offset": 0,
								"slot": "1",
								"type": "t_string_storage"
							},
							{
								"astId": 258,
								"contract": "database/processing/Step1Database.sol:Step1Database",
								"label": "date",
								"offset": 0,
								"slot": "2",
								"type": "t_string_storage"
							},
							{
								"astId": 260,
								"contract": "database/processing/Step1Database.sol:Step1Database",
								"label": "location",
								"offset": 0,
								"slot": "3",
								"type": "t_string_storage"
							},
							{
								"astId": 262,
								"contract": "database/processing/Step1Database.sol:Step1Database",
								"label": "photo",
								"offset": 0,
								"slot": "4",
								"type": "t_string_storage"
							},
							{
								"astId": 264,
								"contract": "database/processing/Step1Database.sol:Step1Database",
								"label": "userName",
								"offset": 0,
								"slot": "5",
								"type": "t_string_storage"
							},
							{
								"astId": 266,
								"contract": "database/processing/Step1Database.sol:Step1Database",
								"label": "userCccd",
								"offset": 0,
								"slot": "6",
								"type": "t_uint256"
							},
							{
								"astId": 268,
								"contract": "database/processing/Step1Database.sol:Step1Database",
								"label": "categories",
								"offset": 0,
								"slot": "7",
								"type": "t_string_storage"
							},
							{
								"astId": 270,
								"contract": "database/processing/Step1Database.sol:Step1Database",
								"label": "step1IsChecked",
								"offset": 0,
								"slot": "8",
								"type": "t_bool"
							}
						],
						"numberOfBytes": "288"
					},
					"t_uint256": {
						"encoding": "inplace",
						"label": "uint256",
						"numberOfBytes": "32"
					}
				}
			},
			"userdoc": {
				"kind": "user",
				"methods": {},
				"version": 1
			}
		}
	}
}