{
	"database/processing/IngressDatabase.sol": {
		"IngressDatabase": {
			"abi": [
				{
					"inputs": [],
					"stateMutability": "nonpayable",
					"type": "constructor"
				},
				{
					"anonymous": false,
					"inputs": [
						{
							"indexed": true,
							"internalType": "address",
							"name": "previousOwner",
							"type": "address"
						},
						{
							"indexed": true,
							"internalType": "address",
							"name": "newOwner",
							"type": "address"
						}
					],
					"name": "OwnershipTransferred",
					"type": "event"
				},
				{
					"inputs": [
						{
							"internalType": "uint256",
							"name": "ingressId",
							"type": "uint256"
						}
					],
					"name": "addChecked",
					"outputs": [],
					"stateMutability": "nonpayable",
					"type": "function"
				},
				{
					"inputs": [
						{
							"components": [
								{
									"internalType": "uint256",
									"name": "batchId",
									"type": "uint256"
								},
								{
									"internalType": "string",
									"name": "userName",
									"type": "string"
								},
								{
									"internalType": "address",
									"name": "userAddress",
									"type": "address"
								},
								{
									"internalType": "uint256",
									"name": "farmerCccd",
									"type": "uint256"
								},
								{
									"internalType": "string",
									"name": "ingressDate",
									"type": "string"
								},
								{
									"internalType": "string",
									"name": "ingressAddress",
									"type": "string"
								},
								{
									"internalType": "string",
									"name": "contractPhoto",
									"type": "string"
								},
								{
									"internalType": "uint256",
									"name": "keyValue",
									"type": "uint256"
								},
								{
									"internalType": "bool",
									"name": "ingressIsChecked",
									"type": "bool"
								}
							],
							"internalType": "struct Ingress",
							"name": "ingress",
							"type": "tuple"
						}
					],
					"name": "addIngress",
					"outputs": [],
					"stateMutability": "nonpayable",
					"type": "function"
				},
				{
					"inputs": [
						{
							"internalType": "address",
							"name": "contractPermission",
							"type": "address"
						}
					],
					"name": "addPermission",
					"outputs": [],
					"stateMutability": "nonpayable",
					"type": "function"
				},
				{
					"inputs": [],
					"name": "destroy",
					"outputs": [],
					"stateMutability": "nonpayable",
					"type": "function"
				},
				{
					"inputs": [],
					"name": "getAllIngress",
					"outputs": [
						{
							"components": [
								{
									"internalType": "uint256",
									"name": "batchId",
									"type": "uint256"
								},
								{
									"internalType": "string",
									"name": "userName",
									"type": "string"
								},
								{
									"internalType": "address",
									"name": "userAddress",
									"type": "address"
								},
								{
									"internalType": "uint256",
									"name": "farmerCccd",
									"type": "uint256"
								},
								{
									"internalType": "string",
									"name": "ingressDate",
									"type": "string"
								},
								{
									"internalType": "string",
									"name": "ingressAddress",
									"type": "string"
								},
								{
									"internalType": "string",
									"name": "contractPhoto",
									"type": "string"
								},
								{
									"internalType": "uint256",
									"name": "keyValue",
									"type": "uint256"
								},
								{
									"internalType": "bool",
									"name": "ingressIsChecked",
									"type": "bool"
								}
							],
							"internalType": "struct Ingress[]",
							"name": "",
							"type": "tuple[]"
						}
					],
					"stateMutability": "view",
					"type": "function"
				},
				{
					"inputs": [],
					"name": "owner",
					"outputs": [
						{
							"internalType": "address",
							"name": "",
							"type": "address"
						}
					],
					"stateMutability": "view",
					"type": "function"
				},
				{
					"inputs": [
						{
							"internalType": "address",
							"name": "newOwner",
							"type": "address"
						}
					],
					"name": "transferOwnership",
					"outputs": [],
					"stateMutability": "nonpayable",
					"type": "function"
				}
			],
			"devdoc": {
				"kind": "dev",
				"methods": {
					"owner()": {
						"details": "Returns the address of the current owner."
					},
					"transferOwnership(address)": {
						"details": "Transfers ownership of the contract to a new account (`newOwner`). Can only be called by the current owner."
					}
				},
				"version": 1
			},
			"evm": {
				"assembly": "    /* \"database/processing/IngressDatabase.sol\":186:1310  contract IngressDatabase is Ownable {... */\n  mstore(0x40, 0x80)\n    /* \"database/processing/IngressDatabase.sol\":290:291  0 */\n  0x00\n    /* \"database/processing/IngressDatabase.sol\":258:291  uint256 private autoIncrement = 0 */\n  0x02\n  sstore\n    /* \"database/processing/IngressDatabase.sol\":542:568  constructor() Ownable() {} */\n  callvalue\n  dup1\n  iszero\n  tag_1\n  jumpi\n  0x00\n  dup1\n  revert\ntag_1:\n  pop\n    /* \"abstract/Ownable.sol\":1032:1042  msg.sender */\n  caller\n    /* \"abstract/Ownable.sol\":1023:1029  _owner */\n  0x00\n  dup1\n    /* \"abstract/Ownable.sol\":1023:1042  _owner = msg.sender */\n  0x0100\n  exp\n  dup2\n  sload\n  dup2\n  0xffffffffffffffffffffffffffffffffffffffff\n  mul\n  not\n  and\n  swap1\n  dup4\n  0xffffffffffffffffffffffffffffffffffffffff\n  and\n  mul\n  or\n  swap1\n  sstore\n  pop\n    /* \"database/processing/IngressDatabase.sol\":186:1310  contract IngressDatabase is Ownable {... */\n  dataSize(sub_0)\n  dup1\n  dataOffset(sub_0)\n  0x00\n  codecopy\n  0x00\n  return\nstop\n\nsub_0: assembly {\n        /* \"database/processing/IngressDatabase.sol\":186:1310  contract IngressDatabase is Ownable {... */\n      mstore(0x40, 0x80)\n      callvalue\n      dup1\n      iszero\n      tag_1\n      jumpi\n      0x00\n      dup1\n      revert\n    tag_1:\n      pop\n      jumpi(tag_2, lt(calldatasize, 0x04))\n      shr(0xe0, calldataload(0x00))\n      dup1\n      0x8da5cb5b\n      gt\n      tag_10\n      jumpi\n      dup1\n      0x8da5cb5b\n      eq\n      tag_6\n      jumpi\n      dup1\n      0xb39f14f0\n      eq\n      tag_7\n      jumpi\n      dup1\n      0xee416d5b\n      eq\n      tag_8\n      jumpi\n      dup1\n      0xf2fde38b\n      eq\n      tag_9\n      jumpi\n      jump(tag_2)\n    tag_10:\n      dup1\n      0x4d0a5dbd\n      eq\n      tag_3\n      jumpi\n      dup1\n      0x69f205f2\n      eq\n      tag_4\n      jumpi\n      dup1\n      0x83197ef0\n      eq\n      tag_5\n      jumpi\n    tag_2:\n      0x00\n      dup1\n      revert\n        /* \"database/processing/IngressDatabase.sol\":576:838  function addPermission(address contractPermission) public onlyOwner {... */\n    tag_3:\n      tag_11\n      0x04\n      dup1\n      calldatasize\n      sub\n      dup2\n      add\n      swap1\n      tag_12\n      swap2\n      swap1\n      tag_13\n      jump\t// in\n    tag_12:\n      tag_14\n      jump\t// in\n    tag_11:\n      stop\n        /* \"database/processing/IngressDatabase.sol\":1156:1307  function getAllIngress()... */\n    tag_4:\n      tag_15\n      tag_16\n      jump\t// in\n    tag_15:\n      mload(0x40)\n      tag_17\n      swap2\n      swap1\n      tag_18\n      jump\t// in\n    tag_17:\n      mload(0x40)\n      dup1\n      swap2\n      sub\n      swap1\n      return\n        /* \"abstract/Ownable.sol\":2801:2892  function destroy() public onlyOwner {... */\n    tag_5:\n      tag_19\n      tag_20\n      jump\t// in\n    tag_19:\n      stop\n        /* \"abstract/Ownable.sol\":1289:1376  function owner() public view virtual returns (address) {... */\n    tag_6:\n      tag_21\n      tag_22\n      jump\t// in\n    tag_21:\n      mload(0x40)\n      tag_23\n      swap2\n      swap1\n      tag_24\n      jump\t// in\n    tag_23:\n      mload(0x40)\n      dup1\n      swap2\n      sub\n      swap1\n      return\n        /* \"database/processing/IngressDatabase.sol\":846:1020  function addIngress(Ingress memory ingress) public onlyPermissions {... */\n    tag_7:\n      tag_25\n      0x04\n      dup1\n      calldatasize\n      sub\n      dup2\n      add\n      swap1\n      tag_26\n      swap2\n      swap1\n      tag_27\n      jump\t// in\n    tag_26:\n      tag_28\n      jump\t// in\n    tag_25:\n      stop\n        /* \"database/processing/IngressDatabase.sol\":1028:1148  function addChecked(uint256 ingressId) public onlyPermissions {... */\n    tag_8:\n      tag_29\n      0x04\n      dup1\n      calldatasize\n      sub\n      dup2\n      add\n      swap1\n      tag_30\n      swap2\n      swap1\n      tag_31\n      jump\t// in\n    tag_30:\n      tag_32\n      jump\t// in\n    tag_29:\n      stop\n        /* \"abstract/Ownable.sol\":2204:2442  function transferOwnership(address newOwner) public virtual onlyOwner {... */\n    tag_9:\n      tag_33\n      0x04\n      dup1\n      calldatasize\n      sub\n      dup2\n      add\n      swap1\n      tag_34\n      swap2\n      swap1\n      tag_13\n      jump\t// in\n    tag_34:\n      tag_35\n      jump\t// in\n    tag_33:\n      stop\n        /* \"database/processing/IngressDatabase.sol\":576:838  function addPermission(address contractPermission) public onlyOwner {... */\n    tag_14:\n        /* \"abstract/Ownable.sol\":1175:1188  _checkOwner() */\n      tag_37\n        /* \"abstract/Ownable.sol\":1175:1186  _checkOwner */\n      tag_38\n        /* \"abstract/Ownable.sol\":1175:1188  _checkOwner() */\n      jump\t// in\n    tag_37:\n        /* \"database/processing/IngressDatabase.sol\":678:689  permissions */\n      0x03\n        /* \"database/processing/IngressDatabase.sol\":678:709  permissions[contractPermission] */\n      0x00\n        /* \"database/processing/IngressDatabase.sol\":690:708  contractPermission */\n      dup3\n        /* \"database/processing/IngressDatabase.sol\":678:709  permissions[contractPermission] */\n      0xffffffffffffffffffffffffffffffffffffffff\n      and\n      0xffffffffffffffffffffffffffffffffffffffff\n      and\n      dup2\n      mstore\n      0x20\n      add\n      swap1\n      dup2\n      mstore\n      0x20\n      add\n      0x00\n      keccak256\n      0x00\n      swap1\n      sload\n      swap1\n      0x0100\n      exp\n      swap1\n      div\n      0xff\n      and\n        /* \"database/processing/IngressDatabase.sol\":677:709  !permissions[contractPermission] */\n      iszero\n        /* \"database/processing/IngressDatabase.sol\":655:781  require(... */\n      tag_40\n      jumpi\n      mload(0x40)\n      0x08c379a000000000000000000000000000000000000000000000000000000000\n      dup2\n      mstore\n      0x04\n      add\n      tag_41\n      swap1\n      tag_42\n      jump\t// in\n    tag_41:\n      mload(0x40)\n      dup1\n      swap2\n      sub\n      swap1\n      revert\n    tag_40:\n        /* \"database/processing/IngressDatabase.sol\":826:830  true */\n      0x01\n        /* \"database/processing/IngressDatabase.sol\":792:803  permissions */\n      0x03\n        /* \"database/processing/IngressDatabase.sol\":792:823  permissions[contractPermission] */\n      0x00\n        /* \"database/processing/IngressDatabase.sol\":804:822  contractPermission */\n      dup4\n        /* \"database/processing/IngressDatabase.sol\":792:823  permissions[contractPermission] */\n      0xffffffffffffffffffffffffffffffffffffffff\n      and\n      0xffffffffffffffffffffffffffffffffffffffff\n      and\n      dup2\n      mstore\n      0x20\n      add\n      swap1\n      dup2\n      mstore\n      0x20\n      add\n      0x00\n      keccak256\n      0x00\n        /* \"database/processing/IngressDatabase.sol\":792:830  permissions[contractPermission] = true */\n      0x0100\n      exp\n      dup2\n      sload\n      dup2\n      0xff\n      mul\n      not\n      and\n      swap1\n      dup4\n      iszero\n      iszero\n      mul\n      or\n      swap1\n      sstore\n      pop\n        /* \"database/processing/IngressDatabase.sol\":576:838  function addPermission(address contractPermission) public onlyOwner {... */\n      pop\n      jump\t// out\n        /* \"database/processing/IngressDatabase.sol\":1156:1307  function getAllIngress()... */\n    tag_16:\n        /* \"database/processing/IngressDatabase.sol\":1254:1270  Ingress[] memory */\n      0x60\n        /* \"database/processing/IngressDatabase.sol\":413:424  permissions */\n      0x03\n        /* \"database/processing/IngressDatabase.sol\":413:438  permissions[_msgSender()] */\n      0x00\n        /* \"database/processing/IngressDatabase.sol\":425:437  _msgSender() */\n      tag_44\n        /* \"database/processing/IngressDatabase.sol\":425:435  _msgSender */\n      tag_45\n        /* \"database/processing/IngressDatabase.sol\":425:437  _msgSender() */\n      jump\t// in\n    tag_44:\n        /* \"database/processing/IngressDatabase.sol\":413:438  permissions[_msgSender()] */\n      0xffffffffffffffffffffffffffffffffffffffff\n      and\n      0xffffffffffffffffffffffffffffffffffffffff\n      and\n      dup2\n      mstore\n      0x20\n      add\n      swap1\n      dup2\n      mstore\n      0x20\n      add\n      0x00\n      keccak256\n      0x00\n      swap1\n      sload\n      swap1\n      0x0100\n      exp\n      swap1\n      div\n      0xff\n      and\n        /* \"database/processing/IngressDatabase.sol\":391:514  require(... */\n      tag_46\n      jumpi\n      mload(0x40)\n      0x08c379a000000000000000000000000000000000000000000000000000000000\n      dup2\n      mstore\n      0x04\n      add\n      tag_47\n      swap1\n      tag_48\n      jump\t// in\n    tag_47:\n      mload(0x40)\n      dup1\n      swap2\n      sub\n      swap1\n      revert\n    tag_46:\n        /* \"database/processing/IngressDatabase.sol\":1295:1299  list */\n      0x01\n        /* \"database/processing/IngressDatabase.sol\":1288:1299  return list */\n      dup1\n      sload\n      dup1\n      0x20\n      mul\n      0x20\n      add\n      mload(0x40)\n      swap1\n      dup2\n      add\n      0x40\n      mstore\n      dup1\n      swap3\n      swap2\n      swap1\n      dup2\n      dup2\n      mstore\n      0x20\n      add\n      0x00\n      swap1\n    tag_50:\n      dup3\n      dup3\n      lt\n      iszero\n      tag_51\n      jumpi\n      dup4\n      dup3\n      swap1\n      0x00\n      mstore\n      keccak256(0x00, 0x20)\n      swap1\n      0x09\n      mul\n      add\n      mload(0x40)\n      dup1\n      0x0120\n      add\n      0x40\n      mstore\n      swap1\n      dup2\n      0x00\n      dup3\n      add\n      sload\n      dup2\n      mstore\n      0x20\n      add\n      0x01\n      dup3\n      add\n      dup1\n      sload\n      tag_53\n      swap1\n      tag_54\n      jump\t// in\n    tag_53:\n      dup1\n      0x1f\n      add\n      0x20\n      dup1\n      swap2\n      div\n      mul\n      0x20\n      add\n      mload(0x40)\n      swap1\n      dup2\n      add\n      0x40\n      mstore\n      dup1\n      swap3\n      swap2\n      swap1\n      dup2\n      dup2\n      mstore\n      0x20\n      add\n      dup3\n      dup1\n      sload\n      tag_55\n      swap1\n      tag_54\n      jump\t// in\n    tag_55:\n      dup1\n      iszero\n      tag_56\n      jumpi\n      dup1\n      0x1f\n      lt\n      tag_57\n      jumpi\n      0x0100\n      dup1\n      dup4\n      sload\n      div\n      mul\n      dup4\n      mstore\n      swap2\n      0x20\n      add\n      swap2\n      jump(tag_56)\n    tag_57:\n      dup3\n      add\n      swap2\n      swap1\n      0x00\n      mstore\n      keccak256(0x00, 0x20)\n      swap1\n    tag_58:\n      dup2\n      sload\n      dup2\n      mstore\n      swap1\n      0x01\n      add\n      swap1\n      0x20\n      add\n      dup1\n      dup4\n      gt\n      tag_58\n      jumpi\n      dup3\n      swap1\n      sub\n      0x1f\n      and\n      dup3\n      add\n      swap2\n    tag_56:\n      pop\n      pop\n      pop\n      pop\n      pop\n      dup2\n      mstore\n      0x20\n      add\n      0x02\n      dup3\n      add\n      0x00\n      swap1\n      sload\n      swap1\n      0x0100\n      exp\n      swap1\n      div\n      0xffffffffffffffffffffffffffffffffffffffff\n      and\n      0xffffffffffffffffffffffffffffffffffffffff\n      and\n      0xffffffffffffffffffffffffffffffffffffffff\n      and\n      dup2\n      mstore\n      0x20\n      add\n      0x03\n      dup3\n      add\n      sload\n      dup2\n      mstore\n      0x20\n      add\n      0x04\n      dup3\n      add\n      dup1\n      sload\n      tag_59\n      swap1\n      tag_54\n      jump\t// in\n    tag_59:\n      dup1\n      0x1f\n      add\n      0x20\n      dup1\n      swap2\n      div\n      mul\n      0x20\n      add\n      mload(0x40)\n      swap1\n      dup2\n      add\n      0x40\n      mstore\n      dup1\n      swap3\n      swap2\n      swap1\n      dup2\n      dup2\n      mstore\n      0x20\n      add\n      dup3\n      dup1\n      sload\n      tag_60\n      swap1\n      tag_54\n      jump\t// in\n    tag_60:\n      dup1\n      iszero\n      tag_61\n      jumpi\n      dup1\n      0x1f\n      lt\n      tag_62\n      jumpi\n      0x0100\n      dup1\n      dup4\n      sload\n      div\n      mul\n      dup4\n      mstore\n      swap2\n      0x20\n      add\n      swap2\n      jump(tag_61)\n    tag_62:\n      dup3\n      add\n      swap2\n      swap1\n      0x00\n      mstore\n      keccak256(0x00, 0x20)\n      swap1\n    tag_63:\n      dup2\n      sload\n      dup2\n      mstore\n      swap1\n      0x01\n      add\n      swap1\n      0x20\n      add\n      dup1\n      dup4\n      gt\n      tag_63\n      jumpi\n      dup3\n      swap1\n      sub\n      0x1f\n      and\n      dup3\n      add\n      swap2\n    tag_61:\n      pop\n      pop\n      pop\n      pop\n      pop\n      dup2\n      mstore\n      0x20\n      add\n      0x05\n      dup3\n      add\n      dup1\n      sload\n      tag_64\n      swap1\n      tag_54\n      jump\t// in\n    tag_64:\n      dup1\n      0x1f\n      add\n      0x20\n      dup1\n      swap2\n      div\n      mul\n      0x20\n      add\n      mload(0x40)\n      swap1\n      dup2\n      add\n      0x40\n      mstore\n      dup1\n      swap3\n      swap2\n      swap1\n      dup2\n      dup2\n      mstore\n      0x20\n      add\n      dup3\n      dup1\n      sload\n      tag_65\n      swap1\n      tag_54\n      jump\t// in\n    tag_65:\n      dup1\n      iszero\n      tag_66\n      jumpi\n      dup1\n      0x1f\n      lt\n      tag_67\n      jumpi\n      0x0100\n      dup1\n      dup4\n      sload\n      div\n      mul\n      dup4\n      mstore\n      swap2\n      0x20\n      add\n      swap2\n      jump(tag_66)\n    tag_67:\n      dup3\n      add\n      swap2\n      swap1\n      0x00\n      mstore\n      keccak256(0x00, 0x20)\n      swap1\n    tag_68:\n      dup2\n      sload\n      dup2\n      mstore\n      swap1\n      0x01\n      add\n      swap1\n      0x20\n      add\n      dup1\n      dup4\n      gt\n      tag_68\n      jumpi\n      dup3\n      swap1\n      sub\n      0x1f\n      and\n      dup3\n      add\n      swap2\n    tag_66:\n      pop\n      pop\n      pop\n      pop\n      pop\n      dup2\n      mstore\n      0x20\n      add\n      0x06\n      dup3\n      add\n      dup1\n      sload\n      tag_69\n      swap1\n      tag_54\n      jump\t// in\n    tag_69:\n      dup1\n      0x1f\n      add\n      0x20\n      dup1\n      swap2\n      div\n      mul\n      0x20\n      add\n      mload(0x40)\n      swap1\n      dup2\n      add\n      0x40\n      mstore\n      dup1\n      swap3\n      swap2\n      swap1\n      dup2\n      dup2\n      mstore\n      0x20\n      add\n      dup3\n      dup1\n      sload\n      tag_70\n      swap1\n      tag_54\n      jump\t// in\n    tag_70:\n      dup1\n      iszero\n      tag_71\n      jumpi\n      dup1\n      0x1f\n      lt\n      tag_72\n      jumpi\n      0x0100\n      dup1\n      dup4\n      sload\n      div\n      mul\n      dup4\n      mstore\n      swap2\n      0x20\n      add\n      swap2\n      jump(tag_71)\n    tag_72:\n      dup3\n      add\n      swap2\n      swap1\n      0x00\n      mstore\n      keccak256(0x00, 0x20)\n      swap1\n    tag_73:\n      dup2\n      sload\n      dup2\n      mstore\n      swap1\n      0x01\n      add\n      swap1\n      0x20\n      add\n      dup1\n      dup4\n      gt\n      tag_73\n      jumpi\n      dup3\n      swap1\n      sub\n      0x1f\n      and\n      dup3\n      add\n      swap2\n    tag_71:\n      pop\n      pop\n      pop\n      pop\n      pop\n      dup2\n      mstore\n      0x20\n      add\n      0x07\n      dup3\n      add\n      sload\n      dup2\n      mstore\n      0x20\n      add\n      0x08\n      dup3\n      add\n      0x00\n      swap1\n      sload\n      swap1\n      0x0100\n      exp\n      swap1\n      div\n      0xff\n      and\n      iszero\n      iszero\n      iszero\n      iszero\n      dup2\n      mstore\n      pop\n      pop\n      dup2\n      mstore\n      0x20\n      add\n      swap1\n      0x01\n      add\n      swap1\n      jump(tag_50)\n    tag_51:\n      pop\n      pop\n      pop\n      pop\n      swap1\n      pop\n        /* \"database/processing/IngressDatabase.sol\":1156:1307  function getAllIngress()... */\n      swap1\n      jump\t// out\n        /* \"abstract/Ownable.sol\":2801:2892  function destroy() public onlyOwner {... */\n    tag_20:\n        /* \"abstract/Ownable.sol\":1175:1188  _checkOwner() */\n      tag_75\n        /* \"abstract/Ownable.sol\":1175:1186  _checkOwner */\n      tag_38\n        /* \"abstract/Ownable.sol\":1175:1188  _checkOwner() */\n      jump\t// in\n    tag_75:\n        /* \"abstract/Ownable.sol\":2877:2881  this */\n      address\n        /* \"abstract/Ownable.sol\":2848:2884  selfdestruct(payable(address(this))) */\n      0xffffffffffffffffffffffffffffffffffffffff\n      and\n      selfdestruct\n        /* \"abstract/Ownable.sol\":1289:1376  function owner() public view virtual returns (address) {... */\n    tag_22:\n        /* \"abstract/Ownable.sol\":1335:1342  address */\n      0x00\n        /* \"abstract/Ownable.sol\":1362:1368  _owner */\n      dup1\n      0x00\n      swap1\n      sload\n      swap1\n      0x0100\n      exp\n      swap1\n      div\n      0xffffffffffffffffffffffffffffffffffffffff\n      and\n        /* \"abstract/Ownable.sol\":1355:1368  return _owner */\n      swap1\n      pop\n        /* \"abstract/Ownable.sol\":1289:1376  function owner() public view virtual returns (address) {... */\n      swap1\n      jump\t// out\n        /* \"database/processing/IngressDatabase.sol\":846:1020  function addIngress(Ingress memory ingress) public onlyPermissions {... */\n    tag_28:\n        /* \"database/processing/IngressDatabase.sol\":413:424  permissions */\n      0x03\n        /* \"database/processing/IngressDatabase.sol\":413:438  permissions[_msgSender()] */\n      0x00\n        /* \"database/processing/IngressDatabase.sol\":425:437  _msgSender() */\n      tag_79\n        /* \"database/processing/IngressDatabase.sol\":425:435  _msgSender */\n      tag_45\n        /* \"database/processing/IngressDatabase.sol\":425:437  _msgSender() */\n      jump\t// in\n    tag_79:\n        /* \"database/processing/IngressDatabase.sol\":413:438  permissions[_msgSender()] */\n      0xffffffffffffffffffffffffffffffffffffffff\n      and\n      0xffffffffffffffffffffffffffffffffffffffff\n      and\n      dup2\n      mstore\n      0x20\n      add\n      swap1\n      dup2\n      mstore\n      0x20\n      add\n      0x00\n      keccak256\n      0x00\n      swap1\n      sload\n      swap1\n      0x0100\n      exp\n      swap1\n      div\n      0xff\n      and\n        /* \"database/processing/IngressDatabase.sol\":391:514  require(... */\n      tag_80\n      jumpi\n      mload(0x40)\n      0x08c379a000000000000000000000000000000000000000000000000000000000\n      dup2\n      mstore\n      0x04\n      add\n      tag_81\n      swap1\n      tag_48\n      jump\t// in\n    tag_81:\n      mload(0x40)\n      dup1\n      swap2\n      sub\n      swap1\n      revert\n    tag_80:\n        /* \"database/processing/IngressDatabase.sol\":924:934  uint256 id */\n      0x00\n        /* \"database/processing/IngressDatabase.sol\":937:950  autoIncrement */\n      0x02\n      0x00\n        /* \"database/processing/IngressDatabase.sol\":937:952  autoIncrement++ */\n      dup2\n      sload\n      dup1\n      swap3\n      swap2\n      swap1\n      tag_83\n      swap1\n      tag_84\n      jump\t// in\n    tag_83:\n      swap2\n      swap1\n      pop\n      sstore\n        /* \"database/processing/IngressDatabase.sol\":924:952  uint256 id = autoIncrement++ */\n      swap1\n      pop\n        /* \"database/processing/IngressDatabase.sol\":981:983  id */\n      dup1\n        /* \"database/processing/IngressDatabase.sol\":963:970  ingress */\n      dup3\n        /* \"database/processing/IngressDatabase.sol\":963:978  ingress.batchId */\n      0x00\n      add\n        /* \"database/processing/IngressDatabase.sol\":963:983  ingress.batchId = id */\n      dup2\n      dup2\n      mstore\n      pop\n      pop\n        /* \"database/processing/IngressDatabase.sol\":994:998  list */\n      0x01\n        /* \"database/processing/IngressDatabase.sol\":1004:1011  ingress */\n      dup3\n        /* \"database/processing/IngressDatabase.sol\":994:1012  list.push(ingress) */\n      swap1\n      dup1\n      0x01\n      dup2\n      sload\n      add\n      dup1\n      dup3\n      sstore\n      dup1\n      swap2\n      pop\n      pop\n      0x01\n      swap1\n      sub\n      swap1\n      0x00\n      mstore\n      keccak256(0x00, 0x20)\n      swap1\n      0x09\n      mul\n      add\n      0x00\n      swap1\n      swap2\n      swap1\n      swap2\n      swap1\n      swap2\n      pop\n      0x00\n      dup3\n      add\n      mload\n      dup2\n      0x00\n      add\n      sstore\n      0x20\n      dup3\n      add\n      mload\n      dup2\n      0x01\n      add\n      swap1\n      dup2\n      tag_86\n      swap2\n      swap1\n      tag_87\n      jump\t// in\n    tag_86:\n      pop\n      0x40\n      dup3\n      add\n      mload\n      dup2\n      0x02\n      add\n      exp(0x0100, 0x00)\n      dup2\n      sload\n      dup2\n      0xffffffffffffffffffffffffffffffffffffffff\n      mul\n      not\n      and\n      swap1\n      dup4\n      0xffffffffffffffffffffffffffffffffffffffff\n      and\n      mul\n      or\n      swap1\n      sstore\n      pop\n      0x60\n      dup3\n      add\n      mload\n      dup2\n      0x03\n      add\n      sstore\n      0x80\n      dup3\n      add\n      mload\n      dup2\n      0x04\n      add\n      swap1\n      dup2\n      tag_88\n      swap2\n      swap1\n      tag_87\n      jump\t// in\n    tag_88:\n      pop\n      0xa0\n      dup3\n      add\n      mload\n      dup2\n      0x05\n      add\n      swap1\n      dup2\n      tag_89\n      swap2\n      swap1\n      tag_87\n      jump\t// in\n    tag_89:\n      pop\n      0xc0\n      dup3\n      add\n      mload\n      dup2\n      0x06\n      add\n      swap1\n      dup2\n      tag_90\n      swap2\n      swap1\n      tag_87\n      jump\t// in\n    tag_90:\n      pop\n      0xe0\n      dup3\n      add\n      mload\n      dup2\n      0x07\n      add\n      sstore\n      0x0100\n      dup3\n      add\n      mload\n      dup2\n      0x08\n      add\n      exp(0x0100, 0x00)\n      dup2\n      sload\n      dup2\n      0xff\n      mul\n      not\n      and\n      swap1\n      dup4\n      iszero\n      iszero\n      mul\n      or\n      swap1\n      sstore\n      pop\n      pop\n      pop\n        /* \"database/processing/IngressDatabase.sol\":913:1020  {... */\n      pop\n        /* \"database/processing/IngressDatabase.sol\":846:1020  function addIngress(Ingress memory ingress) public onlyPermissions {... */\n      pop\n      jump\t// out\n        /* \"database/processing/IngressDatabase.sol\":1028:1148  function addChecked(uint256 ingressId) public onlyPermissions {... */\n    tag_32:\n        /* \"database/processing/IngressDatabase.sol\":413:424  permissions */\n      0x03\n        /* \"database/processing/IngressDatabase.sol\":413:438  permissions[_msgSender()] */\n      0x00\n        /* \"database/processing/IngressDatabase.sol\":425:437  _msgSender() */\n      tag_92\n        /* \"database/processing/IngressDatabase.sol\":425:435  _msgSender */\n      tag_45\n        /* \"database/processing/IngressDatabase.sol\":425:437  _msgSender() */\n      jump\t// in\n    tag_92:\n        /* \"database/processing/IngressDatabase.sol\":413:438  permissions[_msgSender()] */\n      0xffffffffffffffffffffffffffffffffffffffff\n      and\n      0xffffffffffffffffffffffffffffffffffffffff\n      and\n      dup2\n      mstore\n      0x20\n      add\n      swap1\n      dup2\n      mstore\n      0x20\n      add\n      0x00\n      keccak256\n      0x00\n      swap1\n      sload\n      swap1\n      0x0100\n      exp\n      swap1\n      div\n      0xff\n      and\n        /* \"database/processing/IngressDatabase.sol\":391:514  require(... */\n      tag_93\n      jumpi\n      mload(0x40)\n      0x08c379a000000000000000000000000000000000000000000000000000000000\n      dup2\n      mstore\n      0x04\n      add\n      tag_94\n      swap1\n      tag_48\n      jump\t// in\n    tag_94:\n      mload(0x40)\n      dup1\n      swap2\n      sub\n      swap1\n      revert\n    tag_93:\n        /* \"database/processing/IngressDatabase.sol\":1136:1140  true */\n      0x01\n        /* \"database/processing/IngressDatabase.sol\":1101:1105  list */\n      dup1\n        /* \"database/processing/IngressDatabase.sol\":1106:1115  ingressId */\n      dup3\n        /* \"database/processing/IngressDatabase.sol\":1101:1116  list[ingressId] */\n      dup2\n      sload\n      dup2\n      lt\n      tag_96\n      jumpi\n      tag_97\n      tag_98\n      jump\t// in\n    tag_97:\n    tag_96:\n      swap1\n      0x00\n      mstore\n      keccak256(0x00, 0x20)\n      swap1\n      0x09\n      mul\n      add\n        /* \"database/processing/IngressDatabase.sol\":1101:1133  list[ingressId].ingressIsChecked */\n      0x08\n      add\n      0x00\n        /* \"database/processing/IngressDatabase.sol\":1101:1140  list[ingressId].ingressIsChecked = true */\n      0x0100\n      exp\n      dup2\n      sload\n      dup2\n      0xff\n      mul\n      not\n      and\n      swap1\n      dup4\n      iszero\n      iszero\n      mul\n      or\n      swap1\n      sstore\n      pop\n        /* \"database/processing/IngressDatabase.sol\":1028:1148  function addChecked(uint256 ingressId) public onlyPermissions {... */\n      pop\n      jump\t// out\n        /* \"abstract/Ownable.sol\":2204:2442  function transferOwnership(address newOwner) public virtual onlyOwner {... */\n    tag_35:\n        /* \"abstract/Ownable.sol\":1175:1188  _checkOwner() */\n      tag_101\n        /* \"abstract/Ownable.sol\":1175:1186  _checkOwner */\n      tag_38\n        /* \"abstract/Ownable.sol\":1175:1188  _checkOwner() */\n      jump\t// in\n    tag_101:\n        /* \"abstract/Ownable.sol\":2327:2328  0 */\n      0x00\n        /* \"abstract/Ownable.sol\":2307:2329  newOwner != address(0) */\n      0xffffffffffffffffffffffffffffffffffffffff\n      and\n        /* \"abstract/Ownable.sol\":2307:2315  newOwner */\n      dup2\n        /* \"abstract/Ownable.sol\":2307:2329  newOwner != address(0) */\n      0xffffffffffffffffffffffffffffffffffffffff\n      and\n      sub\n        /* \"abstract/Ownable.sol\":2285:2395  require(... */\n      tag_103\n      jumpi\n      mload(0x40)\n      0x08c379a000000000000000000000000000000000000000000000000000000000\n      dup2\n      mstore\n      0x04\n      add\n      tag_104\n      swap1\n      tag_105\n      jump\t// in\n    tag_104:\n      mload(0x40)\n      dup1\n      swap2\n      sub\n      swap1\n      revert\n    tag_103:\n        /* \"abstract/Ownable.sol\":2406:2434  _transferOwnership(newOwner) */\n      tag_106\n        /* \"abstract/Ownable.sol\":2425:2433  newOwner */\n      dup2\n        /* \"abstract/Ownable.sol\":2406:2424  _transferOwnership */\n      tag_107\n        /* \"abstract/Ownable.sol\":2406:2434  _transferOwnership(newOwner) */\n      jump\t// in\n    tag_106:\n        /* \"abstract/Ownable.sol\":2204:2442  function transferOwnership(address newOwner) public virtual onlyOwner {... */\n      pop\n      jump\t// out\n        /* \"abstract/Ownable.sol\":1454:1584  function _checkOwner() internal view virtual {... */\n    tag_38:\n        /* \"abstract/Ownable.sol\":1529:1539  msg.sender */\n      caller\n        /* \"abstract/Ownable.sol\":1518:1539  owner() == msg.sender */\n      0xffffffffffffffffffffffffffffffffffffffff\n      and\n        /* \"abstract/Ownable.sol\":1518:1525  owner() */\n      tag_109\n        /* \"abstract/Ownable.sol\":1518:1523  owner */\n      tag_22\n        /* \"abstract/Ownable.sol\":1518:1525  owner() */\n      jump\t// in\n    tag_109:\n        /* \"abstract/Ownable.sol\":1518:1539  owner() == msg.sender */\n      0xffffffffffffffffffffffffffffffffffffffff\n      and\n      eq\n        /* \"abstract/Ownable.sol\":1510:1576  require(owner() == msg.sender, \"Ownable: caller is not the owner\") */\n      tag_110\n      jumpi\n      mload(0x40)\n      0x08c379a000000000000000000000000000000000000000000000000000000000\n      dup2\n      mstore\n      0x04\n      add\n      tag_111\n      swap1\n      tag_112\n      jump\t// in\n    tag_111:\n      mload(0x40)\n      dup1\n      swap2\n      sub\n      swap1\n      revert\n    tag_110:\n        /* \"abstract/Ownable.sol\":1454:1584  function _checkOwner() internal view virtual {... */\n      jump\t// out\n        /* \"@openzeppelin/contracts/utils/Context.sol\":640:736  function _msgSender() internal view virtual returns (address) {... */\n    tag_45:\n        /* \"@openzeppelin/contracts/utils/Context.sol\":693:700  address */\n      0x00\n        /* \"@openzeppelin/contracts/utils/Context.sol\":719:729  msg.sender */\n      caller\n        /* \"@openzeppelin/contracts/utils/Context.sol\":712:729  return msg.sender */\n      swap1\n      pop\n        /* \"@openzeppelin/contracts/utils/Context.sol\":640:736  function _msgSender() internal view virtual returns (address) {... */\n      swap1\n      jump\t// out\n        /* \"abstract/Ownable.sol\":2602:2793  function _transferOwnership(address newOwner) internal virtual {... */\n    tag_107:\n        /* \"abstract/Ownable.sol\":2676:2692  address oldOwner */\n      0x00\n        /* \"abstract/Ownable.sol\":2695:2701  _owner */\n      dup1\n      0x00\n      swap1\n      sload\n      swap1\n      0x0100\n      exp\n      swap1\n      div\n      0xffffffffffffffffffffffffffffffffffffffff\n      and\n        /* \"abstract/Ownable.sol\":2676:2701  address oldOwner = _owner */\n      swap1\n      pop\n        /* \"abstract/Ownable.sol\":2721:2729  newOwner */\n      dup2\n        /* \"abstract/Ownable.sol\":2712:2718  _owner */\n      0x00\n      dup1\n        /* \"abstract/Ownable.sol\":2712:2729  _owner = newOwner */\n      0x0100\n      exp\n      dup2\n      sload\n      dup2\n      0xffffffffffffffffffffffffffffffffffffffff\n      mul\n      not\n      and\n      swap1\n      dup4\n      0xffffffffffffffffffffffffffffffffffffffff\n      and\n      mul\n      or\n      swap1\n      sstore\n      pop\n        /* \"abstract/Ownable.sol\":2776:2784  newOwner */\n      dup2\n        /* \"abstract/Ownable.sol\":2745:2785  OwnershipTransferred(oldOwner, newOwner) */\n      0xffffffffffffffffffffffffffffffffffffffff\n      and\n        /* \"abstract/Ownable.sol\":2766:2774  oldOwner */\n      dup2\n        /* \"abstract/Ownable.sol\":2745:2785  OwnershipTransferred(oldOwner, newOwner) */\n      0xffffffffffffffffffffffffffffffffffffffff\n      and\n      0x8be0079c531659141344cd1fd0a4f28419497f9722a3daafe3b4186f6b6457e0\n      mload(0x40)\n      mload(0x40)\n      dup1\n      swap2\n      sub\n      swap1\n      log3\n        /* \"abstract/Ownable.sol\":2665:2793  {... */\n      pop\n        /* \"abstract/Ownable.sol\":2602:2793  function _transferOwnership(address newOwner) internal virtual {... */\n      pop\n      jump\t// out\n        /* \"#utility.yul\":7:82   */\n    tag_115:\n        /* \"#utility.yul\":40:46   */\n      0x00\n        /* \"#utility.yul\":73:75   */\n      0x40\n        /* \"#utility.yul\":67:76   */\n      mload\n        /* \"#utility.yul\":57:76   */\n      swap1\n      pop\n        /* \"#utility.yul\":7:82   */\n      swap1\n      jump\t// out\n        /* \"#utility.yul\":88:205   */\n    tag_116:\n        /* \"#utility.yul\":197:198   */\n      0x00\n        /* \"#utility.yul\":194:195   */\n      dup1\n        /* \"#utility.yul\":187:199   */\n      revert\n        /* \"#utility.yul\":211:328   */\n    tag_117:\n        /* \"#utility.yul\":320:321   */\n      0x00\n        /* \"#utility.yul\":317:318   */\n      dup1\n        /* \"#utility.yul\":310:322   */\n      revert\n        /* \"#utility.yul\":334:460   */\n    tag_118:\n        /* \"#utility.yul\":371:378   */\n      0x00\n        /* \"#utility.yul\":411:453   */\n      0xffffffffffffffffffffffffffffffffffffffff\n        /* \"#utility.yul\":404:409   */\n      dup3\n        /* \"#utility.yul\":400:454   */\n      and\n        /* \"#utility.yul\":389:454   */\n      swap1\n      pop\n        /* \"#utility.yul\":334:460   */\n      swap2\n      swap1\n      pop\n      jump\t// out\n        /* \"#utility.yul\":466:562   */\n    tag_119:\n        /* \"#utility.yul\":503:510   */\n      0x00\n        /* \"#utility.yul\":532:556   */\n      tag_188\n        /* \"#utility.yul\":550:555   */\n      dup3\n        /* \"#utility.yul\":532:556   */\n      tag_118\n      jump\t// in\n    tag_188:\n        /* \"#utility.yul\":521:556   */\n      swap1\n      pop\n        /* \"#utility.yul\":466:562   */\n      swap2\n      swap1\n      pop\n      jump\t// out\n        /* \"#utility.yul\":568:690   */\n    tag_120:\n        /* \"#utility.yul\":641:665   */\n      tag_190\n        /* \"#utility.yul\":659:664   */\n      dup2\n        /* \"#utility.yul\":641:665   */\n      tag_119\n      jump\t// in\n    tag_190:\n        /* \"#utility.yul\":634:639   */\n      dup2\n        /* \"#utility.yul\":631:666   */\n      eq\n        /* \"#utility.yul\":621:684   */\n      tag_191\n      jumpi\n        /* \"#utility.yul\":680:681   */\n      0x00\n        /* \"#utility.yul\":677:678   */\n      dup1\n        /* \"#utility.yul\":670:682   */\n      revert\n        /* \"#utility.yul\":621:684   */\n    tag_191:\n        /* \"#utility.yul\":568:690   */\n      pop\n      jump\t// out\n        /* \"#utility.yul\":696:835   */\n    tag_121:\n        /* \"#utility.yul\":742:747   */\n      0x00\n        /* \"#utility.yul\":780:786   */\n      dup2\n        /* \"#utility.yul\":767:787   */\n      calldataload\n        /* \"#utility.yul\":758:787   */\n      swap1\n      pop\n        /* \"#utility.yul\":796:829   */\n      tag_193\n        /* \"#utility.yul\":823:828   */\n      dup2\n        /* \"#utility.yul\":796:829   */\n      tag_120\n      jump\t// in\n    tag_193:\n        /* \"#utility.yul\":696:835   */\n      swap3\n      swap2\n      pop\n      pop\n      jump\t// out\n        /* \"#utility.yul\":841:1170   */\n    tag_13:\n        /* \"#utility.yul\":900:906   */\n      0x00\n        /* \"#utility.yul\":949:951   */\n      0x20\n        /* \"#utility.yul\":937:946   */\n      dup3\n        /* \"#utility.yul\":928:935   */\n      dup5\n        /* \"#utility.yul\":924:947   */\n      sub\n        /* \"#utility.yul\":920:952   */\n      slt\n        /* \"#utility.yul\":917:1036   */\n      iszero\n      tag_195\n      jumpi\n        /* \"#utility.yul\":955:1034   */\n      tag_196\n      tag_116\n      jump\t// in\n    tag_196:\n        /* \"#utility.yul\":917:1036   */\n    tag_195:\n        /* \"#utility.yul\":1075:1076   */\n      0x00\n        /* \"#utility.yul\":1100:1153   */\n      tag_197\n        /* \"#utility.yul\":1145:1152   */\n      dup5\n        /* \"#utility.yul\":1136:1142   */\n      dup3\n        /* \"#utility.yul\":1125:1134   */\n      dup6\n        /* \"#utility.yul\":1121:1143   */\n      add\n        /* \"#utility.yul\":1100:1153   */\n      tag_121\n      jump\t// in\n    tag_197:\n        /* \"#utility.yul\":1090:1153   */\n      swap2\n      pop\n        /* \"#utility.yul\":1046:1163   */\n      pop\n        /* \"#utility.yul\":841:1170   */\n      swap3\n      swap2\n      pop\n      pop\n      jump\t// out\n        /* \"#utility.yul\":1176:1314   */\n    tag_122:\n        /* \"#utility.yul\":1267:1273   */\n      0x00\n        /* \"#utility.yul\":1301:1306   */\n      dup2\n        /* \"#utility.yul\":1295:1307   */\n      mload\n        /* \"#utility.yul\":1285:1307   */\n      swap1\n      pop\n        /* \"#utility.yul\":1176:1314   */\n      swap2\n      swap1\n      pop\n      jump\t// out\n        /* \"#utility.yul\":1320:1528   */\n    tag_123:\n        /* \"#utility.yul\":1443:1454   */\n      0x00\n        /* \"#utility.yul\":1477:1483   */\n      dup3\n        /* \"#utility.yul\":1472:1475   */\n      dup3\n        /* \"#utility.yul\":1465:1484   */\n      mstore\n        /* \"#utility.yul\":1517:1521   */\n      0x20\n        /* \"#utility.yul\":1512:1515   */\n      dup3\n        /* \"#utility.yul\":1508:1522   */\n      add\n        /* \"#utility.yul\":1493:1522   */\n      swap1\n      pop\n        /* \"#utility.yul\":1320:1528   */\n      swap3\n      swap2\n      pop\n      pop\n      jump\t// out\n        /* \"#utility.yul\":1534:1690   */\n    tag_124:\n        /* \"#utility.yul\":1625:1629   */\n      0x00\n        /* \"#utility.yul\":1648:1651   */\n      dup2\n        /* \"#utility.yul\":1640:1651   */\n      swap1\n      pop\n        /* \"#utility.yul\":1678:1682   */\n      0x20\n        /* \"#utility.yul\":1673:1676   */\n      dup3\n        /* \"#utility.yul\":1669:1683   */\n      add\n        /* \"#utility.yul\":1661:1683   */\n      swap1\n      pop\n        /* \"#utility.yul\":1534:1690   */\n      swap2\n      swap1\n      pop\n      jump\t// out\n        /* \"#utility.yul\":1696:1773   */\n    tag_125:\n        /* \"#utility.yul\":1733:1740   */\n      0x00\n        /* \"#utility.yul\":1762:1767   */\n      dup2\n        /* \"#utility.yul\":1751:1767   */\n      swap1\n      pop\n        /* \"#utility.yul\":1696:1773   */\n      swap2\n      swap1\n      pop\n      jump\t// out\n        /* \"#utility.yul\":1779:1887   */\n    tag_126:\n        /* \"#utility.yul\":1856:1880   */\n      tag_203\n        /* \"#utility.yul\":1874:1879   */\n      dup2\n        /* \"#utility.yul\":1856:1880   */\n      tag_125\n      jump\t// in\n    tag_203:\n        /* \"#utility.yul\":1851:1854   */\n      dup3\n        /* \"#utility.yul\":1844:1881   */\n      mstore\n        /* \"#utility.yul\":1779:1887   */\n      pop\n      pop\n      jump\t// out\n        /* \"#utility.yul\":1893:1992   */\n    tag_127:\n        /* \"#utility.yul\":1945:1951   */\n      0x00\n        /* \"#utility.yul\":1979:1984   */\n      dup2\n        /* \"#utility.yul\":1973:1985   */\n      mload\n        /* \"#utility.yul\":1963:1985   */\n      swap1\n      pop\n        /* \"#utility.yul\":1893:1992   */\n      swap2\n      swap1\n      pop\n      jump\t// out\n        /* \"#utility.yul\":1998:2157   */\n    tag_128:\n        /* \"#utility.yul\":2072:2083   */\n      0x00\n        /* \"#utility.yul\":2106:2112   */\n      dup3\n        /* \"#utility.yul\":2101:2104   */\n      dup3\n        /* \"#utility.yul\":2094:2113   */\n      mstore\n        /* \"#utility.yul\":2146:2150   */\n      0x20\n        /* \"#utility.yul\":2141:2144   */\n      dup3\n        /* \"#utility.yul\":2137:2151   */\n      add\n        /* \"#utility.yul\":2122:2151   */\n      swap1\n      pop\n        /* \"#utility.yul\":1998:2157   */\n      swap3\n      swap2\n      pop\n      pop\n      jump\t// out\n        /* \"#utility.yul\":2163:2409   */\n    tag_129:\n        /* \"#utility.yul\":2244:2245   */\n      0x00\n        /* \"#utility.yul\":2254:2367   */\n    tag_207:\n        /* \"#utility.yul\":2268:2274   */\n      dup4\n        /* \"#utility.yul\":2265:2266   */\n      dup2\n        /* \"#utility.yul\":2262:2275   */\n      lt\n        /* \"#utility.yul\":2254:2367   */\n      iszero\n      tag_209\n      jumpi\n        /* \"#utility.yul\":2353:2354   */\n      dup1\n        /* \"#utility.yul\":2348:2351   */\n      dup3\n        /* \"#utility.yul\":2344:2355   */\n      add\n        /* \"#utility.yul\":2338:2356   */\n      mload\n        /* \"#utility.yul\":2334:2335   */\n      dup2\n        /* \"#utility.yul\":2329:2332   */\n      dup5\n        /* \"#utility.yul\":2325:2336   */\n      add\n        /* \"#utility.yul\":2318:2357   */\n      mstore\n        /* \"#utility.yul\":2290:2292   */\n      0x20\n        /* \"#utility.yul\":2287:2288   */\n      dup2\n        /* \"#utility.yul\":2283:2293   */\n      add\n        /* \"#utility.yul\":2278:2293   */\n      swap1\n      pop\n        /* \"#utility.yul\":2254:2367   */\n      jump(tag_207)\n    tag_209:\n        /* \"#utility.yul\":2401:2402   */\n      0x00\n        /* \"#utility.yul\":2392:2398   */\n      dup5\n        /* \"#utility.yul\":2387:2390   */\n      dup5\n        /* \"#utility.yul\":2383:2399   */\n      add\n        /* \"#utility.yul\":2376:2403   */\n      mstore\n        /* \"#utility.yul\":2225:2409   */\n      pop\n        /* \"#utility.yul\":2163:2409   */\n      pop\n      pop\n      pop\n      jump\t// out\n        /* \"#utility.yul\":2415:2517   */\n    tag_130:\n        /* \"#utility.yul\":2456:2462   */\n      0x00\n        /* \"#utility.yul\":2507:2509   */\n      0x1f\n        /* \"#utility.yul\":2503:2510   */\n      not\n        /* \"#utility.yul\":2498:2500   */\n      0x1f\n        /* \"#utility.yul\":2491:2496   */\n      dup4\n        /* \"#utility.yul\":2487:2501   */\n      add\n        /* \"#utility.yul\":2483:2511   */\n      and\n        /* \"#utility.yul\":2473:2511   */\n      swap1\n      pop\n        /* \"#utility.yul\":2415:2517   */\n      swap2\n      swap1\n      pop\n      jump\t// out\n        /* \"#utility.yul\":2523:2880   */\n    tag_131:\n        /* \"#utility.yul\":2601:2604   */\n      0x00\n        /* \"#utility.yul\":2629:2668   */\n      tag_212\n        /* \"#utility.yul\":2662:2667   */\n      dup3\n        /* \"#utility.yul\":2629:2668   */\n      tag_127\n      jump\t// in\n    tag_212:\n        /* \"#utility.yul\":2684:2745   */\n      tag_213\n        /* \"#utility.yul\":2738:2744   */\n      dup2\n        /* \"#utility.yul\":2733:2736   */\n      dup6\n        /* \"#utility.yul\":2684:2745   */\n      tag_128\n      jump\t// in\n    tag_213:\n        /* \"#utility.yul\":2677:2745   */\n      swap4\n      pop\n        /* \"#utility.yul\":2754:2819   */\n      tag_214\n        /* \"#utility.yul\":2812:2818   */\n      dup2\n        /* \"#utility.yul\":2807:2810   */\n      dup6\n        /* \"#utility.yul\":2800:2804   */\n      0x20\n        /* \"#utility.yul\":2793:2798   */\n      dup7\n        /* \"#utility.yul\":2789:2805   */\n      add\n        /* \"#utility.yul\":2754:2819   */\n      tag_129\n      jump\t// in\n    tag_214:\n        /* \"#utility.yul\":2844:2873   */\n      tag_215\n        /* \"#utility.yul\":2866:2872   */\n      dup2\n        /* \"#utility.yul\":2844:2873   */\n      tag_130\n      jump\t// in\n    tag_215:\n        /* \"#utility.yul\":2839:2842   */\n      dup5\n        /* \"#utility.yul\":2835:2874   */\n      add\n        /* \"#utility.yul\":2828:2874   */\n      swap2\n      pop\n        /* \"#utility.yul\":2605:2880   */\n      pop\n        /* \"#utility.yul\":2523:2880   */\n      swap3\n      swap2\n      pop\n      pop\n      jump\t// out\n        /* \"#utility.yul\":2886:2994   */\n    tag_132:\n        /* \"#utility.yul\":2963:2987   */\n      tag_217\n        /* \"#utility.yul\":2981:2986   */\n      dup2\n        /* \"#utility.yul\":2963:2987   */\n      tag_119\n      jump\t// in\n    tag_217:\n        /* \"#utility.yul\":2958:2961   */\n      dup3\n        /* \"#utility.yul\":2951:2988   */\n      mstore\n        /* \"#utility.yul\":2886:2994   */\n      pop\n      pop\n      jump\t// out\n        /* \"#utility.yul\":3000:3090   */\n    tag_133:\n        /* \"#utility.yul\":3034:3041   */\n      0x00\n        /* \"#utility.yul\":3077:3082   */\n      dup2\n        /* \"#utility.yul\":3070:3083   */\n      iszero\n        /* \"#utility.yul\":3063:3084   */\n      iszero\n        /* \"#utility.yul\":3052:3084   */\n      swap1\n      pop\n        /* \"#utility.yul\":3000:3090   */\n      swap2\n      swap1\n      pop\n      jump\t// out\n        /* \"#utility.yul\":3096:3195   */\n    tag_134:\n        /* \"#utility.yul\":3167:3188   */\n      tag_220\n        /* \"#utility.yul\":3182:3187   */\n      dup2\n        /* \"#utility.yul\":3167:3188   */\n      tag_133\n      jump\t// in\n    tag_220:\n        /* \"#utility.yul\":3162:3165   */\n      dup3\n        /* \"#utility.yul\":3155:3189   */\n      mstore\n        /* \"#utility.yul\":3096:3195   */\n      pop\n      pop\n      jump\t// out\n        /* \"#utility.yul\":3241:5328   */\n    tag_135:\n        /* \"#utility.yul\":3348:3351   */\n      0x00\n        /* \"#utility.yul\":3384:3390   */\n      0x0120\n        /* \"#utility.yul\":3379:3382   */\n      dup4\n        /* \"#utility.yul\":3375:3391   */\n      add\n        /* \"#utility.yul\":3476:3480   */\n      0x00\n        /* \"#utility.yul\":3469:3474   */\n      dup4\n        /* \"#utility.yul\":3465:3481   */\n      add\n        /* \"#utility.yul\":3459:3482   */\n      mload\n        /* \"#utility.yul\":3495:3558   */\n      tag_222\n        /* \"#utility.yul\":3552:3556   */\n      0x00\n        /* \"#utility.yul\":3547:3550   */\n      dup7\n        /* \"#utility.yul\":3543:3557   */\n      add\n        /* \"#utility.yul\":3529:3541   */\n      dup3\n        /* \"#utility.yul\":3495:3558   */\n      tag_126\n      jump\t// in\n    tag_222:\n        /* \"#utility.yul\":3401:3568   */\n      pop\n        /* \"#utility.yul\":3654:3658   */\n      0x20\n        /* \"#utility.yul\":3647:3652   */\n      dup4\n        /* \"#utility.yul\":3643:3659   */\n      add\n        /* \"#utility.yul\":3637:3660   */\n      mload\n        /* \"#utility.yul\":3707:3710   */\n      dup5\n        /* \"#utility.yul\":3701:3705   */\n      dup3\n        /* \"#utility.yul\":3697:3711   */\n      sub\n        /* \"#utility.yul\":3690:3694   */\n      0x20\n        /* \"#utility.yul\":3685:3688   */\n      dup7\n        /* \"#utility.yul\":3681:3695   */\n      add\n        /* \"#utility.yul\":3674:3712   */\n      mstore\n        /* \"#utility.yul\":3733:3806   */\n      tag_223\n        /* \"#utility.yul\":3801:3805   */\n      dup3\n        /* \"#utility.yul\":3787:3799   */\n      dup3\n        /* \"#utility.yul\":3733:3806   */\n      tag_131\n      jump\t// in\n    tag_223:\n        /* \"#utility.yul\":3725:3806   */\n      swap2\n      pop\n        /* \"#utility.yul\":3578:3817   */\n      pop\n        /* \"#utility.yul\":3906:3910   */\n      0x40\n        /* \"#utility.yul\":3899:3904   */\n      dup4\n        /* \"#utility.yul\":3895:3911   */\n      add\n        /* \"#utility.yul\":3889:3912   */\n      mload\n        /* \"#utility.yul\":3925:3988   */\n      tag_224\n        /* \"#utility.yul\":3982:3986   */\n      0x40\n        /* \"#utility.yul\":3977:3980   */\n      dup7\n        /* \"#utility.yul\":3973:3987   */\n      add\n        /* \"#utility.yul\":3959:3971   */\n      dup3\n        /* \"#utility.yul\":3925:3988   */\n      tag_132\n      jump\t// in\n    tag_224:\n        /* \"#utility.yul\":3827:3998   */\n      pop\n        /* \"#utility.yul\":4086:4090   */\n      0x60\n        /* \"#utility.yul\":4079:4084   */\n      dup4\n        /* \"#utility.yul\":4075:4091   */\n      add\n        /* \"#utility.yul\":4069:4092   */\n      mload\n        /* \"#utility.yul\":4105:4168   */\n      tag_225\n        /* \"#utility.yul\":4162:4166   */\n      0x60\n        /* \"#utility.yul\":4157:4160   */\n      dup7\n        /* \"#utility.yul\":4153:4167   */\n      add\n        /* \"#utility.yul\":4139:4151   */\n      dup3\n        /* \"#utility.yul\":4105:4168   */\n      tag_126\n      jump\t// in\n    tag_225:\n        /* \"#utility.yul\":4008:4178   */\n      pop\n        /* \"#utility.yul\":4267:4271   */\n      0x80\n        /* \"#utility.yul\":4260:4265   */\n      dup4\n        /* \"#utility.yul\":4256:4272   */\n      add\n        /* \"#utility.yul\":4250:4273   */\n      mload\n        /* \"#utility.yul\":4320:4323   */\n      dup5\n        /* \"#utility.yul\":4314:4318   */\n      dup3\n        /* \"#utility.yul\":4310:4324   */\n      sub\n        /* \"#utility.yul\":4303:4307   */\n      0x80\n        /* \"#utility.yul\":4298:4301   */\n      dup7\n        /* \"#utility.yul\":4294:4308   */\n      add\n        /* \"#utility.yul\":4287:4325   */\n      mstore\n        /* \"#utility.yul\":4346:4419   */\n      tag_226\n        /* \"#utility.yul\":4414:4418   */\n      dup3\n        /* \"#utility.yul\":4400:4412   */\n      dup3\n        /* \"#utility.yul\":4346:4419   */\n      tag_131\n      jump\t// in\n    tag_226:\n        /* \"#utility.yul\":4338:4419   */\n      swap2\n      pop\n        /* \"#utility.yul\":4188:4430   */\n      pop\n        /* \"#utility.yul\":4522:4526   */\n      0xa0\n        /* \"#utility.yul\":4515:4520   */\n      dup4\n        /* \"#utility.yul\":4511:4527   */\n      add\n        /* \"#utility.yul\":4505:4528   */\n      mload\n        /* \"#utility.yul\":4575:4578   */\n      dup5\n        /* \"#utility.yul\":4569:4573   */\n      dup3\n        /* \"#utility.yul\":4565:4579   */\n      sub\n        /* \"#utility.yul\":4558:4562   */\n      0xa0\n        /* \"#utility.yul\":4553:4556   */\n      dup7\n        /* \"#utility.yul\":4549:4563   */\n      add\n        /* \"#utility.yul\":4542:4580   */\n      mstore\n        /* \"#utility.yul\":4601:4674   */\n      tag_227\n        /* \"#utility.yul\":4669:4673   */\n      dup3\n        /* \"#utility.yul\":4655:4667   */\n      dup3\n        /* \"#utility.yul\":4601:4674   */\n      tag_131\n      jump\t// in\n    tag_227:\n        /* \"#utility.yul\":4593:4674   */\n      swap2\n      pop\n        /* \"#utility.yul\":4440:4685   */\n      pop\n        /* \"#utility.yul\":4776:4780   */\n      0xc0\n        /* \"#utility.yul\":4769:4774   */\n      dup4\n        /* \"#utility.yul\":4765:4781   */\n      add\n        /* \"#utility.yul\":4759:4782   */\n      mload\n        /* \"#utility.yul\":4829:4832   */\n      dup5\n        /* \"#utility.yul\":4823:4827   */\n      dup3\n        /* \"#utility.yul\":4819:4833   */\n      sub\n        /* \"#utility.yul\":4812:4816   */\n      0xc0\n        /* \"#utility.yul\":4807:4810   */\n      dup7\n        /* \"#utility.yul\":4803:4817   */\n      add\n        /* \"#utility.yul\":4796:4834   */\n      mstore\n        /* \"#utility.yul\":4855:4928   */\n      tag_228\n        /* \"#utility.yul\":4923:4927   */\n      dup3\n        /* \"#utility.yul\":4909:4921   */\n      dup3\n        /* \"#utility.yul\":4855:4928   */\n      tag_131\n      jump\t// in\n    tag_228:\n        /* \"#utility.yul\":4847:4928   */\n      swap2\n      pop\n        /* \"#utility.yul\":4695:4939   */\n      pop\n        /* \"#utility.yul\":5025:5029   */\n      0xe0\n        /* \"#utility.yul\":5018:5023   */\n      dup4\n        /* \"#utility.yul\":5014:5030   */\n      add\n        /* \"#utility.yul\":5008:5031   */\n      mload\n        /* \"#utility.yul\":5044:5107   */\n      tag_229\n        /* \"#utility.yul\":5101:5105   */\n      0xe0\n        /* \"#utility.yul\":5096:5099   */\n      dup7\n        /* \"#utility.yul\":5092:5106   */\n      add\n        /* \"#utility.yul\":5078:5090   */\n      dup3\n        /* \"#utility.yul\":5044:5107   */\n      tag_126\n      jump\t// in\n    tag_229:\n        /* \"#utility.yul\":4949:5117   */\n      pop\n        /* \"#utility.yul\":5211:5217   */\n      0x0100\n        /* \"#utility.yul\":5204:5209   */\n      dup4\n        /* \"#utility.yul\":5200:5218   */\n      add\n        /* \"#utility.yul\":5194:5219   */\n      mload\n        /* \"#utility.yul\":5232:5291   */\n      tag_230\n        /* \"#utility.yul\":5283:5289   */\n      0x0100\n        /* \"#utility.yul\":5278:5281   */\n      dup7\n        /* \"#utility.yul\":5274:5290   */\n      add\n        /* \"#utility.yul\":5260:5272   */\n      dup3\n        /* \"#utility.yul\":5232:5291   */\n      tag_134\n      jump\t// in\n    tag_230:\n        /* \"#utility.yul\":5127:5301   */\n      pop\n        /* \"#utility.yul\":5318:5322   */\n      dup1\n        /* \"#utility.yul\":5311:5322   */\n      swap2\n      pop\n        /* \"#utility.yul\":3353:5328   */\n      pop\n        /* \"#utility.yul\":3241:5328   */\n      swap3\n      swap2\n      pop\n      pop\n      jump\t// out\n        /* \"#utility.yul\":5334:5586   */\n    tag_136:\n        /* \"#utility.yul\":5451:5461   */\n      0x00\n        /* \"#utility.yul\":5486:5580   */\n      tag_232\n        /* \"#utility.yul\":5576:5579   */\n      dup4\n        /* \"#utility.yul\":5568:5574   */\n      dup4\n        /* \"#utility.yul\":5486:5580   */\n      tag_135\n      jump\t// in\n    tag_232:\n        /* \"#utility.yul\":5472:5580   */\n      swap1\n      pop\n        /* \"#utility.yul\":5334:5586   */\n      swap3\n      swap2\n      pop\n      pop\n      jump\t// out\n        /* \"#utility.yul\":5592:5729   */\n    tag_137:\n        /* \"#utility.yul\":5686:5690   */\n      0x00\n        /* \"#utility.yul\":5718:5722   */\n      0x20\n        /* \"#utility.yul\":5713:5716   */\n      dup3\n        /* \"#utility.yul\":5709:5723   */\n      add\n        /* \"#utility.yul\":5701:5723   */\n      swap1\n      pop\n        /* \"#utility.yul\":5592:5729   */\n      swap2\n      swap1\n      pop\n      jump\t// out\n        /* \"#utility.yul\":5779:6882   */\n    tag_138:\n        /* \"#utility.yul\":5946:5949   */\n      0x00\n        /* \"#utility.yul\":5975:6053   */\n      tag_235\n        /* \"#utility.yul\":6047:6052   */\n      dup3\n        /* \"#utility.yul\":5975:6053   */\n      tag_122\n      jump\t// in\n    tag_235:\n        /* \"#utility.yul\":6069:6179   */\n      tag_236\n        /* \"#utility.yul\":6172:6178   */\n      dup2\n        /* \"#utility.yul\":6167:6170   */\n      dup6\n        /* \"#utility.yul\":6069:6179   */\n      tag_123\n      jump\t// in\n    tag_236:\n        /* \"#utility.yul\":6062:6179   */\n      swap4\n      pop\n        /* \"#utility.yul\":6205:6208   */\n      dup4\n        /* \"#utility.yul\":6250:6254   */\n      0x20\n        /* \"#utility.yul\":6242:6248   */\n      dup3\n        /* \"#utility.yul\":6238:6255   */\n      mul\n        /* \"#utility.yul\":6233:6236   */\n      dup6\n        /* \"#utility.yul\":6229:6256   */\n      add\n        /* \"#utility.yul\":6280:6360   */\n      tag_237\n        /* \"#utility.yul\":6354:6359   */\n      dup6\n        /* \"#utility.yul\":6280:6360   */\n      tag_124\n      jump\t// in\n    tag_237:\n        /* \"#utility.yul\":6383:6390   */\n      dup1\n        /* \"#utility.yul\":6414:6415   */\n      0x00\n        /* \"#utility.yul\":6399:6837   */\n    tag_238:\n        /* \"#utility.yul\":6424:6430   */\n      dup6\n        /* \"#utility.yul\":6421:6422   */\n      dup2\n        /* \"#utility.yul\":6418:6431   */\n      lt\n        /* \"#utility.yul\":6399:6837   */\n      iszero\n      tag_240\n      jumpi\n        /* \"#utility.yul\":6495:6504   */\n      dup5\n        /* \"#utility.yul\":6489:6493   */\n      dup5\n        /* \"#utility.yul\":6485:6505   */\n      sub\n        /* \"#utility.yul\":6480:6483   */\n      dup10\n        /* \"#utility.yul\":6473:6506   */\n      mstore\n        /* \"#utility.yul\":6546:6552   */\n      dup2\n        /* \"#utility.yul\":6540:6553   */\n      mload\n        /* \"#utility.yul\":6574:6686   */\n      tag_241\n        /* \"#utility.yul\":6681:6685   */\n      dup6\n        /* \"#utility.yul\":6666:6679   */\n      dup3\n        /* \"#utility.yul\":6574:6686   */\n      tag_136\n      jump\t// in\n    tag_241:\n        /* \"#utility.yul\":6566:6686   */\n      swap5\n      pop\n        /* \"#utility.yul\":6709:6793   */\n      tag_242\n        /* \"#utility.yul\":6786:6792   */\n      dup4\n        /* \"#utility.yul\":6709:6793   */\n      tag_137\n      jump\t// in\n    tag_242:\n        /* \"#utility.yul\":6699:6793   */\n      swap3\n      pop\n        /* \"#utility.yul\":6822:6826   */\n      0x20\n        /* \"#utility.yul\":6817:6820   */\n      dup11\n        /* \"#utility.yul\":6813:6827   */\n      add\n        /* \"#utility.yul\":6806:6827   */\n      swap10\n      pop\n        /* \"#utility.yul\":6459:6837   */\n      pop\n        /* \"#utility.yul\":6446:6447   */\n      0x01\n        /* \"#utility.yul\":6443:6444   */\n      dup2\n        /* \"#utility.yul\":6439:6448   */\n      add\n        /* \"#utility.yul\":6434:6448   */\n      swap1\n      pop\n        /* \"#utility.yul\":6399:6837   */\n      jump(tag_238)\n    tag_240:\n        /* \"#utility.yul\":6403:6417   */\n      pop\n        /* \"#utility.yul\":6853:6857   */\n      dup3\n        /* \"#utility.yul\":6846:6857   */\n      swap8\n      pop\n        /* \"#utility.yul\":6873:6876   */\n      dup8\n        /* \"#utility.yul\":6866:6876   */\n      swap6\n      pop\n        /* \"#utility.yul\":5951:6882   */\n      pop\n      pop\n      pop\n      pop\n      pop\n        /* \"#utility.yul\":5779:6882   */\n      swap3\n      swap2\n      pop\n      pop\n      jump\t// out\n        /* \"#utility.yul\":6888:7357   */\n    tag_18:\n        /* \"#utility.yul\":7079:7083   */\n      0x00\n        /* \"#utility.yul\":7117:7119   */\n      0x20\n        /* \"#utility.yul\":7106:7115   */\n      dup3\n        /* \"#utility.yul\":7102:7120   */\n      add\n        /* \"#utility.yul\":7094:7120   */\n      swap1\n      pop\n        /* \"#utility.yul\":7166:7175   */\n      dup2\n        /* \"#utility.yul\":7160:7164   */\n      dup2\n        /* \"#utility.yul\":7156:7176   */\n      sub\n        /* \"#utility.yul\":7152:7153   */\n      0x00\n        /* \"#utility.yul\":7141:7150   */\n      dup4\n        /* \"#utility.yul\":7137:7154   */\n      add\n        /* \"#utility.yul\":7130:7177   */\n      mstore\n        /* \"#utility.yul\":7194:7350   */\n      tag_244\n        /* \"#utility.yul\":7345:7349   */\n      dup2\n        /* \"#utility.yul\":7336:7342   */\n      dup5\n        /* \"#utility.yul\":7194:7350   */\n      tag_138\n      jump\t// in\n    tag_244:\n        /* \"#utility.yul\":7186:7350   */\n      swap1\n      pop\n        /* \"#utility.yul\":6888:7357   */\n      swap3\n      swap2\n      pop\n      pop\n      jump\t// out\n        /* \"#utility.yul\":7363:7481   */\n    tag_139:\n        /* \"#utility.yul\":7450:7474   */\n      tag_246\n        /* \"#utility.yul\":7468:7473   */\n      dup2\n        /* \"#utility.yul\":7450:7474   */\n      tag_119\n      jump\t// in\n    tag_246:\n        /* \"#utility.yul\":7445:7448   */\n      dup3\n        /* \"#utility.yul\":7438:7475   */\n      mstore\n        /* \"#utility.yul\":7363:7481   */\n      pop\n      pop\n      jump\t// out\n        /* \"#utility.yul\":7487:7709   */\n    tag_24:\n        /* \"#utility.yul\":7580:7584   */\n      0x00\n        /* \"#utility.yul\":7618:7620   */\n      0x20\n        /* \"#utility.yul\":7607:7616   */\n      dup3\n        /* \"#utility.yul\":7603:7621   */\n      add\n        /* \"#utility.yul\":7595:7621   */\n      swap1\n      pop\n        /* \"#utility.yul\":7631:7702   */\n      tag_248\n        /* \"#utility.yul\":7699:7700   */\n      0x00\n        /* \"#utility.yul\":7688:7697   */\n      dup4\n        /* \"#utility.yul\":7684:7701   */\n      add\n        /* \"#utility.yul\":7675:7681   */\n      dup5\n        /* \"#utility.yul\":7631:7702   */\n      tag_139\n      jump\t// in\n    tag_248:\n        /* \"#utility.yul\":7487:7709   */\n      swap3\n      swap2\n      pop\n      pop\n      jump\t// out\n        /* \"#utility.yul\":7715:7832   */\n    tag_140:\n        /* \"#utility.yul\":7824:7825   */\n      0x00\n        /* \"#utility.yul\":7821:7822   */\n      dup1\n        /* \"#utility.yul\":7814:7826   */\n      revert\n        /* \"#utility.yul\":7838:8018   */\n    tag_141:\n        /* \"#utility.yul\":7886:7963   */\n      0x4e487b7100000000000000000000000000000000000000000000000000000000\n        /* \"#utility.yul\":7883:7884   */\n      0x00\n        /* \"#utility.yul\":7876:7964   */\n      mstore\n        /* \"#utility.yul\":7983:7987   */\n      0x41\n        /* \"#utility.yul\":7980:7981   */\n      0x04\n        /* \"#utility.yul\":7973:7988   */\n      mstore\n        /* \"#utility.yul\":8007:8011   */\n      0x24\n        /* \"#utility.yul\":8004:8005   */\n      0x00\n        /* \"#utility.yul\":7997:8012   */\n      revert\n        /* \"#utility.yul\":8024:8305   */\n    tag_142:\n        /* \"#utility.yul\":8107:8134   */\n      tag_252\n        /* \"#utility.yul\":8129:8133   */\n      dup3\n        /* \"#utility.yul\":8107:8134   */\n      tag_130\n      jump\t// in\n    tag_252:\n        /* \"#utility.yul\":8099:8105   */\n      dup2\n        /* \"#utility.yul\":8095:8135   */\n      add\n        /* \"#utility.yul\":8237:8243   */\n      dup2\n        /* \"#utility.yul\":8225:8235   */\n      dup2\n        /* \"#utility.yul\":8222:8244   */\n      lt\n        /* \"#utility.yul\":8201:8219   */\n      0xffffffffffffffff\n        /* \"#utility.yul\":8189:8199   */\n      dup3\n        /* \"#utility.yul\":8186:8220   */\n      gt\n        /* \"#utility.yul\":8183:8245   */\n      or\n        /* \"#utility.yul\":8180:8268   */\n      iszero\n      tag_253\n      jumpi\n        /* \"#utility.yul\":8248:8266   */\n      tag_254\n      tag_141\n      jump\t// in\n    tag_254:\n        /* \"#utility.yul\":8180:8268   */\n    tag_253:\n        /* \"#utility.yul\":8288:8298   */\n      dup1\n        /* \"#utility.yul\":8284:8286   */\n      0x40\n        /* \"#utility.yul\":8277:8299   */\n      mstore\n        /* \"#utility.yul\":8067:8305   */\n      pop\n        /* \"#utility.yul\":8024:8305   */\n      pop\n      pop\n      jump\t// out\n        /* \"#utility.yul\":8311:8440   */\n    tag_143:\n        /* \"#utility.yul\":8345:8351   */\n      0x00\n        /* \"#utility.yul\":8372:8392   */\n      tag_256\n      tag_115\n      jump\t// in\n    tag_256:\n        /* \"#utility.yul\":8362:8392   */\n      swap1\n      pop\n        /* \"#utility.yul\":8401:8434   */\n      tag_257\n        /* \"#utility.yul\":8429:8433   */\n      dup3\n        /* \"#utility.yul\":8421:8427   */\n      dup3\n        /* \"#utility.yul\":8401:8434   */\n      tag_142\n      jump\t// in\n    tag_257:\n        /* \"#utility.yul\":8311:8440   */\n      swap2\n      swap1\n      pop\n      jump\t// out\n        /* \"#utility.yul\":8446:8563   */\n    tag_144:\n        /* \"#utility.yul\":8555:8556   */\n      0x00\n        /* \"#utility.yul\":8552:8553   */\n      dup1\n        /* \"#utility.yul\":8545:8557   */\n      revert\n        /* \"#utility.yul\":8569:8691   */\n    tag_145:\n        /* \"#utility.yul\":8642:8666   */\n      tag_260\n        /* \"#utility.yul\":8660:8665   */\n      dup2\n        /* \"#utility.yul\":8642:8666   */\n      tag_125\n      jump\t// in\n    tag_260:\n        /* \"#utility.yul\":8635:8640   */\n      dup2\n        /* \"#utility.yul\":8632:8667   */\n      eq\n        /* \"#utility.yul\":8622:8685   */\n      tag_261\n      jumpi\n        /* \"#utility.yul\":8681:8682   */\n      0x00\n        /* \"#utility.yul\":8678:8679   */\n      dup1\n        /* \"#utility.yul\":8671:8683   */\n      revert\n        /* \"#utility.yul\":8622:8685   */\n    tag_261:\n        /* \"#utility.yul\":8569:8691   */\n      pop\n      jump\t// out\n        /* \"#utility.yul\":8697:8836   */\n    tag_146:\n        /* \"#utility.yul\":8743:8748   */\n      0x00\n        /* \"#utility.yul\":8781:8787   */\n      dup2\n        /* \"#utility.yul\":8768:8788   */\n      calldataload\n        /* \"#utility.yul\":8759:8788   */\n      swap1\n      pop\n        /* \"#utility.yul\":8797:8830   */\n      tag_263\n        /* \"#utility.yul\":8824:8829   */\n      dup2\n        /* \"#utility.yul\":8797:8830   */\n      tag_145\n      jump\t// in\n    tag_263:\n        /* \"#utility.yul\":8697:8836   */\n      swap3\n      swap2\n      pop\n      pop\n      jump\t// out\n        /* \"#utility.yul\":8842:8959   */\n    tag_147:\n        /* \"#utility.yul\":8951:8952   */\n      0x00\n        /* \"#utility.yul\":8948:8949   */\n      dup1\n        /* \"#utility.yul\":8941:8953   */\n      revert\n        /* \"#utility.yul\":8965:9082   */\n    tag_148:\n        /* \"#utility.yul\":9074:9075   */\n      0x00\n        /* \"#utility.yul\":9071:9072   */\n      dup1\n        /* \"#utility.yul\":9064:9076   */\n      revert\n        /* \"#utility.yul\":9088:9396   */\n    tag_149:\n        /* \"#utility.yul\":9150:9154   */\n      0x00\n        /* \"#utility.yul\":9240:9258   */\n      0xffffffffffffffff\n        /* \"#utility.yul\":9232:9238   */\n      dup3\n        /* \"#utility.yul\":9229:9259   */\n      gt\n        /* \"#utility.yul\":9226:9282   */\n      iszero\n      tag_267\n      jumpi\n        /* \"#utility.yul\":9262:9280   */\n      tag_268\n      tag_141\n      jump\t// in\n    tag_268:\n        /* \"#utility.yul\":9226:9282   */\n    tag_267:\n        /* \"#utility.yul\":9300:9329   */\n      tag_269\n        /* \"#utility.yul\":9322:9328   */\n      dup3\n        /* \"#utility.yul\":9300:9329   */\n      tag_130\n      jump\t// in\n    tag_269:\n        /* \"#utility.yul\":9292:9329   */\n      swap1\n      pop\n        /* \"#utility.yul\":9384:9388   */\n      0x20\n        /* \"#utility.yul\":9378:9382   */\n      dup2\n        /* \"#utility.yul\":9374:9389   */\n      add\n        /* \"#utility.yul\":9366:9389   */\n      swap1\n      pop\n        /* \"#utility.yul\":9088:9396   */\n      swap2\n      swap1\n      pop\n      jump\t// out\n        /* \"#utility.yul\":9402:9548   */\n    tag_150:\n        /* \"#utility.yul\":9499:9505   */\n      dup3\n        /* \"#utility.yul\":9494:9497   */\n      dup2\n        /* \"#utility.yul\":9489:9492   */\n      dup4\n        /* \"#utility.yul\":9476:9506   */\n      calldatacopy\n        /* \"#utility.yul\":9540:9541   */\n      0x00\n        /* \"#utility.yul\":9531:9537   */\n      dup4\n        /* \"#utility.yul\":9526:9529   */\n      dup4\n        /* \"#utility.yul\":9522:9538   */\n      add\n        /* \"#utility.yul\":9515:9542   */\n      mstore\n        /* \"#utility.yul\":9402:9548   */\n      pop\n      pop\n      pop\n      jump\t// out\n        /* \"#utility.yul\":9554:9979   */\n    tag_151:\n        /* \"#utility.yul\":9632:9637   */\n      0x00\n        /* \"#utility.yul\":9657:9723   */\n      tag_272\n        /* \"#utility.yul\":9673:9722   */\n      tag_273\n        /* \"#utility.yul\":9715:9721   */\n      dup5\n        /* \"#utility.yul\":9673:9722   */\n      tag_149\n      jump\t// in\n    tag_273:\n        /* \"#utility.yul\":9657:9723   */\n      tag_143\n      jump\t// in\n    tag_272:\n        /* \"#utility.yul\":9648:9723   */\n      swap1\n      pop\n        /* \"#utility.yul\":9746:9752   */\n      dup3\n        /* \"#utility.yul\":9739:9744   */\n      dup2\n        /* \"#utility.yul\":9732:9753   */\n      mstore\n        /* \"#utility.yul\":9784:9788   */\n      0x20\n        /* \"#utility.yul\":9777:9782   */\n      dup2\n        /* \"#utility.yul\":9773:9789   */\n      add\n        /* \"#utility.yul\":9822:9825   */\n      dup5\n        /* \"#utility.yul\":9813:9819   */\n      dup5\n        /* \"#utility.yul\":9808:9811   */\n      dup5\n        /* \"#utility.yul\":9804:9820   */\n      add\n        /* \"#utility.yul\":9801:9826   */\n      gt\n        /* \"#utility.yul\":9798:9910   */\n      iszero\n      tag_274\n      jumpi\n        /* \"#utility.yul\":9829:9908   */\n      tag_275\n      tag_148\n      jump\t// in\n    tag_275:\n        /* \"#utility.yul\":9798:9910   */\n    tag_274:\n        /* \"#utility.yul\":9919:9973   */\n      tag_276\n        /* \"#utility.yul\":9966:9972   */\n      dup5\n        /* \"#utility.yul\":9961:9964   */\n      dup3\n        /* \"#utility.yul\":9956:9959   */\n      dup6\n        /* \"#utility.yul\":9919:9973   */\n      tag_150\n      jump\t// in\n    tag_276:\n        /* \"#utility.yul\":9638:9979   */\n      pop\n        /* \"#utility.yul\":9554:9979   */\n      swap4\n      swap3\n      pop\n      pop\n      pop\n      jump\t// out\n        /* \"#utility.yul\":9999:10339   */\n    tag_152:\n        /* \"#utility.yul\":10055:10060   */\n      0x00\n        /* \"#utility.yul\":10104:10107   */\n      dup3\n        /* \"#utility.yul\":10097:10101   */\n      0x1f\n        /* \"#utility.yul\":10089:10095   */\n      dup4\n        /* \"#utility.yul\":10085:10102   */\n      add\n        /* \"#utility.yul\":10081:10108   */\n      slt\n        /* \"#utility.yul\":10071:10193   */\n      tag_278\n      jumpi\n        /* \"#utility.yul\":10112:10191   */\n      tag_279\n      tag_147\n      jump\t// in\n    tag_279:\n        /* \"#utility.yul\":10071:10193   */\n    tag_278:\n        /* \"#utility.yul\":10229:10235   */\n      dup2\n        /* \"#utility.yul\":10216:10236   */\n      calldataload\n        /* \"#utility.yul\":10254:10333   */\n      tag_280\n        /* \"#utility.yul\":10329:10332   */\n      dup5\n        /* \"#utility.yul\":10321:10327   */\n      dup3\n        /* \"#utility.yul\":10314:10318   */\n      0x20\n        /* \"#utility.yul\":10306:10312   */\n      dup7\n        /* \"#utility.yul\":10302:10319   */\n      add\n        /* \"#utility.yul\":10254:10333   */\n      tag_151\n      jump\t// in\n    tag_280:\n        /* \"#utility.yul\":10245:10333   */\n      swap2\n      pop\n        /* \"#utility.yul\":10061:10339   */\n      pop\n        /* \"#utility.yul\":9999:10339   */\n      swap3\n      swap2\n      pop\n      pop\n      jump\t// out\n        /* \"#utility.yul\":10345:10461   */\n    tag_153:\n        /* \"#utility.yul\":10415:10436   */\n      tag_282\n        /* \"#utility.yul\":10430:10435   */\n      dup2\n        /* \"#utility.yul\":10415:10436   */\n      tag_133\n      jump\t// in\n    tag_282:\n        /* \"#utility.yul\":10408:10413   */\n      dup2\n        /* \"#utility.yul\":10405:10437   */\n      eq\n        /* \"#utility.yul\":10395:10455   */\n      tag_283\n      jumpi\n        /* \"#utility.yul\":10451:10452   */\n      0x00\n        /* \"#utility.yul\":10448:10449   */\n      dup1\n        /* \"#utility.yul\":10441:10453   */\n      revert\n        /* \"#utility.yul\":10395:10455   */\n    tag_283:\n        /* \"#utility.yul\":10345:10461   */\n      pop\n      jump\t// out\n        /* \"#utility.yul\":10467:10600   */\n    tag_154:\n        /* \"#utility.yul\":10510:10515   */\n      0x00\n        /* \"#utility.yul\":10548:10554   */\n      dup2\n        /* \"#utility.yul\":10535:10555   */\n      calldataload\n        /* \"#utility.yul\":10526:10555   */\n      swap1\n      pop\n        /* \"#utility.yul\":10564:10594   */\n      tag_285\n        /* \"#utility.yul\":10588:10593   */\n      dup2\n        /* \"#utility.yul\":10564:10594   */\n      tag_153\n      jump\t// in\n    tag_285:\n        /* \"#utility.yul\":10467:10600   */\n      swap3\n      swap2\n      pop\n      pop\n      jump\t// out\n        /* \"#utility.yul\":10628:13078   */\n    tag_155:\n        /* \"#utility.yul\":10701:10706   */\n      0x00\n        /* \"#utility.yul\":10745:10751   */\n      0x0120\n        /* \"#utility.yul\":10733:10742   */\n      dup3\n        /* \"#utility.yul\":10728:10731   */\n      dup5\n        /* \"#utility.yul\":10724:10743   */\n      sub\n        /* \"#utility.yul\":10720:10752   */\n      slt\n        /* \"#utility.yul\":10717:10836   */\n      iszero\n      tag_287\n      jumpi\n        /* \"#utility.yul\":10755:10834   */\n      tag_288\n      tag_140\n      jump\t// in\n    tag_288:\n        /* \"#utility.yul\":10717:10836   */\n    tag_287:\n        /* \"#utility.yul\":10854:10877   */\n      tag_289\n        /* \"#utility.yul\":10870:10876   */\n      0x0120\n        /* \"#utility.yul\":10854:10877   */\n      tag_143\n      jump\t// in\n    tag_289:\n        /* \"#utility.yul\":10845:10877   */\n      swap1\n      pop\n        /* \"#utility.yul\":10939:10940   */\n      0x00\n        /* \"#utility.yul\":10979:11028   */\n      tag_290\n        /* \"#utility.yul\":11024:11027   */\n      dup5\n        /* \"#utility.yul\":11015:11021   */\n      dup3\n        /* \"#utility.yul\":11004:11013   */\n      dup6\n        /* \"#utility.yul\":11000:11022   */\n      add\n        /* \"#utility.yul\":10979:11028   */\n      tag_146\n      jump\t// in\n    tag_290:\n        /* \"#utility.yul\":10972:10976   */\n      0x00\n        /* \"#utility.yul\":10965:10970   */\n      dup4\n        /* \"#utility.yul\":10961:10977   */\n      add\n        /* \"#utility.yul\":10954:11029   */\n      mstore\n        /* \"#utility.yul\":10887:11040   */\n      pop\n        /* \"#utility.yul\":11131:11133   */\n      0x20\n        /* \"#utility.yul\":11120:11129   */\n      dup3\n        /* \"#utility.yul\":11116:11134   */\n      add\n        /* \"#utility.yul\":11103:11135   */\n      calldataload\n        /* \"#utility.yul\":11162:11180   */\n      0xffffffffffffffff\n        /* \"#utility.yul\":11154:11160   */\n      dup2\n        /* \"#utility.yul\":11151:11181   */\n      gt\n        /* \"#utility.yul\":11148:11265   */\n      iszero\n      tag_291\n      jumpi\n        /* \"#utility.yul\":11184:11263   */\n      tag_292\n      tag_144\n      jump\t// in\n    tag_292:\n        /* \"#utility.yul\":11148:11265   */\n    tag_291:\n        /* \"#utility.yul\":11304:11363   */\n      tag_293\n        /* \"#utility.yul\":11359:11362   */\n      dup5\n        /* \"#utility.yul\":11350:11356   */\n      dup3\n        /* \"#utility.yul\":11339:11348   */\n      dup6\n        /* \"#utility.yul\":11335:11357   */\n      add\n        /* \"#utility.yul\":11304:11363   */\n      tag_152\n      jump\t// in\n    tag_293:\n        /* \"#utility.yul\":11297:11301   */\n      0x20\n        /* \"#utility.yul\":11290:11295   */\n      dup4\n        /* \"#utility.yul\":11286:11302   */\n      add\n        /* \"#utility.yul\":11279:11364   */\n      mstore\n        /* \"#utility.yul\":11050:11375   */\n      pop\n        /* \"#utility.yul\":11441:11443   */\n      0x40\n        /* \"#utility.yul\":11482:11531   */\n      tag_294\n        /* \"#utility.yul\":11527:11530   */\n      dup5\n        /* \"#utility.yul\":11518:11524   */\n      dup3\n        /* \"#utility.yul\":11507:11516   */\n      dup6\n        /* \"#utility.yul\":11503:11525   */\n      add\n        /* \"#utility.yul\":11482:11531   */\n      tag_121\n      jump\t// in\n    tag_294:\n        /* \"#utility.yul\":11475:11479   */\n      0x40\n        /* \"#utility.yul\":11468:11473   */\n      dup4\n        /* \"#utility.yul\":11464:11480   */\n      add\n        /* \"#utility.yul\":11457:11532   */\n      mstore\n        /* \"#utility.yul\":11385:11543   */\n      pop\n        /* \"#utility.yul\":11608:11610   */\n      0x60\n        /* \"#utility.yul\":11649:11698   */\n      tag_295\n        /* \"#utility.yul\":11694:11697   */\n      dup5\n        /* \"#utility.yul\":11685:11691   */\n      dup3\n        /* \"#utility.yul\":11674:11683   */\n      dup6\n        /* \"#utility.yul\":11670:11692   */\n      add\n        /* \"#utility.yul\":11649:11698   */\n      tag_146\n      jump\t// in\n    tag_295:\n        /* \"#utility.yul\":11642:11646   */\n      0x60\n        /* \"#utility.yul\":11635:11640   */\n      dup4\n        /* \"#utility.yul\":11631:11647   */\n      add\n        /* \"#utility.yul\":11624:11699   */\n      mstore\n        /* \"#utility.yul\":11553:11710   */\n      pop\n        /* \"#utility.yul\":11804:11807   */\n      0x80\n        /* \"#utility.yul\":11793:11802   */\n      dup3\n        /* \"#utility.yul\":11789:11808   */\n      add\n        /* \"#utility.yul\":11776:11809   */\n      calldataload\n        /* \"#utility.yul\":11836:11854   */\n      0xffffffffffffffff\n        /* \"#utility.yul\":11828:11834   */\n      dup2\n        /* \"#utility.yul\":11825:11855   */\n      gt\n        /* \"#utility.yul\":11822:11939   */\n      iszero\n      tag_296\n      jumpi\n        /* \"#utility.yul\":11858:11937   */\n      tag_297\n      tag_144\n      jump\t// in\n    tag_297:\n        /* \"#utility.yul\":11822:11939   */\n    tag_296:\n        /* \"#utility.yul\":11978:12037   */\n      tag_298\n        /* \"#utility.yul\":12033:12036   */\n      dup5\n        /* \"#utility.yul\":12024:12030   */\n      dup3\n        /* \"#utility.yul\":12013:12022   */\n      dup6\n        /* \"#utility.yul\":12009:12031   */\n      add\n        /* \"#utility.yul\":11978:12037   */\n      tag_152\n      jump\t// in\n    tag_298:\n        /* \"#utility.yul\":11971:11975   */\n      0x80\n        /* \"#utility.yul\":11964:11969   */\n      dup4\n        /* \"#utility.yul\":11960:11976   */\n      add\n        /* \"#utility.yul\":11953:12038   */\n      mstore\n        /* \"#utility.yul\":11720:12049   */\n      pop\n        /* \"#utility.yul\":12146:12149   */\n      0xa0\n        /* \"#utility.yul\":12135:12144   */\n      dup3\n        /* \"#utility.yul\":12131:12150   */\n      add\n        /* \"#utility.yul\":12118:12151   */\n      calldataload\n        /* \"#utility.yul\":12178:12196   */\n      0xffffffffffffffff\n        /* \"#utility.yul\":12170:12176   */\n      dup2\n        /* \"#utility.yul\":12167:12197   */\n      gt\n        /* \"#utility.yul\":12164:12281   */\n      iszero\n      tag_299\n      jumpi\n        /* \"#utility.yul\":12200:12279   */\n      tag_300\n      tag_144\n      jump\t// in\n    tag_300:\n        /* \"#utility.yul\":12164:12281   */\n    tag_299:\n        /* \"#utility.yul\":12320:12379   */\n      tag_301\n        /* \"#utility.yul\":12375:12378   */\n      dup5\n        /* \"#utility.yul\":12366:12372   */\n      dup3\n        /* \"#utility.yul\":12355:12364   */\n      dup6\n        /* \"#utility.yul\":12351:12373   */\n      add\n        /* \"#utility.yul\":12320:12379   */\n      tag_152\n      jump\t// in\n    tag_301:\n        /* \"#utility.yul\":12313:12317   */\n      0xa0\n        /* \"#utility.yul\":12306:12311   */\n      dup4\n        /* \"#utility.yul\":12302:12318   */\n      add\n        /* \"#utility.yul\":12295:12380   */\n      mstore\n        /* \"#utility.yul\":12059:12391   */\n      pop\n        /* \"#utility.yul\":12487:12490   */\n      0xc0\n        /* \"#utility.yul\":12476:12485   */\n      dup3\n        /* \"#utility.yul\":12472:12491   */\n      add\n        /* \"#utility.yul\":12459:12492   */\n      calldataload\n        /* \"#utility.yul\":12519:12537   */\n      0xffffffffffffffff\n        /* \"#utility.yul\":12511:12517   */\n      dup2\n        /* \"#utility.yul\":12508:12538   */\n      gt\n        /* \"#utility.yul\":12505:12622   */\n      iszero\n      tag_302\n      jumpi\n        /* \"#utility.yul\":12541:12620   */\n      tag_303\n      tag_144\n      jump\t// in\n    tag_303:\n        /* \"#utility.yul\":12505:12622   */\n    tag_302:\n        /* \"#utility.yul\":12661:12720   */\n      tag_304\n        /* \"#utility.yul\":12716:12719   */\n      dup5\n        /* \"#utility.yul\":12707:12713   */\n      dup3\n        /* \"#utility.yul\":12696:12705   */\n      dup6\n        /* \"#utility.yul\":12692:12714   */\n      add\n        /* \"#utility.yul\":12661:12720   */\n      tag_152\n      jump\t// in\n    tag_304:\n        /* \"#utility.yul\":12654:12658   */\n      0xc0\n        /* \"#utility.yul\":12647:12652   */\n      dup4\n        /* \"#utility.yul\":12643:12659   */\n      add\n        /* \"#utility.yul\":12636:12721   */\n      mstore\n        /* \"#utility.yul\":12401:12732   */\n      pop\n        /* \"#utility.yul\":12795:12798   */\n      0xe0\n        /* \"#utility.yul\":12837:12886   */\n      tag_305\n        /* \"#utility.yul\":12882:12885   */\n      dup5\n        /* \"#utility.yul\":12873:12879   */\n      dup3\n        /* \"#utility.yul\":12862:12871   */\n      dup6\n        /* \"#utility.yul\":12858:12880   */\n      add\n        /* \"#utility.yul\":12837:12886   */\n      tag_146\n      jump\t// in\n    tag_305:\n        /* \"#utility.yul\":12830:12834   */\n      0xe0\n        /* \"#utility.yul\":12823:12828   */\n      dup4\n        /* \"#utility.yul\":12819:12835   */\n      add\n        /* \"#utility.yul\":12812:12887   */\n      mstore\n        /* \"#utility.yul\":12742:12898   */\n      pop\n        /* \"#utility.yul\":12969:12972   */\n      0x0100\n        /* \"#utility.yul\":13013:13059   */\n      tag_306\n        /* \"#utility.yul\":13055:13058   */\n      dup5\n        /* \"#utility.yul\":13046:13052   */\n      dup3\n        /* \"#utility.yul\":13035:13044   */\n      dup6\n        /* \"#utility.yul\":13031:13053   */\n      add\n        /* \"#utility.yul\":13013:13059   */\n      tag_154\n      jump\t// in\n    tag_306:\n        /* \"#utility.yul\":13004:13010   */\n      0x0100\n        /* \"#utility.yul\":12997:13002   */\n      dup4\n        /* \"#utility.yul\":12993:13011   */\n      add\n        /* \"#utility.yul\":12986:13060   */\n      mstore\n        /* \"#utility.yul\":12908:13071   */\n      pop\n        /* \"#utility.yul\":10628:13078   */\n      swap3\n      swap2\n      pop\n      pop\n      jump\t// out\n        /* \"#utility.yul\":13084:13621   */\n    tag_27:\n        /* \"#utility.yul\":13167:13173   */\n      0x00\n        /* \"#utility.yul\":13216:13218   */\n      0x20\n        /* \"#utility.yul\":13204:13213   */\n      dup3\n        /* \"#utility.yul\":13195:13202   */\n      dup5\n        /* \"#utility.yul\":13191:13214   */\n      sub\n        /* \"#utility.yul\":13187:13219   */\n      slt\n        /* \"#utility.yul\":13184:13303   */\n      iszero\n      tag_308\n      jumpi\n        /* \"#utility.yul\":13222:13301   */\n      tag_309\n      tag_116\n      jump\t// in\n    tag_309:\n        /* \"#utility.yul\":13184:13303   */\n    tag_308:\n        /* \"#utility.yul\":13370:13371   */\n      0x00\n        /* \"#utility.yul\":13359:13368   */\n      dup3\n        /* \"#utility.yul\":13355:13372   */\n      add\n        /* \"#utility.yul\":13342:13373   */\n      calldataload\n        /* \"#utility.yul\":13400:13418   */\n      0xffffffffffffffff\n        /* \"#utility.yul\":13392:13398   */\n      dup2\n        /* \"#utility.yul\":13389:13419   */\n      gt\n        /* \"#utility.yul\":13386:13503   */\n      iszero\n      tag_310\n      jumpi\n        /* \"#utility.yul\":13422:13501   */\n      tag_311\n      tag_117\n      jump\t// in\n    tag_311:\n        /* \"#utility.yul\":13386:13503   */\n    tag_310:\n        /* \"#utility.yul\":13527:13604   */\n      tag_312\n        /* \"#utility.yul\":13596:13603   */\n      dup5\n        /* \"#utility.yul\":13587:13593   */\n      dup3\n        /* \"#utility.yul\":13576:13585   */\n      dup6\n        /* \"#utility.yul\":13572:13594   */\n      add\n        /* \"#utility.yul\":13527:13604   */\n      tag_155\n      jump\t// in\n    tag_312:\n        /* \"#utility.yul\":13517:13604   */\n      swap2\n      pop\n        /* \"#utility.yul\":13313:13614   */\n      pop\n        /* \"#utility.yul\":13084:13621   */\n      swap3\n      swap2\n      pop\n      pop\n      jump\t// out\n        /* \"#utility.yul\":13627:13956   */\n    tag_31:\n        /* \"#utility.yul\":13686:13692   */\n      0x00\n        /* \"#utility.yul\":13735:13737   */\n      0x20\n        /* \"#utility.yul\":13723:13732   */\n      dup3\n        /* \"#utility.yul\":13714:13721   */\n      dup5\n        /* \"#utility.yul\":13710:13733   */\n      sub\n        /* \"#utility.yul\":13706:13738   */\n      slt\n        /* \"#utility.yul\":13703:13822   */\n      iszero\n      tag_314\n      jumpi\n        /* \"#utility.yul\":13741:13820   */\n      tag_315\n      tag_116\n      jump\t// in\n    tag_315:\n        /* \"#utility.yul\":13703:13822   */\n    tag_314:\n        /* \"#utility.yul\":13861:13862   */\n      0x00\n        /* \"#utility.yul\":13886:13939   */\n      tag_316\n        /* \"#utility.yul\":13931:13938   */\n      dup5\n        /* \"#utility.yul\":13922:13928   */\n      dup3\n        /* \"#utility.yul\":13911:13920   */\n      dup6\n        /* \"#utility.yul\":13907:13929   */\n      add\n        /* \"#utility.yul\":13886:13939   */\n      tag_146\n      jump\t// in\n    tag_316:\n        /* \"#utility.yul\":13876:13939   */\n      swap2\n      pop\n        /* \"#utility.yul\":13832:13949   */\n      pop\n        /* \"#utility.yul\":13627:13956   */\n      swap3\n      swap2\n      pop\n      pop\n      jump\t// out\n        /* \"#utility.yul\":13962:14131   */\n    tag_156:\n        /* \"#utility.yul\":14046:14057   */\n      0x00\n        /* \"#utility.yul\":14080:14086   */\n      dup3\n        /* \"#utility.yul\":14075:14078   */\n      dup3\n        /* \"#utility.yul\":14068:14087   */\n      mstore\n        /* \"#utility.yul\":14120:14124   */\n      0x20\n        /* \"#utility.yul\":14115:14118   */\n      dup3\n        /* \"#utility.yul\":14111:14125   */\n      add\n        /* \"#utility.yul\":14096:14125   */\n      swap1\n      pop\n        /* \"#utility.yul\":13962:14131   */\n      swap3\n      swap2\n      pop\n      pop\n      jump\t// out\n        /* \"#utility.yul\":14137:14368   */\n    tag_157:\n        /* \"#utility.yul\":14277:14311   */\n      0x496e677265737344617461626173653a207065726d697373696f6e2068617320\n        /* \"#utility.yul\":14273:14274   */\n      0x00\n        /* \"#utility.yul\":14265:14271   */\n      dup3\n        /* \"#utility.yul\":14261:14275   */\n      add\n        /* \"#utility.yul\":14254:14312   */\n      mstore\n        /* \"#utility.yul\":14346:14360   */\n      0x6265656e206772616e7465640000000000000000000000000000000000000000\n        /* \"#utility.yul\":14341:14343   */\n      0x20\n        /* \"#utility.yul\":14333:14339   */\n      dup3\n        /* \"#utility.yul\":14329:14344   */\n      add\n        /* \"#utility.yul\":14322:14361   */\n      mstore\n        /* \"#utility.yul\":14137:14368   */\n      pop\n      jump\t// out\n        /* \"#utility.yul\":14374:14740   */\n    tag_158:\n        /* \"#utility.yul\":14516:14519   */\n      0x00\n        /* \"#utility.yul\":14537:14604   */\n      tag_320\n        /* \"#utility.yul\":14601:14603   */\n      0x2c\n        /* \"#utility.yul\":14596:14599   */\n      dup4\n        /* \"#utility.yul\":14537:14604   */\n      tag_156\n      jump\t// in\n    tag_320:\n        /* \"#utility.yul\":14530:14604   */\n      swap2\n      pop\n        /* \"#utility.yul\":14613:14706   */\n      tag_321\n        /* \"#utility.yul\":14702:14705   */\n      dup3\n        /* \"#utility.yul\":14613:14706   */\n      tag_157\n      jump\t// in\n    tag_321:\n        /* \"#utility.yul\":14731:14733   */\n      0x40\n        /* \"#utility.yul\":14726:14729   */\n      dup3\n        /* \"#utility.yul\":14722:14734   */\n      add\n        /* \"#utility.yul\":14715:14734   */\n      swap1\n      pop\n        /* \"#utility.yul\":14374:14740   */\n      swap2\n      swap1\n      pop\n      jump\t// out\n        /* \"#utility.yul\":14746:15165   */\n    tag_42:\n        /* \"#utility.yul\":14912:14916   */\n      0x00\n        /* \"#utility.yul\":14950:14952   */\n      0x20\n        /* \"#utility.yul\":14939:14948   */\n      dup3\n        /* \"#utility.yul\":14935:14953   */\n      add\n        /* \"#utility.yul\":14927:14953   */\n      swap1\n      pop\n        /* \"#utility.yul\":14999:15008   */\n      dup2\n        /* \"#utility.yul\":14993:14997   */\n      dup2\n        /* \"#utility.yul\":14989:15009   */\n      sub\n        /* \"#utility.yul\":14985:14986   */\n      0x00\n        /* \"#utility.yul\":14974:14983   */\n      dup4\n        /* \"#utility.yul\":14970:14987   */\n      add\n        /* \"#utility.yul\":14963:15010   */\n      mstore\n        /* \"#utility.yul\":15027:15158   */\n      tag_323\n        /* \"#utility.yul\":15153:15157   */\n      dup2\n        /* \"#utility.yul\":15027:15158   */\n      tag_158\n      jump\t// in\n    tag_323:\n        /* \"#utility.yul\":15019:15158   */\n      swap1\n      pop\n        /* \"#utility.yul\":14746:15165   */\n      swap2\n      swap1\n      pop\n      jump\t// out\n        /* \"#utility.yul\":15171:15406   */\n    tag_159:\n        /* \"#utility.yul\":15311:15345   */\n      0x496e677265737344617461626173653a206f6e6c7920636f6e74726163742077\n        /* \"#utility.yul\":15307:15308   */\n      0x00\n        /* \"#utility.yul\":15299:15305   */\n      dup3\n        /* \"#utility.yul\":15295:15309   */\n      add\n        /* \"#utility.yul\":15288:15346   */\n      mstore\n        /* \"#utility.yul\":15380:15398   */\n      0x686963682061726520616c6c6f77656400000000000000000000000000000000\n        /* \"#utility.yul\":15375:15377   */\n      0x20\n        /* \"#utility.yul\":15367:15373   */\n      dup3\n        /* \"#utility.yul\":15363:15378   */\n      add\n        /* \"#utility.yul\":15356:15399   */\n      mstore\n        /* \"#utility.yul\":15171:15406   */\n      pop\n      jump\t// out\n        /* \"#utility.yul\":15412:15778   */\n    tag_160:\n        /* \"#utility.yul\":15554:15557   */\n      0x00\n        /* \"#utility.yul\":15575:15642   */\n      tag_326\n        /* \"#utility.yul\":15639:15641   */\n      0x30\n        /* \"#utility.yul\":15634:15637   */\n      dup4\n        /* \"#utility.yul\":15575:15642   */\n      tag_156\n      jump\t// in\n    tag_326:\n        /* \"#utility.yul\":15568:15642   */\n      swap2\n      pop\n        /* \"#utility.yul\":15651:15744   */\n      tag_327\n        /* \"#utility.yul\":15740:15743   */\n      dup3\n        /* \"#utility.yul\":15651:15744   */\n      tag_159\n      jump\t// in\n    tag_327:\n        /* \"#utility.yul\":15769:15771   */\n      0x40\n        /* \"#utility.yul\":15764:15767   */\n      dup3\n        /* \"#utility.yul\":15760:15772   */\n      add\n        /* \"#utility.yul\":15753:15772   */\n      swap1\n      pop\n        /* \"#utility.yul\":15412:15778   */\n      swap2\n      swap1\n      pop\n      jump\t// out\n        /* \"#utility.yul\":15784:16203   */\n    tag_48:\n        /* \"#utility.yul\":15950:15954   */\n      0x00\n        /* \"#utility.yul\":15988:15990   */\n      0x20\n        /* \"#utility.yul\":15977:15986   */\n      dup3\n        /* \"#utility.yul\":15973:15991   */\n      add\n        /* \"#utility.yul\":15965:15991   */\n      swap1\n      pop\n        /* \"#utility.yul\":16037:16046   */\n      dup2\n        /* \"#utility.yul\":16031:16035   */\n      dup2\n        /* \"#utility.yul\":16027:16047   */\n      sub\n        /* \"#utility.yul\":16023:16024   */\n      0x00\n        /* \"#utility.yul\":16012:16021   */\n      dup4\n        /* \"#utility.yul\":16008:16025   */\n      add\n        /* \"#utility.yul\":16001:16048   */\n      mstore\n        /* \"#utility.yul\":16065:16196   */\n      tag_329\n        /* \"#utility.yul\":16191:16195   */\n      dup2\n        /* \"#utility.yul\":16065:16196   */\n      tag_160\n      jump\t// in\n    tag_329:\n        /* \"#utility.yul\":16057:16196   */\n      swap1\n      pop\n        /* \"#utility.yul\":15784:16203   */\n      swap2\n      swap1\n      pop\n      jump\t// out\n        /* \"#utility.yul\":16209:16389   */\n    tag_161:\n        /* \"#utility.yul\":16257:16334   */\n      0x4e487b7100000000000000000000000000000000000000000000000000000000\n        /* \"#utility.yul\":16254:16255   */\n      0x00\n        /* \"#utility.yul\":16247:16335   */\n      mstore\n        /* \"#utility.yul\":16354:16358   */\n      0x22\n        /* \"#utility.yul\":16351:16352   */\n      0x04\n        /* \"#utility.yul\":16344:16359   */\n      mstore\n        /* \"#utility.yul\":16378:16382   */\n      0x24\n        /* \"#utility.yul\":16375:16376   */\n      0x00\n        /* \"#utility.yul\":16368:16383   */\n      revert\n        /* \"#utility.yul\":16395:16715   */\n    tag_54:\n        /* \"#utility.yul\":16439:16445   */\n      0x00\n        /* \"#utility.yul\":16476:16477   */\n      0x02\n        /* \"#utility.yul\":16470:16474   */\n      dup3\n        /* \"#utility.yul\":16466:16478   */\n      div\n        /* \"#utility.yul\":16456:16478   */\n      swap1\n      pop\n        /* \"#utility.yul\":16523:16524   */\n      0x01\n        /* \"#utility.yul\":16517:16521   */\n      dup3\n        /* \"#utility.yul\":16513:16525   */\n      and\n        /* \"#utility.yul\":16544:16562   */\n      dup1\n        /* \"#utility.yul\":16534:16615   */\n      tag_332\n      jumpi\n        /* \"#utility.yul\":16600:16604   */\n      0x7f\n        /* \"#utility.yul\":16592:16598   */\n      dup3\n        /* \"#utility.yul\":16588:16605   */\n      and\n        /* \"#utility.yul\":16578:16605   */\n      swap2\n      pop\n        /* \"#utility.yul\":16534:16615   */\n    tag_332:\n        /* \"#utility.yul\":16662:16664   */\n      0x20\n        /* \"#utility.yul\":16654:16660   */\n      dup3\n        /* \"#utility.yul\":16651:16665   */\n      lt\n        /* \"#utility.yul\":16631:16649   */\n      dup2\n        /* \"#utility.yul\":16628:16666   */\n      sub\n        /* \"#utility.yul\":16625:16709   */\n      tag_333\n      jumpi\n        /* \"#utility.yul\":16681:16699   */\n      tag_334\n      tag_161\n      jump\t// in\n    tag_334:\n        /* \"#utility.yul\":16625:16709   */\n    tag_333:\n        /* \"#utility.yul\":16446:16715   */\n      pop\n        /* \"#utility.yul\":16395:16715   */\n      swap2\n      swap1\n      pop\n      jump\t// out\n        /* \"#utility.yul\":16721:16901   */\n    tag_162:\n        /* \"#utility.yul\":16769:16846   */\n      0x4e487b7100000000000000000000000000000000000000000000000000000000\n        /* \"#utility.yul\":16766:16767   */\n      0x00\n        /* \"#utility.yul\":16759:16847   */\n      mstore\n        /* \"#utility.yul\":16866:16870   */\n      0x11\n        /* \"#utility.yul\":16863:16864   */\n      0x04\n        /* \"#utility.yul\":16856:16871   */\n      mstore\n        /* \"#utility.yul\":16890:16894   */\n      0x24\n        /* \"#utility.yul\":16887:16888   */\n      0x00\n        /* \"#utility.yul\":16880:16895   */\n      revert\n        /* \"#utility.yul\":16907:17140   */\n    tag_84:\n        /* \"#utility.yul\":16946:16949   */\n      0x00\n        /* \"#utility.yul\":16969:16993   */\n      tag_337\n        /* \"#utility.yul\":16987:16992   */\n      dup3\n        /* \"#utility.yul\":16969:16993   */\n      tag_125\n      jump\t// in\n    tag_337:\n        /* \"#utility.yul\":16960:16993   */\n      swap2\n      pop\n        /* \"#utility.yul\":17015:17081   */\n      0xffffffffffffffffffffffffffffffffffffffffffffffffffffffffffffffff\n        /* \"#utility.yul\":17008:17013   */\n      dup3\n        /* \"#utility.yul\":17005:17082   */\n      sub\n        /* \"#utility.yul\":17002:17105   */\n      tag_338\n      jumpi\n        /* \"#utility.yul\":17085:17103   */\n      tag_339\n      tag_162\n      jump\t// in\n    tag_339:\n        /* \"#utility.yul\":17002:17105   */\n    tag_338:\n        /* \"#utility.yul\":17132:17133   */\n      0x01\n        /* \"#utility.yul\":17125:17130   */\n      dup3\n        /* \"#utility.yul\":17121:17134   */\n      add\n        /* \"#utility.yul\":17114:17134   */\n      swap1\n      pop\n        /* \"#utility.yul\":16907:17140   */\n      swap2\n      swap1\n      pop\n      jump\t// out\n        /* \"#utility.yul\":17146:17287   */\n    tag_163:\n        /* \"#utility.yul\":17195:17199   */\n      0x00\n        /* \"#utility.yul\":17218:17221   */\n      dup2\n        /* \"#utility.yul\":17210:17221   */\n      swap1\n      pop\n        /* \"#utility.yul\":17241:17244   */\n      dup2\n        /* \"#utility.yul\":17238:17239   */\n      0x00\n        /* \"#utility.yul\":17231:17245   */\n      mstore\n        /* \"#utility.yul\":17275:17279   */\n      0x20\n        /* \"#utility.yul\":17272:17273   */\n      0x00\n        /* \"#utility.yul\":17262:17280   */\n      keccak256\n        /* \"#utility.yul\":17254:17280   */\n      swap1\n      pop\n        /* \"#utility.yul\":17146:17287   */\n      swap2\n      swap1\n      pop\n      jump\t// out\n        /* \"#utility.yul\":17293:17386   */\n    tag_164:\n        /* \"#utility.yul\":17330:17336   */\n      0x00\n        /* \"#utility.yul\":17377:17379   */\n      0x20\n        /* \"#utility.yul\":17372:17374   */\n      0x1f\n        /* \"#utility.yul\":17365:17370   */\n      dup4\n        /* \"#utility.yul\":17361:17375   */\n      add\n        /* \"#utility.yul\":17357:17380   */\n      div\n        /* \"#utility.yul\":17347:17380   */\n      swap1\n      pop\n        /* \"#utility.yul\":17293:17386   */\n      swap2\n      swap1\n      pop\n      jump\t// out\n        /* \"#utility.yul\":17392:17499   */\n    tag_165:\n        /* \"#utility.yul\":17436:17444   */\n      0x00\n        /* \"#utility.yul\":17486:17491   */\n      dup3\n        /* \"#utility.yul\":17480:17484   */\n      dup3\n        /* \"#utility.yul\":17476:17492   */\n      shl\n        /* \"#utility.yul\":17455:17492   */\n      swap1\n      pop\n        /* \"#utility.yul\":17392:17499   */\n      swap3\n      swap2\n      pop\n      pop\n      jump\t// out\n        /* \"#utility.yul\":17505:17898   */\n    tag_166:\n        /* \"#utility.yul\":17574:17580   */\n      0x00\n        /* \"#utility.yul\":17624:17625   */\n      0x08\n        /* \"#utility.yul\":17612:17622   */\n      dup4\n        /* \"#utility.yul\":17608:17626   */\n      mul\n        /* \"#utility.yul\":17647:17744   */\n      tag_344\n        /* \"#utility.yul\":17677:17743   */\n      0xffffffffffffffffffffffffffffffffffffffffffffffffffffffffffffffff\n        /* \"#utility.yul\":17666:17675   */\n      dup3\n        /* \"#utility.yul\":17647:17744   */\n      tag_165\n      jump\t// in\n    tag_344:\n        /* \"#utility.yul\":17765:17804   */\n      tag_345\n        /* \"#utility.yul\":17795:17803   */\n      dup7\n        /* \"#utility.yul\":17784:17793   */\n      dup4\n        /* \"#utility.yul\":17765:17804   */\n      tag_165\n      jump\t// in\n    tag_345:\n        /* \"#utility.yul\":17753:17804   */\n      swap6\n      pop\n        /* \"#utility.yul\":17837:17841   */\n      dup1\n        /* \"#utility.yul\":17833:17842   */\n      not\n        /* \"#utility.yul\":17826:17831   */\n      dup5\n        /* \"#utility.yul\":17822:17843   */\n      and\n        /* \"#utility.yul\":17813:17843   */\n      swap4\n      pop\n        /* \"#utility.yul\":17886:17890   */\n      dup1\n        /* \"#utility.yul\":17876:17884   */\n      dup7\n        /* \"#utility.yul\":17872:17891   */\n      and\n        /* \"#utility.yul\":17865:17870   */\n      dup5\n        /* \"#utility.yul\":17862:17892   */\n      or\n        /* \"#utility.yul\":17852:17892   */\n      swap3\n      pop\n        /* \"#utility.yul\":17581:17898   */\n      pop\n      pop\n        /* \"#utility.yul\":17505:17898   */\n      swap4\n      swap3\n      pop\n      pop\n      pop\n      jump\t// out\n        /* \"#utility.yul\":17904:17964   */\n    tag_167:\n        /* \"#utility.yul\":17932:17935   */\n      0x00\n        /* \"#utility.yul\":17953:17958   */\n      dup2\n        /* \"#utility.yul\":17946:17958   */\n      swap1\n      pop\n        /* \"#utility.yul\":17904:17964   */\n      swap2\n      swap1\n      pop\n      jump\t// out\n        /* \"#utility.yul\":17970:18112   */\n    tag_168:\n        /* \"#utility.yul\":18020:18029   */\n      0x00\n        /* \"#utility.yul\":18053:18106   */\n      tag_348\n        /* \"#utility.yul\":18071:18105   */\n      tag_349\n        /* \"#utility.yul\":18080:18104   */\n      tag_350\n        /* \"#utility.yul\":18098:18103   */\n      dup5\n        /* \"#utility.yul\":18080:18104   */\n      tag_125\n      jump\t// in\n    tag_350:\n        /* \"#utility.yul\":18071:18105   */\n      tag_167\n      jump\t// in\n    tag_349:\n        /* \"#utility.yul\":18053:18106   */\n      tag_125\n      jump\t// in\n    tag_348:\n        /* \"#utility.yul\":18040:18106   */\n      swap1\n      pop\n        /* \"#utility.yul\":17970:18112   */\n      swap2\n      swap1\n      pop\n      jump\t// out\n        /* \"#utility.yul\":18118:18193   */\n    tag_169:\n        /* \"#utility.yul\":18161:18164   */\n      0x00\n        /* \"#utility.yul\":18182:18187   */\n      dup2\n        /* \"#utility.yul\":18175:18187   */\n      swap1\n      pop\n        /* \"#utility.yul\":18118:18193   */\n      swap2\n      swap1\n      pop\n      jump\t// out\n        /* \"#utility.yul\":18199:18468   */\n    tag_170:\n        /* \"#utility.yul\":18309:18348   */\n      tag_353\n        /* \"#utility.yul\":18340:18347   */\n      dup4\n        /* \"#utility.yul\":18309:18348   */\n      tag_168\n      jump\t// in\n    tag_353:\n        /* \"#utility.yul\":18370:18461   */\n      tag_354\n        /* \"#utility.yul\":18419:18460   */\n      tag_355\n        /* \"#utility.yul\":18443:18459   */\n      dup3\n        /* \"#utility.yul\":18419:18460   */\n      tag_169\n      jump\t// in\n    tag_355:\n        /* \"#utility.yul\":18411:18417   */\n      dup5\n        /* \"#utility.yul\":18404:18408   */\n      dup5\n        /* \"#utility.yul\":18398:18409   */\n      sload\n        /* \"#utility.yul\":18370:18461   */\n      tag_166\n      jump\t// in\n    tag_354:\n        /* \"#utility.yul\":18364:18368   */\n      dup3\n        /* \"#utility.yul\":18357:18462   */\n      sstore\n        /* \"#utility.yul\":18275:18468   */\n      pop\n        /* \"#utility.yul\":18199:18468   */\n      pop\n      pop\n      pop\n      jump\t// out\n        /* \"#utility.yul\":18474:18547   */\n    tag_171:\n        /* \"#utility.yul\":18519:18522   */\n      0x00\n        /* \"#utility.yul\":18474:18547   */\n      swap1\n      jump\t// out\n        /* \"#utility.yul\":18553:18742   */\n    tag_172:\n        /* \"#utility.yul\":18630:18662   */\n      tag_358\n      tag_171\n      jump\t// in\n    tag_358:\n        /* \"#utility.yul\":18671:18736   */\n      tag_359\n        /* \"#utility.yul\":18729:18735   */\n      dup2\n        /* \"#utility.yul\":18721:18727   */\n      dup5\n        /* \"#utility.yul\":18715:18719   */\n      dup5\n        /* \"#utility.yul\":18671:18736   */\n      tag_170\n      jump\t// in\n    tag_359:\n        /* \"#utility.yul\":18606:18742   */\n      pop\n        /* \"#utility.yul\":18553:18742   */\n      pop\n      pop\n      jump\t// out\n        /* \"#utility.yul\":18748:18934   */\n    tag_173:\n        /* \"#utility.yul\":18808:18928   */\n    tag_361:\n        /* \"#utility.yul\":18825:18828   */\n      dup2\n        /* \"#utility.yul\":18818:18823   */\n      dup2\n        /* \"#utility.yul\":18815:18829   */\n      lt\n        /* \"#utility.yul\":18808:18928   */\n      iszero\n      tag_363\n      jumpi\n        /* \"#utility.yul\":18879:18918   */\n      tag_364\n        /* \"#utility.yul\":18916:18917   */\n      0x00\n        /* \"#utility.yul\":18909:18914   */\n      dup3\n        /* \"#utility.yul\":18879:18918   */\n      tag_172\n      jump\t// in\n    tag_364:\n        /* \"#utility.yul\":18852:18853   */\n      0x01\n        /* \"#utility.yul\":18845:18850   */\n      dup2\n        /* \"#utility.yul\":18841:18854   */\n      add\n        /* \"#utility.yul\":18832:18854   */\n      swap1\n      pop\n        /* \"#utility.yul\":18808:18928   */\n      jump(tag_361)\n    tag_363:\n        /* \"#utility.yul\":18748:18934   */\n      pop\n      pop\n      jump\t// out\n        /* \"#utility.yul\":18940:19483   */\n    tag_174:\n        /* \"#utility.yul\":19041:19043   */\n      0x1f\n        /* \"#utility.yul\":19036:19039   */\n      dup3\n        /* \"#utility.yul\":19033:19044   */\n      gt\n        /* \"#utility.yul\":19030:19476   */\n      iszero\n      tag_366\n      jumpi\n        /* \"#utility.yul\":19075:19113   */\n      tag_367\n        /* \"#utility.yul\":19107:19112   */\n      dup2\n        /* \"#utility.yul\":19075:19113   */\n      tag_163\n      jump\t// in\n    tag_367:\n        /* \"#utility.yul\":19159:19188   */\n      tag_368\n        /* \"#utility.yul\":19177:19187   */\n      dup5\n        /* \"#utility.yul\":19159:19188   */\n      tag_164\n      jump\t// in\n    tag_368:\n        /* \"#utility.yul\":19149:19157   */\n      dup2\n        /* \"#utility.yul\":19145:19189   */\n      add\n        /* \"#utility.yul\":19342:19344   */\n      0x20\n        /* \"#utility.yul\":19330:19340   */\n      dup6\n        /* \"#utility.yul\":19327:19345   */\n      lt\n        /* \"#utility.yul\":19324:19373   */\n      iszero\n      tag_369\n      jumpi\n        /* \"#utility.yul\":19363:19371   */\n      dup2\n        /* \"#utility.yul\":19348:19371   */\n      swap1\n      pop\n        /* \"#utility.yul\":19324:19373   */\n    tag_369:\n        /* \"#utility.yul\":19386:19466   */\n      tag_370\n        /* \"#utility.yul\":19442:19464   */\n      tag_371\n        /* \"#utility.yul\":19460:19463   */\n      dup6\n        /* \"#utility.yul\":19442:19464   */\n      tag_164\n      jump\t// in\n    tag_371:\n        /* \"#utility.yul\":19432:19440   */\n      dup4\n        /* \"#utility.yul\":19428:19465   */\n      add\n        /* \"#utility.yul\":19415:19426   */\n      dup3\n        /* \"#utility.yul\":19386:19466   */\n      tag_173\n      jump\t// in\n    tag_370:\n        /* \"#utility.yul\":19045:19476   */\n      pop\n      pop\n        /* \"#utility.yul\":19030:19476   */\n    tag_366:\n        /* \"#utility.yul\":18940:19483   */\n      pop\n      pop\n      pop\n      jump\t// out\n        /* \"#utility.yul\":19489:19606   */\n    tag_175:\n        /* \"#utility.yul\":19543:19551   */\n      0x00\n        /* \"#utility.yul\":19593:19598   */\n      dup3\n        /* \"#utility.yul\":19587:19591   */\n      dup3\n        /* \"#utility.yul\":19583:19599   */\n      shr\n        /* \"#utility.yul\":19562:19599   */\n      swap1\n      pop\n        /* \"#utility.yul\":19489:19606   */\n      swap3\n      swap2\n      pop\n      pop\n      jump\t// out\n        /* \"#utility.yul\":19612:19781   */\n    tag_176:\n        /* \"#utility.yul\":19656:19662   */\n      0x00\n        /* \"#utility.yul\":19689:19740   */\n      tag_374\n        /* \"#utility.yul\":19737:19738   */\n      0x00\n        /* \"#utility.yul\":19733:19739   */\n      not\n        /* \"#utility.yul\":19725:19730   */\n      dup5\n        /* \"#utility.yul\":19722:19723   */\n      0x08\n        /* \"#utility.yul\":19718:19731   */\n      mul\n        /* \"#utility.yul\":19689:19740   */\n      tag_175\n      jump\t// in\n    tag_374:\n        /* \"#utility.yul\":19685:19741   */\n      not\n        /* \"#utility.yul\":19770:19774   */\n      dup1\n        /* \"#utility.yul\":19764:19768   */\n      dup4\n        /* \"#utility.yul\":19760:19775   */\n      and\n        /* \"#utility.yul\":19750:19775   */\n      swap2\n      pop\n        /* \"#utility.yul\":19663:19781   */\n      pop\n        /* \"#utility.yul\":19612:19781   */\n      swap3\n      swap2\n      pop\n      pop\n      jump\t// out\n        /* \"#utility.yul\":19786:20081   */\n    tag_177:\n        /* \"#utility.yul\":19862:19866   */\n      0x00\n        /* \"#utility.yul\":20008:20037   */\n      tag_376\n        /* \"#utility.yul\":20033:20036   */\n      dup4\n        /* \"#utility.yul\":20027:20031   */\n      dup4\n        /* \"#utility.yul\":20008:20037   */\n      tag_176\n      jump\t// in\n    tag_376:\n        /* \"#utility.yul\":20000:20037   */\n      swap2\n      pop\n        /* \"#utility.yul\":20070:20073   */\n      dup3\n        /* \"#utility.yul\":20067:20068   */\n      0x02\n        /* \"#utility.yul\":20063:20074   */\n      mul\n        /* \"#utility.yul\":20057:20061   */\n      dup3\n        /* \"#utility.yul\":20054:20075   */\n      or\n        /* \"#utility.yul\":20046:20075   */\n      swap1\n      pop\n        /* \"#utility.yul\":19786:20081   */\n      swap3\n      swap2\n      pop\n      pop\n      jump\t// out\n        /* \"#utility.yul\":20086:21481   */\n    tag_87:\n        /* \"#utility.yul\":20203:20240   */\n      tag_378\n        /* \"#utility.yul\":20236:20239   */\n      dup3\n        /* \"#utility.yul\":20203:20240   */\n      tag_127\n      jump\t// in\n    tag_378:\n        /* \"#utility.yul\":20305:20323   */\n      0xffffffffffffffff\n        /* \"#utility.yul\":20297:20303   */\n      dup2\n        /* \"#utility.yul\":20294:20324   */\n      gt\n        /* \"#utility.yul\":20291:20347   */\n      iszero\n      tag_379\n      jumpi\n        /* \"#utility.yul\":20327:20345   */\n      tag_380\n      tag_141\n      jump\t// in\n    tag_380:\n        /* \"#utility.yul\":20291:20347   */\n    tag_379:\n        /* \"#utility.yul\":20371:20409   */\n      tag_381\n        /* \"#utility.yul\":20403:20407   */\n      dup3\n        /* \"#utility.yul\":20397:20408   */\n      sload\n        /* \"#utility.yul\":20371:20409   */\n      tag_54\n      jump\t// in\n    tag_381:\n        /* \"#utility.yul\":20456:20523   */\n      tag_382\n        /* \"#utility.yul\":20516:20522   */\n      dup3\n        /* \"#utility.yul\":20508:20514   */\n      dup3\n        /* \"#utility.yul\":20502:20506   */\n      dup6\n        /* \"#utility.yul\":20456:20523   */\n      tag_174\n      jump\t// in\n    tag_382:\n        /* \"#utility.yul\":20550:20551   */\n      0x00\n        /* \"#utility.yul\":20574:20578   */\n      0x20\n        /* \"#utility.yul\":20561:20578   */\n      swap1\n      pop\n        /* \"#utility.yul\":20606:20608   */\n      0x1f\n        /* \"#utility.yul\":20598:20604   */\n      dup4\n        /* \"#utility.yul\":20595:20609   */\n      gt\n        /* \"#utility.yul\":20623:20624   */\n      0x01\n        /* \"#utility.yul\":20618:21236   */\n      dup2\n      eq\n      tag_384\n      jumpi\n        /* \"#utility.yul\":21280:21281   */\n      0x00\n        /* \"#utility.yul\":21297:21303   */\n      dup5\n        /* \"#utility.yul\":21294:21371   */\n      iszero\n      tag_385\n      jumpi\n        /* \"#utility.yul\":21346:21355   */\n      dup3\n        /* \"#utility.yul\":21341:21344   */\n      dup8\n        /* \"#utility.yul\":21337:21356   */\n      add\n        /* \"#utility.yul\":21331:21357   */\n      mload\n        /* \"#utility.yul\":21322:21357   */\n      swap1\n      pop\n        /* \"#utility.yul\":21294:21371   */\n    tag_385:\n        /* \"#utility.yul\":21397:21464   */\n      tag_386\n        /* \"#utility.yul\":21457:21463   */\n      dup6\n        /* \"#utility.yul\":21450:21455   */\n      dup3\n        /* \"#utility.yul\":21397:21464   */\n      tag_177\n      jump\t// in\n    tag_386:\n        /* \"#utility.yul\":21391:21395   */\n      dup7\n        /* \"#utility.yul\":21384:21465   */\n      sstore\n        /* \"#utility.yul\":21253:21475   */\n      pop\n        /* \"#utility.yul\":20588:21475   */\n      jump(tag_383)\n        /* \"#utility.yul\":20618:21236   */\n    tag_384:\n        /* \"#utility.yul\":20670:20674   */\n      0x1f\n        /* \"#utility.yul\":20666:20675   */\n      not\n        /* \"#utility.yul\":20658:20664   */\n      dup5\n        /* \"#utility.yul\":20654:20676   */\n      and\n        /* \"#utility.yul\":20704:20741   */\n      tag_387\n        /* \"#utility.yul\":20736:20740   */\n      dup7\n        /* \"#utility.yul\":20704:20741   */\n      tag_163\n      jump\t// in\n    tag_387:\n        /* \"#utility.yul\":20763:20764   */\n      0x00\n        /* \"#utility.yul\":20777:20985   */\n    tag_388:\n        /* \"#utility.yul\":20791:20798   */\n      dup3\n        /* \"#utility.yul\":20788:20789   */\n      dup2\n        /* \"#utility.yul\":20785:20799   */\n      lt\n        /* \"#utility.yul\":20777:20985   */\n      iszero\n      tag_390\n      jumpi\n        /* \"#utility.yul\":20870:20879   */\n      dup5\n        /* \"#utility.yul\":20865:20868   */\n      dup10\n        /* \"#utility.yul\":20861:20880   */\n      add\n        /* \"#utility.yul\":20855:20881   */\n      mload\n        /* \"#utility.yul\":20847:20853   */\n      dup3\n        /* \"#utility.yul\":20840:20882   */\n      sstore\n        /* \"#utility.yul\":20921:20922   */\n      0x01\n        /* \"#utility.yul\":20913:20919   */\n      dup3\n        /* \"#utility.yul\":20909:20923   */\n      add\n        /* \"#utility.yul\":20899:20923   */\n      swap2\n      pop\n        /* \"#utility.yul\":20968:20970   */\n      0x20\n        /* \"#utility.yul\":20957:20966   */\n      dup6\n        /* \"#utility.yul\":20953:20971   */\n      add\n        /* \"#utility.yul\":20940:20971   */\n      swap5\n      pop\n        /* \"#utility.yul\":20814:20818   */\n      0x20\n        /* \"#utility.yul\":20811:20812   */\n      dup2\n        /* \"#utility.yul\":20807:20819   */\n      add\n        /* \"#utility.yul\":20802:20819   */\n      swap1\n      pop\n        /* \"#utility.yul\":20777:20985   */\n      jump(tag_388)\n    tag_390:\n        /* \"#utility.yul\":21013:21019   */\n      dup7\n        /* \"#utility.yul\":21004:21011   */\n      dup4\n        /* \"#utility.yul\":21001:21020   */\n      lt\n        /* \"#utility.yul\":20998:21177   */\n      iszero\n      tag_391\n      jumpi\n        /* \"#utility.yul\":21071:21080   */\n      dup5\n        /* \"#utility.yul\":21066:21069   */\n      dup10\n        /* \"#utility.yul\":21062:21081   */\n      add\n        /* \"#utility.yul\":21056:21082   */\n      mload\n        /* \"#utility.yul\":21114:21162   */\n      tag_392\n        /* \"#utility.yul\":21156:21160   */\n      0x1f\n        /* \"#utility.yul\":21148:21154   */\n      dup10\n        /* \"#utility.yul\":21144:21161   */\n      and\n        /* \"#utility.yul\":21133:21142   */\n      dup3\n        /* \"#utility.yul\":21114:21162   */\n      tag_176\n      jump\t// in\n    tag_392:\n        /* \"#utility.yul\":21106:21112   */\n      dup4\n        /* \"#utility.yul\":21099:21163   */\n      sstore\n        /* \"#utility.yul\":21021:21177   */\n      pop\n        /* \"#utility.yul\":20998:21177   */\n    tag_391:\n        /* \"#utility.yul\":21223:21224   */\n      0x01\n        /* \"#utility.yul\":21219:21220   */\n      0x02\n        /* \"#utility.yul\":21211:21217   */\n      dup9\n        /* \"#utility.yul\":21207:21221   */\n      mul\n        /* \"#utility.yul\":21203:21225   */\n      add\n        /* \"#utility.yul\":21197:21201   */\n      dup9\n        /* \"#utility.yul\":21190:21226   */\n      sstore\n        /* \"#utility.yul\":20625:21236   */\n      pop\n      pop\n      pop\n        /* \"#utility.yul\":20588:21475   */\n    tag_383:\n      pop\n        /* \"#utility.yul\":20178:21481   */\n      pop\n      pop\n      pop\n        /* \"#utility.yul\":20086:21481   */\n      pop\n      pop\n      jump\t// out\n        /* \"#utility.yul\":21487:21667   */\n    tag_98:\n        /* \"#utility.yul\":21535:21612   */\n      0x4e487b7100000000000000000000000000000000000000000000000000000000\n        /* \"#utility.yul\":21532:21533   */\n      0x00\n        /* \"#utility.yul\":21525:21613   */\n      mstore\n        /* \"#utility.yul\":21632:21636   */\n      0x32\n        /* \"#utility.yul\":21629:21630   */\n      0x04\n        /* \"#utility.yul\":21622:21637   */\n      mstore\n        /* \"#utility.yul\":21656:21660   */\n      0x24\n        /* \"#utility.yul\":21653:21654   */\n      0x00\n        /* \"#utility.yul\":21646:21661   */\n      revert\n        /* \"#utility.yul\":21673:21898   */\n    tag_178:\n        /* \"#utility.yul\":21813:21847   */\n      0x4f776e61626c653a206e6577206f776e657220697320746865207a65726f2061\n        /* \"#utility.yul\":21809:21810   */\n      0x00\n        /* \"#utility.yul\":21801:21807   */\n      dup3\n        /* \"#utility.yul\":21797:21811   */\n      add\n        /* \"#utility.yul\":21790:21848   */\n      mstore\n        /* \"#utility.yul\":21882:21890   */\n      0x6464726573730000000000000000000000000000000000000000000000000000\n        /* \"#utility.yul\":21877:21879   */\n      0x20\n        /* \"#utility.yul\":21869:21875   */\n      dup3\n        /* \"#utility.yul\":21865:21880   */\n      add\n        /* \"#utility.yul\":21858:21891   */\n      mstore\n        /* \"#utility.yul\":21673:21898   */\n      pop\n      jump\t// out\n        /* \"#utility.yul\":21904:22270   */\n    tag_179:\n        /* \"#utility.yul\":22046:22049   */\n      0x00\n        /* \"#utility.yul\":22067:22134   */\n      tag_396\n        /* \"#utility.yul\":22131:22133   */\n      0x26\n        /* \"#utility.yul\":22126:22129   */\n      dup4\n        /* \"#utility.yul\":22067:22134   */\n      tag_156\n      jump\t// in\n    tag_396:\n        /* \"#utility.yul\":22060:22134   */\n      swap2\n      pop\n        /* \"#utility.yul\":22143:22236   */\n      tag_397\n        /* \"#utility.yul\":22232:22235   */\n      dup3\n        /* \"#utility.yul\":22143:22236   */\n      tag_178\n      jump\t// in\n    tag_397:\n        /* \"#utility.yul\":22261:22263   */\n      0x40\n        /* \"#utility.yul\":22256:22259   */\n      dup3\n        /* \"#utility.yul\":22252:22264   */\n      add\n        /* \"#utility.yul\":22245:22264   */\n      swap1\n      pop\n        /* \"#utility.yul\":21904:22270   */\n      swap2\n      swap1\n      pop\n      jump\t// out\n        /* \"#utility.yul\":22276:22695   */\n    tag_105:\n        /* \"#utility.yul\":22442:22446   */\n      0x00\n        /* \"#utility.yul\":22480:22482   */\n      0x20\n        /* \"#utility.yul\":22469:22478   */\n      dup3\n        /* \"#utility.yul\":22465:22483   */\n      add\n        /* \"#utility.yul\":22457:22483   */\n      swap1\n      pop\n        /* \"#utility.yul\":22529:22538   */\n      dup2\n        /* \"#utility.yul\":22523:22527   */\n      dup2\n        /* \"#utility.yul\":22519:22539   */\n      sub\n        /* \"#utility.yul\":22515:22516   */\n      0x00\n        /* \"#utility.yul\":22504:22513   */\n      dup4\n        /* \"#utility.yul\":22500:22517   */\n      add\n        /* \"#utility.yul\":22493:22540   */\n      mstore\n        /* \"#utility.yul\":22557:22688   */\n      tag_399\n        /* \"#utility.yul\":22683:22687   */\n      dup2\n        /* \"#utility.yul\":22557:22688   */\n      tag_179\n      jump\t// in\n    tag_399:\n        /* \"#utility.yul\":22549:22688   */\n      swap1\n      pop\n        /* \"#utility.yul\":22276:22695   */\n      swap2\n      swap1\n      pop\n      jump\t// out\n        /* \"#utility.yul\":22701:22883   */\n    tag_180:\n        /* \"#utility.yul\":22841:22875   */\n      0x4f776e61626c653a2063616c6c6572206973206e6f7420746865206f776e6572\n        /* \"#utility.yul\":22837:22838   */\n      0x00\n        /* \"#utility.yul\":22829:22835   */\n      dup3\n        /* \"#utility.yul\":22825:22839   */\n      add\n        /* \"#utility.yul\":22818:22876   */\n      mstore\n        /* \"#utility.yul\":22701:22883   */\n      pop\n      jump\t// out\n        /* \"#utility.yul\":22889:23255   */\n    tag_181:\n        /* \"#utility.yul\":23031:23034   */\n      0x00\n        /* \"#utility.yul\":23052:23119   */\n      tag_402\n        /* \"#utility.yul\":23116:23118   */\n      0x20\n        /* \"#utility.yul\":23111:23114   */\n      dup4\n        /* \"#utility.yul\":23052:23119   */\n      tag_156\n      jump\t// in\n    tag_402:\n        /* \"#utility.yul\":23045:23119   */\n      swap2\n      pop\n        /* \"#utility.yul\":23128:23221   */\n      tag_403\n        /* \"#utility.yul\":23217:23220   */\n      dup3\n        /* \"#utility.yul\":23128:23221   */\n      tag_180\n      jump\t// in\n    tag_403:\n        /* \"#utility.yul\":23246:23248   */\n      0x20\n        /* \"#utility.yul\":23241:23244   */\n      dup3\n        /* \"#utility.yul\":23237:23249   */\n      add\n        /* \"#utility.yul\":23230:23249   */\n      swap1\n      pop\n        /* \"#utility.yul\":22889:23255   */\n      swap2\n      swap1\n      pop\n      jump\t// out\n        /* \"#utility.yul\":23261:23680   */\n    tag_112:\n        /* \"#utility.yul\":23427:23431   */\n      0x00\n        /* \"#utility.yul\":23465:23467   */\n      0x20\n        /* \"#utility.yul\":23454:23463   */\n      dup3\n        /* \"#utility.yul\":23450:23468   */\n      add\n        /* \"#utility.yul\":23442:23468   */\n      swap1\n      pop\n        /* \"#utility.yul\":23514:23523   */\n      dup2\n        /* \"#utility.yul\":23508:23512   */\n      dup2\n        /* \"#utility.yul\":23504:23524   */\n      sub\n        /* \"#utility.yul\":23500:23501   */\n      0x00\n        /* \"#utility.yul\":23489:23498   */\n      dup4\n        /* \"#utility.yul\":23485:23502   */\n      add\n        /* \"#utility.yul\":23478:23525   */\n      mstore\n        /* \"#utility.yul\":23542:23673   */\n      tag_405\n        /* \"#utility.yul\":23668:23672   */\n      dup2\n        /* \"#utility.yul\":23542:23673   */\n      tag_181\n      jump\t// in\n    tag_405:\n        /* \"#utility.yul\":23534:23673   */\n      swap1\n      pop\n        /* \"#utility.yul\":23261:23680   */\n      swap2\n      swap1\n      pop\n      jump\t// out\n\n    auxdata: 0xa26469706673582212202d358ba8a1cde49b8bd41b559b335ab61bacf2086615e426f5415afeb3d319c464736f6c63430008120033\n}\n",
				"bytecode": {
					"linkReferences": {},
					"object": "6080604052600060025534801561001557600080fd5b50336000806101000a81548173ffffffffffffffffffffffffffffffffffffffff021916908373ffffffffffffffffffffffffffffffffffffffff160217905550611741806100656000396000f3fe608060405234801561001057600080fd5b506004361061007d5760003560e01c80638da5cb5b1161005b5780638da5cb5b146100c6578063b39f14f0146100e4578063ee416d5b14610100578063f2fde38b1461011c5761007d565b80634d0a5dbd1461008257806369f205f21461009e57806383197ef0146100bc575b600080fd5b61009c60048036038101906100979190610b0f565b610138565b005b6100a6610228565b6040516100b39190610dab565b60405180910390f35b6100c46105f2565b005b6100ce610613565b6040516100db9190610ddc565b60405180910390f35b6100fe60048036038101906100f991906110de565b61063c565b005b61011a60048036038101906101159190611127565b610804565b005b61013660048036038101906101319190610b0f565b6108d7565b005b61014061095a565b600360008273ffffffffffffffffffffffffffffffffffffffff1673ffffffffffffffffffffffffffffffffffffffff16815260200190815260200160002060009054906101000a900460ff16156101cd576040517f08c379a00000000000000000000000000000000000000000000000000000000081526004016101c4906111d7565b60405180910390fd5b6001600360008373ffffffffffffffffffffffffffffffffffffffff1673ffffffffffffffffffffffffffffffffffffffff16815260200190815260200160002060006101000a81548160ff02191690831515021790555050565b6060600360006102366109d1565b73ffffffffffffffffffffffffffffffffffffffff1673ffffffffffffffffffffffffffffffffffffffff16815260200190815260200160002060009054906101000a900460ff166102bd576040517f08c379a00000000000000000000000000000000000000000000000000000000081526004016102b490611269565b60405180910390fd5b6001805480602002602001604051908101604052809291908181526020016000905b828210156105e95783829060005260206000209060090201604051806101200160405290816000820154815260200160018201805461031d906112b8565b80601f0160208091040260200160405190810160405280929190818152602001828054610349906112b8565b80156103965780601f1061036b57610100808354040283529160200191610396565b820191906000526020600020905b81548152906001019060200180831161037957829003601f168201915b505050505081526020016002820160009054906101000a900473ffffffffffffffffffffffffffffffffffffffff1673ffffffffffffffffffffffffffffffffffffffff1673ffffffffffffffffffffffffffffffffffffffff1681526020016003820154815260200160048201805461040f906112b8565b80601f016020809104026020016040519081016040528092919081815260200182805461043b906112b8565b80156104885780601f1061045d57610100808354040283529160200191610488565b820191906000526020600020905b81548152906001019060200180831161046b57829003601f168201915b505050505081526020016005820180546104a1906112b8565b80601f01602080910402602001604051908101604052809291908181526020018280546104cd906112b8565b801561051a5780601f106104ef5761010080835404028352916020019161051a565b820191906000526020600020905b8154815290600101906020018083116104fd57829003601f168201915b50505050508152602001600682018054610533906112b8565b80601f016020809104026020016040519081016040528092919081815260200182805461055f906112b8565b80156105ac5780601f10610581576101008083540402835291602001916105ac565b820191906000526020600020905b81548152906001019060200180831161058f57829003601f168201915b50505050508152602001600782015481526020016008820160009054906101000a900460ff161515151581525050815260200190600101906102df565b50505050905090565b6105fa61095a565b3073ffffffffffffffffffffffffffffffffffffffff16ff5b60008060009054906101000a900473ffffffffffffffffffffffffffffffffffffffff16905090565b600360006106486109d1565b73ffffffffffffffffffffffffffffffffffffffff1673ffffffffffffffffffffffffffffffffffffffff16815260200190815260200160002060009054906101000a900460ff166106cf576040517f08c379a00000000000000000000000000000000000000000000000000000000081526004016106c690611269565b60405180910390fd5b6000600260008154809291906106e490611318565b91905055905080826000018181525050600182908060018154018082558091505060019003906000526020600020906009020160009091909190915060008201518160000155602082015181600101908161073f919061150c565b5060408201518160020160006101000a81548173ffffffffffffffffffffffffffffffffffffffff021916908373ffffffffffffffffffffffffffffffffffffffff1602179055506060820151816003015560808201518160040190816107a6919061150c565b5060a08201518160050190816107bc919061150c565b5060c08201518160060190816107d2919061150c565b5060e082015181600701556101008201518160080160006101000a81548160ff02191690831515021790555050505050565b600360006108106109d1565b73ffffffffffffffffffffffffffffffffffffffff1673ffffffffffffffffffffffffffffffffffffffff16815260200190815260200160002060009054906101000a900460ff16610897576040517f08c379a000000000000000000000000000000000000000000000000000000000815260040161088e90611269565b60405180910390fd5b60018082815481106108ac576108ab6115de565b5b906000526020600020906009020160080160006101000a81548160ff02191690831515021790555050565b6108df61095a565b600073ffffffffffffffffffffffffffffffffffffffff168173ffffffffffffffffffffffffffffffffffffffff160361094e576040517f08c379a00000000000000000000000000000000000000000000000000000000081526004016109459061167f565b60405180910390fd5b610957816109d9565b50565b3373ffffffffffffffffffffffffffffffffffffffff16610979610613565b73ffffffffffffffffffffffffffffffffffffffff16146109cf576040517f08c379a00000000000000000000000000000000000000000000000000000000081526004016109c6906116eb565b60405180910390fd5b565b600033905090565b60008060009054906101000a900473ffffffffffffffffffffffffffffffffffffffff169050816000806101000a81548173ffffffffffffffffffffffffffffffffffffffff021916908373ffffffffffffffffffffffffffffffffffffffff1602179055508173ffffffffffffffffffffffffffffffffffffffff168173ffffffffffffffffffffffffffffffffffffffff167f8be0079c531659141344cd1fd0a4f28419497f9722a3daafe3b4186f6b6457e060405160405180910390a35050565b6000604051905090565b600080fd5b600080fd5b600073ffffffffffffffffffffffffffffffffffffffff82169050919050565b6000610adc82610ab1565b9050919050565b610aec81610ad1565b8114610af757600080fd5b50565b600081359050610b0981610ae3565b92915050565b600060208284031215610b2557610b24610aa7565b5b6000610b3384828501610afa565b91505092915050565b600081519050919050565b600082825260208201905092915050565b6000819050602082019050919050565b6000819050919050565b610b7b81610b68565b82525050565b600081519050919050565b600082825260208201905092915050565b60005b83811015610bbb578082015181840152602081019050610ba0565b60008484015250505050565b6000601f19601f8301169050919050565b6000610be382610b81565b610bed8185610b8c565b9350610bfd818560208601610b9d565b610c0681610bc7565b840191505092915050565b610c1a81610ad1565b82525050565b60008115159050919050565b610c3581610c20565b82525050565b600061012083016000830151610c546000860182610b72565b5060208301518482036020860152610c6c8282610bd8565b9150506040830151610c816040860182610c11565b506060830151610c946060860182610b72565b5060808301518482036080860152610cac8282610bd8565b91505060a083015184820360a0860152610cc68282610bd8565b91505060c083015184820360c0860152610ce08282610bd8565b91505060e0830151610cf560e0860182610b72565b50610100830151610d0a610100860182610c2c565b508091505092915050565b6000610d218383610c3b565b905092915050565b6000602082019050919050565b6000610d4182610b3c565b610d4b8185610b47565b935083602082028501610d5d85610b58565b8060005b85811015610d995784840389528151610d7a8582610d15565b9450610d8583610d29565b925060208a01995050600181019050610d61565b50829750879550505050505092915050565b60006020820190508181036000830152610dc58184610d36565b905092915050565b610dd681610ad1565b82525050565b6000602082019050610df16000830184610dcd565b92915050565b600080fd5b7f4e487b7100000000000000000000000000000000000000000000000000000000600052604160045260246000fd5b610e3482610bc7565b810181811067ffffffffffffffff82111715610e5357610e52610dfc565b5b80604052505050565b6000610e66610a9d565b9050610e728282610e2b565b919050565b600080fd5b610e8581610b68565b8114610e9057600080fd5b50565b600081359050610ea281610e7c565b92915050565b600080fd5b600080fd5b600067ffffffffffffffff821115610ecd57610ecc610dfc565b5b610ed682610bc7565b9050602081019050919050565b82818337600083830152505050565b6000610f05610f0084610eb2565b610e5c565b905082815260208101848484011115610f2157610f20610ead565b5b610f2c848285610ee3565b509392505050565b600082601f830112610f4957610f48610ea8565b5b8135610f59848260208601610ef2565b91505092915050565b610f6b81610c20565b8114610f7657600080fd5b50565b600081359050610f8881610f62565b92915050565b60006101208284031215610fa557610fa4610df7565b5b610fb0610120610e5c565b90506000610fc084828501610e93565b600083015250602082013567ffffffffffffffff811115610fe457610fe3610e77565b5b610ff084828501610f34565b602083015250604061100484828501610afa565b604083015250606061101884828501610e93565b606083015250608082013567ffffffffffffffff81111561103c5761103b610e77565b5b61104884828501610f34565b60808301525060a082013567ffffffffffffffff81111561106c5761106b610e77565b5b61107884828501610f34565b60a08301525060c082013567ffffffffffffffff81111561109c5761109b610e77565b5b6110a884828501610f34565b60c08301525060e06110bc84828501610e93565b60e0830152506101006110d184828501610f79565b6101008301525092915050565b6000602082840312156110f4576110f3610aa7565b5b600082013567ffffffffffffffff81111561111257611111610aac565b5b61111e84828501610f8e565b91505092915050565b60006020828403121561113d5761113c610aa7565b5b600061114b84828501610e93565b91505092915050565b600082825260208201905092915050565b7f496e677265737344617461626173653a207065726d697373696f6e206861732060008201527f6265656e206772616e7465640000000000000000000000000000000000000000602082015250565b60006111c1602c83611154565b91506111cc82611165565b604082019050919050565b600060208201905081810360008301526111f0816111b4565b9050919050565b7f496e677265737344617461626173653a206f6e6c7920636f6e7472616374207760008201527f686963682061726520616c6c6f77656400000000000000000000000000000000602082015250565b6000611253603083611154565b915061125e826111f7565b604082019050919050565b6000602082019050818103600083015261128281611246565b9050919050565b7f4e487b7100000000000000000000000000000000000000000000000000000000600052602260045260246000fd5b600060028204905060018216806112d057607f821691505b6020821081036112e3576112e2611289565b5b50919050565b7f4e487b7100000000000000000000000000000000000000000000000000000000600052601160045260246000fd5b600061132382610b68565b91507fffffffffffffffffffffffffffffffffffffffffffffffffffffffffffffffff8203611355576113546112e9565b5b600182019050919050565b60008190508160005260206000209050919050565b60006020601f8301049050919050565b600082821b905092915050565b6000600883026113c27fffffffffffffffffffffffffffffffffffffffffffffffffffffffffffffffff82611385565b6113cc8683611385565b95508019841693508086168417925050509392505050565b6000819050919050565b60006114096114046113ff84610b68565b6113e4565b610b68565b9050919050565b6000819050919050565b611423836113ee565b61143761142f82611410565b848454611392565b825550505050565b600090565b61144c61143f565b61145781848461141a565b505050565b5b8181101561147b57611470600082611444565b60018101905061145d565b5050565b601f8211156114c05761149181611360565b61149a84611375565b810160208510156114a9578190505b6114bd6114b585611375565b83018261145c565b50505b505050565b600082821c905092915050565b60006114e3600019846008026114c5565b1980831691505092915050565b60006114fc83836114d2565b9150826002028217905092915050565b61151582610b81565b67ffffffffffffffff81111561152e5761152d610dfc565b5b61153882546112b8565b61154382828561147f565b600060209050601f8311600181146115765760008415611564578287015190505b61156e85826114f0565b8655506115d6565b601f19841661158486611360565b60005b828110156115ac57848901518255600182019150602085019450602081019050611587565b868310156115c957848901516115c5601f8916826114d2565b8355505b6001600288020188555050505b505050505050565b7f4e487b7100000000000000000000000000000000000000000000000000000000600052603260045260246000fd5b7f4f776e61626c653a206e6577206f776e657220697320746865207a65726f206160008201527f6464726573730000000000000000000000000000000000000000000000000000602082015250565b6000611669602683611154565b91506116748261160d565b604082019050919050565b600060208201905081810360008301526116988161165c565b9050919050565b7f4f776e61626c653a2063616c6c6572206973206e6f7420746865206f776e6572600082015250565b60006116d5602083611154565b91506116e08261169f565b602082019050919050565b60006020820190508181036000830152611704816116c8565b905091905056fea26469706673582212202d358ba8a1cde49b8bd41b559b335ab61bacf2086615e426f5415afeb3d319c464736f6c63430008120033",
					"opcodes": "PUSH1 0x80 PUSH1 0x40 MSTORE PUSH1 0x0 PUSH1 0x2 SSTORE CALLVALUE DUP1 ISZERO PUSH2 0x15 JUMPI PUSH1 0x0 DUP1 REVERT JUMPDEST POP CALLER PUSH1 0x0 DUP1 PUSH2 0x100 EXP DUP2 SLOAD DUP2 PUSH20 0xFFFFFFFFFFFFFFFFFFFFFFFFFFFFFFFFFFFFFFFF MUL NOT AND SWAP1 DUP4 PUSH20 0xFFFFFFFFFFFFFFFFFFFFFFFFFFFFFFFFFFFFFFFF AND MUL OR SWAP1 SSTORE POP PUSH2 0x1741 DUP1 PUSH2 0x65 PUSH1 0x0 CODECOPY PUSH1 0x0 RETURN INVALID PUSH1 0x80 PUSH1 0x40 MSTORE CALLVALUE DUP1 ISZERO PUSH2 0x10 JUMPI PUSH1 0x0 DUP1 REVERT JUMPDEST POP PUSH1 0x4 CALLDATASIZE LT PUSH2 0x7D JUMPI PUSH1 0x0 CALLDATALOAD PUSH1 0xE0 SHR DUP1 PUSH4 0x8DA5CB5B GT PUSH2 0x5B JUMPI DUP1 PUSH4 0x8DA5CB5B EQ PUSH2 0xC6 JUMPI DUP1 PUSH4 0xB39F14F0 EQ PUSH2 0xE4 JUMPI DUP1 PUSH4 0xEE416D5B EQ PUSH2 0x100 JUMPI DUP1 PUSH4 0xF2FDE38B EQ PUSH2 0x11C JUMPI PUSH2 0x7D JUMP JUMPDEST DUP1 PUSH4 0x4D0A5DBD EQ PUSH2 0x82 JUMPI DUP1 PUSH4 0x69F205F2 EQ PUSH2 0x9E JUMPI DUP1 PUSH4 0x83197EF0 EQ PUSH2 0xBC JUMPI JUMPDEST PUSH1 0x0 DUP1 REVERT JUMPDEST PUSH2 0x9C PUSH1 0x4 DUP1 CALLDATASIZE SUB DUP2 ADD SWAP1 PUSH2 0x97 SWAP2 SWAP1 PUSH2 0xB0F JUMP JUMPDEST PUSH2 0x138 JUMP JUMPDEST STOP JUMPDEST PUSH2 0xA6 PUSH2 0x228 JUMP JUMPDEST PUSH1 0x40 MLOAD PUSH2 0xB3 SWAP2 SWAP1 PUSH2 0xDAB JUMP JUMPDEST PUSH1 0x40 MLOAD DUP1 SWAP2 SUB SWAP1 RETURN JUMPDEST PUSH2 0xC4 PUSH2 0x5F2 JUMP JUMPDEST STOP JUMPDEST PUSH2 0xCE PUSH2 0x613 JUMP JUMPDEST PUSH1 0x40 MLOAD PUSH2 0xDB SWAP2 SWAP1 PUSH2 0xDDC JUMP JUMPDEST PUSH1 0x40 MLOAD DUP1 SWAP2 SUB SWAP1 RETURN JUMPDEST PUSH2 0xFE PUSH1 0x4 DUP1 CALLDATASIZE SUB DUP2 ADD SWAP1 PUSH2 0xF9 SWAP2 SWAP1 PUSH2 0x10DE JUMP JUMPDEST PUSH2 0x63C JUMP JUMPDEST STOP JUMPDEST PUSH2 0x11A PUSH1 0x4 DUP1 CALLDATASIZE SUB DUP2 ADD SWAP1 PUSH2 0x115 SWAP2 SWAP1 PUSH2 0x1127 JUMP JUMPDEST PUSH2 0x804 JUMP JUMPDEST STOP JUMPDEST PUSH2 0x136 PUSH1 0x4 DUP1 CALLDATASIZE SUB DUP2 ADD SWAP1 PUSH2 0x131 SWAP2 SWAP1 PUSH2 0xB0F JUMP JUMPDEST PUSH2 0x8D7 JUMP JUMPDEST STOP JUMPDEST PUSH2 0x140 PUSH2 0x95A JUMP JUMPDEST PUSH1 0x3 PUSH1 0x0 DUP3 PUSH20 0xFFFFFFFFFFFFFFFFFFFFFFFFFFFFFFFFFFFFFFFF AND PUSH20 0xFFFFFFFFFFFFFFFFFFFFFFFFFFFFFFFFFFFFFFFF AND DUP2 MSTORE PUSH1 0x20 ADD SWAP1 DUP2 MSTORE PUSH1 0x20 ADD PUSH1 0x0 KECCAK256 PUSH1 0x0 SWAP1 SLOAD SWAP1 PUSH2 0x100 EXP SWAP1 DIV PUSH1 0xFF AND ISZERO PUSH2 0x1CD JUMPI PUSH1 0x40 MLOAD PUSH32 0x8C379A000000000000000000000000000000000000000000000000000000000 DUP2 MSTORE PUSH1 0x4 ADD PUSH2 0x1C4 SWAP1 PUSH2 0x11D7 JUMP JUMPDEST PUSH1 0x40 MLOAD DUP1 SWAP2 SUB SWAP1 REVERT JUMPDEST PUSH1 0x1 PUSH1 0x3 PUSH1 0x0 DUP4 PUSH20 0xFFFFFFFFFFFFFFFFFFFFFFFFFFFFFFFFFFFFFFFF AND PUSH20 0xFFFFFFFFFFFFFFFFFFFFFFFFFFFFFFFFFFFFFFFF AND DUP2 MSTORE PUSH1 0x20 ADD SWAP1 DUP2 MSTORE PUSH1 0x20 ADD PUSH1 0x0 KECCAK256 PUSH1 0x0 PUSH2 0x100 EXP DUP2 SLOAD DUP2 PUSH1 0xFF MUL NOT AND SWAP1 DUP4 ISZERO ISZERO MUL OR SWAP1 SSTORE POP POP JUMP JUMPDEST PUSH1 0x60 PUSH1 0x3 PUSH1 0x0 PUSH2 0x236 PUSH2 0x9D1 JUMP JUMPDEST PUSH20 0xFFFFFFFFFFFFFFFFFFFFFFFFFFFFFFFFFFFFFFFF AND PUSH20 0xFFFFFFFFFFFFFFFFFFFFFFFFFFFFFFFFFFFFFFFF AND DUP2 MSTORE PUSH1 0x20 ADD SWAP1 DUP2 MSTORE PUSH1 0x20 ADD PUSH1 0x0 KECCAK256 PUSH1 0x0 SWAP1 SLOAD SWAP1 PUSH2 0x100 EXP SWAP1 DIV PUSH1 0xFF AND PUSH2 0x2BD JUMPI PUSH1 0x40 MLOAD PUSH32 0x8C379A000000000000000000000000000000000000000000000000000000000 DUP2 MSTORE PUSH1 0x4 ADD PUSH2 0x2B4 SWAP1 PUSH2 0x1269 JUMP JUMPDEST PUSH1 0x40 MLOAD DUP1 SWAP2 SUB SWAP1 REVERT JUMPDEST PUSH1 0x1 DUP1 SLOAD DUP1 PUSH1 0x20 MUL PUSH1 0x20 ADD PUSH1 0x40 MLOAD SWAP1 DUP2 ADD PUSH1 0x40 MSTORE DUP1 SWAP3 SWAP2 SWAP1 DUP2 DUP2 MSTORE PUSH1 0x20 ADD PUSH1 0x0 SWAP1 JUMPDEST DUP3 DUP3 LT ISZERO PUSH2 0x5E9 JUMPI DUP4 DUP3 SWAP1 PUSH1 0x0 MSTORE PUSH1 0x20 PUSH1 0x0 KECCAK256 SWAP1 PUSH1 0x9 MUL ADD PUSH1 0x40 MLOAD DUP1 PUSH2 0x120 ADD PUSH1 0x40 MSTORE SWAP1 DUP2 PUSH1 0x0 DUP3 ADD SLOAD DUP2 MSTORE PUSH1 0x20 ADD PUSH1 0x1 DUP3 ADD DUP1 SLOAD PUSH2 0x31D SWAP1 PUSH2 0x12B8 JUMP JUMPDEST DUP1 PUSH1 0x1F ADD PUSH1 0x20 DUP1 SWAP2 DIV MUL PUSH1 0x20 ADD PUSH1 0x40 MLOAD SWAP1 DUP2 ADD PUSH1 0x40 MSTORE DUP1 SWAP3 SWAP2 SWAP1 DUP2 DUP2 MSTORE PUSH1 0x20 ADD DUP3 DUP1 SLOAD PUSH2 0x349 SWAP1 PUSH2 0x12B8 JUMP JUMPDEST DUP1 ISZERO PUSH2 0x396 JUMPI DUP1 PUSH1 0x1F LT PUSH2 0x36B JUMPI PUSH2 0x100 DUP1 DUP4 SLOAD DIV MUL DUP4 MSTORE SWAP2 PUSH1 0x20 ADD SWAP2 PUSH2 0x396 JUMP JUMPDEST DUP3 ADD SWAP2 SWAP1 PUSH1 0x0 MSTORE PUSH1 0x20 PUSH1 0x0 KECCAK256 SWAP1 JUMPDEST DUP2 SLOAD DUP2 MSTORE SWAP1 PUSH1 0x1 ADD SWAP1 PUSH1 0x20 ADD DUP1 DUP4 GT PUSH2 0x379 JUMPI DUP3 SWAP1 SUB PUSH1 0x1F AND DUP3 ADD SWAP2 JUMPDEST POP POP POP POP POP DUP2 MSTORE PUSH1 0x20 ADD PUSH1 0x2 DUP3 ADD PUSH1 0x0 SWAP1 SLOAD SWAP1 PUSH2 0x100 EXP SWAP1 DIV PUSH20 0xFFFFFFFFFFFFFFFFFFFFFFFFFFFFFFFFFFFFFFFF AND PUSH20 0xFFFFFFFFFFFFFFFFFFFFFFFFFFFFFFFFFFFFFFFF AND PUSH20 0xFFFFFFFFFFFFFFFFFFFFFFFFFFFFFFFFFFFFFFFF AND DUP2 MSTORE PUSH1 0x20 ADD PUSH1 0x3 DUP3 ADD SLOAD DUP2 MSTORE PUSH1 0x20 ADD PUSH1 0x4 DUP3 ADD DUP1 SLOAD PUSH2 0x40F SWAP1 PUSH2 0x12B8 JUMP JUMPDEST DUP1 PUSH1 0x1F ADD PUSH1 0x20 DUP1 SWAP2 DIV MUL PUSH1 0x20 ADD PUSH1 0x40 MLOAD SWAP1 DUP2 ADD PUSH1 0x40 MSTORE DUP1 SWAP3 SWAP2 SWAP1 DUP2 DUP2 MSTORE PUSH1 0x20 ADD DUP3 DUP1 SLOAD PUSH2 0x43B SWAP1 PUSH2 0x12B8 JUMP JUMPDEST DUP1 ISZERO PUSH2 0x488 JUMPI DUP1 PUSH1 0x1F LT PUSH2 0x45D JUMPI PUSH2 0x100 DUP1 DUP4 SLOAD DIV MUL DUP4 MSTORE SWAP2 PUSH1 0x20 ADD SWAP2 PUSH2 0x488 JUMP JUMPDEST DUP3 ADD SWAP2 SWAP1 PUSH1 0x0 MSTORE PUSH1 0x20 PUSH1 0x0 KECCAK256 SWAP1 JUMPDEST DUP2 SLOAD DUP2 MSTORE SWAP1 PUSH1 0x1 ADD SWAP1 PUSH1 0x20 ADD DUP1 DUP4 GT PUSH2 0x46B JUMPI DUP3 SWAP1 SUB PUSH1 0x1F AND DUP3 ADD SWAP2 JUMPDEST POP POP POP POP POP DUP2 MSTORE PUSH1 0x20 ADD PUSH1 0x5 DUP3 ADD DUP1 SLOAD PUSH2 0x4A1 SWAP1 PUSH2 0x12B8 JUMP JUMPDEST DUP1 PUSH1 0x1F ADD PUSH1 0x20 DUP1 SWAP2 DIV MUL PUSH1 0x20 ADD PUSH1 0x40 MLOAD SWAP1 DUP2 ADD PUSH1 0x40 MSTORE DUP1 SWAP3 SWAP2 SWAP1 DUP2 DUP2 MSTORE PUSH1 0x20 ADD DUP3 DUP1 SLOAD PUSH2 0x4CD SWAP1 PUSH2 0x12B8 JUMP JUMPDEST DUP1 ISZERO PUSH2 0x51A JUMPI DUP1 PUSH1 0x1F LT PUSH2 0x4EF JUMPI PUSH2 0x100 DUP1 DUP4 SLOAD DIV MUL DUP4 MSTORE SWAP2 PUSH1 0x20 ADD SWAP2 PUSH2 0x51A JUMP JUMPDEST DUP3 ADD SWAP2 SWAP1 PUSH1 0x0 MSTORE PUSH1 0x20 PUSH1 0x0 KECCAK256 SWAP1 JUMPDEST DUP2 SLOAD DUP2 MSTORE SWAP1 PUSH1 0x1 ADD SWAP1 PUSH1 0x20 ADD DUP1 DUP4 GT PUSH2 0x4FD JUMPI DUP3 SWAP1 SUB PUSH1 0x1F AND DUP3 ADD SWAP2 JUMPDEST POP POP POP POP POP DUP2 MSTORE PUSH1 0x20 ADD PUSH1 0x6 DUP3 ADD DUP1 SLOAD PUSH2 0x533 SWAP1 PUSH2 0x12B8 JUMP JUMPDEST DUP1 PUSH1 0x1F ADD PUSH1 0x20 DUP1 SWAP2 DIV MUL PUSH1 0x20 ADD PUSH1 0x40 MLOAD SWAP1 DUP2 ADD PUSH1 0x40 MSTORE DUP1 SWAP3 SWAP2 SWAP1 DUP2 DUP2 MSTORE PUSH1 0x20 ADD DUP3 DUP1 SLOAD PUSH2 0x55F SWAP1 PUSH2 0x12B8 JUMP JUMPDEST DUP1 ISZERO PUSH2 0x5AC JUMPI DUP1 PUSH1 0x1F LT PUSH2 0x581 JUMPI PUSH2 0x100 DUP1 DUP4 SLOAD DIV MUL DUP4 MSTORE SWAP2 PUSH1 0x20 ADD SWAP2 PUSH2 0x5AC JUMP JUMPDEST DUP3 ADD SWAP2 SWAP1 PUSH1 0x0 MSTORE PUSH1 0x20 PUSH1 0x0 KECCAK256 SWAP1 JUMPDEST DUP2 SLOAD DUP2 MSTORE SWAP1 PUSH1 0x1 ADD SWAP1 PUSH1 0x20 ADD DUP1 DUP4 GT PUSH2 0x58F JUMPI DUP3 SWAP1 SUB PUSH1 0x1F AND DUP3 ADD SWAP2 JUMPDEST POP POP POP POP POP DUP2 MSTORE PUSH1 0x20 ADD PUSH1 0x7 DUP3 ADD SLOAD DUP2 MSTORE PUSH1 0x20 ADD PUSH1 0x8 DUP3 ADD PUSH1 0x0 SWAP1 SLOAD SWAP1 PUSH2 0x100 EXP SWAP1 DIV PUSH1 0xFF AND ISZERO ISZERO ISZERO ISZERO DUP2 MSTORE POP POP DUP2 MSTORE PUSH1 0x20 ADD SWAP1 PUSH1 0x1 ADD SWAP1 PUSH2 0x2DF JUMP JUMPDEST POP POP POP POP SWAP1 POP SWAP1 JUMP JUMPDEST PUSH2 0x5FA PUSH2 0x95A JUMP JUMPDEST ADDRESS PUSH20 0xFFFFFFFFFFFFFFFFFFFFFFFFFFFFFFFFFFFFFFFF AND SELFDESTRUCT JUMPDEST PUSH1 0x0 DUP1 PUSH1 0x0 SWAP1 SLOAD SWAP1 PUSH2 0x100 EXP SWAP1 DIV PUSH20 0xFFFFFFFFFFFFFFFFFFFFFFFFFFFFFFFFFFFFFFFF AND SWAP1 POP SWAP1 JUMP JUMPDEST PUSH1 0x3 PUSH1 0x0 PUSH2 0x648 PUSH2 0x9D1 JUMP JUMPDEST PUSH20 0xFFFFFFFFFFFFFFFFFFFFFFFFFFFFFFFFFFFFFFFF AND PUSH20 0xFFFFFFFFFFFFFFFFFFFFFFFFFFFFFFFFFFFFFFFF AND DUP2 MSTORE PUSH1 0x20 ADD SWAP1 DUP2 MSTORE PUSH1 0x20 ADD PUSH1 0x0 KECCAK256 PUSH1 0x0 SWAP1 SLOAD SWAP1 PUSH2 0x100 EXP SWAP1 DIV PUSH1 0xFF AND PUSH2 0x6CF JUMPI PUSH1 0x40 MLOAD PUSH32 0x8C379A000000000000000000000000000000000000000000000000000000000 DUP2 MSTORE PUSH1 0x4 ADD PUSH2 0x6C6 SWAP1 PUSH2 0x1269 JUMP JUMPDEST PUSH1 0x40 MLOAD DUP1 SWAP2 SUB SWAP1 REVERT JUMPDEST PUSH1 0x0 PUSH1 0x2 PUSH1 0x0 DUP2 SLOAD DUP1 SWAP3 SWAP2 SWAP1 PUSH2 0x6E4 SWAP1 PUSH2 0x1318 JUMP JUMPDEST SWAP2 SWAP1 POP SSTORE SWAP1 POP DUP1 DUP3 PUSH1 0x0 ADD DUP2 DUP2 MSTORE POP POP PUSH1 0x1 DUP3 SWAP1 DUP1 PUSH1 0x1 DUP2 SLOAD ADD DUP1 DUP3 SSTORE DUP1 SWAP2 POP POP PUSH1 0x1 SWAP1 SUB SWAP1 PUSH1 0x0 MSTORE PUSH1 0x20 PUSH1 0x0 KECCAK256 SWAP1 PUSH1 0x9 MUL ADD PUSH1 0x0 SWAP1 SWAP2 SWAP1 SWAP2 SWAP1 SWAP2 POP PUSH1 0x0 DUP3 ADD MLOAD DUP2 PUSH1 0x0 ADD SSTORE PUSH1 0x20 DUP3 ADD MLOAD DUP2 PUSH1 0x1 ADD SWAP1 DUP2 PUSH2 0x73F SWAP2 SWAP1 PUSH2 0x150C JUMP JUMPDEST POP PUSH1 0x40 DUP3 ADD MLOAD DUP2 PUSH1 0x2 ADD PUSH1 0x0 PUSH2 0x100 EXP DUP2 SLOAD DUP2 PUSH20 0xFFFFFFFFFFFFFFFFFFFFFFFFFFFFFFFFFFFFFFFF MUL NOT AND SWAP1 DUP4 PUSH20 0xFFFFFFFFFFFFFFFFFFFFFFFFFFFFFFFFFFFFFFFF AND MUL OR SWAP1 SSTORE POP PUSH1 0x60 DUP3 ADD MLOAD DUP2 PUSH1 0x3 ADD SSTORE PUSH1 0x80 DUP3 ADD MLOAD DUP2 PUSH1 0x4 ADD SWAP1 DUP2 PUSH2 0x7A6 SWAP2 SWAP1 PUSH2 0x150C JUMP JUMPDEST POP PUSH1 0xA0 DUP3 ADD MLOAD DUP2 PUSH1 0x5 ADD SWAP1 DUP2 PUSH2 0x7BC SWAP2 SWAP1 PUSH2 0x150C JUMP JUMPDEST POP PUSH1 0xC0 DUP3 ADD MLOAD DUP2 PUSH1 0x6 ADD SWAP1 DUP2 PUSH2 0x7D2 SWAP2 SWAP1 PUSH2 0x150C JUMP JUMPDEST POP PUSH1 0xE0 DUP3 ADD MLOAD DUP2 PUSH1 0x7 ADD SSTORE PUSH2 0x100 DUP3 ADD MLOAD DUP2 PUSH1 0x8 ADD PUSH1 0x0 PUSH2 0x100 EXP DUP2 SLOAD DUP2 PUSH1 0xFF MUL NOT AND SWAP1 DUP4 ISZERO ISZERO MUL OR SWAP1 SSTORE POP POP POP POP POP JUMP JUMPDEST PUSH1 0x3 PUSH1 0x0 PUSH2 0x810 PUSH2 0x9D1 JUMP JUMPDEST PUSH20 0xFFFFFFFFFFFFFFFFFFFFFFFFFFFFFFFFFFFFFFFF AND PUSH20 0xFFFFFFFFFFFFFFFFFFFFFFFFFFFFFFFFFFFFFFFF AND DUP2 MSTORE PUSH1 0x20 ADD SWAP1 DUP2 MSTORE PUSH1 0x20 ADD PUSH1 0x0 KECCAK256 PUSH1 0x0 SWAP1 SLOAD SWAP1 PUSH2 0x100 EXP SWAP1 DIV PUSH1 0xFF AND PUSH2 0x897 JUMPI PUSH1 0x40 MLOAD PUSH32 0x8C379A000000000000000000000000000000000000000000000000000000000 DUP2 MSTORE PUSH1 0x4 ADD PUSH2 0x88E SWAP1 PUSH2 0x1269 JUMP JUMPDEST PUSH1 0x40 MLOAD DUP1 SWAP2 SUB SWAP1 REVERT JUMPDEST PUSH1 0x1 DUP1 DUP3 DUP2 SLOAD DUP2 LT PUSH2 0x8AC JUMPI PUSH2 0x8AB PUSH2 0x15DE JUMP JUMPDEST JUMPDEST SWAP1 PUSH1 0x0 MSTORE PUSH1 0x20 PUSH1 0x0 KECCAK256 SWAP1 PUSH1 0x9 MUL ADD PUSH1 0x8 ADD PUSH1 0x0 PUSH2 0x100 EXP DUP2 SLOAD DUP2 PUSH1 0xFF MUL NOT AND SWAP1 DUP4 ISZERO ISZERO MUL OR SWAP1 SSTORE POP POP JUMP JUMPDEST PUSH2 0x8DF PUSH2 0x95A JUMP JUMPDEST PUSH1 0x0 PUSH20 0xFFFFFFFFFFFFFFFFFFFFFFFFFFFFFFFFFFFFFFFF AND DUP2 PUSH20 0xFFFFFFFFFFFFFFFFFFFFFFFFFFFFFFFFFFFFFFFF AND SUB PUSH2 0x94E JUMPI PUSH1 0x40 MLOAD PUSH32 0x8C379A000000000000000000000000000000000000000000000000000000000 DUP2 MSTORE PUSH1 0x4 ADD PUSH2 0x945 SWAP1 PUSH2 0x167F JUMP JUMPDEST PUSH1 0x40 MLOAD DUP1 SWAP2 SUB SWAP1 REVERT JUMPDEST PUSH2 0x957 DUP2 PUSH2 0x9D9 JUMP JUMPDEST POP JUMP JUMPDEST CALLER PUSH20 0xFFFFFFFFFFFFFFFFFFFFFFFFFFFFFFFFFFFFFFFF AND PUSH2 0x979 PUSH2 0x613 JUMP JUMPDEST PUSH20 0xFFFFFFFFFFFFFFFFFFFFFFFFFFFFFFFFFFFFFFFF AND EQ PUSH2 0x9CF JUMPI PUSH1 0x40 MLOAD PUSH32 0x8C379A000000000000000000000000000000000000000000000000000000000 DUP2 MSTORE PUSH1 0x4 ADD PUSH2 0x9C6 SWAP1 PUSH2 0x16EB JUMP JUMPDEST PUSH1 0x40 MLOAD DUP1 SWAP2 SUB SWAP1 REVERT JUMPDEST JUMP JUMPDEST PUSH1 0x0 CALLER SWAP1 POP SWAP1 JUMP JUMPDEST PUSH1 0x0 DUP1 PUSH1 0x0 SWAP1 SLOAD SWAP1 PUSH2 0x100 EXP SWAP1 DIV PUSH20 0xFFFFFFFFFFFFFFFFFFFFFFFFFFFFFFFFFFFFFFFF AND SWAP1 POP DUP2 PUSH1 0x0 DUP1 PUSH2 0x100 EXP DUP2 SLOAD DUP2 PUSH20 0xFFFFFFFFFFFFFFFFFFFFFFFFFFFFFFFFFFFFFFFF MUL NOT AND SWAP1 DUP4 PUSH20 0xFFFFFFFFFFFFFFFFFFFFFFFFFFFFFFFFFFFFFFFF AND MUL OR SWAP1 SSTORE POP DUP2 PUSH20 0xFFFFFFFFFFFFFFFFFFFFFFFFFFFFFFFFFFFFFFFF AND DUP2 PUSH20 0xFFFFFFFFFFFFFFFFFFFFFFFFFFFFFFFFFFFFFFFF AND PUSH32 0x8BE0079C531659141344CD1FD0A4F28419497F9722A3DAAFE3B4186F6B6457E0 PUSH1 0x40 MLOAD PUSH1 0x40 MLOAD DUP1 SWAP2 SUB SWAP1 LOG3 POP POP JUMP JUMPDEST PUSH1 0x0 PUSH1 0x40 MLOAD SWAP1 POP SWAP1 JUMP JUMPDEST PUSH1 0x0 DUP1 REVERT JUMPDEST PUSH1 0x0 DUP1 REVERT JUMPDEST PUSH1 0x0 PUSH20 0xFFFFFFFFFFFFFFFFFFFFFFFFFFFFFFFFFFFFFFFF DUP3 AND SWAP1 POP SWAP2 SWAP1 POP JUMP JUMPDEST PUSH1 0x0 PUSH2 0xADC DUP3 PUSH2 0xAB1 JUMP JUMPDEST SWAP1 POP SWAP2 SWAP1 POP JUMP JUMPDEST PUSH2 0xAEC DUP2 PUSH2 0xAD1 JUMP JUMPDEST DUP2 EQ PUSH2 0xAF7 JUMPI PUSH1 0x0 DUP1 REVERT JUMPDEST POP JUMP JUMPDEST PUSH1 0x0 DUP2 CALLDATALOAD SWAP1 POP PUSH2 0xB09 DUP2 PUSH2 0xAE3 JUMP JUMPDEST SWAP3 SWAP2 POP POP JUMP JUMPDEST PUSH1 0x0 PUSH1 0x20 DUP3 DUP5 SUB SLT ISZERO PUSH2 0xB25 JUMPI PUSH2 0xB24 PUSH2 0xAA7 JUMP JUMPDEST JUMPDEST PUSH1 0x0 PUSH2 0xB33 DUP5 DUP3 DUP6 ADD PUSH2 0xAFA JUMP JUMPDEST SWAP2 POP POP SWAP3 SWAP2 POP POP JUMP JUMPDEST PUSH1 0x0 DUP2 MLOAD SWAP1 POP SWAP2 SWAP1 POP JUMP JUMPDEST PUSH1 0x0 DUP3 DUP3 MSTORE PUSH1 0x20 DUP3 ADD SWAP1 POP SWAP3 SWAP2 POP POP JUMP JUMPDEST PUSH1 0x0 DUP2 SWAP1 POP PUSH1 0x20 DUP3 ADD SWAP1 POP SWAP2 SWAP1 POP JUMP JUMPDEST PUSH1 0x0 DUP2 SWAP1 POP SWAP2 SWAP1 POP JUMP JUMPDEST PUSH2 0xB7B DUP2 PUSH2 0xB68 JUMP JUMPDEST DUP3 MSTORE POP POP JUMP JUMPDEST PUSH1 0x0 DUP2 MLOAD SWAP1 POP SWAP2 SWAP1 POP JUMP JUMPDEST PUSH1 0x0 DUP3 DUP3 MSTORE PUSH1 0x20 DUP3 ADD SWAP1 POP SWAP3 SWAP2 POP POP JUMP JUMPDEST PUSH1 0x0 JUMPDEST DUP4 DUP2 LT ISZERO PUSH2 0xBBB JUMPI DUP1 DUP3 ADD MLOAD DUP2 DUP5 ADD MSTORE PUSH1 0x20 DUP2 ADD SWAP1 POP PUSH2 0xBA0 JUMP JUMPDEST PUSH1 0x0 DUP5 DUP5 ADD MSTORE POP POP POP POP JUMP JUMPDEST PUSH1 0x0 PUSH1 0x1F NOT PUSH1 0x1F DUP4 ADD AND SWAP1 POP SWAP2 SWAP1 POP JUMP JUMPDEST PUSH1 0x0 PUSH2 0xBE3 DUP3 PUSH2 0xB81 JUMP JUMPDEST PUSH2 0xBED DUP2 DUP6 PUSH2 0xB8C JUMP JUMPDEST SWAP4 POP PUSH2 0xBFD DUP2 DUP6 PUSH1 0x20 DUP7 ADD PUSH2 0xB9D JUMP JUMPDEST PUSH2 0xC06 DUP2 PUSH2 0xBC7 JUMP JUMPDEST DUP5 ADD SWAP2 POP POP SWAP3 SWAP2 POP POP JUMP JUMPDEST PUSH2 0xC1A DUP2 PUSH2 0xAD1 JUMP JUMPDEST DUP3 MSTORE POP POP JUMP JUMPDEST PUSH1 0x0 DUP2 ISZERO ISZERO SWAP1 POP SWAP2 SWAP1 POP JUMP JUMPDEST PUSH2 0xC35 DUP2 PUSH2 0xC20 JUMP JUMPDEST DUP3 MSTORE POP POP JUMP JUMPDEST PUSH1 0x0 PUSH2 0x120 DUP4 ADD PUSH1 0x0 DUP4 ADD MLOAD PUSH2 0xC54 PUSH1 0x0 DUP7 ADD DUP3 PUSH2 0xB72 JUMP JUMPDEST POP PUSH1 0x20 DUP4 ADD MLOAD DUP5 DUP3 SUB PUSH1 0x20 DUP7 ADD MSTORE PUSH2 0xC6C DUP3 DUP3 PUSH2 0xBD8 JUMP JUMPDEST SWAP2 POP POP PUSH1 0x40 DUP4 ADD MLOAD PUSH2 0xC81 PUSH1 0x40 DUP7 ADD DUP3 PUSH2 0xC11 JUMP JUMPDEST POP PUSH1 0x60 DUP4 ADD MLOAD PUSH2 0xC94 PUSH1 0x60 DUP7 ADD DUP3 PUSH2 0xB72 JUMP JUMPDEST POP PUSH1 0x80 DUP4 ADD MLOAD DUP5 DUP3 SUB PUSH1 0x80 DUP7 ADD MSTORE PUSH2 0xCAC DUP3 DUP3 PUSH2 0xBD8 JUMP JUMPDEST SWAP2 POP POP PUSH1 0xA0 DUP4 ADD MLOAD DUP5 DUP3 SUB PUSH1 0xA0 DUP7 ADD MSTORE PUSH2 0xCC6 DUP3 DUP3 PUSH2 0xBD8 JUMP JUMPDEST SWAP2 POP POP PUSH1 0xC0 DUP4 ADD MLOAD DUP5 DUP3 SUB PUSH1 0xC0 DUP7 ADD MSTORE PUSH2 0xCE0 DUP3 DUP3 PUSH2 0xBD8 JUMP JUMPDEST SWAP2 POP POP PUSH1 0xE0 DUP4 ADD MLOAD PUSH2 0xCF5 PUSH1 0xE0 DUP7 ADD DUP3 PUSH2 0xB72 JUMP JUMPDEST POP PUSH2 0x100 DUP4 ADD MLOAD PUSH2 0xD0A PUSH2 0x100 DUP7 ADD DUP3 PUSH2 0xC2C JUMP JUMPDEST POP DUP1 SWAP2 POP POP SWAP3 SWAP2 POP POP JUMP JUMPDEST PUSH1 0x0 PUSH2 0xD21 DUP4 DUP4 PUSH2 0xC3B JUMP JUMPDEST SWAP1 POP SWAP3 SWAP2 POP POP JUMP JUMPDEST PUSH1 0x0 PUSH1 0x20 DUP3 ADD SWAP1 POP SWAP2 SWAP1 POP JUMP JUMPDEST PUSH1 0x0 PUSH2 0xD41 DUP3 PUSH2 0xB3C JUMP JUMPDEST PUSH2 0xD4B DUP2 DUP6 PUSH2 0xB47 JUMP JUMPDEST SWAP4 POP DUP4 PUSH1 0x20 DUP3 MUL DUP6 ADD PUSH2 0xD5D DUP6 PUSH2 0xB58 JUMP JUMPDEST DUP1 PUSH1 0x0 JUMPDEST DUP6 DUP2 LT ISZERO PUSH2 0xD99 JUMPI DUP5 DUP5 SUB DUP10 MSTORE DUP2 MLOAD PUSH2 0xD7A DUP6 DUP3 PUSH2 0xD15 JUMP JUMPDEST SWAP5 POP PUSH2 0xD85 DUP4 PUSH2 0xD29 JUMP JUMPDEST SWAP3 POP PUSH1 0x20 DUP11 ADD SWAP10 POP POP PUSH1 0x1 DUP2 ADD SWAP1 POP PUSH2 0xD61 JUMP JUMPDEST POP DUP3 SWAP8 POP DUP8 SWAP6 POP POP POP POP POP POP SWAP3 SWAP2 POP POP JUMP JUMPDEST PUSH1 0x0 PUSH1 0x20 DUP3 ADD SWAP1 POP DUP2 DUP2 SUB PUSH1 0x0 DUP4 ADD MSTORE PUSH2 0xDC5 DUP2 DUP5 PUSH2 0xD36 JUMP JUMPDEST SWAP1 POP SWAP3 SWAP2 POP POP JUMP JUMPDEST PUSH2 0xDD6 DUP2 PUSH2 0xAD1 JUMP JUMPDEST DUP3 MSTORE POP POP JUMP JUMPDEST PUSH1 0x0 PUSH1 0x20 DUP3 ADD SWAP1 POP PUSH2 0xDF1 PUSH1 0x0 DUP4 ADD DUP5 PUSH2 0xDCD JUMP JUMPDEST SWAP3 SWAP2 POP POP JUMP JUMPDEST PUSH1 0x0 DUP1 REVERT JUMPDEST PUSH32 0x4E487B7100000000000000000000000000000000000000000000000000000000 PUSH1 0x0 MSTORE PUSH1 0x41 PUSH1 0x4 MSTORE PUSH1 0x24 PUSH1 0x0 REVERT JUMPDEST PUSH2 0xE34 DUP3 PUSH2 0xBC7 JUMP JUMPDEST DUP2 ADD DUP2 DUP2 LT PUSH8 0xFFFFFFFFFFFFFFFF DUP3 GT OR ISZERO PUSH2 0xE53 JUMPI PUSH2 0xE52 PUSH2 0xDFC JUMP JUMPDEST JUMPDEST DUP1 PUSH1 0x40 MSTORE POP POP POP JUMP JUMPDEST PUSH1 0x0 PUSH2 0xE66 PUSH2 0xA9D JUMP JUMPDEST SWAP1 POP PUSH2 0xE72 DUP3 DUP3 PUSH2 0xE2B JUMP JUMPDEST SWAP2 SWAP1 POP JUMP JUMPDEST PUSH1 0x0 DUP1 REVERT JUMPDEST PUSH2 0xE85 DUP2 PUSH2 0xB68 JUMP JUMPDEST DUP2 EQ PUSH2 0xE90 JUMPI PUSH1 0x0 DUP1 REVERT JUMPDEST POP JUMP JUMPDEST PUSH1 0x0 DUP2 CALLDATALOAD SWAP1 POP PUSH2 0xEA2 DUP2 PUSH2 0xE7C JUMP JUMPDEST SWAP3 SWAP2 POP POP JUMP JUMPDEST PUSH1 0x0 DUP1 REVERT JUMPDEST PUSH1 0x0 DUP1 REVERT JUMPDEST PUSH1 0x0 PUSH8 0xFFFFFFFFFFFFFFFF DUP3 GT ISZERO PUSH2 0xECD JUMPI PUSH2 0xECC PUSH2 0xDFC JUMP JUMPDEST JUMPDEST PUSH2 0xED6 DUP3 PUSH2 0xBC7 JUMP JUMPDEST SWAP1 POP PUSH1 0x20 DUP2 ADD SWAP1 POP SWAP2 SWAP1 POP JUMP JUMPDEST DUP3 DUP2 DUP4 CALLDATACOPY PUSH1 0x0 DUP4 DUP4 ADD MSTORE POP POP POP JUMP JUMPDEST PUSH1 0x0 PUSH2 0xF05 PUSH2 0xF00 DUP5 PUSH2 0xEB2 JUMP JUMPDEST PUSH2 0xE5C JUMP JUMPDEST SWAP1 POP DUP3 DUP2 MSTORE PUSH1 0x20 DUP2 ADD DUP5 DUP5 DUP5 ADD GT ISZERO PUSH2 0xF21 JUMPI PUSH2 0xF20 PUSH2 0xEAD JUMP JUMPDEST JUMPDEST PUSH2 0xF2C DUP5 DUP3 DUP6 PUSH2 0xEE3 JUMP JUMPDEST POP SWAP4 SWAP3 POP POP POP JUMP JUMPDEST PUSH1 0x0 DUP3 PUSH1 0x1F DUP4 ADD SLT PUSH2 0xF49 JUMPI PUSH2 0xF48 PUSH2 0xEA8 JUMP JUMPDEST JUMPDEST DUP2 CALLDATALOAD PUSH2 0xF59 DUP5 DUP3 PUSH1 0x20 DUP7 ADD PUSH2 0xEF2 JUMP JUMPDEST SWAP2 POP POP SWAP3 SWAP2 POP POP JUMP JUMPDEST PUSH2 0xF6B DUP2 PUSH2 0xC20 JUMP JUMPDEST DUP2 EQ PUSH2 0xF76 JUMPI PUSH1 0x0 DUP1 REVERT JUMPDEST POP JUMP JUMPDEST PUSH1 0x0 DUP2 CALLDATALOAD SWAP1 POP PUSH2 0xF88 DUP2 PUSH2 0xF62 JUMP JUMPDEST SWAP3 SWAP2 POP POP JUMP JUMPDEST PUSH1 0x0 PUSH2 0x120 DUP3 DUP5 SUB SLT ISZERO PUSH2 0xFA5 JUMPI PUSH2 0xFA4 PUSH2 0xDF7 JUMP JUMPDEST JUMPDEST PUSH2 0xFB0 PUSH2 0x120 PUSH2 0xE5C JUMP JUMPDEST SWAP1 POP PUSH1 0x0 PUSH2 0xFC0 DUP5 DUP3 DUP6 ADD PUSH2 0xE93 JUMP JUMPDEST PUSH1 0x0 DUP4 ADD MSTORE POP PUSH1 0x20 DUP3 ADD CALLDATALOAD PUSH8 0xFFFFFFFFFFFFFFFF DUP2 GT ISZERO PUSH2 0xFE4 JUMPI PUSH2 0xFE3 PUSH2 0xE77 JUMP JUMPDEST JUMPDEST PUSH2 0xFF0 DUP5 DUP3 DUP6 ADD PUSH2 0xF34 JUMP JUMPDEST PUSH1 0x20 DUP4 ADD MSTORE POP PUSH1 0x40 PUSH2 0x1004 DUP5 DUP3 DUP6 ADD PUSH2 0xAFA JUMP JUMPDEST PUSH1 0x40 DUP4 ADD MSTORE POP PUSH1 0x60 PUSH2 0x1018 DUP5 DUP3 DUP6 ADD PUSH2 0xE93 JUMP JUMPDEST PUSH1 0x60 DUP4 ADD MSTORE POP PUSH1 0x80 DUP3 ADD CALLDATALOAD PUSH8 0xFFFFFFFFFFFFFFFF DUP2 GT ISZERO PUSH2 0x103C JUMPI PUSH2 0x103B PUSH2 0xE77 JUMP JUMPDEST JUMPDEST PUSH2 0x1048 DUP5 DUP3 DUP6 ADD PUSH2 0xF34 JUMP JUMPDEST PUSH1 0x80 DUP4 ADD MSTORE POP PUSH1 0xA0 DUP3 ADD CALLDATALOAD PUSH8 0xFFFFFFFFFFFFFFFF DUP2 GT ISZERO PUSH2 0x106C JUMPI PUSH2 0x106B PUSH2 0xE77 JUMP JUMPDEST JUMPDEST PUSH2 0x1078 DUP5 DUP3 DUP6 ADD PUSH2 0xF34 JUMP JUMPDEST PUSH1 0xA0 DUP4 ADD MSTORE POP PUSH1 0xC0 DUP3 ADD CALLDATALOAD PUSH8 0xFFFFFFFFFFFFFFFF DUP2 GT ISZERO PUSH2 0x109C JUMPI PUSH2 0x109B PUSH2 0xE77 JUMP JUMPDEST JUMPDEST PUSH2 0x10A8 DUP5 DUP3 DUP6 ADD PUSH2 0xF34 JUMP JUMPDEST PUSH1 0xC0 DUP4 ADD MSTORE POP PUSH1 0xE0 PUSH2 0x10BC DUP5 DUP3 DUP6 ADD PUSH2 0xE93 JUMP JUMPDEST PUSH1 0xE0 DUP4 ADD MSTORE POP PUSH2 0x100 PUSH2 0x10D1 DUP5 DUP3 DUP6 ADD PUSH2 0xF79 JUMP JUMPDEST PUSH2 0x100 DUP4 ADD MSTORE POP SWAP3 SWAP2 POP POP JUMP JUMPDEST PUSH1 0x0 PUSH1 0x20 DUP3 DUP5 SUB SLT ISZERO PUSH2 0x10F4 JUMPI PUSH2 0x10F3 PUSH2 0xAA7 JUMP JUMPDEST JUMPDEST PUSH1 0x0 DUP3 ADD CALLDATALOAD PUSH8 0xFFFFFFFFFFFFFFFF DUP2 GT ISZERO PUSH2 0x1112 JUMPI PUSH2 0x1111 PUSH2 0xAAC JUMP JUMPDEST JUMPDEST PUSH2 0x111E DUP5 DUP3 DUP6 ADD PUSH2 0xF8E JUMP JUMPDEST SWAP2 POP POP SWAP3 SWAP2 POP POP JUMP JUMPDEST PUSH1 0x0 PUSH1 0x20 DUP3 DUP5 SUB SLT ISZERO PUSH2 0x113D JUMPI PUSH2 0x113C PUSH2 0xAA7 JUMP JUMPDEST JUMPDEST PUSH1 0x0 PUSH2 0x114B DUP5 DUP3 DUP6 ADD PUSH2 0xE93 JUMP JUMPDEST SWAP2 POP POP SWAP3 SWAP2 POP POP JUMP JUMPDEST PUSH1 0x0 DUP3 DUP3 MSTORE PUSH1 0x20 DUP3 ADD SWAP1 POP SWAP3 SWAP2 POP POP JUMP JUMPDEST PUSH32 0x496E677265737344617461626173653A207065726D697373696F6E2068617320 PUSH1 0x0 DUP3 ADD MSTORE PUSH32 0x6265656E206772616E7465640000000000000000000000000000000000000000 PUSH1 0x20 DUP3 ADD MSTORE POP JUMP JUMPDEST PUSH1 0x0 PUSH2 0x11C1 PUSH1 0x2C DUP4 PUSH2 0x1154 JUMP JUMPDEST SWAP2 POP PUSH2 0x11CC DUP3 PUSH2 0x1165 JUMP JUMPDEST PUSH1 0x40 DUP3 ADD SWAP1 POP SWAP2 SWAP1 POP JUMP JUMPDEST PUSH1 0x0 PUSH1 0x20 DUP3 ADD SWAP1 POP DUP2 DUP2 SUB PUSH1 0x0 DUP4 ADD MSTORE PUSH2 0x11F0 DUP2 PUSH2 0x11B4 JUMP JUMPDEST SWAP1 POP SWAP2 SWAP1 POP JUMP JUMPDEST PUSH32 0x496E677265737344617461626173653A206F6E6C7920636F6E74726163742077 PUSH1 0x0 DUP3 ADD MSTORE PUSH32 0x686963682061726520616C6C6F77656400000000000000000000000000000000 PUSH1 0x20 DUP3 ADD MSTORE POP JUMP JUMPDEST PUSH1 0x0 PUSH2 0x1253 PUSH1 0x30 DUP4 PUSH2 0x1154 JUMP JUMPDEST SWAP2 POP PUSH2 0x125E DUP3 PUSH2 0x11F7 JUMP JUMPDEST PUSH1 0x40 DUP3 ADD SWAP1 POP SWAP2 SWAP1 POP JUMP JUMPDEST PUSH1 0x0 PUSH1 0x20 DUP3 ADD SWAP1 POP DUP2 DUP2 SUB PUSH1 0x0 DUP4 ADD MSTORE PUSH2 0x1282 DUP2 PUSH2 0x1246 JUMP JUMPDEST SWAP1 POP SWAP2 SWAP1 POP JUMP JUMPDEST PUSH32 0x4E487B7100000000000000000000000000000000000000000000000000000000 PUSH1 0x0 MSTORE PUSH1 0x22 PUSH1 0x4 MSTORE PUSH1 0x24 PUSH1 0x0 REVERT JUMPDEST PUSH1 0x0 PUSH1 0x2 DUP3 DIV SWAP1 POP PUSH1 0x1 DUP3 AND DUP1 PUSH2 0x12D0 JUMPI PUSH1 0x7F DUP3 AND SWAP2 POP JUMPDEST PUSH1 0x20 DUP3 LT DUP2 SUB PUSH2 0x12E3 JUMPI PUSH2 0x12E2 PUSH2 0x1289 JUMP JUMPDEST JUMPDEST POP SWAP2 SWAP1 POP JUMP JUMPDEST PUSH32 0x4E487B7100000000000000000000000000000000000000000000000000000000 PUSH1 0x0 MSTORE PUSH1 0x11 PUSH1 0x4 MSTORE PUSH1 0x24 PUSH1 0x0 REVERT JUMPDEST PUSH1 0x0 PUSH2 0x1323 DUP3 PUSH2 0xB68 JUMP JUMPDEST SWAP2 POP PUSH32 0xFFFFFFFFFFFFFFFFFFFFFFFFFFFFFFFFFFFFFFFFFFFFFFFFFFFFFFFFFFFFFFFF DUP3 SUB PUSH2 0x1355 JUMPI PUSH2 0x1354 PUSH2 0x12E9 JUMP JUMPDEST JUMPDEST PUSH1 0x1 DUP3 ADD SWAP1 POP SWAP2 SWAP1 POP JUMP JUMPDEST PUSH1 0x0 DUP2 SWAP1 POP DUP2 PUSH1 0x0 MSTORE PUSH1 0x20 PUSH1 0x0 KECCAK256 SWAP1 POP SWAP2 SWAP1 POP JUMP JUMPDEST PUSH1 0x0 PUSH1 0x20 PUSH1 0x1F DUP4 ADD DIV SWAP1 POP SWAP2 SWAP1 POP JUMP JUMPDEST PUSH1 0x0 DUP3 DUP3 SHL SWAP1 POP SWAP3 SWAP2 POP POP JUMP JUMPDEST PUSH1 0x0 PUSH1 0x8 DUP4 MUL PUSH2 0x13C2 PUSH32 0xFFFFFFFFFFFFFFFFFFFFFFFFFFFFFFFFFFFFFFFFFFFFFFFFFFFFFFFFFFFFFFFF DUP3 PUSH2 0x1385 JUMP JUMPDEST PUSH2 0x13CC DUP7 DUP4 PUSH2 0x1385 JUMP JUMPDEST SWAP6 POP DUP1 NOT DUP5 AND SWAP4 POP DUP1 DUP7 AND DUP5 OR SWAP3 POP POP POP SWAP4 SWAP3 POP POP POP JUMP JUMPDEST PUSH1 0x0 DUP2 SWAP1 POP SWAP2 SWAP1 POP JUMP JUMPDEST PUSH1 0x0 PUSH2 0x1409 PUSH2 0x1404 PUSH2 0x13FF DUP5 PUSH2 0xB68 JUMP JUMPDEST PUSH2 0x13E4 JUMP JUMPDEST PUSH2 0xB68 JUMP JUMPDEST SWAP1 POP SWAP2 SWAP1 POP JUMP JUMPDEST PUSH1 0x0 DUP2 SWAP1 POP SWAP2 SWAP1 POP JUMP JUMPDEST PUSH2 0x1423 DUP4 PUSH2 0x13EE JUMP JUMPDEST PUSH2 0x1437 PUSH2 0x142F DUP3 PUSH2 0x1410 JUMP JUMPDEST DUP5 DUP5 SLOAD PUSH2 0x1392 JUMP JUMPDEST DUP3 SSTORE POP POP POP POP JUMP JUMPDEST PUSH1 0x0 SWAP1 JUMP JUMPDEST PUSH2 0x144C PUSH2 0x143F JUMP JUMPDEST PUSH2 0x1457 DUP2 DUP5 DUP5 PUSH2 0x141A JUMP JUMPDEST POP POP POP JUMP JUMPDEST JUMPDEST DUP2 DUP2 LT ISZERO PUSH2 0x147B JUMPI PUSH2 0x1470 PUSH1 0x0 DUP3 PUSH2 0x1444 JUMP JUMPDEST PUSH1 0x1 DUP2 ADD SWAP1 POP PUSH2 0x145D JUMP JUMPDEST POP POP JUMP JUMPDEST PUSH1 0x1F DUP3 GT ISZERO PUSH2 0x14C0 JUMPI PUSH2 0x1491 DUP2 PUSH2 0x1360 JUMP JUMPDEST PUSH2 0x149A DUP5 PUSH2 0x1375 JUMP JUMPDEST DUP2 ADD PUSH1 0x20 DUP6 LT ISZERO PUSH2 0x14A9 JUMPI DUP2 SWAP1 POP JUMPDEST PUSH2 0x14BD PUSH2 0x14B5 DUP6 PUSH2 0x1375 JUMP JUMPDEST DUP4 ADD DUP3 PUSH2 0x145C JUMP JUMPDEST POP POP JUMPDEST POP POP POP JUMP JUMPDEST PUSH1 0x0 DUP3 DUP3 SHR SWAP1 POP SWAP3 SWAP2 POP POP JUMP JUMPDEST PUSH1 0x0 PUSH2 0x14E3 PUSH1 0x0 NOT DUP5 PUSH1 0x8 MUL PUSH2 0x14C5 JUMP JUMPDEST NOT DUP1 DUP4 AND SWAP2 POP POP SWAP3 SWAP2 POP POP JUMP JUMPDEST PUSH1 0x0 PUSH2 0x14FC DUP4 DUP4 PUSH2 0x14D2 JUMP JUMPDEST SWAP2 POP DUP3 PUSH1 0x2 MUL DUP3 OR SWAP1 POP SWAP3 SWAP2 POP POP JUMP JUMPDEST PUSH2 0x1515 DUP3 PUSH2 0xB81 JUMP JUMPDEST PUSH8 0xFFFFFFFFFFFFFFFF DUP2 GT ISZERO PUSH2 0x152E JUMPI PUSH2 0x152D PUSH2 0xDFC JUMP JUMPDEST JUMPDEST PUSH2 0x1538 DUP3 SLOAD PUSH2 0x12B8 JUMP JUMPDEST PUSH2 0x1543 DUP3 DUP3 DUP6 PUSH2 0x147F JUMP JUMPDEST PUSH1 0x0 PUSH1 0x20 SWAP1 POP PUSH1 0x1F DUP4 GT PUSH1 0x1 DUP2 EQ PUSH2 0x1576 JUMPI PUSH1 0x0 DUP5 ISZERO PUSH2 0x1564 JUMPI DUP3 DUP8 ADD MLOAD SWAP1 POP JUMPDEST PUSH2 0x156E DUP6 DUP3 PUSH2 0x14F0 JUMP JUMPDEST DUP7 SSTORE POP PUSH2 0x15D6 JUMP JUMPDEST PUSH1 0x1F NOT DUP5 AND PUSH2 0x1584 DUP7 PUSH2 0x1360 JUMP JUMPDEST PUSH1 0x0 JUMPDEST DUP3 DUP2 LT ISZERO PUSH2 0x15AC JUMPI DUP5 DUP10 ADD MLOAD DUP3 SSTORE PUSH1 0x1 DUP3 ADD SWAP2 POP PUSH1 0x20 DUP6 ADD SWAP5 POP PUSH1 0x20 DUP2 ADD SWAP1 POP PUSH2 0x1587 JUMP JUMPDEST DUP7 DUP4 LT ISZERO PUSH2 0x15C9 JUMPI DUP5 DUP10 ADD MLOAD PUSH2 0x15C5 PUSH1 0x1F DUP10 AND DUP3 PUSH2 0x14D2 JUMP JUMPDEST DUP4 SSTORE POP JUMPDEST PUSH1 0x1 PUSH1 0x2 DUP9 MUL ADD DUP9 SSTORE POP POP POP JUMPDEST POP POP POP POP POP POP JUMP JUMPDEST PUSH32 0x4E487B7100000000000000000000000000000000000000000000000000000000 PUSH1 0x0 MSTORE PUSH1 0x32 PUSH1 0x4 MSTORE PUSH1 0x24 PUSH1 0x0 REVERT JUMPDEST PUSH32 0x4F776E61626C653A206E6577206F776E657220697320746865207A65726F2061 PUSH1 0x0 DUP3 ADD MSTORE PUSH32 0x6464726573730000000000000000000000000000000000000000000000000000 PUSH1 0x20 DUP3 ADD MSTORE POP JUMP JUMPDEST PUSH1 0x0 PUSH2 0x1669 PUSH1 0x26 DUP4 PUSH2 0x1154 JUMP JUMPDEST SWAP2 POP PUSH2 0x1674 DUP3 PUSH2 0x160D JUMP JUMPDEST PUSH1 0x40 DUP3 ADD SWAP1 POP SWAP2 SWAP1 POP JUMP JUMPDEST PUSH1 0x0 PUSH1 0x20 DUP3 ADD SWAP1 POP DUP2 DUP2 SUB PUSH1 0x0 DUP4 ADD MSTORE PUSH2 0x1698 DUP2 PUSH2 0x165C JUMP JUMPDEST SWAP1 POP SWAP2 SWAP1 POP JUMP JUMPDEST PUSH32 0x4F776E61626C653A2063616C6C6572206973206E6F7420746865206F776E6572 PUSH1 0x0 DUP3 ADD MSTORE POP JUMP JUMPDEST PUSH1 0x0 PUSH2 0x16D5 PUSH1 0x20 DUP4 PUSH2 0x1154 JUMP JUMPDEST SWAP2 POP PUSH2 0x16E0 DUP3 PUSH2 0x169F JUMP JUMPDEST PUSH1 0x20 DUP3 ADD SWAP1 POP SWAP2 SWAP1 POP JUMP JUMPDEST PUSH1 0x0 PUSH1 0x20 DUP3 ADD SWAP1 POP DUP2 DUP2 SUB PUSH1 0x0 DUP4 ADD MSTORE PUSH2 0x1704 DUP2 PUSH2 0x16C8 JUMP JUMPDEST SWAP1 POP SWAP2 SWAP1 POP JUMP INVALID LOG2 PUSH5 0x6970667358 0x22 SLT KECCAK256 0x2D CALLDATALOAD DUP12 0xA8 LOG1 0xCD 0xE4 SWAP12 DUP12 0xD4 SHL SSTORE SWAP12 CALLER GAS 0xB6 SHL 0xAC CALLCODE ADDMOD PUSH7 0x15E426F5415AFE 0xB3 0xD3 NOT 0xC4 PUSH5 0x736F6C6343 STOP ADDMOD SLT STOP CALLER "
				},
				"gasEstimates": {
					"creation": {
						"codeDepositCost": "1190600",
						"executionCost": "30513",
						"totalCost": "1221113"
					},
					"external": {
						"addChecked(uint256)": "29191",
						"addIngress((uint256,string,address,uint256,string,string,string,uint256,bool))": "infinite",
						"addPermission(address)": "29288",
						"destroy()": "30017",
						"getAllIngress()": "infinite",
						"owner()": "2522",
						"transferOwnership(address)": "30775"
					}
				},
				"methodIdentifiers": {
					"addChecked(uint256)": "ee416d5b",
					"addIngress((uint256,string,address,uint256,string,string,string,uint256,bool))": "b39f14f0",
					"addPermission(address)": "4d0a5dbd",
					"destroy()": "83197ef0",
					"getAllIngress()": "69f205f2",
					"owner()": "8da5cb5b",
					"transferOwnership(address)": "f2fde38b"
				}
			},
			"storageLayout": {
				"storage": [
					{
						"astId": 30,
						"contract": "database/processing/IngressDatabase.sol:IngressDatabase",
						"label": "_owner",
						"offset": 0,
						"slot": "0",
						"type": "t_address"
					},
					{
						"astId": 149,
						"contract": "database/processing/IngressDatabase.sol:IngressDatabase",
						"label": "list",
						"offset": 0,
						"slot": "1",
						"type": "t_array(t_struct(Ingress)271_storage)dyn_storage"
					},
					{
						"astId": 152,
						"contract": "database/processing/IngressDatabase.sol:IngressDatabase",
						"label": "autoIncrement",
						"offset": 0,
						"slot": "2",
						"type": "t_uint256"
					},
					{
						"astId": 156,
						"contract": "database/processing/IngressDatabase.sol:IngressDatabase",
						"label": "permissions",
						"offset": 0,
						"slot": "3",
						"type": "t_mapping(t_address,t_bool)"
					}
				],
				"types": {
					"t_address": {
						"encoding": "inplace",
						"label": "address",
						"numberOfBytes": "20"
					},
					"t_array(t_struct(Ingress)271_storage)dyn_storage": {
						"base": "t_struct(Ingress)271_storage",
						"encoding": "dynamic_array",
						"label": "struct Ingress[]",
						"numberOfBytes": "32"
					},
					"t_bool": {
						"encoding": "inplace",
						"label": "bool",
						"numberOfBytes": "1"
					},
					"t_mapping(t_address,t_bool)": {
						"encoding": "mapping",
						"key": "t_address",
						"label": "mapping(address => bool)",
						"numberOfBytes": "32",
						"value": "t_bool"
					},
					"t_string_storage": {
						"encoding": "bytes",
						"label": "string",
						"numberOfBytes": "32"
					},
					"t_struct(Ingress)271_storage": {
						"encoding": "inplace",
						"label": "struct Ingress",
						"members": [
							{
								"astId": 254,
								"contract": "database/processing/IngressDatabase.sol:IngressDatabase",
								"label": "batchId",
								"offset": 0,
								"slot": "0",
								"type": "t_uint256"
							},
							{
								"astId": 256,
								"contract": "database/processing/IngressDatabase.sol:IngressDatabase",
								"label": "userName",
								"offset": 0,
								"slot": "1",
								"type": "t_string_storage"
							},
							{
								"astId": 258,
								"contract": "database/processing/IngressDatabase.sol:IngressDatabase",
								"label": "userAddress",
								"offset": 0,
								"slot": "2",
								"type": "t_address"
							},
							{
								"astId": 260,
								"contract": "database/processing/IngressDatabase.sol:IngressDatabase",
								"label": "farmerCccd",
								"offset": 0,
								"slot": "3",
								"type": "t_uint256"
							},
							{
								"astId": 262,
								"contract": "database/processing/IngressDatabase.sol:IngressDatabase",
								"label": "ingressDate",
								"offset": 0,
								"slot": "4",
								"type": "t_string_storage"
							},
							{
								"astId": 264,
								"contract": "database/processing/IngressDatabase.sol:IngressDatabase",
								"label": "ingressAddress",
								"offset": 0,
								"slot": "5",
								"type": "t_string_storage"
							},
							{
								"astId": 266,
								"contract": "database/processing/IngressDatabase.sol:IngressDatabase",
								"label": "contractPhoto",
								"offset": 0,
								"slot": "6",
								"type": "t_string_storage"
							},
							{
								"astId": 268,
								"contract": "database/processing/IngressDatabase.sol:IngressDatabase",
								"label": "keyValue",
								"offset": 0,
								"slot": "7",
								"type": "t_uint256"
							},
							{
								"astId": 270,
								"contract": "database/processing/IngressDatabase.sol:IngressDatabase",
								"label": "ingressIsChecked",
								"offset": 0,
								"slot": "8",
								"type": "t_bool"
							}
						],
						"numberOfBytes": "288"
					},
					"t_uint256": {
						"encoding": "inplace",
						"label": "uint256",
						"numberOfBytes": "32"
					}
				}
			},
			"userdoc": {
				"kind": "user",
				"methods": {},
				"version": 1
			}
		}
	}
}