{
	"database/processing/Step5Database.sol": {
		"Step5Database": {
			"abi": [
				{
					"inputs": [],
					"stateMutability": "nonpayable",
					"type": "constructor"
				},
				{
					"anonymous": false,
					"inputs": [
						{
							"indexed": true,
							"internalType": "address",
							"name": "previousOwner",
							"type": "address"
						},
						{
							"indexed": true,
							"internalType": "address",
							"name": "newOwner",
							"type": "address"
						}
					],
					"name": "OwnershipTransferred",
					"type": "event"
				},
				{
					"inputs": [
						{
							"internalType": "uint256",
							"name": "Step5Id",
							"type": "uint256"
						}
					],
					"name": "addChecked",
					"outputs": [],
					"stateMutability": "nonpayable",
					"type": "function"
				},
				{
					"inputs": [
						{
							"internalType": "address",
							"name": "contractPermission",
							"type": "address"
						}
					],
					"name": "addPermission",
					"outputs": [],
					"stateMutability": "nonpayable",
					"type": "function"
				},
				{
					"inputs": [
						{
							"components": [
								{
									"internalType": "uint256",
									"name": "productCode",
									"type": "uint256"
								},
								{
									"internalType": "string",
									"name": "productName",
									"type": "string"
								},
								{
									"internalType": "string",
									"name": "date",
									"type": "string"
								},
								{
									"internalType": "string",
									"name": "location",
									"type": "string"
								},
								{
									"internalType": "string",
									"name": "photo",
									"type": "string"
								},
								{
									"internalType": "string",
									"name": "userName",
									"type": "string"
								},
								{
									"internalType": "uint256",
									"name": "userCccd",
									"type": "uint256"
								},
								{
									"internalType": "string",
									"name": "categories",
									"type": "string"
								},
								{
									"internalType": "bool",
									"name": "step5IsChecked",
									"type": "bool"
								}
							],
							"internalType": "struct Step5",
							"name": "item",
							"type": "tuple"
						}
					],
					"name": "addStep5",
					"outputs": [],
					"stateMutability": "nonpayable",
					"type": "function"
				},
				{
					"inputs": [],
					"name": "destroy",
					"outputs": [],
					"stateMutability": "nonpayable",
					"type": "function"
				},
				{
					"inputs": [],
					"name": "getAllStep5",
					"outputs": [
						{
							"components": [
								{
									"internalType": "uint256",
									"name": "productCode",
									"type": "uint256"
								},
								{
									"internalType": "string",
									"name": "productName",
									"type": "string"
								},
								{
									"internalType": "string",
									"name": "date",
									"type": "string"
								},
								{
									"internalType": "string",
									"name": "location",
									"type": "string"
								},
								{
									"internalType": "string",
									"name": "photo",
									"type": "string"
								},
								{
									"internalType": "string",
									"name": "userName",
									"type": "string"
								},
								{
									"internalType": "uint256",
									"name": "userCccd",
									"type": "uint256"
								},
								{
									"internalType": "string",
									"name": "categories",
									"type": "string"
								},
								{
									"internalType": "bool",
									"name": "step5IsChecked",
									"type": "bool"
								}
							],
							"internalType": "struct Step5[]",
							"name": "",
							"type": "tuple[]"
						}
					],
					"stateMutability": "view",
					"type": "function"
				},
				{
					"inputs": [],
					"name": "owner",
					"outputs": [
						{
							"internalType": "address",
							"name": "",
							"type": "address"
						}
					],
					"stateMutability": "view",
					"type": "function"
				},
				{
					"inputs": [
						{
							"internalType": "address",
							"name": "newOwner",
							"type": "address"
						}
					],
					"name": "transferOwnership",
					"outputs": [],
					"stateMutability": "nonpayable",
					"type": "function"
				}
			],
			"devdoc": {
				"kind": "dev",
				"methods": {
					"owner()": {
						"details": "Returns the address of the current owner."
					},
					"transferOwnership(address)": {
						"details": "Transfers ownership of the contract to a new account (`newOwner`). Can only be called by the current owner."
					}
				},
				"version": 1
			},
			"evm": {
				"assembly": "    /* \"database/processing/Step5Database.sol\":182:1168  contract Step5Database is Ownable {... */\n  mstore(0x40, 0x80)\n    /* \"database/processing/Step5Database.sol\":492:518  constructor() Ownable() {} */\n  callvalue\n  dup1\n  iszero\n  tag_1\n  jumpi\n  0x00\n  dup1\n  revert\ntag_1:\n  pop\n    /* \"abstract/Ownable.sol\":1032:1042  msg.sender */\n  caller\n    /* \"abstract/Ownable.sol\":1023:1029  _owner */\n  0x00\n  dup1\n    /* \"abstract/Ownable.sol\":1023:1042  _owner = msg.sender */\n  0x0100\n  exp\n  dup2\n  sload\n  dup2\n  0xffffffffffffffffffffffffffffffffffffffff\n  mul\n  not\n  and\n  swap1\n  dup4\n  0xffffffffffffffffffffffffffffffffffffffff\n  and\n  mul\n  or\n  swap1\n  sstore\n  pop\n    /* \"database/processing/Step5Database.sol\":182:1168  contract Step5Database is Ownable {... */\n  dataSize(sub_0)\n  dup1\n  dataOffset(sub_0)\n  0x00\n  codecopy\n  0x00\n  return\nstop\n\nsub_0: assembly {\n        /* \"database/processing/Step5Database.sol\":182:1168  contract Step5Database is Ownable {... */\n      mstore(0x40, 0x80)\n      callvalue\n      dup1\n      iszero\n      tag_1\n      jumpi\n      0x00\n      dup1\n      revert\n    tag_1:\n      pop\n      jumpi(tag_2, lt(calldatasize, 0x04))\n      shr(0xe0, calldataload(0x00))\n      dup1\n      0x8da5cb5b\n      gt\n      tag_10\n      jumpi\n      dup1\n      0x8da5cb5b\n      eq\n      tag_6\n      jumpi\n      dup1\n      0xee416d5b\n      eq\n      tag_7\n      jumpi\n      dup1\n      0xf2fde38b\n      eq\n      tag_8\n      jumpi\n      dup1\n      0xff657f5f\n      eq\n      tag_9\n      jumpi\n      jump(tag_2)\n    tag_10:\n      dup1\n      0x4d0a5dbd\n      eq\n      tag_3\n      jumpi\n      dup1\n      0x5b4a8a95\n      eq\n      tag_4\n      jumpi\n      dup1\n      0x83197ef0\n      eq\n      tag_5\n      jumpi\n    tag_2:\n      0x00\n      dup1\n      revert\n        /* \"database/processing/Step5Database.sol\":526:786  function addPermission(address contractPermission) public onlyOwner {... */\n    tag_3:\n      tag_11\n      0x04\n      dup1\n      calldatasize\n      sub\n      dup2\n      add\n      swap1\n      tag_12\n      swap2\n      swap1\n      tag_13\n      jump\t// in\n    tag_12:\n      tag_14\n      jump\t// in\n    tag_11:\n      stop\n        /* \"database/processing/Step5Database.sol\":1018:1165  function getAllStep5()... */\n    tag_4:\n      tag_15\n      tag_16\n      jump\t// in\n    tag_15:\n      mload(0x40)\n      tag_17\n      swap2\n      swap1\n      tag_18\n      jump\t// in\n    tag_17:\n      mload(0x40)\n      dup1\n      swap2\n      sub\n      swap1\n      return\n        /* \"abstract/Ownable.sol\":2801:2892  function destroy() public onlyOwner {... */\n    tag_5:\n      tag_19\n      tag_20\n      jump\t// in\n    tag_19:\n      stop\n        /* \"abstract/Ownable.sol\":1289:1376  function owner() public view virtual returns (address) {... */\n    tag_6:\n      tag_21\n      tag_22\n      jump\t// in\n    tag_21:\n      mload(0x40)\n      tag_23\n      swap2\n      swap1\n      tag_24\n      jump\t// in\n    tag_23:\n      mload(0x40)\n      dup1\n      swap2\n      sub\n      swap1\n      return\n        /* \"database/processing/Step5Database.sol\":896:1010  function addChecked(uint256 Step5Id) public onlyPermissions {... */\n    tag_7:\n      tag_25\n      0x04\n      dup1\n      calldatasize\n      sub\n      dup2\n      add\n      swap1\n      tag_26\n      swap2\n      swap1\n      tag_27\n      jump\t// in\n    tag_26:\n      tag_28\n      jump\t// in\n    tag_25:\n      stop\n        /* \"abstract/Ownable.sol\":2204:2442  function transferOwnership(address newOwner) public virtual onlyOwner {... */\n    tag_8:\n      tag_29\n      0x04\n      dup1\n      calldatasize\n      sub\n      dup2\n      add\n      swap1\n      tag_30\n      swap2\n      swap1\n      tag_13\n      jump\t// in\n    tag_30:\n      tag_31\n      jump\t// in\n    tag_29:\n      stop\n        /* \"database/processing/Step5Database.sol\":794:888  function addStep5(Step5 memory item) public onlyPermissions {... */\n    tag_9:\n      tag_32\n      0x04\n      dup1\n      calldatasize\n      sub\n      dup2\n      add\n      swap1\n      tag_33\n      swap2\n      swap1\n      tag_34\n      jump\t// in\n    tag_33:\n      tag_35\n      jump\t// in\n    tag_32:\n      stop\n        /* \"database/processing/Step5Database.sol\":526:786  function addPermission(address contractPermission) public onlyOwner {... */\n    tag_14:\n        /* \"abstract/Ownable.sol\":1175:1188  _checkOwner() */\n      tag_37\n        /* \"abstract/Ownable.sol\":1175:1186  _checkOwner */\n      tag_38\n        /* \"abstract/Ownable.sol\":1175:1188  _checkOwner() */\n      jump\t// in\n    tag_37:\n        /* \"database/processing/Step5Database.sol\":628:639  permissions */\n      0x02\n        /* \"database/processing/Step5Database.sol\":628:659  permissions[contractPermission] */\n      0x00\n        /* \"database/processing/Step5Database.sol\":640:658  contractPermission */\n      dup3\n        /* \"database/processing/Step5Database.sol\":628:659  permissions[contractPermission] */\n      0xffffffffffffffffffffffffffffffffffffffff\n      and\n      0xffffffffffffffffffffffffffffffffffffffff\n      and\n      dup2\n      mstore\n      0x20\n      add\n      swap1\n      dup2\n      mstore\n      0x20\n      add\n      0x00\n      keccak256\n      0x00\n      swap1\n      sload\n      swap1\n      0x0100\n      exp\n      swap1\n      div\n      0xff\n      and\n        /* \"database/processing/Step5Database.sol\":627:659  !permissions[contractPermission] */\n      iszero\n        /* \"database/processing/Step5Database.sol\":605:729  require(... */\n      tag_40\n      jumpi\n      mload(0x40)\n      0x08c379a000000000000000000000000000000000000000000000000000000000\n      dup2\n      mstore\n      0x04\n      add\n      tag_41\n      swap1\n      tag_42\n      jump\t// in\n    tag_41:\n      mload(0x40)\n      dup1\n      swap2\n      sub\n      swap1\n      revert\n    tag_40:\n        /* \"database/processing/Step5Database.sol\":774:778  true */\n      0x01\n        /* \"database/processing/Step5Database.sol\":740:751  permissions */\n      0x02\n        /* \"database/processing/Step5Database.sol\":740:771  permissions[contractPermission] */\n      0x00\n        /* \"database/processing/Step5Database.sol\":752:770  contractPermission */\n      dup4\n        /* \"database/processing/Step5Database.sol\":740:771  permissions[contractPermission] */\n      0xffffffffffffffffffffffffffffffffffffffff\n      and\n      0xffffffffffffffffffffffffffffffffffffffff\n      and\n      dup2\n      mstore\n      0x20\n      add\n      swap1\n      dup2\n      mstore\n      0x20\n      add\n      0x00\n      keccak256\n      0x00\n        /* \"database/processing/Step5Database.sol\":740:778  permissions[contractPermission] = true */\n      0x0100\n      exp\n      dup2\n      sload\n      dup2\n      0xff\n      mul\n      not\n      and\n      swap1\n      dup4\n      iszero\n      iszero\n      mul\n      or\n      swap1\n      sstore\n      pop\n        /* \"database/processing/Step5Database.sol\":526:786  function addPermission(address contractPermission) public onlyOwner {... */\n      pop\n      jump\t// out\n        /* \"database/processing/Step5Database.sol\":1018:1165  function getAllStep5()... */\n    tag_16:\n        /* \"database/processing/Step5Database.sol\":1114:1128  Step5[] memory */\n      0x60\n        /* \"database/processing/Step5Database.sol\":365:376  permissions */\n      0x02\n        /* \"database/processing/Step5Database.sol\":365:390  permissions[_msgSender()] */\n      0x00\n        /* \"database/processing/Step5Database.sol\":377:389  _msgSender() */\n      tag_44\n        /* \"database/processing/Step5Database.sol\":377:387  _msgSender */\n      tag_45\n        /* \"database/processing/Step5Database.sol\":377:389  _msgSender() */\n      jump\t// in\n    tag_44:\n        /* \"database/processing/Step5Database.sol\":365:390  permissions[_msgSender()] */\n      0xffffffffffffffffffffffffffffffffffffffff\n      and\n      0xffffffffffffffffffffffffffffffffffffffff\n      and\n      dup2\n      mstore\n      0x20\n      add\n      swap1\n      dup2\n      mstore\n      0x20\n      add\n      0x00\n      keccak256\n      0x00\n      swap1\n      sload\n      swap1\n      0x0100\n      exp\n      swap1\n      div\n      0xff\n      and\n        /* \"database/processing/Step5Database.sol\":343:464  require(... */\n      tag_46\n      jumpi\n      mload(0x40)\n      0x08c379a000000000000000000000000000000000000000000000000000000000\n      dup2\n      mstore\n      0x04\n      add\n      tag_47\n      swap1\n      tag_48\n      jump\t// in\n    tag_47:\n      mload(0x40)\n      dup1\n      swap2\n      sub\n      swap1\n      revert\n    tag_46:\n        /* \"database/processing/Step5Database.sol\":1153:1157  list */\n      0x01\n        /* \"database/processing/Step5Database.sol\":1146:1157  return list */\n      dup1\n      sload\n      dup1\n      0x20\n      mul\n      0x20\n      add\n      mload(0x40)\n      swap1\n      dup2\n      add\n      0x40\n      mstore\n      dup1\n      swap3\n      swap2\n      swap1\n      dup2\n      dup2\n      mstore\n      0x20\n      add\n      0x00\n      swap1\n    tag_50:\n      dup3\n      dup3\n      lt\n      iszero\n      tag_51\n      jumpi\n      dup4\n      dup3\n      swap1\n      0x00\n      mstore\n      keccak256(0x00, 0x20)\n      swap1\n      0x09\n      mul\n      add\n      mload(0x40)\n      dup1\n      0x0120\n      add\n      0x40\n      mstore\n      swap1\n      dup2\n      0x00\n      dup3\n      add\n      sload\n      dup2\n      mstore\n      0x20\n      add\n      0x01\n      dup3\n      add\n      dup1\n      sload\n      tag_53\n      swap1\n      tag_54\n      jump\t// in\n    tag_53:\n      dup1\n      0x1f\n      add\n      0x20\n      dup1\n      swap2\n      div\n      mul\n      0x20\n      add\n      mload(0x40)\n      swap1\n      dup2\n      add\n      0x40\n      mstore\n      dup1\n      swap3\n      swap2\n      swap1\n      dup2\n      dup2\n      mstore\n      0x20\n      add\n      dup3\n      dup1\n      sload\n      tag_55\n      swap1\n      tag_54\n      jump\t// in\n    tag_55:\n      dup1\n      iszero\n      tag_56\n      jumpi\n      dup1\n      0x1f\n      lt\n      tag_57\n      jumpi\n      0x0100\n      dup1\n      dup4\n      sload\n      div\n      mul\n      dup4\n      mstore\n      swap2\n      0x20\n      add\n      swap2\n      jump(tag_56)\n    tag_57:\n      dup3\n      add\n      swap2\n      swap1\n      0x00\n      mstore\n      keccak256(0x00, 0x20)\n      swap1\n    tag_58:\n      dup2\n      sload\n      dup2\n      mstore\n      swap1\n      0x01\n      add\n      swap1\n      0x20\n      add\n      dup1\n      dup4\n      gt\n      tag_58\n      jumpi\n      dup3\n      swap1\n      sub\n      0x1f\n      and\n      dup3\n      add\n      swap2\n    tag_56:\n      pop\n      pop\n      pop\n      pop\n      pop\n      dup2\n      mstore\n      0x20\n      add\n      0x02\n      dup3\n      add\n      dup1\n      sload\n      tag_59\n      swap1\n      tag_54\n      jump\t// in\n    tag_59:\n      dup1\n      0x1f\n      add\n      0x20\n      dup1\n      swap2\n      div\n      mul\n      0x20\n      add\n      mload(0x40)\n      swap1\n      dup2\n      add\n      0x40\n      mstore\n      dup1\n      swap3\n      swap2\n      swap1\n      dup2\n      dup2\n      mstore\n      0x20\n      add\n      dup3\n      dup1\n      sload\n      tag_60\n      swap1\n      tag_54\n      jump\t// in\n    tag_60:\n      dup1\n      iszero\n      tag_61\n      jumpi\n      dup1\n      0x1f\n      lt\n      tag_62\n      jumpi\n      0x0100\n      dup1\n      dup4\n      sload\n      div\n      mul\n      dup4\n      mstore\n      swap2\n      0x20\n      add\n      swap2\n      jump(tag_61)\n    tag_62:\n      dup3\n      add\n      swap2\n      swap1\n      0x00\n      mstore\n      keccak256(0x00, 0x20)\n      swap1\n    tag_63:\n      dup2\n      sload\n      dup2\n      mstore\n      swap1\n      0x01\n      add\n      swap1\n      0x20\n      add\n      dup1\n      dup4\n      gt\n      tag_63\n      jumpi\n      dup3\n      swap1\n      sub\n      0x1f\n      and\n      dup3\n      add\n      swap2\n    tag_61:\n      pop\n      pop\n      pop\n      pop\n      pop\n      dup2\n      mstore\n      0x20\n      add\n      0x03\n      dup3\n      add\n      dup1\n      sload\n      tag_64\n      swap1\n      tag_54\n      jump\t// in\n    tag_64:\n      dup1\n      0x1f\n      add\n      0x20\n      dup1\n      swap2\n      div\n      mul\n      0x20\n      add\n      mload(0x40)\n      swap1\n      dup2\n      add\n      0x40\n      mstore\n      dup1\n      swap3\n      swap2\n      swap1\n      dup2\n      dup2\n      mstore\n      0x20\n      add\n      dup3\n      dup1\n      sload\n      tag_65\n      swap1\n      tag_54\n      jump\t// in\n    tag_65:\n      dup1\n      iszero\n      tag_66\n      jumpi\n      dup1\n      0x1f\n      lt\n      tag_67\n      jumpi\n      0x0100\n      dup1\n      dup4\n      sload\n      div\n      mul\n      dup4\n      mstore\n      swap2\n      0x20\n      add\n      swap2\n      jump(tag_66)\n    tag_67:\n      dup3\n      add\n      swap2\n      swap1\n      0x00\n      mstore\n      keccak256(0x00, 0x20)\n      swap1\n    tag_68:\n      dup2\n      sload\n      dup2\n      mstore\n      swap1\n      0x01\n      add\n      swap1\n      0x20\n      add\n      dup1\n      dup4\n      gt\n      tag_68\n      jumpi\n      dup3\n      swap1\n      sub\n      0x1f\n      and\n      dup3\n      add\n      swap2\n    tag_66:\n      pop\n      pop\n      pop\n      pop\n      pop\n      dup2\n      mstore\n      0x20\n      add\n      0x04\n      dup3\n      add\n      dup1\n      sload\n      tag_69\n      swap1\n      tag_54\n      jump\t// in\n    tag_69:\n      dup1\n      0x1f\n      add\n      0x20\n      dup1\n      swap2\n      div\n      mul\n      0x20\n      add\n      mload(0x40)\n      swap1\n      dup2\n      add\n      0x40\n      mstore\n      dup1\n      swap3\n      swap2\n      swap1\n      dup2\n      dup2\n      mstore\n      0x20\n      add\n      dup3\n      dup1\n      sload\n      tag_70\n      swap1\n      tag_54\n      jump\t// in\n    tag_70:\n      dup1\n      iszero\n      tag_71\n      jumpi\n      dup1\n      0x1f\n      lt\n      tag_72\n      jumpi\n      0x0100\n      dup1\n      dup4\n      sload\n      div\n      mul\n      dup4\n      mstore\n      swap2\n      0x20\n      add\n      swap2\n      jump(tag_71)\n    tag_72:\n      dup3\n      add\n      swap2\n      swap1\n      0x00\n      mstore\n      keccak256(0x00, 0x20)\n      swap1\n    tag_73:\n      dup2\n      sload\n      dup2\n      mstore\n      swap1\n      0x01\n      add\n      swap1\n      0x20\n      add\n      dup1\n      dup4\n      gt\n      tag_73\n      jumpi\n      dup3\n      swap1\n      sub\n      0x1f\n      and\n      dup3\n      add\n      swap2\n    tag_71:\n      pop\n      pop\n      pop\n      pop\n      pop\n      dup2\n      mstore\n      0x20\n      add\n      0x05\n      dup3\n      add\n      dup1\n      sload\n      tag_74\n      swap1\n      tag_54\n      jump\t// in\n    tag_74:\n      dup1\n      0x1f\n      add\n      0x20\n      dup1\n      swap2\n      div\n      mul\n      0x20\n      add\n      mload(0x40)\n      swap1\n      dup2\n      add\n      0x40\n      mstore\n      dup1\n      swap3\n      swap2\n      swap1\n      dup2\n      dup2\n      mstore\n      0x20\n      add\n      dup3\n      dup1\n      sload\n      tag_75\n      swap1\n      tag_54\n      jump\t// in\n    tag_75:\n      dup1\n      iszero\n      tag_76\n      jumpi\n      dup1\n      0x1f\n      lt\n      tag_77\n      jumpi\n      0x0100\n      dup1\n      dup4\n      sload\n      div\n      mul\n      dup4\n      mstore\n      swap2\n      0x20\n      add\n      swap2\n      jump(tag_76)\n    tag_77:\n      dup3\n      add\n      swap2\n      swap1\n      0x00\n      mstore\n      keccak256(0x00, 0x20)\n      swap1\n    tag_78:\n      dup2\n      sload\n      dup2\n      mstore\n      swap1\n      0x01\n      add\n      swap1\n      0x20\n      add\n      dup1\n      dup4\n      gt\n      tag_78\n      jumpi\n      dup3\n      swap1\n      sub\n      0x1f\n      and\n      dup3\n      add\n      swap2\n    tag_76:\n      pop\n      pop\n      pop\n      pop\n      pop\n      dup2\n      mstore\n      0x20\n      add\n      0x06\n      dup3\n      add\n      sload\n      dup2\n      mstore\n      0x20\n      add\n      0x07\n      dup3\n      add\n      dup1\n      sload\n      tag_79\n      swap1\n      tag_54\n      jump\t// in\n    tag_79:\n      dup1\n      0x1f\n      add\n      0x20\n      dup1\n      swap2\n      div\n      mul\n      0x20\n      add\n      mload(0x40)\n      swap1\n      dup2\n      add\n      0x40\n      mstore\n      dup1\n      swap3\n      swap2\n      swap1\n      dup2\n      dup2\n      mstore\n      0x20\n      add\n      dup3\n      dup1\n      sload\n      tag_80\n      swap1\n      tag_54\n      jump\t// in\n    tag_80:\n      dup1\n      iszero\n      tag_81\n      jumpi\n      dup1\n      0x1f\n      lt\n      tag_82\n      jumpi\n      0x0100\n      dup1\n      dup4\n      sload\n      div\n      mul\n      dup4\n      mstore\n      swap2\n      0x20\n      add\n      swap2\n      jump(tag_81)\n    tag_82:\n      dup3\n      add\n      swap2\n      swap1\n      0x00\n      mstore\n      keccak256(0x00, 0x20)\n      swap1\n    tag_83:\n      dup2\n      sload\n      dup2\n      mstore\n      swap1\n      0x01\n      add\n      swap1\n      0x20\n      add\n      dup1\n      dup4\n      gt\n      tag_83\n      jumpi\n      dup3\n      swap1\n      sub\n      0x1f\n      and\n      dup3\n      add\n      swap2\n    tag_81:\n      pop\n      pop\n      pop\n      pop\n      pop\n      dup2\n      mstore\n      0x20\n      add\n      0x08\n      dup3\n      add\n      0x00\n      swap1\n      sload\n      swap1\n      0x0100\n      exp\n      swap1\n      div\n      0xff\n      and\n      iszero\n      iszero\n      iszero\n      iszero\n      dup2\n      mstore\n      pop\n      pop\n      dup2\n      mstore\n      0x20\n      add\n      swap1\n      0x01\n      add\n      swap1\n      jump(tag_50)\n    tag_51:\n      pop\n      pop\n      pop\n      pop\n      swap1\n      pop\n        /* \"database/processing/Step5Database.sol\":1018:1165  function getAllStep5()... */\n      swap1\n      jump\t// out\n        /* \"abstract/Ownable.sol\":2801:2892  function destroy() public onlyOwner {... */\n    tag_20:\n        /* \"abstract/Ownable.sol\":1175:1188  _checkOwner() */\n      tag_85\n        /* \"abstract/Ownable.sol\":1175:1186  _checkOwner */\n      tag_38\n        /* \"abstract/Ownable.sol\":1175:1188  _checkOwner() */\n      jump\t// in\n    tag_85:\n        /* \"abstract/Ownable.sol\":2877:2881  this */\n      address\n        /* \"abstract/Ownable.sol\":2848:2884  selfdestruct(payable(address(this))) */\n      0xffffffffffffffffffffffffffffffffffffffff\n      and\n      selfdestruct\n        /* \"abstract/Ownable.sol\":1289:1376  function owner() public view virtual returns (address) {... */\n    tag_22:\n        /* \"abstract/Ownable.sol\":1335:1342  address */\n      0x00\n        /* \"abstract/Ownable.sol\":1362:1368  _owner */\n      dup1\n      0x00\n      swap1\n      sload\n      swap1\n      0x0100\n      exp\n      swap1\n      div\n      0xffffffffffffffffffffffffffffffffffffffff\n      and\n        /* \"abstract/Ownable.sol\":1355:1368  return _owner */\n      swap1\n      pop\n        /* \"abstract/Ownable.sol\":1289:1376  function owner() public view virtual returns (address) {... */\n      swap1\n      jump\t// out\n        /* \"database/processing/Step5Database.sol\":896:1010  function addChecked(uint256 Step5Id) public onlyPermissions {... */\n    tag_28:\n        /* \"database/processing/Step5Database.sol\":365:376  permissions */\n      0x02\n        /* \"database/processing/Step5Database.sol\":365:390  permissions[_msgSender()] */\n      0x00\n        /* \"database/processing/Step5Database.sol\":377:389  _msgSender() */\n      tag_89\n        /* \"database/processing/Step5Database.sol\":377:387  _msgSender */\n      tag_45\n        /* \"database/processing/Step5Database.sol\":377:389  _msgSender() */\n      jump\t// in\n    tag_89:\n        /* \"database/processing/Step5Database.sol\":365:390  permissions[_msgSender()] */\n      0xffffffffffffffffffffffffffffffffffffffff\n      and\n      0xffffffffffffffffffffffffffffffffffffffff\n      and\n      dup2\n      mstore\n      0x20\n      add\n      swap1\n      dup2\n      mstore\n      0x20\n      add\n      0x00\n      keccak256\n      0x00\n      swap1\n      sload\n      swap1\n      0x0100\n      exp\n      swap1\n      div\n      0xff\n      and\n        /* \"database/processing/Step5Database.sol\":343:464  require(... */\n      tag_90\n      jumpi\n      mload(0x40)\n      0x08c379a000000000000000000000000000000000000000000000000000000000\n      dup2\n      mstore\n      0x04\n      add\n      tag_91\n      swap1\n      tag_48\n      jump\t// in\n    tag_91:\n      mload(0x40)\n      dup1\n      swap2\n      sub\n      swap1\n      revert\n    tag_90:\n        /* \"database/processing/Step5Database.sol\":998:1002  true */\n      0x01\n        /* \"database/processing/Step5Database.sol\":967:971  list */\n      dup1\n        /* \"database/processing/Step5Database.sol\":972:979  Step5Id */\n      dup3\n        /* \"database/processing/Step5Database.sol\":967:980  list[Step5Id] */\n      dup2\n      sload\n      dup2\n      lt\n      tag_93\n      jumpi\n      tag_94\n      tag_95\n      jump\t// in\n    tag_94:\n    tag_93:\n      swap1\n      0x00\n      mstore\n      keccak256(0x00, 0x20)\n      swap1\n      0x09\n      mul\n      add\n        /* \"database/processing/Step5Database.sol\":967:995  list[Step5Id].step5IsChecked */\n      0x08\n      add\n      0x00\n        /* \"database/processing/Step5Database.sol\":967:1002  list[Step5Id].step5IsChecked = true */\n      0x0100\n      exp\n      dup2\n      sload\n      dup2\n      0xff\n      mul\n      not\n      and\n      swap1\n      dup4\n      iszero\n      iszero\n      mul\n      or\n      swap1\n      sstore\n      pop\n        /* \"database/processing/Step5Database.sol\":896:1010  function addChecked(uint256 Step5Id) public onlyPermissions {... */\n      pop\n      jump\t// out\n        /* \"abstract/Ownable.sol\":2204:2442  function transferOwnership(address newOwner) public virtual onlyOwner {... */\n    tag_31:\n        /* \"abstract/Ownable.sol\":1175:1188  _checkOwner() */\n      tag_98\n        /* \"abstract/Ownable.sol\":1175:1186  _checkOwner */\n      tag_38\n        /* \"abstract/Ownable.sol\":1175:1188  _checkOwner() */\n      jump\t// in\n    tag_98:\n        /* \"abstract/Ownable.sol\":2327:2328  0 */\n      0x00\n        /* \"abstract/Ownable.sol\":2307:2329  newOwner != address(0) */\n      0xffffffffffffffffffffffffffffffffffffffff\n      and\n        /* \"abstract/Ownable.sol\":2307:2315  newOwner */\n      dup2\n        /* \"abstract/Ownable.sol\":2307:2329  newOwner != address(0) */\n      0xffffffffffffffffffffffffffffffffffffffff\n      and\n      sub\n        /* \"abstract/Ownable.sol\":2285:2395  require(... */\n      tag_100\n      jumpi\n      mload(0x40)\n      0x08c379a000000000000000000000000000000000000000000000000000000000\n      dup2\n      mstore\n      0x04\n      add\n      tag_101\n      swap1\n      tag_102\n      jump\t// in\n    tag_101:\n      mload(0x40)\n      dup1\n      swap2\n      sub\n      swap1\n      revert\n    tag_100:\n        /* \"abstract/Ownable.sol\":2406:2434  _transferOwnership(newOwner) */\n      tag_103\n        /* \"abstract/Ownable.sol\":2425:2433  newOwner */\n      dup2\n        /* \"abstract/Ownable.sol\":2406:2424  _transferOwnership */\n      tag_104\n        /* \"abstract/Ownable.sol\":2406:2434  _transferOwnership(newOwner) */\n      jump\t// in\n    tag_103:\n        /* \"abstract/Ownable.sol\":2204:2442  function transferOwnership(address newOwner) public virtual onlyOwner {... */\n      pop\n      jump\t// out\n        /* \"database/processing/Step5Database.sol\":794:888  function addStep5(Step5 memory item) public onlyPermissions {... */\n    tag_35:\n        /* \"database/processing/Step5Database.sol\":365:376  permissions */\n      0x02\n        /* \"database/processing/Step5Database.sol\":365:390  permissions[_msgSender()] */\n      0x00\n        /* \"database/processing/Step5Database.sol\":377:389  _msgSender() */\n      tag_106\n        /* \"database/processing/Step5Database.sol\":377:387  _msgSender */\n      tag_45\n        /* \"database/processing/Step5Database.sol\":377:389  _msgSender() */\n      jump\t// in\n    tag_106:\n        /* \"database/processing/Step5Database.sol\":365:390  permissions[_msgSender()] */\n      0xffffffffffffffffffffffffffffffffffffffff\n      and\n      0xffffffffffffffffffffffffffffffffffffffff\n      and\n      dup2\n      mstore\n      0x20\n      add\n      swap1\n      dup2\n      mstore\n      0x20\n      add\n      0x00\n      keccak256\n      0x00\n      swap1\n      sload\n      swap1\n      0x0100\n      exp\n      swap1\n      div\n      0xff\n      and\n        /* \"database/processing/Step5Database.sol\":343:464  require(... */\n      tag_107\n      jumpi\n      mload(0x40)\n      0x08c379a000000000000000000000000000000000000000000000000000000000\n      dup2\n      mstore\n      0x04\n      add\n      tag_108\n      swap1\n      tag_48\n      jump\t// in\n    tag_108:\n      mload(0x40)\n      dup1\n      swap2\n      sub\n      swap1\n      revert\n    tag_107:\n        /* \"database/processing/Step5Database.sol\":865:869  list */\n      0x01\n        /* \"database/processing/Step5Database.sol\":875:879  item */\n      dup2\n        /* \"database/processing/Step5Database.sol\":865:880  list.push(item) */\n      swap1\n      dup1\n      0x01\n      dup2\n      sload\n      add\n      dup1\n      dup3\n      sstore\n      dup1\n      swap2\n      pop\n      pop\n      0x01\n      swap1\n      sub\n      swap1\n      0x00\n      mstore\n      keccak256(0x00, 0x20)\n      swap1\n      0x09\n      mul\n      add\n      0x00\n      swap1\n      swap2\n      swap1\n      swap2\n      swap1\n      swap2\n      pop\n      0x00\n      dup3\n      add\n      mload\n      dup2\n      0x00\n      add\n      sstore\n      0x20\n      dup3\n      add\n      mload\n      dup2\n      0x01\n      add\n      swap1\n      dup2\n      tag_111\n      swap2\n      swap1\n      tag_112\n      jump\t// in\n    tag_111:\n      pop\n      0x40\n      dup3\n      add\n      mload\n      dup2\n      0x02\n      add\n      swap1\n      dup2\n      tag_113\n      swap2\n      swap1\n      tag_112\n      jump\t// in\n    tag_113:\n      pop\n      0x60\n      dup3\n      add\n      mload\n      dup2\n      0x03\n      add\n      swap1\n      dup2\n      tag_114\n      swap2\n      swap1\n      tag_112\n      jump\t// in\n    tag_114:\n      pop\n      0x80\n      dup3\n      add\n      mload\n      dup2\n      0x04\n      add\n      swap1\n      dup2\n      tag_115\n      swap2\n      swap1\n      tag_112\n      jump\t// in\n    tag_115:\n      pop\n      0xa0\n      dup3\n      add\n      mload\n      dup2\n      0x05\n      add\n      swap1\n      dup2\n      tag_116\n      swap2\n      swap1\n      tag_112\n      jump\t// in\n    tag_116:\n      pop\n      0xc0\n      dup3\n      add\n      mload\n      dup2\n      0x06\n      add\n      sstore\n      0xe0\n      dup3\n      add\n      mload\n      dup2\n      0x07\n      add\n      swap1\n      dup2\n      tag_117\n      swap2\n      swap1\n      tag_112\n      jump\t// in\n    tag_117:\n      pop\n      0x0100\n      dup3\n      add\n      mload\n      dup2\n      0x08\n      add\n      exp(0x0100, 0x00)\n      dup2\n      sload\n      dup2\n      0xff\n      mul\n      not\n      and\n      swap1\n      dup4\n      iszero\n      iszero\n      mul\n      or\n      swap1\n      sstore\n      pop\n      pop\n      pop\n        /* \"database/processing/Step5Database.sol\":794:888  function addStep5(Step5 memory item) public onlyPermissions {... */\n      pop\n      jump\t// out\n        /* \"abstract/Ownable.sol\":1454:1584  function _checkOwner() internal view virtual {... */\n    tag_38:\n        /* \"abstract/Ownable.sol\":1529:1539  msg.sender */\n      caller\n        /* \"abstract/Ownable.sol\":1518:1539  owner() == msg.sender */\n      0xffffffffffffffffffffffffffffffffffffffff\n      and\n        /* \"abstract/Ownable.sol\":1518:1525  owner() */\n      tag_119\n        /* \"abstract/Ownable.sol\":1518:1523  owner */\n      tag_22\n        /* \"abstract/Ownable.sol\":1518:1525  owner() */\n      jump\t// in\n    tag_119:\n        /* \"abstract/Ownable.sol\":1518:1539  owner() == msg.sender */\n      0xffffffffffffffffffffffffffffffffffffffff\n      and\n      eq\n        /* \"abstract/Ownable.sol\":1510:1576  require(owner() == msg.sender, \"Ownable: caller is not the owner\") */\n      tag_120\n      jumpi\n      mload(0x40)\n      0x08c379a000000000000000000000000000000000000000000000000000000000\n      dup2\n      mstore\n      0x04\n      add\n      tag_121\n      swap1\n      tag_122\n      jump\t// in\n    tag_121:\n      mload(0x40)\n      dup1\n      swap2\n      sub\n      swap1\n      revert\n    tag_120:\n        /* \"abstract/Ownable.sol\":1454:1584  function _checkOwner() internal view virtual {... */\n      jump\t// out\n        /* \"@openzeppelin/contracts/utils/Context.sol\":640:736  function _msgSender() internal view virtual returns (address) {... */\n    tag_45:\n        /* \"@openzeppelin/contracts/utils/Context.sol\":693:700  address */\n      0x00\n        /* \"@openzeppelin/contracts/utils/Context.sol\":719:729  msg.sender */\n      caller\n        /* \"@openzeppelin/contracts/utils/Context.sol\":712:729  return msg.sender */\n      swap1\n      pop\n        /* \"@openzeppelin/contracts/utils/Context.sol\":640:736  function _msgSender() internal view virtual returns (address) {... */\n      swap1\n      jump\t// out\n        /* \"abstract/Ownable.sol\":2602:2793  function _transferOwnership(address newOwner) internal virtual {... */\n    tag_104:\n        /* \"abstract/Ownable.sol\":2676:2692  address oldOwner */\n      0x00\n        /* \"abstract/Ownable.sol\":2695:2701  _owner */\n      dup1\n      0x00\n      swap1\n      sload\n      swap1\n      0x0100\n      exp\n      swap1\n      div\n      0xffffffffffffffffffffffffffffffffffffffff\n      and\n        /* \"abstract/Ownable.sol\":2676:2701  address oldOwner = _owner */\n      swap1\n      pop\n        /* \"abstract/Ownable.sol\":2721:2729  newOwner */\n      dup2\n        /* \"abstract/Ownable.sol\":2712:2718  _owner */\n      0x00\n      dup1\n        /* \"abstract/Ownable.sol\":2712:2729  _owner = newOwner */\n      0x0100\n      exp\n      dup2\n      sload\n      dup2\n      0xffffffffffffffffffffffffffffffffffffffff\n      mul\n      not\n      and\n      swap1\n      dup4\n      0xffffffffffffffffffffffffffffffffffffffff\n      and\n      mul\n      or\n      swap1\n      sstore\n      pop\n        /* \"abstract/Ownable.sol\":2776:2784  newOwner */\n      dup2\n        /* \"abstract/Ownable.sol\":2745:2785  OwnershipTransferred(oldOwner, newOwner) */\n      0xffffffffffffffffffffffffffffffffffffffff\n      and\n        /* \"abstract/Ownable.sol\":2766:2774  oldOwner */\n      dup2\n        /* \"abstract/Ownable.sol\":2745:2785  OwnershipTransferred(oldOwner, newOwner) */\n      0xffffffffffffffffffffffffffffffffffffffff\n      and\n      0x8be0079c531659141344cd1fd0a4f28419497f9722a3daafe3b4186f6b6457e0\n      mload(0x40)\n      mload(0x40)\n      dup1\n      swap2\n      sub\n      swap1\n      log3\n        /* \"abstract/Ownable.sol\":2665:2793  {... */\n      pop\n        /* \"abstract/Ownable.sol\":2602:2793  function _transferOwnership(address newOwner) internal virtual {... */\n      pop\n      jump\t// out\n        /* \"#utility.yul\":7:82   */\n    tag_125:\n        /* \"#utility.yul\":40:46   */\n      0x00\n        /* \"#utility.yul\":73:75   */\n      0x40\n        /* \"#utility.yul\":67:76   */\n      mload\n        /* \"#utility.yul\":57:76   */\n      swap1\n      pop\n        /* \"#utility.yul\":7:82   */\n      swap1\n      jump\t// out\n        /* \"#utility.yul\":88:205   */\n    tag_126:\n        /* \"#utility.yul\":197:198   */\n      0x00\n        /* \"#utility.yul\":194:195   */\n      dup1\n        /* \"#utility.yul\":187:199   */\n      revert\n        /* \"#utility.yul\":211:328   */\n    tag_127:\n        /* \"#utility.yul\":320:321   */\n      0x00\n        /* \"#utility.yul\":317:318   */\n      dup1\n        /* \"#utility.yul\":310:322   */\n      revert\n        /* \"#utility.yul\":334:460   */\n    tag_128:\n        /* \"#utility.yul\":371:378   */\n      0x00\n        /* \"#utility.yul\":411:453   */\n      0xffffffffffffffffffffffffffffffffffffffff\n        /* \"#utility.yul\":404:409   */\n      dup3\n        /* \"#utility.yul\":400:454   */\n      and\n        /* \"#utility.yul\":389:454   */\n      swap1\n      pop\n        /* \"#utility.yul\":334:460   */\n      swap2\n      swap1\n      pop\n      jump\t// out\n        /* \"#utility.yul\":466:562   */\n    tag_129:\n        /* \"#utility.yul\":503:510   */\n      0x00\n        /* \"#utility.yul\":532:556   */\n      tag_196\n        /* \"#utility.yul\":550:555   */\n      dup3\n        /* \"#utility.yul\":532:556   */\n      tag_128\n      jump\t// in\n    tag_196:\n        /* \"#utility.yul\":521:556   */\n      swap1\n      pop\n        /* \"#utility.yul\":466:562   */\n      swap2\n      swap1\n      pop\n      jump\t// out\n        /* \"#utility.yul\":568:690   */\n    tag_130:\n        /* \"#utility.yul\":641:665   */\n      tag_198\n        /* \"#utility.yul\":659:664   */\n      dup2\n        /* \"#utility.yul\":641:665   */\n      tag_129\n      jump\t// in\n    tag_198:\n        /* \"#utility.yul\":634:639   */\n      dup2\n        /* \"#utility.yul\":631:666   */\n      eq\n        /* \"#utility.yul\":621:684   */\n      tag_199\n      jumpi\n        /* \"#utility.yul\":680:681   */\n      0x00\n        /* \"#utility.yul\":677:678   */\n      dup1\n        /* \"#utility.yul\":670:682   */\n      revert\n        /* \"#utility.yul\":621:684   */\n    tag_199:\n        /* \"#utility.yul\":568:690   */\n      pop\n      jump\t// out\n        /* \"#utility.yul\":696:835   */\n    tag_131:\n        /* \"#utility.yul\":742:747   */\n      0x00\n        /* \"#utility.yul\":780:786   */\n      dup2\n        /* \"#utility.yul\":767:787   */\n      calldataload\n        /* \"#utility.yul\":758:787   */\n      swap1\n      pop\n        /* \"#utility.yul\":796:829   */\n      tag_201\n        /* \"#utility.yul\":823:828   */\n      dup2\n        /* \"#utility.yul\":796:829   */\n      tag_130\n      jump\t// in\n    tag_201:\n        /* \"#utility.yul\":696:835   */\n      swap3\n      swap2\n      pop\n      pop\n      jump\t// out\n        /* \"#utility.yul\":841:1170   */\n    tag_13:\n        /* \"#utility.yul\":900:906   */\n      0x00\n        /* \"#utility.yul\":949:951   */\n      0x20\n        /* \"#utility.yul\":937:946   */\n      dup3\n        /* \"#utility.yul\":928:935   */\n      dup5\n        /* \"#utility.yul\":924:947   */\n      sub\n        /* \"#utility.yul\":920:952   */\n      slt\n        /* \"#utility.yul\":917:1036   */\n      iszero\n      tag_203\n      jumpi\n        /* \"#utility.yul\":955:1034   */\n      tag_204\n      tag_126\n      jump\t// in\n    tag_204:\n        /* \"#utility.yul\":917:1036   */\n    tag_203:\n        /* \"#utility.yul\":1075:1076   */\n      0x00\n        /* \"#utility.yul\":1100:1153   */\n      tag_205\n        /* \"#utility.yul\":1145:1152   */\n      dup5\n        /* \"#utility.yul\":1136:1142   */\n      dup3\n        /* \"#utility.yul\":1125:1134   */\n      dup6\n        /* \"#utility.yul\":1121:1143   */\n      add\n        /* \"#utility.yul\":1100:1153   */\n      tag_131\n      jump\t// in\n    tag_205:\n        /* \"#utility.yul\":1090:1153   */\n      swap2\n      pop\n        /* \"#utility.yul\":1046:1163   */\n      pop\n        /* \"#utility.yul\":841:1170   */\n      swap3\n      swap2\n      pop\n      pop\n      jump\t// out\n        /* \"#utility.yul\":1176:1312   */\n    tag_132:\n        /* \"#utility.yul\":1265:1271   */\n      0x00\n        /* \"#utility.yul\":1299:1304   */\n      dup2\n        /* \"#utility.yul\":1293:1305   */\n      mload\n        /* \"#utility.yul\":1283:1305   */\n      swap1\n      pop\n        /* \"#utility.yul\":1176:1312   */\n      swap2\n      swap1\n      pop\n      jump\t// out\n        /* \"#utility.yul\":1318:1524   */\n    tag_133:\n        /* \"#utility.yul\":1439:1450   */\n      0x00\n        /* \"#utility.yul\":1473:1479   */\n      dup3\n        /* \"#utility.yul\":1468:1471   */\n      dup3\n        /* \"#utility.yul\":1461:1480   */\n      mstore\n        /* \"#utility.yul\":1513:1517   */\n      0x20\n        /* \"#utility.yul\":1508:1511   */\n      dup3\n        /* \"#utility.yul\":1504:1518   */\n      add\n        /* \"#utility.yul\":1489:1518   */\n      swap1\n      pop\n        /* \"#utility.yul\":1318:1524   */\n      swap3\n      swap2\n      pop\n      pop\n      jump\t// out\n        /* \"#utility.yul\":1530:1684   */\n    tag_134:\n        /* \"#utility.yul\":1619:1623   */\n      0x00\n        /* \"#utility.yul\":1642:1645   */\n      dup2\n        /* \"#utility.yul\":1634:1645   */\n      swap1\n      pop\n        /* \"#utility.yul\":1672:1676   */\n      0x20\n        /* \"#utility.yul\":1667:1670   */\n      dup3\n        /* \"#utility.yul\":1663:1677   */\n      add\n        /* \"#utility.yul\":1655:1677   */\n      swap1\n      pop\n        /* \"#utility.yul\":1530:1684   */\n      swap2\n      swap1\n      pop\n      jump\t// out\n        /* \"#utility.yul\":1690:1767   */\n    tag_135:\n        /* \"#utility.yul\":1727:1734   */\n      0x00\n        /* \"#utility.yul\":1756:1761   */\n      dup2\n        /* \"#utility.yul\":1745:1761   */\n      swap1\n      pop\n        /* \"#utility.yul\":1690:1767   */\n      swap2\n      swap1\n      pop\n      jump\t// out\n        /* \"#utility.yul\":1773:1881   */\n    tag_136:\n        /* \"#utility.yul\":1850:1874   */\n      tag_211\n        /* \"#utility.yul\":1868:1873   */\n      dup2\n        /* \"#utility.yul\":1850:1874   */\n      tag_135\n      jump\t// in\n    tag_211:\n        /* \"#utility.yul\":1845:1848   */\n      dup3\n        /* \"#utility.yul\":1838:1875   */\n      mstore\n        /* \"#utility.yul\":1773:1881   */\n      pop\n      pop\n      jump\t// out\n        /* \"#utility.yul\":1887:1986   */\n    tag_137:\n        /* \"#utility.yul\":1939:1945   */\n      0x00\n        /* \"#utility.yul\":1973:1978   */\n      dup2\n        /* \"#utility.yul\":1967:1979   */\n      mload\n        /* \"#utility.yul\":1957:1979   */\n      swap1\n      pop\n        /* \"#utility.yul\":1887:1986   */\n      swap2\n      swap1\n      pop\n      jump\t// out\n        /* \"#utility.yul\":1992:2151   */\n    tag_138:\n        /* \"#utility.yul\":2066:2077   */\n      0x00\n        /* \"#utility.yul\":2100:2106   */\n      dup3\n        /* \"#utility.yul\":2095:2098   */\n      dup3\n        /* \"#utility.yul\":2088:2107   */\n      mstore\n        /* \"#utility.yul\":2140:2144   */\n      0x20\n        /* \"#utility.yul\":2135:2138   */\n      dup3\n        /* \"#utility.yul\":2131:2145   */\n      add\n        /* \"#utility.yul\":2116:2145   */\n      swap1\n      pop\n        /* \"#utility.yul\":1992:2151   */\n      swap3\n      swap2\n      pop\n      pop\n      jump\t// out\n        /* \"#utility.yul\":2157:2403   */\n    tag_139:\n        /* \"#utility.yul\":2238:2239   */\n      0x00\n        /* \"#utility.yul\":2248:2361   */\n    tag_215:\n        /* \"#utility.yul\":2262:2268   */\n      dup4\n        /* \"#utility.yul\":2259:2260   */\n      dup2\n        /* \"#utility.yul\":2256:2269   */\n      lt\n        /* \"#utility.yul\":2248:2361   */\n      iszero\n      tag_217\n      jumpi\n        /* \"#utility.yul\":2347:2348   */\n      dup1\n        /* \"#utility.yul\":2342:2345   */\n      dup3\n        /* \"#utility.yul\":2338:2349   */\n      add\n        /* \"#utility.yul\":2332:2350   */\n      mload\n        /* \"#utility.yul\":2328:2329   */\n      dup2\n        /* \"#utility.yul\":2323:2326   */\n      dup5\n        /* \"#utility.yul\":2319:2330   */\n      add\n        /* \"#utility.yul\":2312:2351   */\n      mstore\n        /* \"#utility.yul\":2284:2286   */\n      0x20\n        /* \"#utility.yul\":2281:2282   */\n      dup2\n        /* \"#utility.yul\":2277:2287   */\n      add\n        /* \"#utility.yul\":2272:2287   */\n      swap1\n      pop\n        /* \"#utility.yul\":2248:2361   */\n      jump(tag_215)\n    tag_217:\n        /* \"#utility.yul\":2395:2396   */\n      0x00\n        /* \"#utility.yul\":2386:2392   */\n      dup5\n        /* \"#utility.yul\":2381:2384   */\n      dup5\n        /* \"#utility.yul\":2377:2393   */\n      add\n        /* \"#utility.yul\":2370:2397   */\n      mstore\n        /* \"#utility.yul\":2219:2403   */\n      pop\n        /* \"#utility.yul\":2157:2403   */\n      pop\n      pop\n      pop\n      jump\t// out\n        /* \"#utility.yul\":2409:2511   */\n    tag_140:\n        /* \"#utility.yul\":2450:2456   */\n      0x00\n        /* \"#utility.yul\":2501:2503   */\n      0x1f\n        /* \"#utility.yul\":2497:2504   */\n      not\n        /* \"#utility.yul\":2492:2494   */\n      0x1f\n        /* \"#utility.yul\":2485:2490   */\n      dup4\n        /* \"#utility.yul\":2481:2495   */\n      add\n        /* \"#utility.yul\":2477:2505   */\n      and\n        /* \"#utility.yul\":2467:2505   */\n      swap1\n      pop\n        /* \"#utility.yul\":2409:2511   */\n      swap2\n      swap1\n      pop\n      jump\t// out\n        /* \"#utility.yul\":2517:2874   */\n    tag_141:\n        /* \"#utility.yul\":2595:2598   */\n      0x00\n        /* \"#utility.yul\":2623:2662   */\n      tag_220\n        /* \"#utility.yul\":2656:2661   */\n      dup3\n        /* \"#utility.yul\":2623:2662   */\n      tag_137\n      jump\t// in\n    tag_220:\n        /* \"#utility.yul\":2678:2739   */\n      tag_221\n        /* \"#utility.yul\":2732:2738   */\n      dup2\n        /* \"#utility.yul\":2727:2730   */\n      dup6\n        /* \"#utility.yul\":2678:2739   */\n      tag_138\n      jump\t// in\n    tag_221:\n        /* \"#utility.yul\":2671:2739   */\n      swap4\n      pop\n        /* \"#utility.yul\":2748:2813   */\n      tag_222\n        /* \"#utility.yul\":2806:2812   */\n      dup2\n        /* \"#utility.yul\":2801:2804   */\n      dup6\n        /* \"#utility.yul\":2794:2798   */\n      0x20\n        /* \"#utility.yul\":2787:2792   */\n      dup7\n        /* \"#utility.yul\":2783:2799   */\n      add\n        /* \"#utility.yul\":2748:2813   */\n      tag_139\n      jump\t// in\n    tag_222:\n        /* \"#utility.yul\":2838:2867   */\n      tag_223\n        /* \"#utility.yul\":2860:2866   */\n      dup2\n        /* \"#utility.yul\":2838:2867   */\n      tag_140\n      jump\t// in\n    tag_223:\n        /* \"#utility.yul\":2833:2836   */\n      dup5\n        /* \"#utility.yul\":2829:2868   */\n      add\n        /* \"#utility.yul\":2822:2868   */\n      swap2\n      pop\n        /* \"#utility.yul\":2599:2874   */\n      pop\n        /* \"#utility.yul\":2517:2874   */\n      swap3\n      swap2\n      pop\n      pop\n      jump\t// out\n        /* \"#utility.yul\":2880:2970   */\n    tag_142:\n        /* \"#utility.yul\":2914:2921   */\n      0x00\n        /* \"#utility.yul\":2957:2962   */\n      dup2\n        /* \"#utility.yul\":2950:2963   */\n      iszero\n        /* \"#utility.yul\":2943:2964   */\n      iszero\n        /* \"#utility.yul\":2932:2964   */\n      swap1\n      pop\n        /* \"#utility.yul\":2880:2970   */\n      swap2\n      swap1\n      pop\n      jump\t// out\n        /* \"#utility.yul\":2976:3075   */\n    tag_143:\n        /* \"#utility.yul\":3047:3068   */\n      tag_226\n        /* \"#utility.yul\":3062:3067   */\n      dup2\n        /* \"#utility.yul\":3047:3068   */\n      tag_142\n      jump\t// in\n    tag_226:\n        /* \"#utility.yul\":3042:3045   */\n      dup3\n        /* \"#utility.yul\":3035:3069   */\n      mstore\n        /* \"#utility.yul\":2976:3075   */\n      pop\n      pop\n      jump\t// out\n        /* \"#utility.yul\":3117:5323   */\n    tag_144:\n        /* \"#utility.yul\":3220:3223   */\n      0x00\n        /* \"#utility.yul\":3256:3262   */\n      0x0120\n        /* \"#utility.yul\":3251:3254   */\n      dup4\n        /* \"#utility.yul\":3247:3263   */\n      add\n        /* \"#utility.yul\":3352:3356   */\n      0x00\n        /* \"#utility.yul\":3345:3350   */\n      dup4\n        /* \"#utility.yul\":3341:3357   */\n      add\n        /* \"#utility.yul\":3335:3358   */\n      mload\n        /* \"#utility.yul\":3371:3434   */\n      tag_228\n        /* \"#utility.yul\":3428:3432   */\n      0x00\n        /* \"#utility.yul\":3423:3426   */\n      dup7\n        /* \"#utility.yul\":3419:3433   */\n      add\n        /* \"#utility.yul\":3405:3417   */\n      dup3\n        /* \"#utility.yul\":3371:3434   */\n      tag_136\n      jump\t// in\n    tag_228:\n        /* \"#utility.yul\":3273:3444   */\n      pop\n        /* \"#utility.yul\":3533:3537   */\n      0x20\n        /* \"#utility.yul\":3526:3531   */\n      dup4\n        /* \"#utility.yul\":3522:3538   */\n      add\n        /* \"#utility.yul\":3516:3539   */\n      mload\n        /* \"#utility.yul\":3586:3589   */\n      dup5\n        /* \"#utility.yul\":3580:3584   */\n      dup3\n        /* \"#utility.yul\":3576:3590   */\n      sub\n        /* \"#utility.yul\":3569:3573   */\n      0x20\n        /* \"#utility.yul\":3564:3567   */\n      dup7\n        /* \"#utility.yul\":3560:3574   */\n      add\n        /* \"#utility.yul\":3553:3591   */\n      mstore\n        /* \"#utility.yul\":3612:3685   */\n      tag_229\n        /* \"#utility.yul\":3680:3684   */\n      dup3\n        /* \"#utility.yul\":3666:3678   */\n      dup3\n        /* \"#utility.yul\":3612:3685   */\n      tag_141\n      jump\t// in\n    tag_229:\n        /* \"#utility.yul\":3604:3685   */\n      swap2\n      pop\n        /* \"#utility.yul\":3454:3696   */\n      pop\n        /* \"#utility.yul\":3778:3782   */\n      0x40\n        /* \"#utility.yul\":3771:3776   */\n      dup4\n        /* \"#utility.yul\":3767:3783   */\n      add\n        /* \"#utility.yul\":3761:3784   */\n      mload\n        /* \"#utility.yul\":3831:3834   */\n      dup5\n        /* \"#utility.yul\":3825:3829   */\n      dup3\n        /* \"#utility.yul\":3821:3835   */\n      sub\n        /* \"#utility.yul\":3814:3818   */\n      0x40\n        /* \"#utility.yul\":3809:3812   */\n      dup7\n        /* \"#utility.yul\":3805:3819   */\n      add\n        /* \"#utility.yul\":3798:3836   */\n      mstore\n        /* \"#utility.yul\":3857:3930   */\n      tag_230\n        /* \"#utility.yul\":3925:3929   */\n      dup3\n        /* \"#utility.yul\":3911:3923   */\n      dup3\n        /* \"#utility.yul\":3857:3930   */\n      tag_141\n      jump\t// in\n    tag_230:\n        /* \"#utility.yul\":3849:3930   */\n      swap2\n      pop\n        /* \"#utility.yul\":3706:3941   */\n      pop\n        /* \"#utility.yul\":4027:4031   */\n      0x60\n        /* \"#utility.yul\":4020:4025   */\n      dup4\n        /* \"#utility.yul\":4016:4032   */\n      add\n        /* \"#utility.yul\":4010:4033   */\n      mload\n        /* \"#utility.yul\":4080:4083   */\n      dup5\n        /* \"#utility.yul\":4074:4078   */\n      dup3\n        /* \"#utility.yul\":4070:4084   */\n      sub\n        /* \"#utility.yul\":4063:4067   */\n      0x60\n        /* \"#utility.yul\":4058:4061   */\n      dup7\n        /* \"#utility.yul\":4054:4068   */\n      add\n        /* \"#utility.yul\":4047:4085   */\n      mstore\n        /* \"#utility.yul\":4106:4179   */\n      tag_231\n        /* \"#utility.yul\":4174:4178   */\n      dup3\n        /* \"#utility.yul\":4160:4172   */\n      dup3\n        /* \"#utility.yul\":4106:4179   */\n      tag_141\n      jump\t// in\n    tag_231:\n        /* \"#utility.yul\":4098:4179   */\n      swap2\n      pop\n        /* \"#utility.yul\":3951:4190   */\n      pop\n        /* \"#utility.yul\":4273:4277   */\n      0x80\n        /* \"#utility.yul\":4266:4271   */\n      dup4\n        /* \"#utility.yul\":4262:4278   */\n      add\n        /* \"#utility.yul\":4256:4279   */\n      mload\n        /* \"#utility.yul\":4326:4329   */\n      dup5\n        /* \"#utility.yul\":4320:4324   */\n      dup3\n        /* \"#utility.yul\":4316:4330   */\n      sub\n        /* \"#utility.yul\":4309:4313   */\n      0x80\n        /* \"#utility.yul\":4304:4307   */\n      dup7\n        /* \"#utility.yul\":4300:4314   */\n      add\n        /* \"#utility.yul\":4293:4331   */\n      mstore\n        /* \"#utility.yul\":4352:4425   */\n      tag_232\n        /* \"#utility.yul\":4420:4424   */\n      dup3\n        /* \"#utility.yul\":4406:4418   */\n      dup3\n        /* \"#utility.yul\":4352:4425   */\n      tag_141\n      jump\t// in\n    tag_232:\n        /* \"#utility.yul\":4344:4425   */\n      swap2\n      pop\n        /* \"#utility.yul\":4200:4436   */\n      pop\n        /* \"#utility.yul\":4522:4526   */\n      0xa0\n        /* \"#utility.yul\":4515:4520   */\n      dup4\n        /* \"#utility.yul\":4511:4527   */\n      add\n        /* \"#utility.yul\":4505:4528   */\n      mload\n        /* \"#utility.yul\":4575:4578   */\n      dup5\n        /* \"#utility.yul\":4569:4573   */\n      dup3\n        /* \"#utility.yul\":4565:4579   */\n      sub\n        /* \"#utility.yul\":4558:4562   */\n      0xa0\n        /* \"#utility.yul\":4553:4556   */\n      dup7\n        /* \"#utility.yul\":4549:4563   */\n      add\n        /* \"#utility.yul\":4542:4580   */\n      mstore\n        /* \"#utility.yul\":4601:4674   */\n      tag_233\n        /* \"#utility.yul\":4669:4673   */\n      dup3\n        /* \"#utility.yul\":4655:4667   */\n      dup3\n        /* \"#utility.yul\":4601:4674   */\n      tag_141\n      jump\t// in\n    tag_233:\n        /* \"#utility.yul\":4593:4674   */\n      swap2\n      pop\n        /* \"#utility.yul\":4446:4685   */\n      pop\n        /* \"#utility.yul\":4771:4775   */\n      0xc0\n        /* \"#utility.yul\":4764:4769   */\n      dup4\n        /* \"#utility.yul\":4760:4776   */\n      add\n        /* \"#utility.yul\":4754:4777   */\n      mload\n        /* \"#utility.yul\":4790:4853   */\n      tag_234\n        /* \"#utility.yul\":4847:4851   */\n      0xc0\n        /* \"#utility.yul\":4842:4845   */\n      dup7\n        /* \"#utility.yul\":4838:4852   */\n      add\n        /* \"#utility.yul\":4824:4836   */\n      dup3\n        /* \"#utility.yul\":4790:4853   */\n      tag_136\n      jump\t// in\n    tag_234:\n        /* \"#utility.yul\":4695:4863   */\n      pop\n        /* \"#utility.yul\":4951:4955   */\n      0xe0\n        /* \"#utility.yul\":4944:4949   */\n      dup4\n        /* \"#utility.yul\":4940:4956   */\n      add\n        /* \"#utility.yul\":4934:4957   */\n      mload\n        /* \"#utility.yul\":5004:5007   */\n      dup5\n        /* \"#utility.yul\":4998:5002   */\n      dup3\n        /* \"#utility.yul\":4994:5008   */\n      sub\n        /* \"#utility.yul\":4987:4991   */\n      0xe0\n        /* \"#utility.yul\":4982:4985   */\n      dup7\n        /* \"#utility.yul\":4978:4992   */\n      add\n        /* \"#utility.yul\":4971:5009   */\n      mstore\n        /* \"#utility.yul\":5030:5103   */\n      tag_235\n        /* \"#utility.yul\":5098:5102   */\n      dup3\n        /* \"#utility.yul\":5084:5096   */\n      dup3\n        /* \"#utility.yul\":5030:5103   */\n      tag_141\n      jump\t// in\n    tag_235:\n        /* \"#utility.yul\":5022:5103   */\n      swap2\n      pop\n        /* \"#utility.yul\":4873:5114   */\n      pop\n        /* \"#utility.yul\":5206:5212   */\n      0x0100\n        /* \"#utility.yul\":5199:5204   */\n      dup4\n        /* \"#utility.yul\":5195:5213   */\n      add\n        /* \"#utility.yul\":5189:5214   */\n      mload\n        /* \"#utility.yul\":5227:5286   */\n      tag_236\n        /* \"#utility.yul\":5278:5284   */\n      0x0100\n        /* \"#utility.yul\":5273:5276   */\n      dup7\n        /* \"#utility.yul\":5269:5285   */\n      add\n        /* \"#utility.yul\":5255:5267   */\n      dup3\n        /* \"#utility.yul\":5227:5286   */\n      tag_143\n      jump\t// in\n    tag_236:\n        /* \"#utility.yul\":5124:5296   */\n      pop\n        /* \"#utility.yul\":5313:5317   */\n      dup1\n        /* \"#utility.yul\":5306:5317   */\n      swap2\n      pop\n        /* \"#utility.yul\":3225:5323   */\n      pop\n        /* \"#utility.yul\":3117:5323   */\n      swap3\n      swap2\n      pop\n      pop\n      jump\t// out\n        /* \"#utility.yul\":5329:5573   */\n    tag_145:\n        /* \"#utility.yul\":5442:5452   */\n      0x00\n        /* \"#utility.yul\":5477:5567   */\n      tag_238\n        /* \"#utility.yul\":5563:5566   */\n      dup4\n        /* \"#utility.yul\":5555:5561   */\n      dup4\n        /* \"#utility.yul\":5477:5567   */\n      tag_144\n      jump\t// in\n    tag_238:\n        /* \"#utility.yul\":5463:5567   */\n      swap1\n      pop\n        /* \"#utility.yul\":5329:5573   */\n      swap3\n      swap2\n      pop\n      pop\n      jump\t// out\n        /* \"#utility.yul\":5579:5714   */\n    tag_146:\n        /* \"#utility.yul\":5671:5675   */\n      0x00\n        /* \"#utility.yul\":5703:5707   */\n      0x20\n        /* \"#utility.yul\":5698:5701   */\n      dup3\n        /* \"#utility.yul\":5694:5708   */\n      add\n        /* \"#utility.yul\":5686:5708   */\n      swap1\n      pop\n        /* \"#utility.yul\":5579:5714   */\n      swap2\n      swap1\n      pop\n      jump\t// out\n        /* \"#utility.yul\":5760:6847   */\n    tag_147:\n        /* \"#utility.yul\":5923:5926   */\n      0x00\n        /* \"#utility.yul\":5952:6028   */\n      tag_241\n        /* \"#utility.yul\":6022:6027   */\n      dup3\n        /* \"#utility.yul\":5952:6028   */\n      tag_132\n      jump\t// in\n    tag_241:\n        /* \"#utility.yul\":6044:6152   */\n      tag_242\n        /* \"#utility.yul\":6145:6151   */\n      dup2\n        /* \"#utility.yul\":6140:6143   */\n      dup6\n        /* \"#utility.yul\":6044:6152   */\n      tag_133\n      jump\t// in\n    tag_242:\n        /* \"#utility.yul\":6037:6152   */\n      swap4\n      pop\n        /* \"#utility.yul\":6178:6181   */\n      dup4\n        /* \"#utility.yul\":6223:6227   */\n      0x20\n        /* \"#utility.yul\":6215:6221   */\n      dup3\n        /* \"#utility.yul\":6211:6228   */\n      mul\n        /* \"#utility.yul\":6206:6209   */\n      dup6\n        /* \"#utility.yul\":6202:6229   */\n      add\n        /* \"#utility.yul\":6253:6331   */\n      tag_243\n        /* \"#utility.yul\":6325:6330   */\n      dup6\n        /* \"#utility.yul\":6253:6331   */\n      tag_134\n      jump\t// in\n    tag_243:\n        /* \"#utility.yul\":6354:6361   */\n      dup1\n        /* \"#utility.yul\":6385:6386   */\n      0x00\n        /* \"#utility.yul\":6370:6802   */\n    tag_244:\n        /* \"#utility.yul\":6395:6401   */\n      dup6\n        /* \"#utility.yul\":6392:6393   */\n      dup2\n        /* \"#utility.yul\":6389:6402   */\n      lt\n        /* \"#utility.yul\":6370:6802   */\n      iszero\n      tag_246\n      jumpi\n        /* \"#utility.yul\":6466:6475   */\n      dup5\n        /* \"#utility.yul\":6460:6464   */\n      dup5\n        /* \"#utility.yul\":6456:6476   */\n      sub\n        /* \"#utility.yul\":6451:6454   */\n      dup10\n        /* \"#utility.yul\":6444:6477   */\n      mstore\n        /* \"#utility.yul\":6517:6523   */\n      dup2\n        /* \"#utility.yul\":6511:6524   */\n      mload\n        /* \"#utility.yul\":6545:6653   */\n      tag_247\n        /* \"#utility.yul\":6648:6652   */\n      dup6\n        /* \"#utility.yul\":6633:6646   */\n      dup3\n        /* \"#utility.yul\":6545:6653   */\n      tag_145\n      jump\t// in\n    tag_247:\n        /* \"#utility.yul\":6537:6653   */\n      swap5\n      pop\n        /* \"#utility.yul\":6676:6758   */\n      tag_248\n        /* \"#utility.yul\":6751:6757   */\n      dup4\n        /* \"#utility.yul\":6676:6758   */\n      tag_146\n      jump\t// in\n    tag_248:\n        /* \"#utility.yul\":6666:6758   */\n      swap3\n      pop\n        /* \"#utility.yul\":6787:6791   */\n      0x20\n        /* \"#utility.yul\":6782:6785   */\n      dup11\n        /* \"#utility.yul\":6778:6792   */\n      add\n        /* \"#utility.yul\":6771:6792   */\n      swap10\n      pop\n        /* \"#utility.yul\":6430:6802   */\n      pop\n        /* \"#utility.yul\":6417:6418   */\n      0x01\n        /* \"#utility.yul\":6414:6415   */\n      dup2\n        /* \"#utility.yul\":6410:6419   */\n      add\n        /* \"#utility.yul\":6405:6419   */\n      swap1\n      pop\n        /* \"#utility.yul\":6370:6802   */\n      jump(tag_244)\n    tag_246:\n        /* \"#utility.yul\":6374:6388   */\n      pop\n        /* \"#utility.yul\":6818:6822   */\n      dup3\n        /* \"#utility.yul\":6811:6822   */\n      swap8\n      pop\n        /* \"#utility.yul\":6838:6841   */\n      dup8\n        /* \"#utility.yul\":6831:6841   */\n      swap6\n      pop\n        /* \"#utility.yul\":5928:6847   */\n      pop\n      pop\n      pop\n      pop\n      pop\n        /* \"#utility.yul\":5760:6847   */\n      swap3\n      swap2\n      pop\n      pop\n      jump\t// out\n        /* \"#utility.yul\":6853:7314   */\n    tag_18:\n        /* \"#utility.yul\":7040:7044   */\n      0x00\n        /* \"#utility.yul\":7078:7080   */\n      0x20\n        /* \"#utility.yul\":7067:7076   */\n      dup3\n        /* \"#utility.yul\":7063:7081   */\n      add\n        /* \"#utility.yul\":7055:7081   */\n      swap1\n      pop\n        /* \"#utility.yul\":7127:7136   */\n      dup2\n        /* \"#utility.yul\":7121:7125   */\n      dup2\n        /* \"#utility.yul\":7117:7137   */\n      sub\n        /* \"#utility.yul\":7113:7114   */\n      0x00\n        /* \"#utility.yul\":7102:7111   */\n      dup4\n        /* \"#utility.yul\":7098:7115   */\n      add\n        /* \"#utility.yul\":7091:7138   */\n      mstore\n        /* \"#utility.yul\":7155:7307   */\n      tag_250\n        /* \"#utility.yul\":7302:7306   */\n      dup2\n        /* \"#utility.yul\":7293:7299   */\n      dup5\n        /* \"#utility.yul\":7155:7307   */\n      tag_147\n      jump\t// in\n    tag_250:\n        /* \"#utility.yul\":7147:7307   */\n      swap1\n      pop\n        /* \"#utility.yul\":6853:7314   */\n      swap3\n      swap2\n      pop\n      pop\n      jump\t// out\n        /* \"#utility.yul\":7320:7438   */\n    tag_148:\n        /* \"#utility.yul\":7407:7431   */\n      tag_252\n        /* \"#utility.yul\":7425:7430   */\n      dup2\n        /* \"#utility.yul\":7407:7431   */\n      tag_129\n      jump\t// in\n    tag_252:\n        /* \"#utility.yul\":7402:7405   */\n      dup3\n        /* \"#utility.yul\":7395:7432   */\n      mstore\n        /* \"#utility.yul\":7320:7438   */\n      pop\n      pop\n      jump\t// out\n        /* \"#utility.yul\":7444:7666   */\n    tag_24:\n        /* \"#utility.yul\":7537:7541   */\n      0x00\n        /* \"#utility.yul\":7575:7577   */\n      0x20\n        /* \"#utility.yul\":7564:7573   */\n      dup3\n        /* \"#utility.yul\":7560:7578   */\n      add\n        /* \"#utility.yul\":7552:7578   */\n      swap1\n      pop\n        /* \"#utility.yul\":7588:7659   */\n      tag_254\n        /* \"#utility.yul\":7656:7657   */\n      0x00\n        /* \"#utility.yul\":7645:7654   */\n      dup4\n        /* \"#utility.yul\":7641:7658   */\n      add\n        /* \"#utility.yul\":7632:7638   */\n      dup5\n        /* \"#utility.yul\":7588:7659   */\n      tag_148\n      jump\t// in\n    tag_254:\n        /* \"#utility.yul\":7444:7666   */\n      swap3\n      swap2\n      pop\n      pop\n      jump\t// out\n        /* \"#utility.yul\":7672:7794   */\n    tag_149:\n        /* \"#utility.yul\":7745:7769   */\n      tag_256\n        /* \"#utility.yul\":7763:7768   */\n      dup2\n        /* \"#utility.yul\":7745:7769   */\n      tag_135\n      jump\t// in\n    tag_256:\n        /* \"#utility.yul\":7738:7743   */\n      dup2\n        /* \"#utility.yul\":7735:7770   */\n      eq\n        /* \"#utility.yul\":7725:7788   */\n      tag_257\n      jumpi\n        /* \"#utility.yul\":7784:7785   */\n      0x00\n        /* \"#utility.yul\":7781:7782   */\n      dup1\n        /* \"#utility.yul\":7774:7786   */\n      revert\n        /* \"#utility.yul\":7725:7788   */\n    tag_257:\n        /* \"#utility.yul\":7672:7794   */\n      pop\n      jump\t// out\n        /* \"#utility.yul\":7800:7939   */\n    tag_150:\n        /* \"#utility.yul\":7846:7851   */\n      0x00\n        /* \"#utility.yul\":7884:7890   */\n      dup2\n        /* \"#utility.yul\":7871:7891   */\n      calldataload\n        /* \"#utility.yul\":7862:7891   */\n      swap1\n      pop\n        /* \"#utility.yul\":7900:7933   */\n      tag_259\n        /* \"#utility.yul\":7927:7932   */\n      dup2\n        /* \"#utility.yul\":7900:7933   */\n      tag_149\n      jump\t// in\n    tag_259:\n        /* \"#utility.yul\":7800:7939   */\n      swap3\n      swap2\n      pop\n      pop\n      jump\t// out\n        /* \"#utility.yul\":7945:8274   */\n    tag_27:\n        /* \"#utility.yul\":8004:8010   */\n      0x00\n        /* \"#utility.yul\":8053:8055   */\n      0x20\n        /* \"#utility.yul\":8041:8050   */\n      dup3\n        /* \"#utility.yul\":8032:8039   */\n      dup5\n        /* \"#utility.yul\":8028:8051   */\n      sub\n        /* \"#utility.yul\":8024:8056   */\n      slt\n        /* \"#utility.yul\":8021:8140   */\n      iszero\n      tag_261\n      jumpi\n        /* \"#utility.yul\":8059:8138   */\n      tag_262\n      tag_126\n      jump\t// in\n    tag_262:\n        /* \"#utility.yul\":8021:8140   */\n    tag_261:\n        /* \"#utility.yul\":8179:8180   */\n      0x00\n        /* \"#utility.yul\":8204:8257   */\n      tag_263\n        /* \"#utility.yul\":8249:8256   */\n      dup5\n        /* \"#utility.yul\":8240:8246   */\n      dup3\n        /* \"#utility.yul\":8229:8238   */\n      dup6\n        /* \"#utility.yul\":8225:8247   */\n      add\n        /* \"#utility.yul\":8204:8257   */\n      tag_150\n      jump\t// in\n    tag_263:\n        /* \"#utility.yul\":8194:8257   */\n      swap2\n      pop\n        /* \"#utility.yul\":8150:8267   */\n      pop\n        /* \"#utility.yul\":7945:8274   */\n      swap3\n      swap2\n      pop\n      pop\n      jump\t// out\n        /* \"#utility.yul\":8280:8397   */\n    tag_151:\n        /* \"#utility.yul\":8389:8390   */\n      0x00\n        /* \"#utility.yul\":8386:8387   */\n      dup1\n        /* \"#utility.yul\":8379:8391   */\n      revert\n        /* \"#utility.yul\":8403:8583   */\n    tag_152:\n        /* \"#utility.yul\":8451:8528   */\n      0x4e487b7100000000000000000000000000000000000000000000000000000000\n        /* \"#utility.yul\":8448:8449   */\n      0x00\n        /* \"#utility.yul\":8441:8529   */\n      mstore\n        /* \"#utility.yul\":8548:8552   */\n      0x41\n        /* \"#utility.yul\":8545:8546   */\n      0x04\n        /* \"#utility.yul\":8538:8553   */\n      mstore\n        /* \"#utility.yul\":8572:8576   */\n      0x24\n        /* \"#utility.yul\":8569:8570   */\n      0x00\n        /* \"#utility.yul\":8562:8577   */\n      revert\n        /* \"#utility.yul\":8589:8870   */\n    tag_153:\n        /* \"#utility.yul\":8672:8699   */\n      tag_267\n        /* \"#utility.yul\":8694:8698   */\n      dup3\n        /* \"#utility.yul\":8672:8699   */\n      tag_140\n      jump\t// in\n    tag_267:\n        /* \"#utility.yul\":8664:8670   */\n      dup2\n        /* \"#utility.yul\":8660:8700   */\n      add\n        /* \"#utility.yul\":8802:8808   */\n      dup2\n        /* \"#utility.yul\":8790:8800   */\n      dup2\n        /* \"#utility.yul\":8787:8809   */\n      lt\n        /* \"#utility.yul\":8766:8784   */\n      0xffffffffffffffff\n        /* \"#utility.yul\":8754:8764   */\n      dup3\n        /* \"#utility.yul\":8751:8785   */\n      gt\n        /* \"#utility.yul\":8748:8810   */\n      or\n        /* \"#utility.yul\":8745:8833   */\n      iszero\n      tag_268\n      jumpi\n        /* \"#utility.yul\":8813:8831   */\n      tag_269\n      tag_152\n      jump\t// in\n    tag_269:\n        /* \"#utility.yul\":8745:8833   */\n    tag_268:\n        /* \"#utility.yul\":8853:8863   */\n      dup1\n        /* \"#utility.yul\":8849:8851   */\n      0x40\n        /* \"#utility.yul\":8842:8864   */\n      mstore\n        /* \"#utility.yul\":8632:8870   */\n      pop\n        /* \"#utility.yul\":8589:8870   */\n      pop\n      pop\n      jump\t// out\n        /* \"#utility.yul\":8876:9005   */\n    tag_154:\n        /* \"#utility.yul\":8910:8916   */\n      0x00\n        /* \"#utility.yul\":8937:8957   */\n      tag_271\n      tag_125\n      jump\t// in\n    tag_271:\n        /* \"#utility.yul\":8927:8957   */\n      swap1\n      pop\n        /* \"#utility.yul\":8966:8999   */\n      tag_272\n        /* \"#utility.yul\":8994:8998   */\n      dup3\n        /* \"#utility.yul\":8986:8992   */\n      dup3\n        /* \"#utility.yul\":8966:8999   */\n      tag_153\n      jump\t// in\n    tag_272:\n        /* \"#utility.yul\":8876:9005   */\n      swap2\n      swap1\n      pop\n      jump\t// out\n        /* \"#utility.yul\":9011:9128   */\n    tag_155:\n        /* \"#utility.yul\":9120:9121   */\n      0x00\n        /* \"#utility.yul\":9117:9118   */\n      dup1\n        /* \"#utility.yul\":9110:9122   */\n      revert\n        /* \"#utility.yul\":9134:9251   */\n    tag_156:\n        /* \"#utility.yul\":9243:9244   */\n      0x00\n        /* \"#utility.yul\":9240:9241   */\n      dup1\n        /* \"#utility.yul\":9233:9245   */\n      revert\n        /* \"#utility.yul\":9257:9374   */\n    tag_157:\n        /* \"#utility.yul\":9366:9367   */\n      0x00\n        /* \"#utility.yul\":9363:9364   */\n      dup1\n        /* \"#utility.yul\":9356:9368   */\n      revert\n        /* \"#utility.yul\":9380:9688   */\n    tag_158:\n        /* \"#utility.yul\":9442:9446   */\n      0x00\n        /* \"#utility.yul\":9532:9550   */\n      0xffffffffffffffff\n        /* \"#utility.yul\":9524:9530   */\n      dup3\n        /* \"#utility.yul\":9521:9551   */\n      gt\n        /* \"#utility.yul\":9518:9574   */\n      iszero\n      tag_277\n      jumpi\n        /* \"#utility.yul\":9554:9572   */\n      tag_278\n      tag_152\n      jump\t// in\n    tag_278:\n        /* \"#utility.yul\":9518:9574   */\n    tag_277:\n        /* \"#utility.yul\":9592:9621   */\n      tag_279\n        /* \"#utility.yul\":9614:9620   */\n      dup3\n        /* \"#utility.yul\":9592:9621   */\n      tag_140\n      jump\t// in\n    tag_279:\n        /* \"#utility.yul\":9584:9621   */\n      swap1\n      pop\n        /* \"#utility.yul\":9676:9680   */\n      0x20\n        /* \"#utility.yul\":9670:9674   */\n      dup2\n        /* \"#utility.yul\":9666:9681   */\n      add\n        /* \"#utility.yul\":9658:9681   */\n      swap1\n      pop\n        /* \"#utility.yul\":9380:9688   */\n      swap2\n      swap1\n      pop\n      jump\t// out\n        /* \"#utility.yul\":9694:9840   */\n    tag_159:\n        /* \"#utility.yul\":9791:9797   */\n      dup3\n        /* \"#utility.yul\":9786:9789   */\n      dup2\n        /* \"#utility.yul\":9781:9784   */\n      dup4\n        /* \"#utility.yul\":9768:9798   */\n      calldatacopy\n        /* \"#utility.yul\":9832:9833   */\n      0x00\n        /* \"#utility.yul\":9823:9829   */\n      dup4\n        /* \"#utility.yul\":9818:9821   */\n      dup4\n        /* \"#utility.yul\":9814:9830   */\n      add\n        /* \"#utility.yul\":9807:9834   */\n      mstore\n        /* \"#utility.yul\":9694:9840   */\n      pop\n      pop\n      pop\n      jump\t// out\n        /* \"#utility.yul\":9846:10271   */\n    tag_160:\n        /* \"#utility.yul\":9924:9929   */\n      0x00\n        /* \"#utility.yul\":9949:10015   */\n      tag_282\n        /* \"#utility.yul\":9965:10014   */\n      tag_283\n        /* \"#utility.yul\":10007:10013   */\n      dup5\n        /* \"#utility.yul\":9965:10014   */\n      tag_158\n      jump\t// in\n    tag_283:\n        /* \"#utility.yul\":9949:10015   */\n      tag_154\n      jump\t// in\n    tag_282:\n        /* \"#utility.yul\":9940:10015   */\n      swap1\n      pop\n        /* \"#utility.yul\":10038:10044   */\n      dup3\n        /* \"#utility.yul\":10031:10036   */\n      dup2\n        /* \"#utility.yul\":10024:10045   */\n      mstore\n        /* \"#utility.yul\":10076:10080   */\n      0x20\n        /* \"#utility.yul\":10069:10074   */\n      dup2\n        /* \"#utility.yul\":10065:10081   */\n      add\n        /* \"#utility.yul\":10114:10117   */\n      dup5\n        /* \"#utility.yul\":10105:10111   */\n      dup5\n        /* \"#utility.yul\":10100:10103   */\n      dup5\n        /* \"#utility.yul\":10096:10112   */\n      add\n        /* \"#utility.yul\":10093:10118   */\n      gt\n        /* \"#utility.yul\":10090:10202   */\n      iszero\n      tag_284\n      jumpi\n        /* \"#utility.yul\":10121:10200   */\n      tag_285\n      tag_157\n      jump\t// in\n    tag_285:\n        /* \"#utility.yul\":10090:10202   */\n    tag_284:\n        /* \"#utility.yul\":10211:10265   */\n      tag_286\n        /* \"#utility.yul\":10258:10264   */\n      dup5\n        /* \"#utility.yul\":10253:10256   */\n      dup3\n        /* \"#utility.yul\":10248:10251   */\n      dup6\n        /* \"#utility.yul\":10211:10265   */\n      tag_159\n      jump\t// in\n    tag_286:\n        /* \"#utility.yul\":9930:10271   */\n      pop\n        /* \"#utility.yul\":9846:10271   */\n      swap4\n      swap3\n      pop\n      pop\n      pop\n      jump\t// out\n        /* \"#utility.yul\":10291:10631   */\n    tag_161:\n        /* \"#utility.yul\":10347:10352   */\n      0x00\n        /* \"#utility.yul\":10396:10399   */\n      dup3\n        /* \"#utility.yul\":10389:10393   */\n      0x1f\n        /* \"#utility.yul\":10381:10387   */\n      dup4\n        /* \"#utility.yul\":10377:10394   */\n      add\n        /* \"#utility.yul\":10373:10400   */\n      slt\n        /* \"#utility.yul\":10363:10485   */\n      tag_288\n      jumpi\n        /* \"#utility.yul\":10404:10483   */\n      tag_289\n      tag_156\n      jump\t// in\n    tag_289:\n        /* \"#utility.yul\":10363:10485   */\n    tag_288:\n        /* \"#utility.yul\":10521:10527   */\n      dup2\n        /* \"#utility.yul\":10508:10528   */\n      calldataload\n        /* \"#utility.yul\":10546:10625   */\n      tag_290\n        /* \"#utility.yul\":10621:10624   */\n      dup5\n        /* \"#utility.yul\":10613:10619   */\n      dup3\n        /* \"#utility.yul\":10606:10610   */\n      0x20\n        /* \"#utility.yul\":10598:10604   */\n      dup7\n        /* \"#utility.yul\":10594:10611   */\n      add\n        /* \"#utility.yul\":10546:10625   */\n      tag_160\n      jump\t// in\n    tag_290:\n        /* \"#utility.yul\":10537:10625   */\n      swap2\n      pop\n        /* \"#utility.yul\":10353:10631   */\n      pop\n        /* \"#utility.yul\":10291:10631   */\n      swap3\n      swap2\n      pop\n      pop\n      jump\t// out\n        /* \"#utility.yul\":10637:10753   */\n    tag_162:\n        /* \"#utility.yul\":10707:10728   */\n      tag_292\n        /* \"#utility.yul\":10722:10727   */\n      dup2\n        /* \"#utility.yul\":10707:10728   */\n      tag_142\n      jump\t// in\n    tag_292:\n        /* \"#utility.yul\":10700:10705   */\n      dup2\n        /* \"#utility.yul\":10697:10729   */\n      eq\n        /* \"#utility.yul\":10687:10747   */\n      tag_293\n      jumpi\n        /* \"#utility.yul\":10743:10744   */\n      0x00\n        /* \"#utility.yul\":10740:10741   */\n      dup1\n        /* \"#utility.yul\":10733:10745   */\n      revert\n        /* \"#utility.yul\":10687:10747   */\n    tag_293:\n        /* \"#utility.yul\":10637:10753   */\n      pop\n      jump\t// out\n        /* \"#utility.yul\":10759:10892   */\n    tag_163:\n        /* \"#utility.yul\":10802:10807   */\n      0x00\n        /* \"#utility.yul\":10840:10846   */\n      dup2\n        /* \"#utility.yul\":10827:10847   */\n      calldataload\n        /* \"#utility.yul\":10818:10847   */\n      swap1\n      pop\n        /* \"#utility.yul\":10856:10886   */\n      tag_295\n        /* \"#utility.yul\":10880:10885   */\n      dup2\n        /* \"#utility.yul\":10856:10886   */\n      tag_162\n      jump\t// in\n    tag_295:\n        /* \"#utility.yul\":10759:10892   */\n      swap3\n      swap2\n      pop\n      pop\n      jump\t// out\n        /* \"#utility.yul\":10918:13687   */\n    tag_164:\n        /* \"#utility.yul\":10989:10994   */\n      0x00\n        /* \"#utility.yul\":11033:11039   */\n      0x0120\n        /* \"#utility.yul\":11021:11030   */\n      dup3\n        /* \"#utility.yul\":11016:11019   */\n      dup5\n        /* \"#utility.yul\":11012:11031   */\n      sub\n        /* \"#utility.yul\":11008:11040   */\n      slt\n        /* \"#utility.yul\":11005:11124   */\n      iszero\n      tag_297\n      jumpi\n        /* \"#utility.yul\":11043:11122   */\n      tag_298\n      tag_151\n      jump\t// in\n    tag_298:\n        /* \"#utility.yul\":11005:11124   */\n    tag_297:\n        /* \"#utility.yul\":11142:11165   */\n      tag_299\n        /* \"#utility.yul\":11158:11164   */\n      0x0120\n        /* \"#utility.yul\":11142:11165   */\n      tag_154\n      jump\t// in\n    tag_299:\n        /* \"#utility.yul\":11133:11165   */\n      swap1\n      pop\n        /* \"#utility.yul\":11231:11232   */\n      0x00\n        /* \"#utility.yul\":11271:11320   */\n      tag_300\n        /* \"#utility.yul\":11316:11319   */\n      dup5\n        /* \"#utility.yul\":11307:11313   */\n      dup3\n        /* \"#utility.yul\":11296:11305   */\n      dup6\n        /* \"#utility.yul\":11292:11314   */\n      add\n        /* \"#utility.yul\":11271:11320   */\n      tag_150\n      jump\t// in\n    tag_300:\n        /* \"#utility.yul\":11264:11268   */\n      0x00\n        /* \"#utility.yul\":11257:11262   */\n      dup4\n        /* \"#utility.yul\":11253:11269   */\n      add\n        /* \"#utility.yul\":11246:11321   */\n      mstore\n        /* \"#utility.yul\":11175:11332   */\n      pop\n        /* \"#utility.yul\":11426:11428   */\n      0x20\n        /* \"#utility.yul\":11415:11424   */\n      dup3\n        /* \"#utility.yul\":11411:11429   */\n      add\n        /* \"#utility.yul\":11398:11430   */\n      calldataload\n        /* \"#utility.yul\":11457:11475   */\n      0xffffffffffffffff\n        /* \"#utility.yul\":11449:11455   */\n      dup2\n        /* \"#utility.yul\":11446:11476   */\n      gt\n        /* \"#utility.yul\":11443:11560   */\n      iszero\n      tag_301\n      jumpi\n        /* \"#utility.yul\":11479:11558   */\n      tag_302\n      tag_155\n      jump\t// in\n    tag_302:\n        /* \"#utility.yul\":11443:11560   */\n    tag_301:\n        /* \"#utility.yul\":11599:11658   */\n      tag_303\n        /* \"#utility.yul\":11654:11657   */\n      dup5\n        /* \"#utility.yul\":11645:11651   */\n      dup3\n        /* \"#utility.yul\":11634:11643   */\n      dup6\n        /* \"#utility.yul\":11630:11652   */\n      add\n        /* \"#utility.yul\":11599:11658   */\n      tag_161\n      jump\t// in\n    tag_303:\n        /* \"#utility.yul\":11592:11596   */\n      0x20\n        /* \"#utility.yul\":11585:11590   */\n      dup4\n        /* \"#utility.yul\":11581:11597   */\n      add\n        /* \"#utility.yul\":11574:11659   */\n      mstore\n        /* \"#utility.yul\":11342:11670   */\n      pop\n        /* \"#utility.yul\":11757:11759   */\n      0x40\n        /* \"#utility.yul\":11746:11755   */\n      dup3\n        /* \"#utility.yul\":11742:11760   */\n      add\n        /* \"#utility.yul\":11729:11761   */\n      calldataload\n        /* \"#utility.yul\":11788:11806   */\n      0xffffffffffffffff\n        /* \"#utility.yul\":11780:11786   */\n      dup2\n        /* \"#utility.yul\":11777:11807   */\n      gt\n        /* \"#utility.yul\":11774:11891   */\n      iszero\n      tag_304\n      jumpi\n        /* \"#utility.yul\":11810:11889   */\n      tag_305\n      tag_155\n      jump\t// in\n    tag_305:\n        /* \"#utility.yul\":11774:11891   */\n    tag_304:\n        /* \"#utility.yul\":11930:11989   */\n      tag_306\n        /* \"#utility.yul\":11985:11988   */\n      dup5\n        /* \"#utility.yul\":11976:11982   */\n      dup3\n        /* \"#utility.yul\":11965:11974   */\n      dup6\n        /* \"#utility.yul\":11961:11983   */\n      add\n        /* \"#utility.yul\":11930:11989   */\n      tag_161\n      jump\t// in\n    tag_306:\n        /* \"#utility.yul\":11923:11927   */\n      0x40\n        /* \"#utility.yul\":11916:11921   */\n      dup4\n        /* \"#utility.yul\":11912:11928   */\n      add\n        /* \"#utility.yul\":11905:11990   */\n      mstore\n        /* \"#utility.yul\":11680:12001   */\n      pop\n        /* \"#utility.yul\":12092:12094   */\n      0x60\n        /* \"#utility.yul\":12081:12090   */\n      dup3\n        /* \"#utility.yul\":12077:12095   */\n      add\n        /* \"#utility.yul\":12064:12096   */\n      calldataload\n        /* \"#utility.yul\":12123:12141   */\n      0xffffffffffffffff\n        /* \"#utility.yul\":12115:12121   */\n      dup2\n        /* \"#utility.yul\":12112:12142   */\n      gt\n        /* \"#utility.yul\":12109:12226   */\n      iszero\n      tag_307\n      jumpi\n        /* \"#utility.yul\":12145:12224   */\n      tag_308\n      tag_155\n      jump\t// in\n    tag_308:\n        /* \"#utility.yul\":12109:12226   */\n    tag_307:\n        /* \"#utility.yul\":12265:12324   */\n      tag_309\n        /* \"#utility.yul\":12320:12323   */\n      dup5\n        /* \"#utility.yul\":12311:12317   */\n      dup3\n        /* \"#utility.yul\":12300:12309   */\n      dup6\n        /* \"#utility.yul\":12296:12318   */\n      add\n        /* \"#utility.yul\":12265:12324   */\n      tag_161\n      jump\t// in\n    tag_309:\n        /* \"#utility.yul\":12258:12262   */\n      0x60\n        /* \"#utility.yul\":12251:12256   */\n      dup4\n        /* \"#utility.yul\":12247:12263   */\n      add\n        /* \"#utility.yul\":12240:12325   */\n      mstore\n        /* \"#utility.yul\":12011:12336   */\n      pop\n        /* \"#utility.yul\":12424:12427   */\n      0x80\n        /* \"#utility.yul\":12413:12422   */\n      dup3\n        /* \"#utility.yul\":12409:12428   */\n      add\n        /* \"#utility.yul\":12396:12429   */\n      calldataload\n        /* \"#utility.yul\":12456:12474   */\n      0xffffffffffffffff\n        /* \"#utility.yul\":12448:12454   */\n      dup2\n        /* \"#utility.yul\":12445:12475   */\n      gt\n        /* \"#utility.yul\":12442:12559   */\n      iszero\n      tag_310\n      jumpi\n        /* \"#utility.yul\":12478:12557   */\n      tag_311\n      tag_155\n      jump\t// in\n    tag_311:\n        /* \"#utility.yul\":12442:12559   */\n    tag_310:\n        /* \"#utility.yul\":12598:12657   */\n      tag_312\n        /* \"#utility.yul\":12653:12656   */\n      dup5\n        /* \"#utility.yul\":12644:12650   */\n      dup3\n        /* \"#utility.yul\":12633:12642   */\n      dup6\n        /* \"#utility.yul\":12629:12651   */\n      add\n        /* \"#utility.yul\":12598:12657   */\n      tag_161\n      jump\t// in\n    tag_312:\n        /* \"#utility.yul\":12591:12595   */\n      0x80\n        /* \"#utility.yul\":12584:12589   */\n      dup4\n        /* \"#utility.yul\":12580:12596   */\n      add\n        /* \"#utility.yul\":12573:12658   */\n      mstore\n        /* \"#utility.yul\":12346:12669   */\n      pop\n        /* \"#utility.yul\":12760:12763   */\n      0xa0\n        /* \"#utility.yul\":12749:12758   */\n      dup3\n        /* \"#utility.yul\":12745:12764   */\n      add\n        /* \"#utility.yul\":12732:12765   */\n      calldataload\n        /* \"#utility.yul\":12792:12810   */\n      0xffffffffffffffff\n        /* \"#utility.yul\":12784:12790   */\n      dup2\n        /* \"#utility.yul\":12781:12811   */\n      gt\n        /* \"#utility.yul\":12778:12895   */\n      iszero\n      tag_313\n      jumpi\n        /* \"#utility.yul\":12814:12893   */\n      tag_314\n      tag_155\n      jump\t// in\n    tag_314:\n        /* \"#utility.yul\":12778:12895   */\n    tag_313:\n        /* \"#utility.yul\":12934:12993   */\n      tag_315\n        /* \"#utility.yul\":12989:12992   */\n      dup5\n        /* \"#utility.yul\":12980:12986   */\n      dup3\n        /* \"#utility.yul\":12969:12978   */\n      dup6\n        /* \"#utility.yul\":12965:12987   */\n      add\n        /* \"#utility.yul\":12934:12993   */\n      tag_161\n      jump\t// in\n    tag_315:\n        /* \"#utility.yul\":12927:12931   */\n      0xa0\n        /* \"#utility.yul\":12920:12925   */\n      dup4\n        /* \"#utility.yul\":12916:12932   */\n      add\n        /* \"#utility.yul\":12909:12994   */\n      mstore\n        /* \"#utility.yul\":12679:13005   */\n      pop\n        /* \"#utility.yul\":13068:13071   */\n      0xc0\n        /* \"#utility.yul\":13110:13159   */\n      tag_316\n        /* \"#utility.yul\":13155:13158   */\n      dup5\n        /* \"#utility.yul\":13146:13152   */\n      dup3\n        /* \"#utility.yul\":13135:13144   */\n      dup6\n        /* \"#utility.yul\":13131:13153   */\n      add\n        /* \"#utility.yul\":13110:13159   */\n      tag_150\n      jump\t// in\n    tag_316:\n        /* \"#utility.yul\":13103:13107   */\n      0xc0\n        /* \"#utility.yul\":13096:13101   */\n      dup4\n        /* \"#utility.yul\":13092:13108   */\n      add\n        /* \"#utility.yul\":13085:13160   */\n      mstore\n        /* \"#utility.yul\":13015:13171   */\n      pop\n        /* \"#utility.yul\":13264:13267   */\n      0xe0\n        /* \"#utility.yul\":13253:13262   */\n      dup3\n        /* \"#utility.yul\":13249:13268   */\n      add\n        /* \"#utility.yul\":13236:13269   */\n      calldataload\n        /* \"#utility.yul\":13296:13314   */\n      0xffffffffffffffff\n        /* \"#utility.yul\":13288:13294   */\n      dup2\n        /* \"#utility.yul\":13285:13315   */\n      gt\n        /* \"#utility.yul\":13282:13399   */\n      iszero\n      tag_317\n      jumpi\n        /* \"#utility.yul\":13318:13397   */\n      tag_318\n      tag_155\n      jump\t// in\n    tag_318:\n        /* \"#utility.yul\":13282:13399   */\n    tag_317:\n        /* \"#utility.yul\":13438:13497   */\n      tag_319\n        /* \"#utility.yul\":13493:13496   */\n      dup5\n        /* \"#utility.yul\":13484:13490   */\n      dup3\n        /* \"#utility.yul\":13473:13482   */\n      dup6\n        /* \"#utility.yul\":13469:13491   */\n      add\n        /* \"#utility.yul\":13438:13497   */\n      tag_161\n      jump\t// in\n    tag_319:\n        /* \"#utility.yul\":13431:13435   */\n      0xe0\n        /* \"#utility.yul\":13424:13429   */\n      dup4\n        /* \"#utility.yul\":13420:13436   */\n      add\n        /* \"#utility.yul\":13413:13498   */\n      mstore\n        /* \"#utility.yul\":13181:13509   */\n      pop\n        /* \"#utility.yul\":13578:13581   */\n      0x0100\n        /* \"#utility.yul\":13622:13668   */\n      tag_320\n        /* \"#utility.yul\":13664:13667   */\n      dup5\n        /* \"#utility.yul\":13655:13661   */\n      dup3\n        /* \"#utility.yul\":13644:13653   */\n      dup6\n        /* \"#utility.yul\":13640:13662   */\n      add\n        /* \"#utility.yul\":13622:13668   */\n      tag_163\n      jump\t// in\n    tag_320:\n        /* \"#utility.yul\":13613:13619   */\n      0x0100\n        /* \"#utility.yul\":13606:13611   */\n      dup4\n        /* \"#utility.yul\":13602:13620   */\n      add\n        /* \"#utility.yul\":13595:13669   */\n      mstore\n        /* \"#utility.yul\":13519:13680   */\n      pop\n        /* \"#utility.yul\":10918:13687   */\n      swap3\n      swap2\n      pop\n      pop\n      jump\t// out\n        /* \"#utility.yul\":13693:14226   */\n    tag_34:\n        /* \"#utility.yul\":13774:13780   */\n      0x00\n        /* \"#utility.yul\":13823:13825   */\n      0x20\n        /* \"#utility.yul\":13811:13820   */\n      dup3\n        /* \"#utility.yul\":13802:13809   */\n      dup5\n        /* \"#utility.yul\":13798:13821   */\n      sub\n        /* \"#utility.yul\":13794:13826   */\n      slt\n        /* \"#utility.yul\":13791:13910   */\n      iszero\n      tag_322\n      jumpi\n        /* \"#utility.yul\":13829:13908   */\n      tag_323\n      tag_126\n      jump\t// in\n    tag_323:\n        /* \"#utility.yul\":13791:13910   */\n    tag_322:\n        /* \"#utility.yul\":13977:13978   */\n      0x00\n        /* \"#utility.yul\":13966:13975   */\n      dup3\n        /* \"#utility.yul\":13962:13979   */\n      add\n        /* \"#utility.yul\":13949:13980   */\n      calldataload\n        /* \"#utility.yul\":14007:14025   */\n      0xffffffffffffffff\n        /* \"#utility.yul\":13999:14005   */\n      dup2\n        /* \"#utility.yul\":13996:14026   */\n      gt\n        /* \"#utility.yul\":13993:14110   */\n      iszero\n      tag_324\n      jumpi\n        /* \"#utility.yul\":14029:14108   */\n      tag_325\n      tag_127\n      jump\t// in\n    tag_325:\n        /* \"#utility.yul\":13993:14110   */\n    tag_324:\n        /* \"#utility.yul\":14134:14209   */\n      tag_326\n        /* \"#utility.yul\":14201:14208   */\n      dup5\n        /* \"#utility.yul\":14192:14198   */\n      dup3\n        /* \"#utility.yul\":14181:14190   */\n      dup6\n        /* \"#utility.yul\":14177:14199   */\n      add\n        /* \"#utility.yul\":14134:14209   */\n      tag_164\n      jump\t// in\n    tag_326:\n        /* \"#utility.yul\":14124:14209   */\n      swap2\n      pop\n        /* \"#utility.yul\":13920:14219   */\n      pop\n        /* \"#utility.yul\":13693:14226   */\n      swap3\n      swap2\n      pop\n      pop\n      jump\t// out\n        /* \"#utility.yul\":14232:14401   */\n    tag_165:\n        /* \"#utility.yul\":14316:14327   */\n      0x00\n        /* \"#utility.yul\":14350:14356   */\n      dup3\n        /* \"#utility.yul\":14345:14348   */\n      dup3\n        /* \"#utility.yul\":14338:14357   */\n      mstore\n        /* \"#utility.yul\":14390:14394   */\n      0x20\n        /* \"#utility.yul\":14385:14388   */\n      dup3\n        /* \"#utility.yul\":14381:14395   */\n      add\n        /* \"#utility.yul\":14366:14395   */\n      swap1\n      pop\n        /* \"#utility.yul\":14232:14401   */\n      swap3\n      swap2\n      pop\n      pop\n      jump\t// out\n        /* \"#utility.yul\":14407:14636   */\n    tag_166:\n        /* \"#utility.yul\":14547:14581   */\n      0x537465703544617461626173653a207065726d697373696f6e20686173206265\n        /* \"#utility.yul\":14543:14544   */\n      0x00\n        /* \"#utility.yul\":14535:14541   */\n      dup3\n        /* \"#utility.yul\":14531:14545   */\n      add\n        /* \"#utility.yul\":14524:14582   */\n      mstore\n        /* \"#utility.yul\":14616:14628   */\n      0x656e206772616e74656400000000000000000000000000000000000000000000\n        /* \"#utility.yul\":14611:14613   */\n      0x20\n        /* \"#utility.yul\":14603:14609   */\n      dup3\n        /* \"#utility.yul\":14599:14614   */\n      add\n        /* \"#utility.yul\":14592:14629   */\n      mstore\n        /* \"#utility.yul\":14407:14636   */\n      pop\n      jump\t// out\n        /* \"#utility.yul\":14642:15008   */\n    tag_167:\n        /* \"#utility.yul\":14784:14787   */\n      0x00\n        /* \"#utility.yul\":14805:14872   */\n      tag_330\n        /* \"#utility.yul\":14869:14871   */\n      0x2a\n        /* \"#utility.yul\":14864:14867   */\n      dup4\n        /* \"#utility.yul\":14805:14872   */\n      tag_165\n      jump\t// in\n    tag_330:\n        /* \"#utility.yul\":14798:14872   */\n      swap2\n      pop\n        /* \"#utility.yul\":14881:14974   */\n      tag_331\n        /* \"#utility.yul\":14970:14973   */\n      dup3\n        /* \"#utility.yul\":14881:14974   */\n      tag_166\n      jump\t// in\n    tag_331:\n        /* \"#utility.yul\":14999:15001   */\n      0x40\n        /* \"#utility.yul\":14994:14997   */\n      dup3\n        /* \"#utility.yul\":14990:15002   */\n      add\n        /* \"#utility.yul\":14983:15002   */\n      swap1\n      pop\n        /* \"#utility.yul\":14642:15008   */\n      swap2\n      swap1\n      pop\n      jump\t// out\n        /* \"#utility.yul\":15014:15433   */\n    tag_42:\n        /* \"#utility.yul\":15180:15184   */\n      0x00\n        /* \"#utility.yul\":15218:15220   */\n      0x20\n        /* \"#utility.yul\":15207:15216   */\n      dup3\n        /* \"#utility.yul\":15203:15221   */\n      add\n        /* \"#utility.yul\":15195:15221   */\n      swap1\n      pop\n        /* \"#utility.yul\":15267:15276   */\n      dup2\n        /* \"#utility.yul\":15261:15265   */\n      dup2\n        /* \"#utility.yul\":15257:15277   */\n      sub\n        /* \"#utility.yul\":15253:15254   */\n      0x00\n        /* \"#utility.yul\":15242:15251   */\n      dup4\n        /* \"#utility.yul\":15238:15255   */\n      add\n        /* \"#utility.yul\":15231:15278   */\n      mstore\n        /* \"#utility.yul\":15295:15426   */\n      tag_333\n        /* \"#utility.yul\":15421:15425   */\n      dup2\n        /* \"#utility.yul\":15295:15426   */\n      tag_167\n      jump\t// in\n    tag_333:\n        /* \"#utility.yul\":15287:15426   */\n      swap1\n      pop\n        /* \"#utility.yul\":15014:15433   */\n      swap2\n      swap1\n      pop\n      jump\t// out\n        /* \"#utility.yul\":15439:15672   */\n    tag_168:\n        /* \"#utility.yul\":15579:15613   */\n      0x537465703544617461626173653a206f6e6c7920636f6e747261637420776869\n        /* \"#utility.yul\":15575:15576   */\n      0x00\n        /* \"#utility.yul\":15567:15573   */\n      dup3\n        /* \"#utility.yul\":15563:15577   */\n      add\n        /* \"#utility.yul\":15556:15614   */\n      mstore\n        /* \"#utility.yul\":15648:15664   */\n      0x63682061726520616c6c6f776564000000000000000000000000000000000000\n        /* \"#utility.yul\":15643:15645   */\n      0x20\n        /* \"#utility.yul\":15635:15641   */\n      dup3\n        /* \"#utility.yul\":15631:15646   */\n      add\n        /* \"#utility.yul\":15624:15665   */\n      mstore\n        /* \"#utility.yul\":15439:15672   */\n      pop\n      jump\t// out\n        /* \"#utility.yul\":15678:16044   */\n    tag_169:\n        /* \"#utility.yul\":15820:15823   */\n      0x00\n        /* \"#utility.yul\":15841:15908   */\n      tag_336\n        /* \"#utility.yul\":15905:15907   */\n      0x2e\n        /* \"#utility.yul\":15900:15903   */\n      dup4\n        /* \"#utility.yul\":15841:15908   */\n      tag_165\n      jump\t// in\n    tag_336:\n        /* \"#utility.yul\":15834:15908   */\n      swap2\n      pop\n        /* \"#utility.yul\":15917:16010   */\n      tag_337\n        /* \"#utility.yul\":16006:16009   */\n      dup3\n        /* \"#utility.yul\":15917:16010   */\n      tag_168\n      jump\t// in\n    tag_337:\n        /* \"#utility.yul\":16035:16037   */\n      0x40\n        /* \"#utility.yul\":16030:16033   */\n      dup3\n        /* \"#utility.yul\":16026:16038   */\n      add\n        /* \"#utility.yul\":16019:16038   */\n      swap1\n      pop\n        /* \"#utility.yul\":15678:16044   */\n      swap2\n      swap1\n      pop\n      jump\t// out\n        /* \"#utility.yul\":16050:16469   */\n    tag_48:\n        /* \"#utility.yul\":16216:16220   */\n      0x00\n        /* \"#utility.yul\":16254:16256   */\n      0x20\n        /* \"#utility.yul\":16243:16252   */\n      dup3\n        /* \"#utility.yul\":16239:16257   */\n      add\n        /* \"#utility.yul\":16231:16257   */\n      swap1\n      pop\n        /* \"#utility.yul\":16303:16312   */\n      dup2\n        /* \"#utility.yul\":16297:16301   */\n      dup2\n        /* \"#utility.yul\":16293:16313   */\n      sub\n        /* \"#utility.yul\":16289:16290   */\n      0x00\n        /* \"#utility.yul\":16278:16287   */\n      dup4\n        /* \"#utility.yul\":16274:16291   */\n      add\n        /* \"#utility.yul\":16267:16314   */\n      mstore\n        /* \"#utility.yul\":16331:16462   */\n      tag_339\n        /* \"#utility.yul\":16457:16461   */\n      dup2\n        /* \"#utility.yul\":16331:16462   */\n      tag_169\n      jump\t// in\n    tag_339:\n        /* \"#utility.yul\":16323:16462   */\n      swap1\n      pop\n        /* \"#utility.yul\":16050:16469   */\n      swap2\n      swap1\n      pop\n      jump\t// out\n        /* \"#utility.yul\":16475:16655   */\n    tag_170:\n        /* \"#utility.yul\":16523:16600   */\n      0x4e487b7100000000000000000000000000000000000000000000000000000000\n        /* \"#utility.yul\":16520:16521   */\n      0x00\n        /* \"#utility.yul\":16513:16601   */\n      mstore\n        /* \"#utility.yul\":16620:16624   */\n      0x22\n        /* \"#utility.yul\":16617:16618   */\n      0x04\n        /* \"#utility.yul\":16610:16625   */\n      mstore\n        /* \"#utility.yul\":16644:16648   */\n      0x24\n        /* \"#utility.yul\":16641:16642   */\n      0x00\n        /* \"#utility.yul\":16634:16649   */\n      revert\n        /* \"#utility.yul\":16661:16981   */\n    tag_54:\n        /* \"#utility.yul\":16705:16711   */\n      0x00\n        /* \"#utility.yul\":16742:16743   */\n      0x02\n        /* \"#utility.yul\":16736:16740   */\n      dup3\n        /* \"#utility.yul\":16732:16744   */\n      div\n        /* \"#utility.yul\":16722:16744   */\n      swap1\n      pop\n        /* \"#utility.yul\":16789:16790   */\n      0x01\n        /* \"#utility.yul\":16783:16787   */\n      dup3\n        /* \"#utility.yul\":16779:16791   */\n      and\n        /* \"#utility.yul\":16810:16828   */\n      dup1\n        /* \"#utility.yul\":16800:16881   */\n      tag_342\n      jumpi\n        /* \"#utility.yul\":16866:16870   */\n      0x7f\n        /* \"#utility.yul\":16858:16864   */\n      dup3\n        /* \"#utility.yul\":16854:16871   */\n      and\n        /* \"#utility.yul\":16844:16871   */\n      swap2\n      pop\n        /* \"#utility.yul\":16800:16881   */\n    tag_342:\n        /* \"#utility.yul\":16928:16930   */\n      0x20\n        /* \"#utility.yul\":16920:16926   */\n      dup3\n        /* \"#utility.yul\":16917:16931   */\n      lt\n        /* \"#utility.yul\":16897:16915   */\n      dup2\n        /* \"#utility.yul\":16894:16932   */\n      sub\n        /* \"#utility.yul\":16891:16975   */\n      tag_343\n      jumpi\n        /* \"#utility.yul\":16947:16965   */\n      tag_344\n      tag_170\n      jump\t// in\n    tag_344:\n        /* \"#utility.yul\":16891:16975   */\n    tag_343:\n        /* \"#utility.yul\":16712:16981   */\n      pop\n        /* \"#utility.yul\":16661:16981   */\n      swap2\n      swap1\n      pop\n      jump\t// out\n        /* \"#utility.yul\":16987:17167   */\n    tag_95:\n        /* \"#utility.yul\":17035:17112   */\n      0x4e487b7100000000000000000000000000000000000000000000000000000000\n        /* \"#utility.yul\":17032:17033   */\n      0x00\n        /* \"#utility.yul\":17025:17113   */\n      mstore\n        /* \"#utility.yul\":17132:17136   */\n      0x32\n        /* \"#utility.yul\":17129:17130   */\n      0x04\n        /* \"#utility.yul\":17122:17137   */\n      mstore\n        /* \"#utility.yul\":17156:17160   */\n      0x24\n        /* \"#utility.yul\":17153:17154   */\n      0x00\n        /* \"#utility.yul\":17146:17161   */\n      revert\n        /* \"#utility.yul\":17173:17398   */\n    tag_171:\n        /* \"#utility.yul\":17313:17347   */\n      0x4f776e61626c653a206e6577206f776e657220697320746865207a65726f2061\n        /* \"#utility.yul\":17309:17310   */\n      0x00\n        /* \"#utility.yul\":17301:17307   */\n      dup3\n        /* \"#utility.yul\":17297:17311   */\n      add\n        /* \"#utility.yul\":17290:17348   */\n      mstore\n        /* \"#utility.yul\":17382:17390   */\n      0x6464726573730000000000000000000000000000000000000000000000000000\n        /* \"#utility.yul\":17377:17379   */\n      0x20\n        /* \"#utility.yul\":17369:17375   */\n      dup3\n        /* \"#utility.yul\":17365:17380   */\n      add\n        /* \"#utility.yul\":17358:17391   */\n      mstore\n        /* \"#utility.yul\":17173:17398   */\n      pop\n      jump\t// out\n        /* \"#utility.yul\":17404:17770   */\n    tag_172:\n        /* \"#utility.yul\":17546:17549   */\n      0x00\n        /* \"#utility.yul\":17567:17634   */\n      tag_348\n        /* \"#utility.yul\":17631:17633   */\n      0x26\n        /* \"#utility.yul\":17626:17629   */\n      dup4\n        /* \"#utility.yul\":17567:17634   */\n      tag_165\n      jump\t// in\n    tag_348:\n        /* \"#utility.yul\":17560:17634   */\n      swap2\n      pop\n        /* \"#utility.yul\":17643:17736   */\n      tag_349\n        /* \"#utility.yul\":17732:17735   */\n      dup3\n        /* \"#utility.yul\":17643:17736   */\n      tag_171\n      jump\t// in\n    tag_349:\n        /* \"#utility.yul\":17761:17763   */\n      0x40\n        /* \"#utility.yul\":17756:17759   */\n      dup3\n        /* \"#utility.yul\":17752:17764   */\n      add\n        /* \"#utility.yul\":17745:17764   */\n      swap1\n      pop\n        /* \"#utility.yul\":17404:17770   */\n      swap2\n      swap1\n      pop\n      jump\t// out\n        /* \"#utility.yul\":17776:18195   */\n    tag_102:\n        /* \"#utility.yul\":17942:17946   */\n      0x00\n        /* \"#utility.yul\":17980:17982   */\n      0x20\n        /* \"#utility.yul\":17969:17978   */\n      dup3\n        /* \"#utility.yul\":17965:17983   */\n      add\n        /* \"#utility.yul\":17957:17983   */\n      swap1\n      pop\n        /* \"#utility.yul\":18029:18038   */\n      dup2\n        /* \"#utility.yul\":18023:18027   */\n      dup2\n        /* \"#utility.yul\":18019:18039   */\n      sub\n        /* \"#utility.yul\":18015:18016   */\n      0x00\n        /* \"#utility.yul\":18004:18013   */\n      dup4\n        /* \"#utility.yul\":18000:18017   */\n      add\n        /* \"#utility.yul\":17993:18040   */\n      mstore\n        /* \"#utility.yul\":18057:18188   */\n      tag_351\n        /* \"#utility.yul\":18183:18187   */\n      dup2\n        /* \"#utility.yul\":18057:18188   */\n      tag_172\n      jump\t// in\n    tag_351:\n        /* \"#utility.yul\":18049:18188   */\n      swap1\n      pop\n        /* \"#utility.yul\":17776:18195   */\n      swap2\n      swap1\n      pop\n      jump\t// out\n        /* \"#utility.yul\":18201:18342   */\n    tag_173:\n        /* \"#utility.yul\":18250:18254   */\n      0x00\n        /* \"#utility.yul\":18273:18276   */\n      dup2\n        /* \"#utility.yul\":18265:18276   */\n      swap1\n      pop\n        /* \"#utility.yul\":18296:18299   */\n      dup2\n        /* \"#utility.yul\":18293:18294   */\n      0x00\n        /* \"#utility.yul\":18286:18300   */\n      mstore\n        /* \"#utility.yul\":18330:18334   */\n      0x20\n        /* \"#utility.yul\":18327:18328   */\n      0x00\n        /* \"#utility.yul\":18317:18335   */\n      keccak256\n        /* \"#utility.yul\":18309:18335   */\n      swap1\n      pop\n        /* \"#utility.yul\":18201:18342   */\n      swap2\n      swap1\n      pop\n      jump\t// out\n        /* \"#utility.yul\":18348:18441   */\n    tag_174:\n        /* \"#utility.yul\":18385:18391   */\n      0x00\n        /* \"#utility.yul\":18432:18434   */\n      0x20\n        /* \"#utility.yul\":18427:18429   */\n      0x1f\n        /* \"#utility.yul\":18420:18425   */\n      dup4\n        /* \"#utility.yul\":18416:18430   */\n      add\n        /* \"#utility.yul\":18412:18435   */\n      div\n        /* \"#utility.yul\":18402:18435   */\n      swap1\n      pop\n        /* \"#utility.yul\":18348:18441   */\n      swap2\n      swap1\n      pop\n      jump\t// out\n        /* \"#utility.yul\":18447:18554   */\n    tag_175:\n        /* \"#utility.yul\":18491:18499   */\n      0x00\n        /* \"#utility.yul\":18541:18546   */\n      dup3\n        /* \"#utility.yul\":18535:18539   */\n      dup3\n        /* \"#utility.yul\":18531:18547   */\n      shl\n        /* \"#utility.yul\":18510:18547   */\n      swap1\n      pop\n        /* \"#utility.yul\":18447:18554   */\n      swap3\n      swap2\n      pop\n      pop\n      jump\t// out\n        /* \"#utility.yul\":18560:18953   */\n    tag_176:\n        /* \"#utility.yul\":18629:18635   */\n      0x00\n        /* \"#utility.yul\":18679:18680   */\n      0x08\n        /* \"#utility.yul\":18667:18677   */\n      dup4\n        /* \"#utility.yul\":18663:18681   */\n      mul\n        /* \"#utility.yul\":18702:18799   */\n      tag_356\n        /* \"#utility.yul\":18732:18798   */\n      0xffffffffffffffffffffffffffffffffffffffffffffffffffffffffffffffff\n        /* \"#utility.yul\":18721:18730   */\n      dup3\n        /* \"#utility.yul\":18702:18799   */\n      tag_175\n      jump\t// in\n    tag_356:\n        /* \"#utility.yul\":18820:18859   */\n      tag_357\n        /* \"#utility.yul\":18850:18858   */\n      dup7\n        /* \"#utility.yul\":18839:18848   */\n      dup4\n        /* \"#utility.yul\":18820:18859   */\n      tag_175\n      jump\t// in\n    tag_357:\n        /* \"#utility.yul\":18808:18859   */\n      swap6\n      pop\n        /* \"#utility.yul\":18892:18896   */\n      dup1\n        /* \"#utility.yul\":18888:18897   */\n      not\n        /* \"#utility.yul\":18881:18886   */\n      dup5\n        /* \"#utility.yul\":18877:18898   */\n      and\n        /* \"#utility.yul\":18868:18898   */\n      swap4\n      pop\n        /* \"#utility.yul\":18941:18945   */\n      dup1\n        /* \"#utility.yul\":18931:18939   */\n      dup7\n        /* \"#utility.yul\":18927:18946   */\n      and\n        /* \"#utility.yul\":18920:18925   */\n      dup5\n        /* \"#utility.yul\":18917:18947   */\n      or\n        /* \"#utility.yul\":18907:18947   */\n      swap3\n      pop\n        /* \"#utility.yul\":18636:18953   */\n      pop\n      pop\n        /* \"#utility.yul\":18560:18953   */\n      swap4\n      swap3\n      pop\n      pop\n      pop\n      jump\t// out\n        /* \"#utility.yul\":18959:19019   */\n    tag_177:\n        /* \"#utility.yul\":18987:18990   */\n      0x00\n        /* \"#utility.yul\":19008:19013   */\n      dup2\n        /* \"#utility.yul\":19001:19013   */\n      swap1\n      pop\n        /* \"#utility.yul\":18959:19019   */\n      swap2\n      swap1\n      pop\n      jump\t// out\n        /* \"#utility.yul\":19025:19167   */\n    tag_178:\n        /* \"#utility.yul\":19075:19084   */\n      0x00\n        /* \"#utility.yul\":19108:19161   */\n      tag_360\n        /* \"#utility.yul\":19126:19160   */\n      tag_361\n        /* \"#utility.yul\":19135:19159   */\n      tag_362\n        /* \"#utility.yul\":19153:19158   */\n      dup5\n        /* \"#utility.yul\":19135:19159   */\n      tag_135\n      jump\t// in\n    tag_362:\n        /* \"#utility.yul\":19126:19160   */\n      tag_177\n      jump\t// in\n    tag_361:\n        /* \"#utility.yul\":19108:19161   */\n      tag_135\n      jump\t// in\n    tag_360:\n        /* \"#utility.yul\":19095:19161   */\n      swap1\n      pop\n        /* \"#utility.yul\":19025:19167   */\n      swap2\n      swap1\n      pop\n      jump\t// out\n        /* \"#utility.yul\":19173:19248   */\n    tag_179:\n        /* \"#utility.yul\":19216:19219   */\n      0x00\n        /* \"#utility.yul\":19237:19242   */\n      dup2\n        /* \"#utility.yul\":19230:19242   */\n      swap1\n      pop\n        /* \"#utility.yul\":19173:19248   */\n      swap2\n      swap1\n      pop\n      jump\t// out\n        /* \"#utility.yul\":19254:19523   */\n    tag_180:\n        /* \"#utility.yul\":19364:19403   */\n      tag_365\n        /* \"#utility.yul\":19395:19402   */\n      dup4\n        /* \"#utility.yul\":19364:19403   */\n      tag_178\n      jump\t// in\n    tag_365:\n        /* \"#utility.yul\":19425:19516   */\n      tag_366\n        /* \"#utility.yul\":19474:19515   */\n      tag_367\n        /* \"#utility.yul\":19498:19514   */\n      dup3\n        /* \"#utility.yul\":19474:19515   */\n      tag_179\n      jump\t// in\n    tag_367:\n        /* \"#utility.yul\":19466:19472   */\n      dup5\n        /* \"#utility.yul\":19459:19463   */\n      dup5\n        /* \"#utility.yul\":19453:19464   */\n      sload\n        /* \"#utility.yul\":19425:19516   */\n      tag_176\n      jump\t// in\n    tag_366:\n        /* \"#utility.yul\":19419:19423   */\n      dup3\n        /* \"#utility.yul\":19412:19517   */\n      sstore\n        /* \"#utility.yul\":19330:19523   */\n      pop\n        /* \"#utility.yul\":19254:19523   */\n      pop\n      pop\n      pop\n      jump\t// out\n        /* \"#utility.yul\":19529:19602   */\n    tag_181:\n        /* \"#utility.yul\":19574:19577   */\n      0x00\n        /* \"#utility.yul\":19529:19602   */\n      swap1\n      jump\t// out\n        /* \"#utility.yul\":19608:19797   */\n    tag_182:\n        /* \"#utility.yul\":19685:19717   */\n      tag_370\n      tag_181\n      jump\t// in\n    tag_370:\n        /* \"#utility.yul\":19726:19791   */\n      tag_371\n        /* \"#utility.yul\":19784:19790   */\n      dup2\n        /* \"#utility.yul\":19776:19782   */\n      dup5\n        /* \"#utility.yul\":19770:19774   */\n      dup5\n        /* \"#utility.yul\":19726:19791   */\n      tag_180\n      jump\t// in\n    tag_371:\n        /* \"#utility.yul\":19661:19797   */\n      pop\n        /* \"#utility.yul\":19608:19797   */\n      pop\n      pop\n      jump\t// out\n        /* \"#utility.yul\":19803:19989   */\n    tag_183:\n        /* \"#utility.yul\":19863:19983   */\n    tag_373:\n        /* \"#utility.yul\":19880:19883   */\n      dup2\n        /* \"#utility.yul\":19873:19878   */\n      dup2\n        /* \"#utility.yul\":19870:19884   */\n      lt\n        /* \"#utility.yul\":19863:19983   */\n      iszero\n      tag_375\n      jumpi\n        /* \"#utility.yul\":19934:19973   */\n      tag_376\n        /* \"#utility.yul\":19971:19972   */\n      0x00\n        /* \"#utility.yul\":19964:19969   */\n      dup3\n        /* \"#utility.yul\":19934:19973   */\n      tag_182\n      jump\t// in\n    tag_376:\n        /* \"#utility.yul\":19907:19908   */\n      0x01\n        /* \"#utility.yul\":19900:19905   */\n      dup2\n        /* \"#utility.yul\":19896:19909   */\n      add\n        /* \"#utility.yul\":19887:19909   */\n      swap1\n      pop\n        /* \"#utility.yul\":19863:19983   */\n      jump(tag_373)\n    tag_375:\n        /* \"#utility.yul\":19803:19989   */\n      pop\n      pop\n      jump\t// out\n        /* \"#utility.yul\":19995:20538   */\n    tag_184:\n        /* \"#utility.yul\":20096:20098   */\n      0x1f\n        /* \"#utility.yul\":20091:20094   */\n      dup3\n        /* \"#utility.yul\":20088:20099   */\n      gt\n        /* \"#utility.yul\":20085:20531   */\n      iszero\n      tag_378\n      jumpi\n        /* \"#utility.yul\":20130:20168   */\n      tag_379\n        /* \"#utility.yul\":20162:20167   */\n      dup2\n        /* \"#utility.yul\":20130:20168   */\n      tag_173\n      jump\t// in\n    tag_379:\n        /* \"#utility.yul\":20214:20243   */\n      tag_380\n        /* \"#utility.yul\":20232:20242   */\n      dup5\n        /* \"#utility.yul\":20214:20243   */\n      tag_174\n      jump\t// in\n    tag_380:\n        /* \"#utility.yul\":20204:20212   */\n      dup2\n        /* \"#utility.yul\":20200:20244   */\n      add\n        /* \"#utility.yul\":20397:20399   */\n      0x20\n        /* \"#utility.yul\":20385:20395   */\n      dup6\n        /* \"#utility.yul\":20382:20400   */\n      lt\n        /* \"#utility.yul\":20379:20428   */\n      iszero\n      tag_381\n      jumpi\n        /* \"#utility.yul\":20418:20426   */\n      dup2\n        /* \"#utility.yul\":20403:20426   */\n      swap1\n      pop\n        /* \"#utility.yul\":20379:20428   */\n    tag_381:\n        /* \"#utility.yul\":20441:20521   */\n      tag_382\n        /* \"#utility.yul\":20497:20519   */\n      tag_383\n        /* \"#utility.yul\":20515:20518   */\n      dup6\n        /* \"#utility.yul\":20497:20519   */\n      tag_174\n      jump\t// in\n    tag_383:\n        /* \"#utility.yul\":20487:20495   */\n      dup4\n        /* \"#utility.yul\":20483:20520   */\n      add\n        /* \"#utility.yul\":20470:20481   */\n      dup3\n        /* \"#utility.yul\":20441:20521   */\n      tag_183\n      jump\t// in\n    tag_382:\n        /* \"#utility.yul\":20100:20531   */\n      pop\n      pop\n        /* \"#utility.yul\":20085:20531   */\n    tag_378:\n        /* \"#utility.yul\":19995:20538   */\n      pop\n      pop\n      pop\n      jump\t// out\n        /* \"#utility.yul\":20544:20661   */\n    tag_185:\n        /* \"#utility.yul\":20598:20606   */\n      0x00\n        /* \"#utility.yul\":20648:20653   */\n      dup3\n        /* \"#utility.yul\":20642:20646   */\n      dup3\n        /* \"#utility.yul\":20638:20654   */\n      shr\n        /* \"#utility.yul\":20617:20654   */\n      swap1\n      pop\n        /* \"#utility.yul\":20544:20661   */\n      swap3\n      swap2\n      pop\n      pop\n      jump\t// out\n        /* \"#utility.yul\":20667:20836   */\n    tag_186:\n        /* \"#utility.yul\":20711:20717   */\n      0x00\n        /* \"#utility.yul\":20744:20795   */\n      tag_386\n        /* \"#utility.yul\":20792:20793   */\n      0x00\n        /* \"#utility.yul\":20788:20794   */\n      not\n        /* \"#utility.yul\":20780:20785   */\n      dup5\n        /* \"#utility.yul\":20777:20778   */\n      0x08\n        /* \"#utility.yul\":20773:20786   */\n      mul\n        /* \"#utility.yul\":20744:20795   */\n      tag_185\n      jump\t// in\n    tag_386:\n        /* \"#utility.yul\":20740:20796   */\n      not\n        /* \"#utility.yul\":20825:20829   */\n      dup1\n        /* \"#utility.yul\":20819:20823   */\n      dup4\n        /* \"#utility.yul\":20815:20830   */\n      and\n        /* \"#utility.yul\":20805:20830   */\n      swap2\n      pop\n        /* \"#utility.yul\":20718:20836   */\n      pop\n        /* \"#utility.yul\":20667:20836   */\n      swap3\n      swap2\n      pop\n      pop\n      jump\t// out\n        /* \"#utility.yul\":20841:21136   */\n    tag_187:\n        /* \"#utility.yul\":20917:20921   */\n      0x00\n        /* \"#utility.yul\":21063:21092   */\n      tag_388\n        /* \"#utility.yul\":21088:21091   */\n      dup4\n        /* \"#utility.yul\":21082:21086   */\n      dup4\n        /* \"#utility.yul\":21063:21092   */\n      tag_186\n      jump\t// in\n    tag_388:\n        /* \"#utility.yul\":21055:21092   */\n      swap2\n      pop\n        /* \"#utility.yul\":21125:21128   */\n      dup3\n        /* \"#utility.yul\":21122:21123   */\n      0x02\n        /* \"#utility.yul\":21118:21129   */\n      mul\n        /* \"#utility.yul\":21112:21116   */\n      dup3\n        /* \"#utility.yul\":21109:21130   */\n      or\n        /* \"#utility.yul\":21101:21130   */\n      swap1\n      pop\n        /* \"#utility.yul\":20841:21136   */\n      swap3\n      swap2\n      pop\n      pop\n      jump\t// out\n        /* \"#utility.yul\":21141:22536   */\n    tag_112:\n        /* \"#utility.yul\":21258:21295   */\n      tag_390\n        /* \"#utility.yul\":21291:21294   */\n      dup3\n        /* \"#utility.yul\":21258:21295   */\n      tag_137\n      jump\t// in\n    tag_390:\n        /* \"#utility.yul\":21360:21378   */\n      0xffffffffffffffff\n        /* \"#utility.yul\":21352:21358   */\n      dup2\n        /* \"#utility.yul\":21349:21379   */\n      gt\n        /* \"#utility.yul\":21346:21402   */\n      iszero\n      tag_391\n      jumpi\n        /* \"#utility.yul\":21382:21400   */\n      tag_392\n      tag_152\n      jump\t// in\n    tag_392:\n        /* \"#utility.yul\":21346:21402   */\n    tag_391:\n        /* \"#utility.yul\":21426:21464   */\n      tag_393\n        /* \"#utility.yul\":21458:21462   */\n      dup3\n        /* \"#utility.yul\":21452:21463   */\n      sload\n        /* \"#utility.yul\":21426:21464   */\n      tag_54\n      jump\t// in\n    tag_393:\n        /* \"#utility.yul\":21511:21578   */\n      tag_394\n        /* \"#utility.yul\":21571:21577   */\n      dup3\n        /* \"#utility.yul\":21563:21569   */\n      dup3\n        /* \"#utility.yul\":21557:21561   */\n      dup6\n        /* \"#utility.yul\":21511:21578   */\n      tag_184\n      jump\t// in\n    tag_394:\n        /* \"#utility.yul\":21605:21606   */\n      0x00\n        /* \"#utility.yul\":21629:21633   */\n      0x20\n        /* \"#utility.yul\":21616:21633   */\n      swap1\n      pop\n        /* \"#utility.yul\":21661:21663   */\n      0x1f\n        /* \"#utility.yul\":21653:21659   */\n      dup4\n        /* \"#utility.yul\":21650:21664   */\n      gt\n        /* \"#utility.yul\":21678:21679   */\n      0x01\n        /* \"#utility.yul\":21673:22291   */\n      dup2\n      eq\n      tag_396\n      jumpi\n        /* \"#utility.yul\":22335:22336   */\n      0x00\n        /* \"#utility.yul\":22352:22358   */\n      dup5\n        /* \"#utility.yul\":22349:22426   */\n      iszero\n      tag_397\n      jumpi\n        /* \"#utility.yul\":22401:22410   */\n      dup3\n        /* \"#utility.yul\":22396:22399   */\n      dup8\n        /* \"#utility.yul\":22392:22411   */\n      add\n        /* \"#utility.yul\":22386:22412   */\n      mload\n        /* \"#utility.yul\":22377:22412   */\n      swap1\n      pop\n        /* \"#utility.yul\":22349:22426   */\n    tag_397:\n        /* \"#utility.yul\":22452:22519   */\n      tag_398\n        /* \"#utility.yul\":22512:22518   */\n      dup6\n        /* \"#utility.yul\":22505:22510   */\n      dup3\n        /* \"#utility.yul\":22452:22519   */\n      tag_187\n      jump\t// in\n    tag_398:\n        /* \"#utility.yul\":22446:22450   */\n      dup7\n        /* \"#utility.yul\":22439:22520   */\n      sstore\n        /* \"#utility.yul\":22308:22530   */\n      pop\n        /* \"#utility.yul\":21643:22530   */\n      jump(tag_395)\n        /* \"#utility.yul\":21673:22291   */\n    tag_396:\n        /* \"#utility.yul\":21725:21729   */\n      0x1f\n        /* \"#utility.yul\":21721:21730   */\n      not\n        /* \"#utility.yul\":21713:21719   */\n      dup5\n        /* \"#utility.yul\":21709:21731   */\n      and\n        /* \"#utility.yul\":21759:21796   */\n      tag_399\n        /* \"#utility.yul\":21791:21795   */\n      dup7\n        /* \"#utility.yul\":21759:21796   */\n      tag_173\n      jump\t// in\n    tag_399:\n        /* \"#utility.yul\":21818:21819   */\n      0x00\n        /* \"#utility.yul\":21832:22040   */\n    tag_400:\n        /* \"#utility.yul\":21846:21853   */\n      dup3\n        /* \"#utility.yul\":21843:21844   */\n      dup2\n        /* \"#utility.yul\":21840:21854   */\n      lt\n        /* \"#utility.yul\":21832:22040   */\n      iszero\n      tag_402\n      jumpi\n        /* \"#utility.yul\":21925:21934   */\n      dup5\n        /* \"#utility.yul\":21920:21923   */\n      dup10\n        /* \"#utility.yul\":21916:21935   */\n      add\n        /* \"#utility.yul\":21910:21936   */\n      mload\n        /* \"#utility.yul\":21902:21908   */\n      dup3\n        /* \"#utility.yul\":21895:21937   */\n      sstore\n        /* \"#utility.yul\":21976:21977   */\n      0x01\n        /* \"#utility.yul\":21968:21974   */\n      dup3\n        /* \"#utility.yul\":21964:21978   */\n      add\n        /* \"#utility.yul\":21954:21978   */\n      swap2\n      pop\n        /* \"#utility.yul\":22023:22025   */\n      0x20\n        /* \"#utility.yul\":22012:22021   */\n      dup6\n        /* \"#utility.yul\":22008:22026   */\n      add\n        /* \"#utility.yul\":21995:22026   */\n      swap5\n      pop\n        /* \"#utility.yul\":21869:21873   */\n      0x20\n        /* \"#utility.yul\":21866:21867   */\n      dup2\n        /* \"#utility.yul\":21862:21874   */\n      add\n        /* \"#utility.yul\":21857:21874   */\n      swap1\n      pop\n        /* \"#utility.yul\":21832:22040   */\n      jump(tag_400)\n    tag_402:\n        /* \"#utility.yul\":22068:22074   */\n      dup7\n        /* \"#utility.yul\":22059:22066   */\n      dup4\n        /* \"#utility.yul\":22056:22075   */\n      lt\n        /* \"#utility.yul\":22053:22232   */\n      iszero\n      tag_403\n      jumpi\n        /* \"#utility.yul\":22126:22135   */\n      dup5\n        /* \"#utility.yul\":22121:22124   */\n      dup10\n        /* \"#utility.yul\":22117:22136   */\n      add\n        /* \"#utility.yul\":22111:22137   */\n      mload\n        /* \"#utility.yul\":22169:22217   */\n      tag_404\n        /* \"#utility.yul\":22211:22215   */\n      0x1f\n        /* \"#utility.yul\":22203:22209   */\n      dup10\n        /* \"#utility.yul\":22199:22216   */\n      and\n        /* \"#utility.yul\":22188:22197   */\n      dup3\n        /* \"#utility.yul\":22169:22217   */\n      tag_186\n      jump\t// in\n    tag_404:\n        /* \"#utility.yul\":22161:22167   */\n      dup4\n        /* \"#utility.yul\":22154:22218   */\n      sstore\n        /* \"#utility.yul\":22076:22232   */\n      pop\n        /* \"#utility.yul\":22053:22232   */\n    tag_403:\n        /* \"#utility.yul\":22278:22279   */\n      0x01\n        /* \"#utility.yul\":22274:22275   */\n      0x02\n        /* \"#utility.yul\":22266:22272   */\n      dup9\n        /* \"#utility.yul\":22262:22276   */\n      mul\n        /* \"#utility.yul\":22258:22280   */\n      add\n        /* \"#utility.yul\":22252:22256   */\n      dup9\n        /* \"#utility.yul\":22245:22281   */\n      sstore\n        /* \"#utility.yul\":21680:22291   */\n      pop\n      pop\n      pop\n        /* \"#utility.yul\":21643:22530   */\n    tag_395:\n      pop\n        /* \"#utility.yul\":21233:22536   */\n      pop\n      pop\n      pop\n        /* \"#utility.yul\":21141:22536   */\n      pop\n      pop\n      jump\t// out\n        /* \"#utility.yul\":22542:22724   */\n    tag_188:\n        /* \"#utility.yul\":22682:22716   */\n      0x4f776e61626c653a2063616c6c6572206973206e6f7420746865206f776e6572\n        /* \"#utility.yul\":22678:22679   */\n      0x00\n        /* \"#utility.yul\":22670:22676   */\n      dup3\n        /* \"#utility.yul\":22666:22680   */\n      add\n        /* \"#utility.yul\":22659:22717   */\n      mstore\n        /* \"#utility.yul\":22542:22724   */\n      pop\n      jump\t// out\n        /* \"#utility.yul\":22730:23096   */\n    tag_189:\n        /* \"#utility.yul\":22872:22875   */\n      0x00\n        /* \"#utility.yul\":22893:22960   */\n      tag_407\n        /* \"#utility.yul\":22957:22959   */\n      0x20\n        /* \"#utility.yul\":22952:22955   */\n      dup4\n        /* \"#utility.yul\":22893:22960   */\n      tag_165\n      jump\t// in\n    tag_407:\n        /* \"#utility.yul\":22886:22960   */\n      swap2\n      pop\n        /* \"#utility.yul\":22969:23062   */\n      tag_408\n        /* \"#utility.yul\":23058:23061   */\n      dup3\n        /* \"#utility.yul\":22969:23062   */\n      tag_188\n      jump\t// in\n    tag_408:\n        /* \"#utility.yul\":23087:23089   */\n      0x20\n        /* \"#utility.yul\":23082:23085   */\n      dup3\n        /* \"#utility.yul\":23078:23090   */\n      add\n        /* \"#utility.yul\":23071:23090   */\n      swap1\n      pop\n        /* \"#utility.yul\":22730:23096   */\n      swap2\n      swap1\n      pop\n      jump\t// out\n        /* \"#utility.yul\":23102:23521   */\n    tag_122:\n        /* \"#utility.yul\":23268:23272   */\n      0x00\n        /* \"#utility.yul\":23306:23308   */\n      0x20\n        /* \"#utility.yul\":23295:23304   */\n      dup3\n        /* \"#utility.yul\":23291:23309   */\n      add\n        /* \"#utility.yul\":23283:23309   */\n      swap1\n      pop\n        /* \"#utility.yul\":23355:23364   */\n      dup2\n        /* \"#utility.yul\":23349:23353   */\n      dup2\n        /* \"#utility.yul\":23345:23365   */\n      sub\n        /* \"#utility.yul\":23341:23342   */\n      0x00\n        /* \"#utility.yul\":23330:23339   */\n      dup4\n        /* \"#utility.yul\":23326:23343   */\n      add\n        /* \"#utility.yul\":23319:23366   */\n      mstore\n        /* \"#utility.yul\":23383:23514   */\n      tag_410\n        /* \"#utility.yul\":23509:23513   */\n      dup2\n        /* \"#utility.yul\":23383:23514   */\n      tag_189\n      jump\t// in\n    tag_410:\n        /* \"#utility.yul\":23375:23514   */\n      swap1\n      pop\n        /* \"#utility.yul\":23102:23521   */\n      swap2\n      swap1\n      pop\n      jump\t// out\n\n    auxdata: 0xa264697066735822122051bcc9c6cadbf4a82ce3fe39120ff2b9278a92b2998464d586c29fb1b728cd3864736f6c63430008120033\n}\n",
				"bytecode": {
					"linkReferences": {},
					"object": "608060405234801561001057600080fd5b50336000806101000a81548173ffffffffffffffffffffffffffffffffffffffff021916908373ffffffffffffffffffffffffffffffffffffffff16021790555061177a806100606000396000f3fe608060405234801561001057600080fd5b506004361061007d5760003560e01c80638da5cb5b1161005b5780638da5cb5b146100c6578063ee416d5b146100e4578063f2fde38b14610100578063ff657f5f1461011c5761007d565b80634d0a5dbd146100825780635b4a8a951461009e57806383197ef0146100bc575b600080fd5b61009c60048036038101906100979190610b88565b610138565b005b6100a6610228565b6040516100b39190610e23565b60405180910390f35b6100c46106b6565b005b6100ce6106d7565b6040516100db9190610e54565b60405180910390f35b6100fe60048036038101906100f99190610e9b565b610700565b005b61011a60048036038101906101159190610b88565b6107d3565b005b610136600480360381019061013191906111bb565b610856565b005b6101406109d3565b600260008273ffffffffffffffffffffffffffffffffffffffff1673ffffffffffffffffffffffffffffffffffffffff16815260200190815260200160002060009054906101000a900460ff16156101cd576040517f08c379a00000000000000000000000000000000000000000000000000000000081526004016101c490611287565b60405180910390fd5b6001600260008373ffffffffffffffffffffffffffffffffffffffff1673ffffffffffffffffffffffffffffffffffffffff16815260200190815260200160002060006101000a81548160ff02191690831515021790555050565b606060026000610236610a4a565b73ffffffffffffffffffffffffffffffffffffffff1673ffffffffffffffffffffffffffffffffffffffff16815260200190815260200160002060009054906101000a900460ff166102bd576040517f08c379a00000000000000000000000000000000000000000000000000000000081526004016102b490611319565b60405180910390fd5b6001805480602002602001604051908101604052809291908181526020016000905b828210156106ad5783829060005260206000209060090201604051806101200160405290816000820154815260200160018201805461031d90611368565b80601f016020809104026020016040519081016040528092919081815260200182805461034990611368565b80156103965780601f1061036b57610100808354040283529160200191610396565b820191906000526020600020905b81548152906001019060200180831161037957829003601f168201915b505050505081526020016002820180546103af90611368565b80601f01602080910402602001604051908101604052809291908181526020018280546103db90611368565b80156104285780601f106103fd57610100808354040283529160200191610428565b820191906000526020600020905b81548152906001019060200180831161040b57829003601f168201915b5050505050815260200160038201805461044190611368565b80601f016020809104026020016040519081016040528092919081815260200182805461046d90611368565b80156104ba5780601f1061048f576101008083540402835291602001916104ba565b820191906000526020600020905b81548152906001019060200180831161049d57829003601f168201915b505050505081526020016004820180546104d390611368565b80601f01602080910402602001604051908101604052809291908181526020018280546104ff90611368565b801561054c5780601f106105215761010080835404028352916020019161054c565b820191906000526020600020905b81548152906001019060200180831161052f57829003601f168201915b5050505050815260200160058201805461056590611368565b80601f016020809104026020016040519081016040528092919081815260200182805461059190611368565b80156105de5780601f106105b3576101008083540402835291602001916105de565b820191906000526020600020905b8154815290600101906020018083116105c157829003601f168201915b505050505081526020016006820154815260200160078201805461060190611368565b80601f016020809104026020016040519081016040528092919081815260200182805461062d90611368565b801561067a5780601f1061064f5761010080835404028352916020019161067a565b820191906000526020600020905b81548152906001019060200180831161065d57829003601f168201915b505050505081526020016008820160009054906101000a900460ff161515151581525050815260200190600101906102df565b50505050905090565b6106be6109d3565b3073ffffffffffffffffffffffffffffffffffffffff16ff5b60008060009054906101000a900473ffffffffffffffffffffffffffffffffffffffff16905090565b6002600061070c610a4a565b73ffffffffffffffffffffffffffffffffffffffff1673ffffffffffffffffffffffffffffffffffffffff16815260200190815260200160002060009054906101000a900460ff16610793576040517f08c379a000000000000000000000000000000000000000000000000000000000815260040161078a90611319565b60405180910390fd5b60018082815481106107a8576107a7611399565b5b906000526020600020906009020160080160006101000a81548160ff02191690831515021790555050565b6107db6109d3565b600073ffffffffffffffffffffffffffffffffffffffff168173ffffffffffffffffffffffffffffffffffffffff160361084a576040517f08c379a00000000000000000000000000000000000000000000000000000000081526004016108419061143a565b60405180910390fd5b61085381610a52565b50565b60026000610862610a4a565b73ffffffffffffffffffffffffffffffffffffffff1673ffffffffffffffffffffffffffffffffffffffff16815260200190815260200160002060009054906101000a900460ff166108e9576040517f08c379a00000000000000000000000000000000000000000000000000000000081526004016108e090611319565b60405180910390fd5b60018190806001815401808255809150506001900390600052602060002090600902016000909190919091506000820151816000015560208201518160010190816109349190611606565b50604082015181600201908161094a9190611606565b5060608201518160030190816109609190611606565b5060808201518160040190816109769190611606565b5060a082015181600501908161098c9190611606565b5060c0820151816006015560e08201518160070190816109ac9190611606565b506101008201518160080160006101000a81548160ff021916908315150217905550505050565b3373ffffffffffffffffffffffffffffffffffffffff166109f26106d7565b73ffffffffffffffffffffffffffffffffffffffff1614610a48576040517f08c379a0000000000000000000000000000000000000000000000000000000008152600401610a3f90611724565b60405180910390fd5b565b600033905090565b60008060009054906101000a900473ffffffffffffffffffffffffffffffffffffffff169050816000806101000a81548173ffffffffffffffffffffffffffffffffffffffff021916908373ffffffffffffffffffffffffffffffffffffffff1602179055508173ffffffffffffffffffffffffffffffffffffffff168173ffffffffffffffffffffffffffffffffffffffff167f8be0079c531659141344cd1fd0a4f28419497f9722a3daafe3b4186f6b6457e060405160405180910390a35050565b6000604051905090565b600080fd5b600080fd5b600073ffffffffffffffffffffffffffffffffffffffff82169050919050565b6000610b5582610b2a565b9050919050565b610b6581610b4a565b8114610b7057600080fd5b50565b600081359050610b8281610b5c565b92915050565b600060208284031215610b9e57610b9d610b20565b5b6000610bac84828501610b73565b91505092915050565b600081519050919050565b600082825260208201905092915050565b6000819050602082019050919050565b6000819050919050565b610bf481610be1565b82525050565b600081519050919050565b600082825260208201905092915050565b60005b83811015610c34578082015181840152602081019050610c19565b60008484015250505050565b6000601f19601f8301169050919050565b6000610c5c82610bfa565b610c668185610c05565b9350610c76818560208601610c16565b610c7f81610c40565b840191505092915050565b60008115159050919050565b610c9f81610c8a565b82525050565b600061012083016000830151610cbe6000860182610beb565b5060208301518482036020860152610cd68282610c51565b91505060408301518482036040860152610cf08282610c51565b91505060608301518482036060860152610d0a8282610c51565b91505060808301518482036080860152610d248282610c51565b91505060a083015184820360a0860152610d3e8282610c51565b91505060c0830151610d5360c0860182610beb565b5060e083015184820360e0860152610d6b8282610c51565b915050610100830151610d82610100860182610c96565b508091505092915050565b6000610d998383610ca5565b905092915050565b6000602082019050919050565b6000610db982610bb5565b610dc38185610bc0565b935083602082028501610dd585610bd1565b8060005b85811015610e115784840389528151610df28582610d8d565b9450610dfd83610da1565b925060208a01995050600181019050610dd9565b50829750879550505050505092915050565b60006020820190508181036000830152610e3d8184610dae565b905092915050565b610e4e81610b4a565b82525050565b6000602082019050610e696000830184610e45565b92915050565b610e7881610be1565b8114610e8357600080fd5b50565b600081359050610e9581610e6f565b92915050565b600060208284031215610eb157610eb0610b20565b5b6000610ebf84828501610e86565b91505092915050565b600080fd5b7f4e487b7100000000000000000000000000000000000000000000000000000000600052604160045260246000fd5b610f0582610c40565b810181811067ffffffffffffffff82111715610f2457610f23610ecd565b5b80604052505050565b6000610f37610b16565b9050610f438282610efc565b919050565b600080fd5b600080fd5b600080fd5b600067ffffffffffffffff821115610f7257610f71610ecd565b5b610f7b82610c40565b9050602081019050919050565b82818337600083830152505050565b6000610faa610fa584610f57565b610f2d565b905082815260208101848484011115610fc657610fc5610f52565b5b610fd1848285610f88565b509392505050565b600082601f830112610fee57610fed610f4d565b5b8135610ffe848260208601610f97565b91505092915050565b61101081610c8a565b811461101b57600080fd5b50565b60008135905061102d81611007565b92915050565b6000610120828403121561104a57611049610ec8565b5b611055610120610f2d565b9050600061106584828501610e86565b600083015250602082013567ffffffffffffffff81111561108957611088610f48565b5b61109584828501610fd9565b602083015250604082013567ffffffffffffffff8111156110b9576110b8610f48565b5b6110c584828501610fd9565b604083015250606082013567ffffffffffffffff8111156110e9576110e8610f48565b5b6110f584828501610fd9565b606083015250608082013567ffffffffffffffff81111561111957611118610f48565b5b61112584828501610fd9565b60808301525060a082013567ffffffffffffffff81111561114957611148610f48565b5b61115584828501610fd9565b60a08301525060c061116984828501610e86565b60c08301525060e082013567ffffffffffffffff81111561118d5761118c610f48565b5b61119984828501610fd9565b60e0830152506101006111ae8482850161101e565b6101008301525092915050565b6000602082840312156111d1576111d0610b20565b5b600082013567ffffffffffffffff8111156111ef576111ee610b25565b5b6111fb84828501611033565b91505092915050565b600082825260208201905092915050565b7f537465703544617461626173653a207065726d697373696f6e2068617320626560008201527f656e206772616e74656400000000000000000000000000000000000000000000602082015250565b6000611271602a83611204565b915061127c82611215565b604082019050919050565b600060208201905081810360008301526112a081611264565b9050919050565b7f537465703544617461626173653a206f6e6c7920636f6e74726163742077686960008201527f63682061726520616c6c6f776564000000000000000000000000000000000000602082015250565b6000611303602e83611204565b915061130e826112a7565b604082019050919050565b60006020820190508181036000830152611332816112f6565b9050919050565b7f4e487b7100000000000000000000000000000000000000000000000000000000600052602260045260246000fd5b6000600282049050600182168061138057607f821691505b60208210810361139357611392611339565b5b50919050565b7f4e487b7100000000000000000000000000000000000000000000000000000000600052603260045260246000fd5b7f4f776e61626c653a206e6577206f776e657220697320746865207a65726f206160008201527f6464726573730000000000000000000000000000000000000000000000000000602082015250565b6000611424602683611204565b915061142f826113c8565b604082019050919050565b6000602082019050818103600083015261145381611417565b9050919050565b60008190508160005260206000209050919050565b60006020601f8301049050919050565b600082821b905092915050565b6000600883026114bc7fffffffffffffffffffffffffffffffffffffffffffffffffffffffffffffffff8261147f565b6114c6868361147f565b95508019841693508086168417925050509392505050565b6000819050919050565b60006115036114fe6114f984610be1565b6114de565b610be1565b9050919050565b6000819050919050565b61151d836114e8565b6115316115298261150a565b84845461148c565b825550505050565b600090565b611546611539565b611551818484611514565b505050565b5b818110156115755761156a60008261153e565b600181019050611557565b5050565b601f8211156115ba5761158b8161145a565b6115948461146f565b810160208510156115a3578190505b6115b76115af8561146f565b830182611556565b50505b505050565b600082821c905092915050565b60006115dd600019846008026115bf565b1980831691505092915050565b60006115f683836115cc565b9150826002028217905092915050565b61160f82610bfa565b67ffffffffffffffff81111561162857611627610ecd565b5b6116328254611368565b61163d828285611579565b600060209050601f831160018114611670576000841561165e578287015190505b61166885826115ea565b8655506116d0565b601f19841661167e8661145a565b60005b828110156116a657848901518255600182019150602085019450602081019050611681565b868310156116c357848901516116bf601f8916826115cc565b8355505b6001600288020188555050505b505050505050565b7f4f776e61626c653a2063616c6c6572206973206e6f7420746865206f776e6572600082015250565b600061170e602083611204565b9150611719826116d8565b602082019050919050565b6000602082019050818103600083015261173d81611701565b905091905056fea264697066735822122051bcc9c6cadbf4a82ce3fe39120ff2b9278a92b2998464d586c29fb1b728cd3864736f6c63430008120033",
					"opcodes": "PUSH1 0x80 PUSH1 0x40 MSTORE CALLVALUE DUP1 ISZERO PUSH2 0x10 JUMPI PUSH1 0x0 DUP1 REVERT JUMPDEST POP CALLER PUSH1 0x0 DUP1 PUSH2 0x100 EXP DUP2 SLOAD DUP2 PUSH20 0xFFFFFFFFFFFFFFFFFFFFFFFFFFFFFFFFFFFFFFFF MUL NOT AND SWAP1 DUP4 PUSH20 0xFFFFFFFFFFFFFFFFFFFFFFFFFFFFFFFFFFFFFFFF AND MUL OR SWAP1 SSTORE POP PUSH2 0x177A DUP1 PUSH2 0x60 PUSH1 0x0 CODECOPY PUSH1 0x0 RETURN INVALID PUSH1 0x80 PUSH1 0x40 MSTORE CALLVALUE DUP1 ISZERO PUSH2 0x10 JUMPI PUSH1 0x0 DUP1 REVERT JUMPDEST POP PUSH1 0x4 CALLDATASIZE LT PUSH2 0x7D JUMPI PUSH1 0x0 CALLDATALOAD PUSH1 0xE0 SHR DUP1 PUSH4 0x8DA5CB5B GT PUSH2 0x5B JUMPI DUP1 PUSH4 0x8DA5CB5B EQ PUSH2 0xC6 JUMPI DUP1 PUSH4 0xEE416D5B EQ PUSH2 0xE4 JUMPI DUP1 PUSH4 0xF2FDE38B EQ PUSH2 0x100 JUMPI DUP1 PUSH4 0xFF657F5F EQ PUSH2 0x11C JUMPI PUSH2 0x7D JUMP JUMPDEST DUP1 PUSH4 0x4D0A5DBD EQ PUSH2 0x82 JUMPI DUP1 PUSH4 0x5B4A8A95 EQ PUSH2 0x9E JUMPI DUP1 PUSH4 0x83197EF0 EQ PUSH2 0xBC JUMPI JUMPDEST PUSH1 0x0 DUP1 REVERT JUMPDEST PUSH2 0x9C PUSH1 0x4 DUP1 CALLDATASIZE SUB DUP2 ADD SWAP1 PUSH2 0x97 SWAP2 SWAP1 PUSH2 0xB88 JUMP JUMPDEST PUSH2 0x138 JUMP JUMPDEST STOP JUMPDEST PUSH2 0xA6 PUSH2 0x228 JUMP JUMPDEST PUSH1 0x40 MLOAD PUSH2 0xB3 SWAP2 SWAP1 PUSH2 0xE23 JUMP JUMPDEST PUSH1 0x40 MLOAD DUP1 SWAP2 SUB SWAP1 RETURN JUMPDEST PUSH2 0xC4 PUSH2 0x6B6 JUMP JUMPDEST STOP JUMPDEST PUSH2 0xCE PUSH2 0x6D7 JUMP JUMPDEST PUSH1 0x40 MLOAD PUSH2 0xDB SWAP2 SWAP1 PUSH2 0xE54 JUMP JUMPDEST PUSH1 0x40 MLOAD DUP1 SWAP2 SUB SWAP1 RETURN JUMPDEST PUSH2 0xFE PUSH1 0x4 DUP1 CALLDATASIZE SUB DUP2 ADD SWAP1 PUSH2 0xF9 SWAP2 SWAP1 PUSH2 0xE9B JUMP JUMPDEST PUSH2 0x700 JUMP JUMPDEST STOP JUMPDEST PUSH2 0x11A PUSH1 0x4 DUP1 CALLDATASIZE SUB DUP2 ADD SWAP1 PUSH2 0x115 SWAP2 SWAP1 PUSH2 0xB88 JUMP JUMPDEST PUSH2 0x7D3 JUMP JUMPDEST STOP JUMPDEST PUSH2 0x136 PUSH1 0x4 DUP1 CALLDATASIZE SUB DUP2 ADD SWAP1 PUSH2 0x131 SWAP2 SWAP1 PUSH2 0x11BB JUMP JUMPDEST PUSH2 0x856 JUMP JUMPDEST STOP JUMPDEST PUSH2 0x140 PUSH2 0x9D3 JUMP JUMPDEST PUSH1 0x2 PUSH1 0x0 DUP3 PUSH20 0xFFFFFFFFFFFFFFFFFFFFFFFFFFFFFFFFFFFFFFFF AND PUSH20 0xFFFFFFFFFFFFFFFFFFFFFFFFFFFFFFFFFFFFFFFF AND DUP2 MSTORE PUSH1 0x20 ADD SWAP1 DUP2 MSTORE PUSH1 0x20 ADD PUSH1 0x0 KECCAK256 PUSH1 0x0 SWAP1 SLOAD SWAP1 PUSH2 0x100 EXP SWAP1 DIV PUSH1 0xFF AND ISZERO PUSH2 0x1CD JUMPI PUSH1 0x40 MLOAD PUSH32 0x8C379A000000000000000000000000000000000000000000000000000000000 DUP2 MSTORE PUSH1 0x4 ADD PUSH2 0x1C4 SWAP1 PUSH2 0x1287 JUMP JUMPDEST PUSH1 0x40 MLOAD DUP1 SWAP2 SUB SWAP1 REVERT JUMPDEST PUSH1 0x1 PUSH1 0x2 PUSH1 0x0 DUP4 PUSH20 0xFFFFFFFFFFFFFFFFFFFFFFFFFFFFFFFFFFFFFFFF AND PUSH20 0xFFFFFFFFFFFFFFFFFFFFFFFFFFFFFFFFFFFFFFFF AND DUP2 MSTORE PUSH1 0x20 ADD SWAP1 DUP2 MSTORE PUSH1 0x20 ADD PUSH1 0x0 KECCAK256 PUSH1 0x0 PUSH2 0x100 EXP DUP2 SLOAD DUP2 PUSH1 0xFF MUL NOT AND SWAP1 DUP4 ISZERO ISZERO MUL OR SWAP1 SSTORE POP POP JUMP JUMPDEST PUSH1 0x60 PUSH1 0x2 PUSH1 0x0 PUSH2 0x236 PUSH2 0xA4A JUMP JUMPDEST PUSH20 0xFFFFFFFFFFFFFFFFFFFFFFFFFFFFFFFFFFFFFFFF AND PUSH20 0xFFFFFFFFFFFFFFFFFFFFFFFFFFFFFFFFFFFFFFFF AND DUP2 MSTORE PUSH1 0x20 ADD SWAP1 DUP2 MSTORE PUSH1 0x20 ADD PUSH1 0x0 KECCAK256 PUSH1 0x0 SWAP1 SLOAD SWAP1 PUSH2 0x100 EXP SWAP1 DIV PUSH1 0xFF AND PUSH2 0x2BD JUMPI PUSH1 0x40 MLOAD PUSH32 0x8C379A000000000000000000000000000000000000000000000000000000000 DUP2 MSTORE PUSH1 0x4 ADD PUSH2 0x2B4 SWAP1 PUSH2 0x1319 JUMP JUMPDEST PUSH1 0x40 MLOAD DUP1 SWAP2 SUB SWAP1 REVERT JUMPDEST PUSH1 0x1 DUP1 SLOAD DUP1 PUSH1 0x20 MUL PUSH1 0x20 ADD PUSH1 0x40 MLOAD SWAP1 DUP2 ADD PUSH1 0x40 MSTORE DUP1 SWAP3 SWAP2 SWAP1 DUP2 DUP2 MSTORE PUSH1 0x20 ADD PUSH1 0x0 SWAP1 JUMPDEST DUP3 DUP3 LT ISZERO PUSH2 0x6AD JUMPI DUP4 DUP3 SWAP1 PUSH1 0x0 MSTORE PUSH1 0x20 PUSH1 0x0 KECCAK256 SWAP1 PUSH1 0x9 MUL ADD PUSH1 0x40 MLOAD DUP1 PUSH2 0x120 ADD PUSH1 0x40 MSTORE SWAP1 DUP2 PUSH1 0x0 DUP3 ADD SLOAD DUP2 MSTORE PUSH1 0x20 ADD PUSH1 0x1 DUP3 ADD DUP1 SLOAD PUSH2 0x31D SWAP1 PUSH2 0x1368 JUMP JUMPDEST DUP1 PUSH1 0x1F ADD PUSH1 0x20 DUP1 SWAP2 DIV MUL PUSH1 0x20 ADD PUSH1 0x40 MLOAD SWAP1 DUP2 ADD PUSH1 0x40 MSTORE DUP1 SWAP3 SWAP2 SWAP1 DUP2 DUP2 MSTORE PUSH1 0x20 ADD DUP3 DUP1 SLOAD PUSH2 0x349 SWAP1 PUSH2 0x1368 JUMP JUMPDEST DUP1 ISZERO PUSH2 0x396 JUMPI DUP1 PUSH1 0x1F LT PUSH2 0x36B JUMPI PUSH2 0x100 DUP1 DUP4 SLOAD DIV MUL DUP4 MSTORE SWAP2 PUSH1 0x20 ADD SWAP2 PUSH2 0x396 JUMP JUMPDEST DUP3 ADD SWAP2 SWAP1 PUSH1 0x0 MSTORE PUSH1 0x20 PUSH1 0x0 KECCAK256 SWAP1 JUMPDEST DUP2 SLOAD DUP2 MSTORE SWAP1 PUSH1 0x1 ADD SWAP1 PUSH1 0x20 ADD DUP1 DUP4 GT PUSH2 0x379 JUMPI DUP3 SWAP1 SUB PUSH1 0x1F AND DUP3 ADD SWAP2 JUMPDEST POP POP POP POP POP DUP2 MSTORE PUSH1 0x20 ADD PUSH1 0x2 DUP3 ADD DUP1 SLOAD PUSH2 0x3AF SWAP1 PUSH2 0x1368 JUMP JUMPDEST DUP1 PUSH1 0x1F ADD PUSH1 0x20 DUP1 SWAP2 DIV MUL PUSH1 0x20 ADD PUSH1 0x40 MLOAD SWAP1 DUP2 ADD PUSH1 0x40 MSTORE DUP1 SWAP3 SWAP2 SWAP1 DUP2 DUP2 MSTORE PUSH1 0x20 ADD DUP3 DUP1 SLOAD PUSH2 0x3DB SWAP1 PUSH2 0x1368 JUMP JUMPDEST DUP1 ISZERO PUSH2 0x428 JUMPI DUP1 PUSH1 0x1F LT PUSH2 0x3FD JUMPI PUSH2 0x100 DUP1 DUP4 SLOAD DIV MUL DUP4 MSTORE SWAP2 PUSH1 0x20 ADD SWAP2 PUSH2 0x428 JUMP JUMPDEST DUP3 ADD SWAP2 SWAP1 PUSH1 0x0 MSTORE PUSH1 0x20 PUSH1 0x0 KECCAK256 SWAP1 JUMPDEST DUP2 SLOAD DUP2 MSTORE SWAP1 PUSH1 0x1 ADD SWAP1 PUSH1 0x20 ADD DUP1 DUP4 GT PUSH2 0x40B JUMPI DUP3 SWAP1 SUB PUSH1 0x1F AND DUP3 ADD SWAP2 JUMPDEST POP POP POP POP POP DUP2 MSTORE PUSH1 0x20 ADD PUSH1 0x3 DUP3 ADD DUP1 SLOAD PUSH2 0x441 SWAP1 PUSH2 0x1368 JUMP JUMPDEST DUP1 PUSH1 0x1F ADD PUSH1 0x20 DUP1 SWAP2 DIV MUL PUSH1 0x20 ADD PUSH1 0x40 MLOAD SWAP1 DUP2 ADD PUSH1 0x40 MSTORE DUP1 SWAP3 SWAP2 SWAP1 DUP2 DUP2 MSTORE PUSH1 0x20 ADD DUP3 DUP1 SLOAD PUSH2 0x46D SWAP1 PUSH2 0x1368 JUMP JUMPDEST DUP1 ISZERO PUSH2 0x4BA JUMPI DUP1 PUSH1 0x1F LT PUSH2 0x48F JUMPI PUSH2 0x100 DUP1 DUP4 SLOAD DIV MUL DUP4 MSTORE SWAP2 PUSH1 0x20 ADD SWAP2 PUSH2 0x4BA JUMP JUMPDEST DUP3 ADD SWAP2 SWAP1 PUSH1 0x0 MSTORE PUSH1 0x20 PUSH1 0x0 KECCAK256 SWAP1 JUMPDEST DUP2 SLOAD DUP2 MSTORE SWAP1 PUSH1 0x1 ADD SWAP1 PUSH1 0x20 ADD DUP1 DUP4 GT PUSH2 0x49D JUMPI DUP3 SWAP1 SUB PUSH1 0x1F AND DUP3 ADD SWAP2 JUMPDEST POP POP POP POP POP DUP2 MSTORE PUSH1 0x20 ADD PUSH1 0x4 DUP3 ADD DUP1 SLOAD PUSH2 0x4D3 SWAP1 PUSH2 0x1368 JUMP JUMPDEST DUP1 PUSH1 0x1F ADD PUSH1 0x20 DUP1 SWAP2 DIV MUL PUSH1 0x20 ADD PUSH1 0x40 MLOAD SWAP1 DUP2 ADD PUSH1 0x40 MSTORE DUP1 SWAP3 SWAP2 SWAP1 DUP2 DUP2 MSTORE PUSH1 0x20 ADD DUP3 DUP1 SLOAD PUSH2 0x4FF SWAP1 PUSH2 0x1368 JUMP JUMPDEST DUP1 ISZERO PUSH2 0x54C JUMPI DUP1 PUSH1 0x1F LT PUSH2 0x521 JUMPI PUSH2 0x100 DUP1 DUP4 SLOAD DIV MUL DUP4 MSTORE SWAP2 PUSH1 0x20 ADD SWAP2 PUSH2 0x54C JUMP JUMPDEST DUP3 ADD SWAP2 SWAP1 PUSH1 0x0 MSTORE PUSH1 0x20 PUSH1 0x0 KECCAK256 SWAP1 JUMPDEST DUP2 SLOAD DUP2 MSTORE SWAP1 PUSH1 0x1 ADD SWAP1 PUSH1 0x20 ADD DUP1 DUP4 GT PUSH2 0x52F JUMPI DUP3 SWAP1 SUB PUSH1 0x1F AND DUP3 ADD SWAP2 JUMPDEST POP POP POP POP POP DUP2 MSTORE PUSH1 0x20 ADD PUSH1 0x5 DUP3 ADD DUP1 SLOAD PUSH2 0x565 SWAP1 PUSH2 0x1368 JUMP JUMPDEST DUP1 PUSH1 0x1F ADD PUSH1 0x20 DUP1 SWAP2 DIV MUL PUSH1 0x20 ADD PUSH1 0x40 MLOAD SWAP1 DUP2 ADD PUSH1 0x40 MSTORE DUP1 SWAP3 SWAP2 SWAP1 DUP2 DUP2 MSTORE PUSH1 0x20 ADD DUP3 DUP1 SLOAD PUSH2 0x591 SWAP1 PUSH2 0x1368 JUMP JUMPDEST DUP1 ISZERO PUSH2 0x5DE JUMPI DUP1 PUSH1 0x1F LT PUSH2 0x5B3 JUMPI PUSH2 0x100 DUP1 DUP4 SLOAD DIV MUL DUP4 MSTORE SWAP2 PUSH1 0x20 ADD SWAP2 PUSH2 0x5DE JUMP JUMPDEST DUP3 ADD SWAP2 SWAP1 PUSH1 0x0 MSTORE PUSH1 0x20 PUSH1 0x0 KECCAK256 SWAP1 JUMPDEST DUP2 SLOAD DUP2 MSTORE SWAP1 PUSH1 0x1 ADD SWAP1 PUSH1 0x20 ADD DUP1 DUP4 GT PUSH2 0x5C1 JUMPI DUP3 SWAP1 SUB PUSH1 0x1F AND DUP3 ADD SWAP2 JUMPDEST POP POP POP POP POP DUP2 MSTORE PUSH1 0x20 ADD PUSH1 0x6 DUP3 ADD SLOAD DUP2 MSTORE PUSH1 0x20 ADD PUSH1 0x7 DUP3 ADD DUP1 SLOAD PUSH2 0x601 SWAP1 PUSH2 0x1368 JUMP JUMPDEST DUP1 PUSH1 0x1F ADD PUSH1 0x20 DUP1 SWAP2 DIV MUL PUSH1 0x20 ADD PUSH1 0x40 MLOAD SWAP1 DUP2 ADD PUSH1 0x40 MSTORE DUP1 SWAP3 SWAP2 SWAP1 DUP2 DUP2 MSTORE PUSH1 0x20 ADD DUP3 DUP1 SLOAD PUSH2 0x62D SWAP1 PUSH2 0x1368 JUMP JUMPDEST DUP1 ISZERO PUSH2 0x67A JUMPI DUP1 PUSH1 0x1F LT PUSH2 0x64F JUMPI PUSH2 0x100 DUP1 DUP4 SLOAD DIV MUL DUP4 MSTORE SWAP2 PUSH1 0x20 ADD SWAP2 PUSH2 0x67A JUMP JUMPDEST DUP3 ADD SWAP2 SWAP1 PUSH1 0x0 MSTORE PUSH1 0x20 PUSH1 0x0 KECCAK256 SWAP1 JUMPDEST DUP2 SLOAD DUP2 MSTORE SWAP1 PUSH1 0x1 ADD SWAP1 PUSH1 0x20 ADD DUP1 DUP4 GT PUSH2 0x65D JUMPI DUP3 SWAP1 SUB PUSH1 0x1F AND DUP3 ADD SWAP2 JUMPDEST POP POP POP POP POP DUP2 MSTORE PUSH1 0x20 ADD PUSH1 0x8 DUP3 ADD PUSH1 0x0 SWAP1 SLOAD SWAP1 PUSH2 0x100 EXP SWAP1 DIV PUSH1 0xFF AND ISZERO ISZERO ISZERO ISZERO DUP2 MSTORE POP POP DUP2 MSTORE PUSH1 0x20 ADD SWAP1 PUSH1 0x1 ADD SWAP1 PUSH2 0x2DF JUMP JUMPDEST POP POP POP POP SWAP1 POP SWAP1 JUMP JUMPDEST PUSH2 0x6BE PUSH2 0x9D3 JUMP JUMPDEST ADDRESS PUSH20 0xFFFFFFFFFFFFFFFFFFFFFFFFFFFFFFFFFFFFFFFF AND SELFDESTRUCT JUMPDEST PUSH1 0x0 DUP1 PUSH1 0x0 SWAP1 SLOAD SWAP1 PUSH2 0x100 EXP SWAP1 DIV PUSH20 0xFFFFFFFFFFFFFFFFFFFFFFFFFFFFFFFFFFFFFFFF AND SWAP1 POP SWAP1 JUMP JUMPDEST PUSH1 0x2 PUSH1 0x0 PUSH2 0x70C PUSH2 0xA4A JUMP JUMPDEST PUSH20 0xFFFFFFFFFFFFFFFFFFFFFFFFFFFFFFFFFFFFFFFF AND PUSH20 0xFFFFFFFFFFFFFFFFFFFFFFFFFFFFFFFFFFFFFFFF AND DUP2 MSTORE PUSH1 0x20 ADD SWAP1 DUP2 MSTORE PUSH1 0x20 ADD PUSH1 0x0 KECCAK256 PUSH1 0x0 SWAP1 SLOAD SWAP1 PUSH2 0x100 EXP SWAP1 DIV PUSH1 0xFF AND PUSH2 0x793 JUMPI PUSH1 0x40 MLOAD PUSH32 0x8C379A000000000000000000000000000000000000000000000000000000000 DUP2 MSTORE PUSH1 0x4 ADD PUSH2 0x78A SWAP1 PUSH2 0x1319 JUMP JUMPDEST PUSH1 0x40 MLOAD DUP1 SWAP2 SUB SWAP1 REVERT JUMPDEST PUSH1 0x1 DUP1 DUP3 DUP2 SLOAD DUP2 LT PUSH2 0x7A8 JUMPI PUSH2 0x7A7 PUSH2 0x1399 JUMP JUMPDEST JUMPDEST SWAP1 PUSH1 0x0 MSTORE PUSH1 0x20 PUSH1 0x0 KECCAK256 SWAP1 PUSH1 0x9 MUL ADD PUSH1 0x8 ADD PUSH1 0x0 PUSH2 0x100 EXP DUP2 SLOAD DUP2 PUSH1 0xFF MUL NOT AND SWAP1 DUP4 ISZERO ISZERO MUL OR SWAP1 SSTORE POP POP JUMP JUMPDEST PUSH2 0x7DB PUSH2 0x9D3 JUMP JUMPDEST PUSH1 0x0 PUSH20 0xFFFFFFFFFFFFFFFFFFFFFFFFFFFFFFFFFFFFFFFF AND DUP2 PUSH20 0xFFFFFFFFFFFFFFFFFFFFFFFFFFFFFFFFFFFFFFFF AND SUB PUSH2 0x84A JUMPI PUSH1 0x40 MLOAD PUSH32 0x8C379A000000000000000000000000000000000000000000000000000000000 DUP2 MSTORE PUSH1 0x4 ADD PUSH2 0x841 SWAP1 PUSH2 0x143A JUMP JUMPDEST PUSH1 0x40 MLOAD DUP1 SWAP2 SUB SWAP1 REVERT JUMPDEST PUSH2 0x853 DUP2 PUSH2 0xA52 JUMP JUMPDEST POP JUMP JUMPDEST PUSH1 0x2 PUSH1 0x0 PUSH2 0x862 PUSH2 0xA4A JUMP JUMPDEST PUSH20 0xFFFFFFFFFFFFFFFFFFFFFFFFFFFFFFFFFFFFFFFF AND PUSH20 0xFFFFFFFFFFFFFFFFFFFFFFFFFFFFFFFFFFFFFFFF AND DUP2 MSTORE PUSH1 0x20 ADD SWAP1 DUP2 MSTORE PUSH1 0x20 ADD PUSH1 0x0 KECCAK256 PUSH1 0x0 SWAP1 SLOAD SWAP1 PUSH2 0x100 EXP SWAP1 DIV PUSH1 0xFF AND PUSH2 0x8E9 JUMPI PUSH1 0x40 MLOAD PUSH32 0x8C379A000000000000000000000000000000000000000000000000000000000 DUP2 MSTORE PUSH1 0x4 ADD PUSH2 0x8E0 SWAP1 PUSH2 0x1319 JUMP JUMPDEST PUSH1 0x40 MLOAD DUP1 SWAP2 SUB SWAP1 REVERT JUMPDEST PUSH1 0x1 DUP2 SWAP1 DUP1 PUSH1 0x1 DUP2 SLOAD ADD DUP1 DUP3 SSTORE DUP1 SWAP2 POP POP PUSH1 0x1 SWAP1 SUB SWAP1 PUSH1 0x0 MSTORE PUSH1 0x20 PUSH1 0x0 KECCAK256 SWAP1 PUSH1 0x9 MUL ADD PUSH1 0x0 SWAP1 SWAP2 SWAP1 SWAP2 SWAP1 SWAP2 POP PUSH1 0x0 DUP3 ADD MLOAD DUP2 PUSH1 0x0 ADD SSTORE PUSH1 0x20 DUP3 ADD MLOAD DUP2 PUSH1 0x1 ADD SWAP1 DUP2 PUSH2 0x934 SWAP2 SWAP1 PUSH2 0x1606 JUMP JUMPDEST POP PUSH1 0x40 DUP3 ADD MLOAD DUP2 PUSH1 0x2 ADD SWAP1 DUP2 PUSH2 0x94A SWAP2 SWAP1 PUSH2 0x1606 JUMP JUMPDEST POP PUSH1 0x60 DUP3 ADD MLOAD DUP2 PUSH1 0x3 ADD SWAP1 DUP2 PUSH2 0x960 SWAP2 SWAP1 PUSH2 0x1606 JUMP JUMPDEST POP PUSH1 0x80 DUP3 ADD MLOAD DUP2 PUSH1 0x4 ADD SWAP1 DUP2 PUSH2 0x976 SWAP2 SWAP1 PUSH2 0x1606 JUMP JUMPDEST POP PUSH1 0xA0 DUP3 ADD MLOAD DUP2 PUSH1 0x5 ADD SWAP1 DUP2 PUSH2 0x98C SWAP2 SWAP1 PUSH2 0x1606 JUMP JUMPDEST POP PUSH1 0xC0 DUP3 ADD MLOAD DUP2 PUSH1 0x6 ADD SSTORE PUSH1 0xE0 DUP3 ADD MLOAD DUP2 PUSH1 0x7 ADD SWAP1 DUP2 PUSH2 0x9AC SWAP2 SWAP1 PUSH2 0x1606 JUMP JUMPDEST POP PUSH2 0x100 DUP3 ADD MLOAD DUP2 PUSH1 0x8 ADD PUSH1 0x0 PUSH2 0x100 EXP DUP2 SLOAD DUP2 PUSH1 0xFF MUL NOT AND SWAP1 DUP4 ISZERO ISZERO MUL OR SWAP1 SSTORE POP POP POP POP JUMP JUMPDEST CALLER PUSH20 0xFFFFFFFFFFFFFFFFFFFFFFFFFFFFFFFFFFFFFFFF AND PUSH2 0x9F2 PUSH2 0x6D7 JUMP JUMPDEST PUSH20 0xFFFFFFFFFFFFFFFFFFFFFFFFFFFFFFFFFFFFFFFF AND EQ PUSH2 0xA48 JUMPI PUSH1 0x40 MLOAD PUSH32 0x8C379A000000000000000000000000000000000000000000000000000000000 DUP2 MSTORE PUSH1 0x4 ADD PUSH2 0xA3F SWAP1 PUSH2 0x1724 JUMP JUMPDEST PUSH1 0x40 MLOAD DUP1 SWAP2 SUB SWAP1 REVERT JUMPDEST JUMP JUMPDEST PUSH1 0x0 CALLER SWAP1 POP SWAP1 JUMP JUMPDEST PUSH1 0x0 DUP1 PUSH1 0x0 SWAP1 SLOAD SWAP1 PUSH2 0x100 EXP SWAP1 DIV PUSH20 0xFFFFFFFFFFFFFFFFFFFFFFFFFFFFFFFFFFFFFFFF AND SWAP1 POP DUP2 PUSH1 0x0 DUP1 PUSH2 0x100 EXP DUP2 SLOAD DUP2 PUSH20 0xFFFFFFFFFFFFFFFFFFFFFFFFFFFFFFFFFFFFFFFF MUL NOT AND SWAP1 DUP4 PUSH20 0xFFFFFFFFFFFFFFFFFFFFFFFFFFFFFFFFFFFFFFFF AND MUL OR SWAP1 SSTORE POP DUP2 PUSH20 0xFFFFFFFFFFFFFFFFFFFFFFFFFFFFFFFFFFFFFFFF AND DUP2 PUSH20 0xFFFFFFFFFFFFFFFFFFFFFFFFFFFFFFFFFFFFFFFF AND PUSH32 0x8BE0079C531659141344CD1FD0A4F28419497F9722A3DAAFE3B4186F6B6457E0 PUSH1 0x40 MLOAD PUSH1 0x40 MLOAD DUP1 SWAP2 SUB SWAP1 LOG3 POP POP JUMP JUMPDEST PUSH1 0x0 PUSH1 0x40 MLOAD SWAP1 POP SWAP1 JUMP JUMPDEST PUSH1 0x0 DUP1 REVERT JUMPDEST PUSH1 0x0 DUP1 REVERT JUMPDEST PUSH1 0x0 PUSH20 0xFFFFFFFFFFFFFFFFFFFFFFFFFFFFFFFFFFFFFFFF DUP3 AND SWAP1 POP SWAP2 SWAP1 POP JUMP JUMPDEST PUSH1 0x0 PUSH2 0xB55 DUP3 PUSH2 0xB2A JUMP JUMPDEST SWAP1 POP SWAP2 SWAP1 POP JUMP JUMPDEST PUSH2 0xB65 DUP2 PUSH2 0xB4A JUMP JUMPDEST DUP2 EQ PUSH2 0xB70 JUMPI PUSH1 0x0 DUP1 REVERT JUMPDEST POP JUMP JUMPDEST PUSH1 0x0 DUP2 CALLDATALOAD SWAP1 POP PUSH2 0xB82 DUP2 PUSH2 0xB5C JUMP JUMPDEST SWAP3 SWAP2 POP POP JUMP JUMPDEST PUSH1 0x0 PUSH1 0x20 DUP3 DUP5 SUB SLT ISZERO PUSH2 0xB9E JUMPI PUSH2 0xB9D PUSH2 0xB20 JUMP JUMPDEST JUMPDEST PUSH1 0x0 PUSH2 0xBAC DUP5 DUP3 DUP6 ADD PUSH2 0xB73 JUMP JUMPDEST SWAP2 POP POP SWAP3 SWAP2 POP POP JUMP JUMPDEST PUSH1 0x0 DUP2 MLOAD SWAP1 POP SWAP2 SWAP1 POP JUMP JUMPDEST PUSH1 0x0 DUP3 DUP3 MSTORE PUSH1 0x20 DUP3 ADD SWAP1 POP SWAP3 SWAP2 POP POP JUMP JUMPDEST PUSH1 0x0 DUP2 SWAP1 POP PUSH1 0x20 DUP3 ADD SWAP1 POP SWAP2 SWAP1 POP JUMP JUMPDEST PUSH1 0x0 DUP2 SWAP1 POP SWAP2 SWAP1 POP JUMP JUMPDEST PUSH2 0xBF4 DUP2 PUSH2 0xBE1 JUMP JUMPDEST DUP3 MSTORE POP POP JUMP JUMPDEST PUSH1 0x0 DUP2 MLOAD SWAP1 POP SWAP2 SWAP1 POP JUMP JUMPDEST PUSH1 0x0 DUP3 DUP3 MSTORE PUSH1 0x20 DUP3 ADD SWAP1 POP SWAP3 SWAP2 POP POP JUMP JUMPDEST PUSH1 0x0 JUMPDEST DUP4 DUP2 LT ISZERO PUSH2 0xC34 JUMPI DUP1 DUP3 ADD MLOAD DUP2 DUP5 ADD MSTORE PUSH1 0x20 DUP2 ADD SWAP1 POP PUSH2 0xC19 JUMP JUMPDEST PUSH1 0x0 DUP5 DUP5 ADD MSTORE POP POP POP POP JUMP JUMPDEST PUSH1 0x0 PUSH1 0x1F NOT PUSH1 0x1F DUP4 ADD AND SWAP1 POP SWAP2 SWAP1 POP JUMP JUMPDEST PUSH1 0x0 PUSH2 0xC5C DUP3 PUSH2 0xBFA JUMP JUMPDEST PUSH2 0xC66 DUP2 DUP6 PUSH2 0xC05 JUMP JUMPDEST SWAP4 POP PUSH2 0xC76 DUP2 DUP6 PUSH1 0x20 DUP7 ADD PUSH2 0xC16 JUMP JUMPDEST PUSH2 0xC7F DUP2 PUSH2 0xC40 JUMP JUMPDEST DUP5 ADD SWAP2 POP POP SWAP3 SWAP2 POP POP JUMP JUMPDEST PUSH1 0x0 DUP2 ISZERO ISZERO SWAP1 POP SWAP2 SWAP1 POP JUMP JUMPDEST PUSH2 0xC9F DUP2 PUSH2 0xC8A JUMP JUMPDEST DUP3 MSTORE POP POP JUMP JUMPDEST PUSH1 0x0 PUSH2 0x120 DUP4 ADD PUSH1 0x0 DUP4 ADD MLOAD PUSH2 0xCBE PUSH1 0x0 DUP7 ADD DUP3 PUSH2 0xBEB JUMP JUMPDEST POP PUSH1 0x20 DUP4 ADD MLOAD DUP5 DUP3 SUB PUSH1 0x20 DUP7 ADD MSTORE PUSH2 0xCD6 DUP3 DUP3 PUSH2 0xC51 JUMP JUMPDEST SWAP2 POP POP PUSH1 0x40 DUP4 ADD MLOAD DUP5 DUP3 SUB PUSH1 0x40 DUP7 ADD MSTORE PUSH2 0xCF0 DUP3 DUP3 PUSH2 0xC51 JUMP JUMPDEST SWAP2 POP POP PUSH1 0x60 DUP4 ADD MLOAD DUP5 DUP3 SUB PUSH1 0x60 DUP7 ADD MSTORE PUSH2 0xD0A DUP3 DUP3 PUSH2 0xC51 JUMP JUMPDEST SWAP2 POP POP PUSH1 0x80 DUP4 ADD MLOAD DUP5 DUP3 SUB PUSH1 0x80 DUP7 ADD MSTORE PUSH2 0xD24 DUP3 DUP3 PUSH2 0xC51 JUMP JUMPDEST SWAP2 POP POP PUSH1 0xA0 DUP4 ADD MLOAD DUP5 DUP3 SUB PUSH1 0xA0 DUP7 ADD MSTORE PUSH2 0xD3E DUP3 DUP3 PUSH2 0xC51 JUMP JUMPDEST SWAP2 POP POP PUSH1 0xC0 DUP4 ADD MLOAD PUSH2 0xD53 PUSH1 0xC0 DUP7 ADD DUP3 PUSH2 0xBEB JUMP JUMPDEST POP PUSH1 0xE0 DUP4 ADD MLOAD DUP5 DUP3 SUB PUSH1 0xE0 DUP7 ADD MSTORE PUSH2 0xD6B DUP3 DUP3 PUSH2 0xC51 JUMP JUMPDEST SWAP2 POP POP PUSH2 0x100 DUP4 ADD MLOAD PUSH2 0xD82 PUSH2 0x100 DUP7 ADD DUP3 PUSH2 0xC96 JUMP JUMPDEST POP DUP1 SWAP2 POP POP SWAP3 SWAP2 POP POP JUMP JUMPDEST PUSH1 0x0 PUSH2 0xD99 DUP4 DUP4 PUSH2 0xCA5 JUMP JUMPDEST SWAP1 POP SWAP3 SWAP2 POP POP JUMP JUMPDEST PUSH1 0x0 PUSH1 0x20 DUP3 ADD SWAP1 POP SWAP2 SWAP1 POP JUMP JUMPDEST PUSH1 0x0 PUSH2 0xDB9 DUP3 PUSH2 0xBB5 JUMP JUMPDEST PUSH2 0xDC3 DUP2 DUP6 PUSH2 0xBC0 JUMP JUMPDEST SWAP4 POP DUP4 PUSH1 0x20 DUP3 MUL DUP6 ADD PUSH2 0xDD5 DUP6 PUSH2 0xBD1 JUMP JUMPDEST DUP1 PUSH1 0x0 JUMPDEST DUP6 DUP2 LT ISZERO PUSH2 0xE11 JUMPI DUP5 DUP5 SUB DUP10 MSTORE DUP2 MLOAD PUSH2 0xDF2 DUP6 DUP3 PUSH2 0xD8D JUMP JUMPDEST SWAP5 POP PUSH2 0xDFD DUP4 PUSH2 0xDA1 JUMP JUMPDEST SWAP3 POP PUSH1 0x20 DUP11 ADD SWAP10 POP POP PUSH1 0x1 DUP2 ADD SWAP1 POP PUSH2 0xDD9 JUMP JUMPDEST POP DUP3 SWAP8 POP DUP8 SWAP6 POP POP POP POP POP POP SWAP3 SWAP2 POP POP JUMP JUMPDEST PUSH1 0x0 PUSH1 0x20 DUP3 ADD SWAP1 POP DUP2 DUP2 SUB PUSH1 0x0 DUP4 ADD MSTORE PUSH2 0xE3D DUP2 DUP5 PUSH2 0xDAE JUMP JUMPDEST SWAP1 POP SWAP3 SWAP2 POP POP JUMP JUMPDEST PUSH2 0xE4E DUP2 PUSH2 0xB4A JUMP JUMPDEST DUP3 MSTORE POP POP JUMP JUMPDEST PUSH1 0x0 PUSH1 0x20 DUP3 ADD SWAP1 POP PUSH2 0xE69 PUSH1 0x0 DUP4 ADD DUP5 PUSH2 0xE45 JUMP JUMPDEST SWAP3 SWAP2 POP POP JUMP JUMPDEST PUSH2 0xE78 DUP2 PUSH2 0xBE1 JUMP JUMPDEST DUP2 EQ PUSH2 0xE83 JUMPI PUSH1 0x0 DUP1 REVERT JUMPDEST POP JUMP JUMPDEST PUSH1 0x0 DUP2 CALLDATALOAD SWAP1 POP PUSH2 0xE95 DUP2 PUSH2 0xE6F JUMP JUMPDEST SWAP3 SWAP2 POP POP JUMP JUMPDEST PUSH1 0x0 PUSH1 0x20 DUP3 DUP5 SUB SLT ISZERO PUSH2 0xEB1 JUMPI PUSH2 0xEB0 PUSH2 0xB20 JUMP JUMPDEST JUMPDEST PUSH1 0x0 PUSH2 0xEBF DUP5 DUP3 DUP6 ADD PUSH2 0xE86 JUMP JUMPDEST SWAP2 POP POP SWAP3 SWAP2 POP POP JUMP JUMPDEST PUSH1 0x0 DUP1 REVERT JUMPDEST PUSH32 0x4E487B7100000000000000000000000000000000000000000000000000000000 PUSH1 0x0 MSTORE PUSH1 0x41 PUSH1 0x4 MSTORE PUSH1 0x24 PUSH1 0x0 REVERT JUMPDEST PUSH2 0xF05 DUP3 PUSH2 0xC40 JUMP JUMPDEST DUP2 ADD DUP2 DUP2 LT PUSH8 0xFFFFFFFFFFFFFFFF DUP3 GT OR ISZERO PUSH2 0xF24 JUMPI PUSH2 0xF23 PUSH2 0xECD JUMP JUMPDEST JUMPDEST DUP1 PUSH1 0x40 MSTORE POP POP POP JUMP JUMPDEST PUSH1 0x0 PUSH2 0xF37 PUSH2 0xB16 JUMP JUMPDEST SWAP1 POP PUSH2 0xF43 DUP3 DUP3 PUSH2 0xEFC JUMP JUMPDEST SWAP2 SWAP1 POP JUMP JUMPDEST PUSH1 0x0 DUP1 REVERT JUMPDEST PUSH1 0x0 DUP1 REVERT JUMPDEST PUSH1 0x0 DUP1 REVERT JUMPDEST PUSH1 0x0 PUSH8 0xFFFFFFFFFFFFFFFF DUP3 GT ISZERO PUSH2 0xF72 JUMPI PUSH2 0xF71 PUSH2 0xECD JUMP JUMPDEST JUMPDEST PUSH2 0xF7B DUP3 PUSH2 0xC40 JUMP JUMPDEST SWAP1 POP PUSH1 0x20 DUP2 ADD SWAP1 POP SWAP2 SWAP1 POP JUMP JUMPDEST DUP3 DUP2 DUP4 CALLDATACOPY PUSH1 0x0 DUP4 DUP4 ADD MSTORE POP POP POP JUMP JUMPDEST PUSH1 0x0 PUSH2 0xFAA PUSH2 0xFA5 DUP5 PUSH2 0xF57 JUMP JUMPDEST PUSH2 0xF2D JUMP JUMPDEST SWAP1 POP DUP3 DUP2 MSTORE PUSH1 0x20 DUP2 ADD DUP5 DUP5 DUP5 ADD GT ISZERO PUSH2 0xFC6 JUMPI PUSH2 0xFC5 PUSH2 0xF52 JUMP JUMPDEST JUMPDEST PUSH2 0xFD1 DUP5 DUP3 DUP6 PUSH2 0xF88 JUMP JUMPDEST POP SWAP4 SWAP3 POP POP POP JUMP JUMPDEST PUSH1 0x0 DUP3 PUSH1 0x1F DUP4 ADD SLT PUSH2 0xFEE JUMPI PUSH2 0xFED PUSH2 0xF4D JUMP JUMPDEST JUMPDEST DUP2 CALLDATALOAD PUSH2 0xFFE DUP5 DUP3 PUSH1 0x20 DUP7 ADD PUSH2 0xF97 JUMP JUMPDEST SWAP2 POP POP SWAP3 SWAP2 POP POP JUMP JUMPDEST PUSH2 0x1010 DUP2 PUSH2 0xC8A JUMP JUMPDEST DUP2 EQ PUSH2 0x101B JUMPI PUSH1 0x0 DUP1 REVERT JUMPDEST POP JUMP JUMPDEST PUSH1 0x0 DUP2 CALLDATALOAD SWAP1 POP PUSH2 0x102D DUP2 PUSH2 0x1007 JUMP JUMPDEST SWAP3 SWAP2 POP POP JUMP JUMPDEST PUSH1 0x0 PUSH2 0x120 DUP3 DUP5 SUB SLT ISZERO PUSH2 0x104A JUMPI PUSH2 0x1049 PUSH2 0xEC8 JUMP JUMPDEST JUMPDEST PUSH2 0x1055 PUSH2 0x120 PUSH2 0xF2D JUMP JUMPDEST SWAP1 POP PUSH1 0x0 PUSH2 0x1065 DUP5 DUP3 DUP6 ADD PUSH2 0xE86 JUMP JUMPDEST PUSH1 0x0 DUP4 ADD MSTORE POP PUSH1 0x20 DUP3 ADD CALLDATALOAD PUSH8 0xFFFFFFFFFFFFFFFF DUP2 GT ISZERO PUSH2 0x1089 JUMPI PUSH2 0x1088 PUSH2 0xF48 JUMP JUMPDEST JUMPDEST PUSH2 0x1095 DUP5 DUP3 DUP6 ADD PUSH2 0xFD9 JUMP JUMPDEST PUSH1 0x20 DUP4 ADD MSTORE POP PUSH1 0x40 DUP3 ADD CALLDATALOAD PUSH8 0xFFFFFFFFFFFFFFFF DUP2 GT ISZERO PUSH2 0x10B9 JUMPI PUSH2 0x10B8 PUSH2 0xF48 JUMP JUMPDEST JUMPDEST PUSH2 0x10C5 DUP5 DUP3 DUP6 ADD PUSH2 0xFD9 JUMP JUMPDEST PUSH1 0x40 DUP4 ADD MSTORE POP PUSH1 0x60 DUP3 ADD CALLDATALOAD PUSH8 0xFFFFFFFFFFFFFFFF DUP2 GT ISZERO PUSH2 0x10E9 JUMPI PUSH2 0x10E8 PUSH2 0xF48 JUMP JUMPDEST JUMPDEST PUSH2 0x10F5 DUP5 DUP3 DUP6 ADD PUSH2 0xFD9 JUMP JUMPDEST PUSH1 0x60 DUP4 ADD MSTORE POP PUSH1 0x80 DUP3 ADD CALLDATALOAD PUSH8 0xFFFFFFFFFFFFFFFF DUP2 GT ISZERO PUSH2 0x1119 JUMPI PUSH2 0x1118 PUSH2 0xF48 JUMP JUMPDEST JUMPDEST PUSH2 0x1125 DUP5 DUP3 DUP6 ADD PUSH2 0xFD9 JUMP JUMPDEST PUSH1 0x80 DUP4 ADD MSTORE POP PUSH1 0xA0 DUP3 ADD CALLDATALOAD PUSH8 0xFFFFFFFFFFFFFFFF DUP2 GT ISZERO PUSH2 0x1149 JUMPI PUSH2 0x1148 PUSH2 0xF48 JUMP JUMPDEST JUMPDEST PUSH2 0x1155 DUP5 DUP3 DUP6 ADD PUSH2 0xFD9 JUMP JUMPDEST PUSH1 0xA0 DUP4 ADD MSTORE POP PUSH1 0xC0 PUSH2 0x1169 DUP5 DUP3 DUP6 ADD PUSH2 0xE86 JUMP JUMPDEST PUSH1 0xC0 DUP4 ADD MSTORE POP PUSH1 0xE0 DUP3 ADD CALLDATALOAD PUSH8 0xFFFFFFFFFFFFFFFF DUP2 GT ISZERO PUSH2 0x118D JUMPI PUSH2 0x118C PUSH2 0xF48 JUMP JUMPDEST JUMPDEST PUSH2 0x1199 DUP5 DUP3 DUP6 ADD PUSH2 0xFD9 JUMP JUMPDEST PUSH1 0xE0 DUP4 ADD MSTORE POP PUSH2 0x100 PUSH2 0x11AE DUP5 DUP3 DUP6 ADD PUSH2 0x101E JUMP JUMPDEST PUSH2 0x100 DUP4 ADD MSTORE POP SWAP3 SWAP2 POP POP JUMP JUMPDEST PUSH1 0x0 PUSH1 0x20 DUP3 DUP5 SUB SLT ISZERO PUSH2 0x11D1 JUMPI PUSH2 0x11D0 PUSH2 0xB20 JUMP JUMPDEST JUMPDEST PUSH1 0x0 DUP3 ADD CALLDATALOAD PUSH8 0xFFFFFFFFFFFFFFFF DUP2 GT ISZERO PUSH2 0x11EF JUMPI PUSH2 0x11EE PUSH2 0xB25 JUMP JUMPDEST JUMPDEST PUSH2 0x11FB DUP5 DUP3 DUP6 ADD PUSH2 0x1033 JUMP JUMPDEST SWAP2 POP POP SWAP3 SWAP2 POP POP JUMP JUMPDEST PUSH1 0x0 DUP3 DUP3 MSTORE PUSH1 0x20 DUP3 ADD SWAP1 POP SWAP3 SWAP2 POP POP JUMP JUMPDEST PUSH32 0x537465703544617461626173653A207065726D697373696F6E20686173206265 PUSH1 0x0 DUP3 ADD MSTORE PUSH32 0x656E206772616E74656400000000000000000000000000000000000000000000 PUSH1 0x20 DUP3 ADD MSTORE POP JUMP JUMPDEST PUSH1 0x0 PUSH2 0x1271 PUSH1 0x2A DUP4 PUSH2 0x1204 JUMP JUMPDEST SWAP2 POP PUSH2 0x127C DUP3 PUSH2 0x1215 JUMP JUMPDEST PUSH1 0x40 DUP3 ADD SWAP1 POP SWAP2 SWAP1 POP JUMP JUMPDEST PUSH1 0x0 PUSH1 0x20 DUP3 ADD SWAP1 POP DUP2 DUP2 SUB PUSH1 0x0 DUP4 ADD MSTORE PUSH2 0x12A0 DUP2 PUSH2 0x1264 JUMP JUMPDEST SWAP1 POP SWAP2 SWAP1 POP JUMP JUMPDEST PUSH32 0x537465703544617461626173653A206F6E6C7920636F6E747261637420776869 PUSH1 0x0 DUP3 ADD MSTORE PUSH32 0x63682061726520616C6C6F776564000000000000000000000000000000000000 PUSH1 0x20 DUP3 ADD MSTORE POP JUMP JUMPDEST PUSH1 0x0 PUSH2 0x1303 PUSH1 0x2E DUP4 PUSH2 0x1204 JUMP JUMPDEST SWAP2 POP PUSH2 0x130E DUP3 PUSH2 0x12A7 JUMP JUMPDEST PUSH1 0x40 DUP3 ADD SWAP1 POP SWAP2 SWAP1 POP JUMP JUMPDEST PUSH1 0x0 PUSH1 0x20 DUP3 ADD SWAP1 POP DUP2 DUP2 SUB PUSH1 0x0 DUP4 ADD MSTORE PUSH2 0x1332 DUP2 PUSH2 0x12F6 JUMP JUMPDEST SWAP1 POP SWAP2 SWAP1 POP JUMP JUMPDEST PUSH32 0x4E487B7100000000000000000000000000000000000000000000000000000000 PUSH1 0x0 MSTORE PUSH1 0x22 PUSH1 0x4 MSTORE PUSH1 0x24 PUSH1 0x0 REVERT JUMPDEST PUSH1 0x0 PUSH1 0x2 DUP3 DIV SWAP1 POP PUSH1 0x1 DUP3 AND DUP1 PUSH2 0x1380 JUMPI PUSH1 0x7F DUP3 AND SWAP2 POP JUMPDEST PUSH1 0x20 DUP3 LT DUP2 SUB PUSH2 0x1393 JUMPI PUSH2 0x1392 PUSH2 0x1339 JUMP JUMPDEST JUMPDEST POP SWAP2 SWAP1 POP JUMP JUMPDEST PUSH32 0x4E487B7100000000000000000000000000000000000000000000000000000000 PUSH1 0x0 MSTORE PUSH1 0x32 PUSH1 0x4 MSTORE PUSH1 0x24 PUSH1 0x0 REVERT JUMPDEST PUSH32 0x4F776E61626C653A206E6577206F776E657220697320746865207A65726F2061 PUSH1 0x0 DUP3 ADD MSTORE PUSH32 0x6464726573730000000000000000000000000000000000000000000000000000 PUSH1 0x20 DUP3 ADD MSTORE POP JUMP JUMPDEST PUSH1 0x0 PUSH2 0x1424 PUSH1 0x26 DUP4 PUSH2 0x1204 JUMP JUMPDEST SWAP2 POP PUSH2 0x142F DUP3 PUSH2 0x13C8 JUMP JUMPDEST PUSH1 0x40 DUP3 ADD SWAP1 POP SWAP2 SWAP1 POP JUMP JUMPDEST PUSH1 0x0 PUSH1 0x20 DUP3 ADD SWAP1 POP DUP2 DUP2 SUB PUSH1 0x0 DUP4 ADD MSTORE PUSH2 0x1453 DUP2 PUSH2 0x1417 JUMP JUMPDEST SWAP1 POP SWAP2 SWAP1 POP JUMP JUMPDEST PUSH1 0x0 DUP2 SWAP1 POP DUP2 PUSH1 0x0 MSTORE PUSH1 0x20 PUSH1 0x0 KECCAK256 SWAP1 POP SWAP2 SWAP1 POP JUMP JUMPDEST PUSH1 0x0 PUSH1 0x20 PUSH1 0x1F DUP4 ADD DIV SWAP1 POP SWAP2 SWAP1 POP JUMP JUMPDEST PUSH1 0x0 DUP3 DUP3 SHL SWAP1 POP SWAP3 SWAP2 POP POP JUMP JUMPDEST PUSH1 0x0 PUSH1 0x8 DUP4 MUL PUSH2 0x14BC PUSH32 0xFFFFFFFFFFFFFFFFFFFFFFFFFFFFFFFFFFFFFFFFFFFFFFFFFFFFFFFFFFFFFFFF DUP3 PUSH2 0x147F JUMP JUMPDEST PUSH2 0x14C6 DUP7 DUP4 PUSH2 0x147F JUMP JUMPDEST SWAP6 POP DUP1 NOT DUP5 AND SWAP4 POP DUP1 DUP7 AND DUP5 OR SWAP3 POP POP POP SWAP4 SWAP3 POP POP POP JUMP JUMPDEST PUSH1 0x0 DUP2 SWAP1 POP SWAP2 SWAP1 POP JUMP JUMPDEST PUSH1 0x0 PUSH2 0x1503 PUSH2 0x14FE PUSH2 0x14F9 DUP5 PUSH2 0xBE1 JUMP JUMPDEST PUSH2 0x14DE JUMP JUMPDEST PUSH2 0xBE1 JUMP JUMPDEST SWAP1 POP SWAP2 SWAP1 POP JUMP JUMPDEST PUSH1 0x0 DUP2 SWAP1 POP SWAP2 SWAP1 POP JUMP JUMPDEST PUSH2 0x151D DUP4 PUSH2 0x14E8 JUMP JUMPDEST PUSH2 0x1531 PUSH2 0x1529 DUP3 PUSH2 0x150A JUMP JUMPDEST DUP5 DUP5 SLOAD PUSH2 0x148C JUMP JUMPDEST DUP3 SSTORE POP POP POP POP JUMP JUMPDEST PUSH1 0x0 SWAP1 JUMP JUMPDEST PUSH2 0x1546 PUSH2 0x1539 JUMP JUMPDEST PUSH2 0x1551 DUP2 DUP5 DUP5 PUSH2 0x1514 JUMP JUMPDEST POP POP POP JUMP JUMPDEST JUMPDEST DUP2 DUP2 LT ISZERO PUSH2 0x1575 JUMPI PUSH2 0x156A PUSH1 0x0 DUP3 PUSH2 0x153E JUMP JUMPDEST PUSH1 0x1 DUP2 ADD SWAP1 POP PUSH2 0x1557 JUMP JUMPDEST POP POP JUMP JUMPDEST PUSH1 0x1F DUP3 GT ISZERO PUSH2 0x15BA JUMPI PUSH2 0x158B DUP2 PUSH2 0x145A JUMP JUMPDEST PUSH2 0x1594 DUP5 PUSH2 0x146F JUMP JUMPDEST DUP2 ADD PUSH1 0x20 DUP6 LT ISZERO PUSH2 0x15A3 JUMPI DUP2 SWAP1 POP JUMPDEST PUSH2 0x15B7 PUSH2 0x15AF DUP6 PUSH2 0x146F JUMP JUMPDEST DUP4 ADD DUP3 PUSH2 0x1556 JUMP JUMPDEST POP POP JUMPDEST POP POP POP JUMP JUMPDEST PUSH1 0x0 DUP3 DUP3 SHR SWAP1 POP SWAP3 SWAP2 POP POP JUMP JUMPDEST PUSH1 0x0 PUSH2 0x15DD PUSH1 0x0 NOT DUP5 PUSH1 0x8 MUL PUSH2 0x15BF JUMP JUMPDEST NOT DUP1 DUP4 AND SWAP2 POP POP SWAP3 SWAP2 POP POP JUMP JUMPDEST PUSH1 0x0 PUSH2 0x15F6 DUP4 DUP4 PUSH2 0x15CC JUMP JUMPDEST SWAP2 POP DUP3 PUSH1 0x2 MUL DUP3 OR SWAP1 POP SWAP3 SWAP2 POP POP JUMP JUMPDEST PUSH2 0x160F DUP3 PUSH2 0xBFA JUMP JUMPDEST PUSH8 0xFFFFFFFFFFFFFFFF DUP2 GT ISZERO PUSH2 0x1628 JUMPI PUSH2 0x1627 PUSH2 0xECD JUMP JUMPDEST JUMPDEST PUSH2 0x1632 DUP3 SLOAD PUSH2 0x1368 JUMP JUMPDEST PUSH2 0x163D DUP3 DUP3 DUP6 PUSH2 0x1579 JUMP JUMPDEST PUSH1 0x0 PUSH1 0x20 SWAP1 POP PUSH1 0x1F DUP4 GT PUSH1 0x1 DUP2 EQ PUSH2 0x1670 JUMPI PUSH1 0x0 DUP5 ISZERO PUSH2 0x165E JUMPI DUP3 DUP8 ADD MLOAD SWAP1 POP JUMPDEST PUSH2 0x1668 DUP6 DUP3 PUSH2 0x15EA JUMP JUMPDEST DUP7 SSTORE POP PUSH2 0x16D0 JUMP JUMPDEST PUSH1 0x1F NOT DUP5 AND PUSH2 0x167E DUP7 PUSH2 0x145A JUMP JUMPDEST PUSH1 0x0 JUMPDEST DUP3 DUP2 LT ISZERO PUSH2 0x16A6 JUMPI DUP5 DUP10 ADD MLOAD DUP3 SSTORE PUSH1 0x1 DUP3 ADD SWAP2 POP PUSH1 0x20 DUP6 ADD SWAP5 POP PUSH1 0x20 DUP2 ADD SWAP1 POP PUSH2 0x1681 JUMP JUMPDEST DUP7 DUP4 LT ISZERO PUSH2 0x16C3 JUMPI DUP5 DUP10 ADD MLOAD PUSH2 0x16BF PUSH1 0x1F DUP10 AND DUP3 PUSH2 0x15CC JUMP JUMPDEST DUP4 SSTORE POP JUMPDEST PUSH1 0x1 PUSH1 0x2 DUP9 MUL ADD DUP9 SSTORE POP POP POP JUMPDEST POP POP POP POP POP POP JUMP JUMPDEST PUSH32 0x4F776E61626C653A2063616C6C6572206973206E6F7420746865206F776E6572 PUSH1 0x0 DUP3 ADD MSTORE POP JUMP JUMPDEST PUSH1 0x0 PUSH2 0x170E PUSH1 0x20 DUP4 PUSH2 0x1204 JUMP JUMPDEST SWAP2 POP PUSH2 0x1719 DUP3 PUSH2 0x16D8 JUMP JUMPDEST PUSH1 0x20 DUP3 ADD SWAP1 POP SWAP2 SWAP1 POP JUMP JUMPDEST PUSH1 0x0 PUSH1 0x20 DUP3 ADD SWAP1 POP DUP2 DUP2 SUB PUSH1 0x0 DUP4 ADD MSTORE PUSH2 0x173D DUP2 PUSH2 0x1701 JUMP JUMPDEST SWAP1 POP SWAP2 SWAP1 POP JUMP INVALID LOG2 PUSH5 0x6970667358 0x22 SLT KECCAK256 MLOAD 0xBC 0xC9 0xC6 0xCA 0xDB DELEGATECALL 0xA8 0x2C 0xE3 INVALID CODECOPY SLT 0xF CALLCODE 0xB9 0x27 DUP11 SWAP3 0xB2 SWAP10 DUP5 PUSH5 0xD586C29FB1 0xB7 0x28 0xCD CODESIZE PUSH5 0x736F6C6343 STOP ADDMOD SLT STOP CALLER "
				},
				"gasEstimates": {
					"creation": {
						"codeDepositCost": "1202000",
						"executionCost": "25514",
						"totalCost": "1227514"
					},
					"external": {
						"addChecked(uint256)": "29169",
						"addPermission(address)": "29288",
						"addStep5((uint256,string,string,string,string,string,uint256,string,bool))": "infinite",
						"destroy()": "30017",
						"getAllStep5()": "infinite",
						"owner()": "2522",
						"transferOwnership(address)": "30753"
					}
				},
				"methodIdentifiers": {
					"addChecked(uint256)": "ee416d5b",
					"addPermission(address)": "4d0a5dbd",
					"addStep5((uint256,string,string,string,string,string,uint256,string,bool))": "ff657f5f",
					"destroy()": "83197ef0",
					"getAllStep5()": "5b4a8a95",
					"owner()": "8da5cb5b",
					"transferOwnership(address)": "f2fde38b"
				}
			},
			"storageLayout": {
				"storage": [
					{
						"astId": 30,
						"contract": "database/processing/Step5Database.sol:Step5Database",
						"label": "_owner",
						"offset": 0,
						"slot": "0",
						"type": "t_address"
					},
					{
						"astId": 149,
						"contract": "database/processing/Step5Database.sol:Step5Database",
						"label": "list",
						"offset": 0,
						"slot": "1",
						"type": "t_array(t_struct(Step5)257_storage)dyn_storage"
					},
					{
						"astId": 153,
						"contract": "database/processing/Step5Database.sol:Step5Database",
						"label": "permissions",
						"offset": 0,
						"slot": "2",
						"type": "t_mapping(t_address,t_bool)"
					}
				],
				"types": {
					"t_address": {
						"encoding": "inplace",
						"label": "address",
						"numberOfBytes": "20"
					},
					"t_array(t_struct(Step5)257_storage)dyn_storage": {
						"base": "t_struct(Step5)257_storage",
						"encoding": "dynamic_array",
						"label": "struct Step5[]",
						"numberOfBytes": "32"
					},
					"t_bool": {
						"encoding": "inplace",
						"label": "bool",
						"numberOfBytes": "1"
					},
					"t_mapping(t_address,t_bool)": {
						"encoding": "mapping",
						"key": "t_address",
						"label": "mapping(address => bool)",
						"numberOfBytes": "32",
						"value": "t_bool"
					},
					"t_string_storage": {
						"encoding": "bytes",
						"label": "string",
						"numberOfBytes": "32"
					},
					"t_struct(Step5)257_storage": {
						"encoding": "inplace",
						"label": "struct Step5",
						"members": [
							{
								"astId": 240,
								"contract": "database/processing/Step5Database.sol:Step5Database",
								"label": "productCode",
								"offset": 0,
								"slot": "0",
								"type": "t_uint256"
							},
							{
								"astId": 242,
								"contract": "database/processing/Step5Database.sol:Step5Database",
								"label": "productName",
								"offset": 0,
								"slot": "1",
								"type": "t_string_storage"
							},
							{
								"astId": 244,
								"contract": "database/processing/Step5Database.sol:Step5Database",
								"label": "date",
								"offset": 0,
								"slot": "2",
								"type": "t_string_storage"
							},
							{
								"astId": 246,
								"contract": "database/processing/Step5Database.sol:Step5Database",
								"label": "location",
								"offset": 0,
								"slot": "3",
								"type": "t_string_storage"
							},
							{
								"astId": 248,
								"contract": "database/processing/Step5Database.sol:Step5Database",
								"label": "photo",
								"offset": 0,
								"slot": "4",
								"type": "t_string_storage"
							},
							{
								"astId": 250,
								"contract": "database/processing/Step5Database.sol:Step5Database",
								"label": "userName",
								"offset": 0,
								"slot": "5",
								"type": "t_string_storage"
							},
							{
								"astId": 252,
								"contract": "database/processing/Step5Database.sol:Step5Database",
								"label": "userCccd",
								"offset": 0,
								"slot": "6",
								"type": "t_uint256"
							},
							{
								"astId": 254,
								"contract": "database/processing/Step5Database.sol:Step5Database",
								"label": "categories",
								"offset": 0,
								"slot": "7",
								"type": "t_string_storage"
							},
							{
								"astId": 256,
								"contract": "database/processing/Step5Database.sol:Step5Database",
								"label": "step5IsChecked",
								"offset": 0,
								"slot": "8",
								"type": "t_bool"
							}
						],
						"numberOfBytes": "288"
					},
					"t_uint256": {
						"encoding": "inplace",
						"label": "uint256",
						"numberOfBytes": "32"
					}
				}
			},
			"userdoc": {
				"kind": "user",
				"methods": {},
				"version": 1
			}
		}
	}
}