{
	"database/processing/RoughDatabase.sol": {
		"RoughDatabase": {
			"abi": [
				{
					"inputs": [],
					"stateMutability": "nonpayable",
					"type": "constructor"
				},
				{
					"anonymous": false,
					"inputs": [
						{
							"indexed": true,
							"internalType": "address",
							"name": "previousOwner",
							"type": "address"
						},
						{
							"indexed": true,
							"internalType": "address",
							"name": "newOwner",
							"type": "address"
						}
					],
					"name": "OwnershipTransferred",
					"type": "event"
				},
				{
					"inputs": [
						{
							"internalType": "uint256",
							"name": "RoughId",
							"type": "uint256"
						}
					],
					"name": "addChecked",
					"outputs": [],
					"stateMutability": "nonpayable",
					"type": "function"
				},
				{
					"inputs": [
						{
							"internalType": "address",
							"name": "contractPermission",
							"type": "address"
						}
					],
					"name": "addPermission",
					"outputs": [],
					"stateMutability": "nonpayable",
					"type": "function"
				},
				{
					"inputs": [
						{
							"components": [
								{
									"internalType": "uint256",
									"name": "batchId",
									"type": "uint256"
								},
								{
									"internalType": "string",
									"name": "userName",
									"type": "string"
								},
								{
									"internalType": "address",
									"name": "userAddress",
									"type": "address"
								},
								{
									"internalType": "string",
									"name": "roughDate",
									"type": "string"
								},
								{
									"internalType": "string",
									"name": "warehouseAdress",
									"type": "string"
								},
								{
									"internalType": "string",
									"name": "processPhoto",
									"type": "string"
								},
								{
									"internalType": "uint256",
									"name": "keyValue",
									"type": "uint256"
								},
								{
									"internalType": "bool",
									"name": "roughIsChecked",
									"type": "bool"
								}
							],
							"internalType": "struct Rough",
							"name": "item",
							"type": "tuple"
						}
					],
					"name": "addRough",
					"outputs": [],
					"stateMutability": "nonpayable",
					"type": "function"
				},
				{
					"inputs": [],
					"name": "destroy",
					"outputs": [],
					"stateMutability": "nonpayable",
					"type": "function"
				},
				{
					"inputs": [],
					"name": "getAllRough",
					"outputs": [
						{
							"components": [
								{
									"internalType": "uint256",
									"name": "batchId",
									"type": "uint256"
								},
								{
									"internalType": "string",
									"name": "userName",
									"type": "string"
								},
								{
									"internalType": "address",
									"name": "userAddress",
									"type": "address"
								},
								{
									"internalType": "string",
									"name": "roughDate",
									"type": "string"
								},
								{
									"internalType": "string",
									"name": "warehouseAdress",
									"type": "string"
								},
								{
									"internalType": "string",
									"name": "processPhoto",
									"type": "string"
								},
								{
									"internalType": "uint256",
									"name": "keyValue",
									"type": "uint256"
								},
								{
									"internalType": "bool",
									"name": "roughIsChecked",
									"type": "bool"
								}
							],
							"internalType": "struct Rough[]",
							"name": "",
							"type": "tuple[]"
						}
					],
					"stateMutability": "view",
					"type": "function"
				},
				{
					"inputs": [],
					"name": "owner",
					"outputs": [
						{
							"internalType": "address",
							"name": "",
							"type": "address"
						}
					],
					"stateMutability": "view",
					"type": "function"
				},
				{
					"inputs": [
						{
							"internalType": "address",
							"name": "newOwner",
							"type": "address"
						}
					],
					"name": "transferOwnership",
					"outputs": [],
					"stateMutability": "nonpayable",
					"type": "function"
				}
			],
			"devdoc": {
				"kind": "dev",
				"methods": {
					"owner()": {
						"details": "Returns the address of the current owner."
					},
					"transferOwnership(address)": {
						"details": "Transfers ownership of the contract to a new account (`newOwner`). Can only be called by the current owner."
					}
				},
				"version": 1
			},
			"evm": {
				"assembly": "    /* \"database/processing/RoughDatabase.sol\":182:1168  contract RoughDatabase is Ownable {... */\n  mstore(0x40, 0x80)\n    /* \"database/processing/RoughDatabase.sol\":492:518  constructor() Ownable() {} */\n  callvalue\n  dup1\n  iszero\n  tag_1\n  jumpi\n  0x00\n  dup1\n  revert\ntag_1:\n  pop\n    /* \"abstract/Ownable.sol\":1032:1042  msg.sender */\n  caller\n    /* \"abstract/Ownable.sol\":1023:1029  _owner */\n  0x00\n  dup1\n    /* \"abstract/Ownable.sol\":1023:1042  _owner = msg.sender */\n  0x0100\n  exp\n  dup2\n  sload\n  dup2\n  0xffffffffffffffffffffffffffffffffffffffff\n  mul\n  not\n  and\n  swap1\n  dup4\n  0xffffffffffffffffffffffffffffffffffffffff\n  and\n  mul\n  or\n  swap1\n  sstore\n  pop\n    /* \"database/processing/RoughDatabase.sol\":182:1168  contract RoughDatabase is Ownable {... */\n  dataSize(sub_0)\n  dup1\n  dataOffset(sub_0)\n  0x00\n  codecopy\n  0x00\n  return\nstop\n\nsub_0: assembly {\n        /* \"database/processing/RoughDatabase.sol\":182:1168  contract RoughDatabase is Ownable {... */\n      mstore(0x40, 0x80)\n      callvalue\n      dup1\n      iszero\n      tag_1\n      jumpi\n      0x00\n      dup1\n      revert\n    tag_1:\n      pop\n      jumpi(tag_2, lt(calldatasize, 0x04))\n      shr(0xe0, calldataload(0x00))\n      dup1\n      0x83197ef0\n      gt\n      tag_10\n      jumpi\n      dup1\n      0x83197ef0\n      eq\n      tag_6\n      jumpi\n      dup1\n      0x8da5cb5b\n      eq\n      tag_7\n      jumpi\n      dup1\n      0xee416d5b\n      eq\n      tag_8\n      jumpi\n      dup1\n      0xf2fde38b\n      eq\n      tag_9\n      jumpi\n      jump(tag_2)\n    tag_10:\n      dup1\n      0x1f9c0c6f\n      eq\n      tag_3\n      jumpi\n      dup1\n      0x4d0a5dbd\n      eq\n      tag_4\n      jumpi\n      dup1\n      0x64b30098\n      eq\n      tag_5\n      jumpi\n    tag_2:\n      0x00\n      dup1\n      revert\n        /* \"database/processing/RoughDatabase.sol\":1018:1165  function getAllRough()... */\n    tag_3:\n      tag_11\n      tag_12\n      jump\t// in\n    tag_11:\n      mload(0x40)\n      tag_13\n      swap2\n      swap1\n      tag_14\n      jump\t// in\n    tag_13:\n      mload(0x40)\n      dup1\n      swap2\n      sub\n      swap1\n      return\n        /* \"database/processing/RoughDatabase.sol\":526:786  function addPermission(address contractPermission) public onlyOwner {... */\n    tag_4:\n      tag_15\n      0x04\n      dup1\n      calldatasize\n      sub\n      dup2\n      add\n      swap1\n      tag_16\n      swap2\n      swap1\n      tag_17\n      jump\t// in\n    tag_16:\n      tag_18\n      jump\t// in\n    tag_15:\n      stop\n        /* \"database/processing/RoughDatabase.sol\":794:888  function addRough(Rough memory item) public onlyPermissions {... */\n    tag_5:\n      tag_19\n      0x04\n      dup1\n      calldatasize\n      sub\n      dup2\n      add\n      swap1\n      tag_20\n      swap2\n      swap1\n      tag_21\n      jump\t// in\n    tag_20:\n      tag_22\n      jump\t// in\n    tag_19:\n      stop\n        /* \"abstract/Ownable.sol\":2801:2892  function destroy() public onlyOwner {... */\n    tag_6:\n      tag_23\n      tag_24\n      jump\t// in\n    tag_23:\n      stop\n        /* \"abstract/Ownable.sol\":1289:1376  function owner() public view virtual returns (address) {... */\n    tag_7:\n      tag_25\n      tag_26\n      jump\t// in\n    tag_25:\n      mload(0x40)\n      tag_27\n      swap2\n      swap1\n      tag_28\n      jump\t// in\n    tag_27:\n      mload(0x40)\n      dup1\n      swap2\n      sub\n      swap1\n      return\n        /* \"database/processing/RoughDatabase.sol\":896:1010  function addChecked(uint256 RoughId) public onlyPermissions {... */\n    tag_8:\n      tag_29\n      0x04\n      dup1\n      calldatasize\n      sub\n      dup2\n      add\n      swap1\n      tag_30\n      swap2\n      swap1\n      tag_31\n      jump\t// in\n    tag_30:\n      tag_32\n      jump\t// in\n    tag_29:\n      stop\n        /* \"abstract/Ownable.sol\":2204:2442  function transferOwnership(address newOwner) public virtual onlyOwner {... */\n    tag_9:\n      tag_33\n      0x04\n      dup1\n      calldatasize\n      sub\n      dup2\n      add\n      swap1\n      tag_34\n      swap2\n      swap1\n      tag_17\n      jump\t// in\n    tag_34:\n      tag_35\n      jump\t// in\n    tag_33:\n      stop\n        /* \"database/processing/RoughDatabase.sol\":1018:1165  function getAllRough()... */\n    tag_12:\n        /* \"database/processing/RoughDatabase.sol\":1114:1128  Rough[] memory */\n      0x60\n        /* \"database/processing/RoughDatabase.sol\":365:376  permissions */\n      0x02\n        /* \"database/processing/RoughDatabase.sol\":365:390  permissions[_msgSender()] */\n      0x00\n        /* \"database/processing/RoughDatabase.sol\":377:389  _msgSender() */\n      tag_37\n        /* \"database/processing/RoughDatabase.sol\":377:387  _msgSender */\n      tag_38\n        /* \"database/processing/RoughDatabase.sol\":377:389  _msgSender() */\n      jump\t// in\n    tag_37:\n        /* \"database/processing/RoughDatabase.sol\":365:390  permissions[_msgSender()] */\n      0xffffffffffffffffffffffffffffffffffffffff\n      and\n      0xffffffffffffffffffffffffffffffffffffffff\n      and\n      dup2\n      mstore\n      0x20\n      add\n      swap1\n      dup2\n      mstore\n      0x20\n      add\n      0x00\n      keccak256\n      0x00\n      swap1\n      sload\n      swap1\n      0x0100\n      exp\n      swap1\n      div\n      0xff\n      and\n        /* \"database/processing/RoughDatabase.sol\":343:464  require(... */\n      tag_39\n      jumpi\n      mload(0x40)\n      0x08c379a000000000000000000000000000000000000000000000000000000000\n      dup2\n      mstore\n      0x04\n      add\n      tag_40\n      swap1\n      tag_41\n      jump\t// in\n    tag_40:\n      mload(0x40)\n      dup1\n      swap2\n      sub\n      swap1\n      revert\n    tag_39:\n        /* \"database/processing/RoughDatabase.sol\":1153:1157  list */\n      0x01\n        /* \"database/processing/RoughDatabase.sol\":1146:1157  return list */\n      dup1\n      sload\n      dup1\n      0x20\n      mul\n      0x20\n      add\n      mload(0x40)\n      swap1\n      dup2\n      add\n      0x40\n      mstore\n      dup1\n      swap3\n      swap2\n      swap1\n      dup2\n      dup2\n      mstore\n      0x20\n      add\n      0x00\n      swap1\n    tag_43:\n      dup3\n      dup3\n      lt\n      iszero\n      tag_44\n      jumpi\n      dup4\n      dup3\n      swap1\n      0x00\n      mstore\n      keccak256(0x00, 0x20)\n      swap1\n      0x08\n      mul\n      add\n      mload(0x40)\n      dup1\n      0x0100\n      add\n      0x40\n      mstore\n      swap1\n      dup2\n      0x00\n      dup3\n      add\n      sload\n      dup2\n      mstore\n      0x20\n      add\n      0x01\n      dup3\n      add\n      dup1\n      sload\n      tag_46\n      swap1\n      tag_47\n      jump\t// in\n    tag_46:\n      dup1\n      0x1f\n      add\n      0x20\n      dup1\n      swap2\n      div\n      mul\n      0x20\n      add\n      mload(0x40)\n      swap1\n      dup2\n      add\n      0x40\n      mstore\n      dup1\n      swap3\n      swap2\n      swap1\n      dup2\n      dup2\n      mstore\n      0x20\n      add\n      dup3\n      dup1\n      sload\n      tag_48\n      swap1\n      tag_47\n      jump\t// in\n    tag_48:\n      dup1\n      iszero\n      tag_49\n      jumpi\n      dup1\n      0x1f\n      lt\n      tag_50\n      jumpi\n      0x0100\n      dup1\n      dup4\n      sload\n      div\n      mul\n      dup4\n      mstore\n      swap2\n      0x20\n      add\n      swap2\n      jump(tag_49)\n    tag_50:\n      dup3\n      add\n      swap2\n      swap1\n      0x00\n      mstore\n      keccak256(0x00, 0x20)\n      swap1\n    tag_51:\n      dup2\n      sload\n      dup2\n      mstore\n      swap1\n      0x01\n      add\n      swap1\n      0x20\n      add\n      dup1\n      dup4\n      gt\n      tag_51\n      jumpi\n      dup3\n      swap1\n      sub\n      0x1f\n      and\n      dup3\n      add\n      swap2\n    tag_49:\n      pop\n      pop\n      pop\n      pop\n      pop\n      dup2\n      mstore\n      0x20\n      add\n      0x02\n      dup3\n      add\n      0x00\n      swap1\n      sload\n      swap1\n      0x0100\n      exp\n      swap1\n      div\n      0xffffffffffffffffffffffffffffffffffffffff\n      and\n      0xffffffffffffffffffffffffffffffffffffffff\n      and\n      0xffffffffffffffffffffffffffffffffffffffff\n      and\n      dup2\n      mstore\n      0x20\n      add\n      0x03\n      dup3\n      add\n      dup1\n      sload\n      tag_52\n      swap1\n      tag_47\n      jump\t// in\n    tag_52:\n      dup1\n      0x1f\n      add\n      0x20\n      dup1\n      swap2\n      div\n      mul\n      0x20\n      add\n      mload(0x40)\n      swap1\n      dup2\n      add\n      0x40\n      mstore\n      dup1\n      swap3\n      swap2\n      swap1\n      dup2\n      dup2\n      mstore\n      0x20\n      add\n      dup3\n      dup1\n      sload\n      tag_53\n      swap1\n      tag_47\n      jump\t// in\n    tag_53:\n      dup1\n      iszero\n      tag_54\n      jumpi\n      dup1\n      0x1f\n      lt\n      tag_55\n      jumpi\n      0x0100\n      dup1\n      dup4\n      sload\n      div\n      mul\n      dup4\n      mstore\n      swap2\n      0x20\n      add\n      swap2\n      jump(tag_54)\n    tag_55:\n      dup3\n      add\n      swap2\n      swap1\n      0x00\n      mstore\n      keccak256(0x00, 0x20)\n      swap1\n    tag_56:\n      dup2\n      sload\n      dup2\n      mstore\n      swap1\n      0x01\n      add\n      swap1\n      0x20\n      add\n      dup1\n      dup4\n      gt\n      tag_56\n      jumpi\n      dup3\n      swap1\n      sub\n      0x1f\n      and\n      dup3\n      add\n      swap2\n    tag_54:\n      pop\n      pop\n      pop\n      pop\n      pop\n      dup2\n      mstore\n      0x20\n      add\n      0x04\n      dup3\n      add\n      dup1\n      sload\n      tag_57\n      swap1\n      tag_47\n      jump\t// in\n    tag_57:\n      dup1\n      0x1f\n      add\n      0x20\n      dup1\n      swap2\n      div\n      mul\n      0x20\n      add\n      mload(0x40)\n      swap1\n      dup2\n      add\n      0x40\n      mstore\n      dup1\n      swap3\n      swap2\n      swap1\n      dup2\n      dup2\n      mstore\n      0x20\n      add\n      dup3\n      dup1\n      sload\n      tag_58\n      swap1\n      tag_47\n      jump\t// in\n    tag_58:\n      dup1\n      iszero\n      tag_59\n      jumpi\n      dup1\n      0x1f\n      lt\n      tag_60\n      jumpi\n      0x0100\n      dup1\n      dup4\n      sload\n      div\n      mul\n      dup4\n      mstore\n      swap2\n      0x20\n      add\n      swap2\n      jump(tag_59)\n    tag_60:\n      dup3\n      add\n      swap2\n      swap1\n      0x00\n      mstore\n      keccak256(0x00, 0x20)\n      swap1\n    tag_61:\n      dup2\n      sload\n      dup2\n      mstore\n      swap1\n      0x01\n      add\n      swap1\n      0x20\n      add\n      dup1\n      dup4\n      gt\n      tag_61\n      jumpi\n      dup3\n      swap1\n      sub\n      0x1f\n      and\n      dup3\n      add\n      swap2\n    tag_59:\n      pop\n      pop\n      pop\n      pop\n      pop\n      dup2\n      mstore\n      0x20\n      add\n      0x05\n      dup3\n      add\n      dup1\n      sload\n      tag_62\n      swap1\n      tag_47\n      jump\t// in\n    tag_62:\n      dup1\n      0x1f\n      add\n      0x20\n      dup1\n      swap2\n      div\n      mul\n      0x20\n      add\n      mload(0x40)\n      swap1\n      dup2\n      add\n      0x40\n      mstore\n      dup1\n      swap3\n      swap2\n      swap1\n      dup2\n      dup2\n      mstore\n      0x20\n      add\n      dup3\n      dup1\n      sload\n      tag_63\n      swap1\n      tag_47\n      jump\t// in\n    tag_63:\n      dup1\n      iszero\n      tag_64\n      jumpi\n      dup1\n      0x1f\n      lt\n      tag_65\n      jumpi\n      0x0100\n      dup1\n      dup4\n      sload\n      div\n      mul\n      dup4\n      mstore\n      swap2\n      0x20\n      add\n      swap2\n      jump(tag_64)\n    tag_65:\n      dup3\n      add\n      swap2\n      swap1\n      0x00\n      mstore\n      keccak256(0x00, 0x20)\n      swap1\n    tag_66:\n      dup2\n      sload\n      dup2\n      mstore\n      swap1\n      0x01\n      add\n      swap1\n      0x20\n      add\n      dup1\n      dup4\n      gt\n      tag_66\n      jumpi\n      dup3\n      swap1\n      sub\n      0x1f\n      and\n      dup3\n      add\n      swap2\n    tag_64:\n      pop\n      pop\n      pop\n      pop\n      pop\n      dup2\n      mstore\n      0x20\n      add\n      0x06\n      dup3\n      add\n      sload\n      dup2\n      mstore\n      0x20\n      add\n      0x07\n      dup3\n      add\n      0x00\n      swap1\n      sload\n      swap1\n      0x0100\n      exp\n      swap1\n      div\n      0xff\n      and\n      iszero\n      iszero\n      iszero\n      iszero\n      dup2\n      mstore\n      pop\n      pop\n      dup2\n      mstore\n      0x20\n      add\n      swap1\n      0x01\n      add\n      swap1\n      jump(tag_43)\n    tag_44:\n      pop\n      pop\n      pop\n      pop\n      swap1\n      pop\n        /* \"database/processing/RoughDatabase.sol\":1018:1165  function getAllRough()... */\n      swap1\n      jump\t// out\n        /* \"database/processing/RoughDatabase.sol\":526:786  function addPermission(address contractPermission) public onlyOwner {... */\n    tag_18:\n        /* \"abstract/Ownable.sol\":1175:1188  _checkOwner() */\n      tag_68\n        /* \"abstract/Ownable.sol\":1175:1186  _checkOwner */\n      tag_69\n        /* \"abstract/Ownable.sol\":1175:1188  _checkOwner() */\n      jump\t// in\n    tag_68:\n        /* \"database/processing/RoughDatabase.sol\":628:639  permissions */\n      0x02\n        /* \"database/processing/RoughDatabase.sol\":628:659  permissions[contractPermission] */\n      0x00\n        /* \"database/processing/RoughDatabase.sol\":640:658  contractPermission */\n      dup3\n        /* \"database/processing/RoughDatabase.sol\":628:659  permissions[contractPermission] */\n      0xffffffffffffffffffffffffffffffffffffffff\n      and\n      0xffffffffffffffffffffffffffffffffffffffff\n      and\n      dup2\n      mstore\n      0x20\n      add\n      swap1\n      dup2\n      mstore\n      0x20\n      add\n      0x00\n      keccak256\n      0x00\n      swap1\n      sload\n      swap1\n      0x0100\n      exp\n      swap1\n      div\n      0xff\n      and\n        /* \"database/processing/RoughDatabase.sol\":627:659  !permissions[contractPermission] */\n      iszero\n        /* \"database/processing/RoughDatabase.sol\":605:729  require(... */\n      tag_71\n      jumpi\n      mload(0x40)\n      0x08c379a000000000000000000000000000000000000000000000000000000000\n      dup2\n      mstore\n      0x04\n      add\n      tag_72\n      swap1\n      tag_73\n      jump\t// in\n    tag_72:\n      mload(0x40)\n      dup1\n      swap2\n      sub\n      swap1\n      revert\n    tag_71:\n        /* \"database/processing/RoughDatabase.sol\":774:778  true */\n      0x01\n        /* \"database/processing/RoughDatabase.sol\":740:751  permissions */\n      0x02\n        /* \"database/processing/RoughDatabase.sol\":740:771  permissions[contractPermission] */\n      0x00\n        /* \"database/processing/RoughDatabase.sol\":752:770  contractPermission */\n      dup4\n        /* \"database/processing/RoughDatabase.sol\":740:771  permissions[contractPermission] */\n      0xffffffffffffffffffffffffffffffffffffffff\n      and\n      0xffffffffffffffffffffffffffffffffffffffff\n      and\n      dup2\n      mstore\n      0x20\n      add\n      swap1\n      dup2\n      mstore\n      0x20\n      add\n      0x00\n      keccak256\n      0x00\n        /* \"database/processing/RoughDatabase.sol\":740:778  permissions[contractPermission] = true */\n      0x0100\n      exp\n      dup2\n      sload\n      dup2\n      0xff\n      mul\n      not\n      and\n      swap1\n      dup4\n      iszero\n      iszero\n      mul\n      or\n      swap1\n      sstore\n      pop\n        /* \"database/processing/RoughDatabase.sol\":526:786  function addPermission(address contractPermission) public onlyOwner {... */\n      pop\n      jump\t// out\n        /* \"database/processing/RoughDatabase.sol\":794:888  function addRough(Rough memory item) public onlyPermissions {... */\n    tag_22:\n        /* \"database/processing/RoughDatabase.sol\":365:376  permissions */\n      0x02\n        /* \"database/processing/RoughDatabase.sol\":365:390  permissions[_msgSender()] */\n      0x00\n        /* \"database/processing/RoughDatabase.sol\":377:389  _msgSender() */\n      tag_75\n        /* \"database/processing/RoughDatabase.sol\":377:387  _msgSender */\n      tag_38\n        /* \"database/processing/RoughDatabase.sol\":377:389  _msgSender() */\n      jump\t// in\n    tag_75:\n        /* \"database/processing/RoughDatabase.sol\":365:390  permissions[_msgSender()] */\n      0xffffffffffffffffffffffffffffffffffffffff\n      and\n      0xffffffffffffffffffffffffffffffffffffffff\n      and\n      dup2\n      mstore\n      0x20\n      add\n      swap1\n      dup2\n      mstore\n      0x20\n      add\n      0x00\n      keccak256\n      0x00\n      swap1\n      sload\n      swap1\n      0x0100\n      exp\n      swap1\n      div\n      0xff\n      and\n        /* \"database/processing/RoughDatabase.sol\":343:464  require(... */\n      tag_76\n      jumpi\n      mload(0x40)\n      0x08c379a000000000000000000000000000000000000000000000000000000000\n      dup2\n      mstore\n      0x04\n      add\n      tag_77\n      swap1\n      tag_41\n      jump\t// in\n    tag_77:\n      mload(0x40)\n      dup1\n      swap2\n      sub\n      swap1\n      revert\n    tag_76:\n        /* \"database/processing/RoughDatabase.sol\":865:869  list */\n      0x01\n        /* \"database/processing/RoughDatabase.sol\":875:879  item */\n      dup2\n        /* \"database/processing/RoughDatabase.sol\":865:880  list.push(item) */\n      swap1\n      dup1\n      0x01\n      dup2\n      sload\n      add\n      dup1\n      dup3\n      sstore\n      dup1\n      swap2\n      pop\n      pop\n      0x01\n      swap1\n      sub\n      swap1\n      0x00\n      mstore\n      keccak256(0x00, 0x20)\n      swap1\n      0x08\n      mul\n      add\n      0x00\n      swap1\n      swap2\n      swap1\n      swap2\n      swap1\n      swap2\n      pop\n      0x00\n      dup3\n      add\n      mload\n      dup2\n      0x00\n      add\n      sstore\n      0x20\n      dup3\n      add\n      mload\n      dup2\n      0x01\n      add\n      swap1\n      dup2\n      tag_80\n      swap2\n      swap1\n      tag_81\n      jump\t// in\n    tag_80:\n      pop\n      0x40\n      dup3\n      add\n      mload\n      dup2\n      0x02\n      add\n      exp(0x0100, 0x00)\n      dup2\n      sload\n      dup2\n      0xffffffffffffffffffffffffffffffffffffffff\n      mul\n      not\n      and\n      swap1\n      dup4\n      0xffffffffffffffffffffffffffffffffffffffff\n      and\n      mul\n      or\n      swap1\n      sstore\n      pop\n      0x60\n      dup3\n      add\n      mload\n      dup2\n      0x03\n      add\n      swap1\n      dup2\n      tag_82\n      swap2\n      swap1\n      tag_81\n      jump\t// in\n    tag_82:\n      pop\n      0x80\n      dup3\n      add\n      mload\n      dup2\n      0x04\n      add\n      swap1\n      dup2\n      tag_83\n      swap2\n      swap1\n      tag_81\n      jump\t// in\n    tag_83:\n      pop\n      0xa0\n      dup3\n      add\n      mload\n      dup2\n      0x05\n      add\n      swap1\n      dup2\n      tag_84\n      swap2\n      swap1\n      tag_81\n      jump\t// in\n    tag_84:\n      pop\n      0xc0\n      dup3\n      add\n      mload\n      dup2\n      0x06\n      add\n      sstore\n      0xe0\n      dup3\n      add\n      mload\n      dup2\n      0x07\n      add\n      exp(0x0100, 0x00)\n      dup2\n      sload\n      dup2\n      0xff\n      mul\n      not\n      and\n      swap1\n      dup4\n      iszero\n      iszero\n      mul\n      or\n      swap1\n      sstore\n      pop\n      pop\n      pop\n        /* \"database/processing/RoughDatabase.sol\":794:888  function addRough(Rough memory item) public onlyPermissions {... */\n      pop\n      jump\t// out\n        /* \"abstract/Ownable.sol\":2801:2892  function destroy() public onlyOwner {... */\n    tag_24:\n        /* \"abstract/Ownable.sol\":1175:1188  _checkOwner() */\n      tag_86\n        /* \"abstract/Ownable.sol\":1175:1186  _checkOwner */\n      tag_69\n        /* \"abstract/Ownable.sol\":1175:1188  _checkOwner() */\n      jump\t// in\n    tag_86:\n        /* \"abstract/Ownable.sol\":2877:2881  this */\n      address\n        /* \"abstract/Ownable.sol\":2848:2884  selfdestruct(payable(address(this))) */\n      0xffffffffffffffffffffffffffffffffffffffff\n      and\n      selfdestruct\n        /* \"abstract/Ownable.sol\":1289:1376  function owner() public view virtual returns (address) {... */\n    tag_26:\n        /* \"abstract/Ownable.sol\":1335:1342  address */\n      0x00\n        /* \"abstract/Ownable.sol\":1362:1368  _owner */\n      dup1\n      0x00\n      swap1\n      sload\n      swap1\n      0x0100\n      exp\n      swap1\n      div\n      0xffffffffffffffffffffffffffffffffffffffff\n      and\n        /* \"abstract/Ownable.sol\":1355:1368  return _owner */\n      swap1\n      pop\n        /* \"abstract/Ownable.sol\":1289:1376  function owner() public view virtual returns (address) {... */\n      swap1\n      jump\t// out\n        /* \"database/processing/RoughDatabase.sol\":896:1010  function addChecked(uint256 RoughId) public onlyPermissions {... */\n    tag_32:\n        /* \"database/processing/RoughDatabase.sol\":365:376  permissions */\n      0x02\n        /* \"database/processing/RoughDatabase.sol\":365:390  permissions[_msgSender()] */\n      0x00\n        /* \"database/processing/RoughDatabase.sol\":377:389  _msgSender() */\n      tag_90\n        /* \"database/processing/RoughDatabase.sol\":377:387  _msgSender */\n      tag_38\n        /* \"database/processing/RoughDatabase.sol\":377:389  _msgSender() */\n      jump\t// in\n    tag_90:\n        /* \"database/processing/RoughDatabase.sol\":365:390  permissions[_msgSender()] */\n      0xffffffffffffffffffffffffffffffffffffffff\n      and\n      0xffffffffffffffffffffffffffffffffffffffff\n      and\n      dup2\n      mstore\n      0x20\n      add\n      swap1\n      dup2\n      mstore\n      0x20\n      add\n      0x00\n      keccak256\n      0x00\n      swap1\n      sload\n      swap1\n      0x0100\n      exp\n      swap1\n      div\n      0xff\n      and\n        /* \"database/processing/RoughDatabase.sol\":343:464  require(... */\n      tag_91\n      jumpi\n      mload(0x40)\n      0x08c379a000000000000000000000000000000000000000000000000000000000\n      dup2\n      mstore\n      0x04\n      add\n      tag_92\n      swap1\n      tag_41\n      jump\t// in\n    tag_92:\n      mload(0x40)\n      dup1\n      swap2\n      sub\n      swap1\n      revert\n    tag_91:\n        /* \"database/processing/RoughDatabase.sol\":998:1002  true */\n      0x01\n        /* \"database/processing/RoughDatabase.sol\":967:971  list */\n      dup1\n        /* \"database/processing/RoughDatabase.sol\":972:979  RoughId */\n      dup3\n        /* \"database/processing/RoughDatabase.sol\":967:980  list[RoughId] */\n      dup2\n      sload\n      dup2\n      lt\n      tag_94\n      jumpi\n      tag_95\n      tag_96\n      jump\t// in\n    tag_95:\n    tag_94:\n      swap1\n      0x00\n      mstore\n      keccak256(0x00, 0x20)\n      swap1\n      0x08\n      mul\n      add\n        /* \"database/processing/RoughDatabase.sol\":967:995  list[RoughId].roughIsChecked */\n      0x07\n      add\n      0x00\n        /* \"database/processing/RoughDatabase.sol\":967:1002  list[RoughId].roughIsChecked = true */\n      0x0100\n      exp\n      dup2\n      sload\n      dup2\n      0xff\n      mul\n      not\n      and\n      swap1\n      dup4\n      iszero\n      iszero\n      mul\n      or\n      swap1\n      sstore\n      pop\n        /* \"database/processing/RoughDatabase.sol\":896:1010  function addChecked(uint256 RoughId) public onlyPermissions {... */\n      pop\n      jump\t// out\n        /* \"abstract/Ownable.sol\":2204:2442  function transferOwnership(address newOwner) public virtual onlyOwner {... */\n    tag_35:\n        /* \"abstract/Ownable.sol\":1175:1188  _checkOwner() */\n      tag_99\n        /* \"abstract/Ownable.sol\":1175:1186  _checkOwner */\n      tag_69\n        /* \"abstract/Ownable.sol\":1175:1188  _checkOwner() */\n      jump\t// in\n    tag_99:\n        /* \"abstract/Ownable.sol\":2327:2328  0 */\n      0x00\n        /* \"abstract/Ownable.sol\":2307:2329  newOwner != address(0) */\n      0xffffffffffffffffffffffffffffffffffffffff\n      and\n        /* \"abstract/Ownable.sol\":2307:2315  newOwner */\n      dup2\n        /* \"abstract/Ownable.sol\":2307:2329  newOwner != address(0) */\n      0xffffffffffffffffffffffffffffffffffffffff\n      and\n      sub\n        /* \"abstract/Ownable.sol\":2285:2395  require(... */\n      tag_101\n      jumpi\n      mload(0x40)\n      0x08c379a000000000000000000000000000000000000000000000000000000000\n      dup2\n      mstore\n      0x04\n      add\n      tag_102\n      swap1\n      tag_103\n      jump\t// in\n    tag_102:\n      mload(0x40)\n      dup1\n      swap2\n      sub\n      swap1\n      revert\n    tag_101:\n        /* \"abstract/Ownable.sol\":2406:2434  _transferOwnership(newOwner) */\n      tag_104\n        /* \"abstract/Ownable.sol\":2425:2433  newOwner */\n      dup2\n        /* \"abstract/Ownable.sol\":2406:2424  _transferOwnership */\n      tag_105\n        /* \"abstract/Ownable.sol\":2406:2434  _transferOwnership(newOwner) */\n      jump\t// in\n    tag_104:\n        /* \"abstract/Ownable.sol\":2204:2442  function transferOwnership(address newOwner) public virtual onlyOwner {... */\n      pop\n      jump\t// out\n        /* \"@openzeppelin/contracts/utils/Context.sol\":640:736  function _msgSender() internal view virtual returns (address) {... */\n    tag_38:\n        /* \"@openzeppelin/contracts/utils/Context.sol\":693:700  address */\n      0x00\n        /* \"@openzeppelin/contracts/utils/Context.sol\":719:729  msg.sender */\n      caller\n        /* \"@openzeppelin/contracts/utils/Context.sol\":712:729  return msg.sender */\n      swap1\n      pop\n        /* \"@openzeppelin/contracts/utils/Context.sol\":640:736  function _msgSender() internal view virtual returns (address) {... */\n      swap1\n      jump\t// out\n        /* \"abstract/Ownable.sol\":1454:1584  function _checkOwner() internal view virtual {... */\n    tag_69:\n        /* \"abstract/Ownable.sol\":1529:1539  msg.sender */\n      caller\n        /* \"abstract/Ownable.sol\":1518:1539  owner() == msg.sender */\n      0xffffffffffffffffffffffffffffffffffffffff\n      and\n        /* \"abstract/Ownable.sol\":1518:1525  owner() */\n      tag_108\n        /* \"abstract/Ownable.sol\":1518:1523  owner */\n      tag_26\n        /* \"abstract/Ownable.sol\":1518:1525  owner() */\n      jump\t// in\n    tag_108:\n        /* \"abstract/Ownable.sol\":1518:1539  owner() == msg.sender */\n      0xffffffffffffffffffffffffffffffffffffffff\n      and\n      eq\n        /* \"abstract/Ownable.sol\":1510:1576  require(owner() == msg.sender, \"Ownable: caller is not the owner\") */\n      tag_109\n      jumpi\n      mload(0x40)\n      0x08c379a000000000000000000000000000000000000000000000000000000000\n      dup2\n      mstore\n      0x04\n      add\n      tag_110\n      swap1\n      tag_111\n      jump\t// in\n    tag_110:\n      mload(0x40)\n      dup1\n      swap2\n      sub\n      swap1\n      revert\n    tag_109:\n        /* \"abstract/Ownable.sol\":1454:1584  function _checkOwner() internal view virtual {... */\n      jump\t// out\n        /* \"abstract/Ownable.sol\":2602:2793  function _transferOwnership(address newOwner) internal virtual {... */\n    tag_105:\n        /* \"abstract/Ownable.sol\":2676:2692  address oldOwner */\n      0x00\n        /* \"abstract/Ownable.sol\":2695:2701  _owner */\n      dup1\n      0x00\n      swap1\n      sload\n      swap1\n      0x0100\n      exp\n      swap1\n      div\n      0xffffffffffffffffffffffffffffffffffffffff\n      and\n        /* \"abstract/Ownable.sol\":2676:2701  address oldOwner = _owner */\n      swap1\n      pop\n        /* \"abstract/Ownable.sol\":2721:2729  newOwner */\n      dup2\n        /* \"abstract/Ownable.sol\":2712:2718  _owner */\n      0x00\n      dup1\n        /* \"abstract/Ownable.sol\":2712:2729  _owner = newOwner */\n      0x0100\n      exp\n      dup2\n      sload\n      dup2\n      0xffffffffffffffffffffffffffffffffffffffff\n      mul\n      not\n      and\n      swap1\n      dup4\n      0xffffffffffffffffffffffffffffffffffffffff\n      and\n      mul\n      or\n      swap1\n      sstore\n      pop\n        /* \"abstract/Ownable.sol\":2776:2784  newOwner */\n      dup2\n        /* \"abstract/Ownable.sol\":2745:2785  OwnershipTransferred(oldOwner, newOwner) */\n      0xffffffffffffffffffffffffffffffffffffffff\n      and\n        /* \"abstract/Ownable.sol\":2766:2774  oldOwner */\n      dup2\n        /* \"abstract/Ownable.sol\":2745:2785  OwnershipTransferred(oldOwner, newOwner) */\n      0xffffffffffffffffffffffffffffffffffffffff\n      and\n      0x8be0079c531659141344cd1fd0a4f28419497f9722a3daafe3b4186f6b6457e0\n      mload(0x40)\n      mload(0x40)\n      dup1\n      swap2\n      sub\n      swap1\n      log3\n        /* \"abstract/Ownable.sol\":2665:2793  {... */\n      pop\n        /* \"abstract/Ownable.sol\":2602:2793  function _transferOwnership(address newOwner) internal virtual {... */\n      pop\n      jump\t// out\n        /* \"#utility.yul\":7:143   */\n    tag_113:\n        /* \"#utility.yul\":96:102   */\n      0x00\n        /* \"#utility.yul\":130:135   */\n      dup2\n        /* \"#utility.yul\":124:136   */\n      mload\n        /* \"#utility.yul\":114:136   */\n      swap1\n      pop\n        /* \"#utility.yul\":7:143   */\n      swap2\n      swap1\n      pop\n      jump\t// out\n        /* \"#utility.yul\":149:355   */\n    tag_114:\n        /* \"#utility.yul\":270:281   */\n      0x00\n        /* \"#utility.yul\":304:310   */\n      dup3\n        /* \"#utility.yul\":299:302   */\n      dup3\n        /* \"#utility.yul\":292:311   */\n      mstore\n        /* \"#utility.yul\":344:348   */\n      0x20\n        /* \"#utility.yul\":339:342   */\n      dup3\n        /* \"#utility.yul\":335:349   */\n      add\n        /* \"#utility.yul\":320:349   */\n      swap1\n      pop\n        /* \"#utility.yul\":149:355   */\n      swap3\n      swap2\n      pop\n      pop\n      jump\t// out\n        /* \"#utility.yul\":361:515   */\n    tag_115:\n        /* \"#utility.yul\":450:454   */\n      0x00\n        /* \"#utility.yul\":473:476   */\n      dup2\n        /* \"#utility.yul\":465:476   */\n      swap1\n      pop\n        /* \"#utility.yul\":503:507   */\n      0x20\n        /* \"#utility.yul\":498:501   */\n      dup3\n        /* \"#utility.yul\":494:508   */\n      add\n        /* \"#utility.yul\":486:508   */\n      swap1\n      pop\n        /* \"#utility.yul\":361:515   */\n      swap2\n      swap1\n      pop\n      jump\t// out\n        /* \"#utility.yul\":521:598   */\n    tag_116:\n        /* \"#utility.yul\":558:565   */\n      0x00\n        /* \"#utility.yul\":587:592   */\n      dup2\n        /* \"#utility.yul\":576:592   */\n      swap1\n      pop\n        /* \"#utility.yul\":521:598   */\n      swap2\n      swap1\n      pop\n      jump\t// out\n        /* \"#utility.yul\":604:712   */\n    tag_117:\n        /* \"#utility.yul\":681:705   */\n      tag_185\n        /* \"#utility.yul\":699:704   */\n      dup2\n        /* \"#utility.yul\":681:705   */\n      tag_116\n      jump\t// in\n    tag_185:\n        /* \"#utility.yul\":676:679   */\n      dup3\n        /* \"#utility.yul\":669:706   */\n      mstore\n        /* \"#utility.yul\":604:712   */\n      pop\n      pop\n      jump\t// out\n        /* \"#utility.yul\":718:817   */\n    tag_118:\n        /* \"#utility.yul\":770:776   */\n      0x00\n        /* \"#utility.yul\":804:809   */\n      dup2\n        /* \"#utility.yul\":798:810   */\n      mload\n        /* \"#utility.yul\":788:810   */\n      swap1\n      pop\n        /* \"#utility.yul\":718:817   */\n      swap2\n      swap1\n      pop\n      jump\t// out\n        /* \"#utility.yul\":823:982   */\n    tag_119:\n        /* \"#utility.yul\":897:908   */\n      0x00\n        /* \"#utility.yul\":931:937   */\n      dup3\n        /* \"#utility.yul\":926:929   */\n      dup3\n        /* \"#utility.yul\":919:938   */\n      mstore\n        /* \"#utility.yul\":971:975   */\n      0x20\n        /* \"#utility.yul\":966:969   */\n      dup3\n        /* \"#utility.yul\":962:976   */\n      add\n        /* \"#utility.yul\":947:976   */\n      swap1\n      pop\n        /* \"#utility.yul\":823:982   */\n      swap3\n      swap2\n      pop\n      pop\n      jump\t// out\n        /* \"#utility.yul\":988:1234   */\n    tag_120:\n        /* \"#utility.yul\":1069:1070   */\n      0x00\n        /* \"#utility.yul\":1079:1192   */\n    tag_189:\n        /* \"#utility.yul\":1093:1099   */\n      dup4\n        /* \"#utility.yul\":1090:1091   */\n      dup2\n        /* \"#utility.yul\":1087:1100   */\n      lt\n        /* \"#utility.yul\":1079:1192   */\n      iszero\n      tag_191\n      jumpi\n        /* \"#utility.yul\":1178:1179   */\n      dup1\n        /* \"#utility.yul\":1173:1176   */\n      dup3\n        /* \"#utility.yul\":1169:1180   */\n      add\n        /* \"#utility.yul\":1163:1181   */\n      mload\n        /* \"#utility.yul\":1159:1160   */\n      dup2\n        /* \"#utility.yul\":1154:1157   */\n      dup5\n        /* \"#utility.yul\":1150:1161   */\n      add\n        /* \"#utility.yul\":1143:1182   */\n      mstore\n        /* \"#utility.yul\":1115:1117   */\n      0x20\n        /* \"#utility.yul\":1112:1113   */\n      dup2\n        /* \"#utility.yul\":1108:1118   */\n      add\n        /* \"#utility.yul\":1103:1118   */\n      swap1\n      pop\n        /* \"#utility.yul\":1079:1192   */\n      jump(tag_189)\n    tag_191:\n        /* \"#utility.yul\":1226:1227   */\n      0x00\n        /* \"#utility.yul\":1217:1223   */\n      dup5\n        /* \"#utility.yul\":1212:1215   */\n      dup5\n        /* \"#utility.yul\":1208:1224   */\n      add\n        /* \"#utility.yul\":1201:1228   */\n      mstore\n        /* \"#utility.yul\":1050:1234   */\n      pop\n        /* \"#utility.yul\":988:1234   */\n      pop\n      pop\n      pop\n      jump\t// out\n        /* \"#utility.yul\":1240:1342   */\n    tag_121:\n        /* \"#utility.yul\":1281:1287   */\n      0x00\n        /* \"#utility.yul\":1332:1334   */\n      0x1f\n        /* \"#utility.yul\":1328:1335   */\n      not\n        /* \"#utility.yul\":1323:1325   */\n      0x1f\n        /* \"#utility.yul\":1316:1321   */\n      dup4\n        /* \"#utility.yul\":1312:1326   */\n      add\n        /* \"#utility.yul\":1308:1336   */\n      and\n        /* \"#utility.yul\":1298:1336   */\n      swap1\n      pop\n        /* \"#utility.yul\":1240:1342   */\n      swap2\n      swap1\n      pop\n      jump\t// out\n        /* \"#utility.yul\":1348:1705   */\n    tag_122:\n        /* \"#utility.yul\":1426:1429   */\n      0x00\n        /* \"#utility.yul\":1454:1493   */\n      tag_194\n        /* \"#utility.yul\":1487:1492   */\n      dup3\n        /* \"#utility.yul\":1454:1493   */\n      tag_118\n      jump\t// in\n    tag_194:\n        /* \"#utility.yul\":1509:1570   */\n      tag_195\n        /* \"#utility.yul\":1563:1569   */\n      dup2\n        /* \"#utility.yul\":1558:1561   */\n      dup6\n        /* \"#utility.yul\":1509:1570   */\n      tag_119\n      jump\t// in\n    tag_195:\n        /* \"#utility.yul\":1502:1570   */\n      swap4\n      pop\n        /* \"#utility.yul\":1579:1644   */\n      tag_196\n        /* \"#utility.yul\":1637:1643   */\n      dup2\n        /* \"#utility.yul\":1632:1635   */\n      dup6\n        /* \"#utility.yul\":1625:1629   */\n      0x20\n        /* \"#utility.yul\":1618:1623   */\n      dup7\n        /* \"#utility.yul\":1614:1630   */\n      add\n        /* \"#utility.yul\":1579:1644   */\n      tag_120\n      jump\t// in\n    tag_196:\n        /* \"#utility.yul\":1669:1698   */\n      tag_197\n        /* \"#utility.yul\":1691:1697   */\n      dup2\n        /* \"#utility.yul\":1669:1698   */\n      tag_121\n      jump\t// in\n    tag_197:\n        /* \"#utility.yul\":1664:1667   */\n      dup5\n        /* \"#utility.yul\":1660:1699   */\n      add\n        /* \"#utility.yul\":1653:1699   */\n      swap2\n      pop\n        /* \"#utility.yul\":1430:1705   */\n      pop\n        /* \"#utility.yul\":1348:1705   */\n      swap3\n      swap2\n      pop\n      pop\n      jump\t// out\n        /* \"#utility.yul\":1711:1837   */\n    tag_123:\n        /* \"#utility.yul\":1748:1755   */\n      0x00\n        /* \"#utility.yul\":1788:1830   */\n      0xffffffffffffffffffffffffffffffffffffffff\n        /* \"#utility.yul\":1781:1786   */\n      dup3\n        /* \"#utility.yul\":1777:1831   */\n      and\n        /* \"#utility.yul\":1766:1831   */\n      swap1\n      pop\n        /* \"#utility.yul\":1711:1837   */\n      swap2\n      swap1\n      pop\n      jump\t// out\n        /* \"#utility.yul\":1843:1939   */\n    tag_124:\n        /* \"#utility.yul\":1880:1887   */\n      0x00\n        /* \"#utility.yul\":1909:1933   */\n      tag_200\n        /* \"#utility.yul\":1927:1932   */\n      dup3\n        /* \"#utility.yul\":1909:1933   */\n      tag_123\n      jump\t// in\n    tag_200:\n        /* \"#utility.yul\":1898:1933   */\n      swap1\n      pop\n        /* \"#utility.yul\":1843:1939   */\n      swap2\n      swap1\n      pop\n      jump\t// out\n        /* \"#utility.yul\":1945:2053   */\n    tag_125:\n        /* \"#utility.yul\":2022:2046   */\n      tag_202\n        /* \"#utility.yul\":2040:2045   */\n      dup2\n        /* \"#utility.yul\":2022:2046   */\n      tag_124\n      jump\t// in\n    tag_202:\n        /* \"#utility.yul\":2017:2020   */\n      dup3\n        /* \"#utility.yul\":2010:2047   */\n      mstore\n        /* \"#utility.yul\":1945:2053   */\n      pop\n      pop\n      jump\t// out\n        /* \"#utility.yul\":2059:2149   */\n    tag_126:\n        /* \"#utility.yul\":2093:2100   */\n      0x00\n        /* \"#utility.yul\":2136:2141   */\n      dup2\n        /* \"#utility.yul\":2129:2142   */\n      iszero\n        /* \"#utility.yul\":2122:2143   */\n      iszero\n        /* \"#utility.yul\":2111:2143   */\n      swap1\n      pop\n        /* \"#utility.yul\":2059:2149   */\n      swap2\n      swap1\n      pop\n      jump\t// out\n        /* \"#utility.yul\":2155:2254   */\n    tag_127:\n        /* \"#utility.yul\":2226:2247   */\n      tag_205\n        /* \"#utility.yul\":2241:2246   */\n      dup2\n        /* \"#utility.yul\":2226:2247   */\n      tag_126\n      jump\t// in\n    tag_205:\n        /* \"#utility.yul\":2221:2224   */\n      dup3\n        /* \"#utility.yul\":2214:2248   */\n      mstore\n        /* \"#utility.yul\":2155:2254   */\n      pop\n      pop\n      jump\t// out\n        /* \"#utility.yul\":2296:4191   */\n    tag_128:\n        /* \"#utility.yul\":2399:2402   */\n      0x00\n        /* \"#utility.yul\":2435:2441   */\n      0x0100\n        /* \"#utility.yul\":2430:2433   */\n      dup4\n        /* \"#utility.yul\":2426:2442   */\n      add\n        /* \"#utility.yul\":2527:2531   */\n      0x00\n        /* \"#utility.yul\":2520:2525   */\n      dup4\n        /* \"#utility.yul\":2516:2532   */\n      add\n        /* \"#utility.yul\":2510:2533   */\n      mload\n        /* \"#utility.yul\":2546:2609   */\n      tag_207\n        /* \"#utility.yul\":2603:2607   */\n      0x00\n        /* \"#utility.yul\":2598:2601   */\n      dup7\n        /* \"#utility.yul\":2594:2608   */\n      add\n        /* \"#utility.yul\":2580:2592   */\n      dup3\n        /* \"#utility.yul\":2546:2609   */\n      tag_117\n      jump\t// in\n    tag_207:\n        /* \"#utility.yul\":2452:2619   */\n      pop\n        /* \"#utility.yul\":2705:2709   */\n      0x20\n        /* \"#utility.yul\":2698:2703   */\n      dup4\n        /* \"#utility.yul\":2694:2710   */\n      add\n        /* \"#utility.yul\":2688:2711   */\n      mload\n        /* \"#utility.yul\":2758:2761   */\n      dup5\n        /* \"#utility.yul\":2752:2756   */\n      dup3\n        /* \"#utility.yul\":2748:2762   */\n      sub\n        /* \"#utility.yul\":2741:2745   */\n      0x20\n        /* \"#utility.yul\":2736:2739   */\n      dup7\n        /* \"#utility.yul\":2732:2746   */\n      add\n        /* \"#utility.yul\":2725:2763   */\n      mstore\n        /* \"#utility.yul\":2784:2857   */\n      tag_208\n        /* \"#utility.yul\":2852:2856   */\n      dup3\n        /* \"#utility.yul\":2838:2850   */\n      dup3\n        /* \"#utility.yul\":2784:2857   */\n      tag_122\n      jump\t// in\n    tag_208:\n        /* \"#utility.yul\":2776:2857   */\n      swap2\n      pop\n        /* \"#utility.yul\":2629:2868   */\n      pop\n        /* \"#utility.yul\":2957:2961   */\n      0x40\n        /* \"#utility.yul\":2950:2955   */\n      dup4\n        /* \"#utility.yul\":2946:2962   */\n      add\n        /* \"#utility.yul\":2940:2963   */\n      mload\n        /* \"#utility.yul\":2976:3039   */\n      tag_209\n        /* \"#utility.yul\":3033:3037   */\n      0x40\n        /* \"#utility.yul\":3028:3031   */\n      dup7\n        /* \"#utility.yul\":3024:3038   */\n      add\n        /* \"#utility.yul\":3010:3022   */\n      dup3\n        /* \"#utility.yul\":2976:3039   */\n      tag_125\n      jump\t// in\n    tag_209:\n        /* \"#utility.yul\":2878:3049   */\n      pop\n        /* \"#utility.yul\":3136:3140   */\n      0x60\n        /* \"#utility.yul\":3129:3134   */\n      dup4\n        /* \"#utility.yul\":3125:3141   */\n      add\n        /* \"#utility.yul\":3119:3142   */\n      mload\n        /* \"#utility.yul\":3189:3192   */\n      dup5\n        /* \"#utility.yul\":3183:3187   */\n      dup3\n        /* \"#utility.yul\":3179:3193   */\n      sub\n        /* \"#utility.yul\":3172:3176   */\n      0x60\n        /* \"#utility.yul\":3167:3170   */\n      dup7\n        /* \"#utility.yul\":3163:3177   */\n      add\n        /* \"#utility.yul\":3156:3194   */\n      mstore\n        /* \"#utility.yul\":3215:3288   */\n      tag_210\n        /* \"#utility.yul\":3283:3287   */\n      dup3\n        /* \"#utility.yul\":3269:3281   */\n      dup3\n        /* \"#utility.yul\":3215:3288   */\n      tag_122\n      jump\t// in\n    tag_210:\n        /* \"#utility.yul\":3207:3288   */\n      swap2\n      pop\n        /* \"#utility.yul\":3059:3299   */\n      pop\n        /* \"#utility.yul\":3392:3396   */\n      0x80\n        /* \"#utility.yul\":3385:3390   */\n      dup4\n        /* \"#utility.yul\":3381:3397   */\n      add\n        /* \"#utility.yul\":3375:3398   */\n      mload\n        /* \"#utility.yul\":3445:3448   */\n      dup5\n        /* \"#utility.yul\":3439:3443   */\n      dup3\n        /* \"#utility.yul\":3435:3449   */\n      sub\n        /* \"#utility.yul\":3428:3432   */\n      0x80\n        /* \"#utility.yul\":3423:3426   */\n      dup7\n        /* \"#utility.yul\":3419:3433   */\n      add\n        /* \"#utility.yul\":3412:3450   */\n      mstore\n        /* \"#utility.yul\":3471:3544   */\n      tag_211\n        /* \"#utility.yul\":3539:3543   */\n      dup3\n        /* \"#utility.yul\":3525:3537   */\n      dup3\n        /* \"#utility.yul\":3471:3544   */\n      tag_122\n      jump\t// in\n    tag_211:\n        /* \"#utility.yul\":3463:3544   */\n      swap2\n      pop\n        /* \"#utility.yul\":3309:3555   */\n      pop\n        /* \"#utility.yul\":3645:3649   */\n      0xa0\n        /* \"#utility.yul\":3638:3643   */\n      dup4\n        /* \"#utility.yul\":3634:3650   */\n      add\n        /* \"#utility.yul\":3628:3651   */\n      mload\n        /* \"#utility.yul\":3698:3701   */\n      dup5\n        /* \"#utility.yul\":3692:3696   */\n      dup3\n        /* \"#utility.yul\":3688:3702   */\n      sub\n        /* \"#utility.yul\":3681:3685   */\n      0xa0\n        /* \"#utility.yul\":3676:3679   */\n      dup7\n        /* \"#utility.yul\":3672:3686   */\n      add\n        /* \"#utility.yul\":3665:3703   */\n      mstore\n        /* \"#utility.yul\":3724:3797   */\n      tag_212\n        /* \"#utility.yul\":3792:3796   */\n      dup3\n        /* \"#utility.yul\":3778:3790   */\n      dup3\n        /* \"#utility.yul\":3724:3797   */\n      tag_122\n      jump\t// in\n    tag_212:\n        /* \"#utility.yul\":3716:3797   */\n      swap2\n      pop\n        /* \"#utility.yul\":3565:3808   */\n      pop\n        /* \"#utility.yul\":3894:3898   */\n      0xc0\n        /* \"#utility.yul\":3887:3892   */\n      dup4\n        /* \"#utility.yul\":3883:3899   */\n      add\n        /* \"#utility.yul\":3877:3900   */\n      mload\n        /* \"#utility.yul\":3913:3976   */\n      tag_213\n        /* \"#utility.yul\":3970:3974   */\n      0xc0\n        /* \"#utility.yul\":3965:3968   */\n      dup7\n        /* \"#utility.yul\":3961:3975   */\n      add\n        /* \"#utility.yul\":3947:3959   */\n      dup3\n        /* \"#utility.yul\":3913:3976   */\n      tag_117\n      jump\t// in\n    tag_213:\n        /* \"#utility.yul\":3818:3986   */\n      pop\n        /* \"#utility.yul\":4078:4082   */\n      0xe0\n        /* \"#utility.yul\":4071:4076   */\n      dup4\n        /* \"#utility.yul\":4067:4083   */\n      add\n        /* \"#utility.yul\":4061:4084   */\n      mload\n        /* \"#utility.yul\":4097:4154   */\n      tag_214\n        /* \"#utility.yul\":4148:4152   */\n      0xe0\n        /* \"#utility.yul\":4143:4146   */\n      dup7\n        /* \"#utility.yul\":4139:4153   */\n      add\n        /* \"#utility.yul\":4125:4137   */\n      dup3\n        /* \"#utility.yul\":4097:4154   */\n      tag_127\n      jump\t// in\n    tag_214:\n        /* \"#utility.yul\":3996:4164   */\n      pop\n        /* \"#utility.yul\":4181:4185   */\n      dup1\n        /* \"#utility.yul\":4174:4185   */\n      swap2\n      pop\n        /* \"#utility.yul\":2404:4191   */\n      pop\n        /* \"#utility.yul\":2296:4191   */\n      swap3\n      swap2\n      pop\n      pop\n      jump\t// out\n        /* \"#utility.yul\":4197:4441   */\n    tag_129:\n        /* \"#utility.yul\":4310:4320   */\n      0x00\n        /* \"#utility.yul\":4345:4435   */\n      tag_216\n        /* \"#utility.yul\":4431:4434   */\n      dup4\n        /* \"#utility.yul\":4423:4429   */\n      dup4\n        /* \"#utility.yul\":4345:4435   */\n      tag_128\n      jump\t// in\n    tag_216:\n        /* \"#utility.yul\":4331:4435   */\n      swap1\n      pop\n        /* \"#utility.yul\":4197:4441   */\n      swap3\n      swap2\n      pop\n      pop\n      jump\t// out\n        /* \"#utility.yul\":4447:4582   */\n    tag_130:\n        /* \"#utility.yul\":4539:4543   */\n      0x00\n        /* \"#utility.yul\":4571:4575   */\n      0x20\n        /* \"#utility.yul\":4566:4569   */\n      dup3\n        /* \"#utility.yul\":4562:4576   */\n      add\n        /* \"#utility.yul\":4554:4576   */\n      swap1\n      pop\n        /* \"#utility.yul\":4447:4582   */\n      swap2\n      swap1\n      pop\n      jump\t// out\n        /* \"#utility.yul\":4628:5715   */\n    tag_131:\n        /* \"#utility.yul\":4791:4794   */\n      0x00\n        /* \"#utility.yul\":4820:4896   */\n      tag_219\n        /* \"#utility.yul\":4890:4895   */\n      dup3\n        /* \"#utility.yul\":4820:4896   */\n      tag_113\n      jump\t// in\n    tag_219:\n        /* \"#utility.yul\":4912:5020   */\n      tag_220\n        /* \"#utility.yul\":5013:5019   */\n      dup2\n        /* \"#utility.yul\":5008:5011   */\n      dup6\n        /* \"#utility.yul\":4912:5020   */\n      tag_114\n      jump\t// in\n    tag_220:\n        /* \"#utility.yul\":4905:5020   */\n      swap4\n      pop\n        /* \"#utility.yul\":5046:5049   */\n      dup4\n        /* \"#utility.yul\":5091:5095   */\n      0x20\n        /* \"#utility.yul\":5083:5089   */\n      dup3\n        /* \"#utility.yul\":5079:5096   */\n      mul\n        /* \"#utility.yul\":5074:5077   */\n      dup6\n        /* \"#utility.yul\":5070:5097   */\n      add\n        /* \"#utility.yul\":5121:5199   */\n      tag_221\n        /* \"#utility.yul\":5193:5198   */\n      dup6\n        /* \"#utility.yul\":5121:5199   */\n      tag_115\n      jump\t// in\n    tag_221:\n        /* \"#utility.yul\":5222:5229   */\n      dup1\n        /* \"#utility.yul\":5253:5254   */\n      0x00\n        /* \"#utility.yul\":5238:5670   */\n    tag_222:\n        /* \"#utility.yul\":5263:5269   */\n      dup6\n        /* \"#utility.yul\":5260:5261   */\n      dup2\n        /* \"#utility.yul\":5257:5270   */\n      lt\n        /* \"#utility.yul\":5238:5670   */\n      iszero\n      tag_224\n      jumpi\n        /* \"#utility.yul\":5334:5343   */\n      dup5\n        /* \"#utility.yul\":5328:5332   */\n      dup5\n        /* \"#utility.yul\":5324:5344   */\n      sub\n        /* \"#utility.yul\":5319:5322   */\n      dup10\n        /* \"#utility.yul\":5312:5345   */\n      mstore\n        /* \"#utility.yul\":5385:5391   */\n      dup2\n        /* \"#utility.yul\":5379:5392   */\n      mload\n        /* \"#utility.yul\":5413:5521   */\n      tag_225\n        /* \"#utility.yul\":5516:5520   */\n      dup6\n        /* \"#utility.yul\":5501:5514   */\n      dup3\n        /* \"#utility.yul\":5413:5521   */\n      tag_129\n      jump\t// in\n    tag_225:\n        /* \"#utility.yul\":5405:5521   */\n      swap5\n      pop\n        /* \"#utility.yul\":5544:5626   */\n      tag_226\n        /* \"#utility.yul\":5619:5625   */\n      dup4\n        /* \"#utility.yul\":5544:5626   */\n      tag_130\n      jump\t// in\n    tag_226:\n        /* \"#utility.yul\":5534:5626   */\n      swap3\n      pop\n        /* \"#utility.yul\":5655:5659   */\n      0x20\n        /* \"#utility.yul\":5650:5653   */\n      dup11\n        /* \"#utility.yul\":5646:5660   */\n      add\n        /* \"#utility.yul\":5639:5660   */\n      swap10\n      pop\n        /* \"#utility.yul\":5298:5670   */\n      pop\n        /* \"#utility.yul\":5285:5286   */\n      0x01\n        /* \"#utility.yul\":5282:5283   */\n      dup2\n        /* \"#utility.yul\":5278:5287   */\n      add\n        /* \"#utility.yul\":5273:5287   */\n      swap1\n      pop\n        /* \"#utility.yul\":5238:5670   */\n      jump(tag_222)\n    tag_224:\n        /* \"#utility.yul\":5242:5256   */\n      pop\n        /* \"#utility.yul\":5686:5690   */\n      dup3\n        /* \"#utility.yul\":5679:5690   */\n      swap8\n      pop\n        /* \"#utility.yul\":5706:5709   */\n      dup8\n        /* \"#utility.yul\":5699:5709   */\n      swap6\n      pop\n        /* \"#utility.yul\":4796:5715   */\n      pop\n      pop\n      pop\n      pop\n      pop\n        /* \"#utility.yul\":4628:5715   */\n      swap3\n      swap2\n      pop\n      pop\n      jump\t// out\n        /* \"#utility.yul\":5721:6182   */\n    tag_14:\n        /* \"#utility.yul\":5908:5912   */\n      0x00\n        /* \"#utility.yul\":5946:5948   */\n      0x20\n        /* \"#utility.yul\":5935:5944   */\n      dup3\n        /* \"#utility.yul\":5931:5949   */\n      add\n        /* \"#utility.yul\":5923:5949   */\n      swap1\n      pop\n        /* \"#utility.yul\":5995:6004   */\n      dup2\n        /* \"#utility.yul\":5989:5993   */\n      dup2\n        /* \"#utility.yul\":5985:6005   */\n      sub\n        /* \"#utility.yul\":5981:5982   */\n      0x00\n        /* \"#utility.yul\":5970:5979   */\n      dup4\n        /* \"#utility.yul\":5966:5983   */\n      add\n        /* \"#utility.yul\":5959:6006   */\n      mstore\n        /* \"#utility.yul\":6023:6175   */\n      tag_228\n        /* \"#utility.yul\":6170:6174   */\n      dup2\n        /* \"#utility.yul\":6161:6167   */\n      dup5\n        /* \"#utility.yul\":6023:6175   */\n      tag_131\n      jump\t// in\n    tag_228:\n        /* \"#utility.yul\":6015:6175   */\n      swap1\n      pop\n        /* \"#utility.yul\":5721:6182   */\n      swap3\n      swap2\n      pop\n      pop\n      jump\t// out\n        /* \"#utility.yul\":6188:6263   */\n    tag_132:\n        /* \"#utility.yul\":6221:6227   */\n      0x00\n        /* \"#utility.yul\":6254:6256   */\n      0x40\n        /* \"#utility.yul\":6248:6257   */\n      mload\n        /* \"#utility.yul\":6238:6257   */\n      swap1\n      pop\n        /* \"#utility.yul\":6188:6263   */\n      swap1\n      jump\t// out\n        /* \"#utility.yul\":6269:6386   */\n    tag_133:\n        /* \"#utility.yul\":6378:6379   */\n      0x00\n        /* \"#utility.yul\":6375:6376   */\n      dup1\n        /* \"#utility.yul\":6368:6380   */\n      revert\n        /* \"#utility.yul\":6392:6509   */\n    tag_134:\n        /* \"#utility.yul\":6501:6502   */\n      0x00\n        /* \"#utility.yul\":6498:6499   */\n      dup1\n        /* \"#utility.yul\":6491:6503   */\n      revert\n        /* \"#utility.yul\":6515:6637   */\n    tag_135:\n        /* \"#utility.yul\":6588:6612   */\n      tag_233\n        /* \"#utility.yul\":6606:6611   */\n      dup2\n        /* \"#utility.yul\":6588:6612   */\n      tag_124\n      jump\t// in\n    tag_233:\n        /* \"#utility.yul\":6581:6586   */\n      dup2\n        /* \"#utility.yul\":6578:6613   */\n      eq\n        /* \"#utility.yul\":6568:6631   */\n      tag_234\n      jumpi\n        /* \"#utility.yul\":6627:6628   */\n      0x00\n        /* \"#utility.yul\":6624:6625   */\n      dup1\n        /* \"#utility.yul\":6617:6629   */\n      revert\n        /* \"#utility.yul\":6568:6631   */\n    tag_234:\n        /* \"#utility.yul\":6515:6637   */\n      pop\n      jump\t// out\n        /* \"#utility.yul\":6643:6782   */\n    tag_136:\n        /* \"#utility.yul\":6689:6694   */\n      0x00\n        /* \"#utility.yul\":6727:6733   */\n      dup2\n        /* \"#utility.yul\":6714:6734   */\n      calldataload\n        /* \"#utility.yul\":6705:6734   */\n      swap1\n      pop\n        /* \"#utility.yul\":6743:6776   */\n      tag_236\n        /* \"#utility.yul\":6770:6775   */\n      dup2\n        /* \"#utility.yul\":6743:6776   */\n      tag_135\n      jump\t// in\n    tag_236:\n        /* \"#utility.yul\":6643:6782   */\n      swap3\n      swap2\n      pop\n      pop\n      jump\t// out\n        /* \"#utility.yul\":6788:7117   */\n    tag_17:\n        /* \"#utility.yul\":6847:6853   */\n      0x00\n        /* \"#utility.yul\":6896:6898   */\n      0x20\n        /* \"#utility.yul\":6884:6893   */\n      dup3\n        /* \"#utility.yul\":6875:6882   */\n      dup5\n        /* \"#utility.yul\":6871:6894   */\n      sub\n        /* \"#utility.yul\":6867:6899   */\n      slt\n        /* \"#utility.yul\":6864:6983   */\n      iszero\n      tag_238\n      jumpi\n        /* \"#utility.yul\":6902:6981   */\n      tag_239\n      tag_133\n      jump\t// in\n    tag_239:\n        /* \"#utility.yul\":6864:6983   */\n    tag_238:\n        /* \"#utility.yul\":7022:7023   */\n      0x00\n        /* \"#utility.yul\":7047:7100   */\n      tag_240\n        /* \"#utility.yul\":7092:7099   */\n      dup5\n        /* \"#utility.yul\":7083:7089   */\n      dup3\n        /* \"#utility.yul\":7072:7081   */\n      dup6\n        /* \"#utility.yul\":7068:7090   */\n      add\n        /* \"#utility.yul\":7047:7100   */\n      tag_136\n      jump\t// in\n    tag_240:\n        /* \"#utility.yul\":7037:7100   */\n      swap2\n      pop\n        /* \"#utility.yul\":6993:7110   */\n      pop\n        /* \"#utility.yul\":6788:7117   */\n      swap3\n      swap2\n      pop\n      pop\n      jump\t// out\n        /* \"#utility.yul\":7123:7240   */\n    tag_137:\n        /* \"#utility.yul\":7232:7233   */\n      0x00\n        /* \"#utility.yul\":7229:7230   */\n      dup1\n        /* \"#utility.yul\":7222:7234   */\n      revert\n        /* \"#utility.yul\":7246:7426   */\n    tag_138:\n        /* \"#utility.yul\":7294:7371   */\n      0x4e487b7100000000000000000000000000000000000000000000000000000000\n        /* \"#utility.yul\":7291:7292   */\n      0x00\n        /* \"#utility.yul\":7284:7372   */\n      mstore\n        /* \"#utility.yul\":7391:7395   */\n      0x41\n        /* \"#utility.yul\":7388:7389   */\n      0x04\n        /* \"#utility.yul\":7381:7396   */\n      mstore\n        /* \"#utility.yul\":7415:7419   */\n      0x24\n        /* \"#utility.yul\":7412:7413   */\n      0x00\n        /* \"#utility.yul\":7405:7420   */\n      revert\n        /* \"#utility.yul\":7432:7713   */\n    tag_139:\n        /* \"#utility.yul\":7515:7542   */\n      tag_244\n        /* \"#utility.yul\":7537:7541   */\n      dup3\n        /* \"#utility.yul\":7515:7542   */\n      tag_121\n      jump\t// in\n    tag_244:\n        /* \"#utility.yul\":7507:7513   */\n      dup2\n        /* \"#utility.yul\":7503:7543   */\n      add\n        /* \"#utility.yul\":7645:7651   */\n      dup2\n        /* \"#utility.yul\":7633:7643   */\n      dup2\n        /* \"#utility.yul\":7630:7652   */\n      lt\n        /* \"#utility.yul\":7609:7627   */\n      0xffffffffffffffff\n        /* \"#utility.yul\":7597:7607   */\n      dup3\n        /* \"#utility.yul\":7594:7628   */\n      gt\n        /* \"#utility.yul\":7591:7653   */\n      or\n        /* \"#utility.yul\":7588:7676   */\n      iszero\n      tag_245\n      jumpi\n        /* \"#utility.yul\":7656:7674   */\n      tag_246\n      tag_138\n      jump\t// in\n    tag_246:\n        /* \"#utility.yul\":7588:7676   */\n    tag_245:\n        /* \"#utility.yul\":7696:7706   */\n      dup1\n        /* \"#utility.yul\":7692:7694   */\n      0x40\n        /* \"#utility.yul\":7685:7707   */\n      mstore\n        /* \"#utility.yul\":7475:7713   */\n      pop\n        /* \"#utility.yul\":7432:7713   */\n      pop\n      pop\n      jump\t// out\n        /* \"#utility.yul\":7719:7848   */\n    tag_140:\n        /* \"#utility.yul\":7753:7759   */\n      0x00\n        /* \"#utility.yul\":7780:7800   */\n      tag_248\n      tag_132\n      jump\t// in\n    tag_248:\n        /* \"#utility.yul\":7770:7800   */\n      swap1\n      pop\n        /* \"#utility.yul\":7809:7842   */\n      tag_249\n        /* \"#utility.yul\":7837:7841   */\n      dup3\n        /* \"#utility.yul\":7829:7835   */\n      dup3\n        /* \"#utility.yul\":7809:7842   */\n      tag_139\n      jump\t// in\n    tag_249:\n        /* \"#utility.yul\":7719:7848   */\n      swap2\n      swap1\n      pop\n      jump\t// out\n        /* \"#utility.yul\":7854:7971   */\n    tag_141:\n        /* \"#utility.yul\":7963:7964   */\n      0x00\n        /* \"#utility.yul\":7960:7961   */\n      dup1\n        /* \"#utility.yul\":7953:7965   */\n      revert\n        /* \"#utility.yul\":7977:8099   */\n    tag_142:\n        /* \"#utility.yul\":8050:8074   */\n      tag_252\n        /* \"#utility.yul\":8068:8073   */\n      dup2\n        /* \"#utility.yul\":8050:8074   */\n      tag_116\n      jump\t// in\n    tag_252:\n        /* \"#utility.yul\":8043:8048   */\n      dup2\n        /* \"#utility.yul\":8040:8075   */\n      eq\n        /* \"#utility.yul\":8030:8093   */\n      tag_253\n      jumpi\n        /* \"#utility.yul\":8089:8090   */\n      0x00\n        /* \"#utility.yul\":8086:8087   */\n      dup1\n        /* \"#utility.yul\":8079:8091   */\n      revert\n        /* \"#utility.yul\":8030:8093   */\n    tag_253:\n        /* \"#utility.yul\":7977:8099   */\n      pop\n      jump\t// out\n        /* \"#utility.yul\":8105:8244   */\n    tag_143:\n        /* \"#utility.yul\":8151:8156   */\n      0x00\n        /* \"#utility.yul\":8189:8195   */\n      dup2\n        /* \"#utility.yul\":8176:8196   */\n      calldataload\n        /* \"#utility.yul\":8167:8196   */\n      swap1\n      pop\n        /* \"#utility.yul\":8205:8238   */\n      tag_255\n        /* \"#utility.yul\":8232:8237   */\n      dup2\n        /* \"#utility.yul\":8205:8238   */\n      tag_142\n      jump\t// in\n    tag_255:\n        /* \"#utility.yul\":8105:8244   */\n      swap3\n      swap2\n      pop\n      pop\n      jump\t// out\n        /* \"#utility.yul\":8250:8367   */\n    tag_144:\n        /* \"#utility.yul\":8359:8360   */\n      0x00\n        /* \"#utility.yul\":8356:8357   */\n      dup1\n        /* \"#utility.yul\":8349:8361   */\n      revert\n        /* \"#utility.yul\":8373:8490   */\n    tag_145:\n        /* \"#utility.yul\":8482:8483   */\n      0x00\n        /* \"#utility.yul\":8479:8480   */\n      dup1\n        /* \"#utility.yul\":8472:8484   */\n      revert\n        /* \"#utility.yul\":8496:8804   */\n    tag_146:\n        /* \"#utility.yul\":8558:8562   */\n      0x00\n        /* \"#utility.yul\":8648:8666   */\n      0xffffffffffffffff\n        /* \"#utility.yul\":8640:8646   */\n      dup3\n        /* \"#utility.yul\":8637:8667   */\n      gt\n        /* \"#utility.yul\":8634:8690   */\n      iszero\n      tag_259\n      jumpi\n        /* \"#utility.yul\":8670:8688   */\n      tag_260\n      tag_138\n      jump\t// in\n    tag_260:\n        /* \"#utility.yul\":8634:8690   */\n    tag_259:\n        /* \"#utility.yul\":8708:8737   */\n      tag_261\n        /* \"#utility.yul\":8730:8736   */\n      dup3\n        /* \"#utility.yul\":8708:8737   */\n      tag_121\n      jump\t// in\n    tag_261:\n        /* \"#utility.yul\":8700:8737   */\n      swap1\n      pop\n        /* \"#utility.yul\":8792:8796   */\n      0x20\n        /* \"#utility.yul\":8786:8790   */\n      dup2\n        /* \"#utility.yul\":8782:8797   */\n      add\n        /* \"#utility.yul\":8774:8797   */\n      swap1\n      pop\n        /* \"#utility.yul\":8496:8804   */\n      swap2\n      swap1\n      pop\n      jump\t// out\n        /* \"#utility.yul\":8810:8956   */\n    tag_147:\n        /* \"#utility.yul\":8907:8913   */\n      dup3\n        /* \"#utility.yul\":8902:8905   */\n      dup2\n        /* \"#utility.yul\":8897:8900   */\n      dup4\n        /* \"#utility.yul\":8884:8914   */\n      calldatacopy\n        /* \"#utility.yul\":8948:8949   */\n      0x00\n        /* \"#utility.yul\":8939:8945   */\n      dup4\n        /* \"#utility.yul\":8934:8937   */\n      dup4\n        /* \"#utility.yul\":8930:8946   */\n      add\n        /* \"#utility.yul\":8923:8950   */\n      mstore\n        /* \"#utility.yul\":8810:8956   */\n      pop\n      pop\n      pop\n      jump\t// out\n        /* \"#utility.yul\":8962:9387   */\n    tag_148:\n        /* \"#utility.yul\":9040:9045   */\n      0x00\n        /* \"#utility.yul\":9065:9131   */\n      tag_264\n        /* \"#utility.yul\":9081:9130   */\n      tag_265\n        /* \"#utility.yul\":9123:9129   */\n      dup5\n        /* \"#utility.yul\":9081:9130   */\n      tag_146\n      jump\t// in\n    tag_265:\n        /* \"#utility.yul\":9065:9131   */\n      tag_140\n      jump\t// in\n    tag_264:\n        /* \"#utility.yul\":9056:9131   */\n      swap1\n      pop\n        /* \"#utility.yul\":9154:9160   */\n      dup3\n        /* \"#utility.yul\":9147:9152   */\n      dup2\n        /* \"#utility.yul\":9140:9161   */\n      mstore\n        /* \"#utility.yul\":9192:9196   */\n      0x20\n        /* \"#utility.yul\":9185:9190   */\n      dup2\n        /* \"#utility.yul\":9181:9197   */\n      add\n        /* \"#utility.yul\":9230:9233   */\n      dup5\n        /* \"#utility.yul\":9221:9227   */\n      dup5\n        /* \"#utility.yul\":9216:9219   */\n      dup5\n        /* \"#utility.yul\":9212:9228   */\n      add\n        /* \"#utility.yul\":9209:9234   */\n      gt\n        /* \"#utility.yul\":9206:9318   */\n      iszero\n      tag_266\n      jumpi\n        /* \"#utility.yul\":9237:9316   */\n      tag_267\n      tag_145\n      jump\t// in\n    tag_267:\n        /* \"#utility.yul\":9206:9318   */\n    tag_266:\n        /* \"#utility.yul\":9327:9381   */\n      tag_268\n        /* \"#utility.yul\":9374:9380   */\n      dup5\n        /* \"#utility.yul\":9369:9372   */\n      dup3\n        /* \"#utility.yul\":9364:9367   */\n      dup6\n        /* \"#utility.yul\":9327:9381   */\n      tag_147\n      jump\t// in\n    tag_268:\n        /* \"#utility.yul\":9046:9387   */\n      pop\n        /* \"#utility.yul\":8962:9387   */\n      swap4\n      swap3\n      pop\n      pop\n      pop\n      jump\t// out\n        /* \"#utility.yul\":9407:9747   */\n    tag_149:\n        /* \"#utility.yul\":9463:9468   */\n      0x00\n        /* \"#utility.yul\":9512:9515   */\n      dup3\n        /* \"#utility.yul\":9505:9509   */\n      0x1f\n        /* \"#utility.yul\":9497:9503   */\n      dup4\n        /* \"#utility.yul\":9493:9510   */\n      add\n        /* \"#utility.yul\":9489:9516   */\n      slt\n        /* \"#utility.yul\":9479:9601   */\n      tag_270\n      jumpi\n        /* \"#utility.yul\":9520:9599   */\n      tag_271\n      tag_144\n      jump\t// in\n    tag_271:\n        /* \"#utility.yul\":9479:9601   */\n    tag_270:\n        /* \"#utility.yul\":9637:9643   */\n      dup2\n        /* \"#utility.yul\":9624:9644   */\n      calldataload\n        /* \"#utility.yul\":9662:9741   */\n      tag_272\n        /* \"#utility.yul\":9737:9740   */\n      dup5\n        /* \"#utility.yul\":9729:9735   */\n      dup3\n        /* \"#utility.yul\":9722:9726   */\n      0x20\n        /* \"#utility.yul\":9714:9720   */\n      dup7\n        /* \"#utility.yul\":9710:9727   */\n      add\n        /* \"#utility.yul\":9662:9741   */\n      tag_148\n      jump\t// in\n    tag_272:\n        /* \"#utility.yul\":9653:9741   */\n      swap2\n      pop\n        /* \"#utility.yul\":9469:9747   */\n      pop\n        /* \"#utility.yul\":9407:9747   */\n      swap3\n      swap2\n      pop\n      pop\n      jump\t// out\n        /* \"#utility.yul\":9753:9869   */\n    tag_150:\n        /* \"#utility.yul\":9823:9844   */\n      tag_274\n        /* \"#utility.yul\":9838:9843   */\n      dup2\n        /* \"#utility.yul\":9823:9844   */\n      tag_126\n      jump\t// in\n    tag_274:\n        /* \"#utility.yul\":9816:9821   */\n      dup2\n        /* \"#utility.yul\":9813:9845   */\n      eq\n        /* \"#utility.yul\":9803:9863   */\n      tag_275\n      jumpi\n        /* \"#utility.yul\":9859:9860   */\n      0x00\n        /* \"#utility.yul\":9856:9857   */\n      dup1\n        /* \"#utility.yul\":9849:9861   */\n      revert\n        /* \"#utility.yul\":9803:9863   */\n    tag_275:\n        /* \"#utility.yul\":9753:9869   */\n      pop\n      jump\t// out\n        /* \"#utility.yul\":9875:10008   */\n    tag_151:\n        /* \"#utility.yul\":9918:9923   */\n      0x00\n        /* \"#utility.yul\":9956:9962   */\n      dup2\n        /* \"#utility.yul\":9943:9963   */\n      calldataload\n        /* \"#utility.yul\":9934:9963   */\n      swap1\n      pop\n        /* \"#utility.yul\":9972:10002   */\n      tag_277\n        /* \"#utility.yul\":9996:10001   */\n      dup2\n        /* \"#utility.yul\":9972:10002   */\n      tag_150\n      jump\t// in\n    tag_277:\n        /* \"#utility.yul\":9875:10008   */\n      swap3\n      swap2\n      pop\n      pop\n      jump\t// out\n        /* \"#utility.yul\":10034:12308   */\n    tag_152:\n        /* \"#utility.yul\":10105:10110   */\n      0x00\n        /* \"#utility.yul\":10149:10155   */\n      0x0100\n        /* \"#utility.yul\":10137:10146   */\n      dup3\n        /* \"#utility.yul\":10132:10135   */\n      dup5\n        /* \"#utility.yul\":10128:10147   */\n      sub\n        /* \"#utility.yul\":10124:10156   */\n      slt\n        /* \"#utility.yul\":10121:10240   */\n      iszero\n      tag_279\n      jumpi\n        /* \"#utility.yul\":10159:10238   */\n      tag_280\n      tag_137\n      jump\t// in\n    tag_280:\n        /* \"#utility.yul\":10121:10240   */\n    tag_279:\n        /* \"#utility.yul\":10258:10281   */\n      tag_281\n        /* \"#utility.yul\":10274:10280   */\n      0x0100\n        /* \"#utility.yul\":10258:10281   */\n      tag_140\n      jump\t// in\n    tag_281:\n        /* \"#utility.yul\":10249:10281   */\n      swap1\n      pop\n        /* \"#utility.yul\":10343:10344   */\n      0x00\n        /* \"#utility.yul\":10383:10432   */\n      tag_282\n        /* \"#utility.yul\":10428:10431   */\n      dup5\n        /* \"#utility.yul\":10419:10425   */\n      dup3\n        /* \"#utility.yul\":10408:10417   */\n      dup6\n        /* \"#utility.yul\":10404:10426   */\n      add\n        /* \"#utility.yul\":10383:10432   */\n      tag_143\n      jump\t// in\n    tag_282:\n        /* \"#utility.yul\":10376:10380   */\n      0x00\n        /* \"#utility.yul\":10369:10374   */\n      dup4\n        /* \"#utility.yul\":10365:10381   */\n      add\n        /* \"#utility.yul\":10358:10433   */\n      mstore\n        /* \"#utility.yul\":10291:10444   */\n      pop\n        /* \"#utility.yul\":10535:10537   */\n      0x20\n        /* \"#utility.yul\":10524:10533   */\n      dup3\n        /* \"#utility.yul\":10520:10538   */\n      add\n        /* \"#utility.yul\":10507:10539   */\n      calldataload\n        /* \"#utility.yul\":10566:10584   */\n      0xffffffffffffffff\n        /* \"#utility.yul\":10558:10564   */\n      dup2\n        /* \"#utility.yul\":10555:10585   */\n      gt\n        /* \"#utility.yul\":10552:10669   */\n      iszero\n      tag_283\n      jumpi\n        /* \"#utility.yul\":10588:10667   */\n      tag_284\n      tag_141\n      jump\t// in\n    tag_284:\n        /* \"#utility.yul\":10552:10669   */\n    tag_283:\n        /* \"#utility.yul\":10708:10767   */\n      tag_285\n        /* \"#utility.yul\":10763:10766   */\n      dup5\n        /* \"#utility.yul\":10754:10760   */\n      dup3\n        /* \"#utility.yul\":10743:10752   */\n      dup6\n        /* \"#utility.yul\":10739:10761   */\n      add\n        /* \"#utility.yul\":10708:10767   */\n      tag_149\n      jump\t// in\n    tag_285:\n        /* \"#utility.yul\":10701:10705   */\n      0x20\n        /* \"#utility.yul\":10694:10699   */\n      dup4\n        /* \"#utility.yul\":10690:10706   */\n      add\n        /* \"#utility.yul\":10683:10768   */\n      mstore\n        /* \"#utility.yul\":10454:10779   */\n      pop\n        /* \"#utility.yul\":10845:10847   */\n      0x40\n        /* \"#utility.yul\":10886:10935   */\n      tag_286\n        /* \"#utility.yul\":10931:10934   */\n      dup5\n        /* \"#utility.yul\":10922:10928   */\n      dup3\n        /* \"#utility.yul\":10911:10920   */\n      dup6\n        /* \"#utility.yul\":10907:10929   */\n      add\n        /* \"#utility.yul\":10886:10935   */\n      tag_136\n      jump\t// in\n    tag_286:\n        /* \"#utility.yul\":10879:10883   */\n      0x40\n        /* \"#utility.yul\":10872:10877   */\n      dup4\n        /* \"#utility.yul\":10868:10884   */\n      add\n        /* \"#utility.yul\":10861:10936   */\n      mstore\n        /* \"#utility.yul\":10789:10947   */\n      pop\n        /* \"#utility.yul\":11039:11041   */\n      0x60\n        /* \"#utility.yul\":11028:11037   */\n      dup3\n        /* \"#utility.yul\":11024:11042   */\n      add\n        /* \"#utility.yul\":11011:11043   */\n      calldataload\n        /* \"#utility.yul\":11070:11088   */\n      0xffffffffffffffff\n        /* \"#utility.yul\":11062:11068   */\n      dup2\n        /* \"#utility.yul\":11059:11089   */\n      gt\n        /* \"#utility.yul\":11056:11173   */\n      iszero\n      tag_287\n      jumpi\n        /* \"#utility.yul\":11092:11171   */\n      tag_288\n      tag_141\n      jump\t// in\n    tag_288:\n        /* \"#utility.yul\":11056:11173   */\n    tag_287:\n        /* \"#utility.yul\":11212:11271   */\n      tag_289\n        /* \"#utility.yul\":11267:11270   */\n      dup5\n        /* \"#utility.yul\":11258:11264   */\n      dup3\n        /* \"#utility.yul\":11247:11256   */\n      dup6\n        /* \"#utility.yul\":11243:11265   */\n      add\n        /* \"#utility.yul\":11212:11271   */\n      tag_149\n      jump\t// in\n    tag_289:\n        /* \"#utility.yul\":11205:11209   */\n      0x60\n        /* \"#utility.yul\":11198:11203   */\n      dup4\n        /* \"#utility.yul\":11194:11210   */\n      add\n        /* \"#utility.yul\":11187:11272   */\n      mstore\n        /* \"#utility.yul\":10957:11283   */\n      pop\n        /* \"#utility.yul\":11381:11384   */\n      0x80\n        /* \"#utility.yul\":11370:11379   */\n      dup3\n        /* \"#utility.yul\":11366:11385   */\n      add\n        /* \"#utility.yul\":11353:11386   */\n      calldataload\n        /* \"#utility.yul\":11413:11431   */\n      0xffffffffffffffff\n        /* \"#utility.yul\":11405:11411   */\n      dup2\n        /* \"#utility.yul\":11402:11432   */\n      gt\n        /* \"#utility.yul\":11399:11516   */\n      iszero\n      tag_290\n      jumpi\n        /* \"#utility.yul\":11435:11514   */\n      tag_291\n      tag_141\n      jump\t// in\n    tag_291:\n        /* \"#utility.yul\":11399:11516   */\n    tag_290:\n        /* \"#utility.yul\":11555:11614   */\n      tag_292\n        /* \"#utility.yul\":11610:11613   */\n      dup5\n        /* \"#utility.yul\":11601:11607   */\n      dup3\n        /* \"#utility.yul\":11590:11599   */\n      dup6\n        /* \"#utility.yul\":11586:11608   */\n      add\n        /* \"#utility.yul\":11555:11614   */\n      tag_149\n      jump\t// in\n    tag_292:\n        /* \"#utility.yul\":11548:11552   */\n      0x80\n        /* \"#utility.yul\":11541:11546   */\n      dup4\n        /* \"#utility.yul\":11537:11553   */\n      add\n        /* \"#utility.yul\":11530:11615   */\n      mstore\n        /* \"#utility.yul\":11293:11626   */\n      pop\n        /* \"#utility.yul\":11721:11724   */\n      0xa0\n        /* \"#utility.yul\":11710:11719   */\n      dup3\n        /* \"#utility.yul\":11706:11725   */\n      add\n        /* \"#utility.yul\":11693:11726   */\n      calldataload\n        /* \"#utility.yul\":11753:11771   */\n      0xffffffffffffffff\n        /* \"#utility.yul\":11745:11751   */\n      dup2\n        /* \"#utility.yul\":11742:11772   */\n      gt\n        /* \"#utility.yul\":11739:11856   */\n      iszero\n      tag_293\n      jumpi\n        /* \"#utility.yul\":11775:11854   */\n      tag_294\n      tag_141\n      jump\t// in\n    tag_294:\n        /* \"#utility.yul\":11739:11856   */\n    tag_293:\n        /* \"#utility.yul\":11895:11954   */\n      tag_295\n        /* \"#utility.yul\":11950:11953   */\n      dup5\n        /* \"#utility.yul\":11941:11947   */\n      dup3\n        /* \"#utility.yul\":11930:11939   */\n      dup6\n        /* \"#utility.yul\":11926:11948   */\n      add\n        /* \"#utility.yul\":11895:11954   */\n      tag_149\n      jump\t// in\n    tag_295:\n        /* \"#utility.yul\":11888:11892   */\n      0xa0\n        /* \"#utility.yul\":11881:11886   */\n      dup4\n        /* \"#utility.yul\":11877:11893   */\n      add\n        /* \"#utility.yul\":11870:11955   */\n      mstore\n        /* \"#utility.yul\":11636:11966   */\n      pop\n        /* \"#utility.yul\":12029:12032   */\n      0xc0\n        /* \"#utility.yul\":12071:12120   */\n      tag_296\n        /* \"#utility.yul\":12116:12119   */\n      dup5\n        /* \"#utility.yul\":12107:12113   */\n      dup3\n        /* \"#utility.yul\":12096:12105   */\n      dup6\n        /* \"#utility.yul\":12092:12114   */\n      add\n        /* \"#utility.yul\":12071:12120   */\n      tag_143\n      jump\t// in\n    tag_296:\n        /* \"#utility.yul\":12064:12068   */\n      0xc0\n        /* \"#utility.yul\":12057:12062   */\n      dup4\n        /* \"#utility.yul\":12053:12069   */\n      add\n        /* \"#utility.yul\":12046:12121   */\n      mstore\n        /* \"#utility.yul\":11976:12132   */\n      pop\n        /* \"#utility.yul\":12201:12204   */\n      0xe0\n        /* \"#utility.yul\":12243:12289   */\n      tag_297\n        /* \"#utility.yul\":12285:12288   */\n      dup5\n        /* \"#utility.yul\":12276:12282   */\n      dup3\n        /* \"#utility.yul\":12265:12274   */\n      dup6\n        /* \"#utility.yul\":12261:12283   */\n      add\n        /* \"#utility.yul\":12243:12289   */\n      tag_151\n      jump\t// in\n    tag_297:\n        /* \"#utility.yul\":12236:12240   */\n      0xe0\n        /* \"#utility.yul\":12229:12234   */\n      dup4\n        /* \"#utility.yul\":12225:12241   */\n      add\n        /* \"#utility.yul\":12218:12290   */\n      mstore\n        /* \"#utility.yul\":12142:12301   */\n      pop\n        /* \"#utility.yul\":10034:12308   */\n      swap3\n      swap2\n      pop\n      pop\n      jump\t// out\n        /* \"#utility.yul\":12314:12847   */\n    tag_21:\n        /* \"#utility.yul\":12395:12401   */\n      0x00\n        /* \"#utility.yul\":12444:12446   */\n      0x20\n        /* \"#utility.yul\":12432:12441   */\n      dup3\n        /* \"#utility.yul\":12423:12430   */\n      dup5\n        /* \"#utility.yul\":12419:12442   */\n      sub\n        /* \"#utility.yul\":12415:12447   */\n      slt\n        /* \"#utility.yul\":12412:12531   */\n      iszero\n      tag_299\n      jumpi\n        /* \"#utility.yul\":12450:12529   */\n      tag_300\n      tag_133\n      jump\t// in\n    tag_300:\n        /* \"#utility.yul\":12412:12531   */\n    tag_299:\n        /* \"#utility.yul\":12598:12599   */\n      0x00\n        /* \"#utility.yul\":12587:12596   */\n      dup3\n        /* \"#utility.yul\":12583:12600   */\n      add\n        /* \"#utility.yul\":12570:12601   */\n      calldataload\n        /* \"#utility.yul\":12628:12646   */\n      0xffffffffffffffff\n        /* \"#utility.yul\":12620:12626   */\n      dup2\n        /* \"#utility.yul\":12617:12647   */\n      gt\n        /* \"#utility.yul\":12614:12731   */\n      iszero\n      tag_301\n      jumpi\n        /* \"#utility.yul\":12650:12729   */\n      tag_302\n      tag_134\n      jump\t// in\n    tag_302:\n        /* \"#utility.yul\":12614:12731   */\n    tag_301:\n        /* \"#utility.yul\":12755:12830   */\n      tag_303\n        /* \"#utility.yul\":12822:12829   */\n      dup5\n        /* \"#utility.yul\":12813:12819   */\n      dup3\n        /* \"#utility.yul\":12802:12811   */\n      dup6\n        /* \"#utility.yul\":12798:12820   */\n      add\n        /* \"#utility.yul\":12755:12830   */\n      tag_152\n      jump\t// in\n    tag_303:\n        /* \"#utility.yul\":12745:12830   */\n      swap2\n      pop\n        /* \"#utility.yul\":12541:12840   */\n      pop\n        /* \"#utility.yul\":12314:12847   */\n      swap3\n      swap2\n      pop\n      pop\n      jump\t// out\n        /* \"#utility.yul\":12853:12971   */\n    tag_153:\n        /* \"#utility.yul\":12940:12964   */\n      tag_305\n        /* \"#utility.yul\":12958:12963   */\n      dup2\n        /* \"#utility.yul\":12940:12964   */\n      tag_124\n      jump\t// in\n    tag_305:\n        /* \"#utility.yul\":12935:12938   */\n      dup3\n        /* \"#utility.yul\":12928:12965   */\n      mstore\n        /* \"#utility.yul\":12853:12971   */\n      pop\n      pop\n      jump\t// out\n        /* \"#utility.yul\":12977:13199   */\n    tag_28:\n        /* \"#utility.yul\":13070:13074   */\n      0x00\n        /* \"#utility.yul\":13108:13110   */\n      0x20\n        /* \"#utility.yul\":13097:13106   */\n      dup3\n        /* \"#utility.yul\":13093:13111   */\n      add\n        /* \"#utility.yul\":13085:13111   */\n      swap1\n      pop\n        /* \"#utility.yul\":13121:13192   */\n      tag_307\n        /* \"#utility.yul\":13189:13190   */\n      0x00\n        /* \"#utility.yul\":13178:13187   */\n      dup4\n        /* \"#utility.yul\":13174:13191   */\n      add\n        /* \"#utility.yul\":13165:13171   */\n      dup5\n        /* \"#utility.yul\":13121:13192   */\n      tag_153\n      jump\t// in\n    tag_307:\n        /* \"#utility.yul\":12977:13199   */\n      swap3\n      swap2\n      pop\n      pop\n      jump\t// out\n        /* \"#utility.yul\":13205:13534   */\n    tag_31:\n        /* \"#utility.yul\":13264:13270   */\n      0x00\n        /* \"#utility.yul\":13313:13315   */\n      0x20\n        /* \"#utility.yul\":13301:13310   */\n      dup3\n        /* \"#utility.yul\":13292:13299   */\n      dup5\n        /* \"#utility.yul\":13288:13311   */\n      sub\n        /* \"#utility.yul\":13284:13316   */\n      slt\n        /* \"#utility.yul\":13281:13400   */\n      iszero\n      tag_309\n      jumpi\n        /* \"#utility.yul\":13319:13398   */\n      tag_310\n      tag_133\n      jump\t// in\n    tag_310:\n        /* \"#utility.yul\":13281:13400   */\n    tag_309:\n        /* \"#utility.yul\":13439:13440   */\n      0x00\n        /* \"#utility.yul\":13464:13517   */\n      tag_311\n        /* \"#utility.yul\":13509:13516   */\n      dup5\n        /* \"#utility.yul\":13500:13506   */\n      dup3\n        /* \"#utility.yul\":13489:13498   */\n      dup6\n        /* \"#utility.yul\":13485:13507   */\n      add\n        /* \"#utility.yul\":13464:13517   */\n      tag_143\n      jump\t// in\n    tag_311:\n        /* \"#utility.yul\":13454:13517   */\n      swap2\n      pop\n        /* \"#utility.yul\":13410:13527   */\n      pop\n        /* \"#utility.yul\":13205:13534   */\n      swap3\n      swap2\n      pop\n      pop\n      jump\t// out\n        /* \"#utility.yul\":13540:13709   */\n    tag_154:\n        /* \"#utility.yul\":13624:13635   */\n      0x00\n        /* \"#utility.yul\":13658:13664   */\n      dup3\n        /* \"#utility.yul\":13653:13656   */\n      dup3\n        /* \"#utility.yul\":13646:13665   */\n      mstore\n        /* \"#utility.yul\":13698:13702   */\n      0x20\n        /* \"#utility.yul\":13693:13696   */\n      dup3\n        /* \"#utility.yul\":13689:13703   */\n      add\n        /* \"#utility.yul\":13674:13703   */\n      swap1\n      pop\n        /* \"#utility.yul\":13540:13709   */\n      swap3\n      swap2\n      pop\n      pop\n      jump\t// out\n        /* \"#utility.yul\":13715:13948   */\n    tag_155:\n        /* \"#utility.yul\":13855:13889   */\n      0x526f75676844617461626173653a206f6e6c7920636f6e747261637420776869\n        /* \"#utility.yul\":13851:13852   */\n      0x00\n        /* \"#utility.yul\":13843:13849   */\n      dup3\n        /* \"#utility.yul\":13839:13853   */\n      add\n        /* \"#utility.yul\":13832:13890   */\n      mstore\n        /* \"#utility.yul\":13924:13940   */\n      0x63682061726520616c6c6f776564000000000000000000000000000000000000\n        /* \"#utility.yul\":13919:13921   */\n      0x20\n        /* \"#utility.yul\":13911:13917   */\n      dup3\n        /* \"#utility.yul\":13907:13922   */\n      add\n        /* \"#utility.yul\":13900:13941   */\n      mstore\n        /* \"#utility.yul\":13715:13948   */\n      pop\n      jump\t// out\n        /* \"#utility.yul\":13954:14320   */\n    tag_156:\n        /* \"#utility.yul\":14096:14099   */\n      0x00\n        /* \"#utility.yul\":14117:14184   */\n      tag_315\n        /* \"#utility.yul\":14181:14183   */\n      0x2e\n        /* \"#utility.yul\":14176:14179   */\n      dup4\n        /* \"#utility.yul\":14117:14184   */\n      tag_154\n      jump\t// in\n    tag_315:\n        /* \"#utility.yul\":14110:14184   */\n      swap2\n      pop\n        /* \"#utility.yul\":14193:14286   */\n      tag_316\n        /* \"#utility.yul\":14282:14285   */\n      dup3\n        /* \"#utility.yul\":14193:14286   */\n      tag_155\n      jump\t// in\n    tag_316:\n        /* \"#utility.yul\":14311:14313   */\n      0x40\n        /* \"#utility.yul\":14306:14309   */\n      dup3\n        /* \"#utility.yul\":14302:14314   */\n      add\n        /* \"#utility.yul\":14295:14314   */\n      swap1\n      pop\n        /* \"#utility.yul\":13954:14320   */\n      swap2\n      swap1\n      pop\n      jump\t// out\n        /* \"#utility.yul\":14326:14745   */\n    tag_41:\n        /* \"#utility.yul\":14492:14496   */\n      0x00\n        /* \"#utility.yul\":14530:14532   */\n      0x20\n        /* \"#utility.yul\":14519:14528   */\n      dup3\n        /* \"#utility.yul\":14515:14533   */\n      add\n        /* \"#utility.yul\":14507:14533   */\n      swap1\n      pop\n        /* \"#utility.yul\":14579:14588   */\n      dup2\n        /* \"#utility.yul\":14573:14577   */\n      dup2\n        /* \"#utility.yul\":14569:14589   */\n      sub\n        /* \"#utility.yul\":14565:14566   */\n      0x00\n        /* \"#utility.yul\":14554:14563   */\n      dup4\n        /* \"#utility.yul\":14550:14567   */\n      add\n        /* \"#utility.yul\":14543:14590   */\n      mstore\n        /* \"#utility.yul\":14607:14738   */\n      tag_318\n        /* \"#utility.yul\":14733:14737   */\n      dup2\n        /* \"#utility.yul\":14607:14738   */\n      tag_156\n      jump\t// in\n    tag_318:\n        /* \"#utility.yul\":14599:14738   */\n      swap1\n      pop\n        /* \"#utility.yul\":14326:14745   */\n      swap2\n      swap1\n      pop\n      jump\t// out\n        /* \"#utility.yul\":14751:14931   */\n    tag_157:\n        /* \"#utility.yul\":14799:14876   */\n      0x4e487b7100000000000000000000000000000000000000000000000000000000\n        /* \"#utility.yul\":14796:14797   */\n      0x00\n        /* \"#utility.yul\":14789:14877   */\n      mstore\n        /* \"#utility.yul\":14896:14900   */\n      0x22\n        /* \"#utility.yul\":14893:14894   */\n      0x04\n        /* \"#utility.yul\":14886:14901   */\n      mstore\n        /* \"#utility.yul\":14920:14924   */\n      0x24\n        /* \"#utility.yul\":14917:14918   */\n      0x00\n        /* \"#utility.yul\":14910:14925   */\n      revert\n        /* \"#utility.yul\":14937:15257   */\n    tag_47:\n        /* \"#utility.yul\":14981:14987   */\n      0x00\n        /* \"#utility.yul\":15018:15019   */\n      0x02\n        /* \"#utility.yul\":15012:15016   */\n      dup3\n        /* \"#utility.yul\":15008:15020   */\n      div\n        /* \"#utility.yul\":14998:15020   */\n      swap1\n      pop\n        /* \"#utility.yul\":15065:15066   */\n      0x01\n        /* \"#utility.yul\":15059:15063   */\n      dup3\n        /* \"#utility.yul\":15055:15067   */\n      and\n        /* \"#utility.yul\":15086:15104   */\n      dup1\n        /* \"#utility.yul\":15076:15157   */\n      tag_321\n      jumpi\n        /* \"#utility.yul\":15142:15146   */\n      0x7f\n        /* \"#utility.yul\":15134:15140   */\n      dup3\n        /* \"#utility.yul\":15130:15147   */\n      and\n        /* \"#utility.yul\":15120:15147   */\n      swap2\n      pop\n        /* \"#utility.yul\":15076:15157   */\n    tag_321:\n        /* \"#utility.yul\":15204:15206   */\n      0x20\n        /* \"#utility.yul\":15196:15202   */\n      dup3\n        /* \"#utility.yul\":15193:15207   */\n      lt\n        /* \"#utility.yul\":15173:15191   */\n      dup2\n        /* \"#utility.yul\":15170:15208   */\n      sub\n        /* \"#utility.yul\":15167:15251   */\n      tag_322\n      jumpi\n        /* \"#utility.yul\":15223:15241   */\n      tag_323\n      tag_157\n      jump\t// in\n    tag_323:\n        /* \"#utility.yul\":15167:15251   */\n    tag_322:\n        /* \"#utility.yul\":14988:15257   */\n      pop\n        /* \"#utility.yul\":14937:15257   */\n      swap2\n      swap1\n      pop\n      jump\t// out\n        /* \"#utility.yul\":15263:15492   */\n    tag_158:\n        /* \"#utility.yul\":15403:15437   */\n      0x526f75676844617461626173653a207065726d697373696f6e20686173206265\n        /* \"#utility.yul\":15399:15400   */\n      0x00\n        /* \"#utility.yul\":15391:15397   */\n      dup3\n        /* \"#utility.yul\":15387:15401   */\n      add\n        /* \"#utility.yul\":15380:15438   */\n      mstore\n        /* \"#utility.yul\":15472:15484   */\n      0x656e206772616e74656400000000000000000000000000000000000000000000\n        /* \"#utility.yul\":15467:15469   */\n      0x20\n        /* \"#utility.yul\":15459:15465   */\n      dup3\n        /* \"#utility.yul\":15455:15470   */\n      add\n        /* \"#utility.yul\":15448:15485   */\n      mstore\n        /* \"#utility.yul\":15263:15492   */\n      pop\n      jump\t// out\n        /* \"#utility.yul\":15498:15864   */\n    tag_159:\n        /* \"#utility.yul\":15640:15643   */\n      0x00\n        /* \"#utility.yul\":15661:15728   */\n      tag_326\n        /* \"#utility.yul\":15725:15727   */\n      0x2a\n        /* \"#utility.yul\":15720:15723   */\n      dup4\n        /* \"#utility.yul\":15661:15728   */\n      tag_154\n      jump\t// in\n    tag_326:\n        /* \"#utility.yul\":15654:15728   */\n      swap2\n      pop\n        /* \"#utility.yul\":15737:15830   */\n      tag_327\n        /* \"#utility.yul\":15826:15829   */\n      dup3\n        /* \"#utility.yul\":15737:15830   */\n      tag_158\n      jump\t// in\n    tag_327:\n        /* \"#utility.yul\":15855:15857   */\n      0x40\n        /* \"#utility.yul\":15850:15853   */\n      dup3\n        /* \"#utility.yul\":15846:15858   */\n      add\n        /* \"#utility.yul\":15839:15858   */\n      swap1\n      pop\n        /* \"#utility.yul\":15498:15864   */\n      swap2\n      swap1\n      pop\n      jump\t// out\n        /* \"#utility.yul\":15870:16289   */\n    tag_73:\n        /* \"#utility.yul\":16036:16040   */\n      0x00\n        /* \"#utility.yul\":16074:16076   */\n      0x20\n        /* \"#utility.yul\":16063:16072   */\n      dup3\n        /* \"#utility.yul\":16059:16077   */\n      add\n        /* \"#utility.yul\":16051:16077   */\n      swap1\n      pop\n        /* \"#utility.yul\":16123:16132   */\n      dup2\n        /* \"#utility.yul\":16117:16121   */\n      dup2\n        /* \"#utility.yul\":16113:16133   */\n      sub\n        /* \"#utility.yul\":16109:16110   */\n      0x00\n        /* \"#utility.yul\":16098:16107   */\n      dup4\n        /* \"#utility.yul\":16094:16111   */\n      add\n        /* \"#utility.yul\":16087:16134   */\n      mstore\n        /* \"#utility.yul\":16151:16282   */\n      tag_329\n        /* \"#utility.yul\":16277:16281   */\n      dup2\n        /* \"#utility.yul\":16151:16282   */\n      tag_159\n      jump\t// in\n    tag_329:\n        /* \"#utility.yul\":16143:16282   */\n      swap1\n      pop\n        /* \"#utility.yul\":15870:16289   */\n      swap2\n      swap1\n      pop\n      jump\t// out\n        /* \"#utility.yul\":16295:16436   */\n    tag_160:\n        /* \"#utility.yul\":16344:16348   */\n      0x00\n        /* \"#utility.yul\":16367:16370   */\n      dup2\n        /* \"#utility.yul\":16359:16370   */\n      swap1\n      pop\n        /* \"#utility.yul\":16390:16393   */\n      dup2\n        /* \"#utility.yul\":16387:16388   */\n      0x00\n        /* \"#utility.yul\":16380:16394   */\n      mstore\n        /* \"#utility.yul\":16424:16428   */\n      0x20\n        /* \"#utility.yul\":16421:16422   */\n      0x00\n        /* \"#utility.yul\":16411:16429   */\n      keccak256\n        /* \"#utility.yul\":16403:16429   */\n      swap1\n      pop\n        /* \"#utility.yul\":16295:16436   */\n      swap2\n      swap1\n      pop\n      jump\t// out\n        /* \"#utility.yul\":16442:16535   */\n    tag_161:\n        /* \"#utility.yul\":16479:16485   */\n      0x00\n        /* \"#utility.yul\":16526:16528   */\n      0x20\n        /* \"#utility.yul\":16521:16523   */\n      0x1f\n        /* \"#utility.yul\":16514:16519   */\n      dup4\n        /* \"#utility.yul\":16510:16524   */\n      add\n        /* \"#utility.yul\":16506:16529   */\n      div\n        /* \"#utility.yul\":16496:16529   */\n      swap1\n      pop\n        /* \"#utility.yul\":16442:16535   */\n      swap2\n      swap1\n      pop\n      jump\t// out\n        /* \"#utility.yul\":16541:16648   */\n    tag_162:\n        /* \"#utility.yul\":16585:16593   */\n      0x00\n        /* \"#utility.yul\":16635:16640   */\n      dup3\n        /* \"#utility.yul\":16629:16633   */\n      dup3\n        /* \"#utility.yul\":16625:16641   */\n      shl\n        /* \"#utility.yul\":16604:16641   */\n      swap1\n      pop\n        /* \"#utility.yul\":16541:16648   */\n      swap3\n      swap2\n      pop\n      pop\n      jump\t// out\n        /* \"#utility.yul\":16654:17047   */\n    tag_163:\n        /* \"#utility.yul\":16723:16729   */\n      0x00\n        /* \"#utility.yul\":16773:16774   */\n      0x08\n        /* \"#utility.yul\":16761:16771   */\n      dup4\n        /* \"#utility.yul\":16757:16775   */\n      mul\n        /* \"#utility.yul\":16796:16893   */\n      tag_334\n        /* \"#utility.yul\":16826:16892   */\n      0xffffffffffffffffffffffffffffffffffffffffffffffffffffffffffffffff\n        /* \"#utility.yul\":16815:16824   */\n      dup3\n        /* \"#utility.yul\":16796:16893   */\n      tag_162\n      jump\t// in\n    tag_334:\n        /* \"#utility.yul\":16914:16953   */\n      tag_335\n        /* \"#utility.yul\":16944:16952   */\n      dup7\n        /* \"#utility.yul\":16933:16942   */\n      dup4\n        /* \"#utility.yul\":16914:16953   */\n      tag_162\n      jump\t// in\n    tag_335:\n        /* \"#utility.yul\":16902:16953   */\n      swap6\n      pop\n        /* \"#utility.yul\":16986:16990   */\n      dup1\n        /* \"#utility.yul\":16982:16991   */\n      not\n        /* \"#utility.yul\":16975:16980   */\n      dup5\n        /* \"#utility.yul\":16971:16992   */\n      and\n        /* \"#utility.yul\":16962:16992   */\n      swap4\n      pop\n        /* \"#utility.yul\":17035:17039   */\n      dup1\n        /* \"#utility.yul\":17025:17033   */\n      dup7\n        /* \"#utility.yul\":17021:17040   */\n      and\n        /* \"#utility.yul\":17014:17019   */\n      dup5\n        /* \"#utility.yul\":17011:17041   */\n      or\n        /* \"#utility.yul\":17001:17041   */\n      swap3\n      pop\n        /* \"#utility.yul\":16730:17047   */\n      pop\n      pop\n        /* \"#utility.yul\":16654:17047   */\n      swap4\n      swap3\n      pop\n      pop\n      pop\n      jump\t// out\n        /* \"#utility.yul\":17053:17113   */\n    tag_164:\n        /* \"#utility.yul\":17081:17084   */\n      0x00\n        /* \"#utility.yul\":17102:17107   */\n      dup2\n        /* \"#utility.yul\":17095:17107   */\n      swap1\n      pop\n        /* \"#utility.yul\":17053:17113   */\n      swap2\n      swap1\n      pop\n      jump\t// out\n        /* \"#utility.yul\":17119:17261   */\n    tag_165:\n        /* \"#utility.yul\":17169:17178   */\n      0x00\n        /* \"#utility.yul\":17202:17255   */\n      tag_338\n        /* \"#utility.yul\":17220:17254   */\n      tag_339\n        /* \"#utility.yul\":17229:17253   */\n      tag_340\n        /* \"#utility.yul\":17247:17252   */\n      dup5\n        /* \"#utility.yul\":17229:17253   */\n      tag_116\n      jump\t// in\n    tag_340:\n        /* \"#utility.yul\":17220:17254   */\n      tag_164\n      jump\t// in\n    tag_339:\n        /* \"#utility.yul\":17202:17255   */\n      tag_116\n      jump\t// in\n    tag_338:\n        /* \"#utility.yul\":17189:17255   */\n      swap1\n      pop\n        /* \"#utility.yul\":17119:17261   */\n      swap2\n      swap1\n      pop\n      jump\t// out\n        /* \"#utility.yul\":17267:17342   */\n    tag_166:\n        /* \"#utility.yul\":17310:17313   */\n      0x00\n        /* \"#utility.yul\":17331:17336   */\n      dup2\n        /* \"#utility.yul\":17324:17336   */\n      swap1\n      pop\n        /* \"#utility.yul\":17267:17342   */\n      swap2\n      swap1\n      pop\n      jump\t// out\n        /* \"#utility.yul\":17348:17617   */\n    tag_167:\n        /* \"#utility.yul\":17458:17497   */\n      tag_343\n        /* \"#utility.yul\":17489:17496   */\n      dup4\n        /* \"#utility.yul\":17458:17497   */\n      tag_165\n      jump\t// in\n    tag_343:\n        /* \"#utility.yul\":17519:17610   */\n      tag_344\n        /* \"#utility.yul\":17568:17609   */\n      tag_345\n        /* \"#utility.yul\":17592:17608   */\n      dup3\n        /* \"#utility.yul\":17568:17609   */\n      tag_166\n      jump\t// in\n    tag_345:\n        /* \"#utility.yul\":17560:17566   */\n      dup5\n        /* \"#utility.yul\":17553:17557   */\n      dup5\n        /* \"#utility.yul\":17547:17558   */\n      sload\n        /* \"#utility.yul\":17519:17610   */\n      tag_163\n      jump\t// in\n    tag_344:\n        /* \"#utility.yul\":17513:17517   */\n      dup3\n        /* \"#utility.yul\":17506:17611   */\n      sstore\n        /* \"#utility.yul\":17424:17617   */\n      pop\n        /* \"#utility.yul\":17348:17617   */\n      pop\n      pop\n      pop\n      jump\t// out\n        /* \"#utility.yul\":17623:17696   */\n    tag_168:\n        /* \"#utility.yul\":17668:17671   */\n      0x00\n        /* \"#utility.yul\":17623:17696   */\n      swap1\n      jump\t// out\n        /* \"#utility.yul\":17702:17891   */\n    tag_169:\n        /* \"#utility.yul\":17779:17811   */\n      tag_348\n      tag_168\n      jump\t// in\n    tag_348:\n        /* \"#utility.yul\":17820:17885   */\n      tag_349\n        /* \"#utility.yul\":17878:17884   */\n      dup2\n        /* \"#utility.yul\":17870:17876   */\n      dup5\n        /* \"#utility.yul\":17864:17868   */\n      dup5\n        /* \"#utility.yul\":17820:17885   */\n      tag_167\n      jump\t// in\n    tag_349:\n        /* \"#utility.yul\":17755:17891   */\n      pop\n        /* \"#utility.yul\":17702:17891   */\n      pop\n      pop\n      jump\t// out\n        /* \"#utility.yul\":17897:18083   */\n    tag_170:\n        /* \"#utility.yul\":17957:18077   */\n    tag_351:\n        /* \"#utility.yul\":17974:17977   */\n      dup2\n        /* \"#utility.yul\":17967:17972   */\n      dup2\n        /* \"#utility.yul\":17964:17978   */\n      lt\n        /* \"#utility.yul\":17957:18077   */\n      iszero\n      tag_353\n      jumpi\n        /* \"#utility.yul\":18028:18067   */\n      tag_354\n        /* \"#utility.yul\":18065:18066   */\n      0x00\n        /* \"#utility.yul\":18058:18063   */\n      dup3\n        /* \"#utility.yul\":18028:18067   */\n      tag_169\n      jump\t// in\n    tag_354:\n        /* \"#utility.yul\":18001:18002   */\n      0x01\n        /* \"#utility.yul\":17994:17999   */\n      dup2\n        /* \"#utility.yul\":17990:18003   */\n      add\n        /* \"#utility.yul\":17981:18003   */\n      swap1\n      pop\n        /* \"#utility.yul\":17957:18077   */\n      jump(tag_351)\n    tag_353:\n        /* \"#utility.yul\":17897:18083   */\n      pop\n      pop\n      jump\t// out\n        /* \"#utility.yul\":18089:18632   */\n    tag_171:\n        /* \"#utility.yul\":18190:18192   */\n      0x1f\n        /* \"#utility.yul\":18185:18188   */\n      dup3\n        /* \"#utility.yul\":18182:18193   */\n      gt\n        /* \"#utility.yul\":18179:18625   */\n      iszero\n      tag_356\n      jumpi\n        /* \"#utility.yul\":18224:18262   */\n      tag_357\n        /* \"#utility.yul\":18256:18261   */\n      dup2\n        /* \"#utility.yul\":18224:18262   */\n      tag_160\n      jump\t// in\n    tag_357:\n        /* \"#utility.yul\":18308:18337   */\n      tag_358\n        /* \"#utility.yul\":18326:18336   */\n      dup5\n        /* \"#utility.yul\":18308:18337   */\n      tag_161\n      jump\t// in\n    tag_358:\n        /* \"#utility.yul\":18298:18306   */\n      dup2\n        /* \"#utility.yul\":18294:18338   */\n      add\n        /* \"#utility.yul\":18491:18493   */\n      0x20\n        /* \"#utility.yul\":18479:18489   */\n      dup6\n        /* \"#utility.yul\":18476:18494   */\n      lt\n        /* \"#utility.yul\":18473:18522   */\n      iszero\n      tag_359\n      jumpi\n        /* \"#utility.yul\":18512:18520   */\n      dup2\n        /* \"#utility.yul\":18497:18520   */\n      swap1\n      pop\n        /* \"#utility.yul\":18473:18522   */\n    tag_359:\n        /* \"#utility.yul\":18535:18615   */\n      tag_360\n        /* \"#utility.yul\":18591:18613   */\n      tag_361\n        /* \"#utility.yul\":18609:18612   */\n      dup6\n        /* \"#utility.yul\":18591:18613   */\n      tag_161\n      jump\t// in\n    tag_361:\n        /* \"#utility.yul\":18581:18589   */\n      dup4\n        /* \"#utility.yul\":18577:18614   */\n      add\n        /* \"#utility.yul\":18564:18575   */\n      dup3\n        /* \"#utility.yul\":18535:18615   */\n      tag_170\n      jump\t// in\n    tag_360:\n        /* \"#utility.yul\":18194:18625   */\n      pop\n      pop\n        /* \"#utility.yul\":18179:18625   */\n    tag_356:\n        /* \"#utility.yul\":18089:18632   */\n      pop\n      pop\n      pop\n      jump\t// out\n        /* \"#utility.yul\":18638:18755   */\n    tag_172:\n        /* \"#utility.yul\":18692:18700   */\n      0x00\n        /* \"#utility.yul\":18742:18747   */\n      dup3\n        /* \"#utility.yul\":18736:18740   */\n      dup3\n        /* \"#utility.yul\":18732:18748   */\n      shr\n        /* \"#utility.yul\":18711:18748   */\n      swap1\n      pop\n        /* \"#utility.yul\":18638:18755   */\n      swap3\n      swap2\n      pop\n      pop\n      jump\t// out\n        /* \"#utility.yul\":18761:18930   */\n    tag_173:\n        /* \"#utility.yul\":18805:18811   */\n      0x00\n        /* \"#utility.yul\":18838:18889   */\n      tag_364\n        /* \"#utility.yul\":18886:18887   */\n      0x00\n        /* \"#utility.yul\":18882:18888   */\n      not\n        /* \"#utility.yul\":18874:18879   */\n      dup5\n        /* \"#utility.yul\":18871:18872   */\n      0x08\n        /* \"#utility.yul\":18867:18880   */\n      mul\n        /* \"#utility.yul\":18838:18889   */\n      tag_172\n      jump\t// in\n    tag_364:\n        /* \"#utility.yul\":18834:18890   */\n      not\n        /* \"#utility.yul\":18919:18923   */\n      dup1\n        /* \"#utility.yul\":18913:18917   */\n      dup4\n        /* \"#utility.yul\":18909:18924   */\n      and\n        /* \"#utility.yul\":18899:18924   */\n      swap2\n      pop\n        /* \"#utility.yul\":18812:18930   */\n      pop\n        /* \"#utility.yul\":18761:18930   */\n      swap3\n      swap2\n      pop\n      pop\n      jump\t// out\n        /* \"#utility.yul\":18935:19230   */\n    tag_174:\n        /* \"#utility.yul\":19011:19015   */\n      0x00\n        /* \"#utility.yul\":19157:19186   */\n      tag_366\n        /* \"#utility.yul\":19182:19185   */\n      dup4\n        /* \"#utility.yul\":19176:19180   */\n      dup4\n        /* \"#utility.yul\":19157:19186   */\n      tag_173\n      jump\t// in\n    tag_366:\n        /* \"#utility.yul\":19149:19186   */\n      swap2\n      pop\n        /* \"#utility.yul\":19219:19222   */\n      dup3\n        /* \"#utility.yul\":19216:19217   */\n      0x02\n        /* \"#utility.yul\":19212:19223   */\n      mul\n        /* \"#utility.yul\":19206:19210   */\n      dup3\n        /* \"#utility.yul\":19203:19224   */\n      or\n        /* \"#utility.yul\":19195:19224   */\n      swap1\n      pop\n        /* \"#utility.yul\":18935:19230   */\n      swap3\n      swap2\n      pop\n      pop\n      jump\t// out\n        /* \"#utility.yul\":19235:20630   */\n    tag_81:\n        /* \"#utility.yul\":19352:19389   */\n      tag_368\n        /* \"#utility.yul\":19385:19388   */\n      dup3\n        /* \"#utility.yul\":19352:19389   */\n      tag_118\n      jump\t// in\n    tag_368:\n        /* \"#utility.yul\":19454:19472   */\n      0xffffffffffffffff\n        /* \"#utility.yul\":19446:19452   */\n      dup2\n        /* \"#utility.yul\":19443:19473   */\n      gt\n        /* \"#utility.yul\":19440:19496   */\n      iszero\n      tag_369\n      jumpi\n        /* \"#utility.yul\":19476:19494   */\n      tag_370\n      tag_138\n      jump\t// in\n    tag_370:\n        /* \"#utility.yul\":19440:19496   */\n    tag_369:\n        /* \"#utility.yul\":19520:19558   */\n      tag_371\n        /* \"#utility.yul\":19552:19556   */\n      dup3\n        /* \"#utility.yul\":19546:19557   */\n      sload\n        /* \"#utility.yul\":19520:19558   */\n      tag_47\n      jump\t// in\n    tag_371:\n        /* \"#utility.yul\":19605:19672   */\n      tag_372\n        /* \"#utility.yul\":19665:19671   */\n      dup3\n        /* \"#utility.yul\":19657:19663   */\n      dup3\n        /* \"#utility.yul\":19651:19655   */\n      dup6\n        /* \"#utility.yul\":19605:19672   */\n      tag_171\n      jump\t// in\n    tag_372:\n        /* \"#utility.yul\":19699:19700   */\n      0x00\n        /* \"#utility.yul\":19723:19727   */\n      0x20\n        /* \"#utility.yul\":19710:19727   */\n      swap1\n      pop\n        /* \"#utility.yul\":19755:19757   */\n      0x1f\n        /* \"#utility.yul\":19747:19753   */\n      dup4\n        /* \"#utility.yul\":19744:19758   */\n      gt\n        /* \"#utility.yul\":19772:19773   */\n      0x01\n        /* \"#utility.yul\":19767:20385   */\n      dup2\n      eq\n      tag_374\n      jumpi\n        /* \"#utility.yul\":20429:20430   */\n      0x00\n        /* \"#utility.yul\":20446:20452   */\n      dup5\n        /* \"#utility.yul\":20443:20520   */\n      iszero\n      tag_375\n      jumpi\n        /* \"#utility.yul\":20495:20504   */\n      dup3\n        /* \"#utility.yul\":20490:20493   */\n      dup8\n        /* \"#utility.yul\":20486:20505   */\n      add\n        /* \"#utility.yul\":20480:20506   */\n      mload\n        /* \"#utility.yul\":20471:20506   */\n      swap1\n      pop\n        /* \"#utility.yul\":20443:20520   */\n    tag_375:\n        /* \"#utility.yul\":20546:20613   */\n      tag_376\n        /* \"#utility.yul\":20606:20612   */\n      dup6\n        /* \"#utility.yul\":20599:20604   */\n      dup3\n        /* \"#utility.yul\":20546:20613   */\n      tag_174\n      jump\t// in\n    tag_376:\n        /* \"#utility.yul\":20540:20544   */\n      dup7\n        /* \"#utility.yul\":20533:20614   */\n      sstore\n        /* \"#utility.yul\":20402:20624   */\n      pop\n        /* \"#utility.yul\":19737:20624   */\n      jump(tag_373)\n        /* \"#utility.yul\":19767:20385   */\n    tag_374:\n        /* \"#utility.yul\":19819:19823   */\n      0x1f\n        /* \"#utility.yul\":19815:19824   */\n      not\n        /* \"#utility.yul\":19807:19813   */\n      dup5\n        /* \"#utility.yul\":19803:19825   */\n      and\n        /* \"#utility.yul\":19853:19890   */\n      tag_377\n        /* \"#utility.yul\":19885:19889   */\n      dup7\n        /* \"#utility.yul\":19853:19890   */\n      tag_160\n      jump\t// in\n    tag_377:\n        /* \"#utility.yul\":19912:19913   */\n      0x00\n        /* \"#utility.yul\":19926:20134   */\n    tag_378:\n        /* \"#utility.yul\":19940:19947   */\n      dup3\n        /* \"#utility.yul\":19937:19938   */\n      dup2\n        /* \"#utility.yul\":19934:19948   */\n      lt\n        /* \"#utility.yul\":19926:20134   */\n      iszero\n      tag_380\n      jumpi\n        /* \"#utility.yul\":20019:20028   */\n      dup5\n        /* \"#utility.yul\":20014:20017   */\n      dup10\n        /* \"#utility.yul\":20010:20029   */\n      add\n        /* \"#utility.yul\":20004:20030   */\n      mload\n        /* \"#utility.yul\":19996:20002   */\n      dup3\n        /* \"#utility.yul\":19989:20031   */\n      sstore\n        /* \"#utility.yul\":20070:20071   */\n      0x01\n        /* \"#utility.yul\":20062:20068   */\n      dup3\n        /* \"#utility.yul\":20058:20072   */\n      add\n        /* \"#utility.yul\":20048:20072   */\n      swap2\n      pop\n        /* \"#utility.yul\":20117:20119   */\n      0x20\n        /* \"#utility.yul\":20106:20115   */\n      dup6\n        /* \"#utility.yul\":20102:20120   */\n      add\n        /* \"#utility.yul\":20089:20120   */\n      swap5\n      pop\n        /* \"#utility.yul\":19963:19967   */\n      0x20\n        /* \"#utility.yul\":19960:19961   */\n      dup2\n        /* \"#utility.yul\":19956:19968   */\n      add\n        /* \"#utility.yul\":19951:19968   */\n      swap1\n      pop\n        /* \"#utility.yul\":19926:20134   */\n      jump(tag_378)\n    tag_380:\n        /* \"#utility.yul\":20162:20168   */\n      dup7\n        /* \"#utility.yul\":20153:20160   */\n      dup4\n        /* \"#utility.yul\":20150:20169   */\n      lt\n        /* \"#utility.yul\":20147:20326   */\n      iszero\n      tag_381\n      jumpi\n        /* \"#utility.yul\":20220:20229   */\n      dup5\n        /* \"#utility.yul\":20215:20218   */\n      dup10\n        /* \"#utility.yul\":20211:20230   */\n      add\n        /* \"#utility.yul\":20205:20231   */\n      mload\n        /* \"#utility.yul\":20263:20311   */\n      tag_382\n        /* \"#utility.yul\":20305:20309   */\n      0x1f\n        /* \"#utility.yul\":20297:20303   */\n      dup10\n        /* \"#utility.yul\":20293:20310   */\n      and\n        /* \"#utility.yul\":20282:20291   */\n      dup3\n        /* \"#utility.yul\":20263:20311   */\n      tag_173\n      jump\t// in\n    tag_382:\n        /* \"#utility.yul\":20255:20261   */\n      dup4\n        /* \"#utility.yul\":20248:20312   */\n      sstore\n        /* \"#utility.yul\":20170:20326   */\n      pop\n        /* \"#utility.yul\":20147:20326   */\n    tag_381:\n        /* \"#utility.yul\":20372:20373   */\n      0x01\n        /* \"#utility.yul\":20368:20369   */\n      0x02\n        /* \"#utility.yul\":20360:20366   */\n      dup9\n        /* \"#utility.yul\":20356:20370   */\n      mul\n        /* \"#utility.yul\":20352:20374   */\n      add\n        /* \"#utility.yul\":20346:20350   */\n      dup9\n        /* \"#utility.yul\":20339:20375   */\n      sstore\n        /* \"#utility.yul\":19774:20385   */\n      pop\n      pop\n      pop\n        /* \"#utility.yul\":19737:20624   */\n    tag_373:\n      pop\n        /* \"#utility.yul\":19327:20630   */\n      pop\n      pop\n      pop\n        /* \"#utility.yul\":19235:20630   */\n      pop\n      pop\n      jump\t// out\n        /* \"#utility.yul\":20636:20816   */\n    tag_96:\n        /* \"#utility.yul\":20684:20761   */\n      0x4e487b7100000000000000000000000000000000000000000000000000000000\n        /* \"#utility.yul\":20681:20682   */\n      0x00\n        /* \"#utility.yul\":20674:20762   */\n      mstore\n        /* \"#utility.yul\":20781:20785   */\n      0x32\n        /* \"#utility.yul\":20778:20779   */\n      0x04\n        /* \"#utility.yul\":20771:20786   */\n      mstore\n        /* \"#utility.yul\":20805:20809   */\n      0x24\n        /* \"#utility.yul\":20802:20803   */\n      0x00\n        /* \"#utility.yul\":20795:20810   */\n      revert\n        /* \"#utility.yul\":20822:21047   */\n    tag_175:\n        /* \"#utility.yul\":20962:20996   */\n      0x4f776e61626c653a206e6577206f776e657220697320746865207a65726f2061\n        /* \"#utility.yul\":20958:20959   */\n      0x00\n        /* \"#utility.yul\":20950:20956   */\n      dup3\n        /* \"#utility.yul\":20946:20960   */\n      add\n        /* \"#utility.yul\":20939:20997   */\n      mstore\n        /* \"#utility.yul\":21031:21039   */\n      0x6464726573730000000000000000000000000000000000000000000000000000\n        /* \"#utility.yul\":21026:21028   */\n      0x20\n        /* \"#utility.yul\":21018:21024   */\n      dup3\n        /* \"#utility.yul\":21014:21029   */\n      add\n        /* \"#utility.yul\":21007:21040   */\n      mstore\n        /* \"#utility.yul\":20822:21047   */\n      pop\n      jump\t// out\n        /* \"#utility.yul\":21053:21419   */\n    tag_176:\n        /* \"#utility.yul\":21195:21198   */\n      0x00\n        /* \"#utility.yul\":21216:21283   */\n      tag_386\n        /* \"#utility.yul\":21280:21282   */\n      0x26\n        /* \"#utility.yul\":21275:21278   */\n      dup4\n        /* \"#utility.yul\":21216:21283   */\n      tag_154\n      jump\t// in\n    tag_386:\n        /* \"#utility.yul\":21209:21283   */\n      swap2\n      pop\n        /* \"#utility.yul\":21292:21385   */\n      tag_387\n        /* \"#utility.yul\":21381:21384   */\n      dup3\n        /* \"#utility.yul\":21292:21385   */\n      tag_175\n      jump\t// in\n    tag_387:\n        /* \"#utility.yul\":21410:21412   */\n      0x40\n        /* \"#utility.yul\":21405:21408   */\n      dup3\n        /* \"#utility.yul\":21401:21413   */\n      add\n        /* \"#utility.yul\":21394:21413   */\n      swap1\n      pop\n        /* \"#utility.yul\":21053:21419   */\n      swap2\n      swap1\n      pop\n      jump\t// out\n        /* \"#utility.yul\":21425:21844   */\n    tag_103:\n        /* \"#utility.yul\":21591:21595   */\n      0x00\n        /* \"#utility.yul\":21629:21631   */\n      0x20\n        /* \"#utility.yul\":21618:21627   */\n      dup3\n        /* \"#utility.yul\":21614:21632   */\n      add\n        /* \"#utility.yul\":21606:21632   */\n      swap1\n      pop\n        /* \"#utility.yul\":21678:21687   */\n      dup2\n        /* \"#utility.yul\":21672:21676   */\n      dup2\n        /* \"#utility.yul\":21668:21688   */\n      sub\n        /* \"#utility.yul\":21664:21665   */\n      0x00\n        /* \"#utility.yul\":21653:21662   */\n      dup4\n        /* \"#utility.yul\":21649:21666   */\n      add\n        /* \"#utility.yul\":21642:21689   */\n      mstore\n        /* \"#utility.yul\":21706:21837   */\n      tag_389\n        /* \"#utility.yul\":21832:21836   */\n      dup2\n        /* \"#utility.yul\":21706:21837   */\n      tag_176\n      jump\t// in\n    tag_389:\n        /* \"#utility.yul\":21698:21837   */\n      swap1\n      pop\n        /* \"#utility.yul\":21425:21844   */\n      swap2\n      swap1\n      pop\n      jump\t// out\n        /* \"#utility.yul\":21850:22032   */\n    tag_177:\n        /* \"#utility.yul\":21990:22024   */\n      0x4f776e61626c653a2063616c6c6572206973206e6f7420746865206f776e6572\n        /* \"#utility.yul\":21986:21987   */\n      0x00\n        /* \"#utility.yul\":21978:21984   */\n      dup3\n        /* \"#utility.yul\":21974:21988   */\n      add\n        /* \"#utility.yul\":21967:22025   */\n      mstore\n        /* \"#utility.yul\":21850:22032   */\n      pop\n      jump\t// out\n        /* \"#utility.yul\":22038:22404   */\n    tag_178:\n        /* \"#utility.yul\":22180:22183   */\n      0x00\n        /* \"#utility.yul\":22201:22268   */\n      tag_392\n        /* \"#utility.yul\":22265:22267   */\n      0x20\n        /* \"#utility.yul\":22260:22263   */\n      dup4\n        /* \"#utility.yul\":22201:22268   */\n      tag_154\n      jump\t// in\n    tag_392:\n        /* \"#utility.yul\":22194:22268   */\n      swap2\n      pop\n        /* \"#utility.yul\":22277:22370   */\n      tag_393\n        /* \"#utility.yul\":22366:22369   */\n      dup3\n        /* \"#utility.yul\":22277:22370   */\n      tag_177\n      jump\t// in\n    tag_393:\n        /* \"#utility.yul\":22395:22397   */\n      0x20\n        /* \"#utility.yul\":22390:22393   */\n      dup3\n        /* \"#utility.yul\":22386:22398   */\n      add\n        /* \"#utility.yul\":22379:22398   */\n      swap1\n      pop\n        /* \"#utility.yul\":22038:22404   */\n      swap2\n      swap1\n      pop\n      jump\t// out\n        /* \"#utility.yul\":22410:22829   */\n    tag_111:\n        /* \"#utility.yul\":22576:22580   */\n      0x00\n        /* \"#utility.yul\":22614:22616   */\n      0x20\n        /* \"#utility.yul\":22603:22612   */\n      dup3\n        /* \"#utility.yul\":22599:22617   */\n      add\n        /* \"#utility.yul\":22591:22617   */\n      swap1\n      pop\n        /* \"#utility.yul\":22663:22672   */\n      dup2\n        /* \"#utility.yul\":22657:22661   */\n      dup2\n        /* \"#utility.yul\":22653:22673   */\n      sub\n        /* \"#utility.yul\":22649:22650   */\n      0x00\n        /* \"#utility.yul\":22638:22647   */\n      dup4\n        /* \"#utility.yul\":22634:22651   */\n      add\n        /* \"#utility.yul\":22627:22674   */\n      mstore\n        /* \"#utility.yul\":22691:22822   */\n      tag_395\n        /* \"#utility.yul\":22817:22821   */\n      dup2\n        /* \"#utility.yul\":22691:22822   */\n      tag_178\n      jump\t// in\n    tag_395:\n        /* \"#utility.yul\":22683:22822   */\n      swap1\n      pop\n        /* \"#utility.yul\":22410:22829   */\n      swap2\n      swap1\n      pop\n      jump\t// out\n\n    auxdata: 0xa2646970667358221220712f0d84466648216894cc829a0d82ce8e2dec5f8b75df31af1fea9a9e6f0f9264736f6c63430008120033\n}\n",
				"bytecode": {
					"linkReferences": {},
					"object": "608060405234801561001057600080fd5b50336000806101000a81548173ffffffffffffffffffffffffffffffffffffffff021916908373ffffffffffffffffffffffffffffffffffffffff160217905550611664806100606000396000f3fe608060405234801561001057600080fd5b506004361061007d5760003560e01c806383197ef01161005b57806383197ef0146100d85780638da5cb5b146100e2578063ee416d5b14610100578063f2fde38b1461011c5761007d565b80631f9c0c6f146100825780634d0a5dbd146100a057806364b30098146100bc575b600080fd5b61008a610138565b6040516100979190610cee565b60405180910390f35b6100ba60048036038101906100b59190610d50565b6104f8565b005b6100d660048036038101906100d1919061104e565b6105e8565b005b6100e061077f565b005b6100ea6107a0565b6040516100f791906110a6565b60405180910390f35b61011a600480360381019061011591906110c1565b6107c9565b005b61013660048036038101906101319190610d50565b61089c565b005b60606002600061014661091f565b73ffffffffffffffffffffffffffffffffffffffff1673ffffffffffffffffffffffffffffffffffffffff16815260200190815260200160002060009054906101000a900460ff166101cd576040517f08c379a00000000000000000000000000000000000000000000000000000000081526004016101c490611171565b60405180910390fd5b6001805480602002602001604051908101604052809291908181526020016000905b828210156104ef5783829060005260206000209060080201604051806101000160405290816000820154815260200160018201805461022d906111c0565b80601f0160208091040260200160405190810160405280929190818152602001828054610259906111c0565b80156102a65780601f1061027b576101008083540402835291602001916102a6565b820191906000526020600020905b81548152906001019060200180831161028957829003601f168201915b505050505081526020016002820160009054906101000a900473ffffffffffffffffffffffffffffffffffffffff1673ffffffffffffffffffffffffffffffffffffffff1673ffffffffffffffffffffffffffffffffffffffff168152602001600382018054610315906111c0565b80601f0160208091040260200160405190810160405280929190818152602001828054610341906111c0565b801561038e5780601f106103635761010080835404028352916020019161038e565b820191906000526020600020905b81548152906001019060200180831161037157829003601f168201915b505050505081526020016004820180546103a7906111c0565b80601f01602080910402602001604051908101604052809291908181526020018280546103d3906111c0565b80156104205780601f106103f557610100808354040283529160200191610420565b820191906000526020600020905b81548152906001019060200180831161040357829003601f168201915b50505050508152602001600582018054610439906111c0565b80601f0160208091040260200160405190810160405280929190818152602001828054610465906111c0565b80156104b25780601f10610487576101008083540402835291602001916104b2565b820191906000526020600020905b81548152906001019060200180831161049557829003601f168201915b50505050508152602001600682015481526020016007820160009054906101000a900460ff161515151581525050815260200190600101906101ef565b50505050905090565b610500610927565b600260008273ffffffffffffffffffffffffffffffffffffffff1673ffffffffffffffffffffffffffffffffffffffff16815260200190815260200160002060009054906101000a900460ff161561058d576040517f08c379a000000000000000000000000000000000000000000000000000000000815260040161058490611263565b60405180910390fd5b6001600260008373ffffffffffffffffffffffffffffffffffffffff1673ffffffffffffffffffffffffffffffffffffffff16815260200190815260200160002060006101000a81548160ff02191690831515021790555050565b600260006105f461091f565b73ffffffffffffffffffffffffffffffffffffffff1673ffffffffffffffffffffffffffffffffffffffff16815260200190815260200160002060009054906101000a900460ff1661067b576040517f08c379a000000000000000000000000000000000000000000000000000000000815260040161067290611171565b60405180910390fd5b60018190806001815401808255809150506001900390600052602060002090600802016000909190919091506000820151816000015560208201518160010190816106c6919061142f565b5060408201518160020160006101000a81548173ffffffffffffffffffffffffffffffffffffffff021916908373ffffffffffffffffffffffffffffffffffffffff1602179055506060820151816003019081610723919061142f565b506080820151816004019081610739919061142f565b5060a082015181600501908161074f919061142f565b5060c0820151816006015560e08201518160070160006101000a81548160ff021916908315150217905550505050565b610787610927565b3073ffffffffffffffffffffffffffffffffffffffff16ff5b60008060009054906101000a900473ffffffffffffffffffffffffffffffffffffffff16905090565b600260006107d561091f565b73ffffffffffffffffffffffffffffffffffffffff1673ffffffffffffffffffffffffffffffffffffffff16815260200190815260200160002060009054906101000a900460ff1661085c576040517f08c379a000000000000000000000000000000000000000000000000000000000815260040161085390611171565b60405180910390fd5b600180828154811061087157610870611501565b5b906000526020600020906008020160070160006101000a81548160ff02191690831515021790555050565b6108a4610927565b600073ffffffffffffffffffffffffffffffffffffffff168173ffffffffffffffffffffffffffffffffffffffff1603610913576040517f08c379a000000000000000000000000000000000000000000000000000000000815260040161090a906115a2565b60405180910390fd5b61091c8161099e565b50565b600033905090565b3373ffffffffffffffffffffffffffffffffffffffff166109466107a0565b73ffffffffffffffffffffffffffffffffffffffff161461099c576040517f08c379a00000000000000000000000000000000000000000000000000000000081526004016109939061160e565b60405180910390fd5b565b60008060009054906101000a900473ffffffffffffffffffffffffffffffffffffffff169050816000806101000a81548173ffffffffffffffffffffffffffffffffffffffff021916908373ffffffffffffffffffffffffffffffffffffffff1602179055508173ffffffffffffffffffffffffffffffffffffffff168173ffffffffffffffffffffffffffffffffffffffff167f8be0079c531659141344cd1fd0a4f28419497f9722a3daafe3b4186f6b6457e060405160405180910390a35050565b600081519050919050565b600082825260208201905092915050565b6000819050602082019050919050565b6000819050919050565b610aa181610a8e565b82525050565b600081519050919050565b600082825260208201905092915050565b60005b83811015610ae1578082015181840152602081019050610ac6565b60008484015250505050565b6000601f19601f8301169050919050565b6000610b0982610aa7565b610b138185610ab2565b9350610b23818560208601610ac3565b610b2c81610aed565b840191505092915050565b600073ffffffffffffffffffffffffffffffffffffffff82169050919050565b6000610b6282610b37565b9050919050565b610b7281610b57565b82525050565b60008115159050919050565b610b8d81610b78565b82525050565b600061010083016000830151610bac6000860182610a98565b5060208301518482036020860152610bc48282610afe565b9150506040830151610bd96040860182610b69565b5060608301518482036060860152610bf18282610afe565b91505060808301518482036080860152610c0b8282610afe565b91505060a083015184820360a0860152610c258282610afe565b91505060c0830151610c3a60c0860182610a98565b5060e0830151610c4d60e0860182610b84565b508091505092915050565b6000610c648383610b93565b905092915050565b6000602082019050919050565b6000610c8482610a62565b610c8e8185610a6d565b935083602082028501610ca085610a7e565b8060005b85811015610cdc5784840389528151610cbd8582610c58565b9450610cc883610c6c565b925060208a01995050600181019050610ca4565b50829750879550505050505092915050565b60006020820190508181036000830152610d088184610c79565b905092915050565b6000604051905090565b600080fd5b600080fd5b610d2d81610b57565b8114610d3857600080fd5b50565b600081359050610d4a81610d24565b92915050565b600060208284031215610d6657610d65610d1a565b5b6000610d7484828501610d3b565b91505092915050565b600080fd5b7f4e487b7100000000000000000000000000000000000000000000000000000000600052604160045260246000fd5b610dba82610aed565b810181811067ffffffffffffffff82111715610dd957610dd8610d82565b5b80604052505050565b6000610dec610d10565b9050610df88282610db1565b919050565b600080fd5b610e0b81610a8e565b8114610e1657600080fd5b50565b600081359050610e2881610e02565b92915050565b600080fd5b600080fd5b600067ffffffffffffffff821115610e5357610e52610d82565b5b610e5c82610aed565b9050602081019050919050565b82818337600083830152505050565b6000610e8b610e8684610e38565b610de2565b905082815260208101848484011115610ea757610ea6610e33565b5b610eb2848285610e69565b509392505050565b600082601f830112610ecf57610ece610e2e565b5b8135610edf848260208601610e78565b91505092915050565b610ef181610b78565b8114610efc57600080fd5b50565b600081359050610f0e81610ee8565b92915050565b60006101008284031215610f2b57610f2a610d7d565b5b610f36610100610de2565b90506000610f4684828501610e19565b600083015250602082013567ffffffffffffffff811115610f6a57610f69610dfd565b5b610f7684828501610eba565b6020830152506040610f8a84828501610d3b565b604083015250606082013567ffffffffffffffff811115610fae57610fad610dfd565b5b610fba84828501610eba565b606083015250608082013567ffffffffffffffff811115610fde57610fdd610dfd565b5b610fea84828501610eba565b60808301525060a082013567ffffffffffffffff81111561100e5761100d610dfd565b5b61101a84828501610eba565b60a08301525060c061102e84828501610e19565b60c08301525060e061104284828501610eff565b60e08301525092915050565b60006020828403121561106457611063610d1a565b5b600082013567ffffffffffffffff81111561108257611081610d1f565b5b61108e84828501610f14565b91505092915050565b6110a081610b57565b82525050565b60006020820190506110bb6000830184611097565b92915050565b6000602082840312156110d7576110d6610d1a565b5b60006110e584828501610e19565b91505092915050565b600082825260208201905092915050565b7f526f75676844617461626173653a206f6e6c7920636f6e74726163742077686960008201527f63682061726520616c6c6f776564000000000000000000000000000000000000602082015250565b600061115b602e836110ee565b9150611166826110ff565b604082019050919050565b6000602082019050818103600083015261118a8161114e565b9050919050565b7f4e487b7100000000000000000000000000000000000000000000000000000000600052602260045260246000fd5b600060028204905060018216806111d857607f821691505b6020821081036111eb576111ea611191565b5b50919050565b7f526f75676844617461626173653a207065726d697373696f6e2068617320626560008201527f656e206772616e74656400000000000000000000000000000000000000000000602082015250565b600061124d602a836110ee565b9150611258826111f1565b604082019050919050565b6000602082019050818103600083015261127c81611240565b9050919050565b60008190508160005260206000209050919050565b60006020601f8301049050919050565b600082821b905092915050565b6000600883026112e57fffffffffffffffffffffffffffffffffffffffffffffffffffffffffffffffff826112a8565b6112ef86836112a8565b95508019841693508086168417925050509392505050565b6000819050919050565b600061132c61132761132284610a8e565b611307565b610a8e565b9050919050565b6000819050919050565b61134683611311565b61135a61135282611333565b8484546112b5565b825550505050565b600090565b61136f611362565b61137a81848461133d565b505050565b5b8181101561139e57611393600082611367565b600181019050611380565b5050565b601f8211156113e3576113b481611283565b6113bd84611298565b810160208510156113cc578190505b6113e06113d885611298565b83018261137f565b50505b505050565b600082821c905092915050565b6000611406600019846008026113e8565b1980831691505092915050565b600061141f83836113f5565b9150826002028217905092915050565b61143882610aa7565b67ffffffffffffffff81111561145157611450610d82565b5b61145b82546111c0565b6114668282856113a2565b600060209050601f8311600181146114995760008415611487578287015190505b6114918582611413565b8655506114f9565b601f1984166114a786611283565b60005b828110156114cf578489015182556001820191506020850194506020810190506114aa565b868310156114ec57848901516114e8601f8916826113f5565b8355505b6001600288020188555050505b505050505050565b7f4e487b7100000000000000000000000000000000000000000000000000000000600052603260045260246000fd5b7f4f776e61626c653a206e6577206f776e657220697320746865207a65726f206160008201527f6464726573730000000000000000000000000000000000000000000000000000602082015250565b600061158c6026836110ee565b915061159782611530565b604082019050919050565b600060208201905081810360008301526115bb8161157f565b9050919050565b7f4f776e61626c653a2063616c6c6572206973206e6f7420746865206f776e6572600082015250565b60006115f86020836110ee565b9150611603826115c2565b602082019050919050565b60006020820190508181036000830152611627816115eb565b905091905056fea2646970667358221220712f0d84466648216894cc829a0d82ce8e2dec5f8b75df31af1fea9a9e6f0f9264736f6c63430008120033",
					"opcodes": "PUSH1 0x80 PUSH1 0x40 MSTORE CALLVALUE DUP1 ISZERO PUSH2 0x10 JUMPI PUSH1 0x0 DUP1 REVERT JUMPDEST POP CALLER PUSH1 0x0 DUP1 PUSH2 0x100 EXP DUP2 SLOAD DUP2 PUSH20 0xFFFFFFFFFFFFFFFFFFFFFFFFFFFFFFFFFFFFFFFF MUL NOT AND SWAP1 DUP4 PUSH20 0xFFFFFFFFFFFFFFFFFFFFFFFFFFFFFFFFFFFFFFFF AND MUL OR SWAP1 SSTORE POP PUSH2 0x1664 DUP1 PUSH2 0x60 PUSH1 0x0 CODECOPY PUSH1 0x0 RETURN INVALID PUSH1 0x80 PUSH1 0x40 MSTORE CALLVALUE DUP1 ISZERO PUSH2 0x10 JUMPI PUSH1 0x0 DUP1 REVERT JUMPDEST POP PUSH1 0x4 CALLDATASIZE LT PUSH2 0x7D JUMPI PUSH1 0x0 CALLDATALOAD PUSH1 0xE0 SHR DUP1 PUSH4 0x83197EF0 GT PUSH2 0x5B JUMPI DUP1 PUSH4 0x83197EF0 EQ PUSH2 0xD8 JUMPI DUP1 PUSH4 0x8DA5CB5B EQ PUSH2 0xE2 JUMPI DUP1 PUSH4 0xEE416D5B EQ PUSH2 0x100 JUMPI DUP1 PUSH4 0xF2FDE38B EQ PUSH2 0x11C JUMPI PUSH2 0x7D JUMP JUMPDEST DUP1 PUSH4 0x1F9C0C6F EQ PUSH2 0x82 JUMPI DUP1 PUSH4 0x4D0A5DBD EQ PUSH2 0xA0 JUMPI DUP1 PUSH4 0x64B30098 EQ PUSH2 0xBC JUMPI JUMPDEST PUSH1 0x0 DUP1 REVERT JUMPDEST PUSH2 0x8A PUSH2 0x138 JUMP JUMPDEST PUSH1 0x40 MLOAD PUSH2 0x97 SWAP2 SWAP1 PUSH2 0xCEE JUMP JUMPDEST PUSH1 0x40 MLOAD DUP1 SWAP2 SUB SWAP1 RETURN JUMPDEST PUSH2 0xBA PUSH1 0x4 DUP1 CALLDATASIZE SUB DUP2 ADD SWAP1 PUSH2 0xB5 SWAP2 SWAP1 PUSH2 0xD50 JUMP JUMPDEST PUSH2 0x4F8 JUMP JUMPDEST STOP JUMPDEST PUSH2 0xD6 PUSH1 0x4 DUP1 CALLDATASIZE SUB DUP2 ADD SWAP1 PUSH2 0xD1 SWAP2 SWAP1 PUSH2 0x104E JUMP JUMPDEST PUSH2 0x5E8 JUMP JUMPDEST STOP JUMPDEST PUSH2 0xE0 PUSH2 0x77F JUMP JUMPDEST STOP JUMPDEST PUSH2 0xEA PUSH2 0x7A0 JUMP JUMPDEST PUSH1 0x40 MLOAD PUSH2 0xF7 SWAP2 SWAP1 PUSH2 0x10A6 JUMP JUMPDEST PUSH1 0x40 MLOAD DUP1 SWAP2 SUB SWAP1 RETURN JUMPDEST PUSH2 0x11A PUSH1 0x4 DUP1 CALLDATASIZE SUB DUP2 ADD SWAP1 PUSH2 0x115 SWAP2 SWAP1 PUSH2 0x10C1 JUMP JUMPDEST PUSH2 0x7C9 JUMP JUMPDEST STOP JUMPDEST PUSH2 0x136 PUSH1 0x4 DUP1 CALLDATASIZE SUB DUP2 ADD SWAP1 PUSH2 0x131 SWAP2 SWAP1 PUSH2 0xD50 JUMP JUMPDEST PUSH2 0x89C JUMP JUMPDEST STOP JUMPDEST PUSH1 0x60 PUSH1 0x2 PUSH1 0x0 PUSH2 0x146 PUSH2 0x91F JUMP JUMPDEST PUSH20 0xFFFFFFFFFFFFFFFFFFFFFFFFFFFFFFFFFFFFFFFF AND PUSH20 0xFFFFFFFFFFFFFFFFFFFFFFFFFFFFFFFFFFFFFFFF AND DUP2 MSTORE PUSH1 0x20 ADD SWAP1 DUP2 MSTORE PUSH1 0x20 ADD PUSH1 0x0 KECCAK256 PUSH1 0x0 SWAP1 SLOAD SWAP1 PUSH2 0x100 EXP SWAP1 DIV PUSH1 0xFF AND PUSH2 0x1CD JUMPI PUSH1 0x40 MLOAD PUSH32 0x8C379A000000000000000000000000000000000000000000000000000000000 DUP2 MSTORE PUSH1 0x4 ADD PUSH2 0x1C4 SWAP1 PUSH2 0x1171 JUMP JUMPDEST PUSH1 0x40 MLOAD DUP1 SWAP2 SUB SWAP1 REVERT JUMPDEST PUSH1 0x1 DUP1 SLOAD DUP1 PUSH1 0x20 MUL PUSH1 0x20 ADD PUSH1 0x40 MLOAD SWAP1 DUP2 ADD PUSH1 0x40 MSTORE DUP1 SWAP3 SWAP2 SWAP1 DUP2 DUP2 MSTORE PUSH1 0x20 ADD PUSH1 0x0 SWAP1 JUMPDEST DUP3 DUP3 LT ISZERO PUSH2 0x4EF JUMPI DUP4 DUP3 SWAP1 PUSH1 0x0 MSTORE PUSH1 0x20 PUSH1 0x0 KECCAK256 SWAP1 PUSH1 0x8 MUL ADD PUSH1 0x40 MLOAD DUP1 PUSH2 0x100 ADD PUSH1 0x40 MSTORE SWAP1 DUP2 PUSH1 0x0 DUP3 ADD SLOAD DUP2 MSTORE PUSH1 0x20 ADD PUSH1 0x1 DUP3 ADD DUP1 SLOAD PUSH2 0x22D SWAP1 PUSH2 0x11C0 JUMP JUMPDEST DUP1 PUSH1 0x1F ADD PUSH1 0x20 DUP1 SWAP2 DIV MUL PUSH1 0x20 ADD PUSH1 0x40 MLOAD SWAP1 DUP2 ADD PUSH1 0x40 MSTORE DUP1 SWAP3 SWAP2 SWAP1 DUP2 DUP2 MSTORE PUSH1 0x20 ADD DUP3 DUP1 SLOAD PUSH2 0x259 SWAP1 PUSH2 0x11C0 JUMP JUMPDEST DUP1 ISZERO PUSH2 0x2A6 JUMPI DUP1 PUSH1 0x1F LT PUSH2 0x27B JUMPI PUSH2 0x100 DUP1 DUP4 SLOAD DIV MUL DUP4 MSTORE SWAP2 PUSH1 0x20 ADD SWAP2 PUSH2 0x2A6 JUMP JUMPDEST DUP3 ADD SWAP2 SWAP1 PUSH1 0x0 MSTORE PUSH1 0x20 PUSH1 0x0 KECCAK256 SWAP1 JUMPDEST DUP2 SLOAD DUP2 MSTORE SWAP1 PUSH1 0x1 ADD SWAP1 PUSH1 0x20 ADD DUP1 DUP4 GT PUSH2 0x289 JUMPI DUP3 SWAP1 SUB PUSH1 0x1F AND DUP3 ADD SWAP2 JUMPDEST POP POP POP POP POP DUP2 MSTORE PUSH1 0x20 ADD PUSH1 0x2 DUP3 ADD PUSH1 0x0 SWAP1 SLOAD SWAP1 PUSH2 0x100 EXP SWAP1 DIV PUSH20 0xFFFFFFFFFFFFFFFFFFFFFFFFFFFFFFFFFFFFFFFF AND PUSH20 0xFFFFFFFFFFFFFFFFFFFFFFFFFFFFFFFFFFFFFFFF AND PUSH20 0xFFFFFFFFFFFFFFFFFFFFFFFFFFFFFFFFFFFFFFFF AND DUP2 MSTORE PUSH1 0x20 ADD PUSH1 0x3 DUP3 ADD DUP1 SLOAD PUSH2 0x315 SWAP1 PUSH2 0x11C0 JUMP JUMPDEST DUP1 PUSH1 0x1F ADD PUSH1 0x20 DUP1 SWAP2 DIV MUL PUSH1 0x20 ADD PUSH1 0x40 MLOAD SWAP1 DUP2 ADD PUSH1 0x40 MSTORE DUP1 SWAP3 SWAP2 SWAP1 DUP2 DUP2 MSTORE PUSH1 0x20 ADD DUP3 DUP1 SLOAD PUSH2 0x341 SWAP1 PUSH2 0x11C0 JUMP JUMPDEST DUP1 ISZERO PUSH2 0x38E JUMPI DUP1 PUSH1 0x1F LT PUSH2 0x363 JUMPI PUSH2 0x100 DUP1 DUP4 SLOAD DIV MUL DUP4 MSTORE SWAP2 PUSH1 0x20 ADD SWAP2 PUSH2 0x38E JUMP JUMPDEST DUP3 ADD SWAP2 SWAP1 PUSH1 0x0 MSTORE PUSH1 0x20 PUSH1 0x0 KECCAK256 SWAP1 JUMPDEST DUP2 SLOAD DUP2 MSTORE SWAP1 PUSH1 0x1 ADD SWAP1 PUSH1 0x20 ADD DUP1 DUP4 GT PUSH2 0x371 JUMPI DUP3 SWAP1 SUB PUSH1 0x1F AND DUP3 ADD SWAP2 JUMPDEST POP POP POP POP POP DUP2 MSTORE PUSH1 0x20 ADD PUSH1 0x4 DUP3 ADD DUP1 SLOAD PUSH2 0x3A7 SWAP1 PUSH2 0x11C0 JUMP JUMPDEST DUP1 PUSH1 0x1F ADD PUSH1 0x20 DUP1 SWAP2 DIV MUL PUSH1 0x20 ADD PUSH1 0x40 MLOAD SWAP1 DUP2 ADD PUSH1 0x40 MSTORE DUP1 SWAP3 SWAP2 SWAP1 DUP2 DUP2 MSTORE PUSH1 0x20 ADD DUP3 DUP1 SLOAD PUSH2 0x3D3 SWAP1 PUSH2 0x11C0 JUMP JUMPDEST DUP1 ISZERO PUSH2 0x420 JUMPI DUP1 PUSH1 0x1F LT PUSH2 0x3F5 JUMPI PUSH2 0x100 DUP1 DUP4 SLOAD DIV MUL DUP4 MSTORE SWAP2 PUSH1 0x20 ADD SWAP2 PUSH2 0x420 JUMP JUMPDEST DUP3 ADD SWAP2 SWAP1 PUSH1 0x0 MSTORE PUSH1 0x20 PUSH1 0x0 KECCAK256 SWAP1 JUMPDEST DUP2 SLOAD DUP2 MSTORE SWAP1 PUSH1 0x1 ADD SWAP1 PUSH1 0x20 ADD DUP1 DUP4 GT PUSH2 0x403 JUMPI DUP3 SWAP1 SUB PUSH1 0x1F AND DUP3 ADD SWAP2 JUMPDEST POP POP POP POP POP DUP2 MSTORE PUSH1 0x20 ADD PUSH1 0x5 DUP3 ADD DUP1 SLOAD PUSH2 0x439 SWAP1 PUSH2 0x11C0 JUMP JUMPDEST DUP1 PUSH1 0x1F ADD PUSH1 0x20 DUP1 SWAP2 DIV MUL PUSH1 0x20 ADD PUSH1 0x40 MLOAD SWAP1 DUP2 ADD PUSH1 0x40 MSTORE DUP1 SWAP3 SWAP2 SWAP1 DUP2 DUP2 MSTORE PUSH1 0x20 ADD DUP3 DUP1 SLOAD PUSH2 0x465 SWAP1 PUSH2 0x11C0 JUMP JUMPDEST DUP1 ISZERO PUSH2 0x4B2 JUMPI DUP1 PUSH1 0x1F LT PUSH2 0x487 JUMPI PUSH2 0x100 DUP1 DUP4 SLOAD DIV MUL DUP4 MSTORE SWAP2 PUSH1 0x20 ADD SWAP2 PUSH2 0x4B2 JUMP JUMPDEST DUP3 ADD SWAP2 SWAP1 PUSH1 0x0 MSTORE PUSH1 0x20 PUSH1 0x0 KECCAK256 SWAP1 JUMPDEST DUP2 SLOAD DUP2 MSTORE SWAP1 PUSH1 0x1 ADD SWAP1 PUSH1 0x20 ADD DUP1 DUP4 GT PUSH2 0x495 JUMPI DUP3 SWAP1 SUB PUSH1 0x1F AND DUP3 ADD SWAP2 JUMPDEST POP POP POP POP POP DUP2 MSTORE PUSH1 0x20 ADD PUSH1 0x6 DUP3 ADD SLOAD DUP2 MSTORE PUSH1 0x20 ADD PUSH1 0x7 DUP3 ADD PUSH1 0x0 SWAP1 SLOAD SWAP1 PUSH2 0x100 EXP SWAP1 DIV PUSH1 0xFF AND ISZERO ISZERO ISZERO ISZERO DUP2 MSTORE POP POP DUP2 MSTORE PUSH1 0x20 ADD SWAP1 PUSH1 0x1 ADD SWAP1 PUSH2 0x1EF JUMP JUMPDEST POP POP POP POP SWAP1 POP SWAP1 JUMP JUMPDEST PUSH2 0x500 PUSH2 0x927 JUMP JUMPDEST PUSH1 0x2 PUSH1 0x0 DUP3 PUSH20 0xFFFFFFFFFFFFFFFFFFFFFFFFFFFFFFFFFFFFFFFF AND PUSH20 0xFFFFFFFFFFFFFFFFFFFFFFFFFFFFFFFFFFFFFFFF AND DUP2 MSTORE PUSH1 0x20 ADD SWAP1 DUP2 MSTORE PUSH1 0x20 ADD PUSH1 0x0 KECCAK256 PUSH1 0x0 SWAP1 SLOAD SWAP1 PUSH2 0x100 EXP SWAP1 DIV PUSH1 0xFF AND ISZERO PUSH2 0x58D JUMPI PUSH1 0x40 MLOAD PUSH32 0x8C379A000000000000000000000000000000000000000000000000000000000 DUP2 MSTORE PUSH1 0x4 ADD PUSH2 0x584 SWAP1 PUSH2 0x1263 JUMP JUMPDEST PUSH1 0x40 MLOAD DUP1 SWAP2 SUB SWAP1 REVERT JUMPDEST PUSH1 0x1 PUSH1 0x2 PUSH1 0x0 DUP4 PUSH20 0xFFFFFFFFFFFFFFFFFFFFFFFFFFFFFFFFFFFFFFFF AND PUSH20 0xFFFFFFFFFFFFFFFFFFFFFFFFFFFFFFFFFFFFFFFF AND DUP2 MSTORE PUSH1 0x20 ADD SWAP1 DUP2 MSTORE PUSH1 0x20 ADD PUSH1 0x0 KECCAK256 PUSH1 0x0 PUSH2 0x100 EXP DUP2 SLOAD DUP2 PUSH1 0xFF MUL NOT AND SWAP1 DUP4 ISZERO ISZERO MUL OR SWAP1 SSTORE POP POP JUMP JUMPDEST PUSH1 0x2 PUSH1 0x0 PUSH2 0x5F4 PUSH2 0x91F JUMP JUMPDEST PUSH20 0xFFFFFFFFFFFFFFFFFFFFFFFFFFFFFFFFFFFFFFFF AND PUSH20 0xFFFFFFFFFFFFFFFFFFFFFFFFFFFFFFFFFFFFFFFF AND DUP2 MSTORE PUSH1 0x20 ADD SWAP1 DUP2 MSTORE PUSH1 0x20 ADD PUSH1 0x0 KECCAK256 PUSH1 0x0 SWAP1 SLOAD SWAP1 PUSH2 0x100 EXP SWAP1 DIV PUSH1 0xFF AND PUSH2 0x67B JUMPI PUSH1 0x40 MLOAD PUSH32 0x8C379A000000000000000000000000000000000000000000000000000000000 DUP2 MSTORE PUSH1 0x4 ADD PUSH2 0x672 SWAP1 PUSH2 0x1171 JUMP JUMPDEST PUSH1 0x40 MLOAD DUP1 SWAP2 SUB SWAP1 REVERT JUMPDEST PUSH1 0x1 DUP2 SWAP1 DUP1 PUSH1 0x1 DUP2 SLOAD ADD DUP1 DUP3 SSTORE DUP1 SWAP2 POP POP PUSH1 0x1 SWAP1 SUB SWAP1 PUSH1 0x0 MSTORE PUSH1 0x20 PUSH1 0x0 KECCAK256 SWAP1 PUSH1 0x8 MUL ADD PUSH1 0x0 SWAP1 SWAP2 SWAP1 SWAP2 SWAP1 SWAP2 POP PUSH1 0x0 DUP3 ADD MLOAD DUP2 PUSH1 0x0 ADD SSTORE PUSH1 0x20 DUP3 ADD MLOAD DUP2 PUSH1 0x1 ADD SWAP1 DUP2 PUSH2 0x6C6 SWAP2 SWAP1 PUSH2 0x142F JUMP JUMPDEST POP PUSH1 0x40 DUP3 ADD MLOAD DUP2 PUSH1 0x2 ADD PUSH1 0x0 PUSH2 0x100 EXP DUP2 SLOAD DUP2 PUSH20 0xFFFFFFFFFFFFFFFFFFFFFFFFFFFFFFFFFFFFFFFF MUL NOT AND SWAP1 DUP4 PUSH20 0xFFFFFFFFFFFFFFFFFFFFFFFFFFFFFFFFFFFFFFFF AND MUL OR SWAP1 SSTORE POP PUSH1 0x60 DUP3 ADD MLOAD DUP2 PUSH1 0x3 ADD SWAP1 DUP2 PUSH2 0x723 SWAP2 SWAP1 PUSH2 0x142F JUMP JUMPDEST POP PUSH1 0x80 DUP3 ADD MLOAD DUP2 PUSH1 0x4 ADD SWAP1 DUP2 PUSH2 0x739 SWAP2 SWAP1 PUSH2 0x142F JUMP JUMPDEST POP PUSH1 0xA0 DUP3 ADD MLOAD DUP2 PUSH1 0x5 ADD SWAP1 DUP2 PUSH2 0x74F SWAP2 SWAP1 PUSH2 0x142F JUMP JUMPDEST POP PUSH1 0xC0 DUP3 ADD MLOAD DUP2 PUSH1 0x6 ADD SSTORE PUSH1 0xE0 DUP3 ADD MLOAD DUP2 PUSH1 0x7 ADD PUSH1 0x0 PUSH2 0x100 EXP DUP2 SLOAD DUP2 PUSH1 0xFF MUL NOT AND SWAP1 DUP4 ISZERO ISZERO MUL OR SWAP1 SSTORE POP POP POP POP JUMP JUMPDEST PUSH2 0x787 PUSH2 0x927 JUMP JUMPDEST ADDRESS PUSH20 0xFFFFFFFFFFFFFFFFFFFFFFFFFFFFFFFFFFFFFFFF AND SELFDESTRUCT JUMPDEST PUSH1 0x0 DUP1 PUSH1 0x0 SWAP1 SLOAD SWAP1 PUSH2 0x100 EXP SWAP1 DIV PUSH20 0xFFFFFFFFFFFFFFFFFFFFFFFFFFFFFFFFFFFFFFFF AND SWAP1 POP SWAP1 JUMP JUMPDEST PUSH1 0x2 PUSH1 0x0 PUSH2 0x7D5 PUSH2 0x91F JUMP JUMPDEST PUSH20 0xFFFFFFFFFFFFFFFFFFFFFFFFFFFFFFFFFFFFFFFF AND PUSH20 0xFFFFFFFFFFFFFFFFFFFFFFFFFFFFFFFFFFFFFFFF AND DUP2 MSTORE PUSH1 0x20 ADD SWAP1 DUP2 MSTORE PUSH1 0x20 ADD PUSH1 0x0 KECCAK256 PUSH1 0x0 SWAP1 SLOAD SWAP1 PUSH2 0x100 EXP SWAP1 DIV PUSH1 0xFF AND PUSH2 0x85C JUMPI PUSH1 0x40 MLOAD PUSH32 0x8C379A000000000000000000000000000000000000000000000000000000000 DUP2 MSTORE PUSH1 0x4 ADD PUSH2 0x853 SWAP1 PUSH2 0x1171 JUMP JUMPDEST PUSH1 0x40 MLOAD DUP1 SWAP2 SUB SWAP1 REVERT JUMPDEST PUSH1 0x1 DUP1 DUP3 DUP2 SLOAD DUP2 LT PUSH2 0x871 JUMPI PUSH2 0x870 PUSH2 0x1501 JUMP JUMPDEST JUMPDEST SWAP1 PUSH1 0x0 MSTORE PUSH1 0x20 PUSH1 0x0 KECCAK256 SWAP1 PUSH1 0x8 MUL ADD PUSH1 0x7 ADD PUSH1 0x0 PUSH2 0x100 EXP DUP2 SLOAD DUP2 PUSH1 0xFF MUL NOT AND SWAP1 DUP4 ISZERO ISZERO MUL OR SWAP1 SSTORE POP POP JUMP JUMPDEST PUSH2 0x8A4 PUSH2 0x927 JUMP JUMPDEST PUSH1 0x0 PUSH20 0xFFFFFFFFFFFFFFFFFFFFFFFFFFFFFFFFFFFFFFFF AND DUP2 PUSH20 0xFFFFFFFFFFFFFFFFFFFFFFFFFFFFFFFFFFFFFFFF AND SUB PUSH2 0x913 JUMPI PUSH1 0x40 MLOAD PUSH32 0x8C379A000000000000000000000000000000000000000000000000000000000 DUP2 MSTORE PUSH1 0x4 ADD PUSH2 0x90A SWAP1 PUSH2 0x15A2 JUMP JUMPDEST PUSH1 0x40 MLOAD DUP1 SWAP2 SUB SWAP1 REVERT JUMPDEST PUSH2 0x91C DUP2 PUSH2 0x99E JUMP JUMPDEST POP JUMP JUMPDEST PUSH1 0x0 CALLER SWAP1 POP SWAP1 JUMP JUMPDEST CALLER PUSH20 0xFFFFFFFFFFFFFFFFFFFFFFFFFFFFFFFFFFFFFFFF AND PUSH2 0x946 PUSH2 0x7A0 JUMP JUMPDEST PUSH20 0xFFFFFFFFFFFFFFFFFFFFFFFFFFFFFFFFFFFFFFFF AND EQ PUSH2 0x99C JUMPI PUSH1 0x40 MLOAD PUSH32 0x8C379A000000000000000000000000000000000000000000000000000000000 DUP2 MSTORE PUSH1 0x4 ADD PUSH2 0x993 SWAP1 PUSH2 0x160E JUMP JUMPDEST PUSH1 0x40 MLOAD DUP1 SWAP2 SUB SWAP1 REVERT JUMPDEST JUMP JUMPDEST PUSH1 0x0 DUP1 PUSH1 0x0 SWAP1 SLOAD SWAP1 PUSH2 0x100 EXP SWAP1 DIV PUSH20 0xFFFFFFFFFFFFFFFFFFFFFFFFFFFFFFFFFFFFFFFF AND SWAP1 POP DUP2 PUSH1 0x0 DUP1 PUSH2 0x100 EXP DUP2 SLOAD DUP2 PUSH20 0xFFFFFFFFFFFFFFFFFFFFFFFFFFFFFFFFFFFFFFFF MUL NOT AND SWAP1 DUP4 PUSH20 0xFFFFFFFFFFFFFFFFFFFFFFFFFFFFFFFFFFFFFFFF AND MUL OR SWAP1 SSTORE POP DUP2 PUSH20 0xFFFFFFFFFFFFFFFFFFFFFFFFFFFFFFFFFFFFFFFF AND DUP2 PUSH20 0xFFFFFFFFFFFFFFFFFFFFFFFFFFFFFFFFFFFFFFFF AND PUSH32 0x8BE0079C531659141344CD1FD0A4F28419497F9722A3DAAFE3B4186F6B6457E0 PUSH1 0x40 MLOAD PUSH1 0x40 MLOAD DUP1 SWAP2 SUB SWAP1 LOG3 POP POP JUMP JUMPDEST PUSH1 0x0 DUP2 MLOAD SWAP1 POP SWAP2 SWAP1 POP JUMP JUMPDEST PUSH1 0x0 DUP3 DUP3 MSTORE PUSH1 0x20 DUP3 ADD SWAP1 POP SWAP3 SWAP2 POP POP JUMP JUMPDEST PUSH1 0x0 DUP2 SWAP1 POP PUSH1 0x20 DUP3 ADD SWAP1 POP SWAP2 SWAP1 POP JUMP JUMPDEST PUSH1 0x0 DUP2 SWAP1 POP SWAP2 SWAP1 POP JUMP JUMPDEST PUSH2 0xAA1 DUP2 PUSH2 0xA8E JUMP JUMPDEST DUP3 MSTORE POP POP JUMP JUMPDEST PUSH1 0x0 DUP2 MLOAD SWAP1 POP SWAP2 SWAP1 POP JUMP JUMPDEST PUSH1 0x0 DUP3 DUP3 MSTORE PUSH1 0x20 DUP3 ADD SWAP1 POP SWAP3 SWAP2 POP POP JUMP JUMPDEST PUSH1 0x0 JUMPDEST DUP4 DUP2 LT ISZERO PUSH2 0xAE1 JUMPI DUP1 DUP3 ADD MLOAD DUP2 DUP5 ADD MSTORE PUSH1 0x20 DUP2 ADD SWAP1 POP PUSH2 0xAC6 JUMP JUMPDEST PUSH1 0x0 DUP5 DUP5 ADD MSTORE POP POP POP POP JUMP JUMPDEST PUSH1 0x0 PUSH1 0x1F NOT PUSH1 0x1F DUP4 ADD AND SWAP1 POP SWAP2 SWAP1 POP JUMP JUMPDEST PUSH1 0x0 PUSH2 0xB09 DUP3 PUSH2 0xAA7 JUMP JUMPDEST PUSH2 0xB13 DUP2 DUP6 PUSH2 0xAB2 JUMP JUMPDEST SWAP4 POP PUSH2 0xB23 DUP2 DUP6 PUSH1 0x20 DUP7 ADD PUSH2 0xAC3 JUMP JUMPDEST PUSH2 0xB2C DUP2 PUSH2 0xAED JUMP JUMPDEST DUP5 ADD SWAP2 POP POP SWAP3 SWAP2 POP POP JUMP JUMPDEST PUSH1 0x0 PUSH20 0xFFFFFFFFFFFFFFFFFFFFFFFFFFFFFFFFFFFFFFFF DUP3 AND SWAP1 POP SWAP2 SWAP1 POP JUMP JUMPDEST PUSH1 0x0 PUSH2 0xB62 DUP3 PUSH2 0xB37 JUMP JUMPDEST SWAP1 POP SWAP2 SWAP1 POP JUMP JUMPDEST PUSH2 0xB72 DUP2 PUSH2 0xB57 JUMP JUMPDEST DUP3 MSTORE POP POP JUMP JUMPDEST PUSH1 0x0 DUP2 ISZERO ISZERO SWAP1 POP SWAP2 SWAP1 POP JUMP JUMPDEST PUSH2 0xB8D DUP2 PUSH2 0xB78 JUMP JUMPDEST DUP3 MSTORE POP POP JUMP JUMPDEST PUSH1 0x0 PUSH2 0x100 DUP4 ADD PUSH1 0x0 DUP4 ADD MLOAD PUSH2 0xBAC PUSH1 0x0 DUP7 ADD DUP3 PUSH2 0xA98 JUMP JUMPDEST POP PUSH1 0x20 DUP4 ADD MLOAD DUP5 DUP3 SUB PUSH1 0x20 DUP7 ADD MSTORE PUSH2 0xBC4 DUP3 DUP3 PUSH2 0xAFE JUMP JUMPDEST SWAP2 POP POP PUSH1 0x40 DUP4 ADD MLOAD PUSH2 0xBD9 PUSH1 0x40 DUP7 ADD DUP3 PUSH2 0xB69 JUMP JUMPDEST POP PUSH1 0x60 DUP4 ADD MLOAD DUP5 DUP3 SUB PUSH1 0x60 DUP7 ADD MSTORE PUSH2 0xBF1 DUP3 DUP3 PUSH2 0xAFE JUMP JUMPDEST SWAP2 POP POP PUSH1 0x80 DUP4 ADD MLOAD DUP5 DUP3 SUB PUSH1 0x80 DUP7 ADD MSTORE PUSH2 0xC0B DUP3 DUP3 PUSH2 0xAFE JUMP JUMPDEST SWAP2 POP POP PUSH1 0xA0 DUP4 ADD MLOAD DUP5 DUP3 SUB PUSH1 0xA0 DUP7 ADD MSTORE PUSH2 0xC25 DUP3 DUP3 PUSH2 0xAFE JUMP JUMPDEST SWAP2 POP POP PUSH1 0xC0 DUP4 ADD MLOAD PUSH2 0xC3A PUSH1 0xC0 DUP7 ADD DUP3 PUSH2 0xA98 JUMP JUMPDEST POP PUSH1 0xE0 DUP4 ADD MLOAD PUSH2 0xC4D PUSH1 0xE0 DUP7 ADD DUP3 PUSH2 0xB84 JUMP JUMPDEST POP DUP1 SWAP2 POP POP SWAP3 SWAP2 POP POP JUMP JUMPDEST PUSH1 0x0 PUSH2 0xC64 DUP4 DUP4 PUSH2 0xB93 JUMP JUMPDEST SWAP1 POP SWAP3 SWAP2 POP POP JUMP JUMPDEST PUSH1 0x0 PUSH1 0x20 DUP3 ADD SWAP1 POP SWAP2 SWAP1 POP JUMP JUMPDEST PUSH1 0x0 PUSH2 0xC84 DUP3 PUSH2 0xA62 JUMP JUMPDEST PUSH2 0xC8E DUP2 DUP6 PUSH2 0xA6D JUMP JUMPDEST SWAP4 POP DUP4 PUSH1 0x20 DUP3 MUL DUP6 ADD PUSH2 0xCA0 DUP6 PUSH2 0xA7E JUMP JUMPDEST DUP1 PUSH1 0x0 JUMPDEST DUP6 DUP2 LT ISZERO PUSH2 0xCDC JUMPI DUP5 DUP5 SUB DUP10 MSTORE DUP2 MLOAD PUSH2 0xCBD DUP6 DUP3 PUSH2 0xC58 JUMP JUMPDEST SWAP5 POP PUSH2 0xCC8 DUP4 PUSH2 0xC6C JUMP JUMPDEST SWAP3 POP PUSH1 0x20 DUP11 ADD SWAP10 POP POP PUSH1 0x1 DUP2 ADD SWAP1 POP PUSH2 0xCA4 JUMP JUMPDEST POP DUP3 SWAP8 POP DUP8 SWAP6 POP POP POP POP POP POP SWAP3 SWAP2 POP POP JUMP JUMPDEST PUSH1 0x0 PUSH1 0x20 DUP3 ADD SWAP1 POP DUP2 DUP2 SUB PUSH1 0x0 DUP4 ADD MSTORE PUSH2 0xD08 DUP2 DUP5 PUSH2 0xC79 JUMP JUMPDEST SWAP1 POP SWAP3 SWAP2 POP POP JUMP JUMPDEST PUSH1 0x0 PUSH1 0x40 MLOAD SWAP1 POP SWAP1 JUMP JUMPDEST PUSH1 0x0 DUP1 REVERT JUMPDEST PUSH1 0x0 DUP1 REVERT JUMPDEST PUSH2 0xD2D DUP2 PUSH2 0xB57 JUMP JUMPDEST DUP2 EQ PUSH2 0xD38 JUMPI PUSH1 0x0 DUP1 REVERT JUMPDEST POP JUMP JUMPDEST PUSH1 0x0 DUP2 CALLDATALOAD SWAP1 POP PUSH2 0xD4A DUP2 PUSH2 0xD24 JUMP JUMPDEST SWAP3 SWAP2 POP POP JUMP JUMPDEST PUSH1 0x0 PUSH1 0x20 DUP3 DUP5 SUB SLT ISZERO PUSH2 0xD66 JUMPI PUSH2 0xD65 PUSH2 0xD1A JUMP JUMPDEST JUMPDEST PUSH1 0x0 PUSH2 0xD74 DUP5 DUP3 DUP6 ADD PUSH2 0xD3B JUMP JUMPDEST SWAP2 POP POP SWAP3 SWAP2 POP POP JUMP JUMPDEST PUSH1 0x0 DUP1 REVERT JUMPDEST PUSH32 0x4E487B7100000000000000000000000000000000000000000000000000000000 PUSH1 0x0 MSTORE PUSH1 0x41 PUSH1 0x4 MSTORE PUSH1 0x24 PUSH1 0x0 REVERT JUMPDEST PUSH2 0xDBA DUP3 PUSH2 0xAED JUMP JUMPDEST DUP2 ADD DUP2 DUP2 LT PUSH8 0xFFFFFFFFFFFFFFFF DUP3 GT OR ISZERO PUSH2 0xDD9 JUMPI PUSH2 0xDD8 PUSH2 0xD82 JUMP JUMPDEST JUMPDEST DUP1 PUSH1 0x40 MSTORE POP POP POP JUMP JUMPDEST PUSH1 0x0 PUSH2 0xDEC PUSH2 0xD10 JUMP JUMPDEST SWAP1 POP PUSH2 0xDF8 DUP3 DUP3 PUSH2 0xDB1 JUMP JUMPDEST SWAP2 SWAP1 POP JUMP JUMPDEST PUSH1 0x0 DUP1 REVERT JUMPDEST PUSH2 0xE0B DUP2 PUSH2 0xA8E JUMP JUMPDEST DUP2 EQ PUSH2 0xE16 JUMPI PUSH1 0x0 DUP1 REVERT JUMPDEST POP JUMP JUMPDEST PUSH1 0x0 DUP2 CALLDATALOAD SWAP1 POP PUSH2 0xE28 DUP2 PUSH2 0xE02 JUMP JUMPDEST SWAP3 SWAP2 POP POP JUMP JUMPDEST PUSH1 0x0 DUP1 REVERT JUMPDEST PUSH1 0x0 DUP1 REVERT JUMPDEST PUSH1 0x0 PUSH8 0xFFFFFFFFFFFFFFFF DUP3 GT ISZERO PUSH2 0xE53 JUMPI PUSH2 0xE52 PUSH2 0xD82 JUMP JUMPDEST JUMPDEST PUSH2 0xE5C DUP3 PUSH2 0xAED JUMP JUMPDEST SWAP1 POP PUSH1 0x20 DUP2 ADD SWAP1 POP SWAP2 SWAP1 POP JUMP JUMPDEST DUP3 DUP2 DUP4 CALLDATACOPY PUSH1 0x0 DUP4 DUP4 ADD MSTORE POP POP POP JUMP JUMPDEST PUSH1 0x0 PUSH2 0xE8B PUSH2 0xE86 DUP5 PUSH2 0xE38 JUMP JUMPDEST PUSH2 0xDE2 JUMP JUMPDEST SWAP1 POP DUP3 DUP2 MSTORE PUSH1 0x20 DUP2 ADD DUP5 DUP5 DUP5 ADD GT ISZERO PUSH2 0xEA7 JUMPI PUSH2 0xEA6 PUSH2 0xE33 JUMP JUMPDEST JUMPDEST PUSH2 0xEB2 DUP5 DUP3 DUP6 PUSH2 0xE69 JUMP JUMPDEST POP SWAP4 SWAP3 POP POP POP JUMP JUMPDEST PUSH1 0x0 DUP3 PUSH1 0x1F DUP4 ADD SLT PUSH2 0xECF JUMPI PUSH2 0xECE PUSH2 0xE2E JUMP JUMPDEST JUMPDEST DUP2 CALLDATALOAD PUSH2 0xEDF DUP5 DUP3 PUSH1 0x20 DUP7 ADD PUSH2 0xE78 JUMP JUMPDEST SWAP2 POP POP SWAP3 SWAP2 POP POP JUMP JUMPDEST PUSH2 0xEF1 DUP2 PUSH2 0xB78 JUMP JUMPDEST DUP2 EQ PUSH2 0xEFC JUMPI PUSH1 0x0 DUP1 REVERT JUMPDEST POP JUMP JUMPDEST PUSH1 0x0 DUP2 CALLDATALOAD SWAP1 POP PUSH2 0xF0E DUP2 PUSH2 0xEE8 JUMP JUMPDEST SWAP3 SWAP2 POP POP JUMP JUMPDEST PUSH1 0x0 PUSH2 0x100 DUP3 DUP5 SUB SLT ISZERO PUSH2 0xF2B JUMPI PUSH2 0xF2A PUSH2 0xD7D JUMP JUMPDEST JUMPDEST PUSH2 0xF36 PUSH2 0x100 PUSH2 0xDE2 JUMP JUMPDEST SWAP1 POP PUSH1 0x0 PUSH2 0xF46 DUP5 DUP3 DUP6 ADD PUSH2 0xE19 JUMP JUMPDEST PUSH1 0x0 DUP4 ADD MSTORE POP PUSH1 0x20 DUP3 ADD CALLDATALOAD PUSH8 0xFFFFFFFFFFFFFFFF DUP2 GT ISZERO PUSH2 0xF6A JUMPI PUSH2 0xF69 PUSH2 0xDFD JUMP JUMPDEST JUMPDEST PUSH2 0xF76 DUP5 DUP3 DUP6 ADD PUSH2 0xEBA JUMP JUMPDEST PUSH1 0x20 DUP4 ADD MSTORE POP PUSH1 0x40 PUSH2 0xF8A DUP5 DUP3 DUP6 ADD PUSH2 0xD3B JUMP JUMPDEST PUSH1 0x40 DUP4 ADD MSTORE POP PUSH1 0x60 DUP3 ADD CALLDATALOAD PUSH8 0xFFFFFFFFFFFFFFFF DUP2 GT ISZERO PUSH2 0xFAE JUMPI PUSH2 0xFAD PUSH2 0xDFD JUMP JUMPDEST JUMPDEST PUSH2 0xFBA DUP5 DUP3 DUP6 ADD PUSH2 0xEBA JUMP JUMPDEST PUSH1 0x60 DUP4 ADD MSTORE POP PUSH1 0x80 DUP3 ADD CALLDATALOAD PUSH8 0xFFFFFFFFFFFFFFFF DUP2 GT ISZERO PUSH2 0xFDE JUMPI PUSH2 0xFDD PUSH2 0xDFD JUMP JUMPDEST JUMPDEST PUSH2 0xFEA DUP5 DUP3 DUP6 ADD PUSH2 0xEBA JUMP JUMPDEST PUSH1 0x80 DUP4 ADD MSTORE POP PUSH1 0xA0 DUP3 ADD CALLDATALOAD PUSH8 0xFFFFFFFFFFFFFFFF DUP2 GT ISZERO PUSH2 0x100E JUMPI PUSH2 0x100D PUSH2 0xDFD JUMP JUMPDEST JUMPDEST PUSH2 0x101A DUP5 DUP3 DUP6 ADD PUSH2 0xEBA JUMP JUMPDEST PUSH1 0xA0 DUP4 ADD MSTORE POP PUSH1 0xC0 PUSH2 0x102E DUP5 DUP3 DUP6 ADD PUSH2 0xE19 JUMP JUMPDEST PUSH1 0xC0 DUP4 ADD MSTORE POP PUSH1 0xE0 PUSH2 0x1042 DUP5 DUP3 DUP6 ADD PUSH2 0xEFF JUMP JUMPDEST PUSH1 0xE0 DUP4 ADD MSTORE POP SWAP3 SWAP2 POP POP JUMP JUMPDEST PUSH1 0x0 PUSH1 0x20 DUP3 DUP5 SUB SLT ISZERO PUSH2 0x1064 JUMPI PUSH2 0x1063 PUSH2 0xD1A JUMP JUMPDEST JUMPDEST PUSH1 0x0 DUP3 ADD CALLDATALOAD PUSH8 0xFFFFFFFFFFFFFFFF DUP2 GT ISZERO PUSH2 0x1082 JUMPI PUSH2 0x1081 PUSH2 0xD1F JUMP JUMPDEST JUMPDEST PUSH2 0x108E DUP5 DUP3 DUP6 ADD PUSH2 0xF14 JUMP JUMPDEST SWAP2 POP POP SWAP3 SWAP2 POP POP JUMP JUMPDEST PUSH2 0x10A0 DUP2 PUSH2 0xB57 JUMP JUMPDEST DUP3 MSTORE POP POP JUMP JUMPDEST PUSH1 0x0 PUSH1 0x20 DUP3 ADD SWAP1 POP PUSH2 0x10BB PUSH1 0x0 DUP4 ADD DUP5 PUSH2 0x1097 JUMP JUMPDEST SWAP3 SWAP2 POP POP JUMP JUMPDEST PUSH1 0x0 PUSH1 0x20 DUP3 DUP5 SUB SLT ISZERO PUSH2 0x10D7 JUMPI PUSH2 0x10D6 PUSH2 0xD1A JUMP JUMPDEST JUMPDEST PUSH1 0x0 PUSH2 0x10E5 DUP5 DUP3 DUP6 ADD PUSH2 0xE19 JUMP JUMPDEST SWAP2 POP POP SWAP3 SWAP2 POP POP JUMP JUMPDEST PUSH1 0x0 DUP3 DUP3 MSTORE PUSH1 0x20 DUP3 ADD SWAP1 POP SWAP3 SWAP2 POP POP JUMP JUMPDEST PUSH32 0x526F75676844617461626173653A206F6E6C7920636F6E747261637420776869 PUSH1 0x0 DUP3 ADD MSTORE PUSH32 0x63682061726520616C6C6F776564000000000000000000000000000000000000 PUSH1 0x20 DUP3 ADD MSTORE POP JUMP JUMPDEST PUSH1 0x0 PUSH2 0x115B PUSH1 0x2E DUP4 PUSH2 0x10EE JUMP JUMPDEST SWAP2 POP PUSH2 0x1166 DUP3 PUSH2 0x10FF JUMP JUMPDEST PUSH1 0x40 DUP3 ADD SWAP1 POP SWAP2 SWAP1 POP JUMP JUMPDEST PUSH1 0x0 PUSH1 0x20 DUP3 ADD SWAP1 POP DUP2 DUP2 SUB PUSH1 0x0 DUP4 ADD MSTORE PUSH2 0x118A DUP2 PUSH2 0x114E JUMP JUMPDEST SWAP1 POP SWAP2 SWAP1 POP JUMP JUMPDEST PUSH32 0x4E487B7100000000000000000000000000000000000000000000000000000000 PUSH1 0x0 MSTORE PUSH1 0x22 PUSH1 0x4 MSTORE PUSH1 0x24 PUSH1 0x0 REVERT JUMPDEST PUSH1 0x0 PUSH1 0x2 DUP3 DIV SWAP1 POP PUSH1 0x1 DUP3 AND DUP1 PUSH2 0x11D8 JUMPI PUSH1 0x7F DUP3 AND SWAP2 POP JUMPDEST PUSH1 0x20 DUP3 LT DUP2 SUB PUSH2 0x11EB JUMPI PUSH2 0x11EA PUSH2 0x1191 JUMP JUMPDEST JUMPDEST POP SWAP2 SWAP1 POP JUMP JUMPDEST PUSH32 0x526F75676844617461626173653A207065726D697373696F6E20686173206265 PUSH1 0x0 DUP3 ADD MSTORE PUSH32 0x656E206772616E74656400000000000000000000000000000000000000000000 PUSH1 0x20 DUP3 ADD MSTORE POP JUMP JUMPDEST PUSH1 0x0 PUSH2 0x124D PUSH1 0x2A DUP4 PUSH2 0x10EE JUMP JUMPDEST SWAP2 POP PUSH2 0x1258 DUP3 PUSH2 0x11F1 JUMP JUMPDEST PUSH1 0x40 DUP3 ADD SWAP1 POP SWAP2 SWAP1 POP JUMP JUMPDEST PUSH1 0x0 PUSH1 0x20 DUP3 ADD SWAP1 POP DUP2 DUP2 SUB PUSH1 0x0 DUP4 ADD MSTORE PUSH2 0x127C DUP2 PUSH2 0x1240 JUMP JUMPDEST SWAP1 POP SWAP2 SWAP1 POP JUMP JUMPDEST PUSH1 0x0 DUP2 SWAP1 POP DUP2 PUSH1 0x0 MSTORE PUSH1 0x20 PUSH1 0x0 KECCAK256 SWAP1 POP SWAP2 SWAP1 POP JUMP JUMPDEST PUSH1 0x0 PUSH1 0x20 PUSH1 0x1F DUP4 ADD DIV SWAP1 POP SWAP2 SWAP1 POP JUMP JUMPDEST PUSH1 0x0 DUP3 DUP3 SHL SWAP1 POP SWAP3 SWAP2 POP POP JUMP JUMPDEST PUSH1 0x0 PUSH1 0x8 DUP4 MUL PUSH2 0x12E5 PUSH32 0xFFFFFFFFFFFFFFFFFFFFFFFFFFFFFFFFFFFFFFFFFFFFFFFFFFFFFFFFFFFFFFFF DUP3 PUSH2 0x12A8 JUMP JUMPDEST PUSH2 0x12EF DUP7 DUP4 PUSH2 0x12A8 JUMP JUMPDEST SWAP6 POP DUP1 NOT DUP5 AND SWAP4 POP DUP1 DUP7 AND DUP5 OR SWAP3 POP POP POP SWAP4 SWAP3 POP POP POP JUMP JUMPDEST PUSH1 0x0 DUP2 SWAP1 POP SWAP2 SWAP1 POP JUMP JUMPDEST PUSH1 0x0 PUSH2 0x132C PUSH2 0x1327 PUSH2 0x1322 DUP5 PUSH2 0xA8E JUMP JUMPDEST PUSH2 0x1307 JUMP JUMPDEST PUSH2 0xA8E JUMP JUMPDEST SWAP1 POP SWAP2 SWAP1 POP JUMP JUMPDEST PUSH1 0x0 DUP2 SWAP1 POP SWAP2 SWAP1 POP JUMP JUMPDEST PUSH2 0x1346 DUP4 PUSH2 0x1311 JUMP JUMPDEST PUSH2 0x135A PUSH2 0x1352 DUP3 PUSH2 0x1333 JUMP JUMPDEST DUP5 DUP5 SLOAD PUSH2 0x12B5 JUMP JUMPDEST DUP3 SSTORE POP POP POP POP JUMP JUMPDEST PUSH1 0x0 SWAP1 JUMP JUMPDEST PUSH2 0x136F PUSH2 0x1362 JUMP JUMPDEST PUSH2 0x137A DUP2 DUP5 DUP5 PUSH2 0x133D JUMP JUMPDEST POP POP POP JUMP JUMPDEST JUMPDEST DUP2 DUP2 LT ISZERO PUSH2 0x139E JUMPI PUSH2 0x1393 PUSH1 0x0 DUP3 PUSH2 0x1367 JUMP JUMPDEST PUSH1 0x1 DUP2 ADD SWAP1 POP PUSH2 0x1380 JUMP JUMPDEST POP POP JUMP JUMPDEST PUSH1 0x1F DUP3 GT ISZERO PUSH2 0x13E3 JUMPI PUSH2 0x13B4 DUP2 PUSH2 0x1283 JUMP JUMPDEST PUSH2 0x13BD DUP5 PUSH2 0x1298 JUMP JUMPDEST DUP2 ADD PUSH1 0x20 DUP6 LT ISZERO PUSH2 0x13CC JUMPI DUP2 SWAP1 POP JUMPDEST PUSH2 0x13E0 PUSH2 0x13D8 DUP6 PUSH2 0x1298 JUMP JUMPDEST DUP4 ADD DUP3 PUSH2 0x137F JUMP JUMPDEST POP POP JUMPDEST POP POP POP JUMP JUMPDEST PUSH1 0x0 DUP3 DUP3 SHR SWAP1 POP SWAP3 SWAP2 POP POP JUMP JUMPDEST PUSH1 0x0 PUSH2 0x1406 PUSH1 0x0 NOT DUP5 PUSH1 0x8 MUL PUSH2 0x13E8 JUMP JUMPDEST NOT DUP1 DUP4 AND SWAP2 POP POP SWAP3 SWAP2 POP POP JUMP JUMPDEST PUSH1 0x0 PUSH2 0x141F DUP4 DUP4 PUSH2 0x13F5 JUMP JUMPDEST SWAP2 POP DUP3 PUSH1 0x2 MUL DUP3 OR SWAP1 POP SWAP3 SWAP2 POP POP JUMP JUMPDEST PUSH2 0x1438 DUP3 PUSH2 0xAA7 JUMP JUMPDEST PUSH8 0xFFFFFFFFFFFFFFFF DUP2 GT ISZERO PUSH2 0x1451 JUMPI PUSH2 0x1450 PUSH2 0xD82 JUMP JUMPDEST JUMPDEST PUSH2 0x145B DUP3 SLOAD PUSH2 0x11C0 JUMP JUMPDEST PUSH2 0x1466 DUP3 DUP3 DUP6 PUSH2 0x13A2 JUMP JUMPDEST PUSH1 0x0 PUSH1 0x20 SWAP1 POP PUSH1 0x1F DUP4 GT PUSH1 0x1 DUP2 EQ PUSH2 0x1499 JUMPI PUSH1 0x0 DUP5 ISZERO PUSH2 0x1487 JUMPI DUP3 DUP8 ADD MLOAD SWAP1 POP JUMPDEST PUSH2 0x1491 DUP6 DUP3 PUSH2 0x1413 JUMP JUMPDEST DUP7 SSTORE POP PUSH2 0x14F9 JUMP JUMPDEST PUSH1 0x1F NOT DUP5 AND PUSH2 0x14A7 DUP7 PUSH2 0x1283 JUMP JUMPDEST PUSH1 0x0 JUMPDEST DUP3 DUP2 LT ISZERO PUSH2 0x14CF JUMPI DUP5 DUP10 ADD MLOAD DUP3 SSTORE PUSH1 0x1 DUP3 ADD SWAP2 POP PUSH1 0x20 DUP6 ADD SWAP5 POP PUSH1 0x20 DUP2 ADD SWAP1 POP PUSH2 0x14AA JUMP JUMPDEST DUP7 DUP4 LT ISZERO PUSH2 0x14EC JUMPI DUP5 DUP10 ADD MLOAD PUSH2 0x14E8 PUSH1 0x1F DUP10 AND DUP3 PUSH2 0x13F5 JUMP JUMPDEST DUP4 SSTORE POP JUMPDEST PUSH1 0x1 PUSH1 0x2 DUP9 MUL ADD DUP9 SSTORE POP POP POP JUMPDEST POP POP POP POP POP POP JUMP JUMPDEST PUSH32 0x4E487B7100000000000000000000000000000000000000000000000000000000 PUSH1 0x0 MSTORE PUSH1 0x32 PUSH1 0x4 MSTORE PUSH1 0x24 PUSH1 0x0 REVERT JUMPDEST PUSH32 0x4F776E61626C653A206E6577206F776E657220697320746865207A65726F2061 PUSH1 0x0 DUP3 ADD MSTORE PUSH32 0x6464726573730000000000000000000000000000000000000000000000000000 PUSH1 0x20 DUP3 ADD MSTORE POP JUMP JUMPDEST PUSH1 0x0 PUSH2 0x158C PUSH1 0x26 DUP4 PUSH2 0x10EE JUMP JUMPDEST SWAP2 POP PUSH2 0x1597 DUP3 PUSH2 0x1530 JUMP JUMPDEST PUSH1 0x40 DUP3 ADD SWAP1 POP SWAP2 SWAP1 POP JUMP JUMPDEST PUSH1 0x0 PUSH1 0x20 DUP3 ADD SWAP1 POP DUP2 DUP2 SUB PUSH1 0x0 DUP4 ADD MSTORE PUSH2 0x15BB DUP2 PUSH2 0x157F JUMP JUMPDEST SWAP1 POP SWAP2 SWAP1 POP JUMP JUMPDEST PUSH32 0x4F776E61626C653A2063616C6C6572206973206E6F7420746865206F776E6572 PUSH1 0x0 DUP3 ADD MSTORE POP JUMP JUMPDEST PUSH1 0x0 PUSH2 0x15F8 PUSH1 0x20 DUP4 PUSH2 0x10EE JUMP JUMPDEST SWAP2 POP PUSH2 0x1603 DUP3 PUSH2 0x15C2 JUMP JUMPDEST PUSH1 0x20 DUP3 ADD SWAP1 POP SWAP2 SWAP1 POP JUMP JUMPDEST PUSH1 0x0 PUSH1 0x20 DUP3 ADD SWAP1 POP DUP2 DUP2 SUB PUSH1 0x0 DUP4 ADD MSTORE PUSH2 0x1627 DUP2 PUSH2 0x15EB JUMP JUMPDEST SWAP1 POP SWAP2 SWAP1 POP JUMP INVALID LOG2 PUSH5 0x6970667358 0x22 SLT KECCAK256 PUSH18 0x2F0D84466648216894CC829A0D82CE8E2DEC 0x5F DUP12 PUSH22 0xDF31AF1FEA9A9E6F0F9264736F6C6343000812003300 "
				},
				"gasEstimates": {
					"creation": {
						"codeDepositCost": "1146400",
						"executionCost": "25460",
						"totalCost": "1171860"
					},
					"external": {
						"addChecked(uint256)": "29191",
						"addPermission(address)": "29310",
						"addRough((uint256,string,address,string,string,string,uint256,bool))": "infinite",
						"destroy()": "29972",
						"getAllRough()": "infinite",
						"owner()": "2544",
						"transferOwnership(address)": "30775"
					}
				},
				"methodIdentifiers": {
					"addChecked(uint256)": "ee416d5b",
					"addPermission(address)": "4d0a5dbd",
					"addRough((uint256,string,address,string,string,string,uint256,bool))": "64b30098",
					"destroy()": "83197ef0",
					"getAllRough()": "1f9c0c6f",
					"owner()": "8da5cb5b",
					"transferOwnership(address)": "f2fde38b"
				}
			},
			"storageLayout": {
				"storage": [
					{
						"astId": 30,
						"contract": "database/processing/RoughDatabase.sol:RoughDatabase",
						"label": "_owner",
						"offset": 0,
						"slot": "0",
						"type": "t_address"
					},
					{
						"astId": 149,
						"contract": "database/processing/RoughDatabase.sol:RoughDatabase",
						"label": "list",
						"offset": 0,
						"slot": "1",
						"type": "t_array(t_struct(Rough)255_storage)dyn_storage"
					},
					{
						"astId": 153,
						"contract": "database/processing/RoughDatabase.sol:RoughDatabase",
						"label": "permissions",
						"offset": 0,
						"slot": "2",
						"type": "t_mapping(t_address,t_bool)"
					}
				],
				"types": {
					"t_address": {
						"encoding": "inplace",
						"label": "address",
						"numberOfBytes": "20"
					},
					"t_array(t_struct(Rough)255_storage)dyn_storage": {
						"base": "t_struct(Rough)255_storage",
						"encoding": "dynamic_array",
						"label": "struct Rough[]",
						"numberOfBytes": "32"
					},
					"t_bool": {
						"encoding": "inplace",
						"label": "bool",
						"numberOfBytes": "1"
					},
					"t_mapping(t_address,t_bool)": {
						"encoding": "mapping",
						"key": "t_address",
						"label": "mapping(address => bool)",
						"numberOfBytes": "32",
						"value": "t_bool"
					},
					"t_string_storage": {
						"encoding": "bytes",
						"label": "string",
						"numberOfBytes": "32"
					},
					"t_struct(Rough)255_storage": {
						"encoding": "inplace",
						"label": "struct Rough",
						"members": [
							{
								"astId": 240,
								"contract": "database/processing/RoughDatabase.sol:RoughDatabase",
								"label": "batchId",
								"offset": 0,
								"slot": "0",
								"type": "t_uint256"
							},
							{
								"astId": 242,
								"contract": "database/processing/RoughDatabase.sol:RoughDatabase",
								"label": "userName",
								"offset": 0,
								"slot": "1",
								"type": "t_string_storage"
							},
							{
								"astId": 244,
								"contract": "database/processing/RoughDatabase.sol:RoughDatabase",
								"label": "userAddress",
								"offset": 0,
								"slot": "2",
								"type": "t_address"
							},
							{
								"astId": 246,
								"contract": "database/processing/RoughDatabase.sol:RoughDatabase",
								"label": "roughDate",
								"offset": 0,
								"slot": "3",
								"type": "t_string_storage"
							},
							{
								"astId": 248,
								"contract": "database/processing/RoughDatabase.sol:RoughDatabase",
								"label": "warehouseAdress",
								"offset": 0,
								"slot": "4",
								"type": "t_string_storage"
							},
							{
								"astId": 250,
								"contract": "database/processing/RoughDatabase.sol:RoughDatabase",
								"label": "processPhoto",
								"offset": 0,
								"slot": "5",
								"type": "t_string_storage"
							},
							{
								"astId": 252,
								"contract": "database/processing/RoughDatabase.sol:RoughDatabase",
								"label": "keyValue",
								"offset": 0,
								"slot": "6",
								"type": "t_uint256"
							},
							{
								"astId": 254,
								"contract": "database/processing/RoughDatabase.sol:RoughDatabase",
								"label": "roughIsChecked",
								"offset": 0,
								"slot": "7",
								"type": "t_bool"
							}
						],
						"numberOfBytes": "256"
					},
					"t_uint256": {
						"encoding": "inplace",
						"label": "uint256",
						"numberOfBytes": "32"
					}
				}
			},
			"userdoc": {
				"kind": "user",
				"methods": {},
				"version": 1
			}
		}
	}
}