{
	"database/user/OwnerDatabase.sol": {
		"OwnerDatabase": {
			"abi": [
				{
					"inputs": [],
					"stateMutability": "nonpayable",
					"type": "constructor"
				},
				{
					"anonymous": false,
					"inputs": [
						{
							"indexed": true,
							"internalType": "address",
							"name": "previousOwner",
							"type": "address"
						},
						{
							"indexed": true,
							"internalType": "address",
							"name": "newOwner",
							"type": "address"
						}
					],
					"name": "OwnershipTransferred",
					"type": "event"
				},
				{
					"inputs": [
						{
							"internalType": "uint256",
							"name": "productOwnerId",
							"type": "uint256"
						},
						{
							"internalType": "uint256",
							"name": "customerId",
							"type": "uint256"
						}
					],
					"name": "addCustomerId",
					"outputs": [],
					"stateMutability": "nonpayable",
					"type": "function"
				},
				{
					"inputs": [
						{
							"internalType": "uint256",
							"name": "productOwnerId",
							"type": "uint256"
						},
						{
							"internalType": "uint256",
							"name": "distributorId",
							"type": "uint256"
						}
					],
					"name": "addDistributorId",
					"outputs": [],
					"stateMutability": "nonpayable",
					"type": "function"
				},
				{
					"inputs": [
						{
							"internalType": "uint256",
							"name": "productOwnerId",
							"type": "uint256"
						},
						{
							"internalType": "uint256",
							"name": "martketId",
							"type": "uint256"
						}
					],
					"name": "addMartketId",
					"outputs": [],
					"stateMutability": "nonpayable",
					"type": "function"
				},
				{
					"inputs": [
						{
							"components": [
								{
									"internalType": "uint256",
									"name": "productOwnerId",
									"type": "uint256"
								},
								{
									"internalType": "uint256",
									"name": "batchId",
									"type": "uint256"
								},
								{
									"internalType": "uint256",
									"name": "productCode",
									"type": "uint256"
								},
								{
									"internalType": "uint256",
									"name": "manufacturerId",
									"type": "uint256"
								},
								{
									"internalType": "uint256[]",
									"name": "distributorIds",
									"type": "uint256[]"
								},
								{
									"internalType": "uint256[]",
									"name": "martketIds",
									"type": "uint256[]"
								},
								{
									"internalType": "uint256[]",
									"name": "staffIds",
									"type": "uint256[]"
								},
								{
									"internalType": "uint256[]",
									"name": "customerIds",
									"type": "uint256[]"
								},
								{
									"internalType": "string",
									"name": "dateTime",
									"type": "string"
								}
							],
							"internalType": "struct Product_Owner",
							"name": "item",
							"type": "tuple"
						}
					],
					"name": "addOwner",
					"outputs": [],
					"stateMutability": "nonpayable",
					"type": "function"
				},
				{
					"inputs": [
						{
							"internalType": "address",
							"name": "contractPermission",
							"type": "address"
						}
					],
					"name": "addPermission",
					"outputs": [],
					"stateMutability": "nonpayable",
					"type": "function"
				},
				{
					"inputs": [
						{
							"internalType": "uint256",
							"name": "productOwnerId",
							"type": "uint256"
						},
						{
							"internalType": "uint256",
							"name": "staffId",
							"type": "uint256"
						}
					],
					"name": "addStaffId",
					"outputs": [],
					"stateMutability": "nonpayable",
					"type": "function"
				},
				{
					"inputs": [],
					"name": "destroy",
					"outputs": [],
					"stateMutability": "nonpayable",
					"type": "function"
				},
				{
					"inputs": [],
					"name": "getAllOwner",
					"outputs": [
						{
							"components": [
								{
									"internalType": "uint256",
									"name": "productOwnerId",
									"type": "uint256"
								},
								{
									"internalType": "uint256",
									"name": "batchId",
									"type": "uint256"
								},
								{
									"internalType": "uint256",
									"name": "productCode",
									"type": "uint256"
								},
								{
									"internalType": "uint256",
									"name": "manufacturerId",
									"type": "uint256"
								},
								{
									"internalType": "uint256[]",
									"name": "distributorIds",
									"type": "uint256[]"
								},
								{
									"internalType": "uint256[]",
									"name": "martketIds",
									"type": "uint256[]"
								},
								{
									"internalType": "uint256[]",
									"name": "staffIds",
									"type": "uint256[]"
								},
								{
									"internalType": "uint256[]",
									"name": "customerIds",
									"type": "uint256[]"
								},
								{
									"internalType": "string",
									"name": "dateTime",
									"type": "string"
								}
							],
							"internalType": "struct Product_Owner[]",
							"name": "",
							"type": "tuple[]"
						}
					],
					"stateMutability": "view",
					"type": "function"
				},
				{
					"inputs": [],
					"name": "owner",
					"outputs": [
						{
							"internalType": "address",
							"name": "",
							"type": "address"
						}
					],
					"stateMutability": "view",
					"type": "function"
				},
				{
					"inputs": [
						{
							"internalType": "address",
							"name": "newOwner",
							"type": "address"
						}
					],
					"name": "transferOwnership",
					"outputs": [],
					"stateMutability": "nonpayable",
					"type": "function"
				}
			],
			"devdoc": {
				"kind": "dev",
				"methods": {
					"owner()": {
						"details": "Returns the address of the current owner."
					},
					"transferOwnership(address)": {
						"details": "Transfers ownership of the contract to a new account (`newOwner`). Can only be called by the current owner."
					}
				},
				"version": 1
			},
			"evm": {
				"assembly": "    /* \"database/user/OwnerDatabase.sol\":184:1882  contract OwnerDatabase is Ownable {... */\n  mstore(0x40, 0x80)\n    /* \"database/user/OwnerDatabase.sol\":292:293  0 */\n  0x00\n    /* \"database/user/OwnerDatabase.sol\":260:293  uint256 private autoIncrement = 0 */\n  0x02\n  sstore\n    /* \"database/user/OwnerDatabase.sol\":542:568  constructor() Ownable() {} */\n  callvalue\n  dup1\n  iszero\n  tag_1\n  jumpi\n  0x00\n  dup1\n  revert\ntag_1:\n  pop\n    /* \"abstract/Ownable.sol\":1032:1042  msg.sender */\n  caller\n    /* \"abstract/Ownable.sol\":1023:1029  _owner */\n  0x00\n  dup1\n    /* \"abstract/Ownable.sol\":1023:1042  _owner = msg.sender */\n  0x0100\n  exp\n  dup2\n  sload\n  dup2\n  0xffffffffffffffffffffffffffffffffffffffff\n  mul\n  not\n  and\n  swap1\n  dup4\n  0xffffffffffffffffffffffffffffffffffffffff\n  and\n  mul\n  or\n  swap1\n  sstore\n  pop\n    /* \"database/user/OwnerDatabase.sol\":184:1882  contract OwnerDatabase is Ownable {... */\n  dataSize(sub_0)\n  dup1\n  dataOffset(sub_0)\n  0x00\n  codecopy\n  0x00\n  return\nstop\n\nsub_0: assembly {\n        /* \"database/user/OwnerDatabase.sol\":184:1882  contract OwnerDatabase is Ownable {... */\n      mstore(0x40, 0x80)\n      callvalue\n      dup1\n      iszero\n      tag_1\n      jumpi\n      0x00\n      dup1\n      revert\n    tag_1:\n      pop\n      jumpi(tag_2, lt(calldatasize, 0x04))\n      shr(0xe0, calldataload(0x00))\n      dup1\n      0xb2452bd3\n      gt\n      tag_13\n      jumpi\n      dup1\n      0xb2452bd3\n      eq\n      tag_8\n      jumpi\n      dup1\n      0xd0ad0a28\n      eq\n      tag_9\n      jumpi\n      dup1\n      0xf0b4e21b\n      eq\n      tag_10\n      jumpi\n      dup1\n      0xf18eeda8\n      eq\n      tag_11\n      jumpi\n      dup1\n      0xf2fde38b\n      eq\n      tag_12\n      jumpi\n      jump(tag_2)\n    tag_13:\n      dup1\n      0x4d0a5dbd\n      eq\n      tag_3\n      jumpi\n      dup1\n      0x552b9dae\n      eq\n      tag_4\n      jumpi\n      dup1\n      0x83197ef0\n      eq\n      tag_5\n      jumpi\n      dup1\n      0x8d05a638\n      eq\n      tag_6\n      jumpi\n      dup1\n      0x8da5cb5b\n      eq\n      tag_7\n      jumpi\n    tag_2:\n      0x00\n      dup1\n      revert\n        /* \"database/user/OwnerDatabase.sol\":576:836  function addPermission(address contractPermission) public onlyOwner {... */\n    tag_3:\n      tag_14\n      0x04\n      dup1\n      calldatasize\n      sub\n      dup2\n      add\n      swap1\n      tag_15\n      swap2\n      swap1\n      tag_16\n      jump\t// in\n    tag_15:\n      tag_17\n      jump\t// in\n    tag_14:\n      stop\n        /* \"database/user/OwnerDatabase.sol\":1028:1207  function addDistributorId(... */\n    tag_4:\n      tag_18\n      0x04\n      dup1\n      calldatasize\n      sub\n      dup2\n      add\n      swap1\n      tag_19\n      swap2\n      swap1\n      tag_20\n      jump\t// in\n    tag_19:\n      tag_21\n      jump\t// in\n    tag_18:\n      stop\n        /* \"abstract/Ownable.sol\":2801:2892  function destroy() public onlyOwner {... */\n    tag_5:\n      tag_22\n      tag_23\n      jump\t// in\n    tag_22:\n      stop\n        /* \"database/user/OwnerDatabase.sol\":1724:1879  function getAllOwner()... */\n    tag_6:\n      tag_24\n      tag_25\n      jump\t// in\n    tag_24:\n      mload(0x40)\n      tag_26\n      swap2\n      swap1\n      tag_27\n      jump\t// in\n    tag_26:\n      mload(0x40)\n      dup1\n      swap2\n      sub\n      swap1\n      return\n        /* \"abstract/Ownable.sol\":1289:1376  function owner() public view virtual returns (address) {... */\n    tag_7:\n      tag_28\n      tag_29\n      jump\t// in\n    tag_28:\n      mload(0x40)\n      tag_30\n      swap2\n      swap1\n      tag_31\n      jump\t// in\n    tag_30:\n      mload(0x40)\n      dup1\n      swap2\n      sub\n      swap1\n      return\n        /* \"database/user/OwnerDatabase.sol\":1215:1378  function addMartketId(... */\n    tag_8:\n      tag_32\n      0x04\n      dup1\n      calldatasize\n      sub\n      dup2\n      add\n      swap1\n      tag_33\n      swap2\n      swap1\n      tag_20\n      jump\t// in\n    tag_33:\n      tag_34\n      jump\t// in\n    tag_32:\n      stop\n        /* \"database/user/OwnerDatabase.sol\":1549:1716  function addCustomerId(... */\n    tag_9:\n      tag_35\n      0x04\n      dup1\n      calldatasize\n      sub\n      dup2\n      add\n      swap1\n      tag_36\n      swap2\n      swap1\n      tag_20\n      jump\t// in\n    tag_36:\n      tag_37\n      jump\t// in\n    tag_35:\n      stop\n        /* \"database/user/OwnerDatabase.sol\":844:1020  function addOwner(Product_Owner memory item) public onlyPermissions {... */\n    tag_10:\n      tag_38\n      0x04\n      dup1\n      calldatasize\n      sub\n      dup2\n      add\n      swap1\n      tag_39\n      swap2\n      swap1\n      tag_40\n      jump\t// in\n    tag_39:\n      tag_41\n      jump\t// in\n    tag_38:\n      stop\n        /* \"database/user/OwnerDatabase.sol\":1386:1541  function addStaffId(... */\n    tag_11:\n      tag_42\n      0x04\n      dup1\n      calldatasize\n      sub\n      dup2\n      add\n      swap1\n      tag_43\n      swap2\n      swap1\n      tag_20\n      jump\t// in\n    tag_43:\n      tag_44\n      jump\t// in\n    tag_42:\n      stop\n        /* \"abstract/Ownable.sol\":2204:2442  function transferOwnership(address newOwner) public virtual onlyOwner {... */\n    tag_12:\n      tag_45\n      0x04\n      dup1\n      calldatasize\n      sub\n      dup2\n      add\n      swap1\n      tag_46\n      swap2\n      swap1\n      tag_16\n      jump\t// in\n    tag_46:\n      tag_47\n      jump\t// in\n    tag_45:\n      stop\n        /* \"database/user/OwnerDatabase.sol\":576:836  function addPermission(address contractPermission) public onlyOwner {... */\n    tag_17:\n        /* \"abstract/Ownable.sol\":1175:1188  _checkOwner() */\n      tag_49\n        /* \"abstract/Ownable.sol\":1175:1186  _checkOwner */\n      tag_50\n        /* \"abstract/Ownable.sol\":1175:1188  _checkOwner() */\n      jump\t// in\n    tag_49:\n        /* \"database/user/OwnerDatabase.sol\":678:689  permissions */\n      0x03\n        /* \"database/user/OwnerDatabase.sol\":678:709  permissions[contractPermission] */\n      0x00\n        /* \"database/user/OwnerDatabase.sol\":690:708  contractPermission */\n      dup3\n        /* \"database/user/OwnerDatabase.sol\":678:709  permissions[contractPermission] */\n      0xffffffffffffffffffffffffffffffffffffffff\n      and\n      0xffffffffffffffffffffffffffffffffffffffff\n      and\n      dup2\n      mstore\n      0x20\n      add\n      swap1\n      dup2\n      mstore\n      0x20\n      add\n      0x00\n      keccak256\n      0x00\n      swap1\n      sload\n      swap1\n      0x0100\n      exp\n      swap1\n      div\n      0xff\n      and\n        /* \"database/user/OwnerDatabase.sol\":677:709  !permissions[contractPermission] */\n      iszero\n        /* \"database/user/OwnerDatabase.sol\":655:779  require(... */\n      tag_52\n      jumpi\n      mload(0x40)\n      0x08c379a000000000000000000000000000000000000000000000000000000000\n      dup2\n      mstore\n      0x04\n      add\n      tag_53\n      swap1\n      tag_54\n      jump\t// in\n    tag_53:\n      mload(0x40)\n      dup1\n      swap2\n      sub\n      swap1\n      revert\n    tag_52:\n        /* \"database/user/OwnerDatabase.sol\":824:828  true */\n      0x01\n        /* \"database/user/OwnerDatabase.sol\":790:801  permissions */\n      0x03\n        /* \"database/user/OwnerDatabase.sol\":790:821  permissions[contractPermission] */\n      0x00\n        /* \"database/user/OwnerDatabase.sol\":802:820  contractPermission */\n      dup4\n        /* \"database/user/OwnerDatabase.sol\":790:821  permissions[contractPermission] */\n      0xffffffffffffffffffffffffffffffffffffffff\n      and\n      0xffffffffffffffffffffffffffffffffffffffff\n      and\n      dup2\n      mstore\n      0x20\n      add\n      swap1\n      dup2\n      mstore\n      0x20\n      add\n      0x00\n      keccak256\n      0x00\n        /* \"database/user/OwnerDatabase.sol\":790:828  permissions[contractPermission] = true */\n      0x0100\n      exp\n      dup2\n      sload\n      dup2\n      0xff\n      mul\n      not\n      and\n      swap1\n      dup4\n      iszero\n      iszero\n      mul\n      or\n      swap1\n      sstore\n      pop\n        /* \"database/user/OwnerDatabase.sol\":576:836  function addPermission(address contractPermission) public onlyOwner {... */\n      pop\n      jump\t// out\n        /* \"database/user/OwnerDatabase.sol\":1028:1207  function addDistributorId(... */\n    tag_21:\n        /* \"database/user/OwnerDatabase.sol\":1144:1148  list */\n      0x01\n        /* \"database/user/OwnerDatabase.sol\":1149:1163  productOwnerId */\n      dup3\n        /* \"database/user/OwnerDatabase.sol\":1144:1164  list[productOwnerId] */\n      dup2\n      sload\n      dup2\n      lt\n      tag_56\n      jumpi\n      tag_57\n      tag_58\n      jump\t// in\n    tag_57:\n    tag_56:\n      swap1\n      0x00\n      mstore\n      keccak256(0x00, 0x20)\n      swap1\n      0x09\n      mul\n      add\n        /* \"database/user/OwnerDatabase.sol\":1144:1179  list[productOwnerId].distributorIds */\n      0x04\n      add\n        /* \"database/user/OwnerDatabase.sol\":1185:1198  distributorId */\n      dup2\n        /* \"database/user/OwnerDatabase.sol\":1144:1199  list[productOwnerId].distributorIds.push(distributorId) */\n      swap1\n      dup1\n      0x01\n      dup2\n      sload\n      add\n      dup1\n      dup3\n      sstore\n      dup1\n      swap2\n      pop\n      pop\n      0x01\n      swap1\n      sub\n      swap1\n      0x00\n      mstore\n      keccak256(0x00, 0x20)\n      add\n      0x00\n      swap1\n      swap2\n      swap1\n      swap2\n      swap1\n      swap2\n      pop\n      sstore\n        /* \"database/user/OwnerDatabase.sol\":1028:1207  function addDistributorId(... */\n      pop\n      pop\n      jump\t// out\n        /* \"abstract/Ownable.sol\":2801:2892  function destroy() public onlyOwner {... */\n    tag_23:\n        /* \"abstract/Ownable.sol\":1175:1188  _checkOwner() */\n      tag_62\n        /* \"abstract/Ownable.sol\":1175:1186  _checkOwner */\n      tag_50\n        /* \"abstract/Ownable.sol\":1175:1188  _checkOwner() */\n      jump\t// in\n    tag_62:\n        /* \"abstract/Ownable.sol\":2877:2881  this */\n      address\n        /* \"abstract/Ownable.sol\":2848:2884  selfdestruct(payable(address(this))) */\n      0xffffffffffffffffffffffffffffffffffffffff\n      and\n      selfdestruct\n        /* \"database/user/OwnerDatabase.sol\":1724:1879  function getAllOwner()... */\n    tag_25:\n        /* \"database/user/OwnerDatabase.sol\":1820:1842  Product_Owner[] memory */\n      0x60\n        /* \"database/user/OwnerDatabase.sol\":415:426  permissions */\n      0x03\n        /* \"database/user/OwnerDatabase.sol\":415:440  permissions[_msgSender()] */\n      0x00\n        /* \"database/user/OwnerDatabase.sol\":427:439  _msgSender() */\n      tag_65\n        /* \"database/user/OwnerDatabase.sol\":427:437  _msgSender */\n      tag_66\n        /* \"database/user/OwnerDatabase.sol\":427:439  _msgSender() */\n      jump\t// in\n    tag_65:\n        /* \"database/user/OwnerDatabase.sol\":415:440  permissions[_msgSender()] */\n      0xffffffffffffffffffffffffffffffffffffffff\n      and\n      0xffffffffffffffffffffffffffffffffffffffff\n      and\n      dup2\n      mstore\n      0x20\n      add\n      swap1\n      dup2\n      mstore\n      0x20\n      add\n      0x00\n      keccak256\n      0x00\n      swap1\n      sload\n      swap1\n      0x0100\n      exp\n      swap1\n      div\n      0xff\n      and\n        /* \"database/user/OwnerDatabase.sol\":393:514  require(... */\n      tag_67\n      jumpi\n      mload(0x40)\n      0x08c379a000000000000000000000000000000000000000000000000000000000\n      dup2\n      mstore\n      0x04\n      add\n      tag_68\n      swap1\n      tag_69\n      jump\t// in\n    tag_68:\n      mload(0x40)\n      dup1\n      swap2\n      sub\n      swap1\n      revert\n    tag_67:\n        /* \"database/user/OwnerDatabase.sol\":1867:1871  list */\n      0x01\n        /* \"database/user/OwnerDatabase.sol\":1860:1871  return list */\n      dup1\n      sload\n      dup1\n      0x20\n      mul\n      0x20\n      add\n      mload(0x40)\n      swap1\n      dup2\n      add\n      0x40\n      mstore\n      dup1\n      swap3\n      swap2\n      swap1\n      dup2\n      dup2\n      mstore\n      0x20\n      add\n      0x00\n      swap1\n    tag_71:\n      dup3\n      dup3\n      lt\n      iszero\n      tag_72\n      jumpi\n      dup4\n      dup3\n      swap1\n      0x00\n      mstore\n      keccak256(0x00, 0x20)\n      swap1\n      0x09\n      mul\n      add\n      mload(0x40)\n      dup1\n      0x0120\n      add\n      0x40\n      mstore\n      swap1\n      dup2\n      0x00\n      dup3\n      add\n      sload\n      dup2\n      mstore\n      0x20\n      add\n      0x01\n      dup3\n      add\n      sload\n      dup2\n      mstore\n      0x20\n      add\n      0x02\n      dup3\n      add\n      sload\n      dup2\n      mstore\n      0x20\n      add\n      0x03\n      dup3\n      add\n      sload\n      dup2\n      mstore\n      0x20\n      add\n      0x04\n      dup3\n      add\n      dup1\n      sload\n      dup1\n      0x20\n      mul\n      0x20\n      add\n      mload(0x40)\n      swap1\n      dup2\n      add\n      0x40\n      mstore\n      dup1\n      swap3\n      swap2\n      swap1\n      dup2\n      dup2\n      mstore\n      0x20\n      add\n      dup3\n      dup1\n      sload\n      dup1\n      iszero\n      tag_74\n      jumpi\n      0x20\n      mul\n      dup3\n      add\n      swap2\n      swap1\n      0x00\n      mstore\n      keccak256(0x00, 0x20)\n      swap1\n    tag_75:\n      dup2\n      sload\n      dup2\n      mstore\n      0x20\n      add\n      swap1\n      0x01\n      add\n      swap1\n      dup1\n      dup4\n      gt\n      tag_75\n      jumpi\n    tag_74:\n      pop\n      pop\n      pop\n      pop\n      pop\n      dup2\n      mstore\n      0x20\n      add\n      0x05\n      dup3\n      add\n      dup1\n      sload\n      dup1\n      0x20\n      mul\n      0x20\n      add\n      mload(0x40)\n      swap1\n      dup2\n      add\n      0x40\n      mstore\n      dup1\n      swap3\n      swap2\n      swap1\n      dup2\n      dup2\n      mstore\n      0x20\n      add\n      dup3\n      dup1\n      sload\n      dup1\n      iszero\n      tag_76\n      jumpi\n      0x20\n      mul\n      dup3\n      add\n      swap2\n      swap1\n      0x00\n      mstore\n      keccak256(0x00, 0x20)\n      swap1\n    tag_77:\n      dup2\n      sload\n      dup2\n      mstore\n      0x20\n      add\n      swap1\n      0x01\n      add\n      swap1\n      dup1\n      dup4\n      gt\n      tag_77\n      jumpi\n    tag_76:\n      pop\n      pop\n      pop\n      pop\n      pop\n      dup2\n      mstore\n      0x20\n      add\n      0x06\n      dup3\n      add\n      dup1\n      sload\n      dup1\n      0x20\n      mul\n      0x20\n      add\n      mload(0x40)\n      swap1\n      dup2\n      add\n      0x40\n      mstore\n      dup1\n      swap3\n      swap2\n      swap1\n      dup2\n      dup2\n      mstore\n      0x20\n      add\n      dup3\n      dup1\n      sload\n      dup1\n      iszero\n      tag_78\n      jumpi\n      0x20\n      mul\n      dup3\n      add\n      swap2\n      swap1\n      0x00\n      mstore\n      keccak256(0x00, 0x20)\n      swap1\n    tag_79:\n      dup2\n      sload\n      dup2\n      mstore\n      0x20\n      add\n      swap1\n      0x01\n      add\n      swap1\n      dup1\n      dup4\n      gt\n      tag_79\n      jumpi\n    tag_78:\n      pop\n      pop\n      pop\n      pop\n      pop\n      dup2\n      mstore\n      0x20\n      add\n      0x07\n      dup3\n      add\n      dup1\n      sload\n      dup1\n      0x20\n      mul\n      0x20\n      add\n      mload(0x40)\n      swap1\n      dup2\n      add\n      0x40\n      mstore\n      dup1\n      swap3\n      swap2\n      swap1\n      dup2\n      dup2\n      mstore\n      0x20\n      add\n      dup3\n      dup1\n      sload\n      dup1\n      iszero\n      tag_80\n      jumpi\n      0x20\n      mul\n      dup3\n      add\n      swap2\n      swap1\n      0x00\n      mstore\n      keccak256(0x00, 0x20)\n      swap1\n    tag_81:\n      dup2\n      sload\n      dup2\n      mstore\n      0x20\n      add\n      swap1\n      0x01\n      add\n      swap1\n      dup1\n      dup4\n      gt\n      tag_81\n      jumpi\n    tag_80:\n      pop\n      pop\n      pop\n      pop\n      pop\n      dup2\n      mstore\n      0x20\n      add\n      0x08\n      dup3\n      add\n      dup1\n      sload\n      tag_82\n      swap1\n      tag_83\n      jump\t// in\n    tag_82:\n      dup1\n      0x1f\n      add\n      0x20\n      dup1\n      swap2\n      div\n      mul\n      0x20\n      add\n      mload(0x40)\n      swap1\n      dup2\n      add\n      0x40\n      mstore\n      dup1\n      swap3\n      swap2\n      swap1\n      dup2\n      dup2\n      mstore\n      0x20\n      add\n      dup3\n      dup1\n      sload\n      tag_84\n      swap1\n      tag_83\n      jump\t// in\n    tag_84:\n      dup1\n      iszero\n      tag_85\n      jumpi\n      dup1\n      0x1f\n      lt\n      tag_86\n      jumpi\n      0x0100\n      dup1\n      dup4\n      sload\n      div\n      mul\n      dup4\n      mstore\n      swap2\n      0x20\n      add\n      swap2\n      jump(tag_85)\n    tag_86:\n      dup3\n      add\n      swap2\n      swap1\n      0x00\n      mstore\n      keccak256(0x00, 0x20)\n      swap1\n    tag_87:\n      dup2\n      sload\n      dup2\n      mstore\n      swap1\n      0x01\n      add\n      swap1\n      0x20\n      add\n      dup1\n      dup4\n      gt\n      tag_87\n      jumpi\n      dup3\n      swap1\n      sub\n      0x1f\n      and\n      dup3\n      add\n      swap2\n    tag_85:\n      pop\n      pop\n      pop\n      pop\n      pop\n      dup2\n      mstore\n      pop\n      pop\n      dup2\n      mstore\n      0x20\n      add\n      swap1\n      0x01\n      add\n      swap1\n      jump(tag_71)\n    tag_72:\n      pop\n      pop\n      pop\n      pop\n      swap1\n      pop\n        /* \"database/user/OwnerDatabase.sol\":1724:1879  function getAllOwner()... */\n      swap1\n      jump\t// out\n        /* \"abstract/Ownable.sol\":1289:1376  function owner() public view virtual returns (address) {... */\n    tag_29:\n        /* \"abstract/Ownable.sol\":1335:1342  address */\n      0x00\n        /* \"abstract/Ownable.sol\":1362:1368  _owner */\n      dup1\n      0x00\n      swap1\n      sload\n      swap1\n      0x0100\n      exp\n      swap1\n      div\n      0xffffffffffffffffffffffffffffffffffffffff\n      and\n        /* \"abstract/Ownable.sol\":1355:1368  return _owner */\n      swap1\n      pop\n        /* \"abstract/Ownable.sol\":1289:1376  function owner() public view virtual returns (address) {... */\n      swap1\n      jump\t// out\n        /* \"database/user/OwnerDatabase.sol\":1215:1378  function addMartketId(... */\n    tag_34:\n        /* \"database/user/OwnerDatabase.sol\":1323:1327  list */\n      0x01\n        /* \"database/user/OwnerDatabase.sol\":1328:1342  productOwnerId */\n      dup3\n        /* \"database/user/OwnerDatabase.sol\":1323:1343  list[productOwnerId] */\n      dup2\n      sload\n      dup2\n      lt\n      tag_90\n      jumpi\n      tag_91\n      tag_58\n      jump\t// in\n    tag_91:\n    tag_90:\n      swap1\n      0x00\n      mstore\n      keccak256(0x00, 0x20)\n      swap1\n      0x09\n      mul\n      add\n        /* \"database/user/OwnerDatabase.sol\":1323:1354  list[productOwnerId].martketIds */\n      0x05\n      add\n        /* \"database/user/OwnerDatabase.sol\":1360:1369  martketId */\n      dup2\n        /* \"database/user/OwnerDatabase.sol\":1323:1370  list[productOwnerId].martketIds.push(martketId) */\n      swap1\n      dup1\n      0x01\n      dup2\n      sload\n      add\n      dup1\n      dup3\n      sstore\n      dup1\n      swap2\n      pop\n      pop\n      0x01\n      swap1\n      sub\n      swap1\n      0x00\n      mstore\n      keccak256(0x00, 0x20)\n      add\n      0x00\n      swap1\n      swap2\n      swap1\n      swap2\n      swap1\n      swap2\n      pop\n      sstore\n        /* \"database/user/OwnerDatabase.sol\":1215:1378  function addMartketId(... */\n      pop\n      pop\n      jump\t// out\n        /* \"database/user/OwnerDatabase.sol\":1549:1716  function addCustomerId(... */\n    tag_37:\n        /* \"database/user/OwnerDatabase.sol\":1659:1663  list */\n      0x01\n        /* \"database/user/OwnerDatabase.sol\":1664:1678  productOwnerId */\n      dup3\n        /* \"database/user/OwnerDatabase.sol\":1659:1679  list[productOwnerId] */\n      dup2\n      sload\n      dup2\n      lt\n      tag_95\n      jumpi\n      tag_96\n      tag_58\n      jump\t// in\n    tag_96:\n    tag_95:\n      swap1\n      0x00\n      mstore\n      keccak256(0x00, 0x20)\n      swap1\n      0x09\n      mul\n      add\n        /* \"database/user/OwnerDatabase.sol\":1659:1691  list[productOwnerId].customerIds */\n      0x07\n      add\n        /* \"database/user/OwnerDatabase.sol\":1697:1707  customerId */\n      dup2\n        /* \"database/user/OwnerDatabase.sol\":1659:1708  list[productOwnerId].customerIds.push(customerId) */\n      swap1\n      dup1\n      0x01\n      dup2\n      sload\n      add\n      dup1\n      dup3\n      sstore\n      dup1\n      swap2\n      pop\n      pop\n      0x01\n      swap1\n      sub\n      swap1\n      0x00\n      mstore\n      keccak256(0x00, 0x20)\n      add\n      0x00\n      swap1\n      swap2\n      swap1\n      swap2\n      swap1\n      swap2\n      pop\n      sstore\n        /* \"database/user/OwnerDatabase.sol\":1549:1716  function addCustomerId(... */\n      pop\n      pop\n      jump\t// out\n        /* \"database/user/OwnerDatabase.sol\":844:1020  function addOwner(Product_Owner memory item) public onlyPermissions {... */\n    tag_41:\n        /* \"database/user/OwnerDatabase.sol\":415:426  permissions */\n      0x03\n        /* \"database/user/OwnerDatabase.sol\":415:440  permissions[_msgSender()] */\n      0x00\n        /* \"database/user/OwnerDatabase.sol\":427:439  _msgSender() */\n      tag_100\n        /* \"database/user/OwnerDatabase.sol\":427:437  _msgSender */\n      tag_66\n        /* \"database/user/OwnerDatabase.sol\":427:439  _msgSender() */\n      jump\t// in\n    tag_100:\n        /* \"database/user/OwnerDatabase.sol\":415:440  permissions[_msgSender()] */\n      0xffffffffffffffffffffffffffffffffffffffff\n      and\n      0xffffffffffffffffffffffffffffffffffffffff\n      and\n      dup2\n      mstore\n      0x20\n      add\n      swap1\n      dup2\n      mstore\n      0x20\n      add\n      0x00\n      keccak256\n      0x00\n      swap1\n      sload\n      swap1\n      0x0100\n      exp\n      swap1\n      div\n      0xff\n      and\n        /* \"database/user/OwnerDatabase.sol\":393:514  require(... */\n      tag_101\n      jumpi\n      mload(0x40)\n      0x08c379a000000000000000000000000000000000000000000000000000000000\n      dup2\n      mstore\n      0x04\n      add\n      tag_102\n      swap1\n      tag_69\n      jump\t// in\n    tag_102:\n      mload(0x40)\n      dup1\n      swap2\n      sub\n      swap1\n      revert\n    tag_101:\n        /* \"database/user/OwnerDatabase.sol\":923:933  uint256 id */\n      0x00\n        /* \"database/user/OwnerDatabase.sol\":936:949  autoIncrement */\n      0x02\n      0x00\n        /* \"database/user/OwnerDatabase.sol\":936:951  autoIncrement++ */\n      dup2\n      sload\n      dup1\n      swap3\n      swap2\n      swap1\n      tag_104\n      swap1\n      tag_105\n      jump\t// in\n    tag_104:\n      swap2\n      swap1\n      pop\n      sstore\n        /* \"database/user/OwnerDatabase.sol\":923:951  uint256 id = autoIncrement++ */\n      swap1\n      pop\n        /* \"database/user/OwnerDatabase.sol\":984:986  id */\n      dup1\n        /* \"database/user/OwnerDatabase.sol\":962:966  item */\n      dup3\n        /* \"database/user/OwnerDatabase.sol\":962:981  item.productOwnerId */\n      0x00\n      add\n        /* \"database/user/OwnerDatabase.sol\":962:986  item.productOwnerId = id */\n      dup2\n      dup2\n      mstore\n      pop\n      pop\n        /* \"database/user/OwnerDatabase.sol\":997:1001  list */\n      0x01\n        /* \"database/user/OwnerDatabase.sol\":1007:1011  item */\n      dup3\n        /* \"database/user/OwnerDatabase.sol\":997:1012  list.push(item) */\n      swap1\n      dup1\n      0x01\n      dup2\n      sload\n      add\n      dup1\n      dup3\n      sstore\n      dup1\n      swap2\n      pop\n      pop\n      0x01\n      swap1\n      sub\n      swap1\n      0x00\n      mstore\n      keccak256(0x00, 0x20)\n      swap1\n      0x09\n      mul\n      add\n      0x00\n      swap1\n      swap2\n      swap1\n      swap2\n      swap1\n      swap2\n      pop\n      0x00\n      dup3\n      add\n      mload\n      dup2\n      0x00\n      add\n      sstore\n      0x20\n      dup3\n      add\n      mload\n      dup2\n      0x01\n      add\n      sstore\n      0x40\n      dup3\n      add\n      mload\n      dup2\n      0x02\n      add\n      sstore\n      0x60\n      dup3\n      add\n      mload\n      dup2\n      0x03\n      add\n      sstore\n      0x80\n      dup3\n      add\n      mload\n      dup2\n      0x04\n      add\n      swap1\n      dup1\n      mload\n      swap1\n      0x20\n      add\n      swap1\n      tag_107\n      swap3\n      swap2\n      swap1\n      tag_108\n      jump\t// in\n    tag_107:\n      pop\n      0xa0\n      dup3\n      add\n      mload\n      dup2\n      0x05\n      add\n      swap1\n      dup1\n      mload\n      swap1\n      0x20\n      add\n      swap1\n      tag_109\n      swap3\n      swap2\n      swap1\n      tag_108\n      jump\t// in\n    tag_109:\n      pop\n      0xc0\n      dup3\n      add\n      mload\n      dup2\n      0x06\n      add\n      swap1\n      dup1\n      mload\n      swap1\n      0x20\n      add\n      swap1\n      tag_110\n      swap3\n      swap2\n      swap1\n      tag_108\n      jump\t// in\n    tag_110:\n      pop\n      0xe0\n      dup3\n      add\n      mload\n      dup2\n      0x07\n      add\n      swap1\n      dup1\n      mload\n      swap1\n      0x20\n      add\n      swap1\n      tag_111\n      swap3\n      swap2\n      swap1\n      tag_108\n      jump\t// in\n    tag_111:\n      pop\n      0x0100\n      dup3\n      add\n      mload\n      dup2\n      0x08\n      add\n      swap1\n      dup2\n      tag_112\n      swap2\n      swap1\n      tag_113\n      jump\t// in\n    tag_112:\n      pop\n      pop\n      pop\n        /* \"database/user/OwnerDatabase.sol\":912:1020  {... */\n      pop\n        /* \"database/user/OwnerDatabase.sol\":844:1020  function addOwner(Product_Owner memory item) public onlyPermissions {... */\n      pop\n      jump\t// out\n        /* \"database/user/OwnerDatabase.sol\":1386:1541  function addStaffId(... */\n    tag_44:\n        /* \"database/user/OwnerDatabase.sol\":1490:1494  list */\n      0x01\n        /* \"database/user/OwnerDatabase.sol\":1495:1509  productOwnerId */\n      dup3\n        /* \"database/user/OwnerDatabase.sol\":1490:1510  list[productOwnerId] */\n      dup2\n      sload\n      dup2\n      lt\n      tag_115\n      jumpi\n      tag_116\n      tag_58\n      jump\t// in\n    tag_116:\n    tag_115:\n      swap1\n      0x00\n      mstore\n      keccak256(0x00, 0x20)\n      swap1\n      0x09\n      mul\n      add\n        /* \"database/user/OwnerDatabase.sol\":1490:1519  list[productOwnerId].staffIds */\n      0x06\n      add\n        /* \"database/user/OwnerDatabase.sol\":1525:1532  staffId */\n      dup2\n        /* \"database/user/OwnerDatabase.sol\":1490:1533  list[productOwnerId].staffIds.push(staffId) */\n      swap1\n      dup1\n      0x01\n      dup2\n      sload\n      add\n      dup1\n      dup3\n      sstore\n      dup1\n      swap2\n      pop\n      pop\n      0x01\n      swap1\n      sub\n      swap1\n      0x00\n      mstore\n      keccak256(0x00, 0x20)\n      add\n      0x00\n      swap1\n      swap2\n      swap1\n      swap2\n      swap1\n      swap2\n      pop\n      sstore\n        /* \"database/user/OwnerDatabase.sol\":1386:1541  function addStaffId(... */\n      pop\n      pop\n      jump\t// out\n        /* \"abstract/Ownable.sol\":2204:2442  function transferOwnership(address newOwner) public virtual onlyOwner {... */\n    tag_47:\n        /* \"abstract/Ownable.sol\":1175:1188  _checkOwner() */\n      tag_120\n        /* \"abstract/Ownable.sol\":1175:1186  _checkOwner */\n      tag_50\n        /* \"abstract/Ownable.sol\":1175:1188  _checkOwner() */\n      jump\t// in\n    tag_120:\n        /* \"abstract/Ownable.sol\":2327:2328  0 */\n      0x00\n        /* \"abstract/Ownable.sol\":2307:2329  newOwner != address(0) */\n      0xffffffffffffffffffffffffffffffffffffffff\n      and\n        /* \"abstract/Ownable.sol\":2307:2315  newOwner */\n      dup2\n        /* \"abstract/Ownable.sol\":2307:2329  newOwner != address(0) */\n      0xffffffffffffffffffffffffffffffffffffffff\n      and\n      sub\n        /* \"abstract/Ownable.sol\":2285:2395  require(... */\n      tag_122\n      jumpi\n      mload(0x40)\n      0x08c379a000000000000000000000000000000000000000000000000000000000\n      dup2\n      mstore\n      0x04\n      add\n      tag_123\n      swap1\n      tag_124\n      jump\t// in\n    tag_123:\n      mload(0x40)\n      dup1\n      swap2\n      sub\n      swap1\n      revert\n    tag_122:\n        /* \"abstract/Ownable.sol\":2406:2434  _transferOwnership(newOwner) */\n      tag_125\n        /* \"abstract/Ownable.sol\":2425:2433  newOwner */\n      dup2\n        /* \"abstract/Ownable.sol\":2406:2424  _transferOwnership */\n      tag_126\n        /* \"abstract/Ownable.sol\":2406:2434  _transferOwnership(newOwner) */\n      jump\t// in\n    tag_125:\n        /* \"abstract/Ownable.sol\":2204:2442  function transferOwnership(address newOwner) public virtual onlyOwner {... */\n      pop\n      jump\t// out\n        /* \"abstract/Ownable.sol\":1454:1584  function _checkOwner() internal view virtual {... */\n    tag_50:\n        /* \"abstract/Ownable.sol\":1529:1539  msg.sender */\n      caller\n        /* \"abstract/Ownable.sol\":1518:1539  owner() == msg.sender */\n      0xffffffffffffffffffffffffffffffffffffffff\n      and\n        /* \"abstract/Ownable.sol\":1518:1525  owner() */\n      tag_128\n        /* \"abstract/Ownable.sol\":1518:1523  owner */\n      tag_29\n        /* \"abstract/Ownable.sol\":1518:1525  owner() */\n      jump\t// in\n    tag_128:\n        /* \"abstract/Ownable.sol\":1518:1539  owner() == msg.sender */\n      0xffffffffffffffffffffffffffffffffffffffff\n      and\n      eq\n        /* \"abstract/Ownable.sol\":1510:1576  require(owner() == msg.sender, \"Ownable: caller is not the owner\") */\n      tag_129\n      jumpi\n      mload(0x40)\n      0x08c379a000000000000000000000000000000000000000000000000000000000\n      dup2\n      mstore\n      0x04\n      add\n      tag_130\n      swap1\n      tag_131\n      jump\t// in\n    tag_130:\n      mload(0x40)\n      dup1\n      swap2\n      sub\n      swap1\n      revert\n    tag_129:\n        /* \"abstract/Ownable.sol\":1454:1584  function _checkOwner() internal view virtual {... */\n      jump\t// out\n        /* \"@openzeppelin/contracts/utils/Context.sol\":640:736  function _msgSender() internal view virtual returns (address) {... */\n    tag_66:\n        /* \"@openzeppelin/contracts/utils/Context.sol\":693:700  address */\n      0x00\n        /* \"@openzeppelin/contracts/utils/Context.sol\":719:729  msg.sender */\n      caller\n        /* \"@openzeppelin/contracts/utils/Context.sol\":712:729  return msg.sender */\n      swap1\n      pop\n        /* \"@openzeppelin/contracts/utils/Context.sol\":640:736  function _msgSender() internal view virtual returns (address) {... */\n      swap1\n      jump\t// out\n        /* \"abstract/Ownable.sol\":2602:2793  function _transferOwnership(address newOwner) internal virtual {... */\n    tag_126:\n        /* \"abstract/Ownable.sol\":2676:2692  address oldOwner */\n      0x00\n        /* \"abstract/Ownable.sol\":2695:2701  _owner */\n      dup1\n      0x00\n      swap1\n      sload\n      swap1\n      0x0100\n      exp\n      swap1\n      div\n      0xffffffffffffffffffffffffffffffffffffffff\n      and\n        /* \"abstract/Ownable.sol\":2676:2701  address oldOwner = _owner */\n      swap1\n      pop\n        /* \"abstract/Ownable.sol\":2721:2729  newOwner */\n      dup2\n        /* \"abstract/Ownable.sol\":2712:2718  _owner */\n      0x00\n      dup1\n        /* \"abstract/Ownable.sol\":2712:2729  _owner = newOwner */\n      0x0100\n      exp\n      dup2\n      sload\n      dup2\n      0xffffffffffffffffffffffffffffffffffffffff\n      mul\n      not\n      and\n      swap1\n      dup4\n      0xffffffffffffffffffffffffffffffffffffffff\n      and\n      mul\n      or\n      swap1\n      sstore\n      pop\n        /* \"abstract/Ownable.sol\":2776:2784  newOwner */\n      dup2\n        /* \"abstract/Ownable.sol\":2745:2785  OwnershipTransferred(oldOwner, newOwner) */\n      0xffffffffffffffffffffffffffffffffffffffff\n      and\n        /* \"abstract/Ownable.sol\":2766:2774  oldOwner */\n      dup2\n        /* \"abstract/Ownable.sol\":2745:2785  OwnershipTransferred(oldOwner, newOwner) */\n      0xffffffffffffffffffffffffffffffffffffffff\n      and\n      0x8be0079c531659141344cd1fd0a4f28419497f9722a3daafe3b4186f6b6457e0\n      mload(0x40)\n      mload(0x40)\n      dup1\n      swap2\n      sub\n      swap1\n      log3\n        /* \"abstract/Ownable.sol\":2665:2793  {... */\n      pop\n        /* \"abstract/Ownable.sol\":2602:2793  function _transferOwnership(address newOwner) internal virtual {... */\n      pop\n      jump\t// out\n    tag_108:\n      dup3\n      dup1\n      sload\n      dup3\n      dup3\n      sstore\n      swap1\n      0x00\n      mstore\n      keccak256(0x00, 0x20)\n      swap1\n      dup2\n      add\n      swap3\n      dup3\n      iszero\n      tag_134\n      jumpi\n      swap2\n      0x20\n      mul\n      dup3\n      add\n    tag_135:\n      dup3\n      dup2\n      gt\n      iszero\n      tag_136\n      jumpi\n      dup3\n      mload\n      dup3\n      sstore\n      swap2\n      0x20\n      add\n      swap2\n      swap1\n      0x01\n      add\n      swap1\n      jump(tag_135)\n    tag_136:\n    tag_134:\n      pop\n      swap1\n      pop\n      tag_137\n      swap2\n      swap1\n      tag_138\n      jump\t// in\n    tag_137:\n      pop\n      swap1\n      jump\t// out\n    tag_138:\n    tag_139:\n      dup1\n      dup3\n      gt\n      iszero\n      tag_140\n      jumpi\n      0x00\n      dup2\n      0x00\n      swap1\n      sstore\n      pop\n      0x01\n      add\n      jump(tag_139)\n    tag_140:\n      pop\n      swap1\n      jump\t// out\n        /* \"#utility.yul\":7:82   */\n    tag_141:\n        /* \"#utility.yul\":40:46   */\n      0x00\n        /* \"#utility.yul\":73:75   */\n      0x40\n        /* \"#utility.yul\":67:76   */\n      mload\n        /* \"#utility.yul\":57:76   */\n      swap1\n      pop\n        /* \"#utility.yul\":7:82   */\n      swap1\n      jump\t// out\n        /* \"#utility.yul\":88:205   */\n    tag_142:\n        /* \"#utility.yul\":197:198   */\n      0x00\n        /* \"#utility.yul\":194:195   */\n      dup1\n        /* \"#utility.yul\":187:199   */\n      revert\n        /* \"#utility.yul\":211:328   */\n    tag_143:\n        /* \"#utility.yul\":320:321   */\n      0x00\n        /* \"#utility.yul\":317:318   */\n      dup1\n        /* \"#utility.yul\":310:322   */\n      revert\n        /* \"#utility.yul\":334:460   */\n    tag_144:\n        /* \"#utility.yul\":371:378   */\n      0x00\n        /* \"#utility.yul\":411:453   */\n      0xffffffffffffffffffffffffffffffffffffffff\n        /* \"#utility.yul\":404:409   */\n      dup3\n        /* \"#utility.yul\":400:454   */\n      and\n        /* \"#utility.yul\":389:454   */\n      swap1\n      pop\n        /* \"#utility.yul\":334:460   */\n      swap2\n      swap1\n      pop\n      jump\t// out\n        /* \"#utility.yul\":466:562   */\n    tag_145:\n        /* \"#utility.yul\":503:510   */\n      0x00\n        /* \"#utility.yul\":532:556   */\n      tag_219\n        /* \"#utility.yul\":550:555   */\n      dup3\n        /* \"#utility.yul\":532:556   */\n      tag_144\n      jump\t// in\n    tag_219:\n        /* \"#utility.yul\":521:556   */\n      swap1\n      pop\n        /* \"#utility.yul\":466:562   */\n      swap2\n      swap1\n      pop\n      jump\t// out\n        /* \"#utility.yul\":568:690   */\n    tag_146:\n        /* \"#utility.yul\":641:665   */\n      tag_221\n        /* \"#utility.yul\":659:664   */\n      dup2\n        /* \"#utility.yul\":641:665   */\n      tag_145\n      jump\t// in\n    tag_221:\n        /* \"#utility.yul\":634:639   */\n      dup2\n        /* \"#utility.yul\":631:666   */\n      eq\n        /* \"#utility.yul\":621:684   */\n      tag_222\n      jumpi\n        /* \"#utility.yul\":680:681   */\n      0x00\n        /* \"#utility.yul\":677:678   */\n      dup1\n        /* \"#utility.yul\":670:682   */\n      revert\n        /* \"#utility.yul\":621:684   */\n    tag_222:\n        /* \"#utility.yul\":568:690   */\n      pop\n      jump\t// out\n        /* \"#utility.yul\":696:835   */\n    tag_147:\n        /* \"#utility.yul\":742:747   */\n      0x00\n        /* \"#utility.yul\":780:786   */\n      dup2\n        /* \"#utility.yul\":767:787   */\n      calldataload\n        /* \"#utility.yul\":758:787   */\n      swap1\n      pop\n        /* \"#utility.yul\":796:829   */\n      tag_224\n        /* \"#utility.yul\":823:828   */\n      dup2\n        /* \"#utility.yul\":796:829   */\n      tag_146\n      jump\t// in\n    tag_224:\n        /* \"#utility.yul\":696:835   */\n      swap3\n      swap2\n      pop\n      pop\n      jump\t// out\n        /* \"#utility.yul\":841:1170   */\n    tag_16:\n        /* \"#utility.yul\":900:906   */\n      0x00\n        /* \"#utility.yul\":949:951   */\n      0x20\n        /* \"#utility.yul\":937:946   */\n      dup3\n        /* \"#utility.yul\":928:935   */\n      dup5\n        /* \"#utility.yul\":924:947   */\n      sub\n        /* \"#utility.yul\":920:952   */\n      slt\n        /* \"#utility.yul\":917:1036   */\n      iszero\n      tag_226\n      jumpi\n        /* \"#utility.yul\":955:1034   */\n      tag_227\n      tag_142\n      jump\t// in\n    tag_227:\n        /* \"#utility.yul\":917:1036   */\n    tag_226:\n        /* \"#utility.yul\":1075:1076   */\n      0x00\n        /* \"#utility.yul\":1100:1153   */\n      tag_228\n        /* \"#utility.yul\":1145:1152   */\n      dup5\n        /* \"#utility.yul\":1136:1142   */\n      dup3\n        /* \"#utility.yul\":1125:1134   */\n      dup6\n        /* \"#utility.yul\":1121:1143   */\n      add\n        /* \"#utility.yul\":1100:1153   */\n      tag_147\n      jump\t// in\n    tag_228:\n        /* \"#utility.yul\":1090:1153   */\n      swap2\n      pop\n        /* \"#utility.yul\":1046:1163   */\n      pop\n        /* \"#utility.yul\":841:1170   */\n      swap3\n      swap2\n      pop\n      pop\n      jump\t// out\n        /* \"#utility.yul\":1176:1253   */\n    tag_148:\n        /* \"#utility.yul\":1213:1220   */\n      0x00\n        /* \"#utility.yul\":1242:1247   */\n      dup2\n        /* \"#utility.yul\":1231:1247   */\n      swap1\n      pop\n        /* \"#utility.yul\":1176:1253   */\n      swap2\n      swap1\n      pop\n      jump\t// out\n        /* \"#utility.yul\":1259:1381   */\n    tag_149:\n        /* \"#utility.yul\":1332:1356   */\n      tag_231\n        /* \"#utility.yul\":1350:1355   */\n      dup2\n        /* \"#utility.yul\":1332:1356   */\n      tag_148\n      jump\t// in\n    tag_231:\n        /* \"#utility.yul\":1325:1330   */\n      dup2\n        /* \"#utility.yul\":1322:1357   */\n      eq\n        /* \"#utility.yul\":1312:1375   */\n      tag_232\n      jumpi\n        /* \"#utility.yul\":1371:1372   */\n      0x00\n        /* \"#utility.yul\":1368:1369   */\n      dup1\n        /* \"#utility.yul\":1361:1373   */\n      revert\n        /* \"#utility.yul\":1312:1375   */\n    tag_232:\n        /* \"#utility.yul\":1259:1381   */\n      pop\n      jump\t// out\n        /* \"#utility.yul\":1387:1526   */\n    tag_150:\n        /* \"#utility.yul\":1433:1438   */\n      0x00\n        /* \"#utility.yul\":1471:1477   */\n      dup2\n        /* \"#utility.yul\":1458:1478   */\n      calldataload\n        /* \"#utility.yul\":1449:1478   */\n      swap1\n      pop\n        /* \"#utility.yul\":1487:1520   */\n      tag_234\n        /* \"#utility.yul\":1514:1519   */\n      dup2\n        /* \"#utility.yul\":1487:1520   */\n      tag_149\n      jump\t// in\n    tag_234:\n        /* \"#utility.yul\":1387:1526   */\n      swap3\n      swap2\n      pop\n      pop\n      jump\t// out\n        /* \"#utility.yul\":1532:2006   */\n    tag_20:\n        /* \"#utility.yul\":1600:1606   */\n      0x00\n        /* \"#utility.yul\":1608:1614   */\n      dup1\n        /* \"#utility.yul\":1657:1659   */\n      0x40\n        /* \"#utility.yul\":1645:1654   */\n      dup4\n        /* \"#utility.yul\":1636:1643   */\n      dup6\n        /* \"#utility.yul\":1632:1655   */\n      sub\n        /* \"#utility.yul\":1628:1660   */\n      slt\n        /* \"#utility.yul\":1625:1744   */\n      iszero\n      tag_236\n      jumpi\n        /* \"#utility.yul\":1663:1742   */\n      tag_237\n      tag_142\n      jump\t// in\n    tag_237:\n        /* \"#utility.yul\":1625:1744   */\n    tag_236:\n        /* \"#utility.yul\":1783:1784   */\n      0x00\n        /* \"#utility.yul\":1808:1861   */\n      tag_238\n        /* \"#utility.yul\":1853:1860   */\n      dup6\n        /* \"#utility.yul\":1844:1850   */\n      dup3\n        /* \"#utility.yul\":1833:1842   */\n      dup7\n        /* \"#utility.yul\":1829:1851   */\n      add\n        /* \"#utility.yul\":1808:1861   */\n      tag_150\n      jump\t// in\n    tag_238:\n        /* \"#utility.yul\":1798:1861   */\n      swap3\n      pop\n        /* \"#utility.yul\":1754:1871   */\n      pop\n        /* \"#utility.yul\":1910:1912   */\n      0x20\n        /* \"#utility.yul\":1936:1989   */\n      tag_239\n        /* \"#utility.yul\":1981:1988   */\n      dup6\n        /* \"#utility.yul\":1972:1978   */\n      dup3\n        /* \"#utility.yul\":1961:1970   */\n      dup7\n        /* \"#utility.yul\":1957:1979   */\n      add\n        /* \"#utility.yul\":1936:1989   */\n      tag_150\n      jump\t// in\n    tag_239:\n        /* \"#utility.yul\":1926:1989   */\n      swap2\n      pop\n        /* \"#utility.yul\":1881:1999   */\n      pop\n        /* \"#utility.yul\":1532:2006   */\n      swap3\n      pop\n      swap3\n      swap1\n      pop\n      jump\t// out\n        /* \"#utility.yul\":2012:2156   */\n    tag_151:\n        /* \"#utility.yul\":2109:2115   */\n      0x00\n        /* \"#utility.yul\":2143:2148   */\n      dup2\n        /* \"#utility.yul\":2137:2149   */\n      mload\n        /* \"#utility.yul\":2127:2149   */\n      swap1\n      pop\n        /* \"#utility.yul\":2012:2156   */\n      swap2\n      swap1\n      pop\n      jump\t// out\n        /* \"#utility.yul\":2162:2376   */\n    tag_152:\n        /* \"#utility.yul\":2291:2302   */\n      0x00\n        /* \"#utility.yul\":2325:2331   */\n      dup3\n        /* \"#utility.yul\":2320:2323   */\n      dup3\n        /* \"#utility.yul\":2313:2332   */\n      mstore\n        /* \"#utility.yul\":2365:2369   */\n      0x20\n        /* \"#utility.yul\":2360:2363   */\n      dup3\n        /* \"#utility.yul\":2356:2370   */\n      add\n        /* \"#utility.yul\":2341:2370   */\n      swap1\n      pop\n        /* \"#utility.yul\":2162:2376   */\n      swap3\n      swap2\n      pop\n      pop\n      jump\t// out\n        /* \"#utility.yul\":2382:2544   */\n    tag_153:\n        /* \"#utility.yul\":2479:2483   */\n      0x00\n        /* \"#utility.yul\":2502:2505   */\n      dup2\n        /* \"#utility.yul\":2494:2505   */\n      swap1\n      pop\n        /* \"#utility.yul\":2532:2536   */\n      0x20\n        /* \"#utility.yul\":2527:2530   */\n      dup3\n        /* \"#utility.yul\":2523:2537   */\n      add\n        /* \"#utility.yul\":2515:2537   */\n      swap1\n      pop\n        /* \"#utility.yul\":2382:2544   */\n      swap2\n      swap1\n      pop\n      jump\t// out\n        /* \"#utility.yul\":2550:2658   */\n    tag_154:\n        /* \"#utility.yul\":2627:2651   */\n      tag_244\n        /* \"#utility.yul\":2645:2650   */\n      dup2\n        /* \"#utility.yul\":2627:2651   */\n      tag_148\n      jump\t// in\n    tag_244:\n        /* \"#utility.yul\":2622:2625   */\n      dup3\n        /* \"#utility.yul\":2615:2652   */\n      mstore\n        /* \"#utility.yul\":2550:2658   */\n      pop\n      pop\n      jump\t// out\n        /* \"#utility.yul\":2664:2778   */\n    tag_155:\n        /* \"#utility.yul\":2731:2737   */\n      0x00\n        /* \"#utility.yul\":2765:2770   */\n      dup2\n        /* \"#utility.yul\":2759:2771   */\n      mload\n        /* \"#utility.yul\":2749:2771   */\n      swap1\n      pop\n        /* \"#utility.yul\":2664:2778   */\n      swap2\n      swap1\n      pop\n      jump\t// out\n        /* \"#utility.yul\":2784:2958   */\n    tag_156:\n        /* \"#utility.yul\":2873:2884   */\n      0x00\n        /* \"#utility.yul\":2907:2913   */\n      dup3\n        /* \"#utility.yul\":2902:2905   */\n      dup3\n        /* \"#utility.yul\":2895:2914   */\n      mstore\n        /* \"#utility.yul\":2947:2951   */\n      0x20\n        /* \"#utility.yul\":2942:2945   */\n      dup3\n        /* \"#utility.yul\":2938:2952   */\n      add\n        /* \"#utility.yul\":2923:2952   */\n      swap1\n      pop\n        /* \"#utility.yul\":2784:2958   */\n      swap3\n      swap2\n      pop\n      pop\n      jump\t// out\n        /* \"#utility.yul\":2964:3096   */\n    tag_157:\n        /* \"#utility.yul\":3031:3035   */\n      0x00\n        /* \"#utility.yul\":3054:3057   */\n      dup2\n        /* \"#utility.yul\":3046:3057   */\n      swap1\n      pop\n        /* \"#utility.yul\":3084:3088   */\n      0x20\n        /* \"#utility.yul\":3079:3082   */\n      dup3\n        /* \"#utility.yul\":3075:3089   */\n      add\n        /* \"#utility.yul\":3067:3089   */\n      swap1\n      pop\n        /* \"#utility.yul\":2964:3096   */\n      swap2\n      swap1\n      pop\n      jump\t// out\n        /* \"#utility.yul\":3102:3281   */\n    tag_158:\n        /* \"#utility.yul\":3171:3181   */\n      0x00\n        /* \"#utility.yul\":3192:3238   */\n      tag_249\n        /* \"#utility.yul\":3234:3237   */\n      dup4\n        /* \"#utility.yul\":3226:3232   */\n      dup4\n        /* \"#utility.yul\":3192:3238   */\n      tag_154\n      jump\t// in\n    tag_249:\n        /* \"#utility.yul\":3270:3274   */\n      0x20\n        /* \"#utility.yul\":3265:3268   */\n      dup4\n        /* \"#utility.yul\":3261:3275   */\n      add\n        /* \"#utility.yul\":3247:3275   */\n      swap1\n      pop\n        /* \"#utility.yul\":3102:3281   */\n      swap3\n      swap2\n      pop\n      pop\n      jump\t// out\n        /* \"#utility.yul\":3287:3400   */\n    tag_159:\n        /* \"#utility.yul\":3357:3361   */\n      0x00\n        /* \"#utility.yul\":3389:3393   */\n      0x20\n        /* \"#utility.yul\":3384:3387   */\n      dup3\n        /* \"#utility.yul\":3380:3394   */\n      add\n        /* \"#utility.yul\":3372:3394   */\n      swap1\n      pop\n        /* \"#utility.yul\":3287:3400   */\n      swap2\n      swap1\n      pop\n      jump\t// out\n        /* \"#utility.yul\":3436:4148   */\n    tag_160:\n        /* \"#utility.yul\":3545:3548   */\n      0x00\n        /* \"#utility.yul\":3574:3628   */\n      tag_252\n        /* \"#utility.yul\":3622:3627   */\n      dup3\n        /* \"#utility.yul\":3574:3628   */\n      tag_155\n      jump\t// in\n    tag_252:\n        /* \"#utility.yul\":3644:3720   */\n      tag_253\n        /* \"#utility.yul\":3713:3719   */\n      dup2\n        /* \"#utility.yul\":3708:3711   */\n      dup6\n        /* \"#utility.yul\":3644:3720   */\n      tag_156\n      jump\t// in\n    tag_253:\n        /* \"#utility.yul\":3637:3720   */\n      swap4\n      pop\n        /* \"#utility.yul\":3744:3800   */\n      tag_254\n        /* \"#utility.yul\":3794:3799   */\n      dup4\n        /* \"#utility.yul\":3744:3800   */\n      tag_157\n      jump\t// in\n    tag_254:\n        /* \"#utility.yul\":3823:3830   */\n      dup1\n        /* \"#utility.yul\":3854:3855   */\n      0x00\n        /* \"#utility.yul\":3839:4123   */\n    tag_255:\n        /* \"#utility.yul\":3864:3870   */\n      dup4\n        /* \"#utility.yul\":3861:3862   */\n      dup2\n        /* \"#utility.yul\":3858:3871   */\n      lt\n        /* \"#utility.yul\":3839:4123   */\n      iszero\n      tag_257\n      jumpi\n        /* \"#utility.yul\":3940:3946   */\n      dup2\n        /* \"#utility.yul\":3934:3947   */\n      mload\n        /* \"#utility.yul\":3967:4030   */\n      tag_258\n        /* \"#utility.yul\":4026:4029   */\n      dup9\n        /* \"#utility.yul\":4011:4024   */\n      dup3\n        /* \"#utility.yul\":3967:4030   */\n      tag_158\n      jump\t// in\n    tag_258:\n        /* \"#utility.yul\":3960:4030   */\n      swap8\n      pop\n        /* \"#utility.yul\":4053:4113   */\n      tag_259\n        /* \"#utility.yul\":4106:4112   */\n      dup4\n        /* \"#utility.yul\":4053:4113   */\n      tag_159\n      jump\t// in\n    tag_259:\n        /* \"#utility.yul\":4043:4113   */\n      swap3\n      pop\n        /* \"#utility.yul\":3899:4123   */\n      pop\n        /* \"#utility.yul\":3886:3887   */\n      0x01\n        /* \"#utility.yul\":3883:3884   */\n      dup2\n        /* \"#utility.yul\":3879:3888   */\n      add\n        /* \"#utility.yul\":3874:3888   */\n      swap1\n      pop\n        /* \"#utility.yul\":3839:4123   */\n      jump(tag_255)\n    tag_257:\n        /* \"#utility.yul\":3843:3857   */\n      pop\n        /* \"#utility.yul\":4139:4142   */\n      dup6\n        /* \"#utility.yul\":4132:4142   */\n      swap4\n      pop\n        /* \"#utility.yul\":3550:4148   */\n      pop\n      pop\n      pop\n        /* \"#utility.yul\":3436:4148   */\n      swap3\n      swap2\n      pop\n      pop\n      jump\t// out\n        /* \"#utility.yul\":4154:4253   */\n    tag_161:\n        /* \"#utility.yul\":4206:4212   */\n      0x00\n        /* \"#utility.yul\":4240:4245   */\n      dup2\n        /* \"#utility.yul\":4234:4246   */\n      mload\n        /* \"#utility.yul\":4224:4246   */\n      swap1\n      pop\n        /* \"#utility.yul\":4154:4253   */\n      swap2\n      swap1\n      pop\n      jump\t// out\n        /* \"#utility.yul\":4259:4418   */\n    tag_162:\n        /* \"#utility.yul\":4333:4344   */\n      0x00\n        /* \"#utility.yul\":4367:4373   */\n      dup3\n        /* \"#utility.yul\":4362:4365   */\n      dup3\n        /* \"#utility.yul\":4355:4374   */\n      mstore\n        /* \"#utility.yul\":4407:4411   */\n      0x20\n        /* \"#utility.yul\":4402:4405   */\n      dup3\n        /* \"#utility.yul\":4398:4412   */\n      add\n        /* \"#utility.yul\":4383:4412   */\n      swap1\n      pop\n        /* \"#utility.yul\":4259:4418   */\n      swap3\n      swap2\n      pop\n      pop\n      jump\t// out\n        /* \"#utility.yul\":4424:4670   */\n    tag_163:\n        /* \"#utility.yul\":4505:4506   */\n      0x00\n        /* \"#utility.yul\":4515:4628   */\n    tag_263:\n        /* \"#utility.yul\":4529:4535   */\n      dup4\n        /* \"#utility.yul\":4526:4527   */\n      dup2\n        /* \"#utility.yul\":4523:4536   */\n      lt\n        /* \"#utility.yul\":4515:4628   */\n      iszero\n      tag_265\n      jumpi\n        /* \"#utility.yul\":4614:4615   */\n      dup1\n        /* \"#utility.yul\":4609:4612   */\n      dup3\n        /* \"#utility.yul\":4605:4616   */\n      add\n        /* \"#utility.yul\":4599:4617   */\n      mload\n        /* \"#utility.yul\":4595:4596   */\n      dup2\n        /* \"#utility.yul\":4590:4593   */\n      dup5\n        /* \"#utility.yul\":4586:4597   */\n      add\n        /* \"#utility.yul\":4579:4618   */\n      mstore\n        /* \"#utility.yul\":4551:4553   */\n      0x20\n        /* \"#utility.yul\":4548:4549   */\n      dup2\n        /* \"#utility.yul\":4544:4554   */\n      add\n        /* \"#utility.yul\":4539:4554   */\n      swap1\n      pop\n        /* \"#utility.yul\":4515:4628   */\n      jump(tag_263)\n    tag_265:\n        /* \"#utility.yul\":4662:4663   */\n      0x00\n        /* \"#utility.yul\":4653:4659   */\n      dup5\n        /* \"#utility.yul\":4648:4651   */\n      dup5\n        /* \"#utility.yul\":4644:4660   */\n      add\n        /* \"#utility.yul\":4637:4664   */\n      mstore\n        /* \"#utility.yul\":4486:4670   */\n      pop\n        /* \"#utility.yul\":4424:4670   */\n      pop\n      pop\n      pop\n      jump\t// out\n        /* \"#utility.yul\":4676:4778   */\n    tag_164:\n        /* \"#utility.yul\":4717:4723   */\n      0x00\n        /* \"#utility.yul\":4768:4770   */\n      0x1f\n        /* \"#utility.yul\":4764:4771   */\n      not\n        /* \"#utility.yul\":4759:4761   */\n      0x1f\n        /* \"#utility.yul\":4752:4757   */\n      dup4\n        /* \"#utility.yul\":4748:4762   */\n      add\n        /* \"#utility.yul\":4744:4772   */\n      and\n        /* \"#utility.yul\":4734:4772   */\n      swap1\n      pop\n        /* \"#utility.yul\":4676:4778   */\n      swap2\n      swap1\n      pop\n      jump\t// out\n        /* \"#utility.yul\":4784:5141   */\n    tag_165:\n        /* \"#utility.yul\":4862:4865   */\n      0x00\n        /* \"#utility.yul\":4890:4929   */\n      tag_268\n        /* \"#utility.yul\":4923:4928   */\n      dup3\n        /* \"#utility.yul\":4890:4929   */\n      tag_161\n      jump\t// in\n    tag_268:\n        /* \"#utility.yul\":4945:5006   */\n      tag_269\n        /* \"#utility.yul\":4999:5005   */\n      dup2\n        /* \"#utility.yul\":4994:4997   */\n      dup6\n        /* \"#utility.yul\":4945:5006   */\n      tag_162\n      jump\t// in\n    tag_269:\n        /* \"#utility.yul\":4938:5006   */\n      swap4\n      pop\n        /* \"#utility.yul\":5015:5080   */\n      tag_270\n        /* \"#utility.yul\":5073:5079   */\n      dup2\n        /* \"#utility.yul\":5068:5071   */\n      dup6\n        /* \"#utility.yul\":5061:5065   */\n      0x20\n        /* \"#utility.yul\":5054:5059   */\n      dup7\n        /* \"#utility.yul\":5050:5066   */\n      add\n        /* \"#utility.yul\":5015:5080   */\n      tag_163\n      jump\t// in\n    tag_270:\n        /* \"#utility.yul\":5105:5134   */\n      tag_271\n        /* \"#utility.yul\":5127:5133   */\n      dup2\n        /* \"#utility.yul\":5105:5134   */\n      tag_164\n      jump\t// in\n    tag_271:\n        /* \"#utility.yul\":5100:5103   */\n      dup5\n        /* \"#utility.yul\":5096:5135   */\n      add\n        /* \"#utility.yul\":5089:5135   */\n      swap2\n      pop\n        /* \"#utility.yul\":4866:5141   */\n      pop\n        /* \"#utility.yul\":4784:5141   */\n      swap3\n      swap2\n      pop\n      pop\n      jump\t// out\n        /* \"#utility.yul\":5199:7494   */\n    tag_166:\n        /* \"#utility.yul\":5318:5321   */\n      0x00\n        /* \"#utility.yul\":5354:5360   */\n      0x0120\n        /* \"#utility.yul\":5349:5352   */\n      dup4\n        /* \"#utility.yul\":5345:5361   */\n      add\n        /* \"#utility.yul\":5453:5457   */\n      0x00\n        /* \"#utility.yul\":5446:5451   */\n      dup4\n        /* \"#utility.yul\":5442:5458   */\n      add\n        /* \"#utility.yul\":5436:5459   */\n      mload\n        /* \"#utility.yul\":5472:5535   */\n      tag_273\n        /* \"#utility.yul\":5529:5533   */\n      0x00\n        /* \"#utility.yul\":5524:5527   */\n      dup7\n        /* \"#utility.yul\":5520:5534   */\n      add\n        /* \"#utility.yul\":5506:5518   */\n      dup3\n        /* \"#utility.yul\":5472:5535   */\n      tag_154\n      jump\t// in\n    tag_273:\n        /* \"#utility.yul\":5371:5545   */\n      pop\n        /* \"#utility.yul\":5630:5634   */\n      0x20\n        /* \"#utility.yul\":5623:5628   */\n      dup4\n        /* \"#utility.yul\":5619:5635   */\n      add\n        /* \"#utility.yul\":5613:5636   */\n      mload\n        /* \"#utility.yul\":5649:5712   */\n      tag_274\n        /* \"#utility.yul\":5706:5710   */\n      0x20\n        /* \"#utility.yul\":5701:5704   */\n      dup7\n        /* \"#utility.yul\":5697:5711   */\n      add\n        /* \"#utility.yul\":5683:5695   */\n      dup3\n        /* \"#utility.yul\":5649:5712   */\n      tag_154\n      jump\t// in\n    tag_274:\n        /* \"#utility.yul\":5555:5722   */\n      pop\n        /* \"#utility.yul\":5811:5815   */\n      0x40\n        /* \"#utility.yul\":5804:5809   */\n      dup4\n        /* \"#utility.yul\":5800:5816   */\n      add\n        /* \"#utility.yul\":5794:5817   */\n      mload\n        /* \"#utility.yul\":5830:5893   */\n      tag_275\n        /* \"#utility.yul\":5887:5891   */\n      0x40\n        /* \"#utility.yul\":5882:5885   */\n      dup7\n        /* \"#utility.yul\":5878:5892   */\n      add\n        /* \"#utility.yul\":5864:5876   */\n      dup3\n        /* \"#utility.yul\":5830:5893   */\n      tag_154\n      jump\t// in\n    tag_275:\n        /* \"#utility.yul\":5732:5903   */\n      pop\n        /* \"#utility.yul\":5995:5999   */\n      0x60\n        /* \"#utility.yul\":5988:5993   */\n      dup4\n        /* \"#utility.yul\":5984:6000   */\n      add\n        /* \"#utility.yul\":5978:6001   */\n      mload\n        /* \"#utility.yul\":6014:6077   */\n      tag_276\n        /* \"#utility.yul\":6071:6075   */\n      0x60\n        /* \"#utility.yul\":6066:6069   */\n      dup7\n        /* \"#utility.yul\":6062:6076   */\n      add\n        /* \"#utility.yul\":6048:6060   */\n      dup3\n        /* \"#utility.yul\":6014:6077   */\n      tag_154\n      jump\t// in\n    tag_276:\n        /* \"#utility.yul\":5913:6087   */\n      pop\n        /* \"#utility.yul\":6179:6183   */\n      0x80\n        /* \"#utility.yul\":6172:6177   */\n      dup4\n        /* \"#utility.yul\":6168:6184   */\n      add\n        /* \"#utility.yul\":6162:6185   */\n      mload\n        /* \"#utility.yul\":6232:6235   */\n      dup5\n        /* \"#utility.yul\":6226:6230   */\n      dup3\n        /* \"#utility.yul\":6222:6236   */\n      sub\n        /* \"#utility.yul\":6215:6219   */\n      0x80\n        /* \"#utility.yul\":6210:6213   */\n      dup7\n        /* \"#utility.yul\":6206:6220   */\n      add\n        /* \"#utility.yul\":6199:6237   */\n      mstore\n        /* \"#utility.yul\":6258:6361   */\n      tag_277\n        /* \"#utility.yul\":6356:6360   */\n      dup3\n        /* \"#utility.yul\":6342:6354   */\n      dup3\n        /* \"#utility.yul\":6258:6361   */\n      tag_160\n      jump\t// in\n    tag_277:\n        /* \"#utility.yul\":6250:6361   */\n      swap2\n      pop\n        /* \"#utility.yul\":6097:6372   */\n      pop\n        /* \"#utility.yul\":6460:6464   */\n      0xa0\n        /* \"#utility.yul\":6453:6458   */\n      dup4\n        /* \"#utility.yul\":6449:6465   */\n      add\n        /* \"#utility.yul\":6443:6466   */\n      mload\n        /* \"#utility.yul\":6513:6516   */\n      dup5\n        /* \"#utility.yul\":6507:6511   */\n      dup3\n        /* \"#utility.yul\":6503:6517   */\n      sub\n        /* \"#utility.yul\":6496:6500   */\n      0xa0\n        /* \"#utility.yul\":6491:6494   */\n      dup7\n        /* \"#utility.yul\":6487:6501   */\n      add\n        /* \"#utility.yul\":6480:6518   */\n      mstore\n        /* \"#utility.yul\":6539:6642   */\n      tag_278\n        /* \"#utility.yul\":6637:6641   */\n      dup3\n        /* \"#utility.yul\":6623:6635   */\n      dup3\n        /* \"#utility.yul\":6539:6642   */\n      tag_160\n      jump\t// in\n    tag_278:\n        /* \"#utility.yul\":6531:6642   */\n      swap2\n      pop\n        /* \"#utility.yul\":6382:6653   */\n      pop\n        /* \"#utility.yul\":6739:6743   */\n      0xc0\n        /* \"#utility.yul\":6732:6737   */\n      dup4\n        /* \"#utility.yul\":6728:6744   */\n      add\n        /* \"#utility.yul\":6722:6745   */\n      mload\n        /* \"#utility.yul\":6792:6795   */\n      dup5\n        /* \"#utility.yul\":6786:6790   */\n      dup3\n        /* \"#utility.yul\":6782:6796   */\n      sub\n        /* \"#utility.yul\":6775:6779   */\n      0xc0\n        /* \"#utility.yul\":6770:6773   */\n      dup7\n        /* \"#utility.yul\":6766:6780   */\n      add\n        /* \"#utility.yul\":6759:6797   */\n      mstore\n        /* \"#utility.yul\":6818:6921   */\n      tag_279\n        /* \"#utility.yul\":6916:6920   */\n      dup3\n        /* \"#utility.yul\":6902:6914   */\n      dup3\n        /* \"#utility.yul\":6818:6921   */\n      tag_160\n      jump\t// in\n    tag_279:\n        /* \"#utility.yul\":6810:6921   */\n      swap2\n      pop\n        /* \"#utility.yul\":6663:6932   */\n      pop\n        /* \"#utility.yul\":7021:7025   */\n      0xe0\n        /* \"#utility.yul\":7014:7019   */\n      dup4\n        /* \"#utility.yul\":7010:7026   */\n      add\n        /* \"#utility.yul\":7004:7027   */\n      mload\n        /* \"#utility.yul\":7074:7077   */\n      dup5\n        /* \"#utility.yul\":7068:7072   */\n      dup3\n        /* \"#utility.yul\":7064:7078   */\n      sub\n        /* \"#utility.yul\":7057:7061   */\n      0xe0\n        /* \"#utility.yul\":7052:7055   */\n      dup7\n        /* \"#utility.yul\":7048:7062   */\n      add\n        /* \"#utility.yul\":7041:7079   */\n      mstore\n        /* \"#utility.yul\":7100:7203   */\n      tag_280\n        /* \"#utility.yul\":7198:7202   */\n      dup3\n        /* \"#utility.yul\":7184:7196   */\n      dup3\n        /* \"#utility.yul\":7100:7203   */\n      tag_160\n      jump\t// in\n    tag_280:\n        /* \"#utility.yul\":7092:7203   */\n      swap2\n      pop\n        /* \"#utility.yul\":6942:7214   */\n      pop\n        /* \"#utility.yul\":7300:7306   */\n      0x0100\n        /* \"#utility.yul\":7293:7298   */\n      dup4\n        /* \"#utility.yul\":7289:7307   */\n      add\n        /* \"#utility.yul\":7283:7308   */\n      mload\n        /* \"#utility.yul\":7357:7360   */\n      dup5\n        /* \"#utility.yul\":7351:7355   */\n      dup3\n        /* \"#utility.yul\":7347:7361   */\n      sub\n        /* \"#utility.yul\":7338:7344   */\n      0x0100\n        /* \"#utility.yul\":7333:7336   */\n      dup7\n        /* \"#utility.yul\":7329:7345   */\n      add\n        /* \"#utility.yul\":7322:7362   */\n      mstore\n        /* \"#utility.yul\":7383:7456   */\n      tag_281\n        /* \"#utility.yul\":7451:7455   */\n      dup3\n        /* \"#utility.yul\":7437:7449   */\n      dup3\n        /* \"#utility.yul\":7383:7456   */\n      tag_165\n      jump\t// in\n    tag_281:\n        /* \"#utility.yul\":7375:7456   */\n      swap2\n      pop\n        /* \"#utility.yul\":7224:7467   */\n      pop\n        /* \"#utility.yul\":7484:7488   */\n      dup1\n        /* \"#utility.yul\":7477:7488   */\n      swap2\n      pop\n        /* \"#utility.yul\":5323:7494   */\n      pop\n        /* \"#utility.yul\":5199:7494   */\n      swap3\n      swap2\n      pop\n      pop\n      jump\t// out\n        /* \"#utility.yul\":7500:7776   */\n    tag_167:\n        /* \"#utility.yul\":7629:7639   */\n      0x00\n        /* \"#utility.yul\":7664:7770   */\n      tag_283\n        /* \"#utility.yul\":7766:7769   */\n      dup4\n        /* \"#utility.yul\":7758:7764   */\n      dup4\n        /* \"#utility.yul\":7664:7770   */\n      tag_166\n      jump\t// in\n    tag_283:\n        /* \"#utility.yul\":7650:7770   */\n      swap1\n      pop\n        /* \"#utility.yul\":7500:7776   */\n      swap3\n      swap2\n      pop\n      pop\n      jump\t// out\n        /* \"#utility.yul\":7782:7925   */\n    tag_168:\n        /* \"#utility.yul\":7882:7886   */\n      0x00\n        /* \"#utility.yul\":7914:7918   */\n      0x20\n        /* \"#utility.yul\":7909:7912   */\n      dup3\n        /* \"#utility.yul\":7905:7919   */\n      add\n        /* \"#utility.yul\":7897:7919   */\n      swap1\n      pop\n        /* \"#utility.yul\":7782:7925   */\n      swap2\n      swap1\n      pop\n      jump\t// out\n        /* \"#utility.yul\":7987:9138   */\n    tag_169:\n        /* \"#utility.yul\":8166:8169   */\n      0x00\n        /* \"#utility.yul\":8195:8279   */\n      tag_286\n        /* \"#utility.yul\":8273:8278   */\n      dup3\n        /* \"#utility.yul\":8195:8279   */\n      tag_151\n      jump\t// in\n    tag_286:\n        /* \"#utility.yul\":8295:8411   */\n      tag_287\n        /* \"#utility.yul\":8404:8410   */\n      dup2\n        /* \"#utility.yul\":8399:8402   */\n      dup6\n        /* \"#utility.yul\":8295:8411   */\n      tag_152\n      jump\t// in\n    tag_287:\n        /* \"#utility.yul\":8288:8411   */\n      swap4\n      pop\n        /* \"#utility.yul\":8437:8440   */\n      dup4\n        /* \"#utility.yul\":8482:8486   */\n      0x20\n        /* \"#utility.yul\":8474:8480   */\n      dup3\n        /* \"#utility.yul\":8470:8487   */\n      mul\n        /* \"#utility.yul\":8465:8468   */\n      dup6\n        /* \"#utility.yul\":8461:8488   */\n      add\n        /* \"#utility.yul\":8512:8598   */\n      tag_288\n        /* \"#utility.yul\":8592:8597   */\n      dup6\n        /* \"#utility.yul\":8512:8598   */\n      tag_153\n      jump\t// in\n    tag_288:\n        /* \"#utility.yul\":8621:8628   */\n      dup1\n        /* \"#utility.yul\":8652:8653   */\n      0x00\n        /* \"#utility.yul\":8637:9093   */\n    tag_289:\n        /* \"#utility.yul\":8662:8668   */\n      dup6\n        /* \"#utility.yul\":8659:8660   */\n      dup2\n        /* \"#utility.yul\":8656:8669   */\n      lt\n        /* \"#utility.yul\":8637:9093   */\n      iszero\n      tag_291\n      jumpi\n        /* \"#utility.yul\":8733:8742   */\n      dup5\n        /* \"#utility.yul\":8727:8731   */\n      dup5\n        /* \"#utility.yul\":8723:8743   */\n      sub\n        /* \"#utility.yul\":8718:8721   */\n      dup10\n        /* \"#utility.yul\":8711:8744   */\n      mstore\n        /* \"#utility.yul\":8784:8790   */\n      dup2\n        /* \"#utility.yul\":8778:8791   */\n      mload\n        /* \"#utility.yul\":8812:8936   */\n      tag_292\n        /* \"#utility.yul\":8931:8935   */\n      dup6\n        /* \"#utility.yul\":8916:8929   */\n      dup3\n        /* \"#utility.yul\":8812:8936   */\n      tag_167\n      jump\t// in\n    tag_292:\n        /* \"#utility.yul\":8804:8936   */\n      swap5\n      pop\n        /* \"#utility.yul\":8959:9049   */\n      tag_293\n        /* \"#utility.yul\":9042:9048   */\n      dup4\n        /* \"#utility.yul\":8959:9049   */\n      tag_168\n      jump\t// in\n    tag_293:\n        /* \"#utility.yul\":8949:9049   */\n      swap3\n      pop\n        /* \"#utility.yul\":9078:9082   */\n      0x20\n        /* \"#utility.yul\":9073:9076   */\n      dup11\n        /* \"#utility.yul\":9069:9083   */\n      add\n        /* \"#utility.yul\":9062:9083   */\n      swap10\n      pop\n        /* \"#utility.yul\":8697:9093   */\n      pop\n        /* \"#utility.yul\":8684:8685   */\n      0x01\n        /* \"#utility.yul\":8681:8682   */\n      dup2\n        /* \"#utility.yul\":8677:8686   */\n      add\n        /* \"#utility.yul\":8672:8686   */\n      swap1\n      pop\n        /* \"#utility.yul\":8637:9093   */\n      jump(tag_289)\n    tag_291:\n        /* \"#utility.yul\":8641:8655   */\n      pop\n        /* \"#utility.yul\":9109:9113   */\n      dup3\n        /* \"#utility.yul\":9102:9113   */\n      swap8\n      pop\n        /* \"#utility.yul\":9129:9132   */\n      dup8\n        /* \"#utility.yul\":9122:9132   */\n      swap6\n      pop\n        /* \"#utility.yul\":8171:9138   */\n      pop\n      pop\n      pop\n      pop\n      pop\n        /* \"#utility.yul\":7987:9138   */\n      swap3\n      swap2\n      pop\n      pop\n      jump\t// out\n        /* \"#utility.yul\":9144:9637   */\n    tag_27:\n        /* \"#utility.yul\":9347:9351   */\n      0x00\n        /* \"#utility.yul\":9385:9387   */\n      0x20\n        /* \"#utility.yul\":9374:9383   */\n      dup3\n        /* \"#utility.yul\":9370:9388   */\n      add\n        /* \"#utility.yul\":9362:9388   */\n      swap1\n      pop\n        /* \"#utility.yul\":9434:9443   */\n      dup2\n        /* \"#utility.yul\":9428:9432   */\n      dup2\n        /* \"#utility.yul\":9424:9444   */\n      sub\n        /* \"#utility.yul\":9420:9421   */\n      0x00\n        /* \"#utility.yul\":9409:9418   */\n      dup4\n        /* \"#utility.yul\":9405:9422   */\n      add\n        /* \"#utility.yul\":9398:9445   */\n      mstore\n        /* \"#utility.yul\":9462:9630   */\n      tag_295\n        /* \"#utility.yul\":9625:9629   */\n      dup2\n        /* \"#utility.yul\":9616:9622   */\n      dup5\n        /* \"#utility.yul\":9462:9630   */\n      tag_169\n      jump\t// in\n    tag_295:\n        /* \"#utility.yul\":9454:9630   */\n      swap1\n      pop\n        /* \"#utility.yul\":9144:9637   */\n      swap3\n      swap2\n      pop\n      pop\n      jump\t// out\n        /* \"#utility.yul\":9643:9761   */\n    tag_170:\n        /* \"#utility.yul\":9730:9754   */\n      tag_297\n        /* \"#utility.yul\":9748:9753   */\n      dup2\n        /* \"#utility.yul\":9730:9754   */\n      tag_145\n      jump\t// in\n    tag_297:\n        /* \"#utility.yul\":9725:9728   */\n      dup3\n        /* \"#utility.yul\":9718:9755   */\n      mstore\n        /* \"#utility.yul\":9643:9761   */\n      pop\n      pop\n      jump\t// out\n        /* \"#utility.yul\":9767:9989   */\n    tag_31:\n        /* \"#utility.yul\":9860:9864   */\n      0x00\n        /* \"#utility.yul\":9898:9900   */\n      0x20\n        /* \"#utility.yul\":9887:9896   */\n      dup3\n        /* \"#utility.yul\":9883:9901   */\n      add\n        /* \"#utility.yul\":9875:9901   */\n      swap1\n      pop\n        /* \"#utility.yul\":9911:9982   */\n      tag_299\n        /* \"#utility.yul\":9979:9980   */\n      0x00\n        /* \"#utility.yul\":9968:9977   */\n      dup4\n        /* \"#utility.yul\":9964:9981   */\n      add\n        /* \"#utility.yul\":9955:9961   */\n      dup5\n        /* \"#utility.yul\":9911:9982   */\n      tag_170\n      jump\t// in\n    tag_299:\n        /* \"#utility.yul\":9767:9989   */\n      swap3\n      swap2\n      pop\n      pop\n      jump\t// out\n        /* \"#utility.yul\":9995:10112   */\n    tag_171:\n        /* \"#utility.yul\":10104:10105   */\n      0x00\n        /* \"#utility.yul\":10101:10102   */\n      dup1\n        /* \"#utility.yul\":10094:10106   */\n      revert\n        /* \"#utility.yul\":10118:10298   */\n    tag_172:\n        /* \"#utility.yul\":10166:10243   */\n      0x4e487b7100000000000000000000000000000000000000000000000000000000\n        /* \"#utility.yul\":10163:10164   */\n      0x00\n        /* \"#utility.yul\":10156:10244   */\n      mstore\n        /* \"#utility.yul\":10263:10267   */\n      0x41\n        /* \"#utility.yul\":10260:10261   */\n      0x04\n        /* \"#utility.yul\":10253:10268   */\n      mstore\n        /* \"#utility.yul\":10287:10291   */\n      0x24\n        /* \"#utility.yul\":10284:10285   */\n      0x00\n        /* \"#utility.yul\":10277:10292   */\n      revert\n        /* \"#utility.yul\":10304:10585   */\n    tag_173:\n        /* \"#utility.yul\":10387:10414   */\n      tag_303\n        /* \"#utility.yul\":10409:10413   */\n      dup3\n        /* \"#utility.yul\":10387:10414   */\n      tag_164\n      jump\t// in\n    tag_303:\n        /* \"#utility.yul\":10379:10385   */\n      dup2\n        /* \"#utility.yul\":10375:10415   */\n      add\n        /* \"#utility.yul\":10517:10523   */\n      dup2\n        /* \"#utility.yul\":10505:10515   */\n      dup2\n        /* \"#utility.yul\":10502:10524   */\n      lt\n        /* \"#utility.yul\":10481:10499   */\n      0xffffffffffffffff\n        /* \"#utility.yul\":10469:10479   */\n      dup3\n        /* \"#utility.yul\":10466:10500   */\n      gt\n        /* \"#utility.yul\":10463:10525   */\n      or\n        /* \"#utility.yul\":10460:10548   */\n      iszero\n      tag_304\n      jumpi\n        /* \"#utility.yul\":10528:10546   */\n      tag_305\n      tag_172\n      jump\t// in\n    tag_305:\n        /* \"#utility.yul\":10460:10548   */\n    tag_304:\n        /* \"#utility.yul\":10568:10578   */\n      dup1\n        /* \"#utility.yul\":10564:10566   */\n      0x40\n        /* \"#utility.yul\":10557:10579   */\n      mstore\n        /* \"#utility.yul\":10347:10585   */\n      pop\n        /* \"#utility.yul\":10304:10585   */\n      pop\n      pop\n      jump\t// out\n        /* \"#utility.yul\":10591:10720   */\n    tag_174:\n        /* \"#utility.yul\":10625:10631   */\n      0x00\n        /* \"#utility.yul\":10652:10672   */\n      tag_307\n      tag_141\n      jump\t// in\n    tag_307:\n        /* \"#utility.yul\":10642:10672   */\n      swap1\n      pop\n        /* \"#utility.yul\":10681:10714   */\n      tag_308\n        /* \"#utility.yul\":10709:10713   */\n      dup3\n        /* \"#utility.yul\":10701:10707   */\n      dup3\n        /* \"#utility.yul\":10681:10714   */\n      tag_173\n      jump\t// in\n    tag_308:\n        /* \"#utility.yul\":10591:10720   */\n      swap2\n      swap1\n      pop\n      jump\t// out\n        /* \"#utility.yul\":10726:10843   */\n    tag_175:\n        /* \"#utility.yul\":10835:10836   */\n      0x00\n        /* \"#utility.yul\":10832:10833   */\n      dup1\n        /* \"#utility.yul\":10825:10837   */\n      revert\n        /* \"#utility.yul\":10849:10966   */\n    tag_176:\n        /* \"#utility.yul\":10958:10959   */\n      0x00\n        /* \"#utility.yul\":10955:10956   */\n      dup1\n        /* \"#utility.yul\":10948:10960   */\n      revert\n        /* \"#utility.yul\":10972:11283   */\n    tag_177:\n        /* \"#utility.yul\":11049:11053   */\n      0x00\n        /* \"#utility.yul\":11139:11157   */\n      0xffffffffffffffff\n        /* \"#utility.yul\":11131:11137   */\n      dup3\n        /* \"#utility.yul\":11128:11158   */\n      gt\n        /* \"#utility.yul\":11125:11181   */\n      iszero\n      tag_312\n      jumpi\n        /* \"#utility.yul\":11161:11179   */\n      tag_313\n      tag_172\n      jump\t// in\n    tag_313:\n        /* \"#utility.yul\":11125:11181   */\n    tag_312:\n        /* \"#utility.yul\":11211:11215   */\n      0x20\n        /* \"#utility.yul\":11203:11209   */\n      dup3\n        /* \"#utility.yul\":11199:11216   */\n      mul\n        /* \"#utility.yul\":11191:11216   */\n      swap1\n      pop\n        /* \"#utility.yul\":11271:11275   */\n      0x20\n        /* \"#utility.yul\":11265:11269   */\n      dup2\n        /* \"#utility.yul\":11261:11276   */\n      add\n        /* \"#utility.yul\":11253:11276   */\n      swap1\n      pop\n        /* \"#utility.yul\":10972:11283   */\n      swap2\n      swap1\n      pop\n      jump\t// out\n        /* \"#utility.yul\":11289:11406   */\n    tag_178:\n        /* \"#utility.yul\":11398:11399   */\n      0x00\n        /* \"#utility.yul\":11395:11396   */\n      dup1\n        /* \"#utility.yul\":11388:11400   */\n      revert\n        /* \"#utility.yul\":11429:12139   */\n    tag_179:\n        /* \"#utility.yul\":11525:11530   */\n      0x00\n        /* \"#utility.yul\":11550:11631   */\n      tag_316\n        /* \"#utility.yul\":11566:11630   */\n      tag_317\n        /* \"#utility.yul\":11623:11629   */\n      dup5\n        /* \"#utility.yul\":11566:11630   */\n      tag_177\n      jump\t// in\n    tag_317:\n        /* \"#utility.yul\":11550:11631   */\n      tag_174\n      jump\t// in\n    tag_316:\n        /* \"#utility.yul\":11541:11631   */\n      swap1\n      pop\n        /* \"#utility.yul\":11651:11656   */\n      dup1\n        /* \"#utility.yul\":11680:11686   */\n      dup4\n        /* \"#utility.yul\":11673:11678   */\n      dup3\n        /* \"#utility.yul\":11666:11687   */\n      mstore\n        /* \"#utility.yul\":11714:11718   */\n      0x20\n        /* \"#utility.yul\":11707:11712   */\n      dup3\n        /* \"#utility.yul\":11703:11719   */\n      add\n        /* \"#utility.yul\":11696:11719   */\n      swap1\n      pop\n        /* \"#utility.yul\":11767:11771   */\n      0x20\n        /* \"#utility.yul\":11759:11765   */\n      dup5\n        /* \"#utility.yul\":11755:11772   */\n      mul\n        /* \"#utility.yul\":11747:11753   */\n      dup4\n        /* \"#utility.yul\":11743:11773   */\n      add\n        /* \"#utility.yul\":11796:11799   */\n      dup6\n        /* \"#utility.yul\":11788:11794   */\n      dup2\n        /* \"#utility.yul\":11785:11800   */\n      gt\n        /* \"#utility.yul\":11782:11904   */\n      iszero\n      tag_318\n      jumpi\n        /* \"#utility.yul\":11815:11894   */\n      tag_319\n      tag_178\n      jump\t// in\n    tag_319:\n        /* \"#utility.yul\":11782:11904   */\n    tag_318:\n        /* \"#utility.yul\":11930:11936   */\n      dup4\n        /* \"#utility.yul\":11913:12133   */\n    tag_320:\n        /* \"#utility.yul\":11947:11953   */\n      dup2\n        /* \"#utility.yul\":11942:11945   */\n      dup2\n        /* \"#utility.yul\":11939:11954   */\n      lt\n        /* \"#utility.yul\":11913:12133   */\n      iszero\n      tag_322\n      jumpi\n        /* \"#utility.yul\":12022:12025   */\n      dup1\n        /* \"#utility.yul\":12051:12088   */\n      tag_323\n        /* \"#utility.yul\":12084:12087   */\n      dup9\n        /* \"#utility.yul\":12072:12082   */\n      dup3\n        /* \"#utility.yul\":12051:12088   */\n      tag_150\n      jump\t// in\n    tag_323:\n        /* \"#utility.yul\":12046:12049   */\n      dup5\n        /* \"#utility.yul\":12039:12089   */\n      mstore\n        /* \"#utility.yul\":12118:12122   */\n      0x20\n        /* \"#utility.yul\":12113:12116   */\n      dup5\n        /* \"#utility.yul\":12109:12123   */\n      add\n        /* \"#utility.yul\":12102:12123   */\n      swap4\n      pop\n        /* \"#utility.yul\":11989:12133   */\n      pop\n        /* \"#utility.yul\":11973:11977   */\n      0x20\n        /* \"#utility.yul\":11968:11971   */\n      dup2\n        /* \"#utility.yul\":11964:11978   */\n      add\n        /* \"#utility.yul\":11957:11978   */\n      swap1\n      pop\n        /* \"#utility.yul\":11913:12133   */\n      jump(tag_320)\n    tag_322:\n        /* \"#utility.yul\":11917:11938   */\n      pop\n        /* \"#utility.yul\":11531:12139   */\n      pop\n      pop\n        /* \"#utility.yul\":11429:12139   */\n      swap4\n      swap3\n      pop\n      pop\n      pop\n      jump\t// out\n        /* \"#utility.yul\":12162:12532   */\n    tag_180:\n        /* \"#utility.yul\":12233:12238   */\n      0x00\n        /* \"#utility.yul\":12282:12285   */\n      dup3\n        /* \"#utility.yul\":12275:12279   */\n      0x1f\n        /* \"#utility.yul\":12267:12273   */\n      dup4\n        /* \"#utility.yul\":12263:12280   */\n      add\n        /* \"#utility.yul\":12259:12286   */\n      slt\n        /* \"#utility.yul\":12249:12371   */\n      tag_325\n      jumpi\n        /* \"#utility.yul\":12290:12369   */\n      tag_326\n      tag_176\n      jump\t// in\n    tag_326:\n        /* \"#utility.yul\":12249:12371   */\n    tag_325:\n        /* \"#utility.yul\":12407:12413   */\n      dup2\n        /* \"#utility.yul\":12394:12414   */\n      calldataload\n        /* \"#utility.yul\":12432:12526   */\n      tag_327\n        /* \"#utility.yul\":12522:12525   */\n      dup5\n        /* \"#utility.yul\":12514:12520   */\n      dup3\n        /* \"#utility.yul\":12507:12511   */\n      0x20\n        /* \"#utility.yul\":12499:12505   */\n      dup7\n        /* \"#utility.yul\":12495:12512   */\n      add\n        /* \"#utility.yul\":12432:12526   */\n      tag_179\n      jump\t// in\n    tag_327:\n        /* \"#utility.yul\":12423:12526   */\n      swap2\n      pop\n        /* \"#utility.yul\":12239:12532   */\n      pop\n        /* \"#utility.yul\":12162:12532   */\n      swap3\n      swap2\n      pop\n      pop\n      jump\t// out\n        /* \"#utility.yul\":12538:12655   */\n    tag_181:\n        /* \"#utility.yul\":12647:12648   */\n      0x00\n        /* \"#utility.yul\":12644:12645   */\n      dup1\n        /* \"#utility.yul\":12637:12649   */\n      revert\n        /* \"#utility.yul\":12661:12969   */\n    tag_182:\n        /* \"#utility.yul\":12723:12727   */\n      0x00\n        /* \"#utility.yul\":12813:12831   */\n      0xffffffffffffffff\n        /* \"#utility.yul\":12805:12811   */\n      dup3\n        /* \"#utility.yul\":12802:12832   */\n      gt\n        /* \"#utility.yul\":12799:12855   */\n      iszero\n      tag_330\n      jumpi\n        /* \"#utility.yul\":12835:12853   */\n      tag_331\n      tag_172\n      jump\t// in\n    tag_331:\n        /* \"#utility.yul\":12799:12855   */\n    tag_330:\n        /* \"#utility.yul\":12873:12902   */\n      tag_332\n        /* \"#utility.yul\":12895:12901   */\n      dup3\n        /* \"#utility.yul\":12873:12902   */\n      tag_164\n      jump\t// in\n    tag_332:\n        /* \"#utility.yul\":12865:12902   */\n      swap1\n      pop\n        /* \"#utility.yul\":12957:12961   */\n      0x20\n        /* \"#utility.yul\":12951:12955   */\n      dup2\n        /* \"#utility.yul\":12947:12962   */\n      add\n        /* \"#utility.yul\":12939:12962   */\n      swap1\n      pop\n        /* \"#utility.yul\":12661:12969   */\n      swap2\n      swap1\n      pop\n      jump\t// out\n        /* \"#utility.yul\":12975:13121   */\n    tag_183:\n        /* \"#utility.yul\":13072:13078   */\n      dup3\n        /* \"#utility.yul\":13067:13070   */\n      dup2\n        /* \"#utility.yul\":13062:13065   */\n      dup4\n        /* \"#utility.yul\":13049:13079   */\n      calldatacopy\n        /* \"#utility.yul\":13113:13114   */\n      0x00\n        /* \"#utility.yul\":13104:13110   */\n      dup4\n        /* \"#utility.yul\":13099:13102   */\n      dup4\n        /* \"#utility.yul\":13095:13111   */\n      add\n        /* \"#utility.yul\":13088:13115   */\n      mstore\n        /* \"#utility.yul\":12975:13121   */\n      pop\n      pop\n      pop\n      jump\t// out\n        /* \"#utility.yul\":13127:13552   */\n    tag_184:\n        /* \"#utility.yul\":13205:13210   */\n      0x00\n        /* \"#utility.yul\":13230:13296   */\n      tag_335\n        /* \"#utility.yul\":13246:13295   */\n      tag_336\n        /* \"#utility.yul\":13288:13294   */\n      dup5\n        /* \"#utility.yul\":13246:13295   */\n      tag_182\n      jump\t// in\n    tag_336:\n        /* \"#utility.yul\":13230:13296   */\n      tag_174\n      jump\t// in\n    tag_335:\n        /* \"#utility.yul\":13221:13296   */\n      swap1\n      pop\n        /* \"#utility.yul\":13319:13325   */\n      dup3\n        /* \"#utility.yul\":13312:13317   */\n      dup2\n        /* \"#utility.yul\":13305:13326   */\n      mstore\n        /* \"#utility.yul\":13357:13361   */\n      0x20\n        /* \"#utility.yul\":13350:13355   */\n      dup2\n        /* \"#utility.yul\":13346:13362   */\n      add\n        /* \"#utility.yul\":13395:13398   */\n      dup5\n        /* \"#utility.yul\":13386:13392   */\n      dup5\n        /* \"#utility.yul\":13381:13384   */\n      dup5\n        /* \"#utility.yul\":13377:13393   */\n      add\n        /* \"#utility.yul\":13374:13399   */\n      gt\n        /* \"#utility.yul\":13371:13483   */\n      iszero\n      tag_337\n      jumpi\n        /* \"#utility.yul\":13402:13481   */\n      tag_338\n      tag_181\n      jump\t// in\n    tag_338:\n        /* \"#utility.yul\":13371:13483   */\n    tag_337:\n        /* \"#utility.yul\":13492:13546   */\n      tag_339\n        /* \"#utility.yul\":13539:13545   */\n      dup5\n        /* \"#utility.yul\":13534:13537   */\n      dup3\n        /* \"#utility.yul\":13529:13532   */\n      dup6\n        /* \"#utility.yul\":13492:13546   */\n      tag_183\n      jump\t// in\n    tag_339:\n        /* \"#utility.yul\":13211:13552   */\n      pop\n        /* \"#utility.yul\":13127:13552   */\n      swap4\n      swap3\n      pop\n      pop\n      pop\n      jump\t// out\n        /* \"#utility.yul\":13572:13912   */\n    tag_185:\n        /* \"#utility.yul\":13628:13633   */\n      0x00\n        /* \"#utility.yul\":13677:13680   */\n      dup3\n        /* \"#utility.yul\":13670:13674   */\n      0x1f\n        /* \"#utility.yul\":13662:13668   */\n      dup4\n        /* \"#utility.yul\":13658:13675   */\n      add\n        /* \"#utility.yul\":13654:13681   */\n      slt\n        /* \"#utility.yul\":13644:13766   */\n      tag_341\n      jumpi\n        /* \"#utility.yul\":13685:13764   */\n      tag_342\n      tag_176\n      jump\t// in\n    tag_342:\n        /* \"#utility.yul\":13644:13766   */\n    tag_341:\n        /* \"#utility.yul\":13802:13808   */\n      dup2\n        /* \"#utility.yul\":13789:13809   */\n      calldataload\n        /* \"#utility.yul\":13827:13906   */\n      tag_343\n        /* \"#utility.yul\":13902:13905   */\n      dup5\n        /* \"#utility.yul\":13894:13900   */\n      dup3\n        /* \"#utility.yul\":13887:13891   */\n      0x20\n        /* \"#utility.yul\":13879:13885   */\n      dup7\n        /* \"#utility.yul\":13875:13892   */\n      add\n        /* \"#utility.yul\":13827:13906   */\n      tag_184\n      jump\t// in\n    tag_343:\n        /* \"#utility.yul\":13818:13906   */\n      swap2\n      pop\n        /* \"#utility.yul\":13634:13912   */\n      pop\n        /* \"#utility.yul\":13572:13912   */\n      swap3\n      swap2\n      pop\n      pop\n      jump\t// out\n        /* \"#utility.yul\":13946:16634   */\n    tag_186:\n        /* \"#utility.yul\":14025:14030   */\n      0x00\n        /* \"#utility.yul\":14069:14075   */\n      0x0120\n        /* \"#utility.yul\":14057:14066   */\n      dup3\n        /* \"#utility.yul\":14052:14055   */\n      dup5\n        /* \"#utility.yul\":14048:14067   */\n      sub\n        /* \"#utility.yul\":14044:14076   */\n      slt\n        /* \"#utility.yul\":14041:14160   */\n      iszero\n      tag_345\n      jumpi\n        /* \"#utility.yul\":14079:14158   */\n      tag_346\n      tag_171\n      jump\t// in\n    tag_346:\n        /* \"#utility.yul\":14041:14160   */\n    tag_345:\n        /* \"#utility.yul\":14178:14201   */\n      tag_347\n        /* \"#utility.yul\":14194:14200   */\n      0x0120\n        /* \"#utility.yul\":14178:14201   */\n      tag_174\n      jump\t// in\n    tag_347:\n        /* \"#utility.yul\":14169:14201   */\n      swap1\n      pop\n        /* \"#utility.yul\":14270:14271   */\n      0x00\n        /* \"#utility.yul\":14310:14359   */\n      tag_348\n        /* \"#utility.yul\":14355:14358   */\n      dup5\n        /* \"#utility.yul\":14346:14352   */\n      dup3\n        /* \"#utility.yul\":14335:14344   */\n      dup6\n        /* \"#utility.yul\":14331:14353   */\n      add\n        /* \"#utility.yul\":14310:14359   */\n      tag_150\n      jump\t// in\n    tag_348:\n        /* \"#utility.yul\":14303:14307   */\n      0x00\n        /* \"#utility.yul\":14296:14301   */\n      dup4\n        /* \"#utility.yul\":14292:14308   */\n      add\n        /* \"#utility.yul\":14285:14360   */\n      mstore\n        /* \"#utility.yul\":14211:14371   */\n      pop\n        /* \"#utility.yul\":14433:14435   */\n      0x20\n        /* \"#utility.yul\":14474:14523   */\n      tag_349\n        /* \"#utility.yul\":14519:14522   */\n      dup5\n        /* \"#utility.yul\":14510:14516   */\n      dup3\n        /* \"#utility.yul\":14499:14508   */\n      dup6\n        /* \"#utility.yul\":14495:14517   */\n      add\n        /* \"#utility.yul\":14474:14523   */\n      tag_150\n      jump\t// in\n    tag_349:\n        /* \"#utility.yul\":14467:14471   */\n      0x20\n        /* \"#utility.yul\":14460:14465   */\n      dup4\n        /* \"#utility.yul\":14456:14472   */\n      add\n        /* \"#utility.yul\":14449:14524   */\n      mstore\n        /* \"#utility.yul\":14381:14535   */\n      pop\n        /* \"#utility.yul\":14601:14603   */\n      0x40\n        /* \"#utility.yul\":14642:14691   */\n      tag_350\n        /* \"#utility.yul\":14687:14690   */\n      dup5\n        /* \"#utility.yul\":14678:14684   */\n      dup3\n        /* \"#utility.yul\":14667:14676   */\n      dup6\n        /* \"#utility.yul\":14663:14685   */\n      add\n        /* \"#utility.yul\":14642:14691   */\n      tag_150\n      jump\t// in\n    tag_350:\n        /* \"#utility.yul\":14635:14639   */\n      0x40\n        /* \"#utility.yul\":14628:14633   */\n      dup4\n        /* \"#utility.yul\":14624:14640   */\n      add\n        /* \"#utility.yul\":14617:14692   */\n      mstore\n        /* \"#utility.yul\":14545:14703   */\n      pop\n        /* \"#utility.yul\":14772:14774   */\n      0x60\n        /* \"#utility.yul\":14813:14862   */\n      tag_351\n        /* \"#utility.yul\":14858:14861   */\n      dup5\n        /* \"#utility.yul\":14849:14855   */\n      dup3\n        /* \"#utility.yul\":14838:14847   */\n      dup6\n        /* \"#utility.yul\":14834:14856   */\n      add\n        /* \"#utility.yul\":14813:14862   */\n      tag_150\n      jump\t// in\n    tag_351:\n        /* \"#utility.yul\":14806:14810   */\n      0x60\n        /* \"#utility.yul\":14799:14804   */\n      dup4\n        /* \"#utility.yul\":14795:14811   */\n      add\n        /* \"#utility.yul\":14788:14863   */\n      mstore\n        /* \"#utility.yul\":14713:14874   */\n      pop\n        /* \"#utility.yul\":14971:14974   */\n      0x80\n        /* \"#utility.yul\":14960:14969   */\n      dup3\n        /* \"#utility.yul\":14956:14975   */\n      add\n        /* \"#utility.yul\":14943:14976   */\n      calldataload\n        /* \"#utility.yul\":15003:15021   */\n      0xffffffffffffffff\n        /* \"#utility.yul\":14995:15001   */\n      dup2\n        /* \"#utility.yul\":14992:15022   */\n      gt\n        /* \"#utility.yul\":14989:15106   */\n      iszero\n      tag_352\n      jumpi\n        /* \"#utility.yul\":15025:15104   */\n      tag_353\n      tag_175\n      jump\t// in\n    tag_353:\n        /* \"#utility.yul\":14989:15106   */\n    tag_352:\n        /* \"#utility.yul\":15145:15219   */\n      tag_354\n        /* \"#utility.yul\":15215:15218   */\n      dup5\n        /* \"#utility.yul\":15206:15212   */\n      dup3\n        /* \"#utility.yul\":15195:15204   */\n      dup6\n        /* \"#utility.yul\":15191:15213   */\n      add\n        /* \"#utility.yul\":15145:15219   */\n      tag_180\n      jump\t// in\n    tag_354:\n        /* \"#utility.yul\":15138:15142   */\n      0x80\n        /* \"#utility.yul\":15131:15136   */\n      dup4\n        /* \"#utility.yul\":15127:15143   */\n      add\n        /* \"#utility.yul\":15120:15220   */\n      mstore\n        /* \"#utility.yul\":14884:15231   */\n      pop\n        /* \"#utility.yul\":15324:15327   */\n      0xa0\n        /* \"#utility.yul\":15313:15322   */\n      dup3\n        /* \"#utility.yul\":15309:15328   */\n      add\n        /* \"#utility.yul\":15296:15329   */\n      calldataload\n        /* \"#utility.yul\":15356:15374   */\n      0xffffffffffffffff\n        /* \"#utility.yul\":15348:15354   */\n      dup2\n        /* \"#utility.yul\":15345:15375   */\n      gt\n        /* \"#utility.yul\":15342:15459   */\n      iszero\n      tag_355\n      jumpi\n        /* \"#utility.yul\":15378:15457   */\n      tag_356\n      tag_175\n      jump\t// in\n    tag_356:\n        /* \"#utility.yul\":15342:15459   */\n    tag_355:\n        /* \"#utility.yul\":15498:15572   */\n      tag_357\n        /* \"#utility.yul\":15568:15571   */\n      dup5\n        /* \"#utility.yul\":15559:15565   */\n      dup3\n        /* \"#utility.yul\":15548:15557   */\n      dup6\n        /* \"#utility.yul\":15544:15566   */\n      add\n        /* \"#utility.yul\":15498:15572   */\n      tag_180\n      jump\t// in\n    tag_357:\n        /* \"#utility.yul\":15491:15495   */\n      0xa0\n        /* \"#utility.yul\":15484:15489   */\n      dup4\n        /* \"#utility.yul\":15480:15496   */\n      add\n        /* \"#utility.yul\":15473:15573   */\n      mstore\n        /* \"#utility.yul\":15241:15584   */\n      pop\n        /* \"#utility.yul\":15675:15678   */\n      0xc0\n        /* \"#utility.yul\":15664:15673   */\n      dup3\n        /* \"#utility.yul\":15660:15679   */\n      add\n        /* \"#utility.yul\":15647:15680   */\n      calldataload\n        /* \"#utility.yul\":15707:15725   */\n      0xffffffffffffffff\n        /* \"#utility.yul\":15699:15705   */\n      dup2\n        /* \"#utility.yul\":15696:15726   */\n      gt\n        /* \"#utility.yul\":15693:15810   */\n      iszero\n      tag_358\n      jumpi\n        /* \"#utility.yul\":15729:15808   */\n      tag_359\n      tag_175\n      jump\t// in\n    tag_359:\n        /* \"#utility.yul\":15693:15810   */\n    tag_358:\n        /* \"#utility.yul\":15849:15923   */\n      tag_360\n        /* \"#utility.yul\":15919:15922   */\n      dup5\n        /* \"#utility.yul\":15910:15916   */\n      dup3\n        /* \"#utility.yul\":15899:15908   */\n      dup6\n        /* \"#utility.yul\":15895:15917   */\n      add\n        /* \"#utility.yul\":15849:15923   */\n      tag_180\n      jump\t// in\n    tag_360:\n        /* \"#utility.yul\":15842:15846   */\n      0xc0\n        /* \"#utility.yul\":15835:15840   */\n      dup4\n        /* \"#utility.yul\":15831:15847   */\n      add\n        /* \"#utility.yul\":15824:15924   */\n      mstore\n        /* \"#utility.yul\":15594:15935   */\n      pop\n        /* \"#utility.yul\":16029:16032   */\n      0xe0\n        /* \"#utility.yul\":16018:16027   */\n      dup3\n        /* \"#utility.yul\":16014:16033   */\n      add\n        /* \"#utility.yul\":16001:16034   */\n      calldataload\n        /* \"#utility.yul\":16061:16079   */\n      0xffffffffffffffff\n        /* \"#utility.yul\":16053:16059   */\n      dup2\n        /* \"#utility.yul\":16050:16080   */\n      gt\n        /* \"#utility.yul\":16047:16164   */\n      iszero\n      tag_361\n      jumpi\n        /* \"#utility.yul\":16083:16162   */\n      tag_362\n      tag_175\n      jump\t// in\n    tag_362:\n        /* \"#utility.yul\":16047:16164   */\n    tag_361:\n        /* \"#utility.yul\":16203:16277   */\n      tag_363\n        /* \"#utility.yul\":16273:16276   */\n      dup5\n        /* \"#utility.yul\":16264:16270   */\n      dup3\n        /* \"#utility.yul\":16253:16262   */\n      dup6\n        /* \"#utility.yul\":16249:16271   */\n      add\n        /* \"#utility.yul\":16203:16277   */\n      tag_180\n      jump\t// in\n    tag_363:\n        /* \"#utility.yul\":16196:16200   */\n      0xe0\n        /* \"#utility.yul\":16189:16194   */\n      dup4\n        /* \"#utility.yul\":16185:16201   */\n      add\n        /* \"#utility.yul\":16178:16278   */\n      mstore\n        /* \"#utility.yul\":15945:16289   */\n      pop\n        /* \"#utility.yul\":16380:16383   */\n      0x0100\n        /* \"#utility.yul\":16369:16378   */\n      dup3\n        /* \"#utility.yul\":16365:16384   */\n      add\n        /* \"#utility.yul\":16352:16385   */\n      calldataload\n        /* \"#utility.yul\":16412:16430   */\n      0xffffffffffffffff\n        /* \"#utility.yul\":16404:16410   */\n      dup2\n        /* \"#utility.yul\":16401:16431   */\n      gt\n        /* \"#utility.yul\":16398:16515   */\n      iszero\n      tag_364\n      jumpi\n        /* \"#utility.yul\":16434:16513   */\n      tag_365\n      tag_175\n      jump\t// in\n    tag_365:\n        /* \"#utility.yul\":16398:16515   */\n    tag_364:\n        /* \"#utility.yul\":16556:16615   */\n      tag_366\n        /* \"#utility.yul\":16611:16614   */\n      dup5\n        /* \"#utility.yul\":16602:16608   */\n      dup3\n        /* \"#utility.yul\":16591:16600   */\n      dup6\n        /* \"#utility.yul\":16587:16609   */\n      add\n        /* \"#utility.yul\":16556:16615   */\n      tag_185\n      jump\t// in\n    tag_366:\n        /* \"#utility.yul\":16547:16553   */\n      0x0100\n        /* \"#utility.yul\":16540:16545   */\n      dup4\n        /* \"#utility.yul\":16536:16554   */\n      add\n        /* \"#utility.yul\":16529:16616   */\n      mstore\n        /* \"#utility.yul\":16299:16627   */\n      pop\n        /* \"#utility.yul\":13946:16634   */\n      swap3\n      swap2\n      pop\n      pop\n      jump\t// out\n        /* \"#utility.yul\":16640:17189   */\n    tag_40:\n        /* \"#utility.yul\":16729:16735   */\n      0x00\n        /* \"#utility.yul\":16778:16780   */\n      0x20\n        /* \"#utility.yul\":16766:16775   */\n      dup3\n        /* \"#utility.yul\":16757:16764   */\n      dup5\n        /* \"#utility.yul\":16753:16776   */\n      sub\n        /* \"#utility.yul\":16749:16781   */\n      slt\n        /* \"#utility.yul\":16746:16865   */\n      iszero\n      tag_368\n      jumpi\n        /* \"#utility.yul\":16784:16863   */\n      tag_369\n      tag_142\n      jump\t// in\n    tag_369:\n        /* \"#utility.yul\":16746:16865   */\n    tag_368:\n        /* \"#utility.yul\":16932:16933   */\n      0x00\n        /* \"#utility.yul\":16921:16930   */\n      dup3\n        /* \"#utility.yul\":16917:16934   */\n      add\n        /* \"#utility.yul\":16904:16935   */\n      calldataload\n        /* \"#utility.yul\":16962:16980   */\n      0xffffffffffffffff\n        /* \"#utility.yul\":16954:16960   */\n      dup2\n        /* \"#utility.yul\":16951:16981   */\n      gt\n        /* \"#utility.yul\":16948:17065   */\n      iszero\n      tag_370\n      jumpi\n        /* \"#utility.yul\":16984:17063   */\n      tag_371\n      tag_143\n      jump\t// in\n    tag_371:\n        /* \"#utility.yul\":16948:17065   */\n    tag_370:\n        /* \"#utility.yul\":17089:17172   */\n      tag_372\n        /* \"#utility.yul\":17164:17171   */\n      dup5\n        /* \"#utility.yul\":17155:17161   */\n      dup3\n        /* \"#utility.yul\":17144:17153   */\n      dup6\n        /* \"#utility.yul\":17140:17162   */\n      add\n        /* \"#utility.yul\":17089:17172   */\n      tag_186\n      jump\t// in\n    tag_372:\n        /* \"#utility.yul\":17079:17172   */\n      swap2\n      pop\n        /* \"#utility.yul\":16875:17182   */\n      pop\n        /* \"#utility.yul\":16640:17189   */\n      swap3\n      swap2\n      pop\n      pop\n      jump\t// out\n        /* \"#utility.yul\":17195:17364   */\n    tag_187:\n        /* \"#utility.yul\":17279:17290   */\n      0x00\n        /* \"#utility.yul\":17313:17319   */\n      dup3\n        /* \"#utility.yul\":17308:17311   */\n      dup3\n        /* \"#utility.yul\":17301:17320   */\n      mstore\n        /* \"#utility.yul\":17353:17357   */\n      0x20\n        /* \"#utility.yul\":17348:17351   */\n      dup3\n        /* \"#utility.yul\":17344:17358   */\n      add\n        /* \"#utility.yul\":17329:17358   */\n      swap1\n      pop\n        /* \"#utility.yul\":17195:17364   */\n      swap3\n      swap2\n      pop\n      pop\n      jump\t// out\n        /* \"#utility.yul\":17370:17599   */\n    tag_188:\n        /* \"#utility.yul\":17510:17544   */\n      0x4f776e657244617461626173653a207065726d697373696f6e20686173206265\n        /* \"#utility.yul\":17506:17507   */\n      0x00\n        /* \"#utility.yul\":17498:17504   */\n      dup3\n        /* \"#utility.yul\":17494:17508   */\n      add\n        /* \"#utility.yul\":17487:17545   */\n      mstore\n        /* \"#utility.yul\":17579:17591   */\n      0x656e206772616e74656400000000000000000000000000000000000000000000\n        /* \"#utility.yul\":17574:17576   */\n      0x20\n        /* \"#utility.yul\":17566:17572   */\n      dup3\n        /* \"#utility.yul\":17562:17577   */\n      add\n        /* \"#utility.yul\":17555:17592   */\n      mstore\n        /* \"#utility.yul\":17370:17599   */\n      pop\n      jump\t// out\n        /* \"#utility.yul\":17605:17971   */\n    tag_189:\n        /* \"#utility.yul\":17747:17750   */\n      0x00\n        /* \"#utility.yul\":17768:17835   */\n      tag_376\n        /* \"#utility.yul\":17832:17834   */\n      0x2a\n        /* \"#utility.yul\":17827:17830   */\n      dup4\n        /* \"#utility.yul\":17768:17835   */\n      tag_187\n      jump\t// in\n    tag_376:\n        /* \"#utility.yul\":17761:17835   */\n      swap2\n      pop\n        /* \"#utility.yul\":17844:17937   */\n      tag_377\n        /* \"#utility.yul\":17933:17936   */\n      dup3\n        /* \"#utility.yul\":17844:17937   */\n      tag_188\n      jump\t// in\n    tag_377:\n        /* \"#utility.yul\":17962:17964   */\n      0x40\n        /* \"#utility.yul\":17957:17960   */\n      dup3\n        /* \"#utility.yul\":17953:17965   */\n      add\n        /* \"#utility.yul\":17946:17965   */\n      swap1\n      pop\n        /* \"#utility.yul\":17605:17971   */\n      swap2\n      swap1\n      pop\n      jump\t// out\n        /* \"#utility.yul\":17977:18396   */\n    tag_54:\n        /* \"#utility.yul\":18143:18147   */\n      0x00\n        /* \"#utility.yul\":18181:18183   */\n      0x20\n        /* \"#utility.yul\":18170:18179   */\n      dup3\n        /* \"#utility.yul\":18166:18184   */\n      add\n        /* \"#utility.yul\":18158:18184   */\n      swap1\n      pop\n        /* \"#utility.yul\":18230:18239   */\n      dup2\n        /* \"#utility.yul\":18224:18228   */\n      dup2\n        /* \"#utility.yul\":18220:18240   */\n      sub\n        /* \"#utility.yul\":18216:18217   */\n      0x00\n        /* \"#utility.yul\":18205:18214   */\n      dup4\n        /* \"#utility.yul\":18201:18218   */\n      add\n        /* \"#utility.yul\":18194:18241   */\n      mstore\n        /* \"#utility.yul\":18258:18389   */\n      tag_379\n        /* \"#utility.yul\":18384:18388   */\n      dup2\n        /* \"#utility.yul\":18258:18389   */\n      tag_189\n      jump\t// in\n    tag_379:\n        /* \"#utility.yul\":18250:18389   */\n      swap1\n      pop\n        /* \"#utility.yul\":17977:18396   */\n      swap2\n      swap1\n      pop\n      jump\t// out\n        /* \"#utility.yul\":18402:18582   */\n    tag_58:\n        /* \"#utility.yul\":18450:18527   */\n      0x4e487b7100000000000000000000000000000000000000000000000000000000\n        /* \"#utility.yul\":18447:18448   */\n      0x00\n        /* \"#utility.yul\":18440:18528   */\n      mstore\n        /* \"#utility.yul\":18547:18551   */\n      0x32\n        /* \"#utility.yul\":18544:18545   */\n      0x04\n        /* \"#utility.yul\":18537:18552   */\n      mstore\n        /* \"#utility.yul\":18571:18575   */\n      0x24\n        /* \"#utility.yul\":18568:18569   */\n      0x00\n        /* \"#utility.yul\":18561:18576   */\n      revert\n        /* \"#utility.yul\":18588:18821   */\n    tag_190:\n        /* \"#utility.yul\":18728:18762   */\n      0x4f776e657244617461626173653a206f6e6c7920636f6e747261637420776869\n        /* \"#utility.yul\":18724:18725   */\n      0x00\n        /* \"#utility.yul\":18716:18722   */\n      dup3\n        /* \"#utility.yul\":18712:18726   */\n      add\n        /* \"#utility.yul\":18705:18763   */\n      mstore\n        /* \"#utility.yul\":18797:18813   */\n      0x63682061726520616c6c6f776564000000000000000000000000000000000000\n        /* \"#utility.yul\":18792:18794   */\n      0x20\n        /* \"#utility.yul\":18784:18790   */\n      dup3\n        /* \"#utility.yul\":18780:18795   */\n      add\n        /* \"#utility.yul\":18773:18814   */\n      mstore\n        /* \"#utility.yul\":18588:18821   */\n      pop\n      jump\t// out\n        /* \"#utility.yul\":18827:19193   */\n    tag_191:\n        /* \"#utility.yul\":18969:18972   */\n      0x00\n        /* \"#utility.yul\":18990:19057   */\n      tag_383\n        /* \"#utility.yul\":19054:19056   */\n      0x2e\n        /* \"#utility.yul\":19049:19052   */\n      dup4\n        /* \"#utility.yul\":18990:19057   */\n      tag_187\n      jump\t// in\n    tag_383:\n        /* \"#utility.yul\":18983:19057   */\n      swap2\n      pop\n        /* \"#utility.yul\":19066:19159   */\n      tag_384\n        /* \"#utility.yul\":19155:19158   */\n      dup3\n        /* \"#utility.yul\":19066:19159   */\n      tag_190\n      jump\t// in\n    tag_384:\n        /* \"#utility.yul\":19184:19186   */\n      0x40\n        /* \"#utility.yul\":19179:19182   */\n      dup3\n        /* \"#utility.yul\":19175:19187   */\n      add\n        /* \"#utility.yul\":19168:19187   */\n      swap1\n      pop\n        /* \"#utility.yul\":18827:19193   */\n      swap2\n      swap1\n      pop\n      jump\t// out\n        /* \"#utility.yul\":19199:19618   */\n    tag_69:\n        /* \"#utility.yul\":19365:19369   */\n      0x00\n        /* \"#utility.yul\":19403:19405   */\n      0x20\n        /* \"#utility.yul\":19392:19401   */\n      dup3\n        /* \"#utility.yul\":19388:19406   */\n      add\n        /* \"#utility.yul\":19380:19406   */\n      swap1\n      pop\n        /* \"#utility.yul\":19452:19461   */\n      dup2\n        /* \"#utility.yul\":19446:19450   */\n      dup2\n        /* \"#utility.yul\":19442:19462   */\n      sub\n        /* \"#utility.yul\":19438:19439   */\n      0x00\n        /* \"#utility.yul\":19427:19436   */\n      dup4\n        /* \"#utility.yul\":19423:19440   */\n      add\n        /* \"#utility.yul\":19416:19463   */\n      mstore\n        /* \"#utility.yul\":19480:19611   */\n      tag_386\n        /* \"#utility.yul\":19606:19610   */\n      dup2\n        /* \"#utility.yul\":19480:19611   */\n      tag_191\n      jump\t// in\n    tag_386:\n        /* \"#utility.yul\":19472:19611   */\n      swap1\n      pop\n        /* \"#utility.yul\":19199:19618   */\n      swap2\n      swap1\n      pop\n      jump\t// out\n        /* \"#utility.yul\":19624:19804   */\n    tag_192:\n        /* \"#utility.yul\":19672:19749   */\n      0x4e487b7100000000000000000000000000000000000000000000000000000000\n        /* \"#utility.yul\":19669:19670   */\n      0x00\n        /* \"#utility.yul\":19662:19750   */\n      mstore\n        /* \"#utility.yul\":19769:19773   */\n      0x22\n        /* \"#utility.yul\":19766:19767   */\n      0x04\n        /* \"#utility.yul\":19759:19774   */\n      mstore\n        /* \"#utility.yul\":19793:19797   */\n      0x24\n        /* \"#utility.yul\":19790:19791   */\n      0x00\n        /* \"#utility.yul\":19783:19798   */\n      revert\n        /* \"#utility.yul\":19810:20130   */\n    tag_83:\n        /* \"#utility.yul\":19854:19860   */\n      0x00\n        /* \"#utility.yul\":19891:19892   */\n      0x02\n        /* \"#utility.yul\":19885:19889   */\n      dup3\n        /* \"#utility.yul\":19881:19893   */\n      div\n        /* \"#utility.yul\":19871:19893   */\n      swap1\n      pop\n        /* \"#utility.yul\":19938:19939   */\n      0x01\n        /* \"#utility.yul\":19932:19936   */\n      dup3\n        /* \"#utility.yul\":19928:19940   */\n      and\n        /* \"#utility.yul\":19959:19977   */\n      dup1\n        /* \"#utility.yul\":19949:20030   */\n      tag_389\n      jumpi\n        /* \"#utility.yul\":20015:20019   */\n      0x7f\n        /* \"#utility.yul\":20007:20013   */\n      dup3\n        /* \"#utility.yul\":20003:20020   */\n      and\n        /* \"#utility.yul\":19993:20020   */\n      swap2\n      pop\n        /* \"#utility.yul\":19949:20030   */\n    tag_389:\n        /* \"#utility.yul\":20077:20079   */\n      0x20\n        /* \"#utility.yul\":20069:20075   */\n      dup3\n        /* \"#utility.yul\":20066:20080   */\n      lt\n        /* \"#utility.yul\":20046:20064   */\n      dup2\n        /* \"#utility.yul\":20043:20081   */\n      sub\n        /* \"#utility.yul\":20040:20124   */\n      tag_390\n      jumpi\n        /* \"#utility.yul\":20096:20114   */\n      tag_391\n      tag_192\n      jump\t// in\n    tag_391:\n        /* \"#utility.yul\":20040:20124   */\n    tag_390:\n        /* \"#utility.yul\":19861:20130   */\n      pop\n        /* \"#utility.yul\":19810:20130   */\n      swap2\n      swap1\n      pop\n      jump\t// out\n        /* \"#utility.yul\":20136:20316   */\n    tag_193:\n        /* \"#utility.yul\":20184:20261   */\n      0x4e487b7100000000000000000000000000000000000000000000000000000000\n        /* \"#utility.yul\":20181:20182   */\n      0x00\n        /* \"#utility.yul\":20174:20262   */\n      mstore\n        /* \"#utility.yul\":20281:20285   */\n      0x11\n        /* \"#utility.yul\":20278:20279   */\n      0x04\n        /* \"#utility.yul\":20271:20286   */\n      mstore\n        /* \"#utility.yul\":20305:20309   */\n      0x24\n        /* \"#utility.yul\":20302:20303   */\n      0x00\n        /* \"#utility.yul\":20295:20310   */\n      revert\n        /* \"#utility.yul\":20322:20555   */\n    tag_105:\n        /* \"#utility.yul\":20361:20364   */\n      0x00\n        /* \"#utility.yul\":20384:20408   */\n      tag_394\n        /* \"#utility.yul\":20402:20407   */\n      dup3\n        /* \"#utility.yul\":20384:20408   */\n      tag_148\n      jump\t// in\n    tag_394:\n        /* \"#utility.yul\":20375:20408   */\n      swap2\n      pop\n        /* \"#utility.yul\":20430:20496   */\n      0xffffffffffffffffffffffffffffffffffffffffffffffffffffffffffffffff\n        /* \"#utility.yul\":20423:20428   */\n      dup3\n        /* \"#utility.yul\":20420:20497   */\n      sub\n        /* \"#utility.yul\":20417:20520   */\n      tag_395\n      jumpi\n        /* \"#utility.yul\":20500:20518   */\n      tag_396\n      tag_193\n      jump\t// in\n    tag_396:\n        /* \"#utility.yul\":20417:20520   */\n    tag_395:\n        /* \"#utility.yul\":20547:20548   */\n      0x01\n        /* \"#utility.yul\":20540:20545   */\n      dup3\n        /* \"#utility.yul\":20536:20549   */\n      add\n        /* \"#utility.yul\":20529:20549   */\n      swap1\n      pop\n        /* \"#utility.yul\":20322:20555   */\n      swap2\n      swap1\n      pop\n      jump\t// out\n        /* \"#utility.yul\":20561:20702   */\n    tag_194:\n        /* \"#utility.yul\":20610:20614   */\n      0x00\n        /* \"#utility.yul\":20633:20636   */\n      dup2\n        /* \"#utility.yul\":20625:20636   */\n      swap1\n      pop\n        /* \"#utility.yul\":20656:20659   */\n      dup2\n        /* \"#utility.yul\":20653:20654   */\n      0x00\n        /* \"#utility.yul\":20646:20660   */\n      mstore\n        /* \"#utility.yul\":20690:20694   */\n      0x20\n        /* \"#utility.yul\":20687:20688   */\n      0x00\n        /* \"#utility.yul\":20677:20695   */\n      keccak256\n        /* \"#utility.yul\":20669:20695   */\n      swap1\n      pop\n        /* \"#utility.yul\":20561:20702   */\n      swap2\n      swap1\n      pop\n      jump\t// out\n        /* \"#utility.yul\":20708:20801   */\n    tag_195:\n        /* \"#utility.yul\":20745:20751   */\n      0x00\n        /* \"#utility.yul\":20792:20794   */\n      0x20\n        /* \"#utility.yul\":20787:20789   */\n      0x1f\n        /* \"#utility.yul\":20780:20785   */\n      dup4\n        /* \"#utility.yul\":20776:20790   */\n      add\n        /* \"#utility.yul\":20772:20795   */\n      div\n        /* \"#utility.yul\":20762:20795   */\n      swap1\n      pop\n        /* \"#utility.yul\":20708:20801   */\n      swap2\n      swap1\n      pop\n      jump\t// out\n        /* \"#utility.yul\":20807:20914   */\n    tag_196:\n        /* \"#utility.yul\":20851:20859   */\n      0x00\n        /* \"#utility.yul\":20901:20906   */\n      dup3\n        /* \"#utility.yul\":20895:20899   */\n      dup3\n        /* \"#utility.yul\":20891:20907   */\n      shl\n        /* \"#utility.yul\":20870:20907   */\n      swap1\n      pop\n        /* \"#utility.yul\":20807:20914   */\n      swap3\n      swap2\n      pop\n      pop\n      jump\t// out\n        /* \"#utility.yul\":20920:21313   */\n    tag_197:\n        /* \"#utility.yul\":20989:20995   */\n      0x00\n        /* \"#utility.yul\":21039:21040   */\n      0x08\n        /* \"#utility.yul\":21027:21037   */\n      dup4\n        /* \"#utility.yul\":21023:21041   */\n      mul\n        /* \"#utility.yul\":21062:21159   */\n      tag_401\n        /* \"#utility.yul\":21092:21158   */\n      0xffffffffffffffffffffffffffffffffffffffffffffffffffffffffffffffff\n        /* \"#utility.yul\":21081:21090   */\n      dup3\n        /* \"#utility.yul\":21062:21159   */\n      tag_196\n      jump\t// in\n    tag_401:\n        /* \"#utility.yul\":21180:21219   */\n      tag_402\n        /* \"#utility.yul\":21210:21218   */\n      dup7\n        /* \"#utility.yul\":21199:21208   */\n      dup4\n        /* \"#utility.yul\":21180:21219   */\n      tag_196\n      jump\t// in\n    tag_402:\n        /* \"#utility.yul\":21168:21219   */\n      swap6\n      pop\n        /* \"#utility.yul\":21252:21256   */\n      dup1\n        /* \"#utility.yul\":21248:21257   */\n      not\n        /* \"#utility.yul\":21241:21246   */\n      dup5\n        /* \"#utility.yul\":21237:21258   */\n      and\n        /* \"#utility.yul\":21228:21258   */\n      swap4\n      pop\n        /* \"#utility.yul\":21301:21305   */\n      dup1\n        /* \"#utility.yul\":21291:21299   */\n      dup7\n        /* \"#utility.yul\":21287:21306   */\n      and\n        /* \"#utility.yul\":21280:21285   */\n      dup5\n        /* \"#utility.yul\":21277:21307   */\n      or\n        /* \"#utility.yul\":21267:21307   */\n      swap3\n      pop\n        /* \"#utility.yul\":20996:21313   */\n      pop\n      pop\n        /* \"#utility.yul\":20920:21313   */\n      swap4\n      swap3\n      pop\n      pop\n      pop\n      jump\t// out\n        /* \"#utility.yul\":21319:21379   */\n    tag_198:\n        /* \"#utility.yul\":21347:21350   */\n      0x00\n        /* \"#utility.yul\":21368:21373   */\n      dup2\n        /* \"#utility.yul\":21361:21373   */\n      swap1\n      pop\n        /* \"#utility.yul\":21319:21379   */\n      swap2\n      swap1\n      pop\n      jump\t// out\n        /* \"#utility.yul\":21385:21527   */\n    tag_199:\n        /* \"#utility.yul\":21435:21444   */\n      0x00\n        /* \"#utility.yul\":21468:21521   */\n      tag_405\n        /* \"#utility.yul\":21486:21520   */\n      tag_406\n        /* \"#utility.yul\":21495:21519   */\n      tag_407\n        /* \"#utility.yul\":21513:21518   */\n      dup5\n        /* \"#utility.yul\":21495:21519   */\n      tag_148\n      jump\t// in\n    tag_407:\n        /* \"#utility.yul\":21486:21520   */\n      tag_198\n      jump\t// in\n    tag_406:\n        /* \"#utility.yul\":21468:21521   */\n      tag_148\n      jump\t// in\n    tag_405:\n        /* \"#utility.yul\":21455:21521   */\n      swap1\n      pop\n        /* \"#utility.yul\":21385:21527   */\n      swap2\n      swap1\n      pop\n      jump\t// out\n        /* \"#utility.yul\":21533:21608   */\n    tag_200:\n        /* \"#utility.yul\":21576:21579   */\n      0x00\n        /* \"#utility.yul\":21597:21602   */\n      dup2\n        /* \"#utility.yul\":21590:21602   */\n      swap1\n      pop\n        /* \"#utility.yul\":21533:21608   */\n      swap2\n      swap1\n      pop\n      jump\t// out\n        /* \"#utility.yul\":21614:21883   */\n    tag_201:\n        /* \"#utility.yul\":21724:21763   */\n      tag_410\n        /* \"#utility.yul\":21755:21762   */\n      dup4\n        /* \"#utility.yul\":21724:21763   */\n      tag_199\n      jump\t// in\n    tag_410:\n        /* \"#utility.yul\":21785:21876   */\n      tag_411\n        /* \"#utility.yul\":21834:21875   */\n      tag_412\n        /* \"#utility.yul\":21858:21874   */\n      dup3\n        /* \"#utility.yul\":21834:21875   */\n      tag_200\n      jump\t// in\n    tag_412:\n        /* \"#utility.yul\":21826:21832   */\n      dup5\n        /* \"#utility.yul\":21819:21823   */\n      dup5\n        /* \"#utility.yul\":21813:21824   */\n      sload\n        /* \"#utility.yul\":21785:21876   */\n      tag_197\n      jump\t// in\n    tag_411:\n        /* \"#utility.yul\":21779:21783   */\n      dup3\n        /* \"#utility.yul\":21772:21877   */\n      sstore\n        /* \"#utility.yul\":21690:21883   */\n      pop\n        /* \"#utility.yul\":21614:21883   */\n      pop\n      pop\n      pop\n      jump\t// out\n        /* \"#utility.yul\":21889:21962   */\n    tag_202:\n        /* \"#utility.yul\":21934:21937   */\n      0x00\n        /* \"#utility.yul\":21889:21962   */\n      swap1\n      jump\t// out\n        /* \"#utility.yul\":21968:22157   */\n    tag_203:\n        /* \"#utility.yul\":22045:22077   */\n      tag_415\n      tag_202\n      jump\t// in\n    tag_415:\n        /* \"#utility.yul\":22086:22151   */\n      tag_416\n        /* \"#utility.yul\":22144:22150   */\n      dup2\n        /* \"#utility.yul\":22136:22142   */\n      dup5\n        /* \"#utility.yul\":22130:22134   */\n      dup5\n        /* \"#utility.yul\":22086:22151   */\n      tag_201\n      jump\t// in\n    tag_416:\n        /* \"#utility.yul\":22021:22157   */\n      pop\n        /* \"#utility.yul\":21968:22157   */\n      pop\n      pop\n      jump\t// out\n        /* \"#utility.yul\":22163:22349   */\n    tag_204:\n        /* \"#utility.yul\":22223:22343   */\n    tag_418:\n        /* \"#utility.yul\":22240:22243   */\n      dup2\n        /* \"#utility.yul\":22233:22238   */\n      dup2\n        /* \"#utility.yul\":22230:22244   */\n      lt\n        /* \"#utility.yul\":22223:22343   */\n      iszero\n      tag_420\n      jumpi\n        /* \"#utility.yul\":22294:22333   */\n      tag_421\n        /* \"#utility.yul\":22331:22332   */\n      0x00\n        /* \"#utility.yul\":22324:22329   */\n      dup3\n        /* \"#utility.yul\":22294:22333   */\n      tag_203\n      jump\t// in\n    tag_421:\n        /* \"#utility.yul\":22267:22268   */\n      0x01\n        /* \"#utility.yul\":22260:22265   */\n      dup2\n        /* \"#utility.yul\":22256:22269   */\n      add\n        /* \"#utility.yul\":22247:22269   */\n      swap1\n      pop\n        /* \"#utility.yul\":22223:22343   */\n      jump(tag_418)\n    tag_420:\n        /* \"#utility.yul\":22163:22349   */\n      pop\n      pop\n      jump\t// out\n        /* \"#utility.yul\":22355:22898   */\n    tag_205:\n        /* \"#utility.yul\":22456:22458   */\n      0x1f\n        /* \"#utility.yul\":22451:22454   */\n      dup3\n        /* \"#utility.yul\":22448:22459   */\n      gt\n        /* \"#utility.yul\":22445:22891   */\n      iszero\n      tag_423\n      jumpi\n        /* \"#utility.yul\":22490:22528   */\n      tag_424\n        /* \"#utility.yul\":22522:22527   */\n      dup2\n        /* \"#utility.yul\":22490:22528   */\n      tag_194\n      jump\t// in\n    tag_424:\n        /* \"#utility.yul\":22574:22603   */\n      tag_425\n        /* \"#utility.yul\":22592:22602   */\n      dup5\n        /* \"#utility.yul\":22574:22603   */\n      tag_195\n      jump\t// in\n    tag_425:\n        /* \"#utility.yul\":22564:22572   */\n      dup2\n        /* \"#utility.yul\":22560:22604   */\n      add\n        /* \"#utility.yul\":22757:22759   */\n      0x20\n        /* \"#utility.yul\":22745:22755   */\n      dup6\n        /* \"#utility.yul\":22742:22760   */\n      lt\n        /* \"#utility.yul\":22739:22788   */\n      iszero\n      tag_426\n      jumpi\n        /* \"#utility.yul\":22778:22786   */\n      dup2\n        /* \"#utility.yul\":22763:22786   */\n      swap1\n      pop\n        /* \"#utility.yul\":22739:22788   */\n    tag_426:\n        /* \"#utility.yul\":22801:22881   */\n      tag_427\n        /* \"#utility.yul\":22857:22879   */\n      tag_428\n        /* \"#utility.yul\":22875:22878   */\n      dup6\n        /* \"#utility.yul\":22857:22879   */\n      tag_195\n      jump\t// in\n    tag_428:\n        /* \"#utility.yul\":22847:22855   */\n      dup4\n        /* \"#utility.yul\":22843:22880   */\n      add\n        /* \"#utility.yul\":22830:22841   */\n      dup3\n        /* \"#utility.yul\":22801:22881   */\n      tag_204\n      jump\t// in\n    tag_427:\n        /* \"#utility.yul\":22460:22891   */\n      pop\n      pop\n        /* \"#utility.yul\":22445:22891   */\n    tag_423:\n        /* \"#utility.yul\":22355:22898   */\n      pop\n      pop\n      pop\n      jump\t// out\n        /* \"#utility.yul\":22904:23021   */\n    tag_206:\n        /* \"#utility.yul\":22958:22966   */\n      0x00\n        /* \"#utility.yul\":23008:23013   */\n      dup3\n        /* \"#utility.yul\":23002:23006   */\n      dup3\n        /* \"#utility.yul\":22998:23014   */\n      shr\n        /* \"#utility.yul\":22977:23014   */\n      swap1\n      pop\n        /* \"#utility.yul\":22904:23021   */\n      swap3\n      swap2\n      pop\n      pop\n      jump\t// out\n        /* \"#utility.yul\":23027:23196   */\n    tag_207:\n        /* \"#utility.yul\":23071:23077   */\n      0x00\n        /* \"#utility.yul\":23104:23155   */\n      tag_431\n        /* \"#utility.yul\":23152:23153   */\n      0x00\n        /* \"#utility.yul\":23148:23154   */\n      not\n        /* \"#utility.yul\":23140:23145   */\n      dup5\n        /* \"#utility.yul\":23137:23138   */\n      0x08\n        /* \"#utility.yul\":23133:23146   */\n      mul\n        /* \"#utility.yul\":23104:23155   */\n      tag_206\n      jump\t// in\n    tag_431:\n        /* \"#utility.yul\":23100:23156   */\n      not\n        /* \"#utility.yul\":23185:23189   */\n      dup1\n        /* \"#utility.yul\":23179:23183   */\n      dup4\n        /* \"#utility.yul\":23175:23190   */\n      and\n        /* \"#utility.yul\":23165:23190   */\n      swap2\n      pop\n        /* \"#utility.yul\":23078:23196   */\n      pop\n        /* \"#utility.yul\":23027:23196   */\n      swap3\n      swap2\n      pop\n      pop\n      jump\t// out\n        /* \"#utility.yul\":23201:23496   */\n    tag_208:\n        /* \"#utility.yul\":23277:23281   */\n      0x00\n        /* \"#utility.yul\":23423:23452   */\n      tag_433\n        /* \"#utility.yul\":23448:23451   */\n      dup4\n        /* \"#utility.yul\":23442:23446   */\n      dup4\n        /* \"#utility.yul\":23423:23452   */\n      tag_207\n      jump\t// in\n    tag_433:\n        /* \"#utility.yul\":23415:23452   */\n      swap2\n      pop\n        /* \"#utility.yul\":23485:23488   */\n      dup3\n        /* \"#utility.yul\":23482:23483   */\n      0x02\n        /* \"#utility.yul\":23478:23489   */\n      mul\n        /* \"#utility.yul\":23472:23476   */\n      dup3\n        /* \"#utility.yul\":23469:23490   */\n      or\n        /* \"#utility.yul\":23461:23490   */\n      swap1\n      pop\n        /* \"#utility.yul\":23201:23496   */\n      swap3\n      swap2\n      pop\n      pop\n      jump\t// out\n        /* \"#utility.yul\":23501:24896   */\n    tag_113:\n        /* \"#utility.yul\":23618:23655   */\n      tag_435\n        /* \"#utility.yul\":23651:23654   */\n      dup3\n        /* \"#utility.yul\":23618:23655   */\n      tag_161\n      jump\t// in\n    tag_435:\n        /* \"#utility.yul\":23720:23738   */\n      0xffffffffffffffff\n        /* \"#utility.yul\":23712:23718   */\n      dup2\n        /* \"#utility.yul\":23709:23739   */\n      gt\n        /* \"#utility.yul\":23706:23762   */\n      iszero\n      tag_436\n      jumpi\n        /* \"#utility.yul\":23742:23760   */\n      tag_437\n      tag_172\n      jump\t// in\n    tag_437:\n        /* \"#utility.yul\":23706:23762   */\n    tag_436:\n        /* \"#utility.yul\":23786:23824   */\n      tag_438\n        /* \"#utility.yul\":23818:23822   */\n      dup3\n        /* \"#utility.yul\":23812:23823   */\n      sload\n        /* \"#utility.yul\":23786:23824   */\n      tag_83\n      jump\t// in\n    tag_438:\n        /* \"#utility.yul\":23871:23938   */\n      tag_439\n        /* \"#utility.yul\":23931:23937   */\n      dup3\n        /* \"#utility.yul\":23923:23929   */\n      dup3\n        /* \"#utility.yul\":23917:23921   */\n      dup6\n        /* \"#utility.yul\":23871:23938   */\n      tag_205\n      jump\t// in\n    tag_439:\n        /* \"#utility.yul\":23965:23966   */\n      0x00\n        /* \"#utility.yul\":23989:23993   */\n      0x20\n        /* \"#utility.yul\":23976:23993   */\n      swap1\n      pop\n        /* \"#utility.yul\":24021:24023   */\n      0x1f\n        /* \"#utility.yul\":24013:24019   */\n      dup4\n        /* \"#utility.yul\":24010:24024   */\n      gt\n        /* \"#utility.yul\":24038:24039   */\n      0x01\n        /* \"#utility.yul\":24033:24651   */\n      dup2\n      eq\n      tag_441\n      jumpi\n        /* \"#utility.yul\":24695:24696   */\n      0x00\n        /* \"#utility.yul\":24712:24718   */\n      dup5\n        /* \"#utility.yul\":24709:24786   */\n      iszero\n      tag_442\n      jumpi\n        /* \"#utility.yul\":24761:24770   */\n      dup3\n        /* \"#utility.yul\":24756:24759   */\n      dup8\n        /* \"#utility.yul\":24752:24771   */\n      add\n        /* \"#utility.yul\":24746:24772   */\n      mload\n        /* \"#utility.yul\":24737:24772   */\n      swap1\n      pop\n        /* \"#utility.yul\":24709:24786   */\n    tag_442:\n        /* \"#utility.yul\":24812:24879   */\n      tag_443\n        /* \"#utility.yul\":24872:24878   */\n      dup6\n        /* \"#utility.yul\":24865:24870   */\n      dup3\n        /* \"#utility.yul\":24812:24879   */\n      tag_208\n      jump\t// in\n    tag_443:\n        /* \"#utility.yul\":24806:24810   */\n      dup7\n        /* \"#utility.yul\":24799:24880   */\n      sstore\n        /* \"#utility.yul\":24668:24890   */\n      pop\n        /* \"#utility.yul\":24003:24890   */\n      jump(tag_440)\n        /* \"#utility.yul\":24033:24651   */\n    tag_441:\n        /* \"#utility.yul\":24085:24089   */\n      0x1f\n        /* \"#utility.yul\":24081:24090   */\n      not\n        /* \"#utility.yul\":24073:24079   */\n      dup5\n        /* \"#utility.yul\":24069:24091   */\n      and\n        /* \"#utility.yul\":24119:24156   */\n      tag_444\n        /* \"#utility.yul\":24151:24155   */\n      dup7\n        /* \"#utility.yul\":24119:24156   */\n      tag_194\n      jump\t// in\n    tag_444:\n        /* \"#utility.yul\":24178:24179   */\n      0x00\n        /* \"#utility.yul\":24192:24400   */\n    tag_445:\n        /* \"#utility.yul\":24206:24213   */\n      dup3\n        /* \"#utility.yul\":24203:24204   */\n      dup2\n        /* \"#utility.yul\":24200:24214   */\n      lt\n        /* \"#utility.yul\":24192:24400   */\n      iszero\n      tag_447\n      jumpi\n        /* \"#utility.yul\":24285:24294   */\n      dup5\n        /* \"#utility.yul\":24280:24283   */\n      dup10\n        /* \"#utility.yul\":24276:24295   */\n      add\n        /* \"#utility.yul\":24270:24296   */\n      mload\n        /* \"#utility.yul\":24262:24268   */\n      dup3\n        /* \"#utility.yul\":24255:24297   */\n      sstore\n        /* \"#utility.yul\":24336:24337   */\n      0x01\n        /* \"#utility.yul\":24328:24334   */\n      dup3\n        /* \"#utility.yul\":24324:24338   */\n      add\n        /* \"#utility.yul\":24314:24338   */\n      swap2\n      pop\n        /* \"#utility.yul\":24383:24385   */\n      0x20\n        /* \"#utility.yul\":24372:24381   */\n      dup6\n        /* \"#utility.yul\":24368:24386   */\n      add\n        /* \"#utility.yul\":24355:24386   */\n      swap5\n      pop\n        /* \"#utility.yul\":24229:24233   */\n      0x20\n        /* \"#utility.yul\":24226:24227   */\n      dup2\n        /* \"#utility.yul\":24222:24234   */\n      add\n        /* \"#utility.yul\":24217:24234   */\n      swap1\n      pop\n        /* \"#utility.yul\":24192:24400   */\n      jump(tag_445)\n    tag_447:\n        /* \"#utility.yul\":24428:24434   */\n      dup7\n        /* \"#utility.yul\":24419:24426   */\n      dup4\n        /* \"#utility.yul\":24416:24435   */\n      lt\n        /* \"#utility.yul\":24413:24592   */\n      iszero\n      tag_448\n      jumpi\n        /* \"#utility.yul\":24486:24495   */\n      dup5\n        /* \"#utility.yul\":24481:24484   */\n      dup10\n        /* \"#utility.yul\":24477:24496   */\n      add\n        /* \"#utility.yul\":24471:24497   */\n      mload\n        /* \"#utility.yul\":24529:24577   */\n      tag_449\n        /* \"#utility.yul\":24571:24575   */\n      0x1f\n        /* \"#utility.yul\":24563:24569   */\n      dup10\n        /* \"#utility.yul\":24559:24576   */\n      and\n        /* \"#utility.yul\":24548:24557   */\n      dup3\n        /* \"#utility.yul\":24529:24577   */\n      tag_207\n      jump\t// in\n    tag_449:\n        /* \"#utility.yul\":24521:24527   */\n      dup4\n        /* \"#utility.yul\":24514:24578   */\n      sstore\n        /* \"#utility.yul\":24436:24592   */\n      pop\n        /* \"#utility.yul\":24413:24592   */\n    tag_448:\n        /* \"#utility.yul\":24638:24639   */\n      0x01\n        /* \"#utility.yul\":24634:24635   */\n      0x02\n        /* \"#utility.yul\":24626:24632   */\n      dup9\n        /* \"#utility.yul\":24622:24636   */\n      mul\n        /* \"#utility.yul\":24618:24640   */\n      add\n        /* \"#utility.yul\":24612:24616   */\n      dup9\n        /* \"#utility.yul\":24605:24641   */\n      sstore\n        /* \"#utility.yul\":24040:24651   */\n      pop\n      pop\n      pop\n        /* \"#utility.yul\":24003:24890   */\n    tag_440:\n      pop\n        /* \"#utility.yul\":23593:24896   */\n      pop\n      pop\n      pop\n        /* \"#utility.yul\":23501:24896   */\n      pop\n      pop\n      jump\t// out\n        /* \"#utility.yul\":24902:25127   */\n    tag_209:\n        /* \"#utility.yul\":25042:25076   */\n      0x4f776e61626c653a206e6577206f776e657220697320746865207a65726f2061\n        /* \"#utility.yul\":25038:25039   */\n      0x00\n        /* \"#utility.yul\":25030:25036   */\n      dup3\n        /* \"#utility.yul\":25026:25040   */\n      add\n        /* \"#utility.yul\":25019:25077   */\n      mstore\n        /* \"#utility.yul\":25111:25119   */\n      0x6464726573730000000000000000000000000000000000000000000000000000\n        /* \"#utility.yul\":25106:25108   */\n      0x20\n        /* \"#utility.yul\":25098:25104   */\n      dup3\n        /* \"#utility.yul\":25094:25109   */\n      add\n        /* \"#utility.yul\":25087:25120   */\n      mstore\n        /* \"#utility.yul\":24902:25127   */\n      pop\n      jump\t// out\n        /* \"#utility.yul\":25133:25499   */\n    tag_210:\n        /* \"#utility.yul\":25275:25278   */\n      0x00\n        /* \"#utility.yul\":25296:25363   */\n      tag_452\n        /* \"#utility.yul\":25360:25362   */\n      0x26\n        /* \"#utility.yul\":25355:25358   */\n      dup4\n        /* \"#utility.yul\":25296:25363   */\n      tag_187\n      jump\t// in\n    tag_452:\n        /* \"#utility.yul\":25289:25363   */\n      swap2\n      pop\n        /* \"#utility.yul\":25372:25465   */\n      tag_453\n        /* \"#utility.yul\":25461:25464   */\n      dup3\n        /* \"#utility.yul\":25372:25465   */\n      tag_209\n      jump\t// in\n    tag_453:\n        /* \"#utility.yul\":25490:25492   */\n      0x40\n        /* \"#utility.yul\":25485:25488   */\n      dup3\n        /* \"#utility.yul\":25481:25493   */\n      add\n        /* \"#utility.yul\":25474:25493   */\n      swap1\n      pop\n        /* \"#utility.yul\":25133:25499   */\n      swap2\n      swap1\n      pop\n      jump\t// out\n        /* \"#utility.yul\":25505:25924   */\n    tag_124:\n        /* \"#utility.yul\":25671:25675   */\n      0x00\n        /* \"#utility.yul\":25709:25711   */\n      0x20\n        /* \"#utility.yul\":25698:25707   */\n      dup3\n        /* \"#utility.yul\":25694:25712   */\n      add\n        /* \"#utility.yul\":25686:25712   */\n      swap1\n      pop\n        /* \"#utility.yul\":25758:25767   */\n      dup2\n        /* \"#utility.yul\":25752:25756   */\n      dup2\n        /* \"#utility.yul\":25748:25768   */\n      sub\n        /* \"#utility.yul\":25744:25745   */\n      0x00\n        /* \"#utility.yul\":25733:25742   */\n      dup4\n        /* \"#utility.yul\":25729:25746   */\n      add\n        /* \"#utility.yul\":25722:25769   */\n      mstore\n        /* \"#utility.yul\":25786:25917   */\n      tag_455\n        /* \"#utility.yul\":25912:25916   */\n      dup2\n        /* \"#utility.yul\":25786:25917   */\n      tag_210\n      jump\t// in\n    tag_455:\n        /* \"#utility.yul\":25778:25917   */\n      swap1\n      pop\n        /* \"#utility.yul\":25505:25924   */\n      swap2\n      swap1\n      pop\n      jump\t// out\n        /* \"#utility.yul\":25930:26112   */\n    tag_211:\n        /* \"#utility.yul\":26070:26104   */\n      0x4f776e61626c653a2063616c6c6572206973206e6f7420746865206f776e6572\n        /* \"#utility.yul\":26066:26067   */\n      0x00\n        /* \"#utility.yul\":26058:26064   */\n      dup3\n        /* \"#utility.yul\":26054:26068   */\n      add\n        /* \"#utility.yul\":26047:26105   */\n      mstore\n        /* \"#utility.yul\":25930:26112   */\n      pop\n      jump\t// out\n        /* \"#utility.yul\":26118:26484   */\n    tag_212:\n        /* \"#utility.yul\":26260:26263   */\n      0x00\n        /* \"#utility.yul\":26281:26348   */\n      tag_458\n        /* \"#utility.yul\":26345:26347   */\n      0x20\n        /* \"#utility.yul\":26340:26343   */\n      dup4\n        /* \"#utility.yul\":26281:26348   */\n      tag_187\n      jump\t// in\n    tag_458:\n        /* \"#utility.yul\":26274:26348   */\n      swap2\n      pop\n        /* \"#utility.yul\":26357:26450   */\n      tag_459\n        /* \"#utility.yul\":26446:26449   */\n      dup3\n        /* \"#utility.yul\":26357:26450   */\n      tag_211\n      jump\t// in\n    tag_459:\n        /* \"#utility.yul\":26475:26477   */\n      0x20\n        /* \"#utility.yul\":26470:26473   */\n      dup3\n        /* \"#utility.yul\":26466:26478   */\n      add\n        /* \"#utility.yul\":26459:26478   */\n      swap1\n      pop\n        /* \"#utility.yul\":26118:26484   */\n      swap2\n      swap1\n      pop\n      jump\t// out\n        /* \"#utility.yul\":26490:26909   */\n    tag_131:\n        /* \"#utility.yul\":26656:26660   */\n      0x00\n        /* \"#utility.yul\":26694:26696   */\n      0x20\n        /* \"#utility.yul\":26683:26692   */\n      dup3\n        /* \"#utility.yul\":26679:26697   */\n      add\n        /* \"#utility.yul\":26671:26697   */\n      swap1\n      pop\n        /* \"#utility.yul\":26743:26752   */\n      dup2\n        /* \"#utility.yul\":26737:26741   */\n      dup2\n        /* \"#utility.yul\":26733:26753   */\n      sub\n        /* \"#utility.yul\":26729:26730   */\n      0x00\n        /* \"#utility.yul\":26718:26727   */\n      dup4\n        /* \"#utility.yul\":26714:26731   */\n      add\n        /* \"#utility.yul\":26707:26754   */\n      mstore\n        /* \"#utility.yul\":26771:26902   */\n      tag_461\n        /* \"#utility.yul\":26897:26901   */\n      dup2\n        /* \"#utility.yul\":26771:26902   */\n      tag_212\n      jump\t// in\n    tag_461:\n        /* \"#utility.yul\":26763:26902   */\n      swap1\n      pop\n        /* \"#utility.yul\":26490:26909   */\n      swap2\n      swap1\n      pop\n      jump\t// out\n\n    auxdata: 0xa2646970667358221220d98e43060bec6cc31ab4ad85ea3f33e79747554e05dccd62eb9defd98080571964736f6c63430008120033\n}\n",
				"bytecode": {
					"linkReferences": {},
					"object": "6080604052600060025534801561001557600080fd5b50336000806101000a81548173ffffffffffffffffffffffffffffffffffffffff021916908373ffffffffffffffffffffffffffffffffffffffff1602179055506118fc806100656000396000f3fe608060405234801561001057600080fd5b506004361061009e5760003560e01c8063b2452bd311610066578063b2452bd314610121578063d0ad0a281461013d578063f0b4e21b14610159578063f18eeda814610175578063f2fde38b146101915761009e565b80634d0a5dbd146100a3578063552b9dae146100bf57806383197ef0146100db5780638d05a638146100e55780638da5cb5b14610103575b600080fd5b6100bd60048036038101906100b89190610b73565b6101ad565b005b6100d960048036038101906100d49190610bd6565b61029d565b005b6100e36102ed565b005b6100ed61030e565b6040516100fa9190610f07565b60405180910390f35b61010b61061b565b6040516101189190610f38565b60405180910390f35b61013b60048036038101906101369190610bd6565b610644565b005b61015760048036038101906101529190610bd6565b610694565b005b610173600480360381019061016e91906112c6565b6106e4565b005b61018f600480360381019061018a9190610bd6565b610881565b005b6101ab60048036038101906101a69190610b73565b6108d1565b005b6101b5610954565b600360008273ffffffffffffffffffffffffffffffffffffffff1673ffffffffffffffffffffffffffffffffffffffff16815260200190815260200160002060009054906101000a900460ff1615610242576040517f08c379a000000000000000000000000000000000000000000000000000000000815260040161023990611392565b60405180910390fd5b6001600360008373ffffffffffffffffffffffffffffffffffffffff1673ffffffffffffffffffffffffffffffffffffffff16815260200190815260200160002060006101000a81548160ff02191690831515021790555050565b600182815481106102b1576102b06113b2565b5b90600052602060002090600902016004018190806001815401808255809150506001900390600052602060002001600090919091909150555050565b6102f5610954565b3073ffffffffffffffffffffffffffffffffffffffff16ff5b60606003600061031c6109cb565b73ffffffffffffffffffffffffffffffffffffffff1673ffffffffffffffffffffffffffffffffffffffff16815260200190815260200160002060009054906101000a900460ff166103a3576040517f08c379a000000000000000000000000000000000000000000000000000000000815260040161039a90611453565b60405180910390fd5b6001805480602002602001604051908101604052809291908181526020016000905b82821015610612578382906000526020600020906009020160405180610120016040529081600082015481526020016001820154815260200160028201548152602001600382015481526020016004820180548060200260200160405190810160405280929190818152602001828054801561046057602002820191906000526020600020905b81548152602001906001019080831161044c575b50505050508152602001600582018054806020026020016040519081016040528092919081815260200182805480156104b857602002820191906000526020600020905b8154815260200190600101908083116104a4575b505050505081526020016006820180548060200260200160405190810160405280929190818152602001828054801561051057602002820191906000526020600020905b8154815260200190600101908083116104fc575b505050505081526020016007820180548060200260200160405190810160405280929190818152602001828054801561056857602002820191906000526020600020905b815481526020019060010190808311610554575b50505050508152602001600882018054610581906114a2565b80601f01602080910402602001604051908101604052809291908181526020018280546105ad906114a2565b80156105fa5780601f106105cf576101008083540402835291602001916105fa565b820191906000526020600020905b8154815290600101906020018083116105dd57829003601f168201915b505050505081525050815260200190600101906103c5565b50505050905090565b60008060009054906101000a900473ffffffffffffffffffffffffffffffffffffffff16905090565b60018281548110610658576106576113b2565b5b90600052602060002090600902016005018190806001815401808255809150506001900390600052602060002001600090919091909150555050565b600182815481106106a8576106a76113b2565b5b90600052602060002090600902016007018190806001815401808255809150506001900390600052602060002001600090919091909150555050565b600360006106f06109cb565b73ffffffffffffffffffffffffffffffffffffffff1673ffffffffffffffffffffffffffffffffffffffff16815260200190815260200160002060009054906101000a900460ff16610777576040517f08c379a000000000000000000000000000000000000000000000000000000000815260040161076e90611453565b60405180910390fd5b60006002600081548092919061078c90611502565b91905055905080826000018181525050600182908060018154018082558091505060019003906000526020600020906009020160009091909190915060008201518160000155602082015181600101556040820151816002015560608201518160030155608082015181600401908051906020019061080c929190610a97565b5060a0820151816005019080519060200190610829929190610a97565b5060c0820151816006019080519060200190610846929190610a97565b5060e0820151816007019080519060200190610863929190610a97565b5061010082015181600801908161087a91906116f6565b5050505050565b60018281548110610895576108946113b2565b5b90600052602060002090600902016006018190806001815401808255809150506001900390600052602060002001600090919091909150555050565b6108d9610954565b600073ffffffffffffffffffffffffffffffffffffffff168173ffffffffffffffffffffffffffffffffffffffff1603610948576040517f08c379a000000000000000000000000000000000000000000000000000000000815260040161093f9061183a565b60405180910390fd5b610951816109d3565b50565b3373ffffffffffffffffffffffffffffffffffffffff1661097361061b565b73ffffffffffffffffffffffffffffffffffffffff16146109c9576040517f08c379a00000000000000000000000000000000000000000000000000000000081526004016109c0906118a6565b60405180910390fd5b565b600033905090565b60008060009054906101000a900473ffffffffffffffffffffffffffffffffffffffff169050816000806101000a81548173ffffffffffffffffffffffffffffffffffffffff021916908373ffffffffffffffffffffffffffffffffffffffff1602179055508173ffffffffffffffffffffffffffffffffffffffff168173ffffffffffffffffffffffffffffffffffffffff167f8be0079c531659141344cd1fd0a4f28419497f9722a3daafe3b4186f6b6457e060405160405180910390a35050565b828054828255906000526020600020908101928215610ad3579160200282015b82811115610ad2578251825591602001919060010190610ab7565b5b509050610ae09190610ae4565b5090565b5b80821115610afd576000816000905550600101610ae5565b5090565b6000604051905090565b600080fd5b600080fd5b600073ffffffffffffffffffffffffffffffffffffffff82169050919050565b6000610b4082610b15565b9050919050565b610b5081610b35565b8114610b5b57600080fd5b50565b600081359050610b6d81610b47565b92915050565b600060208284031215610b8957610b88610b0b565b5b6000610b9784828501610b5e565b91505092915050565b6000819050919050565b610bb381610ba0565b8114610bbe57600080fd5b50565b600081359050610bd081610baa565b92915050565b60008060408385031215610bed57610bec610b0b565b5b6000610bfb85828601610bc1565b9250506020610c0c85828601610bc1565b9150509250929050565b600081519050919050565b600082825260208201905092915050565b6000819050602082019050919050565b610c4b81610ba0565b82525050565b600081519050919050565b600082825260208201905092915050565b6000819050602082019050919050565b6000610c898383610c42565b60208301905092915050565b6000602082019050919050565b6000610cad82610c51565b610cb78185610c5c565b9350610cc283610c6d565b8060005b83811015610cf3578151610cda8882610c7d565b9750610ce583610c95565b925050600181019050610cc6565b5085935050505092915050565b600081519050919050565b600082825260208201905092915050565b60005b83811015610d3a578082015181840152602081019050610d1f565b60008484015250505050565b6000601f19601f8301169050919050565b6000610d6282610d00565b610d6c8185610d0b565b9350610d7c818560208601610d1c565b610d8581610d46565b840191505092915050565b600061012083016000830151610da96000860182610c42565b506020830151610dbc6020860182610c42565b506040830151610dcf6040860182610c42565b506060830151610de26060860182610c42565b5060808301518482036080860152610dfa8282610ca2565b91505060a083015184820360a0860152610e148282610ca2565b91505060c083015184820360c0860152610e2e8282610ca2565b91505060e083015184820360e0860152610e488282610ca2565b915050610100830151848203610100860152610e648282610d57565b9150508091505092915050565b6000610e7d8383610d90565b905092915050565b6000602082019050919050565b6000610e9d82610c16565b610ea78185610c21565b935083602082028501610eb985610c32565b8060005b85811015610ef55784840389528151610ed68582610e71565b9450610ee183610e85565b925060208a01995050600181019050610ebd565b50829750879550505050505092915050565b60006020820190508181036000830152610f218184610e92565b905092915050565b610f3281610b35565b82525050565b6000602082019050610f4d6000830184610f29565b92915050565b600080fd5b7f4e487b7100000000000000000000000000000000000000000000000000000000600052604160045260246000fd5b610f9082610d46565b810181811067ffffffffffffffff82111715610faf57610fae610f58565b5b80604052505050565b6000610fc2610b01565b9050610fce8282610f87565b919050565b600080fd5b600080fd5b600067ffffffffffffffff821115610ff857610ff7610f58565b5b602082029050602081019050919050565b600080fd5b600061102161101c84610fdd565b610fb8565b9050808382526020820190506020840283018581111561104457611043611009565b5b835b8181101561106d57806110598882610bc1565b845260208401935050602081019050611046565b5050509392505050565b600082601f83011261108c5761108b610fd8565b5b813561109c84826020860161100e565b91505092915050565b600080fd5b600067ffffffffffffffff8211156110c5576110c4610f58565b5b6110ce82610d46565b9050602081019050919050565b82818337600083830152505050565b60006110fd6110f8846110aa565b610fb8565b905082815260208101848484011115611119576111186110a5565b5b6111248482856110db565b509392505050565b600082601f83011261114157611140610fd8565b5b81356111518482602086016110ea565b91505092915050565b6000610120828403121561117157611170610f53565b5b61117c610120610fb8565b9050600061118c84828501610bc1565b60008301525060206111a084828501610bc1565b60208301525060406111b484828501610bc1565b60408301525060606111c884828501610bc1565b606083015250608082013567ffffffffffffffff8111156111ec576111eb610fd3565b5b6111f884828501611077565b60808301525060a082013567ffffffffffffffff81111561121c5761121b610fd3565b5b61122884828501611077565b60a08301525060c082013567ffffffffffffffff81111561124c5761124b610fd3565b5b61125884828501611077565b60c08301525060e082013567ffffffffffffffff81111561127c5761127b610fd3565b5b61128884828501611077565b60e08301525061010082013567ffffffffffffffff8111156112ad576112ac610fd3565b5b6112b98482850161112c565b6101008301525092915050565b6000602082840312156112dc576112db610b0b565b5b600082013567ffffffffffffffff8111156112fa576112f9610b10565b5b6113068482850161115a565b91505092915050565b600082825260208201905092915050565b7f4f776e657244617461626173653a207065726d697373696f6e2068617320626560008201527f656e206772616e74656400000000000000000000000000000000000000000000602082015250565b600061137c602a8361130f565b915061138782611320565b604082019050919050565b600060208201905081810360008301526113ab8161136f565b9050919050565b7f4e487b7100000000000000000000000000000000000000000000000000000000600052603260045260246000fd5b7f4f776e657244617461626173653a206f6e6c7920636f6e74726163742077686960008201527f63682061726520616c6c6f776564000000000000000000000000000000000000602082015250565b600061143d602e8361130f565b9150611448826113e1565b604082019050919050565b6000602082019050818103600083015261146c81611430565b9050919050565b7f4e487b7100000000000000000000000000000000000000000000000000000000600052602260045260246000fd5b600060028204905060018216806114ba57607f821691505b6020821081036114cd576114cc611473565b5b50919050565b7f4e487b7100000000000000000000000000000000000000000000000000000000600052601160045260246000fd5b600061150d82610ba0565b91507fffffffffffffffffffffffffffffffffffffffffffffffffffffffffffffffff820361153f5761153e6114d3565b5b600182019050919050565b60008190508160005260206000209050919050565b60006020601f8301049050919050565b600082821b905092915050565b6000600883026115ac7fffffffffffffffffffffffffffffffffffffffffffffffffffffffffffffffff8261156f565b6115b6868361156f565b95508019841693508086168417925050509392505050565b6000819050919050565b60006115f36115ee6115e984610ba0565b6115ce565b610ba0565b9050919050565b6000819050919050565b61160d836115d8565b611621611619826115fa565b84845461157c565b825550505050565b600090565b611636611629565b611641818484611604565b505050565b5b818110156116655761165a60008261162e565b600181019050611647565b5050565b601f8211156116aa5761167b8161154a565b6116848461155f565b81016020851015611693578190505b6116a761169f8561155f565b830182611646565b50505b505050565b600082821c905092915050565b60006116cd600019846008026116af565b1980831691505092915050565b60006116e683836116bc565b9150826002028217905092915050565b6116ff82610d00565b67ffffffffffffffff81111561171857611717610f58565b5b61172282546114a2565b61172d828285611669565b600060209050601f831160018114611760576000841561174e578287015190505b61175885826116da565b8655506117c0565b601f19841661176e8661154a565b60005b8281101561179657848901518255600182019150602085019450602081019050611771565b868310156117b357848901516117af601f8916826116bc565b8355505b6001600288020188555050505b505050505050565b7f4f776e61626c653a206e6577206f776e657220697320746865207a65726f206160008201527f6464726573730000000000000000000000000000000000000000000000000000602082015250565b600061182460268361130f565b915061182f826117c8565b604082019050919050565b6000602082019050818103600083015261185381611817565b9050919050565b7f4f776e61626c653a2063616c6c6572206973206e6f7420746865206f776e6572600082015250565b600061189060208361130f565b915061189b8261185a565b602082019050919050565b600060208201905081810360008301526118bf81611883565b905091905056fea2646970667358221220d98e43060bec6cc31ab4ad85ea3f33e79747554e05dccd62eb9defd98080571964736f6c63430008120033",
					"opcodes": "PUSH1 0x80 PUSH1 0x40 MSTORE PUSH1 0x0 PUSH1 0x2 SSTORE CALLVALUE DUP1 ISZERO PUSH2 0x15 JUMPI PUSH1 0x0 DUP1 REVERT JUMPDEST POP CALLER PUSH1 0x0 DUP1 PUSH2 0x100 EXP DUP2 SLOAD DUP2 PUSH20 0xFFFFFFFFFFFFFFFFFFFFFFFFFFFFFFFFFFFFFFFF MUL NOT AND SWAP1 DUP4 PUSH20 0xFFFFFFFFFFFFFFFFFFFFFFFFFFFFFFFFFFFFFFFF AND MUL OR SWAP1 SSTORE POP PUSH2 0x18FC DUP1 PUSH2 0x65 PUSH1 0x0 CODECOPY PUSH1 0x0 RETURN INVALID PUSH1 0x80 PUSH1 0x40 MSTORE CALLVALUE DUP1 ISZERO PUSH2 0x10 JUMPI PUSH1 0x0 DUP1 REVERT JUMPDEST POP PUSH1 0x4 CALLDATASIZE LT PUSH2 0x9E JUMPI PUSH1 0x0 CALLDATALOAD PUSH1 0xE0 SHR DUP1 PUSH4 0xB2452BD3 GT PUSH2 0x66 JUMPI DUP1 PUSH4 0xB2452BD3 EQ PUSH2 0x121 JUMPI DUP1 PUSH4 0xD0AD0A28 EQ PUSH2 0x13D JUMPI DUP1 PUSH4 0xF0B4E21B EQ PUSH2 0x159 JUMPI DUP1 PUSH4 0xF18EEDA8 EQ PUSH2 0x175 JUMPI DUP1 PUSH4 0xF2FDE38B EQ PUSH2 0x191 JUMPI PUSH2 0x9E JUMP JUMPDEST DUP1 PUSH4 0x4D0A5DBD EQ PUSH2 0xA3 JUMPI DUP1 PUSH4 0x552B9DAE EQ PUSH2 0xBF JUMPI DUP1 PUSH4 0x83197EF0 EQ PUSH2 0xDB JUMPI DUP1 PUSH4 0x8D05A638 EQ PUSH2 0xE5 JUMPI DUP1 PUSH4 0x8DA5CB5B EQ PUSH2 0x103 JUMPI JUMPDEST PUSH1 0x0 DUP1 REVERT JUMPDEST PUSH2 0xBD PUSH1 0x4 DUP1 CALLDATASIZE SUB DUP2 ADD SWAP1 PUSH2 0xB8 SWAP2 SWAP1 PUSH2 0xB73 JUMP JUMPDEST PUSH2 0x1AD JUMP JUMPDEST STOP JUMPDEST PUSH2 0xD9 PUSH1 0x4 DUP1 CALLDATASIZE SUB DUP2 ADD SWAP1 PUSH2 0xD4 SWAP2 SWAP1 PUSH2 0xBD6 JUMP JUMPDEST PUSH2 0x29D JUMP JUMPDEST STOP JUMPDEST PUSH2 0xE3 PUSH2 0x2ED JUMP JUMPDEST STOP JUMPDEST PUSH2 0xED PUSH2 0x30E JUMP JUMPDEST PUSH1 0x40 MLOAD PUSH2 0xFA SWAP2 SWAP1 PUSH2 0xF07 JUMP JUMPDEST PUSH1 0x40 MLOAD DUP1 SWAP2 SUB SWAP1 RETURN JUMPDEST PUSH2 0x10B PUSH2 0x61B JUMP JUMPDEST PUSH1 0x40 MLOAD PUSH2 0x118 SWAP2 SWAP1 PUSH2 0xF38 JUMP JUMPDEST PUSH1 0x40 MLOAD DUP1 SWAP2 SUB SWAP1 RETURN JUMPDEST PUSH2 0x13B PUSH1 0x4 DUP1 CALLDATASIZE SUB DUP2 ADD SWAP1 PUSH2 0x136 SWAP2 SWAP1 PUSH2 0xBD6 JUMP JUMPDEST PUSH2 0x644 JUMP JUMPDEST STOP JUMPDEST PUSH2 0x157 PUSH1 0x4 DUP1 CALLDATASIZE SUB DUP2 ADD SWAP1 PUSH2 0x152 SWAP2 SWAP1 PUSH2 0xBD6 JUMP JUMPDEST PUSH2 0x694 JUMP JUMPDEST STOP JUMPDEST PUSH2 0x173 PUSH1 0x4 DUP1 CALLDATASIZE SUB DUP2 ADD SWAP1 PUSH2 0x16E SWAP2 SWAP1 PUSH2 0x12C6 JUMP JUMPDEST PUSH2 0x6E4 JUMP JUMPDEST STOP JUMPDEST PUSH2 0x18F PUSH1 0x4 DUP1 CALLDATASIZE SUB DUP2 ADD SWAP1 PUSH2 0x18A SWAP2 SWAP1 PUSH2 0xBD6 JUMP JUMPDEST PUSH2 0x881 JUMP JUMPDEST STOP JUMPDEST PUSH2 0x1AB PUSH1 0x4 DUP1 CALLDATASIZE SUB DUP2 ADD SWAP1 PUSH2 0x1A6 SWAP2 SWAP1 PUSH2 0xB73 JUMP JUMPDEST PUSH2 0x8D1 JUMP JUMPDEST STOP JUMPDEST PUSH2 0x1B5 PUSH2 0x954 JUMP JUMPDEST PUSH1 0x3 PUSH1 0x0 DUP3 PUSH20 0xFFFFFFFFFFFFFFFFFFFFFFFFFFFFFFFFFFFFFFFF AND PUSH20 0xFFFFFFFFFFFFFFFFFFFFFFFFFFFFFFFFFFFFFFFF AND DUP2 MSTORE PUSH1 0x20 ADD SWAP1 DUP2 MSTORE PUSH1 0x20 ADD PUSH1 0x0 KECCAK256 PUSH1 0x0 SWAP1 SLOAD SWAP1 PUSH2 0x100 EXP SWAP1 DIV PUSH1 0xFF AND ISZERO PUSH2 0x242 JUMPI PUSH1 0x40 MLOAD PUSH32 0x8C379A000000000000000000000000000000000000000000000000000000000 DUP2 MSTORE PUSH1 0x4 ADD PUSH2 0x239 SWAP1 PUSH2 0x1392 JUMP JUMPDEST PUSH1 0x40 MLOAD DUP1 SWAP2 SUB SWAP1 REVERT JUMPDEST PUSH1 0x1 PUSH1 0x3 PUSH1 0x0 DUP4 PUSH20 0xFFFFFFFFFFFFFFFFFFFFFFFFFFFFFFFFFFFFFFFF AND PUSH20 0xFFFFFFFFFFFFFFFFFFFFFFFFFFFFFFFFFFFFFFFF AND DUP2 MSTORE PUSH1 0x20 ADD SWAP1 DUP2 MSTORE PUSH1 0x20 ADD PUSH1 0x0 KECCAK256 PUSH1 0x0 PUSH2 0x100 EXP DUP2 SLOAD DUP2 PUSH1 0xFF MUL NOT AND SWAP1 DUP4 ISZERO ISZERO MUL OR SWAP1 SSTORE POP POP JUMP JUMPDEST PUSH1 0x1 DUP3 DUP2 SLOAD DUP2 LT PUSH2 0x2B1 JUMPI PUSH2 0x2B0 PUSH2 0x13B2 JUMP JUMPDEST JUMPDEST SWAP1 PUSH1 0x0 MSTORE PUSH1 0x20 PUSH1 0x0 KECCAK256 SWAP1 PUSH1 0x9 MUL ADD PUSH1 0x4 ADD DUP2 SWAP1 DUP1 PUSH1 0x1 DUP2 SLOAD ADD DUP1 DUP3 SSTORE DUP1 SWAP2 POP POP PUSH1 0x1 SWAP1 SUB SWAP1 PUSH1 0x0 MSTORE PUSH1 0x20 PUSH1 0x0 KECCAK256 ADD PUSH1 0x0 SWAP1 SWAP2 SWAP1 SWAP2 SWAP1 SWAP2 POP SSTORE POP POP JUMP JUMPDEST PUSH2 0x2F5 PUSH2 0x954 JUMP JUMPDEST ADDRESS PUSH20 0xFFFFFFFFFFFFFFFFFFFFFFFFFFFFFFFFFFFFFFFF AND SELFDESTRUCT JUMPDEST PUSH1 0x60 PUSH1 0x3 PUSH1 0x0 PUSH2 0x31C PUSH2 0x9CB JUMP JUMPDEST PUSH20 0xFFFFFFFFFFFFFFFFFFFFFFFFFFFFFFFFFFFFFFFF AND PUSH20 0xFFFFFFFFFFFFFFFFFFFFFFFFFFFFFFFFFFFFFFFF AND DUP2 MSTORE PUSH1 0x20 ADD SWAP1 DUP2 MSTORE PUSH1 0x20 ADD PUSH1 0x0 KECCAK256 PUSH1 0x0 SWAP1 SLOAD SWAP1 PUSH2 0x100 EXP SWAP1 DIV PUSH1 0xFF AND PUSH2 0x3A3 JUMPI PUSH1 0x40 MLOAD PUSH32 0x8C379A000000000000000000000000000000000000000000000000000000000 DUP2 MSTORE PUSH1 0x4 ADD PUSH2 0x39A SWAP1 PUSH2 0x1453 JUMP JUMPDEST PUSH1 0x40 MLOAD DUP1 SWAP2 SUB SWAP1 REVERT JUMPDEST PUSH1 0x1 DUP1 SLOAD DUP1 PUSH1 0x20 MUL PUSH1 0x20 ADD PUSH1 0x40 MLOAD SWAP1 DUP2 ADD PUSH1 0x40 MSTORE DUP1 SWAP3 SWAP2 SWAP1 DUP2 DUP2 MSTORE PUSH1 0x20 ADD PUSH1 0x0 SWAP1 JUMPDEST DUP3 DUP3 LT ISZERO PUSH2 0x612 JUMPI DUP4 DUP3 SWAP1 PUSH1 0x0 MSTORE PUSH1 0x20 PUSH1 0x0 KECCAK256 SWAP1 PUSH1 0x9 MUL ADD PUSH1 0x40 MLOAD DUP1 PUSH2 0x120 ADD PUSH1 0x40 MSTORE SWAP1 DUP2 PUSH1 0x0 DUP3 ADD SLOAD DUP2 MSTORE PUSH1 0x20 ADD PUSH1 0x1 DUP3 ADD SLOAD DUP2 MSTORE PUSH1 0x20 ADD PUSH1 0x2 DUP3 ADD SLOAD DUP2 MSTORE PUSH1 0x20 ADD PUSH1 0x3 DUP3 ADD SLOAD DUP2 MSTORE PUSH1 0x20 ADD PUSH1 0x4 DUP3 ADD DUP1 SLOAD DUP1 PUSH1 0x20 MUL PUSH1 0x20 ADD PUSH1 0x40 MLOAD SWAP1 DUP2 ADD PUSH1 0x40 MSTORE DUP1 SWAP3 SWAP2 SWAP1 DUP2 DUP2 MSTORE PUSH1 0x20 ADD DUP3 DUP1 SLOAD DUP1 ISZERO PUSH2 0x460 JUMPI PUSH1 0x20 MUL DUP3 ADD SWAP2 SWAP1 PUSH1 0x0 MSTORE PUSH1 0x20 PUSH1 0x0 KECCAK256 SWAP1 JUMPDEST DUP2 SLOAD DUP2 MSTORE PUSH1 0x20 ADD SWAP1 PUSH1 0x1 ADD SWAP1 DUP1 DUP4 GT PUSH2 0x44C JUMPI JUMPDEST POP POP POP POP POP DUP2 MSTORE PUSH1 0x20 ADD PUSH1 0x5 DUP3 ADD DUP1 SLOAD DUP1 PUSH1 0x20 MUL PUSH1 0x20 ADD PUSH1 0x40 MLOAD SWAP1 DUP2 ADD PUSH1 0x40 MSTORE DUP1 SWAP3 SWAP2 SWAP1 DUP2 DUP2 MSTORE PUSH1 0x20 ADD DUP3 DUP1 SLOAD DUP1 ISZERO PUSH2 0x4B8 JUMPI PUSH1 0x20 MUL DUP3 ADD SWAP2 SWAP1 PUSH1 0x0 MSTORE PUSH1 0x20 PUSH1 0x0 KECCAK256 SWAP1 JUMPDEST DUP2 SLOAD DUP2 MSTORE PUSH1 0x20 ADD SWAP1 PUSH1 0x1 ADD SWAP1 DUP1 DUP4 GT PUSH2 0x4A4 JUMPI JUMPDEST POP POP POP POP POP DUP2 MSTORE PUSH1 0x20 ADD PUSH1 0x6 DUP3 ADD DUP1 SLOAD DUP1 PUSH1 0x20 MUL PUSH1 0x20 ADD PUSH1 0x40 MLOAD SWAP1 DUP2 ADD PUSH1 0x40 MSTORE DUP1 SWAP3 SWAP2 SWAP1 DUP2 DUP2 MSTORE PUSH1 0x20 ADD DUP3 DUP1 SLOAD DUP1 ISZERO PUSH2 0x510 JUMPI PUSH1 0x20 MUL DUP3 ADD SWAP2 SWAP1 PUSH1 0x0 MSTORE PUSH1 0x20 PUSH1 0x0 KECCAK256 SWAP1 JUMPDEST DUP2 SLOAD DUP2 MSTORE PUSH1 0x20 ADD SWAP1 PUSH1 0x1 ADD SWAP1 DUP1 DUP4 GT PUSH2 0x4FC JUMPI JUMPDEST POP POP POP POP POP DUP2 MSTORE PUSH1 0x20 ADD PUSH1 0x7 DUP3 ADD DUP1 SLOAD DUP1 PUSH1 0x20 MUL PUSH1 0x20 ADD PUSH1 0x40 MLOAD SWAP1 DUP2 ADD PUSH1 0x40 MSTORE DUP1 SWAP3 SWAP2 SWAP1 DUP2 DUP2 MSTORE PUSH1 0x20 ADD DUP3 DUP1 SLOAD DUP1 ISZERO PUSH2 0x568 JUMPI PUSH1 0x20 MUL DUP3 ADD SWAP2 SWAP1 PUSH1 0x0 MSTORE PUSH1 0x20 PUSH1 0x0 KECCAK256 SWAP1 JUMPDEST DUP2 SLOAD DUP2 MSTORE PUSH1 0x20 ADD SWAP1 PUSH1 0x1 ADD SWAP1 DUP1 DUP4 GT PUSH2 0x554 JUMPI JUMPDEST POP POP POP POP POP DUP2 MSTORE PUSH1 0x20 ADD PUSH1 0x8 DUP3 ADD DUP1 SLOAD PUSH2 0x581 SWAP1 PUSH2 0x14A2 JUMP JUMPDEST DUP1 PUSH1 0x1F ADD PUSH1 0x20 DUP1 SWAP2 DIV MUL PUSH1 0x20 ADD PUSH1 0x40 MLOAD SWAP1 DUP2 ADD PUSH1 0x40 MSTORE DUP1 SWAP3 SWAP2 SWAP1 DUP2 DUP2 MSTORE PUSH1 0x20 ADD DUP3 DUP1 SLOAD PUSH2 0x5AD SWAP1 PUSH2 0x14A2 JUMP JUMPDEST DUP1 ISZERO PUSH2 0x5FA JUMPI DUP1 PUSH1 0x1F LT PUSH2 0x5CF JUMPI PUSH2 0x100 DUP1 DUP4 SLOAD DIV MUL DUP4 MSTORE SWAP2 PUSH1 0x20 ADD SWAP2 PUSH2 0x5FA JUMP JUMPDEST DUP3 ADD SWAP2 SWAP1 PUSH1 0x0 MSTORE PUSH1 0x20 PUSH1 0x0 KECCAK256 SWAP1 JUMPDEST DUP2 SLOAD DUP2 MSTORE SWAP1 PUSH1 0x1 ADD SWAP1 PUSH1 0x20 ADD DUP1 DUP4 GT PUSH2 0x5DD JUMPI DUP3 SWAP1 SUB PUSH1 0x1F AND DUP3 ADD SWAP2 JUMPDEST POP POP POP POP POP DUP2 MSTORE POP POP DUP2 MSTORE PUSH1 0x20 ADD SWAP1 PUSH1 0x1 ADD SWAP1 PUSH2 0x3C5 JUMP JUMPDEST POP POP POP POP SWAP1 POP SWAP1 JUMP JUMPDEST PUSH1 0x0 DUP1 PUSH1 0x0 SWAP1 SLOAD SWAP1 PUSH2 0x100 EXP SWAP1 DIV PUSH20 0xFFFFFFFFFFFFFFFFFFFFFFFFFFFFFFFFFFFFFFFF AND SWAP1 POP SWAP1 JUMP JUMPDEST PUSH1 0x1 DUP3 DUP2 SLOAD DUP2 LT PUSH2 0x658 JUMPI PUSH2 0x657 PUSH2 0x13B2 JUMP JUMPDEST JUMPDEST SWAP1 PUSH1 0x0 MSTORE PUSH1 0x20 PUSH1 0x0 KECCAK256 SWAP1 PUSH1 0x9 MUL ADD PUSH1 0x5 ADD DUP2 SWAP1 DUP1 PUSH1 0x1 DUP2 SLOAD ADD DUP1 DUP3 SSTORE DUP1 SWAP2 POP POP PUSH1 0x1 SWAP1 SUB SWAP1 PUSH1 0x0 MSTORE PUSH1 0x20 PUSH1 0x0 KECCAK256 ADD PUSH1 0x0 SWAP1 SWAP2 SWAP1 SWAP2 SWAP1 SWAP2 POP SSTORE POP POP JUMP JUMPDEST PUSH1 0x1 DUP3 DUP2 SLOAD DUP2 LT PUSH2 0x6A8 JUMPI PUSH2 0x6A7 PUSH2 0x13B2 JUMP JUMPDEST JUMPDEST SWAP1 PUSH1 0x0 MSTORE PUSH1 0x20 PUSH1 0x0 KECCAK256 SWAP1 PUSH1 0x9 MUL ADD PUSH1 0x7 ADD DUP2 SWAP1 DUP1 PUSH1 0x1 DUP2 SLOAD ADD DUP1 DUP3 SSTORE DUP1 SWAP2 POP POP PUSH1 0x1 SWAP1 SUB SWAP1 PUSH1 0x0 MSTORE PUSH1 0x20 PUSH1 0x0 KECCAK256 ADD PUSH1 0x0 SWAP1 SWAP2 SWAP1 SWAP2 SWAP1 SWAP2 POP SSTORE POP POP JUMP JUMPDEST PUSH1 0x3 PUSH1 0x0 PUSH2 0x6F0 PUSH2 0x9CB JUMP JUMPDEST PUSH20 0xFFFFFFFFFFFFFFFFFFFFFFFFFFFFFFFFFFFFFFFF AND PUSH20 0xFFFFFFFFFFFFFFFFFFFFFFFFFFFFFFFFFFFFFFFF AND DUP2 MSTORE PUSH1 0x20 ADD SWAP1 DUP2 MSTORE PUSH1 0x20 ADD PUSH1 0x0 KECCAK256 PUSH1 0x0 SWAP1 SLOAD SWAP1 PUSH2 0x100 EXP SWAP1 DIV PUSH1 0xFF AND PUSH2 0x777 JUMPI PUSH1 0x40 MLOAD PUSH32 0x8C379A000000000000000000000000000000000000000000000000000000000 DUP2 MSTORE PUSH1 0x4 ADD PUSH2 0x76E SWAP1 PUSH2 0x1453 JUMP JUMPDEST PUSH1 0x40 MLOAD DUP1 SWAP2 SUB SWAP1 REVERT JUMPDEST PUSH1 0x0 PUSH1 0x2 PUSH1 0x0 DUP2 SLOAD DUP1 SWAP3 SWAP2 SWAP1 PUSH2 0x78C SWAP1 PUSH2 0x1502 JUMP JUMPDEST SWAP2 SWAP1 POP SSTORE SWAP1 POP DUP1 DUP3 PUSH1 0x0 ADD DUP2 DUP2 MSTORE POP POP PUSH1 0x1 DUP3 SWAP1 DUP1 PUSH1 0x1 DUP2 SLOAD ADD DUP1 DUP3 SSTORE DUP1 SWAP2 POP POP PUSH1 0x1 SWAP1 SUB SWAP1 PUSH1 0x0 MSTORE PUSH1 0x20 PUSH1 0x0 KECCAK256 SWAP1 PUSH1 0x9 MUL ADD PUSH1 0x0 SWAP1 SWAP2 SWAP1 SWAP2 SWAP1 SWAP2 POP PUSH1 0x0 DUP3 ADD MLOAD DUP2 PUSH1 0x0 ADD SSTORE PUSH1 0x20 DUP3 ADD MLOAD DUP2 PUSH1 0x1 ADD SSTORE PUSH1 0x40 DUP3 ADD MLOAD DUP2 PUSH1 0x2 ADD SSTORE PUSH1 0x60 DUP3 ADD MLOAD DUP2 PUSH1 0x3 ADD SSTORE PUSH1 0x80 DUP3 ADD MLOAD DUP2 PUSH1 0x4 ADD SWAP1 DUP1 MLOAD SWAP1 PUSH1 0x20 ADD SWAP1 PUSH2 0x80C SWAP3 SWAP2 SWAP1 PUSH2 0xA97 JUMP JUMPDEST POP PUSH1 0xA0 DUP3 ADD MLOAD DUP2 PUSH1 0x5 ADD SWAP1 DUP1 MLOAD SWAP1 PUSH1 0x20 ADD SWAP1 PUSH2 0x829 SWAP3 SWAP2 SWAP1 PUSH2 0xA97 JUMP JUMPDEST POP PUSH1 0xC0 DUP3 ADD MLOAD DUP2 PUSH1 0x6 ADD SWAP1 DUP1 MLOAD SWAP1 PUSH1 0x20 ADD SWAP1 PUSH2 0x846 SWAP3 SWAP2 SWAP1 PUSH2 0xA97 JUMP JUMPDEST POP PUSH1 0xE0 DUP3 ADD MLOAD DUP2 PUSH1 0x7 ADD SWAP1 DUP1 MLOAD SWAP1 PUSH1 0x20 ADD SWAP1 PUSH2 0x863 SWAP3 SWAP2 SWAP1 PUSH2 0xA97 JUMP JUMPDEST POP PUSH2 0x100 DUP3 ADD MLOAD DUP2 PUSH1 0x8 ADD SWAP1 DUP2 PUSH2 0x87A SWAP2 SWAP1 PUSH2 0x16F6 JUMP JUMPDEST POP POP POP POP POP JUMP JUMPDEST PUSH1 0x1 DUP3 DUP2 SLOAD DUP2 LT PUSH2 0x895 JUMPI PUSH2 0x894 PUSH2 0x13B2 JUMP JUMPDEST JUMPDEST SWAP1 PUSH1 0x0 MSTORE PUSH1 0x20 PUSH1 0x0 KECCAK256 SWAP1 PUSH1 0x9 MUL ADD PUSH1 0x6 ADD DUP2 SWAP1 DUP1 PUSH1 0x1 DUP2 SLOAD ADD DUP1 DUP3 SSTORE DUP1 SWAP2 POP POP PUSH1 0x1 SWAP1 SUB SWAP1 PUSH1 0x0 MSTORE PUSH1 0x20 PUSH1 0x0 KECCAK256 ADD PUSH1 0x0 SWAP1 SWAP2 SWAP1 SWAP2 SWAP1 SWAP2 POP SSTORE POP POP JUMP JUMPDEST PUSH2 0x8D9 PUSH2 0x954 JUMP JUMPDEST PUSH1 0x0 PUSH20 0xFFFFFFFFFFFFFFFFFFFFFFFFFFFFFFFFFFFFFFFF AND DUP2 PUSH20 0xFFFFFFFFFFFFFFFFFFFFFFFFFFFFFFFFFFFFFFFF AND SUB PUSH2 0x948 JUMPI PUSH1 0x40 MLOAD PUSH32 0x8C379A000000000000000000000000000000000000000000000000000000000 DUP2 MSTORE PUSH1 0x4 ADD PUSH2 0x93F SWAP1 PUSH2 0x183A JUMP JUMPDEST PUSH1 0x40 MLOAD DUP1 SWAP2 SUB SWAP1 REVERT JUMPDEST PUSH2 0x951 DUP2 PUSH2 0x9D3 JUMP JUMPDEST POP JUMP JUMPDEST CALLER PUSH20 0xFFFFFFFFFFFFFFFFFFFFFFFFFFFFFFFFFFFFFFFF AND PUSH2 0x973 PUSH2 0x61B JUMP JUMPDEST PUSH20 0xFFFFFFFFFFFFFFFFFFFFFFFFFFFFFFFFFFFFFFFF AND EQ PUSH2 0x9C9 JUMPI PUSH1 0x40 MLOAD PUSH32 0x8C379A000000000000000000000000000000000000000000000000000000000 DUP2 MSTORE PUSH1 0x4 ADD PUSH2 0x9C0 SWAP1 PUSH2 0x18A6 JUMP JUMPDEST PUSH1 0x40 MLOAD DUP1 SWAP2 SUB SWAP1 REVERT JUMPDEST JUMP JUMPDEST PUSH1 0x0 CALLER SWAP1 POP SWAP1 JUMP JUMPDEST PUSH1 0x0 DUP1 PUSH1 0x0 SWAP1 SLOAD SWAP1 PUSH2 0x100 EXP SWAP1 DIV PUSH20 0xFFFFFFFFFFFFFFFFFFFFFFFFFFFFFFFFFFFFFFFF AND SWAP1 POP DUP2 PUSH1 0x0 DUP1 PUSH2 0x100 EXP DUP2 SLOAD DUP2 PUSH20 0xFFFFFFFFFFFFFFFFFFFFFFFFFFFFFFFFFFFFFFFF MUL NOT AND SWAP1 DUP4 PUSH20 0xFFFFFFFFFFFFFFFFFFFFFFFFFFFFFFFFFFFFFFFF AND MUL OR SWAP1 SSTORE POP DUP2 PUSH20 0xFFFFFFFFFFFFFFFFFFFFFFFFFFFFFFFFFFFFFFFF AND DUP2 PUSH20 0xFFFFFFFFFFFFFFFFFFFFFFFFFFFFFFFFFFFFFFFF AND PUSH32 0x8BE0079C531659141344CD1FD0A4F28419497F9722A3DAAFE3B4186F6B6457E0 PUSH1 0x40 MLOAD PUSH1 0x40 MLOAD DUP1 SWAP2 SUB SWAP1 LOG3 POP POP JUMP JUMPDEST DUP3 DUP1 SLOAD DUP3 DUP3 SSTORE SWAP1 PUSH1 0x0 MSTORE PUSH1 0x20 PUSH1 0x0 KECCAK256 SWAP1 DUP2 ADD SWAP3 DUP3 ISZERO PUSH2 0xAD3 JUMPI SWAP2 PUSH1 0x20 MUL DUP3 ADD JUMPDEST DUP3 DUP2 GT ISZERO PUSH2 0xAD2 JUMPI DUP3 MLOAD DUP3 SSTORE SWAP2 PUSH1 0x20 ADD SWAP2 SWAP1 PUSH1 0x1 ADD SWAP1 PUSH2 0xAB7 JUMP JUMPDEST JUMPDEST POP SWAP1 POP PUSH2 0xAE0 SWAP2 SWAP1 PUSH2 0xAE4 JUMP JUMPDEST POP SWAP1 JUMP JUMPDEST JUMPDEST DUP1 DUP3 GT ISZERO PUSH2 0xAFD JUMPI PUSH1 0x0 DUP2 PUSH1 0x0 SWAP1 SSTORE POP PUSH1 0x1 ADD PUSH2 0xAE5 JUMP JUMPDEST POP SWAP1 JUMP JUMPDEST PUSH1 0x0 PUSH1 0x40 MLOAD SWAP1 POP SWAP1 JUMP JUMPDEST PUSH1 0x0 DUP1 REVERT JUMPDEST PUSH1 0x0 DUP1 REVERT JUMPDEST PUSH1 0x0 PUSH20 0xFFFFFFFFFFFFFFFFFFFFFFFFFFFFFFFFFFFFFFFF DUP3 AND SWAP1 POP SWAP2 SWAP1 POP JUMP JUMPDEST PUSH1 0x0 PUSH2 0xB40 DUP3 PUSH2 0xB15 JUMP JUMPDEST SWAP1 POP SWAP2 SWAP1 POP JUMP JUMPDEST PUSH2 0xB50 DUP2 PUSH2 0xB35 JUMP JUMPDEST DUP2 EQ PUSH2 0xB5B JUMPI PUSH1 0x0 DUP1 REVERT JUMPDEST POP JUMP JUMPDEST PUSH1 0x0 DUP2 CALLDATALOAD SWAP1 POP PUSH2 0xB6D DUP2 PUSH2 0xB47 JUMP JUMPDEST SWAP3 SWAP2 POP POP JUMP JUMPDEST PUSH1 0x0 PUSH1 0x20 DUP3 DUP5 SUB SLT ISZERO PUSH2 0xB89 JUMPI PUSH2 0xB88 PUSH2 0xB0B JUMP JUMPDEST JUMPDEST PUSH1 0x0 PUSH2 0xB97 DUP5 DUP3 DUP6 ADD PUSH2 0xB5E JUMP JUMPDEST SWAP2 POP POP SWAP3 SWAP2 POP POP JUMP JUMPDEST PUSH1 0x0 DUP2 SWAP1 POP SWAP2 SWAP1 POP JUMP JUMPDEST PUSH2 0xBB3 DUP2 PUSH2 0xBA0 JUMP JUMPDEST DUP2 EQ PUSH2 0xBBE JUMPI PUSH1 0x0 DUP1 REVERT JUMPDEST POP JUMP JUMPDEST PUSH1 0x0 DUP2 CALLDATALOAD SWAP1 POP PUSH2 0xBD0 DUP2 PUSH2 0xBAA JUMP JUMPDEST SWAP3 SWAP2 POP POP JUMP JUMPDEST PUSH1 0x0 DUP1 PUSH1 0x40 DUP4 DUP6 SUB SLT ISZERO PUSH2 0xBED JUMPI PUSH2 0xBEC PUSH2 0xB0B JUMP JUMPDEST JUMPDEST PUSH1 0x0 PUSH2 0xBFB DUP6 DUP3 DUP7 ADD PUSH2 0xBC1 JUMP JUMPDEST SWAP3 POP POP PUSH1 0x20 PUSH2 0xC0C DUP6 DUP3 DUP7 ADD PUSH2 0xBC1 JUMP JUMPDEST SWAP2 POP POP SWAP3 POP SWAP3 SWAP1 POP JUMP JUMPDEST PUSH1 0x0 DUP2 MLOAD SWAP1 POP SWAP2 SWAP1 POP JUMP JUMPDEST PUSH1 0x0 DUP3 DUP3 MSTORE PUSH1 0x20 DUP3 ADD SWAP1 POP SWAP3 SWAP2 POP POP JUMP JUMPDEST PUSH1 0x0 DUP2 SWAP1 POP PUSH1 0x20 DUP3 ADD SWAP1 POP SWAP2 SWAP1 POP JUMP JUMPDEST PUSH2 0xC4B DUP2 PUSH2 0xBA0 JUMP JUMPDEST DUP3 MSTORE POP POP JUMP JUMPDEST PUSH1 0x0 DUP2 MLOAD SWAP1 POP SWAP2 SWAP1 POP JUMP JUMPDEST PUSH1 0x0 DUP3 DUP3 MSTORE PUSH1 0x20 DUP3 ADD SWAP1 POP SWAP3 SWAP2 POP POP JUMP JUMPDEST PUSH1 0x0 DUP2 SWAP1 POP PUSH1 0x20 DUP3 ADD SWAP1 POP SWAP2 SWAP1 POP JUMP JUMPDEST PUSH1 0x0 PUSH2 0xC89 DUP4 DUP4 PUSH2 0xC42 JUMP JUMPDEST PUSH1 0x20 DUP4 ADD SWAP1 POP SWAP3 SWAP2 POP POP JUMP JUMPDEST PUSH1 0x0 PUSH1 0x20 DUP3 ADD SWAP1 POP SWAP2 SWAP1 POP JUMP JUMPDEST PUSH1 0x0 PUSH2 0xCAD DUP3 PUSH2 0xC51 JUMP JUMPDEST PUSH2 0xCB7 DUP2 DUP6 PUSH2 0xC5C JUMP JUMPDEST SWAP4 POP PUSH2 0xCC2 DUP4 PUSH2 0xC6D JUMP JUMPDEST DUP1 PUSH1 0x0 JUMPDEST DUP4 DUP2 LT ISZERO PUSH2 0xCF3 JUMPI DUP2 MLOAD PUSH2 0xCDA DUP9 DUP3 PUSH2 0xC7D JUMP JUMPDEST SWAP8 POP PUSH2 0xCE5 DUP4 PUSH2 0xC95 JUMP JUMPDEST SWAP3 POP POP PUSH1 0x1 DUP2 ADD SWAP1 POP PUSH2 0xCC6 JUMP JUMPDEST POP DUP6 SWAP4 POP POP POP POP SWAP3 SWAP2 POP POP JUMP JUMPDEST PUSH1 0x0 DUP2 MLOAD SWAP1 POP SWAP2 SWAP1 POP JUMP JUMPDEST PUSH1 0x0 DUP3 DUP3 MSTORE PUSH1 0x20 DUP3 ADD SWAP1 POP SWAP3 SWAP2 POP POP JUMP JUMPDEST PUSH1 0x0 JUMPDEST DUP4 DUP2 LT ISZERO PUSH2 0xD3A JUMPI DUP1 DUP3 ADD MLOAD DUP2 DUP5 ADD MSTORE PUSH1 0x20 DUP2 ADD SWAP1 POP PUSH2 0xD1F JUMP JUMPDEST PUSH1 0x0 DUP5 DUP5 ADD MSTORE POP POP POP POP JUMP JUMPDEST PUSH1 0x0 PUSH1 0x1F NOT PUSH1 0x1F DUP4 ADD AND SWAP1 POP SWAP2 SWAP1 POP JUMP JUMPDEST PUSH1 0x0 PUSH2 0xD62 DUP3 PUSH2 0xD00 JUMP JUMPDEST PUSH2 0xD6C DUP2 DUP6 PUSH2 0xD0B JUMP JUMPDEST SWAP4 POP PUSH2 0xD7C DUP2 DUP6 PUSH1 0x20 DUP7 ADD PUSH2 0xD1C JUMP JUMPDEST PUSH2 0xD85 DUP2 PUSH2 0xD46 JUMP JUMPDEST DUP5 ADD SWAP2 POP POP SWAP3 SWAP2 POP POP JUMP JUMPDEST PUSH1 0x0 PUSH2 0x120 DUP4 ADD PUSH1 0x0 DUP4 ADD MLOAD PUSH2 0xDA9 PUSH1 0x0 DUP7 ADD DUP3 PUSH2 0xC42 JUMP JUMPDEST POP PUSH1 0x20 DUP4 ADD MLOAD PUSH2 0xDBC PUSH1 0x20 DUP7 ADD DUP3 PUSH2 0xC42 JUMP JUMPDEST POP PUSH1 0x40 DUP4 ADD MLOAD PUSH2 0xDCF PUSH1 0x40 DUP7 ADD DUP3 PUSH2 0xC42 JUMP JUMPDEST POP PUSH1 0x60 DUP4 ADD MLOAD PUSH2 0xDE2 PUSH1 0x60 DUP7 ADD DUP3 PUSH2 0xC42 JUMP JUMPDEST POP PUSH1 0x80 DUP4 ADD MLOAD DUP5 DUP3 SUB PUSH1 0x80 DUP7 ADD MSTORE PUSH2 0xDFA DUP3 DUP3 PUSH2 0xCA2 JUMP JUMPDEST SWAP2 POP POP PUSH1 0xA0 DUP4 ADD MLOAD DUP5 DUP3 SUB PUSH1 0xA0 DUP7 ADD MSTORE PUSH2 0xE14 DUP3 DUP3 PUSH2 0xCA2 JUMP JUMPDEST SWAP2 POP POP PUSH1 0xC0 DUP4 ADD MLOAD DUP5 DUP3 SUB PUSH1 0xC0 DUP7 ADD MSTORE PUSH2 0xE2E DUP3 DUP3 PUSH2 0xCA2 JUMP JUMPDEST SWAP2 POP POP PUSH1 0xE0 DUP4 ADD MLOAD DUP5 DUP3 SUB PUSH1 0xE0 DUP7 ADD MSTORE PUSH2 0xE48 DUP3 DUP3 PUSH2 0xCA2 JUMP JUMPDEST SWAP2 POP POP PUSH2 0x100 DUP4 ADD MLOAD DUP5 DUP3 SUB PUSH2 0x100 DUP7 ADD MSTORE PUSH2 0xE64 DUP3 DUP3 PUSH2 0xD57 JUMP JUMPDEST SWAP2 POP POP DUP1 SWAP2 POP POP SWAP3 SWAP2 POP POP JUMP JUMPDEST PUSH1 0x0 PUSH2 0xE7D DUP4 DUP4 PUSH2 0xD90 JUMP JUMPDEST SWAP1 POP SWAP3 SWAP2 POP POP JUMP JUMPDEST PUSH1 0x0 PUSH1 0x20 DUP3 ADD SWAP1 POP SWAP2 SWAP1 POP JUMP JUMPDEST PUSH1 0x0 PUSH2 0xE9D DUP3 PUSH2 0xC16 JUMP JUMPDEST PUSH2 0xEA7 DUP2 DUP6 PUSH2 0xC21 JUMP JUMPDEST SWAP4 POP DUP4 PUSH1 0x20 DUP3 MUL DUP6 ADD PUSH2 0xEB9 DUP6 PUSH2 0xC32 JUMP JUMPDEST DUP1 PUSH1 0x0 JUMPDEST DUP6 DUP2 LT ISZERO PUSH2 0xEF5 JUMPI DUP5 DUP5 SUB DUP10 MSTORE DUP2 MLOAD PUSH2 0xED6 DUP6 DUP3 PUSH2 0xE71 JUMP JUMPDEST SWAP5 POP PUSH2 0xEE1 DUP4 PUSH2 0xE85 JUMP JUMPDEST SWAP3 POP PUSH1 0x20 DUP11 ADD SWAP10 POP POP PUSH1 0x1 DUP2 ADD SWAP1 POP PUSH2 0xEBD JUMP JUMPDEST POP DUP3 SWAP8 POP DUP8 SWAP6 POP POP POP POP POP POP SWAP3 SWAP2 POP POP JUMP JUMPDEST PUSH1 0x0 PUSH1 0x20 DUP3 ADD SWAP1 POP DUP2 DUP2 SUB PUSH1 0x0 DUP4 ADD MSTORE PUSH2 0xF21 DUP2 DUP5 PUSH2 0xE92 JUMP JUMPDEST SWAP1 POP SWAP3 SWAP2 POP POP JUMP JUMPDEST PUSH2 0xF32 DUP2 PUSH2 0xB35 JUMP JUMPDEST DUP3 MSTORE POP POP JUMP JUMPDEST PUSH1 0x0 PUSH1 0x20 DUP3 ADD SWAP1 POP PUSH2 0xF4D PUSH1 0x0 DUP4 ADD DUP5 PUSH2 0xF29 JUMP JUMPDEST SWAP3 SWAP2 POP POP JUMP JUMPDEST PUSH1 0x0 DUP1 REVERT JUMPDEST PUSH32 0x4E487B7100000000000000000000000000000000000000000000000000000000 PUSH1 0x0 MSTORE PUSH1 0x41 PUSH1 0x4 MSTORE PUSH1 0x24 PUSH1 0x0 REVERT JUMPDEST PUSH2 0xF90 DUP3 PUSH2 0xD46 JUMP JUMPDEST DUP2 ADD DUP2 DUP2 LT PUSH8 0xFFFFFFFFFFFFFFFF DUP3 GT OR ISZERO PUSH2 0xFAF JUMPI PUSH2 0xFAE PUSH2 0xF58 JUMP JUMPDEST JUMPDEST DUP1 PUSH1 0x40 MSTORE POP POP POP JUMP JUMPDEST PUSH1 0x0 PUSH2 0xFC2 PUSH2 0xB01 JUMP JUMPDEST SWAP1 POP PUSH2 0xFCE DUP3 DUP3 PUSH2 0xF87 JUMP JUMPDEST SWAP2 SWAP1 POP JUMP JUMPDEST PUSH1 0x0 DUP1 REVERT JUMPDEST PUSH1 0x0 DUP1 REVERT JUMPDEST PUSH1 0x0 PUSH8 0xFFFFFFFFFFFFFFFF DUP3 GT ISZERO PUSH2 0xFF8 JUMPI PUSH2 0xFF7 PUSH2 0xF58 JUMP JUMPDEST JUMPDEST PUSH1 0x20 DUP3 MUL SWAP1 POP PUSH1 0x20 DUP2 ADD SWAP1 POP SWAP2 SWAP1 POP JUMP JUMPDEST PUSH1 0x0 DUP1 REVERT JUMPDEST PUSH1 0x0 PUSH2 0x1021 PUSH2 0x101C DUP5 PUSH2 0xFDD JUMP JUMPDEST PUSH2 0xFB8 JUMP JUMPDEST SWAP1 POP DUP1 DUP4 DUP3 MSTORE PUSH1 0x20 DUP3 ADD SWAP1 POP PUSH1 0x20 DUP5 MUL DUP4 ADD DUP6 DUP2 GT ISZERO PUSH2 0x1044 JUMPI PUSH2 0x1043 PUSH2 0x1009 JUMP JUMPDEST JUMPDEST DUP4 JUMPDEST DUP2 DUP2 LT ISZERO PUSH2 0x106D JUMPI DUP1 PUSH2 0x1059 DUP9 DUP3 PUSH2 0xBC1 JUMP JUMPDEST DUP5 MSTORE PUSH1 0x20 DUP5 ADD SWAP4 POP POP PUSH1 0x20 DUP2 ADD SWAP1 POP PUSH2 0x1046 JUMP JUMPDEST POP POP POP SWAP4 SWAP3 POP POP POP JUMP JUMPDEST PUSH1 0x0 DUP3 PUSH1 0x1F DUP4 ADD SLT PUSH2 0x108C JUMPI PUSH2 0x108B PUSH2 0xFD8 JUMP JUMPDEST JUMPDEST DUP2 CALLDATALOAD PUSH2 0x109C DUP5 DUP3 PUSH1 0x20 DUP7 ADD PUSH2 0x100E JUMP JUMPDEST SWAP2 POP POP SWAP3 SWAP2 POP POP JUMP JUMPDEST PUSH1 0x0 DUP1 REVERT JUMPDEST PUSH1 0x0 PUSH8 0xFFFFFFFFFFFFFFFF DUP3 GT ISZERO PUSH2 0x10C5 JUMPI PUSH2 0x10C4 PUSH2 0xF58 JUMP JUMPDEST JUMPDEST PUSH2 0x10CE DUP3 PUSH2 0xD46 JUMP JUMPDEST SWAP1 POP PUSH1 0x20 DUP2 ADD SWAP1 POP SWAP2 SWAP1 POP JUMP JUMPDEST DUP3 DUP2 DUP4 CALLDATACOPY PUSH1 0x0 DUP4 DUP4 ADD MSTORE POP POP POP JUMP JUMPDEST PUSH1 0x0 PUSH2 0x10FD PUSH2 0x10F8 DUP5 PUSH2 0x10AA JUMP JUMPDEST PUSH2 0xFB8 JUMP JUMPDEST SWAP1 POP DUP3 DUP2 MSTORE PUSH1 0x20 DUP2 ADD DUP5 DUP5 DUP5 ADD GT ISZERO PUSH2 0x1119 JUMPI PUSH2 0x1118 PUSH2 0x10A5 JUMP JUMPDEST JUMPDEST PUSH2 0x1124 DUP5 DUP3 DUP6 PUSH2 0x10DB JUMP JUMPDEST POP SWAP4 SWAP3 POP POP POP JUMP JUMPDEST PUSH1 0x0 DUP3 PUSH1 0x1F DUP4 ADD SLT PUSH2 0x1141 JUMPI PUSH2 0x1140 PUSH2 0xFD8 JUMP JUMPDEST JUMPDEST DUP2 CALLDATALOAD PUSH2 0x1151 DUP5 DUP3 PUSH1 0x20 DUP7 ADD PUSH2 0x10EA JUMP JUMPDEST SWAP2 POP POP SWAP3 SWAP2 POP POP JUMP JUMPDEST PUSH1 0x0 PUSH2 0x120 DUP3 DUP5 SUB SLT ISZERO PUSH2 0x1171 JUMPI PUSH2 0x1170 PUSH2 0xF53 JUMP JUMPDEST JUMPDEST PUSH2 0x117C PUSH2 0x120 PUSH2 0xFB8 JUMP JUMPDEST SWAP1 POP PUSH1 0x0 PUSH2 0x118C DUP5 DUP3 DUP6 ADD PUSH2 0xBC1 JUMP JUMPDEST PUSH1 0x0 DUP4 ADD MSTORE POP PUSH1 0x20 PUSH2 0x11A0 DUP5 DUP3 DUP6 ADD PUSH2 0xBC1 JUMP JUMPDEST PUSH1 0x20 DUP4 ADD MSTORE POP PUSH1 0x40 PUSH2 0x11B4 DUP5 DUP3 DUP6 ADD PUSH2 0xBC1 JUMP JUMPDEST PUSH1 0x40 DUP4 ADD MSTORE POP PUSH1 0x60 PUSH2 0x11C8 DUP5 DUP3 DUP6 ADD PUSH2 0xBC1 JUMP JUMPDEST PUSH1 0x60 DUP4 ADD MSTORE POP PUSH1 0x80 DUP3 ADD CALLDATALOAD PUSH8 0xFFFFFFFFFFFFFFFF DUP2 GT ISZERO PUSH2 0x11EC JUMPI PUSH2 0x11EB PUSH2 0xFD3 JUMP JUMPDEST JUMPDEST PUSH2 0x11F8 DUP5 DUP3 DUP6 ADD PUSH2 0x1077 JUMP JUMPDEST PUSH1 0x80 DUP4 ADD MSTORE POP PUSH1 0xA0 DUP3 ADD CALLDATALOAD PUSH8 0xFFFFFFFFFFFFFFFF DUP2 GT ISZERO PUSH2 0x121C JUMPI PUSH2 0x121B PUSH2 0xFD3 JUMP JUMPDEST JUMPDEST PUSH2 0x1228 DUP5 DUP3 DUP6 ADD PUSH2 0x1077 JUMP JUMPDEST PUSH1 0xA0 DUP4 ADD MSTORE POP PUSH1 0xC0 DUP3 ADD CALLDATALOAD PUSH8 0xFFFFFFFFFFFFFFFF DUP2 GT ISZERO PUSH2 0x124C JUMPI PUSH2 0x124B PUSH2 0xFD3 JUMP JUMPDEST JUMPDEST PUSH2 0x1258 DUP5 DUP3 DUP6 ADD PUSH2 0x1077 JUMP JUMPDEST PUSH1 0xC0 DUP4 ADD MSTORE POP PUSH1 0xE0 DUP3 ADD CALLDATALOAD PUSH8 0xFFFFFFFFFFFFFFFF DUP2 GT ISZERO PUSH2 0x127C JUMPI PUSH2 0x127B PUSH2 0xFD3 JUMP JUMPDEST JUMPDEST PUSH2 0x1288 DUP5 DUP3 DUP6 ADD PUSH2 0x1077 JUMP JUMPDEST PUSH1 0xE0 DUP4 ADD MSTORE POP PUSH2 0x100 DUP3 ADD CALLDATALOAD PUSH8 0xFFFFFFFFFFFFFFFF DUP2 GT ISZERO PUSH2 0x12AD JUMPI PUSH2 0x12AC PUSH2 0xFD3 JUMP JUMPDEST JUMPDEST PUSH2 0x12B9 DUP5 DUP3 DUP6 ADD PUSH2 0x112C JUMP JUMPDEST PUSH2 0x100 DUP4 ADD MSTORE POP SWAP3 SWAP2 POP POP JUMP JUMPDEST PUSH1 0x0 PUSH1 0x20 DUP3 DUP5 SUB SLT ISZERO PUSH2 0x12DC JUMPI PUSH2 0x12DB PUSH2 0xB0B JUMP JUMPDEST JUMPDEST PUSH1 0x0 DUP3 ADD CALLDATALOAD PUSH8 0xFFFFFFFFFFFFFFFF DUP2 GT ISZERO PUSH2 0x12FA JUMPI PUSH2 0x12F9 PUSH2 0xB10 JUMP JUMPDEST JUMPDEST PUSH2 0x1306 DUP5 DUP3 DUP6 ADD PUSH2 0x115A JUMP JUMPDEST SWAP2 POP POP SWAP3 SWAP2 POP POP JUMP JUMPDEST PUSH1 0x0 DUP3 DUP3 MSTORE PUSH1 0x20 DUP3 ADD SWAP1 POP SWAP3 SWAP2 POP POP JUMP JUMPDEST PUSH32 0x4F776E657244617461626173653A207065726D697373696F6E20686173206265 PUSH1 0x0 DUP3 ADD MSTORE PUSH32 0x656E206772616E74656400000000000000000000000000000000000000000000 PUSH1 0x20 DUP3 ADD MSTORE POP JUMP JUMPDEST PUSH1 0x0 PUSH2 0x137C PUSH1 0x2A DUP4 PUSH2 0x130F JUMP JUMPDEST SWAP2 POP PUSH2 0x1387 DUP3 PUSH2 0x1320 JUMP JUMPDEST PUSH1 0x40 DUP3 ADD SWAP1 POP SWAP2 SWAP1 POP JUMP JUMPDEST PUSH1 0x0 PUSH1 0x20 DUP3 ADD SWAP1 POP DUP2 DUP2 SUB PUSH1 0x0 DUP4 ADD MSTORE PUSH2 0x13AB DUP2 PUSH2 0x136F JUMP JUMPDEST SWAP1 POP SWAP2 SWAP1 POP JUMP JUMPDEST PUSH32 0x4E487B7100000000000000000000000000000000000000000000000000000000 PUSH1 0x0 MSTORE PUSH1 0x32 PUSH1 0x4 MSTORE PUSH1 0x24 PUSH1 0x0 REVERT JUMPDEST PUSH32 0x4F776E657244617461626173653A206F6E6C7920636F6E747261637420776869 PUSH1 0x0 DUP3 ADD MSTORE PUSH32 0x63682061726520616C6C6F776564000000000000000000000000000000000000 PUSH1 0x20 DUP3 ADD MSTORE POP JUMP JUMPDEST PUSH1 0x0 PUSH2 0x143D PUSH1 0x2E DUP4 PUSH2 0x130F JUMP JUMPDEST SWAP2 POP PUSH2 0x1448 DUP3 PUSH2 0x13E1 JUMP JUMPDEST PUSH1 0x40 DUP3 ADD SWAP1 POP SWAP2 SWAP1 POP JUMP JUMPDEST PUSH1 0x0 PUSH1 0x20 DUP3 ADD SWAP1 POP DUP2 DUP2 SUB PUSH1 0x0 DUP4 ADD MSTORE PUSH2 0x146C DUP2 PUSH2 0x1430 JUMP JUMPDEST SWAP1 POP SWAP2 SWAP1 POP JUMP JUMPDEST PUSH32 0x4E487B7100000000000000000000000000000000000000000000000000000000 PUSH1 0x0 MSTORE PUSH1 0x22 PUSH1 0x4 MSTORE PUSH1 0x24 PUSH1 0x0 REVERT JUMPDEST PUSH1 0x0 PUSH1 0x2 DUP3 DIV SWAP1 POP PUSH1 0x1 DUP3 AND DUP1 PUSH2 0x14BA JUMPI PUSH1 0x7F DUP3 AND SWAP2 POP JUMPDEST PUSH1 0x20 DUP3 LT DUP2 SUB PUSH2 0x14CD JUMPI PUSH2 0x14CC PUSH2 0x1473 JUMP JUMPDEST JUMPDEST POP SWAP2 SWAP1 POP JUMP JUMPDEST PUSH32 0x4E487B7100000000000000000000000000000000000000000000000000000000 PUSH1 0x0 MSTORE PUSH1 0x11 PUSH1 0x4 MSTORE PUSH1 0x24 PUSH1 0x0 REVERT JUMPDEST PUSH1 0x0 PUSH2 0x150D DUP3 PUSH2 0xBA0 JUMP JUMPDEST SWAP2 POP PUSH32 0xFFFFFFFFFFFFFFFFFFFFFFFFFFFFFFFFFFFFFFFFFFFFFFFFFFFFFFFFFFFFFFFF DUP3 SUB PUSH2 0x153F JUMPI PUSH2 0x153E PUSH2 0x14D3 JUMP JUMPDEST JUMPDEST PUSH1 0x1 DUP3 ADD SWAP1 POP SWAP2 SWAP1 POP JUMP JUMPDEST PUSH1 0x0 DUP2 SWAP1 POP DUP2 PUSH1 0x0 MSTORE PUSH1 0x20 PUSH1 0x0 KECCAK256 SWAP1 POP SWAP2 SWAP1 POP JUMP JUMPDEST PUSH1 0x0 PUSH1 0x20 PUSH1 0x1F DUP4 ADD DIV SWAP1 POP SWAP2 SWAP1 POP JUMP JUMPDEST PUSH1 0x0 DUP3 DUP3 SHL SWAP1 POP SWAP3 SWAP2 POP POP JUMP JUMPDEST PUSH1 0x0 PUSH1 0x8 DUP4 MUL PUSH2 0x15AC PUSH32 0xFFFFFFFFFFFFFFFFFFFFFFFFFFFFFFFFFFFFFFFFFFFFFFFFFFFFFFFFFFFFFFFF DUP3 PUSH2 0x156F JUMP JUMPDEST PUSH2 0x15B6 DUP7 DUP4 PUSH2 0x156F JUMP JUMPDEST SWAP6 POP DUP1 NOT DUP5 AND SWAP4 POP DUP1 DUP7 AND DUP5 OR SWAP3 POP POP POP SWAP4 SWAP3 POP POP POP JUMP JUMPDEST PUSH1 0x0 DUP2 SWAP1 POP SWAP2 SWAP1 POP JUMP JUMPDEST PUSH1 0x0 PUSH2 0x15F3 PUSH2 0x15EE PUSH2 0x15E9 DUP5 PUSH2 0xBA0 JUMP JUMPDEST PUSH2 0x15CE JUMP JUMPDEST PUSH2 0xBA0 JUMP JUMPDEST SWAP1 POP SWAP2 SWAP1 POP JUMP JUMPDEST PUSH1 0x0 DUP2 SWAP1 POP SWAP2 SWAP1 POP JUMP JUMPDEST PUSH2 0x160D DUP4 PUSH2 0x15D8 JUMP JUMPDEST PUSH2 0x1621 PUSH2 0x1619 DUP3 PUSH2 0x15FA JUMP JUMPDEST DUP5 DUP5 SLOAD PUSH2 0x157C JUMP JUMPDEST DUP3 SSTORE POP POP POP POP JUMP JUMPDEST PUSH1 0x0 SWAP1 JUMP JUMPDEST PUSH2 0x1636 PUSH2 0x1629 JUMP JUMPDEST PUSH2 0x1641 DUP2 DUP5 DUP5 PUSH2 0x1604 JUMP JUMPDEST POP POP POP JUMP JUMPDEST JUMPDEST DUP2 DUP2 LT ISZERO PUSH2 0x1665 JUMPI PUSH2 0x165A PUSH1 0x0 DUP3 PUSH2 0x162E JUMP JUMPDEST PUSH1 0x1 DUP2 ADD SWAP1 POP PUSH2 0x1647 JUMP JUMPDEST POP POP JUMP JUMPDEST PUSH1 0x1F DUP3 GT ISZERO PUSH2 0x16AA JUMPI PUSH2 0x167B DUP2 PUSH2 0x154A JUMP JUMPDEST PUSH2 0x1684 DUP5 PUSH2 0x155F JUMP JUMPDEST DUP2 ADD PUSH1 0x20 DUP6 LT ISZERO PUSH2 0x1693 JUMPI DUP2 SWAP1 POP JUMPDEST PUSH2 0x16A7 PUSH2 0x169F DUP6 PUSH2 0x155F JUMP JUMPDEST DUP4 ADD DUP3 PUSH2 0x1646 JUMP JUMPDEST POP POP JUMPDEST POP POP POP JUMP JUMPDEST PUSH1 0x0 DUP3 DUP3 SHR SWAP1 POP SWAP3 SWAP2 POP POP JUMP JUMPDEST PUSH1 0x0 PUSH2 0x16CD PUSH1 0x0 NOT DUP5 PUSH1 0x8 MUL PUSH2 0x16AF JUMP JUMPDEST NOT DUP1 DUP4 AND SWAP2 POP POP SWAP3 SWAP2 POP POP JUMP JUMPDEST PUSH1 0x0 PUSH2 0x16E6 DUP4 DUP4 PUSH2 0x16BC JUMP JUMPDEST SWAP2 POP DUP3 PUSH1 0x2 MUL DUP3 OR SWAP1 POP SWAP3 SWAP2 POP POP JUMP JUMPDEST PUSH2 0x16FF DUP3 PUSH2 0xD00 JUMP JUMPDEST PUSH8 0xFFFFFFFFFFFFFFFF DUP2 GT ISZERO PUSH2 0x1718 JUMPI PUSH2 0x1717 PUSH2 0xF58 JUMP JUMPDEST JUMPDEST PUSH2 0x1722 DUP3 SLOAD PUSH2 0x14A2 JUMP JUMPDEST PUSH2 0x172D DUP3 DUP3 DUP6 PUSH2 0x1669 JUMP JUMPDEST PUSH1 0x0 PUSH1 0x20 SWAP1 POP PUSH1 0x1F DUP4 GT PUSH1 0x1 DUP2 EQ PUSH2 0x1760 JUMPI PUSH1 0x0 DUP5 ISZERO PUSH2 0x174E JUMPI DUP3 DUP8 ADD MLOAD SWAP1 POP JUMPDEST PUSH2 0x1758 DUP6 DUP3 PUSH2 0x16DA JUMP JUMPDEST DUP7 SSTORE POP PUSH2 0x17C0 JUMP JUMPDEST PUSH1 0x1F NOT DUP5 AND PUSH2 0x176E DUP7 PUSH2 0x154A JUMP JUMPDEST PUSH1 0x0 JUMPDEST DUP3 DUP2 LT ISZERO PUSH2 0x1796 JUMPI DUP5 DUP10 ADD MLOAD DUP3 SSTORE PUSH1 0x1 DUP3 ADD SWAP2 POP PUSH1 0x20 DUP6 ADD SWAP5 POP PUSH1 0x20 DUP2 ADD SWAP1 POP PUSH2 0x1771 JUMP JUMPDEST DUP7 DUP4 LT ISZERO PUSH2 0x17B3 JUMPI DUP5 DUP10 ADD MLOAD PUSH2 0x17AF PUSH1 0x1F DUP10 AND DUP3 PUSH2 0x16BC JUMP JUMPDEST DUP4 SSTORE POP JUMPDEST PUSH1 0x1 PUSH1 0x2 DUP9 MUL ADD DUP9 SSTORE POP POP POP JUMPDEST POP POP POP POP POP POP JUMP JUMPDEST PUSH32 0x4F776E61626C653A206E6577206F776E657220697320746865207A65726F2061 PUSH1 0x0 DUP3 ADD MSTORE PUSH32 0x6464726573730000000000000000000000000000000000000000000000000000 PUSH1 0x20 DUP3 ADD MSTORE POP JUMP JUMPDEST PUSH1 0x0 PUSH2 0x1824 PUSH1 0x26 DUP4 PUSH2 0x130F JUMP JUMPDEST SWAP2 POP PUSH2 0x182F DUP3 PUSH2 0x17C8 JUMP JUMPDEST PUSH1 0x40 DUP3 ADD SWAP1 POP SWAP2 SWAP1 POP JUMP JUMPDEST PUSH1 0x0 PUSH1 0x20 DUP3 ADD SWAP1 POP DUP2 DUP2 SUB PUSH1 0x0 DUP4 ADD MSTORE PUSH2 0x1853 DUP2 PUSH2 0x1817 JUMP JUMPDEST SWAP1 POP SWAP2 SWAP1 POP JUMP JUMPDEST PUSH32 0x4F776E61626C653A2063616C6C6572206973206E6F7420746865206F776E6572 PUSH1 0x0 DUP3 ADD MSTORE POP JUMP JUMPDEST PUSH1 0x0 PUSH2 0x1890 PUSH1 0x20 DUP4 PUSH2 0x130F JUMP JUMPDEST SWAP2 POP PUSH2 0x189B DUP3 PUSH2 0x185A JUMP JUMPDEST PUSH1 0x20 DUP3 ADD SWAP1 POP SWAP2 SWAP1 POP JUMP JUMPDEST PUSH1 0x0 PUSH1 0x20 DUP3 ADD SWAP1 POP DUP2 DUP2 SUB PUSH1 0x0 DUP4 ADD MSTORE PUSH2 0x18BF DUP2 PUSH2 0x1883 JUMP JUMPDEST SWAP1 POP SWAP2 SWAP1 POP JUMP INVALID LOG2 PUSH5 0x6970667358 0x22 SLT KECCAK256 0xD9 DUP15 NUMBER MOD SIGNEXTEND 0xEC PUSH13 0xC31AB4AD85EA3F33E79747554E SDIV 0xDC 0xCD PUSH3 0xEB9DEF 0xD9 DUP1 DUP1 JUMPI NOT PUSH5 0x736F6C6343 STOP ADDMOD SLT STOP CALLER "
				},
				"gasEstimates": {
					"creation": {
						"codeDepositCost": "1279200",
						"executionCost": "30601",
						"totalCost": "1309801"
					},
					"external": {
						"addCustomerId(uint256,uint256)": "infinite",
						"addDistributorId(uint256,uint256)": "infinite",
						"addMartketId(uint256,uint256)": "infinite",
						"addOwner((uint256,uint256,uint256,uint256,uint256[],uint256[],uint256[],uint256[],string))": "infinite",
						"addPermission(address)": "29288",
						"addStaffId(uint256,uint256)": "infinite",
						"destroy()": "30017",
						"getAllOwner()": "infinite",
						"owner()": "2611",
						"transferOwnership(address)": "30797"
					}
				},
				"methodIdentifiers": {
					"addCustomerId(uint256,uint256)": "d0ad0a28",
					"addDistributorId(uint256,uint256)": "552b9dae",
					"addMartketId(uint256,uint256)": "b2452bd3",
					"addOwner((uint256,uint256,uint256,uint256,uint256[],uint256[],uint256[],uint256[],string))": "f0b4e21b",
					"addPermission(address)": "4d0a5dbd",
					"addStaffId(uint256,uint256)": "f18eeda8",
					"destroy()": "83197ef0",
					"getAllOwner()": "8d05a638",
					"owner()": "8da5cb5b",
					"transferOwnership(address)": "f2fde38b"
				}
			},
			"storageLayout": {
				"storage": [
					{
						"astId": 30,
						"contract": "database/user/OwnerDatabase.sol:OwnerDatabase",
						"label": "_owner",
						"offset": 0,
						"slot": "0",
						"type": "t_address"
					},
					{
						"astId": 149,
						"contract": "database/user/OwnerDatabase.sol:OwnerDatabase",
						"label": "list",
						"offset": 0,
						"slot": "1",
						"type": "t_array(t_struct(Product_Owner)324_storage)dyn_storage"
					},
					{
						"astId": 152,
						"contract": "database/user/OwnerDatabase.sol:OwnerDatabase",
						"label": "autoIncrement",
						"offset": 0,
						"slot": "2",
						"type": "t_uint256"
					},
					{
						"astId": 156,
						"contract": "database/user/OwnerDatabase.sol:OwnerDatabase",
						"label": "permissions",
						"offset": 0,
						"slot": "3",
						"type": "t_mapping(t_address,t_bool)"
					}
				],
				"types": {
					"t_address": {
						"encoding": "inplace",
						"label": "address",
						"numberOfBytes": "20"
					},
					"t_array(t_struct(Product_Owner)324_storage)dyn_storage": {
						"base": "t_struct(Product_Owner)324_storage",
						"encoding": "dynamic_array",
						"label": "struct Product_Owner[]",
						"numberOfBytes": "32"
					},
					"t_array(t_uint256)dyn_storage": {
						"base": "t_uint256",
						"encoding": "dynamic_array",
						"label": "uint256[]",
						"numberOfBytes": "32"
					},
					"t_bool": {
						"encoding": "inplace",
						"label": "bool",
						"numberOfBytes": "1"
					},
					"t_mapping(t_address,t_bool)": {
						"encoding": "mapping",
						"key": "t_address",
						"label": "mapping(address => bool)",
						"numberOfBytes": "32",
						"value": "t_bool"
					},
					"t_string_storage": {
						"encoding": "bytes",
						"label": "string",
						"numberOfBytes": "32"
					},
					"t_struct(Product_Owner)324_storage": {
						"encoding": "inplace",
						"label": "struct Product_Owner",
						"members": [
							{
								"astId": 303,
								"contract": "database/user/OwnerDatabase.sol:OwnerDatabase",
								"label": "productOwnerId",
								"offset": 0,
								"slot": "0",
								"type": "t_uint256"
							},
							{
								"astId": 305,
								"contract": "database/user/OwnerDatabase.sol:OwnerDatabase",
								"label": "batchId",
								"offset": 0,
								"slot": "1",
								"type": "t_uint256"
							},
							{
								"astId": 307,
								"contract": "database/user/OwnerDatabase.sol:OwnerDatabase",
								"label": "productCode",
								"offset": 0,
								"slot": "2",
								"type": "t_uint256"
							},
							{
								"astId": 309,
								"contract": "database/user/OwnerDatabase.sol:OwnerDatabase",
								"label": "manufacturerId",
								"offset": 0,
								"slot": "3",
								"type": "t_uint256"
							},
							{
								"astId": 312,
								"contract": "database/user/OwnerDatabase.sol:OwnerDatabase",
								"label": "distributorIds",
								"offset": 0,
								"slot": "4",
								"type": "t_array(t_uint256)dyn_storage"
							},
							{
								"astId": 315,
								"contract": "database/user/OwnerDatabase.sol:OwnerDatabase",
								"label": "martketIds",
								"offset": 0,
								"slot": "5",
								"type": "t_array(t_uint256)dyn_storage"
							},
							{
								"astId": 318,
								"contract": "database/user/OwnerDatabase.sol:OwnerDatabase",
								"label": "staffIds",
								"offset": 0,
								"slot": "6",
								"type": "t_array(t_uint256)dyn_storage"
							},
							{
								"astId": 321,
								"contract": "database/user/OwnerDatabase.sol:OwnerDatabase",
								"label": "customerIds",
								"offset": 0,
								"slot": "7",
								"type": "t_array(t_uint256)dyn_storage"
							},
							{
								"astId": 323,
								"contract": "database/user/OwnerDatabase.sol:OwnerDatabase",
								"label": "dateTime",
								"offset": 0,
								"slot": "8",
								"type": "t_string_storage"
							}
						],
						"numberOfBytes": "288"
					},
					"t_uint256": {
						"encoding": "inplace",
						"label": "uint256",
						"numberOfBytes": "32"
					}
				}
			},
			"userdoc": {
				"kind": "user",
				"methods": {},
				"version": 1
			}
		}
	}
}