{
	"database/user/UserDatabase.sol": {
		"UserDatabase": {
			"abi": [
				{
					"inputs": [],
					"stateMutability": "nonpayable",
					"type": "constructor"
				},
				{
					"anonymous": false,
					"inputs": [
						{
							"indexed": true,
							"internalType": "address",
							"name": "previousOwner",
							"type": "address"
						},
						{
							"indexed": true,
							"internalType": "address",
							"name": "newOwner",
							"type": "address"
						}
					],
					"name": "OwnershipTransferred",
					"type": "event"
				},
				{
					"inputs": [
						{
							"internalType": "address",
							"name": "contractPermission",
							"type": "address"
						}
					],
					"name": "addPermission",
					"outputs": [],
					"stateMutability": "nonpayable",
					"type": "function"
				},
				{
					"inputs": [
						{
							"components": [
								{
									"internalType": "uint256",
									"name": "userId",
									"type": "uint256"
								},
								{
									"internalType": "string",
									"name": "userName",
									"type": "string"
								},
								{
									"internalType": "uint256",
									"name": "userCccd",
									"type": "uint256"
								},
								{
									"internalType": "string",
									"name": "userEmail",
									"type": "string"
								},
								{
									"internalType": "string",
									"name": "userPhone",
									"type": "string"
								},
								{
									"internalType": "address",
									"name": "userAddress",
									"type": "address"
								},
								{
									"internalType": "uint256",
									"name": "teamId",
									"type": "uint256"
								}
							],
							"internalType": "struct User",
							"name": "user",
							"type": "tuple"
						}
					],
					"name": "addUser",
					"outputs": [],
					"stateMutability": "nonpayable",
					"type": "function"
				},
				{
					"inputs": [],
					"name": "destroy",
					"outputs": [],
					"stateMutability": "nonpayable",
					"type": "function"
				},
				{
					"inputs": [],
					"name": "getAllUser",
					"outputs": [
						{
							"components": [
								{
									"internalType": "uint256",
									"name": "userId",
									"type": "uint256"
								},
								{
									"internalType": "string",
									"name": "userName",
									"type": "string"
								},
								{
									"internalType": "uint256",
									"name": "userCccd",
									"type": "uint256"
								},
								{
									"internalType": "string",
									"name": "userEmail",
									"type": "string"
								},
								{
									"internalType": "string",
									"name": "userPhone",
									"type": "string"
								},
								{
									"internalType": "address",
									"name": "userAddress",
									"type": "address"
								},
								{
									"internalType": "uint256",
									"name": "teamId",
									"type": "uint256"
								}
							],
							"internalType": "struct User[]",
							"name": "",
							"type": "tuple[]"
						}
					],
					"stateMutability": "view",
					"type": "function"
				},
				{
					"inputs": [],
					"name": "owner",
					"outputs": [
						{
							"internalType": "address",
							"name": "",
							"type": "address"
						}
					],
					"stateMutability": "view",
					"type": "function"
				},
				{
					"inputs": [
						{
							"internalType": "address",
							"name": "newOwner",
							"type": "address"
						}
					],
					"name": "transferOwnership",
					"outputs": [],
					"stateMutability": "nonpayable",
					"type": "function"
				}
			],
			"devdoc": {
				"kind": "dev",
				"methods": {
					"owner()": {
						"details": "Returns the address of the current owner."
					},
					"transferOwnership(address)": {
						"details": "Transfers ownership of the contract to a new account (`newOwner`). Can only be called by the current owner."
					}
				},
				"version": 1
			},
			"evm": {
				"assembly": "    /* \"database/user/UserDatabase.sol\":174:1095  contract UserDatabase is Ownable {... */\n  mstore(0x40, 0x80)\n    /* \"database/user/UserDatabase.sol\":272:273  0 */\n  0x00\n    /* \"database/user/UserDatabase.sol\":240:273  uint256 private autoIncrement = 0 */\n  0x02\n  sstore\n    /* \"database/user/UserDatabase.sol\":521:547  constructor() Ownable() {} */\n  callvalue\n  dup1\n  iszero\n  tag_1\n  jumpi\n  0x00\n  dup1\n  revert\ntag_1:\n  pop\n    /* \"abstract/Ownable.sol\":1032:1042  msg.sender */\n  caller\n    /* \"abstract/Ownable.sol\":1023:1029  _owner */\n  0x00\n  dup1\n    /* \"abstract/Ownable.sol\":1023:1042  _owner = msg.sender */\n  0x0100\n  exp\n  dup2\n  sload\n  dup2\n  0xffffffffffffffffffffffffffffffffffffffff\n  mul\n  not\n  and\n  swap1\n  dup4\n  0xffffffffffffffffffffffffffffffffffffffff\n  and\n  mul\n  or\n  swap1\n  sstore\n  pop\n    /* \"database/user/UserDatabase.sol\":174:1095  contract UserDatabase is Ownable {... */\n  dataSize(sub_0)\n  dup1\n  dataOffset(sub_0)\n  0x00\n  codecopy\n  0x00\n  return\nstop\n\nsub_0: assembly {\n        /* \"database/user/UserDatabase.sol\":174:1095  contract UserDatabase is Ownable {... */\n      mstore(0x40, 0x80)\n      callvalue\n      dup1\n      iszero\n      tag_1\n      jumpi\n      0x00\n      dup1\n      revert\n    tag_1:\n      pop\n      jumpi(tag_2, lt(calldatasize, 0x04))\n      shr(0xe0, calldataload(0x00))\n      dup1\n      0x47531df8\n      eq\n      tag_3\n      jumpi\n      dup1\n      0x48bf4635\n      eq\n      tag_4\n      jumpi\n      dup1\n      0x4d0a5dbd\n      eq\n      tag_5\n      jumpi\n      dup1\n      0x83197ef0\n      eq\n      tag_6\n      jumpi\n      dup1\n      0x8da5cb5b\n      eq\n      tag_7\n      jumpi\n      dup1\n      0xf2fde38b\n      eq\n      tag_8\n      jumpi\n    tag_2:\n      0x00\n      dup1\n      revert\n        /* \"database/user/UserDatabase.sol\":988:1092  function getAllUser() public view onlyPermissions returns (User[] memory) {... */\n    tag_3:\n      tag_9\n      tag_10\n      jump\t// in\n    tag_9:\n      mload(0x40)\n      tag_11\n      swap2\n      swap1\n      tag_12\n      jump\t// in\n    tag_11:\n      mload(0x40)\n      dup1\n      swap2\n      sub\n      swap1\n      return\n        /* \"database/user/UserDatabase.sol\":822:980  function addUser(User memory user) public onlyPermissions {... */\n    tag_4:\n      tag_13\n      0x04\n      dup1\n      calldatasize\n      sub\n      dup2\n      add\n      swap1\n      tag_14\n      swap2\n      swap1\n      tag_15\n      jump\t// in\n    tag_14:\n      tag_16\n      jump\t// in\n    tag_13:\n      stop\n        /* \"database/user/UserDatabase.sol\":555:814  function addPermission(address contractPermission) public onlyOwner {... */\n    tag_5:\n      tag_17\n      0x04\n      dup1\n      calldatasize\n      sub\n      dup2\n      add\n      swap1\n      tag_18\n      swap2\n      swap1\n      tag_19\n      jump\t// in\n    tag_18:\n      tag_20\n      jump\t// in\n    tag_17:\n      stop\n        /* \"abstract/Ownable.sol\":2801:2892  function destroy() public onlyOwner {... */\n    tag_6:\n      tag_21\n      tag_22\n      jump\t// in\n    tag_21:\n      stop\n        /* \"abstract/Ownable.sol\":1289:1376  function owner() public view virtual returns (address) {... */\n    tag_7:\n      tag_23\n      tag_24\n      jump\t// in\n    tag_23:\n      mload(0x40)\n      tag_25\n      swap2\n      swap1\n      tag_26\n      jump\t// in\n    tag_25:\n      mload(0x40)\n      dup1\n      swap2\n      sub\n      swap1\n      return\n        /* \"abstract/Ownable.sol\":2204:2442  function transferOwnership(address newOwner) public virtual onlyOwner {... */\n    tag_8:\n      tag_27\n      0x04\n      dup1\n      calldatasize\n      sub\n      dup2\n      add\n      swap1\n      tag_28\n      swap2\n      swap1\n      tag_19\n      jump\t// in\n    tag_28:\n      tag_29\n      jump\t// in\n    tag_27:\n      stop\n        /* \"database/user/UserDatabase.sol\":988:1092  function getAllUser() public view onlyPermissions returns (User[] memory) {... */\n    tag_10:\n        /* \"database/user/UserDatabase.sol\":1047:1060  User[] memory */\n      0x60\n        /* \"database/user/UserDatabase.sol\":395:406  permissions */\n      0x03\n        /* \"database/user/UserDatabase.sol\":395:420  permissions[_msgSender()] */\n      0x00\n        /* \"database/user/UserDatabase.sol\":407:419  _msgSender() */\n      tag_31\n        /* \"database/user/UserDatabase.sol\":407:417  _msgSender */\n      tag_32\n        /* \"database/user/UserDatabase.sol\":407:419  _msgSender() */\n      jump\t// in\n    tag_31:\n        /* \"database/user/UserDatabase.sol\":395:420  permissions[_msgSender()] */\n      0xffffffffffffffffffffffffffffffffffffffff\n      and\n      0xffffffffffffffffffffffffffffffffffffffff\n      and\n      dup2\n      mstore\n      0x20\n      add\n      swap1\n      dup2\n      mstore\n      0x20\n      add\n      0x00\n      keccak256\n      0x00\n      swap1\n      sload\n      swap1\n      0x0100\n      exp\n      swap1\n      div\n      0xff\n      and\n        /* \"database/user/UserDatabase.sol\":373:493  require(... */\n      tag_33\n      jumpi\n      mload(0x40)\n      0x08c379a000000000000000000000000000000000000000000000000000000000\n      dup2\n      mstore\n      0x04\n      add\n      tag_34\n      swap1\n      tag_35\n      jump\t// in\n    tag_34:\n      mload(0x40)\n      dup1\n      swap2\n      sub\n      swap1\n      revert\n    tag_33:\n        /* \"database/user/UserDatabase.sol\":1080:1084  list */\n      0x01\n        /* \"database/user/UserDatabase.sol\":1073:1084  return list */\n      dup1\n      sload\n      dup1\n      0x20\n      mul\n      0x20\n      add\n      mload(0x40)\n      swap1\n      dup2\n      add\n      0x40\n      mstore\n      dup1\n      swap3\n      swap2\n      swap1\n      dup2\n      dup2\n      mstore\n      0x20\n      add\n      0x00\n      swap1\n    tag_37:\n      dup3\n      dup3\n      lt\n      iszero\n      tag_38\n      jumpi\n      dup4\n      dup3\n      swap1\n      0x00\n      mstore\n      keccak256(0x00, 0x20)\n      swap1\n      0x07\n      mul\n      add\n      mload(0x40)\n      dup1\n      0xe0\n      add\n      0x40\n      mstore\n      swap1\n      dup2\n      0x00\n      dup3\n      add\n      sload\n      dup2\n      mstore\n      0x20\n      add\n      0x01\n      dup3\n      add\n      dup1\n      sload\n      tag_40\n      swap1\n      tag_41\n      jump\t// in\n    tag_40:\n      dup1\n      0x1f\n      add\n      0x20\n      dup1\n      swap2\n      div\n      mul\n      0x20\n      add\n      mload(0x40)\n      swap1\n      dup2\n      add\n      0x40\n      mstore\n      dup1\n      swap3\n      swap2\n      swap1\n      dup2\n      dup2\n      mstore\n      0x20\n      add\n      dup3\n      dup1\n      sload\n      tag_42\n      swap1\n      tag_41\n      jump\t// in\n    tag_42:\n      dup1\n      iszero\n      tag_43\n      jumpi\n      dup1\n      0x1f\n      lt\n      tag_44\n      jumpi\n      0x0100\n      dup1\n      dup4\n      sload\n      div\n      mul\n      dup4\n      mstore\n      swap2\n      0x20\n      add\n      swap2\n      jump(tag_43)\n    tag_44:\n      dup3\n      add\n      swap2\n      swap1\n      0x00\n      mstore\n      keccak256(0x00, 0x20)\n      swap1\n    tag_45:\n      dup2\n      sload\n      dup2\n      mstore\n      swap1\n      0x01\n      add\n      swap1\n      0x20\n      add\n      dup1\n      dup4\n      gt\n      tag_45\n      jumpi\n      dup3\n      swap1\n      sub\n      0x1f\n      and\n      dup3\n      add\n      swap2\n    tag_43:\n      pop\n      pop\n      pop\n      pop\n      pop\n      dup2\n      mstore\n      0x20\n      add\n      0x02\n      dup3\n      add\n      sload\n      dup2\n      mstore\n      0x20\n      add\n      0x03\n      dup3\n      add\n      dup1\n      sload\n      tag_46\n      swap1\n      tag_41\n      jump\t// in\n    tag_46:\n      dup1\n      0x1f\n      add\n      0x20\n      dup1\n      swap2\n      div\n      mul\n      0x20\n      add\n      mload(0x40)\n      swap1\n      dup2\n      add\n      0x40\n      mstore\n      dup1\n      swap3\n      swap2\n      swap1\n      dup2\n      dup2\n      mstore\n      0x20\n      add\n      dup3\n      dup1\n      sload\n      tag_47\n      swap1\n      tag_41\n      jump\t// in\n    tag_47:\n      dup1\n      iszero\n      tag_48\n      jumpi\n      dup1\n      0x1f\n      lt\n      tag_49\n      jumpi\n      0x0100\n      dup1\n      dup4\n      sload\n      div\n      mul\n      dup4\n      mstore\n      swap2\n      0x20\n      add\n      swap2\n      jump(tag_48)\n    tag_49:\n      dup3\n      add\n      swap2\n      swap1\n      0x00\n      mstore\n      keccak256(0x00, 0x20)\n      swap1\n    tag_50:\n      dup2\n      sload\n      dup2\n      mstore\n      swap1\n      0x01\n      add\n      swap1\n      0x20\n      add\n      dup1\n      dup4\n      gt\n      tag_50\n      jumpi\n      dup3\n      swap1\n      sub\n      0x1f\n      and\n      dup3\n      add\n      swap2\n    tag_48:\n      pop\n      pop\n      pop\n      pop\n      pop\n      dup2\n      mstore\n      0x20\n      add\n      0x04\n      dup3\n      add\n      dup1\n      sload\n      tag_51\n      swap1\n      tag_41\n      jump\t// in\n    tag_51:\n      dup1\n      0x1f\n      add\n      0x20\n      dup1\n      swap2\n      div\n      mul\n      0x20\n      add\n      mload(0x40)\n      swap1\n      dup2\n      add\n      0x40\n      mstore\n      dup1\n      swap3\n      swap2\n      swap1\n      dup2\n      dup2\n      mstore\n      0x20\n      add\n      dup3\n      dup1\n      sload\n      tag_52\n      swap1\n      tag_41\n      jump\t// in\n    tag_52:\n      dup1\n      iszero\n      tag_53\n      jumpi\n      dup1\n      0x1f\n      lt\n      tag_54\n      jumpi\n      0x0100\n      dup1\n      dup4\n      sload\n      div\n      mul\n      dup4\n      mstore\n      swap2\n      0x20\n      add\n      swap2\n      jump(tag_53)\n    tag_54:\n      dup3\n      add\n      swap2\n      swap1\n      0x00\n      mstore\n      keccak256(0x00, 0x20)\n      swap1\n    tag_55:\n      dup2\n      sload\n      dup2\n      mstore\n      swap1\n      0x01\n      add\n      swap1\n      0x20\n      add\n      dup1\n      dup4\n      gt\n      tag_55\n      jumpi\n      dup3\n      swap1\n      sub\n      0x1f\n      and\n      dup3\n      add\n      swap2\n    tag_53:\n      pop\n      pop\n      pop\n      pop\n      pop\n      dup2\n      mstore\n      0x20\n      add\n      0x05\n      dup3\n      add\n      0x00\n      swap1\n      sload\n      swap1\n      0x0100\n      exp\n      swap1\n      div\n      0xffffffffffffffffffffffffffffffffffffffff\n      and\n      0xffffffffffffffffffffffffffffffffffffffff\n      and\n      0xffffffffffffffffffffffffffffffffffffffff\n      and\n      dup2\n      mstore\n      0x20\n      add\n      0x06\n      dup3\n      add\n      sload\n      dup2\n      mstore\n      pop\n      pop\n      dup2\n      mstore\n      0x20\n      add\n      swap1\n      0x01\n      add\n      swap1\n      jump(tag_37)\n    tag_38:\n      pop\n      pop\n      pop\n      pop\n      swap1\n      pop\n        /* \"database/user/UserDatabase.sol\":988:1092  function getAllUser() public view onlyPermissions returns (User[] memory) {... */\n      swap1\n      jump\t// out\n        /* \"database/user/UserDatabase.sol\":822:980  function addUser(User memory user) public onlyPermissions {... */\n    tag_16:\n        /* \"database/user/UserDatabase.sol\":395:406  permissions */\n      0x03\n        /* \"database/user/UserDatabase.sol\":395:420  permissions[_msgSender()] */\n      0x00\n        /* \"database/user/UserDatabase.sol\":407:419  _msgSender() */\n      tag_57\n        /* \"database/user/UserDatabase.sol\":407:417  _msgSender */\n      tag_32\n        /* \"database/user/UserDatabase.sol\":407:419  _msgSender() */\n      jump\t// in\n    tag_57:\n        /* \"database/user/UserDatabase.sol\":395:420  permissions[_msgSender()] */\n      0xffffffffffffffffffffffffffffffffffffffff\n      and\n      0xffffffffffffffffffffffffffffffffffffffff\n      and\n      dup2\n      mstore\n      0x20\n      add\n      swap1\n      dup2\n      mstore\n      0x20\n      add\n      0x00\n      keccak256\n      0x00\n      swap1\n      sload\n      swap1\n      0x0100\n      exp\n      swap1\n      div\n      0xff\n      and\n        /* \"database/user/UserDatabase.sol\":373:493  require(... */\n      tag_58\n      jumpi\n      mload(0x40)\n      0x08c379a000000000000000000000000000000000000000000000000000000000\n      dup2\n      mstore\n      0x04\n      add\n      tag_59\n      swap1\n      tag_35\n      jump\t// in\n    tag_59:\n      mload(0x40)\n      dup1\n      swap2\n      sub\n      swap1\n      revert\n    tag_58:\n        /* \"database/user/UserDatabase.sol\":891:901  uint256 id */\n      0x00\n        /* \"database/user/UserDatabase.sol\":904:917  autoIncrement */\n      0x02\n      0x00\n        /* \"database/user/UserDatabase.sol\":904:919  autoIncrement++ */\n      dup2\n      sload\n      dup1\n      swap3\n      swap2\n      swap1\n      tag_61\n      swap1\n      tag_62\n      jump\t// in\n    tag_61:\n      swap2\n      swap1\n      pop\n      sstore\n        /* \"database/user/UserDatabase.sol\":891:919  uint256 id = autoIncrement++ */\n      swap1\n      pop\n        /* \"database/user/UserDatabase.sol\":944:946  id */\n      dup1\n        /* \"database/user/UserDatabase.sol\":930:934  user */\n      dup3\n        /* \"database/user/UserDatabase.sol\":930:941  user.userId */\n      0x00\n      add\n        /* \"database/user/UserDatabase.sol\":930:946  user.userId = id */\n      dup2\n      dup2\n      mstore\n      pop\n      pop\n        /* \"database/user/UserDatabase.sol\":957:961  list */\n      0x01\n        /* \"database/user/UserDatabase.sol\":967:971  user */\n      dup3\n        /* \"database/user/UserDatabase.sol\":957:972  list.push(user) */\n      swap1\n      dup1\n      0x01\n      dup2\n      sload\n      add\n      dup1\n      dup3\n      sstore\n      dup1\n      swap2\n      pop\n      pop\n      0x01\n      swap1\n      sub\n      swap1\n      0x00\n      mstore\n      keccak256(0x00, 0x20)\n      swap1\n      0x07\n      mul\n      add\n      0x00\n      swap1\n      swap2\n      swap1\n      swap2\n      swap1\n      swap2\n      pop\n      0x00\n      dup3\n      add\n      mload\n      dup2\n      0x00\n      add\n      sstore\n      0x20\n      dup3\n      add\n      mload\n      dup2\n      0x01\n      add\n      swap1\n      dup2\n      tag_64\n      swap2\n      swap1\n      tag_65\n      jump\t// in\n    tag_64:\n      pop\n      0x40\n      dup3\n      add\n      mload\n      dup2\n      0x02\n      add\n      sstore\n      0x60\n      dup3\n      add\n      mload\n      dup2\n      0x03\n      add\n      swap1\n      dup2\n      tag_66\n      swap2\n      swap1\n      tag_65\n      jump\t// in\n    tag_66:\n      pop\n      0x80\n      dup3\n      add\n      mload\n      dup2\n      0x04\n      add\n      swap1\n      dup2\n      tag_67\n      swap2\n      swap1\n      tag_65\n      jump\t// in\n    tag_67:\n      pop\n      0xa0\n      dup3\n      add\n      mload\n      dup2\n      0x05\n      add\n      exp(0x0100, 0x00)\n      dup2\n      sload\n      dup2\n      0xffffffffffffffffffffffffffffffffffffffff\n      mul\n      not\n      and\n      swap1\n      dup4\n      0xffffffffffffffffffffffffffffffffffffffff\n      and\n      mul\n      or\n      swap1\n      sstore\n      pop\n      0xc0\n      dup3\n      add\n      mload\n      dup2\n      0x06\n      add\n      sstore\n      pop\n      pop\n        /* \"database/user/UserDatabase.sol\":880:980  {... */\n      pop\n        /* \"database/user/UserDatabase.sol\":822:980  function addUser(User memory user) public onlyPermissions {... */\n      pop\n      jump\t// out\n        /* \"database/user/UserDatabase.sol\":555:814  function addPermission(address contractPermission) public onlyOwner {... */\n    tag_20:\n        /* \"abstract/Ownable.sol\":1175:1188  _checkOwner() */\n      tag_69\n        /* \"abstract/Ownable.sol\":1175:1186  _checkOwner */\n      tag_70\n        /* \"abstract/Ownable.sol\":1175:1188  _checkOwner() */\n      jump\t// in\n    tag_69:\n        /* \"database/user/UserDatabase.sol\":657:668  permissions */\n      0x03\n        /* \"database/user/UserDatabase.sol\":657:688  permissions[contractPermission] */\n      0x00\n        /* \"database/user/UserDatabase.sol\":669:687  contractPermission */\n      dup3\n        /* \"database/user/UserDatabase.sol\":657:688  permissions[contractPermission] */\n      0xffffffffffffffffffffffffffffffffffffffff\n      and\n      0xffffffffffffffffffffffffffffffffffffffff\n      and\n      dup2\n      mstore\n      0x20\n      add\n      swap1\n      dup2\n      mstore\n      0x20\n      add\n      0x00\n      keccak256\n      0x00\n      swap1\n      sload\n      swap1\n      0x0100\n      exp\n      swap1\n      div\n      0xff\n      and\n        /* \"database/user/UserDatabase.sol\":656:688  !permissions[contractPermission] */\n      iszero\n        /* \"database/user/UserDatabase.sol\":634:757  require(... */\n      tag_72\n      jumpi\n      mload(0x40)\n      0x08c379a000000000000000000000000000000000000000000000000000000000\n      dup2\n      mstore\n      0x04\n      add\n      tag_73\n      swap1\n      tag_74\n      jump\t// in\n    tag_73:\n      mload(0x40)\n      dup1\n      swap2\n      sub\n      swap1\n      revert\n    tag_72:\n        /* \"database/user/UserDatabase.sol\":802:806  true */\n      0x01\n        /* \"database/user/UserDatabase.sol\":768:779  permissions */\n      0x03\n        /* \"database/user/UserDatabase.sol\":768:799  permissions[contractPermission] */\n      0x00\n        /* \"database/user/UserDatabase.sol\":780:798  contractPermission */\n      dup4\n        /* \"database/user/UserDatabase.sol\":768:799  permissions[contractPermission] */\n      0xffffffffffffffffffffffffffffffffffffffff\n      and\n      0xffffffffffffffffffffffffffffffffffffffff\n      and\n      dup2\n      mstore\n      0x20\n      add\n      swap1\n      dup2\n      mstore\n      0x20\n      add\n      0x00\n      keccak256\n      0x00\n        /* \"database/user/UserDatabase.sol\":768:806  permissions[contractPermission] = true */\n      0x0100\n      exp\n      dup2\n      sload\n      dup2\n      0xff\n      mul\n      not\n      and\n      swap1\n      dup4\n      iszero\n      iszero\n      mul\n      or\n      swap1\n      sstore\n      pop\n        /* \"database/user/UserDatabase.sol\":555:814  function addPermission(address contractPermission) public onlyOwner {... */\n      pop\n      jump\t// out\n        /* \"abstract/Ownable.sol\":2801:2892  function destroy() public onlyOwner {... */\n    tag_22:\n        /* \"abstract/Ownable.sol\":1175:1188  _checkOwner() */\n      tag_76\n        /* \"abstract/Ownable.sol\":1175:1186  _checkOwner */\n      tag_70\n        /* \"abstract/Ownable.sol\":1175:1188  _checkOwner() */\n      jump\t// in\n    tag_76:\n        /* \"abstract/Ownable.sol\":2877:2881  this */\n      address\n        /* \"abstract/Ownable.sol\":2848:2884  selfdestruct(payable(address(this))) */\n      0xffffffffffffffffffffffffffffffffffffffff\n      and\n      selfdestruct\n        /* \"abstract/Ownable.sol\":1289:1376  function owner() public view virtual returns (address) {... */\n    tag_24:\n        /* \"abstract/Ownable.sol\":1335:1342  address */\n      0x00\n        /* \"abstract/Ownable.sol\":1362:1368  _owner */\n      dup1\n      0x00\n      swap1\n      sload\n      swap1\n      0x0100\n      exp\n      swap1\n      div\n      0xffffffffffffffffffffffffffffffffffffffff\n      and\n        /* \"abstract/Ownable.sol\":1355:1368  return _owner */\n      swap1\n      pop\n        /* \"abstract/Ownable.sol\":1289:1376  function owner() public view virtual returns (address) {... */\n      swap1\n      jump\t// out\n        /* \"abstract/Ownable.sol\":2204:2442  function transferOwnership(address newOwner) public virtual onlyOwner {... */\n    tag_29:\n        /* \"abstract/Ownable.sol\":1175:1188  _checkOwner() */\n      tag_80\n        /* \"abstract/Ownable.sol\":1175:1186  _checkOwner */\n      tag_70\n        /* \"abstract/Ownable.sol\":1175:1188  _checkOwner() */\n      jump\t// in\n    tag_80:\n        /* \"abstract/Ownable.sol\":2327:2328  0 */\n      0x00\n        /* \"abstract/Ownable.sol\":2307:2329  newOwner != address(0) */\n      0xffffffffffffffffffffffffffffffffffffffff\n      and\n        /* \"abstract/Ownable.sol\":2307:2315  newOwner */\n      dup2\n        /* \"abstract/Ownable.sol\":2307:2329  newOwner != address(0) */\n      0xffffffffffffffffffffffffffffffffffffffff\n      and\n      sub\n        /* \"abstract/Ownable.sol\":2285:2395  require(... */\n      tag_82\n      jumpi\n      mload(0x40)\n      0x08c379a000000000000000000000000000000000000000000000000000000000\n      dup2\n      mstore\n      0x04\n      add\n      tag_83\n      swap1\n      tag_84\n      jump\t// in\n    tag_83:\n      mload(0x40)\n      dup1\n      swap2\n      sub\n      swap1\n      revert\n    tag_82:\n        /* \"abstract/Ownable.sol\":2406:2434  _transferOwnership(newOwner) */\n      tag_85\n        /* \"abstract/Ownable.sol\":2425:2433  newOwner */\n      dup2\n        /* \"abstract/Ownable.sol\":2406:2424  _transferOwnership */\n      tag_86\n        /* \"abstract/Ownable.sol\":2406:2434  _transferOwnership(newOwner) */\n      jump\t// in\n    tag_85:\n        /* \"abstract/Ownable.sol\":2204:2442  function transferOwnership(address newOwner) public virtual onlyOwner {... */\n      pop\n      jump\t// out\n        /* \"@openzeppelin/contracts/utils/Context.sol\":640:736  function _msgSender() internal view virtual returns (address) {... */\n    tag_32:\n        /* \"@openzeppelin/contracts/utils/Context.sol\":693:700  address */\n      0x00\n        /* \"@openzeppelin/contracts/utils/Context.sol\":719:729  msg.sender */\n      caller\n        /* \"@openzeppelin/contracts/utils/Context.sol\":712:729  return msg.sender */\n      swap1\n      pop\n        /* \"@openzeppelin/contracts/utils/Context.sol\":640:736  function _msgSender() internal view virtual returns (address) {... */\n      swap1\n      jump\t// out\n        /* \"abstract/Ownable.sol\":1454:1584  function _checkOwner() internal view virtual {... */\n    tag_70:\n        /* \"abstract/Ownable.sol\":1529:1539  msg.sender */\n      caller\n        /* \"abstract/Ownable.sol\":1518:1539  owner() == msg.sender */\n      0xffffffffffffffffffffffffffffffffffffffff\n      and\n        /* \"abstract/Ownable.sol\":1518:1525  owner() */\n      tag_89\n        /* \"abstract/Ownable.sol\":1518:1523  owner */\n      tag_24\n        /* \"abstract/Ownable.sol\":1518:1525  owner() */\n      jump\t// in\n    tag_89:\n        /* \"abstract/Ownable.sol\":1518:1539  owner() == msg.sender */\n      0xffffffffffffffffffffffffffffffffffffffff\n      and\n      eq\n        /* \"abstract/Ownable.sol\":1510:1576  require(owner() == msg.sender, \"Ownable: caller is not the owner\") */\n      tag_90\n      jumpi\n      mload(0x40)\n      0x08c379a000000000000000000000000000000000000000000000000000000000\n      dup2\n      mstore\n      0x04\n      add\n      tag_91\n      swap1\n      tag_92\n      jump\t// in\n    tag_91:\n      mload(0x40)\n      dup1\n      swap2\n      sub\n      swap1\n      revert\n    tag_90:\n        /* \"abstract/Ownable.sol\":1454:1584  function _checkOwner() internal view virtual {... */\n      jump\t// out\n        /* \"abstract/Ownable.sol\":2602:2793  function _transferOwnership(address newOwner) internal virtual {... */\n    tag_86:\n        /* \"abstract/Ownable.sol\":2676:2692  address oldOwner */\n      0x00\n        /* \"abstract/Ownable.sol\":2695:2701  _owner */\n      dup1\n      0x00\n      swap1\n      sload\n      swap1\n      0x0100\n      exp\n      swap1\n      div\n      0xffffffffffffffffffffffffffffffffffffffff\n      and\n        /* \"abstract/Ownable.sol\":2676:2701  address oldOwner = _owner */\n      swap1\n      pop\n        /* \"abstract/Ownable.sol\":2721:2729  newOwner */\n      dup2\n        /* \"abstract/Ownable.sol\":2712:2718  _owner */\n      0x00\n      dup1\n        /* \"abstract/Ownable.sol\":2712:2729  _owner = newOwner */\n      0x0100\n      exp\n      dup2\n      sload\n      dup2\n      0xffffffffffffffffffffffffffffffffffffffff\n      mul\n      not\n      and\n      swap1\n      dup4\n      0xffffffffffffffffffffffffffffffffffffffff\n      and\n      mul\n      or\n      swap1\n      sstore\n      pop\n        /* \"abstract/Ownable.sol\":2776:2784  newOwner */\n      dup2\n        /* \"abstract/Ownable.sol\":2745:2785  OwnershipTransferred(oldOwner, newOwner) */\n      0xffffffffffffffffffffffffffffffffffffffff\n      and\n        /* \"abstract/Ownable.sol\":2766:2774  oldOwner */\n      dup2\n        /* \"abstract/Ownable.sol\":2745:2785  OwnershipTransferred(oldOwner, newOwner) */\n      0xffffffffffffffffffffffffffffffffffffffff\n      and\n      0x8be0079c531659141344cd1fd0a4f28419497f9722a3daafe3b4186f6b6457e0\n      mload(0x40)\n      mload(0x40)\n      dup1\n      swap2\n      sub\n      swap1\n      log3\n        /* \"abstract/Ownable.sol\":2665:2793  {... */\n      pop\n        /* \"abstract/Ownable.sol\":2602:2793  function _transferOwnership(address newOwner) internal virtual {... */\n      pop\n      jump\t// out\n        /* \"#utility.yul\":7:142   */\n    tag_94:\n        /* \"#utility.yul\":95:101   */\n      0x00\n        /* \"#utility.yul\":129:134   */\n      dup2\n        /* \"#utility.yul\":123:135   */\n      mload\n        /* \"#utility.yul\":113:135   */\n      swap1\n      pop\n        /* \"#utility.yul\":7:142   */\n      swap2\n      swap1\n      pop\n      jump\t// out\n        /* \"#utility.yul\":148:353   */\n    tag_95:\n        /* \"#utility.yul\":268:279   */\n      0x00\n        /* \"#utility.yul\":302:308   */\n      dup3\n        /* \"#utility.yul\":297:300   */\n      dup3\n        /* \"#utility.yul\":290:309   */\n      mstore\n        /* \"#utility.yul\":342:346   */\n      0x20\n        /* \"#utility.yul\":337:340   */\n      dup3\n        /* \"#utility.yul\":333:347   */\n      add\n        /* \"#utility.yul\":318:347   */\n      swap1\n      pop\n        /* \"#utility.yul\":148:353   */\n      swap3\n      swap2\n      pop\n      pop\n      jump\t// out\n        /* \"#utility.yul\":359:512   */\n    tag_96:\n        /* \"#utility.yul\":447:451   */\n      0x00\n        /* \"#utility.yul\":470:473   */\n      dup2\n        /* \"#utility.yul\":462:473   */\n      swap1\n      pop\n        /* \"#utility.yul\":500:504   */\n      0x20\n        /* \"#utility.yul\":495:498   */\n      dup3\n        /* \"#utility.yul\":491:505   */\n      add\n        /* \"#utility.yul\":483:505   */\n      swap1\n      pop\n        /* \"#utility.yul\":359:512   */\n      swap2\n      swap1\n      pop\n      jump\t// out\n        /* \"#utility.yul\":518:595   */\n    tag_97:\n        /* \"#utility.yul\":555:562   */\n      0x00\n        /* \"#utility.yul\":584:589   */\n      dup2\n        /* \"#utility.yul\":573:589   */\n      swap1\n      pop\n        /* \"#utility.yul\":518:595   */\n      swap2\n      swap1\n      pop\n      jump\t// out\n        /* \"#utility.yul\":601:709   */\n    tag_98:\n        /* \"#utility.yul\":678:702   */\n      tag_163\n        /* \"#utility.yul\":696:701   */\n      dup2\n        /* \"#utility.yul\":678:702   */\n      tag_97\n      jump\t// in\n    tag_163:\n        /* \"#utility.yul\":673:676   */\n      dup3\n        /* \"#utility.yul\":666:703   */\n      mstore\n        /* \"#utility.yul\":601:709   */\n      pop\n      pop\n      jump\t// out\n        /* \"#utility.yul\":715:814   */\n    tag_99:\n        /* \"#utility.yul\":767:773   */\n      0x00\n        /* \"#utility.yul\":801:806   */\n      dup2\n        /* \"#utility.yul\":795:807   */\n      mload\n        /* \"#utility.yul\":785:807   */\n      swap1\n      pop\n        /* \"#utility.yul\":715:814   */\n      swap2\n      swap1\n      pop\n      jump\t// out\n        /* \"#utility.yul\":820:979   */\n    tag_100:\n        /* \"#utility.yul\":894:905   */\n      0x00\n        /* \"#utility.yul\":928:934   */\n      dup3\n        /* \"#utility.yul\":923:926   */\n      dup3\n        /* \"#utility.yul\":916:935   */\n      mstore\n        /* \"#utility.yul\":968:972   */\n      0x20\n        /* \"#utility.yul\":963:966   */\n      dup3\n        /* \"#utility.yul\":959:973   */\n      add\n        /* \"#utility.yul\":944:973   */\n      swap1\n      pop\n        /* \"#utility.yul\":820:979   */\n      swap3\n      swap2\n      pop\n      pop\n      jump\t// out\n        /* \"#utility.yul\":985:1231   */\n    tag_101:\n        /* \"#utility.yul\":1066:1067   */\n      0x00\n        /* \"#utility.yul\":1076:1189   */\n    tag_167:\n        /* \"#utility.yul\":1090:1096   */\n      dup4\n        /* \"#utility.yul\":1087:1088   */\n      dup2\n        /* \"#utility.yul\":1084:1097   */\n      lt\n        /* \"#utility.yul\":1076:1189   */\n      iszero\n      tag_169\n      jumpi\n        /* \"#utility.yul\":1175:1176   */\n      dup1\n        /* \"#utility.yul\":1170:1173   */\n      dup3\n        /* \"#utility.yul\":1166:1177   */\n      add\n        /* \"#utility.yul\":1160:1178   */\n      mload\n        /* \"#utility.yul\":1156:1157   */\n      dup2\n        /* \"#utility.yul\":1151:1154   */\n      dup5\n        /* \"#utility.yul\":1147:1158   */\n      add\n        /* \"#utility.yul\":1140:1179   */\n      mstore\n        /* \"#utility.yul\":1112:1114   */\n      0x20\n        /* \"#utility.yul\":1109:1110   */\n      dup2\n        /* \"#utility.yul\":1105:1115   */\n      add\n        /* \"#utility.yul\":1100:1115   */\n      swap1\n      pop\n        /* \"#utility.yul\":1076:1189   */\n      jump(tag_167)\n    tag_169:\n        /* \"#utility.yul\":1223:1224   */\n      0x00\n        /* \"#utility.yul\":1214:1220   */\n      dup5\n        /* \"#utility.yul\":1209:1212   */\n      dup5\n        /* \"#utility.yul\":1205:1221   */\n      add\n        /* \"#utility.yul\":1198:1225   */\n      mstore\n        /* \"#utility.yul\":1047:1231   */\n      pop\n        /* \"#utility.yul\":985:1231   */\n      pop\n      pop\n      pop\n      jump\t// out\n        /* \"#utility.yul\":1237:1339   */\n    tag_102:\n        /* \"#utility.yul\":1278:1284   */\n      0x00\n        /* \"#utility.yul\":1329:1331   */\n      0x1f\n        /* \"#utility.yul\":1325:1332   */\n      not\n        /* \"#utility.yul\":1320:1322   */\n      0x1f\n        /* \"#utility.yul\":1313:1318   */\n      dup4\n        /* \"#utility.yul\":1309:1323   */\n      add\n        /* \"#utility.yul\":1305:1333   */\n      and\n        /* \"#utility.yul\":1295:1333   */\n      swap1\n      pop\n        /* \"#utility.yul\":1237:1339   */\n      swap2\n      swap1\n      pop\n      jump\t// out\n        /* \"#utility.yul\":1345:1702   */\n    tag_103:\n        /* \"#utility.yul\":1423:1426   */\n      0x00\n        /* \"#utility.yul\":1451:1490   */\n      tag_172\n        /* \"#utility.yul\":1484:1489   */\n      dup3\n        /* \"#utility.yul\":1451:1490   */\n      tag_99\n      jump\t// in\n    tag_172:\n        /* \"#utility.yul\":1506:1567   */\n      tag_173\n        /* \"#utility.yul\":1560:1566   */\n      dup2\n        /* \"#utility.yul\":1555:1558   */\n      dup6\n        /* \"#utility.yul\":1506:1567   */\n      tag_100\n      jump\t// in\n    tag_173:\n        /* \"#utility.yul\":1499:1567   */\n      swap4\n      pop\n        /* \"#utility.yul\":1576:1641   */\n      tag_174\n        /* \"#utility.yul\":1634:1640   */\n      dup2\n        /* \"#utility.yul\":1629:1632   */\n      dup6\n        /* \"#utility.yul\":1622:1626   */\n      0x20\n        /* \"#utility.yul\":1615:1620   */\n      dup7\n        /* \"#utility.yul\":1611:1627   */\n      add\n        /* \"#utility.yul\":1576:1641   */\n      tag_101\n      jump\t// in\n    tag_174:\n        /* \"#utility.yul\":1666:1695   */\n      tag_175\n        /* \"#utility.yul\":1688:1694   */\n      dup2\n        /* \"#utility.yul\":1666:1695   */\n      tag_102\n      jump\t// in\n    tag_175:\n        /* \"#utility.yul\":1661:1664   */\n      dup5\n        /* \"#utility.yul\":1657:1696   */\n      add\n        /* \"#utility.yul\":1650:1696   */\n      swap2\n      pop\n        /* \"#utility.yul\":1427:1702   */\n      pop\n        /* \"#utility.yul\":1345:1702   */\n      swap3\n      swap2\n      pop\n      pop\n      jump\t// out\n        /* \"#utility.yul\":1708:1834   */\n    tag_104:\n        /* \"#utility.yul\":1745:1752   */\n      0x00\n        /* \"#utility.yul\":1785:1827   */\n      0xffffffffffffffffffffffffffffffffffffffff\n        /* \"#utility.yul\":1778:1783   */\n      dup3\n        /* \"#utility.yul\":1774:1828   */\n      and\n        /* \"#utility.yul\":1763:1828   */\n      swap1\n      pop\n        /* \"#utility.yul\":1708:1834   */\n      swap2\n      swap1\n      pop\n      jump\t// out\n        /* \"#utility.yul\":1840:1936   */\n    tag_105:\n        /* \"#utility.yul\":1877:1884   */\n      0x00\n        /* \"#utility.yul\":1906:1930   */\n      tag_178\n        /* \"#utility.yul\":1924:1929   */\n      dup3\n        /* \"#utility.yul\":1906:1930   */\n      tag_104\n      jump\t// in\n    tag_178:\n        /* \"#utility.yul\":1895:1930   */\n      swap1\n      pop\n        /* \"#utility.yul\":1840:1936   */\n      swap2\n      swap1\n      pop\n      jump\t// out\n        /* \"#utility.yul\":1942:2050   */\n    tag_106:\n        /* \"#utility.yul\":2019:2043   */\n      tag_180\n        /* \"#utility.yul\":2037:2042   */\n      dup2\n        /* \"#utility.yul\":2019:2043   */\n      tag_105\n      jump\t// in\n    tag_180:\n        /* \"#utility.yul\":2014:2017   */\n      dup3\n        /* \"#utility.yul\":2007:2044   */\n      mstore\n        /* \"#utility.yul\":1942:2050   */\n      pop\n      pop\n      jump\t// out\n        /* \"#utility.yul\":2090:3719   */\n    tag_107:\n        /* \"#utility.yul\":2191:2194   */\n      0x00\n        /* \"#utility.yul\":2227:2231   */\n      0xe0\n        /* \"#utility.yul\":2222:2225   */\n      dup4\n        /* \"#utility.yul\":2218:2232   */\n      add\n        /* \"#utility.yul\":2316:2320   */\n      0x00\n        /* \"#utility.yul\":2309:2314   */\n      dup4\n        /* \"#utility.yul\":2305:2321   */\n      add\n        /* \"#utility.yul\":2299:2322   */\n      mload\n        /* \"#utility.yul\":2335:2398   */\n      tag_182\n        /* \"#utility.yul\":2392:2396   */\n      0x00\n        /* \"#utility.yul\":2387:2390   */\n      dup7\n        /* \"#utility.yul\":2383:2397   */\n      add\n        /* \"#utility.yul\":2369:2381   */\n      dup3\n        /* \"#utility.yul\":2335:2398   */\n      tag_98\n      jump\t// in\n    tag_182:\n        /* \"#utility.yul\":2242:2408   */\n      pop\n        /* \"#utility.yul\":2494:2498   */\n      0x20\n        /* \"#utility.yul\":2487:2492   */\n      dup4\n        /* \"#utility.yul\":2483:2499   */\n      add\n        /* \"#utility.yul\":2477:2500   */\n      mload\n        /* \"#utility.yul\":2547:2550   */\n      dup5\n        /* \"#utility.yul\":2541:2545   */\n      dup3\n        /* \"#utility.yul\":2537:2551   */\n      sub\n        /* \"#utility.yul\":2530:2534   */\n      0x20\n        /* \"#utility.yul\":2525:2528   */\n      dup7\n        /* \"#utility.yul\":2521:2535   */\n      add\n        /* \"#utility.yul\":2514:2552   */\n      mstore\n        /* \"#utility.yul\":2573:2646   */\n      tag_183\n        /* \"#utility.yul\":2641:2645   */\n      dup3\n        /* \"#utility.yul\":2627:2639   */\n      dup3\n        /* \"#utility.yul\":2573:2646   */\n      tag_103\n      jump\t// in\n    tag_183:\n        /* \"#utility.yul\":2565:2646   */\n      swap2\n      pop\n        /* \"#utility.yul\":2418:2657   */\n      pop\n        /* \"#utility.yul\":2743:2747   */\n      0x40\n        /* \"#utility.yul\":2736:2741   */\n      dup4\n        /* \"#utility.yul\":2732:2748   */\n      add\n        /* \"#utility.yul\":2726:2749   */\n      mload\n        /* \"#utility.yul\":2762:2825   */\n      tag_184\n        /* \"#utility.yul\":2819:2823   */\n      0x40\n        /* \"#utility.yul\":2814:2817   */\n      dup7\n        /* \"#utility.yul\":2810:2824   */\n      add\n        /* \"#utility.yul\":2796:2808   */\n      dup3\n        /* \"#utility.yul\":2762:2825   */\n      tag_98\n      jump\t// in\n    tag_184:\n        /* \"#utility.yul\":2667:2835   */\n      pop\n        /* \"#utility.yul\":2922:2926   */\n      0x60\n        /* \"#utility.yul\":2915:2920   */\n      dup4\n        /* \"#utility.yul\":2911:2927   */\n      add\n        /* \"#utility.yul\":2905:2928   */\n      mload\n        /* \"#utility.yul\":2975:2978   */\n      dup5\n        /* \"#utility.yul\":2969:2973   */\n      dup3\n        /* \"#utility.yul\":2965:2979   */\n      sub\n        /* \"#utility.yul\":2958:2962   */\n      0x60\n        /* \"#utility.yul\":2953:2956   */\n      dup7\n        /* \"#utility.yul\":2949:2963   */\n      add\n        /* \"#utility.yul\":2942:2980   */\n      mstore\n        /* \"#utility.yul\":3001:3074   */\n      tag_185\n        /* \"#utility.yul\":3069:3073   */\n      dup3\n        /* \"#utility.yul\":3055:3067   */\n      dup3\n        /* \"#utility.yul\":3001:3074   */\n      tag_103\n      jump\t// in\n    tag_185:\n        /* \"#utility.yul\":2993:3074   */\n      swap2\n      pop\n        /* \"#utility.yul\":2845:3085   */\n      pop\n        /* \"#utility.yul\":3172:3176   */\n      0x80\n        /* \"#utility.yul\":3165:3170   */\n      dup4\n        /* \"#utility.yul\":3161:3177   */\n      add\n        /* \"#utility.yul\":3155:3178   */\n      mload\n        /* \"#utility.yul\":3225:3228   */\n      dup5\n        /* \"#utility.yul\":3219:3223   */\n      dup3\n        /* \"#utility.yul\":3215:3229   */\n      sub\n        /* \"#utility.yul\":3208:3212   */\n      0x80\n        /* \"#utility.yul\":3203:3206   */\n      dup7\n        /* \"#utility.yul\":3199:3213   */\n      add\n        /* \"#utility.yul\":3192:3230   */\n      mstore\n        /* \"#utility.yul\":3251:3324   */\n      tag_186\n        /* \"#utility.yul\":3319:3323   */\n      dup3\n        /* \"#utility.yul\":3305:3317   */\n      dup3\n        /* \"#utility.yul\":3251:3324   */\n      tag_103\n      jump\t// in\n    tag_186:\n        /* \"#utility.yul\":3243:3324   */\n      swap2\n      pop\n        /* \"#utility.yul\":3095:3335   */\n      pop\n        /* \"#utility.yul\":3424:3428   */\n      0xa0\n        /* \"#utility.yul\":3417:3422   */\n      dup4\n        /* \"#utility.yul\":3413:3429   */\n      add\n        /* \"#utility.yul\":3407:3430   */\n      mload\n        /* \"#utility.yul\":3443:3506   */\n      tag_187\n        /* \"#utility.yul\":3500:3504   */\n      0xa0\n        /* \"#utility.yul\":3495:3498   */\n      dup7\n        /* \"#utility.yul\":3491:3505   */\n      add\n        /* \"#utility.yul\":3477:3489   */\n      dup3\n        /* \"#utility.yul\":3443:3506   */\n      tag_106\n      jump\t// in\n    tag_187:\n        /* \"#utility.yul\":3345:3516   */\n      pop\n        /* \"#utility.yul\":3600:3604   */\n      0xc0\n        /* \"#utility.yul\":3593:3598   */\n      dup4\n        /* \"#utility.yul\":3589:3605   */\n      add\n        /* \"#utility.yul\":3583:3606   */\n      mload\n        /* \"#utility.yul\":3619:3682   */\n      tag_188\n        /* \"#utility.yul\":3676:3680   */\n      0xc0\n        /* \"#utility.yul\":3671:3674   */\n      dup7\n        /* \"#utility.yul\":3667:3681   */\n      add\n        /* \"#utility.yul\":3653:3665   */\n      dup3\n        /* \"#utility.yul\":3619:3682   */\n      tag_98\n      jump\t// in\n    tag_188:\n        /* \"#utility.yul\":3526:3692   */\n      pop\n        /* \"#utility.yul\":3709:3713   */\n      dup1\n        /* \"#utility.yul\":3702:3713   */\n      swap2\n      pop\n        /* \"#utility.yul\":2196:3719   */\n      pop\n        /* \"#utility.yul\":2090:3719   */\n      swap3\n      swap2\n      pop\n      pop\n      jump\t// out\n        /* \"#utility.yul\":3725:3965   */\n    tag_108:\n        /* \"#utility.yul\":3836:3846   */\n      0x00\n        /* \"#utility.yul\":3871:3959   */\n      tag_190\n        /* \"#utility.yul\":3955:3958   */\n      dup4\n        /* \"#utility.yul\":3947:3953   */\n      dup4\n        /* \"#utility.yul\":3871:3959   */\n      tag_107\n      jump\t// in\n    tag_190:\n        /* \"#utility.yul\":3857:3959   */\n      swap1\n      pop\n        /* \"#utility.yul\":3725:3965   */\n      swap3\n      swap2\n      pop\n      pop\n      jump\t// out\n        /* \"#utility.yul\":3971:4105   */\n    tag_109:\n        /* \"#utility.yul\":4062:4066   */\n      0x00\n        /* \"#utility.yul\":4094:4098   */\n      0x20\n        /* \"#utility.yul\":4089:4092   */\n      dup3\n        /* \"#utility.yul\":4085:4099   */\n      add\n        /* \"#utility.yul\":4077:4099   */\n      swap1\n      pop\n        /* \"#utility.yul\":3971:4105   */\n      swap2\n      swap1\n      pop\n      jump\t// out\n        /* \"#utility.yul\":4149:5228   */\n    tag_110:\n        /* \"#utility.yul\":4310:4313   */\n      0x00\n        /* \"#utility.yul\":4339:4414   */\n      tag_193\n        /* \"#utility.yul\":4408:4413   */\n      dup3\n        /* \"#utility.yul\":4339:4414   */\n      tag_94\n      jump\t// in\n    tag_193:\n        /* \"#utility.yul\":4430:4537   */\n      tag_194\n        /* \"#utility.yul\":4530:4536   */\n      dup2\n        /* \"#utility.yul\":4525:4528   */\n      dup6\n        /* \"#utility.yul\":4430:4537   */\n      tag_95\n      jump\t// in\n    tag_194:\n        /* \"#utility.yul\":4423:4537   */\n      swap4\n      pop\n        /* \"#utility.yul\":4563:4566   */\n      dup4\n        /* \"#utility.yul\":4608:4612   */\n      0x20\n        /* \"#utility.yul\":4600:4606   */\n      dup3\n        /* \"#utility.yul\":4596:4613   */\n      mul\n        /* \"#utility.yul\":4591:4594   */\n      dup6\n        /* \"#utility.yul\":4587:4614   */\n      add\n        /* \"#utility.yul\":4638:4715   */\n      tag_195\n        /* \"#utility.yul\":4709:4714   */\n      dup6\n        /* \"#utility.yul\":4638:4715   */\n      tag_96\n      jump\t// in\n    tag_195:\n        /* \"#utility.yul\":4738:4745   */\n      dup1\n        /* \"#utility.yul\":4769:4770   */\n      0x00\n        /* \"#utility.yul\":4754:5183   */\n    tag_196:\n        /* \"#utility.yul\":4779:4785   */\n      dup6\n        /* \"#utility.yul\":4776:4777   */\n      dup2\n        /* \"#utility.yul\":4773:4786   */\n      lt\n        /* \"#utility.yul\":4754:5183   */\n      iszero\n      tag_198\n      jumpi\n        /* \"#utility.yul\":4850:4859   */\n      dup5\n        /* \"#utility.yul\":4844:4848   */\n      dup5\n        /* \"#utility.yul\":4840:4860   */\n      sub\n        /* \"#utility.yul\":4835:4838   */\n      dup10\n        /* \"#utility.yul\":4828:4861   */\n      mstore\n        /* \"#utility.yul\":4901:4907   */\n      dup2\n        /* \"#utility.yul\":4895:4908   */\n      mload\n        /* \"#utility.yul\":4929:5035   */\n      tag_199\n        /* \"#utility.yul\":5030:5034   */\n      dup6\n        /* \"#utility.yul\":5015:5028   */\n      dup3\n        /* \"#utility.yul\":4929:5035   */\n      tag_108\n      jump\t// in\n    tag_199:\n        /* \"#utility.yul\":4921:5035   */\n      swap5\n      pop\n        /* \"#utility.yul\":5058:5139   */\n      tag_200\n        /* \"#utility.yul\":5132:5138   */\n      dup4\n        /* \"#utility.yul\":5058:5139   */\n      tag_109\n      jump\t// in\n    tag_200:\n        /* \"#utility.yul\":5048:5139   */\n      swap3\n      pop\n        /* \"#utility.yul\":5168:5172   */\n      0x20\n        /* \"#utility.yul\":5163:5166   */\n      dup11\n        /* \"#utility.yul\":5159:5173   */\n      add\n        /* \"#utility.yul\":5152:5173   */\n      swap10\n      pop\n        /* \"#utility.yul\":4814:5183   */\n      pop\n        /* \"#utility.yul\":4801:4802   */\n      0x01\n        /* \"#utility.yul\":4798:4799   */\n      dup2\n        /* \"#utility.yul\":4794:4803   */\n      add\n        /* \"#utility.yul\":4789:4803   */\n      swap1\n      pop\n        /* \"#utility.yul\":4754:5183   */\n      jump(tag_196)\n    tag_198:\n        /* \"#utility.yul\":4758:4772   */\n      pop\n        /* \"#utility.yul\":5199:5203   */\n      dup3\n        /* \"#utility.yul\":5192:5203   */\n      swap8\n      pop\n        /* \"#utility.yul\":5219:5222   */\n      dup8\n        /* \"#utility.yul\":5212:5222   */\n      swap6\n      pop\n        /* \"#utility.yul\":4315:5228   */\n      pop\n      pop\n      pop\n      pop\n      pop\n        /* \"#utility.yul\":4149:5228   */\n      swap3\n      swap2\n      pop\n      pop\n      jump\t// out\n        /* \"#utility.yul\":5234:5691   */\n    tag_12:\n        /* \"#utility.yul\":5419:5423   */\n      0x00\n        /* \"#utility.yul\":5457:5459   */\n      0x20\n        /* \"#utility.yul\":5446:5455   */\n      dup3\n        /* \"#utility.yul\":5442:5460   */\n      add\n        /* \"#utility.yul\":5434:5460   */\n      swap1\n      pop\n        /* \"#utility.yul\":5506:5515   */\n      dup2\n        /* \"#utility.yul\":5500:5504   */\n      dup2\n        /* \"#utility.yul\":5496:5516   */\n      sub\n        /* \"#utility.yul\":5492:5493   */\n      0x00\n        /* \"#utility.yul\":5481:5490   */\n      dup4\n        /* \"#utility.yul\":5477:5494   */\n      add\n        /* \"#utility.yul\":5470:5517   */\n      mstore\n        /* \"#utility.yul\":5534:5684   */\n      tag_202\n        /* \"#utility.yul\":5679:5683   */\n      dup2\n        /* \"#utility.yul\":5670:5676   */\n      dup5\n        /* \"#utility.yul\":5534:5684   */\n      tag_110\n      jump\t// in\n    tag_202:\n        /* \"#utility.yul\":5526:5684   */\n      swap1\n      pop\n        /* \"#utility.yul\":5234:5691   */\n      swap3\n      swap2\n      pop\n      pop\n      jump\t// out\n        /* \"#utility.yul\":5697:5772   */\n    tag_111:\n        /* \"#utility.yul\":5730:5736   */\n      0x00\n        /* \"#utility.yul\":5763:5765   */\n      0x40\n        /* \"#utility.yul\":5757:5766   */\n      mload\n        /* \"#utility.yul\":5747:5766   */\n      swap1\n      pop\n        /* \"#utility.yul\":5697:5772   */\n      swap1\n      jump\t// out\n        /* \"#utility.yul\":5778:5895   */\n    tag_112:\n        /* \"#utility.yul\":5887:5888   */\n      0x00\n        /* \"#utility.yul\":5884:5885   */\n      dup1\n        /* \"#utility.yul\":5877:5889   */\n      revert\n        /* \"#utility.yul\":5901:6018   */\n    tag_113:\n        /* \"#utility.yul\":6010:6011   */\n      0x00\n        /* \"#utility.yul\":6007:6008   */\n      dup1\n        /* \"#utility.yul\":6000:6012   */\n      revert\n        /* \"#utility.yul\":6024:6141   */\n    tag_114:\n        /* \"#utility.yul\":6133:6134   */\n      0x00\n        /* \"#utility.yul\":6130:6131   */\n      dup1\n        /* \"#utility.yul\":6123:6135   */\n      revert\n        /* \"#utility.yul\":6147:6327   */\n    tag_115:\n        /* \"#utility.yul\":6195:6272   */\n      0x4e487b7100000000000000000000000000000000000000000000000000000000\n        /* \"#utility.yul\":6192:6193   */\n      0x00\n        /* \"#utility.yul\":6185:6273   */\n      mstore\n        /* \"#utility.yul\":6292:6296   */\n      0x41\n        /* \"#utility.yul\":6289:6290   */\n      0x04\n        /* \"#utility.yul\":6282:6297   */\n      mstore\n        /* \"#utility.yul\":6316:6320   */\n      0x24\n        /* \"#utility.yul\":6313:6314   */\n      0x00\n        /* \"#utility.yul\":6306:6321   */\n      revert\n        /* \"#utility.yul\":6333:6614   */\n    tag_116:\n        /* \"#utility.yul\":6416:6443   */\n      tag_209\n        /* \"#utility.yul\":6438:6442   */\n      dup3\n        /* \"#utility.yul\":6416:6443   */\n      tag_102\n      jump\t// in\n    tag_209:\n        /* \"#utility.yul\":6408:6414   */\n      dup2\n        /* \"#utility.yul\":6404:6444   */\n      add\n        /* \"#utility.yul\":6546:6552   */\n      dup2\n        /* \"#utility.yul\":6534:6544   */\n      dup2\n        /* \"#utility.yul\":6531:6553   */\n      lt\n        /* \"#utility.yul\":6510:6528   */\n      0xffffffffffffffff\n        /* \"#utility.yul\":6498:6508   */\n      dup3\n        /* \"#utility.yul\":6495:6529   */\n      gt\n        /* \"#utility.yul\":6492:6554   */\n      or\n        /* \"#utility.yul\":6489:6577   */\n      iszero\n      tag_210\n      jumpi\n        /* \"#utility.yul\":6557:6575   */\n      tag_211\n      tag_115\n      jump\t// in\n    tag_211:\n        /* \"#utility.yul\":6489:6577   */\n    tag_210:\n        /* \"#utility.yul\":6597:6607   */\n      dup1\n        /* \"#utility.yul\":6593:6595   */\n      0x40\n        /* \"#utility.yul\":6586:6608   */\n      mstore\n        /* \"#utility.yul\":6376:6614   */\n      pop\n        /* \"#utility.yul\":6333:6614   */\n      pop\n      pop\n      jump\t// out\n        /* \"#utility.yul\":6620:6749   */\n    tag_117:\n        /* \"#utility.yul\":6654:6660   */\n      0x00\n        /* \"#utility.yul\":6681:6701   */\n      tag_213\n      tag_111\n      jump\t// in\n    tag_213:\n        /* \"#utility.yul\":6671:6701   */\n      swap1\n      pop\n        /* \"#utility.yul\":6710:6743   */\n      tag_214\n        /* \"#utility.yul\":6738:6742   */\n      dup3\n        /* \"#utility.yul\":6730:6736   */\n      dup3\n        /* \"#utility.yul\":6710:6743   */\n      tag_116\n      jump\t// in\n    tag_214:\n        /* \"#utility.yul\":6620:6749   */\n      swap2\n      swap1\n      pop\n      jump\t// out\n        /* \"#utility.yul\":6755:6872   */\n    tag_118:\n        /* \"#utility.yul\":6864:6865   */\n      0x00\n        /* \"#utility.yul\":6861:6862   */\n      dup1\n        /* \"#utility.yul\":6854:6866   */\n      revert\n        /* \"#utility.yul\":6878:7000   */\n    tag_119:\n        /* \"#utility.yul\":6951:6975   */\n      tag_217\n        /* \"#utility.yul\":6969:6974   */\n      dup2\n        /* \"#utility.yul\":6951:6975   */\n      tag_97\n      jump\t// in\n    tag_217:\n        /* \"#utility.yul\":6944:6949   */\n      dup2\n        /* \"#utility.yul\":6941:6976   */\n      eq\n        /* \"#utility.yul\":6931:6994   */\n      tag_218\n      jumpi\n        /* \"#utility.yul\":6990:6991   */\n      0x00\n        /* \"#utility.yul\":6987:6988   */\n      dup1\n        /* \"#utility.yul\":6980:6992   */\n      revert\n        /* \"#utility.yul\":6931:6994   */\n    tag_218:\n        /* \"#utility.yul\":6878:7000   */\n      pop\n      jump\t// out\n        /* \"#utility.yul\":7006:7145   */\n    tag_120:\n        /* \"#utility.yul\":7052:7057   */\n      0x00\n        /* \"#utility.yul\":7090:7096   */\n      dup2\n        /* \"#utility.yul\":7077:7097   */\n      calldataload\n        /* \"#utility.yul\":7068:7097   */\n      swap1\n      pop\n        /* \"#utility.yul\":7106:7139   */\n      tag_220\n        /* \"#utility.yul\":7133:7138   */\n      dup2\n        /* \"#utility.yul\":7106:7139   */\n      tag_119\n      jump\t// in\n    tag_220:\n        /* \"#utility.yul\":7006:7145   */\n      swap3\n      swap2\n      pop\n      pop\n      jump\t// out\n        /* \"#utility.yul\":7151:7268   */\n    tag_121:\n        /* \"#utility.yul\":7260:7261   */\n      0x00\n        /* \"#utility.yul\":7257:7258   */\n      dup1\n        /* \"#utility.yul\":7250:7262   */\n      revert\n        /* \"#utility.yul\":7274:7391   */\n    tag_122:\n        /* \"#utility.yul\":7383:7384   */\n      0x00\n        /* \"#utility.yul\":7380:7381   */\n      dup1\n        /* \"#utility.yul\":7373:7385   */\n      revert\n        /* \"#utility.yul\":7397:7705   */\n    tag_123:\n        /* \"#utility.yul\":7459:7463   */\n      0x00\n        /* \"#utility.yul\":7549:7567   */\n      0xffffffffffffffff\n        /* \"#utility.yul\":7541:7547   */\n      dup3\n        /* \"#utility.yul\":7538:7568   */\n      gt\n        /* \"#utility.yul\":7535:7591   */\n      iszero\n      tag_224\n      jumpi\n        /* \"#utility.yul\":7571:7589   */\n      tag_225\n      tag_115\n      jump\t// in\n    tag_225:\n        /* \"#utility.yul\":7535:7591   */\n    tag_224:\n        /* \"#utility.yul\":7609:7638   */\n      tag_226\n        /* \"#utility.yul\":7631:7637   */\n      dup3\n        /* \"#utility.yul\":7609:7638   */\n      tag_102\n      jump\t// in\n    tag_226:\n        /* \"#utility.yul\":7601:7638   */\n      swap1\n      pop\n        /* \"#utility.yul\":7693:7697   */\n      0x20\n        /* \"#utility.yul\":7687:7691   */\n      dup2\n        /* \"#utility.yul\":7683:7698   */\n      add\n        /* \"#utility.yul\":7675:7698   */\n      swap1\n      pop\n        /* \"#utility.yul\":7397:7705   */\n      swap2\n      swap1\n      pop\n      jump\t// out\n        /* \"#utility.yul\":7711:7857   */\n    tag_124:\n        /* \"#utility.yul\":7808:7814   */\n      dup3\n        /* \"#utility.yul\":7803:7806   */\n      dup2\n        /* \"#utility.yul\":7798:7801   */\n      dup4\n        /* \"#utility.yul\":7785:7815   */\n      calldatacopy\n        /* \"#utility.yul\":7849:7850   */\n      0x00\n        /* \"#utility.yul\":7840:7846   */\n      dup4\n        /* \"#utility.yul\":7835:7838   */\n      dup4\n        /* \"#utility.yul\":7831:7847   */\n      add\n        /* \"#utility.yul\":7824:7851   */\n      mstore\n        /* \"#utility.yul\":7711:7857   */\n      pop\n      pop\n      pop\n      jump\t// out\n        /* \"#utility.yul\":7863:8288   */\n    tag_125:\n        /* \"#utility.yul\":7941:7946   */\n      0x00\n        /* \"#utility.yul\":7966:8032   */\n      tag_229\n        /* \"#utility.yul\":7982:8031   */\n      tag_230\n        /* \"#utility.yul\":8024:8030   */\n      dup5\n        /* \"#utility.yul\":7982:8031   */\n      tag_123\n      jump\t// in\n    tag_230:\n        /* \"#utility.yul\":7966:8032   */\n      tag_117\n      jump\t// in\n    tag_229:\n        /* \"#utility.yul\":7957:8032   */\n      swap1\n      pop\n        /* \"#utility.yul\":8055:8061   */\n      dup3\n        /* \"#utility.yul\":8048:8053   */\n      dup2\n        /* \"#utility.yul\":8041:8062   */\n      mstore\n        /* \"#utility.yul\":8093:8097   */\n      0x20\n        /* \"#utility.yul\":8086:8091   */\n      dup2\n        /* \"#utility.yul\":8082:8098   */\n      add\n        /* \"#utility.yul\":8131:8134   */\n      dup5\n        /* \"#utility.yul\":8122:8128   */\n      dup5\n        /* \"#utility.yul\":8117:8120   */\n      dup5\n        /* \"#utility.yul\":8113:8129   */\n      add\n        /* \"#utility.yul\":8110:8135   */\n      gt\n        /* \"#utility.yul\":8107:8219   */\n      iszero\n      tag_231\n      jumpi\n        /* \"#utility.yul\":8138:8217   */\n      tag_232\n      tag_122\n      jump\t// in\n    tag_232:\n        /* \"#utility.yul\":8107:8219   */\n    tag_231:\n        /* \"#utility.yul\":8228:8282   */\n      tag_233\n        /* \"#utility.yul\":8275:8281   */\n      dup5\n        /* \"#utility.yul\":8270:8273   */\n      dup3\n        /* \"#utility.yul\":8265:8268   */\n      dup6\n        /* \"#utility.yul\":8228:8282   */\n      tag_124\n      jump\t// in\n    tag_233:\n        /* \"#utility.yul\":7947:8288   */\n      pop\n        /* \"#utility.yul\":7863:8288   */\n      swap4\n      swap3\n      pop\n      pop\n      pop\n      jump\t// out\n        /* \"#utility.yul\":8308:8648   */\n    tag_126:\n        /* \"#utility.yul\":8364:8369   */\n      0x00\n        /* \"#utility.yul\":8413:8416   */\n      dup3\n        /* \"#utility.yul\":8406:8410   */\n      0x1f\n        /* \"#utility.yul\":8398:8404   */\n      dup4\n        /* \"#utility.yul\":8394:8411   */\n      add\n        /* \"#utility.yul\":8390:8417   */\n      slt\n        /* \"#utility.yul\":8380:8502   */\n      tag_235\n      jumpi\n        /* \"#utility.yul\":8421:8500   */\n      tag_236\n      tag_121\n      jump\t// in\n    tag_236:\n        /* \"#utility.yul\":8380:8502   */\n    tag_235:\n        /* \"#utility.yul\":8538:8544   */\n      dup2\n        /* \"#utility.yul\":8525:8545   */\n      calldataload\n        /* \"#utility.yul\":8563:8642   */\n      tag_237\n        /* \"#utility.yul\":8638:8641   */\n      dup5\n        /* \"#utility.yul\":8630:8636   */\n      dup3\n        /* \"#utility.yul\":8623:8627   */\n      0x20\n        /* \"#utility.yul\":8615:8621   */\n      dup7\n        /* \"#utility.yul\":8611:8628   */\n      add\n        /* \"#utility.yul\":8563:8642   */\n      tag_125\n      jump\t// in\n    tag_237:\n        /* \"#utility.yul\":8554:8642   */\n      swap2\n      pop\n        /* \"#utility.yul\":8370:8648   */\n      pop\n        /* \"#utility.yul\":8308:8648   */\n      swap3\n      swap2\n      pop\n      pop\n      jump\t// out\n        /* \"#utility.yul\":8654:8776   */\n    tag_127:\n        /* \"#utility.yul\":8727:8751   */\n      tag_239\n        /* \"#utility.yul\":8745:8750   */\n      dup2\n        /* \"#utility.yul\":8727:8751   */\n      tag_105\n      jump\t// in\n    tag_239:\n        /* \"#utility.yul\":8720:8725   */\n      dup2\n        /* \"#utility.yul\":8717:8752   */\n      eq\n        /* \"#utility.yul\":8707:8770   */\n      tag_240\n      jumpi\n        /* \"#utility.yul\":8766:8767   */\n      0x00\n        /* \"#utility.yul\":8763:8764   */\n      dup1\n        /* \"#utility.yul\":8756:8768   */\n      revert\n        /* \"#utility.yul\":8707:8770   */\n    tag_240:\n        /* \"#utility.yul\":8654:8776   */\n      pop\n      jump\t// out\n        /* \"#utility.yul\":8782:8921   */\n    tag_128:\n        /* \"#utility.yul\":8828:8833   */\n      0x00\n        /* \"#utility.yul\":8866:8872   */\n      dup2\n        /* \"#utility.yul\":8853:8873   */\n      calldataload\n        /* \"#utility.yul\":8844:8873   */\n      swap1\n      pop\n        /* \"#utility.yul\":8882:8915   */\n      tag_242\n        /* \"#utility.yul\":8909:8914   */\n      dup2\n        /* \"#utility.yul\":8882:8915   */\n      tag_127\n      jump\t// in\n    tag_242:\n        /* \"#utility.yul\":8782:8921   */\n      swap3\n      swap2\n      pop\n      pop\n      jump\t// out\n        /* \"#utility.yul\":8946:10863   */\n    tag_129:\n        /* \"#utility.yul\":9016:9021   */\n      0x00\n        /* \"#utility.yul\":9060:9064   */\n      0xe0\n        /* \"#utility.yul\":9048:9057   */\n      dup3\n        /* \"#utility.yul\":9043:9046   */\n      dup5\n        /* \"#utility.yul\":9039:9058   */\n      sub\n        /* \"#utility.yul\":9035:9065   */\n      slt\n        /* \"#utility.yul\":9032:9149   */\n      iszero\n      tag_244\n      jumpi\n        /* \"#utility.yul\":9068:9147   */\n      tag_245\n      tag_114\n      jump\t// in\n    tag_245:\n        /* \"#utility.yul\":9032:9149   */\n    tag_244:\n        /* \"#utility.yul\":9167:9188   */\n      tag_246\n        /* \"#utility.yul\":9183:9187   */\n      0xe0\n        /* \"#utility.yul\":9167:9188   */\n      tag_117\n      jump\t// in\n    tag_246:\n        /* \"#utility.yul\":9158:9188   */\n      swap1\n      pop\n        /* \"#utility.yul\":9249:9250   */\n      0x00\n        /* \"#utility.yul\":9289:9338   */\n      tag_247\n        /* \"#utility.yul\":9334:9337   */\n      dup5\n        /* \"#utility.yul\":9325:9331   */\n      dup3\n        /* \"#utility.yul\":9314:9323   */\n      dup6\n        /* \"#utility.yul\":9310:9332   */\n      add\n        /* \"#utility.yul\":9289:9338   */\n      tag_120\n      jump\t// in\n    tag_247:\n        /* \"#utility.yul\":9282:9286   */\n      0x00\n        /* \"#utility.yul\":9275:9280   */\n      dup4\n        /* \"#utility.yul\":9271:9287   */\n      add\n        /* \"#utility.yul\":9264:9339   */\n      mstore\n        /* \"#utility.yul\":9198:9350   */\n      pop\n        /* \"#utility.yul\":9441:9443   */\n      0x20\n        /* \"#utility.yul\":9430:9439   */\n      dup3\n        /* \"#utility.yul\":9426:9444   */\n      add\n        /* \"#utility.yul\":9413:9445   */\n      calldataload\n        /* \"#utility.yul\":9472:9490   */\n      0xffffffffffffffff\n        /* \"#utility.yul\":9464:9470   */\n      dup2\n        /* \"#utility.yul\":9461:9491   */\n      gt\n        /* \"#utility.yul\":9458:9575   */\n      iszero\n      tag_248\n      jumpi\n        /* \"#utility.yul\":9494:9573   */\n      tag_249\n      tag_118\n      jump\t// in\n    tag_249:\n        /* \"#utility.yul\":9458:9575   */\n    tag_248:\n        /* \"#utility.yul\":9614:9673   */\n      tag_250\n        /* \"#utility.yul\":9669:9672   */\n      dup5\n        /* \"#utility.yul\":9660:9666   */\n      dup3\n        /* \"#utility.yul\":9649:9658   */\n      dup6\n        /* \"#utility.yul\":9645:9667   */\n      add\n        /* \"#utility.yul\":9614:9673   */\n      tag_126\n      jump\t// in\n    tag_250:\n        /* \"#utility.yul\":9607:9611   */\n      0x20\n        /* \"#utility.yul\":9600:9605   */\n      dup4\n        /* \"#utility.yul\":9596:9612   */\n      add\n        /* \"#utility.yul\":9589:9674   */\n      mstore\n        /* \"#utility.yul\":9360:9685   */\n      pop\n        /* \"#utility.yul\":9748:9750   */\n      0x40\n        /* \"#utility.yul\":9789:9838   */\n      tag_251\n        /* \"#utility.yul\":9834:9837   */\n      dup5\n        /* \"#utility.yul\":9825:9831   */\n      dup3\n        /* \"#utility.yul\":9814:9823   */\n      dup6\n        /* \"#utility.yul\":9810:9832   */\n      add\n        /* \"#utility.yul\":9789:9838   */\n      tag_120\n      jump\t// in\n    tag_251:\n        /* \"#utility.yul\":9782:9786   */\n      0x40\n        /* \"#utility.yul\":9775:9780   */\n      dup4\n        /* \"#utility.yul\":9771:9787   */\n      add\n        /* \"#utility.yul\":9764:9839   */\n      mstore\n        /* \"#utility.yul\":9695:9850   */\n      pop\n        /* \"#utility.yul\":9942:9944   */\n      0x60\n        /* \"#utility.yul\":9931:9940   */\n      dup3\n        /* \"#utility.yul\":9927:9945   */\n      add\n        /* \"#utility.yul\":9914:9946   */\n      calldataload\n        /* \"#utility.yul\":9973:9991   */\n      0xffffffffffffffff\n        /* \"#utility.yul\":9965:9971   */\n      dup2\n        /* \"#utility.yul\":9962:9992   */\n      gt\n        /* \"#utility.yul\":9959:10076   */\n      iszero\n      tag_252\n      jumpi\n        /* \"#utility.yul\":9995:10074   */\n      tag_253\n      tag_118\n      jump\t// in\n    tag_253:\n        /* \"#utility.yul\":9959:10076   */\n    tag_252:\n        /* \"#utility.yul\":10115:10174   */\n      tag_254\n        /* \"#utility.yul\":10170:10173   */\n      dup5\n        /* \"#utility.yul\":10161:10167   */\n      dup3\n        /* \"#utility.yul\":10150:10159   */\n      dup6\n        /* \"#utility.yul\":10146:10168   */\n      add\n        /* \"#utility.yul\":10115:10174   */\n      tag_126\n      jump\t// in\n    tag_254:\n        /* \"#utility.yul\":10108:10112   */\n      0x60\n        /* \"#utility.yul\":10101:10106   */\n      dup4\n        /* \"#utility.yul\":10097:10113   */\n      add\n        /* \"#utility.yul\":10090:10175   */\n      mstore\n        /* \"#utility.yul\":9860:10186   */\n      pop\n        /* \"#utility.yul\":10278:10281   */\n      0x80\n        /* \"#utility.yul\":10267:10276   */\n      dup3\n        /* \"#utility.yul\":10263:10282   */\n      add\n        /* \"#utility.yul\":10250:10283   */\n      calldataload\n        /* \"#utility.yul\":10310:10328   */\n      0xffffffffffffffff\n        /* \"#utility.yul\":10302:10308   */\n      dup2\n        /* \"#utility.yul\":10299:10329   */\n      gt\n        /* \"#utility.yul\":10296:10413   */\n      iszero\n      tag_255\n      jumpi\n        /* \"#utility.yul\":10332:10411   */\n      tag_256\n      tag_118\n      jump\t// in\n    tag_256:\n        /* \"#utility.yul\":10296:10413   */\n    tag_255:\n        /* \"#utility.yul\":10452:10511   */\n      tag_257\n        /* \"#utility.yul\":10507:10510   */\n      dup5\n        /* \"#utility.yul\":10498:10504   */\n      dup3\n        /* \"#utility.yul\":10487:10496   */\n      dup6\n        /* \"#utility.yul\":10483:10505   */\n      add\n        /* \"#utility.yul\":10452:10511   */\n      tag_126\n      jump\t// in\n    tag_257:\n        /* \"#utility.yul\":10445:10449   */\n      0x80\n        /* \"#utility.yul\":10438:10443   */\n      dup4\n        /* \"#utility.yul\":10434:10450   */\n      add\n        /* \"#utility.yul\":10427:10512   */\n      mstore\n        /* \"#utility.yul\":10196:10523   */\n      pop\n        /* \"#utility.yul\":10589:10592   */\n      0xa0\n        /* \"#utility.yul\":10631:10680   */\n      tag_258\n        /* \"#utility.yul\":10676:10679   */\n      dup5\n        /* \"#utility.yul\":10667:10673   */\n      dup3\n        /* \"#utility.yul\":10656:10665   */\n      dup6\n        /* \"#utility.yul\":10652:10674   */\n      add\n        /* \"#utility.yul\":10631:10680   */\n      tag_128\n      jump\t// in\n    tag_258:\n        /* \"#utility.yul\":10624:10628   */\n      0xa0\n        /* \"#utility.yul\":10617:10622   */\n      dup4\n        /* \"#utility.yul\":10613:10629   */\n      add\n        /* \"#utility.yul\":10606:10681   */\n      mstore\n        /* \"#utility.yul\":10533:10692   */\n      pop\n        /* \"#utility.yul\":10753:10756   */\n      0xc0\n        /* \"#utility.yul\":10795:10844   */\n      tag_259\n        /* \"#utility.yul\":10840:10843   */\n      dup5\n        /* \"#utility.yul\":10831:10837   */\n      dup3\n        /* \"#utility.yul\":10820:10829   */\n      dup6\n        /* \"#utility.yul\":10816:10838   */\n      add\n        /* \"#utility.yul\":10795:10844   */\n      tag_120\n      jump\t// in\n    tag_259:\n        /* \"#utility.yul\":10788:10792   */\n      0xc0\n        /* \"#utility.yul\":10781:10786   */\n      dup4\n        /* \"#utility.yul\":10777:10793   */\n      add\n        /* \"#utility.yul\":10770:10845   */\n      mstore\n        /* \"#utility.yul\":10702:10856   */\n      pop\n        /* \"#utility.yul\":8946:10863   */\n      swap3\n      swap2\n      pop\n      pop\n      jump\t// out\n        /* \"#utility.yul\":10869:11400   */\n    tag_15:\n        /* \"#utility.yul\":10949:10955   */\n      0x00\n        /* \"#utility.yul\":10998:11000   */\n      0x20\n        /* \"#utility.yul\":10986:10995   */\n      dup3\n        /* \"#utility.yul\":10977:10984   */\n      dup5\n        /* \"#utility.yul\":10973:10996   */\n      sub\n        /* \"#utility.yul\":10969:11001   */\n      slt\n        /* \"#utility.yul\":10966:11085   */\n      iszero\n      tag_261\n      jumpi\n        /* \"#utility.yul\":11004:11083   */\n      tag_262\n      tag_112\n      jump\t// in\n    tag_262:\n        /* \"#utility.yul\":10966:11085   */\n    tag_261:\n        /* \"#utility.yul\":11152:11153   */\n      0x00\n        /* \"#utility.yul\":11141:11150   */\n      dup3\n        /* \"#utility.yul\":11137:11154   */\n      add\n        /* \"#utility.yul\":11124:11155   */\n      calldataload\n        /* \"#utility.yul\":11182:11200   */\n      0xffffffffffffffff\n        /* \"#utility.yul\":11174:11180   */\n      dup2\n        /* \"#utility.yul\":11171:11201   */\n      gt\n        /* \"#utility.yul\":11168:11285   */\n      iszero\n      tag_263\n      jumpi\n        /* \"#utility.yul\":11204:11283   */\n      tag_264\n      tag_113\n      jump\t// in\n    tag_264:\n        /* \"#utility.yul\":11168:11285   */\n    tag_263:\n        /* \"#utility.yul\":11309:11383   */\n      tag_265\n        /* \"#utility.yul\":11375:11382   */\n      dup5\n        /* \"#utility.yul\":11366:11372   */\n      dup3\n        /* \"#utility.yul\":11355:11364   */\n      dup6\n        /* \"#utility.yul\":11351:11373   */\n      add\n        /* \"#utility.yul\":11309:11383   */\n      tag_129\n      jump\t// in\n    tag_265:\n        /* \"#utility.yul\":11299:11383   */\n      swap2\n      pop\n        /* \"#utility.yul\":11095:11393   */\n      pop\n        /* \"#utility.yul\":10869:11400   */\n      swap3\n      swap2\n      pop\n      pop\n      jump\t// out\n        /* \"#utility.yul\":11406:11735   */\n    tag_19:\n        /* \"#utility.yul\":11465:11471   */\n      0x00\n        /* \"#utility.yul\":11514:11516   */\n      0x20\n        /* \"#utility.yul\":11502:11511   */\n      dup3\n        /* \"#utility.yul\":11493:11500   */\n      dup5\n        /* \"#utility.yul\":11489:11512   */\n      sub\n        /* \"#utility.yul\":11485:11517   */\n      slt\n        /* \"#utility.yul\":11482:11601   */\n      iszero\n      tag_267\n      jumpi\n        /* \"#utility.yul\":11520:11599   */\n      tag_268\n      tag_112\n      jump\t// in\n    tag_268:\n        /* \"#utility.yul\":11482:11601   */\n    tag_267:\n        /* \"#utility.yul\":11640:11641   */\n      0x00\n        /* \"#utility.yul\":11665:11718   */\n      tag_269\n        /* \"#utility.yul\":11710:11717   */\n      dup5\n        /* \"#utility.yul\":11701:11707   */\n      dup3\n        /* \"#utility.yul\":11690:11699   */\n      dup6\n        /* \"#utility.yul\":11686:11708   */\n      add\n        /* \"#utility.yul\":11665:11718   */\n      tag_128\n      jump\t// in\n    tag_269:\n        /* \"#utility.yul\":11655:11718   */\n      swap2\n      pop\n        /* \"#utility.yul\":11611:11728   */\n      pop\n        /* \"#utility.yul\":11406:11735   */\n      swap3\n      swap2\n      pop\n      pop\n      jump\t// out\n        /* \"#utility.yul\":11741:11859   */\n    tag_130:\n        /* \"#utility.yul\":11828:11852   */\n      tag_271\n        /* \"#utility.yul\":11846:11851   */\n      dup2\n        /* \"#utility.yul\":11828:11852   */\n      tag_105\n      jump\t// in\n    tag_271:\n        /* \"#utility.yul\":11823:11826   */\n      dup3\n        /* \"#utility.yul\":11816:11853   */\n      mstore\n        /* \"#utility.yul\":11741:11859   */\n      pop\n      pop\n      jump\t// out\n        /* \"#utility.yul\":11865:12087   */\n    tag_26:\n        /* \"#utility.yul\":11958:11962   */\n      0x00\n        /* \"#utility.yul\":11996:11998   */\n      0x20\n        /* \"#utility.yul\":11985:11994   */\n      dup3\n        /* \"#utility.yul\":11981:11999   */\n      add\n        /* \"#utility.yul\":11973:11999   */\n      swap1\n      pop\n        /* \"#utility.yul\":12009:12080   */\n      tag_273\n        /* \"#utility.yul\":12077:12078   */\n      0x00\n        /* \"#utility.yul\":12066:12075   */\n      dup4\n        /* \"#utility.yul\":12062:12079   */\n      add\n        /* \"#utility.yul\":12053:12059   */\n      dup5\n        /* \"#utility.yul\":12009:12080   */\n      tag_130\n      jump\t// in\n    tag_273:\n        /* \"#utility.yul\":11865:12087   */\n      swap3\n      swap2\n      pop\n      pop\n      jump\t// out\n        /* \"#utility.yul\":12093:12262   */\n    tag_131:\n        /* \"#utility.yul\":12177:12188   */\n      0x00\n        /* \"#utility.yul\":12211:12217   */\n      dup3\n        /* \"#utility.yul\":12206:12209   */\n      dup3\n        /* \"#utility.yul\":12199:12218   */\n      mstore\n        /* \"#utility.yul\":12251:12255   */\n      0x20\n        /* \"#utility.yul\":12246:12249   */\n      dup3\n        /* \"#utility.yul\":12242:12256   */\n      add\n        /* \"#utility.yul\":12227:12256   */\n      swap1\n      pop\n        /* \"#utility.yul\":12093:12262   */\n      swap3\n      swap2\n      pop\n      pop\n      jump\t// out\n        /* \"#utility.yul\":12268:12500   */\n    tag_132:\n        /* \"#utility.yul\":12408:12442   */\n      0x5573657244617461626173653a206f6e6c7920636f6e74726163742077686963\n        /* \"#utility.yul\":12404:12405   */\n      0x00\n        /* \"#utility.yul\":12396:12402   */\n      dup3\n        /* \"#utility.yul\":12392:12406   */\n      add\n        /* \"#utility.yul\":12385:12443   */\n      mstore\n        /* \"#utility.yul\":12477:12492   */\n      0x682061726520616c6c6f77656400000000000000000000000000000000000000\n        /* \"#utility.yul\":12472:12474   */\n      0x20\n        /* \"#utility.yul\":12464:12470   */\n      dup3\n        /* \"#utility.yul\":12460:12475   */\n      add\n        /* \"#utility.yul\":12453:12493   */\n      mstore\n        /* \"#utility.yul\":12268:12500   */\n      pop\n      jump\t// out\n        /* \"#utility.yul\":12506:12872   */\n    tag_133:\n        /* \"#utility.yul\":12648:12651   */\n      0x00\n        /* \"#utility.yul\":12669:12736   */\n      tag_277\n        /* \"#utility.yul\":12733:12735   */\n      0x2d\n        /* \"#utility.yul\":12728:12731   */\n      dup4\n        /* \"#utility.yul\":12669:12736   */\n      tag_131\n      jump\t// in\n    tag_277:\n        /* \"#utility.yul\":12662:12736   */\n      swap2\n      pop\n        /* \"#utility.yul\":12745:12838   */\n      tag_278\n        /* \"#utility.yul\":12834:12837   */\n      dup3\n        /* \"#utility.yul\":12745:12838   */\n      tag_132\n      jump\t// in\n    tag_278:\n        /* \"#utility.yul\":12863:12865   */\n      0x40\n        /* \"#utility.yul\":12858:12861   */\n      dup3\n        /* \"#utility.yul\":12854:12866   */\n      add\n        /* \"#utility.yul\":12847:12866   */\n      swap1\n      pop\n        /* \"#utility.yul\":12506:12872   */\n      swap2\n      swap1\n      pop\n      jump\t// out\n        /* \"#utility.yul\":12878:13297   */\n    tag_35:\n        /* \"#utility.yul\":13044:13048   */\n      0x00\n        /* \"#utility.yul\":13082:13084   */\n      0x20\n        /* \"#utility.yul\":13071:13080   */\n      dup3\n        /* \"#utility.yul\":13067:13085   */\n      add\n        /* \"#utility.yul\":13059:13085   */\n      swap1\n      pop\n        /* \"#utility.yul\":13131:13140   */\n      dup2\n        /* \"#utility.yul\":13125:13129   */\n      dup2\n        /* \"#utility.yul\":13121:13141   */\n      sub\n        /* \"#utility.yul\":13117:13118   */\n      0x00\n        /* \"#utility.yul\":13106:13115   */\n      dup4\n        /* \"#utility.yul\":13102:13119   */\n      add\n        /* \"#utility.yul\":13095:13142   */\n      mstore\n        /* \"#utility.yul\":13159:13290   */\n      tag_280\n        /* \"#utility.yul\":13285:13289   */\n      dup2\n        /* \"#utility.yul\":13159:13290   */\n      tag_133\n      jump\t// in\n    tag_280:\n        /* \"#utility.yul\":13151:13290   */\n      swap1\n      pop\n        /* \"#utility.yul\":12878:13297   */\n      swap2\n      swap1\n      pop\n      jump\t// out\n        /* \"#utility.yul\":13303:13483   */\n    tag_134:\n        /* \"#utility.yul\":13351:13428   */\n      0x4e487b7100000000000000000000000000000000000000000000000000000000\n        /* \"#utility.yul\":13348:13349   */\n      0x00\n        /* \"#utility.yul\":13341:13429   */\n      mstore\n        /* \"#utility.yul\":13448:13452   */\n      0x22\n        /* \"#utility.yul\":13445:13446   */\n      0x04\n        /* \"#utility.yul\":13438:13453   */\n      mstore\n        /* \"#utility.yul\":13472:13476   */\n      0x24\n        /* \"#utility.yul\":13469:13470   */\n      0x00\n        /* \"#utility.yul\":13462:13477   */\n      revert\n        /* \"#utility.yul\":13489:13809   */\n    tag_41:\n        /* \"#utility.yul\":13533:13539   */\n      0x00\n        /* \"#utility.yul\":13570:13571   */\n      0x02\n        /* \"#utility.yul\":13564:13568   */\n      dup3\n        /* \"#utility.yul\":13560:13572   */\n      div\n        /* \"#utility.yul\":13550:13572   */\n      swap1\n      pop\n        /* \"#utility.yul\":13617:13618   */\n      0x01\n        /* \"#utility.yul\":13611:13615   */\n      dup3\n        /* \"#utility.yul\":13607:13619   */\n      and\n        /* \"#utility.yul\":13638:13656   */\n      dup1\n        /* \"#utility.yul\":13628:13709   */\n      tag_283\n      jumpi\n        /* \"#utility.yul\":13694:13698   */\n      0x7f\n        /* \"#utility.yul\":13686:13692   */\n      dup3\n        /* \"#utility.yul\":13682:13699   */\n      and\n        /* \"#utility.yul\":13672:13699   */\n      swap2\n      pop\n        /* \"#utility.yul\":13628:13709   */\n    tag_283:\n        /* \"#utility.yul\":13756:13758   */\n      0x20\n        /* \"#utility.yul\":13748:13754   */\n      dup3\n        /* \"#utility.yul\":13745:13759   */\n      lt\n        /* \"#utility.yul\":13725:13743   */\n      dup2\n        /* \"#utility.yul\":13722:13760   */\n      sub\n        /* \"#utility.yul\":13719:13803   */\n      tag_284\n      jumpi\n        /* \"#utility.yul\":13775:13793   */\n      tag_285\n      tag_134\n      jump\t// in\n    tag_285:\n        /* \"#utility.yul\":13719:13803   */\n    tag_284:\n        /* \"#utility.yul\":13540:13809   */\n      pop\n        /* \"#utility.yul\":13489:13809   */\n      swap2\n      swap1\n      pop\n      jump\t// out\n        /* \"#utility.yul\":13815:13995   */\n    tag_135:\n        /* \"#utility.yul\":13863:13940   */\n      0x4e487b7100000000000000000000000000000000000000000000000000000000\n        /* \"#utility.yul\":13860:13861   */\n      0x00\n        /* \"#utility.yul\":13853:13941   */\n      mstore\n        /* \"#utility.yul\":13960:13964   */\n      0x11\n        /* \"#utility.yul\":13957:13958   */\n      0x04\n        /* \"#utility.yul\":13950:13965   */\n      mstore\n        /* \"#utility.yul\":13984:13988   */\n      0x24\n        /* \"#utility.yul\":13981:13982   */\n      0x00\n        /* \"#utility.yul\":13974:13989   */\n      revert\n        /* \"#utility.yul\":14001:14234   */\n    tag_62:\n        /* \"#utility.yul\":14040:14043   */\n      0x00\n        /* \"#utility.yul\":14063:14087   */\n      tag_288\n        /* \"#utility.yul\":14081:14086   */\n      dup3\n        /* \"#utility.yul\":14063:14087   */\n      tag_97\n      jump\t// in\n    tag_288:\n        /* \"#utility.yul\":14054:14087   */\n      swap2\n      pop\n        /* \"#utility.yul\":14109:14175   */\n      0xffffffffffffffffffffffffffffffffffffffffffffffffffffffffffffffff\n        /* \"#utility.yul\":14102:14107   */\n      dup3\n        /* \"#utility.yul\":14099:14176   */\n      sub\n        /* \"#utility.yul\":14096:14199   */\n      tag_289\n      jumpi\n        /* \"#utility.yul\":14179:14197   */\n      tag_290\n      tag_135\n      jump\t// in\n    tag_290:\n        /* \"#utility.yul\":14096:14199   */\n    tag_289:\n        /* \"#utility.yul\":14226:14227   */\n      0x01\n        /* \"#utility.yul\":14219:14224   */\n      dup3\n        /* \"#utility.yul\":14215:14228   */\n      add\n        /* \"#utility.yul\":14208:14228   */\n      swap1\n      pop\n        /* \"#utility.yul\":14001:14234   */\n      swap2\n      swap1\n      pop\n      jump\t// out\n        /* \"#utility.yul\":14240:14381   */\n    tag_136:\n        /* \"#utility.yul\":14289:14293   */\n      0x00\n        /* \"#utility.yul\":14312:14315   */\n      dup2\n        /* \"#utility.yul\":14304:14315   */\n      swap1\n      pop\n        /* \"#utility.yul\":14335:14338   */\n      dup2\n        /* \"#utility.yul\":14332:14333   */\n      0x00\n        /* \"#utility.yul\":14325:14339   */\n      mstore\n        /* \"#utility.yul\":14369:14373   */\n      0x20\n        /* \"#utility.yul\":14366:14367   */\n      0x00\n        /* \"#utility.yul\":14356:14374   */\n      keccak256\n        /* \"#utility.yul\":14348:14374   */\n      swap1\n      pop\n        /* \"#utility.yul\":14240:14381   */\n      swap2\n      swap1\n      pop\n      jump\t// out\n        /* \"#utility.yul\":14387:14480   */\n    tag_137:\n        /* \"#utility.yul\":14424:14430   */\n      0x00\n        /* \"#utility.yul\":14471:14473   */\n      0x20\n        /* \"#utility.yul\":14466:14468   */\n      0x1f\n        /* \"#utility.yul\":14459:14464   */\n      dup4\n        /* \"#utility.yul\":14455:14469   */\n      add\n        /* \"#utility.yul\":14451:14474   */\n      div\n        /* \"#utility.yul\":14441:14474   */\n      swap1\n      pop\n        /* \"#utility.yul\":14387:14480   */\n      swap2\n      swap1\n      pop\n      jump\t// out\n        /* \"#utility.yul\":14486:14593   */\n    tag_138:\n        /* \"#utility.yul\":14530:14538   */\n      0x00\n        /* \"#utility.yul\":14580:14585   */\n      dup3\n        /* \"#utility.yul\":14574:14578   */\n      dup3\n        /* \"#utility.yul\":14570:14586   */\n      shl\n        /* \"#utility.yul\":14549:14586   */\n      swap1\n      pop\n        /* \"#utility.yul\":14486:14593   */\n      swap3\n      swap2\n      pop\n      pop\n      jump\t// out\n        /* \"#utility.yul\":14599:14992   */\n    tag_139:\n        /* \"#utility.yul\":14668:14674   */\n      0x00\n        /* \"#utility.yul\":14718:14719   */\n      0x08\n        /* \"#utility.yul\":14706:14716   */\n      dup4\n        /* \"#utility.yul\":14702:14720   */\n      mul\n        /* \"#utility.yul\":14741:14838   */\n      tag_295\n        /* \"#utility.yul\":14771:14837   */\n      0xffffffffffffffffffffffffffffffffffffffffffffffffffffffffffffffff\n        /* \"#utility.yul\":14760:14769   */\n      dup3\n        /* \"#utility.yul\":14741:14838   */\n      tag_138\n      jump\t// in\n    tag_295:\n        /* \"#utility.yul\":14859:14898   */\n      tag_296\n        /* \"#utility.yul\":14889:14897   */\n      dup7\n        /* \"#utility.yul\":14878:14887   */\n      dup4\n        /* \"#utility.yul\":14859:14898   */\n      tag_138\n      jump\t// in\n    tag_296:\n        /* \"#utility.yul\":14847:14898   */\n      swap6\n      pop\n        /* \"#utility.yul\":14931:14935   */\n      dup1\n        /* \"#utility.yul\":14927:14936   */\n      not\n        /* \"#utility.yul\":14920:14925   */\n      dup5\n        /* \"#utility.yul\":14916:14937   */\n      and\n        /* \"#utility.yul\":14907:14937   */\n      swap4\n      pop\n        /* \"#utility.yul\":14980:14984   */\n      dup1\n        /* \"#utility.yul\":14970:14978   */\n      dup7\n        /* \"#utility.yul\":14966:14985   */\n      and\n        /* \"#utility.yul\":14959:14964   */\n      dup5\n        /* \"#utility.yul\":14956:14986   */\n      or\n        /* \"#utility.yul\":14946:14986   */\n      swap3\n      pop\n        /* \"#utility.yul\":14675:14992   */\n      pop\n      pop\n        /* \"#utility.yul\":14599:14992   */\n      swap4\n      swap3\n      pop\n      pop\n      pop\n      jump\t// out\n        /* \"#utility.yul\":14998:15058   */\n    tag_140:\n        /* \"#utility.yul\":15026:15029   */\n      0x00\n        /* \"#utility.yul\":15047:15052   */\n      dup2\n        /* \"#utility.yul\":15040:15052   */\n      swap1\n      pop\n        /* \"#utility.yul\":14998:15058   */\n      swap2\n      swap1\n      pop\n      jump\t// out\n        /* \"#utility.yul\":15064:15206   */\n    tag_141:\n        /* \"#utility.yul\":15114:15123   */\n      0x00\n        /* \"#utility.yul\":15147:15200   */\n      tag_299\n        /* \"#utility.yul\":15165:15199   */\n      tag_300\n        /* \"#utility.yul\":15174:15198   */\n      tag_301\n        /* \"#utility.yul\":15192:15197   */\n      dup5\n        /* \"#utility.yul\":15174:15198   */\n      tag_97\n      jump\t// in\n    tag_301:\n        /* \"#utility.yul\":15165:15199   */\n      tag_140\n      jump\t// in\n    tag_300:\n        /* \"#utility.yul\":15147:15200   */\n      tag_97\n      jump\t// in\n    tag_299:\n        /* \"#utility.yul\":15134:15200   */\n      swap1\n      pop\n        /* \"#utility.yul\":15064:15206   */\n      swap2\n      swap1\n      pop\n      jump\t// out\n        /* \"#utility.yul\":15212:15287   */\n    tag_142:\n        /* \"#utility.yul\":15255:15258   */\n      0x00\n        /* \"#utility.yul\":15276:15281   */\n      dup2\n        /* \"#utility.yul\":15269:15281   */\n      swap1\n      pop\n        /* \"#utility.yul\":15212:15287   */\n      swap2\n      swap1\n      pop\n      jump\t// out\n        /* \"#utility.yul\":15293:15562   */\n    tag_143:\n        /* \"#utility.yul\":15403:15442   */\n      tag_304\n        /* \"#utility.yul\":15434:15441   */\n      dup4\n        /* \"#utility.yul\":15403:15442   */\n      tag_141\n      jump\t// in\n    tag_304:\n        /* \"#utility.yul\":15464:15555   */\n      tag_305\n        /* \"#utility.yul\":15513:15554   */\n      tag_306\n        /* \"#utility.yul\":15537:15553   */\n      dup3\n        /* \"#utility.yul\":15513:15554   */\n      tag_142\n      jump\t// in\n    tag_306:\n        /* \"#utility.yul\":15505:15511   */\n      dup5\n        /* \"#utility.yul\":15498:15502   */\n      dup5\n        /* \"#utility.yul\":15492:15503   */\n      sload\n        /* \"#utility.yul\":15464:15555   */\n      tag_139\n      jump\t// in\n    tag_305:\n        /* \"#utility.yul\":15458:15462   */\n      dup3\n        /* \"#utility.yul\":15451:15556   */\n      sstore\n        /* \"#utility.yul\":15369:15562   */\n      pop\n        /* \"#utility.yul\":15293:15562   */\n      pop\n      pop\n      pop\n      jump\t// out\n        /* \"#utility.yul\":15568:15641   */\n    tag_144:\n        /* \"#utility.yul\":15613:15616   */\n      0x00\n        /* \"#utility.yul\":15568:15641   */\n      swap1\n      jump\t// out\n        /* \"#utility.yul\":15647:15836   */\n    tag_145:\n        /* \"#utility.yul\":15724:15756   */\n      tag_309\n      tag_144\n      jump\t// in\n    tag_309:\n        /* \"#utility.yul\":15765:15830   */\n      tag_310\n        /* \"#utility.yul\":15823:15829   */\n      dup2\n        /* \"#utility.yul\":15815:15821   */\n      dup5\n        /* \"#utility.yul\":15809:15813   */\n      dup5\n        /* \"#utility.yul\":15765:15830   */\n      tag_143\n      jump\t// in\n    tag_310:\n        /* \"#utility.yul\":15700:15836   */\n      pop\n        /* \"#utility.yul\":15647:15836   */\n      pop\n      pop\n      jump\t// out\n        /* \"#utility.yul\":15842:16028   */\n    tag_146:\n        /* \"#utility.yul\":15902:16022   */\n    tag_312:\n        /* \"#utility.yul\":15919:15922   */\n      dup2\n        /* \"#utility.yul\":15912:15917   */\n      dup2\n        /* \"#utility.yul\":15909:15923   */\n      lt\n        /* \"#utility.yul\":15902:16022   */\n      iszero\n      tag_314\n      jumpi\n        /* \"#utility.yul\":15973:16012   */\n      tag_315\n        /* \"#utility.yul\":16010:16011   */\n      0x00\n        /* \"#utility.yul\":16003:16008   */\n      dup3\n        /* \"#utility.yul\":15973:16012   */\n      tag_145\n      jump\t// in\n    tag_315:\n        /* \"#utility.yul\":15946:15947   */\n      0x01\n        /* \"#utility.yul\":15939:15944   */\n      dup2\n        /* \"#utility.yul\":15935:15948   */\n      add\n        /* \"#utility.yul\":15926:15948   */\n      swap1\n      pop\n        /* \"#utility.yul\":15902:16022   */\n      jump(tag_312)\n    tag_314:\n        /* \"#utility.yul\":15842:16028   */\n      pop\n      pop\n      jump\t// out\n        /* \"#utility.yul\":16034:16577   */\n    tag_147:\n        /* \"#utility.yul\":16135:16137   */\n      0x1f\n        /* \"#utility.yul\":16130:16133   */\n      dup3\n        /* \"#utility.yul\":16127:16138   */\n      gt\n        /* \"#utility.yul\":16124:16570   */\n      iszero\n      tag_317\n      jumpi\n        /* \"#utility.yul\":16169:16207   */\n      tag_318\n        /* \"#utility.yul\":16201:16206   */\n      dup2\n        /* \"#utility.yul\":16169:16207   */\n      tag_136\n      jump\t// in\n    tag_318:\n        /* \"#utility.yul\":16253:16282   */\n      tag_319\n        /* \"#utility.yul\":16271:16281   */\n      dup5\n        /* \"#utility.yul\":16253:16282   */\n      tag_137\n      jump\t// in\n    tag_319:\n        /* \"#utility.yul\":16243:16251   */\n      dup2\n        /* \"#utility.yul\":16239:16283   */\n      add\n        /* \"#utility.yul\":16436:16438   */\n      0x20\n        /* \"#utility.yul\":16424:16434   */\n      dup6\n        /* \"#utility.yul\":16421:16439   */\n      lt\n        /* \"#utility.yul\":16418:16467   */\n      iszero\n      tag_320\n      jumpi\n        /* \"#utility.yul\":16457:16465   */\n      dup2\n        /* \"#utility.yul\":16442:16465   */\n      swap1\n      pop\n        /* \"#utility.yul\":16418:16467   */\n    tag_320:\n        /* \"#utility.yul\":16480:16560   */\n      tag_321\n        /* \"#utility.yul\":16536:16558   */\n      tag_322\n        /* \"#utility.yul\":16554:16557   */\n      dup6\n        /* \"#utility.yul\":16536:16558   */\n      tag_137\n      jump\t// in\n    tag_322:\n        /* \"#utility.yul\":16526:16534   */\n      dup4\n        /* \"#utility.yul\":16522:16559   */\n      add\n        /* \"#utility.yul\":16509:16520   */\n      dup3\n        /* \"#utility.yul\":16480:16560   */\n      tag_146\n      jump\t// in\n    tag_321:\n        /* \"#utility.yul\":16139:16570   */\n      pop\n      pop\n        /* \"#utility.yul\":16124:16570   */\n    tag_317:\n        /* \"#utility.yul\":16034:16577   */\n      pop\n      pop\n      pop\n      jump\t// out\n        /* \"#utility.yul\":16583:16700   */\n    tag_148:\n        /* \"#utility.yul\":16637:16645   */\n      0x00\n        /* \"#utility.yul\":16687:16692   */\n      dup3\n        /* \"#utility.yul\":16681:16685   */\n      dup3\n        /* \"#utility.yul\":16677:16693   */\n      shr\n        /* \"#utility.yul\":16656:16693   */\n      swap1\n      pop\n        /* \"#utility.yul\":16583:16700   */\n      swap3\n      swap2\n      pop\n      pop\n      jump\t// out\n        /* \"#utility.yul\":16706:16875   */\n    tag_149:\n        /* \"#utility.yul\":16750:16756   */\n      0x00\n        /* \"#utility.yul\":16783:16834   */\n      tag_325\n        /* \"#utility.yul\":16831:16832   */\n      0x00\n        /* \"#utility.yul\":16827:16833   */\n      not\n        /* \"#utility.yul\":16819:16824   */\n      dup5\n        /* \"#utility.yul\":16816:16817   */\n      0x08\n        /* \"#utility.yul\":16812:16825   */\n      mul\n        /* \"#utility.yul\":16783:16834   */\n      tag_148\n      jump\t// in\n    tag_325:\n        /* \"#utility.yul\":16779:16835   */\n      not\n        /* \"#utility.yul\":16864:16868   */\n      dup1\n        /* \"#utility.yul\":16858:16862   */\n      dup4\n        /* \"#utility.yul\":16854:16869   */\n      and\n        /* \"#utility.yul\":16844:16869   */\n      swap2\n      pop\n        /* \"#utility.yul\":16757:16875   */\n      pop\n        /* \"#utility.yul\":16706:16875   */\n      swap3\n      swap2\n      pop\n      pop\n      jump\t// out\n        /* \"#utility.yul\":16880:17175   */\n    tag_150:\n        /* \"#utility.yul\":16956:16960   */\n      0x00\n        /* \"#utility.yul\":17102:17131   */\n      tag_327\n        /* \"#utility.yul\":17127:17130   */\n      dup4\n        /* \"#utility.yul\":17121:17125   */\n      dup4\n        /* \"#utility.yul\":17102:17131   */\n      tag_149\n      jump\t// in\n    tag_327:\n        /* \"#utility.yul\":17094:17131   */\n      swap2\n      pop\n        /* \"#utility.yul\":17164:17167   */\n      dup3\n        /* \"#utility.yul\":17161:17162   */\n      0x02\n        /* \"#utility.yul\":17157:17168   */\n      mul\n        /* \"#utility.yul\":17151:17155   */\n      dup3\n        /* \"#utility.yul\":17148:17169   */\n      or\n        /* \"#utility.yul\":17140:17169   */\n      swap1\n      pop\n        /* \"#utility.yul\":16880:17175   */\n      swap3\n      swap2\n      pop\n      pop\n      jump\t// out\n        /* \"#utility.yul\":17180:18575   */\n    tag_65:\n        /* \"#utility.yul\":17297:17334   */\n      tag_329\n        /* \"#utility.yul\":17330:17333   */\n      dup3\n        /* \"#utility.yul\":17297:17334   */\n      tag_99\n      jump\t// in\n    tag_329:\n        /* \"#utility.yul\":17399:17417   */\n      0xffffffffffffffff\n        /* \"#utility.yul\":17391:17397   */\n      dup2\n        /* \"#utility.yul\":17388:17418   */\n      gt\n        /* \"#utility.yul\":17385:17441   */\n      iszero\n      tag_330\n      jumpi\n        /* \"#utility.yul\":17421:17439   */\n      tag_331\n      tag_115\n      jump\t// in\n    tag_331:\n        /* \"#utility.yul\":17385:17441   */\n    tag_330:\n        /* \"#utility.yul\":17465:17503   */\n      tag_332\n        /* \"#utility.yul\":17497:17501   */\n      dup3\n        /* \"#utility.yul\":17491:17502   */\n      sload\n        /* \"#utility.yul\":17465:17503   */\n      tag_41\n      jump\t// in\n    tag_332:\n        /* \"#utility.yul\":17550:17617   */\n      tag_333\n        /* \"#utility.yul\":17610:17616   */\n      dup3\n        /* \"#utility.yul\":17602:17608   */\n      dup3\n        /* \"#utility.yul\":17596:17600   */\n      dup6\n        /* \"#utility.yul\":17550:17617   */\n      tag_147\n      jump\t// in\n    tag_333:\n        /* \"#utility.yul\":17644:17645   */\n      0x00\n        /* \"#utility.yul\":17668:17672   */\n      0x20\n        /* \"#utility.yul\":17655:17672   */\n      swap1\n      pop\n        /* \"#utility.yul\":17700:17702   */\n      0x1f\n        /* \"#utility.yul\":17692:17698   */\n      dup4\n        /* \"#utility.yul\":17689:17703   */\n      gt\n        /* \"#utility.yul\":17717:17718   */\n      0x01\n        /* \"#utility.yul\":17712:18330   */\n      dup2\n      eq\n      tag_335\n      jumpi\n        /* \"#utility.yul\":18374:18375   */\n      0x00\n        /* \"#utility.yul\":18391:18397   */\n      dup5\n        /* \"#utility.yul\":18388:18465   */\n      iszero\n      tag_336\n      jumpi\n        /* \"#utility.yul\":18440:18449   */\n      dup3\n        /* \"#utility.yul\":18435:18438   */\n      dup8\n        /* \"#utility.yul\":18431:18450   */\n      add\n        /* \"#utility.yul\":18425:18451   */\n      mload\n        /* \"#utility.yul\":18416:18451   */\n      swap1\n      pop\n        /* \"#utility.yul\":18388:18465   */\n    tag_336:\n        /* \"#utility.yul\":18491:18558   */\n      tag_337\n        /* \"#utility.yul\":18551:18557   */\n      dup6\n        /* \"#utility.yul\":18544:18549   */\n      dup3\n        /* \"#utility.yul\":18491:18558   */\n      tag_150\n      jump\t// in\n    tag_337:\n        /* \"#utility.yul\":18485:18489   */\n      dup7\n        /* \"#utility.yul\":18478:18559   */\n      sstore\n        /* \"#utility.yul\":18347:18569   */\n      pop\n        /* \"#utility.yul\":17682:18569   */\n      jump(tag_334)\n        /* \"#utility.yul\":17712:18330   */\n    tag_335:\n        /* \"#utility.yul\":17764:17768   */\n      0x1f\n        /* \"#utility.yul\":17760:17769   */\n      not\n        /* \"#utility.yul\":17752:17758   */\n      dup5\n        /* \"#utility.yul\":17748:17770   */\n      and\n        /* \"#utility.yul\":17798:17835   */\n      tag_338\n        /* \"#utility.yul\":17830:17834   */\n      dup7\n        /* \"#utility.yul\":17798:17835   */\n      tag_136\n      jump\t// in\n    tag_338:\n        /* \"#utility.yul\":17857:17858   */\n      0x00\n        /* \"#utility.yul\":17871:18079   */\n    tag_339:\n        /* \"#utility.yul\":17885:17892   */\n      dup3\n        /* \"#utility.yul\":17882:17883   */\n      dup2\n        /* \"#utility.yul\":17879:17893   */\n      lt\n        /* \"#utility.yul\":17871:18079   */\n      iszero\n      tag_341\n      jumpi\n        /* \"#utility.yul\":17964:17973   */\n      dup5\n        /* \"#utility.yul\":17959:17962   */\n      dup10\n        /* \"#utility.yul\":17955:17974   */\n      add\n        /* \"#utility.yul\":17949:17975   */\n      mload\n        /* \"#utility.yul\":17941:17947   */\n      dup3\n        /* \"#utility.yul\":17934:17976   */\n      sstore\n        /* \"#utility.yul\":18015:18016   */\n      0x01\n        /* \"#utility.yul\":18007:18013   */\n      dup3\n        /* \"#utility.yul\":18003:18017   */\n      add\n        /* \"#utility.yul\":17993:18017   */\n      swap2\n      pop\n        /* \"#utility.yul\":18062:18064   */\n      0x20\n        /* \"#utility.yul\":18051:18060   */\n      dup6\n        /* \"#utility.yul\":18047:18065   */\n      add\n        /* \"#utility.yul\":18034:18065   */\n      swap5\n      pop\n        /* \"#utility.yul\":17908:17912   */\n      0x20\n        /* \"#utility.yul\":17905:17906   */\n      dup2\n        /* \"#utility.yul\":17901:17913   */\n      add\n        /* \"#utility.yul\":17896:17913   */\n      swap1\n      pop\n        /* \"#utility.yul\":17871:18079   */\n      jump(tag_339)\n    tag_341:\n        /* \"#utility.yul\":18107:18113   */\n      dup7\n        /* \"#utility.yul\":18098:18105   */\n      dup4\n        /* \"#utility.yul\":18095:18114   */\n      lt\n        /* \"#utility.yul\":18092:18271   */\n      iszero\n      tag_342\n      jumpi\n        /* \"#utility.yul\":18165:18174   */\n      dup5\n        /* \"#utility.yul\":18160:18163   */\n      dup10\n        /* \"#utility.yul\":18156:18175   */\n      add\n        /* \"#utility.yul\":18150:18176   */\n      mload\n        /* \"#utility.yul\":18208:18256   */\n      tag_343\n        /* \"#utility.yul\":18250:18254   */\n      0x1f\n        /* \"#utility.yul\":18242:18248   */\n      dup10\n        /* \"#utility.yul\":18238:18255   */\n      and\n        /* \"#utility.yul\":18227:18236   */\n      dup3\n        /* \"#utility.yul\":18208:18256   */\n      tag_149\n      jump\t// in\n    tag_343:\n        /* \"#utility.yul\":18200:18206   */\n      dup4\n        /* \"#utility.yul\":18193:18257   */\n      sstore\n        /* \"#utility.yul\":18115:18271   */\n      pop\n        /* \"#utility.yul\":18092:18271   */\n    tag_342:\n        /* \"#utility.yul\":18317:18318   */\n      0x01\n        /* \"#utility.yul\":18313:18314   */\n      0x02\n        /* \"#utility.yul\":18305:18311   */\n      dup9\n        /* \"#utility.yul\":18301:18315   */\n      mul\n        /* \"#utility.yul\":18297:18319   */\n      add\n        /* \"#utility.yul\":18291:18295   */\n      dup9\n        /* \"#utility.yul\":18284:18320   */\n      sstore\n        /* \"#utility.yul\":17719:18330   */\n      pop\n      pop\n      pop\n        /* \"#utility.yul\":17682:18569   */\n    tag_334:\n      pop\n        /* \"#utility.yul\":17272:18575   */\n      pop\n      pop\n      pop\n        /* \"#utility.yul\":17180:18575   */\n      pop\n      pop\n      jump\t// out\n        /* \"#utility.yul\":18581:18809   */\n    tag_151:\n        /* \"#utility.yul\":18721:18755   */\n      0x5573657244617461626173653a207065726d697373696f6e2068617320626565\n        /* \"#utility.yul\":18717:18718   */\n      0x00\n        /* \"#utility.yul\":18709:18715   */\n      dup3\n        /* \"#utility.yul\":18705:18719   */\n      add\n        /* \"#utility.yul\":18698:18756   */\n      mstore\n        /* \"#utility.yul\":18790:18801   */\n      0x6e206772616e7465640000000000000000000000000000000000000000000000\n        /* \"#utility.yul\":18785:18787   */\n      0x20\n        /* \"#utility.yul\":18777:18783   */\n      dup3\n        /* \"#utility.yul\":18773:18788   */\n      add\n        /* \"#utility.yul\":18766:18802   */\n      mstore\n        /* \"#utility.yul\":18581:18809   */\n      pop\n      jump\t// out\n        /* \"#utility.yul\":18815:19181   */\n    tag_152:\n        /* \"#utility.yul\":18957:18960   */\n      0x00\n        /* \"#utility.yul\":18978:19045   */\n      tag_346\n        /* \"#utility.yul\":19042:19044   */\n      0x29\n        /* \"#utility.yul\":19037:19040   */\n      dup4\n        /* \"#utility.yul\":18978:19045   */\n      tag_131\n      jump\t// in\n    tag_346:\n        /* \"#utility.yul\":18971:19045   */\n      swap2\n      pop\n        /* \"#utility.yul\":19054:19147   */\n      tag_347\n        /* \"#utility.yul\":19143:19146   */\n      dup3\n        /* \"#utility.yul\":19054:19147   */\n      tag_151\n      jump\t// in\n    tag_347:\n        /* \"#utility.yul\":19172:19174   */\n      0x40\n        /* \"#utility.yul\":19167:19170   */\n      dup3\n        /* \"#utility.yul\":19163:19175   */\n      add\n        /* \"#utility.yul\":19156:19175   */\n      swap1\n      pop\n        /* \"#utility.yul\":18815:19181   */\n      swap2\n      swap1\n      pop\n      jump\t// out\n        /* \"#utility.yul\":19187:19606   */\n    tag_74:\n        /* \"#utility.yul\":19353:19357   */\n      0x00\n        /* \"#utility.yul\":19391:19393   */\n      0x20\n        /* \"#utility.yul\":19380:19389   */\n      dup3\n        /* \"#utility.yul\":19376:19394   */\n      add\n        /* \"#utility.yul\":19368:19394   */\n      swap1\n      pop\n        /* \"#utility.yul\":19440:19449   */\n      dup2\n        /* \"#utility.yul\":19434:19438   */\n      dup2\n        /* \"#utility.yul\":19430:19450   */\n      sub\n        /* \"#utility.yul\":19426:19427   */\n      0x00\n        /* \"#utility.yul\":19415:19424   */\n      dup4\n        /* \"#utility.yul\":19411:19428   */\n      add\n        /* \"#utility.yul\":19404:19451   */\n      mstore\n        /* \"#utility.yul\":19468:19599   */\n      tag_349\n        /* \"#utility.yul\":19594:19598   */\n      dup2\n        /* \"#utility.yul\":19468:19599   */\n      tag_152\n      jump\t// in\n    tag_349:\n        /* \"#utility.yul\":19460:19599   */\n      swap1\n      pop\n        /* \"#utility.yul\":19187:19606   */\n      swap2\n      swap1\n      pop\n      jump\t// out\n        /* \"#utility.yul\":19612:19837   */\n    tag_153:\n        /* \"#utility.yul\":19752:19786   */\n      0x4f776e61626c653a206e6577206f776e657220697320746865207a65726f2061\n        /* \"#utility.yul\":19748:19749   */\n      0x00\n        /* \"#utility.yul\":19740:19746   */\n      dup3\n        /* \"#utility.yul\":19736:19750   */\n      add\n        /* \"#utility.yul\":19729:19787   */\n      mstore\n        /* \"#utility.yul\":19821:19829   */\n      0x6464726573730000000000000000000000000000000000000000000000000000\n        /* \"#utility.yul\":19816:19818   */\n      0x20\n        /* \"#utility.yul\":19808:19814   */\n      dup3\n        /* \"#utility.yul\":19804:19819   */\n      add\n        /* \"#utility.yul\":19797:19830   */\n      mstore\n        /* \"#utility.yul\":19612:19837   */\n      pop\n      jump\t// out\n        /* \"#utility.yul\":19843:20209   */\n    tag_154:\n        /* \"#utility.yul\":19985:19988   */\n      0x00\n        /* \"#utility.yul\":20006:20073   */\n      tag_352\n        /* \"#utility.yul\":20070:20072   */\n      0x26\n        /* \"#utility.yul\":20065:20068   */\n      dup4\n        /* \"#utility.yul\":20006:20073   */\n      tag_131\n      jump\t// in\n    tag_352:\n        /* \"#utility.yul\":19999:20073   */\n      swap2\n      pop\n        /* \"#utility.yul\":20082:20175   */\n      tag_353\n        /* \"#utility.yul\":20171:20174   */\n      dup3\n        /* \"#utility.yul\":20082:20175   */\n      tag_153\n      jump\t// in\n    tag_353:\n        /* \"#utility.yul\":20200:20202   */\n      0x40\n        /* \"#utility.yul\":20195:20198   */\n      dup3\n        /* \"#utility.yul\":20191:20203   */\n      add\n        /* \"#utility.yul\":20184:20203   */\n      swap1\n      pop\n        /* \"#utility.yul\":19843:20209   */\n      swap2\n      swap1\n      pop\n      jump\t// out\n        /* \"#utility.yul\":20215:20634   */\n    tag_84:\n        /* \"#utility.yul\":20381:20385   */\n      0x00\n        /* \"#utility.yul\":20419:20421   */\n      0x20\n        /* \"#utility.yul\":20408:20417   */\n      dup3\n        /* \"#utility.yul\":20404:20422   */\n      add\n        /* \"#utility.yul\":20396:20422   */\n      swap1\n      pop\n        /* \"#utility.yul\":20468:20477   */\n      dup2\n        /* \"#utility.yul\":20462:20466   */\n      dup2\n        /* \"#utility.yul\":20458:20478   */\n      sub\n        /* \"#utility.yul\":20454:20455   */\n      0x00\n        /* \"#utility.yul\":20443:20452   */\n      dup4\n        /* \"#utility.yul\":20439:20456   */\n      add\n        /* \"#utility.yul\":20432:20479   */\n      mstore\n        /* \"#utility.yul\":20496:20627   */\n      tag_355\n        /* \"#utility.yul\":20622:20626   */\n      dup2\n        /* \"#utility.yul\":20496:20627   */\n      tag_154\n      jump\t// in\n    tag_355:\n        /* \"#utility.yul\":20488:20627   */\n      swap1\n      pop\n        /* \"#utility.yul\":20215:20634   */\n      swap2\n      swap1\n      pop\n      jump\t// out\n        /* \"#utility.yul\":20640:20822   */\n    tag_155:\n        /* \"#utility.yul\":20780:20814   */\n      0x4f776e61626c653a2063616c6c6572206973206e6f7420746865206f776e6572\n        /* \"#utility.yul\":20776:20777   */\n      0x00\n        /* \"#utility.yul\":20768:20774   */\n      dup3\n        /* \"#utility.yul\":20764:20778   */\n      add\n        /* \"#utility.yul\":20757:20815   */\n      mstore\n        /* \"#utility.yul\":20640:20822   */\n      pop\n      jump\t// out\n        /* \"#utility.yul\":20828:21194   */\n    tag_156:\n        /* \"#utility.yul\":20970:20973   */\n      0x00\n        /* \"#utility.yul\":20991:21058   */\n      tag_358\n        /* \"#utility.yul\":21055:21057   */\n      0x20\n        /* \"#utility.yul\":21050:21053   */\n      dup4\n        /* \"#utility.yul\":20991:21058   */\n      tag_131\n      jump\t// in\n    tag_358:\n        /* \"#utility.yul\":20984:21058   */\n      swap2\n      pop\n        /* \"#utility.yul\":21067:21160   */\n      tag_359\n        /* \"#utility.yul\":21156:21159   */\n      dup3\n        /* \"#utility.yul\":21067:21160   */\n      tag_155\n      jump\t// in\n    tag_359:\n        /* \"#utility.yul\":21185:21187   */\n      0x20\n        /* \"#utility.yul\":21180:21183   */\n      dup3\n        /* \"#utility.yul\":21176:21188   */\n      add\n        /* \"#utility.yul\":21169:21188   */\n      swap1\n      pop\n        /* \"#utility.yul\":20828:21194   */\n      swap2\n      swap1\n      pop\n      jump\t// out\n        /* \"#utility.yul\":21200:21619   */\n    tag_92:\n        /* \"#utility.yul\":21366:21370   */\n      0x00\n        /* \"#utility.yul\":21404:21406   */\n      0x20\n        /* \"#utility.yul\":21393:21402   */\n      dup3\n        /* \"#utility.yul\":21389:21407   */\n      add\n        /* \"#utility.yul\":21381:21407   */\n      swap1\n      pop\n        /* \"#utility.yul\":21453:21462   */\n      dup2\n        /* \"#utility.yul\":21447:21451   */\n      dup2\n        /* \"#utility.yul\":21443:21463   */\n      sub\n        /* \"#utility.yul\":21439:21440   */\n      0x00\n        /* \"#utility.yul\":21428:21437   */\n      dup4\n        /* \"#utility.yul\":21424:21441   */\n      add\n        /* \"#utility.yul\":21417:21464   */\n      mstore\n        /* \"#utility.yul\":21481:21612   */\n      tag_361\n        /* \"#utility.yul\":21607:21611   */\n      dup2\n        /* \"#utility.yul\":21481:21612   */\n      tag_156\n      jump\t// in\n    tag_361:\n        /* \"#utility.yul\":21473:21612   */\n      swap1\n      pop\n        /* \"#utility.yul\":21200:21619   */\n      swap2\n      swap1\n      pop\n      jump\t// out\n\n    auxdata: 0xa264697066735822122062c3eb4350d160fac267b98bed4e3480d8375742abfa52f78ee59690c30bd1d164736f6c63430008120033\n}\n",
				"bytecode": {
					"linkReferences": {},
					"object": "6080604052600060025534801561001557600080fd5b50336000806101000a81548173ffffffffffffffffffffffffffffffffffffffff021916908373ffffffffffffffffffffffffffffffffffffffff160217905550611437806100656000396000f3fe608060405234801561001057600080fd5b50600436106100625760003560e01c806347531df81461006757806348bf4635146100855780634d0a5dbd146100a157806383197ef0146100bd5780638da5cb5b146100c7578063f2fde38b146100e5575b600080fd5b61006f610101565b60405161007c9190610b04565b60405180910390f35b61009f600480360381019061009a9190610dd9565b61041d565b005b6100bb60048036038101906100b69190610e22565b6105ae565b005b6100c561069e565b005b6100cf6106bf565b6040516100dc9190610e5e565b60405180910390f35b6100ff60048036038101906100fa9190610e22565b6106e8565b005b60606003600061010f61076b565b73ffffffffffffffffffffffffffffffffffffffff1673ffffffffffffffffffffffffffffffffffffffff16815260200190815260200160002060009054906101000a900460ff16610196576040517f08c379a000000000000000000000000000000000000000000000000000000000815260040161018d90610efc565b60405180910390fd5b6001805480602002602001604051908101604052809291908181526020016000905b8282101561041457838290600052602060002090600702016040518060e0016040529081600082015481526020016001820180546101f590610f4b565b80601f016020809104026020016040519081016040528092919081815260200182805461022190610f4b565b801561026e5780601f106102435761010080835404028352916020019161026e565b820191906000526020600020905b81548152906001019060200180831161025157829003601f168201915b505050505081526020016002820154815260200160038201805461029190610f4b565b80601f01602080910402602001604051908101604052809291908181526020018280546102bd90610f4b565b801561030a5780601f106102df5761010080835404028352916020019161030a565b820191906000526020600020905b8154815290600101906020018083116102ed57829003601f168201915b5050505050815260200160048201805461032390610f4b565b80601f016020809104026020016040519081016040528092919081815260200182805461034f90610f4b565b801561039c5780601f106103715761010080835404028352916020019161039c565b820191906000526020600020905b81548152906001019060200180831161037f57829003601f168201915b505050505081526020016005820160009054906101000a900473ffffffffffffffffffffffffffffffffffffffff1673ffffffffffffffffffffffffffffffffffffffff1673ffffffffffffffffffffffffffffffffffffffff168152602001600682015481525050815260200190600101906101b8565b50505050905090565b6003600061042961076b565b73ffffffffffffffffffffffffffffffffffffffff1673ffffffffffffffffffffffffffffffffffffffff16815260200190815260200160002060009054906101000a900460ff166104b0576040517f08c379a00000000000000000000000000000000000000000000000000000000081526004016104a790610efc565b60405180910390fd5b6000600260008154809291906104c590610fab565b919050559050808260000181815250506001829080600181540180825580915050600190039060005260206000209060070201600090919091909150600082015181600001556020820151816001019081610520919061119f565b50604082015181600201556060820151816003019081610540919061119f565b506080820151816004019081610556919061119f565b5060a08201518160050160006101000a81548173ffffffffffffffffffffffffffffffffffffffff021916908373ffffffffffffffffffffffffffffffffffffffff16021790555060c0820151816006015550505050565b6105b6610773565b600360008273ffffffffffffffffffffffffffffffffffffffff1673ffffffffffffffffffffffffffffffffffffffff16815260200190815260200160002060009054906101000a900460ff1615610643576040517f08c379a000000000000000000000000000000000000000000000000000000000815260040161063a906112e3565b60405180910390fd5b6001600360008373ffffffffffffffffffffffffffffffffffffffff1673ffffffffffffffffffffffffffffffffffffffff16815260200190815260200160002060006101000a81548160ff02191690831515021790555050565b6106a6610773565b3073ffffffffffffffffffffffffffffffffffffffff16ff5b60008060009054906101000a900473ffffffffffffffffffffffffffffffffffffffff16905090565b6106f0610773565b600073ffffffffffffffffffffffffffffffffffffffff168173ffffffffffffffffffffffffffffffffffffffff160361075f576040517f08c379a000000000000000000000000000000000000000000000000000000000815260040161075690611375565b60405180910390fd5b610768816107ea565b50565b600033905090565b3373ffffffffffffffffffffffffffffffffffffffff166107926106bf565b73ffffffffffffffffffffffffffffffffffffffff16146107e8576040517f08c379a00000000000000000000000000000000000000000000000000000000081526004016107df906113e1565b60405180910390fd5b565b60008060009054906101000a900473ffffffffffffffffffffffffffffffffffffffff169050816000806101000a81548173ffffffffffffffffffffffffffffffffffffffff021916908373ffffffffffffffffffffffffffffffffffffffff1602179055508173ffffffffffffffffffffffffffffffffffffffff168173ffffffffffffffffffffffffffffffffffffffff167f8be0079c531659141344cd1fd0a4f28419497f9722a3daafe3b4186f6b6457e060405160405180910390a35050565b600081519050919050565b600082825260208201905092915050565b6000819050602082019050919050565b6000819050919050565b6108ed816108da565b82525050565b600081519050919050565b600082825260208201905092915050565b60005b8381101561092d578082015181840152602081019050610912565b60008484015250505050565b6000601f19601f8301169050919050565b6000610955826108f3565b61095f81856108fe565b935061096f81856020860161090f565b61097881610939565b840191505092915050565b600073ffffffffffffffffffffffffffffffffffffffff82169050919050565b60006109ae82610983565b9050919050565b6109be816109a3565b82525050565b600060e0830160008301516109dc60008601826108e4565b50602083015184820360208601526109f4828261094a565b9150506040830151610a0960408601826108e4565b5060608301518482036060860152610a21828261094a565b91505060808301518482036080860152610a3b828261094a565b91505060a0830151610a5060a08601826109b5565b5060c0830151610a6360c08601826108e4565b508091505092915050565b6000610a7a83836109c4565b905092915050565b6000602082019050919050565b6000610a9a826108ae565b610aa481856108b9565b935083602082028501610ab6856108ca565b8060005b85811015610af25784840389528151610ad38582610a6e565b9450610ade83610a82565b925060208a01995050600181019050610aba565b50829750879550505050505092915050565b60006020820190508181036000830152610b1e8184610a8f565b905092915050565b6000604051905090565b600080fd5b600080fd5b600080fd5b7f4e487b7100000000000000000000000000000000000000000000000000000000600052604160045260246000fd5b610b7782610939565b810181811067ffffffffffffffff82111715610b9657610b95610b3f565b5b80604052505050565b6000610ba9610b26565b9050610bb58282610b6e565b919050565b600080fd5b610bc8816108da565b8114610bd357600080fd5b50565b600081359050610be581610bbf565b92915050565b600080fd5b600080fd5b600067ffffffffffffffff821115610c1057610c0f610b3f565b5b610c1982610939565b9050602081019050919050565b82818337600083830152505050565b6000610c48610c4384610bf5565b610b9f565b905082815260208101848484011115610c6457610c63610bf0565b5b610c6f848285610c26565b509392505050565b600082601f830112610c8c57610c8b610beb565b5b8135610c9c848260208601610c35565b91505092915050565b610cae816109a3565b8114610cb957600080fd5b50565b600081359050610ccb81610ca5565b92915050565b600060e08284031215610ce757610ce6610b3a565b5b610cf160e0610b9f565b90506000610d0184828501610bd6565b600083015250602082013567ffffffffffffffff811115610d2557610d24610bba565b5b610d3184828501610c77565b6020830152506040610d4584828501610bd6565b604083015250606082013567ffffffffffffffff811115610d6957610d68610bba565b5b610d7584828501610c77565b606083015250608082013567ffffffffffffffff811115610d9957610d98610bba565b5b610da584828501610c77565b60808301525060a0610db984828501610cbc565b60a08301525060c0610dcd84828501610bd6565b60c08301525092915050565b600060208284031215610def57610dee610b30565b5b600082013567ffffffffffffffff811115610e0d57610e0c610b35565b5b610e1984828501610cd1565b91505092915050565b600060208284031215610e3857610e37610b30565b5b6000610e4684828501610cbc565b91505092915050565b610e58816109a3565b82525050565b6000602082019050610e736000830184610e4f565b92915050565b600082825260208201905092915050565b7f5573657244617461626173653a206f6e6c7920636f6e7472616374207768696360008201527f682061726520616c6c6f77656400000000000000000000000000000000000000602082015250565b6000610ee6602d83610e79565b9150610ef182610e8a565b604082019050919050565b60006020820190508181036000830152610f1581610ed9565b9050919050565b7f4e487b7100000000000000000000000000000000000000000000000000000000600052602260045260246000fd5b60006002820490506001821680610f6357607f821691505b602082108103610f7657610f75610f1c565b5b50919050565b7f4e487b7100000000000000000000000000000000000000000000000000000000600052601160045260246000fd5b6000610fb6826108da565b91507fffffffffffffffffffffffffffffffffffffffffffffffffffffffffffffffff8203610fe857610fe7610f7c565b5b600182019050919050565b60008190508160005260206000209050919050565b60006020601f8301049050919050565b600082821b905092915050565b6000600883026110557fffffffffffffffffffffffffffffffffffffffffffffffffffffffffffffffff82611018565b61105f8683611018565b95508019841693508086168417925050509392505050565b6000819050919050565b600061109c611097611092846108da565b611077565b6108da565b9050919050565b6000819050919050565b6110b683611081565b6110ca6110c2826110a3565b848454611025565b825550505050565b600090565b6110df6110d2565b6110ea8184846110ad565b505050565b5b8181101561110e576111036000826110d7565b6001810190506110f0565b5050565b601f8211156111535761112481610ff3565b61112d84611008565b8101602085101561113c578190505b61115061114885611008565b8301826110ef565b50505b505050565b600082821c905092915050565b600061117660001984600802611158565b1980831691505092915050565b600061118f8383611165565b9150826002028217905092915050565b6111a8826108f3565b67ffffffffffffffff8111156111c1576111c0610b3f565b5b6111cb8254610f4b565b6111d6828285611112565b600060209050601f83116001811461120957600084156111f7578287015190505b6112018582611183565b865550611269565b601f19841661121786610ff3565b60005b8281101561123f5784890151825560018201915060208501945060208101905061121a565b8683101561125c5784890151611258601f891682611165565b8355505b6001600288020188555050505b505050505050565b7f5573657244617461626173653a207065726d697373696f6e206861732062656560008201527f6e206772616e7465640000000000000000000000000000000000000000000000602082015250565b60006112cd602983610e79565b91506112d882611271565b604082019050919050565b600060208201905081810360008301526112fc816112c0565b9050919050565b7f4f776e61626c653a206e6577206f776e657220697320746865207a65726f206160008201527f6464726573730000000000000000000000000000000000000000000000000000602082015250565b600061135f602683610e79565b915061136a82611303565b604082019050919050565b6000602082019050818103600083015261138e81611352565b9050919050565b7f4f776e61626c653a2063616c6c6572206973206e6f7420746865206f776e6572600082015250565b60006113cb602083610e79565b91506113d682611395565b602082019050919050565b600060208201905081810360008301526113fa816113be565b905091905056fea264697066735822122062c3eb4350d160fac267b98bed4e3480d8375742abfa52f78ee59690c30bd1d164736f6c63430008120033",
					"opcodes": "PUSH1 0x80 PUSH1 0x40 MSTORE PUSH1 0x0 PUSH1 0x2 SSTORE CALLVALUE DUP1 ISZERO PUSH2 0x15 JUMPI PUSH1 0x0 DUP1 REVERT JUMPDEST POP CALLER PUSH1 0x0 DUP1 PUSH2 0x100 EXP DUP2 SLOAD DUP2 PUSH20 0xFFFFFFFFFFFFFFFFFFFFFFFFFFFFFFFFFFFFFFFF MUL NOT AND SWAP1 DUP4 PUSH20 0xFFFFFFFFFFFFFFFFFFFFFFFFFFFFFFFFFFFFFFFF AND MUL OR SWAP1 SSTORE POP PUSH2 0x1437 DUP1 PUSH2 0x65 PUSH1 0x0 CODECOPY PUSH1 0x0 RETURN INVALID PUSH1 0x80 PUSH1 0x40 MSTORE CALLVALUE DUP1 ISZERO PUSH2 0x10 JUMPI PUSH1 0x0 DUP1 REVERT JUMPDEST POP PUSH1 0x4 CALLDATASIZE LT PUSH2 0x62 JUMPI PUSH1 0x0 CALLDATALOAD PUSH1 0xE0 SHR DUP1 PUSH4 0x47531DF8 EQ PUSH2 0x67 JUMPI DUP1 PUSH4 0x48BF4635 EQ PUSH2 0x85 JUMPI DUP1 PUSH4 0x4D0A5DBD EQ PUSH2 0xA1 JUMPI DUP1 PUSH4 0x83197EF0 EQ PUSH2 0xBD JUMPI DUP1 PUSH4 0x8DA5CB5B EQ PUSH2 0xC7 JUMPI DUP1 PUSH4 0xF2FDE38B EQ PUSH2 0xE5 JUMPI JUMPDEST PUSH1 0x0 DUP1 REVERT JUMPDEST PUSH2 0x6F PUSH2 0x101 JUMP JUMPDEST PUSH1 0x40 MLOAD PUSH2 0x7C SWAP2 SWAP1 PUSH2 0xB04 JUMP JUMPDEST PUSH1 0x40 MLOAD DUP1 SWAP2 SUB SWAP1 RETURN JUMPDEST PUSH2 0x9F PUSH1 0x4 DUP1 CALLDATASIZE SUB DUP2 ADD SWAP1 PUSH2 0x9A SWAP2 SWAP1 PUSH2 0xDD9 JUMP JUMPDEST PUSH2 0x41D JUMP JUMPDEST STOP JUMPDEST PUSH2 0xBB PUSH1 0x4 DUP1 CALLDATASIZE SUB DUP2 ADD SWAP1 PUSH2 0xB6 SWAP2 SWAP1 PUSH2 0xE22 JUMP JUMPDEST PUSH2 0x5AE JUMP JUMPDEST STOP JUMPDEST PUSH2 0xC5 PUSH2 0x69E JUMP JUMPDEST STOP JUMPDEST PUSH2 0xCF PUSH2 0x6BF JUMP JUMPDEST PUSH1 0x40 MLOAD PUSH2 0xDC SWAP2 SWAP1 PUSH2 0xE5E JUMP JUMPDEST PUSH1 0x40 MLOAD DUP1 SWAP2 SUB SWAP1 RETURN JUMPDEST PUSH2 0xFF PUSH1 0x4 DUP1 CALLDATASIZE SUB DUP2 ADD SWAP1 PUSH2 0xFA SWAP2 SWAP1 PUSH2 0xE22 JUMP JUMPDEST PUSH2 0x6E8 JUMP JUMPDEST STOP JUMPDEST PUSH1 0x60 PUSH1 0x3 PUSH1 0x0 PUSH2 0x10F PUSH2 0x76B JUMP JUMPDEST PUSH20 0xFFFFFFFFFFFFFFFFFFFFFFFFFFFFFFFFFFFFFFFF AND PUSH20 0xFFFFFFFFFFFFFFFFFFFFFFFFFFFFFFFFFFFFFFFF AND DUP2 MSTORE PUSH1 0x20 ADD SWAP1 DUP2 MSTORE PUSH1 0x20 ADD PUSH1 0x0 KECCAK256 PUSH1 0x0 SWAP1 SLOAD SWAP1 PUSH2 0x100 EXP SWAP1 DIV PUSH1 0xFF AND PUSH2 0x196 JUMPI PUSH1 0x40 MLOAD PUSH32 0x8C379A000000000000000000000000000000000000000000000000000000000 DUP2 MSTORE PUSH1 0x4 ADD PUSH2 0x18D SWAP1 PUSH2 0xEFC JUMP JUMPDEST PUSH1 0x40 MLOAD DUP1 SWAP2 SUB SWAP1 REVERT JUMPDEST PUSH1 0x1 DUP1 SLOAD DUP1 PUSH1 0x20 MUL PUSH1 0x20 ADD PUSH1 0x40 MLOAD SWAP1 DUP2 ADD PUSH1 0x40 MSTORE DUP1 SWAP3 SWAP2 SWAP1 DUP2 DUP2 MSTORE PUSH1 0x20 ADD PUSH1 0x0 SWAP1 JUMPDEST DUP3 DUP3 LT ISZERO PUSH2 0x414 JUMPI DUP4 DUP3 SWAP1 PUSH1 0x0 MSTORE PUSH1 0x20 PUSH1 0x0 KECCAK256 SWAP1 PUSH1 0x7 MUL ADD PUSH1 0x40 MLOAD DUP1 PUSH1 0xE0 ADD PUSH1 0x40 MSTORE SWAP1 DUP2 PUSH1 0x0 DUP3 ADD SLOAD DUP2 MSTORE PUSH1 0x20 ADD PUSH1 0x1 DUP3 ADD DUP1 SLOAD PUSH2 0x1F5 SWAP1 PUSH2 0xF4B JUMP JUMPDEST DUP1 PUSH1 0x1F ADD PUSH1 0x20 DUP1 SWAP2 DIV MUL PUSH1 0x20 ADD PUSH1 0x40 MLOAD SWAP1 DUP2 ADD PUSH1 0x40 MSTORE DUP1 SWAP3 SWAP2 SWAP1 DUP2 DUP2 MSTORE PUSH1 0x20 ADD DUP3 DUP1 SLOAD PUSH2 0x221 SWAP1 PUSH2 0xF4B JUMP JUMPDEST DUP1 ISZERO PUSH2 0x26E JUMPI DUP1 PUSH1 0x1F LT PUSH2 0x243 JUMPI PUSH2 0x100 DUP1 DUP4 SLOAD DIV MUL DUP4 MSTORE SWAP2 PUSH1 0x20 ADD SWAP2 PUSH2 0x26E JUMP JUMPDEST DUP3 ADD SWAP2 SWAP1 PUSH1 0x0 MSTORE PUSH1 0x20 PUSH1 0x0 KECCAK256 SWAP1 JUMPDEST DUP2 SLOAD DUP2 MSTORE SWAP1 PUSH1 0x1 ADD SWAP1 PUSH1 0x20 ADD DUP1 DUP4 GT PUSH2 0x251 JUMPI DUP3 SWAP1 SUB PUSH1 0x1F AND DUP3 ADD SWAP2 JUMPDEST POP POP POP POP POP DUP2 MSTORE PUSH1 0x20 ADD PUSH1 0x2 DUP3 ADD SLOAD DUP2 MSTORE PUSH1 0x20 ADD PUSH1 0x3 DUP3 ADD DUP1 SLOAD PUSH2 0x291 SWAP1 PUSH2 0xF4B JUMP JUMPDEST DUP1 PUSH1 0x1F ADD PUSH1 0x20 DUP1 SWAP2 DIV MUL PUSH1 0x20 ADD PUSH1 0x40 MLOAD SWAP1 DUP2 ADD PUSH1 0x40 MSTORE DUP1 SWAP3 SWAP2 SWAP1 DUP2 DUP2 MSTORE PUSH1 0x20 ADD DUP3 DUP1 SLOAD PUSH2 0x2BD SWAP1 PUSH2 0xF4B JUMP JUMPDEST DUP1 ISZERO PUSH2 0x30A JUMPI DUP1 PUSH1 0x1F LT PUSH2 0x2DF JUMPI PUSH2 0x100 DUP1 DUP4 SLOAD DIV MUL DUP4 MSTORE SWAP2 PUSH1 0x20 ADD SWAP2 PUSH2 0x30A JUMP JUMPDEST DUP3 ADD SWAP2 SWAP1 PUSH1 0x0 MSTORE PUSH1 0x20 PUSH1 0x0 KECCAK256 SWAP1 JUMPDEST DUP2 SLOAD DUP2 MSTORE SWAP1 PUSH1 0x1 ADD SWAP1 PUSH1 0x20 ADD DUP1 DUP4 GT PUSH2 0x2ED JUMPI DUP3 SWAP1 SUB PUSH1 0x1F AND DUP3 ADD SWAP2 JUMPDEST POP POP POP POP POP DUP2 MSTORE PUSH1 0x20 ADD PUSH1 0x4 DUP3 ADD DUP1 SLOAD PUSH2 0x323 SWAP1 PUSH2 0xF4B JUMP JUMPDEST DUP1 PUSH1 0x1F ADD PUSH1 0x20 DUP1 SWAP2 DIV MUL PUSH1 0x20 ADD PUSH1 0x40 MLOAD SWAP1 DUP2 ADD PUSH1 0x40 MSTORE DUP1 SWAP3 SWAP2 SWAP1 DUP2 DUP2 MSTORE PUSH1 0x20 ADD DUP3 DUP1 SLOAD PUSH2 0x34F SWAP1 PUSH2 0xF4B JUMP JUMPDEST DUP1 ISZERO PUSH2 0x39C JUMPI DUP1 PUSH1 0x1F LT PUSH2 0x371 JUMPI PUSH2 0x100 DUP1 DUP4 SLOAD DIV MUL DUP4 MSTORE SWAP2 PUSH1 0x20 ADD SWAP2 PUSH2 0x39C JUMP JUMPDEST DUP3 ADD SWAP2 SWAP1 PUSH1 0x0 MSTORE PUSH1 0x20 PUSH1 0x0 KECCAK256 SWAP1 JUMPDEST DUP2 SLOAD DUP2 MSTORE SWAP1 PUSH1 0x1 ADD SWAP1 PUSH1 0x20 ADD DUP1 DUP4 GT PUSH2 0x37F JUMPI DUP3 SWAP1 SUB PUSH1 0x1F AND DUP3 ADD SWAP2 JUMPDEST POP POP POP POP POP DUP2 MSTORE PUSH1 0x20 ADD PUSH1 0x5 DUP3 ADD PUSH1 0x0 SWAP1 SLOAD SWAP1 PUSH2 0x100 EXP SWAP1 DIV PUSH20 0xFFFFFFFFFFFFFFFFFFFFFFFFFFFFFFFFFFFFFFFF AND PUSH20 0xFFFFFFFFFFFFFFFFFFFFFFFFFFFFFFFFFFFFFFFF AND PUSH20 0xFFFFFFFFFFFFFFFFFFFFFFFFFFFFFFFFFFFFFFFF AND DUP2 MSTORE PUSH1 0x20 ADD PUSH1 0x6 DUP3 ADD SLOAD DUP2 MSTORE POP POP DUP2 MSTORE PUSH1 0x20 ADD SWAP1 PUSH1 0x1 ADD SWAP1 PUSH2 0x1B8 JUMP JUMPDEST POP POP POP POP SWAP1 POP SWAP1 JUMP JUMPDEST PUSH1 0x3 PUSH1 0x0 PUSH2 0x429 PUSH2 0x76B JUMP JUMPDEST PUSH20 0xFFFFFFFFFFFFFFFFFFFFFFFFFFFFFFFFFFFFFFFF AND PUSH20 0xFFFFFFFFFFFFFFFFFFFFFFFFFFFFFFFFFFFFFFFF AND DUP2 MSTORE PUSH1 0x20 ADD SWAP1 DUP2 MSTORE PUSH1 0x20 ADD PUSH1 0x0 KECCAK256 PUSH1 0x0 SWAP1 SLOAD SWAP1 PUSH2 0x100 EXP SWAP1 DIV PUSH1 0xFF AND PUSH2 0x4B0 JUMPI PUSH1 0x40 MLOAD PUSH32 0x8C379A000000000000000000000000000000000000000000000000000000000 DUP2 MSTORE PUSH1 0x4 ADD PUSH2 0x4A7 SWAP1 PUSH2 0xEFC JUMP JUMPDEST PUSH1 0x40 MLOAD DUP1 SWAP2 SUB SWAP1 REVERT JUMPDEST PUSH1 0x0 PUSH1 0x2 PUSH1 0x0 DUP2 SLOAD DUP1 SWAP3 SWAP2 SWAP1 PUSH2 0x4C5 SWAP1 PUSH2 0xFAB JUMP JUMPDEST SWAP2 SWAP1 POP SSTORE SWAP1 POP DUP1 DUP3 PUSH1 0x0 ADD DUP2 DUP2 MSTORE POP POP PUSH1 0x1 DUP3 SWAP1 DUP1 PUSH1 0x1 DUP2 SLOAD ADD DUP1 DUP3 SSTORE DUP1 SWAP2 POP POP PUSH1 0x1 SWAP1 SUB SWAP1 PUSH1 0x0 MSTORE PUSH1 0x20 PUSH1 0x0 KECCAK256 SWAP1 PUSH1 0x7 MUL ADD PUSH1 0x0 SWAP1 SWAP2 SWAP1 SWAP2 SWAP1 SWAP2 POP PUSH1 0x0 DUP3 ADD MLOAD DUP2 PUSH1 0x0 ADD SSTORE PUSH1 0x20 DUP3 ADD MLOAD DUP2 PUSH1 0x1 ADD SWAP1 DUP2 PUSH2 0x520 SWAP2 SWAP1 PUSH2 0x119F JUMP JUMPDEST POP PUSH1 0x40 DUP3 ADD MLOAD DUP2 PUSH1 0x2 ADD SSTORE PUSH1 0x60 DUP3 ADD MLOAD DUP2 PUSH1 0x3 ADD SWAP1 DUP2 PUSH2 0x540 SWAP2 SWAP1 PUSH2 0x119F JUMP JUMPDEST POP PUSH1 0x80 DUP3 ADD MLOAD DUP2 PUSH1 0x4 ADD SWAP1 DUP2 PUSH2 0x556 SWAP2 SWAP1 PUSH2 0x119F JUMP JUMPDEST POP PUSH1 0xA0 DUP3 ADD MLOAD DUP2 PUSH1 0x5 ADD PUSH1 0x0 PUSH2 0x100 EXP DUP2 SLOAD DUP2 PUSH20 0xFFFFFFFFFFFFFFFFFFFFFFFFFFFFFFFFFFFFFFFF MUL NOT AND SWAP1 DUP4 PUSH20 0xFFFFFFFFFFFFFFFFFFFFFFFFFFFFFFFFFFFFFFFF AND MUL OR SWAP1 SSTORE POP PUSH1 0xC0 DUP3 ADD MLOAD DUP2 PUSH1 0x6 ADD SSTORE POP POP POP POP JUMP JUMPDEST PUSH2 0x5B6 PUSH2 0x773 JUMP JUMPDEST PUSH1 0x3 PUSH1 0x0 DUP3 PUSH20 0xFFFFFFFFFFFFFFFFFFFFFFFFFFFFFFFFFFFFFFFF AND PUSH20 0xFFFFFFFFFFFFFFFFFFFFFFFFFFFFFFFFFFFFFFFF AND DUP2 MSTORE PUSH1 0x20 ADD SWAP1 DUP2 MSTORE PUSH1 0x20 ADD PUSH1 0x0 KECCAK256 PUSH1 0x0 SWAP1 SLOAD SWAP1 PUSH2 0x100 EXP SWAP1 DIV PUSH1 0xFF AND ISZERO PUSH2 0x643 JUMPI PUSH1 0x40 MLOAD PUSH32 0x8C379A000000000000000000000000000000000000000000000000000000000 DUP2 MSTORE PUSH1 0x4 ADD PUSH2 0x63A SWAP1 PUSH2 0x12E3 JUMP JUMPDEST PUSH1 0x40 MLOAD DUP1 SWAP2 SUB SWAP1 REVERT JUMPDEST PUSH1 0x1 PUSH1 0x3 PUSH1 0x0 DUP4 PUSH20 0xFFFFFFFFFFFFFFFFFFFFFFFFFFFFFFFFFFFFFFFF AND PUSH20 0xFFFFFFFFFFFFFFFFFFFFFFFFFFFFFFFFFFFFFFFF AND DUP2 MSTORE PUSH1 0x20 ADD SWAP1 DUP2 MSTORE PUSH1 0x20 ADD PUSH1 0x0 KECCAK256 PUSH1 0x0 PUSH2 0x100 EXP DUP2 SLOAD DUP2 PUSH1 0xFF MUL NOT AND SWAP1 DUP4 ISZERO ISZERO MUL OR SWAP1 SSTORE POP POP JUMP JUMPDEST PUSH2 0x6A6 PUSH2 0x773 JUMP JUMPDEST ADDRESS PUSH20 0xFFFFFFFFFFFFFFFFFFFFFFFFFFFFFFFFFFFFFFFF AND SELFDESTRUCT JUMPDEST PUSH1 0x0 DUP1 PUSH1 0x0 SWAP1 SLOAD SWAP1 PUSH2 0x100 EXP SWAP1 DIV PUSH20 0xFFFFFFFFFFFFFFFFFFFFFFFFFFFFFFFFFFFFFFFF AND SWAP1 POP SWAP1 JUMP JUMPDEST PUSH2 0x6F0 PUSH2 0x773 JUMP JUMPDEST PUSH1 0x0 PUSH20 0xFFFFFFFFFFFFFFFFFFFFFFFFFFFFFFFFFFFFFFFF AND DUP2 PUSH20 0xFFFFFFFFFFFFFFFFFFFFFFFFFFFFFFFFFFFFFFFF AND SUB PUSH2 0x75F JUMPI PUSH1 0x40 MLOAD PUSH32 0x8C379A000000000000000000000000000000000000000000000000000000000 DUP2 MSTORE PUSH1 0x4 ADD PUSH2 0x756 SWAP1 PUSH2 0x1375 JUMP JUMPDEST PUSH1 0x40 MLOAD DUP1 SWAP2 SUB SWAP1 REVERT JUMPDEST PUSH2 0x768 DUP2 PUSH2 0x7EA JUMP JUMPDEST POP JUMP JUMPDEST PUSH1 0x0 CALLER SWAP1 POP SWAP1 JUMP JUMPDEST CALLER PUSH20 0xFFFFFFFFFFFFFFFFFFFFFFFFFFFFFFFFFFFFFFFF AND PUSH2 0x792 PUSH2 0x6BF JUMP JUMPDEST PUSH20 0xFFFFFFFFFFFFFFFFFFFFFFFFFFFFFFFFFFFFFFFF AND EQ PUSH2 0x7E8 JUMPI PUSH1 0x40 MLOAD PUSH32 0x8C379A000000000000000000000000000000000000000000000000000000000 DUP2 MSTORE PUSH1 0x4 ADD PUSH2 0x7DF SWAP1 PUSH2 0x13E1 JUMP JUMPDEST PUSH1 0x40 MLOAD DUP1 SWAP2 SUB SWAP1 REVERT JUMPDEST JUMP JUMPDEST PUSH1 0x0 DUP1 PUSH1 0x0 SWAP1 SLOAD SWAP1 PUSH2 0x100 EXP SWAP1 DIV PUSH20 0xFFFFFFFFFFFFFFFFFFFFFFFFFFFFFFFFFFFFFFFF AND SWAP1 POP DUP2 PUSH1 0x0 DUP1 PUSH2 0x100 EXP DUP2 SLOAD DUP2 PUSH20 0xFFFFFFFFFFFFFFFFFFFFFFFFFFFFFFFFFFFFFFFF MUL NOT AND SWAP1 DUP4 PUSH20 0xFFFFFFFFFFFFFFFFFFFFFFFFFFFFFFFFFFFFFFFF AND MUL OR SWAP1 SSTORE POP DUP2 PUSH20 0xFFFFFFFFFFFFFFFFFFFFFFFFFFFFFFFFFFFFFFFF AND DUP2 PUSH20 0xFFFFFFFFFFFFFFFFFFFFFFFFFFFFFFFFFFFFFFFF AND PUSH32 0x8BE0079C531659141344CD1FD0A4F28419497F9722A3DAAFE3B4186F6B6457E0 PUSH1 0x40 MLOAD PUSH1 0x40 MLOAD DUP1 SWAP2 SUB SWAP1 LOG3 POP POP JUMP JUMPDEST PUSH1 0x0 DUP2 MLOAD SWAP1 POP SWAP2 SWAP1 POP JUMP JUMPDEST PUSH1 0x0 DUP3 DUP3 MSTORE PUSH1 0x20 DUP3 ADD SWAP1 POP SWAP3 SWAP2 POP POP JUMP JUMPDEST PUSH1 0x0 DUP2 SWAP1 POP PUSH1 0x20 DUP3 ADD SWAP1 POP SWAP2 SWAP1 POP JUMP JUMPDEST PUSH1 0x0 DUP2 SWAP1 POP SWAP2 SWAP1 POP JUMP JUMPDEST PUSH2 0x8ED DUP2 PUSH2 0x8DA JUMP JUMPDEST DUP3 MSTORE POP POP JUMP JUMPDEST PUSH1 0x0 DUP2 MLOAD SWAP1 POP SWAP2 SWAP1 POP JUMP JUMPDEST PUSH1 0x0 DUP3 DUP3 MSTORE PUSH1 0x20 DUP3 ADD SWAP1 POP SWAP3 SWAP2 POP POP JUMP JUMPDEST PUSH1 0x0 JUMPDEST DUP4 DUP2 LT ISZERO PUSH2 0x92D JUMPI DUP1 DUP3 ADD MLOAD DUP2 DUP5 ADD MSTORE PUSH1 0x20 DUP2 ADD SWAP1 POP PUSH2 0x912 JUMP JUMPDEST PUSH1 0x0 DUP5 DUP5 ADD MSTORE POP POP POP POP JUMP JUMPDEST PUSH1 0x0 PUSH1 0x1F NOT PUSH1 0x1F DUP4 ADD AND SWAP1 POP SWAP2 SWAP1 POP JUMP JUMPDEST PUSH1 0x0 PUSH2 0x955 DUP3 PUSH2 0x8F3 JUMP JUMPDEST PUSH2 0x95F DUP2 DUP6 PUSH2 0x8FE JUMP JUMPDEST SWAP4 POP PUSH2 0x96F DUP2 DUP6 PUSH1 0x20 DUP7 ADD PUSH2 0x90F JUMP JUMPDEST PUSH2 0x978 DUP2 PUSH2 0x939 JUMP JUMPDEST DUP5 ADD SWAP2 POP POP SWAP3 SWAP2 POP POP JUMP JUMPDEST PUSH1 0x0 PUSH20 0xFFFFFFFFFFFFFFFFFFFFFFFFFFFFFFFFFFFFFFFF DUP3 AND SWAP1 POP SWAP2 SWAP1 POP JUMP JUMPDEST PUSH1 0x0 PUSH2 0x9AE DUP3 PUSH2 0x983 JUMP JUMPDEST SWAP1 POP SWAP2 SWAP1 POP JUMP JUMPDEST PUSH2 0x9BE DUP2 PUSH2 0x9A3 JUMP JUMPDEST DUP3 MSTORE POP POP JUMP JUMPDEST PUSH1 0x0 PUSH1 0xE0 DUP4 ADD PUSH1 0x0 DUP4 ADD MLOAD PUSH2 0x9DC PUSH1 0x0 DUP7 ADD DUP3 PUSH2 0x8E4 JUMP JUMPDEST POP PUSH1 0x20 DUP4 ADD MLOAD DUP5 DUP3 SUB PUSH1 0x20 DUP7 ADD MSTORE PUSH2 0x9F4 DUP3 DUP3 PUSH2 0x94A JUMP JUMPDEST SWAP2 POP POP PUSH1 0x40 DUP4 ADD MLOAD PUSH2 0xA09 PUSH1 0x40 DUP7 ADD DUP3 PUSH2 0x8E4 JUMP JUMPDEST POP PUSH1 0x60 DUP4 ADD MLOAD DUP5 DUP3 SUB PUSH1 0x60 DUP7 ADD MSTORE PUSH2 0xA21 DUP3 DUP3 PUSH2 0x94A JUMP JUMPDEST SWAP2 POP POP PUSH1 0x80 DUP4 ADD MLOAD DUP5 DUP3 SUB PUSH1 0x80 DUP7 ADD MSTORE PUSH2 0xA3B DUP3 DUP3 PUSH2 0x94A JUMP JUMPDEST SWAP2 POP POP PUSH1 0xA0 DUP4 ADD MLOAD PUSH2 0xA50 PUSH1 0xA0 DUP7 ADD DUP3 PUSH2 0x9B5 JUMP JUMPDEST POP PUSH1 0xC0 DUP4 ADD MLOAD PUSH2 0xA63 PUSH1 0xC0 DUP7 ADD DUP3 PUSH2 0x8E4 JUMP JUMPDEST POP DUP1 SWAP2 POP POP SWAP3 SWAP2 POP POP JUMP JUMPDEST PUSH1 0x0 PUSH2 0xA7A DUP4 DUP4 PUSH2 0x9C4 JUMP JUMPDEST SWAP1 POP SWAP3 SWAP2 POP POP JUMP JUMPDEST PUSH1 0x0 PUSH1 0x20 DUP3 ADD SWAP1 POP SWAP2 SWAP1 POP JUMP JUMPDEST PUSH1 0x0 PUSH2 0xA9A DUP3 PUSH2 0x8AE JUMP JUMPDEST PUSH2 0xAA4 DUP2 DUP6 PUSH2 0x8B9 JUMP JUMPDEST SWAP4 POP DUP4 PUSH1 0x20 DUP3 MUL DUP6 ADD PUSH2 0xAB6 DUP6 PUSH2 0x8CA JUMP JUMPDEST DUP1 PUSH1 0x0 JUMPDEST DUP6 DUP2 LT ISZERO PUSH2 0xAF2 JUMPI DUP5 DUP5 SUB DUP10 MSTORE DUP2 MLOAD PUSH2 0xAD3 DUP6 DUP3 PUSH2 0xA6E JUMP JUMPDEST SWAP5 POP PUSH2 0xADE DUP4 PUSH2 0xA82 JUMP JUMPDEST SWAP3 POP PUSH1 0x20 DUP11 ADD SWAP10 POP POP PUSH1 0x1 DUP2 ADD SWAP1 POP PUSH2 0xABA JUMP JUMPDEST POP DUP3 SWAP8 POP DUP8 SWAP6 POP POP POP POP POP POP SWAP3 SWAP2 POP POP JUMP JUMPDEST PUSH1 0x0 PUSH1 0x20 DUP3 ADD SWAP1 POP DUP2 DUP2 SUB PUSH1 0x0 DUP4 ADD MSTORE PUSH2 0xB1E DUP2 DUP5 PUSH2 0xA8F JUMP JUMPDEST SWAP1 POP SWAP3 SWAP2 POP POP JUMP JUMPDEST PUSH1 0x0 PUSH1 0x40 MLOAD SWAP1 POP SWAP1 JUMP JUMPDEST PUSH1 0x0 DUP1 REVERT JUMPDEST PUSH1 0x0 DUP1 REVERT JUMPDEST PUSH1 0x0 DUP1 REVERT JUMPDEST PUSH32 0x4E487B7100000000000000000000000000000000000000000000000000000000 PUSH1 0x0 MSTORE PUSH1 0x41 PUSH1 0x4 MSTORE PUSH1 0x24 PUSH1 0x0 REVERT JUMPDEST PUSH2 0xB77 DUP3 PUSH2 0x939 JUMP JUMPDEST DUP2 ADD DUP2 DUP2 LT PUSH8 0xFFFFFFFFFFFFFFFF DUP3 GT OR ISZERO PUSH2 0xB96 JUMPI PUSH2 0xB95 PUSH2 0xB3F JUMP JUMPDEST JUMPDEST DUP1 PUSH1 0x40 MSTORE POP POP POP JUMP JUMPDEST PUSH1 0x0 PUSH2 0xBA9 PUSH2 0xB26 JUMP JUMPDEST SWAP1 POP PUSH2 0xBB5 DUP3 DUP3 PUSH2 0xB6E JUMP JUMPDEST SWAP2 SWAP1 POP JUMP JUMPDEST PUSH1 0x0 DUP1 REVERT JUMPDEST PUSH2 0xBC8 DUP2 PUSH2 0x8DA JUMP JUMPDEST DUP2 EQ PUSH2 0xBD3 JUMPI PUSH1 0x0 DUP1 REVERT JUMPDEST POP JUMP JUMPDEST PUSH1 0x0 DUP2 CALLDATALOAD SWAP1 POP PUSH2 0xBE5 DUP2 PUSH2 0xBBF JUMP JUMPDEST SWAP3 SWAP2 POP POP JUMP JUMPDEST PUSH1 0x0 DUP1 REVERT JUMPDEST PUSH1 0x0 DUP1 REVERT JUMPDEST PUSH1 0x0 PUSH8 0xFFFFFFFFFFFFFFFF DUP3 GT ISZERO PUSH2 0xC10 JUMPI PUSH2 0xC0F PUSH2 0xB3F JUMP JUMPDEST JUMPDEST PUSH2 0xC19 DUP3 PUSH2 0x939 JUMP JUMPDEST SWAP1 POP PUSH1 0x20 DUP2 ADD SWAP1 POP SWAP2 SWAP1 POP JUMP JUMPDEST DUP3 DUP2 DUP4 CALLDATACOPY PUSH1 0x0 DUP4 DUP4 ADD MSTORE POP POP POP JUMP JUMPDEST PUSH1 0x0 PUSH2 0xC48 PUSH2 0xC43 DUP5 PUSH2 0xBF5 JUMP JUMPDEST PUSH2 0xB9F JUMP JUMPDEST SWAP1 POP DUP3 DUP2 MSTORE PUSH1 0x20 DUP2 ADD DUP5 DUP5 DUP5 ADD GT ISZERO PUSH2 0xC64 JUMPI PUSH2 0xC63 PUSH2 0xBF0 JUMP JUMPDEST JUMPDEST PUSH2 0xC6F DUP5 DUP3 DUP6 PUSH2 0xC26 JUMP JUMPDEST POP SWAP4 SWAP3 POP POP POP JUMP JUMPDEST PUSH1 0x0 DUP3 PUSH1 0x1F DUP4 ADD SLT PUSH2 0xC8C JUMPI PUSH2 0xC8B PUSH2 0xBEB JUMP JUMPDEST JUMPDEST DUP2 CALLDATALOAD PUSH2 0xC9C DUP5 DUP3 PUSH1 0x20 DUP7 ADD PUSH2 0xC35 JUMP JUMPDEST SWAP2 POP POP SWAP3 SWAP2 POP POP JUMP JUMPDEST PUSH2 0xCAE DUP2 PUSH2 0x9A3 JUMP JUMPDEST DUP2 EQ PUSH2 0xCB9 JUMPI PUSH1 0x0 DUP1 REVERT JUMPDEST POP JUMP JUMPDEST PUSH1 0x0 DUP2 CALLDATALOAD SWAP1 POP PUSH2 0xCCB DUP2 PUSH2 0xCA5 JUMP JUMPDEST SWAP3 SWAP2 POP POP JUMP JUMPDEST PUSH1 0x0 PUSH1 0xE0 DUP3 DUP5 SUB SLT ISZERO PUSH2 0xCE7 JUMPI PUSH2 0xCE6 PUSH2 0xB3A JUMP JUMPDEST JUMPDEST PUSH2 0xCF1 PUSH1 0xE0 PUSH2 0xB9F JUMP JUMPDEST SWAP1 POP PUSH1 0x0 PUSH2 0xD01 DUP5 DUP3 DUP6 ADD PUSH2 0xBD6 JUMP JUMPDEST PUSH1 0x0 DUP4 ADD MSTORE POP PUSH1 0x20 DUP3 ADD CALLDATALOAD PUSH8 0xFFFFFFFFFFFFFFFF DUP2 GT ISZERO PUSH2 0xD25 JUMPI PUSH2 0xD24 PUSH2 0xBBA JUMP JUMPDEST JUMPDEST PUSH2 0xD31 DUP5 DUP3 DUP6 ADD PUSH2 0xC77 JUMP JUMPDEST PUSH1 0x20 DUP4 ADD MSTORE POP PUSH1 0x40 PUSH2 0xD45 DUP5 DUP3 DUP6 ADD PUSH2 0xBD6 JUMP JUMPDEST PUSH1 0x40 DUP4 ADD MSTORE POP PUSH1 0x60 DUP3 ADD CALLDATALOAD PUSH8 0xFFFFFFFFFFFFFFFF DUP2 GT ISZERO PUSH2 0xD69 JUMPI PUSH2 0xD68 PUSH2 0xBBA JUMP JUMPDEST JUMPDEST PUSH2 0xD75 DUP5 DUP3 DUP6 ADD PUSH2 0xC77 JUMP JUMPDEST PUSH1 0x60 DUP4 ADD MSTORE POP PUSH1 0x80 DUP3 ADD CALLDATALOAD PUSH8 0xFFFFFFFFFFFFFFFF DUP2 GT ISZERO PUSH2 0xD99 JUMPI PUSH2 0xD98 PUSH2 0xBBA JUMP JUMPDEST JUMPDEST PUSH2 0xDA5 DUP5 DUP3 DUP6 ADD PUSH2 0xC77 JUMP JUMPDEST PUSH1 0x80 DUP4 ADD MSTORE POP PUSH1 0xA0 PUSH2 0xDB9 DUP5 DUP3 DUP6 ADD PUSH2 0xCBC JUMP JUMPDEST PUSH1 0xA0 DUP4 ADD MSTORE POP PUSH1 0xC0 PUSH2 0xDCD DUP5 DUP3 DUP6 ADD PUSH2 0xBD6 JUMP JUMPDEST PUSH1 0xC0 DUP4 ADD MSTORE POP SWAP3 SWAP2 POP POP JUMP JUMPDEST PUSH1 0x0 PUSH1 0x20 DUP3 DUP5 SUB SLT ISZERO PUSH2 0xDEF JUMPI PUSH2 0xDEE PUSH2 0xB30 JUMP JUMPDEST JUMPDEST PUSH1 0x0 DUP3 ADD CALLDATALOAD PUSH8 0xFFFFFFFFFFFFFFFF DUP2 GT ISZERO PUSH2 0xE0D JUMPI PUSH2 0xE0C PUSH2 0xB35 JUMP JUMPDEST JUMPDEST PUSH2 0xE19 DUP5 DUP3 DUP6 ADD PUSH2 0xCD1 JUMP JUMPDEST SWAP2 POP POP SWAP3 SWAP2 POP POP JUMP JUMPDEST PUSH1 0x0 PUSH1 0x20 DUP3 DUP5 SUB SLT ISZERO PUSH2 0xE38 JUMPI PUSH2 0xE37 PUSH2 0xB30 JUMP JUMPDEST JUMPDEST PUSH1 0x0 PUSH2 0xE46 DUP5 DUP3 DUP6 ADD PUSH2 0xCBC JUMP JUMPDEST SWAP2 POP POP SWAP3 SWAP2 POP POP JUMP JUMPDEST PUSH2 0xE58 DUP2 PUSH2 0x9A3 JUMP JUMPDEST DUP3 MSTORE POP POP JUMP JUMPDEST PUSH1 0x0 PUSH1 0x20 DUP3 ADD SWAP1 POP PUSH2 0xE73 PUSH1 0x0 DUP4 ADD DUP5 PUSH2 0xE4F JUMP JUMPDEST SWAP3 SWAP2 POP POP JUMP JUMPDEST PUSH1 0x0 DUP3 DUP3 MSTORE PUSH1 0x20 DUP3 ADD SWAP1 POP SWAP3 SWAP2 POP POP JUMP JUMPDEST PUSH32 0x5573657244617461626173653A206F6E6C7920636F6E74726163742077686963 PUSH1 0x0 DUP3 ADD MSTORE PUSH32 0x682061726520616C6C6F77656400000000000000000000000000000000000000 PUSH1 0x20 DUP3 ADD MSTORE POP JUMP JUMPDEST PUSH1 0x0 PUSH2 0xEE6 PUSH1 0x2D DUP4 PUSH2 0xE79 JUMP JUMPDEST SWAP2 POP PUSH2 0xEF1 DUP3 PUSH2 0xE8A JUMP JUMPDEST PUSH1 0x40 DUP3 ADD SWAP1 POP SWAP2 SWAP1 POP JUMP JUMPDEST PUSH1 0x0 PUSH1 0x20 DUP3 ADD SWAP1 POP DUP2 DUP2 SUB PUSH1 0x0 DUP4 ADD MSTORE PUSH2 0xF15 DUP2 PUSH2 0xED9 JUMP JUMPDEST SWAP1 POP SWAP2 SWAP1 POP JUMP JUMPDEST PUSH32 0x4E487B7100000000000000000000000000000000000000000000000000000000 PUSH1 0x0 MSTORE PUSH1 0x22 PUSH1 0x4 MSTORE PUSH1 0x24 PUSH1 0x0 REVERT JUMPDEST PUSH1 0x0 PUSH1 0x2 DUP3 DIV SWAP1 POP PUSH1 0x1 DUP3 AND DUP1 PUSH2 0xF63 JUMPI PUSH1 0x7F DUP3 AND SWAP2 POP JUMPDEST PUSH1 0x20 DUP3 LT DUP2 SUB PUSH2 0xF76 JUMPI PUSH2 0xF75 PUSH2 0xF1C JUMP JUMPDEST JUMPDEST POP SWAP2 SWAP1 POP JUMP JUMPDEST PUSH32 0x4E487B7100000000000000000000000000000000000000000000000000000000 PUSH1 0x0 MSTORE PUSH1 0x11 PUSH1 0x4 MSTORE PUSH1 0x24 PUSH1 0x0 REVERT JUMPDEST PUSH1 0x0 PUSH2 0xFB6 DUP3 PUSH2 0x8DA JUMP JUMPDEST SWAP2 POP PUSH32 0xFFFFFFFFFFFFFFFFFFFFFFFFFFFFFFFFFFFFFFFFFFFFFFFFFFFFFFFFFFFFFFFF DUP3 SUB PUSH2 0xFE8 JUMPI PUSH2 0xFE7 PUSH2 0xF7C JUMP JUMPDEST JUMPDEST PUSH1 0x1 DUP3 ADD SWAP1 POP SWAP2 SWAP1 POP JUMP JUMPDEST PUSH1 0x0 DUP2 SWAP1 POP DUP2 PUSH1 0x0 MSTORE PUSH1 0x20 PUSH1 0x0 KECCAK256 SWAP1 POP SWAP2 SWAP1 POP JUMP JUMPDEST PUSH1 0x0 PUSH1 0x20 PUSH1 0x1F DUP4 ADD DIV SWAP1 POP SWAP2 SWAP1 POP JUMP JUMPDEST PUSH1 0x0 DUP3 DUP3 SHL SWAP1 POP SWAP3 SWAP2 POP POP JUMP JUMPDEST PUSH1 0x0 PUSH1 0x8 DUP4 MUL PUSH2 0x1055 PUSH32 0xFFFFFFFFFFFFFFFFFFFFFFFFFFFFFFFFFFFFFFFFFFFFFFFFFFFFFFFFFFFFFFFF DUP3 PUSH2 0x1018 JUMP JUMPDEST PUSH2 0x105F DUP7 DUP4 PUSH2 0x1018 JUMP JUMPDEST SWAP6 POP DUP1 NOT DUP5 AND SWAP4 POP DUP1 DUP7 AND DUP5 OR SWAP3 POP POP POP SWAP4 SWAP3 POP POP POP JUMP JUMPDEST PUSH1 0x0 DUP2 SWAP1 POP SWAP2 SWAP1 POP JUMP JUMPDEST PUSH1 0x0 PUSH2 0x109C PUSH2 0x1097 PUSH2 0x1092 DUP5 PUSH2 0x8DA JUMP JUMPDEST PUSH2 0x1077 JUMP JUMPDEST PUSH2 0x8DA JUMP JUMPDEST SWAP1 POP SWAP2 SWAP1 POP JUMP JUMPDEST PUSH1 0x0 DUP2 SWAP1 POP SWAP2 SWAP1 POP JUMP JUMPDEST PUSH2 0x10B6 DUP4 PUSH2 0x1081 JUMP JUMPDEST PUSH2 0x10CA PUSH2 0x10C2 DUP3 PUSH2 0x10A3 JUMP JUMPDEST DUP5 DUP5 SLOAD PUSH2 0x1025 JUMP JUMPDEST DUP3 SSTORE POP POP POP POP JUMP JUMPDEST PUSH1 0x0 SWAP1 JUMP JUMPDEST PUSH2 0x10DF PUSH2 0x10D2 JUMP JUMPDEST PUSH2 0x10EA DUP2 DUP5 DUP5 PUSH2 0x10AD JUMP JUMPDEST POP POP POP JUMP JUMPDEST JUMPDEST DUP2 DUP2 LT ISZERO PUSH2 0x110E JUMPI PUSH2 0x1103 PUSH1 0x0 DUP3 PUSH2 0x10D7 JUMP JUMPDEST PUSH1 0x1 DUP2 ADD SWAP1 POP PUSH2 0x10F0 JUMP JUMPDEST POP POP JUMP JUMPDEST PUSH1 0x1F DUP3 GT ISZERO PUSH2 0x1153 JUMPI PUSH2 0x1124 DUP2 PUSH2 0xFF3 JUMP JUMPDEST PUSH2 0x112D DUP5 PUSH2 0x1008 JUMP JUMPDEST DUP2 ADD PUSH1 0x20 DUP6 LT ISZERO PUSH2 0x113C JUMPI DUP2 SWAP1 POP JUMPDEST PUSH2 0x1150 PUSH2 0x1148 DUP6 PUSH2 0x1008 JUMP JUMPDEST DUP4 ADD DUP3 PUSH2 0x10EF JUMP JUMPDEST POP POP JUMPDEST POP POP POP JUMP JUMPDEST PUSH1 0x0 DUP3 DUP3 SHR SWAP1 POP SWAP3 SWAP2 POP POP JUMP JUMPDEST PUSH1 0x0 PUSH2 0x1176 PUSH1 0x0 NOT DUP5 PUSH1 0x8 MUL PUSH2 0x1158 JUMP JUMPDEST NOT DUP1 DUP4 AND SWAP2 POP POP SWAP3 SWAP2 POP POP JUMP JUMPDEST PUSH1 0x0 PUSH2 0x118F DUP4 DUP4 PUSH2 0x1165 JUMP JUMPDEST SWAP2 POP DUP3 PUSH1 0x2 MUL DUP3 OR SWAP1 POP SWAP3 SWAP2 POP POP JUMP JUMPDEST PUSH2 0x11A8 DUP3 PUSH2 0x8F3 JUMP JUMPDEST PUSH8 0xFFFFFFFFFFFFFFFF DUP2 GT ISZERO PUSH2 0x11C1 JUMPI PUSH2 0x11C0 PUSH2 0xB3F JUMP JUMPDEST JUMPDEST PUSH2 0x11CB DUP3 SLOAD PUSH2 0xF4B JUMP JUMPDEST PUSH2 0x11D6 DUP3 DUP3 DUP6 PUSH2 0x1112 JUMP JUMPDEST PUSH1 0x0 PUSH1 0x20 SWAP1 POP PUSH1 0x1F DUP4 GT PUSH1 0x1 DUP2 EQ PUSH2 0x1209 JUMPI PUSH1 0x0 DUP5 ISZERO PUSH2 0x11F7 JUMPI DUP3 DUP8 ADD MLOAD SWAP1 POP JUMPDEST PUSH2 0x1201 DUP6 DUP3 PUSH2 0x1183 JUMP JUMPDEST DUP7 SSTORE POP PUSH2 0x1269 JUMP JUMPDEST PUSH1 0x1F NOT DUP5 AND PUSH2 0x1217 DUP7 PUSH2 0xFF3 JUMP JUMPDEST PUSH1 0x0 JUMPDEST DUP3 DUP2 LT ISZERO PUSH2 0x123F JUMPI DUP5 DUP10 ADD MLOAD DUP3 SSTORE PUSH1 0x1 DUP3 ADD SWAP2 POP PUSH1 0x20 DUP6 ADD SWAP5 POP PUSH1 0x20 DUP2 ADD SWAP1 POP PUSH2 0x121A JUMP JUMPDEST DUP7 DUP4 LT ISZERO PUSH2 0x125C JUMPI DUP5 DUP10 ADD MLOAD PUSH2 0x1258 PUSH1 0x1F DUP10 AND DUP3 PUSH2 0x1165 JUMP JUMPDEST DUP4 SSTORE POP JUMPDEST PUSH1 0x1 PUSH1 0x2 DUP9 MUL ADD DUP9 SSTORE POP POP POP JUMPDEST POP POP POP POP POP POP JUMP JUMPDEST PUSH32 0x5573657244617461626173653A207065726D697373696F6E2068617320626565 PUSH1 0x0 DUP3 ADD MSTORE PUSH32 0x6E206772616E7465640000000000000000000000000000000000000000000000 PUSH1 0x20 DUP3 ADD MSTORE POP JUMP JUMPDEST PUSH1 0x0 PUSH2 0x12CD PUSH1 0x29 DUP4 PUSH2 0xE79 JUMP JUMPDEST SWAP2 POP PUSH2 0x12D8 DUP3 PUSH2 0x1271 JUMP JUMPDEST PUSH1 0x40 DUP3 ADD SWAP1 POP SWAP2 SWAP1 POP JUMP JUMPDEST PUSH1 0x0 PUSH1 0x20 DUP3 ADD SWAP1 POP DUP2 DUP2 SUB PUSH1 0x0 DUP4 ADD MSTORE PUSH2 0x12FC DUP2 PUSH2 0x12C0 JUMP JUMPDEST SWAP1 POP SWAP2 SWAP1 POP JUMP JUMPDEST PUSH32 0x4F776E61626C653A206E6577206F776E657220697320746865207A65726F2061 PUSH1 0x0 DUP3 ADD MSTORE PUSH32 0x6464726573730000000000000000000000000000000000000000000000000000 PUSH1 0x20 DUP3 ADD MSTORE POP JUMP JUMPDEST PUSH1 0x0 PUSH2 0x135F PUSH1 0x26 DUP4 PUSH2 0xE79 JUMP JUMPDEST SWAP2 POP PUSH2 0x136A DUP3 PUSH2 0x1303 JUMP JUMPDEST PUSH1 0x40 DUP3 ADD SWAP1 POP SWAP2 SWAP1 POP JUMP JUMPDEST PUSH1 0x0 PUSH1 0x20 DUP3 ADD SWAP1 POP DUP2 DUP2 SUB PUSH1 0x0 DUP4 ADD MSTORE PUSH2 0x138E DUP2 PUSH2 0x1352 JUMP JUMPDEST SWAP1 POP SWAP2 SWAP1 POP JUMP JUMPDEST PUSH32 0x4F776E61626C653A2063616C6C6572206973206E6F7420746865206F776E6572 PUSH1 0x0 DUP3 ADD MSTORE POP JUMP JUMPDEST PUSH1 0x0 PUSH2 0x13CB PUSH1 0x20 DUP4 PUSH2 0xE79 JUMP JUMPDEST SWAP2 POP PUSH2 0x13D6 DUP3 PUSH2 0x1395 JUMP JUMPDEST PUSH1 0x20 DUP3 ADD SWAP1 POP SWAP2 SWAP1 POP JUMP JUMPDEST PUSH1 0x0 PUSH1 0x20 DUP3 ADD SWAP1 POP DUP2 DUP2 SUB PUSH1 0x0 DUP4 ADD MSTORE PUSH2 0x13FA DUP2 PUSH2 0x13BE JUMP JUMPDEST SWAP1 POP SWAP2 SWAP1 POP JUMP INVALID LOG2 PUSH5 0x6970667358 0x22 SLT KECCAK256 PUSH3 0xC3EB43 POP 0xD1 PUSH1 0xFA 0xC2 PUSH8 0xB98BED4E3480D837 JUMPI TIMESTAMP 0xAB STATICCALL MSTORE 0xF7 DUP15 0xE5 SWAP7 SWAP1 0xC3 SIGNEXTEND 0xD1 0xD1 PUSH5 0x736F6C6343 STOP ADDMOD SLT STOP CALLER "
				},
				"gasEstimates": {
					"creation": {
						"codeDepositCost": "1035000",
						"executionCost": "30346",
						"totalCost": "1065346"
					},
					"external": {
						"addPermission(address)": "29309",
						"addUser((uint256,string,uint256,string,string,address,uint256))": "infinite",
						"destroy()": "30016",
						"getAllUser()": "infinite",
						"owner()": "2588",
						"transferOwnership(address)": "30797"
					}
				},
				"methodIdentifiers": {
					"addPermission(address)": "4d0a5dbd",
					"addUser((uint256,string,uint256,string,string,address,uint256))": "48bf4635",
					"destroy()": "83197ef0",
					"getAllUser()": "47531df8",
					"owner()": "8da5cb5b",
					"transferOwnership(address)": "f2fde38b"
				}
			},
			"storageLayout": {
				"storage": [
					{
						"astId": 30,
						"contract": "database/user/UserDatabase.sol:UserDatabase",
						"label": "_owner",
						"offset": 0,
						"slot": "0",
						"type": "t_address"
					},
					{
						"astId": 350,
						"contract": "database/user/UserDatabase.sol:UserDatabase",
						"label": "list",
						"offset": 0,
						"slot": "1",
						"type": "t_array(t_struct(User)453_storage)dyn_storage"
					},
					{
						"astId": 353,
						"contract": "database/user/UserDatabase.sol:UserDatabase",
						"label": "autoIncrement",
						"offset": 0,
						"slot": "2",
						"type": "t_uint256"
					},
					{
						"astId": 357,
						"contract": "database/user/UserDatabase.sol:UserDatabase",
						"label": "permissions",
						"offset": 0,
						"slot": "3",
						"type": "t_mapping(t_address,t_bool)"
					}
				],
				"types": {
					"t_address": {
						"encoding": "inplace",
						"label": "address",
						"numberOfBytes": "20"
					},
					"t_array(t_struct(User)453_storage)dyn_storage": {
						"base": "t_struct(User)453_storage",
						"encoding": "dynamic_array",
						"label": "struct User[]",
						"numberOfBytes": "32"
					},
					"t_bool": {
						"encoding": "inplace",
						"label": "bool",
						"numberOfBytes": "1"
					},
					"t_mapping(t_address,t_bool)": {
						"encoding": "mapping",
						"key": "t_address",
						"label": "mapping(address => bool)",
						"numberOfBytes": "32",
						"value": "t_bool"
					},
					"t_string_storage": {
						"encoding": "bytes",
						"label": "string",
						"numberOfBytes": "32"
					},
					"t_struct(User)453_storage": {
						"encoding": "inplace",
						"label": "struct User",
						"members": [
							{
								"astId": 440,
								"contract": "database/user/UserDatabase.sol:UserDatabase",
								"label": "userId",
								"offset": 0,
								"slot": "0",
								"type": "t_uint256"
							},
							{
								"astId": 442,
								"contract": "database/user/UserDatabase.sol:UserDatabase",
								"label": "userName",
								"offset": 0,
								"slot": "1",
								"type": "t_string_storage"
							},
							{
								"astId": 444,
								"contract": "database/user/UserDatabase.sol:UserDatabase",
								"label": "userCccd",
								"offset": 0,
								"slot": "2",
								"type": "t_uint256"
							},
							{
								"astId": 446,
								"contract": "database/user/UserDatabase.sol:UserDatabase",
								"label": "userEmail",
								"offset": 0,
								"slot": "3",
								"type": "t_string_storage"
							},
							{
								"astId": 448,
								"contract": "database/user/UserDatabase.sol:UserDatabase",
								"label": "userPhone",
								"offset": 0,
								"slot": "4",
								"type": "t_string_storage"
							},
							{
								"astId": 450,
								"contract": "database/user/UserDatabase.sol:UserDatabase",
								"label": "userAddress",
								"offset": 0,
								"slot": "5",
								"type": "t_address"
							},
							{
								"astId": 452,
								"contract": "database/user/UserDatabase.sol:UserDatabase",
								"label": "teamId",
								"offset": 0,
								"slot": "6",
								"type": "t_uint256"
							}
						],
						"numberOfBytes": "224"
					},
					"t_uint256": {
						"encoding": "inplace",
						"label": "uint256",
						"numberOfBytes": "32"
					}
				}
			},
			"userdoc": {
				"kind": "user",
				"methods": {},
				"version": 1
			}
		}
	}
}