{
	"data": {
		"bytecode": {
			"linkReferences": {},
			"object": "6080604052600060025534801561001557600080fd5b50336000806101000a81548173ffffffffffffffffffffffffffffffffffffffff021916908373ffffffffffffffffffffffffffffffffffffffff160217905550611345806100656000396000f3fe608060405234801561001057600080fd5b50600436106100625760003560e01c80633516e831146100675780634d0a5dbd146100835780634e1ec3e91461009f57806383197ef0146100bd5780638da5cb5b146100c7578063f2fde38b146100e5575b600080fd5b610081600480360381019061007c9190610ad6565b610101565b005b61009d60048036038101906100989190610b1f565b61027c565b005b6100a761036c565b6040516100b49190610d3b565b60405180910390f35b6100c56105f6565b005b6100cf610617565b6040516100dc9190610d6c565b60405180910390f35b6100ff60048036038101906100fa9190610b1f565b610640565b005b6003600061010d6106c3565b73ffffffffffffffffffffffffffffffffffffffff1673ffffffffffffffffffffffffffffffffffffffff16815260200190815260200160002060009054906101000a900460ff16610194576040517f08c379a000000000000000000000000000000000000000000000000000000000815260040161018b90610e0a565b60405180910390fd5b6000600260008154809291906101a990610e59565b91905055905080826000018181525050600182908060018154018082558091505060019003906000526020600020906006020160009091909190915060008201518160000155602082015181600101556040820151816002015560608201518160030160006101000a81548173ffffffffffffffffffffffffffffffffffffffff021916908373ffffffffffffffffffffffffffffffffffffffff160217905550608082015181600401908161025f91906110ad565b5060a082015181600501908161027591906110ad565b5050505050565b6102846106cb565b600360008273ffffffffffffffffffffffffffffffffffffffff1673ffffffffffffffffffffffffffffffffffffffff16815260200190815260200160002060009054906101000a900460ff1615610311576040517f08c379a0000000000000000000000000000000000000000000000000000000008152600401610308906111f1565b60405180910390fd5b6001600360008373ffffffffffffffffffffffffffffffffffffffff1673ffffffffffffffffffffffffffffffffffffffff16815260200190815260200160002060006101000a81548160ff02191690831515021790555050565b60606003600061037a6106c3565b73ffffffffffffffffffffffffffffffffffffffff1673ffffffffffffffffffffffffffffffffffffffff16815260200190815260200160002060009054906101000a900460ff16610401576040517f08c379a00000000000000000000000000000000000000000000000000000000081526004016103f890610e0a565b60405180910390fd5b6001805480602002602001604051908101604052809291908181526020016000905b828210156105ed57838290600052602060002090600602016040518060c00160405290816000820154815260200160018201548152602001600282015481526020016003820160009054906101000a900473ffffffffffffffffffffffffffffffffffffffff1673ffffffffffffffffffffffffffffffffffffffff1673ffffffffffffffffffffffffffffffffffffffff1681526020016004820180546104ca90610ed0565b80601f01602080910402602001604051908101604052809291908181526020018280546104f690610ed0565b80156105435780601f1061051857610100808354040283529160200191610543565b820191906000526020600020905b81548152906001019060200180831161052657829003601f168201915b5050505050815260200160058201805461055c90610ed0565b80601f016020809104026020016040519081016040528092919081815260200182805461058890610ed0565b80156105d55780601f106105aa576101008083540402835291602001916105d5565b820191906000526020600020905b8154815290600101906020018083116105b857829003601f168201915b50505050508152505081526020019060010190610423565b50505050905090565b6105fe6106cb565b3073ffffffffffffffffffffffffffffffffffffffff16ff5b60008060009054906101000a900473ffffffffffffffffffffffffffffffffffffffff16905090565b6106486106cb565b600073ffffffffffffffffffffffffffffffffffffffff168173ffffffffffffffffffffffffffffffffffffffff16036106b7576040517f08c379a00000000000000000000000000000000000000000000000000000000081526004016106ae90611283565b60405180910390fd5b6106c081610742565b50565b600033905090565b3373ffffffffffffffffffffffffffffffffffffffff166106ea610617565b73ffffffffffffffffffffffffffffffffffffffff1614610740576040517f08c379a0000000000000000000000000000000000000000000000000000000008152600401610737906112ef565b60405180910390fd5b565b60008060009054906101000a900473ffffffffffffffffffffffffffffffffffffffff169050816000806101000a81548173ffffffffffffffffffffffffffffffffffffffff021916908373ffffffffffffffffffffffffffffffffffffffff1602179055508173ffffffffffffffffffffffffffffffffffffffff168173ffffffffffffffffffffffffffffffffffffffff167f8be0079c531659141344cd1fd0a4f28419497f9722a3daafe3b4186f6b6457e060405160405180910390a35050565b6000604051905090565b600080fd5b600080fd5b600080fd5b6000601f19601f8301169050919050565b7f4e487b7100000000000000000000000000000000000000000000000000000000600052604160045260246000fd5b6108688261081f565b810181811067ffffffffffffffff8211171561088757610886610830565b5b80604052505050565b600061089a610806565b90506108a6828261085f565b919050565b600080fd5b6000819050919050565b6108c3816108b0565b81146108ce57600080fd5b50565b6000813590506108e0816108ba565b92915050565b600073ffffffffffffffffffffffffffffffffffffffff82169050919050565b6000610911826108e6565b9050919050565b61092181610906565b811461092c57600080fd5b50565b60008135905061093e81610918565b92915050565b600080fd5b600080fd5b600067ffffffffffffffff82111561096957610968610830565b5b6109728261081f565b9050602081019050919050565b82818337600083830152505050565b60006109a161099c8461094e565b610890565b9050828152602081018484840111156109bd576109bc610949565b5b6109c884828561097f565b509392505050565b600082601f8301126109e5576109e4610944565b5b81356109f584826020860161098e565b91505092915050565b600060c08284031215610a1457610a1361081a565b5b610a1e60c0610890565b90506000610a2e848285016108d1565b6000830152506020610a42848285016108d1565b6020830152506040610a56848285016108d1565b6040830152506060610a6a8482850161092f565b606083015250608082013567ffffffffffffffff811115610a8e57610a8d6108ab565b5b610a9a848285016109d0565b60808301525060a082013567ffffffffffffffff811115610abe57610abd6108ab565b5b610aca848285016109d0565b60a08301525092915050565b600060208284031215610aec57610aeb610810565b5b600082013567ffffffffffffffff811115610b0a57610b09610815565b5b610b16848285016109fe565b91505092915050565b600060208284031215610b3557610b34610810565b5b6000610b438482850161092f565b91505092915050565b600081519050919050565b600082825260208201905092915050565b6000819050602082019050919050565b610b81816108b0565b82525050565b610b9081610906565b82525050565b600081519050919050565b600082825260208201905092915050565b60005b83811015610bd0578082015181840152602081019050610bb5565b60008484015250505050565b6000610be782610b96565b610bf18185610ba1565b9350610c01818560208601610bb2565b610c0a8161081f565b840191505092915050565b600060c083016000830151610c2d6000860182610b78565b506020830151610c406020860182610b78565b506040830151610c536040860182610b78565b506060830151610c666060860182610b87565b5060808301518482036080860152610c7e8282610bdc565b91505060a083015184820360a0860152610c988282610bdc565b9150508091505092915050565b6000610cb18383610c15565b905092915050565b6000602082019050919050565b6000610cd182610b4c565b610cdb8185610b57565b935083602082028501610ced85610b68565b8060005b85811015610d295784840389528151610d0a8582610ca5565b9450610d1583610cb9565b925060208a01995050600181019050610cf1565b50829750879550505050505092915050565b60006020820190508181036000830152610d558184610cc6565b905092915050565b610d6681610906565b82525050565b6000602082019050610d816000830184610d5d565b92915050565b600082825260208201905092915050565b7f507572636861736544617461626173653a206f6e6c7920636f6e74726163742060008201527f77686963682061726520616c6c6f776564000000000000000000000000000000602082015250565b6000610df4603183610d87565b9150610dff82610d98565b604082019050919050565b60006020820190508181036000830152610e2381610de7565b9050919050565b7f4e487b7100000000000000000000000000000000000000000000000000000000600052601160045260246000fd5b6000610e64826108b0565b91507fffffffffffffffffffffffffffffffffffffffffffffffffffffffffffffffff8203610e9657610e95610e2a565b5b600182019050919050565b7f4e487b7100000000000000000000000000000000000000000000000000000000600052602260045260246000fd5b60006002820490506001821680610ee857607f821691505b602082108103610efb57610efa610ea1565b5b50919050565b60008190508160005260206000209050919050565b60006020601f8301049050919050565b600082821b905092915050565b600060088302610f637fffffffffffffffffffffffffffffffffffffffffffffffffffffffffffffffff82610f26565b610f6d8683610f26565b95508019841693508086168417925050509392505050565b6000819050919050565b6000610faa610fa5610fa0846108b0565b610f85565b6108b0565b9050919050565b6000819050919050565b610fc483610f8f565b610fd8610fd082610fb1565b848454610f33565b825550505050565b600090565b610fed610fe0565b610ff8818484610fbb565b505050565b5b8181101561101c57611011600082610fe5565b600181019050610ffe565b5050565b601f8211156110615761103281610f01565b61103b84610f16565b8101602085101561104a578190505b61105e61105685610f16565b830182610ffd565b50505b505050565b600082821c905092915050565b600061108460001984600802611066565b1980831691505092915050565b600061109d8383611073565b9150826002028217905092915050565b6110b682610b96565b67ffffffffffffffff8111156110cf576110ce610830565b5b6110d98254610ed0565b6110e4828285611020565b600060209050601f8311600181146111175760008415611105578287015190505b61110f8582611091565b865550611177565b601f19841661112586610f01565b60005b8281101561114d57848901518255600182019150602085019450602081019050611128565b8683101561116a5784890151611166601f891682611073565b8355505b6001600288020188555050505b505050505050565b7f507572636861736544617461626173653a207065726d697373696f6e2068617360008201527f206265656e206772616e74656400000000000000000000000000000000000000602082015250565b60006111db602d83610d87565b91506111e68261117f565b604082019050919050565b6000602082019050818103600083015261120a816111ce565b9050919050565b7f4f776e61626c653a206e6577206f776e657220697320746865207a65726f206160008201527f6464726573730000000000000000000000000000000000000000000000000000602082015250565b600061126d602683610d87565b915061127882611211565b604082019050919050565b6000602082019050818103600083015261129c81611260565b9050919050565b7f4f776e61626c653a2063616c6c6572206973206e6f7420746865206f776e6572600082015250565b60006112d9602083610d87565b91506112e4826112a3565b602082019050919050565b60006020820190508181036000830152611308816112cc565b905091905056fea2646970667358221220f80b8585f293429b9a04a4428431d3e62c29f0acbcec6f65e2671a46ece0fa9364736f6c63430008120033",
			"opcodes": "PUSH1 0x80 PUSH1 0x40 MSTORE PUSH1 0x0 PUSH1 0x2 SSTORE CALLVALUE DUP1 ISZERO PUSH2 0x15 JUMPI PUSH1 0x0 DUP1 REVERT JUMPDEST POP CALLER PUSH1 0x0 DUP1 PUSH2 0x100 EXP DUP2 SLOAD DUP2 PUSH20 0xFFFFFFFFFFFFFFFFFFFFFFFFFFFFFFFFFFFFFFFF MUL NOT AND SWAP1 DUP4 PUSH20 0xFFFFFFFFFFFFFFFFFFFFFFFFFFFFFFFFFFFFFFFF AND MUL OR SWAP1 SSTORE POP PUSH2 0x1345 DUP1 PUSH2 0x65 PUSH1 0x0 CODECOPY PUSH1 0x0 RETURN INVALID PUSH1 0x80 PUSH1 0x40 MSTORE CALLVALUE DUP1 ISZERO PUSH2 0x10 JUMPI PUSH1 0x0 DUP1 REVERT JUMPDEST POP PUSH1 0x4 CALLDATASIZE LT PUSH2 0x62 JUMPI PUSH1 0x0 CALLDATALOAD PUSH1 0xE0 SHR DUP1 PUSH4 0x3516E831 EQ PUSH2 0x67 JUMPI DUP1 PUSH4 0x4D0A5DBD EQ PUSH2 0x83 JUMPI DUP1 PUSH4 0x4E1EC3E9 EQ PUSH2 0x9F JUMPI DUP1 PUSH4 0x83197EF0 EQ PUSH2 0xBD JUMPI DUP1 PUSH4 0x8DA5CB5B EQ PUSH2 0xC7 JUMPI DUP1 PUSH4 0xF2FDE38B EQ PUSH2 0xE5 JUMPI JUMPDEST PUSH1 0x0 DUP1 REVERT JUMPDEST PUSH2 0x81 PUSH1 0x4 DUP1 CALLDATASIZE SUB DUP2 ADD SWAP1 PUSH2 0x7C SWAP2 SWAP1 PUSH2 0xAD6 JUMP JUMPDEST PUSH2 0x101 JUMP JUMPDEST STOP JUMPDEST PUSH2 0x9D PUSH1 0x4 DUP1 CALLDATASIZE SUB DUP2 ADD SWAP1 PUSH2 0x98 SWAP2 SWAP1 PUSH2 0xB1F JUMP JUMPDEST PUSH2 0x27C JUMP JUMPDEST STOP JUMPDEST PUSH2 0xA7 PUSH2 0x36C JUMP JUMPDEST PUSH1 0x40 MLOAD PUSH2 0xB4 SWAP2 SWAP1 PUSH2 0xD3B JUMP JUMPDEST PUSH1 0x40 MLOAD DUP1 SWAP2 SUB SWAP1 RETURN JUMPDEST PUSH2 0xC5 PUSH2 0x5F6 JUMP JUMPDEST STOP JUMPDEST PUSH2 0xCF PUSH2 0x617 JUMP JUMPDEST PUSH1 0x40 MLOAD PUSH2 0xDC SWAP2 SWAP1 PUSH2 0xD6C JUMP JUMPDEST PUSH1 0x40 MLOAD DUP1 SWAP2 SUB SWAP1 RETURN JUMPDEST PUSH2 0xFF PUSH1 0x4 DUP1 CALLDATASIZE SUB DUP2 ADD SWAP1 PUSH2 0xFA SWAP2 SWAP1 PUSH2 0xB1F JUMP JUMPDEST PUSH2 0x640 JUMP JUMPDEST STOP JUMPDEST PUSH1 0x3 PUSH1 0x0 PUSH2 0x10D PUSH2 0x6C3 JUMP JUMPDEST PUSH20 0xFFFFFFFFFFFFFFFFFFFFFFFFFFFFFFFFFFFFFFFF AND PUSH20 0xFFFFFFFFFFFFFFFFFFFFFFFFFFFFFFFFFFFFFFFF AND DUP2 MSTORE PUSH1 0x20 ADD SWAP1 DUP2 MSTORE PUSH1 0x20 ADD PUSH1 0x0 KECCAK256 PUSH1 0x0 SWAP1 SLOAD SWAP1 PUSH2 0x100 EXP SWAP1 DIV PUSH1 0xFF AND PUSH2 0x194 JUMPI PUSH1 0x40 MLOAD PUSH32 0x8C379A000000000000000000000000000000000000000000000000000000000 DUP2 MSTORE PUSH1 0x4 ADD PUSH2 0x18B SWAP1 PUSH2 0xE0A JUMP JUMPDEST PUSH1 0x40 MLOAD DUP1 SWAP2 SUB SWAP1 REVERT JUMPDEST PUSH1 0x0 PUSH1 0x2 PUSH1 0x0 DUP2 SLOAD DUP1 SWAP3 SWAP2 SWAP1 PUSH2 0x1A9 SWAP1 PUSH2 0xE59 JUMP JUMPDEST SWAP2 SWAP1 POP SSTORE SWAP1 POP DUP1 DUP3 PUSH1 0x0 ADD DUP2 DUP2 MSTORE POP POP PUSH1 0x1 DUP3 SWAP1 DUP1 PUSH1 0x1 DUP2 SLOAD ADD DUP1 DUP3 SSTORE DUP1 SWAP2 POP POP PUSH1 0x1 SWAP1 SUB SWAP1 PUSH1 0x0 MSTORE PUSH1 0x20 PUSH1 0x0 KECCAK256 SWAP1 PUSH1 0x6 MUL ADD PUSH1 0x0 SWAP1 SWAP2 SWAP1 SWAP2 SWAP1 SWAP2 POP PUSH1 0x0 DUP3 ADD MLOAD DUP2 PUSH1 0x0 ADD SSTORE PUSH1 0x20 DUP3 ADD MLOAD DUP2 PUSH1 0x1 ADD SSTORE PUSH1 0x40 DUP3 ADD MLOAD DUP2 PUSH1 0x2 ADD SSTORE PUSH1 0x60 DUP3 ADD MLOAD DUP2 PUSH1 0x3 ADD PUSH1 0x0 PUSH2 0x100 EXP DUP2 SLOAD DUP2 PUSH20 0xFFFFFFFFFFFFFFFFFFFFFFFFFFFFFFFFFFFFFFFF MUL NOT AND SWAP1 DUP4 PUSH20 0xFFFFFFFFFFFFFFFFFFFFFFFFFFFFFFFFFFFFFFFF AND MUL OR SWAP1 SSTORE POP PUSH1 0x80 DUP3 ADD MLOAD DUP2 PUSH1 0x4 ADD SWAP1 DUP2 PUSH2 0x25F SWAP2 SWAP1 PUSH2 0x10AD JUMP JUMPDEST POP PUSH1 0xA0 DUP3 ADD MLOAD DUP2 PUSH1 0x5 ADD SWAP1 DUP2 PUSH2 0x275 SWAP2 SWAP1 PUSH2 0x10AD JUMP JUMPDEST POP POP POP POP POP JUMP JUMPDEST PUSH2 0x284 PUSH2 0x6CB JUMP JUMPDEST PUSH1 0x3 PUSH1 0x0 DUP3 PUSH20 0xFFFFFFFFFFFFFFFFFFFFFFFFFFFFFFFFFFFFFFFF AND PUSH20 0xFFFFFFFFFFFFFFFFFFFFFFFFFFFFFFFFFFFFFFFF AND DUP2 MSTORE PUSH1 0x20 ADD SWAP1 DUP2 MSTORE PUSH1 0x20 ADD PUSH1 0x0 KECCAK256 PUSH1 0x0 SWAP1 SLOAD SWAP1 PUSH2 0x100 EXP SWAP1 DIV PUSH1 0xFF AND ISZERO PUSH2 0x311 JUMPI PUSH1 0x40 MLOAD PUSH32 0x8C379A000000000000000000000000000000000000000000000000000000000 DUP2 MSTORE PUSH1 0x4 ADD PUSH2 0x308 SWAP1 PUSH2 0x11F1 JUMP JUMPDEST PUSH1 0x40 MLOAD DUP1 SWAP2 SUB SWAP1 REVERT JUMPDEST PUSH1 0x1 PUSH1 0x3 PUSH1 0x0 DUP4 PUSH20 0xFFFFFFFFFFFFFFFFFFFFFFFFFFFFFFFFFFFFFFFF AND PUSH20 0xFFFFFFFFFFFFFFFFFFFFFFFFFFFFFFFFFFFFFFFF AND DUP2 MSTORE PUSH1 0x20 ADD SWAP1 DUP2 MSTORE PUSH1 0x20 ADD PUSH1 0x0 KECCAK256 PUSH1 0x0 PUSH2 0x100 EXP DUP2 SLOAD DUP2 PUSH1 0xFF MUL NOT AND SWAP1 DUP4 ISZERO ISZERO MUL OR SWAP1 SSTORE POP POP JUMP JUMPDEST PUSH1 0x60 PUSH1 0x3 PUSH1 0x0 PUSH2 0x37A PUSH2 0x6C3 JUMP JUMPDEST PUSH20 0xFFFFFFFFFFFFFFFFFFFFFFFFFFFFFFFFFFFFFFFF AND PUSH20 0xFFFFFFFFFFFFFFFFFFFFFFFFFFFFFFFFFFFFFFFF AND DUP2 MSTORE PUSH1 0x20 ADD SWAP1 DUP2 MSTORE PUSH1 0x20 ADD PUSH1 0x0 KECCAK256 PUSH1 0x0 SWAP1 SLOAD SWAP1 PUSH2 0x100 EXP SWAP1 DIV PUSH1 0xFF AND PUSH2 0x401 JUMPI PUSH1 0x40 MLOAD PUSH32 0x8C379A000000000000000000000000000000000000000000000000000000000 DUP2 MSTORE PUSH1 0x4 ADD PUSH2 0x3F8 SWAP1 PUSH2 0xE0A JUMP JUMPDEST PUSH1 0x40 MLOAD DUP1 SWAP2 SUB SWAP1 REVERT JUMPDEST PUSH1 0x1 DUP1 SLOAD DUP1 PUSH1 0x20 MUL PUSH1 0x20 ADD PUSH1 0x40 MLOAD SWAP1 DUP2 ADD PUSH1 0x40 MSTORE DUP1 SWAP3 SWAP2 SWAP1 DUP2 DUP2 MSTORE PUSH1 0x20 ADD PUSH1 0x0 SWAP1 JUMPDEST DUP3 DUP3 LT ISZERO PUSH2 0x5ED JUMPI DUP4 DUP3 SWAP1 PUSH1 0x0 MSTORE PUSH1 0x20 PUSH1 0x0 KECCAK256 SWAP1 PUSH1 0x6 MUL ADD PUSH1 0x40 MLOAD DUP1 PUSH1 0xC0 ADD PUSH1 0x40 MSTORE SWAP1 DUP2 PUSH1 0x0 DUP3 ADD SLOAD DUP2 MSTORE PUSH1 0x20 ADD PUSH1 0x1 DUP3 ADD SLOAD DUP2 MSTORE PUSH1 0x20 ADD PUSH1 0x2 DUP3 ADD SLOAD DUP2 MSTORE PUSH1 0x20 ADD PUSH1 0x3 DUP3 ADD PUSH1 0x0 SWAP1 SLOAD SWAP1 PUSH2 0x100 EXP SWAP1 DIV PUSH20 0xFFFFFFFFFFFFFFFFFFFFFFFFFFFFFFFFFFFFFFFF AND PUSH20 0xFFFFFFFFFFFFFFFFFFFFFFFFFFFFFFFFFFFFFFFF AND PUSH20 0xFFFFFFFFFFFFFFFFFFFFFFFFFFFFFFFFFFFFFFFF AND DUP2 MSTORE PUSH1 0x20 ADD PUSH1 0x4 DUP3 ADD DUP1 SLOAD PUSH2 0x4CA SWAP1 PUSH2 0xED0 JUMP JUMPDEST DUP1 PUSH1 0x1F ADD PUSH1 0x20 DUP1 SWAP2 DIV MUL PUSH1 0x20 ADD PUSH1 0x40 MLOAD SWAP1 DUP2 ADD PUSH1 0x40 MSTORE DUP1 SWAP3 SWAP2 SWAP1 DUP2 DUP2 MSTORE PUSH1 0x20 ADD DUP3 DUP1 SLOAD PUSH2 0x4F6 SWAP1 PUSH2 0xED0 JUMP JUMPDEST DUP1 ISZERO PUSH2 0x543 JUMPI DUP1 PUSH1 0x1F LT PUSH2 0x518 JUMPI PUSH2 0x100 DUP1 DUP4 SLOAD DIV MUL DUP4 MSTORE SWAP2 PUSH1 0x20 ADD SWAP2 PUSH2 0x543 JUMP JUMPDEST DUP3 ADD SWAP2 SWAP1 PUSH1 0x0 MSTORE PUSH1 0x20 PUSH1 0x0 KECCAK256 SWAP1 JUMPDEST DUP2 SLOAD DUP2 MSTORE SWAP1 PUSH1 0x1 ADD SWAP1 PUSH1 0x20 ADD DUP1 DUP4 GT PUSH2 0x526 JUMPI DUP3 SWAP1 SUB PUSH1 0x1F AND DUP3 ADD SWAP2 JUMPDEST POP POP POP POP POP DUP2 MSTORE PUSH1 0x20 ADD PUSH1 0x5 DUP3 ADD DUP1 SLOAD PUSH2 0x55C SWAP1 PUSH2 0xED0 JUMP JUMPDEST DUP1 PUSH1 0x1F ADD PUSH1 0x20 DUP1 SWAP2 DIV MUL PUSH1 0x20 ADD PUSH1 0x40 MLOAD SWAP1 DUP2 ADD PUSH1 0x40 MSTORE DUP1 SWAP3 SWAP2 SWAP1 DUP2 DUP2 MSTORE PUSH1 0x20 ADD DUP3 DUP1 SLOAD PUSH2 0x588 SWAP1 PUSH2 0xED0 JUMP JUMPDEST DUP1 ISZERO PUSH2 0x5D5 JUMPI DUP1 PUSH1 0x1F LT PUSH2 0x5AA JUMPI PUSH2 0x100 DUP1 DUP4 SLOAD DIV MUL DUP4 MSTORE SWAP2 PUSH1 0x20 ADD SWAP2 PUSH2 0x5D5 JUMP JUMPDEST DUP3 ADD SWAP2 SWAP1 PUSH1 0x0 MSTORE PUSH1 0x20 PUSH1 0x0 KECCAK256 SWAP1 JUMPDEST DUP2 SLOAD DUP2 MSTORE SWAP1 PUSH1 0x1 ADD SWAP1 PUSH1 0x20 ADD DUP1 DUP4 GT PUSH2 0x5B8 JUMPI DUP3 SWAP1 SUB PUSH1 0x1F AND DUP3 ADD SWAP2 JUMPDEST POP POP POP POP POP DUP2 MSTORE POP POP DUP2 MSTORE PUSH1 0x20 ADD SWAP1 PUSH1 0x1 ADD SWAP1 PUSH2 0x423 JUMP JUMPDEST POP POP POP POP SWAP1 POP SWAP1 JUMP JUMPDEST PUSH2 0x5FE PUSH2 0x6CB JUMP JUMPDEST ADDRESS PUSH20 0xFFFFFFFFFFFFFFFFFFFFFFFFFFFFFFFFFFFFFFFF AND SELFDESTRUCT JUMPDEST PUSH1 0x0 DUP1 PUSH1 0x0 SWAP1 SLOAD SWAP1 PUSH2 0x100 EXP SWAP1 DIV PUSH20 0xFFFFFFFFFFFFFFFFFFFFFFFFFFFFFFFFFFFFFFFF AND SWAP1 POP SWAP1 JUMP JUMPDEST PUSH2 0x648 PUSH2 0x6CB JUMP JUMPDEST PUSH1 0x0 PUSH20 0xFFFFFFFFFFFFFFFFFFFFFFFFFFFFFFFFFFFFFFFF AND DUP2 PUSH20 0xFFFFFFFFFFFFFFFFFFFFFFFFFFFFFFFFFFFFFFFF AND SUB PUSH2 0x6B7 JUMPI PUSH1 0x40 MLOAD PUSH32 0x8C379A000000000000000000000000000000000000000000000000000000000 DUP2 MSTORE PUSH1 0x4 ADD PUSH2 0x6AE SWAP1 PUSH2 0x1283 JUMP JUMPDEST PUSH1 0x40 MLOAD DUP1 SWAP2 SUB SWAP1 REVERT JUMPDEST PUSH2 0x6C0 DUP2 PUSH2 0x742 JUMP JUMPDEST POP JUMP JUMPDEST PUSH1 0x0 CALLER SWAP1 POP SWAP1 JUMP JUMPDEST CALLER PUSH20 0xFFFFFFFFFFFFFFFFFFFFFFFFFFFFFFFFFFFFFFFF AND PUSH2 0x6EA PUSH2 0x617 JUMP JUMPDEST PUSH20 0xFFFFFFFFFFFFFFFFFFFFFFFFFFFFFFFFFFFFFFFF AND EQ PUSH2 0x740 JUMPI PUSH1 0x40 MLOAD PUSH32 0x8C379A000000000000000000000000000000000000000000000000000000000 DUP2 MSTORE PUSH1 0x4 ADD PUSH2 0x737 SWAP1 PUSH2 0x12EF JUMP JUMPDEST PUSH1 0x40 MLOAD DUP1 SWAP2 SUB SWAP1 REVERT JUMPDEST JUMP JUMPDEST PUSH1 0x0 DUP1 PUSH1 0x0 SWAP1 SLOAD SWAP1 PUSH2 0x100 EXP SWAP1 DIV PUSH20 0xFFFFFFFFFFFFFFFFFFFFFFFFFFFFFFFFFFFFFFFF AND SWAP1 POP DUP2 PUSH1 0x0 DUP1 PUSH2 0x100 EXP DUP2 SLOAD DUP2 PUSH20 0xFFFFFFFFFFFFFFFFFFFFFFFFFFFFFFFFFFFFFFFF MUL NOT AND SWAP1 DUP4 PUSH20 0xFFFFFFFFFFFFFFFFFFFFFFFFFFFFFFFFFFFFFFFF AND MUL OR SWAP1 SSTORE POP DUP2 PUSH20 0xFFFFFFFFFFFFFFFFFFFFFFFFFFFFFFFFFFFFFFFF AND DUP2 PUSH20 0xFFFFFFFFFFFFFFFFFFFFFFFFFFFFFFFFFFFFFFFF AND PUSH32 0x8BE0079C531659141344CD1FD0A4F28419497F9722A3DAAFE3B4186F6B6457E0 PUSH1 0x40 MLOAD PUSH1 0x40 MLOAD DUP1 SWAP2 SUB SWAP1 LOG3 POP POP JUMP JUMPDEST PUSH1 0x0 PUSH1 0x40 MLOAD SWAP1 POP SWAP1 JUMP JUMPDEST PUSH1 0x0 DUP1 REVERT JUMPDEST PUSH1 0x0 DUP1 REVERT JUMPDEST PUSH1 0x0 DUP1 REVERT JUMPDEST PUSH1 0x0 PUSH1 0x1F NOT PUSH1 0x1F DUP4 ADD AND SWAP1 POP SWAP2 SWAP1 POP JUMP JUMPDEST PUSH32 0x4E487B7100000000000000000000000000000000000000000000000000000000 PUSH1 0x0 MSTORE PUSH1 0x41 PUSH1 0x4 MSTORE PUSH1 0x24 PUSH1 0x0 REVERT JUMPDEST PUSH2 0x868 DUP3 PUSH2 0x81F JUMP JUMPDEST DUP2 ADD DUP2 DUP2 LT PUSH8 0xFFFFFFFFFFFFFFFF DUP3 GT OR ISZERO PUSH2 0x887 JUMPI PUSH2 0x886 PUSH2 0x830 JUMP JUMPDEST JUMPDEST DUP1 PUSH1 0x40 MSTORE POP POP POP JUMP JUMPDEST PUSH1 0x0 PUSH2 0x89A PUSH2 0x806 JUMP JUMPDEST SWAP1 POP PUSH2 0x8A6 DUP3 DUP3 PUSH2 0x85F JUMP JUMPDEST SWAP2 SWAP1 POP JUMP JUMPDEST PUSH1 0x0 DUP1 REVERT JUMPDEST PUSH1 0x0 DUP2 SWAP1 POP SWAP2 SWAP1 POP JUMP JUMPDEST PUSH2 0x8C3 DUP2 PUSH2 0x8B0 JUMP JUMPDEST DUP2 EQ PUSH2 0x8CE JUMPI PUSH1 0x0 DUP1 REVERT JUMPDEST POP JUMP JUMPDEST PUSH1 0x0 DUP2 CALLDATALOAD SWAP1 POP PUSH2 0x8E0 DUP2 PUSH2 0x8BA JUMP JUMPDEST SWAP3 SWAP2 POP POP JUMP JUMPDEST PUSH1 0x0 PUSH20 0xFFFFFFFFFFFFFFFFFFFFFFFFFFFFFFFFFFFFFFFF DUP3 AND SWAP1 POP SWAP2 SWAP1 POP JUMP JUMPDEST PUSH1 0x0 PUSH2 0x911 DUP3 PUSH2 0x8E6 JUMP JUMPDEST SWAP1 POP SWAP2 SWAP1 POP JUMP JUMPDEST PUSH2 0x921 DUP2 PUSH2 0x906 JUMP JUMPDEST DUP2 EQ PUSH2 0x92C JUMPI PUSH1 0x0 DUP1 REVERT JUMPDEST POP JUMP JUMPDEST PUSH1 0x0 DUP2 CALLDATALOAD SWAP1 POP PUSH2 0x93E DUP2 PUSH2 0x918 JUMP JUMPDEST SWAP3 SWAP2 POP POP JUMP JUMPDEST PUSH1 0x0 DUP1 REVERT JUMPDEST PUSH1 0x0 DUP1 REVERT JUMPDEST PUSH1 0x0 PUSH8 0xFFFFFFFFFFFFFFFF DUP3 GT ISZERO PUSH2 0x969 JUMPI PUSH2 0x968 PUSH2 0x830 JUMP JUMPDEST JUMPDEST PUSH2 0x972 DUP3 PUSH2 0x81F JUMP JUMPDEST SWAP1 POP PUSH1 0x20 DUP2 ADD SWAP1 POP SWAP2 SWAP1 POP JUMP JUMPDEST DUP3 DUP2 DUP4 CALLDATACOPY PUSH1 0x0 DUP4 DUP4 ADD MSTORE POP POP POP JUMP JUMPDEST PUSH1 0x0 PUSH2 0x9A1 PUSH2 0x99C DUP5 PUSH2 0x94E JUMP JUMPDEST PUSH2 0x890 JUMP JUMPDEST SWAP1 POP DUP3 DUP2 MSTORE PUSH1 0x20 DUP2 ADD DUP5 DUP5 DUP5 ADD GT ISZERO PUSH2 0x9BD JUMPI PUSH2 0x9BC PUSH2 0x949 JUMP JUMPDEST JUMPDEST PUSH2 0x9C8 DUP5 DUP3 DUP6 PUSH2 0x97F JUMP JUMPDEST POP SWAP4 SWAP3 POP POP POP JUMP JUMPDEST PUSH1 0x0 DUP3 PUSH1 0x1F DUP4 ADD SLT PUSH2 0x9E5 JUMPI PUSH2 0x9E4 PUSH2 0x944 JUMP JUMPDEST JUMPDEST DUP2 CALLDATALOAD PUSH2 0x9F5 DUP5 DUP3 PUSH1 0x20 DUP7 ADD PUSH2 0x98E JUMP JUMPDEST SWAP2 POP POP SWAP3 SWAP2 POP POP JUMP JUMPDEST PUSH1 0x0 PUSH1 0xC0 DUP3 DUP5 SUB SLT ISZERO PUSH2 0xA14 JUMPI PUSH2 0xA13 PUSH2 0x81A JUMP JUMPDEST JUMPDEST PUSH2 0xA1E PUSH1 0xC0 PUSH2 0x890 JUMP JUMPDEST SWAP1 POP PUSH1 0x0 PUSH2 0xA2E DUP5 DUP3 DUP6 ADD PUSH2 0x8D1 JUMP JUMPDEST PUSH1 0x0 DUP4 ADD MSTORE POP PUSH1 0x20 PUSH2 0xA42 DUP5 DUP3 DUP6 ADD PUSH2 0x8D1 JUMP JUMPDEST PUSH1 0x20 DUP4 ADD MSTORE POP PUSH1 0x40 PUSH2 0xA56 DUP5 DUP3 DUP6 ADD PUSH2 0x8D1 JUMP JUMPDEST PUSH1 0x40 DUP4 ADD MSTORE POP PUSH1 0x60 PUSH2 0xA6A DUP5 DUP3 DUP6 ADD PUSH2 0x92F JUMP JUMPDEST PUSH1 0x60 DUP4 ADD MSTORE POP PUSH1 0x80 DUP3 ADD CALLDATALOAD PUSH8 0xFFFFFFFFFFFFFFFF DUP2 GT ISZERO PUSH2 0xA8E JUMPI PUSH2 0xA8D PUSH2 0x8AB JUMP JUMPDEST JUMPDEST PUSH2 0xA9A DUP5 DUP3 DUP6 ADD PUSH2 0x9D0 JUMP JUMPDEST PUSH1 0x80 DUP4 ADD MSTORE POP PUSH1 0xA0 DUP3 ADD CALLDATALOAD PUSH8 0xFFFFFFFFFFFFFFFF DUP2 GT ISZERO PUSH2 0xABE JUMPI PUSH2 0xABD PUSH2 0x8AB JUMP JUMPDEST JUMPDEST PUSH2 0xACA DUP5 DUP3 DUP6 ADD PUSH2 0x9D0 JUMP JUMPDEST PUSH1 0xA0 DUP4 ADD MSTORE POP SWAP3 SWAP2 POP POP JUMP JUMPDEST PUSH1 0x0 PUSH1 0x20 DUP3 DUP5 SUB SLT ISZERO PUSH2 0xAEC JUMPI PUSH2 0xAEB PUSH2 0x810 JUMP JUMPDEST JUMPDEST PUSH1 0x0 DUP3 ADD CALLDATALOAD PUSH8 0xFFFFFFFFFFFFFFFF DUP2 GT ISZERO PUSH2 0xB0A JUMPI PUSH2 0xB09 PUSH2 0x815 JUMP JUMPDEST JUMPDEST PUSH2 0xB16 DUP5 DUP3 DUP6 ADD PUSH2 0x9FE JUMP JUMPDEST SWAP2 POP POP SWAP3 SWAP2 POP POP JUMP JUMPDEST PUSH1 0x0 PUSH1 0x20 DUP3 DUP5 SUB SLT ISZERO PUSH2 0xB35 JUMPI PUSH2 0xB34 PUSH2 0x810 JUMP JUMPDEST JUMPDEST PUSH1 0x0 PUSH2 0xB43 DUP5 DUP3 DUP6 ADD PUSH2 0x92F JUMP JUMPDEST SWAP2 POP POP SWAP3 SWAP2 POP POP JUMP JUMPDEST PUSH1 0x0 DUP2 MLOAD SWAP1 POP SWAP2 SWAP1 POP JUMP JUMPDEST PUSH1 0x0 DUP3 DUP3 MSTORE PUSH1 0x20 DUP3 ADD SWAP1 POP SWAP3 SWAP2 POP POP JUMP JUMPDEST PUSH1 0x0 DUP2 SWAP1 POP PUSH1 0x20 DUP3 ADD SWAP1 POP SWAP2 SWAP1 POP JUMP JUMPDEST PUSH2 0xB81 DUP2 PUSH2 0x8B0 JUMP JUMPDEST DUP3 MSTORE POP POP JUMP JUMPDEST PUSH2 0xB90 DUP2 PUSH2 0x906 JUMP JUMPDEST DUP3 MSTORE POP POP JUMP JUMPDEST PUSH1 0x0 DUP2 MLOAD SWAP1 POP SWAP2 SWAP1 POP JUMP JUMPDEST PUSH1 0x0 DUP3 DUP3 MSTORE PUSH1 0x20 DUP3 ADD SWAP1 POP SWAP3 SWAP2 POP POP JUMP JUMPDEST PUSH1 0x0 JUMPDEST DUP4 DUP2 LT ISZERO PUSH2 0xBD0 JUMPI DUP1 DUP3 ADD MLOAD DUP2 DUP5 ADD MSTORE PUSH1 0x20 DUP2 ADD SWAP1 POP PUSH2 0xBB5 JUMP JUMPDEST PUSH1 0x0 DUP5 DUP5 ADD MSTORE POP POP POP POP JUMP JUMPDEST PUSH1 0x0 PUSH2 0xBE7 DUP3 PUSH2 0xB96 JUMP JUMPDEST PUSH2 0xBF1 DUP2 DUP6 PUSH2 0xBA1 JUMP JUMPDEST SWAP4 POP PUSH2 0xC01 DUP2 DUP6 PUSH1 0x20 DUP7 ADD PUSH2 0xBB2 JUMP JUMPDEST PUSH2 0xC0A DUP2 PUSH2 0x81F JUMP JUMPDEST DUP5 ADD SWAP2 POP POP SWAP3 SWAP2 POP POP JUMP JUMPDEST PUSH1 0x0 PUSH1 0xC0 DUP4 ADD PUSH1 0x0 DUP4 ADD MLOAD PUSH2 0xC2D PUSH1 0x0 DUP7 ADD DUP3 PUSH2 0xB78 JUMP JUMPDEST POP PUSH1 0x20 DUP4 ADD MLOAD PUSH2 0xC40 PUSH1 0x20 DUP7 ADD DUP3 PUSH2 0xB78 JUMP JUMPDEST POP PUSH1 0x40 DUP4 ADD MLOAD PUSH2 0xC53 PUSH1 0x40 DUP7 ADD DUP3 PUSH2 0xB78 JUMP JUMPDEST POP PUSH1 0x60 DUP4 ADD MLOAD PUSH2 0xC66 PUSH1 0x60 DUP7 ADD DUP3 PUSH2 0xB87 JUMP JUMPDEST POP PUSH1 0x80 DUP4 ADD MLOAD DUP5 DUP3 SUB PUSH1 0x80 DUP7 ADD MSTORE PUSH2 0xC7E DUP3 DUP3 PUSH2 0xBDC JUMP JUMPDEST SWAP2 POP POP PUSH1 0xA0 DUP4 ADD MLOAD DUP5 DUP3 SUB PUSH1 0xA0 DUP7 ADD MSTORE PUSH2 0xC98 DUP3 DUP3 PUSH2 0xBDC JUMP JUMPDEST SWAP2 POP POP DUP1 SWAP2 POP POP SWAP3 SWAP2 POP POP JUMP JUMPDEST PUSH1 0x0 PUSH2 0xCB1 DUP4 DUP4 PUSH2 0xC15 JUMP JUMPDEST SWAP1 POP SWAP3 SWAP2 POP POP JUMP JUMPDEST PUSH1 0x0 PUSH1 0x20 DUP3 ADD SWAP1 POP SWAP2 SWAP1 POP JUMP JUMPDEST PUSH1 0x0 PUSH2 0xCD1 DUP3 PUSH2 0xB4C JUMP JUMPDEST PUSH2 0xCDB DUP2 DUP6 PUSH2 0xB57 JUMP JUMPDEST SWAP4 POP DUP4 PUSH1 0x20 DUP3 MUL DUP6 ADD PUSH2 0xCED DUP6 PUSH2 0xB68 JUMP JUMPDEST DUP1 PUSH1 0x0 JUMPDEST DUP6 DUP2 LT ISZERO PUSH2 0xD29 JUMPI DUP5 DUP5 SUB DUP10 MSTORE DUP2 MLOAD PUSH2 0xD0A DUP6 DUP3 PUSH2 0xCA5 JUMP JUMPDEST SWAP5 POP PUSH2 0xD15 DUP4 PUSH2 0xCB9 JUMP JUMPDEST SWAP3 POP PUSH1 0x20 DUP11 ADD SWAP10 POP POP PUSH1 0x1 DUP2 ADD SWAP1 POP PUSH2 0xCF1 JUMP JUMPDEST POP DUP3 SWAP8 POP DUP8 SWAP6 POP POP POP POP POP POP SWAP3 SWAP2 POP POP JUMP JUMPDEST PUSH1 0x0 PUSH1 0x20 DUP3 ADD SWAP1 POP DUP2 DUP2 SUB PUSH1 0x0 DUP4 ADD MSTORE PUSH2 0xD55 DUP2 DUP5 PUSH2 0xCC6 JUMP JUMPDEST SWAP1 POP SWAP3 SWAP2 POP POP JUMP JUMPDEST PUSH2 0xD66 DUP2 PUSH2 0x906 JUMP JUMPDEST DUP3 MSTORE POP POP JUMP JUMPDEST PUSH1 0x0 PUSH1 0x20 DUP3 ADD SWAP1 POP PUSH2 0xD81 PUSH1 0x0 DUP4 ADD DUP5 PUSH2 0xD5D JUMP JUMPDEST SWAP3 SWAP2 POP POP JUMP JUMPDEST PUSH1 0x0 DUP3 DUP3 MSTORE PUSH1 0x20 DUP3 ADD SWAP1 POP SWAP3 SWAP2 POP POP JUMP JUMPDEST PUSH32 0x507572636861736544617461626173653A206F6E6C7920636F6E747261637420 PUSH1 0x0 DUP3 ADD MSTORE PUSH32 0x77686963682061726520616C6C6F776564000000000000000000000000000000 PUSH1 0x20 DUP3 ADD MSTORE POP JUMP JUMPDEST PUSH1 0x0 PUSH2 0xDF4 PUSH1 0x31 DUP4 PUSH2 0xD87 JUMP JUMPDEST SWAP2 POP PUSH2 0xDFF DUP3 PUSH2 0xD98 JUMP JUMPDEST PUSH1 0x40 DUP3 ADD SWAP1 POP SWAP2 SWAP1 POP JUMP JUMPDEST PUSH1 0x0 PUSH1 0x20 DUP3 ADD SWAP1 POP DUP2 DUP2 SUB PUSH1 0x0 DUP4 ADD MSTORE PUSH2 0xE23 DUP2 PUSH2 0xDE7 JUMP JUMPDEST SWAP1 POP SWAP2 SWAP1 POP JUMP JUMPDEST PUSH32 0x4E487B7100000000000000000000000000000000000000000000000000000000 PUSH1 0x0 MSTORE PUSH1 0x11 PUSH1 0x4 MSTORE PUSH1 0x24 PUSH1 0x0 REVERT JUMPDEST PUSH1 0x0 PUSH2 0xE64 DUP3 PUSH2 0x8B0 JUMP JUMPDEST SWAP2 POP PUSH32 0xFFFFFFFFFFFFFFFFFFFFFFFFFFFFFFFFFFFFFFFFFFFFFFFFFFFFFFFFFFFFFFFF DUP3 SUB PUSH2 0xE96 JUMPI PUSH2 0xE95 PUSH2 0xE2A JUMP JUMPDEST JUMPDEST PUSH1 0x1 DUP3 ADD SWAP1 POP SWAP2 SWAP1 POP JUMP JUMPDEST PUSH32 0x4E487B7100000000000000000000000000000000000000000000000000000000 PUSH1 0x0 MSTORE PUSH1 0x22 PUSH1 0x4 MSTORE PUSH1 0x24 PUSH1 0x0 REVERT JUMPDEST PUSH1 0x0 PUSH1 0x2 DUP3 DIV SWAP1 POP PUSH1 0x1 DUP3 AND DUP1 PUSH2 0xEE8 JUMPI PUSH1 0x7F DUP3 AND SWAP2 POP JUMPDEST PUSH1 0x20 DUP3 LT DUP2 SUB PUSH2 0xEFB JUMPI PUSH2 0xEFA PUSH2 0xEA1 JUMP JUMPDEST JUMPDEST POP SWAP2 SWAP1 POP JUMP JUMPDEST PUSH1 0x0 DUP2 SWAP1 POP DUP2 PUSH1 0x0 MSTORE PUSH1 0x20 PUSH1 0x0 KECCAK256 SWAP1 POP SWAP2 SWAP1 POP JUMP JUMPDEST PUSH1 0x0 PUSH1 0x20 PUSH1 0x1F DUP4 ADD DIV SWAP1 POP SWAP2 SWAP1 POP JUMP JUMPDEST PUSH1 0x0 DUP3 DUP3 SHL SWAP1 POP SWAP3 SWAP2 POP POP JUMP JUMPDEST PUSH1 0x0 PUSH1 0x8 DUP4 MUL PUSH2 0xF63 PUSH32 0xFFFFFFFFFFFFFFFFFFFFFFFFFFFFFFFFFFFFFFFFFFFFFFFFFFFFFFFFFFFFFFFF DUP3 PUSH2 0xF26 JUMP JUMPDEST PUSH2 0xF6D DUP7 DUP4 PUSH2 0xF26 JUMP JUMPDEST SWAP6 POP DUP1 NOT DUP5 AND SWAP4 POP DUP1 DUP7 AND DUP5 OR SWAP3 POP POP POP SWAP4 SWAP3 POP POP POP JUMP JUMPDEST PUSH1 0x0 DUP2 SWAP1 POP SWAP2 SWAP1 POP JUMP JUMPDEST PUSH1 0x0 PUSH2 0xFAA PUSH2 0xFA5 PUSH2 0xFA0 DUP5 PUSH2 0x8B0 JUMP JUMPDEST PUSH2 0xF85 JUMP JUMPDEST PUSH2 0x8B0 JUMP JUMPDEST SWAP1 POP SWAP2 SWAP1 POP JUMP JUMPDEST PUSH1 0x0 DUP2 SWAP1 POP SWAP2 SWAP1 POP JUMP JUMPDEST PUSH2 0xFC4 DUP4 PUSH2 0xF8F JUMP JUMPDEST PUSH2 0xFD8 PUSH2 0xFD0 DUP3 PUSH2 0xFB1 JUMP JUMPDEST DUP5 DUP5 SLOAD PUSH2 0xF33 JUMP JUMPDEST DUP3 SSTORE POP POP POP POP JUMP JUMPDEST PUSH1 0x0 SWAP1 JUMP JUMPDEST PUSH2 0xFED PUSH2 0xFE0 JUMP JUMPDEST PUSH2 0xFF8 DUP2 DUP5 DUP5 PUSH2 0xFBB JUMP JUMPDEST POP POP POP JUMP JUMPDEST JUMPDEST DUP2 DUP2 LT ISZERO PUSH2 0x101C JUMPI PUSH2 0x1011 PUSH1 0x0 DUP3 PUSH2 0xFE5 JUMP JUMPDEST PUSH1 0x1 DUP2 ADD SWAP1 POP PUSH2 0xFFE JUMP JUMPDEST POP POP JUMP JUMPDEST PUSH1 0x1F DUP3 GT ISZERO PUSH2 0x1061 JUMPI PUSH2 0x1032 DUP2 PUSH2 0xF01 JUMP JUMPDEST PUSH2 0x103B DUP5 PUSH2 0xF16 JUMP JUMPDEST DUP2 ADD PUSH1 0x20 DUP6 LT ISZERO PUSH2 0x104A JUMPI DUP2 SWAP1 POP JUMPDEST PUSH2 0x105E PUSH2 0x1056 DUP6 PUSH2 0xF16 JUMP JUMPDEST DUP4 ADD DUP3 PUSH2 0xFFD JUMP JUMPDEST POP POP JUMPDEST POP POP POP JUMP JUMPDEST PUSH1 0x0 DUP3 DUP3 SHR SWAP1 POP SWAP3 SWAP2 POP POP JUMP JUMPDEST PUSH1 0x0 PUSH2 0x1084 PUSH1 0x0 NOT DUP5 PUSH1 0x8 MUL PUSH2 0x1066 JUMP JUMPDEST NOT DUP1 DUP4 AND SWAP2 POP POP SWAP3 SWAP2 POP POP JUMP JUMPDEST PUSH1 0x0 PUSH2 0x109D DUP4 DUP4 PUSH2 0x1073 JUMP JUMPDEST SWAP2 POP DUP3 PUSH1 0x2 MUL DUP3 OR SWAP1 POP SWAP3 SWAP2 POP POP JUMP JUMPDEST PUSH2 0x10B6 DUP3 PUSH2 0xB96 JUMP JUMPDEST PUSH8 0xFFFFFFFFFFFFFFFF DUP2 GT ISZERO PUSH2 0x10CF JUMPI PUSH2 0x10CE PUSH2 0x830 JUMP JUMPDEST JUMPDEST PUSH2 0x10D9 DUP3 SLOAD PUSH2 0xED0 JUMP JUMPDEST PUSH2 0x10E4 DUP3 DUP3 DUP6 PUSH2 0x1020 JUMP JUMPDEST PUSH1 0x0 PUSH1 0x20 SWAP1 POP PUSH1 0x1F DUP4 GT PUSH1 0x1 DUP2 EQ PUSH2 0x1117 JUMPI PUSH1 0x0 DUP5 ISZERO PUSH2 0x1105 JUMPI DUP3 DUP8 ADD MLOAD SWAP1 POP JUMPDEST PUSH2 0x110F DUP6 DUP3 PUSH2 0x1091 JUMP JUMPDEST DUP7 SSTORE POP PUSH2 0x1177 JUMP JUMPDEST PUSH1 0x1F NOT DUP5 AND PUSH2 0x1125 DUP7 PUSH2 0xF01 JUMP JUMPDEST PUSH1 0x0 JUMPDEST DUP3 DUP2 LT ISZERO PUSH2 0x114D JUMPI DUP5 DUP10 ADD MLOAD DUP3 SSTORE PUSH1 0x1 DUP3 ADD SWAP2 POP PUSH1 0x20 DUP6 ADD SWAP5 POP PUSH1 0x20 DUP2 ADD SWAP1 POP PUSH2 0x1128 JUMP JUMPDEST DUP7 DUP4 LT ISZERO PUSH2 0x116A JUMPI DUP5 DUP10 ADD MLOAD PUSH2 0x1166 PUSH1 0x1F DUP10 AND DUP3 PUSH2 0x1073 JUMP JUMPDEST DUP4 SSTORE POP JUMPDEST PUSH1 0x1 PUSH1 0x2 DUP9 MUL ADD DUP9 SSTORE POP POP POP JUMPDEST POP POP POP POP POP POP JUMP JUMPDEST PUSH32 0x507572636861736544617461626173653A207065726D697373696F6E20686173 PUSH1 0x0 DUP3 ADD MSTORE PUSH32 0x206265656E206772616E74656400000000000000000000000000000000000000 PUSH1 0x20 DUP3 ADD MSTORE POP JUMP JUMPDEST PUSH1 0x0 PUSH2 0x11DB PUSH1 0x2D DUP4 PUSH2 0xD87 JUMP JUMPDEST SWAP2 POP PUSH2 0x11E6 DUP3 PUSH2 0x117F JUMP JUMPDEST PUSH1 0x40 DUP3 ADD SWAP1 POP SWAP2 SWAP1 POP JUMP JUMPDEST PUSH1 0x0 PUSH1 0x20 DUP3 ADD SWAP1 POP DUP2 DUP2 SUB PUSH1 0x0 DUP4 ADD MSTORE PUSH2 0x120A DUP2 PUSH2 0x11CE JUMP JUMPDEST SWAP1 POP SWAP2 SWAP1 POP JUMP JUMPDEST PUSH32 0x4F776E61626C653A206E6577206F776E657220697320746865207A65726F2061 PUSH1 0x0 DUP3 ADD MSTORE PUSH32 0x6464726573730000000000000000000000000000000000000000000000000000 PUSH1 0x20 DUP3 ADD MSTORE POP JUMP JUMPDEST PUSH1 0x0 PUSH2 0x126D PUSH1 0x26 DUP4 PUSH2 0xD87 JUMP JUMPDEST SWAP2 POP PUSH2 0x1278 DUP3 PUSH2 0x1211 JUMP JUMPDEST PUSH1 0x40 DUP3 ADD SWAP1 POP SWAP2 SWAP1 POP JUMP JUMPDEST PUSH1 0x0 PUSH1 0x20 DUP3 ADD SWAP1 POP DUP2 DUP2 SUB PUSH1 0x0 DUP4 ADD MSTORE PUSH2 0x129C DUP2 PUSH2 0x1260 JUMP JUMPDEST SWAP1 POP SWAP2 SWAP1 POP JUMP JUMPDEST PUSH32 0x4F776E61626C653A2063616C6C6572206973206E6F7420746865206F776E6572 PUSH1 0x0 DUP3 ADD MSTORE POP JUMP JUMPDEST PUSH1 0x0 PUSH2 0x12D9 PUSH1 0x20 DUP4 PUSH2 0xD87 JUMP JUMPDEST SWAP2 POP PUSH2 0x12E4 DUP3 PUSH2 0x12A3 JUMP JUMPDEST PUSH1 0x20 DUP3 ADD SWAP1 POP SWAP2 SWAP1 POP JUMP JUMPDEST PUSH1 0x0 PUSH1 0x20 DUP3 ADD SWAP1 POP DUP2 DUP2 SUB PUSH1 0x0 DUP4 ADD MSTORE PUSH2 0x1308 DUP2 PUSH2 0x12CC JUMP JUMPDEST SWAP1 POP SWAP2 SWAP1 POP JUMP INVALID LOG2 PUSH5 0x6970667358 0x22 SLT KECCAK256 0xF8 SIGNEXTEND DUP6 DUP6 CALLCODE SWAP4 TIMESTAMP SWAP12 SWAP11 DIV LOG4 TIMESTAMP DUP5 BALANCE 0xD3 0xE6 0x2C 0x29 CREATE 0xAC 0xBC 0xEC PUSH16 0x65E2671A46ECE0FA9364736F6C634300 ADDMOD SLT STOP CALLER "
		},
		"gasEstimates": {
			"creation": {
				"codeDepositCost": "986600",
				"executionCost": "30299",
				"totalCost": "1016899"
			},
			"external": {
				"addPermission(address)": "29287",
				"addPurchase((uint256,uint256,uint256,address,string,string))": "infinite",
				"destroy()": "30016",
				"getAllPurchase()": "infinite",
				"owner()": "2588",
				"transferOwnership(address)": "30797"
			}
		},
		"methodIdentifiers": {
			"addPermission(address)": "4d0a5dbd",
			"addPurchase((uint256,uint256,uint256,address,string,string))": "3516e831",
			"destroy()": "83197ef0",
			"getAllPurchase()": "4e1ec3e9",
			"owner()": "8da5cb5b",
			"transferOwnership(address)": "f2fde38b"
		}
	},
	"abi": [
		{
			"inputs": [],
			"stateMutability": "nonpayable",
			"type": "constructor"
		},
		{
			"anonymous": false,
			"inputs": [
				{
					"indexed": true,
					"internalType": "address",
					"name": "previousOwner",
					"type": "address"
				},
				{
					"indexed": true,
					"internalType": "address",
					"name": "newOwner",
					"type": "address"
				}
			],
			"name": "OwnershipTransferred",
			"type": "event"
		},
		{
			"inputs": [
				{
					"internalType": "address",
					"name": "contractPermission",
					"type": "address"
				}
			],
			"name": "addPermission",
			"outputs": [],
			"stateMutability": "nonpayable",
			"type": "function"
		},
		{
			"inputs": [
				{
					"components": [
						{
							"internalType": "uint256",
							"name": "purchaseId",
							"type": "uint256"
						},
						{
							"internalType": "uint256",
							"name": "productCode",
							"type": "uint256"
						},
						{
							"internalType": "uint256",
							"name": "batchId",
							"type": "uint256"
						},
						{
							"internalType": "address",
							"name": "userAddress",
							"type": "address"
						},
						{
							"internalType": "string",
							"name": "purchaseLocated",
							"type": "string"
						},
						{
							"internalType": "string",
							"name": "purchaseDate",
							"type": "string"
						}
					],
					"internalType": "struct Purchase",
					"name": "purchase",
					"type": "tuple"
				}
			],
			"name": "addPurchase",
			"outputs": [],
			"stateMutability": "nonpayable",
			"type": "function"
		},
		{
			"inputs": [],
			"name": "destroy",
			"outputs": [],
			"stateMutability": "nonpayable",
			"type": "function"
		},
		{
			"inputs": [],
			"name": "getAllPurchase",
			"outputs": [
				{
					"components": [
						{
							"internalType": "uint256",
							"name": "purchaseId",
							"type": "uint256"
						},
						{
							"internalType": "uint256",
							"name": "productCode",
							"type": "uint256"
						},
						{
							"internalType": "uint256",
							"name": "batchId",
							"type": "uint256"
						},
						{
							"internalType": "address",
							"name": "userAddress",
							"type": "address"
						},
						{
							"internalType": "string",
							"name": "purchaseLocated",
							"type": "string"
						},
						{
							"internalType": "string",
							"name": "purchaseDate",
							"type": "string"
						}
					],
					"internalType": "struct Purchase[]",
					"name": "",
					"type": "tuple[]"
				}
			],
			"stateMutability": "view",
			"type": "function"
		},
		{
			"inputs": [],
			"name": "owner",
			"outputs": [
				{
					"internalType": "address",
					"name": "",
					"type": "address"
				}
			],
			"stateMutability": "view",
			"type": "function"
		},
		{
			"inputs": [
				{
					"internalType": "address",
					"name": "newOwner",
					"type": "address"
				}
			],
			"name": "transferOwnership",
			"outputs": [],
			"stateMutability": "nonpayable",
			"type": "function"
		}
	]
}