{
	"controller/purchase/PurchaseController.sol": {
		"PurchaseController": {
			"abi": [
				{
					"inputs": [
						{
							"internalType": "address",
							"name": "purchaseDatabaseContractAddress",
							"type": "address"
						}
					],
					"stateMutability": "nonpayable",
					"type": "constructor"
				},
				{
					"anonymous": false,
					"inputs": [
						{
							"indexed": true,
							"internalType": "address",
							"name": "previousOwner",
							"type": "address"
						},
						{
							"indexed": true,
							"internalType": "address",
							"name": "newOwner",
							"type": "address"
						}
					],
					"name": "OwnershipTransferred",
					"type": "event"
				},
				{
					"inputs": [
						{
							"internalType": "uint256",
							"name": "productCode",
							"type": "uint256"
						},
						{
							"internalType": "uint256",
							"name": "batchId",
							"type": "uint256"
						},
						{
							"internalType": "string",
							"name": "purchaseLocated",
							"type": "string"
						},
						{
							"internalType": "string",
							"name": "purchaseDate",
							"type": "string"
						}
					],
					"name": "addPurchase",
					"outputs": [],
					"stateMutability": "nonpayable",
					"type": "function"
				},
				{
					"inputs": [],
					"name": "destroy",
					"outputs": [],
					"stateMutability": "nonpayable",
					"type": "function"
				},
				{
					"inputs": [],
					"name": "getAllPurchase",
					"outputs": [
						{
							"components": [
								{
									"internalType": "uint256",
									"name": "purchaseId",
									"type": "uint256"
								},
								{
									"internalType": "uint256",
									"name": "productCode",
									"type": "uint256"
								},
								{
									"internalType": "uint256",
									"name": "batchId",
									"type": "uint256"
								},
								{
									"internalType": "address",
									"name": "userAddress",
									"type": "address"
								},
								{
									"internalType": "string",
									"name": "purchaseLocated",
									"type": "string"
								},
								{
									"internalType": "string",
									"name": "purchaseDate",
									"type": "string"
								}
							],
							"internalType": "struct Purchase[]",
							"name": "",
							"type": "tuple[]"
						}
					],
					"stateMutability": "view",
					"type": "function"
				},
				{
					"inputs": [],
					"name": "owner",
					"outputs": [
						{
							"internalType": "address",
							"name": "",
							"type": "address"
						}
					],
					"stateMutability": "view",
					"type": "function"
				},
				{
					"inputs": [],
					"name": "purchaseDatabase",
					"outputs": [
						{
							"internalType": "contract PurchaseDatabase",
							"name": "",
							"type": "address"
						}
					],
					"stateMutability": "view",
					"type": "function"
				},
				{
					"inputs": [
						{
							"internalType": "address",
							"name": "newOwner",
							"type": "address"
						}
					],
					"name": "transferOwnership",
					"outputs": [],
					"stateMutability": "nonpayable",
					"type": "function"
				}
			],
			"devdoc": {
				"kind": "dev",
				"methods": {
					"owner()": {
						"details": "Returns the address of the current owner."
					},
					"transferOwnership(address)": {
						"details": "Transfers ownership of the contract to a new account (`newOwner`). Can only be called by the current owner."
					}
				},
				"version": 1
			},
			"evm": {
				"assembly": "    /* \"controller/purchase/PurchaseController.sol\":276:943  contract PurchaseController is Ownable, PurchaseDatabaseCursor {... */\n  mstore(0x40, 0x80)\n    /* \"controller/purchase/PurchaseController.sol\":346:490  constructor(address purchaseDatabaseContractAddress)... */\n  callvalue\n  dup1\n  iszero\n  tag_1\n  jumpi\n  0x00\n  dup1\n  revert\ntag_1:\n  pop\n  mload(0x40)\n  sub(codesize, bytecodeSize)\n  dup1\n  bytecodeSize\n  dup4\n  codecopy\n  dup2\n  dup2\n  add\n  0x40\n  mstore\n  dup2\n  add\n  swap1\n  tag_2\n  swap2\n  swap1\n  tag_3\n  jump\t// in\ntag_2:\n    /* \"controller/purchase/PurchaseController.sol\":450:481  purchaseDatabaseContractAddress */\n  dup1\n    /* \"abstract/Ownable.sol\":1032:1042  msg.sender */\n  caller\n    /* \"abstract/Ownable.sol\":1023:1029  _owner */\n  0x00\n  dup1\n    /* \"abstract/Ownable.sol\":1023:1042  _owner = msg.sender */\n  0x0100\n  exp\n  dup2\n  sload\n  dup2\n  0xffffffffffffffffffffffffffffffffffffffff\n  mul\n  not\n  and\n  swap1\n  dup4\n  0xffffffffffffffffffffffffffffffffffffffff\n  and\n  mul\n  or\n  swap1\n  sstore\n  pop\n    /* \"cursor/purchase/PurchaseDatabaseCursor.sol\":322:327  value */\n  dup1\n    /* \"cursor/purchase/PurchaseDatabaseCursor.sol\":286:302  purchaseDatabase */\n  0x01\n  0x00\n    /* \"cursor/purchase/PurchaseDatabaseCursor.sol\":286:328  purchaseDatabase = PurchaseDatabase(value) */\n  0x0100\n  exp\n  dup2\n  sload\n  dup2\n  0xffffffffffffffffffffffffffffffffffffffff\n  mul\n  not\n  and\n  swap1\n  dup4\n  0xffffffffffffffffffffffffffffffffffffffff\n  and\n  mul\n  or\n  swap1\n  sstore\n  pop\n    /* \"cursor/purchase/PurchaseDatabaseCursor.sol\":248:336  constructor(address value) {... */\n  pop\n    /* \"controller/purchase/PurchaseController.sol\":346:490  constructor(address purchaseDatabaseContractAddress)... */\n  pop\n    /* \"controller/purchase/PurchaseController.sol\":276:943  contract PurchaseController is Ownable, PurchaseDatabaseCursor {... */\n  jump(tag_10)\n    /* \"#utility.yul\":88:205   */\ntag_12:\n    /* \"#utility.yul\":197:198   */\n  0x00\n    /* \"#utility.yul\":194:195   */\n  dup1\n    /* \"#utility.yul\":187:199   */\n  revert\n    /* \"#utility.yul\":334:460   */\ntag_14:\n    /* \"#utility.yul\":371:378   */\n  0x00\n    /* \"#utility.yul\":411:453   */\n  0xffffffffffffffffffffffffffffffffffffffff\n    /* \"#utility.yul\":404:409   */\n  dup3\n    /* \"#utility.yul\":400:454   */\n  and\n    /* \"#utility.yul\":389:454   */\n  swap1\n  pop\n    /* \"#utility.yul\":334:460   */\n  swap2\n  swap1\n  pop\n  jump\t// out\n    /* \"#utility.yul\":466:562   */\ntag_15:\n    /* \"#utility.yul\":503:510   */\n  0x00\n    /* \"#utility.yul\":532:556   */\n  tag_24\n    /* \"#utility.yul\":550:555   */\n  dup3\n    /* \"#utility.yul\":532:556   */\n  tag_14\n  jump\t// in\ntag_24:\n    /* \"#utility.yul\":521:556   */\n  swap1\n  pop\n    /* \"#utility.yul\":466:562   */\n  swap2\n  swap1\n  pop\n  jump\t// out\n    /* \"#utility.yul\":568:690   */\ntag_16:\n    /* \"#utility.yul\":641:665   */\n  tag_26\n    /* \"#utility.yul\":659:664   */\n  dup2\n    /* \"#utility.yul\":641:665   */\n  tag_15\n  jump\t// in\ntag_26:\n    /* \"#utility.yul\":634:639   */\n  dup2\n    /* \"#utility.yul\":631:666   */\n  eq\n    /* \"#utility.yul\":621:684   */\n  tag_27\n  jumpi\n    /* \"#utility.yul\":680:681   */\n  0x00\n    /* \"#utility.yul\":677:678   */\n  dup1\n    /* \"#utility.yul\":670:682   */\n  revert\n    /* \"#utility.yul\":621:684   */\ntag_27:\n    /* \"#utility.yul\":568:690   */\n  pop\n  jump\t// out\n    /* \"#utility.yul\":696:839   */\ntag_17:\n    /* \"#utility.yul\":753:758   */\n  0x00\n    /* \"#utility.yul\":784:790   */\n  dup2\n    /* \"#utility.yul\":778:791   */\n  mload\n    /* \"#utility.yul\":769:791   */\n  swap1\n  pop\n    /* \"#utility.yul\":800:833   */\n  tag_29\n    /* \"#utility.yul\":827:832   */\n  dup2\n    /* \"#utility.yul\":800:833   */\n  tag_16\n  jump\t// in\ntag_29:\n    /* \"#utility.yul\":696:839   */\n  swap3\n  swap2\n  pop\n  pop\n  jump\t// out\n    /* \"#utility.yul\":845:1196   */\ntag_3:\n    /* \"#utility.yul\":915:921   */\n  0x00\n    /* \"#utility.yul\":964:966   */\n  0x20\n    /* \"#utility.yul\":952:961   */\n  dup3\n    /* \"#utility.yul\":943:950   */\n  dup5\n    /* \"#utility.yul\":939:962   */\n  sub\n    /* \"#utility.yul\":935:967   */\n  slt\n    /* \"#utility.yul\":932:1051   */\n  iszero\n  tag_31\n  jumpi\n    /* \"#utility.yul\":970:1049   */\n  tag_32\n  tag_12\n  jump\t// in\ntag_32:\n    /* \"#utility.yul\":932:1051   */\ntag_31:\n    /* \"#utility.yul\":1090:1091   */\n  0x00\n    /* \"#utility.yul\":1115:1179   */\n  tag_33\n    /* \"#utility.yul\":1171:1178   */\n  dup5\n    /* \"#utility.yul\":1162:1168   */\n  dup3\n    /* \"#utility.yul\":1151:1160   */\n  dup6\n    /* \"#utility.yul\":1147:1169   */\n  add\n    /* \"#utility.yul\":1115:1179   */\n  tag_17\n  jump\t// in\ntag_33:\n    /* \"#utility.yul\":1105:1179   */\n  swap2\n  pop\n    /* \"#utility.yul\":1061:1189   */\n  pop\n    /* \"#utility.yul\":845:1196   */\n  swap3\n  swap2\n  pop\n  pop\n  jump\t// out\n    /* \"controller/purchase/PurchaseController.sol\":276:943  contract PurchaseController is Ownable, PurchaseDatabaseCursor {... */\ntag_10:\n  dataSize(sub_0)\n  dup1\n  dataOffset(sub_0)\n  0x00\n  codecopy\n  0x00\n  return\nstop\n\nsub_0: assembly {\n        /* \"controller/purchase/PurchaseController.sol\":276:943  contract PurchaseController is Ownable, PurchaseDatabaseCursor {... */\n      mstore(0x40, 0x80)\n      callvalue\n      dup1\n      iszero\n      tag_1\n      jumpi\n      0x00\n      dup1\n      revert\n    tag_1:\n      pop\n      jumpi(tag_2, lt(calldatasize, 0x04))\n      shr(0xe0, calldataload(0x00))\n      dup1\n      0x4e1ec3e9\n      eq\n      tag_3\n      jumpi\n      dup1\n      0x83197ef0\n      eq\n      tag_4\n      jumpi\n      dup1\n      0x8da5cb5b\n      eq\n      tag_5\n      jumpi\n      dup1\n      0xc8c8ea0b\n      eq\n      tag_6\n      jumpi\n      dup1\n      0xddcbb0d6\n      eq\n      tag_7\n      jumpi\n      dup1\n      0xf2fde38b\n      eq\n      tag_8\n      jumpi\n    tag_2:\n      0x00\n      dup1\n      revert\n        /* \"controller/purchase/PurchaseController.sol\":805:940  function getAllPurchase() public view onlyOwner returns (Purchase[] memory) {... */\n    tag_3:\n      tag_9\n      tag_10\n      jump\t// in\n    tag_9:\n      mload(0x40)\n      tag_11\n      swap2\n      swap1\n      tag_12\n      jump\t// in\n    tag_11:\n      mload(0x40)\n      dup1\n      swap2\n      sub\n      swap1\n      return\n        /* \"abstract/Ownable.sol\":2801:2892  function destroy() public onlyOwner {... */\n    tag_4:\n      tag_13\n      tag_14\n      jump\t// in\n    tag_13:\n      stop\n        /* \"abstract/Ownable.sol\":1289:1376  function owner() public view virtual returns (address) {... */\n    tag_5:\n      tag_15\n      tag_16\n      jump\t// in\n    tag_15:\n      mload(0x40)\n      tag_17\n      swap2\n      swap1\n      tag_18\n      jump\t// in\n    tag_17:\n      mload(0x40)\n      dup1\n      swap2\n      sub\n      swap1\n      return\n        /* \"controller/purchase/PurchaseController.sol\":498:797  function addPurchase(uint256 productCode, uint256 batchId, string memory purchaseLocated, string memory purchaseDate)... */\n    tag_6:\n      tag_19\n      0x04\n      dup1\n      calldatasize\n      sub\n      dup2\n      add\n      swap1\n      tag_20\n      swap2\n      swap1\n      tag_21\n      jump\t// in\n    tag_20:\n      tag_22\n      jump\t// in\n    tag_19:\n      stop\n        /* \"cursor/purchase/PurchaseDatabaseCursor.sol\":199:239  PurchaseDatabase public purchaseDatabase */\n    tag_7:\n      tag_23\n      tag_24\n      jump\t// in\n    tag_23:\n      mload(0x40)\n      tag_25\n      swap2\n      swap1\n      tag_26\n      jump\t// in\n    tag_25:\n      mload(0x40)\n      dup1\n      swap2\n      sub\n      swap1\n      return\n        /* \"abstract/Ownable.sol\":2204:2442  function transferOwnership(address newOwner) public virtual onlyOwner {... */\n    tag_8:\n      tag_27\n      0x04\n      dup1\n      calldatasize\n      sub\n      dup2\n      add\n      swap1\n      tag_28\n      swap2\n      swap1\n      tag_29\n      jump\t// in\n    tag_28:\n      tag_30\n      jump\t// in\n    tag_27:\n      stop\n        /* \"controller/purchase/PurchaseController.sol\":805:940  function getAllPurchase() public view onlyOwner returns (Purchase[] memory) {... */\n    tag_10:\n        /* \"controller/purchase/PurchaseController.sol\":862:879  Purchase[] memory */\n      0x60\n        /* \"abstract/Ownable.sol\":1175:1188  _checkOwner() */\n      tag_32\n        /* \"abstract/Ownable.sol\":1175:1186  _checkOwner */\n      tag_33\n        /* \"abstract/Ownable.sol\":1175:1188  _checkOwner() */\n      jump\t// in\n    tag_32:\n        /* \"controller/purchase/PurchaseController.sol\":899:915  purchaseDatabase */\n      0x01\n      0x00\n      swap1\n      sload\n      swap1\n      0x0100\n      exp\n      swap1\n      div\n      0xffffffffffffffffffffffffffffffffffffffff\n      and\n        /* \"controller/purchase/PurchaseController.sol\":899:930  purchaseDatabase.getAllPurchase */\n      0xffffffffffffffffffffffffffffffffffffffff\n      and\n      0x4e1ec3e9\n        /* \"controller/purchase/PurchaseController.sol\":899:932  purchaseDatabase.getAllPurchase() */\n      mload(0x40)\n      dup2\n      0xffffffff\n      and\n      0xe0\n      shl\n      dup2\n      mstore\n      0x04\n      add\n      0x00\n      mload(0x40)\n      dup1\n      dup4\n      sub\n      dup2\n      dup7\n      gas\n      staticcall\n      iszero\n      dup1\n      iszero\n      tag_36\n      jumpi\n      returndatasize\n      0x00\n      dup1\n      returndatacopy\n      revert(0x00, returndatasize)\n    tag_36:\n      pop\n      pop\n      pop\n      pop\n      mload(0x40)\n      returndatasize\n      0x00\n      dup3\n      returndatacopy\n      returndatasize\n      not(0x1f)\n      0x1f\n      dup3\n      add\n      and\n      dup3\n      add\n      dup1\n      0x40\n      mstore\n      pop\n      dup2\n      add\n      swap1\n      tag_37\n      swap2\n      swap1\n      tag_38\n      jump\t// in\n    tag_37:\n        /* \"controller/purchase/PurchaseController.sol\":892:932  return purchaseDatabase.getAllPurchase() */\n      swap1\n      pop\n        /* \"controller/purchase/PurchaseController.sol\":805:940  function getAllPurchase() public view onlyOwner returns (Purchase[] memory) {... */\n      swap1\n      jump\t// out\n        /* \"abstract/Ownable.sol\":2801:2892  function destroy() public onlyOwner {... */\n    tag_14:\n        /* \"abstract/Ownable.sol\":1175:1188  _checkOwner() */\n      tag_40\n        /* \"abstract/Ownable.sol\":1175:1186  _checkOwner */\n      tag_33\n        /* \"abstract/Ownable.sol\":1175:1188  _checkOwner() */\n      jump\t// in\n    tag_40:\n        /* \"abstract/Ownable.sol\":2877:2881  this */\n      address\n        /* \"abstract/Ownable.sol\":2848:2884  selfdestruct(payable(address(this))) */\n      0xffffffffffffffffffffffffffffffffffffffff\n      and\n      selfdestruct\n        /* \"abstract/Ownable.sol\":1289:1376  function owner() public view virtual returns (address) {... */\n    tag_16:\n        /* \"abstract/Ownable.sol\":1335:1342  address */\n      0x00\n        /* \"abstract/Ownable.sol\":1362:1368  _owner */\n      dup1\n      0x00\n      swap1\n      sload\n      swap1\n      0x0100\n      exp\n      swap1\n      div\n      0xffffffffffffffffffffffffffffffffffffffff\n      and\n        /* \"abstract/Ownable.sol\":1355:1368  return _owner */\n      swap1\n      pop\n        /* \"abstract/Ownable.sol\":1289:1376  function owner() public view virtual returns (address) {... */\n      swap1\n      jump\t// out\n        /* \"controller/purchase/PurchaseController.sol\":498:797  function addPurchase(uint256 productCode, uint256 batchId, string memory purchaseLocated, string memory purchaseDate)... */\n    tag_22:\n        /* \"controller/purchase/PurchaseController.sol\":648:668  Purchase memory item */\n      0x00\n        /* \"controller/purchase/PurchaseController.sol\":671:744  Purchase(0,productCode,batchId,_msgSender(),purchaseLocated,purchaseDate) */\n      mload(0x40)\n      dup1\n      0xc0\n      add\n      0x40\n      mstore\n      dup1\n        /* \"controller/purchase/PurchaseController.sol\":680:681  0 */\n      0x00\n        /* \"controller/purchase/PurchaseController.sol\":671:744  Purchase(0,productCode,batchId,_msgSender(),purchaseLocated,purchaseDate) */\n      dup2\n      mstore\n      0x20\n      add\n        /* \"controller/purchase/PurchaseController.sol\":682:693  productCode */\n      dup7\n        /* \"controller/purchase/PurchaseController.sol\":671:744  Purchase(0,productCode,batchId,_msgSender(),purchaseLocated,purchaseDate) */\n      dup2\n      mstore\n      0x20\n      add\n        /* \"controller/purchase/PurchaseController.sol\":694:701  batchId */\n      dup6\n        /* \"controller/purchase/PurchaseController.sol\":671:744  Purchase(0,productCode,batchId,_msgSender(),purchaseLocated,purchaseDate) */\n      dup2\n      mstore\n      0x20\n      add\n        /* \"controller/purchase/PurchaseController.sol\":702:714  _msgSender() */\n      tag_44\n        /* \"controller/purchase/PurchaseController.sol\":702:712  _msgSender */\n      tag_45\n        /* \"controller/purchase/PurchaseController.sol\":702:714  _msgSender() */\n      jump\t// in\n    tag_44:\n        /* \"controller/purchase/PurchaseController.sol\":671:744  Purchase(0,productCode,batchId,_msgSender(),purchaseLocated,purchaseDate) */\n      0xffffffffffffffffffffffffffffffffffffffff\n      and\n      dup2\n      mstore\n      0x20\n      add\n        /* \"controller/purchase/PurchaseController.sol\":715:730  purchaseLocated */\n      dup5\n        /* \"controller/purchase/PurchaseController.sol\":671:744  Purchase(0,productCode,batchId,_msgSender(),purchaseLocated,purchaseDate) */\n      dup2\n      mstore\n      0x20\n      add\n        /* \"controller/purchase/PurchaseController.sol\":731:743  purchaseDate */\n      dup4\n        /* \"controller/purchase/PurchaseController.sol\":671:744  Purchase(0,productCode,batchId,_msgSender(),purchaseLocated,purchaseDate) */\n      dup2\n      mstore\n      pop\n        /* \"controller/purchase/PurchaseController.sol\":648:744  Purchase memory item = Purchase(0,productCode,batchId,_msgSender(),purchaseLocated,purchaseDate) */\n      swap1\n      pop\n        /* \"controller/purchase/PurchaseController.sol\":755:771  purchaseDatabase */\n      0x01\n      0x00\n      swap1\n      sload\n      swap1\n      0x0100\n      exp\n      swap1\n      div\n      0xffffffffffffffffffffffffffffffffffffffff\n      and\n        /* \"controller/purchase/PurchaseController.sol\":755:783  purchaseDatabase.addPurchase */\n      0xffffffffffffffffffffffffffffffffffffffff\n      and\n      0x3516e831\n        /* \"controller/purchase/PurchaseController.sol\":784:788  item */\n      dup3\n        /* \"controller/purchase/PurchaseController.sol\":755:789  purchaseDatabase.addPurchase(item) */\n      mload(0x40)\n      dup3\n      0xffffffff\n      and\n      0xe0\n      shl\n      dup2\n      mstore\n      0x04\n      add\n      tag_46\n      swap2\n      swap1\n      tag_47\n      jump\t// in\n    tag_46:\n      0x00\n      mload(0x40)\n      dup1\n      dup4\n      sub\n      dup2\n      0x00\n      dup8\n      dup1\n      extcodesize\n      iszero\n      dup1\n      iszero\n      tag_48\n      jumpi\n      0x00\n      dup1\n      revert\n    tag_48:\n      pop\n      gas\n      call\n      iszero\n      dup1\n      iszero\n      tag_50\n      jumpi\n      returndatasize\n      0x00\n      dup1\n      returndatacopy\n      revert(0x00, returndatasize)\n    tag_50:\n      pop\n      pop\n      pop\n      pop\n        /* \"controller/purchase/PurchaseController.sol\":637:797  {... */\n      pop\n        /* \"controller/purchase/PurchaseController.sol\":498:797  function addPurchase(uint256 productCode, uint256 batchId, string memory purchaseLocated, string memory purchaseDate)... */\n      pop\n      pop\n      pop\n      pop\n      jump\t// out\n        /* \"cursor/purchase/PurchaseDatabaseCursor.sol\":199:239  PurchaseDatabase public purchaseDatabase */\n    tag_24:\n      0x01\n      0x00\n      swap1\n      sload\n      swap1\n      0x0100\n      exp\n      swap1\n      div\n      0xffffffffffffffffffffffffffffffffffffffff\n      and\n      dup2\n      jump\t// out\n        /* \"abstract/Ownable.sol\":2204:2442  function transferOwnership(address newOwner) public virtual onlyOwner {... */\n    tag_30:\n        /* \"abstract/Ownable.sol\":1175:1188  _checkOwner() */\n      tag_52\n        /* \"abstract/Ownable.sol\":1175:1186  _checkOwner */\n      tag_33\n        /* \"abstract/Ownable.sol\":1175:1188  _checkOwner() */\n      jump\t// in\n    tag_52:\n        /* \"abstract/Ownable.sol\":2327:2328  0 */\n      0x00\n        /* \"abstract/Ownable.sol\":2307:2329  newOwner != address(0) */\n      0xffffffffffffffffffffffffffffffffffffffff\n      and\n        /* \"abstract/Ownable.sol\":2307:2315  newOwner */\n      dup2\n        /* \"abstract/Ownable.sol\":2307:2329  newOwner != address(0) */\n      0xffffffffffffffffffffffffffffffffffffffff\n      and\n      sub\n        /* \"abstract/Ownable.sol\":2285:2395  require(... */\n      tag_54\n      jumpi\n      mload(0x40)\n      0x08c379a000000000000000000000000000000000000000000000000000000000\n      dup2\n      mstore\n      0x04\n      add\n      tag_55\n      swap1\n      tag_56\n      jump\t// in\n    tag_55:\n      mload(0x40)\n      dup1\n      swap2\n      sub\n      swap1\n      revert\n    tag_54:\n        /* \"abstract/Ownable.sol\":2406:2434  _transferOwnership(newOwner) */\n      tag_57\n        /* \"abstract/Ownable.sol\":2425:2433  newOwner */\n      dup2\n        /* \"abstract/Ownable.sol\":2406:2424  _transferOwnership */\n      tag_58\n        /* \"abstract/Ownable.sol\":2406:2434  _transferOwnership(newOwner) */\n      jump\t// in\n    tag_57:\n        /* \"abstract/Ownable.sol\":2204:2442  function transferOwnership(address newOwner) public virtual onlyOwner {... */\n      pop\n      jump\t// out\n        /* \"abstract/Ownable.sol\":1454:1584  function _checkOwner() internal view virtual {... */\n    tag_33:\n        /* \"abstract/Ownable.sol\":1529:1539  msg.sender */\n      caller\n        /* \"abstract/Ownable.sol\":1518:1539  owner() == msg.sender */\n      0xffffffffffffffffffffffffffffffffffffffff\n      and\n        /* \"abstract/Ownable.sol\":1518:1525  owner() */\n      tag_60\n        /* \"abstract/Ownable.sol\":1518:1523  owner */\n      tag_16\n        /* \"abstract/Ownable.sol\":1518:1525  owner() */\n      jump\t// in\n    tag_60:\n        /* \"abstract/Ownable.sol\":1518:1539  owner() == msg.sender */\n      0xffffffffffffffffffffffffffffffffffffffff\n      and\n      eq\n        /* \"abstract/Ownable.sol\":1510:1576  require(owner() == msg.sender, \"Ownable: caller is not the owner\") */\n      tag_61\n      jumpi\n      mload(0x40)\n      0x08c379a000000000000000000000000000000000000000000000000000000000\n      dup2\n      mstore\n      0x04\n      add\n      tag_62\n      swap1\n      tag_63\n      jump\t// in\n    tag_62:\n      mload(0x40)\n      dup1\n      swap2\n      sub\n      swap1\n      revert\n    tag_61:\n        /* \"abstract/Ownable.sol\":1454:1584  function _checkOwner() internal view virtual {... */\n      jump\t// out\n        /* \"@openzeppelin/contracts/utils/Context.sol\":640:736  function _msgSender() internal view virtual returns (address) {... */\n    tag_45:\n        /* \"@openzeppelin/contracts/utils/Context.sol\":693:700  address */\n      0x00\n        /* \"@openzeppelin/contracts/utils/Context.sol\":719:729  msg.sender */\n      caller\n        /* \"@openzeppelin/contracts/utils/Context.sol\":712:729  return msg.sender */\n      swap1\n      pop\n        /* \"@openzeppelin/contracts/utils/Context.sol\":640:736  function _msgSender() internal view virtual returns (address) {... */\n      swap1\n      jump\t// out\n        /* \"abstract/Ownable.sol\":2602:2793  function _transferOwnership(address newOwner) internal virtual {... */\n    tag_58:\n        /* \"abstract/Ownable.sol\":2676:2692  address oldOwner */\n      0x00\n        /* \"abstract/Ownable.sol\":2695:2701  _owner */\n      dup1\n      0x00\n      swap1\n      sload\n      swap1\n      0x0100\n      exp\n      swap1\n      div\n      0xffffffffffffffffffffffffffffffffffffffff\n      and\n        /* \"abstract/Ownable.sol\":2676:2701  address oldOwner = _owner */\n      swap1\n      pop\n        /* \"abstract/Ownable.sol\":2721:2729  newOwner */\n      dup2\n        /* \"abstract/Ownable.sol\":2712:2718  _owner */\n      0x00\n      dup1\n        /* \"abstract/Ownable.sol\":2712:2729  _owner = newOwner */\n      0x0100\n      exp\n      dup2\n      sload\n      dup2\n      0xffffffffffffffffffffffffffffffffffffffff\n      mul\n      not\n      and\n      swap1\n      dup4\n      0xffffffffffffffffffffffffffffffffffffffff\n      and\n      mul\n      or\n      swap1\n      sstore\n      pop\n        /* \"abstract/Ownable.sol\":2776:2784  newOwner */\n      dup2\n        /* \"abstract/Ownable.sol\":2745:2785  OwnershipTransferred(oldOwner, newOwner) */\n      0xffffffffffffffffffffffffffffffffffffffff\n      and\n        /* \"abstract/Ownable.sol\":2766:2774  oldOwner */\n      dup2\n        /* \"abstract/Ownable.sol\":2745:2785  OwnershipTransferred(oldOwner, newOwner) */\n      0xffffffffffffffffffffffffffffffffffffffff\n      and\n      0x8be0079c531659141344cd1fd0a4f28419497f9722a3daafe3b4186f6b6457e0\n      mload(0x40)\n      mload(0x40)\n      dup1\n      swap2\n      sub\n      swap1\n      log3\n        /* \"abstract/Ownable.sol\":2665:2793  {... */\n      pop\n        /* \"abstract/Ownable.sol\":2602:2793  function _transferOwnership(address newOwner) internal virtual {... */\n      pop\n      jump\t// out\n        /* \"#utility.yul\":7:146   */\n    tag_66:\n        /* \"#utility.yul\":99:105   */\n      0x00\n        /* \"#utility.yul\":133:138   */\n      dup2\n        /* \"#utility.yul\":127:139   */\n      mload\n        /* \"#utility.yul\":117:139   */\n      swap1\n      pop\n        /* \"#utility.yul\":7:146   */\n      swap2\n      swap1\n      pop\n      jump\t// out\n        /* \"#utility.yul\":152:361   */\n    tag_67:\n        /* \"#utility.yul\":276:287   */\n      0x00\n        /* \"#utility.yul\":310:316   */\n      dup3\n        /* \"#utility.yul\":305:308   */\n      dup3\n        /* \"#utility.yul\":298:317   */\n      mstore\n        /* \"#utility.yul\":350:354   */\n      0x20\n        /* \"#utility.yul\":345:348   */\n      dup3\n        /* \"#utility.yul\":341:355   */\n      add\n        /* \"#utility.yul\":326:355   */\n      swap1\n      pop\n        /* \"#utility.yul\":152:361   */\n      swap3\n      swap2\n      pop\n      pop\n      jump\t// out\n        /* \"#utility.yul\":367:524   */\n    tag_68:\n        /* \"#utility.yul\":459:463   */\n      0x00\n        /* \"#utility.yul\":482:485   */\n      dup2\n        /* \"#utility.yul\":474:485   */\n      swap1\n      pop\n        /* \"#utility.yul\":512:516   */\n      0x20\n        /* \"#utility.yul\":507:510   */\n      dup3\n        /* \"#utility.yul\":503:517   */\n      add\n        /* \"#utility.yul\":495:517   */\n      swap1\n      pop\n        /* \"#utility.yul\":367:524   */\n      swap2\n      swap1\n      pop\n      jump\t// out\n        /* \"#utility.yul\":530:607   */\n    tag_69:\n        /* \"#utility.yul\":567:574   */\n      0x00\n        /* \"#utility.yul\":596:601   */\n      dup2\n        /* \"#utility.yul\":585:601   */\n      swap1\n      pop\n        /* \"#utility.yul\":530:607   */\n      swap2\n      swap1\n      pop\n      jump\t// out\n        /* \"#utility.yul\":613:721   */\n    tag_70:\n        /* \"#utility.yul\":690:714   */\n      tag_128\n        /* \"#utility.yul\":708:713   */\n      dup2\n        /* \"#utility.yul\":690:714   */\n      tag_69\n      jump\t// in\n    tag_128:\n        /* \"#utility.yul\":685:688   */\n      dup3\n        /* \"#utility.yul\":678:715   */\n      mstore\n        /* \"#utility.yul\":613:721   */\n      pop\n      pop\n      jump\t// out\n        /* \"#utility.yul\":727:853   */\n    tag_71:\n        /* \"#utility.yul\":764:771   */\n      0x00\n        /* \"#utility.yul\":804:846   */\n      0xffffffffffffffffffffffffffffffffffffffff\n        /* \"#utility.yul\":797:802   */\n      dup3\n        /* \"#utility.yul\":793:847   */\n      and\n        /* \"#utility.yul\":782:847   */\n      swap1\n      pop\n        /* \"#utility.yul\":727:853   */\n      swap2\n      swap1\n      pop\n      jump\t// out\n        /* \"#utility.yul\":859:955   */\n    tag_72:\n        /* \"#utility.yul\":896:903   */\n      0x00\n        /* \"#utility.yul\":925:949   */\n      tag_131\n        /* \"#utility.yul\":943:948   */\n      dup3\n        /* \"#utility.yul\":925:949   */\n      tag_71\n      jump\t// in\n    tag_131:\n        /* \"#utility.yul\":914:949   */\n      swap1\n      pop\n        /* \"#utility.yul\":859:955   */\n      swap2\n      swap1\n      pop\n      jump\t// out\n        /* \"#utility.yul\":961:1069   */\n    tag_73:\n        /* \"#utility.yul\":1038:1062   */\n      tag_133\n        /* \"#utility.yul\":1056:1061   */\n      dup2\n        /* \"#utility.yul\":1038:1062   */\n      tag_72\n      jump\t// in\n    tag_133:\n        /* \"#utility.yul\":1033:1036   */\n      dup3\n        /* \"#utility.yul\":1026:1063   */\n      mstore\n        /* \"#utility.yul\":961:1069   */\n      pop\n      pop\n      jump\t// out\n        /* \"#utility.yul\":1075:1174   */\n    tag_74:\n        /* \"#utility.yul\":1127:1133   */\n      0x00\n        /* \"#utility.yul\":1161:1166   */\n      dup2\n        /* \"#utility.yul\":1155:1167   */\n      mload\n        /* \"#utility.yul\":1145:1167   */\n      swap1\n      pop\n        /* \"#utility.yul\":1075:1174   */\n      swap2\n      swap1\n      pop\n      jump\t// out\n        /* \"#utility.yul\":1180:1339   */\n    tag_75:\n        /* \"#utility.yul\":1254:1265   */\n      0x00\n        /* \"#utility.yul\":1288:1294   */\n      dup3\n        /* \"#utility.yul\":1283:1286   */\n      dup3\n        /* \"#utility.yul\":1276:1295   */\n      mstore\n        /* \"#utility.yul\":1328:1332   */\n      0x20\n        /* \"#utility.yul\":1323:1326   */\n      dup3\n        /* \"#utility.yul\":1319:1333   */\n      add\n        /* \"#utility.yul\":1304:1333   */\n      swap1\n      pop\n        /* \"#utility.yul\":1180:1339   */\n      swap3\n      swap2\n      pop\n      pop\n      jump\t// out\n        /* \"#utility.yul\":1345:1591   */\n    tag_76:\n        /* \"#utility.yul\":1426:1427   */\n      0x00\n        /* \"#utility.yul\":1436:1549   */\n    tag_137:\n        /* \"#utility.yul\":1450:1456   */\n      dup4\n        /* \"#utility.yul\":1447:1448   */\n      dup2\n        /* \"#utility.yul\":1444:1457   */\n      lt\n        /* \"#utility.yul\":1436:1549   */\n      iszero\n      tag_139\n      jumpi\n        /* \"#utility.yul\":1535:1536   */\n      dup1\n        /* \"#utility.yul\":1530:1533   */\n      dup3\n        /* \"#utility.yul\":1526:1537   */\n      add\n        /* \"#utility.yul\":1520:1538   */\n      mload\n        /* \"#utility.yul\":1516:1517   */\n      dup2\n        /* \"#utility.yul\":1511:1514   */\n      dup5\n        /* \"#utility.yul\":1507:1518   */\n      add\n        /* \"#utility.yul\":1500:1539   */\n      mstore\n        /* \"#utility.yul\":1472:1474   */\n      0x20\n        /* \"#utility.yul\":1469:1470   */\n      dup2\n        /* \"#utility.yul\":1465:1475   */\n      add\n        /* \"#utility.yul\":1460:1475   */\n      swap1\n      pop\n        /* \"#utility.yul\":1436:1549   */\n      jump(tag_137)\n    tag_139:\n        /* \"#utility.yul\":1583:1584   */\n      0x00\n        /* \"#utility.yul\":1574:1580   */\n      dup5\n        /* \"#utility.yul\":1569:1572   */\n      dup5\n        /* \"#utility.yul\":1565:1581   */\n      add\n        /* \"#utility.yul\":1558:1585   */\n      mstore\n        /* \"#utility.yul\":1407:1591   */\n      pop\n        /* \"#utility.yul\":1345:1591   */\n      pop\n      pop\n      pop\n      jump\t// out\n        /* \"#utility.yul\":1597:1699   */\n    tag_77:\n        /* \"#utility.yul\":1638:1644   */\n      0x00\n        /* \"#utility.yul\":1689:1691   */\n      0x1f\n        /* \"#utility.yul\":1685:1692   */\n      not\n        /* \"#utility.yul\":1680:1682   */\n      0x1f\n        /* \"#utility.yul\":1673:1678   */\n      dup4\n        /* \"#utility.yul\":1669:1683   */\n      add\n        /* \"#utility.yul\":1665:1693   */\n      and\n        /* \"#utility.yul\":1655:1693   */\n      swap1\n      pop\n        /* \"#utility.yul\":1597:1699   */\n      swap2\n      swap1\n      pop\n      jump\t// out\n        /* \"#utility.yul\":1705:2062   */\n    tag_78:\n        /* \"#utility.yul\":1783:1786   */\n      0x00\n        /* \"#utility.yul\":1811:1850   */\n      tag_142\n        /* \"#utility.yul\":1844:1849   */\n      dup3\n        /* \"#utility.yul\":1811:1850   */\n      tag_74\n      jump\t// in\n    tag_142:\n        /* \"#utility.yul\":1866:1927   */\n      tag_143\n        /* \"#utility.yul\":1920:1926   */\n      dup2\n        /* \"#utility.yul\":1915:1918   */\n      dup6\n        /* \"#utility.yul\":1866:1927   */\n      tag_75\n      jump\t// in\n    tag_143:\n        /* \"#utility.yul\":1859:1927   */\n      swap4\n      pop\n        /* \"#utility.yul\":1936:2001   */\n      tag_144\n        /* \"#utility.yul\":1994:2000   */\n      dup2\n        /* \"#utility.yul\":1989:1992   */\n      dup6\n        /* \"#utility.yul\":1982:1986   */\n      0x20\n        /* \"#utility.yul\":1975:1980   */\n      dup7\n        /* \"#utility.yul\":1971:1987   */\n      add\n        /* \"#utility.yul\":1936:2001   */\n      tag_76\n      jump\t// in\n    tag_144:\n        /* \"#utility.yul\":2026:2055   */\n      tag_145\n        /* \"#utility.yul\":2048:2054   */\n      dup2\n        /* \"#utility.yul\":2026:2055   */\n      tag_77\n      jump\t// in\n    tag_145:\n        /* \"#utility.yul\":2021:2024   */\n      dup5\n        /* \"#utility.yul\":2017:2056   */\n      add\n        /* \"#utility.yul\":2010:2056   */\n      swap2\n      pop\n        /* \"#utility.yul\":1787:2062   */\n      pop\n        /* \"#utility.yul\":1705:2062   */\n      swap3\n      swap2\n      pop\n      pop\n      jump\t// out\n        /* \"#utility.yul\":2110:3515   */\n    tag_79:\n        /* \"#utility.yul\":2219:2222   */\n      0x00\n        /* \"#utility.yul\":2255:2259   */\n      0xc0\n        /* \"#utility.yul\":2250:2253   */\n      dup4\n        /* \"#utility.yul\":2246:2260   */\n      add\n        /* \"#utility.yul\":2348:2352   */\n      0x00\n        /* \"#utility.yul\":2341:2346   */\n      dup4\n        /* \"#utility.yul\":2337:2353   */\n      add\n        /* \"#utility.yul\":2331:2354   */\n      mload\n        /* \"#utility.yul\":2367:2430   */\n      tag_147\n        /* \"#utility.yul\":2424:2428   */\n      0x00\n        /* \"#utility.yul\":2419:2422   */\n      dup7\n        /* \"#utility.yul\":2415:2429   */\n      add\n        /* \"#utility.yul\":2401:2413   */\n      dup3\n        /* \"#utility.yul\":2367:2430   */\n      tag_70\n      jump\t// in\n    tag_147:\n        /* \"#utility.yul\":2270:2440   */\n      pop\n        /* \"#utility.yul\":2529:2533   */\n      0x20\n        /* \"#utility.yul\":2522:2527   */\n      dup4\n        /* \"#utility.yul\":2518:2534   */\n      add\n        /* \"#utility.yul\":2512:2535   */\n      mload\n        /* \"#utility.yul\":2548:2611   */\n      tag_148\n        /* \"#utility.yul\":2605:2609   */\n      0x20\n        /* \"#utility.yul\":2600:2603   */\n      dup7\n        /* \"#utility.yul\":2596:2610   */\n      add\n        /* \"#utility.yul\":2582:2594   */\n      dup3\n        /* \"#utility.yul\":2548:2611   */\n      tag_70\n      jump\t// in\n    tag_148:\n        /* \"#utility.yul\":2450:2621   */\n      pop\n        /* \"#utility.yul\":2706:2710   */\n      0x40\n        /* \"#utility.yul\":2699:2704   */\n      dup4\n        /* \"#utility.yul\":2695:2711   */\n      add\n        /* \"#utility.yul\":2689:2712   */\n      mload\n        /* \"#utility.yul\":2725:2788   */\n      tag_149\n        /* \"#utility.yul\":2782:2786   */\n      0x40\n        /* \"#utility.yul\":2777:2780   */\n      dup7\n        /* \"#utility.yul\":2773:2787   */\n      add\n        /* \"#utility.yul\":2759:2771   */\n      dup3\n        /* \"#utility.yul\":2725:2788   */\n      tag_70\n      jump\t// in\n    tag_149:\n        /* \"#utility.yul\":2631:2798   */\n      pop\n        /* \"#utility.yul\":2887:2891   */\n      0x60\n        /* \"#utility.yul\":2880:2885   */\n      dup4\n        /* \"#utility.yul\":2876:2892   */\n      add\n        /* \"#utility.yul\":2870:2893   */\n      mload\n        /* \"#utility.yul\":2906:2969   */\n      tag_150\n        /* \"#utility.yul\":2963:2967   */\n      0x60\n        /* \"#utility.yul\":2958:2961   */\n      dup7\n        /* \"#utility.yul\":2954:2968   */\n      add\n        /* \"#utility.yul\":2940:2952   */\n      dup3\n        /* \"#utility.yul\":2906:2969   */\n      tag_73\n      jump\t// in\n    tag_150:\n        /* \"#utility.yul\":2808:2979   */\n      pop\n        /* \"#utility.yul\":3072:3076   */\n      0x80\n        /* \"#utility.yul\":3065:3070   */\n      dup4\n        /* \"#utility.yul\":3061:3077   */\n      add\n        /* \"#utility.yul\":3055:3078   */\n      mload\n        /* \"#utility.yul\":3125:3128   */\n      dup5\n        /* \"#utility.yul\":3119:3123   */\n      dup3\n        /* \"#utility.yul\":3115:3129   */\n      sub\n        /* \"#utility.yul\":3108:3112   */\n      0x80\n        /* \"#utility.yul\":3103:3106   */\n      dup7\n        /* \"#utility.yul\":3099:3113   */\n      add\n        /* \"#utility.yul\":3092:3130   */\n      mstore\n        /* \"#utility.yul\":3151:3224   */\n      tag_151\n        /* \"#utility.yul\":3219:3223   */\n      dup3\n        /* \"#utility.yul\":3205:3217   */\n      dup3\n        /* \"#utility.yul\":3151:3224   */\n      tag_78\n      jump\t// in\n    tag_151:\n        /* \"#utility.yul\":3143:3224   */\n      swap2\n      pop\n        /* \"#utility.yul\":2989:3235   */\n      pop\n        /* \"#utility.yul\":3325:3329   */\n      0xa0\n        /* \"#utility.yul\":3318:3323   */\n      dup4\n        /* \"#utility.yul\":3314:3330   */\n      add\n        /* \"#utility.yul\":3308:3331   */\n      mload\n        /* \"#utility.yul\":3378:3381   */\n      dup5\n        /* \"#utility.yul\":3372:3376   */\n      dup3\n        /* \"#utility.yul\":3368:3382   */\n      sub\n        /* \"#utility.yul\":3361:3365   */\n      0xa0\n        /* \"#utility.yul\":3356:3359   */\n      dup7\n        /* \"#utility.yul\":3352:3366   */\n      add\n        /* \"#utility.yul\":3345:3383   */\n      mstore\n        /* \"#utility.yul\":3404:3477   */\n      tag_152\n        /* \"#utility.yul\":3472:3476   */\n      dup3\n        /* \"#utility.yul\":3458:3470   */\n      dup3\n        /* \"#utility.yul\":3404:3477   */\n      tag_78\n      jump\t// in\n    tag_152:\n        /* \"#utility.yul\":3396:3477   */\n      swap2\n      pop\n        /* \"#utility.yul\":3245:3488   */\n      pop\n        /* \"#utility.yul\":3505:3509   */\n      dup1\n        /* \"#utility.yul\":3498:3509   */\n      swap2\n      pop\n        /* \"#utility.yul\":2224:3515   */\n      pop\n        /* \"#utility.yul\":2110:3515   */\n      swap3\n      swap2\n      pop\n      pop\n      jump\t// out\n        /* \"#utility.yul\":3521:3777   */\n    tag_80:\n        /* \"#utility.yul\":3640:3650   */\n      0x00\n        /* \"#utility.yul\":3675:3771   */\n      tag_154\n        /* \"#utility.yul\":3767:3770   */\n      dup4\n        /* \"#utility.yul\":3759:3765   */\n      dup4\n        /* \"#utility.yul\":3675:3771   */\n      tag_79\n      jump\t// in\n    tag_154:\n        /* \"#utility.yul\":3661:3771   */\n      swap1\n      pop\n        /* \"#utility.yul\":3521:3777   */\n      swap3\n      swap2\n      pop\n      pop\n      jump\t// out\n        /* \"#utility.yul\":3783:3921   */\n    tag_81:\n        /* \"#utility.yul\":3878:3882   */\n      0x00\n        /* \"#utility.yul\":3910:3914   */\n      0x20\n        /* \"#utility.yul\":3905:3908   */\n      dup3\n        /* \"#utility.yul\":3901:3915   */\n      add\n        /* \"#utility.yul\":3893:3915   */\n      swap1\n      pop\n        /* \"#utility.yul\":3783:3921   */\n      swap2\n      swap1\n      pop\n      jump\t// out\n        /* \"#utility.yul\":3973:5084   */\n    tag_82:\n        /* \"#utility.yul\":4142:4145   */\n      0x00\n        /* \"#utility.yul\":4171:4250   */\n      tag_157\n        /* \"#utility.yul\":4244:4249   */\n      dup3\n        /* \"#utility.yul\":4171:4250   */\n      tag_66\n      jump\t// in\n    tag_157:\n        /* \"#utility.yul\":4266:4377   */\n      tag_158\n        /* \"#utility.yul\":4370:4376   */\n      dup2\n        /* \"#utility.yul\":4365:4368   */\n      dup6\n        /* \"#utility.yul\":4266:4377   */\n      tag_67\n      jump\t// in\n    tag_158:\n        /* \"#utility.yul\":4259:4377   */\n      swap4\n      pop\n        /* \"#utility.yul\":4403:4406   */\n      dup4\n        /* \"#utility.yul\":4448:4452   */\n      0x20\n        /* \"#utility.yul\":4440:4446   */\n      dup3\n        /* \"#utility.yul\":4436:4453   */\n      mul\n        /* \"#utility.yul\":4431:4434   */\n      dup6\n        /* \"#utility.yul\":4427:4454   */\n      add\n        /* \"#utility.yul\":4478:4559   */\n      tag_159\n        /* \"#utility.yul\":4553:4558   */\n      dup6\n        /* \"#utility.yul\":4478:4559   */\n      tag_68\n      jump\t// in\n    tag_159:\n        /* \"#utility.yul\":4582:4589   */\n      dup1\n        /* \"#utility.yul\":4613:4614   */\n      0x00\n        /* \"#utility.yul\":4598:5039   */\n    tag_160:\n        /* \"#utility.yul\":4623:4629   */\n      dup6\n        /* \"#utility.yul\":4620:4621   */\n      dup2\n        /* \"#utility.yul\":4617:4630   */\n      lt\n        /* \"#utility.yul\":4598:5039   */\n      iszero\n      tag_162\n      jumpi\n        /* \"#utility.yul\":4694:4703   */\n      dup5\n        /* \"#utility.yul\":4688:4692   */\n      dup5\n        /* \"#utility.yul\":4684:4704   */\n      sub\n        /* \"#utility.yul\":4679:4682   */\n      dup10\n        /* \"#utility.yul\":4672:4705   */\n      mstore\n        /* \"#utility.yul\":4745:4751   */\n      dup2\n        /* \"#utility.yul\":4739:4752   */\n      mload\n        /* \"#utility.yul\":4773:4887   */\n      tag_163\n        /* \"#utility.yul\":4882:4886   */\n      dup6\n        /* \"#utility.yul\":4867:4880   */\n      dup3\n        /* \"#utility.yul\":4773:4887   */\n      tag_80\n      jump\t// in\n    tag_163:\n        /* \"#utility.yul\":4765:4887   */\n      swap5\n      pop\n        /* \"#utility.yul\":4910:4995   */\n      tag_164\n        /* \"#utility.yul\":4988:4994   */\n      dup4\n        /* \"#utility.yul\":4910:4995   */\n      tag_81\n      jump\t// in\n    tag_164:\n        /* \"#utility.yul\":4900:4995   */\n      swap3\n      pop\n        /* \"#utility.yul\":5024:5028   */\n      0x20\n        /* \"#utility.yul\":5019:5022   */\n      dup11\n        /* \"#utility.yul\":5015:5029   */\n      add\n        /* \"#utility.yul\":5008:5029   */\n      swap10\n      pop\n        /* \"#utility.yul\":4658:5039   */\n      pop\n        /* \"#utility.yul\":4645:4646   */\n      0x01\n        /* \"#utility.yul\":4642:4643   */\n      dup2\n        /* \"#utility.yul\":4638:4647   */\n      add\n        /* \"#utility.yul\":4633:4647   */\n      swap1\n      pop\n        /* \"#utility.yul\":4598:5039   */\n      jump(tag_160)\n    tag_162:\n        /* \"#utility.yul\":4602:4616   */\n      pop\n        /* \"#utility.yul\":5055:5059   */\n      dup3\n        /* \"#utility.yul\":5048:5059   */\n      swap8\n      pop\n        /* \"#utility.yul\":5075:5078   */\n      dup8\n        /* \"#utility.yul\":5068:5078   */\n      swap6\n      pop\n        /* \"#utility.yul\":4147:5084   */\n      pop\n      pop\n      pop\n      pop\n      pop\n        /* \"#utility.yul\":3973:5084   */\n      swap3\n      swap2\n      pop\n      pop\n      jump\t// out\n        /* \"#utility.yul\":5090:5563   */\n    tag_12:\n        /* \"#utility.yul\":5283:5287   */\n      0x00\n        /* \"#utility.yul\":5321:5323   */\n      0x20\n        /* \"#utility.yul\":5310:5319   */\n      dup3\n        /* \"#utility.yul\":5306:5324   */\n      add\n        /* \"#utility.yul\":5298:5324   */\n      swap1\n      pop\n        /* \"#utility.yul\":5370:5379   */\n      dup2\n        /* \"#utility.yul\":5364:5368   */\n      dup2\n        /* \"#utility.yul\":5360:5380   */\n      sub\n        /* \"#utility.yul\":5356:5357   */\n      0x00\n        /* \"#utility.yul\":5345:5354   */\n      dup4\n        /* \"#utility.yul\":5341:5358   */\n      add\n        /* \"#utility.yul\":5334:5381   */\n      mstore\n        /* \"#utility.yul\":5398:5556   */\n      tag_166\n        /* \"#utility.yul\":5551:5555   */\n      dup2\n        /* \"#utility.yul\":5542:5548   */\n      dup5\n        /* \"#utility.yul\":5398:5556   */\n      tag_82\n      jump\t// in\n    tag_166:\n        /* \"#utility.yul\":5390:5556   */\n      swap1\n      pop\n        /* \"#utility.yul\":5090:5563   */\n      swap3\n      swap2\n      pop\n      pop\n      jump\t// out\n        /* \"#utility.yul\":5569:5687   */\n    tag_83:\n        /* \"#utility.yul\":5656:5680   */\n      tag_168\n        /* \"#utility.yul\":5674:5679   */\n      dup2\n        /* \"#utility.yul\":5656:5680   */\n      tag_72\n      jump\t// in\n    tag_168:\n        /* \"#utility.yul\":5651:5654   */\n      dup3\n        /* \"#utility.yul\":5644:5681   */\n      mstore\n        /* \"#utility.yul\":5569:5687   */\n      pop\n      pop\n      jump\t// out\n        /* \"#utility.yul\":5693:5915   */\n    tag_18:\n        /* \"#utility.yul\":5786:5790   */\n      0x00\n        /* \"#utility.yul\":5824:5826   */\n      0x20\n        /* \"#utility.yul\":5813:5822   */\n      dup3\n        /* \"#utility.yul\":5809:5827   */\n      add\n        /* \"#utility.yul\":5801:5827   */\n      swap1\n      pop\n        /* \"#utility.yul\":5837:5908   */\n      tag_170\n        /* \"#utility.yul\":5905:5906   */\n      0x00\n        /* \"#utility.yul\":5894:5903   */\n      dup4\n        /* \"#utility.yul\":5890:5907   */\n      add\n        /* \"#utility.yul\":5881:5887   */\n      dup5\n        /* \"#utility.yul\":5837:5908   */\n      tag_83\n      jump\t// in\n    tag_170:\n        /* \"#utility.yul\":5693:5915   */\n      swap3\n      swap2\n      pop\n      pop\n      jump\t// out\n        /* \"#utility.yul\":5921:5996   */\n    tag_84:\n        /* \"#utility.yul\":5954:5960   */\n      0x00\n        /* \"#utility.yul\":5987:5989   */\n      0x40\n        /* \"#utility.yul\":5981:5990   */\n      mload\n        /* \"#utility.yul\":5971:5990   */\n      swap1\n      pop\n        /* \"#utility.yul\":5921:5996   */\n      swap1\n      jump\t// out\n        /* \"#utility.yul\":6002:6119   */\n    tag_85:\n        /* \"#utility.yul\":6111:6112   */\n      0x00\n        /* \"#utility.yul\":6108:6109   */\n      dup1\n        /* \"#utility.yul\":6101:6113   */\n      revert\n        /* \"#utility.yul\":6125:6242   */\n    tag_86:\n        /* \"#utility.yul\":6234:6235   */\n      0x00\n        /* \"#utility.yul\":6231:6232   */\n      dup1\n        /* \"#utility.yul\":6224:6236   */\n      revert\n        /* \"#utility.yul\":6248:6370   */\n    tag_87:\n        /* \"#utility.yul\":6321:6345   */\n      tag_175\n        /* \"#utility.yul\":6339:6344   */\n      dup2\n        /* \"#utility.yul\":6321:6345   */\n      tag_69\n      jump\t// in\n    tag_175:\n        /* \"#utility.yul\":6314:6319   */\n      dup2\n        /* \"#utility.yul\":6311:6346   */\n      eq\n        /* \"#utility.yul\":6301:6364   */\n      tag_176\n      jumpi\n        /* \"#utility.yul\":6360:6361   */\n      0x00\n        /* \"#utility.yul\":6357:6358   */\n      dup1\n        /* \"#utility.yul\":6350:6362   */\n      revert\n        /* \"#utility.yul\":6301:6364   */\n    tag_176:\n        /* \"#utility.yul\":6248:6370   */\n      pop\n      jump\t// out\n        /* \"#utility.yul\":6376:6515   */\n    tag_88:\n        /* \"#utility.yul\":6422:6427   */\n      0x00\n        /* \"#utility.yul\":6460:6466   */\n      dup2\n        /* \"#utility.yul\":6447:6467   */\n      calldataload\n        /* \"#utility.yul\":6438:6467   */\n      swap1\n      pop\n        /* \"#utility.yul\":6476:6509   */\n      tag_178\n        /* \"#utility.yul\":6503:6508   */\n      dup2\n        /* \"#utility.yul\":6476:6509   */\n      tag_87\n      jump\t// in\n    tag_178:\n        /* \"#utility.yul\":6376:6515   */\n      swap3\n      swap2\n      pop\n      pop\n      jump\t// out\n        /* \"#utility.yul\":6521:6638   */\n    tag_89:\n        /* \"#utility.yul\":6630:6631   */\n      0x00\n        /* \"#utility.yul\":6627:6628   */\n      dup1\n        /* \"#utility.yul\":6620:6632   */\n      revert\n        /* \"#utility.yul\":6644:6761   */\n    tag_90:\n        /* \"#utility.yul\":6753:6754   */\n      0x00\n        /* \"#utility.yul\":6750:6751   */\n      dup1\n        /* \"#utility.yul\":6743:6755   */\n      revert\n        /* \"#utility.yul\":6767:6947   */\n    tag_91:\n        /* \"#utility.yul\":6815:6892   */\n      0x4e487b7100000000000000000000000000000000000000000000000000000000\n        /* \"#utility.yul\":6812:6813   */\n      0x00\n        /* \"#utility.yul\":6805:6893   */\n      mstore\n        /* \"#utility.yul\":6912:6916   */\n      0x41\n        /* \"#utility.yul\":6909:6910   */\n      0x04\n        /* \"#utility.yul\":6902:6917   */\n      mstore\n        /* \"#utility.yul\":6936:6940   */\n      0x24\n        /* \"#utility.yul\":6933:6934   */\n      0x00\n        /* \"#utility.yul\":6926:6941   */\n      revert\n        /* \"#utility.yul\":6953:7234   */\n    tag_92:\n        /* \"#utility.yul\":7036:7063   */\n      tag_183\n        /* \"#utility.yul\":7058:7062   */\n      dup3\n        /* \"#utility.yul\":7036:7063   */\n      tag_77\n      jump\t// in\n    tag_183:\n        /* \"#utility.yul\":7028:7034   */\n      dup2\n        /* \"#utility.yul\":7024:7064   */\n      add\n        /* \"#utility.yul\":7166:7172   */\n      dup2\n        /* \"#utility.yul\":7154:7164   */\n      dup2\n        /* \"#utility.yul\":7151:7173   */\n      lt\n        /* \"#utility.yul\":7130:7148   */\n      0xffffffffffffffff\n        /* \"#utility.yul\":7118:7128   */\n      dup3\n        /* \"#utility.yul\":7115:7149   */\n      gt\n        /* \"#utility.yul\":7112:7174   */\n      or\n        /* \"#utility.yul\":7109:7197   */\n      iszero\n      tag_184\n      jumpi\n        /* \"#utility.yul\":7177:7195   */\n      tag_185\n      tag_91\n      jump\t// in\n    tag_185:\n        /* \"#utility.yul\":7109:7197   */\n    tag_184:\n        /* \"#utility.yul\":7217:7227   */\n      dup1\n        /* \"#utility.yul\":7213:7215   */\n      0x40\n        /* \"#utility.yul\":7206:7228   */\n      mstore\n        /* \"#utility.yul\":6996:7234   */\n      pop\n        /* \"#utility.yul\":6953:7234   */\n      pop\n      pop\n      jump\t// out\n        /* \"#utility.yul\":7240:7369   */\n    tag_93:\n        /* \"#utility.yul\":7274:7280   */\n      0x00\n        /* \"#utility.yul\":7301:7321   */\n      tag_187\n      tag_84\n      jump\t// in\n    tag_187:\n        /* \"#utility.yul\":7291:7321   */\n      swap1\n      pop\n        /* \"#utility.yul\":7330:7363   */\n      tag_188\n        /* \"#utility.yul\":7358:7362   */\n      dup3\n        /* \"#utility.yul\":7350:7356   */\n      dup3\n        /* \"#utility.yul\":7330:7363   */\n      tag_92\n      jump\t// in\n    tag_188:\n        /* \"#utility.yul\":7240:7369   */\n      swap2\n      swap1\n      pop\n      jump\t// out\n        /* \"#utility.yul\":7375:7683   */\n    tag_94:\n        /* \"#utility.yul\":7437:7441   */\n      0x00\n        /* \"#utility.yul\":7527:7545   */\n      0xffffffffffffffff\n        /* \"#utility.yul\":7519:7525   */\n      dup3\n        /* \"#utility.yul\":7516:7546   */\n      gt\n        /* \"#utility.yul\":7513:7569   */\n      iszero\n      tag_190\n      jumpi\n        /* \"#utility.yul\":7549:7567   */\n      tag_191\n      tag_91\n      jump\t// in\n    tag_191:\n        /* \"#utility.yul\":7513:7569   */\n    tag_190:\n        /* \"#utility.yul\":7587:7616   */\n      tag_192\n        /* \"#utility.yul\":7609:7615   */\n      dup3\n        /* \"#utility.yul\":7587:7616   */\n      tag_77\n      jump\t// in\n    tag_192:\n        /* \"#utility.yul\":7579:7616   */\n      swap1\n      pop\n        /* \"#utility.yul\":7671:7675   */\n      0x20\n        /* \"#utility.yul\":7665:7669   */\n      dup2\n        /* \"#utility.yul\":7661:7676   */\n      add\n        /* \"#utility.yul\":7653:7676   */\n      swap1\n      pop\n        /* \"#utility.yul\":7375:7683   */\n      swap2\n      swap1\n      pop\n      jump\t// out\n        /* \"#utility.yul\":7689:7835   */\n    tag_95:\n        /* \"#utility.yul\":7786:7792   */\n      dup3\n        /* \"#utility.yul\":7781:7784   */\n      dup2\n        /* \"#utility.yul\":7776:7779   */\n      dup4\n        /* \"#utility.yul\":7763:7793   */\n      calldatacopy\n        /* \"#utility.yul\":7827:7828   */\n      0x00\n        /* \"#utility.yul\":7818:7824   */\n      dup4\n        /* \"#utility.yul\":7813:7816   */\n      dup4\n        /* \"#utility.yul\":7809:7825   */\n      add\n        /* \"#utility.yul\":7802:7829   */\n      mstore\n        /* \"#utility.yul\":7689:7835   */\n      pop\n      pop\n      pop\n      jump\t// out\n        /* \"#utility.yul\":7841:8266   */\n    tag_96:\n        /* \"#utility.yul\":7919:7924   */\n      0x00\n        /* \"#utility.yul\":7944:8010   */\n      tag_195\n        /* \"#utility.yul\":7960:8009   */\n      tag_196\n        /* \"#utility.yul\":8002:8008   */\n      dup5\n        /* \"#utility.yul\":7960:8009   */\n      tag_94\n      jump\t// in\n    tag_196:\n        /* \"#utility.yul\":7944:8010   */\n      tag_93\n      jump\t// in\n    tag_195:\n        /* \"#utility.yul\":7935:8010   */\n      swap1\n      pop\n        /* \"#utility.yul\":8033:8039   */\n      dup3\n        /* \"#utility.yul\":8026:8031   */\n      dup2\n        /* \"#utility.yul\":8019:8040   */\n      mstore\n        /* \"#utility.yul\":8071:8075   */\n      0x20\n        /* \"#utility.yul\":8064:8069   */\n      dup2\n        /* \"#utility.yul\":8060:8076   */\n      add\n        /* \"#utility.yul\":8109:8112   */\n      dup5\n        /* \"#utility.yul\":8100:8106   */\n      dup5\n        /* \"#utility.yul\":8095:8098   */\n      dup5\n        /* \"#utility.yul\":8091:8107   */\n      add\n        /* \"#utility.yul\":8088:8113   */\n      gt\n        /* \"#utility.yul\":8085:8197   */\n      iszero\n      tag_197\n      jumpi\n        /* \"#utility.yul\":8116:8195   */\n      tag_198\n      tag_90\n      jump\t// in\n    tag_198:\n        /* \"#utility.yul\":8085:8197   */\n    tag_197:\n        /* \"#utility.yul\":8206:8260   */\n      tag_199\n        /* \"#utility.yul\":8253:8259   */\n      dup5\n        /* \"#utility.yul\":8248:8251   */\n      dup3\n        /* \"#utility.yul\":8243:8246   */\n      dup6\n        /* \"#utility.yul\":8206:8260   */\n      tag_95\n      jump\t// in\n    tag_199:\n        /* \"#utility.yul\":7925:8266   */\n      pop\n        /* \"#utility.yul\":7841:8266   */\n      swap4\n      swap3\n      pop\n      pop\n      pop\n      jump\t// out\n        /* \"#utility.yul\":8286:8626   */\n    tag_97:\n        /* \"#utility.yul\":8342:8347   */\n      0x00\n        /* \"#utility.yul\":8391:8394   */\n      dup3\n        /* \"#utility.yul\":8384:8388   */\n      0x1f\n        /* \"#utility.yul\":8376:8382   */\n      dup4\n        /* \"#utility.yul\":8372:8389   */\n      add\n        /* \"#utility.yul\":8368:8395   */\n      slt\n        /* \"#utility.yul\":8358:8480   */\n      tag_201\n      jumpi\n        /* \"#utility.yul\":8399:8478   */\n      tag_202\n      tag_89\n      jump\t// in\n    tag_202:\n        /* \"#utility.yul\":8358:8480   */\n    tag_201:\n        /* \"#utility.yul\":8516:8522   */\n      dup2\n        /* \"#utility.yul\":8503:8523   */\n      calldataload\n        /* \"#utility.yul\":8541:8620   */\n      tag_203\n        /* \"#utility.yul\":8616:8619   */\n      dup5\n        /* \"#utility.yul\":8608:8614   */\n      dup3\n        /* \"#utility.yul\":8601:8605   */\n      0x20\n        /* \"#utility.yul\":8593:8599   */\n      dup7\n        /* \"#utility.yul\":8589:8606   */\n      add\n        /* \"#utility.yul\":8541:8620   */\n      tag_96\n      jump\t// in\n    tag_203:\n        /* \"#utility.yul\":8532:8620   */\n      swap2\n      pop\n        /* \"#utility.yul\":8348:8626   */\n      pop\n        /* \"#utility.yul\":8286:8626   */\n      swap3\n      swap2\n      pop\n      pop\n      jump\t// out\n        /* \"#utility.yul\":8632:9757   */\n    tag_21:\n        /* \"#utility.yul\":8738:8744   */\n      0x00\n        /* \"#utility.yul\":8746:8752   */\n      dup1\n        /* \"#utility.yul\":8754:8760   */\n      0x00\n        /* \"#utility.yul\":8762:8768   */\n      dup1\n        /* \"#utility.yul\":8811:8814   */\n      0x80\n        /* \"#utility.yul\":8799:8808   */\n      dup6\n        /* \"#utility.yul\":8790:8797   */\n      dup8\n        /* \"#utility.yul\":8786:8809   */\n      sub\n        /* \"#utility.yul\":8782:8815   */\n      slt\n        /* \"#utility.yul\":8779:8899   */\n      iszero\n      tag_205\n      jumpi\n        /* \"#utility.yul\":8818:8897   */\n      tag_206\n      tag_85\n      jump\t// in\n    tag_206:\n        /* \"#utility.yul\":8779:8899   */\n    tag_205:\n        /* \"#utility.yul\":8938:8939   */\n      0x00\n        /* \"#utility.yul\":8963:9016   */\n      tag_207\n        /* \"#utility.yul\":9008:9015   */\n      dup8\n        /* \"#utility.yul\":8999:9005   */\n      dup3\n        /* \"#utility.yul\":8988:8997   */\n      dup9\n        /* \"#utility.yul\":8984:9006   */\n      add\n        /* \"#utility.yul\":8963:9016   */\n      tag_88\n      jump\t// in\n    tag_207:\n        /* \"#utility.yul\":8953:9016   */\n      swap5\n      pop\n        /* \"#utility.yul\":8909:9026   */\n      pop\n        /* \"#utility.yul\":9065:9067   */\n      0x20\n        /* \"#utility.yul\":9091:9144   */\n      tag_208\n        /* \"#utility.yul\":9136:9143   */\n      dup8\n        /* \"#utility.yul\":9127:9133   */\n      dup3\n        /* \"#utility.yul\":9116:9125   */\n      dup9\n        /* \"#utility.yul\":9112:9134   */\n      add\n        /* \"#utility.yul\":9091:9144   */\n      tag_88\n      jump\t// in\n    tag_208:\n        /* \"#utility.yul\":9081:9144   */\n      swap4\n      pop\n        /* \"#utility.yul\":9036:9154   */\n      pop\n        /* \"#utility.yul\":9221:9223   */\n      0x40\n        /* \"#utility.yul\":9210:9219   */\n      dup6\n        /* \"#utility.yul\":9206:9224   */\n      add\n        /* \"#utility.yul\":9193:9225   */\n      calldataload\n        /* \"#utility.yul\":9252:9270   */\n      0xffffffffffffffff\n        /* \"#utility.yul\":9244:9250   */\n      dup2\n        /* \"#utility.yul\":9241:9271   */\n      gt\n        /* \"#utility.yul\":9238:9355   */\n      iszero\n      tag_209\n      jumpi\n        /* \"#utility.yul\":9274:9353   */\n      tag_210\n      tag_86\n      jump\t// in\n    tag_210:\n        /* \"#utility.yul\":9238:9355   */\n    tag_209:\n        /* \"#utility.yul\":9379:9442   */\n      tag_211\n        /* \"#utility.yul\":9434:9441   */\n      dup8\n        /* \"#utility.yul\":9425:9431   */\n      dup3\n        /* \"#utility.yul\":9414:9423   */\n      dup9\n        /* \"#utility.yul\":9410:9432   */\n      add\n        /* \"#utility.yul\":9379:9442   */\n      tag_97\n      jump\t// in\n    tag_211:\n        /* \"#utility.yul\":9369:9442   */\n      swap3\n      pop\n        /* \"#utility.yul\":9164:9452   */\n      pop\n        /* \"#utility.yul\":9519:9521   */\n      0x60\n        /* \"#utility.yul\":9508:9517   */\n      dup6\n        /* \"#utility.yul\":9504:9522   */\n      add\n        /* \"#utility.yul\":9491:9523   */\n      calldataload\n        /* \"#utility.yul\":9550:9568   */\n      0xffffffffffffffff\n        /* \"#utility.yul\":9542:9548   */\n      dup2\n        /* \"#utility.yul\":9539:9569   */\n      gt\n        /* \"#utility.yul\":9536:9653   */\n      iszero\n      tag_212\n      jumpi\n        /* \"#utility.yul\":9572:9651   */\n      tag_213\n      tag_86\n      jump\t// in\n    tag_213:\n        /* \"#utility.yul\":9536:9653   */\n    tag_212:\n        /* \"#utility.yul\":9677:9740   */\n      tag_214\n        /* \"#utility.yul\":9732:9739   */\n      dup8\n        /* \"#utility.yul\":9723:9729   */\n      dup3\n        /* \"#utility.yul\":9712:9721   */\n      dup9\n        /* \"#utility.yul\":9708:9730   */\n      add\n        /* \"#utility.yul\":9677:9740   */\n      tag_97\n      jump\t// in\n    tag_214:\n        /* \"#utility.yul\":9667:9740   */\n      swap2\n      pop\n        /* \"#utility.yul\":9462:9750   */\n      pop\n        /* \"#utility.yul\":8632:9757   */\n      swap3\n      swap6\n      swap2\n      swap5\n      pop\n      swap3\n      pop\n      jump\t// out\n        /* \"#utility.yul\":9763:9823   */\n    tag_98:\n        /* \"#utility.yul\":9791:9794   */\n      0x00\n        /* \"#utility.yul\":9812:9817   */\n      dup2\n        /* \"#utility.yul\":9805:9817   */\n      swap1\n      pop\n        /* \"#utility.yul\":9763:9823   */\n      swap2\n      swap1\n      pop\n      jump\t// out\n        /* \"#utility.yul\":9829:9971   */\n    tag_99:\n        /* \"#utility.yul\":9879:9888   */\n      0x00\n        /* \"#utility.yul\":9912:9965   */\n      tag_217\n        /* \"#utility.yul\":9930:9964   */\n      tag_218\n        /* \"#utility.yul\":9939:9963   */\n      tag_219\n        /* \"#utility.yul\":9957:9962   */\n      dup5\n        /* \"#utility.yul\":9939:9963   */\n      tag_71\n      jump\t// in\n    tag_219:\n        /* \"#utility.yul\":9930:9964   */\n      tag_98\n      jump\t// in\n    tag_218:\n        /* \"#utility.yul\":9912:9965   */\n      tag_71\n      jump\t// in\n    tag_217:\n        /* \"#utility.yul\":9899:9965   */\n      swap1\n      pop\n        /* \"#utility.yul\":9829:9971   */\n      swap2\n      swap1\n      pop\n      jump\t// out\n        /* \"#utility.yul\":9977:10103   */\n    tag_100:\n        /* \"#utility.yul\":10027:10036   */\n      0x00\n        /* \"#utility.yul\":10060:10097   */\n      tag_221\n        /* \"#utility.yul\":10091:10096   */\n      dup3\n        /* \"#utility.yul\":10060:10097   */\n      tag_99\n      jump\t// in\n    tag_221:\n        /* \"#utility.yul\":10047:10097   */\n      swap1\n      pop\n        /* \"#utility.yul\":9977:10103   */\n      swap2\n      swap1\n      pop\n      jump\t// out\n        /* \"#utility.yul\":10109:10259   */\n    tag_101:\n        /* \"#utility.yul\":10183:10192   */\n      0x00\n        /* \"#utility.yul\":10216:10253   */\n      tag_223\n        /* \"#utility.yul\":10247:10252   */\n      dup3\n        /* \"#utility.yul\":10216:10253   */\n      tag_100\n      jump\t// in\n    tag_223:\n        /* \"#utility.yul\":10203:10253   */\n      swap1\n      pop\n        /* \"#utility.yul\":10109:10259   */\n      swap2\n      swap1\n      pop\n      jump\t// out\n        /* \"#utility.yul\":10265:10444   */\n    tag_102:\n        /* \"#utility.yul\":10376:10437   */\n      tag_225\n        /* \"#utility.yul\":10431:10436   */\n      dup2\n        /* \"#utility.yul\":10376:10437   */\n      tag_101\n      jump\t// in\n    tag_225:\n        /* \"#utility.yul\":10371:10374   */\n      dup3\n        /* \"#utility.yul\":10364:10438   */\n      mstore\n        /* \"#utility.yul\":10265:10444   */\n      pop\n      pop\n      jump\t// out\n        /* \"#utility.yul\":10450:10720   */\n    tag_26:\n        /* \"#utility.yul\":10567:10571   */\n      0x00\n        /* \"#utility.yul\":10605:10607   */\n      0x20\n        /* \"#utility.yul\":10594:10603   */\n      dup3\n        /* \"#utility.yul\":10590:10608   */\n      add\n        /* \"#utility.yul\":10582:10608   */\n      swap1\n      pop\n        /* \"#utility.yul\":10618:10713   */\n      tag_227\n        /* \"#utility.yul\":10710:10711   */\n      0x00\n        /* \"#utility.yul\":10699:10708   */\n      dup4\n        /* \"#utility.yul\":10695:10712   */\n      add\n        /* \"#utility.yul\":10686:10692   */\n      dup5\n        /* \"#utility.yul\":10618:10713   */\n      tag_102\n      jump\t// in\n    tag_227:\n        /* \"#utility.yul\":10450:10720   */\n      swap3\n      swap2\n      pop\n      pop\n      jump\t// out\n        /* \"#utility.yul\":10726:10848   */\n    tag_103:\n        /* \"#utility.yul\":10799:10823   */\n      tag_229\n        /* \"#utility.yul\":10817:10822   */\n      dup2\n        /* \"#utility.yul\":10799:10823   */\n      tag_72\n      jump\t// in\n    tag_229:\n        /* \"#utility.yul\":10792:10797   */\n      dup2\n        /* \"#utility.yul\":10789:10824   */\n      eq\n        /* \"#utility.yul\":10779:10842   */\n      tag_230\n      jumpi\n        /* \"#utility.yul\":10838:10839   */\n      0x00\n        /* \"#utility.yul\":10835:10836   */\n      dup1\n        /* \"#utility.yul\":10828:10840   */\n      revert\n        /* \"#utility.yul\":10779:10842   */\n    tag_230:\n        /* \"#utility.yul\":10726:10848   */\n      pop\n      jump\t// out\n        /* \"#utility.yul\":10854:10993   */\n    tag_104:\n        /* \"#utility.yul\":10900:10905   */\n      0x00\n        /* \"#utility.yul\":10938:10944   */\n      dup2\n        /* \"#utility.yul\":10925:10945   */\n      calldataload\n        /* \"#utility.yul\":10916:10945   */\n      swap1\n      pop\n        /* \"#utility.yul\":10954:10987   */\n      tag_232\n        /* \"#utility.yul\":10981:10986   */\n      dup2\n        /* \"#utility.yul\":10954:10987   */\n      tag_103\n      jump\t// in\n    tag_232:\n        /* \"#utility.yul\":10854:10993   */\n      swap3\n      swap2\n      pop\n      pop\n      jump\t// out\n        /* \"#utility.yul\":10999:11328   */\n    tag_29:\n        /* \"#utility.yul\":11058:11064   */\n      0x00\n        /* \"#utility.yul\":11107:11109   */\n      0x20\n        /* \"#utility.yul\":11095:11104   */\n      dup3\n        /* \"#utility.yul\":11086:11093   */\n      dup5\n        /* \"#utility.yul\":11082:11105   */\n      sub\n        /* \"#utility.yul\":11078:11110   */\n      slt\n        /* \"#utility.yul\":11075:11194   */\n      iszero\n      tag_234\n      jumpi\n        /* \"#utility.yul\":11113:11192   */\n      tag_235\n      tag_85\n      jump\t// in\n    tag_235:\n        /* \"#utility.yul\":11075:11194   */\n    tag_234:\n        /* \"#utility.yul\":11233:11234   */\n      0x00\n        /* \"#utility.yul\":11258:11311   */\n      tag_236\n        /* \"#utility.yul\":11303:11310   */\n      dup5\n        /* \"#utility.yul\":11294:11300   */\n      dup3\n        /* \"#utility.yul\":11283:11292   */\n      dup6\n        /* \"#utility.yul\":11279:11301   */\n      add\n        /* \"#utility.yul\":11258:11311   */\n      tag_104\n      jump\t// in\n    tag_236:\n        /* \"#utility.yul\":11248:11311   */\n      swap2\n      pop\n        /* \"#utility.yul\":11204:11321   */\n      pop\n        /* \"#utility.yul\":10999:11328   */\n      swap3\n      swap2\n      pop\n      pop\n      jump\t// out\n        /* \"#utility.yul\":11334:11670   */\n    tag_105:\n        /* \"#utility.yul\":11436:11440   */\n      0x00\n        /* \"#utility.yul\":11526:11544   */\n      0xffffffffffffffff\n        /* \"#utility.yul\":11518:11524   */\n      dup3\n        /* \"#utility.yul\":11515:11545   */\n      gt\n        /* \"#utility.yul\":11512:11568   */\n      iszero\n      tag_238\n      jumpi\n        /* \"#utility.yul\":11548:11566   */\n      tag_239\n      tag_91\n      jump\t// in\n    tag_239:\n        /* \"#utility.yul\":11512:11568   */\n    tag_238:\n        /* \"#utility.yul\":11598:11602   */\n      0x20\n        /* \"#utility.yul\":11590:11596   */\n      dup3\n        /* \"#utility.yul\":11586:11603   */\n      mul\n        /* \"#utility.yul\":11578:11603   */\n      swap1\n      pop\n        /* \"#utility.yul\":11658:11662   */\n      0x20\n        /* \"#utility.yul\":11652:11656   */\n      dup2\n        /* \"#utility.yul\":11648:11663   */\n      add\n        /* \"#utility.yul\":11640:11663   */\n      swap1\n      pop\n        /* \"#utility.yul\":11334:11670   */\n      swap2\n      swap1\n      pop\n      jump\t// out\n        /* \"#utility.yul\":11676:11793   */\n    tag_106:\n        /* \"#utility.yul\":11785:11786   */\n      0x00\n        /* \"#utility.yul\":11782:11783   */\n      dup1\n        /* \"#utility.yul\":11775:11787   */\n      revert\n        /* \"#utility.yul\":11799:11916   */\n    tag_107:\n        /* \"#utility.yul\":11908:11909   */\n      0x00\n        /* \"#utility.yul\":11905:11906   */\n      dup1\n        /* \"#utility.yul\":11898:11910   */\n      revert\n        /* \"#utility.yul\":11922:12039   */\n    tag_108:\n        /* \"#utility.yul\":12031:12032   */\n      0x00\n        /* \"#utility.yul\":12028:12029   */\n      dup1\n        /* \"#utility.yul\":12021:12033   */\n      revert\n        /* \"#utility.yul\":12045:12188   */\n    tag_109:\n        /* \"#utility.yul\":12102:12107   */\n      0x00\n        /* \"#utility.yul\":12133:12139   */\n      dup2\n        /* \"#utility.yul\":12127:12140   */\n      mload\n        /* \"#utility.yul\":12118:12140   */\n      swap1\n      pop\n        /* \"#utility.yul\":12149:12182   */\n      tag_244\n        /* \"#utility.yul\":12176:12181   */\n      dup2\n        /* \"#utility.yul\":12149:12182   */\n      tag_87\n      jump\t// in\n    tag_244:\n        /* \"#utility.yul\":12045:12188   */\n      swap3\n      swap2\n      pop\n      pop\n      jump\t// out\n        /* \"#utility.yul\":12194:12337   */\n    tag_110:\n        /* \"#utility.yul\":12251:12256   */\n      0x00\n        /* \"#utility.yul\":12282:12288   */\n      dup2\n        /* \"#utility.yul\":12276:12289   */\n      mload\n        /* \"#utility.yul\":12267:12289   */\n      swap1\n      pop\n        /* \"#utility.yul\":12298:12331   */\n      tag_246\n        /* \"#utility.yul\":12325:12330   */\n      dup2\n        /* \"#utility.yul\":12298:12331   */\n      tag_103\n      jump\t// in\n    tag_246:\n        /* \"#utility.yul\":12194:12337   */\n      swap3\n      swap2\n      pop\n      pop\n      jump\t// out\n        /* \"#utility.yul\":12343:12777   */\n    tag_111:\n        /* \"#utility.yul\":12432:12437   */\n      0x00\n        /* \"#utility.yul\":12457:12523   */\n      tag_248\n        /* \"#utility.yul\":12473:12522   */\n      tag_249\n        /* \"#utility.yul\":12515:12521   */\n      dup5\n        /* \"#utility.yul\":12473:12522   */\n      tag_94\n      jump\t// in\n    tag_249:\n        /* \"#utility.yul\":12457:12523   */\n      tag_93\n      jump\t// in\n    tag_248:\n        /* \"#utility.yul\":12448:12523   */\n      swap1\n      pop\n        /* \"#utility.yul\":12546:12552   */\n      dup3\n        /* \"#utility.yul\":12539:12544   */\n      dup2\n        /* \"#utility.yul\":12532:12553   */\n      mstore\n        /* \"#utility.yul\":12584:12588   */\n      0x20\n        /* \"#utility.yul\":12577:12582   */\n      dup2\n        /* \"#utility.yul\":12573:12589   */\n      add\n        /* \"#utility.yul\":12622:12625   */\n      dup5\n        /* \"#utility.yul\":12613:12619   */\n      dup5\n        /* \"#utility.yul\":12608:12611   */\n      dup5\n        /* \"#utility.yul\":12604:12620   */\n      add\n        /* \"#utility.yul\":12601:12626   */\n      gt\n        /* \"#utility.yul\":12598:12710   */\n      iszero\n      tag_250\n      jumpi\n        /* \"#utility.yul\":12629:12708   */\n      tag_251\n      tag_90\n      jump\t// in\n    tag_251:\n        /* \"#utility.yul\":12598:12710   */\n    tag_250:\n        /* \"#utility.yul\":12719:12771   */\n      tag_252\n        /* \"#utility.yul\":12764:12770   */\n      dup5\n        /* \"#utility.yul\":12759:12762   */\n      dup3\n        /* \"#utility.yul\":12754:12757   */\n      dup6\n        /* \"#utility.yul\":12719:12771   */\n      tag_76\n      jump\t// in\n    tag_252:\n        /* \"#utility.yul\":12438:12777   */\n      pop\n        /* \"#utility.yul\":12343:12777   */\n      swap4\n      swap3\n      pop\n      pop\n      pop\n      jump\t// out\n        /* \"#utility.yul\":12797:13152   */\n    tag_112:\n        /* \"#utility.yul\":12864:12869   */\n      0x00\n        /* \"#utility.yul\":12913:12916   */\n      dup3\n        /* \"#utility.yul\":12906:12910   */\n      0x1f\n        /* \"#utility.yul\":12898:12904   */\n      dup4\n        /* \"#utility.yul\":12894:12911   */\n      add\n        /* \"#utility.yul\":12890:12917   */\n      slt\n        /* \"#utility.yul\":12880:13002   */\n      tag_254\n      jumpi\n        /* \"#utility.yul\":12921:13000   */\n      tag_255\n      tag_89\n      jump\t// in\n    tag_255:\n        /* \"#utility.yul\":12880:13002   */\n    tag_254:\n        /* \"#utility.yul\":13031:13037   */\n      dup2\n        /* \"#utility.yul\":13025:13038   */\n      mload\n        /* \"#utility.yul\":13056:13146   */\n      tag_256\n        /* \"#utility.yul\":13142:13145   */\n      dup5\n        /* \"#utility.yul\":13134:13140   */\n      dup3\n        /* \"#utility.yul\":13127:13131   */\n      0x20\n        /* \"#utility.yul\":13119:13125   */\n      dup7\n        /* \"#utility.yul\":13115:13132   */\n      add\n        /* \"#utility.yul\":13056:13146   */\n      tag_111\n      jump\t// in\n    tag_256:\n        /* \"#utility.yul\":13047:13146   */\n      swap2\n      pop\n        /* \"#utility.yul\":12870:13152   */\n      pop\n        /* \"#utility.yul\":12797:13152   */\n      swap3\n      swap2\n      pop\n      pop\n      jump\t// out\n        /* \"#utility.yul\":13181:14846   */\n    tag_113:\n        /* \"#utility.yul\":13266:13271   */\n      0x00\n        /* \"#utility.yul\":13310:13314   */\n      0xc0\n        /* \"#utility.yul\":13298:13307   */\n      dup3\n        /* \"#utility.yul\":13293:13296   */\n      dup5\n        /* \"#utility.yul\":13289:13308   */\n      sub\n        /* \"#utility.yul\":13285:13315   */\n      slt\n        /* \"#utility.yul\":13282:13399   */\n      iszero\n      tag_258\n      jumpi\n        /* \"#utility.yul\":13318:13397   */\n      tag_259\n      tag_107\n      jump\t// in\n    tag_259:\n        /* \"#utility.yul\":13282:13399   */\n    tag_258:\n        /* \"#utility.yul\":13417:13438   */\n      tag_260\n        /* \"#utility.yul\":13433:13437   */\n      0xc0\n        /* \"#utility.yul\":13417:13438   */\n      tag_93\n      jump\t// in\n    tag_260:\n        /* \"#utility.yul\":13408:13438   */\n      swap1\n      pop\n        /* \"#utility.yul\":13503:13504   */\n      0x00\n        /* \"#utility.yul\":13543:13603   */\n      tag_261\n        /* \"#utility.yul\":13599:13602   */\n      dup5\n        /* \"#utility.yul\":13590:13596   */\n      dup3\n        /* \"#utility.yul\":13579:13588   */\n      dup6\n        /* \"#utility.yul\":13575:13597   */\n      add\n        /* \"#utility.yul\":13543:13603   */\n      tag_109\n      jump\t// in\n    tag_261:\n        /* \"#utility.yul\":13536:13540   */\n      0x00\n        /* \"#utility.yul\":13529:13534   */\n      dup4\n        /* \"#utility.yul\":13525:13541   */\n      add\n        /* \"#utility.yul\":13518:13604   */\n      mstore\n        /* \"#utility.yul\":13448:13615   */\n      pop\n        /* \"#utility.yul\":13681:13683   */\n      0x20\n        /* \"#utility.yul\":13722:13782   */\n      tag_262\n        /* \"#utility.yul\":13778:13781   */\n      dup5\n        /* \"#utility.yul\":13769:13775   */\n      dup3\n        /* \"#utility.yul\":13758:13767   */\n      dup6\n        /* \"#utility.yul\":13754:13776   */\n      add\n        /* \"#utility.yul\":13722:13782   */\n      tag_109\n      jump\t// in\n    tag_262:\n        /* \"#utility.yul\":13715:13719   */\n      0x20\n        /* \"#utility.yul\":13708:13713   */\n      dup4\n        /* \"#utility.yul\":13704:13720   */\n      add\n        /* \"#utility.yul\":13697:13783   */\n      mstore\n        /* \"#utility.yul\":13625:13794   */\n      pop\n        /* \"#utility.yul\":13856:13858   */\n      0x40\n        /* \"#utility.yul\":13897:13957   */\n      tag_263\n        /* \"#utility.yul\":13953:13956   */\n      dup5\n        /* \"#utility.yul\":13944:13950   */\n      dup3\n        /* \"#utility.yul\":13933:13942   */\n      dup6\n        /* \"#utility.yul\":13929:13951   */\n      add\n        /* \"#utility.yul\":13897:13957   */\n      tag_109\n      jump\t// in\n    tag_263:\n        /* \"#utility.yul\":13890:13894   */\n      0x40\n        /* \"#utility.yul\":13883:13888   */\n      dup4\n        /* \"#utility.yul\":13879:13895   */\n      add\n        /* \"#utility.yul\":13872:13958   */\n      mstore\n        /* \"#utility.yul\":13804:13969   */\n      pop\n        /* \"#utility.yul\":14035:14037   */\n      0x60\n        /* \"#utility.yul\":14076:14136   */\n      tag_264\n        /* \"#utility.yul\":14132:14135   */\n      dup5\n        /* \"#utility.yul\":14123:14129   */\n      dup3\n        /* \"#utility.yul\":14112:14121   */\n      dup6\n        /* \"#utility.yul\":14108:14130   */\n      add\n        /* \"#utility.yul\":14076:14136   */\n      tag_110\n      jump\t// in\n    tag_264:\n        /* \"#utility.yul\":14069:14073   */\n      0x60\n        /* \"#utility.yul\":14062:14067   */\n      dup4\n        /* \"#utility.yul\":14058:14074   */\n      add\n        /* \"#utility.yul\":14051:14137   */\n      mstore\n        /* \"#utility.yul\":13979:14148   */\n      pop\n        /* \"#utility.yul\":14239:14242   */\n      0x80\n        /* \"#utility.yul\":14228:14237   */\n      dup3\n        /* \"#utility.yul\":14224:14243   */\n      add\n        /* \"#utility.yul\":14218:14244   */\n      mload\n        /* \"#utility.yul\":14271:14289   */\n      0xffffffffffffffff\n        /* \"#utility.yul\":14263:14269   */\n      dup2\n        /* \"#utility.yul\":14260:14290   */\n      gt\n        /* \"#utility.yul\":14257:14374   */\n      iszero\n      tag_265\n      jumpi\n        /* \"#utility.yul\":14293:14372   */\n      tag_266\n      tag_108\n      jump\t// in\n    tag_266:\n        /* \"#utility.yul\":14257:14374   */\n    tag_265:\n        /* \"#utility.yul\":14413:14483   */\n      tag_267\n        /* \"#utility.yul\":14479:14482   */\n      dup5\n        /* \"#utility.yul\":14470:14476   */\n      dup3\n        /* \"#utility.yul\":14459:14468   */\n      dup6\n        /* \"#utility.yul\":14455:14477   */\n      add\n        /* \"#utility.yul\":14413:14483   */\n      tag_112\n      jump\t// in\n    tag_267:\n        /* \"#utility.yul\":14406:14410   */\n      0x80\n        /* \"#utility.yul\":14399:14404   */\n      dup4\n        /* \"#utility.yul\":14395:14411   */\n      add\n        /* \"#utility.yul\":14388:14484   */\n      mstore\n        /* \"#utility.yul\":14158:14495   */\n      pop\n        /* \"#utility.yul\":14583:14586   */\n      0xa0\n        /* \"#utility.yul\":14572:14581   */\n      dup3\n        /* \"#utility.yul\":14568:14587   */\n      add\n        /* \"#utility.yul\":14562:14588   */\n      mload\n        /* \"#utility.yul\":14615:14633   */\n      0xffffffffffffffff\n        /* \"#utility.yul\":14607:14613   */\n      dup2\n        /* \"#utility.yul\":14604:14634   */\n      gt\n        /* \"#utility.yul\":14601:14718   */\n      iszero\n      tag_268\n      jumpi\n        /* \"#utility.yul\":14637:14716   */\n      tag_269\n      tag_108\n      jump\t// in\n    tag_269:\n        /* \"#utility.yul\":14601:14718   */\n    tag_268:\n        /* \"#utility.yul\":14757:14827   */\n      tag_270\n        /* \"#utility.yul\":14823:14826   */\n      dup5\n        /* \"#utility.yul\":14814:14820   */\n      dup3\n        /* \"#utility.yul\":14803:14812   */\n      dup6\n        /* \"#utility.yul\":14799:14821   */\n      add\n        /* \"#utility.yul\":14757:14827   */\n      tag_112\n      jump\t// in\n    tag_270:\n        /* \"#utility.yul\":14750:14754   */\n      0xa0\n        /* \"#utility.yul\":14743:14748   */\n      dup4\n        /* \"#utility.yul\":14739:14755   */\n      add\n        /* \"#utility.yul\":14732:14828   */\n      mstore\n        /* \"#utility.yul\":14505:14839   */\n      pop\n        /* \"#utility.yul\":13181:14846   */\n      swap3\n      swap2\n      pop\n      pop\n      jump\t// out\n        /* \"#utility.yul\":14877:15882   */\n    tag_114:\n        /* \"#utility.yul\":15009:15014   */\n      0x00\n        /* \"#utility.yul\":15034:15140   */\n      tag_272\n        /* \"#utility.yul\":15050:15139   */\n      tag_273\n        /* \"#utility.yul\":15132:15138   */\n      dup5\n        /* \"#utility.yul\":15050:15139   */\n      tag_105\n      jump\t// in\n    tag_273:\n        /* \"#utility.yul\":15034:15140   */\n      tag_93\n      jump\t// in\n    tag_272:\n        /* \"#utility.yul\":15025:15140   */\n      swap1\n      pop\n        /* \"#utility.yul\":15160:15165   */\n      dup1\n        /* \"#utility.yul\":15189:15195   */\n      dup4\n        /* \"#utility.yul\":15182:15187   */\n      dup3\n        /* \"#utility.yul\":15175:15196   */\n      mstore\n        /* \"#utility.yul\":15223:15227   */\n      0x20\n        /* \"#utility.yul\":15216:15221   */\n      dup3\n        /* \"#utility.yul\":15212:15228   */\n      add\n        /* \"#utility.yul\":15205:15228   */\n      swap1\n      pop\n        /* \"#utility.yul\":15276:15280   */\n      0x20\n        /* \"#utility.yul\":15268:15274   */\n      dup5\n        /* \"#utility.yul\":15264:15281   */\n      mul\n        /* \"#utility.yul\":15256:15262   */\n      dup4\n        /* \"#utility.yul\":15252:15282   */\n      add\n        /* \"#utility.yul\":15305:15308   */\n      dup6\n        /* \"#utility.yul\":15297:15303   */\n      dup2\n        /* \"#utility.yul\":15294:15309   */\n      gt\n        /* \"#utility.yul\":15291:15413   */\n      iszero\n      tag_274\n      jumpi\n        /* \"#utility.yul\":15324:15403   */\n      tag_275\n      tag_106\n      jump\t// in\n    tag_275:\n        /* \"#utility.yul\":15291:15413   */\n    tag_274:\n        /* \"#utility.yul\":15439:15445   */\n      dup4\n        /* \"#utility.yul\":15422:15876   */\n    tag_276:\n        /* \"#utility.yul\":15456:15462   */\n      dup2\n        /* \"#utility.yul\":15451:15454   */\n      dup2\n        /* \"#utility.yul\":15448:15463   */\n      lt\n        /* \"#utility.yul\":15422:15876   */\n      iszero\n      tag_278\n      jumpi\n        /* \"#utility.yul\":15538:15541   */\n      dup1\n        /* \"#utility.yul\":15532:15542   */\n      mload\n        /* \"#utility.yul\":15574:15592   */\n      0xffffffffffffffff\n        /* \"#utility.yul\":15561:15572   */\n      dup2\n        /* \"#utility.yul\":15558:15593   */\n      gt\n        /* \"#utility.yul\":15555:15677   */\n      iszero\n      tag_279\n      jumpi\n        /* \"#utility.yul\":15596:15675   */\n      tag_280\n      tag_89\n      jump\t// in\n    tag_280:\n        /* \"#utility.yul\":15555:15677   */\n    tag_279:\n        /* \"#utility.yul\":15720:15731   */\n      dup1\n        /* \"#utility.yul\":15712:15718   */\n      dup7\n        /* \"#utility.yul\":15708:15732   */\n      add\n        /* \"#utility.yul\":15758:15831   */\n      tag_281\n        /* \"#utility.yul\":15827:15830   */\n      dup10\n        /* \"#utility.yul\":15815:15825   */\n      dup3\n        /* \"#utility.yul\":15758:15831   */\n      tag_113\n      jump\t// in\n    tag_281:\n        /* \"#utility.yul\":15753:15756   */\n      dup6\n        /* \"#utility.yul\":15746:15832   */\n      mstore\n        /* \"#utility.yul\":15861:15865   */\n      0x20\n        /* \"#utility.yul\":15856:15859   */\n      dup6\n        /* \"#utility.yul\":15852:15866   */\n      add\n        /* \"#utility.yul\":15845:15866   */\n      swap5\n      pop\n        /* \"#utility.yul\":15498:15876   */\n      pop\n      pop\n        /* \"#utility.yul\":15482:15486   */\n      0x20\n        /* \"#utility.yul\":15477:15480   */\n      dup2\n        /* \"#utility.yul\":15473:15487   */\n      add\n        /* \"#utility.yul\":15466:15487   */\n      swap1\n      pop\n        /* \"#utility.yul\":15422:15876   */\n      jump(tag_276)\n    tag_278:\n        /* \"#utility.yul\":15426:15447   */\n      pop\n        /* \"#utility.yul\":15015:15882   */\n      pop\n      pop\n        /* \"#utility.yul\":14877:15882   */\n      swap4\n      swap3\n      pop\n      pop\n      pop\n      jump\t// out\n        /* \"#utility.yul\":15913:16348   */\n    tag_115:\n        /* \"#utility.yul\":16020:16025   */\n      0x00\n        /* \"#utility.yul\":16069:16072   */\n      dup3\n        /* \"#utility.yul\":16062:16066   */\n      0x1f\n        /* \"#utility.yul\":16054:16060   */\n      dup4\n        /* \"#utility.yul\":16050:16067   */\n      add\n        /* \"#utility.yul\":16046:16073   */\n      slt\n        /* \"#utility.yul\":16036:16158   */\n      tag_283\n      jumpi\n        /* \"#utility.yul\":16077:16156   */\n      tag_284\n      tag_89\n      jump\t// in\n    tag_284:\n        /* \"#utility.yul\":16036:16158   */\n    tag_283:\n        /* \"#utility.yul\":16187:16193   */\n      dup2\n        /* \"#utility.yul\":16181:16194   */\n      mload\n        /* \"#utility.yul\":16212:16342   */\n      tag_285\n        /* \"#utility.yul\":16338:16341   */\n      dup5\n        /* \"#utility.yul\":16330:16336   */\n      dup3\n        /* \"#utility.yul\":16323:16327   */\n      0x20\n        /* \"#utility.yul\":16315:16321   */\n      dup7\n        /* \"#utility.yul\":16311:16328   */\n      add\n        /* \"#utility.yul\":16212:16342   */\n      tag_114\n      jump\t// in\n    tag_285:\n        /* \"#utility.yul\":16203:16342   */\n      swap2\n      pop\n        /* \"#utility.yul\":16026:16348   */\n      pop\n        /* \"#utility.yul\":15913:16348   */\n      swap3\n      swap2\n      pop\n      pop\n      jump\t// out\n        /* \"#utility.yul\":16354:16958   */\n    tag_38:\n        /* \"#utility.yul\":16474:16480   */\n      0x00\n        /* \"#utility.yul\":16523:16525   */\n      0x20\n        /* \"#utility.yul\":16511:16520   */\n      dup3\n        /* \"#utility.yul\":16502:16509   */\n      dup5\n        /* \"#utility.yul\":16498:16521   */\n      sub\n        /* \"#utility.yul\":16494:16526   */\n      slt\n        /* \"#utility.yul\":16491:16610   */\n      iszero\n      tag_287\n      jumpi\n        /* \"#utility.yul\":16529:16608   */\n      tag_288\n      tag_85\n      jump\t// in\n    tag_288:\n        /* \"#utility.yul\":16491:16610   */\n    tag_287:\n        /* \"#utility.yul\":16670:16671   */\n      0x00\n        /* \"#utility.yul\":16659:16668   */\n      dup3\n        /* \"#utility.yul\":16655:16672   */\n      add\n        /* \"#utility.yul\":16649:16673   */\n      mload\n        /* \"#utility.yul\":16700:16718   */\n      0xffffffffffffffff\n        /* \"#utility.yul\":16692:16698   */\n      dup2\n        /* \"#utility.yul\":16689:16719   */\n      gt\n        /* \"#utility.yul\":16686:16803   */\n      iszero\n      tag_289\n      jumpi\n        /* \"#utility.yul\":16722:16801   */\n      tag_290\n      tag_86\n      jump\t// in\n    tag_290:\n        /* \"#utility.yul\":16686:16803   */\n    tag_289:\n        /* \"#utility.yul\":16827:16941   */\n      tag_291\n        /* \"#utility.yul\":16933:16940   */\n      dup5\n        /* \"#utility.yul\":16924:16930   */\n      dup3\n        /* \"#utility.yul\":16913:16922   */\n      dup6\n        /* \"#utility.yul\":16909:16931   */\n      add\n        /* \"#utility.yul\":16827:16941   */\n      tag_115\n      jump\t// in\n    tag_291:\n        /* \"#utility.yul\":16817:16941   */\n      swap2\n      pop\n        /* \"#utility.yul\":16620:16951   */\n      pop\n        /* \"#utility.yul\":16354:16958   */\n      swap3\n      swap2\n      pop\n      pop\n      jump\t// out\n        /* \"#utility.yul\":17006:18421   */\n    tag_116:\n        /* \"#utility.yul\":17125:17128   */\n      0x00\n        /* \"#utility.yul\":17161:17165   */\n      0xc0\n        /* \"#utility.yul\":17156:17159   */\n      dup4\n        /* \"#utility.yul\":17152:17166   */\n      add\n        /* \"#utility.yul\":17254:17258   */\n      0x00\n        /* \"#utility.yul\":17247:17252   */\n      dup4\n        /* \"#utility.yul\":17243:17259   */\n      add\n        /* \"#utility.yul\":17237:17260   */\n      mload\n        /* \"#utility.yul\":17273:17336   */\n      tag_293\n        /* \"#utility.yul\":17330:17334   */\n      0x00\n        /* \"#utility.yul\":17325:17328   */\n      dup7\n        /* \"#utility.yul\":17321:17335   */\n      add\n        /* \"#utility.yul\":17307:17319   */\n      dup3\n        /* \"#utility.yul\":17273:17336   */\n      tag_70\n      jump\t// in\n    tag_293:\n        /* \"#utility.yul\":17176:17346   */\n      pop\n        /* \"#utility.yul\":17435:17439   */\n      0x20\n        /* \"#utility.yul\":17428:17433   */\n      dup4\n        /* \"#utility.yul\":17424:17440   */\n      add\n        /* \"#utility.yul\":17418:17441   */\n      mload\n        /* \"#utility.yul\":17454:17517   */\n      tag_294\n        /* \"#utility.yul\":17511:17515   */\n      0x20\n        /* \"#utility.yul\":17506:17509   */\n      dup7\n        /* \"#utility.yul\":17502:17516   */\n      add\n        /* \"#utility.yul\":17488:17500   */\n      dup3\n        /* \"#utility.yul\":17454:17517   */\n      tag_70\n      jump\t// in\n    tag_294:\n        /* \"#utility.yul\":17356:17527   */\n      pop\n        /* \"#utility.yul\":17612:17616   */\n      0x40\n        /* \"#utility.yul\":17605:17610   */\n      dup4\n        /* \"#utility.yul\":17601:17617   */\n      add\n        /* \"#utility.yul\":17595:17618   */\n      mload\n        /* \"#utility.yul\":17631:17694   */\n      tag_295\n        /* \"#utility.yul\":17688:17692   */\n      0x40\n        /* \"#utility.yul\":17683:17686   */\n      dup7\n        /* \"#utility.yul\":17679:17693   */\n      add\n        /* \"#utility.yul\":17665:17677   */\n      dup3\n        /* \"#utility.yul\":17631:17694   */\n      tag_70\n      jump\t// in\n    tag_295:\n        /* \"#utility.yul\":17537:17704   */\n      pop\n        /* \"#utility.yul\":17793:17797   */\n      0x60\n        /* \"#utility.yul\":17786:17791   */\n      dup4\n        /* \"#utility.yul\":17782:17798   */\n      add\n        /* \"#utility.yul\":17776:17799   */\n      mload\n        /* \"#utility.yul\":17812:17875   */\n      tag_296\n        /* \"#utility.yul\":17869:17873   */\n      0x60\n        /* \"#utility.yul\":17864:17867   */\n      dup7\n        /* \"#utility.yul\":17860:17874   */\n      add\n        /* \"#utility.yul\":17846:17858   */\n      dup3\n        /* \"#utility.yul\":17812:17875   */\n      tag_73\n      jump\t// in\n    tag_296:\n        /* \"#utility.yul\":17714:17885   */\n      pop\n        /* \"#utility.yul\":17978:17982   */\n      0x80\n        /* \"#utility.yul\":17971:17976   */\n      dup4\n        /* \"#utility.yul\":17967:17983   */\n      add\n        /* \"#utility.yul\":17961:17984   */\n      mload\n        /* \"#utility.yul\":18031:18034   */\n      dup5\n        /* \"#utility.yul\":18025:18029   */\n      dup3\n        /* \"#utility.yul\":18021:18035   */\n      sub\n        /* \"#utility.yul\":18014:18018   */\n      0x80\n        /* \"#utility.yul\":18009:18012   */\n      dup7\n        /* \"#utility.yul\":18005:18019   */\n      add\n        /* \"#utility.yul\":17998:18036   */\n      mstore\n        /* \"#utility.yul\":18057:18130   */\n      tag_297\n        /* \"#utility.yul\":18125:18129   */\n      dup3\n        /* \"#utility.yul\":18111:18123   */\n      dup3\n        /* \"#utility.yul\":18057:18130   */\n      tag_78\n      jump\t// in\n    tag_297:\n        /* \"#utility.yul\":18049:18130   */\n      swap2\n      pop\n        /* \"#utility.yul\":17895:18141   */\n      pop\n        /* \"#utility.yul\":18231:18235   */\n      0xa0\n        /* \"#utility.yul\":18224:18229   */\n      dup4\n        /* \"#utility.yul\":18220:18236   */\n      add\n        /* \"#utility.yul\":18214:18237   */\n      mload\n        /* \"#utility.yul\":18284:18287   */\n      dup5\n        /* \"#utility.yul\":18278:18282   */\n      dup3\n        /* \"#utility.yul\":18274:18288   */\n      sub\n        /* \"#utility.yul\":18267:18271   */\n      0xa0\n        /* \"#utility.yul\":18262:18265   */\n      dup7\n        /* \"#utility.yul\":18258:18272   */\n      add\n        /* \"#utility.yul\":18251:18289   */\n      mstore\n        /* \"#utility.yul\":18310:18383   */\n      tag_298\n        /* \"#utility.yul\":18378:18382   */\n      dup3\n        /* \"#utility.yul\":18364:18376   */\n      dup3\n        /* \"#utility.yul\":18310:18383   */\n      tag_78\n      jump\t// in\n    tag_298:\n        /* \"#utility.yul\":18302:18383   */\n      swap2\n      pop\n        /* \"#utility.yul\":18151:18394   */\n      pop\n        /* \"#utility.yul\":18411:18415   */\n      dup1\n        /* \"#utility.yul\":18404:18415   */\n      swap2\n      pop\n        /* \"#utility.yul\":17130:18421   */\n      pop\n        /* \"#utility.yul\":17006:18421   */\n      swap3\n      swap2\n      pop\n      pop\n      jump\t// out\n        /* \"#utility.yul\":18427:18800   */\n    tag_47:\n        /* \"#utility.yul\":18570:18574   */\n      0x00\n        /* \"#utility.yul\":18608:18610   */\n      0x20\n        /* \"#utility.yul\":18597:18606   */\n      dup3\n        /* \"#utility.yul\":18593:18611   */\n      add\n        /* \"#utility.yul\":18585:18611   */\n      swap1\n      pop\n        /* \"#utility.yul\":18657:18666   */\n      dup2\n        /* \"#utility.yul\":18651:18655   */\n      dup2\n        /* \"#utility.yul\":18647:18667   */\n      sub\n        /* \"#utility.yul\":18643:18644   */\n      0x00\n        /* \"#utility.yul\":18632:18641   */\n      dup4\n        /* \"#utility.yul\":18628:18645   */\n      add\n        /* \"#utility.yul\":18621:18668   */\n      mstore\n        /* \"#utility.yul\":18685:18793   */\n      tag_300\n        /* \"#utility.yul\":18788:18792   */\n      dup2\n        /* \"#utility.yul\":18779:18785   */\n      dup5\n        /* \"#utility.yul\":18685:18793   */\n      tag_116\n      jump\t// in\n    tag_300:\n        /* \"#utility.yul\":18677:18793   */\n      swap1\n      pop\n        /* \"#utility.yul\":18427:18800   */\n      swap3\n      swap2\n      pop\n      pop\n      jump\t// out\n        /* \"#utility.yul\":18806:18975   */\n    tag_117:\n        /* \"#utility.yul\":18890:18901   */\n      0x00\n        /* \"#utility.yul\":18924:18930   */\n      dup3\n        /* \"#utility.yul\":18919:18922   */\n      dup3\n        /* \"#utility.yul\":18912:18931   */\n      mstore\n        /* \"#utility.yul\":18964:18968   */\n      0x20\n        /* \"#utility.yul\":18959:18962   */\n      dup3\n        /* \"#utility.yul\":18955:18969   */\n      add\n        /* \"#utility.yul\":18940:18969   */\n      swap1\n      pop\n        /* \"#utility.yul\":18806:18975   */\n      swap3\n      swap2\n      pop\n      pop\n      jump\t// out\n        /* \"#utility.yul\":18981:19206   */\n    tag_118:\n        /* \"#utility.yul\":19121:19155   */\n      0x4f776e61626c653a206e6577206f776e657220697320746865207a65726f2061\n        /* \"#utility.yul\":19117:19118   */\n      0x00\n        /* \"#utility.yul\":19109:19115   */\n      dup3\n        /* \"#utility.yul\":19105:19119   */\n      add\n        /* \"#utility.yul\":19098:19156   */\n      mstore\n        /* \"#utility.yul\":19190:19198   */\n      0x6464726573730000000000000000000000000000000000000000000000000000\n        /* \"#utility.yul\":19185:19187   */\n      0x20\n        /* \"#utility.yul\":19177:19183   */\n      dup3\n        /* \"#utility.yul\":19173:19188   */\n      add\n        /* \"#utility.yul\":19166:19199   */\n      mstore\n        /* \"#utility.yul\":18981:19206   */\n      pop\n      jump\t// out\n        /* \"#utility.yul\":19212:19578   */\n    tag_119:\n        /* \"#utility.yul\":19354:19357   */\n      0x00\n        /* \"#utility.yul\":19375:19442   */\n      tag_304\n        /* \"#utility.yul\":19439:19441   */\n      0x26\n        /* \"#utility.yul\":19434:19437   */\n      dup4\n        /* \"#utility.yul\":19375:19442   */\n      tag_117\n      jump\t// in\n    tag_304:\n        /* \"#utility.yul\":19368:19442   */\n      swap2\n      pop\n        /* \"#utility.yul\":19451:19544   */\n      tag_305\n        /* \"#utility.yul\":19540:19543   */\n      dup3\n        /* \"#utility.yul\":19451:19544   */\n      tag_118\n      jump\t// in\n    tag_305:\n        /* \"#utility.yul\":19569:19571   */\n      0x40\n        /* \"#utility.yul\":19564:19567   */\n      dup3\n        /* \"#utility.yul\":19560:19572   */\n      add\n        /* \"#utility.yul\":19553:19572   */\n      swap1\n      pop\n        /* \"#utility.yul\":19212:19578   */\n      swap2\n      swap1\n      pop\n      jump\t// out\n        /* \"#utility.yul\":19584:20003   */\n    tag_56:\n        /* \"#utility.yul\":19750:19754   */\n      0x00\n        /* \"#utility.yul\":19788:19790   */\n      0x20\n        /* \"#utility.yul\":19777:19786   */\n      dup3\n        /* \"#utility.yul\":19773:19791   */\n      add\n        /* \"#utility.yul\":19765:19791   */\n      swap1\n      pop\n        /* \"#utility.yul\":19837:19846   */\n      dup2\n        /* \"#utility.yul\":19831:19835   */\n      dup2\n        /* \"#utility.yul\":19827:19847   */\n      sub\n        /* \"#utility.yul\":19823:19824   */\n      0x00\n        /* \"#utility.yul\":19812:19821   */\n      dup4\n        /* \"#utility.yul\":19808:19825   */\n      add\n        /* \"#utility.yul\":19801:19848   */\n      mstore\n        /* \"#utility.yul\":19865:19996   */\n      tag_307\n        /* \"#utility.yul\":19991:19995   */\n      dup2\n        /* \"#utility.yul\":19865:19996   */\n      tag_119\n      jump\t// in\n    tag_307:\n        /* \"#utility.yul\":19857:19996   */\n      swap1\n      pop\n        /* \"#utility.yul\":19584:20003   */\n      swap2\n      swap1\n      pop\n      jump\t// out\n        /* \"#utility.yul\":20009:20191   */\n    tag_120:\n        /* \"#utility.yul\":20149:20183   */\n      0x4f776e61626c653a2063616c6c6572206973206e6f7420746865206f776e6572\n        /* \"#utility.yul\":20145:20146   */\n      0x00\n        /* \"#utility.yul\":20137:20143   */\n      dup3\n        /* \"#utility.yul\":20133:20147   */\n      add\n        /* \"#utility.yul\":20126:20184   */\n      mstore\n        /* \"#utility.yul\":20009:20191   */\n      pop\n      jump\t// out\n        /* \"#utility.yul\":20197:20563   */\n    tag_121:\n        /* \"#utility.yul\":20339:20342   */\n      0x00\n        /* \"#utility.yul\":20360:20427   */\n      tag_310\n        /* \"#utility.yul\":20424:20426   */\n      0x20\n        /* \"#utility.yul\":20419:20422   */\n      dup4\n        /* \"#utility.yul\":20360:20427   */\n      tag_117\n      jump\t// in\n    tag_310:\n        /* \"#utility.yul\":20353:20427   */\n      swap2\n      pop\n        /* \"#utility.yul\":20436:20529   */\n      tag_311\n        /* \"#utility.yul\":20525:20528   */\n      dup3\n        /* \"#utility.yul\":20436:20529   */\n      tag_120\n      jump\t// in\n    tag_311:\n        /* \"#utility.yul\":20554:20556   */\n      0x20\n        /* \"#utility.yul\":20549:20552   */\n      dup3\n        /* \"#utility.yul\":20545:20557   */\n      add\n        /* \"#utility.yul\":20538:20557   */\n      swap1\n      pop\n        /* \"#utility.yul\":20197:20563   */\n      swap2\n      swap1\n      pop\n      jump\t// out\n        /* \"#utility.yul\":20569:20988   */\n    tag_63:\n        /* \"#utility.yul\":20735:20739   */\n      0x00\n        /* \"#utility.yul\":20773:20775   */\n      0x20\n        /* \"#utility.yul\":20762:20771   */\n      dup3\n        /* \"#utility.yul\":20758:20776   */\n      add\n        /* \"#utility.yul\":20750:20776   */\n      swap1\n      pop\n        /* \"#utility.yul\":20822:20831   */\n      dup2\n        /* \"#utility.yul\":20816:20820   */\n      dup2\n        /* \"#utility.yul\":20812:20832   */\n      sub\n        /* \"#utility.yul\":20808:20809   */\n      0x00\n        /* \"#utility.yul\":20797:20806   */\n      dup4\n        /* \"#utility.yul\":20793:20810   */\n      add\n        /* \"#utility.yul\":20786:20833   */\n      mstore\n        /* \"#utility.yul\":20850:20981   */\n      tag_313\n        /* \"#utility.yul\":20976:20980   */\n      dup2\n        /* \"#utility.yul\":20850:20981   */\n      tag_121\n      jump\t// in\n    tag_313:\n        /* \"#utility.yul\":20842:20981   */\n      swap1\n      pop\n        /* \"#utility.yul\":20569:20988   */\n      swap2\n      swap1\n      pop\n      jump\t// out\n\n    auxdata: 0xa2646970667358221220cf89d582f281329be04cd69709fcf08641f5729d46564b9b2f59c3debe667c5c64736f6c63430008120033\n}\n",
				"bytecode": {
					"linkReferences": {},
					"object": "608060405234801561001057600080fd5b506040516200102f3803806200102f83398181016040528101906100349190610120565b80336000806101000a81548173ffffffffffffffffffffffffffffffffffffffff021916908373ffffffffffffffffffffffffffffffffffffffff16021790555080600160006101000a81548173ffffffffffffffffffffffffffffffffffffffff021916908373ffffffffffffffffffffffffffffffffffffffff160217905550505061014d565b600080fd5b600073ffffffffffffffffffffffffffffffffffffffff82169050919050565b60006100ed826100c2565b9050919050565b6100fd816100e2565b811461010857600080fd5b50565b60008151905061011a816100f4565b92915050565b600060208284031215610136576101356100bd565b5b60006101448482850161010b565b91505092915050565b610ed2806200015d6000396000f3fe608060405234801561001057600080fd5b50600436106100625760003560e01c80634e1ec3e91461006757806383197ef0146100855780638da5cb5b1461008f578063c8c8ea0b146100ad578063ddcbb0d6146100c9578063f2fde38b146100e7575b600080fd5b61006f610103565b60405161007c91906106fd565b60405180910390f35b61008d6101a8565b005b6100976101c9565b6040516100a4919061072e565b60405180910390f35b6100c760048036038101906100c291906108be565b6101f2565b005b6100d16102d5565b6040516100de91906109bc565b60405180910390f35b61010160048036038101906100fc9190610a03565b6102fb565b005b606061010d61037e565b600160009054906101000a900473ffffffffffffffffffffffffffffffffffffffff1673ffffffffffffffffffffffffffffffffffffffff16634e1ec3e96040518163ffffffff1660e01b8152600401600060405180830381865afa15801561017a573d6000803e3d6000fd5b505050506040513d6000823e3d601f19601f820116820180604052508101906101a39190610c92565b905090565b6101b061037e565b3073ffffffffffffffffffffffffffffffffffffffff16ff5b60008060009054906101000a900473ffffffffffffffffffffffffffffffffffffffff16905090565b60006040518060c001604052806000815260200186815260200185815260200161021a6103f5565b73ffffffffffffffffffffffffffffffffffffffff168152602001848152602001838152509050600160009054906101000a900473ffffffffffffffffffffffffffffffffffffffff1673ffffffffffffffffffffffffffffffffffffffff16633516e831826040518263ffffffff1660e01b815260040161029c9190610d6b565b600060405180830381600087803b1580156102b657600080fd5b505af11580156102ca573d6000803e3d6000fd5b505050505050505050565b600160009054906101000a900473ffffffffffffffffffffffffffffffffffffffff1681565b61030361037e565b600073ffffffffffffffffffffffffffffffffffffffff168173ffffffffffffffffffffffffffffffffffffffff1603610372576040517f08c379a000000000000000000000000000000000000000000000000000000000815260040161036990610e10565b60405180910390fd5b61037b816103fd565b50565b3373ffffffffffffffffffffffffffffffffffffffff1661039d6101c9565b73ffffffffffffffffffffffffffffffffffffffff16146103f3576040517f08c379a00000000000000000000000000000000000000000000000000000000081526004016103ea90610e7c565b60405180910390fd5b565b600033905090565b60008060009054906101000a900473ffffffffffffffffffffffffffffffffffffffff169050816000806101000a81548173ffffffffffffffffffffffffffffffffffffffff021916908373ffffffffffffffffffffffffffffffffffffffff1602179055508173ffffffffffffffffffffffffffffffffffffffff168173ffffffffffffffffffffffffffffffffffffffff167f8be0079c531659141344cd1fd0a4f28419497f9722a3daafe3b4186f6b6457e060405160405180910390a35050565b600081519050919050565b600082825260208201905092915050565b6000819050602082019050919050565b6000819050919050565b610500816104ed565b82525050565b600073ffffffffffffffffffffffffffffffffffffffff82169050919050565b600061053182610506565b9050919050565b61054181610526565b82525050565b600081519050919050565b600082825260208201905092915050565b60005b83811015610581578082015181840152602081019050610566565b60008484015250505050565b6000601f19601f8301169050919050565b60006105a982610547565b6105b38185610552565b93506105c3818560208601610563565b6105cc8161058d565b840191505092915050565b600060c0830160008301516105ef60008601826104f7565b50602083015161060260208601826104f7565b50604083015161061560408601826104f7565b5060608301516106286060860182610538565b5060808301518482036080860152610640828261059e565b91505060a083015184820360a086015261065a828261059e565b9150508091505092915050565b600061067383836105d7565b905092915050565b6000602082019050919050565b6000610693826104c1565b61069d81856104cc565b9350836020820285016106af856104dd565b8060005b858110156106eb57848403895281516106cc8582610667565b94506106d78361067b565b925060208a019950506001810190506106b3565b50829750879550505050505092915050565b600060208201905081810360008301526107178184610688565b905092915050565b61072881610526565b82525050565b6000602082019050610743600083018461071f565b92915050565b6000604051905090565b600080fd5b600080fd5b610766816104ed565b811461077157600080fd5b50565b6000813590506107838161075d565b92915050565b600080fd5b600080fd5b7f4e487b7100000000000000000000000000000000000000000000000000000000600052604160045260246000fd5b6107cb8261058d565b810181811067ffffffffffffffff821117156107ea576107e9610793565b5b80604052505050565b60006107fd610749565b905061080982826107c2565b919050565b600067ffffffffffffffff82111561082957610828610793565b5b6108328261058d565b9050602081019050919050565b82818337600083830152505050565b600061086161085c8461080e565b6107f3565b90508281526020810184848401111561087d5761087c61078e565b5b61088884828561083f565b509392505050565b600082601f8301126108a5576108a4610789565b5b81356108b584826020860161084e565b91505092915050565b600080600080608085870312156108d8576108d7610753565b5b60006108e687828801610774565b94505060206108f787828801610774565b935050604085013567ffffffffffffffff81111561091857610917610758565b5b61092487828801610890565b925050606085013567ffffffffffffffff81111561094557610944610758565b5b61095187828801610890565b91505092959194509250565b6000819050919050565b600061098261097d61097884610506565b61095d565b610506565b9050919050565b600061099482610967565b9050919050565b60006109a682610989565b9050919050565b6109b68161099b565b82525050565b60006020820190506109d160008301846109ad565b92915050565b6109e081610526565b81146109eb57600080fd5b50565b6000813590506109fd816109d7565b92915050565b600060208284031215610a1957610a18610753565b5b6000610a27848285016109ee565b91505092915050565b600067ffffffffffffffff821115610a4b57610a4a610793565b5b602082029050602081019050919050565b600080fd5b600080fd5b600080fd5b600081519050610a7a8161075d565b92915050565b600081519050610a8f816109d7565b92915050565b6000610aa8610aa38461080e565b6107f3565b905082815260208101848484011115610ac457610ac361078e565b5b610acf848285610563565b509392505050565b600082601f830112610aec57610aeb610789565b5b8151610afc848260208601610a95565b91505092915050565b600060c08284031215610b1b57610b1a610a61565b5b610b2560c06107f3565b90506000610b3584828501610a6b565b6000830152506020610b4984828501610a6b565b6020830152506040610b5d84828501610a6b565b6040830152506060610b7184828501610a80565b606083015250608082015167ffffffffffffffff811115610b9557610b94610a66565b5b610ba184828501610ad7565b60808301525060a082015167ffffffffffffffff811115610bc557610bc4610a66565b5b610bd184828501610ad7565b60a08301525092915050565b6000610bf0610beb84610a30565b6107f3565b90508083825260208201905060208402830185811115610c1357610c12610a5c565b5b835b81811015610c5a57805167ffffffffffffffff811115610c3857610c37610789565b5b808601610c458982610b05565b85526020850194505050602081019050610c15565b5050509392505050565b600082601f830112610c7957610c78610789565b5b8151610c89848260208601610bdd565b91505092915050565b600060208284031215610ca857610ca7610753565b5b600082015167ffffffffffffffff811115610cc657610cc5610758565b5b610cd284828501610c64565b91505092915050565b600060c083016000830151610cf360008601826104f7565b506020830151610d0660208601826104f7565b506040830151610d1960408601826104f7565b506060830151610d2c6060860182610538565b5060808301518482036080860152610d44828261059e565b91505060a083015184820360a0860152610d5e828261059e565b9150508091505092915050565b60006020820190508181036000830152610d858184610cdb565b905092915050565b600082825260208201905092915050565b7f4f776e61626c653a206e6577206f776e657220697320746865207a65726f206160008201527f6464726573730000000000000000000000000000000000000000000000000000602082015250565b6000610dfa602683610d8d565b9150610e0582610d9e565b604082019050919050565b60006020820190508181036000830152610e2981610ded565b9050919050565b7f4f776e61626c653a2063616c6c6572206973206e6f7420746865206f776e6572600082015250565b6000610e66602083610d8d565b9150610e7182610e30565b602082019050919050565b60006020820190508181036000830152610e9581610e59565b905091905056fea2646970667358221220cf89d582f281329be04cd69709fcf08641f5729d46564b9b2f59c3debe667c5c64736f6c63430008120033",
					"opcodes": "PUSH1 0x80 PUSH1 0x40 MSTORE CALLVALUE DUP1 ISZERO PUSH2 0x10 JUMPI PUSH1 0x0 DUP1 REVERT JUMPDEST POP PUSH1 0x40 MLOAD PUSH3 0x102F CODESIZE SUB DUP1 PUSH3 0x102F DUP4 CODECOPY DUP2 DUP2 ADD PUSH1 0x40 MSTORE DUP2 ADD SWAP1 PUSH2 0x34 SWAP2 SWAP1 PUSH2 0x120 JUMP JUMPDEST DUP1 CALLER PUSH1 0x0 DUP1 PUSH2 0x100 EXP DUP2 SLOAD DUP2 PUSH20 0xFFFFFFFFFFFFFFFFFFFFFFFFFFFFFFFFFFFFFFFF MUL NOT AND SWAP1 DUP4 PUSH20 0xFFFFFFFFFFFFFFFFFFFFFFFFFFFFFFFFFFFFFFFF AND MUL OR SWAP1 SSTORE POP DUP1 PUSH1 0x1 PUSH1 0x0 PUSH2 0x100 EXP DUP2 SLOAD DUP2 PUSH20 0xFFFFFFFFFFFFFFFFFFFFFFFFFFFFFFFFFFFFFFFF MUL NOT AND SWAP1 DUP4 PUSH20 0xFFFFFFFFFFFFFFFFFFFFFFFFFFFFFFFFFFFFFFFF AND MUL OR SWAP1 SSTORE POP POP POP PUSH2 0x14D JUMP JUMPDEST PUSH1 0x0 DUP1 REVERT JUMPDEST PUSH1 0x0 PUSH20 0xFFFFFFFFFFFFFFFFFFFFFFFFFFFFFFFFFFFFFFFF DUP3 AND SWAP1 POP SWAP2 SWAP1 POP JUMP JUMPDEST PUSH1 0x0 PUSH2 0xED DUP3 PUSH2 0xC2 JUMP JUMPDEST SWAP1 POP SWAP2 SWAP1 POP JUMP JUMPDEST PUSH2 0xFD DUP2 PUSH2 0xE2 JUMP JUMPDEST DUP2 EQ PUSH2 0x108 JUMPI PUSH1 0x0 DUP1 REVERT JUMPDEST POP JUMP JUMPDEST PUSH1 0x0 DUP2 MLOAD SWAP1 POP PUSH2 0x11A DUP2 PUSH2 0xF4 JUMP JUMPDEST SWAP3 SWAP2 POP POP JUMP JUMPDEST PUSH1 0x0 PUSH1 0x20 DUP3 DUP5 SUB SLT ISZERO PUSH2 0x136 JUMPI PUSH2 0x135 PUSH2 0xBD JUMP JUMPDEST JUMPDEST PUSH1 0x0 PUSH2 0x144 DUP5 DUP3 DUP6 ADD PUSH2 0x10B JUMP JUMPDEST SWAP2 POP POP SWAP3 SWAP2 POP POP JUMP JUMPDEST PUSH2 0xED2 DUP1 PUSH3 0x15D PUSH1 0x0 CODECOPY PUSH1 0x0 RETURN INVALID PUSH1 0x80 PUSH1 0x40 MSTORE CALLVALUE DUP1 ISZERO PUSH2 0x10 JUMPI PUSH1 0x0 DUP1 REVERT JUMPDEST POP PUSH1 0x4 CALLDATASIZE LT PUSH2 0x62 JUMPI PUSH1 0x0 CALLDATALOAD PUSH1 0xE0 SHR DUP1 PUSH4 0x4E1EC3E9 EQ PUSH2 0x67 JUMPI DUP1 PUSH4 0x83197EF0 EQ PUSH2 0x85 JUMPI DUP1 PUSH4 0x8DA5CB5B EQ PUSH2 0x8F JUMPI DUP1 PUSH4 0xC8C8EA0B EQ PUSH2 0xAD JUMPI DUP1 PUSH4 0xDDCBB0D6 EQ PUSH2 0xC9 JUMPI DUP1 PUSH4 0xF2FDE38B EQ PUSH2 0xE7 JUMPI JUMPDEST PUSH1 0x0 DUP1 REVERT JUMPDEST PUSH2 0x6F PUSH2 0x103 JUMP JUMPDEST PUSH1 0x40 MLOAD PUSH2 0x7C SWAP2 SWAP1 PUSH2 0x6FD JUMP JUMPDEST PUSH1 0x40 MLOAD DUP1 SWAP2 SUB SWAP1 RETURN JUMPDEST PUSH2 0x8D PUSH2 0x1A8 JUMP JUMPDEST STOP JUMPDEST PUSH2 0x97 PUSH2 0x1C9 JUMP JUMPDEST PUSH1 0x40 MLOAD PUSH2 0xA4 SWAP2 SWAP1 PUSH2 0x72E JUMP JUMPDEST PUSH1 0x40 MLOAD DUP1 SWAP2 SUB SWAP1 RETURN JUMPDEST PUSH2 0xC7 PUSH1 0x4 DUP1 CALLDATASIZE SUB DUP2 ADD SWAP1 PUSH2 0xC2 SWAP2 SWAP1 PUSH2 0x8BE JUMP JUMPDEST PUSH2 0x1F2 JUMP JUMPDEST STOP JUMPDEST PUSH2 0xD1 PUSH2 0x2D5 JUMP JUMPDEST PUSH1 0x40 MLOAD PUSH2 0xDE SWAP2 SWAP1 PUSH2 0x9BC JUMP JUMPDEST PUSH1 0x40 MLOAD DUP1 SWAP2 SUB SWAP1 RETURN JUMPDEST PUSH2 0x101 PUSH1 0x4 DUP1 CALLDATASIZE SUB DUP2 ADD SWAP1 PUSH2 0xFC SWAP2 SWAP1 PUSH2 0xA03 JUMP JUMPDEST PUSH2 0x2FB JUMP JUMPDEST STOP JUMPDEST PUSH1 0x60 PUSH2 0x10D PUSH2 0x37E JUMP JUMPDEST PUSH1 0x1 PUSH1 0x0 SWAP1 SLOAD SWAP1 PUSH2 0x100 EXP SWAP1 DIV PUSH20 0xFFFFFFFFFFFFFFFFFFFFFFFFFFFFFFFFFFFFFFFF AND PUSH20 0xFFFFFFFFFFFFFFFFFFFFFFFFFFFFFFFFFFFFFFFF AND PUSH4 0x4E1EC3E9 PUSH1 0x40 MLOAD DUP2 PUSH4 0xFFFFFFFF AND PUSH1 0xE0 SHL DUP2 MSTORE PUSH1 0x4 ADD PUSH1 0x0 PUSH1 0x40 MLOAD DUP1 DUP4 SUB DUP2 DUP7 GAS STATICCALL ISZERO DUP1 ISZERO PUSH2 0x17A JUMPI RETURNDATASIZE PUSH1 0x0 DUP1 RETURNDATACOPY RETURNDATASIZE PUSH1 0x0 REVERT JUMPDEST POP POP POP POP PUSH1 0x40 MLOAD RETURNDATASIZE PUSH1 0x0 DUP3 RETURNDATACOPY RETURNDATASIZE PUSH1 0x1F NOT PUSH1 0x1F DUP3 ADD AND DUP3 ADD DUP1 PUSH1 0x40 MSTORE POP DUP2 ADD SWAP1 PUSH2 0x1A3 SWAP2 SWAP1 PUSH2 0xC92 JUMP JUMPDEST SWAP1 POP SWAP1 JUMP JUMPDEST PUSH2 0x1B0 PUSH2 0x37E JUMP JUMPDEST ADDRESS PUSH20 0xFFFFFFFFFFFFFFFFFFFFFFFFFFFFFFFFFFFFFFFF AND SELFDESTRUCT JUMPDEST PUSH1 0x0 DUP1 PUSH1 0x0 SWAP1 SLOAD SWAP1 PUSH2 0x100 EXP SWAP1 DIV PUSH20 0xFFFFFFFFFFFFFFFFFFFFFFFFFFFFFFFFFFFFFFFF AND SWAP1 POP SWAP1 JUMP JUMPDEST PUSH1 0x0 PUSH1 0x40 MLOAD DUP1 PUSH1 0xC0 ADD PUSH1 0x40 MSTORE DUP1 PUSH1 0x0 DUP2 MSTORE PUSH1 0x20 ADD DUP7 DUP2 MSTORE PUSH1 0x20 ADD DUP6 DUP2 MSTORE PUSH1 0x20 ADD PUSH2 0x21A PUSH2 0x3F5 JUMP JUMPDEST PUSH20 0xFFFFFFFFFFFFFFFFFFFFFFFFFFFFFFFFFFFFFFFF AND DUP2 MSTORE PUSH1 0x20 ADD DUP5 DUP2 MSTORE PUSH1 0x20 ADD DUP4 DUP2 MSTORE POP SWAP1 POP PUSH1 0x1 PUSH1 0x0 SWAP1 SLOAD SWAP1 PUSH2 0x100 EXP SWAP1 DIV PUSH20 0xFFFFFFFFFFFFFFFFFFFFFFFFFFFFFFFFFFFFFFFF AND PUSH20 0xFFFFFFFFFFFFFFFFFFFFFFFFFFFFFFFFFFFFFFFF AND PUSH4 0x3516E831 DUP3 PUSH1 0x40 MLOAD DUP3 PUSH4 0xFFFFFFFF AND PUSH1 0xE0 SHL DUP2 MSTORE PUSH1 0x4 ADD PUSH2 0x29C SWAP2 SWAP1 PUSH2 0xD6B JUMP JUMPDEST PUSH1 0x0 PUSH1 0x40 MLOAD DUP1 DUP4 SUB DUP2 PUSH1 0x0 DUP8 DUP1 EXTCODESIZE ISZERO DUP1 ISZERO PUSH2 0x2B6 JUMPI PUSH1 0x0 DUP1 REVERT JUMPDEST POP GAS CALL ISZERO DUP1 ISZERO PUSH2 0x2CA JUMPI RETURNDATASIZE PUSH1 0x0 DUP1 RETURNDATACOPY RETURNDATASIZE PUSH1 0x0 REVERT JUMPDEST POP POP POP POP POP POP POP POP POP JUMP JUMPDEST PUSH1 0x1 PUSH1 0x0 SWAP1 SLOAD SWAP1 PUSH2 0x100 EXP SWAP1 DIV PUSH20 0xFFFFFFFFFFFFFFFFFFFFFFFFFFFFFFFFFFFFFFFF AND DUP2 JUMP JUMPDEST PUSH2 0x303 PUSH2 0x37E JUMP JUMPDEST PUSH1 0x0 PUSH20 0xFFFFFFFFFFFFFFFFFFFFFFFFFFFFFFFFFFFFFFFF AND DUP2 PUSH20 0xFFFFFFFFFFFFFFFFFFFFFFFFFFFFFFFFFFFFFFFF AND SUB PUSH2 0x372 JUMPI PUSH1 0x40 MLOAD PUSH32 0x8C379A000000000000000000000000000000000000000000000000000000000 DUP2 MSTORE PUSH1 0x4 ADD PUSH2 0x369 SWAP1 PUSH2 0xE10 JUMP JUMPDEST PUSH1 0x40 MLOAD DUP1 SWAP2 SUB SWAP1 REVERT JUMPDEST PUSH2 0x37B DUP2 PUSH2 0x3FD JUMP JUMPDEST POP JUMP JUMPDEST CALLER PUSH20 0xFFFFFFFFFFFFFFFFFFFFFFFFFFFFFFFFFFFFFFFF AND PUSH2 0x39D PUSH2 0x1C9 JUMP JUMPDEST PUSH20 0xFFFFFFFFFFFFFFFFFFFFFFFFFFFFFFFFFFFFFFFF AND EQ PUSH2 0x3F3 JUMPI PUSH1 0x40 MLOAD PUSH32 0x8C379A000000000000000000000000000000000000000000000000000000000 DUP2 MSTORE PUSH1 0x4 ADD PUSH2 0x3EA SWAP1 PUSH2 0xE7C JUMP JUMPDEST PUSH1 0x40 MLOAD DUP1 SWAP2 SUB SWAP1 REVERT JUMPDEST JUMP JUMPDEST PUSH1 0x0 CALLER SWAP1 POP SWAP1 JUMP JUMPDEST PUSH1 0x0 DUP1 PUSH1 0x0 SWAP1 SLOAD SWAP1 PUSH2 0x100 EXP SWAP1 DIV PUSH20 0xFFFFFFFFFFFFFFFFFFFFFFFFFFFFFFFFFFFFFFFF AND SWAP1 POP DUP2 PUSH1 0x0 DUP1 PUSH2 0x100 EXP DUP2 SLOAD DUP2 PUSH20 0xFFFFFFFFFFFFFFFFFFFFFFFFFFFFFFFFFFFFFFFF MUL NOT AND SWAP1 DUP4 PUSH20 0xFFFFFFFFFFFFFFFFFFFFFFFFFFFFFFFFFFFFFFFF AND MUL OR SWAP1 SSTORE POP DUP2 PUSH20 0xFFFFFFFFFFFFFFFFFFFFFFFFFFFFFFFFFFFFFFFF AND DUP2 PUSH20 0xFFFFFFFFFFFFFFFFFFFFFFFFFFFFFFFFFFFFFFFF AND PUSH32 0x8BE0079C531659141344CD1FD0A4F28419497F9722A3DAAFE3B4186F6B6457E0 PUSH1 0x40 MLOAD PUSH1 0x40 MLOAD DUP1 SWAP2 SUB SWAP1 LOG3 POP POP JUMP JUMPDEST PUSH1 0x0 DUP2 MLOAD SWAP1 POP SWAP2 SWAP1 POP JUMP JUMPDEST PUSH1 0x0 DUP3 DUP3 MSTORE PUSH1 0x20 DUP3 ADD SWAP1 POP SWAP3 SWAP2 POP POP JUMP JUMPDEST PUSH1 0x0 DUP2 SWAP1 POP PUSH1 0x20 DUP3 ADD SWAP1 POP SWAP2 SWAP1 POP JUMP JUMPDEST PUSH1 0x0 DUP2 SWAP1 POP SWAP2 SWAP1 POP JUMP JUMPDEST PUSH2 0x500 DUP2 PUSH2 0x4ED JUMP JUMPDEST DUP3 MSTORE POP POP JUMP JUMPDEST PUSH1 0x0 PUSH20 0xFFFFFFFFFFFFFFFFFFFFFFFFFFFFFFFFFFFFFFFF DUP3 AND SWAP1 POP SWAP2 SWAP1 POP JUMP JUMPDEST PUSH1 0x0 PUSH2 0x531 DUP3 PUSH2 0x506 JUMP JUMPDEST SWAP1 POP SWAP2 SWAP1 POP JUMP JUMPDEST PUSH2 0x541 DUP2 PUSH2 0x526 JUMP JUMPDEST DUP3 MSTORE POP POP JUMP JUMPDEST PUSH1 0x0 DUP2 MLOAD SWAP1 POP SWAP2 SWAP1 POP JUMP JUMPDEST PUSH1 0x0 DUP3 DUP3 MSTORE PUSH1 0x20 DUP3 ADD SWAP1 POP SWAP3 SWAP2 POP POP JUMP JUMPDEST PUSH1 0x0 JUMPDEST DUP4 DUP2 LT ISZERO PUSH2 0x581 JUMPI DUP1 DUP3 ADD MLOAD DUP2 DUP5 ADD MSTORE PUSH1 0x20 DUP2 ADD SWAP1 POP PUSH2 0x566 JUMP JUMPDEST PUSH1 0x0 DUP5 DUP5 ADD MSTORE POP POP POP POP JUMP JUMPDEST PUSH1 0x0 PUSH1 0x1F NOT PUSH1 0x1F DUP4 ADD AND SWAP1 POP SWAP2 SWAP1 POP JUMP JUMPDEST PUSH1 0x0 PUSH2 0x5A9 DUP3 PUSH2 0x547 JUMP JUMPDEST PUSH2 0x5B3 DUP2 DUP6 PUSH2 0x552 JUMP JUMPDEST SWAP4 POP PUSH2 0x5C3 DUP2 DUP6 PUSH1 0x20 DUP7 ADD PUSH2 0x563 JUMP JUMPDEST PUSH2 0x5CC DUP2 PUSH2 0x58D JUMP JUMPDEST DUP5 ADD SWAP2 POP POP SWAP3 SWAP2 POP POP JUMP JUMPDEST PUSH1 0x0 PUSH1 0xC0 DUP4 ADD PUSH1 0x0 DUP4 ADD MLOAD PUSH2 0x5EF PUSH1 0x0 DUP7 ADD DUP3 PUSH2 0x4F7 JUMP JUMPDEST POP PUSH1 0x20 DUP4 ADD MLOAD PUSH2 0x602 PUSH1 0x20 DUP7 ADD DUP3 PUSH2 0x4F7 JUMP JUMPDEST POP PUSH1 0x40 DUP4 ADD MLOAD PUSH2 0x615 PUSH1 0x40 DUP7 ADD DUP3 PUSH2 0x4F7 JUMP JUMPDEST POP PUSH1 0x60 DUP4 ADD MLOAD PUSH2 0x628 PUSH1 0x60 DUP7 ADD DUP3 PUSH2 0x538 JUMP JUMPDEST POP PUSH1 0x80 DUP4 ADD MLOAD DUP5 DUP3 SUB PUSH1 0x80 DUP7 ADD MSTORE PUSH2 0x640 DUP3 DUP3 PUSH2 0x59E JUMP JUMPDEST SWAP2 POP POP PUSH1 0xA0 DUP4 ADD MLOAD DUP5 DUP3 SUB PUSH1 0xA0 DUP7 ADD MSTORE PUSH2 0x65A DUP3 DUP3 PUSH2 0x59E JUMP JUMPDEST SWAP2 POP POP DUP1 SWAP2 POP POP SWAP3 SWAP2 POP POP JUMP JUMPDEST PUSH1 0x0 PUSH2 0x673 DUP4 DUP4 PUSH2 0x5D7 JUMP JUMPDEST SWAP1 POP SWAP3 SWAP2 POP POP JUMP JUMPDEST PUSH1 0x0 PUSH1 0x20 DUP3 ADD SWAP1 POP SWAP2 SWAP1 POP JUMP JUMPDEST PUSH1 0x0 PUSH2 0x693 DUP3 PUSH2 0x4C1 JUMP JUMPDEST PUSH2 0x69D DUP2 DUP6 PUSH2 0x4CC JUMP JUMPDEST SWAP4 POP DUP4 PUSH1 0x20 DUP3 MUL DUP6 ADD PUSH2 0x6AF DUP6 PUSH2 0x4DD JUMP JUMPDEST DUP1 PUSH1 0x0 JUMPDEST DUP6 DUP2 LT ISZERO PUSH2 0x6EB JUMPI DUP5 DUP5 SUB DUP10 MSTORE DUP2 MLOAD PUSH2 0x6CC DUP6 DUP3 PUSH2 0x667 JUMP JUMPDEST SWAP5 POP PUSH2 0x6D7 DUP4 PUSH2 0x67B JUMP JUMPDEST SWAP3 POP PUSH1 0x20 DUP11 ADD SWAP10 POP POP PUSH1 0x1 DUP2 ADD SWAP1 POP PUSH2 0x6B3 JUMP JUMPDEST POP DUP3 SWAP8 POP DUP8 SWAP6 POP POP POP POP POP POP SWAP3 SWAP2 POP POP JUMP JUMPDEST PUSH1 0x0 PUSH1 0x20 DUP3 ADD SWAP1 POP DUP2 DUP2 SUB PUSH1 0x0 DUP4 ADD MSTORE PUSH2 0x717 DUP2 DUP5 PUSH2 0x688 JUMP JUMPDEST SWAP1 POP SWAP3 SWAP2 POP POP JUMP JUMPDEST PUSH2 0x728 DUP2 PUSH2 0x526 JUMP JUMPDEST DUP3 MSTORE POP POP JUMP JUMPDEST PUSH1 0x0 PUSH1 0x20 DUP3 ADD SWAP1 POP PUSH2 0x743 PUSH1 0x0 DUP4 ADD DUP5 PUSH2 0x71F JUMP JUMPDEST SWAP3 SWAP2 POP POP JUMP JUMPDEST PUSH1 0x0 PUSH1 0x40 MLOAD SWAP1 POP SWAP1 JUMP JUMPDEST PUSH1 0x0 DUP1 REVERT JUMPDEST PUSH1 0x0 DUP1 REVERT JUMPDEST PUSH2 0x766 DUP2 PUSH2 0x4ED JUMP JUMPDEST DUP2 EQ PUSH2 0x771 JUMPI PUSH1 0x0 DUP1 REVERT JUMPDEST POP JUMP JUMPDEST PUSH1 0x0 DUP2 CALLDATALOAD SWAP1 POP PUSH2 0x783 DUP2 PUSH2 0x75D JUMP JUMPDEST SWAP3 SWAP2 POP POP JUMP JUMPDEST PUSH1 0x0 DUP1 REVERT JUMPDEST PUSH1 0x0 DUP1 REVERT JUMPDEST PUSH32 0x4E487B7100000000000000000000000000000000000000000000000000000000 PUSH1 0x0 MSTORE PUSH1 0x41 PUSH1 0x4 MSTORE PUSH1 0x24 PUSH1 0x0 REVERT JUMPDEST PUSH2 0x7CB DUP3 PUSH2 0x58D JUMP JUMPDEST DUP2 ADD DUP2 DUP2 LT PUSH8 0xFFFFFFFFFFFFFFFF DUP3 GT OR ISZERO PUSH2 0x7EA JUMPI PUSH2 0x7E9 PUSH2 0x793 JUMP JUMPDEST JUMPDEST DUP1 PUSH1 0x40 MSTORE POP POP POP JUMP JUMPDEST PUSH1 0x0 PUSH2 0x7FD PUSH2 0x749 JUMP JUMPDEST SWAP1 POP PUSH2 0x809 DUP3 DUP3 PUSH2 0x7C2 JUMP JUMPDEST SWAP2 SWAP1 POP JUMP JUMPDEST PUSH1 0x0 PUSH8 0xFFFFFFFFFFFFFFFF DUP3 GT ISZERO PUSH2 0x829 JUMPI PUSH2 0x828 PUSH2 0x793 JUMP JUMPDEST JUMPDEST PUSH2 0x832 DUP3 PUSH2 0x58D JUMP JUMPDEST SWAP1 POP PUSH1 0x20 DUP2 ADD SWAP1 POP SWAP2 SWAP1 POP JUMP JUMPDEST DUP3 DUP2 DUP4 CALLDATACOPY PUSH1 0x0 DUP4 DUP4 ADD MSTORE POP POP POP JUMP JUMPDEST PUSH1 0x0 PUSH2 0x861 PUSH2 0x85C DUP5 PUSH2 0x80E JUMP JUMPDEST PUSH2 0x7F3 JUMP JUMPDEST SWAP1 POP DUP3 DUP2 MSTORE PUSH1 0x20 DUP2 ADD DUP5 DUP5 DUP5 ADD GT ISZERO PUSH2 0x87D JUMPI PUSH2 0x87C PUSH2 0x78E JUMP JUMPDEST JUMPDEST PUSH2 0x888 DUP5 DUP3 DUP6 PUSH2 0x83F JUMP JUMPDEST POP SWAP4 SWAP3 POP POP POP JUMP JUMPDEST PUSH1 0x0 DUP3 PUSH1 0x1F DUP4 ADD SLT PUSH2 0x8A5 JUMPI PUSH2 0x8A4 PUSH2 0x789 JUMP JUMPDEST JUMPDEST DUP2 CALLDATALOAD PUSH2 0x8B5 DUP5 DUP3 PUSH1 0x20 DUP7 ADD PUSH2 0x84E JUMP JUMPDEST SWAP2 POP POP SWAP3 SWAP2 POP POP JUMP JUMPDEST PUSH1 0x0 DUP1 PUSH1 0x0 DUP1 PUSH1 0x80 DUP6 DUP8 SUB SLT ISZERO PUSH2 0x8D8 JUMPI PUSH2 0x8D7 PUSH2 0x753 JUMP JUMPDEST JUMPDEST PUSH1 0x0 PUSH2 0x8E6 DUP8 DUP3 DUP9 ADD PUSH2 0x774 JUMP JUMPDEST SWAP5 POP POP PUSH1 0x20 PUSH2 0x8F7 DUP8 DUP3 DUP9 ADD PUSH2 0x774 JUMP JUMPDEST SWAP4 POP POP PUSH1 0x40 DUP6 ADD CALLDATALOAD PUSH8 0xFFFFFFFFFFFFFFFF DUP2 GT ISZERO PUSH2 0x918 JUMPI PUSH2 0x917 PUSH2 0x758 JUMP JUMPDEST JUMPDEST PUSH2 0x924 DUP8 DUP3 DUP9 ADD PUSH2 0x890 JUMP JUMPDEST SWAP3 POP POP PUSH1 0x60 DUP6 ADD CALLDATALOAD PUSH8 0xFFFFFFFFFFFFFFFF DUP2 GT ISZERO PUSH2 0x945 JUMPI PUSH2 0x944 PUSH2 0x758 JUMP JUMPDEST JUMPDEST PUSH2 0x951 DUP8 DUP3 DUP9 ADD PUSH2 0x890 JUMP JUMPDEST SWAP2 POP POP SWAP3 SWAP6 SWAP2 SWAP5 POP SWAP3 POP JUMP JUMPDEST PUSH1 0x0 DUP2 SWAP1 POP SWAP2 SWAP1 POP JUMP JUMPDEST PUSH1 0x0 PUSH2 0x982 PUSH2 0x97D PUSH2 0x978 DUP5 PUSH2 0x506 JUMP JUMPDEST PUSH2 0x95D JUMP JUMPDEST PUSH2 0x506 JUMP JUMPDEST SWAP1 POP SWAP2 SWAP1 POP JUMP JUMPDEST PUSH1 0x0 PUSH2 0x994 DUP3 PUSH2 0x967 JUMP JUMPDEST SWAP1 POP SWAP2 SWAP1 POP JUMP JUMPDEST PUSH1 0x0 PUSH2 0x9A6 DUP3 PUSH2 0x989 JUMP JUMPDEST SWAP1 POP SWAP2 SWAP1 POP JUMP JUMPDEST PUSH2 0x9B6 DUP2 PUSH2 0x99B JUMP JUMPDEST DUP3 MSTORE POP POP JUMP JUMPDEST PUSH1 0x0 PUSH1 0x20 DUP3 ADD SWAP1 POP PUSH2 0x9D1 PUSH1 0x0 DUP4 ADD DUP5 PUSH2 0x9AD JUMP JUMPDEST SWAP3 SWAP2 POP POP JUMP JUMPDEST PUSH2 0x9E0 DUP2 PUSH2 0x526 JUMP JUMPDEST DUP2 EQ PUSH2 0x9EB JUMPI PUSH1 0x0 DUP1 REVERT JUMPDEST POP JUMP JUMPDEST PUSH1 0x0 DUP2 CALLDATALOAD SWAP1 POP PUSH2 0x9FD DUP2 PUSH2 0x9D7 JUMP JUMPDEST SWAP3 SWAP2 POP POP JUMP JUMPDEST PUSH1 0x0 PUSH1 0x20 DUP3 DUP5 SUB SLT ISZERO PUSH2 0xA19 JUMPI PUSH2 0xA18 PUSH2 0x753 JUMP JUMPDEST JUMPDEST PUSH1 0x0 PUSH2 0xA27 DUP5 DUP3 DUP6 ADD PUSH2 0x9EE JUMP JUMPDEST SWAP2 POP POP SWAP3 SWAP2 POP POP JUMP JUMPDEST PUSH1 0x0 PUSH8 0xFFFFFFFFFFFFFFFF DUP3 GT ISZERO PUSH2 0xA4B JUMPI PUSH2 0xA4A PUSH2 0x793 JUMP JUMPDEST JUMPDEST PUSH1 0x20 DUP3 MUL SWAP1 POP PUSH1 0x20 DUP2 ADD SWAP1 POP SWAP2 SWAP1 POP JUMP JUMPDEST PUSH1 0x0 DUP1 REVERT JUMPDEST PUSH1 0x0 DUP1 REVERT JUMPDEST PUSH1 0x0 DUP1 REVERT JUMPDEST PUSH1 0x0 DUP2 MLOAD SWAP1 POP PUSH2 0xA7A DUP2 PUSH2 0x75D JUMP JUMPDEST SWAP3 SWAP2 POP POP JUMP JUMPDEST PUSH1 0x0 DUP2 MLOAD SWAP1 POP PUSH2 0xA8F DUP2 PUSH2 0x9D7 JUMP JUMPDEST SWAP3 SWAP2 POP POP JUMP JUMPDEST PUSH1 0x0 PUSH2 0xAA8 PUSH2 0xAA3 DUP5 PUSH2 0x80E JUMP JUMPDEST PUSH2 0x7F3 JUMP JUMPDEST SWAP1 POP DUP3 DUP2 MSTORE PUSH1 0x20 DUP2 ADD DUP5 DUP5 DUP5 ADD GT ISZERO PUSH2 0xAC4 JUMPI PUSH2 0xAC3 PUSH2 0x78E JUMP JUMPDEST JUMPDEST PUSH2 0xACF DUP5 DUP3 DUP6 PUSH2 0x563 JUMP JUMPDEST POP SWAP4 SWAP3 POP POP POP JUMP JUMPDEST PUSH1 0x0 DUP3 PUSH1 0x1F DUP4 ADD SLT PUSH2 0xAEC JUMPI PUSH2 0xAEB PUSH2 0x789 JUMP JUMPDEST JUMPDEST DUP2 MLOAD PUSH2 0xAFC DUP5 DUP3 PUSH1 0x20 DUP7 ADD PUSH2 0xA95 JUMP JUMPDEST SWAP2 POP POP SWAP3 SWAP2 POP POP JUMP JUMPDEST PUSH1 0x0 PUSH1 0xC0 DUP3 DUP5 SUB SLT ISZERO PUSH2 0xB1B JUMPI PUSH2 0xB1A PUSH2 0xA61 JUMP JUMPDEST JUMPDEST PUSH2 0xB25 PUSH1 0xC0 PUSH2 0x7F3 JUMP JUMPDEST SWAP1 POP PUSH1 0x0 PUSH2 0xB35 DUP5 DUP3 DUP6 ADD PUSH2 0xA6B JUMP JUMPDEST PUSH1 0x0 DUP4 ADD MSTORE POP PUSH1 0x20 PUSH2 0xB49 DUP5 DUP3 DUP6 ADD PUSH2 0xA6B JUMP JUMPDEST PUSH1 0x20 DUP4 ADD MSTORE POP PUSH1 0x40 PUSH2 0xB5D DUP5 DUP3 DUP6 ADD PUSH2 0xA6B JUMP JUMPDEST PUSH1 0x40 DUP4 ADD MSTORE POP PUSH1 0x60 PUSH2 0xB71 DUP5 DUP3 DUP6 ADD PUSH2 0xA80 JUMP JUMPDEST PUSH1 0x60 DUP4 ADD MSTORE POP PUSH1 0x80 DUP3 ADD MLOAD PUSH8 0xFFFFFFFFFFFFFFFF DUP2 GT ISZERO PUSH2 0xB95 JUMPI PUSH2 0xB94 PUSH2 0xA66 JUMP JUMPDEST JUMPDEST PUSH2 0xBA1 DUP5 DUP3 DUP6 ADD PUSH2 0xAD7 JUMP JUMPDEST PUSH1 0x80 DUP4 ADD MSTORE POP PUSH1 0xA0 DUP3 ADD MLOAD PUSH8 0xFFFFFFFFFFFFFFFF DUP2 GT ISZERO PUSH2 0xBC5 JUMPI PUSH2 0xBC4 PUSH2 0xA66 JUMP JUMPDEST JUMPDEST PUSH2 0xBD1 DUP5 DUP3 DUP6 ADD PUSH2 0xAD7 JUMP JUMPDEST PUSH1 0xA0 DUP4 ADD MSTORE POP SWAP3 SWAP2 POP POP JUMP JUMPDEST PUSH1 0x0 PUSH2 0xBF0 PUSH2 0xBEB DUP5 PUSH2 0xA30 JUMP JUMPDEST PUSH2 0x7F3 JUMP JUMPDEST SWAP1 POP DUP1 DUP4 DUP3 MSTORE PUSH1 0x20 DUP3 ADD SWAP1 POP PUSH1 0x20 DUP5 MUL DUP4 ADD DUP6 DUP2 GT ISZERO PUSH2 0xC13 JUMPI PUSH2 0xC12 PUSH2 0xA5C JUMP JUMPDEST JUMPDEST DUP4 JUMPDEST DUP2 DUP2 LT ISZERO PUSH2 0xC5A JUMPI DUP1 MLOAD PUSH8 0xFFFFFFFFFFFFFFFF DUP2 GT ISZERO PUSH2 0xC38 JUMPI PUSH2 0xC37 PUSH2 0x789 JUMP JUMPDEST JUMPDEST DUP1 DUP7 ADD PUSH2 0xC45 DUP10 DUP3 PUSH2 0xB05 JUMP JUMPDEST DUP6 MSTORE PUSH1 0x20 DUP6 ADD SWAP5 POP POP POP PUSH1 0x20 DUP2 ADD SWAP1 POP PUSH2 0xC15 JUMP JUMPDEST POP POP POP SWAP4 SWAP3 POP POP POP JUMP JUMPDEST PUSH1 0x0 DUP3 PUSH1 0x1F DUP4 ADD SLT PUSH2 0xC79 JUMPI PUSH2 0xC78 PUSH2 0x789 JUMP JUMPDEST JUMPDEST DUP2 MLOAD PUSH2 0xC89 DUP5 DUP3 PUSH1 0x20 DUP7 ADD PUSH2 0xBDD JUMP JUMPDEST SWAP2 POP POP SWAP3 SWAP2 POP POP JUMP JUMPDEST PUSH1 0x0 PUSH1 0x20 DUP3 DUP5 SUB SLT ISZERO PUSH2 0xCA8 JUMPI PUSH2 0xCA7 PUSH2 0x753 JUMP JUMPDEST JUMPDEST PUSH1 0x0 DUP3 ADD MLOAD PUSH8 0xFFFFFFFFFFFFFFFF DUP2 GT ISZERO PUSH2 0xCC6 JUMPI PUSH2 0xCC5 PUSH2 0x758 JUMP JUMPDEST JUMPDEST PUSH2 0xCD2 DUP5 DUP3 DUP6 ADD PUSH2 0xC64 JUMP JUMPDEST SWAP2 POP POP SWAP3 SWAP2 POP POP JUMP JUMPDEST PUSH1 0x0 PUSH1 0xC0 DUP4 ADD PUSH1 0x0 DUP4 ADD MLOAD PUSH2 0xCF3 PUSH1 0x0 DUP7 ADD DUP3 PUSH2 0x4F7 JUMP JUMPDEST POP PUSH1 0x20 DUP4 ADD MLOAD PUSH2 0xD06 PUSH1 0x20 DUP7 ADD DUP3 PUSH2 0x4F7 JUMP JUMPDEST POP PUSH1 0x40 DUP4 ADD MLOAD PUSH2 0xD19 PUSH1 0x40 DUP7 ADD DUP3 PUSH2 0x4F7 JUMP JUMPDEST POP PUSH1 0x60 DUP4 ADD MLOAD PUSH2 0xD2C PUSH1 0x60 DUP7 ADD DUP3 PUSH2 0x538 JUMP JUMPDEST POP PUSH1 0x80 DUP4 ADD MLOAD DUP5 DUP3 SUB PUSH1 0x80 DUP7 ADD MSTORE PUSH2 0xD44 DUP3 DUP3 PUSH2 0x59E JUMP JUMPDEST SWAP2 POP POP PUSH1 0xA0 DUP4 ADD MLOAD DUP5 DUP3 SUB PUSH1 0xA0 DUP7 ADD MSTORE PUSH2 0xD5E DUP3 DUP3 PUSH2 0x59E JUMP JUMPDEST SWAP2 POP POP DUP1 SWAP2 POP POP SWAP3 SWAP2 POP POP JUMP JUMPDEST PUSH1 0x0 PUSH1 0x20 DUP3 ADD SWAP1 POP DUP2 DUP2 SUB PUSH1 0x0 DUP4 ADD MSTORE PUSH2 0xD85 DUP2 DUP5 PUSH2 0xCDB JUMP JUMPDEST SWAP1 POP SWAP3 SWAP2 POP POP JUMP JUMPDEST PUSH1 0x0 DUP3 DUP3 MSTORE PUSH1 0x20 DUP3 ADD SWAP1 POP SWAP3 SWAP2 POP POP JUMP JUMPDEST PUSH32 0x4F776E61626C653A206E6577206F776E657220697320746865207A65726F2061 PUSH1 0x0 DUP3 ADD MSTORE PUSH32 0x6464726573730000000000000000000000000000000000000000000000000000 PUSH1 0x20 DUP3 ADD MSTORE POP JUMP JUMPDEST PUSH1 0x0 PUSH2 0xDFA PUSH1 0x26 DUP4 PUSH2 0xD8D JUMP JUMPDEST SWAP2 POP PUSH2 0xE05 DUP3 PUSH2 0xD9E JUMP JUMPDEST PUSH1 0x40 DUP3 ADD SWAP1 POP SWAP2 SWAP1 POP JUMP JUMPDEST PUSH1 0x0 PUSH1 0x20 DUP3 ADD SWAP1 POP DUP2 DUP2 SUB PUSH1 0x0 DUP4 ADD MSTORE PUSH2 0xE29 DUP2 PUSH2 0xDED JUMP JUMPDEST SWAP1 POP SWAP2 SWAP1 POP JUMP JUMPDEST PUSH32 0x4F776E61626C653A2063616C6C6572206973206E6F7420746865206F776E6572 PUSH1 0x0 DUP3 ADD MSTORE POP JUMP JUMPDEST PUSH1 0x0 PUSH2 0xE66 PUSH1 0x20 DUP4 PUSH2 0xD8D JUMP JUMPDEST SWAP2 POP PUSH2 0xE71 DUP3 PUSH2 0xE30 JUMP JUMPDEST PUSH1 0x20 DUP3 ADD SWAP1 POP SWAP2 SWAP1 POP JUMP JUMPDEST PUSH1 0x0 PUSH1 0x20 DUP3 ADD SWAP1 POP DUP2 DUP2 SUB PUSH1 0x0 DUP4 ADD MSTORE PUSH2 0xE95 DUP2 PUSH2 0xE59 JUMP JUMPDEST SWAP1 POP SWAP2 SWAP1 POP JUMP INVALID LOG2 PUSH5 0x6970667358 0x22 SLT KECCAK256 0xCF DUP10 0xD5 DUP3 CALLCODE DUP2 ORIGIN SWAP12 0xE0 0x4C 0xD6 SWAP8 MULMOD 0xFC CREATE DUP7 COINBASE CREATE2 PUSH19 0x9D46564B9B2F59C3DEBE667C5C64736F6C6343 STOP ADDMOD SLT STOP CALLER "
				},
				"gasEstimates": {
					"creation": {
						"codeDepositCost": "758800",
						"executionCost": "infinite",
						"totalCost": "infinite"
					},
					"external": {
						"addPurchase(uint256,uint256,string,string)": "infinite",
						"destroy()": "29972",
						"getAllPurchase()": "infinite",
						"owner()": "2544",
						"purchaseDatabase()": "infinite",
						"transferOwnership(address)": "30797"
					}
				},
				"methodIdentifiers": {
					"addPurchase(uint256,uint256,string,string)": "c8c8ea0b",
					"destroy()": "83197ef0",
					"getAllPurchase()": "4e1ec3e9",
					"owner()": "8da5cb5b",
					"purchaseDatabase()": "ddcbb0d6",
					"transferOwnership(address)": "f2fde38b"
				}
			},
			"storageLayout": {
				"storage": [
					{
						"astId": 30,
						"contract": "controller/purchase/PurchaseController.sol:PurchaseController",
						"label": "_owner",
						"offset": 0,
						"slot": "0",
						"type": "t_address"
					},
					{
						"astId": 213,
						"contract": "controller/purchase/PurchaseController.sol:PurchaseController",
						"label": "purchaseDatabase",
						"offset": 0,
						"slot": "1",
						"type": "t_contract(PurchaseDatabase)324"
					}
				],
				"types": {
					"t_address": {
						"encoding": "inplace",
						"label": "address",
						"numberOfBytes": "20"
					},
					"t_contract(PurchaseDatabase)324": {
						"encoding": "inplace",
						"label": "contract PurchaseDatabase",
						"numberOfBytes": "20"
					}
				}
			},
			"userdoc": {
				"kind": "user",
				"methods": {},
				"version": 1
			}
		}
	}
}