{
	"database/subsystem/SubsystemDatabase.sol": {
		"SubsystemDatabase": {
			"abi": [
				{
					"inputs": [],
					"stateMutability": "nonpayable",
					"type": "constructor"
				},
				{
					"anonymous": false,
					"inputs": [
						{
							"indexed": true,
							"internalType": "address",
							"name": "previousOwner",
							"type": "address"
						},
						{
							"indexed": true,
							"internalType": "address",
							"name": "newOwner",
							"type": "address"
						}
					],
					"name": "OwnershipTransferred",
					"type": "event"
				},
				{
					"inputs": [
						{
							"internalType": "address",
							"name": "contractPermission",
							"type": "address"
						}
					],
					"name": "addPermission",
					"outputs": [],
					"stateMutability": "nonpayable",
					"type": "function"
				},
				{
					"inputs": [
						{
							"components": [
								{
									"internalType": "uint256",
									"name": "subId",
									"type": "uint256"
								},
								{
									"internalType": "address",
									"name": "userAddress",
									"type": "address"
								},
								{
									"internalType": "string",
									"name": "typeOfSystem",
									"type": "string"
								},
								{
									"internalType": "string",
									"name": "registerDate",
									"type": "string"
								}
							],
							"internalType": "struct Subsystem",
							"name": "subsystem",
							"type": "tuple"
						}
					],
					"name": "addSubsystem",
					"outputs": [],
					"stateMutability": "nonpayable",
					"type": "function"
				},
				{
					"inputs": [],
					"name": "destroy",
					"outputs": [],
					"stateMutability": "nonpayable",
					"type": "function"
				},
				{
					"inputs": [],
					"name": "getAllSubsystem",
					"outputs": [
						{
							"components": [
								{
									"internalType": "uint256",
									"name": "subId",
									"type": "uint256"
								},
								{
									"internalType": "address",
									"name": "userAddress",
									"type": "address"
								},
								{
									"internalType": "string",
									"name": "typeOfSystem",
									"type": "string"
								},
								{
									"internalType": "string",
									"name": "registerDate",
									"type": "string"
								}
							],
							"internalType": "struct Subsystem[]",
							"name": "",
							"type": "tuple[]"
						}
					],
					"stateMutability": "view",
					"type": "function"
				},
				{
					"inputs": [],
					"name": "owner",
					"outputs": [
						{
							"internalType": "address",
							"name": "",
							"type": "address"
						}
					],
					"stateMutability": "view",
					"type": "function"
				},
				{
					"inputs": [
						{
							"internalType": "address",
							"name": "newOwner",
							"type": "address"
						}
					],
					"name": "transferOwnership",
					"outputs": [],
					"stateMutability": "nonpayable",
					"type": "function"
				}
			],
			"devdoc": {
				"kind": "dev",
				"methods": {
					"owner()": {
						"details": "Returns the address of the current owner."
					},
					"transferOwnership(address)": {
						"details": "Transfers ownership of the contract to a new account (`newOwner`). Can only be called by the current owner."
					}
				},
				"version": 1
			},
			"evm": {
				"assembly": "    /* \"database/subsystem/SubsystemDatabase.sol\":183:1158  contract SubsystemDatabase is Ownable {... */\n  mstore(0x40, 0x80)\n    /* \"database/subsystem/SubsystemDatabase.sol\":291:292  0 */\n  0x00\n    /* \"database/subsystem/SubsystemDatabase.sol\":259:292  uint256 private autoIncrement = 0 */\n  0x02\n  sstore\n    /* \"database/subsystem/SubsystemDatabase.sol\":545:571  constructor() Ownable() {} */\n  callvalue\n  dup1\n  iszero\n  tag_1\n  jumpi\n  0x00\n  dup1\n  revert\ntag_1:\n  pop\n    /* \"abstract/Ownable.sol\":1032:1042  msg.sender */\n  caller\n    /* \"abstract/Ownable.sol\":1023:1029  _owner */\n  0x00\n  dup1\n    /* \"abstract/Ownable.sol\":1023:1042  _owner = msg.sender */\n  0x0100\n  exp\n  dup2\n  sload\n  dup2\n  0xffffffffffffffffffffffffffffffffffffffff\n  mul\n  not\n  and\n  swap1\n  dup4\n  0xffffffffffffffffffffffffffffffffffffffff\n  and\n  mul\n  or\n  swap1\n  sstore\n  pop\n    /* \"database/subsystem/SubsystemDatabase.sol\":183:1158  contract SubsystemDatabase is Ownable {... */\n  dataSize(sub_0)\n  dup1\n  dataOffset(sub_0)\n  0x00\n  codecopy\n  0x00\n  return\nstop\n\nsub_0: assembly {\n        /* \"database/subsystem/SubsystemDatabase.sol\":183:1158  contract SubsystemDatabase is Ownable {... */\n      mstore(0x40, 0x80)\n      callvalue\n      dup1\n      iszero\n      tag_1\n      jumpi\n      0x00\n      dup1\n      revert\n    tag_1:\n      pop\n      jumpi(tag_2, lt(calldatasize, 0x04))\n      shr(0xe0, calldataload(0x00))\n      dup1\n      0x4d0a5dbd\n      eq\n      tag_3\n      jumpi\n      dup1\n      0x7745de9d\n      eq\n      tag_4\n      jumpi\n      dup1\n      0x83197ef0\n      eq\n      tag_5\n      jumpi\n      dup1\n      0x851efa5b\n      eq\n      tag_6\n      jumpi\n      dup1\n      0x8da5cb5b\n      eq\n      tag_7\n      jumpi\n      dup1\n      0xf2fde38b\n      eq\n      tag_8\n      jumpi\n    tag_2:\n      0x00\n      dup1\n      revert\n        /* \"database/subsystem/SubsystemDatabase.sol\":579:843  function addPermission(address contractPermission) public onlyOwner {... */\n    tag_3:\n      tag_9\n      0x04\n      dup1\n      calldatasize\n      sub\n      dup2\n      add\n      swap1\n      tag_10\n      swap2\n      swap1\n      tag_11\n      jump\t// in\n    tag_10:\n      tag_12\n      jump\t// in\n    tag_9:\n      stop\n        /* \"database/subsystem/SubsystemDatabase.sol\":851:1033  function addSubsystem(Subsystem memory subsystem) public onlyPermissions {... */\n    tag_4:\n      tag_13\n      0x04\n      dup1\n      calldatasize\n      sub\n      dup2\n      add\n      swap1\n      tag_14\n      swap2\n      swap1\n      tag_15\n      jump\t// in\n    tag_14:\n      tag_16\n      jump\t// in\n    tag_13:\n      stop\n        /* \"abstract/Ownable.sol\":2801:2892  function destroy() public onlyOwner {... */\n    tag_5:\n      tag_17\n      tag_18\n      jump\t// in\n    tag_17:\n      stop\n        /* \"database/subsystem/SubsystemDatabase.sol\":1041:1155  function getAllSubsystem() public view onlyPermissions returns (Subsystem[] memory) {... */\n    tag_6:\n      tag_19\n      tag_20\n      jump\t// in\n    tag_19:\n      mload(0x40)\n      tag_21\n      swap2\n      swap1\n      tag_22\n      jump\t// in\n    tag_21:\n      mload(0x40)\n      dup1\n      swap2\n      sub\n      swap1\n      return\n        /* \"abstract/Ownable.sol\":1289:1376  function owner() public view virtual returns (address) {... */\n    tag_7:\n      tag_23\n      tag_24\n      jump\t// in\n    tag_23:\n      mload(0x40)\n      tag_25\n      swap2\n      swap1\n      tag_26\n      jump\t// in\n    tag_25:\n      mload(0x40)\n      dup1\n      swap2\n      sub\n      swap1\n      return\n        /* \"abstract/Ownable.sol\":2204:2442  function transferOwnership(address newOwner) public virtual onlyOwner {... */\n    tag_8:\n      tag_27\n      0x04\n      dup1\n      calldatasize\n      sub\n      dup2\n      add\n      swap1\n      tag_28\n      swap2\n      swap1\n      tag_11\n      jump\t// in\n    tag_28:\n      tag_29\n      jump\t// in\n    tag_27:\n      stop\n        /* \"database/subsystem/SubsystemDatabase.sol\":579:843  function addPermission(address contractPermission) public onlyOwner {... */\n    tag_12:\n        /* \"abstract/Ownable.sol\":1175:1188  _checkOwner() */\n      tag_31\n        /* \"abstract/Ownable.sol\":1175:1186  _checkOwner */\n      tag_32\n        /* \"abstract/Ownable.sol\":1175:1188  _checkOwner() */\n      jump\t// in\n    tag_31:\n        /* \"database/subsystem/SubsystemDatabase.sol\":681:692  permissions */\n      0x03\n        /* \"database/subsystem/SubsystemDatabase.sol\":681:712  permissions[contractPermission] */\n      0x00\n        /* \"database/subsystem/SubsystemDatabase.sol\":693:711  contractPermission */\n      dup3\n        /* \"database/subsystem/SubsystemDatabase.sol\":681:712  permissions[contractPermission] */\n      0xffffffffffffffffffffffffffffffffffffffff\n      and\n      0xffffffffffffffffffffffffffffffffffffffff\n      and\n      dup2\n      mstore\n      0x20\n      add\n      swap1\n      dup2\n      mstore\n      0x20\n      add\n      0x00\n      keccak256\n      0x00\n      swap1\n      sload\n      swap1\n      0x0100\n      exp\n      swap1\n      div\n      0xff\n      and\n        /* \"database/subsystem/SubsystemDatabase.sol\":680:712  !permissions[contractPermission] */\n      iszero\n        /* \"database/subsystem/SubsystemDatabase.sol\":658:786  require(... */\n      tag_34\n      jumpi\n      mload(0x40)\n      0x08c379a000000000000000000000000000000000000000000000000000000000\n      dup2\n      mstore\n      0x04\n      add\n      tag_35\n      swap1\n      tag_36\n      jump\t// in\n    tag_35:\n      mload(0x40)\n      dup1\n      swap2\n      sub\n      swap1\n      revert\n    tag_34:\n        /* \"database/subsystem/SubsystemDatabase.sol\":831:835  true */\n      0x01\n        /* \"database/subsystem/SubsystemDatabase.sol\":797:808  permissions */\n      0x03\n        /* \"database/subsystem/SubsystemDatabase.sol\":797:828  permissions[contractPermission] */\n      0x00\n        /* \"database/subsystem/SubsystemDatabase.sol\":809:827  contractPermission */\n      dup4\n        /* \"database/subsystem/SubsystemDatabase.sol\":797:828  permissions[contractPermission] */\n      0xffffffffffffffffffffffffffffffffffffffff\n      and\n      0xffffffffffffffffffffffffffffffffffffffff\n      and\n      dup2\n      mstore\n      0x20\n      add\n      swap1\n      dup2\n      mstore\n      0x20\n      add\n      0x00\n      keccak256\n      0x00\n        /* \"database/subsystem/SubsystemDatabase.sol\":797:835  permissions[contractPermission] = true */\n      0x0100\n      exp\n      dup2\n      sload\n      dup2\n      0xff\n      mul\n      not\n      and\n      swap1\n      dup4\n      iszero\n      iszero\n      mul\n      or\n      swap1\n      sstore\n      pop\n        /* \"database/subsystem/SubsystemDatabase.sol\":579:843  function addPermission(address contractPermission) public onlyOwner {... */\n      pop\n      jump\t// out\n        /* \"database/subsystem/SubsystemDatabase.sol\":851:1033  function addSubsystem(Subsystem memory subsystem) public onlyPermissions {... */\n    tag_16:\n        /* \"database/subsystem/SubsystemDatabase.sol\":414:425  permissions */\n      0x03\n        /* \"database/subsystem/SubsystemDatabase.sol\":414:439  permissions[_msgSender()] */\n      0x00\n        /* \"database/subsystem/SubsystemDatabase.sol\":426:438  _msgSender() */\n      tag_38\n        /* \"database/subsystem/SubsystemDatabase.sol\":426:436  _msgSender */\n      tag_39\n        /* \"database/subsystem/SubsystemDatabase.sol\":426:438  _msgSender() */\n      jump\t// in\n    tag_38:\n        /* \"database/subsystem/SubsystemDatabase.sol\":414:439  permissions[_msgSender()] */\n      0xffffffffffffffffffffffffffffffffffffffff\n      and\n      0xffffffffffffffffffffffffffffffffffffffff\n      and\n      dup2\n      mstore\n      0x20\n      add\n      swap1\n      dup2\n      mstore\n      0x20\n      add\n      0x00\n      keccak256\n      0x00\n      swap1\n      sload\n      swap1\n      0x0100\n      exp\n      swap1\n      div\n      0xff\n      and\n        /* \"database/subsystem/SubsystemDatabase.sol\":392:517  require(... */\n      tag_40\n      jumpi\n      mload(0x40)\n      0x08c379a000000000000000000000000000000000000000000000000000000000\n      dup2\n      mstore\n      0x04\n      add\n      tag_41\n      swap1\n      tag_42\n      jump\t// in\n    tag_41:\n      mload(0x40)\n      dup1\n      swap2\n      sub\n      swap1\n      revert\n    tag_40:\n        /* \"database/subsystem/SubsystemDatabase.sol\":935:945  uint256 id */\n      0x00\n        /* \"database/subsystem/SubsystemDatabase.sol\":948:961  autoIncrement */\n      0x02\n      0x00\n        /* \"database/subsystem/SubsystemDatabase.sol\":948:963  autoIncrement++ */\n      dup2\n      sload\n      dup1\n      swap3\n      swap2\n      swap1\n      tag_44\n      swap1\n      tag_45\n      jump\t// in\n    tag_44:\n      swap2\n      swap1\n      pop\n      sstore\n        /* \"database/subsystem/SubsystemDatabase.sol\":935:963  uint256 id = autoIncrement++ */\n      swap1\n      pop\n        /* \"database/subsystem/SubsystemDatabase.sol\":992:994  id */\n      dup1\n        /* \"database/subsystem/SubsystemDatabase.sol\":974:983  subsystem */\n      dup3\n        /* \"database/subsystem/SubsystemDatabase.sol\":974:989  subsystem.subId */\n      0x00\n      add\n        /* \"database/subsystem/SubsystemDatabase.sol\":974:994  subsystem.subId = id */\n      dup2\n      dup2\n      mstore\n      pop\n      pop\n        /* \"database/subsystem/SubsystemDatabase.sol\":1005:1009  list */\n      0x01\n        /* \"database/subsystem/SubsystemDatabase.sol\":1015:1024  subsystem */\n      dup3\n        /* \"database/subsystem/SubsystemDatabase.sol\":1005:1025  list.push(subsystem) */\n      swap1\n      dup1\n      0x01\n      dup2\n      sload\n      add\n      dup1\n      dup3\n      sstore\n      dup1\n      swap2\n      pop\n      pop\n      0x01\n      swap1\n      sub\n      swap1\n      0x00\n      mstore\n      keccak256(0x00, 0x20)\n      swap1\n      0x04\n      mul\n      add\n      0x00\n      swap1\n      swap2\n      swap1\n      swap2\n      swap1\n      swap2\n      pop\n      0x00\n      dup3\n      add\n      mload\n      dup2\n      0x00\n      add\n      sstore\n      0x20\n      dup3\n      add\n      mload\n      dup2\n      0x01\n      add\n      exp(0x0100, 0x00)\n      dup2\n      sload\n      dup2\n      0xffffffffffffffffffffffffffffffffffffffff\n      mul\n      not\n      and\n      swap1\n      dup4\n      0xffffffffffffffffffffffffffffffffffffffff\n      and\n      mul\n      or\n      swap1\n      sstore\n      pop\n      0x40\n      dup3\n      add\n      mload\n      dup2\n      0x02\n      add\n      swap1\n      dup2\n      tag_47\n      swap2\n      swap1\n      tag_48\n      jump\t// in\n    tag_47:\n      pop\n      0x60\n      dup3\n      add\n      mload\n      dup2\n      0x03\n      add\n      swap1\n      dup2\n      tag_49\n      swap2\n      swap1\n      tag_48\n      jump\t// in\n    tag_49:\n      pop\n      pop\n      pop\n        /* \"database/subsystem/SubsystemDatabase.sol\":924:1033  {... */\n      pop\n        /* \"database/subsystem/SubsystemDatabase.sol\":851:1033  function addSubsystem(Subsystem memory subsystem) public onlyPermissions {... */\n      pop\n      jump\t// out\n        /* \"abstract/Ownable.sol\":2801:2892  function destroy() public onlyOwner {... */\n    tag_18:\n        /* \"abstract/Ownable.sol\":1175:1188  _checkOwner() */\n      tag_51\n        /* \"abstract/Ownable.sol\":1175:1186  _checkOwner */\n      tag_32\n        /* \"abstract/Ownable.sol\":1175:1188  _checkOwner() */\n      jump\t// in\n    tag_51:\n        /* \"abstract/Ownable.sol\":2877:2881  this */\n      address\n        /* \"abstract/Ownable.sol\":2848:2884  selfdestruct(payable(address(this))) */\n      0xffffffffffffffffffffffffffffffffffffffff\n      and\n      selfdestruct\n        /* \"database/subsystem/SubsystemDatabase.sol\":1041:1155  function getAllSubsystem() public view onlyPermissions returns (Subsystem[] memory) {... */\n    tag_20:\n        /* \"database/subsystem/SubsystemDatabase.sol\":1105:1123  Subsystem[] memory */\n      0x60\n        /* \"database/subsystem/SubsystemDatabase.sol\":414:425  permissions */\n      0x03\n        /* \"database/subsystem/SubsystemDatabase.sol\":414:439  permissions[_msgSender()] */\n      0x00\n        /* \"database/subsystem/SubsystemDatabase.sol\":426:438  _msgSender() */\n      tag_54\n        /* \"database/subsystem/SubsystemDatabase.sol\":426:436  _msgSender */\n      tag_39\n        /* \"database/subsystem/SubsystemDatabase.sol\":426:438  _msgSender() */\n      jump\t// in\n    tag_54:\n        /* \"database/subsystem/SubsystemDatabase.sol\":414:439  permissions[_msgSender()] */\n      0xffffffffffffffffffffffffffffffffffffffff\n      and\n      0xffffffffffffffffffffffffffffffffffffffff\n      and\n      dup2\n      mstore\n      0x20\n      add\n      swap1\n      dup2\n      mstore\n      0x20\n      add\n      0x00\n      keccak256\n      0x00\n      swap1\n      sload\n      swap1\n      0x0100\n      exp\n      swap1\n      div\n      0xff\n      and\n        /* \"database/subsystem/SubsystemDatabase.sol\":392:517  require(... */\n      tag_55\n      jumpi\n      mload(0x40)\n      0x08c379a000000000000000000000000000000000000000000000000000000000\n      dup2\n      mstore\n      0x04\n      add\n      tag_56\n      swap1\n      tag_42\n      jump\t// in\n    tag_56:\n      mload(0x40)\n      dup1\n      swap2\n      sub\n      swap1\n      revert\n    tag_55:\n        /* \"database/subsystem/SubsystemDatabase.sol\":1143:1147  list */\n      0x01\n        /* \"database/subsystem/SubsystemDatabase.sol\":1136:1147  return list */\n      dup1\n      sload\n      dup1\n      0x20\n      mul\n      0x20\n      add\n      mload(0x40)\n      swap1\n      dup2\n      add\n      0x40\n      mstore\n      dup1\n      swap3\n      swap2\n      swap1\n      dup2\n      dup2\n      mstore\n      0x20\n      add\n      0x00\n      swap1\n    tag_58:\n      dup3\n      dup3\n      lt\n      iszero\n      tag_59\n      jumpi\n      dup4\n      dup3\n      swap1\n      0x00\n      mstore\n      keccak256(0x00, 0x20)\n      swap1\n      0x04\n      mul\n      add\n      mload(0x40)\n      dup1\n      0x80\n      add\n      0x40\n      mstore\n      swap1\n      dup2\n      0x00\n      dup3\n      add\n      sload\n      dup2\n      mstore\n      0x20\n      add\n      0x01\n      dup3\n      add\n      0x00\n      swap1\n      sload\n      swap1\n      0x0100\n      exp\n      swap1\n      div\n      0xffffffffffffffffffffffffffffffffffffffff\n      and\n      0xffffffffffffffffffffffffffffffffffffffff\n      and\n      0xffffffffffffffffffffffffffffffffffffffff\n      and\n      dup2\n      mstore\n      0x20\n      add\n      0x02\n      dup3\n      add\n      dup1\n      sload\n      tag_61\n      swap1\n      tag_62\n      jump\t// in\n    tag_61:\n      dup1\n      0x1f\n      add\n      0x20\n      dup1\n      swap2\n      div\n      mul\n      0x20\n      add\n      mload(0x40)\n      swap1\n      dup2\n      add\n      0x40\n      mstore\n      dup1\n      swap3\n      swap2\n      swap1\n      dup2\n      dup2\n      mstore\n      0x20\n      add\n      dup3\n      dup1\n      sload\n      tag_63\n      swap1\n      tag_62\n      jump\t// in\n    tag_63:\n      dup1\n      iszero\n      tag_64\n      jumpi\n      dup1\n      0x1f\n      lt\n      tag_65\n      jumpi\n      0x0100\n      dup1\n      dup4\n      sload\n      div\n      mul\n      dup4\n      mstore\n      swap2\n      0x20\n      add\n      swap2\n      jump(tag_64)\n    tag_65:\n      dup3\n      add\n      swap2\n      swap1\n      0x00\n      mstore\n      keccak256(0x00, 0x20)\n      swap1\n    tag_66:\n      dup2\n      sload\n      dup2\n      mstore\n      swap1\n      0x01\n      add\n      swap1\n      0x20\n      add\n      dup1\n      dup4\n      gt\n      tag_66\n      jumpi\n      dup3\n      swap1\n      sub\n      0x1f\n      and\n      dup3\n      add\n      swap2\n    tag_64:\n      pop\n      pop\n      pop\n      pop\n      pop\n      dup2\n      mstore\n      0x20\n      add\n      0x03\n      dup3\n      add\n      dup1\n      sload\n      tag_67\n      swap1\n      tag_62\n      jump\t// in\n    tag_67:\n      dup1\n      0x1f\n      add\n      0x20\n      dup1\n      swap2\n      div\n      mul\n      0x20\n      add\n      mload(0x40)\n      swap1\n      dup2\n      add\n      0x40\n      mstore\n      dup1\n      swap3\n      swap2\n      swap1\n      dup2\n      dup2\n      mstore\n      0x20\n      add\n      dup3\n      dup1\n      sload\n      tag_68\n      swap1\n      tag_62\n      jump\t// in\n    tag_68:\n      dup1\n      iszero\n      tag_69\n      jumpi\n      dup1\n      0x1f\n      lt\n      tag_70\n      jumpi\n      0x0100\n      dup1\n      dup4\n      sload\n      div\n      mul\n      dup4\n      mstore\n      swap2\n      0x20\n      add\n      swap2\n      jump(tag_69)\n    tag_70:\n      dup3\n      add\n      swap2\n      swap1\n      0x00\n      mstore\n      keccak256(0x00, 0x20)\n      swap1\n    tag_71:\n      dup2\n      sload\n      dup2\n      mstore\n      swap1\n      0x01\n      add\n      swap1\n      0x20\n      add\n      dup1\n      dup4\n      gt\n      tag_71\n      jumpi\n      dup3\n      swap1\n      sub\n      0x1f\n      and\n      dup3\n      add\n      swap2\n    tag_69:\n      pop\n      pop\n      pop\n      pop\n      pop\n      dup2\n      mstore\n      pop\n      pop\n      dup2\n      mstore\n      0x20\n      add\n      swap1\n      0x01\n      add\n      swap1\n      jump(tag_58)\n    tag_59:\n      pop\n      pop\n      pop\n      pop\n      swap1\n      pop\n        /* \"database/subsystem/SubsystemDatabase.sol\":1041:1155  function getAllSubsystem() public view onlyPermissions returns (Subsystem[] memory) {... */\n      swap1\n      jump\t// out\n        /* \"abstract/Ownable.sol\":1289:1376  function owner() public view virtual returns (address) {... */\n    tag_24:\n        /* \"abstract/Ownable.sol\":1335:1342  address */\n      0x00\n        /* \"abstract/Ownable.sol\":1362:1368  _owner */\n      dup1\n      0x00\n      swap1\n      sload\n      swap1\n      0x0100\n      exp\n      swap1\n      div\n      0xffffffffffffffffffffffffffffffffffffffff\n      and\n        /* \"abstract/Ownable.sol\":1355:1368  return _owner */\n      swap1\n      pop\n        /* \"abstract/Ownable.sol\":1289:1376  function owner() public view virtual returns (address) {... */\n      swap1\n      jump\t// out\n        /* \"abstract/Ownable.sol\":2204:2442  function transferOwnership(address newOwner) public virtual onlyOwner {... */\n    tag_29:\n        /* \"abstract/Ownable.sol\":1175:1188  _checkOwner() */\n      tag_74\n        /* \"abstract/Ownable.sol\":1175:1186  _checkOwner */\n      tag_32\n        /* \"abstract/Ownable.sol\":1175:1188  _checkOwner() */\n      jump\t// in\n    tag_74:\n        /* \"abstract/Ownable.sol\":2327:2328  0 */\n      0x00\n        /* \"abstract/Ownable.sol\":2307:2329  newOwner != address(0) */\n      0xffffffffffffffffffffffffffffffffffffffff\n      and\n        /* \"abstract/Ownable.sol\":2307:2315  newOwner */\n      dup2\n        /* \"abstract/Ownable.sol\":2307:2329  newOwner != address(0) */\n      0xffffffffffffffffffffffffffffffffffffffff\n      and\n      sub\n        /* \"abstract/Ownable.sol\":2285:2395  require(... */\n      tag_76\n      jumpi\n      mload(0x40)\n      0x08c379a000000000000000000000000000000000000000000000000000000000\n      dup2\n      mstore\n      0x04\n      add\n      tag_77\n      swap1\n      tag_78\n      jump\t// in\n    tag_77:\n      mload(0x40)\n      dup1\n      swap2\n      sub\n      swap1\n      revert\n    tag_76:\n        /* \"abstract/Ownable.sol\":2406:2434  _transferOwnership(newOwner) */\n      tag_79\n        /* \"abstract/Ownable.sol\":2425:2433  newOwner */\n      dup2\n        /* \"abstract/Ownable.sol\":2406:2424  _transferOwnership */\n      tag_80\n        /* \"abstract/Ownable.sol\":2406:2434  _transferOwnership(newOwner) */\n      jump\t// in\n    tag_79:\n        /* \"abstract/Ownable.sol\":2204:2442  function transferOwnership(address newOwner) public virtual onlyOwner {... */\n      pop\n      jump\t// out\n        /* \"abstract/Ownable.sol\":1454:1584  function _checkOwner() internal view virtual {... */\n    tag_32:\n        /* \"abstract/Ownable.sol\":1529:1539  msg.sender */\n      caller\n        /* \"abstract/Ownable.sol\":1518:1539  owner() == msg.sender */\n      0xffffffffffffffffffffffffffffffffffffffff\n      and\n        /* \"abstract/Ownable.sol\":1518:1525  owner() */\n      tag_82\n        /* \"abstract/Ownable.sol\":1518:1523  owner */\n      tag_24\n        /* \"abstract/Ownable.sol\":1518:1525  owner() */\n      jump\t// in\n    tag_82:\n        /* \"abstract/Ownable.sol\":1518:1539  owner() == msg.sender */\n      0xffffffffffffffffffffffffffffffffffffffff\n      and\n      eq\n        /* \"abstract/Ownable.sol\":1510:1576  require(owner() == msg.sender, \"Ownable: caller is not the owner\") */\n      tag_83\n      jumpi\n      mload(0x40)\n      0x08c379a000000000000000000000000000000000000000000000000000000000\n      dup2\n      mstore\n      0x04\n      add\n      tag_84\n      swap1\n      tag_85\n      jump\t// in\n    tag_84:\n      mload(0x40)\n      dup1\n      swap2\n      sub\n      swap1\n      revert\n    tag_83:\n        /* \"abstract/Ownable.sol\":1454:1584  function _checkOwner() internal view virtual {... */\n      jump\t// out\n        /* \"@openzeppelin/contracts/utils/Context.sol\":640:736  function _msgSender() internal view virtual returns (address) {... */\n    tag_39:\n        /* \"@openzeppelin/contracts/utils/Context.sol\":693:700  address */\n      0x00\n        /* \"@openzeppelin/contracts/utils/Context.sol\":719:729  msg.sender */\n      caller\n        /* \"@openzeppelin/contracts/utils/Context.sol\":712:729  return msg.sender */\n      swap1\n      pop\n        /* \"@openzeppelin/contracts/utils/Context.sol\":640:736  function _msgSender() internal view virtual returns (address) {... */\n      swap1\n      jump\t// out\n        /* \"abstract/Ownable.sol\":2602:2793  function _transferOwnership(address newOwner) internal virtual {... */\n    tag_80:\n        /* \"abstract/Ownable.sol\":2676:2692  address oldOwner */\n      0x00\n        /* \"abstract/Ownable.sol\":2695:2701  _owner */\n      dup1\n      0x00\n      swap1\n      sload\n      swap1\n      0x0100\n      exp\n      swap1\n      div\n      0xffffffffffffffffffffffffffffffffffffffff\n      and\n        /* \"abstract/Ownable.sol\":2676:2701  address oldOwner = _owner */\n      swap1\n      pop\n        /* \"abstract/Ownable.sol\":2721:2729  newOwner */\n      dup2\n        /* \"abstract/Ownable.sol\":2712:2718  _owner */\n      0x00\n      dup1\n        /* \"abstract/Ownable.sol\":2712:2729  _owner = newOwner */\n      0x0100\n      exp\n      dup2\n      sload\n      dup2\n      0xffffffffffffffffffffffffffffffffffffffff\n      mul\n      not\n      and\n      swap1\n      dup4\n      0xffffffffffffffffffffffffffffffffffffffff\n      and\n      mul\n      or\n      swap1\n      sstore\n      pop\n        /* \"abstract/Ownable.sol\":2776:2784  newOwner */\n      dup2\n        /* \"abstract/Ownable.sol\":2745:2785  OwnershipTransferred(oldOwner, newOwner) */\n      0xffffffffffffffffffffffffffffffffffffffff\n      and\n        /* \"abstract/Ownable.sol\":2766:2774  oldOwner */\n      dup2\n        /* \"abstract/Ownable.sol\":2745:2785  OwnershipTransferred(oldOwner, newOwner) */\n      0xffffffffffffffffffffffffffffffffffffffff\n      and\n      0x8be0079c531659141344cd1fd0a4f28419497f9722a3daafe3b4186f6b6457e0\n      mload(0x40)\n      mload(0x40)\n      dup1\n      swap2\n      sub\n      swap1\n      log3\n        /* \"abstract/Ownable.sol\":2665:2793  {... */\n      pop\n        /* \"abstract/Ownable.sol\":2602:2793  function _transferOwnership(address newOwner) internal virtual {... */\n      pop\n      jump\t// out\n        /* \"#utility.yul\":7:82   */\n    tag_88:\n        /* \"#utility.yul\":40:46   */\n      0x00\n        /* \"#utility.yul\":73:75   */\n      0x40\n        /* \"#utility.yul\":67:76   */\n      mload\n        /* \"#utility.yul\":57:76   */\n      swap1\n      pop\n        /* \"#utility.yul\":7:82   */\n      swap1\n      jump\t// out\n        /* \"#utility.yul\":88:205   */\n    tag_89:\n        /* \"#utility.yul\":197:198   */\n      0x00\n        /* \"#utility.yul\":194:195   */\n      dup1\n        /* \"#utility.yul\":187:199   */\n      revert\n        /* \"#utility.yul\":211:328   */\n    tag_90:\n        /* \"#utility.yul\":320:321   */\n      0x00\n        /* \"#utility.yul\":317:318   */\n      dup1\n        /* \"#utility.yul\":310:322   */\n      revert\n        /* \"#utility.yul\":334:460   */\n    tag_91:\n        /* \"#utility.yul\":371:378   */\n      0x00\n        /* \"#utility.yul\":411:453   */\n      0xffffffffffffffffffffffffffffffffffffffff\n        /* \"#utility.yul\":404:409   */\n      dup3\n        /* \"#utility.yul\":400:454   */\n      and\n        /* \"#utility.yul\":389:454   */\n      swap1\n      pop\n        /* \"#utility.yul\":334:460   */\n      swap2\n      swap1\n      pop\n      jump\t// out\n        /* \"#utility.yul\":466:562   */\n    tag_92:\n        /* \"#utility.yul\":503:510   */\n      0x00\n        /* \"#utility.yul\":532:556   */\n      tag_157\n        /* \"#utility.yul\":550:555   */\n      dup3\n        /* \"#utility.yul\":532:556   */\n      tag_91\n      jump\t// in\n    tag_157:\n        /* \"#utility.yul\":521:556   */\n      swap1\n      pop\n        /* \"#utility.yul\":466:562   */\n      swap2\n      swap1\n      pop\n      jump\t// out\n        /* \"#utility.yul\":568:690   */\n    tag_93:\n        /* \"#utility.yul\":641:665   */\n      tag_159\n        /* \"#utility.yul\":659:664   */\n      dup2\n        /* \"#utility.yul\":641:665   */\n      tag_92\n      jump\t// in\n    tag_159:\n        /* \"#utility.yul\":634:639   */\n      dup2\n        /* \"#utility.yul\":631:666   */\n      eq\n        /* \"#utility.yul\":621:684   */\n      tag_160\n      jumpi\n        /* \"#utility.yul\":680:681   */\n      0x00\n        /* \"#utility.yul\":677:678   */\n      dup1\n        /* \"#utility.yul\":670:682   */\n      revert\n        /* \"#utility.yul\":621:684   */\n    tag_160:\n        /* \"#utility.yul\":568:690   */\n      pop\n      jump\t// out\n        /* \"#utility.yul\":696:835   */\n    tag_94:\n        /* \"#utility.yul\":742:747   */\n      0x00\n        /* \"#utility.yul\":780:786   */\n      dup2\n        /* \"#utility.yul\":767:787   */\n      calldataload\n        /* \"#utility.yul\":758:787   */\n      swap1\n      pop\n        /* \"#utility.yul\":796:829   */\n      tag_162\n        /* \"#utility.yul\":823:828   */\n      dup2\n        /* \"#utility.yul\":796:829   */\n      tag_93\n      jump\t// in\n    tag_162:\n        /* \"#utility.yul\":696:835   */\n      swap3\n      swap2\n      pop\n      pop\n      jump\t// out\n        /* \"#utility.yul\":841:1170   */\n    tag_11:\n        /* \"#utility.yul\":900:906   */\n      0x00\n        /* \"#utility.yul\":949:951   */\n      0x20\n        /* \"#utility.yul\":937:946   */\n      dup3\n        /* \"#utility.yul\":928:935   */\n      dup5\n        /* \"#utility.yul\":924:947   */\n      sub\n        /* \"#utility.yul\":920:952   */\n      slt\n        /* \"#utility.yul\":917:1036   */\n      iszero\n      tag_164\n      jumpi\n        /* \"#utility.yul\":955:1034   */\n      tag_165\n      tag_89\n      jump\t// in\n    tag_165:\n        /* \"#utility.yul\":917:1036   */\n    tag_164:\n        /* \"#utility.yul\":1075:1076   */\n      0x00\n        /* \"#utility.yul\":1100:1153   */\n      tag_166\n        /* \"#utility.yul\":1145:1152   */\n      dup5\n        /* \"#utility.yul\":1136:1142   */\n      dup3\n        /* \"#utility.yul\":1125:1134   */\n      dup6\n        /* \"#utility.yul\":1121:1143   */\n      add\n        /* \"#utility.yul\":1100:1153   */\n      tag_94\n      jump\t// in\n    tag_166:\n        /* \"#utility.yul\":1090:1153   */\n      swap2\n      pop\n        /* \"#utility.yul\":1046:1163   */\n      pop\n        /* \"#utility.yul\":841:1170   */\n      swap3\n      swap2\n      pop\n      pop\n      jump\t// out\n        /* \"#utility.yul\":1176:1293   */\n    tag_95:\n        /* \"#utility.yul\":1285:1286   */\n      0x00\n        /* \"#utility.yul\":1282:1283   */\n      dup1\n        /* \"#utility.yul\":1275:1287   */\n      revert\n        /* \"#utility.yul\":1299:1401   */\n    tag_96:\n        /* \"#utility.yul\":1340:1346   */\n      0x00\n        /* \"#utility.yul\":1391:1393   */\n      0x1f\n        /* \"#utility.yul\":1387:1394   */\n      not\n        /* \"#utility.yul\":1382:1384   */\n      0x1f\n        /* \"#utility.yul\":1375:1380   */\n      dup4\n        /* \"#utility.yul\":1371:1385   */\n      add\n        /* \"#utility.yul\":1367:1395   */\n      and\n        /* \"#utility.yul\":1357:1395   */\n      swap1\n      pop\n        /* \"#utility.yul\":1299:1401   */\n      swap2\n      swap1\n      pop\n      jump\t// out\n        /* \"#utility.yul\":1407:1587   */\n    tag_97:\n        /* \"#utility.yul\":1455:1532   */\n      0x4e487b7100000000000000000000000000000000000000000000000000000000\n        /* \"#utility.yul\":1452:1453   */\n      0x00\n        /* \"#utility.yul\":1445:1533   */\n      mstore\n        /* \"#utility.yul\":1552:1556   */\n      0x41\n        /* \"#utility.yul\":1549:1550   */\n      0x04\n        /* \"#utility.yul\":1542:1557   */\n      mstore\n        /* \"#utility.yul\":1576:1580   */\n      0x24\n        /* \"#utility.yul\":1573:1574   */\n      0x00\n        /* \"#utility.yul\":1566:1581   */\n      revert\n        /* \"#utility.yul\":1593:1874   */\n    tag_98:\n        /* \"#utility.yul\":1676:1703   */\n      tag_171\n        /* \"#utility.yul\":1698:1702   */\n      dup3\n        /* \"#utility.yul\":1676:1703   */\n      tag_96\n      jump\t// in\n    tag_171:\n        /* \"#utility.yul\":1668:1674   */\n      dup2\n        /* \"#utility.yul\":1664:1704   */\n      add\n        /* \"#utility.yul\":1806:1812   */\n      dup2\n        /* \"#utility.yul\":1794:1804   */\n      dup2\n        /* \"#utility.yul\":1791:1813   */\n      lt\n        /* \"#utility.yul\":1770:1788   */\n      0xffffffffffffffff\n        /* \"#utility.yul\":1758:1768   */\n      dup3\n        /* \"#utility.yul\":1755:1789   */\n      gt\n        /* \"#utility.yul\":1752:1814   */\n      or\n        /* \"#utility.yul\":1749:1837   */\n      iszero\n      tag_172\n      jumpi\n        /* \"#utility.yul\":1817:1835   */\n      tag_173\n      tag_97\n      jump\t// in\n    tag_173:\n        /* \"#utility.yul\":1749:1837   */\n    tag_172:\n        /* \"#utility.yul\":1857:1867   */\n      dup1\n        /* \"#utility.yul\":1853:1855   */\n      0x40\n        /* \"#utility.yul\":1846:1868   */\n      mstore\n        /* \"#utility.yul\":1636:1874   */\n      pop\n        /* \"#utility.yul\":1593:1874   */\n      pop\n      pop\n      jump\t// out\n        /* \"#utility.yul\":1880:2009   */\n    tag_99:\n        /* \"#utility.yul\":1914:1920   */\n      0x00\n        /* \"#utility.yul\":1941:1961   */\n      tag_175\n      tag_88\n      jump\t// in\n    tag_175:\n        /* \"#utility.yul\":1931:1961   */\n      swap1\n      pop\n        /* \"#utility.yul\":1970:2003   */\n      tag_176\n        /* \"#utility.yul\":1998:2002   */\n      dup3\n        /* \"#utility.yul\":1990:1996   */\n      dup3\n        /* \"#utility.yul\":1970:2003   */\n      tag_98\n      jump\t// in\n    tag_176:\n        /* \"#utility.yul\":1880:2009   */\n      swap2\n      swap1\n      pop\n      jump\t// out\n        /* \"#utility.yul\":2015:2132   */\n    tag_100:\n        /* \"#utility.yul\":2124:2125   */\n      0x00\n        /* \"#utility.yul\":2121:2122   */\n      dup1\n        /* \"#utility.yul\":2114:2126   */\n      revert\n        /* \"#utility.yul\":2138:2215   */\n    tag_101:\n        /* \"#utility.yul\":2175:2182   */\n      0x00\n        /* \"#utility.yul\":2204:2209   */\n      dup2\n        /* \"#utility.yul\":2193:2209   */\n      swap1\n      pop\n        /* \"#utility.yul\":2138:2215   */\n      swap2\n      swap1\n      pop\n      jump\t// out\n        /* \"#utility.yul\":2221:2343   */\n    tag_102:\n        /* \"#utility.yul\":2294:2318   */\n      tag_180\n        /* \"#utility.yul\":2312:2317   */\n      dup2\n        /* \"#utility.yul\":2294:2318   */\n      tag_101\n      jump\t// in\n    tag_180:\n        /* \"#utility.yul\":2287:2292   */\n      dup2\n        /* \"#utility.yul\":2284:2319   */\n      eq\n        /* \"#utility.yul\":2274:2337   */\n      tag_181\n      jumpi\n        /* \"#utility.yul\":2333:2334   */\n      0x00\n        /* \"#utility.yul\":2330:2331   */\n      dup1\n        /* \"#utility.yul\":2323:2335   */\n      revert\n        /* \"#utility.yul\":2274:2337   */\n    tag_181:\n        /* \"#utility.yul\":2221:2343   */\n      pop\n      jump\t// out\n        /* \"#utility.yul\":2349:2488   */\n    tag_103:\n        /* \"#utility.yul\":2395:2400   */\n      0x00\n        /* \"#utility.yul\":2433:2439   */\n      dup2\n        /* \"#utility.yul\":2420:2440   */\n      calldataload\n        /* \"#utility.yul\":2411:2440   */\n      swap1\n      pop\n        /* \"#utility.yul\":2449:2482   */\n      tag_183\n        /* \"#utility.yul\":2476:2481   */\n      dup2\n        /* \"#utility.yul\":2449:2482   */\n      tag_102\n      jump\t// in\n    tag_183:\n        /* \"#utility.yul\":2349:2488   */\n      swap3\n      swap2\n      pop\n      pop\n      jump\t// out\n        /* \"#utility.yul\":2494:2611   */\n    tag_104:\n        /* \"#utility.yul\":2603:2604   */\n      0x00\n        /* \"#utility.yul\":2600:2601   */\n      dup1\n        /* \"#utility.yul\":2593:2605   */\n      revert\n        /* \"#utility.yul\":2617:2734   */\n    tag_105:\n        /* \"#utility.yul\":2726:2727   */\n      0x00\n        /* \"#utility.yul\":2723:2724   */\n      dup1\n        /* \"#utility.yul\":2716:2728   */\n      revert\n        /* \"#utility.yul\":2740:3048   */\n    tag_106:\n        /* \"#utility.yul\":2802:2806   */\n      0x00\n        /* \"#utility.yul\":2892:2910   */\n      0xffffffffffffffff\n        /* \"#utility.yul\":2884:2890   */\n      dup3\n        /* \"#utility.yul\":2881:2911   */\n      gt\n        /* \"#utility.yul\":2878:2934   */\n      iszero\n      tag_187\n      jumpi\n        /* \"#utility.yul\":2914:2932   */\n      tag_188\n      tag_97\n      jump\t// in\n    tag_188:\n        /* \"#utility.yul\":2878:2934   */\n    tag_187:\n        /* \"#utility.yul\":2952:2981   */\n      tag_189\n        /* \"#utility.yul\":2974:2980   */\n      dup3\n        /* \"#utility.yul\":2952:2981   */\n      tag_96\n      jump\t// in\n    tag_189:\n        /* \"#utility.yul\":2944:2981   */\n      swap1\n      pop\n        /* \"#utility.yul\":3036:3040   */\n      0x20\n        /* \"#utility.yul\":3030:3034   */\n      dup2\n        /* \"#utility.yul\":3026:3041   */\n      add\n        /* \"#utility.yul\":3018:3041   */\n      swap1\n      pop\n        /* \"#utility.yul\":2740:3048   */\n      swap2\n      swap1\n      pop\n      jump\t// out\n        /* \"#utility.yul\":3054:3200   */\n    tag_107:\n        /* \"#utility.yul\":3151:3157   */\n      dup3\n        /* \"#utility.yul\":3146:3149   */\n      dup2\n        /* \"#utility.yul\":3141:3144   */\n      dup4\n        /* \"#utility.yul\":3128:3158   */\n      calldatacopy\n        /* \"#utility.yul\":3192:3193   */\n      0x00\n        /* \"#utility.yul\":3183:3189   */\n      dup4\n        /* \"#utility.yul\":3178:3181   */\n      dup4\n        /* \"#utility.yul\":3174:3190   */\n      add\n        /* \"#utility.yul\":3167:3194   */\n      mstore\n        /* \"#utility.yul\":3054:3200   */\n      pop\n      pop\n      pop\n      jump\t// out\n        /* \"#utility.yul\":3206:3631   */\n    tag_108:\n        /* \"#utility.yul\":3284:3289   */\n      0x00\n        /* \"#utility.yul\":3309:3375   */\n      tag_192\n        /* \"#utility.yul\":3325:3374   */\n      tag_193\n        /* \"#utility.yul\":3367:3373   */\n      dup5\n        /* \"#utility.yul\":3325:3374   */\n      tag_106\n      jump\t// in\n    tag_193:\n        /* \"#utility.yul\":3309:3375   */\n      tag_99\n      jump\t// in\n    tag_192:\n        /* \"#utility.yul\":3300:3375   */\n      swap1\n      pop\n        /* \"#utility.yul\":3398:3404   */\n      dup3\n        /* \"#utility.yul\":3391:3396   */\n      dup2\n        /* \"#utility.yul\":3384:3405   */\n      mstore\n        /* \"#utility.yul\":3436:3440   */\n      0x20\n        /* \"#utility.yul\":3429:3434   */\n      dup2\n        /* \"#utility.yul\":3425:3441   */\n      add\n        /* \"#utility.yul\":3474:3477   */\n      dup5\n        /* \"#utility.yul\":3465:3471   */\n      dup5\n        /* \"#utility.yul\":3460:3463   */\n      dup5\n        /* \"#utility.yul\":3456:3472   */\n      add\n        /* \"#utility.yul\":3453:3478   */\n      gt\n        /* \"#utility.yul\":3450:3562   */\n      iszero\n      tag_194\n      jumpi\n        /* \"#utility.yul\":3481:3560   */\n      tag_195\n      tag_105\n      jump\t// in\n    tag_195:\n        /* \"#utility.yul\":3450:3562   */\n    tag_194:\n        /* \"#utility.yul\":3571:3625   */\n      tag_196\n        /* \"#utility.yul\":3618:3624   */\n      dup5\n        /* \"#utility.yul\":3613:3616   */\n      dup3\n        /* \"#utility.yul\":3608:3611   */\n      dup6\n        /* \"#utility.yul\":3571:3625   */\n      tag_107\n      jump\t// in\n    tag_196:\n        /* \"#utility.yul\":3290:3631   */\n      pop\n        /* \"#utility.yul\":3206:3631   */\n      swap4\n      swap3\n      pop\n      pop\n      pop\n      jump\t// out\n        /* \"#utility.yul\":3651:3991   */\n    tag_109:\n        /* \"#utility.yul\":3707:3712   */\n      0x00\n        /* \"#utility.yul\":3756:3759   */\n      dup3\n        /* \"#utility.yul\":3749:3753   */\n      0x1f\n        /* \"#utility.yul\":3741:3747   */\n      dup4\n        /* \"#utility.yul\":3737:3754   */\n      add\n        /* \"#utility.yul\":3733:3760   */\n      slt\n        /* \"#utility.yul\":3723:3845   */\n      tag_198\n      jumpi\n        /* \"#utility.yul\":3764:3843   */\n      tag_199\n      tag_104\n      jump\t// in\n    tag_199:\n        /* \"#utility.yul\":3723:3845   */\n    tag_198:\n        /* \"#utility.yul\":3881:3887   */\n      dup2\n        /* \"#utility.yul\":3868:3888   */\n      calldataload\n        /* \"#utility.yul\":3906:3985   */\n      tag_200\n        /* \"#utility.yul\":3981:3984   */\n      dup5\n        /* \"#utility.yul\":3973:3979   */\n      dup3\n        /* \"#utility.yul\":3966:3970   */\n      0x20\n        /* \"#utility.yul\":3958:3964   */\n      dup7\n        /* \"#utility.yul\":3954:3971   */\n      add\n        /* \"#utility.yul\":3906:3985   */\n      tag_108\n      jump\t// in\n    tag_200:\n        /* \"#utility.yul\":3897:3985   */\n      swap2\n      pop\n        /* \"#utility.yul\":3713:3991   */\n      pop\n        /* \"#utility.yul\":3651:3991   */\n      swap3\n      swap2\n      pop\n      pop\n      jump\t// out\n        /* \"#utility.yul\":4021:5282   */\n    tag_110:\n        /* \"#utility.yul\":4096:4101   */\n      0x00\n        /* \"#utility.yul\":4140:4144   */\n      0x80\n        /* \"#utility.yul\":4128:4137   */\n      dup3\n        /* \"#utility.yul\":4123:4126   */\n      dup5\n        /* \"#utility.yul\":4119:4138   */\n      sub\n        /* \"#utility.yul\":4115:4145   */\n      slt\n        /* \"#utility.yul\":4112:4229   */\n      iszero\n      tag_202\n      jumpi\n        /* \"#utility.yul\":4148:4227   */\n      tag_203\n      tag_95\n      jump\t// in\n    tag_203:\n        /* \"#utility.yul\":4112:4229   */\n    tag_202:\n        /* \"#utility.yul\":4247:4268   */\n      tag_204\n        /* \"#utility.yul\":4263:4267   */\n      0x80\n        /* \"#utility.yul\":4247:4268   */\n      tag_99\n      jump\t// in\n    tag_204:\n        /* \"#utility.yul\":4238:4268   */\n      swap1\n      pop\n        /* \"#utility.yul\":4328:4329   */\n      0x00\n        /* \"#utility.yul\":4368:4417   */\n      tag_205\n        /* \"#utility.yul\":4413:4416   */\n      dup5\n        /* \"#utility.yul\":4404:4410   */\n      dup3\n        /* \"#utility.yul\":4393:4402   */\n      dup6\n        /* \"#utility.yul\":4389:4411   */\n      add\n        /* \"#utility.yul\":4368:4417   */\n      tag_103\n      jump\t// in\n    tag_205:\n        /* \"#utility.yul\":4361:4365   */\n      0x00\n        /* \"#utility.yul\":4354:4359   */\n      dup4\n        /* \"#utility.yul\":4350:4366   */\n      add\n        /* \"#utility.yul\":4343:4418   */\n      mstore\n        /* \"#utility.yul\":4278:4429   */\n      pop\n        /* \"#utility.yul\":4495:4497   */\n      0x20\n        /* \"#utility.yul\":4536:4585   */\n      tag_206\n        /* \"#utility.yul\":4581:4584   */\n      dup5\n        /* \"#utility.yul\":4572:4578   */\n      dup3\n        /* \"#utility.yul\":4561:4570   */\n      dup6\n        /* \"#utility.yul\":4557:4579   */\n      add\n        /* \"#utility.yul\":4536:4585   */\n      tag_94\n      jump\t// in\n    tag_206:\n        /* \"#utility.yul\":4529:4533   */\n      0x20\n        /* \"#utility.yul\":4522:4527   */\n      dup4\n        /* \"#utility.yul\":4518:4534   */\n      add\n        /* \"#utility.yul\":4511:4586   */\n      mstore\n        /* \"#utility.yul\":4439:4597   */\n      pop\n        /* \"#utility.yul\":4692:4694   */\n      0x40\n        /* \"#utility.yul\":4681:4690   */\n      dup3\n        /* \"#utility.yul\":4677:4695   */\n      add\n        /* \"#utility.yul\":4664:4696   */\n      calldataload\n        /* \"#utility.yul\":4723:4741   */\n      0xffffffffffffffff\n        /* \"#utility.yul\":4715:4721   */\n      dup2\n        /* \"#utility.yul\":4712:4742   */\n      gt\n        /* \"#utility.yul\":4709:4826   */\n      iszero\n      tag_207\n      jumpi\n        /* \"#utility.yul\":4745:4824   */\n      tag_208\n      tag_100\n      jump\t// in\n    tag_208:\n        /* \"#utility.yul\":4709:4826   */\n    tag_207:\n        /* \"#utility.yul\":4865:4924   */\n      tag_209\n        /* \"#utility.yul\":4920:4923   */\n      dup5\n        /* \"#utility.yul\":4911:4917   */\n      dup3\n        /* \"#utility.yul\":4900:4909   */\n      dup6\n        /* \"#utility.yul\":4896:4918   */\n      add\n        /* \"#utility.yul\":4865:4924   */\n      tag_109\n      jump\t// in\n    tag_209:\n        /* \"#utility.yul\":4858:4862   */\n      0x40\n        /* \"#utility.yul\":4851:4856   */\n      dup4\n        /* \"#utility.yul\":4847:4863   */\n      add\n        /* \"#utility.yul\":4840:4925   */\n      mstore\n        /* \"#utility.yul\":4607:4936   */\n      pop\n        /* \"#utility.yul\":5031:5033   */\n      0x60\n        /* \"#utility.yul\":5020:5029   */\n      dup3\n        /* \"#utility.yul\":5016:5034   */\n      add\n        /* \"#utility.yul\":5003:5035   */\n      calldataload\n        /* \"#utility.yul\":5062:5080   */\n      0xffffffffffffffff\n        /* \"#utility.yul\":5054:5060   */\n      dup2\n        /* \"#utility.yul\":5051:5081   */\n      gt\n        /* \"#utility.yul\":5048:5165   */\n      iszero\n      tag_210\n      jumpi\n        /* \"#utility.yul\":5084:5163   */\n      tag_211\n      tag_100\n      jump\t// in\n    tag_211:\n        /* \"#utility.yul\":5048:5165   */\n    tag_210:\n        /* \"#utility.yul\":5204:5263   */\n      tag_212\n        /* \"#utility.yul\":5259:5262   */\n      dup5\n        /* \"#utility.yul\":5250:5256   */\n      dup3\n        /* \"#utility.yul\":5239:5248   */\n      dup6\n        /* \"#utility.yul\":5235:5257   */\n      add\n        /* \"#utility.yul\":5204:5263   */\n      tag_109\n      jump\t// in\n    tag_212:\n        /* \"#utility.yul\":5197:5201   */\n      0x60\n        /* \"#utility.yul\":5190:5195   */\n      dup4\n        /* \"#utility.yul\":5186:5202   */\n      add\n        /* \"#utility.yul\":5179:5264   */\n      mstore\n        /* \"#utility.yul\":4946:5275   */\n      pop\n        /* \"#utility.yul\":4021:5282   */\n      swap3\n      swap2\n      pop\n      pop\n      jump\t// out\n        /* \"#utility.yul\":5288:5829   */\n    tag_15:\n        /* \"#utility.yul\":5373:5379   */\n      0x00\n        /* \"#utility.yul\":5422:5424   */\n      0x20\n        /* \"#utility.yul\":5410:5419   */\n      dup3\n        /* \"#utility.yul\":5401:5408   */\n      dup5\n        /* \"#utility.yul\":5397:5420   */\n      sub\n        /* \"#utility.yul\":5393:5425   */\n      slt\n        /* \"#utility.yul\":5390:5509   */\n      iszero\n      tag_214\n      jumpi\n        /* \"#utility.yul\":5428:5507   */\n      tag_215\n      tag_89\n      jump\t// in\n    tag_215:\n        /* \"#utility.yul\":5390:5509   */\n    tag_214:\n        /* \"#utility.yul\":5576:5577   */\n      0x00\n        /* \"#utility.yul\":5565:5574   */\n      dup3\n        /* \"#utility.yul\":5561:5578   */\n      add\n        /* \"#utility.yul\":5548:5579   */\n      calldataload\n        /* \"#utility.yul\":5606:5624   */\n      0xffffffffffffffff\n        /* \"#utility.yul\":5598:5604   */\n      dup2\n        /* \"#utility.yul\":5595:5625   */\n      gt\n        /* \"#utility.yul\":5592:5709   */\n      iszero\n      tag_216\n      jumpi\n        /* \"#utility.yul\":5628:5707   */\n      tag_217\n      tag_90\n      jump\t// in\n    tag_217:\n        /* \"#utility.yul\":5592:5709   */\n    tag_216:\n        /* \"#utility.yul\":5733:5812   */\n      tag_218\n        /* \"#utility.yul\":5804:5811   */\n      dup5\n        /* \"#utility.yul\":5795:5801   */\n      dup3\n        /* \"#utility.yul\":5784:5793   */\n      dup6\n        /* \"#utility.yul\":5780:5802   */\n      add\n        /* \"#utility.yul\":5733:5812   */\n      tag_110\n      jump\t// in\n    tag_218:\n        /* \"#utility.yul\":5723:5812   */\n      swap2\n      pop\n        /* \"#utility.yul\":5519:5822   */\n      pop\n        /* \"#utility.yul\":5288:5829   */\n      swap3\n      swap2\n      pop\n      pop\n      jump\t// out\n        /* \"#utility.yul\":5835:5975   */\n    tag_111:\n        /* \"#utility.yul\":5928:5934   */\n      0x00\n        /* \"#utility.yul\":5962:5967   */\n      dup2\n        /* \"#utility.yul\":5956:5968   */\n      mload\n        /* \"#utility.yul\":5946:5968   */\n      swap1\n      pop\n        /* \"#utility.yul\":5835:5975   */\n      swap2\n      swap1\n      pop\n      jump\t// out\n        /* \"#utility.yul\":5981:6191   */\n    tag_112:\n        /* \"#utility.yul\":6106:6117   */\n      0x00\n        /* \"#utility.yul\":6140:6146   */\n      dup3\n        /* \"#utility.yul\":6135:6138   */\n      dup3\n        /* \"#utility.yul\":6128:6147   */\n      mstore\n        /* \"#utility.yul\":6180:6184   */\n      0x20\n        /* \"#utility.yul\":6175:6178   */\n      dup3\n        /* \"#utility.yul\":6171:6185   */\n      add\n        /* \"#utility.yul\":6156:6185   */\n      swap1\n      pop\n        /* \"#utility.yul\":5981:6191   */\n      swap3\n      swap2\n      pop\n      pop\n      jump\t// out\n        /* \"#utility.yul\":6197:6355   */\n    tag_113:\n        /* \"#utility.yul\":6290:6294   */\n      0x00\n        /* \"#utility.yul\":6313:6316   */\n      dup2\n        /* \"#utility.yul\":6305:6316   */\n      swap1\n      pop\n        /* \"#utility.yul\":6343:6347   */\n      0x20\n        /* \"#utility.yul\":6338:6341   */\n      dup3\n        /* \"#utility.yul\":6334:6348   */\n      add\n        /* \"#utility.yul\":6326:6348   */\n      swap1\n      pop\n        /* \"#utility.yul\":6197:6355   */\n      swap2\n      swap1\n      pop\n      jump\t// out\n        /* \"#utility.yul\":6361:6469   */\n    tag_114:\n        /* \"#utility.yul\":6438:6462   */\n      tag_223\n        /* \"#utility.yul\":6456:6461   */\n      dup2\n        /* \"#utility.yul\":6438:6462   */\n      tag_101\n      jump\t// in\n    tag_223:\n        /* \"#utility.yul\":6433:6436   */\n      dup3\n        /* \"#utility.yul\":6426:6463   */\n      mstore\n        /* \"#utility.yul\":6361:6469   */\n      pop\n      pop\n      jump\t// out\n        /* \"#utility.yul\":6475:6583   */\n    tag_115:\n        /* \"#utility.yul\":6552:6576   */\n      tag_225\n        /* \"#utility.yul\":6570:6575   */\n      dup2\n        /* \"#utility.yul\":6552:6576   */\n      tag_92\n      jump\t// in\n    tag_225:\n        /* \"#utility.yul\":6547:6550   */\n      dup3\n        /* \"#utility.yul\":6540:6577   */\n      mstore\n        /* \"#utility.yul\":6475:6583   */\n      pop\n      pop\n      jump\t// out\n        /* \"#utility.yul\":6589:6688   */\n    tag_116:\n        /* \"#utility.yul\":6641:6647   */\n      0x00\n        /* \"#utility.yul\":6675:6680   */\n      dup2\n        /* \"#utility.yul\":6669:6681   */\n      mload\n        /* \"#utility.yul\":6659:6681   */\n      swap1\n      pop\n        /* \"#utility.yul\":6589:6688   */\n      swap2\n      swap1\n      pop\n      jump\t// out\n        /* \"#utility.yul\":6694:6853   */\n    tag_117:\n        /* \"#utility.yul\":6768:6779   */\n      0x00\n        /* \"#utility.yul\":6802:6808   */\n      dup3\n        /* \"#utility.yul\":6797:6800   */\n      dup3\n        /* \"#utility.yul\":6790:6809   */\n      mstore\n        /* \"#utility.yul\":6842:6846   */\n      0x20\n        /* \"#utility.yul\":6837:6840   */\n      dup3\n        /* \"#utility.yul\":6833:6847   */\n      add\n        /* \"#utility.yul\":6818:6847   */\n      swap1\n      pop\n        /* \"#utility.yul\":6694:6853   */\n      swap3\n      swap2\n      pop\n      pop\n      jump\t// out\n        /* \"#utility.yul\":6859:7105   */\n    tag_118:\n        /* \"#utility.yul\":6940:6941   */\n      0x00\n        /* \"#utility.yul\":6950:7063   */\n    tag_229:\n        /* \"#utility.yul\":6964:6970   */\n      dup4\n        /* \"#utility.yul\":6961:6962   */\n      dup2\n        /* \"#utility.yul\":6958:6971   */\n      lt\n        /* \"#utility.yul\":6950:7063   */\n      iszero\n      tag_231\n      jumpi\n        /* \"#utility.yul\":7049:7050   */\n      dup1\n        /* \"#utility.yul\":7044:7047   */\n      dup3\n        /* \"#utility.yul\":7040:7051   */\n      add\n        /* \"#utility.yul\":7034:7052   */\n      mload\n        /* \"#utility.yul\":7030:7031   */\n      dup2\n        /* \"#utility.yul\":7025:7028   */\n      dup5\n        /* \"#utility.yul\":7021:7032   */\n      add\n        /* \"#utility.yul\":7014:7053   */\n      mstore\n        /* \"#utility.yul\":6986:6988   */\n      0x20\n        /* \"#utility.yul\":6983:6984   */\n      dup2\n        /* \"#utility.yul\":6979:6989   */\n      add\n        /* \"#utility.yul\":6974:6989   */\n      swap1\n      pop\n        /* \"#utility.yul\":6950:7063   */\n      jump(tag_229)\n    tag_231:\n        /* \"#utility.yul\":7097:7098   */\n      0x00\n        /* \"#utility.yul\":7088:7094   */\n      dup5\n        /* \"#utility.yul\":7083:7086   */\n      dup5\n        /* \"#utility.yul\":7079:7095   */\n      add\n        /* \"#utility.yul\":7072:7099   */\n      mstore\n        /* \"#utility.yul\":6921:7105   */\n      pop\n        /* \"#utility.yul\":6859:7105   */\n      pop\n      pop\n      pop\n      jump\t// out\n        /* \"#utility.yul\":7111:7468   */\n    tag_119:\n        /* \"#utility.yul\":7189:7192   */\n      0x00\n        /* \"#utility.yul\":7217:7256   */\n      tag_233\n        /* \"#utility.yul\":7250:7255   */\n      dup3\n        /* \"#utility.yul\":7217:7256   */\n      tag_116\n      jump\t// in\n    tag_233:\n        /* \"#utility.yul\":7272:7333   */\n      tag_234\n        /* \"#utility.yul\":7326:7332   */\n      dup2\n        /* \"#utility.yul\":7321:7324   */\n      dup6\n        /* \"#utility.yul\":7272:7333   */\n      tag_117\n      jump\t// in\n    tag_234:\n        /* \"#utility.yul\":7265:7333   */\n      swap4\n      pop\n        /* \"#utility.yul\":7342:7407   */\n      tag_235\n        /* \"#utility.yul\":7400:7406   */\n      dup2\n        /* \"#utility.yul\":7395:7398   */\n      dup6\n        /* \"#utility.yul\":7388:7392   */\n      0x20\n        /* \"#utility.yul\":7381:7386   */\n      dup7\n        /* \"#utility.yul\":7377:7393   */\n      add\n        /* \"#utility.yul\":7342:7407   */\n      tag_118\n      jump\t// in\n    tag_235:\n        /* \"#utility.yul\":7432:7461   */\n      tag_236\n        /* \"#utility.yul\":7454:7460   */\n      dup2\n        /* \"#utility.yul\":7432:7461   */\n      tag_96\n      jump\t// in\n    tag_236:\n        /* \"#utility.yul\":7427:7430   */\n      dup5\n        /* \"#utility.yul\":7423:7462   */\n      add\n        /* \"#utility.yul\":7416:7462   */\n      swap2\n      pop\n        /* \"#utility.yul\":7193:7468   */\n      pop\n        /* \"#utility.yul\":7111:7468   */\n      swap3\n      swap2\n      pop\n      pop\n      jump\t// out\n        /* \"#utility.yul\":7518:8559   */\n    tag_120:\n        /* \"#utility.yul\":7629:7632   */\n      0x00\n        /* \"#utility.yul\":7665:7669   */\n      0x80\n        /* \"#utility.yul\":7660:7663   */\n      dup4\n        /* \"#utility.yul\":7656:7670   */\n      add\n        /* \"#utility.yul\":7753:7757   */\n      0x00\n        /* \"#utility.yul\":7746:7751   */\n      dup4\n        /* \"#utility.yul\":7742:7758   */\n      add\n        /* \"#utility.yul\":7736:7759   */\n      mload\n        /* \"#utility.yul\":7772:7835   */\n      tag_238\n        /* \"#utility.yul\":7829:7833   */\n      0x00\n        /* \"#utility.yul\":7824:7827   */\n      dup7\n        /* \"#utility.yul\":7820:7834   */\n      add\n        /* \"#utility.yul\":7806:7818   */\n      dup3\n        /* \"#utility.yul\":7772:7835   */\n      tag_114\n      jump\t// in\n    tag_238:\n        /* \"#utility.yul\":7680:7845   */\n      pop\n        /* \"#utility.yul\":7934:7938   */\n      0x20\n        /* \"#utility.yul\":7927:7932   */\n      dup4\n        /* \"#utility.yul\":7923:7939   */\n      add\n        /* \"#utility.yul\":7917:7940   */\n      mload\n        /* \"#utility.yul\":7953:8016   */\n      tag_239\n        /* \"#utility.yul\":8010:8014   */\n      0x20\n        /* \"#utility.yul\":8005:8008   */\n      dup7\n        /* \"#utility.yul\":8001:8015   */\n      add\n        /* \"#utility.yul\":7987:7999   */\n      dup3\n        /* \"#utility.yul\":7953:8016   */\n      tag_115\n      jump\t// in\n    tag_239:\n        /* \"#utility.yul\":7855:8026   */\n      pop\n        /* \"#utility.yul\":8116:8120   */\n      0x40\n        /* \"#utility.yul\":8109:8114   */\n      dup4\n        /* \"#utility.yul\":8105:8121   */\n      add\n        /* \"#utility.yul\":8099:8122   */\n      mload\n        /* \"#utility.yul\":8169:8172   */\n      dup5\n        /* \"#utility.yul\":8163:8167   */\n      dup3\n        /* \"#utility.yul\":8159:8173   */\n      sub\n        /* \"#utility.yul\":8152:8156   */\n      0x40\n        /* \"#utility.yul\":8147:8150   */\n      dup7\n        /* \"#utility.yul\":8143:8157   */\n      add\n        /* \"#utility.yul\":8136:8174   */\n      mstore\n        /* \"#utility.yul\":8195:8268   */\n      tag_240\n        /* \"#utility.yul\":8263:8267   */\n      dup3\n        /* \"#utility.yul\":8249:8261   */\n      dup3\n        /* \"#utility.yul\":8195:8268   */\n      tag_119\n      jump\t// in\n    tag_240:\n        /* \"#utility.yul\":8187:8268   */\n      swap2\n      pop\n        /* \"#utility.yul\":8036:8279   */\n      pop\n        /* \"#utility.yul\":8369:8373   */\n      0x60\n        /* \"#utility.yul\":8362:8367   */\n      dup4\n        /* \"#utility.yul\":8358:8374   */\n      add\n        /* \"#utility.yul\":8352:8375   */\n      mload\n        /* \"#utility.yul\":8422:8425   */\n      dup5\n        /* \"#utility.yul\":8416:8420   */\n      dup3\n        /* \"#utility.yul\":8412:8426   */\n      sub\n        /* \"#utility.yul\":8405:8409   */\n      0x60\n        /* \"#utility.yul\":8400:8403   */\n      dup7\n        /* \"#utility.yul\":8396:8410   */\n      add\n        /* \"#utility.yul\":8389:8427   */\n      mstore\n        /* \"#utility.yul\":8448:8521   */\n      tag_241\n        /* \"#utility.yul\":8516:8520   */\n      dup3\n        /* \"#utility.yul\":8502:8514   */\n      dup3\n        /* \"#utility.yul\":8448:8521   */\n      tag_119\n      jump\t// in\n    tag_241:\n        /* \"#utility.yul\":8440:8521   */\n      swap2\n      pop\n        /* \"#utility.yul\":8289:8532   */\n      pop\n        /* \"#utility.yul\":8549:8553   */\n      dup1\n        /* \"#utility.yul\":8542:8553   */\n      swap2\n      pop\n        /* \"#utility.yul\":7634:8559   */\n      pop\n        /* \"#utility.yul\":7518:8559   */\n      swap3\n      swap2\n      pop\n      pop\n      jump\t// out\n        /* \"#utility.yul\":8565:8825   */\n    tag_121:\n        /* \"#utility.yul\":8686:8696   */\n      0x00\n        /* \"#utility.yul\":8721:8819   */\n      tag_243\n        /* \"#utility.yul\":8815:8818   */\n      dup4\n        /* \"#utility.yul\":8807:8813   */\n      dup4\n        /* \"#utility.yul\":8721:8819   */\n      tag_120\n      jump\t// in\n    tag_243:\n        /* \"#utility.yul\":8707:8819   */\n      swap1\n      pop\n        /* \"#utility.yul\":8565:8825   */\n      swap3\n      swap2\n      pop\n      pop\n      jump\t// out\n        /* \"#utility.yul\":8831:8970   */\n    tag_122:\n        /* \"#utility.yul\":8927:8931   */\n      0x00\n        /* \"#utility.yul\":8959:8963   */\n      0x20\n        /* \"#utility.yul\":8954:8957   */\n      dup3\n        /* \"#utility.yul\":8950:8964   */\n      add\n        /* \"#utility.yul\":8942:8964   */\n      swap1\n      pop\n        /* \"#utility.yul\":8831:8970   */\n      swap2\n      swap1\n      pop\n      jump\t// out\n        /* \"#utility.yul\":9024:10143   */\n    tag_123:\n        /* \"#utility.yul\":9195:9198   */\n      0x00\n        /* \"#utility.yul\":9224:9304   */\n      tag_246\n        /* \"#utility.yul\":9298:9303   */\n      dup3\n        /* \"#utility.yul\":9224:9304   */\n      tag_111\n      jump\t// in\n    tag_246:\n        /* \"#utility.yul\":9320:9432   */\n      tag_247\n        /* \"#utility.yul\":9425:9431   */\n      dup2\n        /* \"#utility.yul\":9420:9423   */\n      dup6\n        /* \"#utility.yul\":9320:9432   */\n      tag_112\n      jump\t// in\n    tag_247:\n        /* \"#utility.yul\":9313:9432   */\n      swap4\n      pop\n        /* \"#utility.yul\":9458:9461   */\n      dup4\n        /* \"#utility.yul\":9503:9507   */\n      0x20\n        /* \"#utility.yul\":9495:9501   */\n      dup3\n        /* \"#utility.yul\":9491:9508   */\n      mul\n        /* \"#utility.yul\":9486:9489   */\n      dup6\n        /* \"#utility.yul\":9482:9509   */\n      add\n        /* \"#utility.yul\":9533:9615   */\n      tag_248\n        /* \"#utility.yul\":9609:9614   */\n      dup6\n        /* \"#utility.yul\":9533:9615   */\n      tag_113\n      jump\t// in\n    tag_248:\n        /* \"#utility.yul\":9638:9645   */\n      dup1\n        /* \"#utility.yul\":9669:9670   */\n      0x00\n        /* \"#utility.yul\":9654:10098   */\n    tag_249:\n        /* \"#utility.yul\":9679:9685   */\n      dup6\n        /* \"#utility.yul\":9676:9677   */\n      dup2\n        /* \"#utility.yul\":9673:9686   */\n      lt\n        /* \"#utility.yul\":9654:10098   */\n      iszero\n      tag_251\n      jumpi\n        /* \"#utility.yul\":9750:9759   */\n      dup5\n        /* \"#utility.yul\":9744:9748   */\n      dup5\n        /* \"#utility.yul\":9740:9760   */\n      sub\n        /* \"#utility.yul\":9735:9738   */\n      dup10\n        /* \"#utility.yul\":9728:9761   */\n      mstore\n        /* \"#utility.yul\":9801:9807   */\n      dup2\n        /* \"#utility.yul\":9795:9808   */\n      mload\n        /* \"#utility.yul\":9829:9945   */\n      tag_252\n        /* \"#utility.yul\":9940:9944   */\n      dup6\n        /* \"#utility.yul\":9925:9938   */\n      dup3\n        /* \"#utility.yul\":9829:9945   */\n      tag_121\n      jump\t// in\n    tag_252:\n        /* \"#utility.yul\":9821:9945   */\n      swap5\n      pop\n        /* \"#utility.yul\":9968:10054   */\n      tag_253\n        /* \"#utility.yul\":10047:10053   */\n      dup4\n        /* \"#utility.yul\":9968:10054   */\n      tag_122\n      jump\t// in\n    tag_253:\n        /* \"#utility.yul\":9958:10054   */\n      swap3\n      pop\n        /* \"#utility.yul\":10083:10087   */\n      0x20\n        /* \"#utility.yul\":10078:10081   */\n      dup11\n        /* \"#utility.yul\":10074:10088   */\n      add\n        /* \"#utility.yul\":10067:10088   */\n      swap10\n      pop\n        /* \"#utility.yul\":9714:10098   */\n      pop\n        /* \"#utility.yul\":9701:9702   */\n      0x01\n        /* \"#utility.yul\":9698:9699   */\n      dup2\n        /* \"#utility.yul\":9694:9703   */\n      add\n        /* \"#utility.yul\":9689:9703   */\n      swap1\n      pop\n        /* \"#utility.yul\":9654:10098   */\n      jump(tag_249)\n    tag_251:\n        /* \"#utility.yul\":9658:9672   */\n      pop\n        /* \"#utility.yul\":10114:10118   */\n      dup3\n        /* \"#utility.yul\":10107:10118   */\n      swap8\n      pop\n        /* \"#utility.yul\":10134:10137   */\n      dup8\n        /* \"#utility.yul\":10127:10137   */\n      swap6\n      pop\n        /* \"#utility.yul\":9200:10143   */\n      pop\n      pop\n      pop\n      pop\n      pop\n        /* \"#utility.yul\":9024:10143   */\n      swap3\n      swap2\n      pop\n      pop\n      jump\t// out\n        /* \"#utility.yul\":10149:10626   */\n    tag_22:\n        /* \"#utility.yul\":10344:10348   */\n      0x00\n        /* \"#utility.yul\":10382:10384   */\n      0x20\n        /* \"#utility.yul\":10371:10380   */\n      dup3\n        /* \"#utility.yul\":10367:10385   */\n      add\n        /* \"#utility.yul\":10359:10385   */\n      swap1\n      pop\n        /* \"#utility.yul\":10431:10440   */\n      dup2\n        /* \"#utility.yul\":10425:10429   */\n      dup2\n        /* \"#utility.yul\":10421:10441   */\n      sub\n        /* \"#utility.yul\":10417:10418   */\n      0x00\n        /* \"#utility.yul\":10406:10415   */\n      dup4\n        /* \"#utility.yul\":10402:10419   */\n      add\n        /* \"#utility.yul\":10395:10442   */\n      mstore\n        /* \"#utility.yul\":10459:10619   */\n      tag_255\n        /* \"#utility.yul\":10614:10618   */\n      dup2\n        /* \"#utility.yul\":10605:10611   */\n      dup5\n        /* \"#utility.yul\":10459:10619   */\n      tag_123\n      jump\t// in\n    tag_255:\n        /* \"#utility.yul\":10451:10619   */\n      swap1\n      pop\n        /* \"#utility.yul\":10149:10626   */\n      swap3\n      swap2\n      pop\n      pop\n      jump\t// out\n        /* \"#utility.yul\":10632:10750   */\n    tag_124:\n        /* \"#utility.yul\":10719:10743   */\n      tag_257\n        /* \"#utility.yul\":10737:10742   */\n      dup2\n        /* \"#utility.yul\":10719:10743   */\n      tag_92\n      jump\t// in\n    tag_257:\n        /* \"#utility.yul\":10714:10717   */\n      dup3\n        /* \"#utility.yul\":10707:10744   */\n      mstore\n        /* \"#utility.yul\":10632:10750   */\n      pop\n      pop\n      jump\t// out\n        /* \"#utility.yul\":10756:10978   */\n    tag_26:\n        /* \"#utility.yul\":10849:10853   */\n      0x00\n        /* \"#utility.yul\":10887:10889   */\n      0x20\n        /* \"#utility.yul\":10876:10885   */\n      dup3\n        /* \"#utility.yul\":10872:10890   */\n      add\n        /* \"#utility.yul\":10864:10890   */\n      swap1\n      pop\n        /* \"#utility.yul\":10900:10971   */\n      tag_259\n        /* \"#utility.yul\":10968:10969   */\n      0x00\n        /* \"#utility.yul\":10957:10966   */\n      dup4\n        /* \"#utility.yul\":10953:10970   */\n      add\n        /* \"#utility.yul\":10944:10950   */\n      dup5\n        /* \"#utility.yul\":10900:10971   */\n      tag_124\n      jump\t// in\n    tag_259:\n        /* \"#utility.yul\":10756:10978   */\n      swap3\n      swap2\n      pop\n      pop\n      jump\t// out\n        /* \"#utility.yul\":10984:11153   */\n    tag_125:\n        /* \"#utility.yul\":11068:11079   */\n      0x00\n        /* \"#utility.yul\":11102:11108   */\n      dup3\n        /* \"#utility.yul\":11097:11100   */\n      dup3\n        /* \"#utility.yul\":11090:11109   */\n      mstore\n        /* \"#utility.yul\":11142:11146   */\n      0x20\n        /* \"#utility.yul\":11137:11140   */\n      dup3\n        /* \"#utility.yul\":11133:11147   */\n      add\n        /* \"#utility.yul\":11118:11147   */\n      swap1\n      pop\n        /* \"#utility.yul\":10984:11153   */\n      swap3\n      swap2\n      pop\n      pop\n      jump\t// out\n        /* \"#utility.yul\":11159:11392   */\n    tag_126:\n        /* \"#utility.yul\":11299:11333   */\n      0x53756273797374656d44617461626173653a207065726d697373696f6e206861\n        /* \"#utility.yul\":11295:11296   */\n      0x00\n        /* \"#utility.yul\":11287:11293   */\n      dup3\n        /* \"#utility.yul\":11283:11297   */\n      add\n        /* \"#utility.yul\":11276:11334   */\n      mstore\n        /* \"#utility.yul\":11368:11384   */\n      0x73206265656e206772616e746564000000000000000000000000000000000000\n        /* \"#utility.yul\":11363:11365   */\n      0x20\n        /* \"#utility.yul\":11355:11361   */\n      dup3\n        /* \"#utility.yul\":11351:11366   */\n      add\n        /* \"#utility.yul\":11344:11385   */\n      mstore\n        /* \"#utility.yul\":11159:11392   */\n      pop\n      jump\t// out\n        /* \"#utility.yul\":11398:11764   */\n    tag_127:\n        /* \"#utility.yul\":11540:11543   */\n      0x00\n        /* \"#utility.yul\":11561:11628   */\n      tag_263\n        /* \"#utility.yul\":11625:11627   */\n      0x2e\n        /* \"#utility.yul\":11620:11623   */\n      dup4\n        /* \"#utility.yul\":11561:11628   */\n      tag_125\n      jump\t// in\n    tag_263:\n        /* \"#utility.yul\":11554:11628   */\n      swap2\n      pop\n        /* \"#utility.yul\":11637:11730   */\n      tag_264\n        /* \"#utility.yul\":11726:11729   */\n      dup3\n        /* \"#utility.yul\":11637:11730   */\n      tag_126\n      jump\t// in\n    tag_264:\n        /* \"#utility.yul\":11755:11757   */\n      0x40\n        /* \"#utility.yul\":11750:11753   */\n      dup3\n        /* \"#utility.yul\":11746:11758   */\n      add\n        /* \"#utility.yul\":11739:11758   */\n      swap1\n      pop\n        /* \"#utility.yul\":11398:11764   */\n      swap2\n      swap1\n      pop\n      jump\t// out\n        /* \"#utility.yul\":11770:12189   */\n    tag_36:\n        /* \"#utility.yul\":11936:11940   */\n      0x00\n        /* \"#utility.yul\":11974:11976   */\n      0x20\n        /* \"#utility.yul\":11963:11972   */\n      dup3\n        /* \"#utility.yul\":11959:11977   */\n      add\n        /* \"#utility.yul\":11951:11977   */\n      swap1\n      pop\n        /* \"#utility.yul\":12023:12032   */\n      dup2\n        /* \"#utility.yul\":12017:12021   */\n      dup2\n        /* \"#utility.yul\":12013:12033   */\n      sub\n        /* \"#utility.yul\":12009:12010   */\n      0x00\n        /* \"#utility.yul\":11998:12007   */\n      dup4\n        /* \"#utility.yul\":11994:12011   */\n      add\n        /* \"#utility.yul\":11987:12034   */\n      mstore\n        /* \"#utility.yul\":12051:12182   */\n      tag_266\n        /* \"#utility.yul\":12177:12181   */\n      dup2\n        /* \"#utility.yul\":12051:12182   */\n      tag_127\n      jump\t// in\n    tag_266:\n        /* \"#utility.yul\":12043:12182   */\n      swap1\n      pop\n        /* \"#utility.yul\":11770:12189   */\n      swap2\n      swap1\n      pop\n      jump\t// out\n        /* \"#utility.yul\":12195:12432   */\n    tag_128:\n        /* \"#utility.yul\":12335:12369   */\n      0x53756273797374656d44617461626173653a206f6e6c7920636f6e7472616374\n        /* \"#utility.yul\":12331:12332   */\n      0x00\n        /* \"#utility.yul\":12323:12329   */\n      dup3\n        /* \"#utility.yul\":12319:12333   */\n      add\n        /* \"#utility.yul\":12312:12370   */\n      mstore\n        /* \"#utility.yul\":12404:12424   */\n      0x2077686963682061726520616c6c6f7765640000000000000000000000000000\n        /* \"#utility.yul\":12399:12401   */\n      0x20\n        /* \"#utility.yul\":12391:12397   */\n      dup3\n        /* \"#utility.yul\":12387:12402   */\n      add\n        /* \"#utility.yul\":12380:12425   */\n      mstore\n        /* \"#utility.yul\":12195:12432   */\n      pop\n      jump\t// out\n        /* \"#utility.yul\":12438:12804   */\n    tag_129:\n        /* \"#utility.yul\":12580:12583   */\n      0x00\n        /* \"#utility.yul\":12601:12668   */\n      tag_269\n        /* \"#utility.yul\":12665:12667   */\n      0x32\n        /* \"#utility.yul\":12660:12663   */\n      dup4\n        /* \"#utility.yul\":12601:12668   */\n      tag_125\n      jump\t// in\n    tag_269:\n        /* \"#utility.yul\":12594:12668   */\n      swap2\n      pop\n        /* \"#utility.yul\":12677:12770   */\n      tag_270\n        /* \"#utility.yul\":12766:12769   */\n      dup3\n        /* \"#utility.yul\":12677:12770   */\n      tag_128\n      jump\t// in\n    tag_270:\n        /* \"#utility.yul\":12795:12797   */\n      0x40\n        /* \"#utility.yul\":12790:12793   */\n      dup3\n        /* \"#utility.yul\":12786:12798   */\n      add\n        /* \"#utility.yul\":12779:12798   */\n      swap1\n      pop\n        /* \"#utility.yul\":12438:12804   */\n      swap2\n      swap1\n      pop\n      jump\t// out\n        /* \"#utility.yul\":12810:13229   */\n    tag_42:\n        /* \"#utility.yul\":12976:12980   */\n      0x00\n        /* \"#utility.yul\":13014:13016   */\n      0x20\n        /* \"#utility.yul\":13003:13012   */\n      dup3\n        /* \"#utility.yul\":12999:13017   */\n      add\n        /* \"#utility.yul\":12991:13017   */\n      swap1\n      pop\n        /* \"#utility.yul\":13063:13072   */\n      dup2\n        /* \"#utility.yul\":13057:13061   */\n      dup2\n        /* \"#utility.yul\":13053:13073   */\n      sub\n        /* \"#utility.yul\":13049:13050   */\n      0x00\n        /* \"#utility.yul\":13038:13047   */\n      dup4\n        /* \"#utility.yul\":13034:13051   */\n      add\n        /* \"#utility.yul\":13027:13074   */\n      mstore\n        /* \"#utility.yul\":13091:13222   */\n      tag_272\n        /* \"#utility.yul\":13217:13221   */\n      dup2\n        /* \"#utility.yul\":13091:13222   */\n      tag_129\n      jump\t// in\n    tag_272:\n        /* \"#utility.yul\":13083:13222   */\n      swap1\n      pop\n        /* \"#utility.yul\":12810:13229   */\n      swap2\n      swap1\n      pop\n      jump\t// out\n        /* \"#utility.yul\":13235:13415   */\n    tag_130:\n        /* \"#utility.yul\":13283:13360   */\n      0x4e487b7100000000000000000000000000000000000000000000000000000000\n        /* \"#utility.yul\":13280:13281   */\n      0x00\n        /* \"#utility.yul\":13273:13361   */\n      mstore\n        /* \"#utility.yul\":13380:13384   */\n      0x11\n        /* \"#utility.yul\":13377:13378   */\n      0x04\n        /* \"#utility.yul\":13370:13385   */\n      mstore\n        /* \"#utility.yul\":13404:13408   */\n      0x24\n        /* \"#utility.yul\":13401:13402   */\n      0x00\n        /* \"#utility.yul\":13394:13409   */\n      revert\n        /* \"#utility.yul\":13421:13654   */\n    tag_45:\n        /* \"#utility.yul\":13460:13463   */\n      0x00\n        /* \"#utility.yul\":13483:13507   */\n      tag_275\n        /* \"#utility.yul\":13501:13506   */\n      dup3\n        /* \"#utility.yul\":13483:13507   */\n      tag_101\n      jump\t// in\n    tag_275:\n        /* \"#utility.yul\":13474:13507   */\n      swap2\n      pop\n        /* \"#utility.yul\":13529:13595   */\n      0xffffffffffffffffffffffffffffffffffffffffffffffffffffffffffffffff\n        /* \"#utility.yul\":13522:13527   */\n      dup3\n        /* \"#utility.yul\":13519:13596   */\n      sub\n        /* \"#utility.yul\":13516:13619   */\n      tag_276\n      jumpi\n        /* \"#utility.yul\":13599:13617   */\n      tag_277\n      tag_130\n      jump\t// in\n    tag_277:\n        /* \"#utility.yul\":13516:13619   */\n    tag_276:\n        /* \"#utility.yul\":13646:13647   */\n      0x01\n        /* \"#utility.yul\":13639:13644   */\n      dup3\n        /* \"#utility.yul\":13635:13648   */\n      add\n        /* \"#utility.yul\":13628:13648   */\n      swap1\n      pop\n        /* \"#utility.yul\":13421:13654   */\n      swap2\n      swap1\n      pop\n      jump\t// out\n        /* \"#utility.yul\":13660:13840   */\n    tag_131:\n        /* \"#utility.yul\":13708:13785   */\n      0x4e487b7100000000000000000000000000000000000000000000000000000000\n        /* \"#utility.yul\":13705:13706   */\n      0x00\n        /* \"#utility.yul\":13698:13786   */\n      mstore\n        /* \"#utility.yul\":13805:13809   */\n      0x22\n        /* \"#utility.yul\":13802:13803   */\n      0x04\n        /* \"#utility.yul\":13795:13810   */\n      mstore\n        /* \"#utility.yul\":13829:13833   */\n      0x24\n        /* \"#utility.yul\":13826:13827   */\n      0x00\n        /* \"#utility.yul\":13819:13834   */\n      revert\n        /* \"#utility.yul\":13846:14166   */\n    tag_62:\n        /* \"#utility.yul\":13890:13896   */\n      0x00\n        /* \"#utility.yul\":13927:13928   */\n      0x02\n        /* \"#utility.yul\":13921:13925   */\n      dup3\n        /* \"#utility.yul\":13917:13929   */\n      div\n        /* \"#utility.yul\":13907:13929   */\n      swap1\n      pop\n        /* \"#utility.yul\":13974:13975   */\n      0x01\n        /* \"#utility.yul\":13968:13972   */\n      dup3\n        /* \"#utility.yul\":13964:13976   */\n      and\n        /* \"#utility.yul\":13995:14013   */\n      dup1\n        /* \"#utility.yul\":13985:14066   */\n      tag_280\n      jumpi\n        /* \"#utility.yul\":14051:14055   */\n      0x7f\n        /* \"#utility.yul\":14043:14049   */\n      dup3\n        /* \"#utility.yul\":14039:14056   */\n      and\n        /* \"#utility.yul\":14029:14056   */\n      swap2\n      pop\n        /* \"#utility.yul\":13985:14066   */\n    tag_280:\n        /* \"#utility.yul\":14113:14115   */\n      0x20\n        /* \"#utility.yul\":14105:14111   */\n      dup3\n        /* \"#utility.yul\":14102:14116   */\n      lt\n        /* \"#utility.yul\":14082:14100   */\n      dup2\n        /* \"#utility.yul\":14079:14117   */\n      sub\n        /* \"#utility.yul\":14076:14160   */\n      tag_281\n      jumpi\n        /* \"#utility.yul\":14132:14150   */\n      tag_282\n      tag_131\n      jump\t// in\n    tag_282:\n        /* \"#utility.yul\":14076:14160   */\n    tag_281:\n        /* \"#utility.yul\":13897:14166   */\n      pop\n        /* \"#utility.yul\":13846:14166   */\n      swap2\n      swap1\n      pop\n      jump\t// out\n        /* \"#utility.yul\":14172:14313   */\n    tag_132:\n        /* \"#utility.yul\":14221:14225   */\n      0x00\n        /* \"#utility.yul\":14244:14247   */\n      dup2\n        /* \"#utility.yul\":14236:14247   */\n      swap1\n      pop\n        /* \"#utility.yul\":14267:14270   */\n      dup2\n        /* \"#utility.yul\":14264:14265   */\n      0x00\n        /* \"#utility.yul\":14257:14271   */\n      mstore\n        /* \"#utility.yul\":14301:14305   */\n      0x20\n        /* \"#utility.yul\":14298:14299   */\n      0x00\n        /* \"#utility.yul\":14288:14306   */\n      keccak256\n        /* \"#utility.yul\":14280:14306   */\n      swap1\n      pop\n        /* \"#utility.yul\":14172:14313   */\n      swap2\n      swap1\n      pop\n      jump\t// out\n        /* \"#utility.yul\":14319:14412   */\n    tag_133:\n        /* \"#utility.yul\":14356:14362   */\n      0x00\n        /* \"#utility.yul\":14403:14405   */\n      0x20\n        /* \"#utility.yul\":14398:14400   */\n      0x1f\n        /* \"#utility.yul\":14391:14396   */\n      dup4\n        /* \"#utility.yul\":14387:14401   */\n      add\n        /* \"#utility.yul\":14383:14406   */\n      div\n        /* \"#utility.yul\":14373:14406   */\n      swap1\n      pop\n        /* \"#utility.yul\":14319:14412   */\n      swap2\n      swap1\n      pop\n      jump\t// out\n        /* \"#utility.yul\":14418:14525   */\n    tag_134:\n        /* \"#utility.yul\":14462:14470   */\n      0x00\n        /* \"#utility.yul\":14512:14517   */\n      dup3\n        /* \"#utility.yul\":14506:14510   */\n      dup3\n        /* \"#utility.yul\":14502:14518   */\n      shl\n        /* \"#utility.yul\":14481:14518   */\n      swap1\n      pop\n        /* \"#utility.yul\":14418:14525   */\n      swap3\n      swap2\n      pop\n      pop\n      jump\t// out\n        /* \"#utility.yul\":14531:14924   */\n    tag_135:\n        /* \"#utility.yul\":14600:14606   */\n      0x00\n        /* \"#utility.yul\":14650:14651   */\n      0x08\n        /* \"#utility.yul\":14638:14648   */\n      dup4\n        /* \"#utility.yul\":14634:14652   */\n      mul\n        /* \"#utility.yul\":14673:14770   */\n      tag_287\n        /* \"#utility.yul\":14703:14769   */\n      0xffffffffffffffffffffffffffffffffffffffffffffffffffffffffffffffff\n        /* \"#utility.yul\":14692:14701   */\n      dup3\n        /* \"#utility.yul\":14673:14770   */\n      tag_134\n      jump\t// in\n    tag_287:\n        /* \"#utility.yul\":14791:14830   */\n      tag_288\n        /* \"#utility.yul\":14821:14829   */\n      dup7\n        /* \"#utility.yul\":14810:14819   */\n      dup4\n        /* \"#utility.yul\":14791:14830   */\n      tag_134\n      jump\t// in\n    tag_288:\n        /* \"#utility.yul\":14779:14830   */\n      swap6\n      pop\n        /* \"#utility.yul\":14863:14867   */\n      dup1\n        /* \"#utility.yul\":14859:14868   */\n      not\n        /* \"#utility.yul\":14852:14857   */\n      dup5\n        /* \"#utility.yul\":14848:14869   */\n      and\n        /* \"#utility.yul\":14839:14869   */\n      swap4\n      pop\n        /* \"#utility.yul\":14912:14916   */\n      dup1\n        /* \"#utility.yul\":14902:14910   */\n      dup7\n        /* \"#utility.yul\":14898:14917   */\n      and\n        /* \"#utility.yul\":14891:14896   */\n      dup5\n        /* \"#utility.yul\":14888:14918   */\n      or\n        /* \"#utility.yul\":14878:14918   */\n      swap3\n      pop\n        /* \"#utility.yul\":14607:14924   */\n      pop\n      pop\n        /* \"#utility.yul\":14531:14924   */\n      swap4\n      swap3\n      pop\n      pop\n      pop\n      jump\t// out\n        /* \"#utility.yul\":14930:14990   */\n    tag_136:\n        /* \"#utility.yul\":14958:14961   */\n      0x00\n        /* \"#utility.yul\":14979:14984   */\n      dup2\n        /* \"#utility.yul\":14972:14984   */\n      swap1\n      pop\n        /* \"#utility.yul\":14930:14990   */\n      swap2\n      swap1\n      pop\n      jump\t// out\n        /* \"#utility.yul\":14996:15138   */\n    tag_137:\n        /* \"#utility.yul\":15046:15055   */\n      0x00\n        /* \"#utility.yul\":15079:15132   */\n      tag_291\n        /* \"#utility.yul\":15097:15131   */\n      tag_292\n        /* \"#utility.yul\":15106:15130   */\n      tag_293\n        /* \"#utility.yul\":15124:15129   */\n      dup5\n        /* \"#utility.yul\":15106:15130   */\n      tag_101\n      jump\t// in\n    tag_293:\n        /* \"#utility.yul\":15097:15131   */\n      tag_136\n      jump\t// in\n    tag_292:\n        /* \"#utility.yul\":15079:15132   */\n      tag_101\n      jump\t// in\n    tag_291:\n        /* \"#utility.yul\":15066:15132   */\n      swap1\n      pop\n        /* \"#utility.yul\":14996:15138   */\n      swap2\n      swap1\n      pop\n      jump\t// out\n        /* \"#utility.yul\":15144:15219   */\n    tag_138:\n        /* \"#utility.yul\":15187:15190   */\n      0x00\n        /* \"#utility.yul\":15208:15213   */\n      dup2\n        /* \"#utility.yul\":15201:15213   */\n      swap1\n      pop\n        /* \"#utility.yul\":15144:15219   */\n      swap2\n      swap1\n      pop\n      jump\t// out\n        /* \"#utility.yul\":15225:15494   */\n    tag_139:\n        /* \"#utility.yul\":15335:15374   */\n      tag_296\n        /* \"#utility.yul\":15366:15373   */\n      dup4\n        /* \"#utility.yul\":15335:15374   */\n      tag_137\n      jump\t// in\n    tag_296:\n        /* \"#utility.yul\":15396:15487   */\n      tag_297\n        /* \"#utility.yul\":15445:15486   */\n      tag_298\n        /* \"#utility.yul\":15469:15485   */\n      dup3\n        /* \"#utility.yul\":15445:15486   */\n      tag_138\n      jump\t// in\n    tag_298:\n        /* \"#utility.yul\":15437:15443   */\n      dup5\n        /* \"#utility.yul\":15430:15434   */\n      dup5\n        /* \"#utility.yul\":15424:15435   */\n      sload\n        /* \"#utility.yul\":15396:15487   */\n      tag_135\n      jump\t// in\n    tag_297:\n        /* \"#utility.yul\":15390:15394   */\n      dup3\n        /* \"#utility.yul\":15383:15488   */\n      sstore\n        /* \"#utility.yul\":15301:15494   */\n      pop\n        /* \"#utility.yul\":15225:15494   */\n      pop\n      pop\n      pop\n      jump\t// out\n        /* \"#utility.yul\":15500:15573   */\n    tag_140:\n        /* \"#utility.yul\":15545:15548   */\n      0x00\n        /* \"#utility.yul\":15500:15573   */\n      swap1\n      jump\t// out\n        /* \"#utility.yul\":15579:15768   */\n    tag_141:\n        /* \"#utility.yul\":15656:15688   */\n      tag_301\n      tag_140\n      jump\t// in\n    tag_301:\n        /* \"#utility.yul\":15697:15762   */\n      tag_302\n        /* \"#utility.yul\":15755:15761   */\n      dup2\n        /* \"#utility.yul\":15747:15753   */\n      dup5\n        /* \"#utility.yul\":15741:15745   */\n      dup5\n        /* \"#utility.yul\":15697:15762   */\n      tag_139\n      jump\t// in\n    tag_302:\n        /* \"#utility.yul\":15632:15768   */\n      pop\n        /* \"#utility.yul\":15579:15768   */\n      pop\n      pop\n      jump\t// out\n        /* \"#utility.yul\":15774:15960   */\n    tag_142:\n        /* \"#utility.yul\":15834:15954   */\n    tag_304:\n        /* \"#utility.yul\":15851:15854   */\n      dup2\n        /* \"#utility.yul\":15844:15849   */\n      dup2\n        /* \"#utility.yul\":15841:15855   */\n      lt\n        /* \"#utility.yul\":15834:15954   */\n      iszero\n      tag_306\n      jumpi\n        /* \"#utility.yul\":15905:15944   */\n      tag_307\n        /* \"#utility.yul\":15942:15943   */\n      0x00\n        /* \"#utility.yul\":15935:15940   */\n      dup3\n        /* \"#utility.yul\":15905:15944   */\n      tag_141\n      jump\t// in\n    tag_307:\n        /* \"#utility.yul\":15878:15879   */\n      0x01\n        /* \"#utility.yul\":15871:15876   */\n      dup2\n        /* \"#utility.yul\":15867:15880   */\n      add\n        /* \"#utility.yul\":15858:15880   */\n      swap1\n      pop\n        /* \"#utility.yul\":15834:15954   */\n      jump(tag_304)\n    tag_306:\n        /* \"#utility.yul\":15774:15960   */\n      pop\n      pop\n      jump\t// out\n        /* \"#utility.yul\":15966:16509   */\n    tag_143:\n        /* \"#utility.yul\":16067:16069   */\n      0x1f\n        /* \"#utility.yul\":16062:16065   */\n      dup3\n        /* \"#utility.yul\":16059:16070   */\n      gt\n        /* \"#utility.yul\":16056:16502   */\n      iszero\n      tag_309\n      jumpi\n        /* \"#utility.yul\":16101:16139   */\n      tag_310\n        /* \"#utility.yul\":16133:16138   */\n      dup2\n        /* \"#utility.yul\":16101:16139   */\n      tag_132\n      jump\t// in\n    tag_310:\n        /* \"#utility.yul\":16185:16214   */\n      tag_311\n        /* \"#utility.yul\":16203:16213   */\n      dup5\n        /* \"#utility.yul\":16185:16214   */\n      tag_133\n      jump\t// in\n    tag_311:\n        /* \"#utility.yul\":16175:16183   */\n      dup2\n        /* \"#utility.yul\":16171:16215   */\n      add\n        /* \"#utility.yul\":16368:16370   */\n      0x20\n        /* \"#utility.yul\":16356:16366   */\n      dup6\n        /* \"#utility.yul\":16353:16371   */\n      lt\n        /* \"#utility.yul\":16350:16399   */\n      iszero\n      tag_312\n      jumpi\n        /* \"#utility.yul\":16389:16397   */\n      dup2\n        /* \"#utility.yul\":16374:16397   */\n      swap1\n      pop\n        /* \"#utility.yul\":16350:16399   */\n    tag_312:\n        /* \"#utility.yul\":16412:16492   */\n      tag_313\n        /* \"#utility.yul\":16468:16490   */\n      tag_314\n        /* \"#utility.yul\":16486:16489   */\n      dup6\n        /* \"#utility.yul\":16468:16490   */\n      tag_133\n      jump\t// in\n    tag_314:\n        /* \"#utility.yul\":16458:16466   */\n      dup4\n        /* \"#utility.yul\":16454:16491   */\n      add\n        /* \"#utility.yul\":16441:16452   */\n      dup3\n        /* \"#utility.yul\":16412:16492   */\n      tag_142\n      jump\t// in\n    tag_313:\n        /* \"#utility.yul\":16071:16502   */\n      pop\n      pop\n        /* \"#utility.yul\":16056:16502   */\n    tag_309:\n        /* \"#utility.yul\":15966:16509   */\n      pop\n      pop\n      pop\n      jump\t// out\n        /* \"#utility.yul\":16515:16632   */\n    tag_144:\n        /* \"#utility.yul\":16569:16577   */\n      0x00\n        /* \"#utility.yul\":16619:16624   */\n      dup3\n        /* \"#utility.yul\":16613:16617   */\n      dup3\n        /* \"#utility.yul\":16609:16625   */\n      shr\n        /* \"#utility.yul\":16588:16625   */\n      swap1\n      pop\n        /* \"#utility.yul\":16515:16632   */\n      swap3\n      swap2\n      pop\n      pop\n      jump\t// out\n        /* \"#utility.yul\":16638:16807   */\n    tag_145:\n        /* \"#utility.yul\":16682:16688   */\n      0x00\n        /* \"#utility.yul\":16715:16766   */\n      tag_317\n        /* \"#utility.yul\":16763:16764   */\n      0x00\n        /* \"#utility.yul\":16759:16765   */\n      not\n        /* \"#utility.yul\":16751:16756   */\n      dup5\n        /* \"#utility.yul\":16748:16749   */\n      0x08\n        /* \"#utility.yul\":16744:16757   */\n      mul\n        /* \"#utility.yul\":16715:16766   */\n      tag_144\n      jump\t// in\n    tag_317:\n        /* \"#utility.yul\":16711:16767   */\n      not\n        /* \"#utility.yul\":16796:16800   */\n      dup1\n        /* \"#utility.yul\":16790:16794   */\n      dup4\n        /* \"#utility.yul\":16786:16801   */\n      and\n        /* \"#utility.yul\":16776:16801   */\n      swap2\n      pop\n        /* \"#utility.yul\":16689:16807   */\n      pop\n        /* \"#utility.yul\":16638:16807   */\n      swap3\n      swap2\n      pop\n      pop\n      jump\t// out\n        /* \"#utility.yul\":16812:17107   */\n    tag_146:\n        /* \"#utility.yul\":16888:16892   */\n      0x00\n        /* \"#utility.yul\":17034:17063   */\n      tag_319\n        /* \"#utility.yul\":17059:17062   */\n      dup4\n        /* \"#utility.yul\":17053:17057   */\n      dup4\n        /* \"#utility.yul\":17034:17063   */\n      tag_145\n      jump\t// in\n    tag_319:\n        /* \"#utility.yul\":17026:17063   */\n      swap2\n      pop\n        /* \"#utility.yul\":17096:17099   */\n      dup3\n        /* \"#utility.yul\":17093:17094   */\n      0x02\n        /* \"#utility.yul\":17089:17100   */\n      mul\n        /* \"#utility.yul\":17083:17087   */\n      dup3\n        /* \"#utility.yul\":17080:17101   */\n      or\n        /* \"#utility.yul\":17072:17101   */\n      swap1\n      pop\n        /* \"#utility.yul\":16812:17107   */\n      swap3\n      swap2\n      pop\n      pop\n      jump\t// out\n        /* \"#utility.yul\":17112:18507   */\n    tag_48:\n        /* \"#utility.yul\":17229:17266   */\n      tag_321\n        /* \"#utility.yul\":17262:17265   */\n      dup3\n        /* \"#utility.yul\":17229:17266   */\n      tag_116\n      jump\t// in\n    tag_321:\n        /* \"#utility.yul\":17331:17349   */\n      0xffffffffffffffff\n        /* \"#utility.yul\":17323:17329   */\n      dup2\n        /* \"#utility.yul\":17320:17350   */\n      gt\n        /* \"#utility.yul\":17317:17373   */\n      iszero\n      tag_322\n      jumpi\n        /* \"#utility.yul\":17353:17371   */\n      tag_323\n      tag_97\n      jump\t// in\n    tag_323:\n        /* \"#utility.yul\":17317:17373   */\n    tag_322:\n        /* \"#utility.yul\":17397:17435   */\n      tag_324\n        /* \"#utility.yul\":17429:17433   */\n      dup3\n        /* \"#utility.yul\":17423:17434   */\n      sload\n        /* \"#utility.yul\":17397:17435   */\n      tag_62\n      jump\t// in\n    tag_324:\n        /* \"#utility.yul\":17482:17549   */\n      tag_325\n        /* \"#utility.yul\":17542:17548   */\n      dup3\n        /* \"#utility.yul\":17534:17540   */\n      dup3\n        /* \"#utility.yul\":17528:17532   */\n      dup6\n        /* \"#utility.yul\":17482:17549   */\n      tag_143\n      jump\t// in\n    tag_325:\n        /* \"#utility.yul\":17576:17577   */\n      0x00\n        /* \"#utility.yul\":17600:17604   */\n      0x20\n        /* \"#utility.yul\":17587:17604   */\n      swap1\n      pop\n        /* \"#utility.yul\":17632:17634   */\n      0x1f\n        /* \"#utility.yul\":17624:17630   */\n      dup4\n        /* \"#utility.yul\":17621:17635   */\n      gt\n        /* \"#utility.yul\":17649:17650   */\n      0x01\n        /* \"#utility.yul\":17644:18262   */\n      dup2\n      eq\n      tag_327\n      jumpi\n        /* \"#utility.yul\":18306:18307   */\n      0x00\n        /* \"#utility.yul\":18323:18329   */\n      dup5\n        /* \"#utility.yul\":18320:18397   */\n      iszero\n      tag_328\n      jumpi\n        /* \"#utility.yul\":18372:18381   */\n      dup3\n        /* \"#utility.yul\":18367:18370   */\n      dup8\n        /* \"#utility.yul\":18363:18382   */\n      add\n        /* \"#utility.yul\":18357:18383   */\n      mload\n        /* \"#utility.yul\":18348:18383   */\n      swap1\n      pop\n        /* \"#utility.yul\":18320:18397   */\n    tag_328:\n        /* \"#utility.yul\":18423:18490   */\n      tag_329\n        /* \"#utility.yul\":18483:18489   */\n      dup6\n        /* \"#utility.yul\":18476:18481   */\n      dup3\n        /* \"#utility.yul\":18423:18490   */\n      tag_146\n      jump\t// in\n    tag_329:\n        /* \"#utility.yul\":18417:18421   */\n      dup7\n        /* \"#utility.yul\":18410:18491   */\n      sstore\n        /* \"#utility.yul\":18279:18501   */\n      pop\n        /* \"#utility.yul\":17614:18501   */\n      jump(tag_326)\n        /* \"#utility.yul\":17644:18262   */\n    tag_327:\n        /* \"#utility.yul\":17696:17700   */\n      0x1f\n        /* \"#utility.yul\":17692:17701   */\n      not\n        /* \"#utility.yul\":17684:17690   */\n      dup5\n        /* \"#utility.yul\":17680:17702   */\n      and\n        /* \"#utility.yul\":17730:17767   */\n      tag_330\n        /* \"#utility.yul\":17762:17766   */\n      dup7\n        /* \"#utility.yul\":17730:17767   */\n      tag_132\n      jump\t// in\n    tag_330:\n        /* \"#utility.yul\":17789:17790   */\n      0x00\n        /* \"#utility.yul\":17803:18011   */\n    tag_331:\n        /* \"#utility.yul\":17817:17824   */\n      dup3\n        /* \"#utility.yul\":17814:17815   */\n      dup2\n        /* \"#utility.yul\":17811:17825   */\n      lt\n        /* \"#utility.yul\":17803:18011   */\n      iszero\n      tag_333\n      jumpi\n        /* \"#utility.yul\":17896:17905   */\n      dup5\n        /* \"#utility.yul\":17891:17894   */\n      dup10\n        /* \"#utility.yul\":17887:17906   */\n      add\n        /* \"#utility.yul\":17881:17907   */\n      mload\n        /* \"#utility.yul\":17873:17879   */\n      dup3\n        /* \"#utility.yul\":17866:17908   */\n      sstore\n        /* \"#utility.yul\":17947:17948   */\n      0x01\n        /* \"#utility.yul\":17939:17945   */\n      dup3\n        /* \"#utility.yul\":17935:17949   */\n      add\n        /* \"#utility.yul\":17925:17949   */\n      swap2\n      pop\n        /* \"#utility.yul\":17994:17996   */\n      0x20\n        /* \"#utility.yul\":17983:17992   */\n      dup6\n        /* \"#utility.yul\":17979:17997   */\n      add\n        /* \"#utility.yul\":17966:17997   */\n      swap5\n      pop\n        /* \"#utility.yul\":17840:17844   */\n      0x20\n        /* \"#utility.yul\":17837:17838   */\n      dup2\n        /* \"#utility.yul\":17833:17845   */\n      add\n        /* \"#utility.yul\":17828:17845   */\n      swap1\n      pop\n        /* \"#utility.yul\":17803:18011   */\n      jump(tag_331)\n    tag_333:\n        /* \"#utility.yul\":18039:18045   */\n      dup7\n        /* \"#utility.yul\":18030:18037   */\n      dup4\n        /* \"#utility.yul\":18027:18046   */\n      lt\n        /* \"#utility.yul\":18024:18203   */\n      iszero\n      tag_334\n      jumpi\n        /* \"#utility.yul\":18097:18106   */\n      dup5\n        /* \"#utility.yul\":18092:18095   */\n      dup10\n        /* \"#utility.yul\":18088:18107   */\n      add\n        /* \"#utility.yul\":18082:18108   */\n      mload\n        /* \"#utility.yul\":18140:18188   */\n      tag_335\n        /* \"#utility.yul\":18182:18186   */\n      0x1f\n        /* \"#utility.yul\":18174:18180   */\n      dup10\n        /* \"#utility.yul\":18170:18187   */\n      and\n        /* \"#utility.yul\":18159:18168   */\n      dup3\n        /* \"#utility.yul\":18140:18188   */\n      tag_145\n      jump\t// in\n    tag_335:\n        /* \"#utility.yul\":18132:18138   */\n      dup4\n        /* \"#utility.yul\":18125:18189   */\n      sstore\n        /* \"#utility.yul\":18047:18203   */\n      pop\n        /* \"#utility.yul\":18024:18203   */\n    tag_334:\n        /* \"#utility.yul\":18249:18250   */\n      0x01\n        /* \"#utility.yul\":18245:18246   */\n      0x02\n        /* \"#utility.yul\":18237:18243   */\n      dup9\n        /* \"#utility.yul\":18233:18247   */\n      mul\n        /* \"#utility.yul\":18229:18251   */\n      add\n        /* \"#utility.yul\":18223:18227   */\n      dup9\n        /* \"#utility.yul\":18216:18252   */\n      sstore\n        /* \"#utility.yul\":17651:18262   */\n      pop\n      pop\n      pop\n        /* \"#utility.yul\":17614:18501   */\n    tag_326:\n      pop\n        /* \"#utility.yul\":17204:18507   */\n      pop\n      pop\n      pop\n        /* \"#utility.yul\":17112:18507   */\n      pop\n      pop\n      jump\t// out\n        /* \"#utility.yul\":18513:18738   */\n    tag_147:\n        /* \"#utility.yul\":18653:18687   */\n      0x4f776e61626c653a206e6577206f776e657220697320746865207a65726f2061\n        /* \"#utility.yul\":18649:18650   */\n      0x00\n        /* \"#utility.yul\":18641:18647   */\n      dup3\n        /* \"#utility.yul\":18637:18651   */\n      add\n        /* \"#utility.yul\":18630:18688   */\n      mstore\n        /* \"#utility.yul\":18722:18730   */\n      0x6464726573730000000000000000000000000000000000000000000000000000\n        /* \"#utility.yul\":18717:18719   */\n      0x20\n        /* \"#utility.yul\":18709:18715   */\n      dup3\n        /* \"#utility.yul\":18705:18720   */\n      add\n        /* \"#utility.yul\":18698:18731   */\n      mstore\n        /* \"#utility.yul\":18513:18738   */\n      pop\n      jump\t// out\n        /* \"#utility.yul\":18744:19110   */\n    tag_148:\n        /* \"#utility.yul\":18886:18889   */\n      0x00\n        /* \"#utility.yul\":18907:18974   */\n      tag_338\n        /* \"#utility.yul\":18971:18973   */\n      0x26\n        /* \"#utility.yul\":18966:18969   */\n      dup4\n        /* \"#utility.yul\":18907:18974   */\n      tag_125\n      jump\t// in\n    tag_338:\n        /* \"#utility.yul\":18900:18974   */\n      swap2\n      pop\n        /* \"#utility.yul\":18983:19076   */\n      tag_339\n        /* \"#utility.yul\":19072:19075   */\n      dup3\n        /* \"#utility.yul\":18983:19076   */\n      tag_147\n      jump\t// in\n    tag_339:\n        /* \"#utility.yul\":19101:19103   */\n      0x40\n        /* \"#utility.yul\":19096:19099   */\n      dup3\n        /* \"#utility.yul\":19092:19104   */\n      add\n        /* \"#utility.yul\":19085:19104   */\n      swap1\n      pop\n        /* \"#utility.yul\":18744:19110   */\n      swap2\n      swap1\n      pop\n      jump\t// out\n        /* \"#utility.yul\":19116:19535   */\n    tag_78:\n        /* \"#utility.yul\":19282:19286   */\n      0x00\n        /* \"#utility.yul\":19320:19322   */\n      0x20\n        /* \"#utility.yul\":19309:19318   */\n      dup3\n        /* \"#utility.yul\":19305:19323   */\n      add\n        /* \"#utility.yul\":19297:19323   */\n      swap1\n      pop\n        /* \"#utility.yul\":19369:19378   */\n      dup2\n        /* \"#utility.yul\":19363:19367   */\n      dup2\n        /* \"#utility.yul\":19359:19379   */\n      sub\n        /* \"#utility.yul\":19355:19356   */\n      0x00\n        /* \"#utility.yul\":19344:19353   */\n      dup4\n        /* \"#utility.yul\":19340:19357   */\n      add\n        /* \"#utility.yul\":19333:19380   */\n      mstore\n        /* \"#utility.yul\":19397:19528   */\n      tag_341\n        /* \"#utility.yul\":19523:19527   */\n      dup2\n        /* \"#utility.yul\":19397:19528   */\n      tag_148\n      jump\t// in\n    tag_341:\n        /* \"#utility.yul\":19389:19528   */\n      swap1\n      pop\n        /* \"#utility.yul\":19116:19535   */\n      swap2\n      swap1\n      pop\n      jump\t// out\n        /* \"#utility.yul\":19541:19723   */\n    tag_149:\n        /* \"#utility.yul\":19681:19715   */\n      0x4f776e61626c653a2063616c6c6572206973206e6f7420746865206f776e6572\n        /* \"#utility.yul\":19677:19678   */\n      0x00\n        /* \"#utility.yul\":19669:19675   */\n      dup3\n        /* \"#utility.yul\":19665:19679   */\n      add\n        /* \"#utility.yul\":19658:19716   */\n      mstore\n        /* \"#utility.yul\":19541:19723   */\n      pop\n      jump\t// out\n        /* \"#utility.yul\":19729:20095   */\n    tag_150:\n        /* \"#utility.yul\":19871:19874   */\n      0x00\n        /* \"#utility.yul\":19892:19959   */\n      tag_344\n        /* \"#utility.yul\":19956:19958   */\n      0x20\n        /* \"#utility.yul\":19951:19954   */\n      dup4\n        /* \"#utility.yul\":19892:19959   */\n      tag_125\n      jump\t// in\n    tag_344:\n        /* \"#utility.yul\":19885:19959   */\n      swap2\n      pop\n        /* \"#utility.yul\":19968:20061   */\n      tag_345\n        /* \"#utility.yul\":20057:20060   */\n      dup3\n        /* \"#utility.yul\":19968:20061   */\n      tag_149\n      jump\t// in\n    tag_345:\n        /* \"#utility.yul\":20086:20088   */\n      0x20\n        /* \"#utility.yul\":20081:20084   */\n      dup3\n        /* \"#utility.yul\":20077:20089   */\n      add\n        /* \"#utility.yul\":20070:20089   */\n      swap1\n      pop\n        /* \"#utility.yul\":19729:20095   */\n      swap2\n      swap1\n      pop\n      jump\t// out\n        /* \"#utility.yul\":20101:20520   */\n    tag_85:\n        /* \"#utility.yul\":20267:20271   */\n      0x00\n        /* \"#utility.yul\":20305:20307   */\n      0x20\n        /* \"#utility.yul\":20294:20303   */\n      dup3\n        /* \"#utility.yul\":20290:20308   */\n      add\n        /* \"#utility.yul\":20282:20308   */\n      swap1\n      pop\n        /* \"#utility.yul\":20354:20363   */\n      dup2\n        /* \"#utility.yul\":20348:20352   */\n      dup2\n        /* \"#utility.yul\":20344:20364   */\n      sub\n        /* \"#utility.yul\":20340:20341   */\n      0x00\n        /* \"#utility.yul\":20329:20338   */\n      dup4\n        /* \"#utility.yul\":20325:20342   */\n      add\n        /* \"#utility.yul\":20318:20365   */\n      mstore\n        /* \"#utility.yul\":20382:20513   */\n      tag_347\n        /* \"#utility.yul\":20508:20512   */\n      dup2\n        /* \"#utility.yul\":20382:20513   */\n      tag_150\n      jump\t// in\n    tag_347:\n        /* \"#utility.yul\":20374:20513   */\n      swap1\n      pop\n        /* \"#utility.yul\":20101:20520   */\n      swap2\n      swap1\n      pop\n      jump\t// out\n\n    auxdata: 0xa2646970667358221220fe593600618525fa08021993120ae8eaa3b3e6c0fcdf57818f359d5c8b4976b264736f6c63430008120033\n}\n",
				"bytecode": {
					"linkReferences": {},
					"object": "6080604052600060025534801561001557600080fd5b50336000806101000a81548173ffffffffffffffffffffffffffffffffffffffff021916908373ffffffffffffffffffffffffffffffffffffffff1602179055506112cf806100656000396000f3fe608060405234801561001057600080fd5b50600436106100625760003560e01c80634d0a5dbd146100675780637745de9d1461008357806383197ef01461009f578063851efa5b146100a95780638da5cb5b146100c7578063f2fde38b146100e5575b600080fd5b610081600480360381019061007c9190610850565b610101565b005b61009d60048036038101906100989190610ab3565b6101f1565b005b6100a7610358565b005b6100b1610379565b6040516100be9190610cc5565b60405180910390f35b6100cf6105ef565b6040516100dc9190610cf6565b60405180910390f35b6100ff60048036038101906100fa9190610850565b610618565b005b61010961069b565b600360008273ffffffffffffffffffffffffffffffffffffffff1673ffffffffffffffffffffffffffffffffffffffff16815260200190815260200160002060009054906101000a900460ff1615610196576040517f08c379a000000000000000000000000000000000000000000000000000000000815260040161018d90610d94565b60405180910390fd5b6001600360008373ffffffffffffffffffffffffffffffffffffffff1673ffffffffffffffffffffffffffffffffffffffff16815260200190815260200160002060006101000a81548160ff02191690831515021790555050565b600360006101fd610712565b73ffffffffffffffffffffffffffffffffffffffff1673ffffffffffffffffffffffffffffffffffffffff16815260200190815260200160002060009054906101000a900460ff16610284576040517f08c379a000000000000000000000000000000000000000000000000000000000815260040161027b90610e26565b60405180910390fd5b60006002600081548092919061029990610e75565b9190505590508082600001818152505060018290806001815401808255809150506001900390600052602060002090600402016000909190919091506000820151816000015560208201518160010160006101000a81548173ffffffffffffffffffffffffffffffffffffffff021916908373ffffffffffffffffffffffffffffffffffffffff160217905550604082015181600201908161033b91906110c9565b50606082015181600301908161035191906110c9565b5050505050565b61036061069b565b3073ffffffffffffffffffffffffffffffffffffffff16ff5b606060036000610387610712565b73ffffffffffffffffffffffffffffffffffffffff1673ffffffffffffffffffffffffffffffffffffffff16815260200190815260200160002060009054906101000a900460ff1661040e576040517f08c379a000000000000000000000000000000000000000000000000000000000815260040161040590610e26565b60405180910390fd5b6001805480602002602001604051908101604052809291908181526020016000905b828210156105e65783829060005260206000209060040201604051806080016040529081600082015481526020016001820160009054906101000a900473ffffffffffffffffffffffffffffffffffffffff1673ffffffffffffffffffffffffffffffffffffffff1673ffffffffffffffffffffffffffffffffffffffff1681526020016002820180546104c390610eec565b80601f01602080910402602001604051908101604052809291908181526020018280546104ef90610eec565b801561053c5780601f106105115761010080835404028352916020019161053c565b820191906000526020600020905b81548152906001019060200180831161051f57829003601f168201915b5050505050815260200160038201805461055590610eec565b80601f016020809104026020016040519081016040528092919081815260200182805461058190610eec565b80156105ce5780601f106105a3576101008083540402835291602001916105ce565b820191906000526020600020905b8154815290600101906020018083116105b157829003601f168201915b50505050508152505081526020019060010190610430565b50505050905090565b60008060009054906101000a900473ffffffffffffffffffffffffffffffffffffffff16905090565b61062061069b565b600073ffffffffffffffffffffffffffffffffffffffff168173ffffffffffffffffffffffffffffffffffffffff160361068f576040517f08c379a00000000000000000000000000000000000000000000000000000000081526004016106869061120d565b60405180910390fd5b6106988161071a565b50565b3373ffffffffffffffffffffffffffffffffffffffff166106ba6105ef565b73ffffffffffffffffffffffffffffffffffffffff1614610710576040517f08c379a000000000000000000000000000000000000000000000000000000000815260040161070790611279565b60405180910390fd5b565b600033905090565b60008060009054906101000a900473ffffffffffffffffffffffffffffffffffffffff169050816000806101000a81548173ffffffffffffffffffffffffffffffffffffffff021916908373ffffffffffffffffffffffffffffffffffffffff1602179055508173ffffffffffffffffffffffffffffffffffffffff168173ffffffffffffffffffffffffffffffffffffffff167f8be0079c531659141344cd1fd0a4f28419497f9722a3daafe3b4186f6b6457e060405160405180910390a35050565b6000604051905090565b600080fd5b600080fd5b600073ffffffffffffffffffffffffffffffffffffffff82169050919050565b600061081d826107f2565b9050919050565b61082d81610812565b811461083857600080fd5b50565b60008135905061084a81610824565b92915050565b600060208284031215610866576108656107e8565b5b60006108748482850161083b565b91505092915050565b600080fd5b6000601f19601f8301169050919050565b7f4e487b7100000000000000000000000000000000000000000000000000000000600052604160045260246000fd5b6108cb82610882565b810181811067ffffffffffffffff821117156108ea576108e9610893565b5b80604052505050565b60006108fd6107de565b905061090982826108c2565b919050565b600080fd5b6000819050919050565b61092681610913565b811461093157600080fd5b50565b6000813590506109438161091d565b92915050565b600080fd5b600080fd5b600067ffffffffffffffff82111561096e5761096d610893565b5b61097782610882565b9050602081019050919050565b82818337600083830152505050565b60006109a66109a184610953565b6108f3565b9050828152602081018484840111156109c2576109c161094e565b5b6109cd848285610984565b509392505050565b600082601f8301126109ea576109e9610949565b5b81356109fa848260208601610993565b91505092915050565b600060808284031215610a1957610a1861087d565b5b610a2360806108f3565b90506000610a3384828501610934565b6000830152506020610a478482850161083b565b602083015250604082013567ffffffffffffffff811115610a6b57610a6a61090e565b5b610a77848285016109d5565b604083015250606082013567ffffffffffffffff811115610a9b57610a9a61090e565b5b610aa7848285016109d5565b60608301525092915050565b600060208284031215610ac957610ac86107e8565b5b600082013567ffffffffffffffff811115610ae757610ae66107ed565b5b610af384828501610a03565b91505092915050565b600081519050919050565b600082825260208201905092915050565b6000819050602082019050919050565b610b3181610913565b82525050565b610b4081610812565b82525050565b600081519050919050565b600082825260208201905092915050565b60005b83811015610b80578082015181840152602081019050610b65565b60008484015250505050565b6000610b9782610b46565b610ba18185610b51565b9350610bb1818560208601610b62565b610bba81610882565b840191505092915050565b6000608083016000830151610bdd6000860182610b28565b506020830151610bf06020860182610b37565b5060408301518482036040860152610c088282610b8c565b91505060608301518482036060860152610c228282610b8c565b9150508091505092915050565b6000610c3b8383610bc5565b905092915050565b6000602082019050919050565b6000610c5b82610afc565b610c658185610b07565b935083602082028501610c7785610b18565b8060005b85811015610cb35784840389528151610c948582610c2f565b9450610c9f83610c43565b925060208a01995050600181019050610c7b565b50829750879550505050505092915050565b60006020820190508181036000830152610cdf8184610c50565b905092915050565b610cf081610812565b82525050565b6000602082019050610d0b6000830184610ce7565b92915050565b600082825260208201905092915050565b7f53756273797374656d44617461626173653a207065726d697373696f6e20686160008201527f73206265656e206772616e746564000000000000000000000000000000000000602082015250565b6000610d7e602e83610d11565b9150610d8982610d22565b604082019050919050565b60006020820190508181036000830152610dad81610d71565b9050919050565b7f53756273797374656d44617461626173653a206f6e6c7920636f6e747261637460008201527f2077686963682061726520616c6c6f7765640000000000000000000000000000602082015250565b6000610e10603283610d11565b9150610e1b82610db4565b604082019050919050565b60006020820190508181036000830152610e3f81610e03565b9050919050565b7f4e487b7100000000000000000000000000000000000000000000000000000000600052601160045260246000fd5b6000610e8082610913565b91507fffffffffffffffffffffffffffffffffffffffffffffffffffffffffffffffff8203610eb257610eb1610e46565b5b600182019050919050565b7f4e487b7100000000000000000000000000000000000000000000000000000000600052602260045260246000fd5b60006002820490506001821680610f0457607f821691505b602082108103610f1757610f16610ebd565b5b50919050565b60008190508160005260206000209050919050565b60006020601f8301049050919050565b600082821b905092915050565b600060088302610f7f7fffffffffffffffffffffffffffffffffffffffffffffffffffffffffffffffff82610f42565b610f898683610f42565b95508019841693508086168417925050509392505050565b6000819050919050565b6000610fc6610fc1610fbc84610913565b610fa1565b610913565b9050919050565b6000819050919050565b610fe083610fab565b610ff4610fec82610fcd565b848454610f4f565b825550505050565b600090565b611009610ffc565b611014818484610fd7565b505050565b5b818110156110385761102d600082611001565b60018101905061101a565b5050565b601f82111561107d5761104e81610f1d565b61105784610f32565b81016020851015611066578190505b61107a61107285610f32565b830182611019565b50505b505050565b600082821c905092915050565b60006110a060001984600802611082565b1980831691505092915050565b60006110b9838361108f565b9150826002028217905092915050565b6110d282610b46565b67ffffffffffffffff8111156110eb576110ea610893565b5b6110f58254610eec565b61110082828561103c565b600060209050601f8311600181146111335760008415611121578287015190505b61112b85826110ad565b865550611193565b601f19841661114186610f1d565b60005b8281101561116957848901518255600182019150602085019450602081019050611144565b868310156111865784890151611182601f89168261108f565b8355505b6001600288020188555050505b505050505050565b7f4f776e61626c653a206e6577206f776e657220697320746865207a65726f206160008201527f6464726573730000000000000000000000000000000000000000000000000000602082015250565b60006111f7602683610d11565b91506112028261119b565b604082019050919050565b60006020820190508181036000830152611226816111ea565b9050919050565b7f4f776e61626c653a2063616c6c6572206973206e6f7420746865206f776e6572600082015250565b6000611263602083610d11565b915061126e8261122d565b602082019050919050565b6000602082019050818103600083015261129281611256565b905091905056fea2646970667358221220fe593600618525fa08021993120ae8eaa3b3e6c0fcdf57818f359d5c8b4976b264736f6c63430008120033",
					"opcodes": "PUSH1 0x80 PUSH1 0x40 MSTORE PUSH1 0x0 PUSH1 0x2 SSTORE CALLVALUE DUP1 ISZERO PUSH2 0x15 JUMPI PUSH1 0x0 DUP1 REVERT JUMPDEST POP CALLER PUSH1 0x0 DUP1 PUSH2 0x100 EXP DUP2 SLOAD DUP2 PUSH20 0xFFFFFFFFFFFFFFFFFFFFFFFFFFFFFFFFFFFFFFFF MUL NOT AND SWAP1 DUP4 PUSH20 0xFFFFFFFFFFFFFFFFFFFFFFFFFFFFFFFFFFFFFFFF AND MUL OR SWAP1 SSTORE POP PUSH2 0x12CF DUP1 PUSH2 0x65 PUSH1 0x0 CODECOPY PUSH1 0x0 RETURN INVALID PUSH1 0x80 PUSH1 0x40 MSTORE CALLVALUE DUP1 ISZERO PUSH2 0x10 JUMPI PUSH1 0x0 DUP1 REVERT JUMPDEST POP PUSH1 0x4 CALLDATASIZE LT PUSH2 0x62 JUMPI PUSH1 0x0 CALLDATALOAD PUSH1 0xE0 SHR DUP1 PUSH4 0x4D0A5DBD EQ PUSH2 0x67 JUMPI DUP1 PUSH4 0x7745DE9D EQ PUSH2 0x83 JUMPI DUP1 PUSH4 0x83197EF0 EQ PUSH2 0x9F JUMPI DUP1 PUSH4 0x851EFA5B EQ PUSH2 0xA9 JUMPI DUP1 PUSH4 0x8DA5CB5B EQ PUSH2 0xC7 JUMPI DUP1 PUSH4 0xF2FDE38B EQ PUSH2 0xE5 JUMPI JUMPDEST PUSH1 0x0 DUP1 REVERT JUMPDEST PUSH2 0x81 PUSH1 0x4 DUP1 CALLDATASIZE SUB DUP2 ADD SWAP1 PUSH2 0x7C SWAP2 SWAP1 PUSH2 0x850 JUMP JUMPDEST PUSH2 0x101 JUMP JUMPDEST STOP JUMPDEST PUSH2 0x9D PUSH1 0x4 DUP1 CALLDATASIZE SUB DUP2 ADD SWAP1 PUSH2 0x98 SWAP2 SWAP1 PUSH2 0xAB3 JUMP JUMPDEST PUSH2 0x1F1 JUMP JUMPDEST STOP JUMPDEST PUSH2 0xA7 PUSH2 0x358 JUMP JUMPDEST STOP JUMPDEST PUSH2 0xB1 PUSH2 0x379 JUMP JUMPDEST PUSH1 0x40 MLOAD PUSH2 0xBE SWAP2 SWAP1 PUSH2 0xCC5 JUMP JUMPDEST PUSH1 0x40 MLOAD DUP1 SWAP2 SUB SWAP1 RETURN JUMPDEST PUSH2 0xCF PUSH2 0x5EF JUMP JUMPDEST PUSH1 0x40 MLOAD PUSH2 0xDC SWAP2 SWAP1 PUSH2 0xCF6 JUMP JUMPDEST PUSH1 0x40 MLOAD DUP1 SWAP2 SUB SWAP1 RETURN JUMPDEST PUSH2 0xFF PUSH1 0x4 DUP1 CALLDATASIZE SUB DUP2 ADD SWAP1 PUSH2 0xFA SWAP2 SWAP1 PUSH2 0x850 JUMP JUMPDEST PUSH2 0x618 JUMP JUMPDEST STOP JUMPDEST PUSH2 0x109 PUSH2 0x69B JUMP JUMPDEST PUSH1 0x3 PUSH1 0x0 DUP3 PUSH20 0xFFFFFFFFFFFFFFFFFFFFFFFFFFFFFFFFFFFFFFFF AND PUSH20 0xFFFFFFFFFFFFFFFFFFFFFFFFFFFFFFFFFFFFFFFF AND DUP2 MSTORE PUSH1 0x20 ADD SWAP1 DUP2 MSTORE PUSH1 0x20 ADD PUSH1 0x0 KECCAK256 PUSH1 0x0 SWAP1 SLOAD SWAP1 PUSH2 0x100 EXP SWAP1 DIV PUSH1 0xFF AND ISZERO PUSH2 0x196 JUMPI PUSH1 0x40 MLOAD PUSH32 0x8C379A000000000000000000000000000000000000000000000000000000000 DUP2 MSTORE PUSH1 0x4 ADD PUSH2 0x18D SWAP1 PUSH2 0xD94 JUMP JUMPDEST PUSH1 0x40 MLOAD DUP1 SWAP2 SUB SWAP1 REVERT JUMPDEST PUSH1 0x1 PUSH1 0x3 PUSH1 0x0 DUP4 PUSH20 0xFFFFFFFFFFFFFFFFFFFFFFFFFFFFFFFFFFFFFFFF AND PUSH20 0xFFFFFFFFFFFFFFFFFFFFFFFFFFFFFFFFFFFFFFFF AND DUP2 MSTORE PUSH1 0x20 ADD SWAP1 DUP2 MSTORE PUSH1 0x20 ADD PUSH1 0x0 KECCAK256 PUSH1 0x0 PUSH2 0x100 EXP DUP2 SLOAD DUP2 PUSH1 0xFF MUL NOT AND SWAP1 DUP4 ISZERO ISZERO MUL OR SWAP1 SSTORE POP POP JUMP JUMPDEST PUSH1 0x3 PUSH1 0x0 PUSH2 0x1FD PUSH2 0x712 JUMP JUMPDEST PUSH20 0xFFFFFFFFFFFFFFFFFFFFFFFFFFFFFFFFFFFFFFFF AND PUSH20 0xFFFFFFFFFFFFFFFFFFFFFFFFFFFFFFFFFFFFFFFF AND DUP2 MSTORE PUSH1 0x20 ADD SWAP1 DUP2 MSTORE PUSH1 0x20 ADD PUSH1 0x0 KECCAK256 PUSH1 0x0 SWAP1 SLOAD SWAP1 PUSH2 0x100 EXP SWAP1 DIV PUSH1 0xFF AND PUSH2 0x284 JUMPI PUSH1 0x40 MLOAD PUSH32 0x8C379A000000000000000000000000000000000000000000000000000000000 DUP2 MSTORE PUSH1 0x4 ADD PUSH2 0x27B SWAP1 PUSH2 0xE26 JUMP JUMPDEST PUSH1 0x40 MLOAD DUP1 SWAP2 SUB SWAP1 REVERT JUMPDEST PUSH1 0x0 PUSH1 0x2 PUSH1 0x0 DUP2 SLOAD DUP1 SWAP3 SWAP2 SWAP1 PUSH2 0x299 SWAP1 PUSH2 0xE75 JUMP JUMPDEST SWAP2 SWAP1 POP SSTORE SWAP1 POP DUP1 DUP3 PUSH1 0x0 ADD DUP2 DUP2 MSTORE POP POP PUSH1 0x1 DUP3 SWAP1 DUP1 PUSH1 0x1 DUP2 SLOAD ADD DUP1 DUP3 SSTORE DUP1 SWAP2 POP POP PUSH1 0x1 SWAP1 SUB SWAP1 PUSH1 0x0 MSTORE PUSH1 0x20 PUSH1 0x0 KECCAK256 SWAP1 PUSH1 0x4 MUL ADD PUSH1 0x0 SWAP1 SWAP2 SWAP1 SWAP2 SWAP1 SWAP2 POP PUSH1 0x0 DUP3 ADD MLOAD DUP2 PUSH1 0x0 ADD SSTORE PUSH1 0x20 DUP3 ADD MLOAD DUP2 PUSH1 0x1 ADD PUSH1 0x0 PUSH2 0x100 EXP DUP2 SLOAD DUP2 PUSH20 0xFFFFFFFFFFFFFFFFFFFFFFFFFFFFFFFFFFFFFFFF MUL NOT AND SWAP1 DUP4 PUSH20 0xFFFFFFFFFFFFFFFFFFFFFFFFFFFFFFFFFFFFFFFF AND MUL OR SWAP1 SSTORE POP PUSH1 0x40 DUP3 ADD MLOAD DUP2 PUSH1 0x2 ADD SWAP1 DUP2 PUSH2 0x33B SWAP2 SWAP1 PUSH2 0x10C9 JUMP JUMPDEST POP PUSH1 0x60 DUP3 ADD MLOAD DUP2 PUSH1 0x3 ADD SWAP1 DUP2 PUSH2 0x351 SWAP2 SWAP1 PUSH2 0x10C9 JUMP JUMPDEST POP POP POP POP POP JUMP JUMPDEST PUSH2 0x360 PUSH2 0x69B JUMP JUMPDEST ADDRESS PUSH20 0xFFFFFFFFFFFFFFFFFFFFFFFFFFFFFFFFFFFFFFFF AND SELFDESTRUCT JUMPDEST PUSH1 0x60 PUSH1 0x3 PUSH1 0x0 PUSH2 0x387 PUSH2 0x712 JUMP JUMPDEST PUSH20 0xFFFFFFFFFFFFFFFFFFFFFFFFFFFFFFFFFFFFFFFF AND PUSH20 0xFFFFFFFFFFFFFFFFFFFFFFFFFFFFFFFFFFFFFFFF AND DUP2 MSTORE PUSH1 0x20 ADD SWAP1 DUP2 MSTORE PUSH1 0x20 ADD PUSH1 0x0 KECCAK256 PUSH1 0x0 SWAP1 SLOAD SWAP1 PUSH2 0x100 EXP SWAP1 DIV PUSH1 0xFF AND PUSH2 0x40E JUMPI PUSH1 0x40 MLOAD PUSH32 0x8C379A000000000000000000000000000000000000000000000000000000000 DUP2 MSTORE PUSH1 0x4 ADD PUSH2 0x405 SWAP1 PUSH2 0xE26 JUMP JUMPDEST PUSH1 0x40 MLOAD DUP1 SWAP2 SUB SWAP1 REVERT JUMPDEST PUSH1 0x1 DUP1 SLOAD DUP1 PUSH1 0x20 MUL PUSH1 0x20 ADD PUSH1 0x40 MLOAD SWAP1 DUP2 ADD PUSH1 0x40 MSTORE DUP1 SWAP3 SWAP2 SWAP1 DUP2 DUP2 MSTORE PUSH1 0x20 ADD PUSH1 0x0 SWAP1 JUMPDEST DUP3 DUP3 LT ISZERO PUSH2 0x5E6 JUMPI DUP4 DUP3 SWAP1 PUSH1 0x0 MSTORE PUSH1 0x20 PUSH1 0x0 KECCAK256 SWAP1 PUSH1 0x4 MUL ADD PUSH1 0x40 MLOAD DUP1 PUSH1 0x80 ADD PUSH1 0x40 MSTORE SWAP1 DUP2 PUSH1 0x0 DUP3 ADD SLOAD DUP2 MSTORE PUSH1 0x20 ADD PUSH1 0x1 DUP3 ADD PUSH1 0x0 SWAP1 SLOAD SWAP1 PUSH2 0x100 EXP SWAP1 DIV PUSH20 0xFFFFFFFFFFFFFFFFFFFFFFFFFFFFFFFFFFFFFFFF AND PUSH20 0xFFFFFFFFFFFFFFFFFFFFFFFFFFFFFFFFFFFFFFFF AND PUSH20 0xFFFFFFFFFFFFFFFFFFFFFFFFFFFFFFFFFFFFFFFF AND DUP2 MSTORE PUSH1 0x20 ADD PUSH1 0x2 DUP3 ADD DUP1 SLOAD PUSH2 0x4C3 SWAP1 PUSH2 0xEEC JUMP JUMPDEST DUP1 PUSH1 0x1F ADD PUSH1 0x20 DUP1 SWAP2 DIV MUL PUSH1 0x20 ADD PUSH1 0x40 MLOAD SWAP1 DUP2 ADD PUSH1 0x40 MSTORE DUP1 SWAP3 SWAP2 SWAP1 DUP2 DUP2 MSTORE PUSH1 0x20 ADD DUP3 DUP1 SLOAD PUSH2 0x4EF SWAP1 PUSH2 0xEEC JUMP JUMPDEST DUP1 ISZERO PUSH2 0x53C JUMPI DUP1 PUSH1 0x1F LT PUSH2 0x511 JUMPI PUSH2 0x100 DUP1 DUP4 SLOAD DIV MUL DUP4 MSTORE SWAP2 PUSH1 0x20 ADD SWAP2 PUSH2 0x53C JUMP JUMPDEST DUP3 ADD SWAP2 SWAP1 PUSH1 0x0 MSTORE PUSH1 0x20 PUSH1 0x0 KECCAK256 SWAP1 JUMPDEST DUP2 SLOAD DUP2 MSTORE SWAP1 PUSH1 0x1 ADD SWAP1 PUSH1 0x20 ADD DUP1 DUP4 GT PUSH2 0x51F JUMPI DUP3 SWAP1 SUB PUSH1 0x1F AND DUP3 ADD SWAP2 JUMPDEST POP POP POP POP POP DUP2 MSTORE PUSH1 0x20 ADD PUSH1 0x3 DUP3 ADD DUP1 SLOAD PUSH2 0x555 SWAP1 PUSH2 0xEEC JUMP JUMPDEST DUP1 PUSH1 0x1F ADD PUSH1 0x20 DUP1 SWAP2 DIV MUL PUSH1 0x20 ADD PUSH1 0x40 MLOAD SWAP1 DUP2 ADD PUSH1 0x40 MSTORE DUP1 SWAP3 SWAP2 SWAP1 DUP2 DUP2 MSTORE PUSH1 0x20 ADD DUP3 DUP1 SLOAD PUSH2 0x581 SWAP1 PUSH2 0xEEC JUMP JUMPDEST DUP1 ISZERO PUSH2 0x5CE JUMPI DUP1 PUSH1 0x1F LT PUSH2 0x5A3 JUMPI PUSH2 0x100 DUP1 DUP4 SLOAD DIV MUL DUP4 MSTORE SWAP2 PUSH1 0x20 ADD SWAP2 PUSH2 0x5CE JUMP JUMPDEST DUP3 ADD SWAP2 SWAP1 PUSH1 0x0 MSTORE PUSH1 0x20 PUSH1 0x0 KECCAK256 SWAP1 JUMPDEST DUP2 SLOAD DUP2 MSTORE SWAP1 PUSH1 0x1 ADD SWAP1 PUSH1 0x20 ADD DUP1 DUP4 GT PUSH2 0x5B1 JUMPI DUP3 SWAP1 SUB PUSH1 0x1F AND DUP3 ADD SWAP2 JUMPDEST POP POP POP POP POP DUP2 MSTORE POP POP DUP2 MSTORE PUSH1 0x20 ADD SWAP1 PUSH1 0x1 ADD SWAP1 PUSH2 0x430 JUMP JUMPDEST POP POP POP POP SWAP1 POP SWAP1 JUMP JUMPDEST PUSH1 0x0 DUP1 PUSH1 0x0 SWAP1 SLOAD SWAP1 PUSH2 0x100 EXP SWAP1 DIV PUSH20 0xFFFFFFFFFFFFFFFFFFFFFFFFFFFFFFFFFFFFFFFF AND SWAP1 POP SWAP1 JUMP JUMPDEST PUSH2 0x620 PUSH2 0x69B JUMP JUMPDEST PUSH1 0x0 PUSH20 0xFFFFFFFFFFFFFFFFFFFFFFFFFFFFFFFFFFFFFFFF AND DUP2 PUSH20 0xFFFFFFFFFFFFFFFFFFFFFFFFFFFFFFFFFFFFFFFF AND SUB PUSH2 0x68F JUMPI PUSH1 0x40 MLOAD PUSH32 0x8C379A000000000000000000000000000000000000000000000000000000000 DUP2 MSTORE PUSH1 0x4 ADD PUSH2 0x686 SWAP1 PUSH2 0x120D JUMP JUMPDEST PUSH1 0x40 MLOAD DUP1 SWAP2 SUB SWAP1 REVERT JUMPDEST PUSH2 0x698 DUP2 PUSH2 0x71A JUMP JUMPDEST POP JUMP JUMPDEST CALLER PUSH20 0xFFFFFFFFFFFFFFFFFFFFFFFFFFFFFFFFFFFFFFFF AND PUSH2 0x6BA PUSH2 0x5EF JUMP JUMPDEST PUSH20 0xFFFFFFFFFFFFFFFFFFFFFFFFFFFFFFFFFFFFFFFF AND EQ PUSH2 0x710 JUMPI PUSH1 0x40 MLOAD PUSH32 0x8C379A000000000000000000000000000000000000000000000000000000000 DUP2 MSTORE PUSH1 0x4 ADD PUSH2 0x707 SWAP1 PUSH2 0x1279 JUMP JUMPDEST PUSH1 0x40 MLOAD DUP1 SWAP2 SUB SWAP1 REVERT JUMPDEST JUMP JUMPDEST PUSH1 0x0 CALLER SWAP1 POP SWAP1 JUMP JUMPDEST PUSH1 0x0 DUP1 PUSH1 0x0 SWAP1 SLOAD SWAP1 PUSH2 0x100 EXP SWAP1 DIV PUSH20 0xFFFFFFFFFFFFFFFFFFFFFFFFFFFFFFFFFFFFFFFF AND SWAP1 POP DUP2 PUSH1 0x0 DUP1 PUSH2 0x100 EXP DUP2 SLOAD DUP2 PUSH20 0xFFFFFFFFFFFFFFFFFFFFFFFFFFFFFFFFFFFFFFFF MUL NOT AND SWAP1 DUP4 PUSH20 0xFFFFFFFFFFFFFFFFFFFFFFFFFFFFFFFFFFFFFFFF AND MUL OR SWAP1 SSTORE POP DUP2 PUSH20 0xFFFFFFFFFFFFFFFFFFFFFFFFFFFFFFFFFFFFFFFF AND DUP2 PUSH20 0xFFFFFFFFFFFFFFFFFFFFFFFFFFFFFFFFFFFFFFFF AND PUSH32 0x8BE0079C531659141344CD1FD0A4F28419497F9722A3DAAFE3B4186F6B6457E0 PUSH1 0x40 MLOAD PUSH1 0x40 MLOAD DUP1 SWAP2 SUB SWAP1 LOG3 POP POP JUMP JUMPDEST PUSH1 0x0 PUSH1 0x40 MLOAD SWAP1 POP SWAP1 JUMP JUMPDEST PUSH1 0x0 DUP1 REVERT JUMPDEST PUSH1 0x0 DUP1 REVERT JUMPDEST PUSH1 0x0 PUSH20 0xFFFFFFFFFFFFFFFFFFFFFFFFFFFFFFFFFFFFFFFF DUP3 AND SWAP1 POP SWAP2 SWAP1 POP JUMP JUMPDEST PUSH1 0x0 PUSH2 0x81D DUP3 PUSH2 0x7F2 JUMP JUMPDEST SWAP1 POP SWAP2 SWAP1 POP JUMP JUMPDEST PUSH2 0x82D DUP2 PUSH2 0x812 JUMP JUMPDEST DUP2 EQ PUSH2 0x838 JUMPI PUSH1 0x0 DUP1 REVERT JUMPDEST POP JUMP JUMPDEST PUSH1 0x0 DUP2 CALLDATALOAD SWAP1 POP PUSH2 0x84A DUP2 PUSH2 0x824 JUMP JUMPDEST SWAP3 SWAP2 POP POP JUMP JUMPDEST PUSH1 0x0 PUSH1 0x20 DUP3 DUP5 SUB SLT ISZERO PUSH2 0x866 JUMPI PUSH2 0x865 PUSH2 0x7E8 JUMP JUMPDEST JUMPDEST PUSH1 0x0 PUSH2 0x874 DUP5 DUP3 DUP6 ADD PUSH2 0x83B JUMP JUMPDEST SWAP2 POP POP SWAP3 SWAP2 POP POP JUMP JUMPDEST PUSH1 0x0 DUP1 REVERT JUMPDEST PUSH1 0x0 PUSH1 0x1F NOT PUSH1 0x1F DUP4 ADD AND SWAP1 POP SWAP2 SWAP1 POP JUMP JUMPDEST PUSH32 0x4E487B7100000000000000000000000000000000000000000000000000000000 PUSH1 0x0 MSTORE PUSH1 0x41 PUSH1 0x4 MSTORE PUSH1 0x24 PUSH1 0x0 REVERT JUMPDEST PUSH2 0x8CB DUP3 PUSH2 0x882 JUMP JUMPDEST DUP2 ADD DUP2 DUP2 LT PUSH8 0xFFFFFFFFFFFFFFFF DUP3 GT OR ISZERO PUSH2 0x8EA JUMPI PUSH2 0x8E9 PUSH2 0x893 JUMP JUMPDEST JUMPDEST DUP1 PUSH1 0x40 MSTORE POP POP POP JUMP JUMPDEST PUSH1 0x0 PUSH2 0x8FD PUSH2 0x7DE JUMP JUMPDEST SWAP1 POP PUSH2 0x909 DUP3 DUP3 PUSH2 0x8C2 JUMP JUMPDEST SWAP2 SWAP1 POP JUMP JUMPDEST PUSH1 0x0 DUP1 REVERT JUMPDEST PUSH1 0x0 DUP2 SWAP1 POP SWAP2 SWAP1 POP JUMP JUMPDEST PUSH2 0x926 DUP2 PUSH2 0x913 JUMP JUMPDEST DUP2 EQ PUSH2 0x931 JUMPI PUSH1 0x0 DUP1 REVERT JUMPDEST POP JUMP JUMPDEST PUSH1 0x0 DUP2 CALLDATALOAD SWAP1 POP PUSH2 0x943 DUP2 PUSH2 0x91D JUMP JUMPDEST SWAP3 SWAP2 POP POP JUMP JUMPDEST PUSH1 0x0 DUP1 REVERT JUMPDEST PUSH1 0x0 DUP1 REVERT JUMPDEST PUSH1 0x0 PUSH8 0xFFFFFFFFFFFFFFFF DUP3 GT ISZERO PUSH2 0x96E JUMPI PUSH2 0x96D PUSH2 0x893 JUMP JUMPDEST JUMPDEST PUSH2 0x977 DUP3 PUSH2 0x882 JUMP JUMPDEST SWAP1 POP PUSH1 0x20 DUP2 ADD SWAP1 POP SWAP2 SWAP1 POP JUMP JUMPDEST DUP3 DUP2 DUP4 CALLDATACOPY PUSH1 0x0 DUP4 DUP4 ADD MSTORE POP POP POP JUMP JUMPDEST PUSH1 0x0 PUSH2 0x9A6 PUSH2 0x9A1 DUP5 PUSH2 0x953 JUMP JUMPDEST PUSH2 0x8F3 JUMP JUMPDEST SWAP1 POP DUP3 DUP2 MSTORE PUSH1 0x20 DUP2 ADD DUP5 DUP5 DUP5 ADD GT ISZERO PUSH2 0x9C2 JUMPI PUSH2 0x9C1 PUSH2 0x94E JUMP JUMPDEST JUMPDEST PUSH2 0x9CD DUP5 DUP3 DUP6 PUSH2 0x984 JUMP JUMPDEST POP SWAP4 SWAP3 POP POP POP JUMP JUMPDEST PUSH1 0x0 DUP3 PUSH1 0x1F DUP4 ADD SLT PUSH2 0x9EA JUMPI PUSH2 0x9E9 PUSH2 0x949 JUMP JUMPDEST JUMPDEST DUP2 CALLDATALOAD PUSH2 0x9FA DUP5 DUP3 PUSH1 0x20 DUP7 ADD PUSH2 0x993 JUMP JUMPDEST SWAP2 POP POP SWAP3 SWAP2 POP POP JUMP JUMPDEST PUSH1 0x0 PUSH1 0x80 DUP3 DUP5 SUB SLT ISZERO PUSH2 0xA19 JUMPI PUSH2 0xA18 PUSH2 0x87D JUMP JUMPDEST JUMPDEST PUSH2 0xA23 PUSH1 0x80 PUSH2 0x8F3 JUMP JUMPDEST SWAP1 POP PUSH1 0x0 PUSH2 0xA33 DUP5 DUP3 DUP6 ADD PUSH2 0x934 JUMP JUMPDEST PUSH1 0x0 DUP4 ADD MSTORE POP PUSH1 0x20 PUSH2 0xA47 DUP5 DUP3 DUP6 ADD PUSH2 0x83B JUMP JUMPDEST PUSH1 0x20 DUP4 ADD MSTORE POP PUSH1 0x40 DUP3 ADD CALLDATALOAD PUSH8 0xFFFFFFFFFFFFFFFF DUP2 GT ISZERO PUSH2 0xA6B JUMPI PUSH2 0xA6A PUSH2 0x90E JUMP JUMPDEST JUMPDEST PUSH2 0xA77 DUP5 DUP3 DUP6 ADD PUSH2 0x9D5 JUMP JUMPDEST PUSH1 0x40 DUP4 ADD MSTORE POP PUSH1 0x60 DUP3 ADD CALLDATALOAD PUSH8 0xFFFFFFFFFFFFFFFF DUP2 GT ISZERO PUSH2 0xA9B JUMPI PUSH2 0xA9A PUSH2 0x90E JUMP JUMPDEST JUMPDEST PUSH2 0xAA7 DUP5 DUP3 DUP6 ADD PUSH2 0x9D5 JUMP JUMPDEST PUSH1 0x60 DUP4 ADD MSTORE POP SWAP3 SWAP2 POP POP JUMP JUMPDEST PUSH1 0x0 PUSH1 0x20 DUP3 DUP5 SUB SLT ISZERO PUSH2 0xAC9 JUMPI PUSH2 0xAC8 PUSH2 0x7E8 JUMP JUMPDEST JUMPDEST PUSH1 0x0 DUP3 ADD CALLDATALOAD PUSH8 0xFFFFFFFFFFFFFFFF DUP2 GT ISZERO PUSH2 0xAE7 JUMPI PUSH2 0xAE6 PUSH2 0x7ED JUMP JUMPDEST JUMPDEST PUSH2 0xAF3 DUP5 DUP3 DUP6 ADD PUSH2 0xA03 JUMP JUMPDEST SWAP2 POP POP SWAP3 SWAP2 POP POP JUMP JUMPDEST PUSH1 0x0 DUP2 MLOAD SWAP1 POP SWAP2 SWAP1 POP JUMP JUMPDEST PUSH1 0x0 DUP3 DUP3 MSTORE PUSH1 0x20 DUP3 ADD SWAP1 POP SWAP3 SWAP2 POP POP JUMP JUMPDEST PUSH1 0x0 DUP2 SWAP1 POP PUSH1 0x20 DUP3 ADD SWAP1 POP SWAP2 SWAP1 POP JUMP JUMPDEST PUSH2 0xB31 DUP2 PUSH2 0x913 JUMP JUMPDEST DUP3 MSTORE POP POP JUMP JUMPDEST PUSH2 0xB40 DUP2 PUSH2 0x812 JUMP JUMPDEST DUP3 MSTORE POP POP JUMP JUMPDEST PUSH1 0x0 DUP2 MLOAD SWAP1 POP SWAP2 SWAP1 POP JUMP JUMPDEST PUSH1 0x0 DUP3 DUP3 MSTORE PUSH1 0x20 DUP3 ADD SWAP1 POP SWAP3 SWAP2 POP POP JUMP JUMPDEST PUSH1 0x0 JUMPDEST DUP4 DUP2 LT ISZERO PUSH2 0xB80 JUMPI DUP1 DUP3 ADD MLOAD DUP2 DUP5 ADD MSTORE PUSH1 0x20 DUP2 ADD SWAP1 POP PUSH2 0xB65 JUMP JUMPDEST PUSH1 0x0 DUP5 DUP5 ADD MSTORE POP POP POP POP JUMP JUMPDEST PUSH1 0x0 PUSH2 0xB97 DUP3 PUSH2 0xB46 JUMP JUMPDEST PUSH2 0xBA1 DUP2 DUP6 PUSH2 0xB51 JUMP JUMPDEST SWAP4 POP PUSH2 0xBB1 DUP2 DUP6 PUSH1 0x20 DUP7 ADD PUSH2 0xB62 JUMP JUMPDEST PUSH2 0xBBA DUP2 PUSH2 0x882 JUMP JUMPDEST DUP5 ADD SWAP2 POP POP SWAP3 SWAP2 POP POP JUMP JUMPDEST PUSH1 0x0 PUSH1 0x80 DUP4 ADD PUSH1 0x0 DUP4 ADD MLOAD PUSH2 0xBDD PUSH1 0x0 DUP7 ADD DUP3 PUSH2 0xB28 JUMP JUMPDEST POP PUSH1 0x20 DUP4 ADD MLOAD PUSH2 0xBF0 PUSH1 0x20 DUP7 ADD DUP3 PUSH2 0xB37 JUMP JUMPDEST POP PUSH1 0x40 DUP4 ADD MLOAD DUP5 DUP3 SUB PUSH1 0x40 DUP7 ADD MSTORE PUSH2 0xC08 DUP3 DUP3 PUSH2 0xB8C JUMP JUMPDEST SWAP2 POP POP PUSH1 0x60 DUP4 ADD MLOAD DUP5 DUP3 SUB PUSH1 0x60 DUP7 ADD MSTORE PUSH2 0xC22 DUP3 DUP3 PUSH2 0xB8C JUMP JUMPDEST SWAP2 POP POP DUP1 SWAP2 POP POP SWAP3 SWAP2 POP POP JUMP JUMPDEST PUSH1 0x0 PUSH2 0xC3B DUP4 DUP4 PUSH2 0xBC5 JUMP JUMPDEST SWAP1 POP SWAP3 SWAP2 POP POP JUMP JUMPDEST PUSH1 0x0 PUSH1 0x20 DUP3 ADD SWAP1 POP SWAP2 SWAP1 POP JUMP JUMPDEST PUSH1 0x0 PUSH2 0xC5B DUP3 PUSH2 0xAFC JUMP JUMPDEST PUSH2 0xC65 DUP2 DUP6 PUSH2 0xB07 JUMP JUMPDEST SWAP4 POP DUP4 PUSH1 0x20 DUP3 MUL DUP6 ADD PUSH2 0xC77 DUP6 PUSH2 0xB18 JUMP JUMPDEST DUP1 PUSH1 0x0 JUMPDEST DUP6 DUP2 LT ISZERO PUSH2 0xCB3 JUMPI DUP5 DUP5 SUB DUP10 MSTORE DUP2 MLOAD PUSH2 0xC94 DUP6 DUP3 PUSH2 0xC2F JUMP JUMPDEST SWAP5 POP PUSH2 0xC9F DUP4 PUSH2 0xC43 JUMP JUMPDEST SWAP3 POP PUSH1 0x20 DUP11 ADD SWAP10 POP POP PUSH1 0x1 DUP2 ADD SWAP1 POP PUSH2 0xC7B JUMP JUMPDEST POP DUP3 SWAP8 POP DUP8 SWAP6 POP POP POP POP POP POP SWAP3 SWAP2 POP POP JUMP JUMPDEST PUSH1 0x0 PUSH1 0x20 DUP3 ADD SWAP1 POP DUP2 DUP2 SUB PUSH1 0x0 DUP4 ADD MSTORE PUSH2 0xCDF DUP2 DUP5 PUSH2 0xC50 JUMP JUMPDEST SWAP1 POP SWAP3 SWAP2 POP POP JUMP JUMPDEST PUSH2 0xCF0 DUP2 PUSH2 0x812 JUMP JUMPDEST DUP3 MSTORE POP POP JUMP JUMPDEST PUSH1 0x0 PUSH1 0x20 DUP3 ADD SWAP1 POP PUSH2 0xD0B PUSH1 0x0 DUP4 ADD DUP5 PUSH2 0xCE7 JUMP JUMPDEST SWAP3 SWAP2 POP POP JUMP JUMPDEST PUSH1 0x0 DUP3 DUP3 MSTORE PUSH1 0x20 DUP3 ADD SWAP1 POP SWAP3 SWAP2 POP POP JUMP JUMPDEST PUSH32 0x53756273797374656D44617461626173653A207065726D697373696F6E206861 PUSH1 0x0 DUP3 ADD MSTORE PUSH32 0x73206265656E206772616E746564000000000000000000000000000000000000 PUSH1 0x20 DUP3 ADD MSTORE POP JUMP JUMPDEST PUSH1 0x0 PUSH2 0xD7E PUSH1 0x2E DUP4 PUSH2 0xD11 JUMP JUMPDEST SWAP2 POP PUSH2 0xD89 DUP3 PUSH2 0xD22 JUMP JUMPDEST PUSH1 0x40 DUP3 ADD SWAP1 POP SWAP2 SWAP1 POP JUMP JUMPDEST PUSH1 0x0 PUSH1 0x20 DUP3 ADD SWAP1 POP DUP2 DUP2 SUB PUSH1 0x0 DUP4 ADD MSTORE PUSH2 0xDAD DUP2 PUSH2 0xD71 JUMP JUMPDEST SWAP1 POP SWAP2 SWAP1 POP JUMP JUMPDEST PUSH32 0x53756273797374656D44617461626173653A206F6E6C7920636F6E7472616374 PUSH1 0x0 DUP3 ADD MSTORE PUSH32 0x2077686963682061726520616C6C6F7765640000000000000000000000000000 PUSH1 0x20 DUP3 ADD MSTORE POP JUMP JUMPDEST PUSH1 0x0 PUSH2 0xE10 PUSH1 0x32 DUP4 PUSH2 0xD11 JUMP JUMPDEST SWAP2 POP PUSH2 0xE1B DUP3 PUSH2 0xDB4 JUMP JUMPDEST PUSH1 0x40 DUP3 ADD SWAP1 POP SWAP2 SWAP1 POP JUMP JUMPDEST PUSH1 0x0 PUSH1 0x20 DUP3 ADD SWAP1 POP DUP2 DUP2 SUB PUSH1 0x0 DUP4 ADD MSTORE PUSH2 0xE3F DUP2 PUSH2 0xE03 JUMP JUMPDEST SWAP1 POP SWAP2 SWAP1 POP JUMP JUMPDEST PUSH32 0x4E487B7100000000000000000000000000000000000000000000000000000000 PUSH1 0x0 MSTORE PUSH1 0x11 PUSH1 0x4 MSTORE PUSH1 0x24 PUSH1 0x0 REVERT JUMPDEST PUSH1 0x0 PUSH2 0xE80 DUP3 PUSH2 0x913 JUMP JUMPDEST SWAP2 POP PUSH32 0xFFFFFFFFFFFFFFFFFFFFFFFFFFFFFFFFFFFFFFFFFFFFFFFFFFFFFFFFFFFFFFFF DUP3 SUB PUSH2 0xEB2 JUMPI PUSH2 0xEB1 PUSH2 0xE46 JUMP JUMPDEST JUMPDEST PUSH1 0x1 DUP3 ADD SWAP1 POP SWAP2 SWAP1 POP JUMP JUMPDEST PUSH32 0x4E487B7100000000000000000000000000000000000000000000000000000000 PUSH1 0x0 MSTORE PUSH1 0x22 PUSH1 0x4 MSTORE PUSH1 0x24 PUSH1 0x0 REVERT JUMPDEST PUSH1 0x0 PUSH1 0x2 DUP3 DIV SWAP1 POP PUSH1 0x1 DUP3 AND DUP1 PUSH2 0xF04 JUMPI PUSH1 0x7F DUP3 AND SWAP2 POP JUMPDEST PUSH1 0x20 DUP3 LT DUP2 SUB PUSH2 0xF17 JUMPI PUSH2 0xF16 PUSH2 0xEBD JUMP JUMPDEST JUMPDEST POP SWAP2 SWAP1 POP JUMP JUMPDEST PUSH1 0x0 DUP2 SWAP1 POP DUP2 PUSH1 0x0 MSTORE PUSH1 0x20 PUSH1 0x0 KECCAK256 SWAP1 POP SWAP2 SWAP1 POP JUMP JUMPDEST PUSH1 0x0 PUSH1 0x20 PUSH1 0x1F DUP4 ADD DIV SWAP1 POP SWAP2 SWAP1 POP JUMP JUMPDEST PUSH1 0x0 DUP3 DUP3 SHL SWAP1 POP SWAP3 SWAP2 POP POP JUMP JUMPDEST PUSH1 0x0 PUSH1 0x8 DUP4 MUL PUSH2 0xF7F PUSH32 0xFFFFFFFFFFFFFFFFFFFFFFFFFFFFFFFFFFFFFFFFFFFFFFFFFFFFFFFFFFFFFFFF DUP3 PUSH2 0xF42 JUMP JUMPDEST PUSH2 0xF89 DUP7 DUP4 PUSH2 0xF42 JUMP JUMPDEST SWAP6 POP DUP1 NOT DUP5 AND SWAP4 POP DUP1 DUP7 AND DUP5 OR SWAP3 POP POP POP SWAP4 SWAP3 POP POP POP JUMP JUMPDEST PUSH1 0x0 DUP2 SWAP1 POP SWAP2 SWAP1 POP JUMP JUMPDEST PUSH1 0x0 PUSH2 0xFC6 PUSH2 0xFC1 PUSH2 0xFBC DUP5 PUSH2 0x913 JUMP JUMPDEST PUSH2 0xFA1 JUMP JUMPDEST PUSH2 0x913 JUMP JUMPDEST SWAP1 POP SWAP2 SWAP1 POP JUMP JUMPDEST PUSH1 0x0 DUP2 SWAP1 POP SWAP2 SWAP1 POP JUMP JUMPDEST PUSH2 0xFE0 DUP4 PUSH2 0xFAB JUMP JUMPDEST PUSH2 0xFF4 PUSH2 0xFEC DUP3 PUSH2 0xFCD JUMP JUMPDEST DUP5 DUP5 SLOAD PUSH2 0xF4F JUMP JUMPDEST DUP3 SSTORE POP POP POP POP JUMP JUMPDEST PUSH1 0x0 SWAP1 JUMP JUMPDEST PUSH2 0x1009 PUSH2 0xFFC JUMP JUMPDEST PUSH2 0x1014 DUP2 DUP5 DUP5 PUSH2 0xFD7 JUMP JUMPDEST POP POP POP JUMP JUMPDEST JUMPDEST DUP2 DUP2 LT ISZERO PUSH2 0x1038 JUMPI PUSH2 0x102D PUSH1 0x0 DUP3 PUSH2 0x1001 JUMP JUMPDEST PUSH1 0x1 DUP2 ADD SWAP1 POP PUSH2 0x101A JUMP JUMPDEST POP POP JUMP JUMPDEST PUSH1 0x1F DUP3 GT ISZERO PUSH2 0x107D JUMPI PUSH2 0x104E DUP2 PUSH2 0xF1D JUMP JUMPDEST PUSH2 0x1057 DUP5 PUSH2 0xF32 JUMP JUMPDEST DUP2 ADD PUSH1 0x20 DUP6 LT ISZERO PUSH2 0x1066 JUMPI DUP2 SWAP1 POP JUMPDEST PUSH2 0x107A PUSH2 0x1072 DUP6 PUSH2 0xF32 JUMP JUMPDEST DUP4 ADD DUP3 PUSH2 0x1019 JUMP JUMPDEST POP POP JUMPDEST POP POP POP JUMP JUMPDEST PUSH1 0x0 DUP3 DUP3 SHR SWAP1 POP SWAP3 SWAP2 POP POP JUMP JUMPDEST PUSH1 0x0 PUSH2 0x10A0 PUSH1 0x0 NOT DUP5 PUSH1 0x8 MUL PUSH2 0x1082 JUMP JUMPDEST NOT DUP1 DUP4 AND SWAP2 POP POP SWAP3 SWAP2 POP POP JUMP JUMPDEST PUSH1 0x0 PUSH2 0x10B9 DUP4 DUP4 PUSH2 0x108F JUMP JUMPDEST SWAP2 POP DUP3 PUSH1 0x2 MUL DUP3 OR SWAP1 POP SWAP3 SWAP2 POP POP JUMP JUMPDEST PUSH2 0x10D2 DUP3 PUSH2 0xB46 JUMP JUMPDEST PUSH8 0xFFFFFFFFFFFFFFFF DUP2 GT ISZERO PUSH2 0x10EB JUMPI PUSH2 0x10EA PUSH2 0x893 JUMP JUMPDEST JUMPDEST PUSH2 0x10F5 DUP3 SLOAD PUSH2 0xEEC JUMP JUMPDEST PUSH2 0x1100 DUP3 DUP3 DUP6 PUSH2 0x103C JUMP JUMPDEST PUSH1 0x0 PUSH1 0x20 SWAP1 POP PUSH1 0x1F DUP4 GT PUSH1 0x1 DUP2 EQ PUSH2 0x1133 JUMPI PUSH1 0x0 DUP5 ISZERO PUSH2 0x1121 JUMPI DUP3 DUP8 ADD MLOAD SWAP1 POP JUMPDEST PUSH2 0x112B DUP6 DUP3 PUSH2 0x10AD JUMP JUMPDEST DUP7 SSTORE POP PUSH2 0x1193 JUMP JUMPDEST PUSH1 0x1F NOT DUP5 AND PUSH2 0x1141 DUP7 PUSH2 0xF1D JUMP JUMPDEST PUSH1 0x0 JUMPDEST DUP3 DUP2 LT ISZERO PUSH2 0x1169 JUMPI DUP5 DUP10 ADD MLOAD DUP3 SSTORE PUSH1 0x1 DUP3 ADD SWAP2 POP PUSH1 0x20 DUP6 ADD SWAP5 POP PUSH1 0x20 DUP2 ADD SWAP1 POP PUSH2 0x1144 JUMP JUMPDEST DUP7 DUP4 LT ISZERO PUSH2 0x1186 JUMPI DUP5 DUP10 ADD MLOAD PUSH2 0x1182 PUSH1 0x1F DUP10 AND DUP3 PUSH2 0x108F JUMP JUMPDEST DUP4 SSTORE POP JUMPDEST PUSH1 0x1 PUSH1 0x2 DUP9 MUL ADD DUP9 SSTORE POP POP POP JUMPDEST POP POP POP POP POP POP JUMP JUMPDEST PUSH32 0x4F776E61626C653A206E6577206F776E657220697320746865207A65726F2061 PUSH1 0x0 DUP3 ADD MSTORE PUSH32 0x6464726573730000000000000000000000000000000000000000000000000000 PUSH1 0x20 DUP3 ADD MSTORE POP JUMP JUMPDEST PUSH1 0x0 PUSH2 0x11F7 PUSH1 0x26 DUP4 PUSH2 0xD11 JUMP JUMPDEST SWAP2 POP PUSH2 0x1202 DUP3 PUSH2 0x119B JUMP JUMPDEST PUSH1 0x40 DUP3 ADD SWAP1 POP SWAP2 SWAP1 POP JUMP JUMPDEST PUSH1 0x0 PUSH1 0x20 DUP3 ADD SWAP1 POP DUP2 DUP2 SUB PUSH1 0x0 DUP4 ADD MSTORE PUSH2 0x1226 DUP2 PUSH2 0x11EA JUMP JUMPDEST SWAP1 POP SWAP2 SWAP1 POP JUMP JUMPDEST PUSH32 0x4F776E61626C653A2063616C6C6572206973206E6F7420746865206F776E6572 PUSH1 0x0 DUP3 ADD MSTORE POP JUMP JUMPDEST PUSH1 0x0 PUSH2 0x1263 PUSH1 0x20 DUP4 PUSH2 0xD11 JUMP JUMPDEST SWAP2 POP PUSH2 0x126E DUP3 PUSH2 0x122D JUMP JUMPDEST PUSH1 0x20 DUP3 ADD SWAP1 POP SWAP2 SWAP1 POP JUMP JUMPDEST PUSH1 0x0 PUSH1 0x20 DUP3 ADD SWAP1 POP DUP2 DUP2 SUB PUSH1 0x0 DUP4 ADD MSTORE PUSH2 0x1292 DUP2 PUSH2 0x1256 JUMP JUMPDEST SWAP1 POP SWAP2 SWAP1 POP JUMP INVALID LOG2 PUSH5 0x6970667358 0x22 SLT KECCAK256 INVALID MSIZE CALLDATASIZE STOP PUSH2 0x8525 STATICCALL ADDMOD MUL NOT SWAP4 SLT EXP 0xE8 0xEA LOG3 0xB3 0xE6 0xC0 0xFC 0xDF JUMPI DUP2 DUP16 CALLDATALOAD SWAP14 0x5C DUP12 0x49 PUSH23 0xB264736F6C634300081200330000000000000000000000 "
				},
				"gasEstimates": {
					"creation": {
						"codeDepositCost": "963000",
						"executionCost": "30273",
						"totalCost": "993273"
					},
					"external": {
						"addPermission(address)": "29265",
						"addSubsystem((uint256,address,string,string))": "infinite",
						"destroy()": "29994",
						"getAllSubsystem()": "infinite",
						"owner()": "2588",
						"transferOwnership(address)": "30797"
					}
				},
				"methodIdentifiers": {
					"addPermission(address)": "4d0a5dbd",
					"addSubsystem((uint256,address,string,string))": "7745de9d",
					"destroy()": "83197ef0",
					"getAllSubsystem()": "851efa5b",
					"owner()": "8da5cb5b",
					"transferOwnership(address)": "f2fde38b"
				}
			},
			"storageLayout": {
				"storage": [
					{
						"astId": 30,
						"contract": "database/subsystem/SubsystemDatabase.sol:SubsystemDatabase",
						"label": "_owner",
						"offset": 0,
						"slot": "0",
						"type": "t_address"
					},
					{
						"astId": 149,
						"contract": "database/subsystem/SubsystemDatabase.sol:SubsystemDatabase",
						"label": "list",
						"offset": 0,
						"slot": "1",
						"type": "t_array(t_struct(Subsystem)246_storage)dyn_storage"
					},
					{
						"astId": 152,
						"contract": "database/subsystem/SubsystemDatabase.sol:SubsystemDatabase",
						"label": "autoIncrement",
						"offset": 0,
						"slot": "2",
						"type": "t_uint256"
					},
					{
						"astId": 156,
						"contract": "database/subsystem/SubsystemDatabase.sol:SubsystemDatabase",
						"label": "permissions",
						"offset": 0,
						"slot": "3",
						"type": "t_mapping(t_address,t_bool)"
					}
				],
				"types": {
					"t_address": {
						"encoding": "inplace",
						"label": "address",
						"numberOfBytes": "20"
					},
					"t_array(t_struct(Subsystem)246_storage)dyn_storage": {
						"base": "t_struct(Subsystem)246_storage",
						"encoding": "dynamic_array",
						"label": "struct Subsystem[]",
						"numberOfBytes": "32"
					},
					"t_bool": {
						"encoding": "inplace",
						"label": "bool",
						"numberOfBytes": "1"
					},
					"t_mapping(t_address,t_bool)": {
						"encoding": "mapping",
						"key": "t_address",
						"label": "mapping(address => bool)",
						"numberOfBytes": "32",
						"value": "t_bool"
					},
					"t_string_storage": {
						"encoding": "bytes",
						"label": "string",
						"numberOfBytes": "32"
					},
					"t_struct(Subsystem)246_storage": {
						"encoding": "inplace",
						"label": "struct Subsystem",
						"members": [
							{
								"astId": 239,
								"contract": "database/subsystem/SubsystemDatabase.sol:SubsystemDatabase",
								"label": "subId",
								"offset": 0,
								"slot": "0",
								"type": "t_uint256"
							},
							{
								"astId": 241,
								"contract": "database/subsystem/SubsystemDatabase.sol:SubsystemDatabase",
								"label": "userAddress",
								"offset": 0,
								"slot": "1",
								"type": "t_address"
							},
							{
								"astId": 243,
								"contract": "database/subsystem/SubsystemDatabase.sol:SubsystemDatabase",
								"label": "typeOfSystem",
								"offset": 0,
								"slot": "2",
								"type": "t_string_storage"
							},
							{
								"astId": 245,
								"contract": "database/subsystem/SubsystemDatabase.sol:SubsystemDatabase",
								"label": "registerDate",
								"offset": 0,
								"slot": "3",
								"type": "t_string_storage"
							}
						],
						"numberOfBytes": "128"
					},
					"t_uint256": {
						"encoding": "inplace",
						"label": "uint256",
						"numberOfBytes": "32"
					}
				}
			},
			"userdoc": {
				"kind": "user",
				"methods": {},
				"version": 1
			}
		}
	}
}