{
	"database/batch/BatchDatabase.sol": {
		"BatchDatabase": {
			"abi": [
				{
					"inputs": [],
					"stateMutability": "nonpayable",
					"type": "constructor"
				},
				{
					"anonymous": false,
					"inputs": [
						{
							"indexed": true,
							"internalType": "address",
							"name": "previousOwner",
							"type": "address"
						},
						{
							"indexed": true,
							"internalType": "address",
							"name": "newOwner",
							"type": "address"
						}
					],
					"name": "OwnershipTransferred",
					"type": "event"
				},
				{
					"inputs": [
						{
							"components": [
								{
									"internalType": "uint256",
									"name": "batchId",
									"type": "uint256"
								},
								{
									"internalType": "string",
									"name": "batchName",
									"type": "string"
								},
								{
									"internalType": "uint256",
									"name": "numOfProcess",
									"type": "uint256"
								},
								{
									"internalType": "string",
									"name": "categories",
									"type": "string"
								},
								{
									"internalType": "bool",
									"name": "batchIsChecked",
									"type": "bool"
								}
							],
							"internalType": "struct Batch",
							"name": "batch",
							"type": "tuple"
						}
					],
					"name": "addBatch",
					"outputs": [],
					"stateMutability": "nonpayable",
					"type": "function"
				},
				{
					"inputs": [
						{
							"internalType": "uint256",
							"name": "batchId",
							"type": "uint256"
						}
					],
					"name": "addChecked",
					"outputs": [],
					"stateMutability": "nonpayable",
					"type": "function"
				},
				{
					"inputs": [
						{
							"internalType": "address",
							"name": "contractPermission",
							"type": "address"
						}
					],
					"name": "addPermission",
					"outputs": [],
					"stateMutability": "nonpayable",
					"type": "function"
				},
				{
					"inputs": [],
					"name": "destroy",
					"outputs": [],
					"stateMutability": "nonpayable",
					"type": "function"
				},
				{
					"inputs": [],
					"name": "getAllBatch",
					"outputs": [
						{
							"components": [
								{
									"internalType": "uint256",
									"name": "batchId",
									"type": "uint256"
								},
								{
									"internalType": "string",
									"name": "batchName",
									"type": "string"
								},
								{
									"internalType": "uint256",
									"name": "numOfProcess",
									"type": "uint256"
								},
								{
									"internalType": "string",
									"name": "categories",
									"type": "string"
								},
								{
									"internalType": "bool",
									"name": "batchIsChecked",
									"type": "bool"
								}
							],
							"internalType": "struct Batch[]",
							"name": "",
							"type": "tuple[]"
						}
					],
					"stateMutability": "view",
					"type": "function"
				},
				{
					"inputs": [],
					"name": "owner",
					"outputs": [
						{
							"internalType": "address",
							"name": "",
							"type": "address"
						}
					],
					"stateMutability": "view",
					"type": "function"
				},
				{
					"inputs": [
						{
							"internalType": "address",
							"name": "newOwner",
							"type": "address"
						}
					],
					"name": "transferOwnership",
					"outputs": [],
					"stateMutability": "nonpayable",
					"type": "function"
				}
			],
			"devdoc": {
				"kind": "dev",
				"methods": {
					"owner()": {
						"details": "Returns the address of the current owner."
					},
					"transferOwnership(address)": {
						"details": "Transfers ownership of the contract to a new account (`newOwner`). Can only be called by the current owner."
					}
				},
				"version": 1
			},
			"evm": {
				"assembly": "    /* \"database/batch/BatchDatabase.sol\":177:1232  contract BatchDatabase is Ownable {... */\n  mstore(0x40, 0x80)\n    /* \"database/batch/BatchDatabase.sol\":277:278  0 */\n  0x00\n    /* \"database/batch/BatchDatabase.sol\":245:278  uint256 private autoIncrement = 0 */\n  0x02\n  sstore\n    /* \"database/batch/BatchDatabase.sol\":527:553  constructor() Ownable() {} */\n  callvalue\n  dup1\n  iszero\n  tag_1\n  jumpi\n  0x00\n  dup1\n  revert\ntag_1:\n  pop\n    /* \"abstract/Ownable.sol\":1032:1042  msg.sender */\n  caller\n    /* \"abstract/Ownable.sol\":1023:1029  _owner */\n  0x00\n  dup1\n    /* \"abstract/Ownable.sol\":1023:1042  _owner = msg.sender */\n  0x0100\n  exp\n  dup2\n  sload\n  dup2\n  0xffffffffffffffffffffffffffffffffffffffff\n  mul\n  not\n  and\n  swap1\n  dup4\n  0xffffffffffffffffffffffffffffffffffffffff\n  and\n  mul\n  or\n  swap1\n  sstore\n  pop\n    /* \"database/batch/BatchDatabase.sol\":177:1232  contract BatchDatabase is Ownable {... */\n  dataSize(sub_0)\n  dup1\n  dataOffset(sub_0)\n  0x00\n  codecopy\n  0x00\n  return\nstop\n\nsub_0: assembly {\n        /* \"database/batch/BatchDatabase.sol\":177:1232  contract BatchDatabase is Ownable {... */\n      mstore(0x40, 0x80)\n      callvalue\n      dup1\n      iszero\n      tag_1\n      jumpi\n      0x00\n      dup1\n      revert\n    tag_1:\n      pop\n      jumpi(tag_2, lt(calldatasize, 0x04))\n      shr(0xe0, calldataload(0x00))\n      dup1\n      0xbf8122f7\n      gt\n      tag_10\n      jumpi\n      dup1\n      0xbf8122f7\n      eq\n      tag_6\n      jumpi\n      dup1\n      0xcad09ad6\n      eq\n      tag_7\n      jumpi\n      dup1\n      0xee416d5b\n      eq\n      tag_8\n      jumpi\n      dup1\n      0xf2fde38b\n      eq\n      tag_9\n      jumpi\n      jump(tag_2)\n    tag_10:\n      dup1\n      0x4d0a5dbd\n      eq\n      tag_3\n      jumpi\n      dup1\n      0x83197ef0\n      eq\n      tag_4\n      jumpi\n      dup1\n      0x8da5cb5b\n      eq\n      tag_5\n      jumpi\n    tag_2:\n      0x00\n      dup1\n      revert\n        /* \"database/batch/BatchDatabase.sol\":561:821  function addPermission(address contractPermission) public onlyOwner {... */\n    tag_3:\n      tag_11\n      0x04\n      dup1\n      calldatasize\n      sub\n      dup2\n      add\n      swap1\n      tag_12\n      swap2\n      swap1\n      tag_13\n      jump\t// in\n    tag_12:\n      tag_14\n      jump\t// in\n    tag_11:\n      stop\n        /* \"abstract/Ownable.sol\":2801:2892  function destroy() public onlyOwner {... */\n    tag_4:\n      tag_15\n      tag_16\n      jump\t// in\n    tag_15:\n      stop\n        /* \"abstract/Ownable.sol\":1289:1376  function owner() public view virtual returns (address) {... */\n    tag_5:\n      tag_17\n      tag_18\n      jump\t// in\n    tag_17:\n      mload(0x40)\n      tag_19\n      swap2\n      swap1\n      tag_20\n      jump\t// in\n    tag_19:\n      mload(0x40)\n      dup1\n      swap2\n      sub\n      swap1\n      return\n        /* \"database/batch/BatchDatabase.sol\":829:993  function addBatch(Batch memory batch) public onlyPermissions {... */\n    tag_6:\n      tag_21\n      0x04\n      dup1\n      calldatasize\n      sub\n      dup2\n      add\n      swap1\n      tag_22\n      swap2\n      swap1\n      tag_23\n      jump\t// in\n    tag_22:\n      tag_24\n      jump\t// in\n    tag_21:\n      stop\n        /* \"database/batch/BatchDatabase.sol\":1123:1229  function getAllBatch() public view onlyPermissions returns (Batch[] memory) {... */\n    tag_7:\n      tag_25\n      tag_26\n      jump\t// in\n    tag_25:\n      mload(0x40)\n      tag_27\n      swap2\n      swap1\n      tag_28\n      jump\t// in\n    tag_27:\n      mload(0x40)\n      dup1\n      swap2\n      sub\n      swap1\n      return\n        /* \"database/batch/BatchDatabase.sol\":1001:1115  function addChecked(uint256 batchId) public onlyPermissions {... */\n    tag_8:\n      tag_29\n      0x04\n      dup1\n      calldatasize\n      sub\n      dup2\n      add\n      swap1\n      tag_30\n      swap2\n      swap1\n      tag_31\n      jump\t// in\n    tag_30:\n      tag_32\n      jump\t// in\n    tag_29:\n      stop\n        /* \"abstract/Ownable.sol\":2204:2442  function transferOwnership(address newOwner) public virtual onlyOwner {... */\n    tag_9:\n      tag_33\n      0x04\n      dup1\n      calldatasize\n      sub\n      dup2\n      add\n      swap1\n      tag_34\n      swap2\n      swap1\n      tag_13\n      jump\t// in\n    tag_34:\n      tag_35\n      jump\t// in\n    tag_33:\n      stop\n        /* \"database/batch/BatchDatabase.sol\":561:821  function addPermission(address contractPermission) public onlyOwner {... */\n    tag_14:\n        /* \"abstract/Ownable.sol\":1175:1188  _checkOwner() */\n      tag_37\n        /* \"abstract/Ownable.sol\":1175:1186  _checkOwner */\n      tag_38\n        /* \"abstract/Ownable.sol\":1175:1188  _checkOwner() */\n      jump\t// in\n    tag_37:\n        /* \"database/batch/BatchDatabase.sol\":663:674  permissions */\n      0x03\n        /* \"database/batch/BatchDatabase.sol\":663:694  permissions[contractPermission] */\n      0x00\n        /* \"database/batch/BatchDatabase.sol\":675:693  contractPermission */\n      dup3\n        /* \"database/batch/BatchDatabase.sol\":663:694  permissions[contractPermission] */\n      0xffffffffffffffffffffffffffffffffffffffff\n      and\n      0xffffffffffffffffffffffffffffffffffffffff\n      and\n      dup2\n      mstore\n      0x20\n      add\n      swap1\n      dup2\n      mstore\n      0x20\n      add\n      0x00\n      keccak256\n      0x00\n      swap1\n      sload\n      swap1\n      0x0100\n      exp\n      swap1\n      div\n      0xff\n      and\n        /* \"database/batch/BatchDatabase.sol\":662:694  !permissions[contractPermission] */\n      iszero\n        /* \"database/batch/BatchDatabase.sol\":640:764  require(... */\n      tag_40\n      jumpi\n      mload(0x40)\n      0x08c379a000000000000000000000000000000000000000000000000000000000\n      dup2\n      mstore\n      0x04\n      add\n      tag_41\n      swap1\n      tag_42\n      jump\t// in\n    tag_41:\n      mload(0x40)\n      dup1\n      swap2\n      sub\n      swap1\n      revert\n    tag_40:\n        /* \"database/batch/BatchDatabase.sol\":809:813  true */\n      0x01\n        /* \"database/batch/BatchDatabase.sol\":775:786  permissions */\n      0x03\n        /* \"database/batch/BatchDatabase.sol\":775:806  permissions[contractPermission] */\n      0x00\n        /* \"database/batch/BatchDatabase.sol\":787:805  contractPermission */\n      dup4\n        /* \"database/batch/BatchDatabase.sol\":775:806  permissions[contractPermission] */\n      0xffffffffffffffffffffffffffffffffffffffff\n      and\n      0xffffffffffffffffffffffffffffffffffffffff\n      and\n      dup2\n      mstore\n      0x20\n      add\n      swap1\n      dup2\n      mstore\n      0x20\n      add\n      0x00\n      keccak256\n      0x00\n        /* \"database/batch/BatchDatabase.sol\":775:813  permissions[contractPermission] = true */\n      0x0100\n      exp\n      dup2\n      sload\n      dup2\n      0xff\n      mul\n      not\n      and\n      swap1\n      dup4\n      iszero\n      iszero\n      mul\n      or\n      swap1\n      sstore\n      pop\n        /* \"database/batch/BatchDatabase.sol\":561:821  function addPermission(address contractPermission) public onlyOwner {... */\n      pop\n      jump\t// out\n        /* \"abstract/Ownable.sol\":2801:2892  function destroy() public onlyOwner {... */\n    tag_16:\n        /* \"abstract/Ownable.sol\":1175:1188  _checkOwner() */\n      tag_44\n        /* \"abstract/Ownable.sol\":1175:1186  _checkOwner */\n      tag_38\n        /* \"abstract/Ownable.sol\":1175:1188  _checkOwner() */\n      jump\t// in\n    tag_44:\n        /* \"abstract/Ownable.sol\":2877:2881  this */\n      address\n        /* \"abstract/Ownable.sol\":2848:2884  selfdestruct(payable(address(this))) */\n      0xffffffffffffffffffffffffffffffffffffffff\n      and\n      selfdestruct\n        /* \"abstract/Ownable.sol\":1289:1376  function owner() public view virtual returns (address) {... */\n    tag_18:\n        /* \"abstract/Ownable.sol\":1335:1342  address */\n      0x00\n        /* \"abstract/Ownable.sol\":1362:1368  _owner */\n      dup1\n      0x00\n      swap1\n      sload\n      swap1\n      0x0100\n      exp\n      swap1\n      div\n      0xffffffffffffffffffffffffffffffffffffffff\n      and\n        /* \"abstract/Ownable.sol\":1355:1368  return _owner */\n      swap1\n      pop\n        /* \"abstract/Ownable.sol\":1289:1376  function owner() public view virtual returns (address) {... */\n      swap1\n      jump\t// out\n        /* \"database/batch/BatchDatabase.sol\":829:993  function addBatch(Batch memory batch) public onlyPermissions {... */\n    tag_24:\n        /* \"database/batch/BatchDatabase.sol\":400:411  permissions */\n      0x03\n        /* \"database/batch/BatchDatabase.sol\":400:425  permissions[_msgSender()] */\n      0x00\n        /* \"database/batch/BatchDatabase.sol\":412:424  _msgSender() */\n      tag_48\n        /* \"database/batch/BatchDatabase.sol\":412:422  _msgSender */\n      tag_49\n        /* \"database/batch/BatchDatabase.sol\":412:424  _msgSender() */\n      jump\t// in\n    tag_48:\n        /* \"database/batch/BatchDatabase.sol\":400:425  permissions[_msgSender()] */\n      0xffffffffffffffffffffffffffffffffffffffff\n      and\n      0xffffffffffffffffffffffffffffffffffffffff\n      and\n      dup2\n      mstore\n      0x20\n      add\n      swap1\n      dup2\n      mstore\n      0x20\n      add\n      0x00\n      keccak256\n      0x00\n      swap1\n      sload\n      swap1\n      0x0100\n      exp\n      swap1\n      div\n      0xff\n      and\n        /* \"database/batch/BatchDatabase.sol\":378:499  require(... */\n      tag_50\n      jumpi\n      mload(0x40)\n      0x08c379a000000000000000000000000000000000000000000000000000000000\n      dup2\n      mstore\n      0x04\n      add\n      tag_51\n      swap1\n      tag_52\n      jump\t// in\n    tag_51:\n      mload(0x40)\n      dup1\n      swap2\n      sub\n      swap1\n      revert\n    tag_50:\n        /* \"database/batch/BatchDatabase.sol\":901:911  uint256 id */\n      0x00\n        /* \"database/batch/BatchDatabase.sol\":914:927  autoIncrement */\n      0x02\n      0x00\n        /* \"database/batch/BatchDatabase.sol\":914:929  autoIncrement++ */\n      dup2\n      sload\n      dup1\n      swap3\n      swap2\n      swap1\n      tag_54\n      swap1\n      tag_55\n      jump\t// in\n    tag_54:\n      swap2\n      swap1\n      pop\n      sstore\n        /* \"database/batch/BatchDatabase.sol\":901:929  uint256 id = autoIncrement++ */\n      swap1\n      pop\n        /* \"database/batch/BatchDatabase.sol\":956:958  id */\n      dup1\n        /* \"database/batch/BatchDatabase.sol\":940:945  batch */\n      dup3\n        /* \"database/batch/BatchDatabase.sol\":940:953  batch.batchId */\n      0x00\n      add\n        /* \"database/batch/BatchDatabase.sol\":940:958  batch.batchId = id */\n      dup2\n      dup2\n      mstore\n      pop\n      pop\n        /* \"database/batch/BatchDatabase.sol\":969:973  list */\n      0x01\n        /* \"database/batch/BatchDatabase.sol\":979:984  batch */\n      dup3\n        /* \"database/batch/BatchDatabase.sol\":969:985  list.push(batch) */\n      swap1\n      dup1\n      0x01\n      dup2\n      sload\n      add\n      dup1\n      dup3\n      sstore\n      dup1\n      swap2\n      pop\n      pop\n      0x01\n      swap1\n      sub\n      swap1\n      0x00\n      mstore\n      keccak256(0x00, 0x20)\n      swap1\n      0x05\n      mul\n      add\n      0x00\n      swap1\n      swap2\n      swap1\n      swap2\n      swap1\n      swap2\n      pop\n      0x00\n      dup3\n      add\n      mload\n      dup2\n      0x00\n      add\n      sstore\n      0x20\n      dup3\n      add\n      mload\n      dup2\n      0x01\n      add\n      swap1\n      dup2\n      tag_57\n      swap2\n      swap1\n      tag_58\n      jump\t// in\n    tag_57:\n      pop\n      0x40\n      dup3\n      add\n      mload\n      dup2\n      0x02\n      add\n      sstore\n      0x60\n      dup3\n      add\n      mload\n      dup2\n      0x03\n      add\n      swap1\n      dup2\n      tag_59\n      swap2\n      swap1\n      tag_58\n      jump\t// in\n    tag_59:\n      pop\n      0x80\n      dup3\n      add\n      mload\n      dup2\n      0x04\n      add\n      exp(0x0100, 0x00)\n      dup2\n      sload\n      dup2\n      0xff\n      mul\n      not\n      and\n      swap1\n      dup4\n      iszero\n      iszero\n      mul\n      or\n      swap1\n      sstore\n      pop\n      pop\n      pop\n        /* \"database/batch/BatchDatabase.sol\":890:993  {... */\n      pop\n        /* \"database/batch/BatchDatabase.sol\":829:993  function addBatch(Batch memory batch) public onlyPermissions {... */\n      pop\n      jump\t// out\n        /* \"database/batch/BatchDatabase.sol\":1123:1229  function getAllBatch() public view onlyPermissions returns (Batch[] memory) {... */\n    tag_26:\n        /* \"database/batch/BatchDatabase.sol\":1183:1197  Batch[] memory */\n      0x60\n        /* \"database/batch/BatchDatabase.sol\":400:411  permissions */\n      0x03\n        /* \"database/batch/BatchDatabase.sol\":400:425  permissions[_msgSender()] */\n      0x00\n        /* \"database/batch/BatchDatabase.sol\":412:424  _msgSender() */\n      tag_61\n        /* \"database/batch/BatchDatabase.sol\":412:422  _msgSender */\n      tag_49\n        /* \"database/batch/BatchDatabase.sol\":412:424  _msgSender() */\n      jump\t// in\n    tag_61:\n        /* \"database/batch/BatchDatabase.sol\":400:425  permissions[_msgSender()] */\n      0xffffffffffffffffffffffffffffffffffffffff\n      and\n      0xffffffffffffffffffffffffffffffffffffffff\n      and\n      dup2\n      mstore\n      0x20\n      add\n      swap1\n      dup2\n      mstore\n      0x20\n      add\n      0x00\n      keccak256\n      0x00\n      swap1\n      sload\n      swap1\n      0x0100\n      exp\n      swap1\n      div\n      0xff\n      and\n        /* \"database/batch/BatchDatabase.sol\":378:499  require(... */\n      tag_62\n      jumpi\n      mload(0x40)\n      0x08c379a000000000000000000000000000000000000000000000000000000000\n      dup2\n      mstore\n      0x04\n      add\n      tag_63\n      swap1\n      tag_52\n      jump\t// in\n    tag_63:\n      mload(0x40)\n      dup1\n      swap2\n      sub\n      swap1\n      revert\n    tag_62:\n        /* \"database/batch/BatchDatabase.sol\":1217:1221  list */\n      0x01\n        /* \"database/batch/BatchDatabase.sol\":1210:1221  return list */\n      dup1\n      sload\n      dup1\n      0x20\n      mul\n      0x20\n      add\n      mload(0x40)\n      swap1\n      dup2\n      add\n      0x40\n      mstore\n      dup1\n      swap3\n      swap2\n      swap1\n      dup2\n      dup2\n      mstore\n      0x20\n      add\n      0x00\n      swap1\n    tag_65:\n      dup3\n      dup3\n      lt\n      iszero\n      tag_66\n      jumpi\n      dup4\n      dup3\n      swap1\n      0x00\n      mstore\n      keccak256(0x00, 0x20)\n      swap1\n      0x05\n      mul\n      add\n      mload(0x40)\n      dup1\n      0xa0\n      add\n      0x40\n      mstore\n      swap1\n      dup2\n      0x00\n      dup3\n      add\n      sload\n      dup2\n      mstore\n      0x20\n      add\n      0x01\n      dup3\n      add\n      dup1\n      sload\n      tag_68\n      swap1\n      tag_69\n      jump\t// in\n    tag_68:\n      dup1\n      0x1f\n      add\n      0x20\n      dup1\n      swap2\n      div\n      mul\n      0x20\n      add\n      mload(0x40)\n      swap1\n      dup2\n      add\n      0x40\n      mstore\n      dup1\n      swap3\n      swap2\n      swap1\n      dup2\n      dup2\n      mstore\n      0x20\n      add\n      dup3\n      dup1\n      sload\n      tag_70\n      swap1\n      tag_69\n      jump\t// in\n    tag_70:\n      dup1\n      iszero\n      tag_71\n      jumpi\n      dup1\n      0x1f\n      lt\n      tag_72\n      jumpi\n      0x0100\n      dup1\n      dup4\n      sload\n      div\n      mul\n      dup4\n      mstore\n      swap2\n      0x20\n      add\n      swap2\n      jump(tag_71)\n    tag_72:\n      dup3\n      add\n      swap2\n      swap1\n      0x00\n      mstore\n      keccak256(0x00, 0x20)\n      swap1\n    tag_73:\n      dup2\n      sload\n      dup2\n      mstore\n      swap1\n      0x01\n      add\n      swap1\n      0x20\n      add\n      dup1\n      dup4\n      gt\n      tag_73\n      jumpi\n      dup3\n      swap1\n      sub\n      0x1f\n      and\n      dup3\n      add\n      swap2\n    tag_71:\n      pop\n      pop\n      pop\n      pop\n      pop\n      dup2\n      mstore\n      0x20\n      add\n      0x02\n      dup3\n      add\n      sload\n      dup2\n      mstore\n      0x20\n      add\n      0x03\n      dup3\n      add\n      dup1\n      sload\n      tag_74\n      swap1\n      tag_69\n      jump\t// in\n    tag_74:\n      dup1\n      0x1f\n      add\n      0x20\n      dup1\n      swap2\n      div\n      mul\n      0x20\n      add\n      mload(0x40)\n      swap1\n      dup2\n      add\n      0x40\n      mstore\n      dup1\n      swap3\n      swap2\n      swap1\n      dup2\n      dup2\n      mstore\n      0x20\n      add\n      dup3\n      dup1\n      sload\n      tag_75\n      swap1\n      tag_69\n      jump\t// in\n    tag_75:\n      dup1\n      iszero\n      tag_76\n      jumpi\n      dup1\n      0x1f\n      lt\n      tag_77\n      jumpi\n      0x0100\n      dup1\n      dup4\n      sload\n      div\n      mul\n      dup4\n      mstore\n      swap2\n      0x20\n      add\n      swap2\n      jump(tag_76)\n    tag_77:\n      dup3\n      add\n      swap2\n      swap1\n      0x00\n      mstore\n      keccak256(0x00, 0x20)\n      swap1\n    tag_78:\n      dup2\n      sload\n      dup2\n      mstore\n      swap1\n      0x01\n      add\n      swap1\n      0x20\n      add\n      dup1\n      dup4\n      gt\n      tag_78\n      jumpi\n      dup3\n      swap1\n      sub\n      0x1f\n      and\n      dup3\n      add\n      swap2\n    tag_76:\n      pop\n      pop\n      pop\n      pop\n      pop\n      dup2\n      mstore\n      0x20\n      add\n      0x04\n      dup3\n      add\n      0x00\n      swap1\n      sload\n      swap1\n      0x0100\n      exp\n      swap1\n      div\n      0xff\n      and\n      iszero\n      iszero\n      iszero\n      iszero\n      dup2\n      mstore\n      pop\n      pop\n      dup2\n      mstore\n      0x20\n      add\n      swap1\n      0x01\n      add\n      swap1\n      jump(tag_65)\n    tag_66:\n      pop\n      pop\n      pop\n      pop\n      swap1\n      pop\n        /* \"database/batch/BatchDatabase.sol\":1123:1229  function getAllBatch() public view onlyPermissions returns (Batch[] memory) {... */\n      swap1\n      jump\t// out\n        /* \"database/batch/BatchDatabase.sol\":1001:1115  function addChecked(uint256 batchId) public onlyPermissions {... */\n    tag_32:\n        /* \"database/batch/BatchDatabase.sol\":400:411  permissions */\n      0x03\n        /* \"database/batch/BatchDatabase.sol\":400:425  permissions[_msgSender()] */\n      0x00\n        /* \"database/batch/BatchDatabase.sol\":412:424  _msgSender() */\n      tag_80\n        /* \"database/batch/BatchDatabase.sol\":412:422  _msgSender */\n      tag_49\n        /* \"database/batch/BatchDatabase.sol\":412:424  _msgSender() */\n      jump\t// in\n    tag_80:\n        /* \"database/batch/BatchDatabase.sol\":400:425  permissions[_msgSender()] */\n      0xffffffffffffffffffffffffffffffffffffffff\n      and\n      0xffffffffffffffffffffffffffffffffffffffff\n      and\n      dup2\n      mstore\n      0x20\n      add\n      swap1\n      dup2\n      mstore\n      0x20\n      add\n      0x00\n      keccak256\n      0x00\n      swap1\n      sload\n      swap1\n      0x0100\n      exp\n      swap1\n      div\n      0xff\n      and\n        /* \"database/batch/BatchDatabase.sol\":378:499  require(... */\n      tag_81\n      jumpi\n      mload(0x40)\n      0x08c379a000000000000000000000000000000000000000000000000000000000\n      dup2\n      mstore\n      0x04\n      add\n      tag_82\n      swap1\n      tag_52\n      jump\t// in\n    tag_82:\n      mload(0x40)\n      dup1\n      swap2\n      sub\n      swap1\n      revert\n    tag_81:\n        /* \"database/batch/BatchDatabase.sol\":1103:1107  true */\n      0x01\n        /* \"database/batch/BatchDatabase.sol\":1072:1076  list */\n      dup1\n        /* \"database/batch/BatchDatabase.sol\":1077:1084  batchId */\n      dup3\n        /* \"database/batch/BatchDatabase.sol\":1072:1085  list[batchId] */\n      dup2\n      sload\n      dup2\n      lt\n      tag_84\n      jumpi\n      tag_85\n      tag_86\n      jump\t// in\n    tag_85:\n    tag_84:\n      swap1\n      0x00\n      mstore\n      keccak256(0x00, 0x20)\n      swap1\n      0x05\n      mul\n      add\n        /* \"database/batch/BatchDatabase.sol\":1072:1100  list[batchId].batchIsChecked */\n      0x04\n      add\n      0x00\n        /* \"database/batch/BatchDatabase.sol\":1072:1107  list[batchId].batchIsChecked = true */\n      0x0100\n      exp\n      dup2\n      sload\n      dup2\n      0xff\n      mul\n      not\n      and\n      swap1\n      dup4\n      iszero\n      iszero\n      mul\n      or\n      swap1\n      sstore\n      pop\n        /* \"database/batch/BatchDatabase.sol\":1001:1115  function addChecked(uint256 batchId) public onlyPermissions {... */\n      pop\n      jump\t// out\n        /* \"abstract/Ownable.sol\":2204:2442  function transferOwnership(address newOwner) public virtual onlyOwner {... */\n    tag_35:\n        /* \"abstract/Ownable.sol\":1175:1188  _checkOwner() */\n      tag_89\n        /* \"abstract/Ownable.sol\":1175:1186  _checkOwner */\n      tag_38\n        /* \"abstract/Ownable.sol\":1175:1188  _checkOwner() */\n      jump\t// in\n    tag_89:\n        /* \"abstract/Ownable.sol\":2327:2328  0 */\n      0x00\n        /* \"abstract/Ownable.sol\":2307:2329  newOwner != address(0) */\n      0xffffffffffffffffffffffffffffffffffffffff\n      and\n        /* \"abstract/Ownable.sol\":2307:2315  newOwner */\n      dup2\n        /* \"abstract/Ownable.sol\":2307:2329  newOwner != address(0) */\n      0xffffffffffffffffffffffffffffffffffffffff\n      and\n      sub\n        /* \"abstract/Ownable.sol\":2285:2395  require(... */\n      tag_91\n      jumpi\n      mload(0x40)\n      0x08c379a000000000000000000000000000000000000000000000000000000000\n      dup2\n      mstore\n      0x04\n      add\n      tag_92\n      swap1\n      tag_93\n      jump\t// in\n    tag_92:\n      mload(0x40)\n      dup1\n      swap2\n      sub\n      swap1\n      revert\n    tag_91:\n        /* \"abstract/Ownable.sol\":2406:2434  _transferOwnership(newOwner) */\n      tag_94\n        /* \"abstract/Ownable.sol\":2425:2433  newOwner */\n      dup2\n        /* \"abstract/Ownable.sol\":2406:2424  _transferOwnership */\n      tag_95\n        /* \"abstract/Ownable.sol\":2406:2434  _transferOwnership(newOwner) */\n      jump\t// in\n    tag_94:\n        /* \"abstract/Ownable.sol\":2204:2442  function transferOwnership(address newOwner) public virtual onlyOwner {... */\n      pop\n      jump\t// out\n        /* \"abstract/Ownable.sol\":1454:1584  function _checkOwner() internal view virtual {... */\n    tag_38:\n        /* \"abstract/Ownable.sol\":1529:1539  msg.sender */\n      caller\n        /* \"abstract/Ownable.sol\":1518:1539  owner() == msg.sender */\n      0xffffffffffffffffffffffffffffffffffffffff\n      and\n        /* \"abstract/Ownable.sol\":1518:1525  owner() */\n      tag_97\n        /* \"abstract/Ownable.sol\":1518:1523  owner */\n      tag_18\n        /* \"abstract/Ownable.sol\":1518:1525  owner() */\n      jump\t// in\n    tag_97:\n        /* \"abstract/Ownable.sol\":1518:1539  owner() == msg.sender */\n      0xffffffffffffffffffffffffffffffffffffffff\n      and\n      eq\n        /* \"abstract/Ownable.sol\":1510:1576  require(owner() == msg.sender, \"Ownable: caller is not the owner\") */\n      tag_98\n      jumpi\n      mload(0x40)\n      0x08c379a000000000000000000000000000000000000000000000000000000000\n      dup2\n      mstore\n      0x04\n      add\n      tag_99\n      swap1\n      tag_100\n      jump\t// in\n    tag_99:\n      mload(0x40)\n      dup1\n      swap2\n      sub\n      swap1\n      revert\n    tag_98:\n        /* \"abstract/Ownable.sol\":1454:1584  function _checkOwner() internal view virtual {... */\n      jump\t// out\n        /* \"@openzeppelin/contracts/utils/Context.sol\":640:736  function _msgSender() internal view virtual returns (address) {... */\n    tag_49:\n        /* \"@openzeppelin/contracts/utils/Context.sol\":693:700  address */\n      0x00\n        /* \"@openzeppelin/contracts/utils/Context.sol\":719:729  msg.sender */\n      caller\n        /* \"@openzeppelin/contracts/utils/Context.sol\":712:729  return msg.sender */\n      swap1\n      pop\n        /* \"@openzeppelin/contracts/utils/Context.sol\":640:736  function _msgSender() internal view virtual returns (address) {... */\n      swap1\n      jump\t// out\n        /* \"abstract/Ownable.sol\":2602:2793  function _transferOwnership(address newOwner) internal virtual {... */\n    tag_95:\n        /* \"abstract/Ownable.sol\":2676:2692  address oldOwner */\n      0x00\n        /* \"abstract/Ownable.sol\":2695:2701  _owner */\n      dup1\n      0x00\n      swap1\n      sload\n      swap1\n      0x0100\n      exp\n      swap1\n      div\n      0xffffffffffffffffffffffffffffffffffffffff\n      and\n        /* \"abstract/Ownable.sol\":2676:2701  address oldOwner = _owner */\n      swap1\n      pop\n        /* \"abstract/Ownable.sol\":2721:2729  newOwner */\n      dup2\n        /* \"abstract/Ownable.sol\":2712:2718  _owner */\n      0x00\n      dup1\n        /* \"abstract/Ownable.sol\":2712:2729  _owner = newOwner */\n      0x0100\n      exp\n      dup2\n      sload\n      dup2\n      0xffffffffffffffffffffffffffffffffffffffff\n      mul\n      not\n      and\n      swap1\n      dup4\n      0xffffffffffffffffffffffffffffffffffffffff\n      and\n      mul\n      or\n      swap1\n      sstore\n      pop\n        /* \"abstract/Ownable.sol\":2776:2784  newOwner */\n      dup2\n        /* \"abstract/Ownable.sol\":2745:2785  OwnershipTransferred(oldOwner, newOwner) */\n      0xffffffffffffffffffffffffffffffffffffffff\n      and\n        /* \"abstract/Ownable.sol\":2766:2774  oldOwner */\n      dup2\n        /* \"abstract/Ownable.sol\":2745:2785  OwnershipTransferred(oldOwner, newOwner) */\n      0xffffffffffffffffffffffffffffffffffffffff\n      and\n      0x8be0079c531659141344cd1fd0a4f28419497f9722a3daafe3b4186f6b6457e0\n      mload(0x40)\n      mload(0x40)\n      dup1\n      swap2\n      sub\n      swap1\n      log3\n        /* \"abstract/Ownable.sol\":2665:2793  {... */\n      pop\n        /* \"abstract/Ownable.sol\":2602:2793  function _transferOwnership(address newOwner) internal virtual {... */\n      pop\n      jump\t// out\n        /* \"#utility.yul\":7:82   */\n    tag_103:\n        /* \"#utility.yul\":40:46   */\n      0x00\n        /* \"#utility.yul\":73:75   */\n      0x40\n        /* \"#utility.yul\":67:76   */\n      mload\n        /* \"#utility.yul\":57:76   */\n      swap1\n      pop\n        /* \"#utility.yul\":7:82   */\n      swap1\n      jump\t// out\n        /* \"#utility.yul\":88:205   */\n    tag_104:\n        /* \"#utility.yul\":197:198   */\n      0x00\n        /* \"#utility.yul\":194:195   */\n      dup1\n        /* \"#utility.yul\":187:199   */\n      revert\n        /* \"#utility.yul\":211:328   */\n    tag_105:\n        /* \"#utility.yul\":320:321   */\n      0x00\n        /* \"#utility.yul\":317:318   */\n      dup1\n        /* \"#utility.yul\":310:322   */\n      revert\n        /* \"#utility.yul\":334:460   */\n    tag_106:\n        /* \"#utility.yul\":371:378   */\n      0x00\n        /* \"#utility.yul\":411:453   */\n      0xffffffffffffffffffffffffffffffffffffffff\n        /* \"#utility.yul\":404:409   */\n      dup3\n        /* \"#utility.yul\":400:454   */\n      and\n        /* \"#utility.yul\":389:454   */\n      swap1\n      pop\n        /* \"#utility.yul\":334:460   */\n      swap2\n      swap1\n      pop\n      jump\t// out\n        /* \"#utility.yul\":466:562   */\n    tag_107:\n        /* \"#utility.yul\":503:510   */\n      0x00\n        /* \"#utility.yul\":532:556   */\n      tag_175\n        /* \"#utility.yul\":550:555   */\n      dup3\n        /* \"#utility.yul\":532:556   */\n      tag_106\n      jump\t// in\n    tag_175:\n        /* \"#utility.yul\":521:556   */\n      swap1\n      pop\n        /* \"#utility.yul\":466:562   */\n      swap2\n      swap1\n      pop\n      jump\t// out\n        /* \"#utility.yul\":568:690   */\n    tag_108:\n        /* \"#utility.yul\":641:665   */\n      tag_177\n        /* \"#utility.yul\":659:664   */\n      dup2\n        /* \"#utility.yul\":641:665   */\n      tag_107\n      jump\t// in\n    tag_177:\n        /* \"#utility.yul\":634:639   */\n      dup2\n        /* \"#utility.yul\":631:666   */\n      eq\n        /* \"#utility.yul\":621:684   */\n      tag_178\n      jumpi\n        /* \"#utility.yul\":680:681   */\n      0x00\n        /* \"#utility.yul\":677:678   */\n      dup1\n        /* \"#utility.yul\":670:682   */\n      revert\n        /* \"#utility.yul\":621:684   */\n    tag_178:\n        /* \"#utility.yul\":568:690   */\n      pop\n      jump\t// out\n        /* \"#utility.yul\":696:835   */\n    tag_109:\n        /* \"#utility.yul\":742:747   */\n      0x00\n        /* \"#utility.yul\":780:786   */\n      dup2\n        /* \"#utility.yul\":767:787   */\n      calldataload\n        /* \"#utility.yul\":758:787   */\n      swap1\n      pop\n        /* \"#utility.yul\":796:829   */\n      tag_180\n        /* \"#utility.yul\":823:828   */\n      dup2\n        /* \"#utility.yul\":796:829   */\n      tag_108\n      jump\t// in\n    tag_180:\n        /* \"#utility.yul\":696:835   */\n      swap3\n      swap2\n      pop\n      pop\n      jump\t// out\n        /* \"#utility.yul\":841:1170   */\n    tag_13:\n        /* \"#utility.yul\":900:906   */\n      0x00\n        /* \"#utility.yul\":949:951   */\n      0x20\n        /* \"#utility.yul\":937:946   */\n      dup3\n        /* \"#utility.yul\":928:935   */\n      dup5\n        /* \"#utility.yul\":924:947   */\n      sub\n        /* \"#utility.yul\":920:952   */\n      slt\n        /* \"#utility.yul\":917:1036   */\n      iszero\n      tag_182\n      jumpi\n        /* \"#utility.yul\":955:1034   */\n      tag_183\n      tag_104\n      jump\t// in\n    tag_183:\n        /* \"#utility.yul\":917:1036   */\n    tag_182:\n        /* \"#utility.yul\":1075:1076   */\n      0x00\n        /* \"#utility.yul\":1100:1153   */\n      tag_184\n        /* \"#utility.yul\":1145:1152   */\n      dup5\n        /* \"#utility.yul\":1136:1142   */\n      dup3\n        /* \"#utility.yul\":1125:1134   */\n      dup6\n        /* \"#utility.yul\":1121:1143   */\n      add\n        /* \"#utility.yul\":1100:1153   */\n      tag_109\n      jump\t// in\n    tag_184:\n        /* \"#utility.yul\":1090:1153   */\n      swap2\n      pop\n        /* \"#utility.yul\":1046:1163   */\n      pop\n        /* \"#utility.yul\":841:1170   */\n      swap3\n      swap2\n      pop\n      pop\n      jump\t// out\n        /* \"#utility.yul\":1176:1294   */\n    tag_110:\n        /* \"#utility.yul\":1263:1287   */\n      tag_186\n        /* \"#utility.yul\":1281:1286   */\n      dup2\n        /* \"#utility.yul\":1263:1287   */\n      tag_107\n      jump\t// in\n    tag_186:\n        /* \"#utility.yul\":1258:1261   */\n      dup3\n        /* \"#utility.yul\":1251:1288   */\n      mstore\n        /* \"#utility.yul\":1176:1294   */\n      pop\n      pop\n      jump\t// out\n        /* \"#utility.yul\":1300:1522   */\n    tag_20:\n        /* \"#utility.yul\":1393:1397   */\n      0x00\n        /* \"#utility.yul\":1431:1433   */\n      0x20\n        /* \"#utility.yul\":1420:1429   */\n      dup3\n        /* \"#utility.yul\":1416:1434   */\n      add\n        /* \"#utility.yul\":1408:1434   */\n      swap1\n      pop\n        /* \"#utility.yul\":1444:1515   */\n      tag_188\n        /* \"#utility.yul\":1512:1513   */\n      0x00\n        /* \"#utility.yul\":1501:1510   */\n      dup4\n        /* \"#utility.yul\":1497:1514   */\n      add\n        /* \"#utility.yul\":1488:1494   */\n      dup5\n        /* \"#utility.yul\":1444:1515   */\n      tag_110\n      jump\t// in\n    tag_188:\n        /* \"#utility.yul\":1300:1522   */\n      swap3\n      swap2\n      pop\n      pop\n      jump\t// out\n        /* \"#utility.yul\":1528:1645   */\n    tag_111:\n        /* \"#utility.yul\":1637:1638   */\n      0x00\n        /* \"#utility.yul\":1634:1635   */\n      dup1\n        /* \"#utility.yul\":1627:1639   */\n      revert\n        /* \"#utility.yul\":1651:1753   */\n    tag_112:\n        /* \"#utility.yul\":1692:1698   */\n      0x00\n        /* \"#utility.yul\":1743:1745   */\n      0x1f\n        /* \"#utility.yul\":1739:1746   */\n      not\n        /* \"#utility.yul\":1734:1736   */\n      0x1f\n        /* \"#utility.yul\":1727:1732   */\n      dup4\n        /* \"#utility.yul\":1723:1737   */\n      add\n        /* \"#utility.yul\":1719:1747   */\n      and\n        /* \"#utility.yul\":1709:1747   */\n      swap1\n      pop\n        /* \"#utility.yul\":1651:1753   */\n      swap2\n      swap1\n      pop\n      jump\t// out\n        /* \"#utility.yul\":1759:1939   */\n    tag_113:\n        /* \"#utility.yul\":1807:1884   */\n      0x4e487b7100000000000000000000000000000000000000000000000000000000\n        /* \"#utility.yul\":1804:1805   */\n      0x00\n        /* \"#utility.yul\":1797:1885   */\n      mstore\n        /* \"#utility.yul\":1904:1908   */\n      0x41\n        /* \"#utility.yul\":1901:1902   */\n      0x04\n        /* \"#utility.yul\":1894:1909   */\n      mstore\n        /* \"#utility.yul\":1928:1932   */\n      0x24\n        /* \"#utility.yul\":1925:1926   */\n      0x00\n        /* \"#utility.yul\":1918:1933   */\n      revert\n        /* \"#utility.yul\":1945:2226   */\n    tag_114:\n        /* \"#utility.yul\":2028:2055   */\n      tag_193\n        /* \"#utility.yul\":2050:2054   */\n      dup3\n        /* \"#utility.yul\":2028:2055   */\n      tag_112\n      jump\t// in\n    tag_193:\n        /* \"#utility.yul\":2020:2026   */\n      dup2\n        /* \"#utility.yul\":2016:2056   */\n      add\n        /* \"#utility.yul\":2158:2164   */\n      dup2\n        /* \"#utility.yul\":2146:2156   */\n      dup2\n        /* \"#utility.yul\":2143:2165   */\n      lt\n        /* \"#utility.yul\":2122:2140   */\n      0xffffffffffffffff\n        /* \"#utility.yul\":2110:2120   */\n      dup3\n        /* \"#utility.yul\":2107:2141   */\n      gt\n        /* \"#utility.yul\":2104:2166   */\n      or\n        /* \"#utility.yul\":2101:2189   */\n      iszero\n      tag_194\n      jumpi\n        /* \"#utility.yul\":2169:2187   */\n      tag_195\n      tag_113\n      jump\t// in\n    tag_195:\n        /* \"#utility.yul\":2101:2189   */\n    tag_194:\n        /* \"#utility.yul\":2209:2219   */\n      dup1\n        /* \"#utility.yul\":2205:2207   */\n      0x40\n        /* \"#utility.yul\":2198:2220   */\n      mstore\n        /* \"#utility.yul\":1988:2226   */\n      pop\n        /* \"#utility.yul\":1945:2226   */\n      pop\n      pop\n      jump\t// out\n        /* \"#utility.yul\":2232:2361   */\n    tag_115:\n        /* \"#utility.yul\":2266:2272   */\n      0x00\n        /* \"#utility.yul\":2293:2313   */\n      tag_197\n      tag_103\n      jump\t// in\n    tag_197:\n        /* \"#utility.yul\":2283:2313   */\n      swap1\n      pop\n        /* \"#utility.yul\":2322:2355   */\n      tag_198\n        /* \"#utility.yul\":2350:2354   */\n      dup3\n        /* \"#utility.yul\":2342:2348   */\n      dup3\n        /* \"#utility.yul\":2322:2355   */\n      tag_114\n      jump\t// in\n    tag_198:\n        /* \"#utility.yul\":2232:2361   */\n      swap2\n      swap1\n      pop\n      jump\t// out\n        /* \"#utility.yul\":2367:2484   */\n    tag_116:\n        /* \"#utility.yul\":2476:2477   */\n      0x00\n        /* \"#utility.yul\":2473:2474   */\n      dup1\n        /* \"#utility.yul\":2466:2478   */\n      revert\n        /* \"#utility.yul\":2490:2567   */\n    tag_117:\n        /* \"#utility.yul\":2527:2534   */\n      0x00\n        /* \"#utility.yul\":2556:2561   */\n      dup2\n        /* \"#utility.yul\":2545:2561   */\n      swap1\n      pop\n        /* \"#utility.yul\":2490:2567   */\n      swap2\n      swap1\n      pop\n      jump\t// out\n        /* \"#utility.yul\":2573:2695   */\n    tag_118:\n        /* \"#utility.yul\":2646:2670   */\n      tag_202\n        /* \"#utility.yul\":2664:2669   */\n      dup2\n        /* \"#utility.yul\":2646:2670   */\n      tag_117\n      jump\t// in\n    tag_202:\n        /* \"#utility.yul\":2639:2644   */\n      dup2\n        /* \"#utility.yul\":2636:2671   */\n      eq\n        /* \"#utility.yul\":2626:2689   */\n      tag_203\n      jumpi\n        /* \"#utility.yul\":2685:2686   */\n      0x00\n        /* \"#utility.yul\":2682:2683   */\n      dup1\n        /* \"#utility.yul\":2675:2687   */\n      revert\n        /* \"#utility.yul\":2626:2689   */\n    tag_203:\n        /* \"#utility.yul\":2573:2695   */\n      pop\n      jump\t// out\n        /* \"#utility.yul\":2701:2840   */\n    tag_119:\n        /* \"#utility.yul\":2747:2752   */\n      0x00\n        /* \"#utility.yul\":2785:2791   */\n      dup2\n        /* \"#utility.yul\":2772:2792   */\n      calldataload\n        /* \"#utility.yul\":2763:2792   */\n      swap1\n      pop\n        /* \"#utility.yul\":2801:2834   */\n      tag_205\n        /* \"#utility.yul\":2828:2833   */\n      dup2\n        /* \"#utility.yul\":2801:2834   */\n      tag_118\n      jump\t// in\n    tag_205:\n        /* \"#utility.yul\":2701:2840   */\n      swap3\n      swap2\n      pop\n      pop\n      jump\t// out\n        /* \"#utility.yul\":2846:2963   */\n    tag_120:\n        /* \"#utility.yul\":2955:2956   */\n      0x00\n        /* \"#utility.yul\":2952:2953   */\n      dup1\n        /* \"#utility.yul\":2945:2957   */\n      revert\n        /* \"#utility.yul\":2969:3086   */\n    tag_121:\n        /* \"#utility.yul\":3078:3079   */\n      0x00\n        /* \"#utility.yul\":3075:3076   */\n      dup1\n        /* \"#utility.yul\":3068:3080   */\n      revert\n        /* \"#utility.yul\":3092:3400   */\n    tag_122:\n        /* \"#utility.yul\":3154:3158   */\n      0x00\n        /* \"#utility.yul\":3244:3262   */\n      0xffffffffffffffff\n        /* \"#utility.yul\":3236:3242   */\n      dup3\n        /* \"#utility.yul\":3233:3263   */\n      gt\n        /* \"#utility.yul\":3230:3286   */\n      iszero\n      tag_209\n      jumpi\n        /* \"#utility.yul\":3266:3284   */\n      tag_210\n      tag_113\n      jump\t// in\n    tag_210:\n        /* \"#utility.yul\":3230:3286   */\n    tag_209:\n        /* \"#utility.yul\":3304:3333   */\n      tag_211\n        /* \"#utility.yul\":3326:3332   */\n      dup3\n        /* \"#utility.yul\":3304:3333   */\n      tag_112\n      jump\t// in\n    tag_211:\n        /* \"#utility.yul\":3296:3333   */\n      swap1\n      pop\n        /* \"#utility.yul\":3388:3392   */\n      0x20\n        /* \"#utility.yul\":3382:3386   */\n      dup2\n        /* \"#utility.yul\":3378:3393   */\n      add\n        /* \"#utility.yul\":3370:3393   */\n      swap1\n      pop\n        /* \"#utility.yul\":3092:3400   */\n      swap2\n      swap1\n      pop\n      jump\t// out\n        /* \"#utility.yul\":3406:3552   */\n    tag_123:\n        /* \"#utility.yul\":3503:3509   */\n      dup3\n        /* \"#utility.yul\":3498:3501   */\n      dup2\n        /* \"#utility.yul\":3493:3496   */\n      dup4\n        /* \"#utility.yul\":3480:3510   */\n      calldatacopy\n        /* \"#utility.yul\":3544:3545   */\n      0x00\n        /* \"#utility.yul\":3535:3541   */\n      dup4\n        /* \"#utility.yul\":3530:3533   */\n      dup4\n        /* \"#utility.yul\":3526:3542   */\n      add\n        /* \"#utility.yul\":3519:3546   */\n      mstore\n        /* \"#utility.yul\":3406:3552   */\n      pop\n      pop\n      pop\n      jump\t// out\n        /* \"#utility.yul\":3558:3983   */\n    tag_124:\n        /* \"#utility.yul\":3636:3641   */\n      0x00\n        /* \"#utility.yul\":3661:3727   */\n      tag_214\n        /* \"#utility.yul\":3677:3726   */\n      tag_215\n        /* \"#utility.yul\":3719:3725   */\n      dup5\n        /* \"#utility.yul\":3677:3726   */\n      tag_122\n      jump\t// in\n    tag_215:\n        /* \"#utility.yul\":3661:3727   */\n      tag_115\n      jump\t// in\n    tag_214:\n        /* \"#utility.yul\":3652:3727   */\n      swap1\n      pop\n        /* \"#utility.yul\":3750:3756   */\n      dup3\n        /* \"#utility.yul\":3743:3748   */\n      dup2\n        /* \"#utility.yul\":3736:3757   */\n      mstore\n        /* \"#utility.yul\":3788:3792   */\n      0x20\n        /* \"#utility.yul\":3781:3786   */\n      dup2\n        /* \"#utility.yul\":3777:3793   */\n      add\n        /* \"#utility.yul\":3826:3829   */\n      dup5\n        /* \"#utility.yul\":3817:3823   */\n      dup5\n        /* \"#utility.yul\":3812:3815   */\n      dup5\n        /* \"#utility.yul\":3808:3824   */\n      add\n        /* \"#utility.yul\":3805:3830   */\n      gt\n        /* \"#utility.yul\":3802:3914   */\n      iszero\n      tag_216\n      jumpi\n        /* \"#utility.yul\":3833:3912   */\n      tag_217\n      tag_121\n      jump\t// in\n    tag_217:\n        /* \"#utility.yul\":3802:3914   */\n    tag_216:\n        /* \"#utility.yul\":3923:3977   */\n      tag_218\n        /* \"#utility.yul\":3970:3976   */\n      dup5\n        /* \"#utility.yul\":3965:3968   */\n      dup3\n        /* \"#utility.yul\":3960:3963   */\n      dup6\n        /* \"#utility.yul\":3923:3977   */\n      tag_123\n      jump\t// in\n    tag_218:\n        /* \"#utility.yul\":3642:3983   */\n      pop\n        /* \"#utility.yul\":3558:3983   */\n      swap4\n      swap3\n      pop\n      pop\n      pop\n      jump\t// out\n        /* \"#utility.yul\":4003:4343   */\n    tag_125:\n        /* \"#utility.yul\":4059:4064   */\n      0x00\n        /* \"#utility.yul\":4108:4111   */\n      dup3\n        /* \"#utility.yul\":4101:4105   */\n      0x1f\n        /* \"#utility.yul\":4093:4099   */\n      dup4\n        /* \"#utility.yul\":4089:4106   */\n      add\n        /* \"#utility.yul\":4085:4112   */\n      slt\n        /* \"#utility.yul\":4075:4197   */\n      tag_220\n      jumpi\n        /* \"#utility.yul\":4116:4195   */\n      tag_221\n      tag_120\n      jump\t// in\n    tag_221:\n        /* \"#utility.yul\":4075:4197   */\n    tag_220:\n        /* \"#utility.yul\":4233:4239   */\n      dup2\n        /* \"#utility.yul\":4220:4240   */\n      calldataload\n        /* \"#utility.yul\":4258:4337   */\n      tag_222\n        /* \"#utility.yul\":4333:4336   */\n      dup5\n        /* \"#utility.yul\":4325:4331   */\n      dup3\n        /* \"#utility.yul\":4318:4322   */\n      0x20\n        /* \"#utility.yul\":4310:4316   */\n      dup7\n        /* \"#utility.yul\":4306:4323   */\n      add\n        /* \"#utility.yul\":4258:4337   */\n      tag_124\n      jump\t// in\n    tag_222:\n        /* \"#utility.yul\":4249:4337   */\n      swap2\n      pop\n        /* \"#utility.yul\":4065:4343   */\n      pop\n        /* \"#utility.yul\":4003:4343   */\n      swap3\n      swap2\n      pop\n      pop\n      jump\t// out\n        /* \"#utility.yul\":4349:4439   */\n    tag_126:\n        /* \"#utility.yul\":4383:4390   */\n      0x00\n        /* \"#utility.yul\":4426:4431   */\n      dup2\n        /* \"#utility.yul\":4419:4432   */\n      iszero\n        /* \"#utility.yul\":4412:4433   */\n      iszero\n        /* \"#utility.yul\":4401:4433   */\n      swap1\n      pop\n        /* \"#utility.yul\":4349:4439   */\n      swap2\n      swap1\n      pop\n      jump\t// out\n        /* \"#utility.yul\":4445:4561   */\n    tag_127:\n        /* \"#utility.yul\":4515:4536   */\n      tag_225\n        /* \"#utility.yul\":4530:4535   */\n      dup2\n        /* \"#utility.yul\":4515:4536   */\n      tag_126\n      jump\t// in\n    tag_225:\n        /* \"#utility.yul\":4508:4513   */\n      dup2\n        /* \"#utility.yul\":4505:4537   */\n      eq\n        /* \"#utility.yul\":4495:4555   */\n      tag_226\n      jumpi\n        /* \"#utility.yul\":4551:4552   */\n      0x00\n        /* \"#utility.yul\":4548:4549   */\n      dup1\n        /* \"#utility.yul\":4541:4553   */\n      revert\n        /* \"#utility.yul\":4495:4555   */\n    tag_226:\n        /* \"#utility.yul\":4445:4561   */\n      pop\n      jump\t// out\n        /* \"#utility.yul\":4567:4700   */\n    tag_128:\n        /* \"#utility.yul\":4610:4615   */\n      0x00\n        /* \"#utility.yul\":4648:4654   */\n      dup2\n        /* \"#utility.yul\":4635:4655   */\n      calldataload\n        /* \"#utility.yul\":4626:4655   */\n      swap1\n      pop\n        /* \"#utility.yul\":4664:4694   */\n      tag_228\n        /* \"#utility.yul\":4688:4693   */\n      dup2\n        /* \"#utility.yul\":4664:4694   */\n      tag_127\n      jump\t// in\n    tag_228:\n        /* \"#utility.yul\":4567:4700   */\n      swap3\n      swap2\n      pop\n      pop\n      jump\t// out\n        /* \"#utility.yul\":4726:6150   */\n    tag_129:\n        /* \"#utility.yul\":4797:4802   */\n      0x00\n        /* \"#utility.yul\":4841:4845   */\n      0xa0\n        /* \"#utility.yul\":4829:4838   */\n      dup3\n        /* \"#utility.yul\":4824:4827   */\n      dup5\n        /* \"#utility.yul\":4820:4839   */\n      sub\n        /* \"#utility.yul\":4816:4846   */\n      slt\n        /* \"#utility.yul\":4813:4930   */\n      iszero\n      tag_230\n      jumpi\n        /* \"#utility.yul\":4849:4928   */\n      tag_231\n      tag_111\n      jump\t// in\n    tag_231:\n        /* \"#utility.yul\":4813:4930   */\n    tag_230:\n        /* \"#utility.yul\":4948:4969   */\n      tag_232\n        /* \"#utility.yul\":4964:4968   */\n      0xa0\n        /* \"#utility.yul\":4948:4969   */\n      tag_115\n      jump\t// in\n    tag_232:\n        /* \"#utility.yul\":4939:4969   */\n      swap1\n      pop\n        /* \"#utility.yul\":5031:5032   */\n      0x00\n        /* \"#utility.yul\":5071:5120   */\n      tag_233\n        /* \"#utility.yul\":5116:5119   */\n      dup5\n        /* \"#utility.yul\":5107:5113   */\n      dup3\n        /* \"#utility.yul\":5096:5105   */\n      dup6\n        /* \"#utility.yul\":5092:5114   */\n      add\n        /* \"#utility.yul\":5071:5120   */\n      tag_119\n      jump\t// in\n    tag_233:\n        /* \"#utility.yul\":5064:5068   */\n      0x00\n        /* \"#utility.yul\":5057:5062   */\n      dup4\n        /* \"#utility.yul\":5053:5069   */\n      add\n        /* \"#utility.yul\":5046:5121   */\n      mstore\n        /* \"#utility.yul\":4979:5132   */\n      pop\n        /* \"#utility.yul\":5224:5226   */\n      0x20\n        /* \"#utility.yul\":5213:5222   */\n      dup3\n        /* \"#utility.yul\":5209:5227   */\n      add\n        /* \"#utility.yul\":5196:5228   */\n      calldataload\n        /* \"#utility.yul\":5255:5273   */\n      0xffffffffffffffff\n        /* \"#utility.yul\":5247:5253   */\n      dup2\n        /* \"#utility.yul\":5244:5274   */\n      gt\n        /* \"#utility.yul\":5241:5358   */\n      iszero\n      tag_234\n      jumpi\n        /* \"#utility.yul\":5277:5356   */\n      tag_235\n      tag_116\n      jump\t// in\n    tag_235:\n        /* \"#utility.yul\":5241:5358   */\n    tag_234:\n        /* \"#utility.yul\":5397:5456   */\n      tag_236\n        /* \"#utility.yul\":5452:5455   */\n      dup5\n        /* \"#utility.yul\":5443:5449   */\n      dup3\n        /* \"#utility.yul\":5432:5441   */\n      dup6\n        /* \"#utility.yul\":5428:5450   */\n      add\n        /* \"#utility.yul\":5397:5456   */\n      tag_125\n      jump\t// in\n    tag_236:\n        /* \"#utility.yul\":5390:5394   */\n      0x20\n        /* \"#utility.yul\":5383:5388   */\n      dup4\n        /* \"#utility.yul\":5379:5395   */\n      add\n        /* \"#utility.yul\":5372:5457   */\n      mstore\n        /* \"#utility.yul\":5142:5468   */\n      pop\n        /* \"#utility.yul\":5535:5537   */\n      0x40\n        /* \"#utility.yul\":5576:5625   */\n      tag_237\n        /* \"#utility.yul\":5621:5624   */\n      dup5\n        /* \"#utility.yul\":5612:5618   */\n      dup3\n        /* \"#utility.yul\":5601:5610   */\n      dup6\n        /* \"#utility.yul\":5597:5619   */\n      add\n        /* \"#utility.yul\":5576:5625   */\n      tag_119\n      jump\t// in\n    tag_237:\n        /* \"#utility.yul\":5569:5573   */\n      0x40\n        /* \"#utility.yul\":5562:5567   */\n      dup4\n        /* \"#utility.yul\":5558:5574   */\n      add\n        /* \"#utility.yul\":5551:5626   */\n      mstore\n        /* \"#utility.yul\":5478:5637   */\n      pop\n        /* \"#utility.yul\":5730:5732   */\n      0x60\n        /* \"#utility.yul\":5719:5728   */\n      dup3\n        /* \"#utility.yul\":5715:5733   */\n      add\n        /* \"#utility.yul\":5702:5734   */\n      calldataload\n        /* \"#utility.yul\":5761:5779   */\n      0xffffffffffffffff\n        /* \"#utility.yul\":5753:5759   */\n      dup2\n        /* \"#utility.yul\":5750:5780   */\n      gt\n        /* \"#utility.yul\":5747:5864   */\n      iszero\n      tag_238\n      jumpi\n        /* \"#utility.yul\":5783:5862   */\n      tag_239\n      tag_116\n      jump\t// in\n    tag_239:\n        /* \"#utility.yul\":5747:5864   */\n    tag_238:\n        /* \"#utility.yul\":5903:5962   */\n      tag_240\n        /* \"#utility.yul\":5958:5961   */\n      dup5\n        /* \"#utility.yul\":5949:5955   */\n      dup3\n        /* \"#utility.yul\":5938:5947   */\n      dup6\n        /* \"#utility.yul\":5934:5956   */\n      add\n        /* \"#utility.yul\":5903:5962   */\n      tag_125\n      jump\t// in\n    tag_240:\n        /* \"#utility.yul\":5896:5900   */\n      0x60\n        /* \"#utility.yul\":5889:5894   */\n      dup4\n        /* \"#utility.yul\":5885:5901   */\n      add\n        /* \"#utility.yul\":5878:5963   */\n      mstore\n        /* \"#utility.yul\":5647:5974   */\n      pop\n        /* \"#utility.yul\":6043:6046   */\n      0x80\n        /* \"#utility.yul\":6085:6131   */\n      tag_241\n        /* \"#utility.yul\":6127:6130   */\n      dup5\n        /* \"#utility.yul\":6118:6124   */\n      dup3\n        /* \"#utility.yul\":6107:6116   */\n      dup6\n        /* \"#utility.yul\":6103:6125   */\n      add\n        /* \"#utility.yul\":6085:6131   */\n      tag_128\n      jump\t// in\n    tag_241:\n        /* \"#utility.yul\":6078:6082   */\n      0x80\n        /* \"#utility.yul\":6071:6076   */\n      dup4\n        /* \"#utility.yul\":6067:6083   */\n      add\n        /* \"#utility.yul\":6060:6132   */\n      mstore\n        /* \"#utility.yul\":5984:6143   */\n      pop\n        /* \"#utility.yul\":4726:6150   */\n      swap3\n      swap2\n      pop\n      pop\n      jump\t// out\n        /* \"#utility.yul\":6156:6689   */\n    tag_23:\n        /* \"#utility.yul\":6237:6243   */\n      0x00\n        /* \"#utility.yul\":6286:6288   */\n      0x20\n        /* \"#utility.yul\":6274:6283   */\n      dup3\n        /* \"#utility.yul\":6265:6272   */\n      dup5\n        /* \"#utility.yul\":6261:6284   */\n      sub\n        /* \"#utility.yul\":6257:6289   */\n      slt\n        /* \"#utility.yul\":6254:6373   */\n      iszero\n      tag_243\n      jumpi\n        /* \"#utility.yul\":6292:6371   */\n      tag_244\n      tag_104\n      jump\t// in\n    tag_244:\n        /* \"#utility.yul\":6254:6373   */\n    tag_243:\n        /* \"#utility.yul\":6440:6441   */\n      0x00\n        /* \"#utility.yul\":6429:6438   */\n      dup3\n        /* \"#utility.yul\":6425:6442   */\n      add\n        /* \"#utility.yul\":6412:6443   */\n      calldataload\n        /* \"#utility.yul\":6470:6488   */\n      0xffffffffffffffff\n        /* \"#utility.yul\":6462:6468   */\n      dup2\n        /* \"#utility.yul\":6459:6489   */\n      gt\n        /* \"#utility.yul\":6456:6573   */\n      iszero\n      tag_245\n      jumpi\n        /* \"#utility.yul\":6492:6571   */\n      tag_246\n      tag_105\n      jump\t// in\n    tag_246:\n        /* \"#utility.yul\":6456:6573   */\n    tag_245:\n        /* \"#utility.yul\":6597:6672   */\n      tag_247\n        /* \"#utility.yul\":6664:6671   */\n      dup5\n        /* \"#utility.yul\":6655:6661   */\n      dup3\n        /* \"#utility.yul\":6644:6653   */\n      dup6\n        /* \"#utility.yul\":6640:6662   */\n      add\n        /* \"#utility.yul\":6597:6672   */\n      tag_129\n      jump\t// in\n    tag_247:\n        /* \"#utility.yul\":6587:6672   */\n      swap2\n      pop\n        /* \"#utility.yul\":6383:6682   */\n      pop\n        /* \"#utility.yul\":6156:6689   */\n      swap3\n      swap2\n      pop\n      pop\n      jump\t// out\n        /* \"#utility.yul\":6695:6831   */\n    tag_130:\n        /* \"#utility.yul\":6784:6790   */\n      0x00\n        /* \"#utility.yul\":6818:6823   */\n      dup2\n        /* \"#utility.yul\":6812:6824   */\n      mload\n        /* \"#utility.yul\":6802:6824   */\n      swap1\n      pop\n        /* \"#utility.yul\":6695:6831   */\n      swap2\n      swap1\n      pop\n      jump\t// out\n        /* \"#utility.yul\":6837:7043   */\n    tag_131:\n        /* \"#utility.yul\":6958:6969   */\n      0x00\n        /* \"#utility.yul\":6992:6998   */\n      dup3\n        /* \"#utility.yul\":6987:6990   */\n      dup3\n        /* \"#utility.yul\":6980:6999   */\n      mstore\n        /* \"#utility.yul\":7032:7036   */\n      0x20\n        /* \"#utility.yul\":7027:7030   */\n      dup3\n        /* \"#utility.yul\":7023:7037   */\n      add\n        /* \"#utility.yul\":7008:7037   */\n      swap1\n      pop\n        /* \"#utility.yul\":6837:7043   */\n      swap3\n      swap2\n      pop\n      pop\n      jump\t// out\n        /* \"#utility.yul\":7049:7203   */\n    tag_132:\n        /* \"#utility.yul\":7138:7142   */\n      0x00\n        /* \"#utility.yul\":7161:7164   */\n      dup2\n        /* \"#utility.yul\":7153:7164   */\n      swap1\n      pop\n        /* \"#utility.yul\":7191:7195   */\n      0x20\n        /* \"#utility.yul\":7186:7189   */\n      dup3\n        /* \"#utility.yul\":7182:7196   */\n      add\n        /* \"#utility.yul\":7174:7196   */\n      swap1\n      pop\n        /* \"#utility.yul\":7049:7203   */\n      swap2\n      swap1\n      pop\n      jump\t// out\n        /* \"#utility.yul\":7209:7317   */\n    tag_133:\n        /* \"#utility.yul\":7286:7310   */\n      tag_252\n        /* \"#utility.yul\":7304:7309   */\n      dup2\n        /* \"#utility.yul\":7286:7310   */\n      tag_117\n      jump\t// in\n    tag_252:\n        /* \"#utility.yul\":7281:7284   */\n      dup3\n        /* \"#utility.yul\":7274:7311   */\n      mstore\n        /* \"#utility.yul\":7209:7317   */\n      pop\n      pop\n      jump\t// out\n        /* \"#utility.yul\":7323:7422   */\n    tag_134:\n        /* \"#utility.yul\":7375:7381   */\n      0x00\n        /* \"#utility.yul\":7409:7414   */\n      dup2\n        /* \"#utility.yul\":7403:7415   */\n      mload\n        /* \"#utility.yul\":7393:7415   */\n      swap1\n      pop\n        /* \"#utility.yul\":7323:7422   */\n      swap2\n      swap1\n      pop\n      jump\t// out\n        /* \"#utility.yul\":7428:7587   */\n    tag_135:\n        /* \"#utility.yul\":7502:7513   */\n      0x00\n        /* \"#utility.yul\":7536:7542   */\n      dup3\n        /* \"#utility.yul\":7531:7534   */\n      dup3\n        /* \"#utility.yul\":7524:7543   */\n      mstore\n        /* \"#utility.yul\":7576:7580   */\n      0x20\n        /* \"#utility.yul\":7571:7574   */\n      dup3\n        /* \"#utility.yul\":7567:7581   */\n      add\n        /* \"#utility.yul\":7552:7581   */\n      swap1\n      pop\n        /* \"#utility.yul\":7428:7587   */\n      swap3\n      swap2\n      pop\n      pop\n      jump\t// out\n        /* \"#utility.yul\":7593:7839   */\n    tag_136:\n        /* \"#utility.yul\":7674:7675   */\n      0x00\n        /* \"#utility.yul\":7684:7797   */\n    tag_256:\n        /* \"#utility.yul\":7698:7704   */\n      dup4\n        /* \"#utility.yul\":7695:7696   */\n      dup2\n        /* \"#utility.yul\":7692:7705   */\n      lt\n        /* \"#utility.yul\":7684:7797   */\n      iszero\n      tag_258\n      jumpi\n        /* \"#utility.yul\":7783:7784   */\n      dup1\n        /* \"#utility.yul\":7778:7781   */\n      dup3\n        /* \"#utility.yul\":7774:7785   */\n      add\n        /* \"#utility.yul\":7768:7786   */\n      mload\n        /* \"#utility.yul\":7764:7765   */\n      dup2\n        /* \"#utility.yul\":7759:7762   */\n      dup5\n        /* \"#utility.yul\":7755:7766   */\n      add\n        /* \"#utility.yul\":7748:7787   */\n      mstore\n        /* \"#utility.yul\":7720:7722   */\n      0x20\n        /* \"#utility.yul\":7717:7718   */\n      dup2\n        /* \"#utility.yul\":7713:7723   */\n      add\n        /* \"#utility.yul\":7708:7723   */\n      swap1\n      pop\n        /* \"#utility.yul\":7684:7797   */\n      jump(tag_256)\n    tag_258:\n        /* \"#utility.yul\":7831:7832   */\n      0x00\n        /* \"#utility.yul\":7822:7828   */\n      dup5\n        /* \"#utility.yul\":7817:7820   */\n      dup5\n        /* \"#utility.yul\":7813:7829   */\n      add\n        /* \"#utility.yul\":7806:7833   */\n      mstore\n        /* \"#utility.yul\":7655:7839   */\n      pop\n        /* \"#utility.yul\":7593:7839   */\n      pop\n      pop\n      pop\n      jump\t// out\n        /* \"#utility.yul\":7845:8202   */\n    tag_137:\n        /* \"#utility.yul\":7923:7926   */\n      0x00\n        /* \"#utility.yul\":7951:7990   */\n      tag_260\n        /* \"#utility.yul\":7984:7989   */\n      dup3\n        /* \"#utility.yul\":7951:7990   */\n      tag_134\n      jump\t// in\n    tag_260:\n        /* \"#utility.yul\":8006:8067   */\n      tag_261\n        /* \"#utility.yul\":8060:8066   */\n      dup2\n        /* \"#utility.yul\":8055:8058   */\n      dup6\n        /* \"#utility.yul\":8006:8067   */\n      tag_135\n      jump\t// in\n    tag_261:\n        /* \"#utility.yul\":7999:8067   */\n      swap4\n      pop\n        /* \"#utility.yul\":8076:8141   */\n      tag_262\n        /* \"#utility.yul\":8134:8140   */\n      dup2\n        /* \"#utility.yul\":8129:8132   */\n      dup6\n        /* \"#utility.yul\":8122:8126   */\n      0x20\n        /* \"#utility.yul\":8115:8120   */\n      dup7\n        /* \"#utility.yul\":8111:8127   */\n      add\n        /* \"#utility.yul\":8076:8141   */\n      tag_136\n      jump\t// in\n    tag_262:\n        /* \"#utility.yul\":8166:8195   */\n      tag_263\n        /* \"#utility.yul\":8188:8194   */\n      dup2\n        /* \"#utility.yul\":8166:8195   */\n      tag_112\n      jump\t// in\n    tag_263:\n        /* \"#utility.yul\":8161:8164   */\n      dup5\n        /* \"#utility.yul\":8157:8196   */\n      add\n        /* \"#utility.yul\":8150:8196   */\n      swap2\n      pop\n        /* \"#utility.yul\":7927:8202   */\n      pop\n        /* \"#utility.yul\":7845:8202   */\n      swap3\n      swap2\n      pop\n      pop\n      jump\t// out\n        /* \"#utility.yul\":8208:8307   */\n    tag_138:\n        /* \"#utility.yul\":8279:8300   */\n      tag_265\n        /* \"#utility.yul\":8294:8299   */\n      dup2\n        /* \"#utility.yul\":8279:8300   */\n      tag_126\n      jump\t// in\n    tag_265:\n        /* \"#utility.yul\":8274:8277   */\n      dup3\n        /* \"#utility.yul\":8267:8301   */\n      mstore\n        /* \"#utility.yul\":8208:8307   */\n      pop\n      pop\n      jump\t// out\n        /* \"#utility.yul\":8349:9558   */\n    tag_139:\n        /* \"#utility.yul\":8452:8455   */\n      0x00\n        /* \"#utility.yul\":8488:8492   */\n      0xa0\n        /* \"#utility.yul\":8483:8486   */\n      dup4\n        /* \"#utility.yul\":8479:8493   */\n      add\n        /* \"#utility.yul\":8578:8582   */\n      0x00\n        /* \"#utility.yul\":8571:8576   */\n      dup4\n        /* \"#utility.yul\":8567:8583   */\n      add\n        /* \"#utility.yul\":8561:8584   */\n      mload\n        /* \"#utility.yul\":8597:8660   */\n      tag_267\n        /* \"#utility.yul\":8654:8658   */\n      0x00\n        /* \"#utility.yul\":8649:8652   */\n      dup7\n        /* \"#utility.yul\":8645:8659   */\n      add\n        /* \"#utility.yul\":8631:8643   */\n      dup3\n        /* \"#utility.yul\":8597:8660   */\n      tag_133\n      jump\t// in\n    tag_267:\n        /* \"#utility.yul\":8503:8670   */\n      pop\n        /* \"#utility.yul\":8757:8761   */\n      0x20\n        /* \"#utility.yul\":8750:8755   */\n      dup4\n        /* \"#utility.yul\":8746:8762   */\n      add\n        /* \"#utility.yul\":8740:8763   */\n      mload\n        /* \"#utility.yul\":8810:8813   */\n      dup5\n        /* \"#utility.yul\":8804:8808   */\n      dup3\n        /* \"#utility.yul\":8800:8814   */\n      sub\n        /* \"#utility.yul\":8793:8797   */\n      0x20\n        /* \"#utility.yul\":8788:8791   */\n      dup7\n        /* \"#utility.yul\":8784:8798   */\n      add\n        /* \"#utility.yul\":8777:8815   */\n      mstore\n        /* \"#utility.yul\":8836:8909   */\n      tag_268\n        /* \"#utility.yul\":8904:8908   */\n      dup3\n        /* \"#utility.yul\":8890:8902   */\n      dup3\n        /* \"#utility.yul\":8836:8909   */\n      tag_137\n      jump\t// in\n    tag_268:\n        /* \"#utility.yul\":8828:8909   */\n      swap2\n      pop\n        /* \"#utility.yul\":8680:8920   */\n      pop\n        /* \"#utility.yul\":9010:9014   */\n      0x40\n        /* \"#utility.yul\":9003:9008   */\n      dup4\n        /* \"#utility.yul\":8999:9015   */\n      add\n        /* \"#utility.yul\":8993:9016   */\n      mload\n        /* \"#utility.yul\":9029:9092   */\n      tag_269\n        /* \"#utility.yul\":9086:9090   */\n      0x40\n        /* \"#utility.yul\":9081:9084   */\n      dup7\n        /* \"#utility.yul\":9077:9091   */\n      add\n        /* \"#utility.yul\":9063:9075   */\n      dup3\n        /* \"#utility.yul\":9029:9092   */\n      tag_133\n      jump\t// in\n    tag_269:\n        /* \"#utility.yul\":8930:9102   */\n      pop\n        /* \"#utility.yul\":9190:9194   */\n      0x60\n        /* \"#utility.yul\":9183:9188   */\n      dup4\n        /* \"#utility.yul\":9179:9195   */\n      add\n        /* \"#utility.yul\":9173:9196   */\n      mload\n        /* \"#utility.yul\":9243:9246   */\n      dup5\n        /* \"#utility.yul\":9237:9241   */\n      dup3\n        /* \"#utility.yul\":9233:9247   */\n      sub\n        /* \"#utility.yul\":9226:9230   */\n      0x60\n        /* \"#utility.yul\":9221:9224   */\n      dup7\n        /* \"#utility.yul\":9217:9231   */\n      add\n        /* \"#utility.yul\":9210:9248   */\n      mstore\n        /* \"#utility.yul\":9269:9342   */\n      tag_270\n        /* \"#utility.yul\":9337:9341   */\n      dup3\n        /* \"#utility.yul\":9323:9335   */\n      dup3\n        /* \"#utility.yul\":9269:9342   */\n      tag_137\n      jump\t// in\n    tag_270:\n        /* \"#utility.yul\":9261:9342   */\n      swap2\n      pop\n        /* \"#utility.yul\":9112:9353   */\n      pop\n        /* \"#utility.yul\":9445:9449   */\n      0x80\n        /* \"#utility.yul\":9438:9443   */\n      dup4\n        /* \"#utility.yul\":9434:9450   */\n      add\n        /* \"#utility.yul\":9428:9451   */\n      mload\n        /* \"#utility.yul\":9464:9521   */\n      tag_271\n        /* \"#utility.yul\":9515:9519   */\n      0x80\n        /* \"#utility.yul\":9510:9513   */\n      dup7\n        /* \"#utility.yul\":9506:9520   */\n      add\n        /* \"#utility.yul\":9492:9504   */\n      dup3\n        /* \"#utility.yul\":9464:9521   */\n      tag_138\n      jump\t// in\n    tag_271:\n        /* \"#utility.yul\":9363:9531   */\n      pop\n        /* \"#utility.yul\":9548:9552   */\n      dup1\n        /* \"#utility.yul\":9541:9552   */\n      swap2\n      pop\n        /* \"#utility.yul\":8457:9558   */\n      pop\n        /* \"#utility.yul\":8349:9558   */\n      swap3\n      swap2\n      pop\n      pop\n      jump\t// out\n        /* \"#utility.yul\":9564:9808   */\n    tag_140:\n        /* \"#utility.yul\":9677:9687   */\n      0x00\n        /* \"#utility.yul\":9712:9802   */\n      tag_273\n        /* \"#utility.yul\":9798:9801   */\n      dup4\n        /* \"#utility.yul\":9790:9796   */\n      dup4\n        /* \"#utility.yul\":9712:9802   */\n      tag_139\n      jump\t// in\n    tag_273:\n        /* \"#utility.yul\":9698:9802   */\n      swap1\n      pop\n        /* \"#utility.yul\":9564:9808   */\n      swap3\n      swap2\n      pop\n      pop\n      jump\t// out\n        /* \"#utility.yul\":9814:9949   */\n    tag_141:\n        /* \"#utility.yul\":9906:9910   */\n      0x00\n        /* \"#utility.yul\":9938:9942   */\n      0x20\n        /* \"#utility.yul\":9933:9936   */\n      dup3\n        /* \"#utility.yul\":9929:9943   */\n      add\n        /* \"#utility.yul\":9921:9943   */\n      swap1\n      pop\n        /* \"#utility.yul\":9814:9949   */\n      swap2\n      swap1\n      pop\n      jump\t// out\n        /* \"#utility.yul\":9995:11082   */\n    tag_142:\n        /* \"#utility.yul\":10158:10161   */\n      0x00\n        /* \"#utility.yul\":10187:10263   */\n      tag_276\n        /* \"#utility.yul\":10257:10262   */\n      dup3\n        /* \"#utility.yul\":10187:10263   */\n      tag_130\n      jump\t// in\n    tag_276:\n        /* \"#utility.yul\":10279:10387   */\n      tag_277\n        /* \"#utility.yul\":10380:10386   */\n      dup2\n        /* \"#utility.yul\":10375:10378   */\n      dup6\n        /* \"#utility.yul\":10279:10387   */\n      tag_131\n      jump\t// in\n    tag_277:\n        /* \"#utility.yul\":10272:10387   */\n      swap4\n      pop\n        /* \"#utility.yul\":10413:10416   */\n      dup4\n        /* \"#utility.yul\":10458:10462   */\n      0x20\n        /* \"#utility.yul\":10450:10456   */\n      dup3\n        /* \"#utility.yul\":10446:10463   */\n      mul\n        /* \"#utility.yul\":10441:10444   */\n      dup6\n        /* \"#utility.yul\":10437:10464   */\n      add\n        /* \"#utility.yul\":10488:10566   */\n      tag_278\n        /* \"#utility.yul\":10560:10565   */\n      dup6\n        /* \"#utility.yul\":10488:10566   */\n      tag_132\n      jump\t// in\n    tag_278:\n        /* \"#utility.yul\":10589:10596   */\n      dup1\n        /* \"#utility.yul\":10620:10621   */\n      0x00\n        /* \"#utility.yul\":10605:11037   */\n    tag_279:\n        /* \"#utility.yul\":10630:10636   */\n      dup6\n        /* \"#utility.yul\":10627:10628   */\n      dup2\n        /* \"#utility.yul\":10624:10637   */\n      lt\n        /* \"#utility.yul\":10605:11037   */\n      iszero\n      tag_281\n      jumpi\n        /* \"#utility.yul\":10701:10710   */\n      dup5\n        /* \"#utility.yul\":10695:10699   */\n      dup5\n        /* \"#utility.yul\":10691:10711   */\n      sub\n        /* \"#utility.yul\":10686:10689   */\n      dup10\n        /* \"#utility.yul\":10679:10712   */\n      mstore\n        /* \"#utility.yul\":10752:10758   */\n      dup2\n        /* \"#utility.yul\":10746:10759   */\n      mload\n        /* \"#utility.yul\":10780:10888   */\n      tag_282\n        /* \"#utility.yul\":10883:10887   */\n      dup6\n        /* \"#utility.yul\":10868:10881   */\n      dup3\n        /* \"#utility.yul\":10780:10888   */\n      tag_140\n      jump\t// in\n    tag_282:\n        /* \"#utility.yul\":10772:10888   */\n      swap5\n      pop\n        /* \"#utility.yul\":10911:10993   */\n      tag_283\n        /* \"#utility.yul\":10986:10992   */\n      dup4\n        /* \"#utility.yul\":10911:10993   */\n      tag_141\n      jump\t// in\n    tag_283:\n        /* \"#utility.yul\":10901:10993   */\n      swap3\n      pop\n        /* \"#utility.yul\":11022:11026   */\n      0x20\n        /* \"#utility.yul\":11017:11020   */\n      dup11\n        /* \"#utility.yul\":11013:11027   */\n      add\n        /* \"#utility.yul\":11006:11027   */\n      swap10\n      pop\n        /* \"#utility.yul\":10665:11037   */\n      pop\n        /* \"#utility.yul\":10652:10653   */\n      0x01\n        /* \"#utility.yul\":10649:10650   */\n      dup2\n        /* \"#utility.yul\":10645:10654   */\n      add\n        /* \"#utility.yul\":10640:10654   */\n      swap1\n      pop\n        /* \"#utility.yul\":10605:11037   */\n      jump(tag_279)\n    tag_281:\n        /* \"#utility.yul\":10609:10623   */\n      pop\n        /* \"#utility.yul\":11053:11057   */\n      dup3\n        /* \"#utility.yul\":11046:11057   */\n      swap8\n      pop\n        /* \"#utility.yul\":11073:11076   */\n      dup8\n        /* \"#utility.yul\":11066:11076   */\n      swap6\n      pop\n        /* \"#utility.yul\":10163:11082   */\n      pop\n      pop\n      pop\n      pop\n      pop\n        /* \"#utility.yul\":9995:11082   */\n      swap3\n      swap2\n      pop\n      pop\n      jump\t// out\n        /* \"#utility.yul\":11088:11549   */\n    tag_28:\n        /* \"#utility.yul\":11275:11279   */\n      0x00\n        /* \"#utility.yul\":11313:11315   */\n      0x20\n        /* \"#utility.yul\":11302:11311   */\n      dup3\n        /* \"#utility.yul\":11298:11316   */\n      add\n        /* \"#utility.yul\":11290:11316   */\n      swap1\n      pop\n        /* \"#utility.yul\":11362:11371   */\n      dup2\n        /* \"#utility.yul\":11356:11360   */\n      dup2\n        /* \"#utility.yul\":11352:11372   */\n      sub\n        /* \"#utility.yul\":11348:11349   */\n      0x00\n        /* \"#utility.yul\":11337:11346   */\n      dup4\n        /* \"#utility.yul\":11333:11350   */\n      add\n        /* \"#utility.yul\":11326:11373   */\n      mstore\n        /* \"#utility.yul\":11390:11542   */\n      tag_285\n        /* \"#utility.yul\":11537:11541   */\n      dup2\n        /* \"#utility.yul\":11528:11534   */\n      dup5\n        /* \"#utility.yul\":11390:11542   */\n      tag_142\n      jump\t// in\n    tag_285:\n        /* \"#utility.yul\":11382:11542   */\n      swap1\n      pop\n        /* \"#utility.yul\":11088:11549   */\n      swap3\n      swap2\n      pop\n      pop\n      jump\t// out\n        /* \"#utility.yul\":11555:11884   */\n    tag_31:\n        /* \"#utility.yul\":11614:11620   */\n      0x00\n        /* \"#utility.yul\":11663:11665   */\n      0x20\n        /* \"#utility.yul\":11651:11660   */\n      dup3\n        /* \"#utility.yul\":11642:11649   */\n      dup5\n        /* \"#utility.yul\":11638:11661   */\n      sub\n        /* \"#utility.yul\":11634:11666   */\n      slt\n        /* \"#utility.yul\":11631:11750   */\n      iszero\n      tag_287\n      jumpi\n        /* \"#utility.yul\":11669:11748   */\n      tag_288\n      tag_104\n      jump\t// in\n    tag_288:\n        /* \"#utility.yul\":11631:11750   */\n    tag_287:\n        /* \"#utility.yul\":11789:11790   */\n      0x00\n        /* \"#utility.yul\":11814:11867   */\n      tag_289\n        /* \"#utility.yul\":11859:11866   */\n      dup5\n        /* \"#utility.yul\":11850:11856   */\n      dup3\n        /* \"#utility.yul\":11839:11848   */\n      dup6\n        /* \"#utility.yul\":11835:11857   */\n      add\n        /* \"#utility.yul\":11814:11867   */\n      tag_119\n      jump\t// in\n    tag_289:\n        /* \"#utility.yul\":11804:11867   */\n      swap2\n      pop\n        /* \"#utility.yul\":11760:11877   */\n      pop\n        /* \"#utility.yul\":11555:11884   */\n      swap3\n      swap2\n      pop\n      pop\n      jump\t// out\n        /* \"#utility.yul\":11890:12059   */\n    tag_143:\n        /* \"#utility.yul\":11974:11985   */\n      0x00\n        /* \"#utility.yul\":12008:12014   */\n      dup3\n        /* \"#utility.yul\":12003:12006   */\n      dup3\n        /* \"#utility.yul\":11996:12015   */\n      mstore\n        /* \"#utility.yul\":12048:12052   */\n      0x20\n        /* \"#utility.yul\":12043:12046   */\n      dup3\n        /* \"#utility.yul\":12039:12053   */\n      add\n        /* \"#utility.yul\":12024:12053   */\n      swap1\n      pop\n        /* \"#utility.yul\":11890:12059   */\n      swap3\n      swap2\n      pop\n      pop\n      jump\t// out\n        /* \"#utility.yul\":12065:12294   */\n    tag_144:\n        /* \"#utility.yul\":12205:12239   */\n      0x426174636844617461626173653a207065726d697373696f6e20686173206265\n        /* \"#utility.yul\":12201:12202   */\n      0x00\n        /* \"#utility.yul\":12193:12199   */\n      dup3\n        /* \"#utility.yul\":12189:12203   */\n      add\n        /* \"#utility.yul\":12182:12240   */\n      mstore\n        /* \"#utility.yul\":12274:12286   */\n      0x656e206772616e74656400000000000000000000000000000000000000000000\n        /* \"#utility.yul\":12269:12271   */\n      0x20\n        /* \"#utility.yul\":12261:12267   */\n      dup3\n        /* \"#utility.yul\":12257:12272   */\n      add\n        /* \"#utility.yul\":12250:12287   */\n      mstore\n        /* \"#utility.yul\":12065:12294   */\n      pop\n      jump\t// out\n        /* \"#utility.yul\":12300:12666   */\n    tag_145:\n        /* \"#utility.yul\":12442:12445   */\n      0x00\n        /* \"#utility.yul\":12463:12530   */\n      tag_293\n        /* \"#utility.yul\":12527:12529   */\n      0x2a\n        /* \"#utility.yul\":12522:12525   */\n      dup4\n        /* \"#utility.yul\":12463:12530   */\n      tag_143\n      jump\t// in\n    tag_293:\n        /* \"#utility.yul\":12456:12530   */\n      swap2\n      pop\n        /* \"#utility.yul\":12539:12632   */\n      tag_294\n        /* \"#utility.yul\":12628:12631   */\n      dup3\n        /* \"#utility.yul\":12539:12632   */\n      tag_144\n      jump\t// in\n    tag_294:\n        /* \"#utility.yul\":12657:12659   */\n      0x40\n        /* \"#utility.yul\":12652:12655   */\n      dup3\n        /* \"#utility.yul\":12648:12660   */\n      add\n        /* \"#utility.yul\":12641:12660   */\n      swap1\n      pop\n        /* \"#utility.yul\":12300:12666   */\n      swap2\n      swap1\n      pop\n      jump\t// out\n        /* \"#utility.yul\":12672:13091   */\n    tag_42:\n        /* \"#utility.yul\":12838:12842   */\n      0x00\n        /* \"#utility.yul\":12876:12878   */\n      0x20\n        /* \"#utility.yul\":12865:12874   */\n      dup3\n        /* \"#utility.yul\":12861:12879   */\n      add\n        /* \"#utility.yul\":12853:12879   */\n      swap1\n      pop\n        /* \"#utility.yul\":12925:12934   */\n      dup2\n        /* \"#utility.yul\":12919:12923   */\n      dup2\n        /* \"#utility.yul\":12915:12935   */\n      sub\n        /* \"#utility.yul\":12911:12912   */\n      0x00\n        /* \"#utility.yul\":12900:12909   */\n      dup4\n        /* \"#utility.yul\":12896:12913   */\n      add\n        /* \"#utility.yul\":12889:12936   */\n      mstore\n        /* \"#utility.yul\":12953:13084   */\n      tag_296\n        /* \"#utility.yul\":13079:13083   */\n      dup2\n        /* \"#utility.yul\":12953:13084   */\n      tag_145\n      jump\t// in\n    tag_296:\n        /* \"#utility.yul\":12945:13084   */\n      swap1\n      pop\n        /* \"#utility.yul\":12672:13091   */\n      swap2\n      swap1\n      pop\n      jump\t// out\n        /* \"#utility.yul\":13097:13330   */\n    tag_146:\n        /* \"#utility.yul\":13237:13271   */\n      0x426174636844617461626173653a206f6e6c7920636f6e747261637420776869\n        /* \"#utility.yul\":13233:13234   */\n      0x00\n        /* \"#utility.yul\":13225:13231   */\n      dup3\n        /* \"#utility.yul\":13221:13235   */\n      add\n        /* \"#utility.yul\":13214:13272   */\n      mstore\n        /* \"#utility.yul\":13306:13322   */\n      0x63682061726520616c6c6f776564000000000000000000000000000000000000\n        /* \"#utility.yul\":13301:13303   */\n      0x20\n        /* \"#utility.yul\":13293:13299   */\n      dup3\n        /* \"#utility.yul\":13289:13304   */\n      add\n        /* \"#utility.yul\":13282:13323   */\n      mstore\n        /* \"#utility.yul\":13097:13330   */\n      pop\n      jump\t// out\n        /* \"#utility.yul\":13336:13702   */\n    tag_147:\n        /* \"#utility.yul\":13478:13481   */\n      0x00\n        /* \"#utility.yul\":13499:13566   */\n      tag_299\n        /* \"#utility.yul\":13563:13565   */\n      0x2e\n        /* \"#utility.yul\":13558:13561   */\n      dup4\n        /* \"#utility.yul\":13499:13566   */\n      tag_143\n      jump\t// in\n    tag_299:\n        /* \"#utility.yul\":13492:13566   */\n      swap2\n      pop\n        /* \"#utility.yul\":13575:13668   */\n      tag_300\n        /* \"#utility.yul\":13664:13667   */\n      dup3\n        /* \"#utility.yul\":13575:13668   */\n      tag_146\n      jump\t// in\n    tag_300:\n        /* \"#utility.yul\":13693:13695   */\n      0x40\n        /* \"#utility.yul\":13688:13691   */\n      dup3\n        /* \"#utility.yul\":13684:13696   */\n      add\n        /* \"#utility.yul\":13677:13696   */\n      swap1\n      pop\n        /* \"#utility.yul\":13336:13702   */\n      swap2\n      swap1\n      pop\n      jump\t// out\n        /* \"#utility.yul\":13708:14127   */\n    tag_52:\n        /* \"#utility.yul\":13874:13878   */\n      0x00\n        /* \"#utility.yul\":13912:13914   */\n      0x20\n        /* \"#utility.yul\":13901:13910   */\n      dup3\n        /* \"#utility.yul\":13897:13915   */\n      add\n        /* \"#utility.yul\":13889:13915   */\n      swap1\n      pop\n        /* \"#utility.yul\":13961:13970   */\n      dup2\n        /* \"#utility.yul\":13955:13959   */\n      dup2\n        /* \"#utility.yul\":13951:13971   */\n      sub\n        /* \"#utility.yul\":13947:13948   */\n      0x00\n        /* \"#utility.yul\":13936:13945   */\n      dup4\n        /* \"#utility.yul\":13932:13949   */\n      add\n        /* \"#utility.yul\":13925:13972   */\n      mstore\n        /* \"#utility.yul\":13989:14120   */\n      tag_302\n        /* \"#utility.yul\":14115:14119   */\n      dup2\n        /* \"#utility.yul\":13989:14120   */\n      tag_147\n      jump\t// in\n    tag_302:\n        /* \"#utility.yul\":13981:14120   */\n      swap1\n      pop\n        /* \"#utility.yul\":13708:14127   */\n      swap2\n      swap1\n      pop\n      jump\t// out\n        /* \"#utility.yul\":14133:14313   */\n    tag_148:\n        /* \"#utility.yul\":14181:14258   */\n      0x4e487b7100000000000000000000000000000000000000000000000000000000\n        /* \"#utility.yul\":14178:14179   */\n      0x00\n        /* \"#utility.yul\":14171:14259   */\n      mstore\n        /* \"#utility.yul\":14278:14282   */\n      0x11\n        /* \"#utility.yul\":14275:14276   */\n      0x04\n        /* \"#utility.yul\":14268:14283   */\n      mstore\n        /* \"#utility.yul\":14302:14306   */\n      0x24\n        /* \"#utility.yul\":14299:14300   */\n      0x00\n        /* \"#utility.yul\":14292:14307   */\n      revert\n        /* \"#utility.yul\":14319:14552   */\n    tag_55:\n        /* \"#utility.yul\":14358:14361   */\n      0x00\n        /* \"#utility.yul\":14381:14405   */\n      tag_305\n        /* \"#utility.yul\":14399:14404   */\n      dup3\n        /* \"#utility.yul\":14381:14405   */\n      tag_117\n      jump\t// in\n    tag_305:\n        /* \"#utility.yul\":14372:14405   */\n      swap2\n      pop\n        /* \"#utility.yul\":14427:14493   */\n      0xffffffffffffffffffffffffffffffffffffffffffffffffffffffffffffffff\n        /* \"#utility.yul\":14420:14425   */\n      dup3\n        /* \"#utility.yul\":14417:14494   */\n      sub\n        /* \"#utility.yul\":14414:14517   */\n      tag_306\n      jumpi\n        /* \"#utility.yul\":14497:14515   */\n      tag_307\n      tag_148\n      jump\t// in\n    tag_307:\n        /* \"#utility.yul\":14414:14517   */\n    tag_306:\n        /* \"#utility.yul\":14544:14545   */\n      0x01\n        /* \"#utility.yul\":14537:14542   */\n      dup3\n        /* \"#utility.yul\":14533:14546   */\n      add\n        /* \"#utility.yul\":14526:14546   */\n      swap1\n      pop\n        /* \"#utility.yul\":14319:14552   */\n      swap2\n      swap1\n      pop\n      jump\t// out\n        /* \"#utility.yul\":14558:14738   */\n    tag_149:\n        /* \"#utility.yul\":14606:14683   */\n      0x4e487b7100000000000000000000000000000000000000000000000000000000\n        /* \"#utility.yul\":14603:14604   */\n      0x00\n        /* \"#utility.yul\":14596:14684   */\n      mstore\n        /* \"#utility.yul\":14703:14707   */\n      0x22\n        /* \"#utility.yul\":14700:14701   */\n      0x04\n        /* \"#utility.yul\":14693:14708   */\n      mstore\n        /* \"#utility.yul\":14727:14731   */\n      0x24\n        /* \"#utility.yul\":14724:14725   */\n      0x00\n        /* \"#utility.yul\":14717:14732   */\n      revert\n        /* \"#utility.yul\":14744:15064   */\n    tag_69:\n        /* \"#utility.yul\":14788:14794   */\n      0x00\n        /* \"#utility.yul\":14825:14826   */\n      0x02\n        /* \"#utility.yul\":14819:14823   */\n      dup3\n        /* \"#utility.yul\":14815:14827   */\n      div\n        /* \"#utility.yul\":14805:14827   */\n      swap1\n      pop\n        /* \"#utility.yul\":14872:14873   */\n      0x01\n        /* \"#utility.yul\":14866:14870   */\n      dup3\n        /* \"#utility.yul\":14862:14874   */\n      and\n        /* \"#utility.yul\":14893:14911   */\n      dup1\n        /* \"#utility.yul\":14883:14964   */\n      tag_310\n      jumpi\n        /* \"#utility.yul\":14949:14953   */\n      0x7f\n        /* \"#utility.yul\":14941:14947   */\n      dup3\n        /* \"#utility.yul\":14937:14954   */\n      and\n        /* \"#utility.yul\":14927:14954   */\n      swap2\n      pop\n        /* \"#utility.yul\":14883:14964   */\n    tag_310:\n        /* \"#utility.yul\":15011:15013   */\n      0x20\n        /* \"#utility.yul\":15003:15009   */\n      dup3\n        /* \"#utility.yul\":15000:15014   */\n      lt\n        /* \"#utility.yul\":14980:14998   */\n      dup2\n        /* \"#utility.yul\":14977:15015   */\n      sub\n        /* \"#utility.yul\":14974:15058   */\n      tag_311\n      jumpi\n        /* \"#utility.yul\":15030:15048   */\n      tag_312\n      tag_149\n      jump\t// in\n    tag_312:\n        /* \"#utility.yul\":14974:15058   */\n    tag_311:\n        /* \"#utility.yul\":14795:15064   */\n      pop\n        /* \"#utility.yul\":14744:15064   */\n      swap2\n      swap1\n      pop\n      jump\t// out\n        /* \"#utility.yul\":15070:15211   */\n    tag_150:\n        /* \"#utility.yul\":15119:15123   */\n      0x00\n        /* \"#utility.yul\":15142:15145   */\n      dup2\n        /* \"#utility.yul\":15134:15145   */\n      swap1\n      pop\n        /* \"#utility.yul\":15165:15168   */\n      dup2\n        /* \"#utility.yul\":15162:15163   */\n      0x00\n        /* \"#utility.yul\":15155:15169   */\n      mstore\n        /* \"#utility.yul\":15199:15203   */\n      0x20\n        /* \"#utility.yul\":15196:15197   */\n      0x00\n        /* \"#utility.yul\":15186:15204   */\n      keccak256\n        /* \"#utility.yul\":15178:15204   */\n      swap1\n      pop\n        /* \"#utility.yul\":15070:15211   */\n      swap2\n      swap1\n      pop\n      jump\t// out\n        /* \"#utility.yul\":15217:15310   */\n    tag_151:\n        /* \"#utility.yul\":15254:15260   */\n      0x00\n        /* \"#utility.yul\":15301:15303   */\n      0x20\n        /* \"#utility.yul\":15296:15298   */\n      0x1f\n        /* \"#utility.yul\":15289:15294   */\n      dup4\n        /* \"#utility.yul\":15285:15299   */\n      add\n        /* \"#utility.yul\":15281:15304   */\n      div\n        /* \"#utility.yul\":15271:15304   */\n      swap1\n      pop\n        /* \"#utility.yul\":15217:15310   */\n      swap2\n      swap1\n      pop\n      jump\t// out\n        /* \"#utility.yul\":15316:15423   */\n    tag_152:\n        /* \"#utility.yul\":15360:15368   */\n      0x00\n        /* \"#utility.yul\":15410:15415   */\n      dup3\n        /* \"#utility.yul\":15404:15408   */\n      dup3\n        /* \"#utility.yul\":15400:15416   */\n      shl\n        /* \"#utility.yul\":15379:15416   */\n      swap1\n      pop\n        /* \"#utility.yul\":15316:15423   */\n      swap3\n      swap2\n      pop\n      pop\n      jump\t// out\n        /* \"#utility.yul\":15429:15822   */\n    tag_153:\n        /* \"#utility.yul\":15498:15504   */\n      0x00\n        /* \"#utility.yul\":15548:15549   */\n      0x08\n        /* \"#utility.yul\":15536:15546   */\n      dup4\n        /* \"#utility.yul\":15532:15550   */\n      mul\n        /* \"#utility.yul\":15571:15668   */\n      tag_317\n        /* \"#utility.yul\":15601:15667   */\n      0xffffffffffffffffffffffffffffffffffffffffffffffffffffffffffffffff\n        /* \"#utility.yul\":15590:15599   */\n      dup3\n        /* \"#utility.yul\":15571:15668   */\n      tag_152\n      jump\t// in\n    tag_317:\n        /* \"#utility.yul\":15689:15728   */\n      tag_318\n        /* \"#utility.yul\":15719:15727   */\n      dup7\n        /* \"#utility.yul\":15708:15717   */\n      dup4\n        /* \"#utility.yul\":15689:15728   */\n      tag_152\n      jump\t// in\n    tag_318:\n        /* \"#utility.yul\":15677:15728   */\n      swap6\n      pop\n        /* \"#utility.yul\":15761:15765   */\n      dup1\n        /* \"#utility.yul\":15757:15766   */\n      not\n        /* \"#utility.yul\":15750:15755   */\n      dup5\n        /* \"#utility.yul\":15746:15767   */\n      and\n        /* \"#utility.yul\":15737:15767   */\n      swap4\n      pop\n        /* \"#utility.yul\":15810:15814   */\n      dup1\n        /* \"#utility.yul\":15800:15808   */\n      dup7\n        /* \"#utility.yul\":15796:15815   */\n      and\n        /* \"#utility.yul\":15789:15794   */\n      dup5\n        /* \"#utility.yul\":15786:15816   */\n      or\n        /* \"#utility.yul\":15776:15816   */\n      swap3\n      pop\n        /* \"#utility.yul\":15505:15822   */\n      pop\n      pop\n        /* \"#utility.yul\":15429:15822   */\n      swap4\n      swap3\n      pop\n      pop\n      pop\n      jump\t// out\n        /* \"#utility.yul\":15828:15888   */\n    tag_154:\n        /* \"#utility.yul\":15856:15859   */\n      0x00\n        /* \"#utility.yul\":15877:15882   */\n      dup2\n        /* \"#utility.yul\":15870:15882   */\n      swap1\n      pop\n        /* \"#utility.yul\":15828:15888   */\n      swap2\n      swap1\n      pop\n      jump\t// out\n        /* \"#utility.yul\":15894:16036   */\n    tag_155:\n        /* \"#utility.yul\":15944:15953   */\n      0x00\n        /* \"#utility.yul\":15977:16030   */\n      tag_321\n        /* \"#utility.yul\":15995:16029   */\n      tag_322\n        /* \"#utility.yul\":16004:16028   */\n      tag_323\n        /* \"#utility.yul\":16022:16027   */\n      dup5\n        /* \"#utility.yul\":16004:16028   */\n      tag_117\n      jump\t// in\n    tag_323:\n        /* \"#utility.yul\":15995:16029   */\n      tag_154\n      jump\t// in\n    tag_322:\n        /* \"#utility.yul\":15977:16030   */\n      tag_117\n      jump\t// in\n    tag_321:\n        /* \"#utility.yul\":15964:16030   */\n      swap1\n      pop\n        /* \"#utility.yul\":15894:16036   */\n      swap2\n      swap1\n      pop\n      jump\t// out\n        /* \"#utility.yul\":16042:16117   */\n    tag_156:\n        /* \"#utility.yul\":16085:16088   */\n      0x00\n        /* \"#utility.yul\":16106:16111   */\n      dup2\n        /* \"#utility.yul\":16099:16111   */\n      swap1\n      pop\n        /* \"#utility.yul\":16042:16117   */\n      swap2\n      swap1\n      pop\n      jump\t// out\n        /* \"#utility.yul\":16123:16392   */\n    tag_157:\n        /* \"#utility.yul\":16233:16272   */\n      tag_326\n        /* \"#utility.yul\":16264:16271   */\n      dup4\n        /* \"#utility.yul\":16233:16272   */\n      tag_155\n      jump\t// in\n    tag_326:\n        /* \"#utility.yul\":16294:16385   */\n      tag_327\n        /* \"#utility.yul\":16343:16384   */\n      tag_328\n        /* \"#utility.yul\":16367:16383   */\n      dup3\n        /* \"#utility.yul\":16343:16384   */\n      tag_156\n      jump\t// in\n    tag_328:\n        /* \"#utility.yul\":16335:16341   */\n      dup5\n        /* \"#utility.yul\":16328:16332   */\n      dup5\n        /* \"#utility.yul\":16322:16333   */\n      sload\n        /* \"#utility.yul\":16294:16385   */\n      tag_153\n      jump\t// in\n    tag_327:\n        /* \"#utility.yul\":16288:16292   */\n      dup3\n        /* \"#utility.yul\":16281:16386   */\n      sstore\n        /* \"#utility.yul\":16199:16392   */\n      pop\n        /* \"#utility.yul\":16123:16392   */\n      pop\n      pop\n      pop\n      jump\t// out\n        /* \"#utility.yul\":16398:16471   */\n    tag_158:\n        /* \"#utility.yul\":16443:16446   */\n      0x00\n        /* \"#utility.yul\":16398:16471   */\n      swap1\n      jump\t// out\n        /* \"#utility.yul\":16477:16666   */\n    tag_159:\n        /* \"#utility.yul\":16554:16586   */\n      tag_331\n      tag_158\n      jump\t// in\n    tag_331:\n        /* \"#utility.yul\":16595:16660   */\n      tag_332\n        /* \"#utility.yul\":16653:16659   */\n      dup2\n        /* \"#utility.yul\":16645:16651   */\n      dup5\n        /* \"#utility.yul\":16639:16643   */\n      dup5\n        /* \"#utility.yul\":16595:16660   */\n      tag_157\n      jump\t// in\n    tag_332:\n        /* \"#utility.yul\":16530:16666   */\n      pop\n        /* \"#utility.yul\":16477:16666   */\n      pop\n      pop\n      jump\t// out\n        /* \"#utility.yul\":16672:16858   */\n    tag_160:\n        /* \"#utility.yul\":16732:16852   */\n    tag_334:\n        /* \"#utility.yul\":16749:16752   */\n      dup2\n        /* \"#utility.yul\":16742:16747   */\n      dup2\n        /* \"#utility.yul\":16739:16753   */\n      lt\n        /* \"#utility.yul\":16732:16852   */\n      iszero\n      tag_336\n      jumpi\n        /* \"#utility.yul\":16803:16842   */\n      tag_337\n        /* \"#utility.yul\":16840:16841   */\n      0x00\n        /* \"#utility.yul\":16833:16838   */\n      dup3\n        /* \"#utility.yul\":16803:16842   */\n      tag_159\n      jump\t// in\n    tag_337:\n        /* \"#utility.yul\":16776:16777   */\n      0x01\n        /* \"#utility.yul\":16769:16774   */\n      dup2\n        /* \"#utility.yul\":16765:16778   */\n      add\n        /* \"#utility.yul\":16756:16778   */\n      swap1\n      pop\n        /* \"#utility.yul\":16732:16852   */\n      jump(tag_334)\n    tag_336:\n        /* \"#utility.yul\":16672:16858   */\n      pop\n      pop\n      jump\t// out\n        /* \"#utility.yul\":16864:17407   */\n    tag_161:\n        /* \"#utility.yul\":16965:16967   */\n      0x1f\n        /* \"#utility.yul\":16960:16963   */\n      dup3\n        /* \"#utility.yul\":16957:16968   */\n      gt\n        /* \"#utility.yul\":16954:17400   */\n      iszero\n      tag_339\n      jumpi\n        /* \"#utility.yul\":16999:17037   */\n      tag_340\n        /* \"#utility.yul\":17031:17036   */\n      dup2\n        /* \"#utility.yul\":16999:17037   */\n      tag_150\n      jump\t// in\n    tag_340:\n        /* \"#utility.yul\":17083:17112   */\n      tag_341\n        /* \"#utility.yul\":17101:17111   */\n      dup5\n        /* \"#utility.yul\":17083:17112   */\n      tag_151\n      jump\t// in\n    tag_341:\n        /* \"#utility.yul\":17073:17081   */\n      dup2\n        /* \"#utility.yul\":17069:17113   */\n      add\n        /* \"#utility.yul\":17266:17268   */\n      0x20\n        /* \"#utility.yul\":17254:17264   */\n      dup6\n        /* \"#utility.yul\":17251:17269   */\n      lt\n        /* \"#utility.yul\":17248:17297   */\n      iszero\n      tag_342\n      jumpi\n        /* \"#utility.yul\":17287:17295   */\n      dup2\n        /* \"#utility.yul\":17272:17295   */\n      swap1\n      pop\n        /* \"#utility.yul\":17248:17297   */\n    tag_342:\n        /* \"#utility.yul\":17310:17390   */\n      tag_343\n        /* \"#utility.yul\":17366:17388   */\n      tag_344\n        /* \"#utility.yul\":17384:17387   */\n      dup6\n        /* \"#utility.yul\":17366:17388   */\n      tag_151\n      jump\t// in\n    tag_344:\n        /* \"#utility.yul\":17356:17364   */\n      dup4\n        /* \"#utility.yul\":17352:17389   */\n      add\n        /* \"#utility.yul\":17339:17350   */\n      dup3\n        /* \"#utility.yul\":17310:17390   */\n      tag_160\n      jump\t// in\n    tag_343:\n        /* \"#utility.yul\":16969:17400   */\n      pop\n      pop\n        /* \"#utility.yul\":16954:17400   */\n    tag_339:\n        /* \"#utility.yul\":16864:17407   */\n      pop\n      pop\n      pop\n      jump\t// out\n        /* \"#utility.yul\":17413:17530   */\n    tag_162:\n        /* \"#utility.yul\":17467:17475   */\n      0x00\n        /* \"#utility.yul\":17517:17522   */\n      dup3\n        /* \"#utility.yul\":17511:17515   */\n      dup3\n        /* \"#utility.yul\":17507:17523   */\n      shr\n        /* \"#utility.yul\":17486:17523   */\n      swap1\n      pop\n        /* \"#utility.yul\":17413:17530   */\n      swap3\n      swap2\n      pop\n      pop\n      jump\t// out\n        /* \"#utility.yul\":17536:17705   */\n    tag_163:\n        /* \"#utility.yul\":17580:17586   */\n      0x00\n        /* \"#utility.yul\":17613:17664   */\n      tag_347\n        /* \"#utility.yul\":17661:17662   */\n      0x00\n        /* \"#utility.yul\":17657:17663   */\n      not\n        /* \"#utility.yul\":17649:17654   */\n      dup5\n        /* \"#utility.yul\":17646:17647   */\n      0x08\n        /* \"#utility.yul\":17642:17655   */\n      mul\n        /* \"#utility.yul\":17613:17664   */\n      tag_162\n      jump\t// in\n    tag_347:\n        /* \"#utility.yul\":17609:17665   */\n      not\n        /* \"#utility.yul\":17694:17698   */\n      dup1\n        /* \"#utility.yul\":17688:17692   */\n      dup4\n        /* \"#utility.yul\":17684:17699   */\n      and\n        /* \"#utility.yul\":17674:17699   */\n      swap2\n      pop\n        /* \"#utility.yul\":17587:17705   */\n      pop\n        /* \"#utility.yul\":17536:17705   */\n      swap3\n      swap2\n      pop\n      pop\n      jump\t// out\n        /* \"#utility.yul\":17710:18005   */\n    tag_164:\n        /* \"#utility.yul\":17786:17790   */\n      0x00\n        /* \"#utility.yul\":17932:17961   */\n      tag_349\n        /* \"#utility.yul\":17957:17960   */\n      dup4\n        /* \"#utility.yul\":17951:17955   */\n      dup4\n        /* \"#utility.yul\":17932:17961   */\n      tag_163\n      jump\t// in\n    tag_349:\n        /* \"#utility.yul\":17924:17961   */\n      swap2\n      pop\n        /* \"#utility.yul\":17994:17997   */\n      dup3\n        /* \"#utility.yul\":17991:17992   */\n      0x02\n        /* \"#utility.yul\":17987:17998   */\n      mul\n        /* \"#utility.yul\":17981:17985   */\n      dup3\n        /* \"#utility.yul\":17978:17999   */\n      or\n        /* \"#utility.yul\":17970:17999   */\n      swap1\n      pop\n        /* \"#utility.yul\":17710:18005   */\n      swap3\n      swap2\n      pop\n      pop\n      jump\t// out\n        /* \"#utility.yul\":18010:19405   */\n    tag_58:\n        /* \"#utility.yul\":18127:18164   */\n      tag_351\n        /* \"#utility.yul\":18160:18163   */\n      dup3\n        /* \"#utility.yul\":18127:18164   */\n      tag_134\n      jump\t// in\n    tag_351:\n        /* \"#utility.yul\":18229:18247   */\n      0xffffffffffffffff\n        /* \"#utility.yul\":18221:18227   */\n      dup2\n        /* \"#utility.yul\":18218:18248   */\n      gt\n        /* \"#utility.yul\":18215:18271   */\n      iszero\n      tag_352\n      jumpi\n        /* \"#utility.yul\":18251:18269   */\n      tag_353\n      tag_113\n      jump\t// in\n    tag_353:\n        /* \"#utility.yul\":18215:18271   */\n    tag_352:\n        /* \"#utility.yul\":18295:18333   */\n      tag_354\n        /* \"#utility.yul\":18327:18331   */\n      dup3\n        /* \"#utility.yul\":18321:18332   */\n      sload\n        /* \"#utility.yul\":18295:18333   */\n      tag_69\n      jump\t// in\n    tag_354:\n        /* \"#utility.yul\":18380:18447   */\n      tag_355\n        /* \"#utility.yul\":18440:18446   */\n      dup3\n        /* \"#utility.yul\":18432:18438   */\n      dup3\n        /* \"#utility.yul\":18426:18430   */\n      dup6\n        /* \"#utility.yul\":18380:18447   */\n      tag_161\n      jump\t// in\n    tag_355:\n        /* \"#utility.yul\":18474:18475   */\n      0x00\n        /* \"#utility.yul\":18498:18502   */\n      0x20\n        /* \"#utility.yul\":18485:18502   */\n      swap1\n      pop\n        /* \"#utility.yul\":18530:18532   */\n      0x1f\n        /* \"#utility.yul\":18522:18528   */\n      dup4\n        /* \"#utility.yul\":18519:18533   */\n      gt\n        /* \"#utility.yul\":18547:18548   */\n      0x01\n        /* \"#utility.yul\":18542:19160   */\n      dup2\n      eq\n      tag_357\n      jumpi\n        /* \"#utility.yul\":19204:19205   */\n      0x00\n        /* \"#utility.yul\":19221:19227   */\n      dup5\n        /* \"#utility.yul\":19218:19295   */\n      iszero\n      tag_358\n      jumpi\n        /* \"#utility.yul\":19270:19279   */\n      dup3\n        /* \"#utility.yul\":19265:19268   */\n      dup8\n        /* \"#utility.yul\":19261:19280   */\n      add\n        /* \"#utility.yul\":19255:19281   */\n      mload\n        /* \"#utility.yul\":19246:19281   */\n      swap1\n      pop\n        /* \"#utility.yul\":19218:19295   */\n    tag_358:\n        /* \"#utility.yul\":19321:19388   */\n      tag_359\n        /* \"#utility.yul\":19381:19387   */\n      dup6\n        /* \"#utility.yul\":19374:19379   */\n      dup3\n        /* \"#utility.yul\":19321:19388   */\n      tag_164\n      jump\t// in\n    tag_359:\n        /* \"#utility.yul\":19315:19319   */\n      dup7\n        /* \"#utility.yul\":19308:19389   */\n      sstore\n        /* \"#utility.yul\":19177:19399   */\n      pop\n        /* \"#utility.yul\":18512:19399   */\n      jump(tag_356)\n        /* \"#utility.yul\":18542:19160   */\n    tag_357:\n        /* \"#utility.yul\":18594:18598   */\n      0x1f\n        /* \"#utility.yul\":18590:18599   */\n      not\n        /* \"#utility.yul\":18582:18588   */\n      dup5\n        /* \"#utility.yul\":18578:18600   */\n      and\n        /* \"#utility.yul\":18628:18665   */\n      tag_360\n        /* \"#utility.yul\":18660:18664   */\n      dup7\n        /* \"#utility.yul\":18628:18665   */\n      tag_150\n      jump\t// in\n    tag_360:\n        /* \"#utility.yul\":18687:18688   */\n      0x00\n        /* \"#utility.yul\":18701:18909   */\n    tag_361:\n        /* \"#utility.yul\":18715:18722   */\n      dup3\n        /* \"#utility.yul\":18712:18713   */\n      dup2\n        /* \"#utility.yul\":18709:18723   */\n      lt\n        /* \"#utility.yul\":18701:18909   */\n      iszero\n      tag_363\n      jumpi\n        /* \"#utility.yul\":18794:18803   */\n      dup5\n        /* \"#utility.yul\":18789:18792   */\n      dup10\n        /* \"#utility.yul\":18785:18804   */\n      add\n        /* \"#utility.yul\":18779:18805   */\n      mload\n        /* \"#utility.yul\":18771:18777   */\n      dup3\n        /* \"#utility.yul\":18764:18806   */\n      sstore\n        /* \"#utility.yul\":18845:18846   */\n      0x01\n        /* \"#utility.yul\":18837:18843   */\n      dup3\n        /* \"#utility.yul\":18833:18847   */\n      add\n        /* \"#utility.yul\":18823:18847   */\n      swap2\n      pop\n        /* \"#utility.yul\":18892:18894   */\n      0x20\n        /* \"#utility.yul\":18881:18890   */\n      dup6\n        /* \"#utility.yul\":18877:18895   */\n      add\n        /* \"#utility.yul\":18864:18895   */\n      swap5\n      pop\n        /* \"#utility.yul\":18738:18742   */\n      0x20\n        /* \"#utility.yul\":18735:18736   */\n      dup2\n        /* \"#utility.yul\":18731:18743   */\n      add\n        /* \"#utility.yul\":18726:18743   */\n      swap1\n      pop\n        /* \"#utility.yul\":18701:18909   */\n      jump(tag_361)\n    tag_363:\n        /* \"#utility.yul\":18937:18943   */\n      dup7\n        /* \"#utility.yul\":18928:18935   */\n      dup4\n        /* \"#utility.yul\":18925:18944   */\n      lt\n        /* \"#utility.yul\":18922:19101   */\n      iszero\n      tag_364\n      jumpi\n        /* \"#utility.yul\":18995:19004   */\n      dup5\n        /* \"#utility.yul\":18990:18993   */\n      dup10\n        /* \"#utility.yul\":18986:19005   */\n      add\n        /* \"#utility.yul\":18980:19006   */\n      mload\n        /* \"#utility.yul\":19038:19086   */\n      tag_365\n        /* \"#utility.yul\":19080:19084   */\n      0x1f\n        /* \"#utility.yul\":19072:19078   */\n      dup10\n        /* \"#utility.yul\":19068:19085   */\n      and\n        /* \"#utility.yul\":19057:19066   */\n      dup3\n        /* \"#utility.yul\":19038:19086   */\n      tag_163\n      jump\t// in\n    tag_365:\n        /* \"#utility.yul\":19030:19036   */\n      dup4\n        /* \"#utility.yul\":19023:19087   */\n      sstore\n        /* \"#utility.yul\":18945:19101   */\n      pop\n        /* \"#utility.yul\":18922:19101   */\n    tag_364:\n        /* \"#utility.yul\":19147:19148   */\n      0x01\n        /* \"#utility.yul\":19143:19144   */\n      0x02\n        /* \"#utility.yul\":19135:19141   */\n      dup9\n        /* \"#utility.yul\":19131:19145   */\n      mul\n        /* \"#utility.yul\":19127:19149   */\n      add\n        /* \"#utility.yul\":19121:19125   */\n      dup9\n        /* \"#utility.yul\":19114:19150   */\n      sstore\n        /* \"#utility.yul\":18549:19160   */\n      pop\n      pop\n      pop\n        /* \"#utility.yul\":18512:19399   */\n    tag_356:\n      pop\n        /* \"#utility.yul\":18102:19405   */\n      pop\n      pop\n      pop\n        /* \"#utility.yul\":18010:19405   */\n      pop\n      pop\n      jump\t// out\n        /* \"#utility.yul\":19411:19591   */\n    tag_86:\n        /* \"#utility.yul\":19459:19536   */\n      0x4e487b7100000000000000000000000000000000000000000000000000000000\n        /* \"#utility.yul\":19456:19457   */\n      0x00\n        /* \"#utility.yul\":19449:19537   */\n      mstore\n        /* \"#utility.yul\":19556:19560   */\n      0x32\n        /* \"#utility.yul\":19553:19554   */\n      0x04\n        /* \"#utility.yul\":19546:19561   */\n      mstore\n        /* \"#utility.yul\":19580:19584   */\n      0x24\n        /* \"#utility.yul\":19577:19578   */\n      0x00\n        /* \"#utility.yul\":19570:19585   */\n      revert\n        /* \"#utility.yul\":19597:19822   */\n    tag_165:\n        /* \"#utility.yul\":19737:19771   */\n      0x4f776e61626c653a206e6577206f776e657220697320746865207a65726f2061\n        /* \"#utility.yul\":19733:19734   */\n      0x00\n        /* \"#utility.yul\":19725:19731   */\n      dup3\n        /* \"#utility.yul\":19721:19735   */\n      add\n        /* \"#utility.yul\":19714:19772   */\n      mstore\n        /* \"#utility.yul\":19806:19814   */\n      0x6464726573730000000000000000000000000000000000000000000000000000\n        /* \"#utility.yul\":19801:19803   */\n      0x20\n        /* \"#utility.yul\":19793:19799   */\n      dup3\n        /* \"#utility.yul\":19789:19804   */\n      add\n        /* \"#utility.yul\":19782:19815   */\n      mstore\n        /* \"#utility.yul\":19597:19822   */\n      pop\n      jump\t// out\n        /* \"#utility.yul\":19828:20194   */\n    tag_166:\n        /* \"#utility.yul\":19970:19973   */\n      0x00\n        /* \"#utility.yul\":19991:20058   */\n      tag_369\n        /* \"#utility.yul\":20055:20057   */\n      0x26\n        /* \"#utility.yul\":20050:20053   */\n      dup4\n        /* \"#utility.yul\":19991:20058   */\n      tag_143\n      jump\t// in\n    tag_369:\n        /* \"#utility.yul\":19984:20058   */\n      swap2\n      pop\n        /* \"#utility.yul\":20067:20160   */\n      tag_370\n        /* \"#utility.yul\":20156:20159   */\n      dup3\n        /* \"#utility.yul\":20067:20160   */\n      tag_165\n      jump\t// in\n    tag_370:\n        /* \"#utility.yul\":20185:20187   */\n      0x40\n        /* \"#utility.yul\":20180:20183   */\n      dup3\n        /* \"#utility.yul\":20176:20188   */\n      add\n        /* \"#utility.yul\":20169:20188   */\n      swap1\n      pop\n        /* \"#utility.yul\":19828:20194   */\n      swap2\n      swap1\n      pop\n      jump\t// out\n        /* \"#utility.yul\":20200:20619   */\n    tag_93:\n        /* \"#utility.yul\":20366:20370   */\n      0x00\n        /* \"#utility.yul\":20404:20406   */\n      0x20\n        /* \"#utility.yul\":20393:20402   */\n      dup3\n        /* \"#utility.yul\":20389:20407   */\n      add\n        /* \"#utility.yul\":20381:20407   */\n      swap1\n      pop\n        /* \"#utility.yul\":20453:20462   */\n      dup2\n        /* \"#utility.yul\":20447:20451   */\n      dup2\n        /* \"#utility.yul\":20443:20463   */\n      sub\n        /* \"#utility.yul\":20439:20440   */\n      0x00\n        /* \"#utility.yul\":20428:20437   */\n      dup4\n        /* \"#utility.yul\":20424:20441   */\n      add\n        /* \"#utility.yul\":20417:20464   */\n      mstore\n        /* \"#utility.yul\":20481:20612   */\n      tag_372\n        /* \"#utility.yul\":20607:20611   */\n      dup2\n        /* \"#utility.yul\":20481:20612   */\n      tag_166\n      jump\t// in\n    tag_372:\n        /* \"#utility.yul\":20473:20612   */\n      swap1\n      pop\n        /* \"#utility.yul\":20200:20619   */\n      swap2\n      swap1\n      pop\n      jump\t// out\n        /* \"#utility.yul\":20625:20807   */\n    tag_167:\n        /* \"#utility.yul\":20765:20799   */\n      0x4f776e61626c653a2063616c6c6572206973206e6f7420746865206f776e6572\n        /* \"#utility.yul\":20761:20762   */\n      0x00\n        /* \"#utility.yul\":20753:20759   */\n      dup3\n        /* \"#utility.yul\":20749:20763   */\n      add\n        /* \"#utility.yul\":20742:20800   */\n      mstore\n        /* \"#utility.yul\":20625:20807   */\n      pop\n      jump\t// out\n        /* \"#utility.yul\":20813:21179   */\n    tag_168:\n        /* \"#utility.yul\":20955:20958   */\n      0x00\n        /* \"#utility.yul\":20976:21043   */\n      tag_375\n        /* \"#utility.yul\":21040:21042   */\n      0x20\n        /* \"#utility.yul\":21035:21038   */\n      dup4\n        /* \"#utility.yul\":20976:21043   */\n      tag_143\n      jump\t// in\n    tag_375:\n        /* \"#utility.yul\":20969:21043   */\n      swap2\n      pop\n        /* \"#utility.yul\":21052:21145   */\n      tag_376\n        /* \"#utility.yul\":21141:21144   */\n      dup3\n        /* \"#utility.yul\":21052:21145   */\n      tag_167\n      jump\t// in\n    tag_376:\n        /* \"#utility.yul\":21170:21172   */\n      0x20\n        /* \"#utility.yul\":21165:21168   */\n      dup3\n        /* \"#utility.yul\":21161:21173   */\n      add\n        /* \"#utility.yul\":21154:21173   */\n      swap1\n      pop\n        /* \"#utility.yul\":20813:21179   */\n      swap2\n      swap1\n      pop\n      jump\t// out\n        /* \"#utility.yul\":21185:21604   */\n    tag_100:\n        /* \"#utility.yul\":21351:21355   */\n      0x00\n        /* \"#utility.yul\":21389:21391   */\n      0x20\n        /* \"#utility.yul\":21378:21387   */\n      dup3\n        /* \"#utility.yul\":21374:21392   */\n      add\n        /* \"#utility.yul\":21366:21392   */\n      swap1\n      pop\n        /* \"#utility.yul\":21438:21447   */\n      dup2\n        /* \"#utility.yul\":21432:21436   */\n      dup2\n        /* \"#utility.yul\":21428:21448   */\n      sub\n        /* \"#utility.yul\":21424:21425   */\n      0x00\n        /* \"#utility.yul\":21413:21422   */\n      dup4\n        /* \"#utility.yul\":21409:21426   */\n      add\n        /* \"#utility.yul\":21402:21449   */\n      mstore\n        /* \"#utility.yul\":21466:21597   */\n      tag_378\n        /* \"#utility.yul\":21592:21596   */\n      dup2\n        /* \"#utility.yul\":21466:21597   */\n      tag_168\n      jump\t// in\n    tag_378:\n        /* \"#utility.yul\":21458:21597   */\n      swap1\n      pop\n        /* \"#utility.yul\":21185:21604   */\n      swap2\n      swap1\n      pop\n      jump\t// out\n\n    auxdata: 0xa2646970667358221220c93a07493404d16f9c05705622fe555bebeb5233d27f568aacfb82a49518426664736f6c63430008120033\n}\n",
				"bytecode": {
					"linkReferences": {},
					"object": "6080604052600060025534801561001557600080fd5b50336000806101000a81548173ffffffffffffffffffffffffffffffffffffffff021916908373ffffffffffffffffffffffffffffffffffffffff160217905550611446806100656000396000f3fe608060405234801561001057600080fd5b506004361061007d5760003560e01c8063bf8122f71161005b578063bf8122f7146100c6578063cad09ad6146100e2578063ee416d5b14610100578063f2fde38b1461011c5761007d565b80634d0a5dbd1461008257806383197ef01461009e5780638da5cb5b146100a8575b600080fd5b61009c6004803603810190610097919061090c565b610138565b005b6100a6610228565b005b6100b0610249565b6040516100bd9190610948565b60405180910390f35b6100e060048036038101906100db9190610be5565b610272565b005b6100ea6103bc565b6040516100f79190610e0a565b60405180910390f35b61011a60048036038101906101159190610e2c565b610601565b005b6101366004803603810190610131919061090c565b6106d4565b005b610140610757565b600360008273ffffffffffffffffffffffffffffffffffffffff1673ffffffffffffffffffffffffffffffffffffffff16815260200190815260200160002060009054906101000a900460ff16156101cd576040517f08c379a00000000000000000000000000000000000000000000000000000000081526004016101c490610edc565b60405180910390fd5b6001600360008373ffffffffffffffffffffffffffffffffffffffff1673ffffffffffffffffffffffffffffffffffffffff16815260200190815260200160002060006101000a81548160ff02191690831515021790555050565b610230610757565b3073ffffffffffffffffffffffffffffffffffffffff16ff5b60008060009054906101000a900473ffffffffffffffffffffffffffffffffffffffff16905090565b6003600061027e6107ce565b73ffffffffffffffffffffffffffffffffffffffff1673ffffffffffffffffffffffffffffffffffffffff16815260200190815260200160002060009054906101000a900460ff16610305576040517f08c379a00000000000000000000000000000000000000000000000000000000081526004016102fc90610f6e565b60405180910390fd5b60006002600081548092919061031a90610fbd565b9190505590508082600001818152505060018290806001815401808255809150506001900390600052602060002090600502016000909190919091506000820151816000015560208201518160010190816103759190611211565b506040820151816002015560608201518160030190816103959190611211565b5060808201518160040160006101000a81548160ff02191690831515021790555050505050565b6060600360006103ca6107ce565b73ffffffffffffffffffffffffffffffffffffffff1673ffffffffffffffffffffffffffffffffffffffff16815260200190815260200160002060009054906101000a900460ff16610451576040517f08c379a000000000000000000000000000000000000000000000000000000000815260040161044890610f6e565b60405180910390fd5b6001805480602002602001604051908101604052809291908181526020016000905b828210156105f857838290600052602060002090600502016040518060a0016040529081600082015481526020016001820180546104b090611034565b80601f01602080910402602001604051908101604052809291908181526020018280546104dc90611034565b80156105295780601f106104fe57610100808354040283529160200191610529565b820191906000526020600020905b81548152906001019060200180831161050c57829003601f168201915b505050505081526020016002820154815260200160038201805461054c90611034565b80601f016020809104026020016040519081016040528092919081815260200182805461057890611034565b80156105c55780601f1061059a576101008083540402835291602001916105c5565b820191906000526020600020905b8154815290600101906020018083116105a857829003601f168201915b505050505081526020016004820160009054906101000a900460ff16151515158152505081526020019060010190610473565b50505050905090565b6003600061060d6107ce565b73ffffffffffffffffffffffffffffffffffffffff1673ffffffffffffffffffffffffffffffffffffffff16815260200190815260200160002060009054906101000a900460ff16610694576040517f08c379a000000000000000000000000000000000000000000000000000000000815260040161068b90610f6e565b60405180910390fd5b60018082815481106106a9576106a86112e3565b5b906000526020600020906005020160040160006101000a81548160ff02191690831515021790555050565b6106dc610757565b600073ffffffffffffffffffffffffffffffffffffffff168173ffffffffffffffffffffffffffffffffffffffff160361074b576040517f08c379a000000000000000000000000000000000000000000000000000000000815260040161074290611384565b60405180910390fd5b610754816107d6565b50565b3373ffffffffffffffffffffffffffffffffffffffff16610776610249565b73ffffffffffffffffffffffffffffffffffffffff16146107cc576040517f08c379a00000000000000000000000000000000000000000000000000000000081526004016107c3906113f0565b60405180910390fd5b565b600033905090565b60008060009054906101000a900473ffffffffffffffffffffffffffffffffffffffff169050816000806101000a81548173ffffffffffffffffffffffffffffffffffffffff021916908373ffffffffffffffffffffffffffffffffffffffff1602179055508173ffffffffffffffffffffffffffffffffffffffff168173ffffffffffffffffffffffffffffffffffffffff167f8be0079c531659141344cd1fd0a4f28419497f9722a3daafe3b4186f6b6457e060405160405180910390a35050565b6000604051905090565b600080fd5b600080fd5b600073ffffffffffffffffffffffffffffffffffffffff82169050919050565b60006108d9826108ae565b9050919050565b6108e9816108ce565b81146108f457600080fd5b50565b600081359050610906816108e0565b92915050565b600060208284031215610922576109216108a4565b5b6000610930848285016108f7565b91505092915050565b610942816108ce565b82525050565b600060208201905061095d6000830184610939565b92915050565b600080fd5b6000601f19601f8301169050919050565b7f4e487b7100000000000000000000000000000000000000000000000000000000600052604160045260246000fd5b6109b182610968565b810181811067ffffffffffffffff821117156109d0576109cf610979565b5b80604052505050565b60006109e361089a565b90506109ef82826109a8565b919050565b600080fd5b6000819050919050565b610a0c816109f9565b8114610a1757600080fd5b50565b600081359050610a2981610a03565b92915050565b600080fd5b600080fd5b600067ffffffffffffffff821115610a5457610a53610979565b5b610a5d82610968565b9050602081019050919050565b82818337600083830152505050565b6000610a8c610a8784610a39565b6109d9565b905082815260208101848484011115610aa857610aa7610a34565b5b610ab3848285610a6a565b509392505050565b600082601f830112610ad057610acf610a2f565b5b8135610ae0848260208601610a79565b91505092915050565b60008115159050919050565b610afe81610ae9565b8114610b0957600080fd5b50565b600081359050610b1b81610af5565b92915050565b600060a08284031215610b3757610b36610963565b5b610b4160a06109d9565b90506000610b5184828501610a1a565b600083015250602082013567ffffffffffffffff811115610b7557610b746109f4565b5b610b8184828501610abb565b6020830152506040610b9584828501610a1a565b604083015250606082013567ffffffffffffffff811115610bb957610bb86109f4565b5b610bc584828501610abb565b6060830152506080610bd984828501610b0c565b60808301525092915050565b600060208284031215610bfb57610bfa6108a4565b5b600082013567ffffffffffffffff811115610c1957610c186108a9565b5b610c2584828501610b21565b91505092915050565b600081519050919050565b600082825260208201905092915050565b6000819050602082019050919050565b610c63816109f9565b82525050565b600081519050919050565b600082825260208201905092915050565b60005b83811015610ca3578082015181840152602081019050610c88565b60008484015250505050565b6000610cba82610c69565b610cc48185610c74565b9350610cd4818560208601610c85565b610cdd81610968565b840191505092915050565b610cf181610ae9565b82525050565b600060a083016000830151610d0f6000860182610c5a565b5060208301518482036020860152610d278282610caf565b9150506040830151610d3c6040860182610c5a565b5060608301518482036060860152610d548282610caf565b9150506080830151610d696080860182610ce8565b508091505092915050565b6000610d808383610cf7565b905092915050565b6000602082019050919050565b6000610da082610c2e565b610daa8185610c39565b935083602082028501610dbc85610c4a565b8060005b85811015610df85784840389528151610dd98582610d74565b9450610de483610d88565b925060208a01995050600181019050610dc0565b50829750879550505050505092915050565b60006020820190508181036000830152610e248184610d95565b905092915050565b600060208284031215610e4257610e416108a4565b5b6000610e5084828501610a1a565b91505092915050565b600082825260208201905092915050565b7f426174636844617461626173653a207065726d697373696f6e2068617320626560008201527f656e206772616e74656400000000000000000000000000000000000000000000602082015250565b6000610ec6602a83610e59565b9150610ed182610e6a565b604082019050919050565b60006020820190508181036000830152610ef581610eb9565b9050919050565b7f426174636844617461626173653a206f6e6c7920636f6e74726163742077686960008201527f63682061726520616c6c6f776564000000000000000000000000000000000000602082015250565b6000610f58602e83610e59565b9150610f6382610efc565b604082019050919050565b60006020820190508181036000830152610f8781610f4b565b9050919050565b7f4e487b7100000000000000000000000000000000000000000000000000000000600052601160045260246000fd5b6000610fc8826109f9565b91507fffffffffffffffffffffffffffffffffffffffffffffffffffffffffffffffff8203610ffa57610ff9610f8e565b5b600182019050919050565b7f4e487b7100000000000000000000000000000000000000000000000000000000600052602260045260246000fd5b6000600282049050600182168061104c57607f821691505b60208210810361105f5761105e611005565b5b50919050565b60008190508160005260206000209050919050565b60006020601f8301049050919050565b600082821b905092915050565b6000600883026110c77fffffffffffffffffffffffffffffffffffffffffffffffffffffffffffffffff8261108a565b6110d1868361108a565b95508019841693508086168417925050509392505050565b6000819050919050565b600061110e611109611104846109f9565b6110e9565b6109f9565b9050919050565b6000819050919050565b611128836110f3565b61113c61113482611115565b848454611097565b825550505050565b600090565b611151611144565b61115c81848461111f565b505050565b5b8181101561118057611175600082611149565b600181019050611162565b5050565b601f8211156111c55761119681611065565b61119f8461107a565b810160208510156111ae578190505b6111c26111ba8561107a565b830182611161565b50505b505050565b600082821c905092915050565b60006111e8600019846008026111ca565b1980831691505092915050565b600061120183836111d7565b9150826002028217905092915050565b61121a82610c69565b67ffffffffffffffff81111561123357611232610979565b5b61123d8254611034565b611248828285611184565b600060209050601f83116001811461127b5760008415611269578287015190505b61127385826111f5565b8655506112db565b601f19841661128986611065565b60005b828110156112b15784890151825560018201915060208501945060208101905061128c565b868310156112ce57848901516112ca601f8916826111d7565b8355505b6001600288020188555050505b505050505050565b7f4e487b7100000000000000000000000000000000000000000000000000000000600052603260045260246000fd5b7f4f776e61626c653a206e6577206f776e657220697320746865207a65726f206160008201527f6464726573730000000000000000000000000000000000000000000000000000602082015250565b600061136e602683610e59565b915061137982611312565b604082019050919050565b6000602082019050818103600083015261139d81611361565b9050919050565b7f4f776e61626c653a2063616c6c6572206973206e6f7420746865206f776e6572600082015250565b60006113da602083610e59565b91506113e5826113a4565b602082019050919050565b60006020820190508181036000830152611409816113cd565b905091905056fea2646970667358221220c93a07493404d16f9c05705622fe555bebeb5233d27f568aacfb82a49518426664736f6c63430008120033",
					"opcodes": "PUSH1 0x80 PUSH1 0x40 MSTORE PUSH1 0x0 PUSH1 0x2 SSTORE CALLVALUE DUP1 ISZERO PUSH2 0x15 JUMPI PUSH1 0x0 DUP1 REVERT JUMPDEST POP CALLER PUSH1 0x0 DUP1 PUSH2 0x100 EXP DUP2 SLOAD DUP2 PUSH20 0xFFFFFFFFFFFFFFFFFFFFFFFFFFFFFFFFFFFFFFFF MUL NOT AND SWAP1 DUP4 PUSH20 0xFFFFFFFFFFFFFFFFFFFFFFFFFFFFFFFFFFFFFFFF AND MUL OR SWAP1 SSTORE POP PUSH2 0x1446 DUP1 PUSH2 0x65 PUSH1 0x0 CODECOPY PUSH1 0x0 RETURN INVALID PUSH1 0x80 PUSH1 0x40 MSTORE CALLVALUE DUP1 ISZERO PUSH2 0x10 JUMPI PUSH1 0x0 DUP1 REVERT JUMPDEST POP PUSH1 0x4 CALLDATASIZE LT PUSH2 0x7D JUMPI PUSH1 0x0 CALLDATALOAD PUSH1 0xE0 SHR DUP1 PUSH4 0xBF8122F7 GT PUSH2 0x5B JUMPI DUP1 PUSH4 0xBF8122F7 EQ PUSH2 0xC6 JUMPI DUP1 PUSH4 0xCAD09AD6 EQ PUSH2 0xE2 JUMPI DUP1 PUSH4 0xEE416D5B EQ PUSH2 0x100 JUMPI DUP1 PUSH4 0xF2FDE38B EQ PUSH2 0x11C JUMPI PUSH2 0x7D JUMP JUMPDEST DUP1 PUSH4 0x4D0A5DBD EQ PUSH2 0x82 JUMPI DUP1 PUSH4 0x83197EF0 EQ PUSH2 0x9E JUMPI DUP1 PUSH4 0x8DA5CB5B EQ PUSH2 0xA8 JUMPI JUMPDEST PUSH1 0x0 DUP1 REVERT JUMPDEST PUSH2 0x9C PUSH1 0x4 DUP1 CALLDATASIZE SUB DUP2 ADD SWAP1 PUSH2 0x97 SWAP2 SWAP1 PUSH2 0x90C JUMP JUMPDEST PUSH2 0x138 JUMP JUMPDEST STOP JUMPDEST PUSH2 0xA6 PUSH2 0x228 JUMP JUMPDEST STOP JUMPDEST PUSH2 0xB0 PUSH2 0x249 JUMP JUMPDEST PUSH1 0x40 MLOAD PUSH2 0xBD SWAP2 SWAP1 PUSH2 0x948 JUMP JUMPDEST PUSH1 0x40 MLOAD DUP1 SWAP2 SUB SWAP1 RETURN JUMPDEST PUSH2 0xE0 PUSH1 0x4 DUP1 CALLDATASIZE SUB DUP2 ADD SWAP1 PUSH2 0xDB SWAP2 SWAP1 PUSH2 0xBE5 JUMP JUMPDEST PUSH2 0x272 JUMP JUMPDEST STOP JUMPDEST PUSH2 0xEA PUSH2 0x3BC JUMP JUMPDEST PUSH1 0x40 MLOAD PUSH2 0xF7 SWAP2 SWAP1 PUSH2 0xE0A JUMP JUMPDEST PUSH1 0x40 MLOAD DUP1 SWAP2 SUB SWAP1 RETURN JUMPDEST PUSH2 0x11A PUSH1 0x4 DUP1 CALLDATASIZE SUB DUP2 ADD SWAP1 PUSH2 0x115 SWAP2 SWAP1 PUSH2 0xE2C JUMP JUMPDEST PUSH2 0x601 JUMP JUMPDEST STOP JUMPDEST PUSH2 0x136 PUSH1 0x4 DUP1 CALLDATASIZE SUB DUP2 ADD SWAP1 PUSH2 0x131 SWAP2 SWAP1 PUSH2 0x90C JUMP JUMPDEST PUSH2 0x6D4 JUMP JUMPDEST STOP JUMPDEST PUSH2 0x140 PUSH2 0x757 JUMP JUMPDEST PUSH1 0x3 PUSH1 0x0 DUP3 PUSH20 0xFFFFFFFFFFFFFFFFFFFFFFFFFFFFFFFFFFFFFFFF AND PUSH20 0xFFFFFFFFFFFFFFFFFFFFFFFFFFFFFFFFFFFFFFFF AND DUP2 MSTORE PUSH1 0x20 ADD SWAP1 DUP2 MSTORE PUSH1 0x20 ADD PUSH1 0x0 KECCAK256 PUSH1 0x0 SWAP1 SLOAD SWAP1 PUSH2 0x100 EXP SWAP1 DIV PUSH1 0xFF AND ISZERO PUSH2 0x1CD JUMPI PUSH1 0x40 MLOAD PUSH32 0x8C379A000000000000000000000000000000000000000000000000000000000 DUP2 MSTORE PUSH1 0x4 ADD PUSH2 0x1C4 SWAP1 PUSH2 0xEDC JUMP JUMPDEST PUSH1 0x40 MLOAD DUP1 SWAP2 SUB SWAP1 REVERT JUMPDEST PUSH1 0x1 PUSH1 0x3 PUSH1 0x0 DUP4 PUSH20 0xFFFFFFFFFFFFFFFFFFFFFFFFFFFFFFFFFFFFFFFF AND PUSH20 0xFFFFFFFFFFFFFFFFFFFFFFFFFFFFFFFFFFFFFFFF AND DUP2 MSTORE PUSH1 0x20 ADD SWAP1 DUP2 MSTORE PUSH1 0x20 ADD PUSH1 0x0 KECCAK256 PUSH1 0x0 PUSH2 0x100 EXP DUP2 SLOAD DUP2 PUSH1 0xFF MUL NOT AND SWAP1 DUP4 ISZERO ISZERO MUL OR SWAP1 SSTORE POP POP JUMP JUMPDEST PUSH2 0x230 PUSH2 0x757 JUMP JUMPDEST ADDRESS PUSH20 0xFFFFFFFFFFFFFFFFFFFFFFFFFFFFFFFFFFFFFFFF AND SELFDESTRUCT JUMPDEST PUSH1 0x0 DUP1 PUSH1 0x0 SWAP1 SLOAD SWAP1 PUSH2 0x100 EXP SWAP1 DIV PUSH20 0xFFFFFFFFFFFFFFFFFFFFFFFFFFFFFFFFFFFFFFFF AND SWAP1 POP SWAP1 JUMP JUMPDEST PUSH1 0x3 PUSH1 0x0 PUSH2 0x27E PUSH2 0x7CE JUMP JUMPDEST PUSH20 0xFFFFFFFFFFFFFFFFFFFFFFFFFFFFFFFFFFFFFFFF AND PUSH20 0xFFFFFFFFFFFFFFFFFFFFFFFFFFFFFFFFFFFFFFFF AND DUP2 MSTORE PUSH1 0x20 ADD SWAP1 DUP2 MSTORE PUSH1 0x20 ADD PUSH1 0x0 KECCAK256 PUSH1 0x0 SWAP1 SLOAD SWAP1 PUSH2 0x100 EXP SWAP1 DIV PUSH1 0xFF AND PUSH2 0x305 JUMPI PUSH1 0x40 MLOAD PUSH32 0x8C379A000000000000000000000000000000000000000000000000000000000 DUP2 MSTORE PUSH1 0x4 ADD PUSH2 0x2FC SWAP1 PUSH2 0xF6E JUMP JUMPDEST PUSH1 0x40 MLOAD DUP1 SWAP2 SUB SWAP1 REVERT JUMPDEST PUSH1 0x0 PUSH1 0x2 PUSH1 0x0 DUP2 SLOAD DUP1 SWAP3 SWAP2 SWAP1 PUSH2 0x31A SWAP1 PUSH2 0xFBD JUMP JUMPDEST SWAP2 SWAP1 POP SSTORE SWAP1 POP DUP1 DUP3 PUSH1 0x0 ADD DUP2 DUP2 MSTORE POP POP PUSH1 0x1 DUP3 SWAP1 DUP1 PUSH1 0x1 DUP2 SLOAD ADD DUP1 DUP3 SSTORE DUP1 SWAP2 POP POP PUSH1 0x1 SWAP1 SUB SWAP1 PUSH1 0x0 MSTORE PUSH1 0x20 PUSH1 0x0 KECCAK256 SWAP1 PUSH1 0x5 MUL ADD PUSH1 0x0 SWAP1 SWAP2 SWAP1 SWAP2 SWAP1 SWAP2 POP PUSH1 0x0 DUP3 ADD MLOAD DUP2 PUSH1 0x0 ADD SSTORE PUSH1 0x20 DUP3 ADD MLOAD DUP2 PUSH1 0x1 ADD SWAP1 DUP2 PUSH2 0x375 SWAP2 SWAP1 PUSH2 0x1211 JUMP JUMPDEST POP PUSH1 0x40 DUP3 ADD MLOAD DUP2 PUSH1 0x2 ADD SSTORE PUSH1 0x60 DUP3 ADD MLOAD DUP2 PUSH1 0x3 ADD SWAP1 DUP2 PUSH2 0x395 SWAP2 SWAP1 PUSH2 0x1211 JUMP JUMPDEST POP PUSH1 0x80 DUP3 ADD MLOAD DUP2 PUSH1 0x4 ADD PUSH1 0x0 PUSH2 0x100 EXP DUP2 SLOAD DUP2 PUSH1 0xFF MUL NOT AND SWAP1 DUP4 ISZERO ISZERO MUL OR SWAP1 SSTORE POP POP POP POP POP JUMP JUMPDEST PUSH1 0x60 PUSH1 0x3 PUSH1 0x0 PUSH2 0x3CA PUSH2 0x7CE JUMP JUMPDEST PUSH20 0xFFFFFFFFFFFFFFFFFFFFFFFFFFFFFFFFFFFFFFFF AND PUSH20 0xFFFFFFFFFFFFFFFFFFFFFFFFFFFFFFFFFFFFFFFF AND DUP2 MSTORE PUSH1 0x20 ADD SWAP1 DUP2 MSTORE PUSH1 0x20 ADD PUSH1 0x0 KECCAK256 PUSH1 0x0 SWAP1 SLOAD SWAP1 PUSH2 0x100 EXP SWAP1 DIV PUSH1 0xFF AND PUSH2 0x451 JUMPI PUSH1 0x40 MLOAD PUSH32 0x8C379A000000000000000000000000000000000000000000000000000000000 DUP2 MSTORE PUSH1 0x4 ADD PUSH2 0x448 SWAP1 PUSH2 0xF6E JUMP JUMPDEST PUSH1 0x40 MLOAD DUP1 SWAP2 SUB SWAP1 REVERT JUMPDEST PUSH1 0x1 DUP1 SLOAD DUP1 PUSH1 0x20 MUL PUSH1 0x20 ADD PUSH1 0x40 MLOAD SWAP1 DUP2 ADD PUSH1 0x40 MSTORE DUP1 SWAP3 SWAP2 SWAP1 DUP2 DUP2 MSTORE PUSH1 0x20 ADD PUSH1 0x0 SWAP1 JUMPDEST DUP3 DUP3 LT ISZERO PUSH2 0x5F8 JUMPI DUP4 DUP3 SWAP1 PUSH1 0x0 MSTORE PUSH1 0x20 PUSH1 0x0 KECCAK256 SWAP1 PUSH1 0x5 MUL ADD PUSH1 0x40 MLOAD DUP1 PUSH1 0xA0 ADD PUSH1 0x40 MSTORE SWAP1 DUP2 PUSH1 0x0 DUP3 ADD SLOAD DUP2 MSTORE PUSH1 0x20 ADD PUSH1 0x1 DUP3 ADD DUP1 SLOAD PUSH2 0x4B0 SWAP1 PUSH2 0x1034 JUMP JUMPDEST DUP1 PUSH1 0x1F ADD PUSH1 0x20 DUP1 SWAP2 DIV MUL PUSH1 0x20 ADD PUSH1 0x40 MLOAD SWAP1 DUP2 ADD PUSH1 0x40 MSTORE DUP1 SWAP3 SWAP2 SWAP1 DUP2 DUP2 MSTORE PUSH1 0x20 ADD DUP3 DUP1 SLOAD PUSH2 0x4DC SWAP1 PUSH2 0x1034 JUMP JUMPDEST DUP1 ISZERO PUSH2 0x529 JUMPI DUP1 PUSH1 0x1F LT PUSH2 0x4FE JUMPI PUSH2 0x100 DUP1 DUP4 SLOAD DIV MUL DUP4 MSTORE SWAP2 PUSH1 0x20 ADD SWAP2 PUSH2 0x529 JUMP JUMPDEST DUP3 ADD SWAP2 SWAP1 PUSH1 0x0 MSTORE PUSH1 0x20 PUSH1 0x0 KECCAK256 SWAP1 JUMPDEST DUP2 SLOAD DUP2 MSTORE SWAP1 PUSH1 0x1 ADD SWAP1 PUSH1 0x20 ADD DUP1 DUP4 GT PUSH2 0x50C JUMPI DUP3 SWAP1 SUB PUSH1 0x1F AND DUP3 ADD SWAP2 JUMPDEST POP POP POP POP POP DUP2 MSTORE PUSH1 0x20 ADD PUSH1 0x2 DUP3 ADD SLOAD DUP2 MSTORE PUSH1 0x20 ADD PUSH1 0x3 DUP3 ADD DUP1 SLOAD PUSH2 0x54C SWAP1 PUSH2 0x1034 JUMP JUMPDEST DUP1 PUSH1 0x1F ADD PUSH1 0x20 DUP1 SWAP2 DIV MUL PUSH1 0x20 ADD PUSH1 0x40 MLOAD SWAP1 DUP2 ADD PUSH1 0x40 MSTORE DUP1 SWAP3 SWAP2 SWAP1 DUP2 DUP2 MSTORE PUSH1 0x20 ADD DUP3 DUP1 SLOAD PUSH2 0x578 SWAP1 PUSH2 0x1034 JUMP JUMPDEST DUP1 ISZERO PUSH2 0x5C5 JUMPI DUP1 PUSH1 0x1F LT PUSH2 0x59A JUMPI PUSH2 0x100 DUP1 DUP4 SLOAD DIV MUL DUP4 MSTORE SWAP2 PUSH1 0x20 ADD SWAP2 PUSH2 0x5C5 JUMP JUMPDEST DUP3 ADD SWAP2 SWAP1 PUSH1 0x0 MSTORE PUSH1 0x20 PUSH1 0x0 KECCAK256 SWAP1 JUMPDEST DUP2 SLOAD DUP2 MSTORE SWAP1 PUSH1 0x1 ADD SWAP1 PUSH1 0x20 ADD DUP1 DUP4 GT PUSH2 0x5A8 JUMPI DUP3 SWAP1 SUB PUSH1 0x1F AND DUP3 ADD SWAP2 JUMPDEST POP POP POP POP POP DUP2 MSTORE PUSH1 0x20 ADD PUSH1 0x4 DUP3 ADD PUSH1 0x0 SWAP1 SLOAD SWAP1 PUSH2 0x100 EXP SWAP1 DIV PUSH1 0xFF AND ISZERO ISZERO ISZERO ISZERO DUP2 MSTORE POP POP DUP2 MSTORE PUSH1 0x20 ADD SWAP1 PUSH1 0x1 ADD SWAP1 PUSH2 0x473 JUMP JUMPDEST POP POP POP POP SWAP1 POP SWAP1 JUMP JUMPDEST PUSH1 0x3 PUSH1 0x0 PUSH2 0x60D PUSH2 0x7CE JUMP JUMPDEST PUSH20 0xFFFFFFFFFFFFFFFFFFFFFFFFFFFFFFFFFFFFFFFF AND PUSH20 0xFFFFFFFFFFFFFFFFFFFFFFFFFFFFFFFFFFFFFFFF AND DUP2 MSTORE PUSH1 0x20 ADD SWAP1 DUP2 MSTORE PUSH1 0x20 ADD PUSH1 0x0 KECCAK256 PUSH1 0x0 SWAP1 SLOAD SWAP1 PUSH2 0x100 EXP SWAP1 DIV PUSH1 0xFF AND PUSH2 0x694 JUMPI PUSH1 0x40 MLOAD PUSH32 0x8C379A000000000000000000000000000000000000000000000000000000000 DUP2 MSTORE PUSH1 0x4 ADD PUSH2 0x68B SWAP1 PUSH2 0xF6E JUMP JUMPDEST PUSH1 0x40 MLOAD DUP1 SWAP2 SUB SWAP1 REVERT JUMPDEST PUSH1 0x1 DUP1 DUP3 DUP2 SLOAD DUP2 LT PUSH2 0x6A9 JUMPI PUSH2 0x6A8 PUSH2 0x12E3 JUMP JUMPDEST JUMPDEST SWAP1 PUSH1 0x0 MSTORE PUSH1 0x20 PUSH1 0x0 KECCAK256 SWAP1 PUSH1 0x5 MUL ADD PUSH1 0x4 ADD PUSH1 0x0 PUSH2 0x100 EXP DUP2 SLOAD DUP2 PUSH1 0xFF MUL NOT AND SWAP1 DUP4 ISZERO ISZERO MUL OR SWAP1 SSTORE POP POP JUMP JUMPDEST PUSH2 0x6DC PUSH2 0x757 JUMP JUMPDEST PUSH1 0x0 PUSH20 0xFFFFFFFFFFFFFFFFFFFFFFFFFFFFFFFFFFFFFFFF AND DUP2 PUSH20 0xFFFFFFFFFFFFFFFFFFFFFFFFFFFFFFFFFFFFFFFF AND SUB PUSH2 0x74B JUMPI PUSH1 0x40 MLOAD PUSH32 0x8C379A000000000000000000000000000000000000000000000000000000000 DUP2 MSTORE PUSH1 0x4 ADD PUSH2 0x742 SWAP1 PUSH2 0x1384 JUMP JUMPDEST PUSH1 0x40 MLOAD DUP1 SWAP2 SUB SWAP1 REVERT JUMPDEST PUSH2 0x754 DUP2 PUSH2 0x7D6 JUMP JUMPDEST POP JUMP JUMPDEST CALLER PUSH20 0xFFFFFFFFFFFFFFFFFFFFFFFFFFFFFFFFFFFFFFFF AND PUSH2 0x776 PUSH2 0x249 JUMP JUMPDEST PUSH20 0xFFFFFFFFFFFFFFFFFFFFFFFFFFFFFFFFFFFFFFFF AND EQ PUSH2 0x7CC JUMPI PUSH1 0x40 MLOAD PUSH32 0x8C379A000000000000000000000000000000000000000000000000000000000 DUP2 MSTORE PUSH1 0x4 ADD PUSH2 0x7C3 SWAP1 PUSH2 0x13F0 JUMP JUMPDEST PUSH1 0x40 MLOAD DUP1 SWAP2 SUB SWAP1 REVERT JUMPDEST JUMP JUMPDEST PUSH1 0x0 CALLER SWAP1 POP SWAP1 JUMP JUMPDEST PUSH1 0x0 DUP1 PUSH1 0x0 SWAP1 SLOAD SWAP1 PUSH2 0x100 EXP SWAP1 DIV PUSH20 0xFFFFFFFFFFFFFFFFFFFFFFFFFFFFFFFFFFFFFFFF AND SWAP1 POP DUP2 PUSH1 0x0 DUP1 PUSH2 0x100 EXP DUP2 SLOAD DUP2 PUSH20 0xFFFFFFFFFFFFFFFFFFFFFFFFFFFFFFFFFFFFFFFF MUL NOT AND SWAP1 DUP4 PUSH20 0xFFFFFFFFFFFFFFFFFFFFFFFFFFFFFFFFFFFFFFFF AND MUL OR SWAP1 SSTORE POP DUP2 PUSH20 0xFFFFFFFFFFFFFFFFFFFFFFFFFFFFFFFFFFFFFFFF AND DUP2 PUSH20 0xFFFFFFFFFFFFFFFFFFFFFFFFFFFFFFFFFFFFFFFF AND PUSH32 0x8BE0079C531659141344CD1FD0A4F28419497F9722A3DAAFE3B4186F6B6457E0 PUSH1 0x40 MLOAD PUSH1 0x40 MLOAD DUP1 SWAP2 SUB SWAP1 LOG3 POP POP JUMP JUMPDEST PUSH1 0x0 PUSH1 0x40 MLOAD SWAP1 POP SWAP1 JUMP JUMPDEST PUSH1 0x0 DUP1 REVERT JUMPDEST PUSH1 0x0 DUP1 REVERT JUMPDEST PUSH1 0x0 PUSH20 0xFFFFFFFFFFFFFFFFFFFFFFFFFFFFFFFFFFFFFFFF DUP3 AND SWAP1 POP SWAP2 SWAP1 POP JUMP JUMPDEST PUSH1 0x0 PUSH2 0x8D9 DUP3 PUSH2 0x8AE JUMP JUMPDEST SWAP1 POP SWAP2 SWAP1 POP JUMP JUMPDEST PUSH2 0x8E9 DUP2 PUSH2 0x8CE JUMP JUMPDEST DUP2 EQ PUSH2 0x8F4 JUMPI PUSH1 0x0 DUP1 REVERT JUMPDEST POP JUMP JUMPDEST PUSH1 0x0 DUP2 CALLDATALOAD SWAP1 POP PUSH2 0x906 DUP2 PUSH2 0x8E0 JUMP JUMPDEST SWAP3 SWAP2 POP POP JUMP JUMPDEST PUSH1 0x0 PUSH1 0x20 DUP3 DUP5 SUB SLT ISZERO PUSH2 0x922 JUMPI PUSH2 0x921 PUSH2 0x8A4 JUMP JUMPDEST JUMPDEST PUSH1 0x0 PUSH2 0x930 DUP5 DUP3 DUP6 ADD PUSH2 0x8F7 JUMP JUMPDEST SWAP2 POP POP SWAP3 SWAP2 POP POP JUMP JUMPDEST PUSH2 0x942 DUP2 PUSH2 0x8CE JUMP JUMPDEST DUP3 MSTORE POP POP JUMP JUMPDEST PUSH1 0x0 PUSH1 0x20 DUP3 ADD SWAP1 POP PUSH2 0x95D PUSH1 0x0 DUP4 ADD DUP5 PUSH2 0x939 JUMP JUMPDEST SWAP3 SWAP2 POP POP JUMP JUMPDEST PUSH1 0x0 DUP1 REVERT JUMPDEST PUSH1 0x0 PUSH1 0x1F NOT PUSH1 0x1F DUP4 ADD AND SWAP1 POP SWAP2 SWAP1 POP JUMP JUMPDEST PUSH32 0x4E487B7100000000000000000000000000000000000000000000000000000000 PUSH1 0x0 MSTORE PUSH1 0x41 PUSH1 0x4 MSTORE PUSH1 0x24 PUSH1 0x0 REVERT JUMPDEST PUSH2 0x9B1 DUP3 PUSH2 0x968 JUMP JUMPDEST DUP2 ADD DUP2 DUP2 LT PUSH8 0xFFFFFFFFFFFFFFFF DUP3 GT OR ISZERO PUSH2 0x9D0 JUMPI PUSH2 0x9CF PUSH2 0x979 JUMP JUMPDEST JUMPDEST DUP1 PUSH1 0x40 MSTORE POP POP POP JUMP JUMPDEST PUSH1 0x0 PUSH2 0x9E3 PUSH2 0x89A JUMP JUMPDEST SWAP1 POP PUSH2 0x9EF DUP3 DUP3 PUSH2 0x9A8 JUMP JUMPDEST SWAP2 SWAP1 POP JUMP JUMPDEST PUSH1 0x0 DUP1 REVERT JUMPDEST PUSH1 0x0 DUP2 SWAP1 POP SWAP2 SWAP1 POP JUMP JUMPDEST PUSH2 0xA0C DUP2 PUSH2 0x9F9 JUMP JUMPDEST DUP2 EQ PUSH2 0xA17 JUMPI PUSH1 0x0 DUP1 REVERT JUMPDEST POP JUMP JUMPDEST PUSH1 0x0 DUP2 CALLDATALOAD SWAP1 POP PUSH2 0xA29 DUP2 PUSH2 0xA03 JUMP JUMPDEST SWAP3 SWAP2 POP POP JUMP JUMPDEST PUSH1 0x0 DUP1 REVERT JUMPDEST PUSH1 0x0 DUP1 REVERT JUMPDEST PUSH1 0x0 PUSH8 0xFFFFFFFFFFFFFFFF DUP3 GT ISZERO PUSH2 0xA54 JUMPI PUSH2 0xA53 PUSH2 0x979 JUMP JUMPDEST JUMPDEST PUSH2 0xA5D DUP3 PUSH2 0x968 JUMP JUMPDEST SWAP1 POP PUSH1 0x20 DUP2 ADD SWAP1 POP SWAP2 SWAP1 POP JUMP JUMPDEST DUP3 DUP2 DUP4 CALLDATACOPY PUSH1 0x0 DUP4 DUP4 ADD MSTORE POP POP POP JUMP JUMPDEST PUSH1 0x0 PUSH2 0xA8C PUSH2 0xA87 DUP5 PUSH2 0xA39 JUMP JUMPDEST PUSH2 0x9D9 JUMP JUMPDEST SWAP1 POP DUP3 DUP2 MSTORE PUSH1 0x20 DUP2 ADD DUP5 DUP5 DUP5 ADD GT ISZERO PUSH2 0xAA8 JUMPI PUSH2 0xAA7 PUSH2 0xA34 JUMP JUMPDEST JUMPDEST PUSH2 0xAB3 DUP5 DUP3 DUP6 PUSH2 0xA6A JUMP JUMPDEST POP SWAP4 SWAP3 POP POP POP JUMP JUMPDEST PUSH1 0x0 DUP3 PUSH1 0x1F DUP4 ADD SLT PUSH2 0xAD0 JUMPI PUSH2 0xACF PUSH2 0xA2F JUMP JUMPDEST JUMPDEST DUP2 CALLDATALOAD PUSH2 0xAE0 DUP5 DUP3 PUSH1 0x20 DUP7 ADD PUSH2 0xA79 JUMP JUMPDEST SWAP2 POP POP SWAP3 SWAP2 POP POP JUMP JUMPDEST PUSH1 0x0 DUP2 ISZERO ISZERO SWAP1 POP SWAP2 SWAP1 POP JUMP JUMPDEST PUSH2 0xAFE DUP2 PUSH2 0xAE9 JUMP JUMPDEST DUP2 EQ PUSH2 0xB09 JUMPI PUSH1 0x0 DUP1 REVERT JUMPDEST POP JUMP JUMPDEST PUSH1 0x0 DUP2 CALLDATALOAD SWAP1 POP PUSH2 0xB1B DUP2 PUSH2 0xAF5 JUMP JUMPDEST SWAP3 SWAP2 POP POP JUMP JUMPDEST PUSH1 0x0 PUSH1 0xA0 DUP3 DUP5 SUB SLT ISZERO PUSH2 0xB37 JUMPI PUSH2 0xB36 PUSH2 0x963 JUMP JUMPDEST JUMPDEST PUSH2 0xB41 PUSH1 0xA0 PUSH2 0x9D9 JUMP JUMPDEST SWAP1 POP PUSH1 0x0 PUSH2 0xB51 DUP5 DUP3 DUP6 ADD PUSH2 0xA1A JUMP JUMPDEST PUSH1 0x0 DUP4 ADD MSTORE POP PUSH1 0x20 DUP3 ADD CALLDATALOAD PUSH8 0xFFFFFFFFFFFFFFFF DUP2 GT ISZERO PUSH2 0xB75 JUMPI PUSH2 0xB74 PUSH2 0x9F4 JUMP JUMPDEST JUMPDEST PUSH2 0xB81 DUP5 DUP3 DUP6 ADD PUSH2 0xABB JUMP JUMPDEST PUSH1 0x20 DUP4 ADD MSTORE POP PUSH1 0x40 PUSH2 0xB95 DUP5 DUP3 DUP6 ADD PUSH2 0xA1A JUMP JUMPDEST PUSH1 0x40 DUP4 ADD MSTORE POP PUSH1 0x60 DUP3 ADD CALLDATALOAD PUSH8 0xFFFFFFFFFFFFFFFF DUP2 GT ISZERO PUSH2 0xBB9 JUMPI PUSH2 0xBB8 PUSH2 0x9F4 JUMP JUMPDEST JUMPDEST PUSH2 0xBC5 DUP5 DUP3 DUP6 ADD PUSH2 0xABB JUMP JUMPDEST PUSH1 0x60 DUP4 ADD MSTORE POP PUSH1 0x80 PUSH2 0xBD9 DUP5 DUP3 DUP6 ADD PUSH2 0xB0C JUMP JUMPDEST PUSH1 0x80 DUP4 ADD MSTORE POP SWAP3 SWAP2 POP POP JUMP JUMPDEST PUSH1 0x0 PUSH1 0x20 DUP3 DUP5 SUB SLT ISZERO PUSH2 0xBFB JUMPI PUSH2 0xBFA PUSH2 0x8A4 JUMP JUMPDEST JUMPDEST PUSH1 0x0 DUP3 ADD CALLDATALOAD PUSH8 0xFFFFFFFFFFFFFFFF DUP2 GT ISZERO PUSH2 0xC19 JUMPI PUSH2 0xC18 PUSH2 0x8A9 JUMP JUMPDEST JUMPDEST PUSH2 0xC25 DUP5 DUP3 DUP6 ADD PUSH2 0xB21 JUMP JUMPDEST SWAP2 POP POP SWAP3 SWAP2 POP POP JUMP JUMPDEST PUSH1 0x0 DUP2 MLOAD SWAP1 POP SWAP2 SWAP1 POP JUMP JUMPDEST PUSH1 0x0 DUP3 DUP3 MSTORE PUSH1 0x20 DUP3 ADD SWAP1 POP SWAP3 SWAP2 POP POP JUMP JUMPDEST PUSH1 0x0 DUP2 SWAP1 POP PUSH1 0x20 DUP3 ADD SWAP1 POP SWAP2 SWAP1 POP JUMP JUMPDEST PUSH2 0xC63 DUP2 PUSH2 0x9F9 JUMP JUMPDEST DUP3 MSTORE POP POP JUMP JUMPDEST PUSH1 0x0 DUP2 MLOAD SWAP1 POP SWAP2 SWAP1 POP JUMP JUMPDEST PUSH1 0x0 DUP3 DUP3 MSTORE PUSH1 0x20 DUP3 ADD SWAP1 POP SWAP3 SWAP2 POP POP JUMP JUMPDEST PUSH1 0x0 JUMPDEST DUP4 DUP2 LT ISZERO PUSH2 0xCA3 JUMPI DUP1 DUP3 ADD MLOAD DUP2 DUP5 ADD MSTORE PUSH1 0x20 DUP2 ADD SWAP1 POP PUSH2 0xC88 JUMP JUMPDEST PUSH1 0x0 DUP5 DUP5 ADD MSTORE POP POP POP POP JUMP JUMPDEST PUSH1 0x0 PUSH2 0xCBA DUP3 PUSH2 0xC69 JUMP JUMPDEST PUSH2 0xCC4 DUP2 DUP6 PUSH2 0xC74 JUMP JUMPDEST SWAP4 POP PUSH2 0xCD4 DUP2 DUP6 PUSH1 0x20 DUP7 ADD PUSH2 0xC85 JUMP JUMPDEST PUSH2 0xCDD DUP2 PUSH2 0x968 JUMP JUMPDEST DUP5 ADD SWAP2 POP POP SWAP3 SWAP2 POP POP JUMP JUMPDEST PUSH2 0xCF1 DUP2 PUSH2 0xAE9 JUMP JUMPDEST DUP3 MSTORE POP POP JUMP JUMPDEST PUSH1 0x0 PUSH1 0xA0 DUP4 ADD PUSH1 0x0 DUP4 ADD MLOAD PUSH2 0xD0F PUSH1 0x0 DUP7 ADD DUP3 PUSH2 0xC5A JUMP JUMPDEST POP PUSH1 0x20 DUP4 ADD MLOAD DUP5 DUP3 SUB PUSH1 0x20 DUP7 ADD MSTORE PUSH2 0xD27 DUP3 DUP3 PUSH2 0xCAF JUMP JUMPDEST SWAP2 POP POP PUSH1 0x40 DUP4 ADD MLOAD PUSH2 0xD3C PUSH1 0x40 DUP7 ADD DUP3 PUSH2 0xC5A JUMP JUMPDEST POP PUSH1 0x60 DUP4 ADD MLOAD DUP5 DUP3 SUB PUSH1 0x60 DUP7 ADD MSTORE PUSH2 0xD54 DUP3 DUP3 PUSH2 0xCAF JUMP JUMPDEST SWAP2 POP POP PUSH1 0x80 DUP4 ADD MLOAD PUSH2 0xD69 PUSH1 0x80 DUP7 ADD DUP3 PUSH2 0xCE8 JUMP JUMPDEST POP DUP1 SWAP2 POP POP SWAP3 SWAP2 POP POP JUMP JUMPDEST PUSH1 0x0 PUSH2 0xD80 DUP4 DUP4 PUSH2 0xCF7 JUMP JUMPDEST SWAP1 POP SWAP3 SWAP2 POP POP JUMP JUMPDEST PUSH1 0x0 PUSH1 0x20 DUP3 ADD SWAP1 POP SWAP2 SWAP1 POP JUMP JUMPDEST PUSH1 0x0 PUSH2 0xDA0 DUP3 PUSH2 0xC2E JUMP JUMPDEST PUSH2 0xDAA DUP2 DUP6 PUSH2 0xC39 JUMP JUMPDEST SWAP4 POP DUP4 PUSH1 0x20 DUP3 MUL DUP6 ADD PUSH2 0xDBC DUP6 PUSH2 0xC4A JUMP JUMPDEST DUP1 PUSH1 0x0 JUMPDEST DUP6 DUP2 LT ISZERO PUSH2 0xDF8 JUMPI DUP5 DUP5 SUB DUP10 MSTORE DUP2 MLOAD PUSH2 0xDD9 DUP6 DUP3 PUSH2 0xD74 JUMP JUMPDEST SWAP5 POP PUSH2 0xDE4 DUP4 PUSH2 0xD88 JUMP JUMPDEST SWAP3 POP PUSH1 0x20 DUP11 ADD SWAP10 POP POP PUSH1 0x1 DUP2 ADD SWAP1 POP PUSH2 0xDC0 JUMP JUMPDEST POP DUP3 SWAP8 POP DUP8 SWAP6 POP POP POP POP POP POP SWAP3 SWAP2 POP POP JUMP JUMPDEST PUSH1 0x0 PUSH1 0x20 DUP3 ADD SWAP1 POP DUP2 DUP2 SUB PUSH1 0x0 DUP4 ADD MSTORE PUSH2 0xE24 DUP2 DUP5 PUSH2 0xD95 JUMP JUMPDEST SWAP1 POP SWAP3 SWAP2 POP POP JUMP JUMPDEST PUSH1 0x0 PUSH1 0x20 DUP3 DUP5 SUB SLT ISZERO PUSH2 0xE42 JUMPI PUSH2 0xE41 PUSH2 0x8A4 JUMP JUMPDEST JUMPDEST PUSH1 0x0 PUSH2 0xE50 DUP5 DUP3 DUP6 ADD PUSH2 0xA1A JUMP JUMPDEST SWAP2 POP POP SWAP3 SWAP2 POP POP JUMP JUMPDEST PUSH1 0x0 DUP3 DUP3 MSTORE PUSH1 0x20 DUP3 ADD SWAP1 POP SWAP3 SWAP2 POP POP JUMP JUMPDEST PUSH32 0x426174636844617461626173653A207065726D697373696F6E20686173206265 PUSH1 0x0 DUP3 ADD MSTORE PUSH32 0x656E206772616E74656400000000000000000000000000000000000000000000 PUSH1 0x20 DUP3 ADD MSTORE POP JUMP JUMPDEST PUSH1 0x0 PUSH2 0xEC6 PUSH1 0x2A DUP4 PUSH2 0xE59 JUMP JUMPDEST SWAP2 POP PUSH2 0xED1 DUP3 PUSH2 0xE6A JUMP JUMPDEST PUSH1 0x40 DUP3 ADD SWAP1 POP SWAP2 SWAP1 POP JUMP JUMPDEST PUSH1 0x0 PUSH1 0x20 DUP3 ADD SWAP1 POP DUP2 DUP2 SUB PUSH1 0x0 DUP4 ADD MSTORE PUSH2 0xEF5 DUP2 PUSH2 0xEB9 JUMP JUMPDEST SWAP1 POP SWAP2 SWAP1 POP JUMP JUMPDEST PUSH32 0x426174636844617461626173653A206F6E6C7920636F6E747261637420776869 PUSH1 0x0 DUP3 ADD MSTORE PUSH32 0x63682061726520616C6C6F776564000000000000000000000000000000000000 PUSH1 0x20 DUP3 ADD MSTORE POP JUMP JUMPDEST PUSH1 0x0 PUSH2 0xF58 PUSH1 0x2E DUP4 PUSH2 0xE59 JUMP JUMPDEST SWAP2 POP PUSH2 0xF63 DUP3 PUSH2 0xEFC JUMP JUMPDEST PUSH1 0x40 DUP3 ADD SWAP1 POP SWAP2 SWAP1 POP JUMP JUMPDEST PUSH1 0x0 PUSH1 0x20 DUP3 ADD SWAP1 POP DUP2 DUP2 SUB PUSH1 0x0 DUP4 ADD MSTORE PUSH2 0xF87 DUP2 PUSH2 0xF4B JUMP JUMPDEST SWAP1 POP SWAP2 SWAP1 POP JUMP JUMPDEST PUSH32 0x4E487B7100000000000000000000000000000000000000000000000000000000 PUSH1 0x0 MSTORE PUSH1 0x11 PUSH1 0x4 MSTORE PUSH1 0x24 PUSH1 0x0 REVERT JUMPDEST PUSH1 0x0 PUSH2 0xFC8 DUP3 PUSH2 0x9F9 JUMP JUMPDEST SWAP2 POP PUSH32 0xFFFFFFFFFFFFFFFFFFFFFFFFFFFFFFFFFFFFFFFFFFFFFFFFFFFFFFFFFFFFFFFF DUP3 SUB PUSH2 0xFFA JUMPI PUSH2 0xFF9 PUSH2 0xF8E JUMP JUMPDEST JUMPDEST PUSH1 0x1 DUP3 ADD SWAP1 POP SWAP2 SWAP1 POP JUMP JUMPDEST PUSH32 0x4E487B7100000000000000000000000000000000000000000000000000000000 PUSH1 0x0 MSTORE PUSH1 0x22 PUSH1 0x4 MSTORE PUSH1 0x24 PUSH1 0x0 REVERT JUMPDEST PUSH1 0x0 PUSH1 0x2 DUP3 DIV SWAP1 POP PUSH1 0x1 DUP3 AND DUP1 PUSH2 0x104C JUMPI PUSH1 0x7F DUP3 AND SWAP2 POP JUMPDEST PUSH1 0x20 DUP3 LT DUP2 SUB PUSH2 0x105F JUMPI PUSH2 0x105E PUSH2 0x1005 JUMP JUMPDEST JUMPDEST POP SWAP2 SWAP1 POP JUMP JUMPDEST PUSH1 0x0 DUP2 SWAP1 POP DUP2 PUSH1 0x0 MSTORE PUSH1 0x20 PUSH1 0x0 KECCAK256 SWAP1 POP SWAP2 SWAP1 POP JUMP JUMPDEST PUSH1 0x0 PUSH1 0x20 PUSH1 0x1F DUP4 ADD DIV SWAP1 POP SWAP2 SWAP1 POP JUMP JUMPDEST PUSH1 0x0 DUP3 DUP3 SHL SWAP1 POP SWAP3 SWAP2 POP POP JUMP JUMPDEST PUSH1 0x0 PUSH1 0x8 DUP4 MUL PUSH2 0x10C7 PUSH32 0xFFFFFFFFFFFFFFFFFFFFFFFFFFFFFFFFFFFFFFFFFFFFFFFFFFFFFFFFFFFFFFFF DUP3 PUSH2 0x108A JUMP JUMPDEST PUSH2 0x10D1 DUP7 DUP4 PUSH2 0x108A JUMP JUMPDEST SWAP6 POP DUP1 NOT DUP5 AND SWAP4 POP DUP1 DUP7 AND DUP5 OR SWAP3 POP POP POP SWAP4 SWAP3 POP POP POP JUMP JUMPDEST PUSH1 0x0 DUP2 SWAP1 POP SWAP2 SWAP1 POP JUMP JUMPDEST PUSH1 0x0 PUSH2 0x110E PUSH2 0x1109 PUSH2 0x1104 DUP5 PUSH2 0x9F9 JUMP JUMPDEST PUSH2 0x10E9 JUMP JUMPDEST PUSH2 0x9F9 JUMP JUMPDEST SWAP1 POP SWAP2 SWAP1 POP JUMP JUMPDEST PUSH1 0x0 DUP2 SWAP1 POP SWAP2 SWAP1 POP JUMP JUMPDEST PUSH2 0x1128 DUP4 PUSH2 0x10F3 JUMP JUMPDEST PUSH2 0x113C PUSH2 0x1134 DUP3 PUSH2 0x1115 JUMP JUMPDEST DUP5 DUP5 SLOAD PUSH2 0x1097 JUMP JUMPDEST DUP3 SSTORE POP POP POP POP JUMP JUMPDEST PUSH1 0x0 SWAP1 JUMP JUMPDEST PUSH2 0x1151 PUSH2 0x1144 JUMP JUMPDEST PUSH2 0x115C DUP2 DUP5 DUP5 PUSH2 0x111F JUMP JUMPDEST POP POP POP JUMP JUMPDEST JUMPDEST DUP2 DUP2 LT ISZERO PUSH2 0x1180 JUMPI PUSH2 0x1175 PUSH1 0x0 DUP3 PUSH2 0x1149 JUMP JUMPDEST PUSH1 0x1 DUP2 ADD SWAP1 POP PUSH2 0x1162 JUMP JUMPDEST POP POP JUMP JUMPDEST PUSH1 0x1F DUP3 GT ISZERO PUSH2 0x11C5 JUMPI PUSH2 0x1196 DUP2 PUSH2 0x1065 JUMP JUMPDEST PUSH2 0x119F DUP5 PUSH2 0x107A JUMP JUMPDEST DUP2 ADD PUSH1 0x20 DUP6 LT ISZERO PUSH2 0x11AE JUMPI DUP2 SWAP1 POP JUMPDEST PUSH2 0x11C2 PUSH2 0x11BA DUP6 PUSH2 0x107A JUMP JUMPDEST DUP4 ADD DUP3 PUSH2 0x1161 JUMP JUMPDEST POP POP JUMPDEST POP POP POP JUMP JUMPDEST PUSH1 0x0 DUP3 DUP3 SHR SWAP1 POP SWAP3 SWAP2 POP POP JUMP JUMPDEST PUSH1 0x0 PUSH2 0x11E8 PUSH1 0x0 NOT DUP5 PUSH1 0x8 MUL PUSH2 0x11CA JUMP JUMPDEST NOT DUP1 DUP4 AND SWAP2 POP POP SWAP3 SWAP2 POP POP JUMP JUMPDEST PUSH1 0x0 PUSH2 0x1201 DUP4 DUP4 PUSH2 0x11D7 JUMP JUMPDEST SWAP2 POP DUP3 PUSH1 0x2 MUL DUP3 OR SWAP1 POP SWAP3 SWAP2 POP POP JUMP JUMPDEST PUSH2 0x121A DUP3 PUSH2 0xC69 JUMP JUMPDEST PUSH8 0xFFFFFFFFFFFFFFFF DUP2 GT ISZERO PUSH2 0x1233 JUMPI PUSH2 0x1232 PUSH2 0x979 JUMP JUMPDEST JUMPDEST PUSH2 0x123D DUP3 SLOAD PUSH2 0x1034 JUMP JUMPDEST PUSH2 0x1248 DUP3 DUP3 DUP6 PUSH2 0x1184 JUMP JUMPDEST PUSH1 0x0 PUSH1 0x20 SWAP1 POP PUSH1 0x1F DUP4 GT PUSH1 0x1 DUP2 EQ PUSH2 0x127B JUMPI PUSH1 0x0 DUP5 ISZERO PUSH2 0x1269 JUMPI DUP3 DUP8 ADD MLOAD SWAP1 POP JUMPDEST PUSH2 0x1273 DUP6 DUP3 PUSH2 0x11F5 JUMP JUMPDEST DUP7 SSTORE POP PUSH2 0x12DB JUMP JUMPDEST PUSH1 0x1F NOT DUP5 AND PUSH2 0x1289 DUP7 PUSH2 0x1065 JUMP JUMPDEST PUSH1 0x0 JUMPDEST DUP3 DUP2 LT ISZERO PUSH2 0x12B1 JUMPI DUP5 DUP10 ADD MLOAD DUP3 SSTORE PUSH1 0x1 DUP3 ADD SWAP2 POP PUSH1 0x20 DUP6 ADD SWAP5 POP PUSH1 0x20 DUP2 ADD SWAP1 POP PUSH2 0x128C JUMP JUMPDEST DUP7 DUP4 LT ISZERO PUSH2 0x12CE JUMPI DUP5 DUP10 ADD MLOAD PUSH2 0x12CA PUSH1 0x1F DUP10 AND DUP3 PUSH2 0x11D7 JUMP JUMPDEST DUP4 SSTORE POP JUMPDEST PUSH1 0x1 PUSH1 0x2 DUP9 MUL ADD DUP9 SSTORE POP POP POP JUMPDEST POP POP POP POP POP POP JUMP JUMPDEST PUSH32 0x4E487B7100000000000000000000000000000000000000000000000000000000 PUSH1 0x0 MSTORE PUSH1 0x32 PUSH1 0x4 MSTORE PUSH1 0x24 PUSH1 0x0 REVERT JUMPDEST PUSH32 0x4F776E61626C653A206E6577206F776E657220697320746865207A65726F2061 PUSH1 0x0 DUP3 ADD MSTORE PUSH32 0x6464726573730000000000000000000000000000000000000000000000000000 PUSH1 0x20 DUP3 ADD MSTORE POP JUMP JUMPDEST PUSH1 0x0 PUSH2 0x136E PUSH1 0x26 DUP4 PUSH2 0xE59 JUMP JUMPDEST SWAP2 POP PUSH2 0x1379 DUP3 PUSH2 0x1312 JUMP JUMPDEST PUSH1 0x40 DUP3 ADD SWAP1 POP SWAP2 SWAP1 POP JUMP JUMPDEST PUSH1 0x0 PUSH1 0x20 DUP3 ADD SWAP1 POP DUP2 DUP2 SUB PUSH1 0x0 DUP4 ADD MSTORE PUSH2 0x139D DUP2 PUSH2 0x1361 JUMP JUMPDEST SWAP1 POP SWAP2 SWAP1 POP JUMP JUMPDEST PUSH32 0x4F776E61626C653A2063616C6C6572206973206E6F7420746865206F776E6572 PUSH1 0x0 DUP3 ADD MSTORE POP JUMP JUMPDEST PUSH1 0x0 PUSH2 0x13DA PUSH1 0x20 DUP4 PUSH2 0xE59 JUMP JUMPDEST SWAP2 POP PUSH2 0x13E5 DUP3 PUSH2 0x13A4 JUMP JUMPDEST PUSH1 0x20 DUP3 ADD SWAP1 POP SWAP2 SWAP1 POP JUMP JUMPDEST PUSH1 0x0 PUSH1 0x20 DUP3 ADD SWAP1 POP DUP2 DUP2 SUB PUSH1 0x0 DUP4 ADD MSTORE PUSH2 0x1409 DUP2 PUSH2 0x13CD JUMP JUMPDEST SWAP1 POP SWAP2 SWAP1 POP JUMP INVALID LOG2 PUSH5 0x6970667358 0x22 SLT KECCAK256 0xC9 GASPRICE SMOD 0x49 CALLVALUE DIV 0xD1 PUSH16 0x9C05705622FE555BEBEB5233D27F568A 0xAC 0xFB DUP3 LOG4 SWAP6 XOR TIMESTAMP PUSH7 0x64736F6C634300 ADDMOD SLT STOP CALLER "
				},
				"gasEstimates": {
					"creation": {
						"codeDepositCost": "1038000",
						"executionCost": "30352",
						"totalCost": "1068352"
					},
					"external": {
						"addBatch((uint256,string,uint256,string,bool))": "infinite",
						"addChecked(uint256)": "29191",
						"addPermission(address)": "29288",
						"destroy()": "29995",
						"getAllBatch()": "infinite",
						"owner()": "2567",
						"transferOwnership(address)": "30775"
					}
				},
				"methodIdentifiers": {
					"addBatch((uint256,string,uint256,string,bool))": "bf8122f7",
					"addChecked(uint256)": "ee416d5b",
					"addPermission(address)": "4d0a5dbd",
					"destroy()": "83197ef0",
					"getAllBatch()": "cad09ad6",
					"owner()": "8da5cb5b",
					"transferOwnership(address)": "f2fde38b"
				}
			},
			"storageLayout": {
				"storage": [
					{
						"astId": 30,
						"contract": "database/batch/BatchDatabase.sol:BatchDatabase",
						"label": "_owner",
						"offset": 0,
						"slot": "0",
						"type": "t_address"
					},
					{
						"astId": 149,
						"contract": "database/batch/BatchDatabase.sol:BatchDatabase",
						"label": "list",
						"offset": 0,
						"slot": "1",
						"type": "t_array(t_struct(Batch)263_storage)dyn_storage"
					},
					{
						"astId": 152,
						"contract": "database/batch/BatchDatabase.sol:BatchDatabase",
						"label": "autoIncrement",
						"offset": 0,
						"slot": "2",
						"type": "t_uint256"
					},
					{
						"astId": 156,
						"contract": "database/batch/BatchDatabase.sol:BatchDatabase",
						"label": "permissions",
						"offset": 0,
						"slot": "3",
						"type": "t_mapping(t_address,t_bool)"
					}
				],
				"types": {
					"t_address": {
						"encoding": "inplace",
						"label": "address",
						"numberOfBytes": "20"
					},
					"t_array(t_struct(Batch)263_storage)dyn_storage": {
						"base": "t_struct(Batch)263_storage",
						"encoding": "dynamic_array",
						"label": "struct Batch[]",
						"numberOfBytes": "32"
					},
					"t_bool": {
						"encoding": "inplace",
						"label": "bool",
						"numberOfBytes": "1"
					},
					"t_mapping(t_address,t_bool)": {
						"encoding": "mapping",
						"key": "t_address",
						"label": "mapping(address => bool)",
						"numberOfBytes": "32",
						"value": "t_bool"
					},
					"t_string_storage": {
						"encoding": "bytes",
						"label": "string",
						"numberOfBytes": "32"
					},
					"t_struct(Batch)263_storage": {
						"encoding": "inplace",
						"label": "struct Batch",
						"members": [
							{
								"astId": 254,
								"contract": "database/batch/BatchDatabase.sol:BatchDatabase",
								"label": "batchId",
								"offset": 0,
								"slot": "0",
								"type": "t_uint256"
							},
							{
								"astId": 256,
								"contract": "database/batch/BatchDatabase.sol:BatchDatabase",
								"label": "batchName",
								"offset": 0,
								"slot": "1",
								"type": "t_string_storage"
							},
							{
								"astId": 258,
								"contract": "database/batch/BatchDatabase.sol:BatchDatabase",
								"label": "numOfProcess",
								"offset": 0,
								"slot": "2",
								"type": "t_uint256"
							},
							{
								"astId": 260,
								"contract": "database/batch/BatchDatabase.sol:BatchDatabase",
								"label": "categories",
								"offset": 0,
								"slot": "3",
								"type": "t_string_storage"
							},
							{
								"astId": 262,
								"contract": "database/batch/BatchDatabase.sol:BatchDatabase",
								"label": "batchIsChecked",
								"offset": 0,
								"slot": "4",
								"type": "t_bool"
							}
						],
						"numberOfBytes": "160"
					},
					"t_uint256": {
						"encoding": "inplace",
						"label": "uint256",
						"numberOfBytes": "32"
					}
				}
			},
			"userdoc": {
				"kind": "user",
				"methods": {},
				"version": 1
			}
		}
	}
}